{
	"contracts/CooperProxy.sol": {
		"CopperProxy": {
			"abi": [
				{
					"inputs": [
						{
							"internalType": "uint256",
							"name": "feeBPS",
							"type": "uint256"
						},
						{
							"internalType": "address",
							"name": "feeRecipient",
							"type": "address"
						},
						{
							"internalType": "address",
							"name": "LBPFactoryAddress",
							"type": "address"
						}
					],
					"stateMutability": "nonpayable",
					"type": "constructor"
				},
				{
					"anonymous": false,
					"inputs": [
						{
							"indexed": false,
							"internalType": "address",
							"name": "previousRecipient",
							"type": "address"
						},
						{
							"indexed": false,
							"internalType": "address",
							"name": "newRecipient",
							"type": "address"
						}
					],
					"name": "ChangedFeeRecipient",
					"type": "event"
				},
				{
					"anonymous": false,
					"inputs": [
						{
							"indexed": true,
							"internalType": "address",
							"name": "pool",
							"type": "address"
						},
						{
							"indexed": false,
							"internalType": "address[]",
							"name": "tokens",
							"type": "address[]"
						},
						{
							"indexed": false,
							"internalType": "uint256[]",
							"name": "minAmountsOut",
							"type": "uint256[]"
						},
						{
							"indexed": false,
							"internalType": "bytes",
							"name": "userData",
							"type": "bytes"
						}
					],
					"name": "ExitedPool",
					"type": "event"
				},
				{
					"anonymous": false,
					"inputs": [
						{
							"indexed": true,
							"internalType": "address",
							"name": "pool",
							"type": "address"
						},
						{
							"indexed": false,
							"internalType": "uint256",
							"name": "startTime",
							"type": "uint256"
						},
						{
							"indexed": false,
							"internalType": "uint256",
							"name": "endTime",
							"type": "uint256"
						},
						{
							"indexed": false,
							"internalType": "uint256[]",
							"name": "endWeights",
							"type": "uint256[]"
						}
					],
					"name": "GradualWeightUpdateScheduled",
					"type": "event"
				},
				{
					"anonymous": false,
					"inputs": [
						{
							"indexed": true,
							"internalType": "address",
							"name": "pool",
							"type": "address"
						},
						{
							"indexed": false,
							"internalType": "address[]",
							"name": "tokens",
							"type": "address[]"
						},
						{
							"indexed": false,
							"internalType": "uint256[]",
							"name": "amounts",
							"type": "uint256[]"
						},
						{
							"indexed": false,
							"internalType": "bytes",
							"name": "userData",
							"type": "bytes"
						}
					],
					"name": "JoinedPool",
					"type": "event"
				},
				{
					"anonymous": false,
					"inputs": [
						{
							"indexed": true,
							"internalType": "address",
							"name": "previousOwner",
							"type": "address"
						},
						{
							"indexed": true,
							"internalType": "address",
							"name": "newOwner",
							"type": "address"
						}
					],
					"name": "OwnershipTransferred",
					"type": "event"
				},
				{
					"anonymous": false,
					"inputs": [
						{
							"indexed": true,
							"internalType": "address",
							"name": "pool",
							"type": "address"
						},
						{
							"indexed": false,
							"internalType": "bytes32",
							"name": "poolId",
							"type": "bytes32"
						},
						{
							"indexed": false,
							"internalType": "string",
							"name": "name",
							"type": "string"
						},
						{
							"indexed": false,
							"internalType": "string",
							"name": "symbol",
							"type": "string"
						},
						{
							"indexed": false,
							"internalType": "address[]",
							"name": "tokens",
							"type": "address[]"
						},
						{
							"indexed": false,
							"internalType": "uint256[]",
							"name": "weights",
							"type": "uint256[]"
						},
						{
							"indexed": false,
							"internalType": "uint256",
							"name": "swapFeePercentage",
							"type": "uint256"
						},
						{
							"indexed": false,
							"internalType": "address",
							"name": "owner",
							"type": "address"
						},
						{
							"indexed": false,
							"internalType": "bool",
							"name": "swapEnabledOnStart",
							"type": "bool"
						}
					],
					"name": "PoolCreated",
					"type": "event"
				},
				{
					"anonymous": false,
					"inputs": [
						{
							"indexed": false,
							"internalType": "address",
							"name": "token",
							"type": "address"
						},
						{
							"indexed": false,
							"internalType": "address",
							"name": "to",
							"type": "address"
						},
						{
							"indexed": false,
							"internalType": "uint256",
							"name": "balance",
							"type": "uint256"
						}
					],
					"name": "Skimmed",
					"type": "event"
				},
				{
					"anonymous": false,
					"inputs": [
						{
							"indexed": true,
							"internalType": "address",
							"name": "pool",
							"type": "address"
						},
						{
							"indexed": false,
							"internalType": "bool",
							"name": "swapEnabled",
							"type": "bool"
						}
					],
					"name": "SwapEnabledSet",
					"type": "event"
				},
				{
					"anonymous": false,
					"inputs": [
						{
							"indexed": true,
							"internalType": "address",
							"name": "pool",
							"type": "address"
						},
						{
							"indexed": false,
							"internalType": "address",
							"name": "token",
							"type": "address"
						},
						{
							"indexed": false,
							"internalType": "address",
							"name": "feeRecipient",
							"type": "address"
						},
						{
							"indexed": false,
							"internalType": "uint256",
							"name": "feeAmount",
							"type": "uint256"
						}
					],
					"name": "TransferedFee",
					"type": "event"
				},
				{
					"anonymous": false,
					"inputs": [
						{
							"indexed": true,
							"internalType": "address",
							"name": "pool",
							"type": "address"
						},
						{
							"indexed": false,
							"internalType": "address",
							"name": "previousOwner",
							"type": "address"
						},
						{
							"indexed": false,
							"internalType": "address",
							"name": "newOwner",
							"type": "address"
						}
					],
					"name": "TransferedPoolOwnership",
					"type": "event"
				},
				{
					"anonymous": false,
					"inputs": [
						{
							"indexed": true,
							"internalType": "address",
							"name": "pool",
							"type": "address"
						},
						{
							"indexed": false,
							"internalType": "address",
							"name": "token",
							"type": "address"
						},
						{
							"indexed": false,
							"internalType": "address",
							"name": "to",
							"type": "address"
						},
						{
							"indexed": false,
							"internalType": "uint256",
							"name": "amount",
							"type": "uint256"
						}
					],
					"name": "TransferedToken",
					"type": "event"
				},
				{
					"inputs": [],
					"name": "VAULT",
					"outputs": [
						{
							"internalType": "address",
							"name": "",
							"type": "address"
						}
					],
					"stateMutability": "view",
					"type": "function"
				},
				{
					"inputs": [],
					"name": "_LBPFactoryAddress",
					"outputs": [
						{
							"internalType": "address",
							"name": "",
							"type": "address"
						}
					],
					"stateMutability": "view",
					"type": "function"
				},
				{
					"inputs": [],
					"name": "_feeBPS",
					"outputs": [
						{
							"internalType": "uint256",
							"name": "",
							"type": "uint256"
						}
					],
					"stateMutability": "view",
					"type": "function"
				},
				{
					"inputs": [],
					"name": "_feeRecipient",
					"outputs": [
						{
							"internalType": "address",
							"name": "",
							"type": "address"
						}
					],
					"stateMutability": "view",
					"type": "function"
				},
				{
					"inputs": [
						{
							"internalType": "address",
							"name": "newRecipient",
							"type": "address"
						}
					],
					"name": "changeFeeRecipient",
					"outputs": [],
					"stateMutability": "nonpayable",
					"type": "function"
				},
				{
					"inputs": [
						{
							"components": [
								{
									"internalType": "string",
									"name": "name",
									"type": "string"
								},
								{
									"internalType": "string",
									"name": "symbol",
									"type": "string"
								},
								{
									"internalType": "address[]",
									"name": "tokens",
									"type": "address[]"
								},
								{
									"internalType": "uint256[]",
									"name": "amounts",
									"type": "uint256[]"
								},
								{
									"internalType": "uint256[]",
									"name": "weights",
									"type": "uint256[]"
								},
								{
									"internalType": "uint256[]",
									"name": "endWeights",
									"type": "uint256[]"
								},
								{
									"internalType": "bool",
									"name": "isCorrectOrder",
									"type": "bool"
								},
								{
									"internalType": "uint256",
									"name": "swapFeePercentage",
									"type": "uint256"
								},
								{
									"internalType": "bytes",
									"name": "userData",
									"type": "bytes"
								},
								{
									"internalType": "uint256",
									"name": "startTime",
									"type": "uint256"
								},
								{
									"internalType": "uint256",
									"name": "endTime",
									"type": "uint256"
								}
							],
							"internalType": "struct CopperProxy.PoolConfig",
							"name": "poolConfig",
							"type": "tuple"
						}
					],
					"name": "createAuction",
					"outputs": [
						{
							"internalType": "address",
							"name": "",
							"type": "address"
						}
					],
					"stateMutability": "nonpayable",
					"type": "function"
				},
				{
					"inputs": [
						{
							"internalType": "address",
							"name": "pool",
							"type": "address"
						},
						{
							"internalType": "uint256[]",
							"name": "minAmountsOut",
							"type": "uint256[]"
						},
						{
							"internalType": "uint256",
							"name": "maxBPTTokenOut",
							"type": "uint256"
						}
					],
					"name": "exitPool",
					"outputs": [],
					"stateMutability": "nonpayable",
					"type": "function"
				},
				{
					"inputs": [
						{
							"internalType": "address",
							"name": "pool",
							"type": "address"
						}
					],
					"name": "getBPTTokenBalance",
					"outputs": [
						{
							"internalType": "uint256",
							"name": "bptBalance",
							"type": "uint256"
						}
					],
					"stateMutability": "view",
					"type": "function"
				},
				{
					"inputs": [
						{
							"internalType": "uint256",
							"name": "index",
							"type": "uint256"
						}
					],
					"name": "getPoolAt",
					"outputs": [
						{
							"internalType": "address",
							"name": "pool",
							"type": "address"
						}
					],
					"stateMutability": "view",
					"type": "function"
				},
				{
					"inputs": [
						{
							"internalType": "address",
							"name": "pool",
							"type": "address"
						}
					],
					"name": "getPoolData",
					"outputs": [
						{
							"components": [
								{
									"internalType": "address",
									"name": "owner",
									"type": "address"
								},
								{
									"internalType": "bool",
									"name": "isCorrectOrder",
									"type": "bool"
								},
								{
									"internalType": "uint256",
									"name": "fundTokenInputAmount",
									"type": "uint256"
								}
							],
							"internalType": "struct CopperProxy.PoolData",
							"name": "poolData",
							"type": "tuple"
						}
					],
					"stateMutability": "view",
					"type": "function"
				},
				{
					"inputs": [],
					"name": "getPools",
					"outputs": [
						{
							"internalType": "address[]",
							"name": "pools",
							"type": "address[]"
						}
					],
					"stateMutability": "view",
					"type": "function"
				},
				{
					"inputs": [
						{
							"internalType": "address",
							"name": "pool",
							"type": "address"
						}
					],
					"name": "isPool",
					"outputs": [
						{
							"internalType": "bool",
							"name": "valid",
							"type": "bool"
						}
					],
					"stateMutability": "view",
					"type": "function"
				},
				{
					"inputs": [],
					"name": "owner",
					"outputs": [
						{
							"internalType": "address",
							"name": "",
							"type": "address"
						}
					],
					"stateMutability": "view",
					"type": "function"
				},
				{
					"inputs": [],
					"name": "poolCount",
					"outputs": [
						{
							"internalType": "uint256",
							"name": "count",
							"type": "uint256"
						}
					],
					"stateMutability": "view",
					"type": "function"
				},
				{
					"inputs": [],
					"name": "renounceOwnership",
					"outputs": [],
					"stateMutability": "nonpayable",
					"type": "function"
				},
				{
					"inputs": [
						{
							"internalType": "address",
							"name": "pool",
							"type": "address"
						},
						{
							"internalType": "bool",
							"name": "swapEnabled",
							"type": "bool"
						}
					],
					"name": "setSwapEnabled",
					"outputs": [],
					"stateMutability": "nonpayable",
					"type": "function"
				},
				{
					"inputs": [
						{
							"internalType": "address",
							"name": "token",
							"type": "address"
						},
						{
							"internalType": "address",
							"name": "recipient",
							"type": "address"
						}
					],
					"name": "skim",
					"outputs": [],
					"stateMutability": "nonpayable",
					"type": "function"
				},
				{
					"inputs": [
						{
							"internalType": "address",
							"name": "newOwner",
							"type": "address"
						}
					],
					"name": "transferOwnership",
					"outputs": [],
					"stateMutability": "nonpayable",
					"type": "function"
				},
				{
					"inputs": [
						{
							"internalType": "address",
							"name": "pool",
							"type": "address"
						},
						{
							"internalType": "address",
							"name": "newOwner",
							"type": "address"
						}
					],
					"name": "transferPoolOwnership",
					"outputs": [],
					"stateMutability": "nonpayable",
					"type": "function"
				}
			],
			"devdoc": {
				"kind": "dev",
				"methods": {
					"owner()": {
						"details": "Returns the address of the current owner."
					},
					"renounceOwnership()": {
						"details": "Leaves the contract without owner. It will not be possible to call `onlyOwner` functions anymore. Can only be called by the current owner. NOTE: Renouncing ownership will leave the contract without an owner, thereby removing any functionality that is only available to the owner."
					},
					"transferOwnership(address)": {
						"details": "Transfers ownership of the contract to a new account (`newOwner`). Can only be called by the current owner."
					}
				},
				"title": "CopperProxy",
				"version": 1
			},
			"evm": {
				"assembly": "    /* \"contracts/CooperProxy.sol\":21697:31192  contract CopperProxy is Ownable {\r... */\n  mstore(0x40, 0xc0)\n    /* \"contracts/CooperProxy.sol\":22235:22469  constructor(\r... */\n  callvalue\n  dup1\n  iszero\n  tag_1\n  jumpi\n  0x00\n  dup1\n  revert\ntag_1:\n  pop\n  mload(0x40)\n  sub(codesize, bytecodeSize)\n  dup1\n  bytecodeSize\n  dup4\n  codecopy\n  dup2\n  add\n  0x40\n  dup2\n  swap1\n  mstore\n  tag_2\n  swap2\n  tag_3\n  jump\t// in\ntag_2:\n    /* \"contracts/CooperProxy.sol\":18565:18588  _setOwner(_msgSender()) */\n  tag_7\n    /* \"contracts/CooperProxy.sol\":17604:17614  msg.sender */\n  caller\n    /* \"contracts/CooperProxy.sol\":18565:18574  _setOwner */\n  tag_10\n    /* \"contracts/CooperProxy.sol\":18565:18588  _setOwner(_msgSender()) */\n  jump\t// in\ntag_7:\n    /* \"contracts/CooperProxy.sol\":22357:22373  _feeBPS = feeBPS */\n  0xa0\n  swap3\n  swap1\n  swap3\n  mstore\n    /* \"contracts/CooperProxy.sol\":22384:22397  _feeRecipient */\n  0x04\n    /* \"contracts/CooperProxy.sol\":22384:22412  _feeRecipient = feeRecipient */\n  dup1\n  sload\n  not(sub(shl(0xa0, 0x01), 0x01))\n  and\n  sub(shl(0xa0, 0x01), 0x01)\n  swap3\n  swap1\n  swap3\n  and\n  swap2\n  swap1\n  swap2\n  or\n  swap1\n  sstore\n    /* \"contracts/CooperProxy.sol\":22423:22461  _LBPFactoryAddress = LBPFactoryAddress */\n  0x60\n  shl\n  not(sub(shl(0x60, 0x01), 0x01))\n  and\n  0x80\n  mstore\n    /* \"contracts/CooperProxy.sol\":21697:31192  contract CopperProxy is Ownable {\r... */\n  jump(tag_15)\n    /* \"contracts/CooperProxy.sol\":19777:19950  function _setOwner(address newOwner) private {\r... */\ntag_10:\n    /* \"contracts/CooperProxy.sol\":19833:19849  address oldOwner */\n  0x00\n    /* \"contracts/CooperProxy.sol\":19852:19858  _owner */\n  dup1\n  sload\n  sub(shl(0xa0, 0x01), 0x01)\n    /* \"contracts/CooperProxy.sol\":19869:19886  _owner = newOwner */\n  dup4\n  dup2\n  and\n  not(sub(shl(0xa0, 0x01), 0x01))\n  dup4\n  and\n  dup2\n  or\n  dup5\n  sstore\n    /* \"contracts/CooperProxy.sol\":19902:19942  OwnershipTransferred(oldOwner, newOwner) */\n  mload(0x40)\n    /* \"contracts/CooperProxy.sol\":19852:19858  _owner */\n  swap2\n  swap1\n  swap3\n  and\n  swap3\n  dup4\n  swap2\n    /* \"contracts/CooperProxy.sol\":19902:19942  OwnershipTransferred(oldOwner, newOwner) */\n  0x8be0079c531659141344cd1fd0a4f28419497f9722a3daafe3b4186f6b6457e0\n  swap2\n    /* \"contracts/CooperProxy.sol\":19833:19849  address oldOwner */\n  swap1\n    /* \"contracts/CooperProxy.sol\":19902:19942  OwnershipTransferred(oldOwner, newOwner) */\n  log3\n    /* \"contracts/CooperProxy.sol\":19822:19950  {\r... */\n  pop\n    /* \"contracts/CooperProxy.sol\":19777:19950  function _setOwner(address newOwner) private {\r... */\n  pop\n  jump\t// out\n    /* \"#utility.yul\":14:191   */\ntag_16:\n    /* \"#utility.yul\":93:106   */\n  dup1\n  mload\n  sub(shl(0xa0, 0x01), 0x01)\n    /* \"#utility.yul\":135:166   */\n  dup2\n  and\n    /* \"#utility.yul\":125:167   */\n  dup2\n  eq\n    /* \"#utility.yul\":115:185   */\n  tag_18\n  jumpi\n    /* \"#utility.yul\":181:182   */\n  0x00\n    /* \"#utility.yul\":178:179   */\n  dup1\n    /* \"#utility.yul\":171:183   */\n  revert\n    /* \"#utility.yul\":115:185   */\ntag_18:\n    /* \"#utility.yul\":14:191   */\n  swap2\n  swap1\n  pop\n  jump\t// out\n    /* \"#utility.yul\":196:550   */\ntag_3:\n    /* \"#utility.yul\":284:290   */\n  0x00\n    /* \"#utility.yul\":292:298   */\n  dup1\n    /* \"#utility.yul\":300:306   */\n  0x00\n    /* \"#utility.yul\":353:355   */\n  0x60\n    /* \"#utility.yul\":341:350   */\n  dup5\n    /* \"#utility.yul\":332:339   */\n  dup7\n    /* \"#utility.yul\":328:351   */\n  sub\n    /* \"#utility.yul\":324:356   */\n  slt\n    /* \"#utility.yul\":321:373   */\n  iszero\n  tag_20\n  jumpi\n    /* \"#utility.yul\":369:370   */\n  0x00\n    /* \"#utility.yul\":366:367   */\n  dup1\n    /* \"#utility.yul\":359:371   */\n  revert\n    /* \"#utility.yul\":321:373   */\ntag_20:\n    /* \"#utility.yul\":398:407   */\n  dup4\n    /* \"#utility.yul\":392:408   */\n  mload\n    /* \"#utility.yul\":382:408   */\n  swap3\n  pop\n    /* \"#utility.yul\":427:476   */\n  tag_21\n    /* \"#utility.yul\":472:474   */\n  0x20\n    /* \"#utility.yul\":461:470   */\n  dup6\n    /* \"#utility.yul\":457:475   */\n  add\n    /* \"#utility.yul\":427:476   */\n  tag_16\n  jump\t// in\ntag_21:\n    /* \"#utility.yul\":417:476   */\n  swap2\n  pop\n    /* \"#utility.yul\":495:544   */\n  tag_22\n    /* \"#utility.yul\":540:542   */\n  0x40\n    /* \"#utility.yul\":529:538   */\n  dup6\n    /* \"#utility.yul\":525:543   */\n  add\n    /* \"#utility.yul\":495:544   */\n  tag_16\n  jump\t// in\ntag_22:\n    /* \"#utility.yul\":485:544   */\n  swap1\n  pop\n    /* \"#utility.yul\":196:550   */\n  swap3\n  pop\n  swap3\n  pop\n  swap3\n  jump\t// out\ntag_15:\n    /* \"contracts/CooperProxy.sol\":21697:31192  contract CopperProxy is Ownable {\r... */\n  shr(0x60, mload(0x80))\n  mload(0xa0)\n  codecopy(0x00, dataOffset(sub_0), dataSize(sub_0))\n  0x00\n  assignImmutable(\"0x94b72f6d5810c90c68ea7d7f52a48aba033cd0249ea1144a4588f2256d6f57ff\")\n  0x00\n  assignImmutable(\"0xcc1cf32daa775edd624f71ddb0d100d39c31c65becb67e6d2e7789fa58c10fe0\")\n  return(0x00, dataSize(sub_0))\nstop\n\nsub_0: assembly {\n        /* \"contracts/CooperProxy.sol\":21697:31192  contract CopperProxy is Ownable {\r... */\n      mstore(0x40, 0x80)\n      callvalue\n      dup1\n      iszero\n      tag_1\n      jumpi\n      0x00\n      dup1\n      revert\n    tag_1:\n      pop\n      jumpi(tag_2, lt(calldatasize, 0x04))\n      shr(0xe0, calldataload(0x00))\n      dup1\n      0x673a2a1f\n      gt\n      tag_22\n      jumpi\n      dup1\n      0xa342f238\n      gt\n      tag_23\n      jumpi\n      dup1\n      0xa342f238\n      eq\n      tag_17\n      jumpi\n      dup1\n      0xcac626bb\n      eq\n      tag_18\n      jumpi\n      dup1\n      0xee9ee0e4\n      eq\n      tag_19\n      jumpi\n      dup1\n      0xf2fde38b\n      eq\n      tag_20\n      jumpi\n      dup1\n      0xf525cb68\n      eq\n      tag_21\n      jumpi\n      0x00\n      dup1\n      revert\n    tag_23:\n      dup1\n      0x673a2a1f\n      eq\n      tag_12\n      jumpi\n      dup1\n      0x712b772f\n      eq\n      tag_13\n      jumpi\n      dup1\n      0x715018a6\n      eq\n      tag_14\n      jumpi\n      dup1\n      0x8da5cb5b\n      eq\n      tag_15\n      jumpi\n      dup1\n      0x9c37ebb6\n      eq\n      tag_16\n      jumpi\n      0x00\n      dup1\n      revert\n    tag_22:\n      dup1\n      0x23604071\n      gt\n      tag_24\n      jumpi\n      dup1\n      0x23604071\n      eq\n      tag_7\n      jumpi\n      dup1\n      0x411557d1\n      eq\n      tag_8\n      jumpi\n      dup1\n      0x46cf3e6e\n      eq\n      tag_9\n      jumpi\n      dup1\n      0x51d48cea\n      eq\n      tag_10\n      jumpi\n      dup1\n      0x5b16ebb7\n      eq\n      tag_11\n      jumpi\n      0x00\n      dup1\n      revert\n    tag_24:\n      dup1\n      0x01b1aff6\n      eq\n      tag_3\n      jumpi\n      dup1\n      0x0563cd7c\n      eq\n      tag_4\n      jumpi\n      dup1\n      0x05ea2183\n      eq\n      tag_5\n      jumpi\n      dup1\n      0x13d21cdf\n      eq\n      tag_6\n      jumpi\n    tag_2:\n      0x00\n      dup1\n      revert\n        /* \"contracts/CooperProxy.sol\":22109:22152  address public immutable _LBPFactoryAddress */\n    tag_3:\n      tag_25\n      immutable(\"0xcc1cf32daa775edd624f71ddb0d100d39c31c65becb67e6d2e7789fa58c10fe0\")\n      dup2\n      jump\n    tag_25:\n      mload(0x40)\n      sub(shl(0xa0, 0x01), 0x01)\n        /* \"#utility.yul\":11274:11306   */\n      swap1\n      swap2\n      and\n        /* \"#utility.yul\":11256:11307   */\n      dup2\n      mstore\n        /* \"#utility.yul\":11244:11246   */\n      0x20\n        /* \"#utility.yul\":11229:11247   */\n      add\n        /* \"contracts/CooperProxy.sol\":22109:22152  address public immutable _LBPFactoryAddress */\n    tag_27:\n      mload(0x40)\n      dup1\n      swap2\n      sub\n      swap1\n      return\n        /* \"contracts/CooperProxy.sol\":28135:30605  function exitPool(address pool, uint256[] calldata minAmountsOut, uint256 maxBPTTokenOut) external onlyPoolOwner(pool) {\r... */\n    tag_4:\n      tag_29\n      tag_30\n      calldatasize\n      0x04\n      tag_31\n      jump\t// in\n    tag_30:\n      tag_32\n      jump\t// in\n    tag_29:\n      stop\n        /* \"contracts/CooperProxy.sol\":24015:24128  function getPoolAt(uint256 index) external view returns (address pool) {\r... */\n    tag_5:\n      tag_25\n      tag_34\n      calldatasize\n      0x04\n      tag_35\n      jump\t// in\n    tag_34:\n      tag_36\n      jump\t// in\n        /* \"contracts/CooperProxy.sol\":24252:24377  function getPoolData(address pool) external view returns (PoolData memory poolData) {\r... */\n    tag_6:\n      tag_38\n      tag_39\n      calldatasize\n      0x04\n      tag_40\n      jump\t// in\n    tag_39:\n      0x40\n      dup1\n      mload\n      0x60\n      dup2\n      add\n      dup3\n      mstore\n      0x00\n      dup1\n      dup3\n      mstore\n      0x20\n      dup3\n      add\n      dup2\n      swap1\n      mstore\n      swap2\n      dup2\n      add\n      swap2\n      swap1\n      swap2\n      mstore\n      pop\n      sub(shl(0xa0, 0x01), 0x01)\n        /* \"contracts/CooperProxy.sol\":24354:24369  _poolData[pool] */\n      swap1\n      dup2\n      and\n      0x00\n      swap1\n      dup2\n      mstore\n        /* \"contracts/CooperProxy.sol\":24354:24363  _poolData */\n      0x01\n        /* \"contracts/CooperProxy.sol\":24354:24369  _poolData[pool] */\n      0x20\n      dup2\n      dup2\n      mstore\n      0x40\n      swap3\n      dup4\n      swap1\n      keccak256\n        /* \"contracts/CooperProxy.sol\":24347:24369  return _poolData[pool] */\n      dup4\n      mload\n      0x60\n      dup2\n      add\n      dup6\n      mstore\n      dup2\n      sload\n      swap6\n      dup7\n      and\n      dup2\n      mstore\n      shl(0xa0, 0x01)\n      swap1\n      swap6\n      div\n      0xff\n      and\n      iszero\n      iszero\n      swap2\n      dup6\n      add\n      swap2\n      swap1\n      swap2\n      mstore\n      add\n      sload\n      swap1\n      dup3\n      add\n      mstore\n      swap1\n        /* \"contracts/CooperProxy.sol\":24252:24377  function getPoolData(address pool) external view returns (PoolData memory poolData) {\r... */\n      jump\n    tag_38:\n      0x40\n      dup1\n      mload\n        /* \"#utility.yul\":22777:22790   */\n      dup3\n      mload\n      sub(shl(0xa0, 0x01), 0x01)\n        /* \"#utility.yul\":22773:22812   */\n      and\n        /* \"#utility.yul\":22755:22813   */\n      dup2\n      mstore\n        /* \"#utility.yul\":22883:22887   */\n      0x20\n        /* \"#utility.yul\":22871:22888   */\n      dup1\n      dup5\n      add\n        /* \"#utility.yul\":22865:22889   */\n      mload\n        /* \"#utility.yul\":22858:22890   */\n      iszero\n        /* \"#utility.yul\":22851:22891   */\n      iszero\n        /* \"#utility.yul\":22829:22849   */\n      swap1\n      dup3\n      add\n        /* \"#utility.yul\":22822:22892   */\n      mstore\n        /* \"#utility.yul\":22936:22953   */\n      swap2\n      dup2\n      add\n        /* \"#utility.yul\":22930:22954   */\n      mload\n        /* \"#utility.yul\":22908:22928   */\n      swap1\n      dup3\n      add\n        /* \"#utility.yul\":22901:22955   */\n      mstore\n        /* \"#utility.yul\":22743:22745   */\n      0x60\n        /* \"#utility.yul\":22728:22746   */\n      add\n        /* \"contracts/CooperProxy.sol\":24252:24377  function getPoolData(address pool) external view returns (PoolData memory poolData) {\r... */\n      tag_27\n        /* \"#utility.yul\":22557:22961   */\n      jump\n        /* \"contracts/CooperProxy.sol\":30613:30857  function changeFeeRecipient(address newRecipient) external onlyOwner {\r... */\n    tag_7:\n      tag_29\n      tag_45\n      calldatasize\n      0x04\n      tag_40\n      jump\t// in\n    tag_45:\n      tag_46\n      jump\t// in\n        /* \"contracts/CooperProxy.sol\":22019:22102  address public constant VAULT = address(0x20dd72Ed959b6147912C2e529F0a0C651c33c9ce) */\n    tag_8:\n      tag_25\n        /* \"contracts/CooperProxy.sol\":22059:22101  0x20dd72Ed959b6147912C2e529F0a0C651c33c9ce */\n      0x20dd72ed959b6147912c2e529f0a0c651c33c9ce\n        /* \"contracts/CooperProxy.sol\":22019:22102  address public constant VAULT = address(0x20dd72Ed959b6147912C2e529F0a0C651c33c9ce) */\n      dup2\n      jump\n        /* \"contracts/CooperProxy.sol\":24880:27144  function createAuction(PoolConfig memory poolConfig) external returns (address) {\r... */\n    tag_9:\n      tag_25\n      tag_51\n      calldatasize\n      0x04\n      tag_52\n      jump\t// in\n    tag_51:\n      tag_53\n      jump\t// in\n        /* \"contracts/CooperProxy.sol\":27152:27342  function setSwapEnabled(address pool, bool swapEnabled) external onlyPoolOwner(pool) {\r... */\n    tag_10:\n      tag_29\n      tag_56\n      calldatasize\n      0x04\n      tag_57\n      jump\t// in\n    tag_56:\n      tag_58\n      jump\t// in\n        /* \"contracts/CooperProxy.sol\":23787:23899  function isPool(address pool) external view returns (bool valid) {\r... */\n    tag_11:\n      tag_59\n      tag_60\n      calldatasize\n      0x04\n      tag_40\n      jump\t// in\n    tag_60:\n      tag_61\n      jump\t// in\n    tag_59:\n      mload(0x40)\n        /* \"#utility.yul\":14193:14207   */\n      swap1\n      iszero\n        /* \"#utility.yul\":14186:14208   */\n      iszero\n        /* \"#utility.yul\":14168:14209   */\n      dup2\n      mstore\n        /* \"#utility.yul\":14156:14158   */\n      0x20\n        /* \"#utility.yul\":14141:14159   */\n      add\n        /* \"contracts/CooperProxy.sol\":23787:23899  function isPool(address pool) external view returns (bool valid) {\r... */\n      tag_27\n        /* \"#utility.yul\":14028:14215   */\n      jump\n        /* \"contracts/CooperProxy.sol\":24136:24244  function getPools() external view returns (address[] memory pools) {\r... */\n    tag_12:\n      tag_64\n      tag_65\n      jump\t// in\n    tag_64:\n      mload(0x40)\n      tag_27\n      swap2\n      swap1\n      tag_67\n      jump\t// in\n        /* \"contracts/CooperProxy.sol\":30865:31189  function skim(address token, address recipient) external onlyOwner {\r... */\n    tag_13:\n      tag_29\n      tag_69\n      calldatasize\n      0x04\n      tag_70\n      jump\t// in\n    tag_69:\n      tag_71\n      jump\t// in\n        /* \"contracts/CooperProxy.sol\":19328:19422  function renounceOwnership() public virtual onlyOwner {\r... */\n    tag_14:\n      tag_29\n      tag_73\n      jump\t// in\n        /* \"contracts/CooperProxy.sol\":18677:18764  function owner() public view virtual returns (address) {\r... */\n    tag_15:\n        /* \"contracts/CooperProxy.sol\":18723:18730  address */\n      0x00\n        /* \"contracts/CooperProxy.sol\":18750:18756  _owner */\n      sload\n      sub(shl(0xa0, 0x01), 0x01)\n      and\n        /* \"contracts/CooperProxy.sol\":18677:18764  function owner() public view virtual returns (address) {\r... */\n      jump(tag_25)\n        /* \"contracts/CooperProxy.sol\":22159:22191  uint256 public immutable _feeBPS */\n    tag_16:\n      tag_77\n      immutable(\"0x94b72f6d5810c90c68ea7d7f52a48aba033cd0249ea1144a4588f2256d6f57ff\")\n      dup2\n      jump\n    tag_77:\n      mload(0x40)\n        /* \"#utility.yul\":14366:14391   */\n      swap1\n      dup2\n      mstore\n        /* \"#utility.yul\":14354:14356   */\n      0x20\n        /* \"#utility.yul\":14339:14357   */\n      add\n        /* \"contracts/CooperProxy.sol\":22159:22191  uint256 public immutable _feeBPS */\n      tag_27\n        /* \"#utility.yul\":14220:14397   */\n      jump\n        /* \"contracts/CooperProxy.sol\":22198:22226  address public _feeRecipient */\n    tag_17:\n      sload(0x04)\n      tag_25\n      swap1\n      sub(shl(0xa0, 0x01), 0x01)\n      and\n      dup2\n      jump\n        /* \"contracts/CooperProxy.sol\":24385:24533  function getBPTTokenBalance(address pool) external view returns (uint256 bptBalance) {\r... */\n    tag_18:\n      tag_77\n      tag_85\n      calldatasize\n      0x04\n      tag_40\n      jump\t// in\n    tag_85:\n      tag_86\n      jump\t// in\n        /* \"contracts/CooperProxy.sol\":27350:27619  function transferPoolOwnership(address pool, address newOwner) external onlyPoolOwner(pool) {\r... */\n    tag_19:\n      tag_29\n      tag_89\n      calldatasize\n      0x04\n      tag_70\n      jump\t// in\n    tag_89:\n      tag_90\n      jump\t// in\n        /* \"contracts/CooperProxy.sol\":19577:19769  function transferOwnership(address newOwner) public virtual onlyOwner {\r... */\n    tag_20:\n      tag_29\n      tag_92\n      calldatasize\n      0x04\n      tag_40\n      jump\t// in\n    tag_92:\n      tag_93\n      jump\t// in\n        /* \"contracts/CooperProxy.sol\":23907:24007  function poolCount() external view returns (uint256 count) {\r... */\n    tag_21:\n      tag_77\n      tag_95\n      jump\t// in\n        /* \"contracts/CooperProxy.sol\":28135:30605  function exitPool(address pool, uint256[] calldata minAmountsOut, uint256 maxBPTTokenOut) external onlyPoolOwner(pool) {\r... */\n    tag_32:\n      sub(shl(0xa0, 0x01), 0x01)\n        /* \"contracts/CooperProxy.sol\":23727:23742  _poolData[pool] */\n      dup5\n      dup2\n      and\n      0x00\n      swap1\n      dup2\n      mstore\n        /* \"contracts/CooperProxy.sol\":23727:23736  _poolData */\n      0x01\n        /* \"contracts/CooperProxy.sol\":23727:23742  _poolData[pool] */\n      0x20\n      mstore\n      0x40\n      swap1\n      keccak256\n        /* \"contracts/CooperProxy.sol\":23727:23748  _poolData[pool].owner */\n      sload\n        /* \"contracts/CooperProxy.sol\":23727:23742  _poolData[pool] */\n      dup6\n      swap2\n        /* \"contracts/CooperProxy.sol\":23727:23748  _poolData[pool].owner */\n      and\n        /* \"contracts/CooperProxy.sol\":23713:23723  msg.sender */\n      caller\n        /* \"contracts/CooperProxy.sol\":23713:23748  msg.sender == _poolData[pool].owner */\n      eq\n        /* \"contracts/CooperProxy.sol\":23705:23759  require(msg.sender == _poolData[pool].owner, \"!owner\") */\n      tag_98\n      jumpi\n      mload(0x40)\n      shl(0xe5, 0x461bcd)\n      dup2\n      mstore\n      0x04\n      add\n      tag_99\n      swap1\n      tag_100\n      jump\t// in\n    tag_99:\n      mload(0x40)\n      dup1\n      swap2\n      sub\n      swap1\n      revert\n    tag_98:\n        /* \"contracts/CooperProxy.sol\":28294:28308  bytes32 poolId */\n      0x00\n        /* \"contracts/CooperProxy.sol\":28315:28319  pool */\n      dup6\n      sub(shl(0xa0, 0x01), 0x01)\n        /* \"contracts/CooperProxy.sol\":28311:28330  LBP(pool).getPoolId */\n      and\n      0x38fff2d0\n        /* \"contracts/CooperProxy.sol\":28311:28332  LBP(pool).getPoolId() */\n      mload(0x40)\n      dup2\n      0xffffffff\n      and\n      0xe0\n      shl\n      dup2\n      mstore\n      0x04\n      add\n      0x20\n      mload(0x40)\n      dup1\n      dup4\n      sub\n      dup2\n      0x00\n      dup8\n      dup1\n      extcodesize\n      iszero\n      dup1\n      iszero\n      tag_102\n      jumpi\n      0x00\n      dup1\n      revert\n    tag_102:\n      pop\n      gas\n      call\n      iszero\n      dup1\n      iszero\n      tag_104\n      jumpi\n      returndatasize\n      0x00\n      dup1\n      returndatacopy\n      revert(0x00, returndatasize)\n    tag_104:\n      pop\n      pop\n      pop\n      pop\n      mload(0x40)\n      returndatasize\n      not(0x1f)\n      0x1f\n      dup3\n      add\n      and\n      dup3\n      add\n      dup1\n      0x40\n      mstore\n      pop\n      dup2\n      add\n      swap1\n      tag_105\n      swap2\n      swap1\n      tag_106\n      jump\t// in\n    tag_105:\n        /* \"contracts/CooperProxy.sol\":28379:28413  Vault(VAULT).getPoolTokens(poolId) */\n      mload(0x40)\n      shl(0xe3, 0x1f29a8cd)\n      dup2\n      mstore\n      0x04\n      dup2\n      add\n        /* \"#utility.yul\":14366:14391   */\n      dup3\n      swap1\n      mstore\n        /* \"contracts/CooperProxy.sol\":28294:28332  bytes32 poolId = LBP(pool).getPoolId() */\n      swap1\n      swap2\n      pop\n        /* \"contracts/CooperProxy.sol\":28344:28371  address[] memory poolTokens */\n      0x00\n      swap1\n        /* \"contracts/CooperProxy.sol\":22059:22101  0x20dd72Ed959b6147912C2e529F0a0C651c33c9ce */\n      0x20dd72ed959b6147912c2e529f0a0c651c33c9ce\n      swap1\n        /* \"contracts/CooperProxy.sol\":28379:28405  Vault(VAULT).getPoolTokens */\n      0xf94d4668\n      swap1\n        /* \"#utility.yul\":14339:14357   */\n      0x24\n      add\n        /* \"contracts/CooperProxy.sol\":28379:28413  Vault(VAULT).getPoolTokens(poolId) */\n      0x00\n      mload(0x40)\n      dup1\n      dup4\n      sub\n      dup2\n      dup7\n      dup1\n      extcodesize\n      iszero\n      dup1\n      iszero\n      tag_109\n      jumpi\n      0x00\n      dup1\n      revert\n    tag_109:\n      pop\n      gas\n      staticcall\n      iszero\n      dup1\n      iszero\n      tag_111\n      jumpi\n      returndatasize\n      0x00\n      dup1\n      returndatacopy\n      revert(0x00, returndatasize)\n    tag_111:\n      pop\n      pop\n      pop\n      pop\n      mload(0x40)\n      returndatasize\n      0x00\n      dup3\n      returndatacopy\n      0x1f\n      returndatasize\n      swap1\n      dup2\n      add\n      not(0x1f)\n      and\n      dup3\n      add\n      0x40\n      mstore\n      tag_112\n      swap2\n      swap1\n      dup2\n      add\n      swap1\n      tag_113\n      jump\t// in\n    tag_112:\n      pop\n      pop\n        /* \"contracts/CooperProxy.sol\":28432:28449  poolTokens.length */\n      dup1\n      mload\n        /* \"contracts/CooperProxy.sol\":28343:28413  (address[] memory poolTokens, , ) = Vault(VAULT).getPoolTokens(poolId) */\n      swap1\n      swap2\n      pop\n        /* \"contracts/CooperProxy.sol\":28432:28473  poolTokens.length == minAmountsOut.length */\n      dup6\n      eq\n        /* \"contracts/CooperProxy.sol\":28424:28498  require(poolTokens.length == minAmountsOut.length, \"invalid input length\") */\n      tag_114\n      jumpi\n      mload(0x40)\n      shl(0xe5, 0x461bcd)\n      dup2\n      mstore\n        /* \"#utility.yul\":19156:19158   */\n      0x20\n        /* \"contracts/CooperProxy.sol\":28424:28498  require(poolTokens.length == minAmountsOut.length, \"invalid input length\") */\n      0x04\n      dup3\n      add\n        /* \"#utility.yul\":19138:19159   */\n      mstore\n        /* \"#utility.yul\":19195:19197   */\n      0x14\n        /* \"#utility.yul\":19175:19193   */\n      0x24\n      dup3\n      add\n        /* \"#utility.yul\":19168:19198   */\n      mstore\n      shl(0x63, 0x0d2dcecc2d8d2c840d2dce0eae840d8cadccee8d)\n        /* \"#utility.yul\":19214:19232   */\n      0x44\n      dup3\n      add\n        /* \"#utility.yul\":19207:19257   */\n      mstore\n        /* \"#utility.yul\":19274:19292   */\n      0x64\n      add\n        /* \"contracts/CooperProxy.sol\":28424:28498  require(poolTokens.length == minAmountsOut.length, \"invalid input length\") */\n      tag_99\n        /* \"#utility.yul\":18954:19298   */\n      jump\n        /* \"contracts/CooperProxy.sol\":28424:28498  require(poolTokens.length == minAmountsOut.length, \"invalid input length\") */\n    tag_114:\n      sub(shl(0xa0, 0x01), 0x01)\n        /* \"contracts/CooperProxy.sol\":28536:28551  _poolData[pool] */\n      dup8\n      dup2\n      and\n        /* \"contracts/CooperProxy.sol\":28509:28533  PoolData memory poolData */\n      0x00\n        /* \"contracts/CooperProxy.sol\":28536:28551  _poolData[pool] */\n      dup2\n      dup2\n      mstore\n        /* \"contracts/CooperProxy.sol\":28536:28545  _poolData */\n      0x01\n        /* \"contracts/CooperProxy.sol\":28536:28551  _poolData[pool] */\n      0x20\n      dup2\n      dup2\n      mstore\n      0x40\n      dup1\n      dup5\n      keccak256\n        /* \"contracts/CooperProxy.sol\":28509:28551  PoolData memory poolData = _poolData[pool] */\n      dup2\n      mload\n      0x60\n      dup2\n      add\n      dup4\n      mstore\n      dup2\n      sload\n      swap8\n      dup9\n      and\n      dup2\n      mstore\n      shl(0xa0, 0x01)\n      swap1\n      swap8\n      div\n      0xff\n      and\n      iszero\n      iszero\n      swap3\n      dup8\n      add\n      swap3\n      swap1\n      swap3\n      mstore\n      swap2\n      add\n      sload\n      dup5\n      dup3\n      add\n      mstore\n        /* \"contracts/CooperProxy.sol\":28665:28702  IERC20(pool).balanceOf(address(this)) */\n      mload\n      shl(0xe0, 0x70a08231)\n      dup2\n      mstore\n        /* \"contracts/CooperProxy.sol\":28696:28700  this */\n      address\n        /* \"contracts/CooperProxy.sol\":28665:28702  IERC20(pool).balanceOf(address(this)) */\n      0x04\n      dup3\n      add\n        /* \"#utility.yul\":11256:11307   */\n      mstore\n        /* \"contracts/CooperProxy.sol\":28509:28533  PoolData memory poolData */\n      swap1\n      swap2\n      dup3\n      swap2\n        /* \"contracts/CooperProxy.sol\":28665:28687  IERC20(pool).balanceOf */\n      0x70a08231\n      swap1\n        /* \"#utility.yul\":11229:11247   */\n      0x24\n      add\n        /* \"contracts/CooperProxy.sol\":28665:28702  IERC20(pool).balanceOf(address(this)) */\n      0x20\n      mload(0x40)\n      dup1\n      dup4\n      sub\n      dup2\n      dup7\n      dup1\n      extcodesize\n      iszero\n      dup1\n      iszero\n      tag_118\n      jumpi\n      0x00\n      dup1\n      revert\n    tag_118:\n      pop\n      gas\n      staticcall\n      iszero\n      dup1\n      iszero\n      tag_120\n      jumpi\n      returndatasize\n      0x00\n      dup1\n      returndatacopy\n      revert(0x00, returndatasize)\n    tag_120:\n      pop\n      pop\n      pop\n      pop\n      mload(0x40)\n      returndatasize\n      not(0x1f)\n      0x1f\n      dup3\n      add\n      and\n      dup3\n      add\n      dup1\n      0x40\n      mstore\n      pop\n      dup2\n      add\n      swap1\n      tag_121\n      swap2\n      swap1\n      tag_106\n      jump\t// in\n    tag_121:\n        /* \"contracts/CooperProxy.sol\":28644:28702  uint256 bptBalance = IERC20(pool).balanceOf(address(this)) */\n      swap1\n      pop\n        /* \"contracts/CooperProxy.sol\":28739:28749  bptBalance */\n      dup1\n        /* \"contracts/CooperProxy.sol\":28721:28735  maxBPTTokenOut */\n      dup8\n        /* \"contracts/CooperProxy.sol\":28721:28749  maxBPTTokenOut <= bptBalance */\n      gt\n      iszero\n        /* \"contracts/CooperProxy.sol\":28713:28781  require(maxBPTTokenOut <= bptBalance, \"Not enough BPT token amount\") */\n      tag_123\n      jumpi\n      mload(0x40)\n      shl(0xe5, 0x461bcd)\n      dup2\n      mstore\n        /* \"#utility.yul\":21379:21381   */\n      0x20\n        /* \"contracts/CooperProxy.sol\":28713:28781  require(maxBPTTokenOut <= bptBalance, \"Not enough BPT token amount\") */\n      0x04\n      dup3\n      add\n        /* \"#utility.yul\":21361:21382   */\n      mstore\n        /* \"#utility.yul\":21418:21420   */\n      0x1b\n        /* \"#utility.yul\":21398:21416   */\n      0x24\n      dup3\n      add\n        /* \"#utility.yul\":21391:21421   */\n      mstore\n        /* \"#utility.yul\":21457:21486   */\n      0x4e6f7420656e6f7567682042505420746f6b656e20616d6f756e740000000000\n        /* \"#utility.yul\":21437:21455   */\n      0x44\n      dup3\n      add\n        /* \"#utility.yul\":21430:21487   */\n      mstore\n        /* \"#utility.yul\":21504:21522   */\n      0x64\n      add\n        /* \"contracts/CooperProxy.sol\":28713:28781  require(maxBPTTokenOut <= bptBalance, \"Not enough BPT token amount\") */\n      tag_99\n        /* \"#utility.yul\":21177:21528   */\n      jump\n        /* \"contracts/CooperProxy.sol\":28713:28781  require(maxBPTTokenOut <= bptBalance, \"Not enough BPT token amount\") */\n    tag_123:\n        /* \"contracts/CooperProxy.sol\":28813:28814  0 */\n      0x00\n        /* \"contracts/CooperProxy.sol\":28800:28810  bptBalance */\n      dup2\n        /* \"contracts/CooperProxy.sol\":28800:28814  bptBalance > 0 */\n      gt\n        /* \"contracts/CooperProxy.sol\":28792:28831  require(bptBalance > 0, \"invalid pool\") */\n      tag_126\n      jumpi\n      mload(0x40)\n      shl(0xe5, 0x461bcd)\n      dup2\n      mstore\n        /* \"#utility.yul\":22069:22071   */\n      0x20\n        /* \"contracts/CooperProxy.sol\":28792:28831  require(bptBalance > 0, \"invalid pool\") */\n      0x04\n      dup3\n      add\n        /* \"#utility.yul\":22051:22072   */\n      mstore\n        /* \"#utility.yul\":22108:22110   */\n      0x0c\n        /* \"#utility.yul\":22088:22106   */\n      0x24\n      dup3\n      add\n        /* \"#utility.yul\":22081:22111   */\n      mstore\n      shl(0xa2, 0x1a5b9d985b1a59081c1bdbdb)\n        /* \"#utility.yul\":22127:22145   */\n      0x44\n      dup3\n      add\n        /* \"#utility.yul\":22120:22162   */\n      mstore\n        /* \"#utility.yul\":22179:22197   */\n      0x64\n      add\n        /* \"contracts/CooperProxy.sol\":28792:28831  require(bptBalance > 0, \"invalid pool\") */\n      tag_99\n        /* \"#utility.yul\":21867:22203   */\n      jump\n        /* \"contracts/CooperProxy.sol\":28792:28831  require(bptBalance > 0, \"invalid pool\") */\n    tag_126:\n        /* \"contracts/CooperProxy.sol\":28846:28865  maxBPTTokenOut == 0 */\n      dup7\n        /* \"contracts/CooperProxy.sol\":28842:28976  if (maxBPTTokenOut == 0 ) {\r... */\n      tag_129\n      jumpi\n        /* \"contracts/CooperProxy.sol\":28895:28905  bptBalance */\n      dup1\n        /* \"contracts/CooperProxy.sol\":28883:28905  bptToBurn = bptBalance */\n      swap2\n      pop\n        /* \"contracts/CooperProxy.sol\":28842:28976  if (maxBPTTokenOut == 0 ) {\r... */\n      jump(tag_130)\n    tag_129:\n        /* \"contracts/CooperProxy.sol\":28950:28964  maxBPTTokenOut */\n      dup7\n        /* \"contracts/CooperProxy.sol\":28938:28964  bptToBurn = maxBPTTokenOut */\n      swap2\n      pop\n        /* \"contracts/CooperProxy.sol\":28842:28976  if (maxBPTTokenOut == 0 ) {\r... */\n    tag_130:\n        /* \"contracts/CooperProxy.sol\":28988:29009  bytes memory userData */\n      0x00\n        /* \"contracts/CooperProxy.sol\":29023:29059  ExitKind.EXACT_BPT_IN_FOR_TOKENS_OUT */\n      0x01\n        /* \"contracts/CooperProxy.sol\":29061:29070  bptToBurn */\n      dup4\n        /* \"contracts/CooperProxy.sol\":29012:29071  abi.encode(ExitKind.EXACT_BPT_IN_FOR_TOKENS_OUT, bptToBurn) */\n      add(0x20, mload(0x40))\n      tag_131\n      swap3\n      swap2\n      swap1\n      tag_132\n      jump\t// in\n    tag_131:\n      mload(0x40)\n      0x20\n      dup2\n      dup4\n      sub\n      sub\n      dup2\n      mstore\n      swap1\n      0x40\n      mstore\n        /* \"contracts/CooperProxy.sol\":28988:29071  bytes memory userData = abi.encode(ExitKind.EXACT_BPT_IN_FOR_TOKENS_OUT, bptToBurn) */\n      swap1\n      pop\n        /* \"contracts/CooperProxy.sol\":29082:29122  Vault.ExitPoolRequest memory exitRequest */\n      0x00\n        /* \"contracts/CooperProxy.sol\":29125:29190  Vault.ExitPoolRequest(poolTokens, minAmountsOut, userData, false) */\n      mload(0x40)\n      dup1\n      0x80\n      add\n      0x40\n      mstore\n      dup1\n        /* \"contracts/CooperProxy.sol\":29147:29157  poolTokens */\n      dup8\n        /* \"contracts/CooperProxy.sol\":29125:29190  Vault.ExitPoolRequest(poolTokens, minAmountsOut, userData, false) */\n      dup2\n      mstore\n      0x20\n      add\n        /* \"contracts/CooperProxy.sol\":29159:29172  minAmountsOut */\n      dup13\n      dup13\n        /* \"contracts/CooperProxy.sol\":29125:29190  Vault.ExitPoolRequest(poolTokens, minAmountsOut, userData, false) */\n      dup1\n      dup1\n      0x20\n      mul\n      0x20\n      add\n      mload(0x40)\n      swap1\n      dup2\n      add\n      0x40\n      mstore\n      dup1\n      swap4\n      swap3\n      swap2\n      swap1\n      dup2\n      dup2\n      mstore\n      0x20\n      add\n      dup4\n      dup4\n      0x20\n      mul\n      dup1\n      dup3\n      dup5\n      calldatacopy\n      0x00\n      swap3\n      add\n      dup3\n      swap1\n      mstore\n      pop\n      swap4\n      dup6\n      mstore\n      pop\n      pop\n      pop\n      0x20\n      dup3\n      add\n      dup6\n      swap1\n      mstore\n      0x40\n      swap2\n      dup3\n      add\n      mstore\n        /* \"contracts/CooperProxy.sol\":29256:29337  Vault(VAULT).exitPool(poolId, address(this), payable(address(this)), exitRequest) */\n      mload\n      shl(0xe0, 0x8bdb3913)\n      dup2\n      mstore\n        /* \"contracts/CooperProxy.sol\":29082:29190  Vault.ExitPoolRequest memory exitRequest = Vault.ExitPoolRequest(poolTokens, minAmountsOut, userData, false) */\n      swap1\n      swap2\n      pop\n        /* \"contracts/CooperProxy.sol\":22059:22101  0x20dd72Ed959b6147912C2e529F0a0C651c33c9ce */\n      0x20dd72ed959b6147912c2e529f0a0c651c33c9ce\n      swap1\n        /* \"contracts/CooperProxy.sol\":29256:29277  Vault(VAULT).exitPool */\n      0x8bdb3913\n      swap1\n        /* \"contracts/CooperProxy.sol\":29256:29337  Vault(VAULT).exitPool(poolId, address(this), payable(address(this)), exitRequest) */\n      tag_133\n      swap1\n        /* \"contracts/CooperProxy.sol\":29278:29284  poolId */\n      dup11\n      swap1\n        /* \"contracts/CooperProxy.sol\":29294:29298  this */\n      address\n      swap1\n      dup2\n      swap1\n        /* \"contracts/CooperProxy.sol\":29082:29190  Vault.ExitPoolRequest memory exitRequest = Vault.ExitPoolRequest(poolTokens, minAmountsOut, userData, false) */\n      dup8\n      swap1\n        /* \"contracts/CooperProxy.sol\":29256:29337  Vault(VAULT).exitPool(poolId, address(this), payable(address(this)), exitRequest) */\n      0x04\n      add\n      tag_134\n      jump\t// in\n    tag_133:\n      0x00\n      mload(0x40)\n      dup1\n      dup4\n      sub\n      dup2\n      0x00\n      dup8\n      dup1\n      extcodesize\n      iszero\n      dup1\n      iszero\n      tag_135\n      jumpi\n      0x00\n      dup1\n      revert\n    tag_135:\n      pop\n      gas\n      call\n      iszero\n      dup1\n      iszero\n      tag_137\n      jumpi\n      returndatasize\n      0x00\n      dup1\n      returndatacopy\n      revert(0x00, returndatasize)\n    tag_137:\n      pop\n      pop\n      pop\n      pop\n        /* \"contracts/CooperProxy.sol\":29364:29368  pool */\n      dup12\n      sub(shl(0xa0, 0x01), 0x01)\n        /* \"contracts/CooperProxy.sol\":29353:29406  ExitedPool(pool, poolTokens, minAmountsOut, userData) */\n      and\n      0xfbbb3d684cc731f4eff666c8534337f397ecf7937c1ed574f8626f6cb718cc01\n        /* \"contracts/CooperProxy.sol\":29370:29380  poolTokens */\n      dup8\n        /* \"contracts/CooperProxy.sol\":29382:29395  minAmountsOut */\n      dup14\n      dup14\n        /* \"contracts/CooperProxy.sol\":29397:29405  userData */\n      dup7\n        /* \"contracts/CooperProxy.sol\":29353:29406  ExitedPool(pool, poolTokens, minAmountsOut, userData) */\n      mload(0x40)\n      tag_138\n      swap5\n      swap4\n      swap3\n      swap2\n      swap1\n      tag_139\n      jump\t// in\n    tag_138:\n      mload(0x40)\n      dup1\n      swap2\n      sub\n      swap1\n      log2\n        /* \"contracts/CooperProxy.sol\":29474:29491  address fundToken */\n      0x00\n        /* \"contracts/CooperProxy.sol\":29494:29504  poolTokens */\n      dup7\n        /* \"contracts/CooperProxy.sol\":29505:29513  poolData */\n      dup7\n        /* \"contracts/CooperProxy.sol\":29505:29528  poolData.isCorrectOrder */\n      0x20\n      add\n      mload\n        /* \"contracts/CooperProxy.sol\":29505:29536  poolData.isCorrectOrder ? 0 : 1 */\n      tag_140\n      jumpi\n        /* \"contracts/CooperProxy.sol\":29535:29536  1 */\n      0x01\n        /* \"contracts/CooperProxy.sol\":29505:29536  poolData.isCorrectOrder ? 0 : 1 */\n      jump(tag_141)\n    tag_140:\n        /* \"contracts/CooperProxy.sol\":29531:29532  0 */\n      0x00\n        /* \"contracts/CooperProxy.sol\":29505:29536  poolData.isCorrectOrder ? 0 : 1 */\n    tag_141:\n        /* \"contracts/CooperProxy.sol\":29494:29537  poolTokens[poolData.isCorrectOrder ? 0 : 1] */\n      0xff\n      and\n      dup2\n      mload\n      dup2\n      lt\n      tag_143\n      jumpi\n      tag_143\n      tag_144\n      jump\t// in\n    tag_143:\n      0x20\n      swap1\n      dup2\n      mul\n      swap2\n      swap1\n      swap2\n      add\n      add\n      mload\n        /* \"contracts/CooperProxy.sol\":29575:29617  IERC20(fundToken).balanceOf(address(this)) */\n      mload(0x40)\n      shl(0xe0, 0x70a08231)\n      dup2\n      mstore\n        /* \"contracts/CooperProxy.sol\":29611:29615  this */\n      address\n        /* \"contracts/CooperProxy.sol\":29575:29617  IERC20(fundToken).balanceOf(address(this)) */\n      0x04\n      dup3\n      add\n        /* \"#utility.yul\":11256:11307   */\n      mstore\n        /* \"contracts/CooperProxy.sol\":29494:29537  poolTokens[poolData.isCorrectOrder ? 0 : 1] */\n      swap1\n      swap2\n      pop\n        /* \"contracts/CooperProxy.sol\":29548:29572  uint256 fundTokenBalance */\n      0x00\n      swap1\n      sub(shl(0xa0, 0x01), 0x01)\n        /* \"contracts/CooperProxy.sol\":29575:29602  IERC20(fundToken).balanceOf */\n      dup4\n      and\n      swap1\n      0x70a08231\n      swap1\n        /* \"#utility.yul\":11229:11247   */\n      0x24\n      add\n        /* \"contracts/CooperProxy.sol\":29575:29617  IERC20(fundToken).balanceOf(address(this)) */\n      0x20\n      mload(0x40)\n      dup1\n      dup4\n      sub\n      dup2\n      dup7\n      dup1\n      extcodesize\n      iszero\n      dup1\n      iszero\n      tag_146\n      jumpi\n      0x00\n      dup1\n      revert\n    tag_146:\n      pop\n      gas\n      staticcall\n      iszero\n      dup1\n      iszero\n      tag_148\n      jumpi\n      returndatasize\n      0x00\n      dup1\n      returndatacopy\n      revert(0x00, returndatasize)\n    tag_148:\n      pop\n      pop\n      pop\n      pop\n      mload(0x40)\n      returndatasize\n      not(0x1f)\n      0x1f\n      dup3\n      add\n      and\n      dup3\n      add\n      dup1\n      0x40\n      mstore\n      pop\n      dup2\n      add\n      swap1\n      tag_149\n      swap2\n      swap1\n      tag_106\n      jump\t// in\n    tag_149:\n        /* \"contracts/CooperProxy.sol\":29548:29617  uint256 fundTokenBalance = IERC20(fundToken).balanceOf(address(this)) */\n      swap1\n      pop\n        /* \"contracts/CooperProxy.sol\":29651:29659  poolData */\n      dup7\n        /* \"contracts/CooperProxy.sol\":29651:29680  poolData.fundTokenInputAmount */\n      0x40\n      add\n      mload\n        /* \"contracts/CooperProxy.sol\":29632:29648  fundTokenBalance */\n      dup2\n        /* \"contracts/CooperProxy.sol\":29632:29680  fundTokenBalance > poolData.fundTokenInputAmount */\n      gt\n        /* \"contracts/CooperProxy.sol\":29628:29955  if (fundTokenBalance > poolData.fundTokenInputAmount) {\r... */\n      iszero\n      tag_150\n      jumpi\n        /* \"contracts/CooperProxy.sol\":29697:29714  uint256 feeAmount */\n      0x00\n        /* \"contracts/CooperProxy.sol\":29782:29788  10_000 */\n      0x2710\n        /* \"contracts/CooperProxy.sol\":29771:29778  _feeBPS */\n      immutable(\"0x94b72f6d5810c90c68ea7d7f52a48aba033cd0249ea1144a4588f2256d6f57ff\")\n        /* \"contracts/CooperProxy.sol\":29738:29746  poolData */\n      dup10\n        /* \"contracts/CooperProxy.sol\":29738:29767  poolData.fundTokenInputAmount */\n      0x40\n      add\n      mload\n        /* \"contracts/CooperProxy.sol\":29719:29735  fundTokenBalance */\n      dup5\n        /* \"contracts/CooperProxy.sol\":29719:29767  fundTokenBalance - poolData.fundTokenInputAmount */\n      tag_151\n      swap2\n      swap1\n      tag_152\n      jump\t// in\n    tag_151:\n        /* \"contracts/CooperProxy.sol\":29718:29778  (fundTokenBalance - poolData.fundTokenInputAmount) * _feeBPS */\n      tag_153\n      swap2\n      swap1\n      tag_154\n      jump\t// in\n    tag_153:\n        /* \"contracts/CooperProxy.sol\":29717:29788  ((fundTokenBalance - poolData.fundTokenInputAmount) * _feeBPS) / 10_000 */\n      tag_155\n      swap2\n      swap1\n      tag_156\n      jump\t// in\n    tag_155:\n        /* \"contracts/CooperProxy.sol\":29842:29855  _feeRecipient */\n      sload(0x04)\n        /* \"contracts/CooperProxy.sol\":29697:29788  uint256 feeAmount = ((fundTokenBalance - poolData.fundTokenInputAmount) * _feeBPS) / 10_000 */\n      swap1\n      swap2\n      pop\n        /* \"contracts/CooperProxy.sol\":29803:29867  TransferHelper.safeTransfer(fundToken, _feeRecipient, feeAmount) */\n      tag_157\n      swap1\n        /* \"contracts/CooperProxy.sol\":29831:29840  fundToken */\n      dup5\n      swap1\n      sub(shl(0xa0, 0x01), 0x01)\n        /* \"contracts/CooperProxy.sol\":29842:29855  _feeRecipient */\n      and\n        /* \"contracts/CooperProxy.sol\":29697:29788  uint256 feeAmount = ((fundTokenBalance - poolData.fundTokenInputAmount) * _feeBPS) / 10_000 */\n      dup4\n        /* \"contracts/CooperProxy.sol\":29803:29830  TransferHelper.safeTransfer */\n      tag_158\n        /* \"contracts/CooperProxy.sol\":29803:29867  TransferHelper.safeTransfer(fundToken, _feeRecipient, feeAmount) */\n      jump\t// in\n    tag_157:\n        /* \"contracts/CooperProxy.sol\":29901:29905  pool */\n      dup15\n      sub(shl(0xa0, 0x01), 0x01)\n        /* \"contracts/CooperProxy.sol\":29887:29943  TransferedFee(pool, fundToken, _feeRecipient, feeAmount) */\n      and\n      0x52b4a48c36f647498ba38efeaed299eb5e0f7688e76359a58f55738ff7725af2\n        /* \"contracts/CooperProxy.sol\":29907:29916  fundToken */\n      dup5\n        /* \"contracts/CooperProxy.sol\":29918:29931  _feeRecipient */\n      0x04\n      0x00\n      swap1\n      sload\n      swap1\n      0x0100\n      exp\n      swap1\n      div\n      sub(shl(0xa0, 0x01), 0x01)\n      and\n        /* \"contracts/CooperProxy.sol\":29933:29942  feeAmount */\n      dup5\n        /* \"contracts/CooperProxy.sol\":29887:29943  TransferedFee(pool, fundToken, _feeRecipient, feeAmount) */\n      mload(0x40)\n      tag_159\n      swap4\n      swap3\n      swap2\n      swap1\n      tag_160\n      jump\t// in\n    tag_159:\n      mload(0x40)\n      dup1\n      swap2\n      sub\n      swap1\n      log2\n        /* \"contracts/CooperProxy.sol\":29682:29955  {\r... */\n      pop\n        /* \"contracts/CooperProxy.sol\":29628:29955  if (fundTokenBalance > poolData.fundTokenInputAmount) {\r... */\n    tag_150:\n        /* \"contracts/CooperProxy.sol\":29999:30024  uint256 firstTokenBalance */\n      0x00\n        /* \"contracts/CooperProxy.sol\":30034:30044  poolTokens */\n      dup9\n        /* \"contracts/CooperProxy.sol\":30045:30046  0 */\n      0x00\n        /* \"contracts/CooperProxy.sol\":30034:30047  poolTokens[0] */\n      dup2\n      mload\n      dup2\n      lt\n      tag_162\n      jumpi\n      tag_162\n      tag_144\n      jump\t// in\n    tag_162:\n      0x20\n      swap1\n      dup2\n      mul\n      swap2\n      swap1\n      swap2\n      add\n      add\n      mload\n        /* \"contracts/CooperProxy.sol\":30027:30073  IERC20(poolTokens[0]).balanceOf(address(this)) */\n      mload(0x40)\n      shl(0xe0, 0x70a08231)\n      dup2\n      mstore\n        /* \"contracts/CooperProxy.sol\":30067:30071  this */\n      address\n        /* \"contracts/CooperProxy.sol\":30027:30073  IERC20(poolTokens[0]).balanceOf(address(this)) */\n      0x04\n      dup3\n      add\n        /* \"#utility.yul\":11256:11307   */\n      mstore\n      sub(shl(0xa0, 0x01), 0x01)\n        /* \"contracts/CooperProxy.sol\":30027:30058  IERC20(poolTokens[0]).balanceOf */\n      swap1\n      swap2\n      and\n      swap1\n      0x70a08231\n      swap1\n        /* \"#utility.yul\":11229:11247   */\n      0x24\n      add\n        /* \"contracts/CooperProxy.sol\":30027:30073  IERC20(poolTokens[0]).balanceOf(address(this)) */\n      0x20\n      mload(0x40)\n      dup1\n      dup4\n      sub\n      dup2\n      dup7\n      dup1\n      extcodesize\n      iszero\n      dup1\n      iszero\n      tag_164\n      jumpi\n      0x00\n      dup1\n      revert\n    tag_164:\n      pop\n      gas\n      staticcall\n      iszero\n      dup1\n      iszero\n      tag_166\n      jumpi\n      returndatasize\n      0x00\n      dup1\n      returndatacopy\n      revert(0x00, returndatasize)\n    tag_166:\n      pop\n      pop\n      pop\n      pop\n      mload(0x40)\n      returndatasize\n      not(0x1f)\n      0x1f\n      dup3\n      add\n      and\n      dup3\n      add\n      dup1\n      0x40\n      mstore\n      pop\n      dup2\n      add\n      swap1\n      tag_167\n      swap2\n      swap1\n      tag_106\n      jump\t// in\n    tag_167:\n        /* \"contracts/CooperProxy.sol\":29999:30073  uint256 firstTokenBalance = IERC20(poolTokens[0]).balanceOf(address(this)) */\n      swap1\n      pop\n        /* \"contracts/CooperProxy.sol\":30084:30207  TransferHelper.safeTransfer(\r... */\n      tag_168\n        /* \"contracts/CooperProxy.sol\":30126:30136  poolTokens */\n      dup10\n        /* \"contracts/CooperProxy.sol\":30137:30138  0 */\n      0x00\n        /* \"contracts/CooperProxy.sol\":30126:30139  poolTokens[0] */\n      dup2\n      mload\n      dup2\n      lt\n      tag_170\n      jumpi\n      tag_170\n      tag_144\n      jump\t// in\n    tag_170:\n      0x20\n      mul\n      0x20\n      add\n      add\n      mload\n        /* \"contracts/CooperProxy.sol\":30154:30164  msg.sender */\n      caller\n        /* \"contracts/CooperProxy.sol\":30179:30196  firstTokenBalance */\n      dup4\n        /* \"contracts/CooperProxy.sol\":30084:30111  TransferHelper.safeTransfer */\n      tag_158\n        /* \"contracts/CooperProxy.sol\":30084:30207  TransferHelper.safeTransfer(\r... */\n      jump\t// in\n    tag_168:\n        /* \"contracts/CooperProxy.sol\":30239:30243  pool */\n      dup15\n      sub(shl(0xa0, 0x01), 0x01)\n        /* \"contracts/CooperProxy.sol\":30223:30290  TransferedToken(pool, poolTokens[0], msg.sender, firstTokenBalance) */\n      and\n      0x235d80db0a4b8dc1e99bba791b835d938cbc8cb023a88fdaba36aafd2aa9b276\n        /* \"contracts/CooperProxy.sol\":30245:30255  poolTokens */\n      dup11\n        /* \"contracts/CooperProxy.sol\":30256:30257  0 */\n      0x00\n        /* \"contracts/CooperProxy.sol\":30245:30258  poolTokens[0] */\n      dup2\n      mload\n      dup2\n      lt\n      tag_172\n      jumpi\n      tag_172\n      tag_144\n      jump\t// in\n    tag_172:\n      0x20\n      mul\n      0x20\n      add\n      add\n      mload\n        /* \"contracts/CooperProxy.sol\":30260:30270  msg.sender */\n      caller\n        /* \"contracts/CooperProxy.sol\":30272:30289  firstTokenBalance */\n      dup5\n        /* \"contracts/CooperProxy.sol\":30223:30290  TransferedToken(pool, poolTokens[0], msg.sender, firstTokenBalance) */\n      mload(0x40)\n      tag_173\n      swap4\n      swap3\n      swap2\n      swap1\n      tag_160\n      jump\t// in\n    tag_173:\n      mload(0x40)\n      dup1\n      swap2\n      sub\n      swap1\n      log2\n        /* \"contracts/CooperProxy.sol\":30303:30329  uint256 secondTokenBalance */\n      0x00\n        /* \"contracts/CooperProxy.sol\":30339:30349  poolTokens */\n      dup10\n        /* \"contracts/CooperProxy.sol\":30350:30351  1 */\n      0x01\n        /* \"contracts/CooperProxy.sol\":30339:30352  poolTokens[1] */\n      dup2\n      mload\n      dup2\n      lt\n      tag_175\n      jumpi\n      tag_175\n      tag_144\n      jump\t// in\n    tag_175:\n      0x20\n      swap1\n      dup2\n      mul\n      swap2\n      swap1\n      swap2\n      add\n      add\n      mload\n        /* \"contracts/CooperProxy.sol\":30332:30378  IERC20(poolTokens[1]).balanceOf(address(this)) */\n      mload(0x40)\n      shl(0xe0, 0x70a08231)\n      dup2\n      mstore\n        /* \"contracts/CooperProxy.sol\":30372:30376  this */\n      address\n        /* \"contracts/CooperProxy.sol\":30332:30378  IERC20(poolTokens[1]).balanceOf(address(this)) */\n      0x04\n      dup3\n      add\n        /* \"#utility.yul\":11256:11307   */\n      mstore\n      sub(shl(0xa0, 0x01), 0x01)\n        /* \"contracts/CooperProxy.sol\":30332:30363  IERC20(poolTokens[1]).balanceOf */\n      swap1\n      swap2\n      and\n      swap1\n      0x70a08231\n      swap1\n        /* \"#utility.yul\":11229:11247   */\n      0x24\n      add\n        /* \"contracts/CooperProxy.sol\":30332:30378  IERC20(poolTokens[1]).balanceOf(address(this)) */\n      0x20\n      mload(0x40)\n      dup1\n      dup4\n      sub\n      dup2\n      dup7\n      dup1\n      extcodesize\n      iszero\n      dup1\n      iszero\n      tag_177\n      jumpi\n      0x00\n      dup1\n      revert\n    tag_177:\n      pop\n      gas\n      staticcall\n      iszero\n      dup1\n      iszero\n      tag_179\n      jumpi\n      returndatasize\n      0x00\n      dup1\n      returndatacopy\n      revert(0x00, returndatasize)\n    tag_179:\n      pop\n      pop\n      pop\n      pop\n      mload(0x40)\n      returndatasize\n      not(0x1f)\n      0x1f\n      dup3\n      add\n      and\n      dup3\n      add\n      dup1\n      0x40\n      mstore\n      pop\n      dup2\n      add\n      swap1\n      tag_180\n      swap2\n      swap1\n      tag_106\n      jump\t// in\n    tag_180:\n        /* \"contracts/CooperProxy.sol\":30303:30378  uint256 secondTokenBalance = IERC20(poolTokens[1]).balanceOf(address(this)) */\n      swap1\n      pop\n        /* \"contracts/CooperProxy.sol\":30389:30513  TransferHelper.safeTransfer(\r... */\n      tag_181\n        /* \"contracts/CooperProxy.sol\":30431:30441  poolTokens */\n      dup11\n        /* \"contracts/CooperProxy.sol\":30442:30443  1 */\n      0x01\n        /* \"contracts/CooperProxy.sol\":30431:30444  poolTokens[1] */\n      dup2\n      mload\n      dup2\n      lt\n      tag_170\n      jumpi\n      tag_170\n      tag_144\n      jump\t// in\n        /* \"contracts/CooperProxy.sol\":30389:30513  TransferHelper.safeTransfer(\r... */\n    tag_181:\n        /* \"contracts/CooperProxy.sol\":30545:30549  pool */\n      dup16\n      sub(shl(0xa0, 0x01), 0x01)\n        /* \"contracts/CooperProxy.sol\":30529:30597  TransferedToken(pool, poolTokens[1], msg.sender, secondTokenBalance) */\n      and\n      0x235d80db0a4b8dc1e99bba791b835d938cbc8cb023a88fdaba36aafd2aa9b276\n        /* \"contracts/CooperProxy.sol\":30551:30561  poolTokens */\n      dup12\n        /* \"contracts/CooperProxy.sol\":30562:30563  1 */\n      0x01\n        /* \"contracts/CooperProxy.sol\":30551:30564  poolTokens[1] */\n      dup2\n      mload\n      dup2\n      lt\n      tag_185\n      jumpi\n      tag_185\n      tag_144\n      jump\t// in\n    tag_185:\n      0x20\n      mul\n      0x20\n      add\n      add\n      mload\n        /* \"contracts/CooperProxy.sol\":30566:30576  msg.sender */\n      caller\n        /* \"contracts/CooperProxy.sol\":30578:30596  secondTokenBalance */\n      dup5\n        /* \"contracts/CooperProxy.sol\":30529:30597  TransferedToken(pool, poolTokens[1], msg.sender, secondTokenBalance) */\n      mload(0x40)\n      tag_186\n      swap4\n      swap3\n      swap2\n      swap1\n      tag_160\n      jump\t// in\n    tag_186:\n      mload(0x40)\n      dup1\n      swap2\n      sub\n      swap1\n      log2\n        /* \"contracts/CooperProxy.sol\":28254:30605  {\r... */\n      pop\n      pop\n      pop\n      pop\n      pop\n      pop\n      pop\n      pop\n      pop\n      pop\n      pop\n        /* \"contracts/CooperProxy.sol\":28135:30605  function exitPool(address pool, uint256[] calldata minAmountsOut, uint256 maxBPTTokenOut) external onlyPoolOwner(pool) {\r... */\n      pop\n      pop\n      pop\n      pop\n      pop\n      jump\t// out\n        /* \"contracts/CooperProxy.sol\":24015:24128  function getPoolAt(uint256 index) external view returns (address pool) {\r... */\n    tag_36:\n        /* \"contracts/CooperProxy.sol\":24072:24084  address pool */\n      0x00\n        /* \"contracts/CooperProxy.sol\":24104:24120  _pools.at(index) */\n      tag_188\n        /* \"contracts/CooperProxy.sol\":24104:24110  _pools */\n      0x02\n        /* \"contracts/CooperProxy.sol\":24114:24119  index */\n      dup4\n        /* \"contracts/CooperProxy.sol\":24104:24113  _pools.at */\n      tag_189\n        /* \"contracts/CooperProxy.sol\":24104:24120  _pools.at(index) */\n      jump\t// in\n    tag_188:\n        /* \"contracts/CooperProxy.sol\":24097:24120  return _pools.at(index) */\n      swap3\n        /* \"contracts/CooperProxy.sol\":24015:24128  function getPoolAt(uint256 index) external view returns (address pool) {\r... */\n      swap2\n      pop\n      pop\n      jump\t// out\n        /* \"contracts/CooperProxy.sol\":30613:30857  function changeFeeRecipient(address newRecipient) external onlyOwner {\r... */\n    tag_46:\n        /* \"contracts/CooperProxy.sol\":18723:18730  address */\n      0x00\n        /* \"contracts/CooperProxy.sol\":18750:18756  _owner */\n      sload\n      sub(shl(0xa0, 0x01), 0x01)\n      and\n        /* \"contracts/CooperProxy.sol\":17604:17614  msg.sender */\n      caller\n        /* \"contracts/CooperProxy.sol\":18897:18920  owner() == _msgSender() */\n      eq\n        /* \"contracts/CooperProxy.sol\":18889:18957  require(owner() == _msgSender(), \"Ownable: caller is not the owner\") */\n      tag_197\n      jumpi\n      mload(0x40)\n      shl(0xe5, 0x461bcd)\n      dup2\n      mstore\n      0x04\n      add\n      tag_99\n      swap1\n      tag_199\n      jump\t// in\n    tag_197:\n        /* \"contracts/CooperProxy.sol\":30725:30738  _feeRecipient */\n      0x04\n      dup1\n      sload\n      sub(shl(0xa0, 0x01), 0x01)\n        /* \"contracts/CooperProxy.sol\":30749:30777  _feeRecipient = newRecipient */\n      dup4\n      dup2\n      and\n      not(sub(shl(0xa0, 0x01), 0x01))\n      dup4\n      and\n      dup2\n      or\n      swap1\n      swap4\n      sstore\n        /* \"contracts/CooperProxy.sol\":30793:30849  ChangedFeeRecipient(previousFeeReciepient, newRecipient) */\n      0x40\n      dup1\n      mload\n        /* \"contracts/CooperProxy.sol\":30725:30738  _feeRecipient */\n      swap2\n      swap1\n      swap3\n      and\n        /* \"#utility.yul\":11530:11564   */\n      dup1\n      dup3\n      mstore\n        /* \"#utility.yul\":11595:11597   */\n      0x20\n        /* \"#utility.yul\":11580:11598   */\n      dup3\n      add\n        /* \"#utility.yul\":11573:11616   */\n      swap4\n      swap1\n      swap4\n      mstore\n        /* \"contracts/CooperProxy.sol\":30793:30849  ChangedFeeRecipient(previousFeeReciepient, newRecipient) */\n      0xc335ca37f71e695337f94e5078421114aee3f4c5d97e824efaf8578318e5e8c8\n      swap2\n        /* \"#utility.yul\":11465:11483   */\n      add\n        /* \"contracts/CooperProxy.sol\":30793:30849  ChangedFeeRecipient(previousFeeReciepient, newRecipient) */\n      mload(0x40)\n      dup1\n      swap2\n      sub\n      swap1\n      log1\n        /* \"contracts/CooperProxy.sol\":30682:30857  {\r... */\n      pop\n        /* \"contracts/CooperProxy.sol\":30613:30857  function changeFeeRecipient(address newRecipient) external onlyOwner {\r... */\n      pop\n      jump\t// out\n        /* \"contracts/CooperProxy.sol\":24880:27144  function createAuction(PoolConfig memory poolConfig) external returns (address) {\r... */\n    tag_53:\n        /* \"contracts/CooperProxy.sol\":24951:24958  address */\n      0x00\n        /* \"contracts/CooperProxy.sol\":25027:25037  poolConfig */\n      dup2\n        /* \"contracts/CooperProxy.sol\":25027:25044  poolConfig.tokens */\n      0x40\n      add\n      mload\n        /* \"contracts/CooperProxy.sol\":25027:25051  poolConfig.tokens.length */\n      mload\n        /* \"contracts/CooperProxy.sol\":25055:25056  2 */\n      0x02\n        /* \"contracts/CooperProxy.sol\":25027:25056  poolConfig.tokens.length == 2 */\n      eq\n        /* \"contracts/CooperProxy.sol\":25019:25076  require(poolConfig.tokens.length == 2, \"only two tokens\") */\n      tag_204\n      jumpi\n      mload(0x40)\n      shl(0xe5, 0x461bcd)\n      dup2\n      mstore\n        /* \"#utility.yul\":20209:20211   */\n      0x20\n        /* \"contracts/CooperProxy.sol\":25019:25076  require(poolConfig.tokens.length == 2, \"only two tokens\") */\n      0x04\n      dup3\n      add\n        /* \"#utility.yul\":20191:20212   */\n      mstore\n        /* \"#utility.yul\":20248:20250   */\n      0x0f\n        /* \"#utility.yul\":20228:20246   */\n      0x24\n      dup3\n      add\n        /* \"#utility.yul\":20221:20251   */\n      mstore\n      shl(0x88, 0x6f6e6c792074776f20746f6b656e73)\n        /* \"#utility.yul\":20267:20285   */\n      0x44\n      dup3\n      add\n        /* \"#utility.yul\":20260:20305   */\n      mstore\n        /* \"#utility.yul\":20322:20340   */\n      0x64\n      add\n        /* \"contracts/CooperProxy.sol\":25019:25076  require(poolConfig.tokens.length == 2, \"only two tokens\") */\n      tag_99\n        /* \"#utility.yul\":20007:20346   */\n      jump\n        /* \"contracts/CooperProxy.sol\":25019:25076  require(poolConfig.tokens.length == 2, \"only two tokens\") */\n    tag_204:\n        /* \"contracts/CooperProxy.sol\":25087:25190  TransferHelper.safeTransferFrom(poolConfig.tokens[0], msg.sender, address(this), poolConfig.amounts[0]) */\n      tag_207\n        /* \"contracts/CooperProxy.sol\":25119:25129  poolConfig */\n      dup3\n        /* \"contracts/CooperProxy.sol\":25119:25136  poolConfig.tokens */\n      0x40\n      add\n      mload\n        /* \"contracts/CooperProxy.sol\":25137:25138  0 */\n      0x00\n        /* \"contracts/CooperProxy.sol\":25119:25139  poolConfig.tokens[0] */\n      dup2\n      mload\n      dup2\n      lt\n      tag_209\n      jumpi\n      tag_209\n      tag_144\n      jump\t// in\n    tag_209:\n      0x20\n      mul\n      0x20\n      add\n      add\n      mload\n        /* \"contracts/CooperProxy.sol\":25141:25151  msg.sender */\n      caller\n        /* \"contracts/CooperProxy.sol\":25161:25165  this */\n      address\n        /* \"contracts/CooperProxy.sol\":25168:25178  poolConfig */\n      dup6\n        /* \"contracts/CooperProxy.sol\":25168:25186  poolConfig.amounts */\n      0x60\n      add\n      mload\n        /* \"contracts/CooperProxy.sol\":25187:25188  0 */\n      0x00\n        /* \"contracts/CooperProxy.sol\":25168:25189  poolConfig.amounts[0] */\n      dup2\n      mload\n      dup2\n      lt\n      tag_211\n      jumpi\n      tag_211\n      tag_144\n      jump\t// in\n    tag_211:\n      0x20\n      mul\n      0x20\n      add\n      add\n      mload\n        /* \"contracts/CooperProxy.sol\":25087:25118  TransferHelper.safeTransferFrom */\n      tag_212\n        /* \"contracts/CooperProxy.sol\":25087:25190  TransferHelper.safeTransferFrom(poolConfig.tokens[0], msg.sender, address(this), poolConfig.amounts[0]) */\n      jump\t// in\n    tag_207:\n        /* \"contracts/CooperProxy.sol\":25201:25304  TransferHelper.safeTransferFrom(poolConfig.tokens[1], msg.sender, address(this), poolConfig.amounts[1]) */\n      tag_213\n        /* \"contracts/CooperProxy.sol\":25233:25243  poolConfig */\n      dup3\n        /* \"contracts/CooperProxy.sol\":25233:25250  poolConfig.tokens */\n      0x40\n      add\n      mload\n        /* \"contracts/CooperProxy.sol\":25251:25252  1 */\n      0x01\n        /* \"contracts/CooperProxy.sol\":25233:25253  poolConfig.tokens[1] */\n      dup2\n      mload\n      dup2\n      lt\n      tag_215\n      jumpi\n      tag_215\n      tag_144\n      jump\t// in\n    tag_215:\n      0x20\n      mul\n      0x20\n      add\n      add\n      mload\n        /* \"contracts/CooperProxy.sol\":25255:25265  msg.sender */\n      caller\n        /* \"contracts/CooperProxy.sol\":25275:25279  this */\n      address\n        /* \"contracts/CooperProxy.sol\":25282:25292  poolConfig */\n      dup6\n        /* \"contracts/CooperProxy.sol\":25282:25300  poolConfig.amounts */\n      0x60\n      add\n      mload\n        /* \"contracts/CooperProxy.sol\":25301:25302  1 */\n      0x01\n        /* \"contracts/CooperProxy.sol\":25282:25303  poolConfig.amounts[1] */\n      dup2\n      mload\n      dup2\n      lt\n      tag_211\n      jumpi\n      tag_211\n      tag_144\n      jump\t// in\n        /* \"contracts/CooperProxy.sol\":25201:25304  TransferHelper.safeTransferFrom(poolConfig.tokens[1], msg.sender, address(this), poolConfig.amounts[1]) */\n    tag_213:\n        /* \"contracts/CooperProxy.sol\":25315:25393  TransferHelper.safeApprove(poolConfig.tokens[0], VAULT, poolConfig.amounts[0]) */\n      tag_218\n        /* \"contracts/CooperProxy.sol\":25342:25352  poolConfig */\n      dup3\n        /* \"contracts/CooperProxy.sol\":25342:25359  poolConfig.tokens */\n      0x40\n      add\n      mload\n        /* \"contracts/CooperProxy.sol\":25360:25361  0 */\n      0x00\n        /* \"contracts/CooperProxy.sol\":25342:25362  poolConfig.tokens[0] */\n      dup2\n      mload\n      dup2\n      lt\n      tag_220\n      jumpi\n      tag_220\n      tag_144\n      jump\t// in\n    tag_220:\n      0x20\n      mul\n      0x20\n      add\n      add\n      mload\n        /* \"contracts/CooperProxy.sol\":22059:22101  0x20dd72Ed959b6147912C2e529F0a0C651c33c9ce */\n      0x20dd72ed959b6147912c2e529f0a0c651c33c9ce\n        /* \"contracts/CooperProxy.sol\":25371:25381  poolConfig */\n      dup5\n        /* \"contracts/CooperProxy.sol\":25371:25389  poolConfig.amounts */\n      0x60\n      add\n      mload\n        /* \"contracts/CooperProxy.sol\":25390:25391  0 */\n      0x00\n        /* \"contracts/CooperProxy.sol\":25371:25392  poolConfig.amounts[0] */\n      dup2\n      mload\n      dup2\n      lt\n      tag_222\n      jumpi\n      tag_222\n      tag_144\n      jump\t// in\n    tag_222:\n      0x20\n      mul\n      0x20\n      add\n      add\n      mload\n        /* \"contracts/CooperProxy.sol\":25315:25341  TransferHelper.safeApprove */\n      tag_223\n        /* \"contracts/CooperProxy.sol\":25315:25393  TransferHelper.safeApprove(poolConfig.tokens[0], VAULT, poolConfig.amounts[0]) */\n      jump\t// in\n    tag_218:\n        /* \"contracts/CooperProxy.sol\":25404:25482  TransferHelper.safeApprove(poolConfig.tokens[1], VAULT, poolConfig.amounts[1]) */\n      tag_224\n        /* \"contracts/CooperProxy.sol\":25431:25441  poolConfig */\n      dup3\n        /* \"contracts/CooperProxy.sol\":25431:25448  poolConfig.tokens */\n      0x40\n      add\n      mload\n        /* \"contracts/CooperProxy.sol\":25449:25450  1 */\n      0x01\n        /* \"contracts/CooperProxy.sol\":25431:25451  poolConfig.tokens[1] */\n      dup2\n      mload\n      dup2\n      lt\n      tag_226\n      jumpi\n      tag_226\n      tag_144\n      jump\t// in\n    tag_226:\n      0x20\n      mul\n      0x20\n      add\n      add\n      mload\n        /* \"contracts/CooperProxy.sol\":22059:22101  0x20dd72Ed959b6147912C2e529F0a0C651c33c9ce */\n      0x20dd72ed959b6147912c2e529f0a0c651c33c9ce\n        /* \"contracts/CooperProxy.sol\":25460:25470  poolConfig */\n      dup5\n        /* \"contracts/CooperProxy.sol\":25460:25478  poolConfig.amounts */\n      0x60\n      add\n      mload\n        /* \"contracts/CooperProxy.sol\":25479:25480  1 */\n      0x01\n        /* \"contracts/CooperProxy.sol\":25460:25481  poolConfig.amounts[1] */\n      dup2\n      mload\n      dup2\n      lt\n      tag_222\n      jumpi\n      tag_222\n      tag_144\n      jump\t// in\n        /* \"contracts/CooperProxy.sol\":25404:25482  TransferHelper.safeApprove(poolConfig.tokens[1], VAULT, poolConfig.amounts[1]) */\n    tag_224:\n        /* \"contracts/CooperProxy.sol\":25591:25606  poolConfig.name */\n      dup2\n      mload\n        /* \"contracts/CooperProxy.sol\":25621:25638  poolConfig.symbol */\n      0x20\n      dup4\n      add\n      mload\n        /* \"contracts/CooperProxy.sol\":25653:25670  poolConfig.tokens */\n      0x40\n      dup1\n      dup6\n      add\n      mload\n        /* \"contracts/CooperProxy.sol\":25685:25703  poolConfig.weights */\n      0x80\n      dup7\n      add\n      mload\n        /* \"contracts/CooperProxy.sol\":25718:25746  poolConfig.swapFeePercentage */\n      0xe0\n      dup8\n      add\n      mload\n        /* \"contracts/CooperProxy.sol\":25539:25859  LBPFactory(_LBPFactoryAddress).create(\r... */\n      swap3\n      mload\n      shl(0xe0, 0x23679719)\n      dup2\n      mstore\n        /* \"contracts/CooperProxy.sol\":25524:25536  address pool */\n      0x00\n      swap6\n      sub(shl(0xa0, 0x01), 0x01)\n        /* \"contracts/CooperProxy.sol\":25550:25568  _LBPFactoryAddress */\n      immutable(\"0xcc1cf32daa775edd624f71ddb0d100d39c31c65becb67e6d2e7789fa58c10fe0\")\n        /* \"contracts/CooperProxy.sol\":25539:25576  LBPFactory(_LBPFactoryAddress).create */\n      and\n      swap6\n      0x23679719\n      swap6\n        /* \"contracts/CooperProxy.sol\":25539:25859  LBPFactory(_LBPFactoryAddress).create(\r... */\n      tag_229\n      swap6\n        /* \"contracts/CooperProxy.sol\":25591:25606  poolConfig.name */\n      swap3\n      swap5\n        /* \"contracts/CooperProxy.sol\":25621:25638  poolConfig.symbol */\n      swap2\n      swap4\n        /* \"contracts/CooperProxy.sol\":25769:25773  this */\n      address\n      swap1\n        /* \"contracts/CooperProxy.sol\":25524:25536  address pool */\n      dup11\n      swap1\n        /* \"contracts/CooperProxy.sol\":25539:25859  LBPFactory(_LBPFactoryAddress).create(\r... */\n      0x04\n      add\n      tag_230\n      jump\t// in\n    tag_229:\n      0x20\n      mload(0x40)\n      dup1\n      dup4\n      sub\n      dup2\n      0x00\n      dup8\n      dup1\n      extcodesize\n      iszero\n      dup1\n      iszero\n      tag_231\n      jumpi\n      0x00\n      dup1\n      revert\n    tag_231:\n      pop\n      gas\n      call\n      iszero\n      dup1\n      iszero\n      tag_233\n      jumpi\n      returndatasize\n      0x00\n      dup1\n      returndatacopy\n      revert(0x00, returndatasize)\n    tag_233:\n      pop\n      pop\n      pop\n      pop\n      mload(0x40)\n      returndatasize\n      not(0x1f)\n      0x1f\n      dup3\n      add\n      and\n      dup3\n      add\n      dup1\n      0x40\n      mstore\n      pop\n      dup2\n      add\n      swap1\n      tag_234\n      swap2\n      swap1\n      tag_235\n      jump\t// in\n    tag_234:\n        /* \"contracts/CooperProxy.sol\":25524:25859  address pool = LBPFactory(_LBPFactoryAddress).create(\r... */\n      swap1\n      pop\n        /* \"contracts/CooperProxy.sol\":25872:25886  bytes32 poolId */\n      0x00\n        /* \"contracts/CooperProxy.sol\":25893:25897  pool */\n      dup2\n      sub(shl(0xa0, 0x01), 0x01)\n        /* \"contracts/CooperProxy.sol\":25889:25908  LBP(pool).getPoolId */\n      and\n      0x38fff2d0\n        /* \"contracts/CooperProxy.sol\":25889:25910  LBP(pool).getPoolId() */\n      mload(0x40)\n      dup2\n      0xffffffff\n      and\n      0xe0\n      shl\n      dup2\n      mstore\n      0x04\n      add\n      0x20\n      mload(0x40)\n      dup1\n      dup4\n      sub\n      dup2\n      0x00\n      dup8\n      dup1\n      extcodesize\n      iszero\n      dup1\n      iszero\n      tag_236\n      jumpi\n      0x00\n      dup1\n      revert\n    tag_236:\n      pop\n      gas\n      call\n      iszero\n      dup1\n      iszero\n      tag_238\n      jumpi\n      returndatasize\n      0x00\n      dup1\n      returndatacopy\n      revert(0x00, returndatasize)\n    tag_238:\n      pop\n      pop\n      pop\n      pop\n      mload(0x40)\n      returndatasize\n      not(0x1f)\n      0x1f\n      dup3\n      add\n      and\n      dup3\n      add\n      dup1\n      0x40\n      mstore\n      pop\n      dup2\n      add\n      swap1\n      tag_239\n      swap2\n      swap1\n      tag_106\n      jump\t// in\n    tag_239:\n        /* \"contracts/CooperProxy.sol\":25872:25910  bytes32 poolId = LBP(pool).getPoolId() */\n      swap1\n      pop\n        /* \"contracts/CooperProxy.sol\":25952:25956  pool */\n      dup2\n      sub(shl(0xa0, 0x01), 0x01)\n        /* \"contracts/CooperProxy.sol\":25926:26206  PoolCreated(\r... */\n      and\n      0x2b416ce78f01c3304331a3a35005ee09bfb64c878f2be9849fc9909101bc61ac\n        /* \"contracts/CooperProxy.sol\":25971:25977  poolId */\n      dup3\n        /* \"contracts/CooperProxy.sol\":25992:26002  poolConfig */\n      dup7\n        /* \"contracts/CooperProxy.sol\":25992:26007  poolConfig.name */\n      0x00\n      add\n      mload\n        /* \"contracts/CooperProxy.sol\":26022:26032  poolConfig */\n      dup8\n        /* \"contracts/CooperProxy.sol\":26022:26039  poolConfig.symbol */\n      0x20\n      add\n      mload\n        /* \"contracts/CooperProxy.sol\":26054:26064  poolConfig */\n      dup9\n        /* \"contracts/CooperProxy.sol\":26054:26071  poolConfig.tokens */\n      0x40\n      add\n      mload\n        /* \"contracts/CooperProxy.sol\":26086:26096  poolConfig */\n      dup10\n        /* \"contracts/CooperProxy.sol\":26086:26104  poolConfig.weights */\n      0x80\n      add\n      mload\n        /* \"contracts/CooperProxy.sol\":26119:26129  poolConfig */\n      dup11\n        /* \"contracts/CooperProxy.sol\":26119:26147  poolConfig.swapFeePercentage */\n      0xe0\n      add\n      mload\n        /* \"contracts/CooperProxy.sol\":26170:26174  this */\n      address\n        /* \"contracts/CooperProxy.sol\":26190:26195  false */\n      0x00\n        /* \"contracts/CooperProxy.sol\":25926:26206  PoolCreated(\r... */\n      mload(0x40)\n      tag_240\n      swap9\n      swap8\n      swap7\n      swap6\n      swap5\n      swap4\n      swap3\n      swap2\n      swap1\n      tag_241\n      jump\t// in\n    tag_240:\n      mload(0x40)\n      dup1\n      swap2\n      sub\n      swap1\n      log2\n        /* \"contracts/CooperProxy.sol\":26268:26420  PoolData(\r... */\n      mload(0x40)\n      dup1\n      0x60\n      add\n      0x40\n      mstore\n      dup1\n        /* \"contracts/CooperProxy.sol\":26291:26301  msg.sender */\n      caller\n      sub(shl(0xa0, 0x01), 0x01)\n        /* \"contracts/CooperProxy.sol\":26268:26420  PoolData(\r... */\n      and\n      dup2\n      mstore\n      0x20\n      add\n        /* \"contracts/CooperProxy.sol\":26316:26326  poolConfig */\n      dup6\n        /* \"contracts/CooperProxy.sol\":26316:26341  poolConfig.isCorrectOrder */\n      0xc0\n      add\n      mload\n        /* \"contracts/CooperProxy.sol\":26268:26420  PoolData(\r... */\n      iszero\n      iszero\n      dup2\n      mstore\n      0x20\n      add\n        /* \"contracts/CooperProxy.sol\":26356:26366  poolConfig */\n      dup6\n        /* \"contracts/CooperProxy.sol\":26356:26374  poolConfig.amounts */\n      0x60\n      add\n      mload\n        /* \"contracts/CooperProxy.sol\":26375:26385  poolConfig */\n      dup7\n        /* \"contracts/CooperProxy.sol\":26375:26400  poolConfig.isCorrectOrder */\n      0xc0\n      add\n      mload\n        /* \"contracts/CooperProxy.sol\":26375:26408  poolConfig.isCorrectOrder ? 0 : 1 */\n      tag_242\n      jumpi\n        /* \"contracts/CooperProxy.sol\":26407:26408  1 */\n      0x01\n        /* \"contracts/CooperProxy.sol\":26375:26408  poolConfig.isCorrectOrder ? 0 : 1 */\n      jump(tag_243)\n    tag_242:\n        /* \"contracts/CooperProxy.sol\":26403:26404  0 */\n      0x00\n        /* \"contracts/CooperProxy.sol\":26375:26408  poolConfig.isCorrectOrder ? 0 : 1 */\n    tag_243:\n        /* \"contracts/CooperProxy.sol\":26356:26409  poolConfig.amounts[poolConfig.isCorrectOrder ? 0 : 1] */\n      0xff\n      and\n      dup2\n      mload\n      dup2\n      lt\n      tag_245\n      jumpi\n      tag_245\n      tag_144\n      jump\t// in\n    tag_245:\n      0x20\n      swap1\n      dup2\n      mul\n      swap2\n      swap1\n      swap2\n      add\n      dup2\n      add\n      mload\n        /* \"contracts/CooperProxy.sol\":26268:26420  PoolData(\r... */\n      swap1\n      swap2\n      mstore\n      sub(shl(0xa0, 0x01), 0x01)\n        /* \"contracts/CooperProxy.sol\":26250:26265  _poolData[pool] */\n      dup1\n      dup6\n      and\n      0x00\n      swap1\n      dup2\n      mstore\n        /* \"contracts/CooperProxy.sol\":26250:26259  _poolData */\n      0x01\n        /* \"contracts/CooperProxy.sol\":26250:26265  _poolData[pool] */\n      dup1\n      dup5\n      mstore\n      0x40\n      swap2\n      dup3\n      swap1\n      keccak256\n        /* \"contracts/CooperProxy.sol\":26250:26420  _poolData[pool] = PoolData(\r... */\n      dup6\n      mload\n      dup2\n      sload\n      swap6\n      dup8\n      add\n      mload\n      iszero\n      iszero\n      shl(0xa0, 0x01)\n      mul\n      not(sub(shl(0xa8, 0x01), 0x01))\n      swap1\n      swap7\n      and\n      swap5\n      and\n      swap4\n      swap1\n      swap4\n      or\n      swap4\n      swap1\n      swap4\n      or\n      dup3\n      sstore\n      swap3\n      swap1\n      swap3\n      add\n      mload\n      swap2\n      add\n      sstore\n        /* \"contracts/CooperProxy.sol\":26439:26455  _pools.add(pool) */\n      tag_246\n        /* \"contracts/CooperProxy.sol\":26439:26445  _pools */\n      0x02\n        /* \"contracts/CooperProxy.sol\":26260:26264  pool */\n      dup4\n        /* \"contracts/CooperProxy.sol\":26439:26449  _pools.add */\n      tag_247\n        /* \"contracts/CooperProxy.sol\":26439:26455  _pools.add(pool) */\n      jump\t// in\n    tag_246:\n        /* \"contracts/CooperProxy.sol\":26431:26474  require(_pools.add(pool), \"exists already\") */\n      tag_248\n      jumpi\n      mload(0x40)\n      shl(0xe5, 0x461bcd)\n      dup2\n      mstore\n        /* \"#utility.yul\":19866:19868   */\n      0x20\n        /* \"contracts/CooperProxy.sol\":26431:26474  require(_pools.add(pool), \"exists already\") */\n      0x04\n      dup3\n      add\n        /* \"#utility.yul\":19848:19869   */\n      mstore\n        /* \"#utility.yul\":19905:19907   */\n      0x0e\n        /* \"#utility.yul\":19885:19903   */\n      0x24\n      dup3\n      add\n        /* \"#utility.yul\":19878:19908   */\n      mstore\n      shl(0x90, 0x65786973747320616c7265616479)\n        /* \"#utility.yul\":19924:19942   */\n      0x44\n      dup3\n      add\n        /* \"#utility.yul\":19917:19961   */\n      mstore\n        /* \"#utility.yul\":19978:19996   */\n      0x64\n      add\n        /* \"contracts/CooperProxy.sol\":26431:26474  require(_pools.add(pool), \"exists already\") */\n      tag_99\n        /* \"#utility.yul\":19664:20002   */\n      jump\n        /* \"contracts/CooperProxy.sol\":26431:26474  require(_pools.add(pool), \"exists already\") */\n    tag_248:\n        /* \"contracts/CooperProxy.sol\":26663:26751  Vault.JoinPoolRequest(poolConfig.tokens, poolConfig.amounts, poolConfig.userData, false) */\n      0x40\n      dup1\n      mload\n      0x80\n      dup2\n      add\n      dup3\n      mstore\n        /* \"contracts/CooperProxy.sol\":26685:26702  poolConfig.tokens */\n      dup6\n      dup3\n      add\n      mload\n        /* \"contracts/CooperProxy.sol\":26663:26751  Vault.JoinPoolRequest(poolConfig.tokens, poolConfig.amounts, poolConfig.userData, false) */\n      dup2\n      mstore\n        /* \"contracts/CooperProxy.sol\":26704:26722  poolConfig.amounts */\n      0x60\n      dup1\n      dup8\n      add\n      mload\n        /* \"contracts/CooperProxy.sol\":26663:26751  Vault.JoinPoolRequest(poolConfig.tokens, poolConfig.amounts, poolConfig.userData, false) */\n      0x20\n      dup4\n      add\n      mstore\n        /* \"contracts/CooperProxy.sol\":26724:26743  poolConfig.userData */\n      0x0100\n      dup8\n      add\n      mload\n        /* \"contracts/CooperProxy.sol\":26663:26751  Vault.JoinPoolRequest(poolConfig.tokens, poolConfig.amounts, poolConfig.userData, false) */\n      dup3\n      dup5\n      add\n      mstore\n      0x00\n      swap1\n      dup3\n      add\n      mstore\n        /* \"contracts/CooperProxy.sol\":26527:26762  Vault(VAULT).joinPool(\r... */\n      swap1\n      mload\n      shl(0xe3, 0x172b9585)\n      dup2\n      mstore\n        /* \"contracts/CooperProxy.sol\":22059:22101  0x20dd72Ed959b6147912C2e529F0a0C651c33c9ce */\n      0x20dd72ed959b6147912c2e529f0a0c651c33c9ce\n      swap2\n        /* \"contracts/CooperProxy.sol\":26527:26548  Vault(VAULT).joinPool */\n      0xb95cac28\n      swap2\n        /* \"contracts/CooperProxy.sol\":26527:26762  Vault(VAULT).joinPool(\r... */\n      tag_251\n      swap2\n        /* \"contracts/CooperProxy.sol\":26563:26569  poolId */\n      dup6\n      swap2\n        /* \"contracts/CooperProxy.sol\":26592:26596  this */\n      address\n      swap2\n      dup3\n      swap2\n        /* \"contracts/CooperProxy.sol\":26527:26762  Vault(VAULT).joinPool(\r... */\n      0x04\n      add\n      tag_134\n      jump\t// in\n    tag_251:\n      0x00\n      mload(0x40)\n      dup1\n      dup4\n      sub\n      dup2\n      0x00\n      dup8\n      dup1\n      extcodesize\n      iszero\n      dup1\n      iszero\n      tag_253\n      jumpi\n      0x00\n      dup1\n      revert\n    tag_253:\n      pop\n      gas\n      call\n      iszero\n      dup1\n      iszero\n      tag_255\n      jumpi\n      returndatasize\n      0x00\n      dup1\n      returndatacopy\n      revert(0x00, returndatasize)\n    tag_255:\n      pop\n      pop\n      pop\n      pop\n        /* \"contracts/CooperProxy.sol\":26789:26793  pool */\n      dup2\n      sub(shl(0xa0, 0x01), 0x01)\n        /* \"contracts/CooperProxy.sol\":26778:26854  JoinedPool(pool, poolConfig.tokens, poolConfig.amounts, poolConfig.userData) */\n      and\n      0x5dcdc6c8b7b09c26d0c867e99f2b7389b69d982aa8f10b1373f84667a8f58b35\n        /* \"contracts/CooperProxy.sol\":26795:26805  poolConfig */\n      dup6\n        /* \"contracts/CooperProxy.sol\":26795:26812  poolConfig.tokens */\n      0x40\n      add\n      mload\n        /* \"contracts/CooperProxy.sol\":26814:26824  poolConfig */\n      dup7\n        /* \"contracts/CooperProxy.sol\":26814:26832  poolConfig.amounts */\n      0x60\n      add\n      mload\n        /* \"contracts/CooperProxy.sol\":26834:26844  poolConfig */\n      dup8\n        /* \"contracts/CooperProxy.sol\":26834:26853  poolConfig.userData */\n      0x0100\n      add\n      mload\n        /* \"contracts/CooperProxy.sol\":26778:26854  JoinedPool(pool, poolConfig.tokens, poolConfig.amounts, poolConfig.userData) */\n      mload(0x40)\n      tag_256\n      swap4\n      swap3\n      swap2\n      swap1\n      tag_257\n      jump\t// in\n    tag_256:\n      mload(0x40)\n      dup1\n      swap2\n      sub\n      swap1\n      log2\n        /* \"contracts/CooperProxy.sol\":26904:26908  pool */\n      dup2\n      sub(shl(0xa0, 0x01), 0x01)\n        /* \"contracts/CooperProxy.sol\":26900:26932  LBP(pool).updateWeightsGradually */\n      and\n      0x3e569205\n        /* \"contracts/CooperProxy.sol\":26933:26943  poolConfig */\n      dup6\n        /* \"contracts/CooperProxy.sol\":26933:26953  poolConfig.startTime */\n      0x0120\n      add\n      mload\n        /* \"contracts/CooperProxy.sol\":26955:26965  poolConfig */\n      dup7\n        /* \"contracts/CooperProxy.sol\":26955:26973  poolConfig.endTime */\n      0x0140\n      add\n      mload\n        /* \"contracts/CooperProxy.sol\":26975:26985  poolConfig */\n      dup8\n        /* \"contracts/CooperProxy.sol\":26975:26996  poolConfig.endWeights */\n      0xa0\n      add\n      mload\n        /* \"contracts/CooperProxy.sol\":26900:26997  LBP(pool).updateWeightsGradually(poolConfig.startTime, poolConfig.endTime, poolConfig.endWeights) */\n      mload(0x40)\n      dup5\n      0xffffffff\n      and\n      0xe0\n      shl\n      dup2\n      mstore\n      0x04\n      add\n      tag_258\n      swap4\n      swap3\n      swap2\n      swap1\n      tag_259\n      jump\t// in\n    tag_258:\n      0x00\n      mload(0x40)\n      dup1\n      dup4\n      sub\n      dup2\n      0x00\n      dup8\n      dup1\n      extcodesize\n      iszero\n      dup1\n      iszero\n      tag_260\n      jumpi\n      0x00\n      dup1\n      revert\n    tag_260:\n      pop\n      gas\n      call\n      iszero\n      dup1\n      iszero\n      tag_262\n      jumpi\n      returndatasize\n      0x00\n      dup1\n      returndatacopy\n      revert(0x00, returndatasize)\n    tag_262:\n      pop\n      pop\n      pop\n      pop\n        /* \"contracts/CooperProxy.sol\":27042:27046  pool */\n      dup2\n      sub(shl(0xa0, 0x01), 0x01)\n        /* \"contracts/CooperProxy.sol\":27013:27112  GradualWeightUpdateScheduled(pool, poolConfig.startTime, poolConfig.endTime, poolConfig.endWeights) */\n      and\n      0x5b604c3eb0508fc702242270d353c7673f02b609e03862e244766785e39c278c\n        /* \"contracts/CooperProxy.sol\":27048:27058  poolConfig */\n      dup6\n        /* \"contracts/CooperProxy.sol\":27048:27068  poolConfig.startTime */\n      0x0120\n      add\n      mload\n        /* \"contracts/CooperProxy.sol\":27070:27080  poolConfig */\n      dup7\n        /* \"contracts/CooperProxy.sol\":27070:27088  poolConfig.endTime */\n      0x0140\n      add\n      mload\n        /* \"contracts/CooperProxy.sol\":27090:27100  poolConfig */\n      dup8\n        /* \"contracts/CooperProxy.sol\":27090:27111  poolConfig.endWeights */\n      0xa0\n      add\n      mload\n        /* \"contracts/CooperProxy.sol\":27013:27112  GradualWeightUpdateScheduled(pool, poolConfig.startTime, poolConfig.endTime, poolConfig.endWeights) */\n      mload(0x40)\n      tag_263\n      swap4\n      swap3\n      swap2\n      swap1\n      tag_259\n      jump\t// in\n    tag_263:\n      mload(0x40)\n      dup1\n      swap2\n      sub\n      swap1\n      log2\n      pop\n        /* \"contracts/CooperProxy.sol\":27132:27136  pool */\n      swap3\n        /* \"contracts/CooperProxy.sol\":24880:27144  function createAuction(PoolConfig memory poolConfig) external returns (address) {\r... */\n      swap2\n      pop\n      pop\n      jump\t// out\n        /* \"contracts/CooperProxy.sol\":27152:27342  function setSwapEnabled(address pool, bool swapEnabled) external onlyPoolOwner(pool) {\r... */\n    tag_58:\n      sub(shl(0xa0, 0x01), 0x01)\n        /* \"contracts/CooperProxy.sol\":23727:23742  _poolData[pool] */\n      dup3\n      dup2\n      and\n      0x00\n      swap1\n      dup2\n      mstore\n        /* \"contracts/CooperProxy.sol\":23727:23736  _poolData */\n      0x01\n        /* \"contracts/CooperProxy.sol\":23727:23742  _poolData[pool] */\n      0x20\n      mstore\n      0x40\n      swap1\n      keccak256\n        /* \"contracts/CooperProxy.sol\":23727:23748  _poolData[pool].owner */\n      sload\n        /* \"contracts/CooperProxy.sol\":23727:23742  _poolData[pool] */\n      dup4\n      swap2\n        /* \"contracts/CooperProxy.sol\":23727:23748  _poolData[pool].owner */\n      and\n        /* \"contracts/CooperProxy.sol\":23713:23723  msg.sender */\n      caller\n        /* \"contracts/CooperProxy.sol\":23713:23748  msg.sender == _poolData[pool].owner */\n      eq\n        /* \"contracts/CooperProxy.sol\":23705:23759  require(msg.sender == _poolData[pool].owner, \"!owner\") */\n      tag_265\n      jumpi\n      mload(0x40)\n      shl(0xe5, 0x461bcd)\n      dup2\n      mstore\n      0x04\n      add\n      tag_99\n      swap1\n      tag_100\n      jump\t// in\n    tag_265:\n        /* \"contracts/CooperProxy.sol\":27248:27285  LBP(pool).setSwapEnabled(swapEnabled) */\n      mload(0x40)\n      shl(0xe2, 0x3806be4b)\n      dup2\n      mstore\n        /* \"#utility.yul\":14193:14207   */\n      dup3\n      iszero\n        /* \"#utility.yul\":14186:14208   */\n      iszero\n        /* \"contracts/CooperProxy.sol\":27248:27285  LBP(pool).setSwapEnabled(swapEnabled) */\n      0x04\n      dup3\n      add\n        /* \"#utility.yul\":14168:14209   */\n      mstore\n      sub(shl(0xa0, 0x01), 0x01)\n        /* \"contracts/CooperProxy.sol\":27248:27272  LBP(pool).setSwapEnabled */\n      dup5\n      and\n      swap1\n      0xe01af92c\n      swap1\n        /* \"#utility.yul\":14141:14159   */\n      0x24\n      add\n        /* \"contracts/CooperProxy.sol\":27248:27285  LBP(pool).setSwapEnabled(swapEnabled) */\n      0x00\n      mload(0x40)\n      dup1\n      dup4\n      sub\n      dup2\n      0x00\n      dup8\n      dup1\n      extcodesize\n      iszero\n      dup1\n      iszero\n      tag_269\n      jumpi\n      0x00\n      dup1\n      revert\n    tag_269:\n      pop\n      gas\n      call\n      iszero\n      dup1\n      iszero\n      tag_271\n      jumpi\n      returndatasize\n      0x00\n      dup1\n      returndatacopy\n      revert(0x00, returndatasize)\n    tag_271:\n      pop\n      pop\n      pop\n      pop\n        /* \"contracts/CooperProxy.sol\":27316:27320  pool */\n      dup3\n      sub(shl(0xa0, 0x01), 0x01)\n        /* \"contracts/CooperProxy.sol\":27301:27334  SwapEnabledSet(pool, swapEnabled) */\n      and\n      0xdc5bc5b27f91cbe9bad8b85e20c9519fb6d126629108f16d474af76579696ea9\n        /* \"contracts/CooperProxy.sol\":27322:27333  swapEnabled */\n      dup4\n        /* \"contracts/CooperProxy.sol\":27301:27334  SwapEnabledSet(pool, swapEnabled) */\n      mload(0x40)\n      tag_272\n      swap2\n        /* \"#utility.yul\":14193:14207   */\n      iszero\n        /* \"#utility.yul\":14186:14208   */\n      iszero\n        /* \"#utility.yul\":14168:14209   */\n      dup2\n      mstore\n        /* \"#utility.yul\":14156:14158   */\n      0x20\n        /* \"#utility.yul\":14141:14159   */\n      add\n      swap1\n        /* \"#utility.yul\":14028:14215   */\n      jump\n        /* \"contracts/CooperProxy.sol\":27301:27334  SwapEnabledSet(pool, swapEnabled) */\n    tag_272:\n      mload(0x40)\n      dup1\n      swap2\n      sub\n      swap1\n      log2\n        /* \"contracts/CooperProxy.sol\":27152:27342  function setSwapEnabled(address pool, bool swapEnabled) external onlyPoolOwner(pool) {\r... */\n      pop\n      pop\n      pop\n      jump\t// out\n        /* \"contracts/CooperProxy.sol\":23787:23899  function isPool(address pool) external view returns (bool valid) {\r... */\n    tag_61:\n        /* \"contracts/CooperProxy.sol\":23840:23850  bool valid */\n      0x00\n        /* \"contracts/CooperProxy.sol\":23870:23891  _pools.contains(pool) */\n      tag_188\n        /* \"contracts/CooperProxy.sol\":23870:23876  _pools */\n      0x02\n        /* \"contracts/CooperProxy.sol\":23886:23890  pool */\n      dup4\n        /* \"contracts/CooperProxy.sol\":23870:23885  _pools.contains */\n      tag_275\n        /* \"contracts/CooperProxy.sol\":23870:23891  _pools.contains(pool) */\n      jump\t// in\n        /* \"contracts/CooperProxy.sol\":24136:24244  function getPools() external view returns (address[] memory pools) {\r... */\n    tag_65:\n        /* \"contracts/CooperProxy.sol\":24179:24201  address[] memory pools */\n      0x60\n        /* \"contracts/CooperProxy.sol\":24221:24236  _pools.values() */\n      tag_277\n        /* \"contracts/CooperProxy.sol\":24221:24227  _pools */\n      0x02\n        /* \"contracts/CooperProxy.sol\":24221:24234  _pools.values */\n      tag_278\n        /* \"contracts/CooperProxy.sol\":24221:24236  _pools.values() */\n      jump\t// in\n    tag_277:\n        /* \"contracts/CooperProxy.sol\":24214:24236  return _pools.values() */\n      swap1\n      pop\n        /* \"contracts/CooperProxy.sol\":24136:24244  function getPools() external view returns (address[] memory pools) {\r... */\n      swap1\n      jump\t// out\n        /* \"contracts/CooperProxy.sol\":30865:31189  function skim(address token, address recipient) external onlyOwner {\r... */\n    tag_71:\n        /* \"contracts/CooperProxy.sol\":18723:18730  address */\n      0x00\n        /* \"contracts/CooperProxy.sol\":18750:18756  _owner */\n      sload\n      sub(shl(0xa0, 0x01), 0x01)\n      and\n        /* \"contracts/CooperProxy.sol\":17604:17614  msg.sender */\n      caller\n        /* \"contracts/CooperProxy.sol\":18897:18920  owner() == _msgSender() */\n      eq\n        /* \"contracts/CooperProxy.sol\":18889:18957  require(owner() == _msgSender(), \"Ownable: caller is not the owner\") */\n      tag_282\n      jumpi\n      mload(0x40)\n      shl(0xe5, 0x461bcd)\n      dup2\n      mstore\n      0x04\n      add\n      tag_99\n      swap1\n      tag_199\n      jump\t// in\n    tag_282:\n        /* \"contracts/CooperProxy.sol\":30952:30974  _pools.contains(token) */\n      tag_285\n        /* \"contracts/CooperProxy.sol\":30952:30958  _pools */\n      0x02\n        /* \"contracts/CooperProxy.sol\":30968:30973  token */\n      dup4\n        /* \"contracts/CooperProxy.sol\":30952:30967  _pools.contains */\n      tag_275\n        /* \"contracts/CooperProxy.sol\":30952:30974  _pools.contains(token) */\n      jump\t// in\n    tag_285:\n        /* \"contracts/CooperProxy.sol\":30951:30974  !_pools.contains(token) */\n      iszero\n        /* \"contracts/CooperProxy.sol\":30943:30999  require(!_pools.contains(token), \"can't skim LBP token\") */\n      tag_286\n      jumpi\n      mload(0x40)\n      shl(0xe5, 0x461bcd)\n      dup2\n      mstore\n        /* \"#utility.yul\":22410:22412   */\n      0x20\n        /* \"contracts/CooperProxy.sol\":30943:30999  require(!_pools.contains(token), \"can't skim LBP token\") */\n      0x04\n      dup3\n      add\n        /* \"#utility.yul\":22392:22413   */\n      mstore\n        /* \"#utility.yul\":22449:22451   */\n      0x14\n        /* \"#utility.yul\":22429:22447   */\n      0x24\n      dup3\n      add\n        /* \"#utility.yul\":22422:22452   */\n      mstore\n      shl(0x61, 0x31b0b713ba1039b5b4b690262128103a37b5b2b7)\n        /* \"#utility.yul\":22468:22486   */\n      0x44\n      dup3\n      add\n        /* \"#utility.yul\":22461:22511   */\n      mstore\n        /* \"#utility.yul\":22528:22546   */\n      0x64\n      add\n        /* \"contracts/CooperProxy.sol\":30943:30999  require(!_pools.contains(token), \"can't skim LBP token\") */\n      tag_99\n        /* \"#utility.yul\":22208:22552   */\n      jump\n        /* \"contracts/CooperProxy.sol\":30943:30999  require(!_pools.contains(token), \"can't skim LBP token\") */\n    tag_286:\n        /* \"contracts/CooperProxy.sol\":31028:31066  IERC20(token).balanceOf(address(this)) */\n      mload(0x40)\n      shl(0xe0, 0x70a08231)\n      dup2\n      mstore\n        /* \"contracts/CooperProxy.sol\":31060:31064  this */\n      address\n        /* \"contracts/CooperProxy.sol\":31028:31066  IERC20(token).balanceOf(address(this)) */\n      0x04\n      dup3\n      add\n        /* \"#utility.yul\":11256:11307   */\n      mstore\n        /* \"contracts/CooperProxy.sol\":31010:31025  uint256 balance */\n      0x00\n      swap1\n      sub(shl(0xa0, 0x01), 0x01)\n        /* \"contracts/CooperProxy.sol\":31028:31051  IERC20(token).balanceOf */\n      dup5\n      and\n      swap1\n      0x70a08231\n      swap1\n        /* \"#utility.yul\":11229:11247   */\n      0x24\n      add\n        /* \"contracts/CooperProxy.sol\":31028:31066  IERC20(token).balanceOf(address(this)) */\n      0x20\n      mload(0x40)\n      dup1\n      dup4\n      sub\n      dup2\n      dup7\n      dup1\n      extcodesize\n      iszero\n      dup1\n      iszero\n      tag_290\n      jumpi\n      0x00\n      dup1\n      revert\n    tag_290:\n      pop\n      gas\n      staticcall\n      iszero\n      dup1\n      iszero\n      tag_292\n      jumpi\n      returndatasize\n      0x00\n      dup1\n      returndatacopy\n      revert(0x00, returndatasize)\n    tag_292:\n      pop\n      pop\n      pop\n      pop\n      mload(0x40)\n      returndatasize\n      not(0x1f)\n      0x1f\n      dup3\n      add\n      and\n      dup3\n      add\n      dup1\n      0x40\n      mstore\n      pop\n      dup2\n      add\n      swap1\n      tag_293\n      swap2\n      swap1\n      tag_106\n      jump\t// in\n    tag_293:\n        /* \"contracts/CooperProxy.sol\":31010:31066  uint256 balance = IERC20(token).balanceOf(address(this)) */\n      swap1\n      pop\n        /* \"contracts/CooperProxy.sol\":31077:31131  TransferHelper.safeTransfer(token, recipient, balance) */\n      tag_294\n        /* \"contracts/CooperProxy.sol\":31105:31110  token */\n      dup4\n        /* \"contracts/CooperProxy.sol\":31112:31121  recipient */\n      dup4\n        /* \"contracts/CooperProxy.sol\":31123:31130  balance */\n      dup4\n        /* \"contracts/CooperProxy.sol\":31077:31104  TransferHelper.safeTransfer */\n      tag_158\n        /* \"contracts/CooperProxy.sol\":31077:31131  TransferHelper.safeTransfer(token, recipient, balance) */\n      jump\t// in\n    tag_294:\n        /* \"contracts/CooperProxy.sol\":31147:31181  Skimmed(token, recipient, balance) */\n      0x0cfb7d414a57e3fd35da9f4b61341e65026c225646228ba0262d9264f541c32e\n        /* \"contracts/CooperProxy.sol\":31155:31160  token */\n      dup4\n        /* \"contracts/CooperProxy.sol\":31162:31171  recipient */\n      dup4\n        /* \"contracts/CooperProxy.sol\":31173:31180  balance */\n      dup4\n        /* \"contracts/CooperProxy.sol\":31147:31181  Skimmed(token, recipient, balance) */\n      mload(0x40)\n      tag_295\n      swap4\n      swap3\n      swap2\n      swap1\n      tag_160\n      jump\t// in\n    tag_295:\n      mload(0x40)\n      dup1\n      swap2\n      sub\n      swap1\n      log1\n        /* \"contracts/CooperProxy.sol\":30932:31189  {\r... */\n      pop\n        /* \"contracts/CooperProxy.sol\":30865:31189  function skim(address token, address recipient) external onlyOwner {\r... */\n      pop\n      pop\n      jump\t// out\n        /* \"contracts/CooperProxy.sol\":19328:19422  function renounceOwnership() public virtual onlyOwner {\r... */\n    tag_73:\n        /* \"contracts/CooperProxy.sol\":18723:18730  address */\n      0x00\n        /* \"contracts/CooperProxy.sol\":18750:18756  _owner */\n      sload\n      sub(shl(0xa0, 0x01), 0x01)\n      and\n        /* \"contracts/CooperProxy.sol\":17604:17614  msg.sender */\n      caller\n        /* \"contracts/CooperProxy.sol\":18897:18920  owner() == _msgSender() */\n      eq\n        /* \"contracts/CooperProxy.sol\":18889:18957  require(owner() == _msgSender(), \"Ownable: caller is not the owner\") */\n      tag_299\n      jumpi\n      mload(0x40)\n      shl(0xe5, 0x461bcd)\n      dup2\n      mstore\n      0x04\n      add\n      tag_99\n      swap1\n      tag_199\n      jump\t// in\n    tag_299:\n        /* \"contracts/CooperProxy.sol\":19393:19414  _setOwner(address(0)) */\n      tag_302\n        /* \"contracts/CooperProxy.sol\":19411:19412  0 */\n      0x00\n        /* \"contracts/CooperProxy.sol\":19393:19402  _setOwner */\n      tag_303\n        /* \"contracts/CooperProxy.sol\":19393:19414  _setOwner(address(0)) */\n      jump\t// in\n    tag_302:\n        /* \"contracts/CooperProxy.sol\":19328:19422  function renounceOwnership() public virtual onlyOwner {\r... */\n      jump\t// out\n        /* \"contracts/CooperProxy.sol\":24385:24533  function getBPTTokenBalance(address pool) external view returns (uint256 bptBalance) {\r... */\n    tag_86:\n        /* \"contracts/CooperProxy.sol\":24488:24525  IERC20(pool).balanceOf(address(this)) */\n      mload(0x40)\n      shl(0xe0, 0x70a08231)\n      dup2\n      mstore\n        /* \"contracts/CooperProxy.sol\":24519:24523  this */\n      address\n        /* \"contracts/CooperProxy.sol\":24488:24525  IERC20(pool).balanceOf(address(this)) */\n      0x04\n      dup3\n      add\n        /* \"#utility.yul\":11256:11307   */\n      mstore\n        /* \"contracts/CooperProxy.sol\":24450:24468  uint256 bptBalance */\n      0x00\n      swap1\n      sub(shl(0xa0, 0x01), 0x01)\n        /* \"contracts/CooperProxy.sol\":24488:24510  IERC20(pool).balanceOf */\n      dup4\n      and\n      swap1\n      0x70a08231\n      swap1\n        /* \"#utility.yul\":11229:11247   */\n      0x24\n      add\n        /* \"contracts/CooperProxy.sol\":24488:24525  IERC20(pool).balanceOf(address(this)) */\n      0x20\n      mload(0x40)\n      dup1\n      dup4\n      sub\n      dup2\n      dup7\n      dup1\n      extcodesize\n      iszero\n      dup1\n      iszero\n      tag_307\n      jumpi\n      0x00\n      dup1\n      revert\n    tag_307:\n      pop\n      gas\n      staticcall\n      iszero\n      dup1\n      iszero\n      tag_309\n      jumpi\n      returndatasize\n      0x00\n      dup1\n      returndatacopy\n      revert(0x00, returndatasize)\n    tag_309:\n      pop\n      pop\n      pop\n      pop\n      mload(0x40)\n      returndatasize\n      not(0x1f)\n      0x1f\n      dup3\n      add\n      and\n      dup3\n      add\n      dup1\n      0x40\n      mstore\n      pop\n      dup2\n      add\n      swap1\n      tag_188\n      swap2\n      swap1\n      tag_106\n      jump\t// in\n        /* \"contracts/CooperProxy.sol\":27350:27619  function transferPoolOwnership(address pool, address newOwner) external onlyPoolOwner(pool) {\r... */\n    tag_90:\n      sub(shl(0xa0, 0x01), 0x01)\n        /* \"contracts/CooperProxy.sol\":23727:23742  _poolData[pool] */\n      dup3\n      dup2\n      and\n      0x00\n      swap1\n      dup2\n      mstore\n        /* \"contracts/CooperProxy.sol\":23727:23736  _poolData */\n      0x01\n        /* \"contracts/CooperProxy.sol\":23727:23742  _poolData[pool] */\n      0x20\n      mstore\n      0x40\n      swap1\n      keccak256\n        /* \"contracts/CooperProxy.sol\":23727:23748  _poolData[pool].owner */\n      sload\n        /* \"contracts/CooperProxy.sol\":23727:23742  _poolData[pool] */\n      dup4\n      swap2\n        /* \"contracts/CooperProxy.sol\":23727:23748  _poolData[pool].owner */\n      and\n        /* \"contracts/CooperProxy.sol\":23713:23723  msg.sender */\n      caller\n        /* \"contracts/CooperProxy.sol\":23713:23748  msg.sender == _poolData[pool].owner */\n      eq\n        /* \"contracts/CooperProxy.sol\":23705:23759  require(msg.sender == _poolData[pool].owner, \"!owner\") */\n      tag_312\n      jumpi\n      mload(0x40)\n      shl(0xe5, 0x461bcd)\n      dup2\n      mstore\n      0x04\n      add\n      tag_99\n      swap1\n      tag_100\n      jump\t// in\n    tag_312:\n      sub(shl(0xa0, 0x01), 0x01)\n        /* \"contracts/CooperProxy.sol\":27477:27492  _poolData[pool] */\n      dup4\n      dup2\n      and\n        /* \"contracts/CooperProxy.sol\":27453:27474  address previousOwner */\n      0x00\n        /* \"contracts/CooperProxy.sol\":27477:27492  _poolData[pool] */\n      dup2\n      dup2\n      mstore\n        /* \"contracts/CooperProxy.sol\":27477:27486  _poolData */\n      0x01\n        /* \"contracts/CooperProxy.sol\":27477:27492  _poolData[pool] */\n      0x20\n      swap1\n      dup2\n      mstore\n      0x40\n      swap2\n      dup3\n      swap1\n      keccak256\n        /* \"contracts/CooperProxy.sol\":27477:27498  _poolData[pool].owner */\n      dup1\n      sload\n        /* \"contracts/CooperProxy.sol\":27509:27541  _poolData[pool].owner = newOwner */\n      dup8\n      dup7\n      and\n      not(sub(shl(0xa0, 0x01), 0x01))\n      dup3\n      and\n      dup2\n      or\n      swap1\n      swap3\n      sstore\n        /* \"contracts/CooperProxy.sol\":27557:27611  TransferedPoolOwnership(pool, previousOwner, newOwner) */\n      dup4\n      mload\n        /* \"contracts/CooperProxy.sol\":27477:27498  _poolData[pool].owner */\n      swap6\n      and\n        /* \"#utility.yul\":11530:11564   */\n      dup1\n      dup7\n      mstore\n        /* \"#utility.yul\":11580:11598   */\n      swap2\n      dup6\n      add\n        /* \"#utility.yul\":11573:11616   */\n      mstore\n        /* \"contracts/CooperProxy.sol\":27477:27498  _poolData[pool].owner */\n      swap3\n        /* \"contracts/CooperProxy.sol\":27557:27611  TransferedPoolOwnership(pool, previousOwner, newOwner) */\n      0x794fb907c01822765502a338368bdc2f31ef538f609dcc19be5629fee0cedcd8\n      swap2\n        /* \"#utility.yul\":11465:11483   */\n      add\n        /* \"contracts/CooperProxy.sol\":27557:27611  TransferedPoolOwnership(pool, previousOwner, newOwner) */\n      mload(0x40)\n      dup1\n      swap2\n      sub\n      swap1\n      log2\n        /* \"contracts/CooperProxy.sol\":27442:27619  {\r... */\n      pop\n        /* \"contracts/CooperProxy.sol\":27350:27619  function transferPoolOwnership(address pool, address newOwner) external onlyPoolOwner(pool) {\r... */\n      pop\n      pop\n      pop\n      jump\t// out\n        /* \"contracts/CooperProxy.sol\":19577:19769  function transferOwnership(address newOwner) public virtual onlyOwner {\r... */\n    tag_93:\n        /* \"contracts/CooperProxy.sol\":18723:18730  address */\n      0x00\n        /* \"contracts/CooperProxy.sol\":18750:18756  _owner */\n      sload\n      sub(shl(0xa0, 0x01), 0x01)\n      and\n        /* \"contracts/CooperProxy.sol\":17604:17614  msg.sender */\n      caller\n        /* \"contracts/CooperProxy.sol\":18897:18920  owner() == _msgSender() */\n      eq\n        /* \"contracts/CooperProxy.sol\":18889:18957  require(owner() == _msgSender(), \"Ownable: caller is not the owner\") */\n      tag_319\n      jumpi\n      mload(0x40)\n      shl(0xe5, 0x461bcd)\n      dup2\n      mstore\n      0x04\n      add\n      tag_99\n      swap1\n      tag_199\n      jump\t// in\n    tag_319:\n      sub(shl(0xa0, 0x01), 0x01)\n        /* \"contracts/CooperProxy.sol\":19666:19688  newOwner != address(0) */\n      dup2\n      and\n        /* \"contracts/CooperProxy.sol\":19658:19731  require(newOwner != address(0), \"Ownable: new owner is the zero address\") */\n      tag_322\n      jumpi\n      mload(0x40)\n      shl(0xe5, 0x461bcd)\n      dup2\n      mstore\n        /* \"#utility.yul\":18331:18333   */\n      0x20\n        /* \"contracts/CooperProxy.sol\":19658:19731  require(newOwner != address(0), \"Ownable: new owner is the zero address\") */\n      0x04\n      dup3\n      add\n        /* \"#utility.yul\":18313:18334   */\n      mstore\n        /* \"#utility.yul\":18370:18372   */\n      0x26\n        /* \"#utility.yul\":18350:18368   */\n      0x24\n      dup3\n      add\n        /* \"#utility.yul\":18343:18373   */\n      mstore\n        /* \"#utility.yul\":18409:18443   */\n      0x4f776e61626c653a206e6577206f776e657220697320746865207a65726f2061\n        /* \"#utility.yul\":18389:18407   */\n      0x44\n      dup3\n      add\n        /* \"#utility.yul\":18382:18444   */\n      mstore\n      shl(0xd0, 0x646472657373)\n        /* \"#utility.yul\":18460:18478   */\n      0x64\n      dup3\n      add\n        /* \"#utility.yul\":18453:18489   */\n      mstore\n        /* \"#utility.yul\":18506:18525   */\n      0x84\n      add\n        /* \"contracts/CooperProxy.sol\":19658:19731  require(newOwner != address(0), \"Ownable: new owner is the zero address\") */\n      tag_99\n        /* \"#utility.yul\":18129:18531   */\n      jump\n        /* \"contracts/CooperProxy.sol\":19658:19731  require(newOwner != address(0), \"Ownable: new owner is the zero address\") */\n    tag_322:\n        /* \"contracts/CooperProxy.sol\":19742:19761  _setOwner(newOwner) */\n      tag_325\n        /* \"contracts/CooperProxy.sol\":19752:19760  newOwner */\n      dup2\n        /* \"contracts/CooperProxy.sol\":19742:19751  _setOwner */\n      tag_303\n        /* \"contracts/CooperProxy.sol\":19742:19761  _setOwner(newOwner) */\n      jump\t// in\n    tag_325:\n        /* \"contracts/CooperProxy.sol\":19577:19769  function transferOwnership(address newOwner) public virtual onlyOwner {\r... */\n      pop\n      jump\t// out\n        /* \"contracts/CooperProxy.sol\":23907:24007  function poolCount() external view returns (uint256 count) {\r... */\n    tag_95:\n        /* \"contracts/CooperProxy.sol\":23951:23964  uint256 count */\n      0x00\n        /* \"contracts/CooperProxy.sol\":23984:23999  _pools.length() */\n      tag_277\n        /* \"contracts/CooperProxy.sol\":23984:23990  _pools */\n      0x02\n        /* \"contracts/CooperProxy.sol\":23984:23997  _pools.length */\n      tag_328\n        /* \"contracts/CooperProxy.sol\":23984:23999  _pools.length() */\n      jump\t// in\n        /* \"contracts/CooperProxy.sol\":559:1008  function safeTransfer(\r... */\n    tag_158:\n        /* \"contracts/CooperProxy.sol\":791:836  abi.encodeWithSelector(0xa9059cbb, to, value) */\n      0x40\n      dup1\n      mload\n      sub(shl(0xa0, 0x01), 0x01)\n        /* \"#utility.yul\":12199:12231   */\n      dup5\n      dup2\n      and\n        /* \"contracts/CooperProxy.sol\":791:836  abi.encodeWithSelector(0xa9059cbb, to, value) */\n      0x24\n      dup4\n      add\n        /* \"#utility.yul\":12181:12232   */\n      mstore\n        /* \"#utility.yul\":12248:12266   */\n      0x44\n      dup1\n      dup4\n      add\n        /* \"#utility.yul\":12241:12275   */\n      dup6\n      swap1\n      mstore\n        /* \"contracts/CooperProxy.sol\":791:836  abi.encodeWithSelector(0xa9059cbb, to, value) */\n      dup4\n      mload\n      dup1\n      dup5\n      sub\n      swap1\n      swap2\n      add\n      dup2\n      mstore\n        /* \"#utility.yul\":12154:12172   */\n      0x64\n      swap1\n      swap3\n      add\n        /* \"contracts/CooperProxy.sol\":791:836  abi.encodeWithSelector(0xa9059cbb, to, value) */\n      dup4\n      mstore\n      0x20\n      dup3\n      add\n      dup1\n      mload\n      sub(shl(0xe0, 0x01), 0x01)\n      and\n      shl(0xe0, 0xa9059cbb)\n      or\n      swap1\n      mstore\n        /* \"contracts/CooperProxy.sol\":780:837  token.call(abi.encodeWithSelector(0xa9059cbb, to, value)) */\n      swap2\n      mload\n      0x00\n      swap3\n      dup4\n      swap3\n        /* \"contracts/CooperProxy.sol\":780:790  token.call */\n      swap1\n      dup8\n      and\n      swap2\n        /* \"contracts/CooperProxy.sol\":780:837  token.call(abi.encodeWithSelector(0xa9059cbb, to, value)) */\n      tag_332\n      swap2\n        /* \"contracts/CooperProxy.sol\":791:836  abi.encodeWithSelector(0xa9059cbb, to, value) */\n      swap1\n        /* \"contracts/CooperProxy.sol\":780:837  token.call(abi.encodeWithSelector(0xa9059cbb, to, value)) */\n      tag_333\n      jump\t// in\n    tag_332:\n      0x00\n      mload(0x40)\n      dup1\n      dup4\n      sub\n      dup2\n      0x00\n      dup7\n      gas\n      call\n      swap2\n      pop\n      pop\n      returndatasize\n      dup1\n      0x00\n      dup2\n      eq\n      tag_336\n      jumpi\n      mload(0x40)\n      swap2\n      pop\n      and(add(returndatasize, 0x3f), not(0x1f))\n      dup3\n      add\n      0x40\n      mstore\n      returndatasize\n      dup3\n      mstore\n      returndatasize\n      0x00\n      0x20\n      dup5\n      add\n      returndatacopy\n      jump(tag_335)\n    tag_336:\n      0x60\n      swap2\n      pop\n    tag_335:\n      pop\n        /* \"contracts/CooperProxy.sol\":744:837  (bool success, bytes memory data) = token.call(abi.encodeWithSelector(0xa9059cbb, to, value)) */\n      swap2\n      pop\n      swap2\n      pop\n        /* \"contracts/CooperProxy.sol\":870:877  success */\n      dup2\n        /* \"contracts/CooperProxy.sol\":870:927  success && (data.length == 0 || abi.decode(data, (bool))) */\n      dup1\n      iszero\n      tag_339\n      jumpi\n      pop\n        /* \"contracts/CooperProxy.sol\":882:893  data.length */\n      dup1\n      mload\n        /* \"contracts/CooperProxy.sol\":882:898  data.length == 0 */\n      iszero\n      dup1\n        /* \"contracts/CooperProxy.sol\":882:926  data.length == 0 || abi.decode(data, (bool)) */\n      tag_339\n      jumpi\n      pop\n        /* \"contracts/CooperProxy.sol\":913:917  data */\n      dup1\n        /* \"contracts/CooperProxy.sol\":902:926  abi.decode(data, (bool)) */\n      dup1\n      0x20\n      add\n      swap1\n      mload\n      dup2\n      add\n      swap1\n      tag_339\n      swap2\n      swap1\n      tag_340\n      jump\t// in\n    tag_339:\n        /* \"contracts/CooperProxy.sol\":848:1000  require(\r... */\n      tag_341\n      jumpi\n      mload(0x40)\n      shl(0xe5, 0x461bcd)\n      dup2\n      mstore\n        /* \"#utility.yul\":20965:20967   */\n      0x20\n        /* \"contracts/CooperProxy.sol\":848:1000  require(\r... */\n      0x04\n      dup3\n      add\n        /* \"#utility.yul\":20947:20968   */\n      mstore\n        /* \"#utility.yul\":21004:21006   */\n      0x2d\n        /* \"#utility.yul\":20984:21002   */\n      0x24\n      dup3\n      add\n        /* \"#utility.yul\":20977:21007   */\n      mstore\n        /* \"#utility.yul\":21043:21077   */\n      0x5472616e7366657248656c7065723a3a736166655472616e736665723a207472\n        /* \"#utility.yul\":21023:21041   */\n      0x44\n      dup3\n      add\n        /* \"#utility.yul\":21016:21078   */\n      mstore\n      shl(0x9a, 0x185b9cd9995c8819985a5b1959)\n        /* \"#utility.yul\":21094:21112   */\n      0x64\n      dup3\n      add\n        /* \"#utility.yul\":21087:21130   */\n      mstore\n        /* \"#utility.yul\":21147:21166   */\n      0x84\n      add\n        /* \"contracts/CooperProxy.sol\":848:1000  require(\r... */\n      tag_99\n        /* \"#utility.yul\":20763:21172   */\n      jump\n        /* \"contracts/CooperProxy.sol\":848:1000  require(\r... */\n    tag_341:\n        /* \"contracts/CooperProxy.sol\":666:1008  {\r... */\n      pop\n      pop\n        /* \"contracts/CooperProxy.sol\":559:1008  function safeTransfer(\r... */\n      pop\n      pop\n      pop\n      jump\t// out\n        /* \"contracts/CooperProxy.sol\":13548:13706  function at(AddressSet storage set, uint256 index) internal view returns (address) {\r... */\n    tag_189:\n        /* \"contracts/CooperProxy.sol\":13622:13629  address */\n      0x00\n        /* \"contracts/CooperProxy.sol\":13673:13695  _at(set._inner, index) */\n      tag_345\n        /* \"contracts/CooperProxy.sol\":13677:13680  set */\n      dup4\n        /* \"contracts/CooperProxy.sol\":13689:13694  index */\n      dup4\n        /* \"contracts/CooperProxy.sol\":13673:13676  _at */\n      tag_346\n        /* \"contracts/CooperProxy.sol\":13673:13695  _at(set._inner, index) */\n      jump\t// in\n    tag_345:\n        /* \"contracts/CooperProxy.sol\":13665:13696  uint256(_at(set._inner, index)) */\n      swap4\n        /* \"contracts/CooperProxy.sol\":13548:13706  function at(AddressSet storage set, uint256 index) internal view returns (address) {\r... */\n      swap3\n      pop\n      pop\n      pop\n      jump\t// out\n        /* \"contracts/CooperProxy.sol\":1016:1514  function safeTransferFrom(\r... */\n    tag_212:\n        /* \"contracts/CooperProxy.sol\":1241:1253  bool success */\n      0x00\n        /* \"contracts/CooperProxy.sol\":1255:1272  bytes memory data */\n      dup1\n        /* \"contracts/CooperProxy.sol\":1276:1281  token */\n      dup6\n      sub(shl(0xa0, 0x01), 0x01)\n        /* \"contracts/CooperProxy.sol\":1276:1286  token.call */\n      and\n        /* \"contracts/CooperProxy.sol\":1310:1320  0x23b872dd */\n      0x23b872dd\n        /* \"contracts/CooperProxy.sol\":1322:1326  from */\n      dup7\n        /* \"contracts/CooperProxy.sol\":1328:1330  to */\n      dup7\n        /* \"contracts/CooperProxy.sol\":1332:1337  value */\n      dup7\n        /* \"contracts/CooperProxy.sol\":1287:1338  abi.encodeWithSelector(0x23b872dd, from, to, value) */\n      add(0x24, mload(0x40))\n      tag_349\n      swap4\n      swap3\n      swap2\n      swap1\n      tag_160\n      jump\t// in\n    tag_349:\n      mload(0x40)\n      0x20\n      dup2\n      dup4\n      sub\n      sub\n      dup2\n      mstore\n      swap1\n      0x40\n      mstore\n      swap1\n      0xe0\n      shl\n      0x20\n      dup3\n      add\n      dup1\n      mload\n      sub(shl(0xe0, 0x01), 0x01)\n      dup4\n      dup2\n      dup4\n      and\n      or\n      dup4\n      mstore\n      pop\n      pop\n      pop\n      pop\n        /* \"contracts/CooperProxy.sol\":1276:1339  token.call(abi.encodeWithSelector(0x23b872dd, from, to, value)) */\n      mload(0x40)\n      tag_350\n      swap2\n      swap1\n      tag_333\n      jump\t// in\n    tag_350:\n      0x00\n      mload(0x40)\n      dup1\n      dup4\n      sub\n      dup2\n      0x00\n      dup7\n      gas\n      call\n      swap2\n      pop\n      pop\n      returndatasize\n      dup1\n      0x00\n      dup2\n      eq\n      tag_353\n      jumpi\n      mload(0x40)\n      swap2\n      pop\n      and(add(returndatasize, 0x3f), not(0x1f))\n      dup3\n      add\n      0x40\n      mstore\n      returndatasize\n      dup3\n      mstore\n      returndatasize\n      0x00\n      0x20\n      dup5\n      add\n      returndatacopy\n      jump(tag_352)\n    tag_353:\n      0x60\n      swap2\n      pop\n    tag_352:\n      pop\n        /* \"contracts/CooperProxy.sol\":1240:1339  (bool success, bytes memory data) = token.call(abi.encodeWithSelector(0x23b872dd, from, to, value)) */\n      swap2\n      pop\n      swap2\n      pop\n        /* \"contracts/CooperProxy.sol\":1372:1379  success */\n      dup2\n        /* \"contracts/CooperProxy.sol\":1372:1429  success && (data.length == 0 || abi.decode(data, (bool))) */\n      dup1\n      iszero\n      tag_356\n      jumpi\n      pop\n        /* \"contracts/CooperProxy.sol\":1384:1395  data.length */\n      dup1\n      mload\n        /* \"contracts/CooperProxy.sol\":1384:1400  data.length == 0 */\n      iszero\n      dup1\n        /* \"contracts/CooperProxy.sol\":1384:1428  data.length == 0 || abi.decode(data, (bool)) */\n      tag_356\n      jumpi\n      pop\n        /* \"contracts/CooperProxy.sol\":1415:1419  data */\n      dup1\n        /* \"contracts/CooperProxy.sol\":1404:1428  abi.decode(data, (bool)) */\n      dup1\n      0x20\n      add\n      swap1\n      mload\n      dup2\n      add\n      swap1\n      tag_356\n      swap2\n      swap1\n      tag_340\n      jump\t// in\n    tag_356:\n        /* \"contracts/CooperProxy.sol\":1350:1506  require(\r... */\n      tag_357\n      jumpi\n      mload(0x40)\n      shl(0xe5, 0x461bcd)\n      dup2\n      mstore\n        /* \"#utility.yul\":18738:18740   */\n      0x20\n        /* \"contracts/CooperProxy.sol\":1350:1506  require(\r... */\n      0x04\n      dup3\n      add\n        /* \"#utility.yul\":18720:18741   */\n      mstore\n        /* \"#utility.yul\":18777:18779   */\n      0x31\n        /* \"#utility.yul\":18757:18775   */\n      0x24\n      dup3\n      add\n        /* \"#utility.yul\":18750:18780   */\n      mstore\n        /* \"#utility.yul\":18816:18850   */\n      0x5472616e7366657248656c7065723a3a7472616e7366657246726f6d3a207472\n        /* \"#utility.yul\":18796:18814   */\n      0x44\n      dup3\n      add\n        /* \"#utility.yul\":18789:18851   */\n      mstore\n      shl(0x7a, 0x185b9cd9995c919c9bdb4819985a5b1959)\n        /* \"#utility.yul\":18867:18885   */\n      0x64\n      dup3\n      add\n        /* \"#utility.yul\":18860:18907   */\n      mstore\n        /* \"#utility.yul\":18924:18943   */\n      0x84\n      add\n        /* \"contracts/CooperProxy.sol\":1350:1506  require(\r... */\n      tag_99\n        /* \"#utility.yul\":18536:18949   */\n      jump\n        /* \"contracts/CooperProxy.sol\":1350:1506  require(\r... */\n    tag_357:\n        /* \"contracts/CooperProxy.sol\":1150:1514  {\r... */\n      pop\n      pop\n        /* \"contracts/CooperProxy.sol\":1016:1514  function safeTransferFrom(\r... */\n      pop\n      pop\n      pop\n      pop\n      jump\t// out\n        /* \"contracts/CooperProxy.sol\":106:551  function safeApprove(\r... */\n    tag_223:\n        /* \"contracts/CooperProxy.sol\":336:381  abi.encodeWithSelector(0x095ea7b3, to, value) */\n      0x40\n      dup1\n      mload\n      sub(shl(0xa0, 0x01), 0x01)\n        /* \"#utility.yul\":12199:12231   */\n      dup5\n      dup2\n      and\n        /* \"contracts/CooperProxy.sol\":336:381  abi.encodeWithSelector(0x095ea7b3, to, value) */\n      0x24\n      dup4\n      add\n        /* \"#utility.yul\":12181:12232   */\n      mstore\n        /* \"#utility.yul\":12248:12266   */\n      0x44\n      dup1\n      dup4\n      add\n        /* \"#utility.yul\":12241:12275   */\n      dup6\n      swap1\n      mstore\n        /* \"contracts/CooperProxy.sol\":336:381  abi.encodeWithSelector(0x095ea7b3, to, value) */\n      dup4\n      mload\n      dup1\n      dup5\n      sub\n      swap1\n      swap2\n      add\n      dup2\n      mstore\n        /* \"#utility.yul\":12154:12172   */\n      0x64\n      swap1\n      swap3\n      add\n        /* \"contracts/CooperProxy.sol\":336:381  abi.encodeWithSelector(0x095ea7b3, to, value) */\n      dup4\n      mstore\n      0x20\n      dup3\n      add\n      dup1\n      mload\n      sub(shl(0xe0, 0x01), 0x01)\n      and\n      shl(0xe0, 0x095ea7b3)\n      or\n      swap1\n      mstore\n        /* \"contracts/CooperProxy.sol\":325:382  token.call(abi.encodeWithSelector(0x095ea7b3, to, value)) */\n      swap2\n      mload\n      0x00\n      swap3\n      dup4\n      swap3\n        /* \"contracts/CooperProxy.sol\":325:335  token.call */\n      swap1\n      dup8\n      and\n      swap2\n        /* \"contracts/CooperProxy.sol\":325:382  token.call(abi.encodeWithSelector(0x095ea7b3, to, value)) */\n      tag_362\n      swap2\n        /* \"contracts/CooperProxy.sol\":336:381  abi.encodeWithSelector(0x095ea7b3, to, value) */\n      swap1\n        /* \"contracts/CooperProxy.sol\":325:382  token.call(abi.encodeWithSelector(0x095ea7b3, to, value)) */\n      tag_333\n      jump\t// in\n    tag_362:\n      0x00\n      mload(0x40)\n      dup1\n      dup4\n      sub\n      dup2\n      0x00\n      dup7\n      gas\n      call\n      swap2\n      pop\n      pop\n      returndatasize\n      dup1\n      0x00\n      dup2\n      eq\n      tag_365\n      jumpi\n      mload(0x40)\n      swap2\n      pop\n      and(add(returndatasize, 0x3f), not(0x1f))\n      dup3\n      add\n      0x40\n      mstore\n      returndatasize\n      dup3\n      mstore\n      returndatasize\n      0x00\n      0x20\n      dup5\n      add\n      returndatacopy\n      jump(tag_364)\n    tag_365:\n      0x60\n      swap2\n      pop\n    tag_364:\n      pop\n        /* \"contracts/CooperProxy.sol\":289:382  (bool success, bytes memory data) = token.call(abi.encodeWithSelector(0x095ea7b3, to, value)) */\n      swap2\n      pop\n      swap2\n      pop\n        /* \"contracts/CooperProxy.sol\":415:422  success */\n      dup2\n        /* \"contracts/CooperProxy.sol\":415:472  success && (data.length == 0 || abi.decode(data, (bool))) */\n      dup1\n      iszero\n      tag_368\n      jumpi\n      pop\n        /* \"contracts/CooperProxy.sol\":427:438  data.length */\n      dup1\n      mload\n        /* \"contracts/CooperProxy.sol\":427:443  data.length == 0 */\n      iszero\n      dup1\n        /* \"contracts/CooperProxy.sol\":427:471  data.length == 0 || abi.decode(data, (bool)) */\n      tag_368\n      jumpi\n      pop\n        /* \"contracts/CooperProxy.sol\":458:462  data */\n      dup1\n        /* \"contracts/CooperProxy.sol\":447:471  abi.decode(data, (bool)) */\n      dup1\n      0x20\n      add\n      swap1\n      mload\n      dup2\n      add\n      swap1\n      tag_368\n      swap2\n      swap1\n      tag_340\n      jump\t// in\n    tag_368:\n        /* \"contracts/CooperProxy.sol\":393:543  require(\r... */\n      tag_341\n      jumpi\n      mload(0x40)\n      shl(0xe5, 0x461bcd)\n      dup2\n      mstore\n        /* \"#utility.yul\":20553:20555   */\n      0x20\n        /* \"contracts/CooperProxy.sol\":393:543  require(\r... */\n      0x04\n      dup3\n      add\n        /* \"#utility.yul\":20535:20556   */\n      mstore\n        /* \"#utility.yul\":20592:20594   */\n      0x2b\n        /* \"#utility.yul\":20572:20590   */\n      0x24\n      dup3\n      add\n        /* \"#utility.yul\":20565:20595   */\n      mstore\n        /* \"#utility.yul\":20631:20665   */\n      0x5472616e7366657248656c7065723a3a73616665417070726f76653a20617070\n        /* \"#utility.yul\":20611:20629   */\n      0x44\n      dup3\n      add\n        /* \"#utility.yul\":20604:20666   */\n      mstore\n      shl(0xaa, 0x1c9bdd994819985a5b1959)\n        /* \"#utility.yul\":20682:20700   */\n      0x64\n      dup3\n      add\n        /* \"#utility.yul\":20675:20716   */\n      mstore\n        /* \"#utility.yul\":20733:20752   */\n      0x84\n      add\n        /* \"contracts/CooperProxy.sol\":393:543  require(\r... */\n      tag_99\n        /* \"#utility.yul\":20351:20758   */\n      jump\n        /* \"contracts/CooperProxy.sol\":12252:12404  function add(AddressSet storage set, address value) internal returns (bool) {\r... */\n    tag_247:\n        /* \"contracts/CooperProxy.sol\":12322:12326  bool */\n      0x00\n        /* \"contracts/CooperProxy.sol\":12346:12396  _add(set._inner, bytes32(uint256(uint160(value)))) */\n      tag_345\n        /* \"contracts/CooperProxy.sol\":12351:12354  set */\n      dup4\n      sub(shl(0xa0, 0x01), 0x01)\n        /* \"contracts/CooperProxy.sol\":12371:12394  uint256(uint160(value)) */\n      dup5\n      and\n        /* \"contracts/CooperProxy.sol\":12346:12350  _add */\n      tag_374\n        /* \"contracts/CooperProxy.sol\":12346:12396  _add(set._inner, bytes32(uint256(uint160(value)))) */\n      jump\t// in\n        /* \"contracts/CooperProxy.sol\":12824:12991  function contains(AddressSet storage set, address value) internal view returns (bool) {\r... */\n    tag_275:\n      sub(shl(0xa0, 0x01), 0x01)\n        /* \"contracts/CooperProxy.sol\":12958:12981  uint256(uint160(value)) */\n      dup2\n      and\n        /* \"contracts/CooperProxy.sol\":12904:12908  bool */\n      0x00\n        /* \"contracts/CooperProxy.sol\":8360:8379  set._indexes[value] */\n      swap1\n      dup2\n      mstore\n        /* \"contracts/CooperProxy.sol\":8360:8372  set._indexes */\n      0x01\n      dup4\n      add\n        /* \"contracts/CooperProxy.sol\":8360:8379  set._indexes[value] */\n      0x20\n      mstore\n      0x40\n      dup2\n      keccak256\n      sload\n        /* \"contracts/CooperProxy.sol\":8360:8384  set._indexes[value] != 0 */\n      iszero\n      iszero\n        /* \"contracts/CooperProxy.sol\":12928:12983  _contains(set._inner, bytes32(uint256(uint160(value)))) */\n      tag_345\n        /* \"contracts/CooperProxy.sol\":8263:8392  function _contains(Set storage set, bytes32 value) private view returns (bool) {\r... */\n      jump\n        /* \"contracts/CooperProxy.sol\":14256:14522  function values(AddressSet storage set) internal view returns (address[] memory) {\r... */\n    tag_278:\n        /* \"contracts/CooperProxy.sol\":14319:14335  address[] memory */\n      0x60\n        /* \"contracts/CooperProxy.sol\":14348:14370  bytes32[] memory store */\n      0x00\n        /* \"contracts/CooperProxy.sol\":14373:14392  _values(set._inner) */\n      tag_345\n        /* \"contracts/CooperProxy.sol\":14381:14384  set */\n      dup4\n        /* \"contracts/CooperProxy.sol\":14373:14380  _values */\n      tag_380\n        /* \"contracts/CooperProxy.sol\":14373:14392  _values(set._inner) */\n      jump\t// in\n        /* \"contracts/CooperProxy.sol\":19777:19950  function _setOwner(address newOwner) private {\r... */\n    tag_303:\n        /* \"contracts/CooperProxy.sol\":19833:19849  address oldOwner */\n      0x00\n        /* \"contracts/CooperProxy.sol\":19852:19858  _owner */\n      dup1\n      sload\n      sub(shl(0xa0, 0x01), 0x01)\n        /* \"contracts/CooperProxy.sol\":19869:19886  _owner = newOwner */\n      dup4\n      dup2\n      and\n      not(sub(shl(0xa0, 0x01), 0x01))\n      dup4\n      and\n      dup2\n      or\n      dup5\n      sstore\n        /* \"contracts/CooperProxy.sol\":19902:19942  OwnershipTransferred(oldOwner, newOwner) */\n      mload(0x40)\n        /* \"contracts/CooperProxy.sol\":19852:19858  _owner */\n      swap2\n      swap1\n      swap3\n      and\n      swap3\n      dup4\n      swap2\n        /* \"contracts/CooperProxy.sol\":19902:19942  OwnershipTransferred(oldOwner, newOwner) */\n      0x8be0079c531659141344cd1fd0a4f28419497f9722a3daafe3b4186f6b6457e0\n      swap2\n        /* \"contracts/CooperProxy.sol\":19833:19849  address oldOwner */\n      swap1\n        /* \"contracts/CooperProxy.sol\":19902:19942  OwnershipTransferred(oldOwner, newOwner) */\n      log3\n        /* \"contracts/CooperProxy.sol\":19822:19950  {\r... */\n      pop\n        /* \"contracts/CooperProxy.sol\":19777:19950  function _setOwner(address newOwner) private {\r... */\n      pop\n      jump\t// out\n        /* \"contracts/CooperProxy.sol\":13077:13194  function length(AddressSet storage set) internal view returns (uint256) {\r... */\n    tag_328:\n        /* \"contracts/CooperProxy.sol\":13140:13147  uint256 */\n      0x00\n        /* \"contracts/CooperProxy.sol\":13167:13186  _length(set._inner) */\n      tag_188\n        /* \"contracts/CooperProxy.sol\":13175:13178  set */\n      dup3\n        /* \"contracts/CooperProxy.sol\":8561:8579  set._values.length */\n      sload\n      swap1\n        /* \"contracts/CooperProxy.sol\":8478:8587  function _length(Set storage set) private view returns (uint256) {\r... */\n      jump\n        /* \"contracts/CooperProxy.sol\":8941:9061  function _at(Set storage set, uint256 index) private view returns (bytes32) {\r... */\n    tag_346:\n        /* \"contracts/CooperProxy.sol\":9008:9015  bytes32 */\n      0x00\n        /* \"contracts/CooperProxy.sol\":9035:9038  set */\n      dup3\n        /* \"contracts/CooperProxy.sol\":9035:9046  set._values */\n      0x00\n      add\n        /* \"contracts/CooperProxy.sol\":9047:9052  index */\n      dup3\n        /* \"contracts/CooperProxy.sol\":9035:9053  set._values[index] */\n      dup2\n      sload\n      dup2\n      lt\n      tag_387\n      jumpi\n      tag_387\n      tag_144\n      jump\t// in\n    tag_387:\n      swap1\n      0x00\n      mstore\n      keccak256(0x00, 0x20)\n      add\n      sload\n        /* \"contracts/CooperProxy.sol\":9028:9053  return set._values[index] */\n      swap1\n      pop\n        /* \"contracts/CooperProxy.sol\":8941:9061  function _at(Set storage set, uint256 index) private view returns (bytes32) {\r... */\n      swap3\n      swap2\n      pop\n      pop\n      jump\t// out\n        /* \"contracts/CooperProxy.sol\":6167:6581  function _add(Set storage set, bytes32 value) private returns (bool) {\r... */\n    tag_374:\n        /* \"contracts/CooperProxy.sol\":6230:6234  bool */\n      0x00\n        /* \"contracts/CooperProxy.sol\":8360:8379  set._indexes[value] */\n      dup2\n      dup2\n      mstore\n        /* \"contracts/CooperProxy.sol\":8360:8372  set._indexes */\n      0x01\n      dup4\n      add\n        /* \"contracts/CooperProxy.sol\":8360:8379  set._indexes[value] */\n      0x20\n      mstore\n      0x40\n      dup2\n      keccak256\n      sload\n        /* \"contracts/CooperProxy.sol\":6247:6574  if (!_contains(set, value)) {\r... */\n      tag_391\n      jumpi\n      pop\n        /* \"contracts/CooperProxy.sol\":6290:6313  set._values.push(value) */\n      dup2\n      sload\n      0x01\n      dup2\n      dup2\n      add\n      dup5\n      sstore\n        /* \"contracts/CooperProxy.sol\":6290:6301  set._values */\n      0x00\n        /* \"contracts/CooperProxy.sol\":6290:6313  set._values.push(value) */\n      dup5\n      dup2\n      mstore\n      0x20\n      dup1\n      dup3\n      keccak256\n      swap1\n      swap4\n      add\n      dup5\n      swap1\n      sstore\n        /* \"contracts/CooperProxy.sol\":6473:6491  set._values.length */\n      dup5\n      sload\n        /* \"contracts/CooperProxy.sol\":6451:6470  set._indexes[value] */\n      dup5\n      dup3\n      mstore\n        /* \"contracts/CooperProxy.sol\":6451:6463  set._indexes */\n      dup3\n      dup7\n      add\n        /* \"contracts/CooperProxy.sol\":6451:6470  set._indexes[value] */\n      swap1\n      swap4\n      mstore\n      0x40\n      swap1\n      keccak256\n        /* \"contracts/CooperProxy.sol\":6451:6491  set._indexes[value] = set._values.length */\n      swap2\n      swap1\n      swap2\n      sstore\n        /* \"contracts/CooperProxy.sol\":6506:6517  return true */\n      jump(tag_188)\n        /* \"contracts/CooperProxy.sol\":6247:6574  if (!_contains(set, value)) {\r... */\n    tag_391:\n      pop\n        /* \"contracts/CooperProxy.sol\":6557:6562  false */\n      0x00\n        /* \"contracts/CooperProxy.sol\":6550:6562  return false */\n      jump(tag_188)\n        /* \"contracts/CooperProxy.sol\":9611:9722  function _values(Set storage set) private view returns (bytes32[] memory) {\r... */\n    tag_380:\n        /* \"contracts/CooperProxy.sol\":9667:9683  bytes32[] memory */\n      0x60\n        /* \"contracts/CooperProxy.sol\":9703:9706  set */\n      dup2\n        /* \"contracts/CooperProxy.sol\":9703:9714  set._values */\n      0x00\n      add\n        /* \"contracts/CooperProxy.sol\":9696:9714  return set._values */\n      dup1\n      sload\n      dup1\n      0x20\n      mul\n      0x20\n      add\n      mload(0x40)\n      swap1\n      dup2\n      add\n      0x40\n      mstore\n      dup1\n      swap3\n      swap2\n      swap1\n      dup2\n      dup2\n      mstore\n      0x20\n      add\n      dup3\n      dup1\n      sload\n      dup1\n      iszero\n      tag_396\n      jumpi\n      0x20\n      mul\n      dup3\n      add\n      swap2\n      swap1\n      0x00\n      mstore\n      keccak256(0x00, 0x20)\n      swap1\n    tag_397:\n      dup2\n      sload\n      dup2\n      mstore\n      0x20\n      add\n      swap1\n      0x01\n      add\n      swap1\n      dup1\n      dup4\n      gt\n      tag_397\n      jumpi\n    tag_396:\n      pop\n      pop\n      pop\n      pop\n      pop\n      swap1\n      pop\n        /* \"contracts/CooperProxy.sol\":9611:9722  function _values(Set storage set) private view returns (bytes32[] memory) {\r... */\n      swap2\n      swap1\n      pop\n      jump\t// out\n        /* \"#utility.yul\":14:762   */\n    tag_400:\n        /* \"#utility.yul\":68:73   */\n      0x00\n        /* \"#utility.yul\":121:124   */\n      dup3\n        /* \"#utility.yul\":114:118   */\n      0x1f\n        /* \"#utility.yul\":106:112   */\n      dup4\n        /* \"#utility.yul\":102:119   */\n      add\n        /* \"#utility.yul\":98:125   */\n      slt\n        /* \"#utility.yul\":88:143   */\n      tag_402\n      jumpi\n        /* \"#utility.yul\":139:140   */\n      0x00\n        /* \"#utility.yul\":136:137   */\n      dup1\n        /* \"#utility.yul\":129:141   */\n      revert\n        /* \"#utility.yul\":88:143   */\n    tag_402:\n        /* \"#utility.yul\":175:181   */\n      dup2\n        /* \"#utility.yul\":162:182   */\n      calldataload\n        /* \"#utility.yul\":201:205   */\n      0x20\n        /* \"#utility.yul\":225:285   */\n      tag_403\n        /* \"#utility.yul\":241:284   */\n      tag_404\n        /* \"#utility.yul\":281:283   */\n      dup4\n        /* \"#utility.yul\":241:284   */\n      tag_405\n      jump\t// in\n    tag_404:\n        /* \"#utility.yul\":225:285   */\n      tag_406\n      jump\t// in\n    tag_403:\n        /* \"#utility.yul\":307:310   */\n      dup1\n        /* \"#utility.yul\":331:333   */\n      dup4\n        /* \"#utility.yul\":326:329   */\n      dup3\n        /* \"#utility.yul\":319:334   */\n      mstore\n        /* \"#utility.yul\":359:361   */\n      dup3\n        /* \"#utility.yul\":354:357   */\n      dup3\n        /* \"#utility.yul\":350:362   */\n      add\n        /* \"#utility.yul\":343:362   */\n      swap2\n      pop\n        /* \"#utility.yul\":394:396   */\n      dup3\n        /* \"#utility.yul\":386:392   */\n      dup7\n        /* \"#utility.yul\":382:397   */\n      add\n        /* \"#utility.yul\":446:449   */\n      dup8\n        /* \"#utility.yul\":441:443   */\n      dup5\n        /* \"#utility.yul\":435:437   */\n      dup7\n        /* \"#utility.yul\":432:433   */\n      0x05\n        /* \"#utility.yul\":428:438   */\n      shl\n        /* \"#utility.yul\":420:426   */\n      dup10\n        /* \"#utility.yul\":416:439   */\n      add\n        /* \"#utility.yul\":412:444   */\n      add\n        /* \"#utility.yul\":409:450   */\n      gt\n        /* \"#utility.yul\":406:467   */\n      iszero\n      tag_407\n      jumpi\n        /* \"#utility.yul\":463:464   */\n      0x00\n        /* \"#utility.yul\":460:461   */\n      dup1\n        /* \"#utility.yul\":453:465   */\n      revert\n        /* \"#utility.yul\":406:467   */\n    tag_407:\n        /* \"#utility.yul\":485:486   */\n      0x00\n        /* \"#utility.yul\":495:733   */\n    tag_408:\n        /* \"#utility.yul\":509:511   */\n      dup6\n        /* \"#utility.yul\":506:507   */\n      dup2\n        /* \"#utility.yul\":503:512   */\n      lt\n        /* \"#utility.yul\":495:733   */\n      iszero\n      tag_410\n      jumpi\n        /* \"#utility.yul\":580:583   */\n      dup2\n        /* \"#utility.yul\":567:584   */\n      calldataload\n        /* \"#utility.yul\":597:628   */\n      tag_411\n        /* \"#utility.yul\":622:627   */\n      dup2\n        /* \"#utility.yul\":597:628   */\n      tag_412\n      jump\t// in\n    tag_411:\n        /* \"#utility.yul\":641:659   */\n      dup5\n      mstore\n        /* \"#utility.yul\":679:691   */\n      swap3\n      dup5\n      add\n      swap3\n        /* \"#utility.yul\":711:723   */\n      swap1\n      dup5\n      add\n      swap1\n        /* \"#utility.yul\":527:528   */\n      0x01\n        /* \"#utility.yul\":520:529   */\n      add\n        /* \"#utility.yul\":495:733   */\n      jump(tag_408)\n    tag_410:\n      pop\n        /* \"#utility.yul\":751:756   */\n      swap1\n      swap8\n        /* \"#utility.yul\":14:762   */\n      swap7\n      pop\n      pop\n      pop\n      pop\n      pop\n      pop\n      pop\n      jump\t// out\n        /* \"#utility.yul\":767:1440   */\n    tag_413:\n        /* \"#utility.yul\":821:826   */\n      0x00\n        /* \"#utility.yul\":874:877   */\n      dup3\n        /* \"#utility.yul\":867:871   */\n      0x1f\n        /* \"#utility.yul\":859:865   */\n      dup4\n        /* \"#utility.yul\":855:872   */\n      add\n        /* \"#utility.yul\":851:878   */\n      slt\n        /* \"#utility.yul\":841:896   */\n      tag_415\n      jumpi\n        /* \"#utility.yul\":892:893   */\n      0x00\n        /* \"#utility.yul\":889:890   */\n      dup1\n        /* \"#utility.yul\":882:894   */\n      revert\n        /* \"#utility.yul\":841:896   */\n    tag_415:\n        /* \"#utility.yul\":928:934   */\n      dup2\n        /* \"#utility.yul\":915:935   */\n      calldataload\n        /* \"#utility.yul\":954:958   */\n      0x20\n        /* \"#utility.yul\":978:1038   */\n      tag_416\n        /* \"#utility.yul\":994:1037   */\n      tag_404\n        /* \"#utility.yul\":1034:1036   */\n      dup4\n        /* \"#utility.yul\":994:1037   */\n      tag_405\n      jump\t// in\n        /* \"#utility.yul\":978:1038   */\n    tag_416:\n        /* \"#utility.yul\":1060:1063   */\n      dup1\n        /* \"#utility.yul\":1084:1086   */\n      dup4\n        /* \"#utility.yul\":1079:1082   */\n      dup3\n        /* \"#utility.yul\":1072:1087   */\n      mstore\n        /* \"#utility.yul\":1112:1114   */\n      dup3\n        /* \"#utility.yul\":1107:1110   */\n      dup3\n        /* \"#utility.yul\":1103:1115   */\n      add\n        /* \"#utility.yul\":1096:1115   */\n      swap2\n      pop\n        /* \"#utility.yul\":1147:1149   */\n      dup3\n        /* \"#utility.yul\":1139:1145   */\n      dup7\n        /* \"#utility.yul\":1135:1150   */\n      add\n        /* \"#utility.yul\":1199:1202   */\n      dup8\n        /* \"#utility.yul\":1194:1196   */\n      dup5\n        /* \"#utility.yul\":1188:1190   */\n      dup7\n        /* \"#utility.yul\":1185:1186   */\n      0x05\n        /* \"#utility.yul\":1181:1191   */\n      shl\n        /* \"#utility.yul\":1173:1179   */\n      dup10\n        /* \"#utility.yul\":1169:1192   */\n      add\n        /* \"#utility.yul\":1165:1197   */\n      add\n        /* \"#utility.yul\":1162:1203   */\n      gt\n        /* \"#utility.yul\":1159:1220   */\n      iszero\n      tag_418\n      jumpi\n        /* \"#utility.yul\":1216:1217   */\n      0x00\n        /* \"#utility.yul\":1213:1214   */\n      dup1\n        /* \"#utility.yul\":1206:1218   */\n      revert\n        /* \"#utility.yul\":1159:1220   */\n    tag_418:\n        /* \"#utility.yul\":1238:1239   */\n      0x00\n        /* \"#utility.yul\":1248:1411   */\n    tag_419:\n        /* \"#utility.yul\":1262:1264   */\n      dup6\n        /* \"#utility.yul\":1259:1260   */\n      dup2\n        /* \"#utility.yul\":1256:1265   */\n      lt\n        /* \"#utility.yul\":1248:1411   */\n      iszero\n      tag_410\n      jumpi\n        /* \"#utility.yul\":1319:1336   */\n      dup2\n      calldataload\n        /* \"#utility.yul\":1307:1337   */\n      dup5\n      mstore\n        /* \"#utility.yul\":1357:1369   */\n      swap3\n      dup5\n      add\n      swap3\n        /* \"#utility.yul\":1389:1401   */\n      swap1\n      dup5\n      add\n      swap1\n        /* \"#utility.yul\":1280:1281   */\n      0x01\n        /* \"#utility.yul\":1273:1282   */\n      add\n        /* \"#utility.yul\":1248:1411   */\n      jump(tag_419)\n        /* \"#utility.yul\":1445:2115   */\n    tag_422:\n        /* \"#utility.yul\":1510:1515   */\n      0x00\n        /* \"#utility.yul\":1563:1566   */\n      dup3\n        /* \"#utility.yul\":1556:1560   */\n      0x1f\n        /* \"#utility.yul\":1548:1554   */\n      dup4\n        /* \"#utility.yul\":1544:1561   */\n      add\n        /* \"#utility.yul\":1540:1567   */\n      slt\n        /* \"#utility.yul\":1530:1585   */\n      tag_424\n      jumpi\n        /* \"#utility.yul\":1581:1582   */\n      0x00\n        /* \"#utility.yul\":1578:1579   */\n      dup1\n        /* \"#utility.yul\":1571:1583   */\n      revert\n        /* \"#utility.yul\":1530:1585   */\n    tag_424:\n        /* \"#utility.yul\":1610:1616   */\n      dup2\n        /* \"#utility.yul\":1604:1617   */\n      mload\n        /* \"#utility.yul\":1636:1640   */\n      0x20\n        /* \"#utility.yul\":1660:1720   */\n      tag_425\n        /* \"#utility.yul\":1676:1719   */\n      tag_404\n        /* \"#utility.yul\":1716:1718   */\n      dup4\n        /* \"#utility.yul\":1676:1719   */\n      tag_405\n      jump\t// in\n        /* \"#utility.yul\":1660:1720   */\n    tag_425:\n        /* \"#utility.yul\":1742:1745   */\n      dup1\n        /* \"#utility.yul\":1766:1768   */\n      dup4\n        /* \"#utility.yul\":1761:1764   */\n      dup3\n        /* \"#utility.yul\":1754:1769   */\n      mstore\n        /* \"#utility.yul\":1794:1796   */\n      dup3\n        /* \"#utility.yul\":1789:1792   */\n      dup3\n        /* \"#utility.yul\":1785:1797   */\n      add\n        /* \"#utility.yul\":1778:1797   */\n      swap2\n      pop\n        /* \"#utility.yul\":1829:1831   */\n      dup3\n        /* \"#utility.yul\":1821:1827   */\n      dup7\n        /* \"#utility.yul\":1817:1832   */\n      add\n        /* \"#utility.yul\":1881:1884   */\n      dup8\n        /* \"#utility.yul\":1876:1878   */\n      dup5\n        /* \"#utility.yul\":1870:1872   */\n      dup7\n        /* \"#utility.yul\":1867:1868   */\n      0x05\n        /* \"#utility.yul\":1863:1873   */\n      shl\n        /* \"#utility.yul\":1855:1861   */\n      dup10\n        /* \"#utility.yul\":1851:1874   */\n      add\n        /* \"#utility.yul\":1847:1879   */\n      add\n        /* \"#utility.yul\":1844:1885   */\n      gt\n        /* \"#utility.yul\":1841:1902   */\n      iszero\n      tag_427\n      jumpi\n        /* \"#utility.yul\":1898:1899   */\n      0x00\n        /* \"#utility.yul\":1895:1896   */\n      dup1\n        /* \"#utility.yul\":1888:1900   */\n      revert\n        /* \"#utility.yul\":1841:1902   */\n    tag_427:\n        /* \"#utility.yul\":1920:1921   */\n      0x00\n        /* \"#utility.yul\":1930:2086   */\n    tag_428:\n        /* \"#utility.yul\":1944:1946   */\n      dup6\n        /* \"#utility.yul\":1941:1942   */\n      dup2\n        /* \"#utility.yul\":1938:1947   */\n      lt\n        /* \"#utility.yul\":1930:2086   */\n      iszero\n      tag_410\n      jumpi\n        /* \"#utility.yul\":2001:2011   */\n      dup2\n      mload\n        /* \"#utility.yul\":1989:2012   */\n      dup5\n      mstore\n        /* \"#utility.yul\":2032:2044   */\n      swap3\n      dup5\n      add\n      swap3\n        /* \"#utility.yul\":2064:2076   */\n      swap1\n      dup5\n      add\n      swap1\n        /* \"#utility.yul\":1962:1963   */\n      0x01\n        /* \"#utility.yul\":1955:1964   */\n      add\n        /* \"#utility.yul\":1930:2086   */\n      jump(tag_428)\n        /* \"#utility.yul\":2120:2248   */\n    tag_431:\n        /* \"#utility.yul\":2185:2205   */\n      dup1\n      calldataload\n        /* \"#utility.yul\":2214:2242   */\n      tag_433\n        /* \"#utility.yul\":2185:2205   */\n      dup2\n        /* \"#utility.yul\":2214:2242   */\n      tag_434\n      jump\t// in\n    tag_433:\n        /* \"#utility.yul\":2120:2248   */\n      swap2\n      swap1\n      pop\n      jump\t// out\n        /* \"#utility.yul\":2253:2783   */\n    tag_435:\n        /* \"#utility.yul\":2295:2300   */\n      0x00\n        /* \"#utility.yul\":2348:2351   */\n      dup3\n        /* \"#utility.yul\":2341:2345   */\n      0x1f\n        /* \"#utility.yul\":2333:2339   */\n      dup4\n        /* \"#utility.yul\":2329:2346   */\n      add\n        /* \"#utility.yul\":2325:2352   */\n      slt\n        /* \"#utility.yul\":2315:2370   */\n      tag_437\n      jumpi\n        /* \"#utility.yul\":2366:2367   */\n      0x00\n        /* \"#utility.yul\":2363:2364   */\n      dup1\n        /* \"#utility.yul\":2356:2368   */\n      revert\n        /* \"#utility.yul\":2315:2370   */\n    tag_437:\n        /* \"#utility.yul\":2402:2408   */\n      dup2\n        /* \"#utility.yul\":2389:2409   */\n      calldataload\n        /* \"#utility.yul\":2428:2446   */\n      0xffffffffffffffff\n        /* \"#utility.yul\":2424:2426   */\n      dup2\n        /* \"#utility.yul\":2421:2447   */\n      gt\n        /* \"#utility.yul\":2418:2470   */\n      iszero\n      tag_439\n      jumpi\n        /* \"#utility.yul\":2450:2468   */\n      tag_439\n      tag_440\n      jump\t// in\n    tag_439:\n        /* \"#utility.yul\":2494:2549   */\n      tag_441\n        /* \"#utility.yul\":2537:2539   */\n      0x1f\n        /* \"#utility.yul\":2518:2531   */\n      dup3\n      add\n      not(0x1f)\n        /* \"#utility.yul\":2514:2541   */\n      and\n        /* \"#utility.yul\":2543:2547   */\n      0x20\n        /* \"#utility.yul\":2510:2548   */\n      add\n        /* \"#utility.yul\":2494:2549   */\n      tag_406\n      jump\t// in\n    tag_441:\n        /* \"#utility.yul\":2574:2576   */\n      dup2\n        /* \"#utility.yul\":2565:2572   */\n      dup2\n        /* \"#utility.yul\":2558:2577   */\n      mstore\n        /* \"#utility.yul\":2620:2623   */\n      dup5\n        /* \"#utility.yul\":2613:2617   */\n      0x20\n        /* \"#utility.yul\":2608:2610   */\n      dup4\n        /* \"#utility.yul\":2600:2606   */\n      dup7\n        /* \"#utility.yul\":2596:2611   */\n      add\n        /* \"#utility.yul\":2592:2618   */\n      add\n        /* \"#utility.yul\":2589:2624   */\n      gt\n        /* \"#utility.yul\":2586:2641   */\n      iszero\n      tag_442\n      jumpi\n        /* \"#utility.yul\":2637:2638   */\n      0x00\n        /* \"#utility.yul\":2634:2635   */\n      dup1\n        /* \"#utility.yul\":2627:2639   */\n      revert\n        /* \"#utility.yul\":2586:2641   */\n    tag_442:\n        /* \"#utility.yul\":2702:2704   */\n      dup2\n        /* \"#utility.yul\":2695:2699   */\n      0x20\n        /* \"#utility.yul\":2687:2693   */\n      dup6\n        /* \"#utility.yul\":2683:2700   */\n      add\n        /* \"#utility.yul\":2676:2680   */\n      0x20\n        /* \"#utility.yul\":2667:2674   */\n      dup4\n        /* \"#utility.yul\":2663:2681   */\n      add\n        /* \"#utility.yul\":2650:2705   */\n      calldatacopy\n        /* \"#utility.yul\":2750:2751   */\n      0x00\n        /* \"#utility.yul\":2725:2741   */\n      swap2\n      dup2\n      add\n        /* \"#utility.yul\":2743:2747   */\n      0x20\n        /* \"#utility.yul\":2721:2748   */\n      add\n        /* \"#utility.yul\":2714:2752   */\n      swap2\n      swap1\n      swap2\n      mstore\n        /* \"#utility.yul\":2729:2736   */\n      swap4\n        /* \"#utility.yul\":2253:2783   */\n      swap3\n      pop\n      pop\n      pop\n      jump\t// out\n        /* \"#utility.yul\":2788:3035   */\n    tag_40:\n        /* \"#utility.yul\":2847:2853   */\n      0x00\n        /* \"#utility.yul\":2900:2902   */\n      0x20\n        /* \"#utility.yul\":2888:2897   */\n      dup3\n        /* \"#utility.yul\":2879:2886   */\n      dup5\n        /* \"#utility.yul\":2875:2898   */\n      sub\n        /* \"#utility.yul\":2871:2903   */\n      slt\n        /* \"#utility.yul\":2868:2920   */\n      iszero\n      tag_444\n      jumpi\n        /* \"#utility.yul\":2916:2917   */\n      0x00\n        /* \"#utility.yul\":2913:2914   */\n      dup1\n        /* \"#utility.yul\":2906:2918   */\n      revert\n        /* \"#utility.yul\":2868:2920   */\n    tag_444:\n        /* \"#utility.yul\":2955:2964   */\n      dup2\n        /* \"#utility.yul\":2942:2965   */\n      calldataload\n        /* \"#utility.yul\":2974:3005   */\n      tag_345\n        /* \"#utility.yul\":2999:3004   */\n      dup2\n        /* \"#utility.yul\":2974:3005   */\n      tag_412\n      jump\t// in\n        /* \"#utility.yul\":3040:3291   */\n    tag_235:\n        /* \"#utility.yul\":3110:3116   */\n      0x00\n        /* \"#utility.yul\":3163:3165   */\n      0x20\n        /* \"#utility.yul\":3151:3160   */\n      dup3\n        /* \"#utility.yul\":3142:3149   */\n      dup5\n        /* \"#utility.yul\":3138:3161   */\n      sub\n        /* \"#utility.yul\":3134:3166   */\n      slt\n        /* \"#utility.yul\":3131:3183   */\n      iszero\n      tag_447\n      jumpi\n        /* \"#utility.yul\":3179:3180   */\n      0x00\n        /* \"#utility.yul\":3176:3177   */\n      dup1\n        /* \"#utility.yul\":3169:3181   */\n      revert\n        /* \"#utility.yul\":3131:3183   */\n    tag_447:\n        /* \"#utility.yul\":3211:3220   */\n      dup2\n        /* \"#utility.yul\":3205:3221   */\n      mload\n        /* \"#utility.yul\":3230:3261   */\n      tag_345\n        /* \"#utility.yul\":3255:3260   */\n      dup2\n        /* \"#utility.yul\":3230:3261   */\n      tag_412\n      jump\t// in\n        /* \"#utility.yul\":3296:3684   */\n    tag_70:\n        /* \"#utility.yul\":3364:3370   */\n      0x00\n        /* \"#utility.yul\":3372:3378   */\n      dup1\n        /* \"#utility.yul\":3425:3427   */\n      0x40\n        /* \"#utility.yul\":3413:3422   */\n      dup4\n        /* \"#utility.yul\":3404:3411   */\n      dup6\n        /* \"#utility.yul\":3400:3423   */\n      sub\n        /* \"#utility.yul\":3396:3428   */\n      slt\n        /* \"#utility.yul\":3393:3445   */\n      iszero\n      tag_450\n      jumpi\n        /* \"#utility.yul\":3441:3442   */\n      0x00\n        /* \"#utility.yul\":3438:3439   */\n      dup1\n        /* \"#utility.yul\":3431:3443   */\n      revert\n        /* \"#utility.yul\":3393:3445   */\n    tag_450:\n        /* \"#utility.yul\":3480:3489   */\n      dup3\n        /* \"#utility.yul\":3467:3490   */\n      calldataload\n        /* \"#utility.yul\":3499:3530   */\n      tag_451\n        /* \"#utility.yul\":3524:3529   */\n      dup2\n        /* \"#utility.yul\":3499:3530   */\n      tag_412\n      jump\t// in\n    tag_451:\n        /* \"#utility.yul\":3549:3554   */\n      swap2\n      pop\n        /* \"#utility.yul\":3606:3608   */\n      0x20\n        /* \"#utility.yul\":3591:3609   */\n      dup4\n      add\n        /* \"#utility.yul\":3578:3610   */\n      calldataload\n        /* \"#utility.yul\":3619:3652   */\n      tag_452\n        /* \"#utility.yul\":3578:3610   */\n      dup2\n        /* \"#utility.yul\":3619:3652   */\n      tag_412\n      jump\t// in\n    tag_452:\n        /* \"#utility.yul\":3671:3678   */\n      dup1\n        /* \"#utility.yul\":3661:3678   */\n      swap2\n      pop\n      pop\n        /* \"#utility.yul\":3296:3684   */\n      swap3\n      pop\n      swap3\n      swap1\n      pop\n      jump\t// out\n        /* \"#utility.yul\":3689:4507   */\n    tag_31:\n        /* \"#utility.yul\":3793:3799   */\n      0x00\n        /* \"#utility.yul\":3801:3807   */\n      dup1\n        /* \"#utility.yul\":3809:3815   */\n      0x00\n        /* \"#utility.yul\":3817:3823   */\n      dup1\n        /* \"#utility.yul\":3870:3872   */\n      0x60\n        /* \"#utility.yul\":3858:3867   */\n      dup6\n        /* \"#utility.yul\":3849:3856   */\n      dup8\n        /* \"#utility.yul\":3845:3868   */\n      sub\n        /* \"#utility.yul\":3841:3873   */\n      slt\n        /* \"#utility.yul\":3838:3890   */\n      iszero\n      tag_454\n      jumpi\n        /* \"#utility.yul\":3886:3887   */\n      0x00\n        /* \"#utility.yul\":3883:3884   */\n      dup1\n        /* \"#utility.yul\":3876:3888   */\n      revert\n        /* \"#utility.yul\":3838:3890   */\n    tag_454:\n        /* \"#utility.yul\":3925:3934   */\n      dup5\n        /* \"#utility.yul\":3912:3935   */\n      calldataload\n        /* \"#utility.yul\":3944:3975   */\n      tag_455\n        /* \"#utility.yul\":3969:3974   */\n      dup2\n        /* \"#utility.yul\":3944:3975   */\n      tag_412\n      jump\t// in\n    tag_455:\n        /* \"#utility.yul\":3994:3999   */\n      swap4\n      pop\n        /* \"#utility.yul\":4050:4052   */\n      0x20\n        /* \"#utility.yul\":4035:4053   */\n      dup6\n      add\n        /* \"#utility.yul\":4022:4054   */\n      calldataload\n        /* \"#utility.yul\":4073:4091   */\n      0xffffffffffffffff\n        /* \"#utility.yul\":4103:4117   */\n      dup1\n      dup3\n      gt\n        /* \"#utility.yul\":4100:4134   */\n      iszero\n      tag_456\n      jumpi\n        /* \"#utility.yul\":4130:4131   */\n      0x00\n        /* \"#utility.yul\":4127:4128   */\n      dup1\n        /* \"#utility.yul\":4120:4132   */\n      revert\n        /* \"#utility.yul\":4100:4134   */\n    tag_456:\n        /* \"#utility.yul\":4168:4174   */\n      dup2\n        /* \"#utility.yul\":4157:4166   */\n      dup8\n        /* \"#utility.yul\":4153:4175   */\n      add\n        /* \"#utility.yul\":4143:4175   */\n      swap2\n      pop\n        /* \"#utility.yul\":4213:4220   */\n      dup8\n        /* \"#utility.yul\":4206:4210   */\n      0x1f\n        /* \"#utility.yul\":4202:4204   */\n      dup4\n        /* \"#utility.yul\":4198:4211   */\n      add\n        /* \"#utility.yul\":4194:4221   */\n      slt\n        /* \"#utility.yul\":4184:4239   */\n      tag_457\n      jumpi\n        /* \"#utility.yul\":4235:4236   */\n      0x00\n        /* \"#utility.yul\":4232:4233   */\n      dup1\n        /* \"#utility.yul\":4225:4237   */\n      revert\n        /* \"#utility.yul\":4184:4239   */\n    tag_457:\n        /* \"#utility.yul\":4275:4277   */\n      dup2\n        /* \"#utility.yul\":4262:4278   */\n      calldataload\n        /* \"#utility.yul\":4301:4303   */\n      dup2\n        /* \"#utility.yul\":4293:4299   */\n      dup2\n        /* \"#utility.yul\":4290:4304   */\n      gt\n        /* \"#utility.yul\":4287:4321   */\n      iszero\n      tag_458\n      jumpi\n        /* \"#utility.yul\":4317:4318   */\n      0x00\n        /* \"#utility.yul\":4314:4315   */\n      dup1\n        /* \"#utility.yul\":4307:4319   */\n      revert\n        /* \"#utility.yul\":4287:4321   */\n    tag_458:\n        /* \"#utility.yul\":4370:4377   */\n      dup9\n        /* \"#utility.yul\":4365:4367   */\n      0x20\n        /* \"#utility.yul\":4355:4361   */\n      dup3\n        /* \"#utility.yul\":4352:4353   */\n      0x05\n        /* \"#utility.yul\":4348:4362   */\n      shl\n        /* \"#utility.yul\":4344:4346   */\n      dup6\n        /* \"#utility.yul\":4340:4363   */\n      add\n        /* \"#utility.yul\":4336:4368   */\n      add\n        /* \"#utility.yul\":4333:4378   */\n      gt\n        /* \"#utility.yul\":4330:4395   */\n      iszero\n      tag_459\n      jumpi\n        /* \"#utility.yul\":4391:4392   */\n      0x00\n        /* \"#utility.yul\":4388:4389   */\n      dup1\n        /* \"#utility.yul\":4381:4393   */\n      revert\n        /* \"#utility.yul\":4330:4395   */\n    tag_459:\n        /* \"#utility.yul\":3689:4507   */\n      swap6\n      swap9\n        /* \"#utility.yul\":4422:4424   */\n      0x20\n        /* \"#utility.yul\":4414:4425   */\n      swap3\n      swap1\n      swap3\n      add\n      swap8\n      pop\n        /* \"#utility.yul\":4444:4450   */\n      swap5\n      swap6\n        /* \"#utility.yul\":4497:4499   */\n      0x40\n        /* \"#utility.yul\":4482:4500   */\n      add\n        /* \"#utility.yul\":4469:4501   */\n      calldataload\n      swap5\n      pop\n        /* \"#utility.yul\":3689:4507   */\n      swap3\n      pop\n      pop\n      pop\n      jump\t// out\n        /* \"#utility.yul\":4512:4894   */\n    tag_57:\n        /* \"#utility.yul\":4577:4583   */\n      0x00\n        /* \"#utility.yul\":4585:4591   */\n      dup1\n        /* \"#utility.yul\":4638:4640   */\n      0x40\n        /* \"#utility.yul\":4626:4635   */\n      dup4\n        /* \"#utility.yul\":4617:4624   */\n      dup6\n        /* \"#utility.yul\":4613:4636   */\n      sub\n        /* \"#utility.yul\":4609:4641   */\n      slt\n        /* \"#utility.yul\":4606:4658   */\n      iszero\n      tag_461\n      jumpi\n        /* \"#utility.yul\":4654:4655   */\n      0x00\n        /* \"#utility.yul\":4651:4652   */\n      dup1\n        /* \"#utility.yul\":4644:4656   */\n      revert\n        /* \"#utility.yul\":4606:4658   */\n    tag_461:\n        /* \"#utility.yul\":4693:4702   */\n      dup3\n        /* \"#utility.yul\":4680:4703   */\n      calldataload\n        /* \"#utility.yul\":4712:4743   */\n      tag_462\n        /* \"#utility.yul\":4737:4742   */\n      dup2\n        /* \"#utility.yul\":4712:4743   */\n      tag_412\n      jump\t// in\n    tag_462:\n        /* \"#utility.yul\":4762:4767   */\n      swap2\n      pop\n        /* \"#utility.yul\":4819:4821   */\n      0x20\n        /* \"#utility.yul\":4804:4822   */\n      dup4\n      add\n        /* \"#utility.yul\":4791:4823   */\n      calldataload\n        /* \"#utility.yul\":4832:4862   */\n      tag_452\n        /* \"#utility.yul\":4791:4823   */\n      dup2\n        /* \"#utility.yul\":4832:4862   */\n      tag_434\n      jump\t// in\n        /* \"#utility.yul\":4899:6180   */\n    tag_113:\n        /* \"#utility.yul\":5037:5043   */\n      0x00\n        /* \"#utility.yul\":5045:5051   */\n      dup1\n        /* \"#utility.yul\":5053:5059   */\n      0x00\n        /* \"#utility.yul\":5106:5108   */\n      0x60\n        /* \"#utility.yul\":5094:5103   */\n      dup5\n        /* \"#utility.yul\":5085:5092   */\n      dup7\n        /* \"#utility.yul\":5081:5104   */\n      sub\n        /* \"#utility.yul\":5077:5109   */\n      slt\n        /* \"#utility.yul\":5074:5126   */\n      iszero\n      tag_465\n      jumpi\n        /* \"#utility.yul\":5122:5123   */\n      0x00\n        /* \"#utility.yul\":5119:5120   */\n      dup1\n        /* \"#utility.yul\":5112:5124   */\n      revert\n        /* \"#utility.yul\":5074:5126   */\n    tag_465:\n        /* \"#utility.yul\":5155:5164   */\n      dup4\n        /* \"#utility.yul\":5149:5165   */\n      mload\n        /* \"#utility.yul\":5184:5202   */\n      0xffffffffffffffff\n        /* \"#utility.yul\":5225:5227   */\n      dup1\n        /* \"#utility.yul\":5217:5223   */\n      dup3\n        /* \"#utility.yul\":5214:5228   */\n      gt\n        /* \"#utility.yul\":5211:5245   */\n      iszero\n      tag_466\n      jumpi\n        /* \"#utility.yul\":5241:5242   */\n      0x00\n        /* \"#utility.yul\":5238:5239   */\n      dup1\n        /* \"#utility.yul\":5231:5243   */\n      revert\n        /* \"#utility.yul\":5211:5245   */\n    tag_466:\n        /* \"#utility.yul\":5279:5285   */\n      dup2\n        /* \"#utility.yul\":5268:5277   */\n      dup7\n        /* \"#utility.yul\":5264:5286   */\n      add\n        /* \"#utility.yul\":5254:5286   */\n      swap2\n      pop\n        /* \"#utility.yul\":5324:5331   */\n      dup7\n        /* \"#utility.yul\":5317:5321   */\n      0x1f\n        /* \"#utility.yul\":5313:5315   */\n      dup4\n        /* \"#utility.yul\":5309:5322   */\n      add\n        /* \"#utility.yul\":5305:5332   */\n      slt\n        /* \"#utility.yul\":5295:5350   */\n      tag_467\n      jumpi\n        /* \"#utility.yul\":5346:5347   */\n      0x00\n        /* \"#utility.yul\":5343:5344   */\n      dup1\n        /* \"#utility.yul\":5336:5348   */\n      revert\n        /* \"#utility.yul\":5295:5350   */\n    tag_467:\n        /* \"#utility.yul\":5375:5377   */\n      dup2\n        /* \"#utility.yul\":5369:5378   */\n      mload\n        /* \"#utility.yul\":5397:5401   */\n      0x20\n        /* \"#utility.yul\":5421:5481   */\n      tag_468\n        /* \"#utility.yul\":5437:5480   */\n      tag_404\n        /* \"#utility.yul\":5477:5479   */\n      dup4\n        /* \"#utility.yul\":5437:5480   */\n      tag_405\n      jump\t// in\n        /* \"#utility.yul\":5421:5481   */\n    tag_468:\n        /* \"#utility.yul\":5503:5506   */\n      dup1\n        /* \"#utility.yul\":5527:5529   */\n      dup4\n        /* \"#utility.yul\":5522:5525   */\n      dup3\n        /* \"#utility.yul\":5515:5530   */\n      mstore\n        /* \"#utility.yul\":5555:5557   */\n      dup3\n        /* \"#utility.yul\":5550:5553   */\n      dup3\n        /* \"#utility.yul\":5546:5558   */\n      add\n        /* \"#utility.yul\":5539:5558   */\n      swap2\n      pop\n        /* \"#utility.yul\":5586:5588   */\n      dup3\n        /* \"#utility.yul\":5582:5584   */\n      dup7\n        /* \"#utility.yul\":5578:5589   */\n      add\n        /* \"#utility.yul\":5634:5641   */\n      dup12\n        /* \"#utility.yul\":5629:5631   */\n      dup5\n        /* \"#utility.yul\":5623:5625   */\n      dup7\n        /* \"#utility.yul\":5620:5621   */\n      0x05\n        /* \"#utility.yul\":5616:5626   */\n      shl\n        /* \"#utility.yul\":5612:5614   */\n      dup10\n        /* \"#utility.yul\":5608:5627   */\n      add\n        /* \"#utility.yul\":5604:5632   */\n      add\n        /* \"#utility.yul\":5601:5642   */\n      gt\n        /* \"#utility.yul\":5598:5659   */\n      iszero\n      tag_470\n      jumpi\n        /* \"#utility.yul\":5655:5656   */\n      0x00\n        /* \"#utility.yul\":5652:5653   */\n      dup1\n        /* \"#utility.yul\":5645:5657   */\n      revert\n        /* \"#utility.yul\":5598:5659   */\n    tag_470:\n        /* \"#utility.yul\":5677:5678   */\n      0x00\n        /* \"#utility.yul\":5668:5678   */\n      swap7\n      pop\n        /* \"#utility.yul\":5687:5918   */\n    tag_471:\n        /* \"#utility.yul\":5701:5703   */\n      dup5\n        /* \"#utility.yul\":5698:5699   */\n      dup8\n        /* \"#utility.yul\":5695:5704   */\n      lt\n        /* \"#utility.yul\":5687:5918   */\n      iszero\n      tag_473\n      jumpi\n        /* \"#utility.yul\":5765:5768   */\n      dup1\n        /* \"#utility.yul\":5759:5769   */\n      mload\n        /* \"#utility.yul\":5782:5813   */\n      tag_474\n        /* \"#utility.yul\":5807:5812   */\n      dup2\n        /* \"#utility.yul\":5782:5813   */\n      tag_412\n      jump\t// in\n    tag_474:\n        /* \"#utility.yul\":5826:5844   */\n      dup4\n      mstore\n        /* \"#utility.yul\":5719:5720   */\n      0x01\n        /* \"#utility.yul\":5712:5721   */\n      swap7\n      swap1\n      swap7\n      add\n      swap6\n        /* \"#utility.yul\":5864:5876   */\n      swap2\n      dup4\n      add\n      swap2\n        /* \"#utility.yul\":5896:5908   */\n      dup4\n      add\n        /* \"#utility.yul\":5687:5918   */\n      jump(tag_471)\n    tag_473:\n      pop\n        /* \"#utility.yul\":5973:5991   */\n      swap2\n      dup10\n      add\n        /* \"#utility.yul\":5967:5992   */\n      mload\n        /* \"#utility.yul\":5937:5942   */\n      swap2\n      swap8\n      pop\n        /* \"#utility.yul\":5967:5992   */\n      swap1\n      swap4\n      pop\n      pop\n      pop\n        /* \"#utility.yul\":6004:6020   */\n      dup1\n      dup3\n      gt\n        /* \"#utility.yul\":6001:6037   */\n      iszero\n      tag_475\n      jumpi\n        /* \"#utility.yul\":6033:6034   */\n      0x00\n        /* \"#utility.yul\":6030:6031   */\n      dup1\n        /* \"#utility.yul\":6023:6035   */\n      revert\n        /* \"#utility.yul\":6001:6037   */\n    tag_475:\n      pop\n        /* \"#utility.yul\":6056:6130   */\n      tag_476\n        /* \"#utility.yul\":6122:6129   */\n      dup7\n        /* \"#utility.yul\":6111:6119   */\n      dup3\n        /* \"#utility.yul\":6100:6109   */\n      dup8\n        /* \"#utility.yul\":6096:6120   */\n      add\n        /* \"#utility.yul\":6056:6130   */\n      tag_422\n      jump\t// in\n    tag_476:\n        /* \"#utility.yul\":6046:6130   */\n      swap3\n      pop\n      pop\n        /* \"#utility.yul\":6170:6172   */\n      0x40\n        /* \"#utility.yul\":6159:6168   */\n      dup5\n        /* \"#utility.yul\":6155:6173   */\n      add\n        /* \"#utility.yul\":6149:6174   */\n      mload\n        /* \"#utility.yul\":6139:6174   */\n      swap1\n      pop\n        /* \"#utility.yul\":4899:6180   */\n      swap3\n      pop\n      swap3\n      pop\n      swap3\n      jump\t// out\n        /* \"#utility.yul\":6185:6430   */\n    tag_340:\n        /* \"#utility.yul\":6252:6258   */\n      0x00\n        /* \"#utility.yul\":6305:6307   */\n      0x20\n        /* \"#utility.yul\":6293:6302   */\n      dup3\n        /* \"#utility.yul\":6284:6291   */\n      dup5\n        /* \"#utility.yul\":6280:6303   */\n      sub\n        /* \"#utility.yul\":6276:6308   */\n      slt\n        /* \"#utility.yul\":6273:6325   */\n      iszero\n      tag_478\n      jumpi\n        /* \"#utility.yul\":6321:6322   */\n      0x00\n        /* \"#utility.yul\":6318:6319   */\n      dup1\n        /* \"#utility.yul\":6311:6323   */\n      revert\n        /* \"#utility.yul\":6273:6325   */\n    tag_478:\n        /* \"#utility.yul\":6353:6362   */\n      dup2\n        /* \"#utility.yul\":6347:6363   */\n      mload\n        /* \"#utility.yul\":6372:6400   */\n      tag_345\n        /* \"#utility.yul\":6394:6399   */\n      dup2\n        /* \"#utility.yul\":6372:6400   */\n      tag_434\n      jump\t// in\n        /* \"#utility.yul\":6435:6619   */\n    tag_106:\n        /* \"#utility.yul\":6505:6511   */\n      0x00\n        /* \"#utility.yul\":6558:6560   */\n      0x20\n        /* \"#utility.yul\":6546:6555   */\n      dup3\n        /* \"#utility.yul\":6537:6544   */\n      dup5\n        /* \"#utility.yul\":6533:6556   */\n      sub\n        /* \"#utility.yul\":6529:6561   */\n      slt\n        /* \"#utility.yul\":6526:6578   */\n      iszero\n      tag_481\n      jumpi\n        /* \"#utility.yul\":6574:6575   */\n      0x00\n        /* \"#utility.yul\":6571:6572   */\n      dup1\n        /* \"#utility.yul\":6564:6576   */\n      revert\n        /* \"#utility.yul\":6526:6578   */\n    tag_481:\n      pop\n        /* \"#utility.yul\":6597:6613   */\n      mload\n      swap2\n        /* \"#utility.yul\":6435:6619   */\n      swap1\n      pop\n      jump\t// out\n        /* \"#utility.yul\":6624:8626   */\n    tag_52:\n        /* \"#utility.yul\":6711:6717   */\n      0x00\n        /* \"#utility.yul\":6764:6766   */\n      0x20\n        /* \"#utility.yul\":6752:6761   */\n      dup3\n        /* \"#utility.yul\":6743:6750   */\n      dup5\n        /* \"#utility.yul\":6739:6762   */\n      sub\n        /* \"#utility.yul\":6735:6767   */\n      slt\n        /* \"#utility.yul\":6732:6784   */\n      iszero\n      tag_483\n      jumpi\n        /* \"#utility.yul\":6780:6781   */\n      0x00\n        /* \"#utility.yul\":6777:6778   */\n      dup1\n        /* \"#utility.yul\":6770:6782   */\n      revert\n        /* \"#utility.yul\":6732:6784   */\n    tag_483:\n        /* \"#utility.yul\":6820:6829   */\n      dup2\n        /* \"#utility.yul\":6807:6830   */\n      calldataload\n        /* \"#utility.yul\":6849:6867   */\n      0xffffffffffffffff\n        /* \"#utility.yul\":6890:6892   */\n      dup1\n        /* \"#utility.yul\":6882:6888   */\n      dup3\n        /* \"#utility.yul\":6879:6893   */\n      gt\n        /* \"#utility.yul\":6876:6910   */\n      iszero\n      tag_484\n      jumpi\n        /* \"#utility.yul\":6906:6907   */\n      0x00\n        /* \"#utility.yul\":6903:6904   */\n      dup1\n        /* \"#utility.yul\":6896:6908   */\n      revert\n        /* \"#utility.yul\":6876:6910   */\n    tag_484:\n        /* \"#utility.yul\":6929:6951   */\n      swap1\n      dup4\n      add\n      swap1\n        /* \"#utility.yul\":6985:6991   */\n      0x0160\n        /* \"#utility.yul\":6967:6983   */\n      dup3\n      dup7\n      sub\n        /* \"#utility.yul\":6963:6992   */\n      slt\n        /* \"#utility.yul\":6960:7009   */\n      iszero\n      tag_485\n      jumpi\n        /* \"#utility.yul\":7005:7006   */\n      0x00\n        /* \"#utility.yul\":7002:7003   */\n      dup1\n        /* \"#utility.yul\":6995:7007   */\n      revert\n        /* \"#utility.yul\":6960:7009   */\n    tag_485:\n        /* \"#utility.yul\":7031:7053   */\n      tag_486\n      tag_487\n      jump\t// in\n    tag_486:\n        /* \"#utility.yul\":7091:7093   */\n      dup3\n        /* \"#utility.yul\":7078:7094   */\n      calldataload\n        /* \"#utility.yul\":7119:7121   */\n      dup3\n        /* \"#utility.yul\":7109:7117   */\n      dup2\n        /* \"#utility.yul\":7106:7122   */\n      gt\n        /* \"#utility.yul\":7103:7139   */\n      iszero\n      tag_488\n      jumpi\n        /* \"#utility.yul\":7135:7136   */\n      0x00\n        /* \"#utility.yul\":7132:7133   */\n      dup1\n        /* \"#utility.yul\":7125:7137   */\n      revert\n        /* \"#utility.yul\":7103:7139   */\n    tag_488:\n        /* \"#utility.yul\":7162:7206   */\n      tag_489\n        /* \"#utility.yul\":7198:7205   */\n      dup8\n        /* \"#utility.yul\":7187:7195   */\n      dup3\n        /* \"#utility.yul\":7183:7185   */\n      dup7\n        /* \"#utility.yul\":7179:7196   */\n      add\n        /* \"#utility.yul\":7162:7206   */\n      tag_435\n      jump\t// in\n    tag_489:\n        /* \"#utility.yul\":7155:7160   */\n      dup3\n        /* \"#utility.yul\":7148:7207   */\n      mstore\n      pop\n        /* \"#utility.yul\":7253:7255   */\n      0x20\n        /* \"#utility.yul\":7249:7251   */\n      dup4\n        /* \"#utility.yul\":7245:7256   */\n      add\n        /* \"#utility.yul\":7232:7257   */\n      calldataload\n        /* \"#utility.yul\":7282:7284   */\n      dup3\n        /* \"#utility.yul\":7272:7280   */\n      dup2\n        /* \"#utility.yul\":7269:7285   */\n      gt\n        /* \"#utility.yul\":7266:7302   */\n      iszero\n      tag_490\n      jumpi\n        /* \"#utility.yul\":7298:7299   */\n      0x00\n        /* \"#utility.yul\":7295:7296   */\n      dup1\n        /* \"#utility.yul\":7288:7300   */\n      revert\n        /* \"#utility.yul\":7266:7302   */\n    tag_490:\n        /* \"#utility.yul\":7334:7378   */\n      tag_491\n        /* \"#utility.yul\":7370:7377   */\n      dup8\n        /* \"#utility.yul\":7359:7367   */\n      dup3\n        /* \"#utility.yul\":7355:7357   */\n      dup7\n        /* \"#utility.yul\":7351:7368   */\n      add\n        /* \"#utility.yul\":7334:7378   */\n      tag_435\n      jump\t// in\n    tag_491:\n        /* \"#utility.yul\":7329:7331   */\n      0x20\n        /* \"#utility.yul\":7322:7327   */\n      dup4\n        /* \"#utility.yul\":7318:7332   */\n      add\n        /* \"#utility.yul\":7311:7379   */\n      mstore\n      pop\n        /* \"#utility.yul\":7425:7427   */\n      0x40\n        /* \"#utility.yul\":7421:7423   */\n      dup4\n        /* \"#utility.yul\":7417:7428   */\n      add\n        /* \"#utility.yul\":7404:7429   */\n      calldataload\n        /* \"#utility.yul\":7454:7456   */\n      dup3\n        /* \"#utility.yul\":7444:7452   */\n      dup2\n        /* \"#utility.yul\":7441:7457   */\n      gt\n        /* \"#utility.yul\":7438:7474   */\n      iszero\n      tag_492\n      jumpi\n        /* \"#utility.yul\":7470:7471   */\n      0x00\n        /* \"#utility.yul\":7467:7468   */\n      dup1\n        /* \"#utility.yul\":7460:7472   */\n      revert\n        /* \"#utility.yul\":7438:7474   */\n    tag_492:\n        /* \"#utility.yul\":7506:7562   */\n      tag_493\n        /* \"#utility.yul\":7554:7561   */\n      dup8\n        /* \"#utility.yul\":7543:7551   */\n      dup3\n        /* \"#utility.yul\":7539:7541   */\n      dup7\n        /* \"#utility.yul\":7535:7552   */\n      add\n        /* \"#utility.yul\":7506:7562   */\n      tag_400\n      jump\t// in\n    tag_493:\n        /* \"#utility.yul\":7501:7503   */\n      0x40\n        /* \"#utility.yul\":7494:7499   */\n      dup4\n        /* \"#utility.yul\":7490:7504   */\n      add\n        /* \"#utility.yul\":7483:7563   */\n      mstore\n      pop\n        /* \"#utility.yul\":7609:7611   */\n      0x60\n        /* \"#utility.yul\":7605:7607   */\n      dup4\n        /* \"#utility.yul\":7601:7612   */\n      add\n        /* \"#utility.yul\":7588:7613   */\n      calldataload\n        /* \"#utility.yul\":7638:7640   */\n      dup3\n        /* \"#utility.yul\":7628:7636   */\n      dup2\n        /* \"#utility.yul\":7625:7641   */\n      gt\n        /* \"#utility.yul\":7622:7658   */\n      iszero\n      tag_494\n      jumpi\n        /* \"#utility.yul\":7654:7655   */\n      0x00\n        /* \"#utility.yul\":7651:7652   */\n      dup1\n        /* \"#utility.yul\":7644:7656   */\n      revert\n        /* \"#utility.yul\":7622:7658   */\n    tag_494:\n        /* \"#utility.yul\":7690:7746   */\n      tag_495\n        /* \"#utility.yul\":7738:7745   */\n      dup8\n        /* \"#utility.yul\":7727:7735   */\n      dup3\n        /* \"#utility.yul\":7723:7725   */\n      dup7\n        /* \"#utility.yul\":7719:7736   */\n      add\n        /* \"#utility.yul\":7690:7746   */\n      tag_413\n      jump\t// in\n    tag_495:\n        /* \"#utility.yul\":7685:7687   */\n      0x60\n        /* \"#utility.yul\":7678:7683   */\n      dup4\n        /* \"#utility.yul\":7674:7688   */\n      add\n        /* \"#utility.yul\":7667:7747   */\n      mstore\n      pop\n        /* \"#utility.yul\":7793:7796   */\n      0x80\n        /* \"#utility.yul\":7789:7791   */\n      dup4\n        /* \"#utility.yul\":7785:7797   */\n      add\n        /* \"#utility.yul\":7772:7798   */\n      calldataload\n        /* \"#utility.yul\":7823:7825   */\n      dup3\n        /* \"#utility.yul\":7813:7821   */\n      dup2\n        /* \"#utility.yul\":7810:7826   */\n      gt\n        /* \"#utility.yul\":7807:7843   */\n      iszero\n      tag_496\n      jumpi\n        /* \"#utility.yul\":7839:7840   */\n      0x00\n        /* \"#utility.yul\":7836:7837   */\n      dup1\n        /* \"#utility.yul\":7829:7841   */\n      revert\n        /* \"#utility.yul\":7807:7843   */\n    tag_496:\n        /* \"#utility.yul\":7876:7932   */\n      tag_497\n        /* \"#utility.yul\":7924:7931   */\n      dup8\n        /* \"#utility.yul\":7913:7921   */\n      dup3\n        /* \"#utility.yul\":7909:7911   */\n      dup7\n        /* \"#utility.yul\":7905:7922   */\n      add\n        /* \"#utility.yul\":7876:7932   */\n      tag_413\n      jump\t// in\n    tag_497:\n        /* \"#utility.yul\":7870:7873   */\n      0x80\n        /* \"#utility.yul\":7863:7868   */\n      dup4\n        /* \"#utility.yul\":7859:7874   */\n      add\n        /* \"#utility.yul\":7852:7933   */\n      mstore\n      pop\n        /* \"#utility.yul\":7979:7982   */\n      0xa0\n        /* \"#utility.yul\":7975:7977   */\n      dup4\n        /* \"#utility.yul\":7971:7983   */\n      add\n        /* \"#utility.yul\":7958:7984   */\n      calldataload\n        /* \"#utility.yul\":8009:8011   */\n      dup3\n        /* \"#utility.yul\":7999:8007   */\n      dup2\n        /* \"#utility.yul\":7996:8012   */\n      gt\n        /* \"#utility.yul\":7993:8029   */\n      iszero\n      tag_498\n      jumpi\n        /* \"#utility.yul\":8025:8026   */\n      0x00\n        /* \"#utility.yul\":8022:8023   */\n      dup1\n        /* \"#utility.yul\":8015:8027   */\n      revert\n        /* \"#utility.yul\":7993:8029   */\n    tag_498:\n        /* \"#utility.yul\":8062:8118   */\n      tag_499\n        /* \"#utility.yul\":8110:8117   */\n      dup8\n        /* \"#utility.yul\":8099:8107   */\n      dup3\n        /* \"#utility.yul\":8095:8097   */\n      dup7\n        /* \"#utility.yul\":8091:8108   */\n      add\n        /* \"#utility.yul\":8062:8118   */\n      tag_413\n      jump\t// in\n    tag_499:\n        /* \"#utility.yul\":8056:8059   */\n      0xa0\n        /* \"#utility.yul\":8049:8054   */\n      dup4\n        /* \"#utility.yul\":8045:8060   */\n      add\n        /* \"#utility.yul\":8038:8119   */\n      mstore\n      pop\n        /* \"#utility.yul\":8152:8181   */\n      tag_500\n        /* \"#utility.yul\":8176:8179   */\n      0xc0\n        /* \"#utility.yul\":8172:8174   */\n      dup5\n        /* \"#utility.yul\":8168:8180   */\n      add\n        /* \"#utility.yul\":8152:8181   */\n      tag_431\n      jump\t// in\n    tag_500:\n        /* \"#utility.yul\":8146:8149   */\n      0xc0\n        /* \"#utility.yul\":8139:8144   */\n      dup3\n        /* \"#utility.yul\":8135:8150   */\n      add\n        /* \"#utility.yul\":8128:8182   */\n      mstore\n        /* \"#utility.yul\":8236:8239   */\n      0xe0\n        /* \"#utility.yul\":8232:8234   */\n      dup4\n        /* \"#utility.yul\":8228:8240   */\n      add\n        /* \"#utility.yul\":8215:8241   */\n      calldataload\n        /* \"#utility.yul\":8209:8212   */\n      0xe0\n        /* \"#utility.yul\":8202:8207   */\n      dup3\n        /* \"#utility.yul\":8198:8213   */\n      add\n        /* \"#utility.yul\":8191:8242   */\n      mstore\n        /* \"#utility.yul\":8261:8264   */\n      0x0100\n        /* \"#utility.yul\":8310:8312   */\n      dup1\n        /* \"#utility.yul\":8306:8308   */\n      dup5\n        /* \"#utility.yul\":8302:8313   */\n      add\n        /* \"#utility.yul\":8289:8314   */\n      calldataload\n        /* \"#utility.yul\":8339:8341   */\n      dup4\n        /* \"#utility.yul\":8329:8337   */\n      dup2\n        /* \"#utility.yul\":8326:8342   */\n      gt\n        /* \"#utility.yul\":8323:8359   */\n      iszero\n      tag_501\n      jumpi\n        /* \"#utility.yul\":8355:8356   */\n      0x00\n        /* \"#utility.yul\":8352:8353   */\n      dup1\n        /* \"#utility.yul\":8345:8357   */\n      revert\n        /* \"#utility.yul\":8323:8359   */\n    tag_501:\n        /* \"#utility.yul\":8391:8435   */\n      tag_502\n        /* \"#utility.yul\":8427:8434   */\n      dup9\n        /* \"#utility.yul\":8416:8424   */\n      dup3\n        /* \"#utility.yul\":8412:8414   */\n      dup8\n        /* \"#utility.yul\":8408:8425   */\n      add\n        /* \"#utility.yul\":8391:8435   */\n      tag_435\n      jump\t// in\n    tag_502:\n        /* \"#utility.yul\":8375:8389   */\n      swap2\n      dup4\n      add\n        /* \"#utility.yul\":8368:8436   */\n      swap2\n      swap1\n      swap2\n      mstore\n      pop\n        /* \"#utility.yul\":8455:8458   */\n      0x0120\n        /* \"#utility.yul\":8503:8514   */\n      dup4\n      dup2\n      add\n        /* \"#utility.yul\":8490:8515   */\n      calldataload\n        /* \"#utility.yul\":8474:8488   */\n      swap1\n      dup3\n      add\n        /* \"#utility.yul\":8467:8516   */\n      mstore\n        /* \"#utility.yul\":8535:8538   */\n      0x0140\n        /* \"#utility.yul\":8583:8594   */\n      swap3\n      dup4\n      add\n        /* \"#utility.yul\":8570:8595   */\n      calldataload\n        /* \"#utility.yul\":8554:8568   */\n      swap3\n      dup2\n      add\n        /* \"#utility.yul\":8547:8596   */\n      swap3\n      swap1\n      swap3\n      mstore\n      pop\n        /* \"#utility.yul\":8379:8384   */\n      swap4\n        /* \"#utility.yul\":6624:8626   */\n      swap3\n      pop\n      pop\n      pop\n      jump\t// out\n        /* \"#utility.yul\":8631:8811   */\n    tag_35:\n        /* \"#utility.yul\":8690:8696   */\n      0x00\n        /* \"#utility.yul\":8743:8745   */\n      0x20\n        /* \"#utility.yul\":8731:8740   */\n      dup3\n        /* \"#utility.yul\":8722:8729   */\n      dup5\n        /* \"#utility.yul\":8718:8741   */\n      sub\n        /* \"#utility.yul\":8714:8746   */\n      slt\n        /* \"#utility.yul\":8711:8763   */\n      iszero\n      tag_504\n      jumpi\n        /* \"#utility.yul\":8759:8760   */\n      0x00\n        /* \"#utility.yul\":8756:8757   */\n      dup1\n        /* \"#utility.yul\":8749:8761   */\n      revert\n        /* \"#utility.yul\":8711:8763   */\n    tag_504:\n      pop\n        /* \"#utility.yul\":8782:8805   */\n      calldataload\n      swap2\n        /* \"#utility.yul\":8631:8811   */\n      swap1\n      pop\n      jump\t// out\n        /* \"#utility.yul\":9005:9466   */\n    tag_507:\n        /* \"#utility.yul\":9058:9061   */\n      0x00\n        /* \"#utility.yul\":9096:9101   */\n      dup2\n        /* \"#utility.yul\":9090:9102   */\n      mload\n        /* \"#utility.yul\":9123:9129   */\n      dup1\n        /* \"#utility.yul\":9118:9121   */\n      dup5\n        /* \"#utility.yul\":9111:9130   */\n      mstore\n        /* \"#utility.yul\":9149:9153   */\n      0x20\n        /* \"#utility.yul\":9178:9180   */\n      dup1\n        /* \"#utility.yul\":9173:9176   */\n      dup6\n        /* \"#utility.yul\":9169:9181   */\n      add\n        /* \"#utility.yul\":9162:9181   */\n      swap5\n      pop\n        /* \"#utility.yul\":9215:9217   */\n      dup1\n        /* \"#utility.yul\":9208:9213   */\n      dup5\n        /* \"#utility.yul\":9204:9218   */\n      add\n        /* \"#utility.yul\":9236:9237   */\n      0x00\n        /* \"#utility.yul\":9246:9441   */\n    tag_509:\n        /* \"#utility.yul\":9260:9266   */\n      dup4\n        /* \"#utility.yul\":9257:9258   */\n      dup2\n        /* \"#utility.yul\":9254:9267   */\n      lt\n        /* \"#utility.yul\":9246:9441   */\n      iszero\n      tag_511\n      jumpi\n        /* \"#utility.yul\":9325:9338   */\n      dup2\n      mload\n      sub(shl(0xa0, 0x01), 0x01)\n        /* \"#utility.yul\":9321:9360   */\n      and\n        /* \"#utility.yul\":9309:9361   */\n      dup8\n      mstore\n        /* \"#utility.yul\":9381:9393   */\n      swap6\n      dup3\n      add\n      swap6\n        /* \"#utility.yul\":9416:9431   */\n      swap1\n      dup3\n      add\n      swap1\n        /* \"#utility.yul\":9357:9358   */\n      0x01\n        /* \"#utility.yul\":9275:9284   */\n      add\n        /* \"#utility.yul\":9246:9441   */\n      jump(tag_509)\n    tag_511:\n      pop\n        /* \"#utility.yul\":9457:9460   */\n      swap5\n      swap6\n        /* \"#utility.yul\":9005:9466   */\n      swap5\n      pop\n      pop\n      pop\n      pop\n      pop\n      jump\t// out\n        /* \"#utility.yul\":9471:9906   */\n    tag_512:\n        /* \"#utility.yul\":9524:9527   */\n      0x00\n        /* \"#utility.yul\":9562:9567   */\n      dup2\n        /* \"#utility.yul\":9556:9568   */\n      mload\n        /* \"#utility.yul\":9589:9595   */\n      dup1\n        /* \"#utility.yul\":9584:9587   */\n      dup5\n        /* \"#utility.yul\":9577:9596   */\n      mstore\n        /* \"#utility.yul\":9615:9619   */\n      0x20\n        /* \"#utility.yul\":9644:9646   */\n      dup1\n        /* \"#utility.yul\":9639:9642   */\n      dup6\n        /* \"#utility.yul\":9635:9647   */\n      add\n        /* \"#utility.yul\":9628:9647   */\n      swap5\n      pop\n        /* \"#utility.yul\":9681:9683   */\n      dup1\n        /* \"#utility.yul\":9674:9679   */\n      dup5\n        /* \"#utility.yul\":9670:9684   */\n      add\n        /* \"#utility.yul\":9702:9703   */\n      0x00\n        /* \"#utility.yul\":9712:9881   */\n    tag_514:\n        /* \"#utility.yul\":9726:9732   */\n      dup4\n        /* \"#utility.yul\":9723:9724   */\n      dup2\n        /* \"#utility.yul\":9720:9733   */\n      lt\n        /* \"#utility.yul\":9712:9881   */\n      iszero\n      tag_511\n      jumpi\n        /* \"#utility.yul\":9787:9800   */\n      dup2\n      mload\n        /* \"#utility.yul\":9775:9801   */\n      dup8\n      mstore\n        /* \"#utility.yul\":9821:9833   */\n      swap6\n      dup3\n      add\n      swap6\n        /* \"#utility.yul\":9856:9871   */\n      swap1\n      dup3\n      add\n      swap1\n        /* \"#utility.yul\":9748:9749   */\n      0x01\n        /* \"#utility.yul\":9741:9750   */\n      add\n        /* \"#utility.yul\":9712:9881   */\n      jump(tag_514)\n        /* \"#utility.yul\":9911:10168   */\n    tag_517:\n        /* \"#utility.yul\":9952:9955   */\n      0x00\n        /* \"#utility.yul\":9990:9995   */\n      dup2\n        /* \"#utility.yul\":9984:9996   */\n      mload\n        /* \"#utility.yul\":10017:10023   */\n      dup1\n        /* \"#utility.yul\":10012:10015   */\n      dup5\n        /* \"#utility.yul\":10005:10024   */\n      mstore\n        /* \"#utility.yul\":10033:10096   */\n      tag_519\n        /* \"#utility.yul\":10089:10095   */\n      dup2\n        /* \"#utility.yul\":10082:10086   */\n      0x20\n        /* \"#utility.yul\":10077:10080   */\n      dup7\n        /* \"#utility.yul\":10073:10087   */\n      add\n        /* \"#utility.yul\":10066:10070   */\n      0x20\n        /* \"#utility.yul\":10059:10064   */\n      dup7\n        /* \"#utility.yul\":10055:10071   */\n      add\n        /* \"#utility.yul\":10033:10096   */\n      tag_520\n      jump\t// in\n    tag_519:\n        /* \"#utility.yul\":10150:10152   */\n      0x1f\n        /* \"#utility.yul\":10129:10144   */\n      add\n      not(0x1f)\n        /* \"#utility.yul\":10125:10154   */\n      and\n        /* \"#utility.yul\":10116:10155   */\n      swap3\n      swap1\n      swap3\n      add\n        /* \"#utility.yul\":10157:10161   */\n      0x20\n        /* \"#utility.yul\":10112:10162   */\n      add\n      swap3\n        /* \"#utility.yul\":9911:10168   */\n      swap2\n      pop\n      pop\n      jump\t// out\n        /* \"#utility.yul\":10173:10826   */\n    tag_521:\n        /* \"#utility.yul\":10231:10234   */\n      0x00\n        /* \"#utility.yul\":10275:10280   */\n      dup2\n        /* \"#utility.yul\":10269:10281   */\n      mload\n        /* \"#utility.yul\":10302:10306   */\n      0x80\n        /* \"#utility.yul\":10297:10300   */\n      dup5\n        /* \"#utility.yul\":10290:10307   */\n      mstore\n        /* \"#utility.yul\":10328:10386   */\n      tag_523\n        /* \"#utility.yul\":10380:10384   */\n      0x80\n        /* \"#utility.yul\":10375:10378   */\n      dup6\n        /* \"#utility.yul\":10371:10385   */\n      add\n        /* \"#utility.yul\":10357:10369   */\n      dup3\n        /* \"#utility.yul\":10328:10386   */\n      tag_507\n      jump\t// in\n    tag_523:\n        /* \"#utility.yul\":10316:10386   */\n      swap1\n      pop\n        /* \"#utility.yul\":10434:10438   */\n      0x20\n        /* \"#utility.yul\":10427:10432   */\n      dup4\n        /* \"#utility.yul\":10423:10439   */\n      add\n        /* \"#utility.yul\":10417:10440   */\n      mload\n        /* \"#utility.yul\":10482:10485   */\n      dup5\n        /* \"#utility.yul\":10476:10480   */\n      dup3\n        /* \"#utility.yul\":10472:10486   */\n      sub\n        /* \"#utility.yul\":10465:10469   */\n      0x20\n        /* \"#utility.yul\":10460:10463   */\n      dup7\n        /* \"#utility.yul\":10456:10470   */\n      add\n        /* \"#utility.yul\":10449:10487   */\n      mstore\n        /* \"#utility.yul\":10510:10560   */\n      tag_524\n        /* \"#utility.yul\":10555:10559   */\n      dup3\n        /* \"#utility.yul\":10539:10553   */\n      dup3\n        /* \"#utility.yul\":10510:10560   */\n      tag_512\n      jump\t// in\n    tag_524:\n        /* \"#utility.yul\":10496:10560   */\n      swap2\n      pop\n      pop\n        /* \"#utility.yul\":10608:10612   */\n      0x40\n        /* \"#utility.yul\":10601:10606   */\n      dup4\n        /* \"#utility.yul\":10597:10613   */\n      add\n        /* \"#utility.yul\":10591:10614   */\n      mload\n        /* \"#utility.yul\":10658:10661   */\n      dup5\n        /* \"#utility.yul\":10650:10656   */\n      dup3\n        /* \"#utility.yul\":10646:10662   */\n      sub\n        /* \"#utility.yul\":10639:10643   */\n      0x40\n        /* \"#utility.yul\":10634:10637   */\n      dup7\n        /* \"#utility.yul\":10630:10644   */\n      add\n        /* \"#utility.yul\":10623:10663   */\n      mstore\n        /* \"#utility.yul\":10686:10726   */\n      tag_525\n        /* \"#utility.yul\":10719:10725   */\n      dup3\n        /* \"#utility.yul\":10703:10717   */\n      dup3\n        /* \"#utility.yul\":10686:10726   */\n      tag_517\n      jump\t// in\n    tag_525:\n        /* \"#utility.yul\":10672:10726   */\n      swap2\n      pop\n      pop\n        /* \"#utility.yul\":10789:10793   */\n      0x60\n        /* \"#utility.yul\":10782:10787   */\n      dup4\n        /* \"#utility.yul\":10778:10794   */\n      add\n        /* \"#utility.yul\":10772:10795   */\n      mload\n        /* \"#utility.yul\":10765:10796   */\n      iszero\n        /* \"#utility.yul\":10758:10797   */\n      iszero\n        /* \"#utility.yul\":10751:10755   */\n      0x60\n        /* \"#utility.yul\":10746:10749   */\n      dup6\n        /* \"#utility.yul\":10742:10756   */\n      add\n        /* \"#utility.yul\":10735:10798   */\n      mstore\n        /* \"#utility.yul\":10814:10820   */\n      dup1\n        /* \"#utility.yul\":10807:10820   */\n      swap2\n      pop\n      pop\n        /* \"#utility.yul\":10173:10826   */\n      swap3\n      swap2\n      pop\n      pop\n      jump\t// out\n        /* \"#utility.yul\":10831:11105   */\n    tag_333:\n        /* \"#utility.yul\":10960:10963   */\n      0x00\n        /* \"#utility.yul\":10998:11004   */\n      dup3\n        /* \"#utility.yul\":10992:11005   */\n      mload\n        /* \"#utility.yul\":11014:11067   */\n      tag_527\n        /* \"#utility.yul\":11060:11066   */\n      dup2\n        /* \"#utility.yul\":11055:11058   */\n      dup5\n        /* \"#utility.yul\":11048:11052   */\n      0x20\n        /* \"#utility.yul\":11040:11046   */\n      dup8\n        /* \"#utility.yul\":11036:11053   */\n      add\n        /* \"#utility.yul\":11014:11067   */\n      tag_520\n      jump\t// in\n    tag_527:\n        /* \"#utility.yul\":11083:11099   */\n      swap2\n      swap1\n      swap2\n      add\n      swap3\n        /* \"#utility.yul\":10831:11105   */\n      swap2\n      pop\n      pop\n      jump\t// out\n        /* \"#utility.yul\":11627:12002   */\n    tag_160:\n      sub(shl(0xa0, 0x01), 0x01)\n        /* \"#utility.yul\":11885:11900   */\n      swap4\n      dup5\n      and\n        /* \"#utility.yul\":11867:11901   */\n      dup2\n      mstore\n        /* \"#utility.yul\":11937:11952   */\n      swap2\n      swap1\n      swap3\n      and\n        /* \"#utility.yul\":11932:11934   */\n      0x20\n        /* \"#utility.yul\":11917:11935   */\n      dup3\n      add\n        /* \"#utility.yul\":11910:11953   */\n      mstore\n        /* \"#utility.yul\":11984:11986   */\n      0x40\n        /* \"#utility.yul\":11969:11987   */\n      dup2\n      add\n        /* \"#utility.yul\":11962:11996   */\n      swap2\n      swap1\n      swap2\n      mstore\n        /* \"#utility.yul\":11817:11819   */\n      0x60\n        /* \"#utility.yul\":11802:11820   */\n      add\n      swap1\n        /* \"#utility.yul\":11627:12002   */\n      jump\t// out\n        /* \"#utility.yul\":12286:12547   */\n    tag_67:\n        /* \"#utility.yul\":12465:12467   */\n      0x20\n        /* \"#utility.yul\":12454:12463   */\n      dup2\n        /* \"#utility.yul\":12447:12468   */\n      mstore\n        /* \"#utility.yul\":12428:12432   */\n      0x00\n        /* \"#utility.yul\":12485:12541   */\n      tag_345\n        /* \"#utility.yul\":12537:12539   */\n      0x20\n        /* \"#utility.yul\":12526:12535   */\n      dup4\n        /* \"#utility.yul\":12522:12540   */\n      add\n        /* \"#utility.yul\":12514:12520   */\n      dup5\n        /* \"#utility.yul\":12485:12541   */\n      tag_507\n      jump\t// in\n        /* \"#utility.yul\":12552:13393   */\n    tag_139:\n        /* \"#utility.yul\":12865:12867   */\n      0x60\n        /* \"#utility.yul\":12854:12863   */\n      dup2\n        /* \"#utility.yul\":12847:12868   */\n      mstore\n        /* \"#utility.yul\":12828:12832   */\n      0x00\n        /* \"#utility.yul\":12891:12947   */\n      tag_535\n        /* \"#utility.yul\":12943:12945   */\n      0x60\n        /* \"#utility.yul\":12932:12941   */\n      dup4\n        /* \"#utility.yul\":12928:12946   */\n      add\n        /* \"#utility.yul\":12920:12926   */\n      dup8\n        /* \"#utility.yul\":12891:12947   */\n      tag_507\n      jump\t// in\n    tag_535:\n        /* \"#utility.yul\":12983:13005   */\n      dup3\n      dup2\n      sub\n        /* \"#utility.yul\":12978:12980   */\n      0x20\n        /* \"#utility.yul\":12963:12981   */\n      dup5\n      add\n        /* \"#utility.yul\":12956:13006   */\n      mstore\n        /* \"#utility.yul\":13015:13037   */\n      dup5\n      dup2\n      mstore\n      sub(shl(0xfb, 0x01), 0x01)\n        /* \"#utility.yul\":13049:13080   */\n      dup6\n      gt\n        /* \"#utility.yul\":13046:13097   */\n      iszero\n      tag_536\n      jumpi\n        /* \"#utility.yul\":13093:13094   */\n      0x00\n        /* \"#utility.yul\":13090:13091   */\n      dup1\n        /* \"#utility.yul\":13083:13095   */\n      revert\n        /* \"#utility.yul\":13046:13097   */\n    tag_536:\n        /* \"#utility.yul\":13127:13133   */\n      dup5\n        /* \"#utility.yul\":13124:13125   */\n      0x05\n        /* \"#utility.yul\":13120:13134   */\n      shl\n        /* \"#utility.yul\":13181:13187   */\n      dup1\n        /* \"#utility.yul\":13173:13179   */\n      dup8\n        /* \"#utility.yul\":13168:13170   */\n      0x20\n        /* \"#utility.yul\":13160:13166   */\n      dup5\n        /* \"#utility.yul\":13156:13171   */\n      add\n        /* \"#utility.yul\":13143:13188   */\n      calldatacopy\n        /* \"#utility.yul\":13219:13225   */\n      dup1\n        /* \"#utility.yul\":13211:13217   */\n      dup3\n        /* \"#utility.yul\":13207:13226   */\n      add\n        /* \"#utility.yul\":13197:13226   */\n      swap2\n      pop\n      pop\n        /* \"#utility.yul\":13253:13255   */\n      0x20\n        /* \"#utility.yul\":13249:13251   */\n      dup2\n        /* \"#utility.yul\":13245:13256   */\n      add\n        /* \"#utility.yul\":13276:13277   */\n      0x00\n        /* \"#utility.yul\":13272:13274   */\n      dup2\n        /* \"#utility.yul\":13265:13278   */\n      mstore\n        /* \"#utility.yul\":13338:13340   */\n      0x20\n        /* \"#utility.yul\":13326:13335   */\n      dup5\n        /* \"#utility.yul\":13322:13324   */\n      dup4\n        /* \"#utility.yul\":13318:13336   */\n      sub\n        /* \"#utility.yul\":13314:13341   */\n      add\n        /* \"#utility.yul\":13309:13311   */\n      0x40\n        /* \"#utility.yul\":13298:13307   */\n      dup6\n        /* \"#utility.yul\":13294:13312   */\n      add\n        /* \"#utility.yul\":13287:13342   */\n      mstore\n        /* \"#utility.yul\":13359:13387   */\n      tag_537\n        /* \"#utility.yul\":13384:13386   */\n      dup2\n        /* \"#utility.yul\":13376:13382   */\n      dup7\n        /* \"#utility.yul\":13359:13387   */\n      tag_517\n      jump\t// in\n    tag_537:\n        /* \"#utility.yul\":13351:13387   */\n      swap9\n        /* \"#utility.yul\":12552:13393   */\n      swap8\n      pop\n      pop\n      pop\n      pop\n      pop\n      pop\n      pop\n      pop\n      jump\t// out\n        /* \"#utility.yul\":13398:14023   */\n    tag_257:\n        /* \"#utility.yul\":13701:13703   */\n      0x60\n        /* \"#utility.yul\":13690:13699   */\n      dup2\n        /* \"#utility.yul\":13683:13704   */\n      mstore\n        /* \"#utility.yul\":13664:13668   */\n      0x00\n        /* \"#utility.yul\":13727:13783   */\n      tag_539\n        /* \"#utility.yul\":13779:13781   */\n      0x60\n        /* \"#utility.yul\":13768:13777   */\n      dup4\n        /* \"#utility.yul\":13764:13782   */\n      add\n        /* \"#utility.yul\":13756:13762   */\n      dup7\n        /* \"#utility.yul\":13727:13783   */\n      tag_507\n      jump\t// in\n    tag_539:\n        /* \"#utility.yul\":13831:13840   */\n      dup3\n        /* \"#utility.yul\":13823:13829   */\n      dup2\n        /* \"#utility.yul\":13819:13841   */\n      sub\n        /* \"#utility.yul\":13814:13816   */\n      0x20\n        /* \"#utility.yul\":13803:13812   */\n      dup5\n        /* \"#utility.yul\":13799:13817   */\n      add\n        /* \"#utility.yul\":13792:13842   */\n      mstore\n        /* \"#utility.yul\":13865:13909   */\n      tag_540\n        /* \"#utility.yul\":13902:13908   */\n      dup2\n        /* \"#utility.yul\":13894:13900   */\n      dup7\n        /* \"#utility.yul\":13865:13909   */\n      tag_512\n      jump\t// in\n    tag_540:\n        /* \"#utility.yul\":13851:13909   */\n      swap1\n      pop\n        /* \"#utility.yul\":13957:13966   */\n      dup3\n        /* \"#utility.yul\":13949:13955   */\n      dup2\n        /* \"#utility.yul\":13945:13967   */\n      sub\n        /* \"#utility.yul\":13940:13942   */\n      0x40\n        /* \"#utility.yul\":13929:13938   */\n      dup5\n        /* \"#utility.yul\":13925:13943   */\n      add\n        /* \"#utility.yul\":13918:13968   */\n      mstore\n        /* \"#utility.yul\":13985:14017   */\n      tag_541\n        /* \"#utility.yul\":14010:14016   */\n      dup2\n        /* \"#utility.yul\":14002:14008   */\n      dup6\n        /* \"#utility.yul\":13985:14017   */\n      tag_517\n      jump\t// in\n    tag_541:\n        /* \"#utility.yul\":13977:14017   */\n      swap7\n        /* \"#utility.yul\":13398:14023   */\n      swap6\n      pop\n      pop\n      pop\n      pop\n      pop\n      pop\n      jump\t// out\n        /* \"#utility.yul\":14402:14963   */\n    tag_134:\n        /* \"#utility.yul\":14671:14696   */\n      dup5\n      dup2\n      mstore\n      sub(shl(0xa0, 0x01), 0x01)\n        /* \"#utility.yul\":14770:14785   */\n      dup5\n      dup2\n      and\n        /* \"#utility.yul\":14765:14767   */\n      0x20\n        /* \"#utility.yul\":14750:14768   */\n      dup4\n      add\n        /* \"#utility.yul\":14743:14786   */\n      mstore\n        /* \"#utility.yul\":14822:14837   */\n      dup4\n      and\n        /* \"#utility.yul\":14817:14819   */\n      0x40\n        /* \"#utility.yul\":14802:14820   */\n      dup3\n      add\n        /* \"#utility.yul\":14795:14838   */\n      mstore\n        /* \"#utility.yul\":14874:14877   */\n      0x80\n        /* \"#utility.yul\":14869:14871   */\n      0x60\n        /* \"#utility.yul\":14854:14872   */\n      dup3\n      add\n        /* \"#utility.yul\":14847:14878   */\n      dup2\n      swap1\n      mstore\n        /* \"#utility.yul\":14652:14656   */\n      0x00\n      swap1\n        /* \"#utility.yul\":14895:14957   */\n      tag_541\n      swap1\n        /* \"#utility.yul\":14937:14956   */\n      dup4\n      add\n        /* \"#utility.yul\":14929:14935   */\n      dup5\n        /* \"#utility.yul\":14895:14957   */\n      tag_521\n      jump\t// in\n        /* \"#utility.yul\":15524:16659   */\n    tag_241:\n        /* \"#utility.yul\":15946:15950   */\n      0x00\n        /* \"#utility.yul\":15975:15978   */\n      0x0100\n        /* \"#utility.yul\":16005:16011   */\n      dup11\n        /* \"#utility.yul\":15994:16003   */\n      dup4\n        /* \"#utility.yul\":15987:16012   */\n      mstore\n        /* \"#utility.yul\":16048:16050   */\n      dup1\n        /* \"#utility.yul\":16043:16045   */\n      0x20\n        /* \"#utility.yul\":16032:16041   */\n      dup5\n        /* \"#utility.yul\":16028:16046   */\n      add\n        /* \"#utility.yul\":16021:16051   */\n      mstore\n        /* \"#utility.yul\":16074:16118   */\n      tag_549\n        /* \"#utility.yul\":16114:16116   */\n      dup2\n        /* \"#utility.yul\":16103:16112   */\n      dup5\n        /* \"#utility.yul\":16099:16117   */\n      add\n        /* \"#utility.yul\":16091:16097   */\n      dup12\n        /* \"#utility.yul\":16074:16118   */\n      tag_517\n      jump\t// in\n    tag_549:\n        /* \"#utility.yul\":16060:16118   */\n      swap1\n      pop\n        /* \"#utility.yul\":16166:16175   */\n      dup3\n        /* \"#utility.yul\":16158:16164   */\n      dup2\n        /* \"#utility.yul\":16154:16176   */\n      sub\n        /* \"#utility.yul\":16149:16151   */\n      0x40\n        /* \"#utility.yul\":16138:16147   */\n      dup5\n        /* \"#utility.yul\":16134:16152   */\n      add\n        /* \"#utility.yul\":16127:16177   */\n      mstore\n        /* \"#utility.yul\":16200:16232   */\n      tag_550\n        /* \"#utility.yul\":16225:16231   */\n      dup2\n        /* \"#utility.yul\":16217:16223   */\n      dup11\n        /* \"#utility.yul\":16200:16232   */\n      tag_517\n      jump\t// in\n    tag_550:\n        /* \"#utility.yul\":16186:16232   */\n      swap1\n      pop\n        /* \"#utility.yul\":16280:16289   */\n      dup3\n        /* \"#utility.yul\":16272:16278   */\n      dup2\n        /* \"#utility.yul\":16268:16290   */\n      sub\n        /* \"#utility.yul\":16263:16265   */\n      0x60\n        /* \"#utility.yul\":16252:16261   */\n      dup5\n        /* \"#utility.yul\":16248:16266   */\n      add\n        /* \"#utility.yul\":16241:16291   */\n      mstore\n        /* \"#utility.yul\":16314:16358   */\n      tag_551\n        /* \"#utility.yul\":16351:16357   */\n      dup2\n        /* \"#utility.yul\":16343:16349   */\n      dup10\n        /* \"#utility.yul\":16314:16358   */\n      tag_507\n      jump\t// in\n    tag_551:\n        /* \"#utility.yul\":16300:16358   */\n      swap1\n      pop\n        /* \"#utility.yul\":16407:16416   */\n      dup3\n        /* \"#utility.yul\":16399:16405   */\n      dup2\n        /* \"#utility.yul\":16395:16417   */\n      sub\n        /* \"#utility.yul\":16389:16392   */\n      0x80\n        /* \"#utility.yul\":16378:16387   */\n      dup5\n        /* \"#utility.yul\":16374:16393   */\n      add\n        /* \"#utility.yul\":16367:16418   */\n      mstore\n        /* \"#utility.yul\":16435:16479   */\n      tag_552\n        /* \"#utility.yul\":16472:16478   */\n      dup2\n        /* \"#utility.yul\":16464:16470   */\n      dup9\n        /* \"#utility.yul\":16435:16479   */\n      tag_512\n      jump\t// in\n    tag_552:\n        /* \"#utility.yul\":16510:16513   */\n      0xa0\n        /* \"#utility.yul\":16495:16514   */\n      dup5\n      add\n        /* \"#utility.yul\":16488:16523   */\n      swap7\n      swap1\n      swap7\n      mstore\n      pop\n      pop\n      sub(shl(0xa0, 0x01), 0x01)\n        /* \"#utility.yul\":16560:16592   */\n      swap3\n      swap1\n      swap3\n      and\n        /* \"#utility.yul\":16554:16557   */\n      0xc0\n        /* \"#utility.yul\":16539:16558   */\n      dup4\n      add\n        /* \"#utility.yul\":16532:16593   */\n      mstore\n        /* \"#utility.yul\":16637:16651   */\n      iszero\n        /* \"#utility.yul\":16630:16652   */\n      iszero\n        /* \"#utility.yul\":16624:16627   */\n      0xe0\n        /* \"#utility.yul\":16609:16628   */\n      swap1\n      swap2\n      add\n        /* \"#utility.yul\":16602:16653   */\n      mstore\n        /* \"#utility.yul\":16427:16479   */\n      swap6\n        /* \"#utility.yul\":15524:16659   */\n      swap5\n      pop\n      pop\n      pop\n      pop\n      pop\n      jump\t// out\n        /* \"#utility.yul\":16664:17076   */\n    tag_132:\n        /* \"#utility.yul\":16837:16839   */\n      0x40\n        /* \"#utility.yul\":16822:16840   */\n      dup2\n      add\n        /* \"#utility.yul\":16870:16871   */\n      0x03\n        /* \"#utility.yul\":16859:16872   */\n      dup5\n      lt\n        /* \"#utility.yul\":16849:16993   */\n      tag_554\n      jumpi\n        /* \"#utility.yul\":16915:16925   */\n      0x4e487b71\n        /* \"#utility.yul\":16910:16913   */\n      0xe0\n        /* \"#utility.yul\":16906:16926   */\n      shl\n        /* \"#utility.yul\":16903:16904   */\n      0x00\n        /* \"#utility.yul\":16896:16927   */\n      mstore\n        /* \"#utility.yul\":16950:16954   */\n      0x21\n        /* \"#utility.yul\":16947:16948   */\n      0x04\n        /* \"#utility.yul\":16940:16955   */\n      mstore\n        /* \"#utility.yul\":16978:16982   */\n      0x24\n        /* \"#utility.yul\":16975:16976   */\n      0x00\n        /* \"#utility.yul\":16968:16983   */\n      revert\n        /* \"#utility.yul\":16849:16993   */\n    tag_554:\n        /* \"#utility.yul\":17002:17027   */\n      swap3\n      dup2\n      mstore\n        /* \"#utility.yul\":17058:17060   */\n      0x20\n        /* \"#utility.yul\":17043:17061   */\n      add\n        /* \"#utility.yul\":17036:17070   */\n      mstore\n        /* \"#utility.yul\":16664:17076   */\n      swap1\n      jump\t// out\n        /* \"#utility.yul\":17081:18124   */\n    tag_230:\n        /* \"#utility.yul\":17512:17515   */\n      0xe0\n        /* \"#utility.yul\":17501:17510   */\n      dup2\n        /* \"#utility.yul\":17494:17516   */\n      mstore\n        /* \"#utility.yul\":17475:17479   */\n      0x00\n        /* \"#utility.yul\":17539:17584   */\n      tag_556\n        /* \"#utility.yul\":17579:17582   */\n      0xe0\n        /* \"#utility.yul\":17568:17577   */\n      dup4\n        /* \"#utility.yul\":17564:17583   */\n      add\n        /* \"#utility.yul\":17556:17562   */\n      dup11\n        /* \"#utility.yul\":17539:17584   */\n      tag_517\n      jump\t// in\n    tag_556:\n        /* \"#utility.yul\":17632:17641   */\n      dup3\n        /* \"#utility.yul\":17624:17630   */\n      dup2\n        /* \"#utility.yul\":17620:17642   */\n      sub\n        /* \"#utility.yul\":17615:17617   */\n      0x20\n        /* \"#utility.yul\":17604:17613   */\n      dup5\n        /* \"#utility.yul\":17600:17618   */\n      add\n        /* \"#utility.yul\":17593:17643   */\n      mstore\n        /* \"#utility.yul\":17666:17698   */\n      tag_557\n        /* \"#utility.yul\":17691:17697   */\n      dup2\n        /* \"#utility.yul\":17683:17689   */\n      dup11\n        /* \"#utility.yul\":17666:17698   */\n      tag_517\n      jump\t// in\n    tag_557:\n        /* \"#utility.yul\":17652:17698   */\n      swap1\n      pop\n        /* \"#utility.yul\":17746:17755   */\n      dup3\n        /* \"#utility.yul\":17738:17744   */\n      dup2\n        /* \"#utility.yul\":17734:17756   */\n      sub\n        /* \"#utility.yul\":17729:17731   */\n      0x40\n        /* \"#utility.yul\":17718:17727   */\n      dup5\n        /* \"#utility.yul\":17714:17732   */\n      add\n        /* \"#utility.yul\":17707:17757   */\n      mstore\n        /* \"#utility.yul\":17780:17824   */\n      tag_558\n        /* \"#utility.yul\":17817:17823   */\n      dup2\n        /* \"#utility.yul\":17809:17815   */\n      dup10\n        /* \"#utility.yul\":17780:17824   */\n      tag_507\n      jump\t// in\n    tag_558:\n        /* \"#utility.yul\":17766:17824   */\n      swap1\n      pop\n        /* \"#utility.yul\":17872:17881   */\n      dup3\n        /* \"#utility.yul\":17864:17870   */\n      dup2\n        /* \"#utility.yul\":17860:17882   */\n      sub\n        /* \"#utility.yul\":17855:17857   */\n      0x60\n        /* \"#utility.yul\":17844:17853   */\n      dup5\n        /* \"#utility.yul\":17840:17858   */\n      add\n        /* \"#utility.yul\":17833:17883   */\n      mstore\n        /* \"#utility.yul\":17900:17944   */\n      tag_559\n        /* \"#utility.yul\":17937:17943   */\n      dup2\n        /* \"#utility.yul\":17929:17935   */\n      dup9\n        /* \"#utility.yul\":17900:17944   */\n      tag_512\n      jump\t// in\n    tag_559:\n        /* \"#utility.yul\":17975:17978   */\n      0x80\n        /* \"#utility.yul\":17960:17979   */\n      dup5\n      add\n        /* \"#utility.yul\":17953:17988   */\n      swap7\n      swap1\n      swap7\n      mstore\n      pop\n      pop\n      sub(shl(0xa0, 0x01), 0x01)\n        /* \"#utility.yul\":18025:18057   */\n      swap3\n      swap1\n      swap3\n      and\n        /* \"#utility.yul\":18045:18048   */\n      0xa0\n        /* \"#utility.yul\":18004:18023   */\n      dup4\n      add\n        /* \"#utility.yul\":17997:18058   */\n      mstore\n        /* \"#utility.yul\":18102:18116   */\n      iszero\n        /* \"#utility.yul\":18095:18117   */\n      iszero\n        /* \"#utility.yul\":18089:18092   */\n      0xc0\n        /* \"#utility.yul\":18074:18093   */\n      swap1\n      swap2\n      add\n        /* \"#utility.yul\":18067:18118   */\n      mstore\n        /* \"#utility.yul\":17892:17944   */\n      swap5\n        /* \"#utility.yul\":17081:18124   */\n      swap4\n      pop\n      pop\n      pop\n      pop\n      jump\t// out\n        /* \"#utility.yul\":19303:19659   */\n    tag_199:\n        /* \"#utility.yul\":19505:19507   */\n      0x20\n        /* \"#utility.yul\":19487:19508   */\n      dup1\n      dup3\n      mstore\n        /* \"#utility.yul\":19524:19542   */\n      dup2\n      dup2\n      add\n        /* \"#utility.yul\":19517:19547   */\n      mstore\n        /* \"#utility.yul\":19583:19617   */\n      0x4f776e61626c653a2063616c6c6572206973206e6f7420746865206f776e6572\n        /* \"#utility.yul\":19578:19580   */\n      0x40\n        /* \"#utility.yul\":19563:19581   */\n      dup3\n      add\n        /* \"#utility.yul\":19556:19618   */\n      mstore\n        /* \"#utility.yul\":19650:19652   */\n      0x60\n        /* \"#utility.yul\":19635:19653   */\n      add\n      swap1\n        /* \"#utility.yul\":19303:19659   */\n      jump\t// out\n        /* \"#utility.yul\":21533:21862   */\n    tag_100:\n        /* \"#utility.yul\":21735:21737   */\n      0x20\n        /* \"#utility.yul\":21717:21738   */\n      dup1\n      dup3\n      mstore\n        /* \"#utility.yul\":21774:21775   */\n      0x06\n        /* \"#utility.yul\":21754:21772   */\n      swap1\n      dup3\n      add\n        /* \"#utility.yul\":21747:21776   */\n      mstore\n      shl(0xd1, 0x10b7bbb732b9)\n        /* \"#utility.yul\":21807:21809   */\n      0x40\n        /* \"#utility.yul\":21792:21810   */\n      dup3\n      add\n        /* \"#utility.yul\":21785:21821   */\n      mstore\n        /* \"#utility.yul\":21853:21855   */\n      0x60\n        /* \"#utility.yul\":21838:21856   */\n      add\n      swap1\n        /* \"#utility.yul\":21533:21862   */\n      jump\t// out\n        /* \"#utility.yul\":23148:23551   */\n    tag_259:\n        /* \"#utility.yul\":23383:23389   */\n      dup4\n        /* \"#utility.yul\":23372:23381   */\n      dup2\n        /* \"#utility.yul\":23365:23390   */\n      mstore\n        /* \"#utility.yul\":23426:23432   */\n      dup3\n        /* \"#utility.yul\":23421:23423   */\n      0x20\n        /* \"#utility.yul\":23410:23419   */\n      dup3\n        /* \"#utility.yul\":23406:23424   */\n      add\n        /* \"#utility.yul\":23399:23433   */\n      mstore\n        /* \"#utility.yul\":23469:23471   */\n      0x60\n        /* \"#utility.yul\":23464:23466   */\n      0x40\n        /* \"#utility.yul\":23453:23462   */\n      dup3\n        /* \"#utility.yul\":23449:23467   */\n      add\n        /* \"#utility.yul\":23442:23472   */\n      mstore\n        /* \"#utility.yul\":23346:23350   */\n      0x00\n        /* \"#utility.yul\":23489:23545   */\n      tag_575\n        /* \"#utility.yul\":23541:23543   */\n      0x60\n        /* \"#utility.yul\":23530:23539   */\n      dup4\n        /* \"#utility.yul\":23526:23544   */\n      add\n        /* \"#utility.yul\":23518:23524   */\n      dup5\n        /* \"#utility.yul\":23489:23545   */\n      tag_512\n      jump\t// in\n    tag_575:\n        /* \"#utility.yul\":23481:23545   */\n      swap6\n        /* \"#utility.yul\":23148:23551   */\n      swap5\n      pop\n      pop\n      pop\n      pop\n      pop\n      jump\t// out\n        /* \"#utility.yul\":23556:23811   */\n    tag_487:\n        /* \"#utility.yul\":23628:23630   */\n      0x40\n        /* \"#utility.yul\":23622:23631   */\n      mload\n        /* \"#utility.yul\":23670:23676   */\n      0x0160\n        /* \"#utility.yul\":23658:23677   */\n      dup2\n      add\n        /* \"#utility.yul\":23707:23725   */\n      0xffffffffffffffff\n        /* \"#utility.yul\":23692:23726   */\n      dup2\n      gt\n        /* \"#utility.yul\":23728:23750   */\n      dup3\n      dup3\n      lt\n        /* \"#utility.yul\":23689:23751   */\n      or\n        /* \"#utility.yul\":23686:23774   */\n      iszero\n      tag_578\n      jumpi\n        /* \"#utility.yul\":23754:23772   */\n      tag_578\n      tag_440\n      jump\t// in\n    tag_578:\n        /* \"#utility.yul\":23790:23792   */\n      0x40\n        /* \"#utility.yul\":23783:23805   */\n      mstore\n        /* \"#utility.yul\":23556:23811   */\n      swap1\n      jump\t// out\n        /* \"#utility.yul\":23816:24091   */\n    tag_406:\n        /* \"#utility.yul\":23887:23889   */\n      0x40\n        /* \"#utility.yul\":23881:23890   */\n      mload\n        /* \"#utility.yul\":23952:23954   */\n      0x1f\n        /* \"#utility.yul\":23933:23946   */\n      dup3\n      add\n      not(0x1f)\n        /* \"#utility.yul\":23929:23956   */\n      and\n        /* \"#utility.yul\":23917:23957   */\n      dup2\n      add\n        /* \"#utility.yul\":23987:24005   */\n      0xffffffffffffffff\n        /* \"#utility.yul\":23972:24006   */\n      dup2\n      gt\n        /* \"#utility.yul\":24008:24030   */\n      dup3\n      dup3\n      lt\n        /* \"#utility.yul\":23969:24031   */\n      or\n        /* \"#utility.yul\":23966:24054   */\n      iszero\n      tag_581\n      jumpi\n        /* \"#utility.yul\":24034:24052   */\n      tag_581\n      tag_440\n      jump\t// in\n    tag_581:\n        /* \"#utility.yul\":24070:24072   */\n      0x40\n        /* \"#utility.yul\":24063:24085   */\n      mstore\n        /* \"#utility.yul\":23816:24091   */\n      swap2\n      swap1\n      pop\n      jump\t// out\n        /* \"#utility.yul\":24096:24279   */\n    tag_405:\n        /* \"#utility.yul\":24156:24160   */\n      0x00\n        /* \"#utility.yul\":24189:24207   */\n      0xffffffffffffffff\n        /* \"#utility.yul\":24181:24187   */\n      dup3\n        /* \"#utility.yul\":24178:24208   */\n      gt\n        /* \"#utility.yul\":24175:24231   */\n      iszero\n      tag_584\n      jumpi\n        /* \"#utility.yul\":24211:24229   */\n      tag_584\n      tag_440\n      jump\t// in\n    tag_584:\n      pop\n        /* \"#utility.yul\":24256:24257   */\n      0x05\n        /* \"#utility.yul\":24252:24266   */\n      shl\n        /* \"#utility.yul\":24268:24272   */\n      0x20\n        /* \"#utility.yul\":24248:24273   */\n      add\n      swap1\n        /* \"#utility.yul\":24096:24279   */\n      jump\t// out\n        /* \"#utility.yul\":24284:24501   */\n    tag_156:\n        /* \"#utility.yul\":24324:24325   */\n      0x00\n        /* \"#utility.yul\":24350:24351   */\n      dup3\n        /* \"#utility.yul\":24340:24472   */\n      tag_586\n      jumpi\n        /* \"#utility.yul\":24394:24404   */\n      0x4e487b71\n        /* \"#utility.yul\":24389:24392   */\n      0xe0\n        /* \"#utility.yul\":24385:24405   */\n      shl\n        /* \"#utility.yul\":24382:24383   */\n      0x00\n        /* \"#utility.yul\":24375:24406   */\n      mstore\n        /* \"#utility.yul\":24429:24433   */\n      0x12\n        /* \"#utility.yul\":24426:24427   */\n      0x04\n        /* \"#utility.yul\":24419:24434   */\n      mstore\n        /* \"#utility.yul\":24457:24461   */\n      0x24\n        /* \"#utility.yul\":24454:24455   */\n      0x00\n        /* \"#utility.yul\":24447:24462   */\n      revert\n        /* \"#utility.yul\":24340:24472   */\n    tag_586:\n      pop\n        /* \"#utility.yul\":24486:24495   */\n      div\n      swap1\n        /* \"#utility.yul\":24284:24501   */\n      jump\t// out\n        /* \"#utility.yul\":24506:24674   */\n    tag_154:\n        /* \"#utility.yul\":24546:24553   */\n      0x00\n        /* \"#utility.yul\":24612:24613   */\n      dup2\n        /* \"#utility.yul\":24608:24609   */\n      0x00\n        /* \"#utility.yul\":24604:24610   */\n      not\n        /* \"#utility.yul\":24600:24614   */\n      div\n        /* \"#utility.yul\":24597:24598   */\n      dup4\n        /* \"#utility.yul\":24594:24615   */\n      gt\n        /* \"#utility.yul\":24589:24590   */\n      dup3\n        /* \"#utility.yul\":24582:24591   */\n      iszero\n        /* \"#utility.yul\":24575:24592   */\n      iszero\n        /* \"#utility.yul\":24571:24616   */\n      and\n        /* \"#utility.yul\":24568:24639   */\n      iszero\n      tag_589\n      jumpi\n        /* \"#utility.yul\":24619:24637   */\n      tag_589\n      tag_590\n      jump\t// in\n    tag_589:\n      pop\n        /* \"#utility.yul\":24659:24668   */\n      mul\n      swap1\n        /* \"#utility.yul\":24506:24674   */\n      jump\t// out\n        /* \"#utility.yul\":24679:24804   */\n    tag_152:\n        /* \"#utility.yul\":24719:24723   */\n      0x00\n        /* \"#utility.yul\":24747:24748   */\n      dup3\n        /* \"#utility.yul\":24744:24745   */\n      dup3\n        /* \"#utility.yul\":24741:24749   */\n      lt\n        /* \"#utility.yul\":24738:24772   */\n      iszero\n      tag_593\n      jumpi\n        /* \"#utility.yul\":24752:24770   */\n      tag_593\n      tag_590\n      jump\t// in\n    tag_593:\n      pop\n        /* \"#utility.yul\":24789:24798   */\n      sub\n      swap1\n        /* \"#utility.yul\":24679:24804   */\n      jump\t// out\n        /* \"#utility.yul\":24809:25067   */\n    tag_520:\n        /* \"#utility.yul\":24881:24882   */\n      0x00\n        /* \"#utility.yul\":24891:25004   */\n    tag_595:\n        /* \"#utility.yul\":24905:24911   */\n      dup4\n        /* \"#utility.yul\":24902:24903   */\n      dup2\n        /* \"#utility.yul\":24899:24912   */\n      lt\n        /* \"#utility.yul\":24891:25004   */\n      iszero\n      tag_597\n      jumpi\n        /* \"#utility.yul\":24981:24992   */\n      dup2\n      dup2\n      add\n        /* \"#utility.yul\":24975:24993   */\n      mload\n        /* \"#utility.yul\":24962:24973   */\n      dup4\n      dup3\n      add\n        /* \"#utility.yul\":24955:24994   */\n      mstore\n        /* \"#utility.yul\":24927:24929   */\n      0x20\n        /* \"#utility.yul\":24920:24930   */\n      add\n        /* \"#utility.yul\":24891:25004   */\n      jump(tag_595)\n    tag_597:\n        /* \"#utility.yul\":25022:25028   */\n      dup4\n        /* \"#utility.yul\":25019:25020   */\n      dup2\n        /* \"#utility.yul\":25016:25029   */\n      gt\n        /* \"#utility.yul\":25013:25061   */\n      iszero\n      tag_598\n      jumpi\n        /* \"#utility.yul\":25057:25058   */\n      0x00\n        /* \"#utility.yul\":25048:25054   */\n      dup5\n        /* \"#utility.yul\":25043:25046   */\n      dup5\n        /* \"#utility.yul\":25039:25055   */\n      add\n        /* \"#utility.yul\":25032:25059   */\n      mstore\n        /* \"#utility.yul\":25013:25061   */\n    tag_598:\n      pop\n        /* \"#utility.yul\":24809:25067   */\n      pop\n      pop\n      pop\n      jump\t// out\n        /* \"#utility.yul\":25072:25199   */\n    tag_590:\n        /* \"#utility.yul\":25133:25143   */\n      0x4e487b71\n        /* \"#utility.yul\":25128:25131   */\n      0xe0\n        /* \"#utility.yul\":25124:25144   */\n      shl\n        /* \"#utility.yul\":25121:25122   */\n      0x00\n        /* \"#utility.yul\":25114:25145   */\n      mstore\n        /* \"#utility.yul\":25164:25168   */\n      0x11\n        /* \"#utility.yul\":25161:25162   */\n      0x04\n        /* \"#utility.yul\":25154:25169   */\n      mstore\n        /* \"#utility.yul\":25188:25192   */\n      0x24\n        /* \"#utility.yul\":25185:25186   */\n      0x00\n        /* \"#utility.yul\":25178:25193   */\n      revert\n        /* \"#utility.yul\":25204:25331   */\n    tag_144:\n        /* \"#utility.yul\":25265:25275   */\n      0x4e487b71\n        /* \"#utility.yul\":25260:25263   */\n      0xe0\n        /* \"#utility.yul\":25256:25276   */\n      shl\n        /* \"#utility.yul\":25253:25254   */\n      0x00\n        /* \"#utility.yul\":25246:25277   */\n      mstore\n        /* \"#utility.yul\":25296:25300   */\n      0x32\n        /* \"#utility.yul\":25293:25294   */\n      0x04\n        /* \"#utility.yul\":25286:25301   */\n      mstore\n        /* \"#utility.yul\":25320:25324   */\n      0x24\n        /* \"#utility.yul\":25317:25318   */\n      0x00\n        /* \"#utility.yul\":25310:25325   */\n      revert\n        /* \"#utility.yul\":25336:25463   */\n    tag_440:\n        /* \"#utility.yul\":25397:25407   */\n      0x4e487b71\n        /* \"#utility.yul\":25392:25395   */\n      0xe0\n        /* \"#utility.yul\":25388:25408   */\n      shl\n        /* \"#utility.yul\":25385:25386   */\n      0x00\n        /* \"#utility.yul\":25378:25409   */\n      mstore\n        /* \"#utility.yul\":25428:25432   */\n      0x41\n        /* \"#utility.yul\":25425:25426   */\n      0x04\n        /* \"#utility.yul\":25418:25433   */\n      mstore\n        /* \"#utility.yul\":25452:25456   */\n      0x24\n        /* \"#utility.yul\":25449:25450   */\n      0x00\n        /* \"#utility.yul\":25442:25457   */\n      revert\n        /* \"#utility.yul\":25468:25599   */\n    tag_412:\n      sub(shl(0xa0, 0x01), 0x01)\n        /* \"#utility.yul\":25543:25574   */\n      dup2\n      and\n        /* \"#utility.yul\":25533:25575   */\n      dup2\n      eq\n        /* \"#utility.yul\":25523:25593   */\n      tag_325\n      jumpi\n        /* \"#utility.yul\":25589:25590   */\n      0x00\n        /* \"#utility.yul\":25586:25587   */\n      dup1\n        /* \"#utility.yul\":25579:25591   */\n      revert\n        /* \"#utility.yul\":25604:25722   */\n    tag_434:\n        /* \"#utility.yul\":25690:25695   */\n      dup1\n        /* \"#utility.yul\":25683:25696   */\n      iszero\n        /* \"#utility.yul\":25676:25697   */\n      iszero\n        /* \"#utility.yul\":25669:25674   */\n      dup2\n        /* \"#utility.yul\":25666:25698   */\n      eq\n        /* \"#utility.yul\":25656:25716   */\n      tag_325\n      jumpi\n        /* \"#utility.yul\":25712:25713   */\n      0x00\n        /* \"#utility.yul\":25709:25710   */\n      dup1\n        /* \"#utility.yul\":25702:25714   */\n      revert\n\n    auxdata: 0xa264697066735822122044fe90f407325eb5667019eba143d7bc54b4c501ab64d3e1a0f3668cae5f157a64736f6c63430008070033\n}\n",
				"bytecode": {
					"linkReferences": {},
					"object": "60c06040523480156200001157600080fd5b506040516200275f3803806200275f8339810160408190526200003491620000e8565b6200003f336200007b565b60a092909252600480546001600160a01b0319166001600160a01b039290921691909117905560601b6001600160601b03191660805262000129565b600080546001600160a01b038381166001600160a01b0319831681178455604051919092169283917f8be0079c531659141344cd1fd0a4f28419497f9722a3daafe3b4186f6b6457e09190a35050565b80516001600160a01b0381168114620000e357600080fd5b919050565b600080600060608486031215620000fe57600080fd5b835192506200011060208501620000cb565b91506200012060408501620000cb565b90509250925092565b60805160601c60a0516125ff62000160600039600081816102f1015261085601526000818161012b0152610d9201526125ff6000f3fe608060405234801561001057600080fd5b50600436106101215760003560e01c8063673a2a1f116100ad578063a342f23811610071578063a342f23814610321578063cac626bb14610334578063ee9ee0e414610347578063f2fde38b1461035a578063f525cb681461036d57600080fd5b8063673a2a1f146102ab578063712b772f146102c0578063715018a6146102d35780638da5cb5b146102db5780639c37ebb6146102ec57600080fd5b806323604071116100f45780632360407114610234578063411557d11461024757806346cf3e6e1461026257806351d48cea146102755780635b16ebb71461028857600080fd5b806301b1aff6146101265780630563cd7c1461016a57806305ea21831461017f57806313d21cdf14610192575b600080fd5b61014d7f000000000000000000000000000000000000000000000000000000000000000081565b6040516001600160a01b0390911681526020015b60405180910390f35b61017d610178366004611d28565b610375565b005b61014d61018d36600461206c565b610b4f565b6102076101a0366004611cb5565b6040805160608101825260008082526020820181905291810191909152506001600160a01b03908116600090815260016020818152604092839020835160608101855281549586168152600160a01b90950460ff1615159185019190915201549082015290565b6040805182516001600160a01b031681526020808401511515908201529181015190820152606001610161565b61017d610242366004611cb5565b610b62565b61014d7320dd72ed959b6147912c2e529f0a0c651c33c9ce81565b61014d610270366004611eef565b610bed565b61017d610283366004611db6565b6111a2565b61029b610296366004611cb5565b611282565b6040519015158152602001610161565b6102b361128f565b60405161016191906121c6565b61017d6102ce366004611cef565b6112a0565b61017d6113e0565b6000546001600160a01b031661014d565b6103137f000000000000000000000000000000000000000000000000000000000000000081565b604051908152602001610161565b60045461014d906001600160a01b031681565b610313610342366004611cb5565b611416565b61017d610355366004611cef565b611490565b61017d610368366004611cb5565b61153a565b6103136115d5565b6001600160a01b0384811660009081526001602052604090205485911633146103b95760405162461bcd60e51b81526004016103b090612415565b60405180910390fd5b6000856001600160a01b03166338fff2d06040518163ffffffff1660e01b8152600401602060405180830381600087803b1580156103f657600080fd5b505af115801561040a573d6000803e3d6000fd5b505050506040513d601f19601f8201168201806040525081019061042e9190611ed6565b604051631f29a8cd60e31b8152600481018290529091506000907320dd72ed959b6147912c2e529f0a0c651c33c9ce9063f94d46689060240160006040518083038186803b15801561047f57600080fd5b505afa158015610493573d6000803e3d6000fd5b505050506040513d6000823e601f3d908101601f191682016040526104bb9190810190611de4565b5050805190915085146105075760405162461bcd60e51b81526020600482015260146024820152730d2dcecc2d8d2c840d2dce0eae840d8cadccee8d60631b60448201526064016103b0565b6001600160a01b038781166000818152600160208181526040808420815160608101835281549788168152600160a01b90970460ff1615159287019290925291015484820152516370a0823160e01b8152306004820152909182916370a082319060240160206040518083038186803b15801561058357600080fd5b505afa158015610597573d6000803e3d6000fd5b505050506040513d601f19601f820116820180604052508101906105bb9190611ed6565b90508087111561060d5760405162461bcd60e51b815260206004820152601b60248201527f4e6f7420656e6f7567682042505420746f6b656e20616d6f756e74000000000060448201526064016103b0565b6000811161064c5760405162461bcd60e51b815260206004820152600c60248201526b1a5b9d985b1a59081c1bdbdb60a21b60448201526064016103b0565b866106595780915061065d565b8691505b600060018360405160200161067392919061233c565b6040516020818303038152906040529050600060405180608001604052808781526020018c8c8080602002602001604051908101604052809392919081815260200183836020028082843760009201829052509385525050506020820185905260409182015251638bdb391360e01b81529091507320dd72ed959b6147912c2e529f0a0c651c33c9ce90638bdb391390610717908a90309081908790600401612288565b600060405180830381600087803b15801561073157600080fd5b505af1158015610745573d6000803e3d6000fd5b505050508b6001600160a01b03167ffbbb3d684cc731f4eff666c8534337f397ecf7937c1ed574f8626f6cb718cc01878d8d8660405161078894939291906121d9565b60405180910390a260008686602001516107a35760016107a6565b60005b60ff16815181106107b9576107b961257a565b60209081029190910101516040516370a0823160e01b81523060048201529091506000906001600160a01b038316906370a082319060240160206040518083038186803b15801561080957600080fd5b505afa15801561081d573d6000803e3d6000fd5b505050506040513d601f19601f820116820180604052508101906108419190611ed6565b905086604001518111156109105760006127107f0000000000000000000000000000000000000000000000000000000000000000896040015184610885919061251d565b61088f91906124fe565b61089991906124dc565b6004549091506108b49084906001600160a01b0316836115e1565b8e6001600160a01b03167f52b4a48c36f647498ba38efeaed299eb5e0f7688e76359a58f55738ff7725af284600460009054906101000a90046001600160a01b031684604051610906939291906121a2565b60405180910390a2505b6000886000815181106109255761092561257a565b60209081029190910101516040516370a0823160e01b81523060048201526001600160a01b03909116906370a082319060240160206040518083038186803b15801561097057600080fd5b505afa158015610984573d6000803e3d6000fd5b505050506040513d601f19601f820116820180604052508101906109a89190611ed6565b90506109cf896000815181106109c0576109c061257a565b602002602001015133836115e1565b8e6001600160a01b03167f235d80db0a4b8dc1e99bba791b835d938cbc8cb023a88fdaba36aafd2aa9b2768a600081518110610a0d57610a0d61257a565b60200260200101513384604051610a26939291906121a2565b60405180910390a2600089600181518110610a4357610a4361257a565b60209081029190910101516040516370a0823160e01b81523060048201526001600160a01b03909116906370a082319060240160206040518083038186803b158015610a8e57600080fd5b505afa158015610aa2573d6000803e3d6000fd5b505050506040513d601f19601f82011682018060405250810190610ac69190611ed6565b9050610ade8a6001815181106109c0576109c061257a565b8f6001600160a01b03167f235d80db0a4b8dc1e99bba791b835d938cbc8cb023a88fdaba36aafd2aa9b2768b600181518110610b1c57610b1c61257a565b60200260200101513384604051610b35939291906121a2565b60405180910390a250505050505050505050505050505050565b6000610b5c600283611712565b92915050565b6000546001600160a01b03163314610b8c5760405162461bcd60e51b81526004016103b0906123e0565b600480546001600160a01b038381166001600160a01b031983168117909355604080519190921680825260208201939093527fc335ca37f71e695337f94e5078421114aee3f4c5d97e824efaf8578318e5e8c8910160405180910390a15050565b6000816040015151600214610c365760405162461bcd60e51b815260206004820152600f60248201526e6f6e6c792074776f20746f6b656e7360881b60448201526064016103b0565b610c7e8260400151600081518110610c5057610c5061257a565b602002602001015133308560600151600081518110610c7157610c7161257a565b6020026020010151611725565b610cb98260400151600181518110610c9857610c9861257a565b602002602001015133308560600151600181518110610c7157610c7161257a565b610d148260400151600081518110610cd357610cd361257a565b60200260200101517320dd72ed959b6147912c2e529f0a0c651c33c9ce8460600151600081518110610d0757610d0761257a565b602002602001015161185f565b610d628260400151600181518110610d2e57610d2e61257a565b60200260200101517320dd72ed959b6147912c2e529f0a0c651c33c9ce8460600151600181518110610d0757610d0761257a565b81516020830151604080850151608086015160e08701519251632367971960e01b81526000956001600160a01b037f00000000000000000000000000000000000000000000000000000000000000001695632367971995610dcd959294919330908a90600401612368565b602060405180830381600087803b158015610de757600080fd5b505af1158015610dfb573d6000803e3d6000fd5b505050506040513d601f19601f82011682018060405250810190610e1f9190611cd2565b90506000816001600160a01b03166338fff2d06040518163ffffffff1660e01b8152600401602060405180830381600087803b158015610e5e57600080fd5b505af1158015610e72573d6000803e3d6000fd5b505050506040513d601f19601f82011682018060405250810190610e969190611ed6565b9050816001600160a01b03167f2b416ce78f01c3304331a3a35005ee09bfb64c878f2be9849fc9909101bc61ac8286600001518760200151886040015189608001518a60e00151306000604051610ef49897969594939291906122ba565b60405180910390a26040518060600160405280336001600160a01b031681526020018560c001511515815260200185606001518660c00151610f37576001610f3a565b60005b60ff1681518110610f4d57610f4d61257a565b6020908102919091018101519091526001600160a01b038085166000908152600180845260409182902085518154958701511515600160a01b026001600160a81b03199096169416939093179390931782559290920151910155610fb2600283611987565b610fef5760405162461bcd60e51b815260206004820152600e60248201526d65786973747320616c726561647960901b60448201526064016103b0565b60408051608081018252858201518152606080870151602083015261010087015182840152600090820152905163172b958560e31b81527320dd72ed959b6147912c2e529f0a0c651c33c9ce9163b95cac289161105491859130918291600401612288565b600060405180830381600087803b15801561106e57600080fd5b505af1158015611082573d6000803e3d6000fd5b50505050816001600160a01b03167f5dcdc6c8b7b09c26d0c867e99f2b7389b69d982aa8f10b1373f84667a8f58b35856040015186606001518761010001516040516110d093929190612245565b60405180910390a2816001600160a01b0316633e5692058561012001518661014001518760a001516040518463ffffffff1660e01b815260040161111693929190612435565b600060405180830381600087803b15801561113057600080fd5b505af1158015611144573d6000803e3d6000fd5b50505050816001600160a01b03167f5b604c3eb0508fc702242270d353c7673f02b609e03862e244766785e39c278c8561012001518661014001518760a0015160405161119393929190612435565b60405180910390a25092915050565b6001600160a01b0382811660009081526001602052604090205483911633146111dd5760405162461bcd60e51b81526004016103b090612415565b604051633806be4b60e21b815282151560048201526001600160a01b0384169063e01af92c90602401600060405180830381600087803b15801561122057600080fd5b505af1158015611234573d6000803e3d6000fd5b50505050826001600160a01b03167fdc5bc5b27f91cbe9bad8b85e20c9519fb6d126629108f16d474af76579696ea983604051611275911515815260200190565b60405180910390a2505050565b6000610b5c60028361199c565b606061129b60026119be565b905090565b6000546001600160a01b031633146112ca5760405162461bcd60e51b81526004016103b0906123e0565b6112d560028361199c565b156113195760405162461bcd60e51b815260206004820152601460248201527331b0b713ba1039b5b4b690262128103a37b5b2b760611b60448201526064016103b0565b6040516370a0823160e01b81523060048201526000906001600160a01b038416906370a082319060240160206040518083038186803b15801561135b57600080fd5b505afa15801561136f573d6000803e3d6000fd5b505050506040513d601f19601f820116820180604052508101906113939190611ed6565b90506113a08383836115e1565b7f0cfb7d414a57e3fd35da9f4b61341e65026c225646228ba0262d9264f541c32e8383836040516113d3939291906121a2565b60405180910390a1505050565b6000546001600160a01b0316331461140a5760405162461bcd60e51b81526004016103b0906123e0565b61141460006119cb565b565b6040516370a0823160e01b81523060048201526000906001600160a01b038316906370a082319060240160206040518083038186803b15801561145857600080fd5b505afa15801561146c573d6000803e3d6000fd5b505050506040513d601f19601f82011682018060405250810190610b5c9190611ed6565b6001600160a01b0382811660009081526001602052604090205483911633146114cb5760405162461bcd60e51b81526004016103b090612415565b6001600160a01b0383811660008181526001602090815260409182902080548786166001600160a01b0319821681179092558351951680865291850152927f794fb907c01822765502a338368bdc2f31ef538f609dcc19be5629fee0cedcd8910160405180910390a250505050565b6000546001600160a01b031633146115645760405162461bcd60e51b81526004016103b0906123e0565b6001600160a01b0381166115c95760405162461bcd60e51b815260206004820152602660248201527f4f776e61626c653a206e6577206f776e657220697320746865207a65726f206160448201526564647265737360d01b60648201526084016103b0565b6115d2816119cb565b50565b600061129b6002611a1b565b604080516001600160a01b038481166024830152604480830185905283518084039091018152606490920183526020820180516001600160e01b031663a9059cbb60e01b179052915160009283929087169161163d9190612186565b6000604051808303816000865af19150503d806000811461167a576040519150601f19603f3d011682016040523d82523d6000602084013e61167f565b606091505b50915091508180156116a95750805115806116a95750808060200190518101906116a99190611eb9565b61170b5760405162461bcd60e51b815260206004820152602d60248201527f5472616e7366657248656c7065723a3a736166655472616e736665723a20747260448201526c185b9cd9995c8819985a5b1959609a1b60648201526084016103b0565b5050505050565b600061171e8383611a25565b9392505050565b600080856001600160a01b03166323b872dd86868660405160240161174c939291906121a2565b6040516020818303038152906040529060e01b6020820180516001600160e01b0383818316178352505050506040516117859190612186565b6000604051808303816000865af19150503d80600081146117c2576040519150601f19603f3d011682016040523d82523d6000602084013e6117c7565b606091505b50915091508180156117f15750805115806117f15750808060200190518101906117f19190611eb9565b6118575760405162461bcd60e51b815260206004820152603160248201527f5472616e7366657248656c7065723a3a7472616e7366657246726f6d3a207472604482015270185b9cd9995c919c9bdb4819985a5b1959607a1b60648201526084016103b0565b505050505050565b604080516001600160a01b038481166024830152604480830185905283518084039091018152606490920183526020820180516001600160e01b031663095ea7b360e01b17905291516000928392908716916118bb9190612186565b6000604051808303816000865af19150503d80600081146118f8576040519150601f19603f3d011682016040523d82523d6000602084013e6118fd565b606091505b50915091508180156119275750805115806119275750808060200190518101906119279190611eb9565b61170b5760405162461bcd60e51b815260206004820152602b60248201527f5472616e7366657248656c7065723a3a73616665417070726f76653a2061707060448201526a1c9bdd994819985a5b195960aa1b60648201526084016103b0565b600061171e836001600160a01b038416611a4f565b6001600160a01b0381166000908152600183016020526040812054151561171e565b6060600061171e83611a9e565b600080546001600160a01b038381166001600160a01b0319831681178455604051919092169283917f8be0079c531659141344cd1fd0a4f28419497f9722a3daafe3b4186f6b6457e09190a35050565b6000610b5c825490565b6000826000018281548110611a3c57611a3c61257a565b9060005260206000200154905092915050565b6000818152600183016020526040812054611a9657508154600181810184556000848152602080822090930184905584548482528286019093526040902091909155610b5c565b506000610b5c565b606081600001805480602002602001604051908101604052809291908181526020018280548015611aee57602002820191906000526020600020905b815481526020019060010190808311611ada575b50505050509050919050565b600082601f830112611b0b57600080fd5b81356020611b20611b1b836124b8565b612487565b80838252828201915082860187848660051b8901011115611b4057600080fd5b60005b85811015611b68578135611b56816125a6565b84529284019290840190600101611b43565b5090979650505050505050565b600082601f830112611b8657600080fd5b81356020611b96611b1b836124b8565b80838252828201915082860187848660051b8901011115611bb657600080fd5b60005b85811015611b6857813584529284019290840190600101611bb9565b600082601f830112611be657600080fd5b81516020611bf6611b1b836124b8565b80838252828201915082860187848660051b8901011115611c1657600080fd5b60005b85811015611b6857815184529284019290840190600101611c19565b8035611c40816125bb565b919050565b600082601f830112611c5657600080fd5b813567ffffffffffffffff811115611c7057611c70612590565b611c83601f8201601f1916602001612487565b818152846020838601011115611c9857600080fd5b816020850160208301376000918101602001919091529392505050565b600060208284031215611cc757600080fd5b813561171e816125a6565b600060208284031215611ce457600080fd5b815161171e816125a6565b60008060408385031215611d0257600080fd5b8235611d0d816125a6565b91506020830135611d1d816125a6565b809150509250929050565b60008060008060608587031215611d3e57600080fd5b8435611d49816125a6565b9350602085013567ffffffffffffffff80821115611d6657600080fd5b818701915087601f830112611d7a57600080fd5b813581811115611d8957600080fd5b8860208260051b8501011115611d9e57600080fd5b95986020929092019750949560400135945092505050565b60008060408385031215611dc957600080fd5b8235611dd4816125a6565b91506020830135611d1d816125bb565b600080600060608486031215611df957600080fd5b835167ffffffffffffffff80821115611e1157600080fd5b818601915086601f830112611e2557600080fd5b81516020611e35611b1b836124b8565b8083825282820191508286018b848660051b8901011115611e5557600080fd5b600096505b84871015611e81578051611e6d816125a6565b835260019690960195918301918301611e5a565b5091890151919750909350505080821115611e9b57600080fd5b50611ea886828701611bd5565b925050604084015190509250925092565b600060208284031215611ecb57600080fd5b815161171e816125bb565b600060208284031215611ee857600080fd5b5051919050565b600060208284031215611f0157600080fd5b813567ffffffffffffffff80821115611f1957600080fd5b908301906101608286031215611f2e57600080fd5b611f3661245d565b823582811115611f4557600080fd5b611f5187828601611c45565b825250602083013582811115611f6657600080fd5b611f7287828601611c45565b602083015250604083013582811115611f8a57600080fd5b611f9687828601611afa565b604083015250606083013582811115611fae57600080fd5b611fba87828601611b75565b606083015250608083013582811115611fd257600080fd5b611fde87828601611b75565b60808301525060a083013582811115611ff657600080fd5b61200287828601611b75565b60a08301525061201460c08401611c35565b60c082015260e083013560e0820152610100808401358381111561203757600080fd5b61204388828701611c45565b918301919091525061012083810135908201526101409283013592810192909252509392505050565b60006020828403121561207e57600080fd5b5035919050565b600081518084526020808501945080840160005b838110156120be5781516001600160a01b031687529582019590820190600101612099565b509495945050505050565b600081518084526020808501945080840160005b838110156120be578151875295820195908201906001016120dd565b60008151808452612111816020860160208601612534565b601f01601f19169290920160200192915050565b600081516080845261213a6080850182612085565b90506020830151848203602086015261215382826120c9565b9150506040830151848203604086015261216d82826120f9565b9150506060830151151560608501528091505092915050565b60008251612198818460208701612534565b9190910192915050565b6001600160a01b039384168152919092166020820152604081019190915260600190565b60208152600061171e6020830184612085565b6060815260006121ec6060830187612085565b82810360208401528481526001600160fb1b0385111561220b57600080fd5b8460051b808760208401378082019150506020810160008152602084830301604085015261223981866120f9565b98975050505050505050565b6060815260006122586060830186612085565b828103602084015261226a81866120c9565b9050828103604084015261227e81856120f9565b9695505050505050565b8481526001600160a01b0384811660208301528316604082015260806060820181905260009061227e90830184612125565b60006101008a83528060208401526122d48184018b6120f9565b905082810360408401526122e8818a6120f9565b905082810360608401526122fc8189612085565b9050828103608084015261231081886120c9565b60a084019690965250506001600160a01b039290921660c0830152151560e09091015295945050505050565b604081016003841061235e57634e487b7160e01b600052602160045260246000fd5b9281526020015290565b60e08152600061237b60e083018a6120f9565b828103602084015261238d818a6120f9565b905082810360408401526123a18189612085565b905082810360608401526123b581886120c9565b608084019690965250506001600160a01b039290921660a0830152151560c090910152949350505050565b6020808252818101527f4f776e61626c653a2063616c6c6572206973206e6f7420746865206f776e6572604082015260600190565b60208082526006908201526510b7bbb732b960d11b604082015260600190565b83815282602082015260606040820152600061245460608301846120c9565b95945050505050565b604051610160810167ffffffffffffffff8111828210171561248157612481612590565b60405290565b604051601f8201601f1916810167ffffffffffffffff811182821017156124b0576124b0612590565b604052919050565b600067ffffffffffffffff8211156124d2576124d2612590565b5060051b60200190565b6000826124f957634e487b7160e01b600052601260045260246000fd5b500490565b600081600019048311821515161561251857612518612564565b500290565b60008282101561252f5761252f612564565b500390565b60005b8381101561254f578181015183820152602001612537565b8381111561255e576000848401525b50505050565b634e487b7160e01b600052601160045260246000fd5b634e487b7160e01b600052603260045260246000fd5b634e487b7160e01b600052604160045260246000fd5b6001600160a01b03811681146115d257600080fd5b80151581146115d257600080fdfea264697066735822122044fe90f407325eb5667019eba143d7bc54b4c501ab64d3e1a0f3668cae5f157a64736f6c63430008070033",
					"opcodes": "PUSH1 0xC0 PUSH1 0x40 MSTORE CALLVALUE DUP1 ISZERO PUSH3 0x11 JUMPI PUSH1 0x0 DUP1 REVERT JUMPDEST POP PUSH1 0x40 MLOAD PUSH3 0x275F CODESIZE SUB DUP1 PUSH3 0x275F DUP4 CODECOPY DUP2 ADD PUSH1 0x40 DUP2 SWAP1 MSTORE PUSH3 0x34 SWAP2 PUSH3 0xE8 JUMP JUMPDEST PUSH3 0x3F CALLER PUSH3 0x7B JUMP JUMPDEST PUSH1 0xA0 SWAP3 SWAP1 SWAP3 MSTORE PUSH1 0x4 DUP1 SLOAD PUSH1 0x1 PUSH1 0x1 PUSH1 0xA0 SHL SUB NOT AND PUSH1 0x1 PUSH1 0x1 PUSH1 0xA0 SHL SUB SWAP3 SWAP1 SWAP3 AND SWAP2 SWAP1 SWAP2 OR SWAP1 SSTORE PUSH1 0x60 SHL PUSH1 0x1 PUSH1 0x1 PUSH1 0x60 SHL SUB NOT AND PUSH1 0x80 MSTORE PUSH3 0x129 JUMP JUMPDEST PUSH1 0x0 DUP1 SLOAD PUSH1 0x1 PUSH1 0x1 PUSH1 0xA0 SHL SUB DUP4 DUP2 AND PUSH1 0x1 PUSH1 0x1 PUSH1 0xA0 SHL SUB NOT DUP4 AND DUP2 OR DUP5 SSTORE PUSH1 0x40 MLOAD SWAP2 SWAP1 SWAP3 AND SWAP3 DUP4 SWAP2 PUSH32 0x8BE0079C531659141344CD1FD0A4F28419497F9722A3DAAFE3B4186F6B6457E0 SWAP2 SWAP1 LOG3 POP POP JUMP JUMPDEST DUP1 MLOAD PUSH1 0x1 PUSH1 0x1 PUSH1 0xA0 SHL SUB DUP2 AND DUP2 EQ PUSH3 0xE3 JUMPI PUSH1 0x0 DUP1 REVERT JUMPDEST SWAP2 SWAP1 POP JUMP JUMPDEST PUSH1 0x0 DUP1 PUSH1 0x0 PUSH1 0x60 DUP5 DUP7 SUB SLT ISZERO PUSH3 0xFE JUMPI PUSH1 0x0 DUP1 REVERT JUMPDEST DUP4 MLOAD SWAP3 POP PUSH3 0x110 PUSH1 0x20 DUP6 ADD PUSH3 0xCB JUMP JUMPDEST SWAP2 POP PUSH3 0x120 PUSH1 0x40 DUP6 ADD PUSH3 0xCB JUMP JUMPDEST SWAP1 POP SWAP3 POP SWAP3 POP SWAP3 JUMP JUMPDEST PUSH1 0x80 MLOAD PUSH1 0x60 SHR PUSH1 0xA0 MLOAD PUSH2 0x25FF PUSH3 0x160 PUSH1 0x0 CODECOPY PUSH1 0x0 DUP2 DUP2 PUSH2 0x2F1 ADD MSTORE PUSH2 0x856 ADD MSTORE PUSH1 0x0 DUP2 DUP2 PUSH2 0x12B ADD MSTORE PUSH2 0xD92 ADD MSTORE PUSH2 0x25FF PUSH1 0x0 RETURN INVALID PUSH1 0x80 PUSH1 0x40 MSTORE CALLVALUE DUP1 ISZERO PUSH2 0x10 JUMPI PUSH1 0x0 DUP1 REVERT JUMPDEST POP PUSH1 0x4 CALLDATASIZE LT PUSH2 0x121 JUMPI PUSH1 0x0 CALLDATALOAD PUSH1 0xE0 SHR DUP1 PUSH4 0x673A2A1F GT PUSH2 0xAD JUMPI DUP1 PUSH4 0xA342F238 GT PUSH2 0x71 JUMPI DUP1 PUSH4 0xA342F238 EQ PUSH2 0x321 JUMPI DUP1 PUSH4 0xCAC626BB EQ PUSH2 0x334 JUMPI DUP1 PUSH4 0xEE9EE0E4 EQ PUSH2 0x347 JUMPI DUP1 PUSH4 0xF2FDE38B EQ PUSH2 0x35A JUMPI DUP1 PUSH4 0xF525CB68 EQ PUSH2 0x36D JUMPI PUSH1 0x0 DUP1 REVERT JUMPDEST DUP1 PUSH4 0x673A2A1F EQ PUSH2 0x2AB JUMPI DUP1 PUSH4 0x712B772F EQ PUSH2 0x2C0 JUMPI DUP1 PUSH4 0x715018A6 EQ PUSH2 0x2D3 JUMPI DUP1 PUSH4 0x8DA5CB5B EQ PUSH2 0x2DB JUMPI DUP1 PUSH4 0x9C37EBB6 EQ PUSH2 0x2EC JUMPI PUSH1 0x0 DUP1 REVERT JUMPDEST DUP1 PUSH4 0x23604071 GT PUSH2 0xF4 JUMPI DUP1 PUSH4 0x23604071 EQ PUSH2 0x234 JUMPI DUP1 PUSH4 0x411557D1 EQ PUSH2 0x247 JUMPI DUP1 PUSH4 0x46CF3E6E EQ PUSH2 0x262 JUMPI DUP1 PUSH4 0x51D48CEA EQ PUSH2 0x275 JUMPI DUP1 PUSH4 0x5B16EBB7 EQ PUSH2 0x288 JUMPI PUSH1 0x0 DUP1 REVERT JUMPDEST DUP1 PUSH4 0x1B1AFF6 EQ PUSH2 0x126 JUMPI DUP1 PUSH4 0x563CD7C EQ PUSH2 0x16A JUMPI DUP1 PUSH4 0x5EA2183 EQ PUSH2 0x17F JUMPI DUP1 PUSH4 0x13D21CDF EQ PUSH2 0x192 JUMPI JUMPDEST PUSH1 0x0 DUP1 REVERT JUMPDEST PUSH2 0x14D PUSH32 0x0 DUP2 JUMP JUMPDEST PUSH1 0x40 MLOAD PUSH1 0x1 PUSH1 0x1 PUSH1 0xA0 SHL SUB SWAP1 SWAP2 AND DUP2 MSTORE PUSH1 0x20 ADD JUMPDEST PUSH1 0x40 MLOAD DUP1 SWAP2 SUB SWAP1 RETURN JUMPDEST PUSH2 0x17D PUSH2 0x178 CALLDATASIZE PUSH1 0x4 PUSH2 0x1D28 JUMP JUMPDEST PUSH2 0x375 JUMP JUMPDEST STOP JUMPDEST PUSH2 0x14D PUSH2 0x18D CALLDATASIZE PUSH1 0x4 PUSH2 0x206C JUMP JUMPDEST PUSH2 0xB4F JUMP JUMPDEST PUSH2 0x207 PUSH2 0x1A0 CALLDATASIZE PUSH1 0x4 PUSH2 0x1CB5 JUMP JUMPDEST PUSH1 0x40 DUP1 MLOAD PUSH1 0x60 DUP2 ADD DUP3 MSTORE PUSH1 0x0 DUP1 DUP3 MSTORE PUSH1 0x20 DUP3 ADD DUP2 SWAP1 MSTORE SWAP2 DUP2 ADD SWAP2 SWAP1 SWAP2 MSTORE POP PUSH1 0x1 PUSH1 0x1 PUSH1 0xA0 SHL SUB SWAP1 DUP2 AND PUSH1 0x0 SWAP1 DUP2 MSTORE PUSH1 0x1 PUSH1 0x20 DUP2 DUP2 MSTORE PUSH1 0x40 SWAP3 DUP4 SWAP1 KECCAK256 DUP4 MLOAD PUSH1 0x60 DUP2 ADD DUP6 MSTORE DUP2 SLOAD SWAP6 DUP7 AND DUP2 MSTORE PUSH1 0x1 PUSH1 0xA0 SHL SWAP1 SWAP6 DIV PUSH1 0xFF AND ISZERO ISZERO SWAP2 DUP6 ADD SWAP2 SWAP1 SWAP2 MSTORE ADD SLOAD SWAP1 DUP3 ADD MSTORE SWAP1 JUMP JUMPDEST PUSH1 0x40 DUP1 MLOAD DUP3 MLOAD PUSH1 0x1 PUSH1 0x1 PUSH1 0xA0 SHL SUB AND DUP2 MSTORE PUSH1 0x20 DUP1 DUP5 ADD MLOAD ISZERO ISZERO SWAP1 DUP3 ADD MSTORE SWAP2 DUP2 ADD MLOAD SWAP1 DUP3 ADD MSTORE PUSH1 0x60 ADD PUSH2 0x161 JUMP JUMPDEST PUSH2 0x17D PUSH2 0x242 CALLDATASIZE PUSH1 0x4 PUSH2 0x1CB5 JUMP JUMPDEST PUSH2 0xB62 JUMP JUMPDEST PUSH2 0x14D PUSH20 0x20DD72ED959B6147912C2E529F0A0C651C33C9CE DUP2 JUMP JUMPDEST PUSH2 0x14D PUSH2 0x270 CALLDATASIZE PUSH1 0x4 PUSH2 0x1EEF JUMP JUMPDEST PUSH2 0xBED JUMP JUMPDEST PUSH2 0x17D PUSH2 0x283 CALLDATASIZE PUSH1 0x4 PUSH2 0x1DB6 JUMP JUMPDEST PUSH2 0x11A2 JUMP JUMPDEST PUSH2 0x29B PUSH2 0x296 CALLDATASIZE PUSH1 0x4 PUSH2 0x1CB5 JUMP JUMPDEST PUSH2 0x1282 JUMP JUMPDEST PUSH1 0x40 MLOAD SWAP1 ISZERO ISZERO DUP2 MSTORE PUSH1 0x20 ADD PUSH2 0x161 JUMP JUMPDEST PUSH2 0x2B3 PUSH2 0x128F JUMP JUMPDEST PUSH1 0x40 MLOAD PUSH2 0x161 SWAP2 SWAP1 PUSH2 0x21C6 JUMP JUMPDEST PUSH2 0x17D PUSH2 0x2CE CALLDATASIZE PUSH1 0x4 PUSH2 0x1CEF JUMP JUMPDEST PUSH2 0x12A0 JUMP JUMPDEST PUSH2 0x17D PUSH2 0x13E0 JUMP JUMPDEST PUSH1 0x0 SLOAD PUSH1 0x1 PUSH1 0x1 PUSH1 0xA0 SHL SUB AND PUSH2 0x14D JUMP JUMPDEST PUSH2 0x313 PUSH32 0x0 DUP2 JUMP JUMPDEST PUSH1 0x40 MLOAD SWAP1 DUP2 MSTORE PUSH1 0x20 ADD PUSH2 0x161 JUMP JUMPDEST PUSH1 0x4 SLOAD PUSH2 0x14D SWAP1 PUSH1 0x1 PUSH1 0x1 PUSH1 0xA0 SHL SUB AND DUP2 JUMP JUMPDEST PUSH2 0x313 PUSH2 0x342 CALLDATASIZE PUSH1 0x4 PUSH2 0x1CB5 JUMP JUMPDEST PUSH2 0x1416 JUMP JUMPDEST PUSH2 0x17D PUSH2 0x355 CALLDATASIZE PUSH1 0x4 PUSH2 0x1CEF JUMP JUMPDEST PUSH2 0x1490 JUMP JUMPDEST PUSH2 0x17D PUSH2 0x368 CALLDATASIZE PUSH1 0x4 PUSH2 0x1CB5 JUMP JUMPDEST PUSH2 0x153A JUMP JUMPDEST PUSH2 0x313 PUSH2 0x15D5 JUMP JUMPDEST PUSH1 0x1 PUSH1 0x1 PUSH1 0xA0 SHL SUB DUP5 DUP2 AND PUSH1 0x0 SWAP1 DUP2 MSTORE PUSH1 0x1 PUSH1 0x20 MSTORE PUSH1 0x40 SWAP1 KECCAK256 SLOAD DUP6 SWAP2 AND CALLER EQ PUSH2 0x3B9 JUMPI PUSH1 0x40 MLOAD PUSH3 0x461BCD PUSH1 0xE5 SHL DUP2 MSTORE PUSH1 0x4 ADD PUSH2 0x3B0 SWAP1 PUSH2 0x2415 JUMP JUMPDEST PUSH1 0x40 MLOAD DUP1 SWAP2 SUB SWAP1 REVERT JUMPDEST PUSH1 0x0 DUP6 PUSH1 0x1 PUSH1 0x1 PUSH1 0xA0 SHL SUB AND PUSH4 0x38FFF2D0 PUSH1 0x40 MLOAD DUP2 PUSH4 0xFFFFFFFF AND PUSH1 0xE0 SHL DUP2 MSTORE PUSH1 0x4 ADD PUSH1 0x20 PUSH1 0x40 MLOAD DUP1 DUP4 SUB DUP2 PUSH1 0x0 DUP8 DUP1 EXTCODESIZE ISZERO DUP1 ISZERO PUSH2 0x3F6 JUMPI PUSH1 0x0 DUP1 REVERT JUMPDEST POP GAS CALL ISZERO DUP1 ISZERO PUSH2 0x40A JUMPI RETURNDATASIZE PUSH1 0x0 DUP1 RETURNDATACOPY RETURNDATASIZE PUSH1 0x0 REVERT JUMPDEST POP POP POP POP PUSH1 0x40 MLOAD RETURNDATASIZE PUSH1 0x1F NOT PUSH1 0x1F DUP3 ADD AND DUP3 ADD DUP1 PUSH1 0x40 MSTORE POP DUP2 ADD SWAP1 PUSH2 0x42E SWAP2 SWAP1 PUSH2 0x1ED6 JUMP JUMPDEST PUSH1 0x40 MLOAD PUSH4 0x1F29A8CD PUSH1 0xE3 SHL DUP2 MSTORE PUSH1 0x4 DUP2 ADD DUP3 SWAP1 MSTORE SWAP1 SWAP2 POP PUSH1 0x0 SWAP1 PUSH20 0x20DD72ED959B6147912C2E529F0A0C651C33C9CE SWAP1 PUSH4 0xF94D4668 SWAP1 PUSH1 0x24 ADD PUSH1 0x0 PUSH1 0x40 MLOAD DUP1 DUP4 SUB DUP2 DUP7 DUP1 EXTCODESIZE ISZERO DUP1 ISZERO PUSH2 0x47F JUMPI PUSH1 0x0 DUP1 REVERT JUMPDEST POP GAS STATICCALL ISZERO DUP1 ISZERO PUSH2 0x493 JUMPI RETURNDATASIZE PUSH1 0x0 DUP1 RETURNDATACOPY RETURNDATASIZE PUSH1 0x0 REVERT JUMPDEST POP POP POP POP PUSH1 0x40 MLOAD RETURNDATASIZE PUSH1 0x0 DUP3 RETURNDATACOPY PUSH1 0x1F RETURNDATASIZE SWAP1 DUP2 ADD PUSH1 0x1F NOT AND DUP3 ADD PUSH1 0x40 MSTORE PUSH2 0x4BB SWAP2 SWAP1 DUP2 ADD SWAP1 PUSH2 0x1DE4 JUMP JUMPDEST POP POP DUP1 MLOAD SWAP1 SWAP2 POP DUP6 EQ PUSH2 0x507 JUMPI PUSH1 0x40 MLOAD PUSH3 0x461BCD PUSH1 0xE5 SHL DUP2 MSTORE PUSH1 0x20 PUSH1 0x4 DUP3 ADD MSTORE PUSH1 0x14 PUSH1 0x24 DUP3 ADD MSTORE PUSH20 0xD2DCECC2D8D2C840D2DCE0EAE840D8CADCCEE8D PUSH1 0x63 SHL PUSH1 0x44 DUP3 ADD MSTORE PUSH1 0x64 ADD PUSH2 0x3B0 JUMP JUMPDEST PUSH1 0x1 PUSH1 0x1 PUSH1 0xA0 SHL SUB DUP8 DUP2 AND PUSH1 0x0 DUP2 DUP2 MSTORE PUSH1 0x1 PUSH1 0x20 DUP2 DUP2 MSTORE PUSH1 0x40 DUP1 DUP5 KECCAK256 DUP2 MLOAD PUSH1 0x60 DUP2 ADD DUP4 MSTORE DUP2 SLOAD SWAP8 DUP9 AND DUP2 MSTORE PUSH1 0x1 PUSH1 0xA0 SHL SWAP1 SWAP8 DIV PUSH1 0xFF AND ISZERO ISZERO SWAP3 DUP8 ADD SWAP3 SWAP1 SWAP3 MSTORE SWAP2 ADD SLOAD DUP5 DUP3 ADD MSTORE MLOAD PUSH4 0x70A08231 PUSH1 0xE0 SHL DUP2 MSTORE ADDRESS PUSH1 0x4 DUP3 ADD MSTORE SWAP1 SWAP2 DUP3 SWAP2 PUSH4 0x70A08231 SWAP1 PUSH1 0x24 ADD PUSH1 0x20 PUSH1 0x40 MLOAD DUP1 DUP4 SUB DUP2 DUP7 DUP1 EXTCODESIZE ISZERO DUP1 ISZERO PUSH2 0x583 JUMPI PUSH1 0x0 DUP1 REVERT JUMPDEST POP GAS STATICCALL ISZERO DUP1 ISZERO PUSH2 0x597 JUMPI RETURNDATASIZE PUSH1 0x0 DUP1 RETURNDATACOPY RETURNDATASIZE PUSH1 0x0 REVERT JUMPDEST POP POP POP POP PUSH1 0x40 MLOAD RETURNDATASIZE PUSH1 0x1F NOT PUSH1 0x1F DUP3 ADD AND DUP3 ADD DUP1 PUSH1 0x40 MSTORE POP DUP2 ADD SWAP1 PUSH2 0x5BB SWAP2 SWAP1 PUSH2 0x1ED6 JUMP JUMPDEST SWAP1 POP DUP1 DUP8 GT ISZERO PUSH2 0x60D JUMPI PUSH1 0x40 MLOAD PUSH3 0x461BCD PUSH1 0xE5 SHL DUP2 MSTORE PUSH1 0x20 PUSH1 0x4 DUP3 ADD MSTORE PUSH1 0x1B PUSH1 0x24 DUP3 ADD MSTORE PUSH32 0x4E6F7420656E6F7567682042505420746F6B656E20616D6F756E740000000000 PUSH1 0x44 DUP3 ADD MSTORE PUSH1 0x64 ADD PUSH2 0x3B0 JUMP JUMPDEST PUSH1 0x0 DUP2 GT PUSH2 0x64C JUMPI PUSH1 0x40 MLOAD PUSH3 0x461BCD PUSH1 0xE5 SHL DUP2 MSTORE PUSH1 0x20 PUSH1 0x4 DUP3 ADD MSTORE PUSH1 0xC PUSH1 0x24 DUP3 ADD MSTORE PUSH12 0x1A5B9D985B1A59081C1BDBDB PUSH1 0xA2 SHL PUSH1 0x44 DUP3 ADD MSTORE PUSH1 0x64 ADD PUSH2 0x3B0 JUMP JUMPDEST DUP7 PUSH2 0x659 JUMPI DUP1 SWAP2 POP PUSH2 0x65D JUMP JUMPDEST DUP7 SWAP2 POP JUMPDEST PUSH1 0x0 PUSH1 0x1 DUP4 PUSH1 0x40 MLOAD PUSH1 0x20 ADD PUSH2 0x673 SWAP3 SWAP2 SWAP1 PUSH2 0x233C JUMP JUMPDEST PUSH1 0x40 MLOAD PUSH1 0x20 DUP2 DUP4 SUB SUB DUP2 MSTORE SWAP1 PUSH1 0x40 MSTORE SWAP1 POP PUSH1 0x0 PUSH1 0x40 MLOAD DUP1 PUSH1 0x80 ADD PUSH1 0x40 MSTORE DUP1 DUP8 DUP2 MSTORE PUSH1 0x20 ADD DUP13 DUP13 DUP1 DUP1 PUSH1 0x20 MUL PUSH1 0x20 ADD PUSH1 0x40 MLOAD SWAP1 DUP2 ADD PUSH1 0x40 MSTORE DUP1 SWAP4 SWAP3 SWAP2 SWAP1 DUP2 DUP2 MSTORE PUSH1 0x20 ADD DUP4 DUP4 PUSH1 0x20 MUL DUP1 DUP3 DUP5 CALLDATACOPY PUSH1 0x0 SWAP3 ADD DUP3 SWAP1 MSTORE POP SWAP4 DUP6 MSTORE POP POP POP PUSH1 0x20 DUP3 ADD DUP6 SWAP1 MSTORE PUSH1 0x40 SWAP2 DUP3 ADD MSTORE MLOAD PUSH4 0x8BDB3913 PUSH1 0xE0 SHL DUP2 MSTORE SWAP1 SWAP2 POP PUSH20 0x20DD72ED959B6147912C2E529F0A0C651C33C9CE SWAP1 PUSH4 0x8BDB3913 SWAP1 PUSH2 0x717 SWAP1 DUP11 SWAP1 ADDRESS SWAP1 DUP2 SWAP1 DUP8 SWAP1 PUSH1 0x4 ADD PUSH2 0x2288 JUMP JUMPDEST PUSH1 0x0 PUSH1 0x40 MLOAD DUP1 DUP4 SUB DUP2 PUSH1 0x0 DUP8 DUP1 EXTCODESIZE ISZERO DUP1 ISZERO PUSH2 0x731 JUMPI PUSH1 0x0 DUP1 REVERT JUMPDEST POP GAS CALL ISZERO DUP1 ISZERO PUSH2 0x745 JUMPI RETURNDATASIZE PUSH1 0x0 DUP1 RETURNDATACOPY RETURNDATASIZE PUSH1 0x0 REVERT JUMPDEST POP POP POP POP DUP12 PUSH1 0x1 PUSH1 0x1 PUSH1 0xA0 SHL SUB AND PUSH32 0xFBBB3D684CC731F4EFF666C8534337F397ECF7937C1ED574F8626F6CB718CC01 DUP8 DUP14 DUP14 DUP7 PUSH1 0x40 MLOAD PUSH2 0x788 SWAP5 SWAP4 SWAP3 SWAP2 SWAP1 PUSH2 0x21D9 JUMP JUMPDEST PUSH1 0x40 MLOAD DUP1 SWAP2 SUB SWAP1 LOG2 PUSH1 0x0 DUP7 DUP7 PUSH1 0x20 ADD MLOAD PUSH2 0x7A3 JUMPI PUSH1 0x1 PUSH2 0x7A6 JUMP JUMPDEST PUSH1 0x0 JUMPDEST PUSH1 0xFF AND DUP2 MLOAD DUP2 LT PUSH2 0x7B9 JUMPI PUSH2 0x7B9 PUSH2 0x257A JUMP JUMPDEST PUSH1 0x20 SWAP1 DUP2 MUL SWAP2 SWAP1 SWAP2 ADD ADD MLOAD PUSH1 0x40 MLOAD PUSH4 0x70A08231 PUSH1 0xE0 SHL DUP2 MSTORE ADDRESS PUSH1 0x4 DUP3 ADD MSTORE SWAP1 SWAP2 POP PUSH1 0x0 SWAP1 PUSH1 0x1 PUSH1 0x1 PUSH1 0xA0 SHL SUB DUP4 AND SWAP1 PUSH4 0x70A08231 SWAP1 PUSH1 0x24 ADD PUSH1 0x20 PUSH1 0x40 MLOAD DUP1 DUP4 SUB DUP2 DUP7 DUP1 EXTCODESIZE ISZERO DUP1 ISZERO PUSH2 0x809 JUMPI PUSH1 0x0 DUP1 REVERT JUMPDEST POP GAS STATICCALL ISZERO DUP1 ISZERO PUSH2 0x81D JUMPI RETURNDATASIZE PUSH1 0x0 DUP1 RETURNDATACOPY RETURNDATASIZE PUSH1 0x0 REVERT JUMPDEST POP POP POP POP PUSH1 0x40 MLOAD RETURNDATASIZE PUSH1 0x1F NOT PUSH1 0x1F DUP3 ADD AND DUP3 ADD DUP1 PUSH1 0x40 MSTORE POP DUP2 ADD SWAP1 PUSH2 0x841 SWAP2 SWAP1 PUSH2 0x1ED6 JUMP JUMPDEST SWAP1 POP DUP7 PUSH1 0x40 ADD MLOAD DUP2 GT ISZERO PUSH2 0x910 JUMPI PUSH1 0x0 PUSH2 0x2710 PUSH32 0x0 DUP10 PUSH1 0x40 ADD MLOAD DUP5 PUSH2 0x885 SWAP2 SWAP1 PUSH2 0x251D JUMP JUMPDEST PUSH2 0x88F SWAP2 SWAP1 PUSH2 0x24FE JUMP JUMPDEST PUSH2 0x899 SWAP2 SWAP1 PUSH2 0x24DC JUMP JUMPDEST PUSH1 0x4 SLOAD SWAP1 SWAP2 POP PUSH2 0x8B4 SWAP1 DUP5 SWAP1 PUSH1 0x1 PUSH1 0x1 PUSH1 0xA0 SHL SUB AND DUP4 PUSH2 0x15E1 JUMP JUMPDEST DUP15 PUSH1 0x1 PUSH1 0x1 PUSH1 0xA0 SHL SUB AND PUSH32 0x52B4A48C36F647498BA38EFEAED299EB5E0F7688E76359A58F55738FF7725AF2 DUP5 PUSH1 0x4 PUSH1 0x0 SWAP1 SLOAD SWAP1 PUSH2 0x100 EXP SWAP1 DIV PUSH1 0x1 PUSH1 0x1 PUSH1 0xA0 SHL SUB AND DUP5 PUSH1 0x40 MLOAD PUSH2 0x906 SWAP4 SWAP3 SWAP2 SWAP1 PUSH2 0x21A2 JUMP JUMPDEST PUSH1 0x40 MLOAD DUP1 SWAP2 SUB SWAP1 LOG2 POP JUMPDEST PUSH1 0x0 DUP9 PUSH1 0x0 DUP2 MLOAD DUP2 LT PUSH2 0x925 JUMPI PUSH2 0x925 PUSH2 0x257A JUMP JUMPDEST PUSH1 0x20 SWAP1 DUP2 MUL SWAP2 SWAP1 SWAP2 ADD ADD MLOAD PUSH1 0x40 MLOAD PUSH4 0x70A08231 PUSH1 0xE0 SHL DUP2 MSTORE ADDRESS PUSH1 0x4 DUP3 ADD MSTORE PUSH1 0x1 PUSH1 0x1 PUSH1 0xA0 SHL SUB SWAP1 SWAP2 AND SWAP1 PUSH4 0x70A08231 SWAP1 PUSH1 0x24 ADD PUSH1 0x20 PUSH1 0x40 MLOAD DUP1 DUP4 SUB DUP2 DUP7 DUP1 EXTCODESIZE ISZERO DUP1 ISZERO PUSH2 0x970 JUMPI PUSH1 0x0 DUP1 REVERT JUMPDEST POP GAS STATICCALL ISZERO DUP1 ISZERO PUSH2 0x984 JUMPI RETURNDATASIZE PUSH1 0x0 DUP1 RETURNDATACOPY RETURNDATASIZE PUSH1 0x0 REVERT JUMPDEST POP POP POP POP PUSH1 0x40 MLOAD RETURNDATASIZE PUSH1 0x1F NOT PUSH1 0x1F DUP3 ADD AND DUP3 ADD DUP1 PUSH1 0x40 MSTORE POP DUP2 ADD SWAP1 PUSH2 0x9A8 SWAP2 SWAP1 PUSH2 0x1ED6 JUMP JUMPDEST SWAP1 POP PUSH2 0x9CF DUP10 PUSH1 0x0 DUP2 MLOAD DUP2 LT PUSH2 0x9C0 JUMPI PUSH2 0x9C0 PUSH2 0x257A JUMP JUMPDEST PUSH1 0x20 MUL PUSH1 0x20 ADD ADD MLOAD CALLER DUP4 PUSH2 0x15E1 JUMP JUMPDEST DUP15 PUSH1 0x1 PUSH1 0x1 PUSH1 0xA0 SHL SUB AND PUSH32 0x235D80DB0A4B8DC1E99BBA791B835D938CBC8CB023A88FDABA36AAFD2AA9B276 DUP11 PUSH1 0x0 DUP2 MLOAD DUP2 LT PUSH2 0xA0D JUMPI PUSH2 0xA0D PUSH2 0x257A JUMP JUMPDEST PUSH1 0x20 MUL PUSH1 0x20 ADD ADD MLOAD CALLER DUP5 PUSH1 0x40 MLOAD PUSH2 0xA26 SWAP4 SWAP3 SWAP2 SWAP1 PUSH2 0x21A2 JUMP JUMPDEST PUSH1 0x40 MLOAD DUP1 SWAP2 SUB SWAP1 LOG2 PUSH1 0x0 DUP10 PUSH1 0x1 DUP2 MLOAD DUP2 LT PUSH2 0xA43 JUMPI PUSH2 0xA43 PUSH2 0x257A JUMP JUMPDEST PUSH1 0x20 SWAP1 DUP2 MUL SWAP2 SWAP1 SWAP2 ADD ADD MLOAD PUSH1 0x40 MLOAD PUSH4 0x70A08231 PUSH1 0xE0 SHL DUP2 MSTORE ADDRESS PUSH1 0x4 DUP3 ADD MSTORE PUSH1 0x1 PUSH1 0x1 PUSH1 0xA0 SHL SUB SWAP1 SWAP2 AND SWAP1 PUSH4 0x70A08231 SWAP1 PUSH1 0x24 ADD PUSH1 0x20 PUSH1 0x40 MLOAD DUP1 DUP4 SUB DUP2 DUP7 DUP1 EXTCODESIZE ISZERO DUP1 ISZERO PUSH2 0xA8E JUMPI PUSH1 0x0 DUP1 REVERT JUMPDEST POP GAS STATICCALL ISZERO DUP1 ISZERO PUSH2 0xAA2 JUMPI RETURNDATASIZE PUSH1 0x0 DUP1 RETURNDATACOPY RETURNDATASIZE PUSH1 0x0 REVERT JUMPDEST POP POP POP POP PUSH1 0x40 MLOAD RETURNDATASIZE PUSH1 0x1F NOT PUSH1 0x1F DUP3 ADD AND DUP3 ADD DUP1 PUSH1 0x40 MSTORE POP DUP2 ADD SWAP1 PUSH2 0xAC6 SWAP2 SWAP1 PUSH2 0x1ED6 JUMP JUMPDEST SWAP1 POP PUSH2 0xADE DUP11 PUSH1 0x1 DUP2 MLOAD DUP2 LT PUSH2 0x9C0 JUMPI PUSH2 0x9C0 PUSH2 0x257A JUMP JUMPDEST DUP16 PUSH1 0x1 PUSH1 0x1 PUSH1 0xA0 SHL SUB AND PUSH32 0x235D80DB0A4B8DC1E99BBA791B835D938CBC8CB023A88FDABA36AAFD2AA9B276 DUP12 PUSH1 0x1 DUP2 MLOAD DUP2 LT PUSH2 0xB1C JUMPI PUSH2 0xB1C PUSH2 0x257A JUMP JUMPDEST PUSH1 0x20 MUL PUSH1 0x20 ADD ADD MLOAD CALLER DUP5 PUSH1 0x40 MLOAD PUSH2 0xB35 SWAP4 SWAP3 SWAP2 SWAP1 PUSH2 0x21A2 JUMP JUMPDEST PUSH1 0x40 MLOAD DUP1 SWAP2 SUB SWAP1 LOG2 POP POP POP POP POP POP POP POP POP POP POP POP POP POP POP POP JUMP JUMPDEST PUSH1 0x0 PUSH2 0xB5C PUSH1 0x2 DUP4 PUSH2 0x1712 JUMP JUMPDEST SWAP3 SWAP2 POP POP JUMP JUMPDEST PUSH1 0x0 SLOAD PUSH1 0x1 PUSH1 0x1 PUSH1 0xA0 SHL SUB AND CALLER EQ PUSH2 0xB8C JUMPI PUSH1 0x40 MLOAD PUSH3 0x461BCD PUSH1 0xE5 SHL DUP2 MSTORE PUSH1 0x4 ADD PUSH2 0x3B0 SWAP1 PUSH2 0x23E0 JUMP JUMPDEST PUSH1 0x4 DUP1 SLOAD PUSH1 0x1 PUSH1 0x1 PUSH1 0xA0 SHL SUB DUP4 DUP2 AND PUSH1 0x1 PUSH1 0x1 PUSH1 0xA0 SHL SUB NOT DUP4 AND DUP2 OR SWAP1 SWAP4 SSTORE PUSH1 0x40 DUP1 MLOAD SWAP2 SWAP1 SWAP3 AND DUP1 DUP3 MSTORE PUSH1 0x20 DUP3 ADD SWAP4 SWAP1 SWAP4 MSTORE PUSH32 0xC335CA37F71E695337F94E5078421114AEE3F4C5D97E824EFAF8578318E5E8C8 SWAP2 ADD PUSH1 0x40 MLOAD DUP1 SWAP2 SUB SWAP1 LOG1 POP POP JUMP JUMPDEST PUSH1 0x0 DUP2 PUSH1 0x40 ADD MLOAD MLOAD PUSH1 0x2 EQ PUSH2 0xC36 JUMPI PUSH1 0x40 MLOAD PUSH3 0x461BCD PUSH1 0xE5 SHL DUP2 MSTORE PUSH1 0x20 PUSH1 0x4 DUP3 ADD MSTORE PUSH1 0xF PUSH1 0x24 DUP3 ADD MSTORE PUSH15 0x6F6E6C792074776F20746F6B656E73 PUSH1 0x88 SHL PUSH1 0x44 DUP3 ADD MSTORE PUSH1 0x64 ADD PUSH2 0x3B0 JUMP JUMPDEST PUSH2 0xC7E DUP3 PUSH1 0x40 ADD MLOAD PUSH1 0x0 DUP2 MLOAD DUP2 LT PUSH2 0xC50 JUMPI PUSH2 0xC50 PUSH2 0x257A JUMP JUMPDEST PUSH1 0x20 MUL PUSH1 0x20 ADD ADD MLOAD CALLER ADDRESS DUP6 PUSH1 0x60 ADD MLOAD PUSH1 0x0 DUP2 MLOAD DUP2 LT PUSH2 0xC71 JUMPI PUSH2 0xC71 PUSH2 0x257A JUMP JUMPDEST PUSH1 0x20 MUL PUSH1 0x20 ADD ADD MLOAD PUSH2 0x1725 JUMP JUMPDEST PUSH2 0xCB9 DUP3 PUSH1 0x40 ADD MLOAD PUSH1 0x1 DUP2 MLOAD DUP2 LT PUSH2 0xC98 JUMPI PUSH2 0xC98 PUSH2 0x257A JUMP JUMPDEST PUSH1 0x20 MUL PUSH1 0x20 ADD ADD MLOAD CALLER ADDRESS DUP6 PUSH1 0x60 ADD MLOAD PUSH1 0x1 DUP2 MLOAD DUP2 LT PUSH2 0xC71 JUMPI PUSH2 0xC71 PUSH2 0x257A JUMP JUMPDEST PUSH2 0xD14 DUP3 PUSH1 0x40 ADD MLOAD PUSH1 0x0 DUP2 MLOAD DUP2 LT PUSH2 0xCD3 JUMPI PUSH2 0xCD3 PUSH2 0x257A JUMP JUMPDEST PUSH1 0x20 MUL PUSH1 0x20 ADD ADD MLOAD PUSH20 0x20DD72ED959B6147912C2E529F0A0C651C33C9CE DUP5 PUSH1 0x60 ADD MLOAD PUSH1 0x0 DUP2 MLOAD DUP2 LT PUSH2 0xD07 JUMPI PUSH2 0xD07 PUSH2 0x257A JUMP JUMPDEST PUSH1 0x20 MUL PUSH1 0x20 ADD ADD MLOAD PUSH2 0x185F JUMP JUMPDEST PUSH2 0xD62 DUP3 PUSH1 0x40 ADD MLOAD PUSH1 0x1 DUP2 MLOAD DUP2 LT PUSH2 0xD2E JUMPI PUSH2 0xD2E PUSH2 0x257A JUMP JUMPDEST PUSH1 0x20 MUL PUSH1 0x20 ADD ADD MLOAD PUSH20 0x20DD72ED959B6147912C2E529F0A0C651C33C9CE DUP5 PUSH1 0x60 ADD MLOAD PUSH1 0x1 DUP2 MLOAD DUP2 LT PUSH2 0xD07 JUMPI PUSH2 0xD07 PUSH2 0x257A JUMP JUMPDEST DUP2 MLOAD PUSH1 0x20 DUP4 ADD MLOAD PUSH1 0x40 DUP1 DUP6 ADD MLOAD PUSH1 0x80 DUP7 ADD MLOAD PUSH1 0xE0 DUP8 ADD MLOAD SWAP3 MLOAD PUSH4 0x23679719 PUSH1 0xE0 SHL DUP2 MSTORE PUSH1 0x0 SWAP6 PUSH1 0x1 PUSH1 0x1 PUSH1 0xA0 SHL SUB PUSH32 0x0 AND SWAP6 PUSH4 0x23679719 SWAP6 PUSH2 0xDCD SWAP6 SWAP3 SWAP5 SWAP2 SWAP4 ADDRESS SWAP1 DUP11 SWAP1 PUSH1 0x4 ADD PUSH2 0x2368 JUMP JUMPDEST PUSH1 0x20 PUSH1 0x40 MLOAD DUP1 DUP4 SUB DUP2 PUSH1 0x0 DUP8 DUP1 EXTCODESIZE ISZERO DUP1 ISZERO PUSH2 0xDE7 JUMPI PUSH1 0x0 DUP1 REVERT JUMPDEST POP GAS CALL ISZERO DUP1 ISZERO PUSH2 0xDFB JUMPI RETURNDATASIZE PUSH1 0x0 DUP1 RETURNDATACOPY RETURNDATASIZE PUSH1 0x0 REVERT JUMPDEST POP POP POP POP PUSH1 0x40 MLOAD RETURNDATASIZE PUSH1 0x1F NOT PUSH1 0x1F DUP3 ADD AND DUP3 ADD DUP1 PUSH1 0x40 MSTORE POP DUP2 ADD SWAP1 PUSH2 0xE1F SWAP2 SWAP1 PUSH2 0x1CD2 JUMP JUMPDEST SWAP1 POP PUSH1 0x0 DUP2 PUSH1 0x1 PUSH1 0x1 PUSH1 0xA0 SHL SUB AND PUSH4 0x38FFF2D0 PUSH1 0x40 MLOAD DUP2 PUSH4 0xFFFFFFFF AND PUSH1 0xE0 SHL DUP2 MSTORE PUSH1 0x4 ADD PUSH1 0x20 PUSH1 0x40 MLOAD DUP1 DUP4 SUB DUP2 PUSH1 0x0 DUP8 DUP1 EXTCODESIZE ISZERO DUP1 ISZERO PUSH2 0xE5E JUMPI PUSH1 0x0 DUP1 REVERT JUMPDEST POP GAS CALL ISZERO DUP1 ISZERO PUSH2 0xE72 JUMPI RETURNDATASIZE PUSH1 0x0 DUP1 RETURNDATACOPY RETURNDATASIZE PUSH1 0x0 REVERT JUMPDEST POP POP POP POP PUSH1 0x40 MLOAD RETURNDATASIZE PUSH1 0x1F NOT PUSH1 0x1F DUP3 ADD AND DUP3 ADD DUP1 PUSH1 0x40 MSTORE POP DUP2 ADD SWAP1 PUSH2 0xE96 SWAP2 SWAP1 PUSH2 0x1ED6 JUMP JUMPDEST SWAP1 POP DUP2 PUSH1 0x1 PUSH1 0x1 PUSH1 0xA0 SHL SUB AND PUSH32 0x2B416CE78F01C3304331A3A35005EE09BFB64C878F2BE9849FC9909101BC61AC DUP3 DUP7 PUSH1 0x0 ADD MLOAD DUP8 PUSH1 0x20 ADD MLOAD DUP9 PUSH1 0x40 ADD MLOAD DUP10 PUSH1 0x80 ADD MLOAD DUP11 PUSH1 0xE0 ADD MLOAD ADDRESS PUSH1 0x0 PUSH1 0x40 MLOAD PUSH2 0xEF4 SWAP9 SWAP8 SWAP7 SWAP6 SWAP5 SWAP4 SWAP3 SWAP2 SWAP1 PUSH2 0x22BA JUMP JUMPDEST PUSH1 0x40 MLOAD DUP1 SWAP2 SUB SWAP1 LOG2 PUSH1 0x40 MLOAD DUP1 PUSH1 0x60 ADD PUSH1 0x40 MSTORE DUP1 CALLER PUSH1 0x1 PUSH1 0x1 PUSH1 0xA0 SHL SUB AND DUP2 MSTORE PUSH1 0x20 ADD DUP6 PUSH1 0xC0 ADD MLOAD ISZERO ISZERO DUP2 MSTORE PUSH1 0x20 ADD DUP6 PUSH1 0x60 ADD MLOAD DUP7 PUSH1 0xC0 ADD MLOAD PUSH2 0xF37 JUMPI PUSH1 0x1 PUSH2 0xF3A JUMP JUMPDEST PUSH1 0x0 JUMPDEST PUSH1 0xFF AND DUP2 MLOAD DUP2 LT PUSH2 0xF4D JUMPI PUSH2 0xF4D PUSH2 0x257A JUMP JUMPDEST PUSH1 0x20 SWAP1 DUP2 MUL SWAP2 SWAP1 SWAP2 ADD DUP2 ADD MLOAD SWAP1 SWAP2 MSTORE PUSH1 0x1 PUSH1 0x1 PUSH1 0xA0 SHL SUB DUP1 DUP6 AND PUSH1 0x0 SWAP1 DUP2 MSTORE PUSH1 0x1 DUP1 DUP5 MSTORE PUSH1 0x40 SWAP2 DUP3 SWAP1 KECCAK256 DUP6 MLOAD DUP2 SLOAD SWAP6 DUP8 ADD MLOAD ISZERO ISZERO PUSH1 0x1 PUSH1 0xA0 SHL MUL PUSH1 0x1 PUSH1 0x1 PUSH1 0xA8 SHL SUB NOT SWAP1 SWAP7 AND SWAP5 AND SWAP4 SWAP1 SWAP4 OR SWAP4 SWAP1 SWAP4 OR DUP3 SSTORE SWAP3 SWAP1 SWAP3 ADD MLOAD SWAP2 ADD SSTORE PUSH2 0xFB2 PUSH1 0x2 DUP4 PUSH2 0x1987 JUMP JUMPDEST PUSH2 0xFEF JUMPI PUSH1 0x40 MLOAD PUSH3 0x461BCD PUSH1 0xE5 SHL DUP2 MSTORE PUSH1 0x20 PUSH1 0x4 DUP3 ADD MSTORE PUSH1 0xE PUSH1 0x24 DUP3 ADD MSTORE PUSH14 0x65786973747320616C7265616479 PUSH1 0x90 SHL PUSH1 0x44 DUP3 ADD MSTORE PUSH1 0x64 ADD PUSH2 0x3B0 JUMP JUMPDEST PUSH1 0x40 DUP1 MLOAD PUSH1 0x80 DUP2 ADD DUP3 MSTORE DUP6 DUP3 ADD MLOAD DUP2 MSTORE PUSH1 0x60 DUP1 DUP8 ADD MLOAD PUSH1 0x20 DUP4 ADD MSTORE PUSH2 0x100 DUP8 ADD MLOAD DUP3 DUP5 ADD MSTORE PUSH1 0x0 SWAP1 DUP3 ADD MSTORE SWAP1 MLOAD PUSH4 0x172B9585 PUSH1 0xE3 SHL DUP2 MSTORE PUSH20 0x20DD72ED959B6147912C2E529F0A0C651C33C9CE SWAP2 PUSH4 0xB95CAC28 SWAP2 PUSH2 0x1054 SWAP2 DUP6 SWAP2 ADDRESS SWAP2 DUP3 SWAP2 PUSH1 0x4 ADD PUSH2 0x2288 JUMP JUMPDEST PUSH1 0x0 PUSH1 0x40 MLOAD DUP1 DUP4 SUB DUP2 PUSH1 0x0 DUP8 DUP1 EXTCODESIZE ISZERO DUP1 ISZERO PUSH2 0x106E JUMPI PUSH1 0x0 DUP1 REVERT JUMPDEST POP GAS CALL ISZERO DUP1 ISZERO PUSH2 0x1082 JUMPI RETURNDATASIZE PUSH1 0x0 DUP1 RETURNDATACOPY RETURNDATASIZE PUSH1 0x0 REVERT JUMPDEST POP POP POP POP DUP2 PUSH1 0x1 PUSH1 0x1 PUSH1 0xA0 SHL SUB AND PUSH32 0x5DCDC6C8B7B09C26D0C867E99F2B7389B69D982AA8F10B1373F84667A8F58B35 DUP6 PUSH1 0x40 ADD MLOAD DUP7 PUSH1 0x60 ADD MLOAD DUP8 PUSH2 0x100 ADD MLOAD PUSH1 0x40 MLOAD PUSH2 0x10D0 SWAP4 SWAP3 SWAP2 SWAP1 PUSH2 0x2245 JUMP JUMPDEST PUSH1 0x40 MLOAD DUP1 SWAP2 SUB SWAP1 LOG2 DUP2 PUSH1 0x1 PUSH1 0x1 PUSH1 0xA0 SHL SUB AND PUSH4 0x3E569205 DUP6 PUSH2 0x120 ADD MLOAD DUP7 PUSH2 0x140 ADD MLOAD DUP8 PUSH1 0xA0 ADD MLOAD PUSH1 0x40 MLOAD DUP5 PUSH4 0xFFFFFFFF AND PUSH1 0xE0 SHL DUP2 MSTORE PUSH1 0x4 ADD PUSH2 0x1116 SWAP4 SWAP3 SWAP2 SWAP1 PUSH2 0x2435 JUMP JUMPDEST PUSH1 0x0 PUSH1 0x40 MLOAD DUP1 DUP4 SUB DUP2 PUSH1 0x0 DUP8 DUP1 EXTCODESIZE ISZERO DUP1 ISZERO PUSH2 0x1130 JUMPI PUSH1 0x0 DUP1 REVERT JUMPDEST POP GAS CALL ISZERO DUP1 ISZERO PUSH2 0x1144 JUMPI RETURNDATASIZE PUSH1 0x0 DUP1 RETURNDATACOPY RETURNDATASIZE PUSH1 0x0 REVERT JUMPDEST POP POP POP POP DUP2 PUSH1 0x1 PUSH1 0x1 PUSH1 0xA0 SHL SUB AND PUSH32 0x5B604C3EB0508FC702242270D353C7673F02B609E03862E244766785E39C278C DUP6 PUSH2 0x120 ADD MLOAD DUP7 PUSH2 0x140 ADD MLOAD DUP8 PUSH1 0xA0 ADD MLOAD PUSH1 0x40 MLOAD PUSH2 0x1193 SWAP4 SWAP3 SWAP2 SWAP1 PUSH2 0x2435 JUMP JUMPDEST PUSH1 0x40 MLOAD DUP1 SWAP2 SUB SWAP1 LOG2 POP SWAP3 SWAP2 POP POP JUMP JUMPDEST PUSH1 0x1 PUSH1 0x1 PUSH1 0xA0 SHL SUB DUP3 DUP2 AND PUSH1 0x0 SWAP1 DUP2 MSTORE PUSH1 0x1 PUSH1 0x20 MSTORE PUSH1 0x40 SWAP1 KECCAK256 SLOAD DUP4 SWAP2 AND CALLER EQ PUSH2 0x11DD JUMPI PUSH1 0x40 MLOAD PUSH3 0x461BCD PUSH1 0xE5 SHL DUP2 MSTORE PUSH1 0x4 ADD PUSH2 0x3B0 SWAP1 PUSH2 0x2415 JUMP JUMPDEST PUSH1 0x40 MLOAD PUSH4 0x3806BE4B PUSH1 0xE2 SHL DUP2 MSTORE DUP3 ISZERO ISZERO PUSH1 0x4 DUP3 ADD MSTORE PUSH1 0x1 PUSH1 0x1 PUSH1 0xA0 SHL SUB DUP5 AND SWAP1 PUSH4 0xE01AF92C SWAP1 PUSH1 0x24 ADD PUSH1 0x0 PUSH1 0x40 MLOAD DUP1 DUP4 SUB DUP2 PUSH1 0x0 DUP8 DUP1 EXTCODESIZE ISZERO DUP1 ISZERO PUSH2 0x1220 JUMPI PUSH1 0x0 DUP1 REVERT JUMPDEST POP GAS CALL ISZERO DUP1 ISZERO PUSH2 0x1234 JUMPI RETURNDATASIZE PUSH1 0x0 DUP1 RETURNDATACOPY RETURNDATASIZE PUSH1 0x0 REVERT JUMPDEST POP POP POP POP DUP3 PUSH1 0x1 PUSH1 0x1 PUSH1 0xA0 SHL SUB AND PUSH32 0xDC5BC5B27F91CBE9BAD8B85E20C9519FB6D126629108F16D474AF76579696EA9 DUP4 PUSH1 0x40 MLOAD PUSH2 0x1275 SWAP2 ISZERO ISZERO DUP2 MSTORE PUSH1 0x20 ADD SWAP1 JUMP JUMPDEST PUSH1 0x40 MLOAD DUP1 SWAP2 SUB SWAP1 LOG2 POP POP POP JUMP JUMPDEST PUSH1 0x0 PUSH2 0xB5C PUSH1 0x2 DUP4 PUSH2 0x199C JUMP JUMPDEST PUSH1 0x60 PUSH2 0x129B PUSH1 0x2 PUSH2 0x19BE JUMP JUMPDEST SWAP1 POP SWAP1 JUMP JUMPDEST PUSH1 0x0 SLOAD PUSH1 0x1 PUSH1 0x1 PUSH1 0xA0 SHL SUB AND CALLER EQ PUSH2 0x12CA JUMPI PUSH1 0x40 MLOAD PUSH3 0x461BCD PUSH1 0xE5 SHL DUP2 MSTORE PUSH1 0x4 ADD PUSH2 0x3B0 SWAP1 PUSH2 0x23E0 JUMP JUMPDEST PUSH2 0x12D5 PUSH1 0x2 DUP4 PUSH2 0x199C JUMP JUMPDEST ISZERO PUSH2 0x1319 JUMPI PUSH1 0x40 MLOAD PUSH3 0x461BCD PUSH1 0xE5 SHL DUP2 MSTORE PUSH1 0x20 PUSH1 0x4 DUP3 ADD MSTORE PUSH1 0x14 PUSH1 0x24 DUP3 ADD MSTORE PUSH20 0x31B0B713BA1039B5B4B690262128103A37B5B2B7 PUSH1 0x61 SHL PUSH1 0x44 DUP3 ADD MSTORE PUSH1 0x64 ADD PUSH2 0x3B0 JUMP JUMPDEST PUSH1 0x40 MLOAD PUSH4 0x70A08231 PUSH1 0xE0 SHL DUP2 MSTORE ADDRESS PUSH1 0x4 DUP3 ADD MSTORE PUSH1 0x0 SWAP1 PUSH1 0x1 PUSH1 0x1 PUSH1 0xA0 SHL SUB DUP5 AND SWAP1 PUSH4 0x70A08231 SWAP1 PUSH1 0x24 ADD PUSH1 0x20 PUSH1 0x40 MLOAD DUP1 DUP4 SUB DUP2 DUP7 DUP1 EXTCODESIZE ISZERO DUP1 ISZERO PUSH2 0x135B JUMPI PUSH1 0x0 DUP1 REVERT JUMPDEST POP GAS STATICCALL ISZERO DUP1 ISZERO PUSH2 0x136F JUMPI RETURNDATASIZE PUSH1 0x0 DUP1 RETURNDATACOPY RETURNDATASIZE PUSH1 0x0 REVERT JUMPDEST POP POP POP POP PUSH1 0x40 MLOAD RETURNDATASIZE PUSH1 0x1F NOT PUSH1 0x1F DUP3 ADD AND DUP3 ADD DUP1 PUSH1 0x40 MSTORE POP DUP2 ADD SWAP1 PUSH2 0x1393 SWAP2 SWAP1 PUSH2 0x1ED6 JUMP JUMPDEST SWAP1 POP PUSH2 0x13A0 DUP4 DUP4 DUP4 PUSH2 0x15E1 JUMP JUMPDEST PUSH32 0xCFB7D414A57E3FD35DA9F4B61341E65026C225646228BA0262D9264F541C32E DUP4 DUP4 DUP4 PUSH1 0x40 MLOAD PUSH2 0x13D3 SWAP4 SWAP3 SWAP2 SWAP1 PUSH2 0x21A2 JUMP JUMPDEST PUSH1 0x40 MLOAD DUP1 SWAP2 SUB SWAP1 LOG1 POP POP POP JUMP JUMPDEST PUSH1 0x0 SLOAD PUSH1 0x1 PUSH1 0x1 PUSH1 0xA0 SHL SUB AND CALLER EQ PUSH2 0x140A JUMPI PUSH1 0x40 MLOAD PUSH3 0x461BCD PUSH1 0xE5 SHL DUP2 MSTORE PUSH1 0x4 ADD PUSH2 0x3B0 SWAP1 PUSH2 0x23E0 JUMP JUMPDEST PUSH2 0x1414 PUSH1 0x0 PUSH2 0x19CB JUMP JUMPDEST JUMP JUMPDEST PUSH1 0x40 MLOAD PUSH4 0x70A08231 PUSH1 0xE0 SHL DUP2 MSTORE ADDRESS PUSH1 0x4 DUP3 ADD MSTORE PUSH1 0x0 SWAP1 PUSH1 0x1 PUSH1 0x1 PUSH1 0xA0 SHL SUB DUP4 AND SWAP1 PUSH4 0x70A08231 SWAP1 PUSH1 0x24 ADD PUSH1 0x20 PUSH1 0x40 MLOAD DUP1 DUP4 SUB DUP2 DUP7 DUP1 EXTCODESIZE ISZERO DUP1 ISZERO PUSH2 0x1458 JUMPI PUSH1 0x0 DUP1 REVERT JUMPDEST POP GAS STATICCALL ISZERO DUP1 ISZERO PUSH2 0x146C JUMPI RETURNDATASIZE PUSH1 0x0 DUP1 RETURNDATACOPY RETURNDATASIZE PUSH1 0x0 REVERT JUMPDEST POP POP POP POP PUSH1 0x40 MLOAD RETURNDATASIZE PUSH1 0x1F NOT PUSH1 0x1F DUP3 ADD AND DUP3 ADD DUP1 PUSH1 0x40 MSTORE POP DUP2 ADD SWAP1 PUSH2 0xB5C SWAP2 SWAP1 PUSH2 0x1ED6 JUMP JUMPDEST PUSH1 0x1 PUSH1 0x1 PUSH1 0xA0 SHL SUB DUP3 DUP2 AND PUSH1 0x0 SWAP1 DUP2 MSTORE PUSH1 0x1 PUSH1 0x20 MSTORE PUSH1 0x40 SWAP1 KECCAK256 SLOAD DUP4 SWAP2 AND CALLER EQ PUSH2 0x14CB JUMPI PUSH1 0x40 MLOAD PUSH3 0x461BCD PUSH1 0xE5 SHL DUP2 MSTORE PUSH1 0x4 ADD PUSH2 0x3B0 SWAP1 PUSH2 0x2415 JUMP JUMPDEST PUSH1 0x1 PUSH1 0x1 PUSH1 0xA0 SHL SUB DUP4 DUP2 AND PUSH1 0x0 DUP2 DUP2 MSTORE PUSH1 0x1 PUSH1 0x20 SWAP1 DUP2 MSTORE PUSH1 0x40 SWAP2 DUP3 SWAP1 KECCAK256 DUP1 SLOAD DUP8 DUP7 AND PUSH1 0x1 PUSH1 0x1 PUSH1 0xA0 SHL SUB NOT DUP3 AND DUP2 OR SWAP1 SWAP3 SSTORE DUP4 MLOAD SWAP6 AND DUP1 DUP7 MSTORE SWAP2 DUP6 ADD MSTORE SWAP3 PUSH32 0x794FB907C01822765502A338368BDC2F31EF538F609DCC19BE5629FEE0CEDCD8 SWAP2 ADD PUSH1 0x40 MLOAD DUP1 SWAP2 SUB SWAP1 LOG2 POP POP POP POP JUMP JUMPDEST PUSH1 0x0 SLOAD PUSH1 0x1 PUSH1 0x1 PUSH1 0xA0 SHL SUB AND CALLER EQ PUSH2 0x1564 JUMPI PUSH1 0x40 MLOAD PUSH3 0x461BCD PUSH1 0xE5 SHL DUP2 MSTORE PUSH1 0x4 ADD PUSH2 0x3B0 SWAP1 PUSH2 0x23E0 JUMP JUMPDEST PUSH1 0x1 PUSH1 0x1 PUSH1 0xA0 SHL SUB DUP2 AND PUSH2 0x15C9 JUMPI PUSH1 0x40 MLOAD PUSH3 0x461BCD PUSH1 0xE5 SHL DUP2 MSTORE PUSH1 0x20 PUSH1 0x4 DUP3 ADD MSTORE PUSH1 0x26 PUSH1 0x24 DUP3 ADD MSTORE PUSH32 0x4F776E61626C653A206E6577206F776E657220697320746865207A65726F2061 PUSH1 0x44 DUP3 ADD MSTORE PUSH6 0x646472657373 PUSH1 0xD0 SHL PUSH1 0x64 DUP3 ADD MSTORE PUSH1 0x84 ADD PUSH2 0x3B0 JUMP JUMPDEST PUSH2 0x15D2 DUP2 PUSH2 0x19CB JUMP JUMPDEST POP JUMP JUMPDEST PUSH1 0x0 PUSH2 0x129B PUSH1 0x2 PUSH2 0x1A1B JUMP JUMPDEST PUSH1 0x40 DUP1 MLOAD PUSH1 0x1 PUSH1 0x1 PUSH1 0xA0 SHL SUB DUP5 DUP2 AND PUSH1 0x24 DUP4 ADD MSTORE PUSH1 0x44 DUP1 DUP4 ADD DUP6 SWAP1 MSTORE DUP4 MLOAD DUP1 DUP5 SUB SWAP1 SWAP2 ADD DUP2 MSTORE PUSH1 0x64 SWAP1 SWAP3 ADD DUP4 MSTORE PUSH1 0x20 DUP3 ADD DUP1 MLOAD PUSH1 0x1 PUSH1 0x1 PUSH1 0xE0 SHL SUB AND PUSH4 0xA9059CBB PUSH1 0xE0 SHL OR SWAP1 MSTORE SWAP2 MLOAD PUSH1 0x0 SWAP3 DUP4 SWAP3 SWAP1 DUP8 AND SWAP2 PUSH2 0x163D SWAP2 SWAP1 PUSH2 0x2186 JUMP JUMPDEST PUSH1 0x0 PUSH1 0x40 MLOAD DUP1 DUP4 SUB DUP2 PUSH1 0x0 DUP7 GAS CALL SWAP2 POP POP RETURNDATASIZE DUP1 PUSH1 0x0 DUP2 EQ PUSH2 0x167A JUMPI PUSH1 0x40 MLOAD SWAP2 POP PUSH1 0x1F NOT PUSH1 0x3F RETURNDATASIZE ADD AND DUP3 ADD PUSH1 0x40 MSTORE RETURNDATASIZE DUP3 MSTORE RETURNDATASIZE PUSH1 0x0 PUSH1 0x20 DUP5 ADD RETURNDATACOPY PUSH2 0x167F JUMP JUMPDEST PUSH1 0x60 SWAP2 POP JUMPDEST POP SWAP2 POP SWAP2 POP DUP2 DUP1 ISZERO PUSH2 0x16A9 JUMPI POP DUP1 MLOAD ISZERO DUP1 PUSH2 0x16A9 JUMPI POP DUP1 DUP1 PUSH1 0x20 ADD SWAP1 MLOAD DUP2 ADD SWAP1 PUSH2 0x16A9 SWAP2 SWAP1 PUSH2 0x1EB9 JUMP JUMPDEST PUSH2 0x170B JUMPI PUSH1 0x40 MLOAD PUSH3 0x461BCD PUSH1 0xE5 SHL DUP2 MSTORE PUSH1 0x20 PUSH1 0x4 DUP3 ADD MSTORE PUSH1 0x2D PUSH1 0x24 DUP3 ADD MSTORE PUSH32 0x5472616E7366657248656C7065723A3A736166655472616E736665723A207472 PUSH1 0x44 DUP3 ADD MSTORE PUSH13 0x185B9CD9995C8819985A5B1959 PUSH1 0x9A SHL PUSH1 0x64 DUP3 ADD MSTORE PUSH1 0x84 ADD PUSH2 0x3B0 JUMP JUMPDEST POP POP POP POP POP JUMP JUMPDEST PUSH1 0x0 PUSH2 0x171E DUP4 DUP4 PUSH2 0x1A25 JUMP JUMPDEST SWAP4 SWAP3 POP POP POP JUMP JUMPDEST PUSH1 0x0 DUP1 DUP6 PUSH1 0x1 PUSH1 0x1 PUSH1 0xA0 SHL SUB AND PUSH4 0x23B872DD DUP7 DUP7 DUP7 PUSH1 0x40 MLOAD PUSH1 0x24 ADD PUSH2 0x174C SWAP4 SWAP3 SWAP2 SWAP1 PUSH2 0x21A2 JUMP JUMPDEST PUSH1 0x40 MLOAD PUSH1 0x20 DUP2 DUP4 SUB SUB DUP2 MSTORE SWAP1 PUSH1 0x40 MSTORE SWAP1 PUSH1 0xE0 SHL PUSH1 0x20 DUP3 ADD DUP1 MLOAD PUSH1 0x1 PUSH1 0x1 PUSH1 0xE0 SHL SUB DUP4 DUP2 DUP4 AND OR DUP4 MSTORE POP POP POP POP PUSH1 0x40 MLOAD PUSH2 0x1785 SWAP2 SWAP1 PUSH2 0x2186 JUMP JUMPDEST PUSH1 0x0 PUSH1 0x40 MLOAD DUP1 DUP4 SUB DUP2 PUSH1 0x0 DUP7 GAS CALL SWAP2 POP POP RETURNDATASIZE DUP1 PUSH1 0x0 DUP2 EQ PUSH2 0x17C2 JUMPI PUSH1 0x40 MLOAD SWAP2 POP PUSH1 0x1F NOT PUSH1 0x3F RETURNDATASIZE ADD AND DUP3 ADD PUSH1 0x40 MSTORE RETURNDATASIZE DUP3 MSTORE RETURNDATASIZE PUSH1 0x0 PUSH1 0x20 DUP5 ADD RETURNDATACOPY PUSH2 0x17C7 JUMP JUMPDEST PUSH1 0x60 SWAP2 POP JUMPDEST POP SWAP2 POP SWAP2 POP DUP2 DUP1 ISZERO PUSH2 0x17F1 JUMPI POP DUP1 MLOAD ISZERO DUP1 PUSH2 0x17F1 JUMPI POP DUP1 DUP1 PUSH1 0x20 ADD SWAP1 MLOAD DUP2 ADD SWAP1 PUSH2 0x17F1 SWAP2 SWAP1 PUSH2 0x1EB9 JUMP JUMPDEST PUSH2 0x1857 JUMPI PUSH1 0x40 MLOAD PUSH3 0x461BCD PUSH1 0xE5 SHL DUP2 MSTORE PUSH1 0x20 PUSH1 0x4 DUP3 ADD MSTORE PUSH1 0x31 PUSH1 0x24 DUP3 ADD MSTORE PUSH32 0x5472616E7366657248656C7065723A3A7472616E7366657246726F6D3A207472 PUSH1 0x44 DUP3 ADD MSTORE PUSH17 0x185B9CD9995C919C9BDB4819985A5B1959 PUSH1 0x7A SHL PUSH1 0x64 DUP3 ADD MSTORE PUSH1 0x84 ADD PUSH2 0x3B0 JUMP JUMPDEST POP POP POP POP POP POP JUMP JUMPDEST PUSH1 0x40 DUP1 MLOAD PUSH1 0x1 PUSH1 0x1 PUSH1 0xA0 SHL SUB DUP5 DUP2 AND PUSH1 0x24 DUP4 ADD MSTORE PUSH1 0x44 DUP1 DUP4 ADD DUP6 SWAP1 MSTORE DUP4 MLOAD DUP1 DUP5 SUB SWAP1 SWAP2 ADD DUP2 MSTORE PUSH1 0x64 SWAP1 SWAP3 ADD DUP4 MSTORE PUSH1 0x20 DUP3 ADD DUP1 MLOAD PUSH1 0x1 PUSH1 0x1 PUSH1 0xE0 SHL SUB AND PUSH4 0x95EA7B3 PUSH1 0xE0 SHL OR SWAP1 MSTORE SWAP2 MLOAD PUSH1 0x0 SWAP3 DUP4 SWAP3 SWAP1 DUP8 AND SWAP2 PUSH2 0x18BB SWAP2 SWAP1 PUSH2 0x2186 JUMP JUMPDEST PUSH1 0x0 PUSH1 0x40 MLOAD DUP1 DUP4 SUB DUP2 PUSH1 0x0 DUP7 GAS CALL SWAP2 POP POP RETURNDATASIZE DUP1 PUSH1 0x0 DUP2 EQ PUSH2 0x18F8 JUMPI PUSH1 0x40 MLOAD SWAP2 POP PUSH1 0x1F NOT PUSH1 0x3F RETURNDATASIZE ADD AND DUP3 ADD PUSH1 0x40 MSTORE RETURNDATASIZE DUP3 MSTORE RETURNDATASIZE PUSH1 0x0 PUSH1 0x20 DUP5 ADD RETURNDATACOPY PUSH2 0x18FD JUMP JUMPDEST PUSH1 0x60 SWAP2 POP JUMPDEST POP SWAP2 POP SWAP2 POP DUP2 DUP1 ISZERO PUSH2 0x1927 JUMPI POP DUP1 MLOAD ISZERO DUP1 PUSH2 0x1927 JUMPI POP DUP1 DUP1 PUSH1 0x20 ADD SWAP1 MLOAD DUP2 ADD SWAP1 PUSH2 0x1927 SWAP2 SWAP1 PUSH2 0x1EB9 JUMP JUMPDEST PUSH2 0x170B JUMPI PUSH1 0x40 MLOAD PUSH3 0x461BCD PUSH1 0xE5 SHL DUP2 MSTORE PUSH1 0x20 PUSH1 0x4 DUP3 ADD MSTORE PUSH1 0x2B PUSH1 0x24 DUP3 ADD MSTORE PUSH32 0x5472616E7366657248656C7065723A3A73616665417070726F76653A20617070 PUSH1 0x44 DUP3 ADD MSTORE PUSH11 0x1C9BDD994819985A5B1959 PUSH1 0xAA SHL PUSH1 0x64 DUP3 ADD MSTORE PUSH1 0x84 ADD PUSH2 0x3B0 JUMP JUMPDEST PUSH1 0x0 PUSH2 0x171E DUP4 PUSH1 0x1 PUSH1 0x1 PUSH1 0xA0 SHL SUB DUP5 AND PUSH2 0x1A4F JUMP JUMPDEST PUSH1 0x1 PUSH1 0x1 PUSH1 0xA0 SHL SUB DUP2 AND PUSH1 0x0 SWAP1 DUP2 MSTORE PUSH1 0x1 DUP4 ADD PUSH1 0x20 MSTORE PUSH1 0x40 DUP2 KECCAK256 SLOAD ISZERO ISZERO PUSH2 0x171E JUMP JUMPDEST PUSH1 0x60 PUSH1 0x0 PUSH2 0x171E DUP4 PUSH2 0x1A9E JUMP JUMPDEST PUSH1 0x0 DUP1 SLOAD PUSH1 0x1 PUSH1 0x1 PUSH1 0xA0 SHL SUB DUP4 DUP2 AND PUSH1 0x1 PUSH1 0x1 PUSH1 0xA0 SHL SUB NOT DUP4 AND DUP2 OR DUP5 SSTORE PUSH1 0x40 MLOAD SWAP2 SWAP1 SWAP3 AND SWAP3 DUP4 SWAP2 PUSH32 0x8BE0079C531659141344CD1FD0A4F28419497F9722A3DAAFE3B4186F6B6457E0 SWAP2 SWAP1 LOG3 POP POP JUMP JUMPDEST PUSH1 0x0 PUSH2 0xB5C DUP3 SLOAD SWAP1 JUMP JUMPDEST PUSH1 0x0 DUP3 PUSH1 0x0 ADD DUP3 DUP2 SLOAD DUP2 LT PUSH2 0x1A3C JUMPI PUSH2 0x1A3C PUSH2 0x257A JUMP JUMPDEST SWAP1 PUSH1 0x0 MSTORE PUSH1 0x20 PUSH1 0x0 KECCAK256 ADD SLOAD SWAP1 POP SWAP3 SWAP2 POP POP JUMP JUMPDEST PUSH1 0x0 DUP2 DUP2 MSTORE PUSH1 0x1 DUP4 ADD PUSH1 0x20 MSTORE PUSH1 0x40 DUP2 KECCAK256 SLOAD PUSH2 0x1A96 JUMPI POP DUP2 SLOAD PUSH1 0x1 DUP2 DUP2 ADD DUP5 SSTORE PUSH1 0x0 DUP5 DUP2 MSTORE PUSH1 0x20 DUP1 DUP3 KECCAK256 SWAP1 SWAP4 ADD DUP5 SWAP1 SSTORE DUP5 SLOAD DUP5 DUP3 MSTORE DUP3 DUP7 ADD SWAP1 SWAP4 MSTORE PUSH1 0x40 SWAP1 KECCAK256 SWAP2 SWAP1 SWAP2 SSTORE PUSH2 0xB5C JUMP JUMPDEST POP PUSH1 0x0 PUSH2 0xB5C JUMP JUMPDEST PUSH1 0x60 DUP2 PUSH1 0x0 ADD DUP1 SLOAD DUP1 PUSH1 0x20 MUL PUSH1 0x20 ADD PUSH1 0x40 MLOAD SWAP1 DUP2 ADD PUSH1 0x40 MSTORE DUP1 SWAP3 SWAP2 SWAP1 DUP2 DUP2 MSTORE PUSH1 0x20 ADD DUP3 DUP1 SLOAD DUP1 ISZERO PUSH2 0x1AEE JUMPI PUSH1 0x20 MUL DUP3 ADD SWAP2 SWAP1 PUSH1 0x0 MSTORE PUSH1 0x20 PUSH1 0x0 KECCAK256 SWAP1 JUMPDEST DUP2 SLOAD DUP2 MSTORE PUSH1 0x20 ADD SWAP1 PUSH1 0x1 ADD SWAP1 DUP1 DUP4 GT PUSH2 0x1ADA JUMPI JUMPDEST POP POP POP POP POP SWAP1 POP SWAP2 SWAP1 POP JUMP JUMPDEST PUSH1 0x0 DUP3 PUSH1 0x1F DUP4 ADD SLT PUSH2 0x1B0B JUMPI PUSH1 0x0 DUP1 REVERT JUMPDEST DUP2 CALLDATALOAD PUSH1 0x20 PUSH2 0x1B20 PUSH2 0x1B1B DUP4 PUSH2 0x24B8 JUMP JUMPDEST PUSH2 0x2487 JUMP JUMPDEST DUP1 DUP4 DUP3 MSTORE DUP3 DUP3 ADD SWAP2 POP DUP3 DUP7 ADD DUP8 DUP5 DUP7 PUSH1 0x5 SHL DUP10 ADD ADD GT ISZERO PUSH2 0x1B40 JUMPI PUSH1 0x0 DUP1 REVERT JUMPDEST PUSH1 0x0 JUMPDEST DUP6 DUP2 LT ISZERO PUSH2 0x1B68 JUMPI DUP2 CALLDATALOAD PUSH2 0x1B56 DUP2 PUSH2 0x25A6 JUMP JUMPDEST DUP5 MSTORE SWAP3 DUP5 ADD SWAP3 SWAP1 DUP5 ADD SWAP1 PUSH1 0x1 ADD PUSH2 0x1B43 JUMP JUMPDEST POP SWAP1 SWAP8 SWAP7 POP POP POP POP POP POP POP JUMP JUMPDEST PUSH1 0x0 DUP3 PUSH1 0x1F DUP4 ADD SLT PUSH2 0x1B86 JUMPI PUSH1 0x0 DUP1 REVERT JUMPDEST DUP2 CALLDATALOAD PUSH1 0x20 PUSH2 0x1B96 PUSH2 0x1B1B DUP4 PUSH2 0x24B8 JUMP JUMPDEST DUP1 DUP4 DUP3 MSTORE DUP3 DUP3 ADD SWAP2 POP DUP3 DUP7 ADD DUP8 DUP5 DUP7 PUSH1 0x5 SHL DUP10 ADD ADD GT ISZERO PUSH2 0x1BB6 JUMPI PUSH1 0x0 DUP1 REVERT JUMPDEST PUSH1 0x0 JUMPDEST DUP6 DUP2 LT ISZERO PUSH2 0x1B68 JUMPI DUP2 CALLDATALOAD DUP5 MSTORE SWAP3 DUP5 ADD SWAP3 SWAP1 DUP5 ADD SWAP1 PUSH1 0x1 ADD PUSH2 0x1BB9 JUMP JUMPDEST PUSH1 0x0 DUP3 PUSH1 0x1F DUP4 ADD SLT PUSH2 0x1BE6 JUMPI PUSH1 0x0 DUP1 REVERT JUMPDEST DUP2 MLOAD PUSH1 0x20 PUSH2 0x1BF6 PUSH2 0x1B1B DUP4 PUSH2 0x24B8 JUMP JUMPDEST DUP1 DUP4 DUP3 MSTORE DUP3 DUP3 ADD SWAP2 POP DUP3 DUP7 ADD DUP8 DUP5 DUP7 PUSH1 0x5 SHL DUP10 ADD ADD GT ISZERO PUSH2 0x1C16 JUMPI PUSH1 0x0 DUP1 REVERT JUMPDEST PUSH1 0x0 JUMPDEST DUP6 DUP2 LT ISZERO PUSH2 0x1B68 JUMPI DUP2 MLOAD DUP5 MSTORE SWAP3 DUP5 ADD SWAP3 SWAP1 DUP5 ADD SWAP1 PUSH1 0x1 ADD PUSH2 0x1C19 JUMP JUMPDEST DUP1 CALLDATALOAD PUSH2 0x1C40 DUP2 PUSH2 0x25BB JUMP JUMPDEST SWAP2 SWAP1 POP JUMP JUMPDEST PUSH1 0x0 DUP3 PUSH1 0x1F DUP4 ADD SLT PUSH2 0x1C56 JUMPI PUSH1 0x0 DUP1 REVERT JUMPDEST DUP2 CALLDATALOAD PUSH8 0xFFFFFFFFFFFFFFFF DUP2 GT ISZERO PUSH2 0x1C70 JUMPI PUSH2 0x1C70 PUSH2 0x2590 JUMP JUMPDEST PUSH2 0x1C83 PUSH1 0x1F DUP3 ADD PUSH1 0x1F NOT AND PUSH1 0x20 ADD PUSH2 0x2487 JUMP JUMPDEST DUP2 DUP2 MSTORE DUP5 PUSH1 0x20 DUP4 DUP7 ADD ADD GT ISZERO PUSH2 0x1C98 JUMPI PUSH1 0x0 DUP1 REVERT JUMPDEST DUP2 PUSH1 0x20 DUP6 ADD PUSH1 0x20 DUP4 ADD CALLDATACOPY PUSH1 0x0 SWAP2 DUP2 ADD PUSH1 0x20 ADD SWAP2 SWAP1 SWAP2 MSTORE SWAP4 SWAP3 POP POP POP JUMP JUMPDEST PUSH1 0x0 PUSH1 0x20 DUP3 DUP5 SUB SLT ISZERO PUSH2 0x1CC7 JUMPI PUSH1 0x0 DUP1 REVERT JUMPDEST DUP2 CALLDATALOAD PUSH2 0x171E DUP2 PUSH2 0x25A6 JUMP JUMPDEST PUSH1 0x0 PUSH1 0x20 DUP3 DUP5 SUB SLT ISZERO PUSH2 0x1CE4 JUMPI PUSH1 0x0 DUP1 REVERT JUMPDEST DUP2 MLOAD PUSH2 0x171E DUP2 PUSH2 0x25A6 JUMP JUMPDEST PUSH1 0x0 DUP1 PUSH1 0x40 DUP4 DUP6 SUB SLT ISZERO PUSH2 0x1D02 JUMPI PUSH1 0x0 DUP1 REVERT JUMPDEST DUP3 CALLDATALOAD PUSH2 0x1D0D DUP2 PUSH2 0x25A6 JUMP JUMPDEST SWAP2 POP PUSH1 0x20 DUP4 ADD CALLDATALOAD PUSH2 0x1D1D DUP2 PUSH2 0x25A6 JUMP JUMPDEST DUP1 SWAP2 POP POP SWAP3 POP SWAP3 SWAP1 POP JUMP JUMPDEST PUSH1 0x0 DUP1 PUSH1 0x0 DUP1 PUSH1 0x60 DUP6 DUP8 SUB SLT ISZERO PUSH2 0x1D3E JUMPI PUSH1 0x0 DUP1 REVERT JUMPDEST DUP5 CALLDATALOAD PUSH2 0x1D49 DUP2 PUSH2 0x25A6 JUMP JUMPDEST SWAP4 POP PUSH1 0x20 DUP6 ADD CALLDATALOAD PUSH8 0xFFFFFFFFFFFFFFFF DUP1 DUP3 GT ISZERO PUSH2 0x1D66 JUMPI PUSH1 0x0 DUP1 REVERT JUMPDEST DUP2 DUP8 ADD SWAP2 POP DUP8 PUSH1 0x1F DUP4 ADD SLT PUSH2 0x1D7A JUMPI PUSH1 0x0 DUP1 REVERT JUMPDEST DUP2 CALLDATALOAD DUP2 DUP2 GT ISZERO PUSH2 0x1D89 JUMPI PUSH1 0x0 DUP1 REVERT JUMPDEST DUP9 PUSH1 0x20 DUP3 PUSH1 0x5 SHL DUP6 ADD ADD GT ISZERO PUSH2 0x1D9E JUMPI PUSH1 0x0 DUP1 REVERT JUMPDEST SWAP6 SWAP9 PUSH1 0x20 SWAP3 SWAP1 SWAP3 ADD SWAP8 POP SWAP5 SWAP6 PUSH1 0x40 ADD CALLDATALOAD SWAP5 POP SWAP3 POP POP POP JUMP JUMPDEST PUSH1 0x0 DUP1 PUSH1 0x40 DUP4 DUP6 SUB SLT ISZERO PUSH2 0x1DC9 JUMPI PUSH1 0x0 DUP1 REVERT JUMPDEST DUP3 CALLDATALOAD PUSH2 0x1DD4 DUP2 PUSH2 0x25A6 JUMP JUMPDEST SWAP2 POP PUSH1 0x20 DUP4 ADD CALLDATALOAD PUSH2 0x1D1D DUP2 PUSH2 0x25BB JUMP JUMPDEST PUSH1 0x0 DUP1 PUSH1 0x0 PUSH1 0x60 DUP5 DUP7 SUB SLT ISZERO PUSH2 0x1DF9 JUMPI PUSH1 0x0 DUP1 REVERT JUMPDEST DUP4 MLOAD PUSH8 0xFFFFFFFFFFFFFFFF DUP1 DUP3 GT ISZERO PUSH2 0x1E11 JUMPI PUSH1 0x0 DUP1 REVERT JUMPDEST DUP2 DUP7 ADD SWAP2 POP DUP7 PUSH1 0x1F DUP4 ADD SLT PUSH2 0x1E25 JUMPI PUSH1 0x0 DUP1 REVERT JUMPDEST DUP2 MLOAD PUSH1 0x20 PUSH2 0x1E35 PUSH2 0x1B1B DUP4 PUSH2 0x24B8 JUMP JUMPDEST DUP1 DUP4 DUP3 MSTORE DUP3 DUP3 ADD SWAP2 POP DUP3 DUP7 ADD DUP12 DUP5 DUP7 PUSH1 0x5 SHL DUP10 ADD ADD GT ISZERO PUSH2 0x1E55 JUMPI PUSH1 0x0 DUP1 REVERT JUMPDEST PUSH1 0x0 SWAP7 POP JUMPDEST DUP5 DUP8 LT ISZERO PUSH2 0x1E81 JUMPI DUP1 MLOAD PUSH2 0x1E6D DUP2 PUSH2 0x25A6 JUMP JUMPDEST DUP4 MSTORE PUSH1 0x1 SWAP7 SWAP1 SWAP7 ADD SWAP6 SWAP2 DUP4 ADD SWAP2 DUP4 ADD PUSH2 0x1E5A JUMP JUMPDEST POP SWAP2 DUP10 ADD MLOAD SWAP2 SWAP8 POP SWAP1 SWAP4 POP POP POP DUP1 DUP3 GT ISZERO PUSH2 0x1E9B JUMPI PUSH1 0x0 DUP1 REVERT JUMPDEST POP PUSH2 0x1EA8 DUP7 DUP3 DUP8 ADD PUSH2 0x1BD5 JUMP JUMPDEST SWAP3 POP POP PUSH1 0x40 DUP5 ADD MLOAD SWAP1 POP SWAP3 POP SWAP3 POP SWAP3 JUMP JUMPDEST PUSH1 0x0 PUSH1 0x20 DUP3 DUP5 SUB SLT ISZERO PUSH2 0x1ECB JUMPI PUSH1 0x0 DUP1 REVERT JUMPDEST DUP2 MLOAD PUSH2 0x171E DUP2 PUSH2 0x25BB JUMP JUMPDEST PUSH1 0x0 PUSH1 0x20 DUP3 DUP5 SUB SLT ISZERO PUSH2 0x1EE8 JUMPI PUSH1 0x0 DUP1 REVERT JUMPDEST POP MLOAD SWAP2 SWAP1 POP JUMP JUMPDEST PUSH1 0x0 PUSH1 0x20 DUP3 DUP5 SUB SLT ISZERO PUSH2 0x1F01 JUMPI PUSH1 0x0 DUP1 REVERT JUMPDEST DUP2 CALLDATALOAD PUSH8 0xFFFFFFFFFFFFFFFF DUP1 DUP3 GT ISZERO PUSH2 0x1F19 JUMPI PUSH1 0x0 DUP1 REVERT JUMPDEST SWAP1 DUP4 ADD SWAP1 PUSH2 0x160 DUP3 DUP7 SUB SLT ISZERO PUSH2 0x1F2E JUMPI PUSH1 0x0 DUP1 REVERT JUMPDEST PUSH2 0x1F36 PUSH2 0x245D JUMP JUMPDEST DUP3 CALLDATALOAD DUP3 DUP2 GT ISZERO PUSH2 0x1F45 JUMPI PUSH1 0x0 DUP1 REVERT JUMPDEST PUSH2 0x1F51 DUP8 DUP3 DUP7 ADD PUSH2 0x1C45 JUMP JUMPDEST DUP3 MSTORE POP PUSH1 0x20 DUP4 ADD CALLDATALOAD DUP3 DUP2 GT ISZERO PUSH2 0x1F66 JUMPI PUSH1 0x0 DUP1 REVERT JUMPDEST PUSH2 0x1F72 DUP8 DUP3 DUP7 ADD PUSH2 0x1C45 JUMP JUMPDEST PUSH1 0x20 DUP4 ADD MSTORE POP PUSH1 0x40 DUP4 ADD CALLDATALOAD DUP3 DUP2 GT ISZERO PUSH2 0x1F8A JUMPI PUSH1 0x0 DUP1 REVERT JUMPDEST PUSH2 0x1F96 DUP8 DUP3 DUP7 ADD PUSH2 0x1AFA JUMP JUMPDEST PUSH1 0x40 DUP4 ADD MSTORE POP PUSH1 0x60 DUP4 ADD CALLDATALOAD DUP3 DUP2 GT ISZERO PUSH2 0x1FAE JUMPI PUSH1 0x0 DUP1 REVERT JUMPDEST PUSH2 0x1FBA DUP8 DUP3 DUP7 ADD PUSH2 0x1B75 JUMP JUMPDEST PUSH1 0x60 DUP4 ADD MSTORE POP PUSH1 0x80 DUP4 ADD CALLDATALOAD DUP3 DUP2 GT ISZERO PUSH2 0x1FD2 JUMPI PUSH1 0x0 DUP1 REVERT JUMPDEST PUSH2 0x1FDE DUP8 DUP3 DUP7 ADD PUSH2 0x1B75 JUMP JUMPDEST PUSH1 0x80 DUP4 ADD MSTORE POP PUSH1 0xA0 DUP4 ADD CALLDATALOAD DUP3 DUP2 GT ISZERO PUSH2 0x1FF6 JUMPI PUSH1 0x0 DUP1 REVERT JUMPDEST PUSH2 0x2002 DUP8 DUP3 DUP7 ADD PUSH2 0x1B75 JUMP JUMPDEST PUSH1 0xA0 DUP4 ADD MSTORE POP PUSH2 0x2014 PUSH1 0xC0 DUP5 ADD PUSH2 0x1C35 JUMP JUMPDEST PUSH1 0xC0 DUP3 ADD MSTORE PUSH1 0xE0 DUP4 ADD CALLDATALOAD PUSH1 0xE0 DUP3 ADD MSTORE PUSH2 0x100 DUP1 DUP5 ADD CALLDATALOAD DUP4 DUP2 GT ISZERO PUSH2 0x2037 JUMPI PUSH1 0x0 DUP1 REVERT JUMPDEST PUSH2 0x2043 DUP9 DUP3 DUP8 ADD PUSH2 0x1C45 JUMP JUMPDEST SWAP2 DUP4 ADD SWAP2 SWAP1 SWAP2 MSTORE POP PUSH2 0x120 DUP4 DUP2 ADD CALLDATALOAD SWAP1 DUP3 ADD MSTORE PUSH2 0x140 SWAP3 DUP4 ADD CALLDATALOAD SWAP3 DUP2 ADD SWAP3 SWAP1 SWAP3 MSTORE POP SWAP4 SWAP3 POP POP POP JUMP JUMPDEST PUSH1 0x0 PUSH1 0x20 DUP3 DUP5 SUB SLT ISZERO PUSH2 0x207E JUMPI PUSH1 0x0 DUP1 REVERT JUMPDEST POP CALLDATALOAD SWAP2 SWAP1 POP JUMP JUMPDEST PUSH1 0x0 DUP2 MLOAD DUP1 DUP5 MSTORE PUSH1 0x20 DUP1 DUP6 ADD SWAP5 POP DUP1 DUP5 ADD PUSH1 0x0 JUMPDEST DUP4 DUP2 LT ISZERO PUSH2 0x20BE JUMPI DUP2 MLOAD PUSH1 0x1 PUSH1 0x1 PUSH1 0xA0 SHL SUB AND DUP8 MSTORE SWAP6 DUP3 ADD SWAP6 SWAP1 DUP3 ADD SWAP1 PUSH1 0x1 ADD PUSH2 0x2099 JUMP JUMPDEST POP SWAP5 SWAP6 SWAP5 POP POP POP POP POP JUMP JUMPDEST PUSH1 0x0 DUP2 MLOAD DUP1 DUP5 MSTORE PUSH1 0x20 DUP1 DUP6 ADD SWAP5 POP DUP1 DUP5 ADD PUSH1 0x0 JUMPDEST DUP4 DUP2 LT ISZERO PUSH2 0x20BE JUMPI DUP2 MLOAD DUP8 MSTORE SWAP6 DUP3 ADD SWAP6 SWAP1 DUP3 ADD SWAP1 PUSH1 0x1 ADD PUSH2 0x20DD JUMP JUMPDEST PUSH1 0x0 DUP2 MLOAD DUP1 DUP5 MSTORE PUSH2 0x2111 DUP2 PUSH1 0x20 DUP7 ADD PUSH1 0x20 DUP7 ADD PUSH2 0x2534 JUMP JUMPDEST PUSH1 0x1F ADD PUSH1 0x1F NOT AND SWAP3 SWAP1 SWAP3 ADD PUSH1 0x20 ADD SWAP3 SWAP2 POP POP JUMP JUMPDEST PUSH1 0x0 DUP2 MLOAD PUSH1 0x80 DUP5 MSTORE PUSH2 0x213A PUSH1 0x80 DUP6 ADD DUP3 PUSH2 0x2085 JUMP JUMPDEST SWAP1 POP PUSH1 0x20 DUP4 ADD MLOAD DUP5 DUP3 SUB PUSH1 0x20 DUP7 ADD MSTORE PUSH2 0x2153 DUP3 DUP3 PUSH2 0x20C9 JUMP JUMPDEST SWAP2 POP POP PUSH1 0x40 DUP4 ADD MLOAD DUP5 DUP3 SUB PUSH1 0x40 DUP7 ADD MSTORE PUSH2 0x216D DUP3 DUP3 PUSH2 0x20F9 JUMP JUMPDEST SWAP2 POP POP PUSH1 0x60 DUP4 ADD MLOAD ISZERO ISZERO PUSH1 0x60 DUP6 ADD MSTORE DUP1 SWAP2 POP POP SWAP3 SWAP2 POP POP JUMP JUMPDEST PUSH1 0x0 DUP3 MLOAD PUSH2 0x2198 DUP2 DUP5 PUSH1 0x20 DUP8 ADD PUSH2 0x2534 JUMP JUMPDEST SWAP2 SWAP1 SWAP2 ADD SWAP3 SWAP2 POP POP JUMP JUMPDEST PUSH1 0x1 PUSH1 0x1 PUSH1 0xA0 SHL SUB SWAP4 DUP5 AND DUP2 MSTORE SWAP2 SWAP1 SWAP3 AND PUSH1 0x20 DUP3 ADD MSTORE PUSH1 0x40 DUP2 ADD SWAP2 SWAP1 SWAP2 MSTORE PUSH1 0x60 ADD SWAP1 JUMP JUMPDEST PUSH1 0x20 DUP2 MSTORE PUSH1 0x0 PUSH2 0x171E PUSH1 0x20 DUP4 ADD DUP5 PUSH2 0x2085 JUMP JUMPDEST PUSH1 0x60 DUP2 MSTORE PUSH1 0x0 PUSH2 0x21EC PUSH1 0x60 DUP4 ADD DUP8 PUSH2 0x2085 JUMP JUMPDEST DUP3 DUP2 SUB PUSH1 0x20 DUP5 ADD MSTORE DUP5 DUP2 MSTORE PUSH1 0x1 PUSH1 0x1 PUSH1 0xFB SHL SUB DUP6 GT ISZERO PUSH2 0x220B JUMPI PUSH1 0x0 DUP1 REVERT JUMPDEST DUP5 PUSH1 0x5 SHL DUP1 DUP8 PUSH1 0x20 DUP5 ADD CALLDATACOPY DUP1 DUP3 ADD SWAP2 POP POP PUSH1 0x20 DUP2 ADD PUSH1 0x0 DUP2 MSTORE PUSH1 0x20 DUP5 DUP4 SUB ADD PUSH1 0x40 DUP6 ADD MSTORE PUSH2 0x2239 DUP2 DUP7 PUSH2 0x20F9 JUMP JUMPDEST SWAP9 SWAP8 POP POP POP POP POP POP POP POP JUMP JUMPDEST PUSH1 0x60 DUP2 MSTORE PUSH1 0x0 PUSH2 0x2258 PUSH1 0x60 DUP4 ADD DUP7 PUSH2 0x2085 JUMP JUMPDEST DUP3 DUP2 SUB PUSH1 0x20 DUP5 ADD MSTORE PUSH2 0x226A DUP2 DUP7 PUSH2 0x20C9 JUMP JUMPDEST SWAP1 POP DUP3 DUP2 SUB PUSH1 0x40 DUP5 ADD MSTORE PUSH2 0x227E DUP2 DUP6 PUSH2 0x20F9 JUMP JUMPDEST SWAP7 SWAP6 POP POP POP POP POP POP JUMP JUMPDEST DUP5 DUP2 MSTORE PUSH1 0x1 PUSH1 0x1 PUSH1 0xA0 SHL SUB DUP5 DUP2 AND PUSH1 0x20 DUP4 ADD MSTORE DUP4 AND PUSH1 0x40 DUP3 ADD MSTORE PUSH1 0x80 PUSH1 0x60 DUP3 ADD DUP2 SWAP1 MSTORE PUSH1 0x0 SWAP1 PUSH2 0x227E SWAP1 DUP4 ADD DUP5 PUSH2 0x2125 JUMP JUMPDEST PUSH1 0x0 PUSH2 0x100 DUP11 DUP4 MSTORE DUP1 PUSH1 0x20 DUP5 ADD MSTORE PUSH2 0x22D4 DUP2 DUP5 ADD DUP12 PUSH2 0x20F9 JUMP JUMPDEST SWAP1 POP DUP3 DUP2 SUB PUSH1 0x40 DUP5 ADD MSTORE PUSH2 0x22E8 DUP2 DUP11 PUSH2 0x20F9 JUMP JUMPDEST SWAP1 POP DUP3 DUP2 SUB PUSH1 0x60 DUP5 ADD MSTORE PUSH2 0x22FC DUP2 DUP10 PUSH2 0x2085 JUMP JUMPDEST SWAP1 POP DUP3 DUP2 SUB PUSH1 0x80 DUP5 ADD MSTORE PUSH2 0x2310 DUP2 DUP9 PUSH2 0x20C9 JUMP JUMPDEST PUSH1 0xA0 DUP5 ADD SWAP7 SWAP1 SWAP7 MSTORE POP POP PUSH1 0x1 PUSH1 0x1 PUSH1 0xA0 SHL SUB SWAP3 SWAP1 SWAP3 AND PUSH1 0xC0 DUP4 ADD MSTORE ISZERO ISZERO PUSH1 0xE0 SWAP1 SWAP2 ADD MSTORE SWAP6 SWAP5 POP POP POP POP POP JUMP JUMPDEST PUSH1 0x40 DUP2 ADD PUSH1 0x3 DUP5 LT PUSH2 0x235E JUMPI PUSH4 0x4E487B71 PUSH1 0xE0 SHL PUSH1 0x0 MSTORE PUSH1 0x21 PUSH1 0x4 MSTORE PUSH1 0x24 PUSH1 0x0 REVERT JUMPDEST SWAP3 DUP2 MSTORE PUSH1 0x20 ADD MSTORE SWAP1 JUMP JUMPDEST PUSH1 0xE0 DUP2 MSTORE PUSH1 0x0 PUSH2 0x237B PUSH1 0xE0 DUP4 ADD DUP11 PUSH2 0x20F9 JUMP JUMPDEST DUP3 DUP2 SUB PUSH1 0x20 DUP5 ADD MSTORE PUSH2 0x238D DUP2 DUP11 PUSH2 0x20F9 JUMP JUMPDEST SWAP1 POP DUP3 DUP2 SUB PUSH1 0x40 DUP5 ADD MSTORE PUSH2 0x23A1 DUP2 DUP10 PUSH2 0x2085 JUMP JUMPDEST SWAP1 POP DUP3 DUP2 SUB PUSH1 0x60 DUP5 ADD MSTORE PUSH2 0x23B5 DUP2 DUP9 PUSH2 0x20C9 JUMP JUMPDEST PUSH1 0x80 DUP5 ADD SWAP7 SWAP1 SWAP7 MSTORE POP POP PUSH1 0x1 PUSH1 0x1 PUSH1 0xA0 SHL SUB SWAP3 SWAP1 SWAP3 AND PUSH1 0xA0 DUP4 ADD MSTORE ISZERO ISZERO PUSH1 0xC0 SWAP1 SWAP2 ADD MSTORE SWAP5 SWAP4 POP POP POP POP JUMP JUMPDEST PUSH1 0x20 DUP1 DUP3 MSTORE DUP2 DUP2 ADD MSTORE PUSH32 0x4F776E61626C653A2063616C6C6572206973206E6F7420746865206F776E6572 PUSH1 0x40 DUP3 ADD MSTORE PUSH1 0x60 ADD SWAP1 JUMP JUMPDEST PUSH1 0x20 DUP1 DUP3 MSTORE PUSH1 0x6 SWAP1 DUP3 ADD MSTORE PUSH6 0x10B7BBB732B9 PUSH1 0xD1 SHL PUSH1 0x40 DUP3 ADD MSTORE PUSH1 0x60 ADD SWAP1 JUMP JUMPDEST DUP4 DUP2 MSTORE DUP3 PUSH1 0x20 DUP3 ADD MSTORE PUSH1 0x60 PUSH1 0x40 DUP3 ADD MSTORE PUSH1 0x0 PUSH2 0x2454 PUSH1 0x60 DUP4 ADD DUP5 PUSH2 0x20C9 JUMP JUMPDEST SWAP6 SWAP5 POP POP POP POP POP JUMP JUMPDEST PUSH1 0x40 MLOAD PUSH2 0x160 DUP2 ADD PUSH8 0xFFFFFFFFFFFFFFFF DUP2 GT DUP3 DUP3 LT OR ISZERO PUSH2 0x2481 JUMPI PUSH2 0x2481 PUSH2 0x2590 JUMP JUMPDEST PUSH1 0x40 MSTORE SWAP1 JUMP JUMPDEST PUSH1 0x40 MLOAD PUSH1 0x1F DUP3 ADD PUSH1 0x1F NOT AND DUP2 ADD PUSH8 0xFFFFFFFFFFFFFFFF DUP2 GT DUP3 DUP3 LT OR ISZERO PUSH2 0x24B0 JUMPI PUSH2 0x24B0 PUSH2 0x2590 JUMP JUMPDEST PUSH1 0x40 MSTORE SWAP2 SWAP1 POP JUMP JUMPDEST PUSH1 0x0 PUSH8 0xFFFFFFFFFFFFFFFF DUP3 GT ISZERO PUSH2 0x24D2 JUMPI PUSH2 0x24D2 PUSH2 0x2590 JUMP JUMPDEST POP PUSH1 0x5 SHL PUSH1 0x20 ADD SWAP1 JUMP JUMPDEST PUSH1 0x0 DUP3 PUSH2 0x24F9 JUMPI PUSH4 0x4E487B71 PUSH1 0xE0 SHL PUSH1 0x0 MSTORE PUSH1 0x12 PUSH1 0x4 MSTORE PUSH1 0x24 PUSH1 0x0 REVERT JUMPDEST POP DIV SWAP1 JUMP JUMPDEST PUSH1 0x0 DUP2 PUSH1 0x0 NOT DIV DUP4 GT DUP3 ISZERO ISZERO AND ISZERO PUSH2 0x2518 JUMPI PUSH2 0x2518 PUSH2 0x2564 JUMP JUMPDEST POP MUL SWAP1 JUMP JUMPDEST PUSH1 0x0 DUP3 DUP3 LT ISZERO PUSH2 0x252F JUMPI PUSH2 0x252F PUSH2 0x2564 JUMP JUMPDEST POP SUB SWAP1 JUMP JUMPDEST PUSH1 0x0 JUMPDEST DUP4 DUP2 LT ISZERO PUSH2 0x254F JUMPI DUP2 DUP2 ADD MLOAD DUP4 DUP3 ADD MSTORE PUSH1 0x20 ADD PUSH2 0x2537 JUMP JUMPDEST DUP4 DUP2 GT ISZERO PUSH2 0x255E JUMPI PUSH1 0x0 DUP5 DUP5 ADD MSTORE JUMPDEST POP POP POP POP JUMP JUMPDEST PUSH4 0x4E487B71 PUSH1 0xE0 SHL PUSH1 0x0 MSTORE PUSH1 0x11 PUSH1 0x4 MSTORE PUSH1 0x24 PUSH1 0x0 REVERT JUMPDEST PUSH4 0x4E487B71 PUSH1 0xE0 SHL PUSH1 0x0 MSTORE PUSH1 0x32 PUSH1 0x4 MSTORE PUSH1 0x24 PUSH1 0x0 REVERT JUMPDEST PUSH4 0x4E487B71 PUSH1 0xE0 SHL PUSH1 0x0 MSTORE PUSH1 0x41 PUSH1 0x4 MSTORE PUSH1 0x24 PUSH1 0x0 REVERT JUMPDEST PUSH1 0x1 PUSH1 0x1 PUSH1 0xA0 SHL SUB DUP2 AND DUP2 EQ PUSH2 0x15D2 JUMPI PUSH1 0x0 DUP1 REVERT JUMPDEST DUP1 ISZERO ISZERO DUP2 EQ PUSH2 0x15D2 JUMPI PUSH1 0x0 DUP1 REVERT INVALID LOG2 PUSH5 0x6970667358 0x22 SLT KECCAK256 DIFFICULTY INVALID SWAP1 DELEGATECALL SMOD ORIGIN 0x5E 0xB5 PUSH7 0x7019EBA143D7BC SLOAD 0xB4 0xC5 ADD 0xAB PUSH5 0xD3E1A0F366 DUP13 0xAE 0x5F ISZERO PUSH27 0x64736F6C6343000807003300000000000000000000000000000000 "
				},
				"gasEstimates": {
					"creation": {
						"codeDepositCost": "1945400",
						"executionCost": "infinite",
						"totalCost": "infinite"
					},
					"external": {
						"VAULT()": "250",
						"_LBPFactoryAddress()": "infinite",
						"_feeBPS()": "infinite",
						"_feeRecipient()": "2348",
						"changeFeeRecipient(address)": "28078",
						"createAuction((string,string,address[],uint256[],uint256[],uint256[],bool,uint256,bytes,uint256,uint256))": "infinite",
						"exitPool(address,uint256[],uint256)": "infinite",
						"getBPTTokenBalance(address)": "infinite",
						"getPoolAt(uint256)": "4751",
						"getPoolData(address)": "5028",
						"getPools()": "infinite",
						"isPool(address)": "infinite",
						"owner()": "2409",
						"poolCount()": "2480",
						"renounceOwnership()": "28181",
						"setSwapEnabled(address,bool)": "infinite",
						"skim(address,address)": "infinite",
						"transferOwnership(address)": "infinite",
						"transferPoolOwnership(address,address)": "infinite"
					}
				},
				"methodIdentifiers": {
					"VAULT()": "411557d1",
					"_LBPFactoryAddress()": "01b1aff6",
					"_feeBPS()": "9c37ebb6",
					"_feeRecipient()": "a342f238",
					"changeFeeRecipient(address)": "23604071",
					"createAuction((string,string,address[],uint256[],uint256[],uint256[],bool,uint256,bytes,uint256,uint256))": "46cf3e6e",
					"exitPool(address,uint256[],uint256)": "0563cd7c",
					"getBPTTokenBalance(address)": "cac626bb",
					"getPoolAt(uint256)": "05ea2183",
					"getPoolData(address)": "13d21cdf",
					"getPools()": "673a2a1f",
					"isPool(address)": "5b16ebb7",
					"owner()": "8da5cb5b",
					"poolCount()": "f525cb68",
					"renounceOwnership()": "715018a6",
					"setSwapEnabled(address,bool)": "51d48cea",
					"skim(address,address)": "712b772f",
					"transferOwnership(address)": "f2fde38b",
					"transferPoolOwnership(address,address)": "ee9ee0e4"
				}
			},
			"storageLayout": {
				"storage": [
					{
						"astId": 861,
						"contract": "contracts/CooperProxy.sol:CopperProxy",
						"label": "_owner",
						"offset": 0,
						"slot": "0",
						"type": "t_address"
					},
					{
						"astId": 1080,
						"contract": "contracts/CooperProxy.sol:CopperProxy",
						"label": "_poolData",
						"offset": 0,
						"slot": "1",
						"type": "t_mapping(t_address,t_struct(PoolData)1075_storage)"
					},
					{
						"astId": 1083,
						"contract": "contracts/CooperProxy.sol:CopperProxy",
						"label": "_pools",
						"offset": 0,
						"slot": "2",
						"type": "t_struct(AddressSet)547_storage"
					},
					{
						"astId": 1095,
						"contract": "contracts/CooperProxy.sol:CopperProxy",
						"label": "_feeRecipient",
						"offset": 0,
						"slot": "4",
						"type": "t_address"
					}
				],
				"types": {
					"t_address": {
						"encoding": "inplace",
						"label": "address",
						"numberOfBytes": "20"
					},
					"t_array(t_bytes32)dyn_storage": {
						"base": "t_bytes32",
						"encoding": "dynamic_array",
						"label": "bytes32[]",
						"numberOfBytes": "32"
					},
					"t_bool": {
						"encoding": "inplace",
						"label": "bool",
						"numberOfBytes": "1"
					},
					"t_bytes32": {
						"encoding": "inplace",
						"label": "bytes32",
						"numberOfBytes": "32"
					},
					"t_mapping(t_address,t_struct(PoolData)1075_storage)": {
						"encoding": "mapping",
						"key": "t_address",
						"label": "mapping(address => struct CopperProxy.PoolData)",
						"numberOfBytes": "32",
						"value": "t_struct(PoolData)1075_storage"
					},
					"t_mapping(t_bytes32,t_uint256)": {
						"encoding": "mapping",
						"key": "t_bytes32",
						"label": "mapping(bytes32 => uint256)",
						"numberOfBytes": "32",
						"value": "t_uint256"
					},
					"t_struct(AddressSet)547_storage": {
						"encoding": "inplace",
						"label": "struct EnumerableSet.AddressSet",
						"members": [
							{
								"astId": 546,
								"contract": "contracts/CooperProxy.sol:CopperProxy",
								"label": "_inner",
								"offset": 0,
								"slot": "0",
								"type": "t_struct(Set)246_storage"
							}
						],
						"numberOfBytes": "64"
					},
					"t_struct(PoolData)1075_storage": {
						"encoding": "inplace",
						"label": "struct CopperProxy.PoolData",
						"members": [
							{
								"astId": 1070,
								"contract": "contracts/CooperProxy.sol:CopperProxy",
								"label": "owner",
								"offset": 0,
								"slot": "0",
								"type": "t_address"
							},
							{
								"astId": 1072,
								"contract": "contracts/CooperProxy.sol:CopperProxy",
								"label": "isCorrectOrder",
								"offset": 20,
								"slot": "0",
								"type": "t_bool"
							},
							{
								"astId": 1074,
								"contract": "contracts/CooperProxy.sol:CopperProxy",
								"label": "fundTokenInputAmount",
								"offset": 0,
								"slot": "1",
								"type": "t_uint256"
							}
						],
						"numberOfBytes": "64"
					},
					"t_struct(Set)246_storage": {
						"encoding": "inplace",
						"label": "struct EnumerableSet.Set",
						"members": [
							{
								"astId": 241,
								"contract": "contracts/CooperProxy.sol:CopperProxy",
								"label": "_values",
								"offset": 0,
								"slot": "0",
								"type": "t_array(t_bytes32)dyn_storage"
							},
							{
								"astId": 245,
								"contract": "contracts/CooperProxy.sol:CopperProxy",
								"label": "_indexes",
								"offset": 0,
								"slot": "1",
								"type": "t_mapping(t_bytes32,t_uint256)"
							}
						],
						"numberOfBytes": "64"
					},
					"t_uint256": {
						"encoding": "inplace",
						"label": "uint256",
						"numberOfBytes": "32"
					}
				}
			},
			"userdoc": {
				"kind": "user",
				"methods": {
					"exitPool(address,uint256[],uint256)": {
						"notice": "Exit a pool, burn the BPT token and transfer back the tokens. If maxBPTTokenOut is passed as 0, the function will use the total balance available for the BPT token. If maxBPTTokenOut is between 0 and the total of BPT available, that will be the amount used to burn. maxBPTTokenOut must be grader or equal than 0"
					}
				},
				"notice": "This contract allows for simplified creation and management of Balancer LBPs It currently supports: - LBPs with 2 tokens - Withdrawl of the full liquidity at once - Charging a fee on the amount raised",
				"version": 1
			}
		}
	}
}