{
	"contracts/StablePoolFactory.sol": {
		"MockStableMath": {
			"abi": [
				{
					"inputs": [
						{
							"internalType": "uint256",
							"name": "amp",
							"type": "uint256"
						},
						{
							"internalType": "uint256[]",
							"name": "balances",
							"type": "uint256[]"
						},
						{
							"internalType": "uint256[]",
							"name": "amountsOut",
							"type": "uint256[]"
						},
						{
							"internalType": "uint256",
							"name": "bptTotalSupply",
							"type": "uint256"
						},
						{
							"internalType": "uint256",
							"name": "swapFee",
							"type": "uint256"
						}
					],
					"name": "bptInForExactTokensOut",
					"outputs": [
						{
							"internalType": "uint256",
							"name": "",
							"type": "uint256"
						}
					],
					"stateMutability": "pure",
					"type": "function"
				},
				{
					"inputs": [
						{
							"internalType": "uint256",
							"name": "amp",
							"type": "uint256"
						},
						{
							"internalType": "uint256[]",
							"name": "balances",
							"type": "uint256[]"
						},
						{
							"internalType": "uint256",
							"name": "lastInvariant",
							"type": "uint256"
						},
						{
							"internalType": "uint256",
							"name": "tokenIndex",
							"type": "uint256"
						},
						{
							"internalType": "uint256",
							"name": "protocolSwapFeePercentage",
							"type": "uint256"
						}
					],
					"name": "calculateDueTokenProtocolSwapFeeAmount",
					"outputs": [
						{
							"internalType": "uint256",
							"name": "",
							"type": "uint256"
						}
					],
					"stateMutability": "pure",
					"type": "function"
				},
				{
					"inputs": [
						{
							"internalType": "uint256",
							"name": "amp",
							"type": "uint256"
						},
						{
							"internalType": "uint256[]",
							"name": "balances",
							"type": "uint256[]"
						},
						{
							"internalType": "uint256",
							"name": "tokenIndex",
							"type": "uint256"
						},
						{
							"internalType": "uint256",
							"name": "bptAmountIn",
							"type": "uint256"
						},
						{
							"internalType": "uint256",
							"name": "bptTotalSupply",
							"type": "uint256"
						},
						{
							"internalType": "uint256",
							"name": "swapFee",
							"type": "uint256"
						}
					],
					"name": "exactBPTInForTokenOut",
					"outputs": [
						{
							"internalType": "uint256",
							"name": "",
							"type": "uint256"
						}
					],
					"stateMutability": "pure",
					"type": "function"
				},
				{
					"inputs": [
						{
							"internalType": "uint256[]",
							"name": "balances",
							"type": "uint256[]"
						},
						{
							"internalType": "uint256",
							"name": "bptAmountIn",
							"type": "uint256"
						},
						{
							"internalType": "uint256",
							"name": "bptTotalSupply",
							"type": "uint256"
						}
					],
					"name": "exactBPTInForTokensOut",
					"outputs": [
						{
							"internalType": "uint256[]",
							"name": "",
							"type": "uint256[]"
						}
					],
					"stateMutability": "pure",
					"type": "function"
				},
				{
					"inputs": [
						{
							"internalType": "uint256",
							"name": "amp",
							"type": "uint256"
						},
						{
							"internalType": "uint256[]",
							"name": "balances",
							"type": "uint256[]"
						},
						{
							"internalType": "uint256[]",
							"name": "amountsIn",
							"type": "uint256[]"
						},
						{
							"internalType": "uint256",
							"name": "bptTotalSupply",
							"type": "uint256"
						},
						{
							"internalType": "uint256",
							"name": "swapFee",
							"type": "uint256"
						}
					],
					"name": "exactTokensInForBPTOut",
					"outputs": [
						{
							"internalType": "uint256",
							"name": "",
							"type": "uint256"
						}
					],
					"stateMutability": "pure",
					"type": "function"
				},
				{
					"inputs": [
						{
							"internalType": "uint256",
							"name": "amp",
							"type": "uint256"
						},
						{
							"internalType": "uint256[]",
							"name": "balances",
							"type": "uint256[]"
						},
						{
							"internalType": "uint256",
							"name": "tokenIndexIn",
							"type": "uint256"
						},
						{
							"internalType": "uint256",
							"name": "tokenIndexOut",
							"type": "uint256"
						},
						{
							"internalType": "uint256",
							"name": "tokenAmountOut",
							"type": "uint256"
						}
					],
					"name": "inGivenOut",
					"outputs": [
						{
							"internalType": "uint256",
							"name": "",
							"type": "uint256"
						}
					],
					"stateMutability": "pure",
					"type": "function"
				},
				{
					"inputs": [
						{
							"internalType": "uint256",
							"name": "amp",
							"type": "uint256"
						},
						{
							"internalType": "uint256[]",
							"name": "balances",
							"type": "uint256[]"
						},
						{
							"internalType": "bool",
							"name": "roundUp",
							"type": "bool"
						}
					],
					"name": "invariant",
					"outputs": [
						{
							"internalType": "uint256",
							"name": "",
							"type": "uint256"
						}
					],
					"stateMutability": "pure",
					"type": "function"
				},
				{
					"inputs": [
						{
							"internalType": "uint256",
							"name": "amp",
							"type": "uint256"
						},
						{
							"internalType": "uint256[]",
							"name": "balances",
							"type": "uint256[]"
						},
						{
							"internalType": "uint256",
							"name": "tokenIndexIn",
							"type": "uint256"
						},
						{
							"internalType": "uint256",
							"name": "tokenIndexOut",
							"type": "uint256"
						},
						{
							"internalType": "uint256",
							"name": "tokenAmountIn",
							"type": "uint256"
						}
					],
					"name": "outGivenIn",
					"outputs": [
						{
							"internalType": "uint256",
							"name": "",
							"type": "uint256"
						}
					],
					"stateMutability": "pure",
					"type": "function"
				},
				{
					"inputs": [
						{
							"internalType": "uint256",
							"name": "amp",
							"type": "uint256"
						},
						{
							"internalType": "uint256[]",
							"name": "balances",
							"type": "uint256[]"
						},
						{
							"internalType": "uint256",
							"name": "tokenIndex",
							"type": "uint256"
						},
						{
							"internalType": "uint256",
							"name": "bptAmountOut",
							"type": "uint256"
						},
						{
							"internalType": "uint256",
							"name": "bptTotalSupply",
							"type": "uint256"
						},
						{
							"internalType": "uint256",
							"name": "swapFee",
							"type": "uint256"
						}
					],
					"name": "tokenInForExactBPTOut",
					"outputs": [
						{
							"internalType": "uint256",
							"name": "",
							"type": "uint256"
						}
					],
					"stateMutability": "pure",
					"type": "function"
				}
			],
			"devdoc": {
				"kind": "dev",
				"methods": {},
				"version": 1
			},
			"evm": {
				"assembly": "    /* \"contracts/StablePoolFactory.sol\":63787:66747  contract MockStableMath is StableMath {\r... */\n  mstore(0x40, 0x80)\n  callvalue\n  dup1\n  iszero\n  tag_1\n  jumpi\n  0x00\n  dup1\n  revert\ntag_1:\n  pop\n  dataSize(sub_0)\n  dup1\n  dataOffset(sub_0)\n  0x00\n  codecopy\n  0x00\n  return\nstop\n\nsub_0: assembly {\n        /* \"contracts/StablePoolFactory.sol\":63787:66747  contract MockStableMath is StableMath {\r... */\n      mstore(0x40, 0x80)\n      callvalue\n      dup1\n      iszero\n      tag_1\n      jumpi\n      0x00\n      dup1\n      revert\n    tag_1:\n      pop\n      jumpi(tag_2, lt(calldatasize, 0x04))\n      shr(0xe0, calldataload(0x00))\n      dup1\n      0x9cd91d3f\n      gt\n      tag_12\n      jumpi\n      dup1\n      0x9cd91d3f\n      eq\n      tag_7\n      jumpi\n      dup1\n      0xa89d4259\n      eq\n      tag_8\n      jumpi\n      dup1\n      0xcf1b8c8c\n      eq\n      tag_9\n      jumpi\n      dup1\n      0xdb7ad3f2\n      eq\n      tag_10\n      jumpi\n      dup1\n      0xfe2dd7ba\n      eq\n      tag_11\n      jumpi\n      jump(tag_2)\n    tag_12:\n      dup1\n      0x1c855fa6\n      eq\n      tag_3\n      jumpi\n      dup1\n      0x32fec905\n      eq\n      tag_4\n      jumpi\n      dup1\n      0x405de978\n      eq\n      tag_5\n      jumpi\n      dup1\n      0x6fc82f29\n      eq\n      tag_6\n      jumpi\n    tag_2:\n      0x00\n      dup1\n      revert\n        /* \"contracts/StablePoolFactory.sol\":65743:66016  function exactBPTInForTokensOut(\r... */\n    tag_3:\n      tag_13\n      0x04\n      dup1\n      calldatasize\n      sub\n      0x60\n      dup2\n      lt\n      iszero\n      tag_14\n      jumpi\n      0x00\n      dup1\n      revert\n    tag_14:\n      dup2\n      add\n      swap1\n      0x20\n      dup2\n      add\n      dup2\n      calldataload\n      shl(0x20, 0x01)\n      dup2\n      gt\n      iszero\n      tag_15\n      jumpi\n      0x00\n      dup1\n      revert\n    tag_15:\n      dup3\n      add\n      dup4\n      0x20\n      dup3\n      add\n      gt\n      iszero\n      tag_16\n      jumpi\n      0x00\n      dup1\n      revert\n    tag_16:\n      dup1\n      calldataload\n      swap1\n      0x20\n      add\n      swap2\n      dup5\n      0x20\n      dup4\n      mul\n      dup5\n      add\n      gt\n      shl(0x20, 0x01)\n      dup4\n      gt\n      or\n      iszero\n      tag_17\n      jumpi\n      0x00\n      dup1\n      revert\n    tag_17:\n      swap2\n      swap1\n      dup1\n      dup1\n      0x20\n      mul\n      0x20\n      add\n      mload(0x40)\n      swap1\n      dup2\n      add\n      0x40\n      mstore\n      dup1\n      swap4\n      swap3\n      swap2\n      swap1\n      dup2\n      dup2\n      mstore\n      0x20\n      add\n      dup4\n      dup4\n      0x20\n      mul\n      dup1\n      dup3\n      dup5\n      calldatacopy\n      0x00\n      swap3\n      add\n      swap2\n      swap1\n      swap2\n      mstore\n      pop\n      swap3\n      swap6\n      pop\n      pop\n      dup3\n      calldataload\n      swap4\n      pop\n      pop\n      pop\n      0x20\n      add\n      calldataload\n      tag_18\n      jump\t// in\n    tag_13:\n      0x40\n      dup1\n      mload\n      0x20\n      dup1\n      dup3\n      mstore\n      dup4\n      mload\n      dup2\n      dup4\n      add\n      mstore\n      dup4\n      mload\n      swap2\n      swap3\n      dup4\n      swap3\n      swap1\n      dup4\n      add\n      swap2\n      dup6\n      dup2\n      add\n      swap2\n      mul\n      dup1\n      dup4\n      dup4\n      0x00\n    tag_19:\n      dup4\n      dup2\n      lt\n      iszero\n      tag_21\n      jumpi\n      dup2\n      dup2\n      add\n      mload\n      dup4\n      dup3\n      add\n      mstore\n      0x20\n      add\n      jump(tag_19)\n    tag_21:\n      pop\n      pop\n      pop\n      pop\n      swap1\n      pop\n      add\n      swap3\n      pop\n      pop\n      pop\n      mload(0x40)\n      dup1\n      swap2\n      sub\n      swap1\n      return\n        /* \"contracts/StablePoolFactory.sol\":63832:64006  function invariant(uint256 amp, uint256[] memory balances, bool roundUp) external pure returns (uint256) {\r... */\n    tag_4:\n      tag_22\n      0x04\n      dup1\n      calldatasize\n      sub\n      0x60\n      dup2\n      lt\n      iszero\n      tag_23\n      jumpi\n      0x00\n      dup1\n      revert\n    tag_23:\n      dup2\n      calldataload\n      swap2\n      swap1\n      dup2\n      add\n      swap1\n      0x40\n      dup2\n      add\n      0x20\n      dup3\n      add\n      calldataload\n      shl(0x20, 0x01)\n      dup2\n      gt\n      iszero\n      tag_24\n      jumpi\n      0x00\n      dup1\n      revert\n    tag_24:\n      dup3\n      add\n      dup4\n      0x20\n      dup3\n      add\n      gt\n      iszero\n      tag_25\n      jumpi\n      0x00\n      dup1\n      revert\n    tag_25:\n      dup1\n      calldataload\n      swap1\n      0x20\n      add\n      swap2\n      dup5\n      0x20\n      dup4\n      mul\n      dup5\n      add\n      gt\n      shl(0x20, 0x01)\n      dup4\n      gt\n      or\n      iszero\n      tag_26\n      jumpi\n      0x00\n      dup1\n      revert\n    tag_26:\n      swap2\n      swap1\n      dup1\n      dup1\n      0x20\n      mul\n      0x20\n      add\n      mload(0x40)\n      swap1\n      dup2\n      add\n      0x40\n      mstore\n      dup1\n      swap4\n      swap3\n      swap2\n      swap1\n      dup2\n      dup2\n      mstore\n      0x20\n      add\n      dup4\n      dup4\n      0x20\n      mul\n      dup1\n      dup3\n      dup5\n      calldatacopy\n      0x00\n      swap3\n      add\n      swap2\n      swap1\n      swap2\n      mstore\n      pop\n      swap3\n      swap6\n      pop\n      pop\n      pop\n      pop\n      calldataload\n      iszero\n      iszero\n      swap1\n      pop\n      tag_27\n      jump\t// in\n    tag_22:\n      0x40\n      dup1\n      mload\n      swap2\n      dup3\n      mstore\n      mload\n      swap1\n      dup2\n      swap1\n      sub\n      0x20\n      add\n      swap1\n      return\n        /* \"contracts/StablePoolFactory.sol\":64995:65362  function tokenInForExactBPTOut(\r... */\n    tag_5:\n      tag_22\n      0x04\n      dup1\n      calldatasize\n      sub\n      0xc0\n      dup2\n      lt\n      iszero\n      tag_29\n      jumpi\n      0x00\n      dup1\n      revert\n    tag_29:\n      dup2\n      calldataload\n      swap2\n      swap1\n      dup2\n      add\n      swap1\n      0x40\n      dup2\n      add\n      0x20\n      dup3\n      add\n      calldataload\n      shl(0x20, 0x01)\n      dup2\n      gt\n      iszero\n      tag_30\n      jumpi\n      0x00\n      dup1\n      revert\n    tag_30:\n      dup3\n      add\n      dup4\n      0x20\n      dup3\n      add\n      gt\n      iszero\n      tag_31\n      jumpi\n      0x00\n      dup1\n      revert\n    tag_31:\n      dup1\n      calldataload\n      swap1\n      0x20\n      add\n      swap2\n      dup5\n      0x20\n      dup4\n      mul\n      dup5\n      add\n      gt\n      shl(0x20, 0x01)\n      dup4\n      gt\n      or\n      iszero\n      tag_32\n      jumpi\n      0x00\n      dup1\n      revert\n    tag_32:\n      swap2\n      swap1\n      dup1\n      dup1\n      0x20\n      mul\n      0x20\n      add\n      mload(0x40)\n      swap1\n      dup2\n      add\n      0x40\n      mstore\n      dup1\n      swap4\n      swap3\n      swap2\n      swap1\n      dup2\n      dup2\n      mstore\n      0x20\n      add\n      dup4\n      dup4\n      0x20\n      mul\n      dup1\n      dup3\n      dup5\n      calldatacopy\n      0x00\n      swap3\n      add\n      swap2\n      swap1\n      swap2\n      mstore\n      pop\n      swap3\n      swap6\n      pop\n      pop\n      dup3\n      calldataload\n      swap4\n      pop\n      pop\n      pop\n      0x20\n      dup2\n      add\n      calldataload\n      swap1\n      0x40\n      dup2\n      add\n      calldataload\n      swap1\n      0x60\n      add\n      calldataload\n      tag_33\n      jump\t// in\n        /* \"contracts/StablePoolFactory.sol\":64656:64987  function exactTokensInForBPTOut(\r... */\n    tag_6:\n      tag_22\n      0x04\n      dup1\n      calldatasize\n      sub\n      0xa0\n      dup2\n      lt\n      iszero\n      tag_35\n      jumpi\n      0x00\n      dup1\n      revert\n    tag_35:\n      dup2\n      calldataload\n      swap2\n      swap1\n      dup2\n      add\n      swap1\n      0x40\n      dup2\n      add\n      0x20\n      dup3\n      add\n      calldataload\n      shl(0x20, 0x01)\n      dup2\n      gt\n      iszero\n      tag_36\n      jumpi\n      0x00\n      dup1\n      revert\n    tag_36:\n      dup3\n      add\n      dup4\n      0x20\n      dup3\n      add\n      gt\n      iszero\n      tag_37\n      jumpi\n      0x00\n      dup1\n      revert\n    tag_37:\n      dup1\n      calldataload\n      swap1\n      0x20\n      add\n      swap2\n      dup5\n      0x20\n      dup4\n      mul\n      dup5\n      add\n      gt\n      shl(0x20, 0x01)\n      dup4\n      gt\n      or\n      iszero\n      tag_38\n      jumpi\n      0x00\n      dup1\n      revert\n    tag_38:\n      swap2\n      swap1\n      dup1\n      dup1\n      0x20\n      mul\n      0x20\n      add\n      mload(0x40)\n      swap1\n      dup2\n      add\n      0x40\n      mstore\n      dup1\n      swap4\n      swap3\n      swap2\n      swap1\n      dup2\n      dup2\n      mstore\n      0x20\n      add\n      dup4\n      dup4\n      0x20\n      mul\n      dup1\n      dup3\n      dup5\n      calldatacopy\n      0x00\n      swap3\n      add\n      swap2\n      swap1\n      swap2\n      mstore\n      pop\n      swap3\n      swap6\n      swap5\n      swap4\n      0x20\n      dup2\n      add\n      swap4\n      pop\n      calldataload\n      swap2\n      pop\n      pop\n      shl(0x20, 0x01)\n      dup2\n      gt\n      iszero\n      tag_39\n      jumpi\n      0x00\n      dup1\n      revert\n    tag_39:\n      dup3\n      add\n      dup4\n      0x20\n      dup3\n      add\n      gt\n      iszero\n      tag_40\n      jumpi\n      0x00\n      dup1\n      revert\n    tag_40:\n      dup1\n      calldataload\n      swap1\n      0x20\n      add\n      swap2\n      dup5\n      0x20\n      dup4\n      mul\n      dup5\n      add\n      gt\n      shl(0x20, 0x01)\n      dup4\n      gt\n      or\n      iszero\n      tag_41\n      jumpi\n      0x00\n      dup1\n      revert\n    tag_41:\n      swap2\n      swap1\n      dup1\n      dup1\n      0x20\n      mul\n      0x20\n      add\n      mload(0x40)\n      swap1\n      dup2\n      add\n      0x40\n      mstore\n      dup1\n      swap4\n      swap3\n      swap2\n      swap1\n      dup2\n      dup2\n      mstore\n      0x20\n      add\n      dup4\n      dup4\n      0x20\n      mul\n      dup1\n      dup3\n      dup5\n      calldatacopy\n      0x00\n      swap3\n      add\n      swap2\n      swap1\n      swap2\n      mstore\n      pop\n      swap3\n      swap6\n      pop\n      pop\n      dup3\n      calldataload\n      swap4\n      pop\n      pop\n      pop\n      0x20\n      add\n      calldataload\n      tag_42\n      jump\t// in\n        /* \"contracts/StablePoolFactory.sol\":64334:64648  function inGivenOut(\r... */\n    tag_7:\n      tag_22\n      0x04\n      dup1\n      calldatasize\n      sub\n      0xa0\n      dup2\n      lt\n      iszero\n      tag_44\n      jumpi\n      0x00\n      dup1\n      revert\n    tag_44:\n      dup2\n      calldataload\n      swap2\n      swap1\n      dup2\n      add\n      swap1\n      0x40\n      dup2\n      add\n      0x20\n      dup3\n      add\n      calldataload\n      shl(0x20, 0x01)\n      dup2\n      gt\n      iszero\n      tag_45\n      jumpi\n      0x00\n      dup1\n      revert\n    tag_45:\n      dup3\n      add\n      dup4\n      0x20\n      dup3\n      add\n      gt\n      iszero\n      tag_46\n      jumpi\n      0x00\n      dup1\n      revert\n    tag_46:\n      dup1\n      calldataload\n      swap1\n      0x20\n      add\n      swap2\n      dup5\n      0x20\n      dup4\n      mul\n      dup5\n      add\n      gt\n      shl(0x20, 0x01)\n      dup4\n      gt\n      or\n      iszero\n      tag_47\n      jumpi\n      0x00\n      dup1\n      revert\n    tag_47:\n      swap2\n      swap1\n      dup1\n      dup1\n      0x20\n      mul\n      0x20\n      add\n      mload(0x40)\n      swap1\n      dup2\n      add\n      0x40\n      mstore\n      dup1\n      swap4\n      swap3\n      swap2\n      swap1\n      dup2\n      dup2\n      mstore\n      0x20\n      add\n      dup4\n      dup4\n      0x20\n      mul\n      dup1\n      dup3\n      dup5\n      calldatacopy\n      0x00\n      swap3\n      add\n      swap2\n      swap1\n      swap2\n      mstore\n      pop\n      swap3\n      swap6\n      pop\n      pop\n      dup3\n      calldataload\n      swap4\n      pop\n      pop\n      pop\n      0x20\n      dup2\n      add\n      calldataload\n      swap1\n      0x40\n      add\n      calldataload\n      tag_48\n      jump\t// in\n        /* \"contracts/StablePoolFactory.sol\":66024:66357  function bptInForExactTokensOut(\r... */\n    tag_8:\n      tag_22\n      0x04\n      dup1\n      calldatasize\n      sub\n      0xa0\n      dup2\n      lt\n      iszero\n      tag_50\n      jumpi\n      0x00\n      dup1\n      revert\n    tag_50:\n      dup2\n      calldataload\n      swap2\n      swap1\n      dup2\n      add\n      swap1\n      0x40\n      dup2\n      add\n      0x20\n      dup3\n      add\n      calldataload\n      shl(0x20, 0x01)\n      dup2\n      gt\n      iszero\n      tag_51\n      jumpi\n      0x00\n      dup1\n      revert\n    tag_51:\n      dup3\n      add\n      dup4\n      0x20\n      dup3\n      add\n      gt\n      iszero\n      tag_52\n      jumpi\n      0x00\n      dup1\n      revert\n    tag_52:\n      dup1\n      calldataload\n      swap1\n      0x20\n      add\n      swap2\n      dup5\n      0x20\n      dup4\n      mul\n      dup5\n      add\n      gt\n      shl(0x20, 0x01)\n      dup4\n      gt\n      or\n      iszero\n      tag_53\n      jumpi\n      0x00\n      dup1\n      revert\n    tag_53:\n      swap2\n      swap1\n      dup1\n      dup1\n      0x20\n      mul\n      0x20\n      add\n      mload(0x40)\n      swap1\n      dup2\n      add\n      0x40\n      mstore\n      dup1\n      swap4\n      swap3\n      swap2\n      swap1\n      dup2\n      dup2\n      mstore\n      0x20\n      add\n      dup4\n      dup4\n      0x20\n      mul\n      dup1\n      dup3\n      dup5\n      calldatacopy\n      0x00\n      swap3\n      add\n      swap2\n      swap1\n      swap2\n      mstore\n      pop\n      swap3\n      swap6\n      swap5\n      swap4\n      0x20\n      dup2\n      add\n      swap4\n      pop\n      calldataload\n      swap2\n      pop\n      pop\n      shl(0x20, 0x01)\n      dup2\n      gt\n      iszero\n      tag_54\n      jumpi\n      0x00\n      dup1\n      revert\n    tag_54:\n      dup3\n      add\n      dup4\n      0x20\n      dup3\n      add\n      gt\n      iszero\n      tag_55\n      jumpi\n      0x00\n      dup1\n      revert\n    tag_55:\n      dup1\n      calldataload\n      swap1\n      0x20\n      add\n      swap2\n      dup5\n      0x20\n      dup4\n      mul\n      dup5\n      add\n      gt\n      shl(0x20, 0x01)\n      dup4\n      gt\n      or\n      iszero\n      tag_56\n      jumpi\n      0x00\n      dup1\n      revert\n    tag_56:\n      swap2\n      swap1\n      dup1\n      dup1\n      0x20\n      mul\n      0x20\n      add\n      mload(0x40)\n      swap1\n      dup2\n      add\n      0x40\n      mstore\n      dup1\n      swap4\n      swap3\n      swap2\n      swap1\n      dup2\n      dup2\n      mstore\n      0x20\n      add\n      dup4\n      dup4\n      0x20\n      mul\n      dup1\n      dup3\n      dup5\n      calldatacopy\n      0x00\n      swap3\n      add\n      swap2\n      swap1\n      swap2\n      mstore\n      pop\n      swap3\n      swap6\n      pop\n      pop\n      dup3\n      calldataload\n      swap4\n      pop\n      pop\n      pop\n      0x20\n      add\n      calldataload\n      tag_57\n      jump\t// in\n        /* \"contracts/StablePoolFactory.sol\":65370:65735  function exactBPTInForTokenOut(\r... */\n    tag_9:\n      tag_22\n      0x04\n      dup1\n      calldatasize\n      sub\n      0xc0\n      dup2\n      lt\n      iszero\n      tag_59\n      jumpi\n      0x00\n      dup1\n      revert\n    tag_59:\n      dup2\n      calldataload\n      swap2\n      swap1\n      dup2\n      add\n      swap1\n      0x40\n      dup2\n      add\n      0x20\n      dup3\n      add\n      calldataload\n      shl(0x20, 0x01)\n      dup2\n      gt\n      iszero\n      tag_60\n      jumpi\n      0x00\n      dup1\n      revert\n    tag_60:\n      dup3\n      add\n      dup4\n      0x20\n      dup3\n      add\n      gt\n      iszero\n      tag_61\n      jumpi\n      0x00\n      dup1\n      revert\n    tag_61:\n      dup1\n      calldataload\n      swap1\n      0x20\n      add\n      swap2\n      dup5\n      0x20\n      dup4\n      mul\n      dup5\n      add\n      gt\n      shl(0x20, 0x01)\n      dup4\n      gt\n      or\n      iszero\n      tag_62\n      jumpi\n      0x00\n      dup1\n      revert\n    tag_62:\n      swap2\n      swap1\n      dup1\n      dup1\n      0x20\n      mul\n      0x20\n      add\n      mload(0x40)\n      swap1\n      dup2\n      add\n      0x40\n      mstore\n      dup1\n      swap4\n      swap3\n      swap2\n      swap1\n      dup2\n      dup2\n      mstore\n      0x20\n      add\n      dup4\n      dup4\n      0x20\n      mul\n      dup1\n      dup3\n      dup5\n      calldatacopy\n      0x00\n      swap3\n      add\n      swap2\n      swap1\n      swap2\n      mstore\n      pop\n      swap3\n      swap6\n      pop\n      pop\n      dup3\n      calldataload\n      swap4\n      pop\n      pop\n      pop\n      0x20\n      dup2\n      add\n      calldataload\n      swap1\n      0x40\n      dup2\n      add\n      calldataload\n      swap1\n      0x60\n      add\n      calldataload\n      tag_63\n      jump\t// in\n        /* \"contracts/StablePoolFactory.sol\":66365:66744  function calculateDueTokenProtocolSwapFeeAmount(\r... */\n    tag_10:\n      tag_22\n      0x04\n      dup1\n      calldatasize\n      sub\n      0xa0\n      dup2\n      lt\n      iszero\n      tag_65\n      jumpi\n      0x00\n      dup1\n      revert\n    tag_65:\n      dup2\n      calldataload\n      swap2\n      swap1\n      dup2\n      add\n      swap1\n      0x40\n      dup2\n      add\n      0x20\n      dup3\n      add\n      calldataload\n      shl(0x20, 0x01)\n      dup2\n      gt\n      iszero\n      tag_66\n      jumpi\n      0x00\n      dup1\n      revert\n    tag_66:\n      dup3\n      add\n      dup4\n      0x20\n      dup3\n      add\n      gt\n      iszero\n      tag_67\n      jumpi\n      0x00\n      dup1\n      revert\n    tag_67:\n      dup1\n      calldataload\n      swap1\n      0x20\n      add\n      swap2\n      dup5\n      0x20\n      dup4\n      mul\n      dup5\n      add\n      gt\n      shl(0x20, 0x01)\n      dup4\n      gt\n      or\n      iszero\n      tag_68\n      jumpi\n      0x00\n      dup1\n      revert\n    tag_68:\n      swap2\n      swap1\n      dup1\n      dup1\n      0x20\n      mul\n      0x20\n      add\n      mload(0x40)\n      swap1\n      dup2\n      add\n      0x40\n      mstore\n      dup1\n      swap4\n      swap3\n      swap2\n      swap1\n      dup2\n      dup2\n      mstore\n      0x20\n      add\n      dup4\n      dup4\n      0x20\n      mul\n      dup1\n      dup3\n      dup5\n      calldatacopy\n      0x00\n      swap3\n      add\n      swap2\n      swap1\n      swap2\n      mstore\n      pop\n      swap3\n      swap6\n      pop\n      pop\n      dup3\n      calldataload\n      swap4\n      pop\n      pop\n      pop\n      0x20\n      dup2\n      add\n      calldataload\n      swap1\n      0x40\n      add\n      calldataload\n      tag_69\n      jump\t// in\n        /* \"contracts/StablePoolFactory.sol\":64014:64326  function outGivenIn(\r... */\n    tag_11:\n      tag_22\n      0x04\n      dup1\n      calldatasize\n      sub\n      0xa0\n      dup2\n      lt\n      iszero\n      tag_71\n      jumpi\n      0x00\n      dup1\n      revert\n    tag_71:\n      dup2\n      calldataload\n      swap2\n      swap1\n      dup2\n      add\n      swap1\n      0x40\n      dup2\n      add\n      0x20\n      dup3\n      add\n      calldataload\n      shl(0x20, 0x01)\n      dup2\n      gt\n      iszero\n      tag_72\n      jumpi\n      0x00\n      dup1\n      revert\n    tag_72:\n      dup3\n      add\n      dup4\n      0x20\n      dup3\n      add\n      gt\n      iszero\n      tag_73\n      jumpi\n      0x00\n      dup1\n      revert\n    tag_73:\n      dup1\n      calldataload\n      swap1\n      0x20\n      add\n      swap2\n      dup5\n      0x20\n      dup4\n      mul\n      dup5\n      add\n      gt\n      shl(0x20, 0x01)\n      dup4\n      gt\n      or\n      iszero\n      tag_74\n      jumpi\n      0x00\n      dup1\n      revert\n    tag_74:\n      swap2\n      swap1\n      dup1\n      dup1\n      0x20\n      mul\n      0x20\n      add\n      mload(0x40)\n      swap1\n      dup2\n      add\n      0x40\n      mstore\n      dup1\n      swap4\n      swap3\n      swap2\n      swap1\n      dup2\n      dup2\n      mstore\n      0x20\n      add\n      dup4\n      dup4\n      0x20\n      mul\n      dup1\n      dup3\n      dup5\n      calldatacopy\n      0x00\n      swap3\n      add\n      swap2\n      swap1\n      swap2\n      mstore\n      pop\n      swap3\n      swap6\n      pop\n      pop\n      dup3\n      calldataload\n      swap4\n      pop\n      pop\n      pop\n      0x20\n      dup2\n      add\n      calldataload\n      swap1\n      0x40\n      add\n      calldataload\n      tag_75\n      jump\t// in\n        /* \"contracts/StablePoolFactory.sol\":65743:66016  function exactBPTInForTokensOut(\r... */\n    tag_18:\n        /* \"contracts/StablePoolFactory.sol\":65904:65920  uint256[] memory */\n      0x60\n        /* \"contracts/StablePoolFactory.sol\":65940:66008  _calcTokensOutGivenExactBptIn(balances, bptAmountIn, bptTotalSupply) */\n      tag_77\n        /* \"contracts/StablePoolFactory.sol\":65970:65978  balances */\n      dup5\n        /* \"contracts/StablePoolFactory.sol\":65980:65991  bptAmountIn */\n      dup5\n        /* \"contracts/StablePoolFactory.sol\":65993:66007  bptTotalSupply */\n      dup5\n        /* \"contracts/StablePoolFactory.sol\":65940:65969  _calcTokensOutGivenExactBptIn */\n      tag_78\n        /* \"contracts/StablePoolFactory.sol\":65940:66008  _calcTokensOutGivenExactBptIn(balances, bptAmountIn, bptTotalSupply) */\n      jump\t// in\n    tag_77:\n        /* \"contracts/StablePoolFactory.sol\":65933:66008  return _calcTokensOutGivenExactBptIn(balances, bptAmountIn, bptTotalSupply) */\n      swap1\n      pop\n        /* \"contracts/StablePoolFactory.sol\":65743:66016  function exactBPTInForTokensOut(\r... */\n    tag_76:\n      swap4\n      swap3\n      pop\n      pop\n      pop\n      jump\t// out\n        /* \"contracts/StablePoolFactory.sol\":63832:64006  function invariant(uint256 amp, uint256[] memory balances, bool roundUp) external pure returns (uint256) {\r... */\n    tag_27:\n        /* \"contracts/StablePoolFactory.sol\":63928:63935  uint256 */\n      0x00\n        /* \"contracts/StablePoolFactory.sol\":63955:63998  _calculateInvariant(amp, balances, roundUp) */\n      tag_77\n        /* \"contracts/StablePoolFactory.sol\":63975:63978  amp */\n      dup5\n        /* \"contracts/StablePoolFactory.sol\":63980:63988  balances */\n      dup5\n        /* \"contracts/StablePoolFactory.sol\":63990:63997  roundUp */\n      dup5\n        /* \"contracts/StablePoolFactory.sol\":63955:63974  _calculateInvariant */\n      tag_81\n        /* \"contracts/StablePoolFactory.sol\":63955:63998  _calculateInvariant(amp, balances, roundUp) */\n      jump\t// in\n        /* \"contracts/StablePoolFactory.sol\":64995:65362  function tokenInForExactBPTOut(\r... */\n    tag_33:\n        /* \"contracts/StablePoolFactory.sol\":65233:65240  uint256 */\n      0x00\n        /* \"contracts/StablePoolFactory.sol\":65260:65354  _calcTokenInGivenExactBptOut(amp, balances, tokenIndex, bptAmountOut, bptTotalSupply, swapFee) */\n      tag_83\n        /* \"contracts/StablePoolFactory.sol\":65289:65292  amp */\n      dup8\n        /* \"contracts/StablePoolFactory.sol\":65294:65302  balances */\n      dup8\n        /* \"contracts/StablePoolFactory.sol\":65304:65314  tokenIndex */\n      dup8\n        /* \"contracts/StablePoolFactory.sol\":65316:65328  bptAmountOut */\n      dup8\n        /* \"contracts/StablePoolFactory.sol\":65330:65344  bptTotalSupply */\n      dup8\n        /* \"contracts/StablePoolFactory.sol\":65346:65353  swapFee */\n      dup8\n        /* \"contracts/StablePoolFactory.sol\":65260:65288  _calcTokenInGivenExactBptOut */\n      tag_84\n        /* \"contracts/StablePoolFactory.sol\":65260:65354  _calcTokenInGivenExactBptOut(amp, balances, tokenIndex, bptAmountOut, bptTotalSupply, swapFee) */\n      jump\t// in\n    tag_83:\n        /* \"contracts/StablePoolFactory.sol\":65253:65354  return _calcTokenInGivenExactBptOut(amp, balances, tokenIndex, bptAmountOut, bptTotalSupply, swapFee) */\n      swap8\n        /* \"contracts/StablePoolFactory.sol\":64995:65362  function tokenInForExactBPTOut(\r... */\n      swap7\n      pop\n      pop\n      pop\n      pop\n      pop\n      pop\n      pop\n      jump\t// out\n        /* \"contracts/StablePoolFactory.sol\":64656:64987  function exactTokensInForBPTOut(\r... */\n    tag_42:\n        /* \"contracts/StablePoolFactory.sol\":64872:64879  uint256 */\n      0x00\n        /* \"contracts/StablePoolFactory.sol\":64899:64979  _calcBptOutGivenExactTokensIn(amp, balances, amountsIn, bptTotalSupply, swapFee) */\n      tag_86\n        /* \"contracts/StablePoolFactory.sol\":64929:64932  amp */\n      dup7\n        /* \"contracts/StablePoolFactory.sol\":64934:64942  balances */\n      dup7\n        /* \"contracts/StablePoolFactory.sol\":64944:64953  amountsIn */\n      dup7\n        /* \"contracts/StablePoolFactory.sol\":64955:64969  bptTotalSupply */\n      dup7\n        /* \"contracts/StablePoolFactory.sol\":64971:64978  swapFee */\n      dup7\n        /* \"contracts/StablePoolFactory.sol\":64899:64928  _calcBptOutGivenExactTokensIn */\n      tag_87\n        /* \"contracts/StablePoolFactory.sol\":64899:64979  _calcBptOutGivenExactTokensIn(amp, balances, amountsIn, bptTotalSupply, swapFee) */\n      jump\t// in\n    tag_86:\n        /* \"contracts/StablePoolFactory.sol\":64892:64979  return _calcBptOutGivenExactTokensIn(amp, balances, amountsIn, bptTotalSupply, swapFee) */\n      swap1\n      pop\n        /* \"contracts/StablePoolFactory.sol\":64656:64987  function exactTokensInForBPTOut(\r... */\n    tag_85:\n      swap6\n      swap5\n      pop\n      pop\n      pop\n      pop\n      pop\n      jump\t// out\n        /* \"contracts/StablePoolFactory.sol\":64334:64648  function inGivenOut(\r... */\n    tag_48:\n        /* \"contracts/StablePoolFactory.sol\":64538:64545  uint256 */\n      0x00\n        /* \"contracts/StablePoolFactory.sol\":64565:64640  _calcInGivenOut(amp, balances, tokenIndexIn, tokenIndexOut, tokenAmountOut) */\n      tag_86\n        /* \"contracts/StablePoolFactory.sol\":64581:64584  amp */\n      dup7\n        /* \"contracts/StablePoolFactory.sol\":64586:64594  balances */\n      dup7\n        /* \"contracts/StablePoolFactory.sol\":64596:64608  tokenIndexIn */\n      dup7\n        /* \"contracts/StablePoolFactory.sol\":64610:64623  tokenIndexOut */\n      dup7\n        /* \"contracts/StablePoolFactory.sol\":64625:64639  tokenAmountOut */\n      dup7\n        /* \"contracts/StablePoolFactory.sol\":64565:64580  _calcInGivenOut */\n      tag_90\n        /* \"contracts/StablePoolFactory.sol\":64565:64640  _calcInGivenOut(amp, balances, tokenIndexIn, tokenIndexOut, tokenAmountOut) */\n      jump\t// in\n        /* \"contracts/StablePoolFactory.sol\":66024:66357  function bptInForExactTokensOut(\r... */\n    tag_57:\n        /* \"contracts/StablePoolFactory.sol\":66241:66248  uint256 */\n      0x00\n        /* \"contracts/StablePoolFactory.sol\":66268:66349  _calcBptInGivenExactTokensOut(amp, balances, amountsOut, bptTotalSupply, swapFee) */\n      tag_86\n        /* \"contracts/StablePoolFactory.sol\":66298:66301  amp */\n      dup7\n        /* \"contracts/StablePoolFactory.sol\":66303:66311  balances */\n      dup7\n        /* \"contracts/StablePoolFactory.sol\":66313:66323  amountsOut */\n      dup7\n        /* \"contracts/StablePoolFactory.sol\":66325:66339  bptTotalSupply */\n      dup7\n        /* \"contracts/StablePoolFactory.sol\":66341:66348  swapFee */\n      dup7\n        /* \"contracts/StablePoolFactory.sol\":66268:66297  _calcBptInGivenExactTokensOut */\n      tag_93\n        /* \"contracts/StablePoolFactory.sol\":66268:66349  _calcBptInGivenExactTokensOut(amp, balances, amountsOut, bptTotalSupply, swapFee) */\n      jump\t// in\n        /* \"contracts/StablePoolFactory.sol\":65370:65735  function exactBPTInForTokenOut(\r... */\n    tag_63:\n        /* \"contracts/StablePoolFactory.sol\":65607:65614  uint256 */\n      0x00\n        /* \"contracts/StablePoolFactory.sol\":65634:65727  _calcTokenOutGivenExactBptIn(amp, balances, tokenIndex, bptAmountIn, bptTotalSupply, swapFee) */\n      tag_83\n        /* \"contracts/StablePoolFactory.sol\":65663:65666  amp */\n      dup8\n        /* \"contracts/StablePoolFactory.sol\":65668:65676  balances */\n      dup8\n        /* \"contracts/StablePoolFactory.sol\":65678:65688  tokenIndex */\n      dup8\n        /* \"contracts/StablePoolFactory.sol\":65690:65701  bptAmountIn */\n      dup8\n        /* \"contracts/StablePoolFactory.sol\":65703:65717  bptTotalSupply */\n      dup8\n        /* \"contracts/StablePoolFactory.sol\":65719:65726  swapFee */\n      dup8\n        /* \"contracts/StablePoolFactory.sol\":65634:65662  _calcTokenOutGivenExactBptIn */\n      tag_96\n        /* \"contracts/StablePoolFactory.sol\":65634:65727  _calcTokenOutGivenExactBptIn(amp, balances, tokenIndex, bptAmountIn, bptTotalSupply, swapFee) */\n      jump\t// in\n        /* \"contracts/StablePoolFactory.sol\":66365:66744  function calculateDueTokenProtocolSwapFeeAmount(\r... */\n    tag_69:\n        /* \"contracts/StablePoolFactory.sol\":66606:66613  uint256 */\n      0x00\n        /* \"contracts/StablePoolFactory.sol\":66633:66736  _calcDueTokenProtocolSwapFeeAmount(amp, balances, lastInvariant, tokenIndex, protocolSwapFeePercentage) */\n      tag_86\n        /* \"contracts/StablePoolFactory.sol\":66668:66671  amp */\n      dup7\n        /* \"contracts/StablePoolFactory.sol\":66673:66681  balances */\n      dup7\n        /* \"contracts/StablePoolFactory.sol\":66683:66696  lastInvariant */\n      dup7\n        /* \"contracts/StablePoolFactory.sol\":66698:66708  tokenIndex */\n      dup7\n        /* \"contracts/StablePoolFactory.sol\":66710:66735  protocolSwapFeePercentage */\n      dup7\n        /* \"contracts/StablePoolFactory.sol\":66633:66667  _calcDueTokenProtocolSwapFeeAmount */\n      tag_99\n        /* \"contracts/StablePoolFactory.sol\":66633:66736  _calcDueTokenProtocolSwapFeeAmount(amp, balances, lastInvariant, tokenIndex, protocolSwapFeePercentage) */\n      jump\t// in\n        /* \"contracts/StablePoolFactory.sol\":64014:64326  function outGivenIn(\r... */\n    tag_75:\n        /* \"contracts/StablePoolFactory.sol\":64217:64224  uint256 */\n      0x00\n        /* \"contracts/StablePoolFactory.sol\":64244:64318  _calcOutGivenIn(amp, balances, tokenIndexIn, tokenIndexOut, tokenAmountIn) */\n      tag_86\n        /* \"contracts/StablePoolFactory.sol\":64260:64263  amp */\n      dup7\n        /* \"contracts/StablePoolFactory.sol\":64265:64273  balances */\n      dup7\n        /* \"contracts/StablePoolFactory.sol\":64275:64287  tokenIndexIn */\n      dup7\n        /* \"contracts/StablePoolFactory.sol\":64289:64302  tokenIndexOut */\n      dup7\n        /* \"contracts/StablePoolFactory.sol\":64304:64317  tokenAmountIn */\n      dup7\n        /* \"contracts/StablePoolFactory.sol\":64244:64259  _calcOutGivenIn */\n      tag_102\n        /* \"contracts/StablePoolFactory.sol\":64244:64318  _calcOutGivenIn(amp, balances, tokenIndexIn, tokenIndexOut, tokenAmountIn) */\n      jump\t// in\n        /* \"contracts/StablePoolFactory.sol\":56756:58240  function _calcTokensOutGivenExactBptIn(\r... */\n    tag_78:\n        /* \"contracts/StablePoolFactory.sol\":56924:56940  uint256[] memory */\n      0x60\n        /* \"contracts/StablePoolFactory.sol\":57947:57963  uint256 bptRatio */\n      0x00\n        /* \"contracts/StablePoolFactory.sol\":57966:58001  bptAmountIn.divDown(bptTotalSupply) */\n      tag_104\n        /* \"contracts/StablePoolFactory.sol\":57966:57977  bptAmountIn */\n      dup5\n        /* \"contracts/StablePoolFactory.sol\":57986:58000  bptTotalSupply */\n      dup5\n        /* \"contracts/StablePoolFactory.sol\":57966:57985  bptAmountIn.divDown */\n      tag_105\n        /* \"contracts/StablePoolFactory.sol\":57966:58001  bptAmountIn.divDown(bptTotalSupply) */\n      jump\t// in\n    tag_104:\n        /* \"contracts/StablePoolFactory.sol\":57947:58001  uint256 bptRatio = bptAmountIn.divDown(bptTotalSupply) */\n      swap1\n      pop\n        /* \"contracts/StablePoolFactory.sol\":58014:58041  uint256[] memory amountsOut */\n      0x60\n        /* \"contracts/StablePoolFactory.sol\":58058:58066  balances */\n      dup6\n        /* \"contracts/StablePoolFactory.sol\":58058:58073  balances.length */\n      mload\n        /* \"contracts/StablePoolFactory.sol\":58044:58074  new uint256[](balances.length) */\n      0xffffffffffffffff\n      dup2\n      gt\n      dup1\n      iszero\n      tag_106\n      jumpi\n      0x00\n      dup1\n      revert\n    tag_106:\n      pop\n      mload(0x40)\n      swap1\n      dup1\n      dup3\n      mstore\n      dup1\n      0x20\n      mul\n      0x20\n      add\n      dup3\n      add\n      0x40\n      mstore\n      dup1\n      iszero\n      tag_107\n      jumpi\n      dup2\n      0x20\n      add\n      0x20\n      dup3\n      mul\n      dup1\n      calldatasize\n      dup4\n      calldatacopy\n      add\n      swap1\n      pop\n    tag_107:\n      pop\n        /* \"contracts/StablePoolFactory.sol\":58014:58074  uint256[] memory amountsOut = new uint256[](balances.length) */\n      swap1\n      pop\n        /* \"contracts/StablePoolFactory.sol\":58090:58099  uint256 i */\n      0x00\n        /* \"contracts/StablePoolFactory.sol\":58085:58203  for (uint256 i = 0; i < balances.length; i++) {\r... */\n    tag_108:\n        /* \"contracts/StablePoolFactory.sol\":58109:58117  balances */\n      dup7\n        /* \"contracts/StablePoolFactory.sol\":58109:58124  balances.length */\n      mload\n        /* \"contracts/StablePoolFactory.sol\":58105:58106  i */\n      dup2\n        /* \"contracts/StablePoolFactory.sol\":58105:58124  i < balances.length */\n      lt\n        /* \"contracts/StablePoolFactory.sol\":58085:58203  for (uint256 i = 0; i < balances.length; i++) {\r... */\n      iszero\n      tag_109\n      jumpi\n        /* \"contracts/StablePoolFactory.sol\":58162:58191  balances[i].mulDown(bptRatio) */\n      tag_111\n        /* \"contracts/StablePoolFactory.sol\":58182:58190  bptRatio */\n      dup4\n        /* \"contracts/StablePoolFactory.sol\":58162:58170  balances */\n      dup9\n        /* \"contracts/StablePoolFactory.sol\":58171:58172  i */\n      dup4\n        /* \"contracts/StablePoolFactory.sol\":58162:58173  balances[i] */\n      dup2\n      mload\n      dup2\n      lt\n      tag_112\n      jumpi\n      invalid\n    tag_112:\n      0x20\n      mul\n      0x20\n      add\n      add\n      mload\n        /* \"contracts/StablePoolFactory.sol\":58162:58181  balances[i].mulDown */\n      tag_113\n      swap1\n        /* \"contracts/StablePoolFactory.sol\":58162:58191  balances[i].mulDown(bptRatio) */\n      swap2\n      swap1\n      0xffffffff\n      and\n      jump\t// in\n    tag_111:\n        /* \"contracts/StablePoolFactory.sol\":58146:58156  amountsOut */\n      dup3\n        /* \"contracts/StablePoolFactory.sol\":58157:58158  i */\n      dup3\n        /* \"contracts/StablePoolFactory.sol\":58146:58159  amountsOut[i] */\n      dup2\n      mload\n      dup2\n      lt\n      tag_114\n      jumpi\n      invalid\n    tag_114:\n      0x20\n      swap1\n      dup2\n      mul\n      swap2\n      swap1\n      swap2\n      add\n      add\n        /* \"contracts/StablePoolFactory.sol\":58146:58191  amountsOut[i] = balances[i].mulDown(bptRatio) */\n      mstore\n        /* \"contracts/StablePoolFactory.sol\":58126:58129  i++ */\n      0x01\n      add\n        /* \"contracts/StablePoolFactory.sol\":58085:58203  for (uint256 i = 0; i < balances.length; i++) {\r... */\n      jump(tag_108)\n    tag_109:\n      pop\n        /* \"contracts/StablePoolFactory.sol\":58222:58232  amountsOut */\n      swap6\n        /* \"contracts/StablePoolFactory.sol\":56756:58240  function _calcTokensOutGivenExactBptIn(\r... */\n      swap5\n      pop\n      pop\n      pop\n      pop\n      pop\n      jump\t// out\n        /* \"contracts/StablePoolFactory.sol\":38993:41655  function _calculateInvariant(\r... */\n    tag_81:\n        /* \"contracts/StablePoolFactory.sol\":40106:40121  balances.length */\n      dup2\n      mload\n        /* \"contracts/StablePoolFactory.sol\":39152:39159  uint256 */\n      0x00\n      swap1\n      dup2\n      swap1\n      dup2\n        /* \"contracts/StablePoolFactory.sol\":40132:40225  for (uint256 i = 0; i < numTokens; i++) {\r... */\n    tag_116:\n        /* \"contracts/StablePoolFactory.sol\":40156:40165  numTokens */\n      dup2\n        /* \"contracts/StablePoolFactory.sol\":40152:40153  i */\n      dup2\n        /* \"contracts/StablePoolFactory.sol\":40152:40165  i < numTokens */\n      lt\n        /* \"contracts/StablePoolFactory.sol\":40132:40225  for (uint256 i = 0; i < numTokens; i++) {\r... */\n      iszero\n      tag_117\n      jumpi\n        /* \"contracts/StablePoolFactory.sol\":40193:40213  sum.add(balances[i]) */\n      tag_119\n        /* \"contracts/StablePoolFactory.sol\":40201:40209  balances */\n      dup7\n        /* \"contracts/StablePoolFactory.sol\":40210:40211  i */\n      dup3\n        /* \"contracts/StablePoolFactory.sol\":40201:40212  balances[i] */\n      dup2\n      mload\n      dup2\n      lt\n      tag_120\n      jumpi\n      invalid\n    tag_120:\n      0x20\n      mul\n      0x20\n      add\n      add\n      mload\n        /* \"contracts/StablePoolFactory.sol\":40193:40196  sum */\n      dup5\n        /* \"contracts/StablePoolFactory.sol\":40193:40200  sum.add */\n      tag_121\n      swap1\n        /* \"contracts/StablePoolFactory.sol\":40193:40213  sum.add(balances[i]) */\n      swap2\n      swap1\n      0xffffffff\n      and\n      jump\t// in\n    tag_119:\n        /* \"contracts/StablePoolFactory.sol\":40187:40213  sum = sum.add(balances[i]) */\n      swap3\n      pop\n        /* \"contracts/StablePoolFactory.sol\":40167:40170  i++ */\n      0x01\n      add\n        /* \"contracts/StablePoolFactory.sol\":40132:40225  for (uint256 i = 0; i < numTokens; i++) {\r... */\n      jump(tag_116)\n    tag_117:\n      pop\n        /* \"contracts/StablePoolFactory.sol\":40239:40247  sum == 0 */\n      dup2\n        /* \"contracts/StablePoolFactory.sol\":40235:40284  if (sum == 0) {\r... */\n      tag_122\n      jumpi\n        /* \"contracts/StablePoolFactory.sol\":40271:40272  0 */\n      0x00\n        /* \"contracts/StablePoolFactory.sol\":40264:40272  return 0 */\n      swap3\n      pop\n      pop\n      pop\n      jump(tag_76)\n        /* \"contracts/StablePoolFactory.sol\":40235:40284  if (sum == 0) {\r... */\n    tag_122:\n        /* \"contracts/StablePoolFactory.sol\":40296:40317  uint256 prevInvariant */\n      0x00\n        /* \"contracts/StablePoolFactory.sol\":40352:40355  sum */\n      dup3\n        /* \"contracts/StablePoolFactory.sol\":40390:40424  amplificationParameter * numTokens */\n      dup8\n      dup4\n      mul\n        /* \"contracts/StablePoolFactory.sol\":40296:40317  uint256 prevInvariant */\n      dup3\n        /* \"contracts/StablePoolFactory.sol\":40437:41586  for (uint256 i = 0; i < 255; i++) {\r... */\n    tag_123:\n        /* \"contracts/StablePoolFactory.sol\":40461:40464  255 */\n      0xff\n        /* \"contracts/StablePoolFactory.sol\":40457:40458  i */\n      dup2\n        /* \"contracts/StablePoolFactory.sol\":40457:40464  i < 255 */\n      lt\n        /* \"contracts/StablePoolFactory.sol\":40437:41586  for (uint256 i = 0; i < 255; i++) {\r... */\n      iszero\n      tag_124\n      jumpi\n        /* \"contracts/StablePoolFactory.sol\":40486:40497  uint256 P_D */\n      0x00\n        /* \"contracts/StablePoolFactory.sol\":40514:40523  numTokens */\n      dup6\n        /* \"contracts/StablePoolFactory.sol\":40500:40508  balances */\n      dup11\n        /* \"contracts/StablePoolFactory.sol\":40509:40510  0 */\n      0x00\n        /* \"contracts/StablePoolFactory.sol\":40500:40511  balances[0] */\n      dup2\n      mload\n      dup2\n      lt\n      tag_126\n      jumpi\n      invalid\n    tag_126:\n      0x20\n      mul\n      0x20\n      add\n      add\n      mload\n        /* \"contracts/StablePoolFactory.sol\":40500:40523  balances[0] * numTokens */\n      mul\n        /* \"contracts/StablePoolFactory.sol\":40486:40523  uint256 P_D = balances[0] * numTokens */\n      swap1\n      pop\n        /* \"contracts/StablePoolFactory.sol\":40543:40552  uint256 j */\n      0x00\n        /* \"contracts/StablePoolFactory.sol\":40555:40556  1 */\n      0x01\n        /* \"contracts/StablePoolFactory.sol\":40543:40556  uint256 j = 1 */\n      swap1\n      pop\n        /* \"contracts/StablePoolFactory.sol\":40538:40696  for (uint256 j = 1; j < numTokens; j++) {\r... */\n    tag_127:\n        /* \"contracts/StablePoolFactory.sol\":40562:40571  numTokens */\n      dup7\n        /* \"contracts/StablePoolFactory.sol\":40558:40559  j */\n      dup2\n        /* \"contracts/StablePoolFactory.sol\":40558:40571  j < numTokens */\n      lt\n        /* \"contracts/StablePoolFactory.sol\":40538:40696  for (uint256 j = 1; j < numTokens; j++) {\r... */\n      iszero\n      tag_128\n      jumpi\n        /* \"contracts/StablePoolFactory.sol\":40603:40680  Math.div(Math.mul(Math.mul(P_D, balances[j]), numTokens), invariant, roundUp) */\n      tag_130\n        /* \"contracts/StablePoolFactory.sol\":40612:40659  Math.mul(Math.mul(P_D, balances[j]), numTokens) */\n      tag_131\n        /* \"contracts/StablePoolFactory.sol\":40621:40647  Math.mul(P_D, balances[j]) */\n      tag_132\n        /* \"contracts/StablePoolFactory.sol\":40630:40633  P_D */\n      dup5\n        /* \"contracts/StablePoolFactory.sol\":40635:40643  balances */\n      dup15\n        /* \"contracts/StablePoolFactory.sol\":40644:40645  j */\n      dup6\n        /* \"contracts/StablePoolFactory.sol\":40635:40646  balances[j] */\n      dup2\n      mload\n      dup2\n      lt\n      tag_133\n      jumpi\n      invalid\n    tag_133:\n      0x20\n      mul\n      0x20\n      add\n      add\n      mload\n        /* \"contracts/StablePoolFactory.sol\":40621:40629  Math.mul */\n      tag_134\n        /* \"contracts/StablePoolFactory.sol\":40621:40647  Math.mul(P_D, balances[j]) */\n      jump\t// in\n    tag_132:\n        /* \"contracts/StablePoolFactory.sol\":40649:40658  numTokens */\n      dup10\n        /* \"contracts/StablePoolFactory.sol\":40612:40620  Math.mul */\n      tag_134\n        /* \"contracts/StablePoolFactory.sol\":40612:40659  Math.mul(Math.mul(P_D, balances[j]), numTokens) */\n      jump\t// in\n    tag_131:\n        /* \"contracts/StablePoolFactory.sol\":40661:40670  invariant */\n      dup7\n        /* \"contracts/StablePoolFactory.sol\":40672:40679  roundUp */\n      dup13\n        /* \"contracts/StablePoolFactory.sol\":40603:40611  Math.div */\n      tag_135\n        /* \"contracts/StablePoolFactory.sol\":40603:40680  Math.div(Math.mul(Math.mul(P_D, balances[j]), numTokens), invariant, roundUp) */\n      jump\t// in\n    tag_130:\n        /* \"contracts/StablePoolFactory.sol\":40597:40680  P_D = Math.div(Math.mul(Math.mul(P_D, balances[j]), numTokens), invariant, roundUp) */\n      swap2\n      pop\n        /* \"contracts/StablePoolFactory.sol\":40573:40576  j++ */\n      0x01\n      add\n        /* \"contracts/StablePoolFactory.sol\":40538:40696  for (uint256 j = 1; j < numTokens; j++) {\r... */\n      jump(tag_127)\n    tag_128:\n      pop\n        /* \"contracts/StablePoolFactory.sol\":40726:40735  invariant */\n      dup4\n        /* \"contracts/StablePoolFactory.sol\":40710:40735  prevInvariant = invariant */\n      swap5\n      pop\n        /* \"contracts/StablePoolFactory.sol\":40762:41305  Math.div(\r... */\n      tag_136\n        /* \"contracts/StablePoolFactory.sol\":40789:40964  Math.mul(Math.mul(numTokens, invariant), invariant).add(\r... */\n      tag_137\n        /* \"contracts/StablePoolFactory.sol\":40867:40945  Math.div(Math.mul(Math.mul(ampTimesTotal, sum), P_D), _AMP_PRECISION, roundUp) */\n      tag_138\n        /* \"contracts/StablePoolFactory.sol\":40876:40919  Math.mul(Math.mul(ampTimesTotal, sum), P_D) */\n      tag_139\n        /* \"contracts/StablePoolFactory.sol\":40885:40913  Math.mul(ampTimesTotal, sum) */\n      tag_140\n        /* \"contracts/StablePoolFactory.sol\":40894:40907  ampTimesTotal */\n      dup8\n        /* \"contracts/StablePoolFactory.sol\":40909:40912  sum */\n      dup13\n        /* \"contracts/StablePoolFactory.sol\":40885:40893  Math.mul */\n      tag_134\n        /* \"contracts/StablePoolFactory.sol\":40885:40913  Math.mul(ampTimesTotal, sum) */\n      jump\t// in\n    tag_140:\n        /* \"contracts/StablePoolFactory.sol\":40915:40918  P_D */\n      dup6\n        /* \"contracts/StablePoolFactory.sol\":40876:40884  Math.mul */\n      tag_134\n        /* \"contracts/StablePoolFactory.sol\":40876:40919  Math.mul(Math.mul(ampTimesTotal, sum), P_D) */\n      jump\t// in\n    tag_139:\n        /* \"contracts/StablePoolFactory.sol\":37892:37895  1e3 */\n      0x03e8\n        /* \"contracts/StablePoolFactory.sol\":40937:40944  roundUp */\n      dup14\n        /* \"contracts/StablePoolFactory.sol\":40867:40875  Math.div */\n      tag_135\n        /* \"contracts/StablePoolFactory.sol\":40867:40945  Math.div(Math.mul(Math.mul(ampTimesTotal, sum), P_D), _AMP_PRECISION, roundUp) */\n      jump\t// in\n    tag_138:\n        /* \"contracts/StablePoolFactory.sol\":40789:40840  Math.mul(Math.mul(numTokens, invariant), invariant) */\n      tag_141\n        /* \"contracts/StablePoolFactory.sol\":40798:40828  Math.mul(numTokens, invariant) */\n      tag_142\n        /* \"contracts/StablePoolFactory.sol\":40807:40816  numTokens */\n      dup11\n        /* \"contracts/StablePoolFactory.sol\":40818:40827  invariant */\n      dup10\n        /* \"contracts/StablePoolFactory.sol\":40798:40806  Math.mul */\n      tag_134\n        /* \"contracts/StablePoolFactory.sol\":40798:40828  Math.mul(numTokens, invariant) */\n      jump\t// in\n    tag_142:\n        /* \"contracts/StablePoolFactory.sol\":40830:40839  invariant */\n      dup9\n        /* \"contracts/StablePoolFactory.sol\":40789:40797  Math.mul */\n      tag_134\n        /* \"contracts/StablePoolFactory.sol\":40789:40840  Math.mul(Math.mul(numTokens, invariant), invariant) */\n      jump\t// in\n    tag_141:\n        /* \"contracts/StablePoolFactory.sol\":40789:40844  Math.mul(Math.mul(numTokens, invariant), invariant).add */\n      swap1\n      tag_121\n        /* \"contracts/StablePoolFactory.sol\":40789:40964  Math.mul(Math.mul(numTokens, invariant), invariant).add(\r... */\n      jump\t// in\n    tag_137:\n        /* \"contracts/StablePoolFactory.sol\":40983:41264  Math.mul(numTokens + 1, invariant).add(\r... */\n      tag_143\n        /* \"contracts/StablePoolFactory.sol\":41164:41245  Math.div(Math.mul(ampTimesTotal - _AMP_PRECISION, P_D), _AMP_PRECISION, !roundUp) */\n      tag_144\n        /* \"contracts/StablePoolFactory.sol\":41173:41218  Math.mul(ampTimesTotal - _AMP_PRECISION, P_D) */\n      tag_145\n        /* \"contracts/StablePoolFactory.sol\":37892:37895  1e3 */\n      0x03e8\n        /* \"contracts/StablePoolFactory.sol\":41182:41195  ampTimesTotal */\n      dup9\n        /* \"contracts/StablePoolFactory.sol\":41182:41212  ampTimesTotal - _AMP_PRECISION */\n      sub\n        /* \"contracts/StablePoolFactory.sol\":41214:41217  P_D */\n      dup7\n        /* \"contracts/StablePoolFactory.sol\":41173:41181  Math.mul */\n      tag_134\n        /* \"contracts/StablePoolFactory.sol\":41173:41218  Math.mul(ampTimesTotal - _AMP_PRECISION, P_D) */\n      jump\t// in\n    tag_145:\n        /* \"contracts/StablePoolFactory.sol\":37892:37895  1e3 */\n      0x03e8\n        /* \"contracts/StablePoolFactory.sol\":41237:41244  roundUp */\n      dup15\n        /* \"contracts/StablePoolFactory.sol\":41236:41244  !roundUp */\n      iszero\n        /* \"contracts/StablePoolFactory.sol\":41164:41172  Math.div */\n      tag_135\n        /* \"contracts/StablePoolFactory.sol\":41164:41245  Math.div(Math.mul(ampTimesTotal - _AMP_PRECISION, P_D), _AMP_PRECISION, !roundUp) */\n      jump\t// in\n    tag_144:\n        /* \"contracts/StablePoolFactory.sol\":40983:41017  Math.mul(numTokens + 1, invariant) */\n      tag_141\n        /* \"contracts/StablePoolFactory.sol\":40992:41001  numTokens */\n      dup11\n        /* \"contracts/StablePoolFactory.sol\":41004:41005  1 */\n      0x01\n        /* \"contracts/StablePoolFactory.sol\":40992:41005  numTokens + 1 */\n      add\n        /* \"contracts/StablePoolFactory.sol\":41007:41016  invariant */\n      dup10\n        /* \"contracts/StablePoolFactory.sol\":40983:40991  Math.mul */\n      tag_134\n        /* \"contracts/StablePoolFactory.sol\":40983:41017  Math.mul(numTokens + 1, invariant) */\n      jump\t// in\n        /* \"contracts/StablePoolFactory.sol\":40983:41264  Math.mul(numTokens + 1, invariant).add(\r... */\n    tag_143:\n        /* \"contracts/StablePoolFactory.sol\":41283:41290  roundUp */\n      dup12\n        /* \"contracts/StablePoolFactory.sol\":40762:40770  Math.div */\n      tag_135\n        /* \"contracts/StablePoolFactory.sol\":40762:41305  Math.div(\r... */\n      jump\t// in\n    tag_136:\n        /* \"contracts/StablePoolFactory.sol\":40750:41305  invariant = Math.div(\r... */\n      swap4\n      pop\n        /* \"contracts/StablePoolFactory.sol\":41338:41351  prevInvariant */\n      dup5\n        /* \"contracts/StablePoolFactory.sol\":41326:41335  invariant */\n      dup5\n        /* \"contracts/StablePoolFactory.sol\":41326:41351  invariant > prevInvariant */\n      gt\n        /* \"contracts/StablePoolFactory.sol\":41322:41575  if (invariant > prevInvariant) {\r... */\n      iszero\n      tag_147\n      jumpi\n        /* \"contracts/StablePoolFactory.sol\":41405:41406  1 */\n      0x01\n        /* \"contracts/StablePoolFactory.sol\":41388:41401  prevInvariant */\n      dup6\n        /* \"contracts/StablePoolFactory.sol\":41376:41385  invariant */\n      dup6\n        /* \"contracts/StablePoolFactory.sol\":41376:41401  invariant - prevInvariant */\n      sub\n        /* \"contracts/StablePoolFactory.sol\":41376:41406  invariant - prevInvariant <= 1 */\n      gt\n        /* \"contracts/StablePoolFactory.sol\":41372:41467  if (invariant - prevInvariant <= 1) {\r... */\n      tag_148\n      jumpi\n        /* \"contracts/StablePoolFactory.sol\":41438:41447  invariant */\n      dup4\n        /* \"contracts/StablePoolFactory.sol\":41431:41447  return invariant */\n      swap8\n      pop\n      pop\n      pop\n      pop\n      pop\n      pop\n      pop\n      pop\n      jump(tag_76)\n        /* \"contracts/StablePoolFactory.sol\":41372:41467  if (invariant - prevInvariant <= 1) {\r... */\n    tag_148:\n        /* \"contracts/StablePoolFactory.sol\":41322:41575  if (invariant > prevInvariant) {\r... */\n      jump(tag_150)\n    tag_147:\n        /* \"contracts/StablePoolFactory.sol\":41521:41522  1 */\n      0x01\n        /* \"contracts/StablePoolFactory.sol\":41508:41517  invariant */\n      dup5\n        /* \"contracts/StablePoolFactory.sol\":41492:41505  prevInvariant */\n      dup7\n        /* \"contracts/StablePoolFactory.sol\":41492:41517  prevInvariant - invariant */\n      sub\n        /* \"contracts/StablePoolFactory.sol\":41492:41522  prevInvariant - invariant <= 1 */\n      gt\n        /* \"contracts/StablePoolFactory.sol\":41488:41575  if (prevInvariant - invariant <= 1) {\r... */\n      tag_150\n      jumpi\n        /* \"contracts/StablePoolFactory.sol\":41550:41559  invariant */\n      dup4\n        /* \"contracts/StablePoolFactory.sol\":41543:41559  return invariant */\n      swap8\n      pop\n      pop\n      pop\n      pop\n      pop\n      pop\n      pop\n      pop\n      jump(tag_76)\n        /* \"contracts/StablePoolFactory.sol\":41488:41575  if (prevInvariant - invariant <= 1) {\r... */\n    tag_150:\n      pop\n        /* \"contracts/StablePoolFactory.sol\":40466:40469  i++ */\n      0x01\n      add\n        /* \"contracts/StablePoolFactory.sol\":40437:41586  for (uint256 i = 0; i < 255; i++) {\r... */\n      jump(tag_123)\n    tag_124:\n      pop\n        /* \"contracts/StablePoolFactory.sol\":41598:41647  _revert(Errors.STABLE_GET_BALANCE_DIDNT_CONVERGE) */\n      tag_151\n        /* \"contracts/StablePoolFactory.sol\":6420:6423  322 */\n      0x0142\n        /* \"contracts/StablePoolFactory.sol\":41598:41605  _revert */\n      tag_152\n        /* \"contracts/StablePoolFactory.sol\":41598:41647  _revert(Errors.STABLE_GET_BALANCE_DIDNT_CONVERGE) */\n      jump\t// in\n    tag_151:\n        /* \"contracts/StablePoolFactory.sol\":38993:41655  function _calculateInvariant(\r... */\n      pop\n      pop\n      pop\n      pop\n      pop\n      swap4\n      swap3\n      pop\n      pop\n      pop\n      jump\t// out\n        /* \"contracts/StablePoolFactory.sol\":49900:51752  function _calcTokenInGivenExactBptOut(\r... */\n    tag_84:\n        /* \"contracts/StablePoolFactory.sol\":50155:50162  uint256 */\n      0x00\n        /* \"contracts/StablePoolFactory.sol\":50261:50285  uint256 currentInvariant */\n      dup1\n        /* \"contracts/StablePoolFactory.sol\":50288:50328  _calculateInvariant(amp, balances, true) */\n      tag_154\n        /* \"contracts/StablePoolFactory.sol\":50308:50311  amp */\n      dup9\n        /* \"contracts/StablePoolFactory.sol\":50313:50321  balances */\n      dup9\n        /* \"contracts/StablePoolFactory.sol\":50323:50327  true */\n      0x01\n        /* \"contracts/StablePoolFactory.sol\":50288:50307  _calculateInvariant */\n      tag_81\n        /* \"contracts/StablePoolFactory.sol\":50288:50328  _calculateInvariant(amp, balances, true) */\n      jump\t// in\n    tag_154:\n        /* \"contracts/StablePoolFactory.sol\":50261:50328  uint256 currentInvariant = _calculateInvariant(amp, balances, true) */\n      swap1\n      pop\n        /* \"contracts/StablePoolFactory.sol\":50377:50397  uint256 newInvariant */\n      0x00\n        /* \"contracts/StablePoolFactory.sol\":50400:50478  bptTotalSupply.add(bptAmountOut).divUp(bptTotalSupply).mulUp(currentInvariant) */\n      tag_155\n        /* \"contracts/StablePoolFactory.sol\":50261:50328  uint256 currentInvariant = _calculateInvariant(amp, balances, true) */\n      dup3\n        /* \"contracts/StablePoolFactory.sol\":50400:50454  bptTotalSupply.add(bptAmountOut).divUp(bptTotalSupply) */\n      tag_156\n        /* \"contracts/StablePoolFactory.sol\":50439:50453  bptTotalSupply */\n      dup8\n        /* \"contracts/StablePoolFactory.sol\":50400:50432  bptTotalSupply.add(bptAmountOut) */\n      tag_157\n        /* \"contracts/StablePoolFactory.sol\":50439:50453  bptTotalSupply */\n      dup2\n        /* \"contracts/StablePoolFactory.sol\":50419:50431  bptAmountOut */\n      dup12\n        /* \"contracts/StablePoolFactory.sol\":50400:50418  bptTotalSupply.add */\n      tag_121\n        /* \"contracts/StablePoolFactory.sol\":50400:50432  bptTotalSupply.add(bptAmountOut) */\n      jump\t// in\n    tag_157:\n        /* \"contracts/StablePoolFactory.sol\":50400:50438  bptTotalSupply.add(bptAmountOut).divUp */\n      swap1\n      tag_158\n        /* \"contracts/StablePoolFactory.sol\":50400:50454  bptTotalSupply.add(bptAmountOut).divUp(bptTotalSupply) */\n      jump\t// in\n    tag_156:\n        /* \"contracts/StablePoolFactory.sol\":50400:50460  bptTotalSupply.add(bptAmountOut).divUp(bptTotalSupply).mulUp */\n      swap1\n      tag_159\n        /* \"contracts/StablePoolFactory.sol\":50400:50478  bptTotalSupply.add(bptAmountOut).divUp(bptTotalSupply).mulUp(currentInvariant) */\n      jump\t// in\n    tag_155:\n        /* \"contracts/StablePoolFactory.sol\":50377:50478  uint256 newInvariant = bptTotalSupply.add(bptAmountOut).divUp(bptTotalSupply).mulUp(currentInvariant) */\n      swap1\n      pop\n        /* \"contracts/StablePoolFactory.sol\":50536:50564  uint256 newBalanceTokenIndex */\n      0x00\n        /* \"contracts/StablePoolFactory.sol\":50567:50720  _getTokenBalanceGivenInvariantAndAllOtherBalances(\r... */\n      tag_160\n        /* \"contracts/StablePoolFactory.sol\":50631:50634  amp */\n      dup11\n        /* \"contracts/StablePoolFactory.sol\":50649:50657  balances */\n      dup11\n        /* \"contracts/StablePoolFactory.sol\":50672:50684  newInvariant */\n      dup5\n        /* \"contracts/StablePoolFactory.sol\":50699:50709  tokenIndex */\n      dup12\n        /* \"contracts/StablePoolFactory.sol\":50567:50616  _getTokenBalanceGivenInvariantAndAllOtherBalances */\n      tag_161\n        /* \"contracts/StablePoolFactory.sol\":50567:50720  _getTokenBalanceGivenInvariantAndAllOtherBalances(\r... */\n      jump\t// in\n    tag_160:\n        /* \"contracts/StablePoolFactory.sol\":50536:50720  uint256 newBalanceTokenIndex = _getTokenBalanceGivenInvariantAndAllOtherBalances(\r... */\n      swap1\n      pop\n        /* \"contracts/StablePoolFactory.sol\":50731:50757  uint256 amountInWithoutFee */\n      0x00\n        /* \"contracts/StablePoolFactory.sol\":50760:50806  newBalanceTokenIndex.sub(balances[tokenIndex]) */\n      tag_162\n        /* \"contracts/StablePoolFactory.sol\":50785:50793  balances */\n      dup11\n        /* \"contracts/StablePoolFactory.sol\":50794:50804  tokenIndex */\n      dup11\n        /* \"contracts/StablePoolFactory.sol\":50785:50805  balances[tokenIndex] */\n      dup2\n      mload\n      dup2\n      lt\n      tag_163\n      jumpi\n      invalid\n    tag_163:\n      0x20\n      mul\n      0x20\n      add\n      add\n      mload\n        /* \"contracts/StablePoolFactory.sol\":50760:50780  newBalanceTokenIndex */\n      dup4\n        /* \"contracts/StablePoolFactory.sol\":50760:50784  newBalanceTokenIndex.sub */\n      tag_164\n      swap1\n        /* \"contracts/StablePoolFactory.sol\":50760:50806  newBalanceTokenIndex.sub(balances[tokenIndex]) */\n      swap2\n      swap1\n      0xffffffff\n      and\n      jump\t// in\n    tag_162:\n        /* \"contracts/StablePoolFactory.sol\":50731:50806  uint256 amountInWithoutFee = newBalanceTokenIndex.sub(balances[tokenIndex]) */\n      swap1\n      pop\n        /* \"contracts/StablePoolFactory.sol\":50955:50974  uint256 sumBalances */\n      0x00\n        /* \"contracts/StablePoolFactory.sol\":50994:51003  uint256 i */\n      dup1\n        /* \"contracts/StablePoolFactory.sol\":50989:51104  for (uint256 i = 0; i < balances.length; i++) {\r... */\n    tag_165:\n        /* \"contracts/StablePoolFactory.sol\":51013:51021  balances */\n      dup12\n        /* \"contracts/StablePoolFactory.sol\":51013:51028  balances.length */\n      mload\n        /* \"contracts/StablePoolFactory.sol\":51009:51010  i */\n      dup2\n        /* \"contracts/StablePoolFactory.sol\":51009:51028  i < balances.length */\n      lt\n        /* \"contracts/StablePoolFactory.sol\":50989:51104  for (uint256 i = 0; i < balances.length; i++) {\r... */\n      iszero\n      tag_166\n      jumpi\n        /* \"contracts/StablePoolFactory.sol\":51064:51092  sumBalances.add(balances[i]) */\n      tag_168\n        /* \"contracts/StablePoolFactory.sol\":51080:51088  balances */\n      dup13\n        /* \"contracts/StablePoolFactory.sol\":51089:51090  i */\n      dup3\n        /* \"contracts/StablePoolFactory.sol\":51080:51091  balances[i] */\n      dup2\n      mload\n      dup2\n      lt\n      tag_169\n      jumpi\n      invalid\n    tag_169:\n      0x20\n      mul\n      0x20\n      add\n      add\n      mload\n        /* \"contracts/StablePoolFactory.sol\":51064:51075  sumBalances */\n      dup4\n        /* \"contracts/StablePoolFactory.sol\":51064:51079  sumBalances.add */\n      tag_121\n      swap1\n        /* \"contracts/StablePoolFactory.sol\":51064:51092  sumBalances.add(balances[i]) */\n      swap2\n      swap1\n      0xffffffff\n      and\n      jump\t// in\n    tag_168:\n        /* \"contracts/StablePoolFactory.sol\":51050:51092  sumBalances = sumBalances.add(balances[i]) */\n      swap2\n      pop\n        /* \"contracts/StablePoolFactory.sol\":51030:51033  i++ */\n      0x01\n      add\n        /* \"contracts/StablePoolFactory.sol\":50989:51104  for (uint256 i = 0; i < balances.length; i++) {\r... */\n      jump(tag_165)\n    tag_166:\n      pop\n        /* \"contracts/StablePoolFactory.sol\":51262:51283  uint256 currentWeight */\n      0x00\n        /* \"contracts/StablePoolFactory.sol\":51286:51327  balances[tokenIndex].divDown(sumBalances) */\n      tag_170\n        /* \"contracts/StablePoolFactory.sol\":51315:51326  sumBalances */\n      dup3\n        /* \"contracts/StablePoolFactory.sol\":51286:51294  balances */\n      dup14\n        /* \"contracts/StablePoolFactory.sol\":51295:51305  tokenIndex */\n      dup14\n        /* \"contracts/StablePoolFactory.sol\":51286:51306  balances[tokenIndex] */\n      dup2\n      mload\n      dup2\n      lt\n      tag_171\n      jumpi\n      invalid\n    tag_171:\n      0x20\n      mul\n      0x20\n      add\n      add\n      mload\n        /* \"contracts/StablePoolFactory.sol\":51286:51314  balances[tokenIndex].divDown */\n      tag_105\n      swap1\n        /* \"contracts/StablePoolFactory.sol\":51286:51327  balances[tokenIndex].divDown(sumBalances) */\n      swap2\n      swap1\n      0xffffffff\n      and\n      jump\t// in\n    tag_170:\n        /* \"contracts/StablePoolFactory.sol\":51262:51327  uint256 currentWeight = balances[tokenIndex].divDown(sumBalances) */\n      swap1\n      pop\n        /* \"contracts/StablePoolFactory.sol\":51338:51363  uint256 taxablePercentage */\n      0x00\n        /* \"contracts/StablePoolFactory.sol\":51366:51392  currentWeight.complement() */\n      tag_172\n        /* \"contracts/StablePoolFactory.sol\":51366:51379  currentWeight */\n      dup3\n        /* \"contracts/StablePoolFactory.sol\":51366:51390  currentWeight.complement */\n      tag_173\n        /* \"contracts/StablePoolFactory.sol\":51366:51392  currentWeight.complement() */\n      jump\t// in\n    tag_172:\n        /* \"contracts/StablePoolFactory.sol\":51338:51392  uint256 taxablePercentage = currentWeight.complement() */\n      swap1\n      pop\n        /* \"contracts/StablePoolFactory.sol\":51403:51424  uint256 taxableAmount */\n      0x00\n        /* \"contracts/StablePoolFactory.sol\":51427:51470  amountInWithoutFee.mulUp(taxablePercentage) */\n      tag_174\n        /* \"contracts/StablePoolFactory.sol\":51427:51445  amountInWithoutFee */\n      dup6\n        /* \"contracts/StablePoolFactory.sol\":51338:51392  uint256 taxablePercentage = currentWeight.complement() */\n      dup4\n        /* \"contracts/StablePoolFactory.sol\":51427:51451  amountInWithoutFee.mulUp */\n      tag_159\n        /* \"contracts/StablePoolFactory.sol\":51427:51470  amountInWithoutFee.mulUp(taxablePercentage) */\n      jump\t// in\n    tag_174:\n        /* \"contracts/StablePoolFactory.sol\":51403:51470  uint256 taxableAmount = amountInWithoutFee.mulUp(taxablePercentage) */\n      swap1\n      pop\n        /* \"contracts/StablePoolFactory.sol\":51481:51505  uint256 nonTaxableAmount */\n      0x00\n        /* \"contracts/StablePoolFactory.sol\":51508:51545  amountInWithoutFee.sub(taxableAmount) */\n      tag_175\n        /* \"contracts/StablePoolFactory.sol\":51508:51526  amountInWithoutFee */\n      dup7\n        /* \"contracts/StablePoolFactory.sol\":51403:51470  uint256 taxableAmount = amountInWithoutFee.mulUp(taxablePercentage) */\n      dup4\n        /* \"contracts/StablePoolFactory.sol\":51508:51530  amountInWithoutFee.sub */\n      tag_164\n        /* \"contracts/StablePoolFactory.sol\":51508:51545  amountInWithoutFee.sub(taxableAmount) */\n      jump\t// in\n    tag_175:\n        /* \"contracts/StablePoolFactory.sol\":51481:51545  uint256 nonTaxableAmount = amountInWithoutFee.sub(taxableAmount) */\n      swap1\n      pop\n        /* \"contracts/StablePoolFactory.sol\":51667:51744  nonTaxableAmount.add(taxableAmount.divUp(FixedPoint.ONE - swapFeePercentage)) */\n      tag_176\n        /* \"contracts/StablePoolFactory.sol\":51688:51743  taxableAmount.divUp(FixedPoint.ONE - swapFeePercentage) */\n      tag_177\n        /* \"contracts/StablePoolFactory.sol\":51688:51701  taxableAmount */\n      dup4\n        /* \"contracts/StablePoolFactory.sol\":33515:33519  1e18 */\n      0x0de0b6b3a7640000\n        /* \"contracts/StablePoolFactory.sol\":51708:51742  FixedPoint.ONE - swapFeePercentage */\n      dup15\n      swap1\n      sub\n        /* \"contracts/StablePoolFactory.sol\":51688:51707  taxableAmount.divUp */\n      tag_158\n        /* \"contracts/StablePoolFactory.sol\":51688:51743  taxableAmount.divUp(FixedPoint.ONE - swapFeePercentage) */\n      jump\t// in\n    tag_177:\n        /* \"contracts/StablePoolFactory.sol\":51667:51683  nonTaxableAmount */\n      dup3\n      swap1\n        /* \"contracts/StablePoolFactory.sol\":51667:51687  nonTaxableAmount.add */\n      tag_121\n        /* \"contracts/StablePoolFactory.sol\":51667:51744  nonTaxableAmount.add(taxableAmount.divUp(FixedPoint.ONE - swapFeePercentage)) */\n      jump\t// in\n    tag_176:\n        /* \"contracts/StablePoolFactory.sol\":51660:51744  return nonTaxableAmount.add(taxableAmount.divUp(FixedPoint.ONE - swapFeePercentage)) */\n      swap10\n      pop\n      pop\n      pop\n      pop\n      pop\n      pop\n      pop\n      pop\n      pop\n      pop\n        /* \"contracts/StablePoolFactory.sol\":49900:51752  function _calcTokenInGivenExactBptOut(\r... */\n      swap7\n      swap6\n      pop\n      pop\n      pop\n      pop\n      pop\n      pop\n      jump\t// out\n        /* \"contracts/StablePoolFactory.sol\":47058:49892  function _calcBptOutGivenExactTokensIn(\r... */\n    tag_87:\n        /* \"contracts/StablePoolFactory.sol\":47291:47298  uint256 */\n      0x00\n      dup1\n      dup1\n        /* \"contracts/StablePoolFactory.sol\":47559:47674  for (uint256 i = 0; i < balances.length; i++) {\r... */\n    tag_179:\n        /* \"contracts/StablePoolFactory.sol\":47583:47591  balances */\n      dup7\n        /* \"contracts/StablePoolFactory.sol\":47583:47598  balances.length */\n      mload\n        /* \"contracts/StablePoolFactory.sol\":47579:47580  i */\n      dup2\n        /* \"contracts/StablePoolFactory.sol\":47579:47598  i < balances.length */\n      lt\n        /* \"contracts/StablePoolFactory.sol\":47559:47674  for (uint256 i = 0; i < balances.length; i++) {\r... */\n      iszero\n      tag_180\n      jumpi\n        /* \"contracts/StablePoolFactory.sol\":47634:47662  sumBalances.add(balances[i]) */\n      tag_182\n        /* \"contracts/StablePoolFactory.sol\":47650:47658  balances */\n      dup8\n        /* \"contracts/StablePoolFactory.sol\":47659:47660  i */\n      dup3\n        /* \"contracts/StablePoolFactory.sol\":47650:47661  balances[i] */\n      dup2\n      mload\n      dup2\n      lt\n      tag_169\n      jumpi\n      invalid\n        /* \"contracts/StablePoolFactory.sol\":47634:47662  sumBalances.add(balances[i]) */\n    tag_182:\n        /* \"contracts/StablePoolFactory.sol\":47620:47662  sumBalances = sumBalances.add(balances[i]) */\n      swap2\n      pop\n        /* \"contracts/StablePoolFactory.sol\":47600:47603  i++ */\n      0x01\n      add\n        /* \"contracts/StablePoolFactory.sol\":47559:47674  for (uint256 i = 0; i < balances.length; i++) {\r... */\n      jump(tag_179)\n    tag_180:\n      pop\n        /* \"contracts/StablePoolFactory.sol\":47760:47797  uint256[] memory balanceRatiosWithFee */\n      0x60\n        /* \"contracts/StablePoolFactory.sol\":47814:47823  amountsIn */\n      dup6\n        /* \"contracts/StablePoolFactory.sol\":47814:47830  amountsIn.length */\n      mload\n        /* \"contracts/StablePoolFactory.sol\":47800:47831  new uint256[](amountsIn.length) */\n      0xffffffffffffffff\n      dup2\n      gt\n      dup1\n      iszero\n      tag_184\n      jumpi\n      0x00\n      dup1\n      revert\n    tag_184:\n      pop\n      mload(0x40)\n      swap1\n      dup1\n      dup3\n      mstore\n      dup1\n      0x20\n      mul\n      0x20\n      add\n      dup3\n      add\n      0x40\n      mstore\n      dup1\n      iszero\n      tag_185\n      jumpi\n      dup2\n      0x20\n      add\n      0x20\n      dup3\n      mul\n      dup1\n      calldatasize\n      dup4\n      calldatacopy\n      add\n      swap1\n      pop\n    tag_185:\n      pop\n        /* \"contracts/StablePoolFactory.sol\":47760:47831  uint256[] memory balanceRatiosWithFee = new uint256[](amountsIn.length) */\n      swap1\n      pop\n        /* \"contracts/StablePoolFactory.sol\":47907:47937  uint256 invariantRatioWithFees */\n      0x00\n        /* \"contracts/StablePoolFactory.sol\":47957:47966  uint256 i */\n      dup1\n        /* \"contracts/StablePoolFactory.sol\":47952:48286  for (uint256 i = 0; i < balances.length; i++) {\r... */\n    tag_186:\n        /* \"contracts/StablePoolFactory.sol\":47976:47984  balances */\n      dup9\n        /* \"contracts/StablePoolFactory.sol\":47976:47991  balances.length */\n      mload\n        /* \"contracts/StablePoolFactory.sol\":47972:47973  i */\n      dup2\n        /* \"contracts/StablePoolFactory.sol\":47972:47991  i < balances.length */\n      lt\n        /* \"contracts/StablePoolFactory.sol\":47952:48286  for (uint256 i = 0; i < balances.length; i++) {\r... */\n      iszero\n      tag_187\n      jumpi\n        /* \"contracts/StablePoolFactory.sol\":48013:48034  uint256 currentWeight */\n      0x00\n        /* \"contracts/StablePoolFactory.sol\":48037:48069  balances[i].divDown(sumBalances) */\n      tag_189\n        /* \"contracts/StablePoolFactory.sol\":48057:48068  sumBalances */\n      dup6\n        /* \"contracts/StablePoolFactory.sol\":48037:48045  balances */\n      dup12\n        /* \"contracts/StablePoolFactory.sol\":48046:48047  i */\n      dup5\n        /* \"contracts/StablePoolFactory.sol\":48037:48048  balances[i] */\n      dup2\n      mload\n      dup2\n      lt\n      tag_171\n      jumpi\n      invalid\n        /* \"contracts/StablePoolFactory.sol\":48037:48069  balances[i].divDown(sumBalances) */\n    tag_189:\n        /* \"contracts/StablePoolFactory.sol\":48013:48069  uint256 currentWeight = balances[i].divDown(sumBalances) */\n      swap1\n      pop\n        /* \"contracts/StablePoolFactory.sol\":48110:48160  balances[i].add(amountsIn[i]).divDown(balances[i]) */\n      tag_191\n        /* \"contracts/StablePoolFactory.sol\":48148:48156  balances */\n      dup11\n        /* \"contracts/StablePoolFactory.sol\":48157:48158  i */\n      dup4\n        /* \"contracts/StablePoolFactory.sol\":48148:48159  balances[i] */\n      dup2\n      mload\n      dup2\n      lt\n      tag_192\n      jumpi\n      invalid\n    tag_192:\n      0x20\n      mul\n      0x20\n      add\n      add\n      mload\n        /* \"contracts/StablePoolFactory.sol\":48110:48139  balances[i].add(amountsIn[i]) */\n      tag_193\n        /* \"contracts/StablePoolFactory.sol\":48126:48135  amountsIn */\n      dup12\n        /* \"contracts/StablePoolFactory.sol\":48136:48137  i */\n      dup6\n        /* \"contracts/StablePoolFactory.sol\":48126:48138  amountsIn[i] */\n      dup2\n      mload\n      dup2\n      lt\n      tag_194\n      jumpi\n      invalid\n    tag_194:\n      0x20\n      mul\n      0x20\n      add\n      add\n      mload\n        /* \"contracts/StablePoolFactory.sol\":48110:48118  balances */\n      dup14\n        /* \"contracts/StablePoolFactory.sol\":48119:48120  i */\n      dup7\n        /* \"contracts/StablePoolFactory.sol\":48110:48121  balances[i] */\n      dup2\n      mload\n      dup2\n      lt\n      tag_195\n      jumpi\n      invalid\n    tag_195:\n      0x20\n      mul\n      0x20\n      add\n      add\n      mload\n        /* \"contracts/StablePoolFactory.sol\":48110:48125  balances[i].add */\n      tag_121\n      swap1\n        /* \"contracts/StablePoolFactory.sol\":48110:48139  balances[i].add(amountsIn[i]) */\n      swap2\n      swap1\n      0xffffffff\n      and\n      jump\t// in\n    tag_193:\n        /* \"contracts/StablePoolFactory.sol\":48110:48147  balances[i].add(amountsIn[i]).divDown */\n      swap1\n      tag_105\n        /* \"contracts/StablePoolFactory.sol\":48110:48160  balances[i].add(amountsIn[i]).divDown(balances[i]) */\n      jump\t// in\n    tag_191:\n        /* \"contracts/StablePoolFactory.sol\":48084:48104  balanceRatiosWithFee */\n      dup5\n        /* \"contracts/StablePoolFactory.sol\":48105:48106  i */\n      dup4\n        /* \"contracts/StablePoolFactory.sol\":48084:48107  balanceRatiosWithFee[i] */\n      dup2\n      mload\n      dup2\n      lt\n      tag_196\n      jumpi\n      invalid\n    tag_196:\n      0x20\n      mul\n      0x20\n      add\n      add\n        /* \"contracts/StablePoolFactory.sol\":48084:48160  balanceRatiosWithFee[i] = balances[i].add(amountsIn[i]).divDown(balances[i]) */\n      dup2\n      dup2\n      mstore\n      pop\n      pop\n        /* \"contracts/StablePoolFactory.sol\":48200:48274  invariantRatioWithFees.add(balanceRatiosWithFee[i].mulDown(currentWeight)) */\n      tag_197\n        /* \"contracts/StablePoolFactory.sol\":48227:48273  balanceRatiosWithFee[i].mulDown(currentWeight) */\n      tag_198\n        /* \"contracts/StablePoolFactory.sol\":48259:48272  currentWeight */\n      dup3\n        /* \"contracts/StablePoolFactory.sol\":48227:48247  balanceRatiosWithFee */\n      dup7\n        /* \"contracts/StablePoolFactory.sol\":48248:48249  i */\n      dup6\n        /* \"contracts/StablePoolFactory.sol\":48227:48250  balanceRatiosWithFee[i] */\n      dup2\n      mload\n      dup2\n      lt\n      tag_112\n      jumpi\n      invalid\n        /* \"contracts/StablePoolFactory.sol\":48227:48273  balanceRatiosWithFee[i].mulDown(currentWeight) */\n    tag_198:\n        /* \"contracts/StablePoolFactory.sol\":48200:48222  invariantRatioWithFees */\n      dup5\n      swap1\n        /* \"contracts/StablePoolFactory.sol\":48200:48226  invariantRatioWithFees.add */\n      tag_121\n        /* \"contracts/StablePoolFactory.sol\":48200:48274  invariantRatioWithFees.add(balanceRatiosWithFee[i].mulDown(currentWeight)) */\n      jump\t// in\n    tag_197:\n        /* \"contracts/StablePoolFactory.sol\":48175:48274  invariantRatioWithFees = invariantRatioWithFees.add(balanceRatiosWithFee[i].mulDown(currentWeight)) */\n      swap3\n      pop\n      pop\n        /* \"contracts/StablePoolFactory.sol\":47993:47996  i++ */\n      0x01\n      add\n        /* \"contracts/StablePoolFactory.sol\":47952:48286  for (uint256 i = 0; i < balances.length; i++) {\r... */\n      jump(tag_186)\n    tag_187:\n      pop\n        /* \"contracts/StablePoolFactory.sol\":48402:48430  uint256[] memory newBalances */\n      0x60\n        /* \"contracts/StablePoolFactory.sol\":48447:48455  balances */\n      dup9\n        /* \"contracts/StablePoolFactory.sol\":48447:48462  balances.length */\n      mload\n        /* \"contracts/StablePoolFactory.sol\":48433:48463  new uint256[](balances.length) */\n      0xffffffffffffffff\n      dup2\n      gt\n      dup1\n      iszero\n      tag_200\n      jumpi\n      0x00\n      dup1\n      revert\n    tag_200:\n      pop\n      mload(0x40)\n      swap1\n      dup1\n      dup3\n      mstore\n      dup1\n      0x20\n      mul\n      0x20\n      add\n      dup3\n      add\n      0x40\n      mstore\n      dup1\n      iszero\n      tag_201\n      jumpi\n      dup2\n      0x20\n      add\n      0x20\n      dup3\n      mul\n      dup1\n      calldatasize\n      dup4\n      calldatacopy\n      add\n      swap1\n      pop\n    tag_201:\n      pop\n        /* \"contracts/StablePoolFactory.sol\":48402:48463  uint256[] memory newBalances = new uint256[](balances.length) */\n      swap1\n      pop\n        /* \"contracts/StablePoolFactory.sol\":48479:48488  uint256 i */\n      0x00\n        /* \"contracts/StablePoolFactory.sol\":48474:49314  for (uint256 i = 0; i < balances.length; i++) {\r... */\n    tag_202:\n        /* \"contracts/StablePoolFactory.sol\":48498:48506  balances */\n      dup10\n        /* \"contracts/StablePoolFactory.sol\":48498:48513  balances.length */\n      mload\n        /* \"contracts/StablePoolFactory.sol\":48494:48495  i */\n      dup2\n        /* \"contracts/StablePoolFactory.sol\":48494:48513  i < balances.length */\n      lt\n        /* \"contracts/StablePoolFactory.sol\":48474:49314  for (uint256 i = 0; i < balances.length; i++) {\r... */\n      iszero\n      tag_203\n      jumpi\n        /* \"contracts/StablePoolFactory.sol\":48535:48561  uint256 amountInWithoutFee */\n      0x00\n        /* \"contracts/StablePoolFactory.sol\":48705:48727  invariantRatioWithFees */\n      dup4\n        /* \"contracts/StablePoolFactory.sol\":48679:48699  balanceRatiosWithFee */\n      dup6\n        /* \"contracts/StablePoolFactory.sol\":48700:48701  i */\n      dup4\n        /* \"contracts/StablePoolFactory.sol\":48679:48702  balanceRatiosWithFee[i] */\n      dup2\n      mload\n      dup2\n      lt\n      tag_205\n      jumpi\n      invalid\n    tag_205:\n      0x20\n      mul\n      0x20\n      add\n      add\n      mload\n        /* \"contracts/StablePoolFactory.sol\":48679:48727  balanceRatiosWithFee[i] > invariantRatioWithFees */\n      gt\n        /* \"contracts/StablePoolFactory.sol\":48675:49234  if (balanceRatiosWithFee[i] > invariantRatioWithFees) {\r... */\n      iszero\n      tag_206\n      jumpi\n        /* \"contracts/StablePoolFactory.sol\":48748:48772  uint256 nonTaxableAmount */\n      0x00\n        /* \"contracts/StablePoolFactory.sol\":48775:48838  balances[i].mulDown(invariantRatioWithFees.sub(FixedPoint.ONE)) */\n      tag_207\n        /* \"contracts/StablePoolFactory.sol\":48795:48837  invariantRatioWithFees.sub(FixedPoint.ONE) */\n      tag_208\n        /* \"contracts/StablePoolFactory.sol\":48795:48817  invariantRatioWithFees */\n      dup7\n        /* \"contracts/StablePoolFactory.sol\":33515:33519  1e18 */\n      0x0de0b6b3a7640000\n        /* \"contracts/StablePoolFactory.sol\":48795:48821  invariantRatioWithFees.sub */\n      tag_164\n        /* \"contracts/StablePoolFactory.sol\":48795:48837  invariantRatioWithFees.sub(FixedPoint.ONE) */\n      jump\t// in\n    tag_208:\n        /* \"contracts/StablePoolFactory.sol\":48775:48783  balances */\n      dup14\n        /* \"contracts/StablePoolFactory.sol\":48784:48785  i */\n      dup6\n        /* \"contracts/StablePoolFactory.sol\":48775:48786  balances[i] */\n      dup2\n      mload\n      dup2\n      lt\n      tag_112\n      jumpi\n      invalid\n        /* \"contracts/StablePoolFactory.sol\":48775:48838  balances[i].mulDown(invariantRatioWithFees.sub(FixedPoint.ONE)) */\n    tag_207:\n        /* \"contracts/StablePoolFactory.sol\":48748:48838  uint256 nonTaxableAmount = balances[i].mulDown(invariantRatioWithFees.sub(FixedPoint.ONE)) */\n      swap1\n      pop\n        /* \"contracts/StablePoolFactory.sol\":48857:48878  uint256 taxableAmount */\n      0x00\n        /* \"contracts/StablePoolFactory.sol\":48881:48915  amountsIn[i].sub(nonTaxableAmount) */\n      tag_210\n        /* \"contracts/StablePoolFactory.sol\":48898:48914  nonTaxableAmount */\n      dup3\n        /* \"contracts/StablePoolFactory.sol\":48881:48890  amountsIn */\n      dup14\n        /* \"contracts/StablePoolFactory.sol\":48891:48892  i */\n      dup7\n        /* \"contracts/StablePoolFactory.sol\":48881:48893  amountsIn[i] */\n      dup2\n      mload\n      dup2\n      lt\n      tag_211\n      jumpi\n      invalid\n    tag_211:\n      0x20\n      mul\n      0x20\n      add\n      add\n      mload\n        /* \"contracts/StablePoolFactory.sol\":48881:48897  amountsIn[i].sub */\n      tag_164\n      swap1\n        /* \"contracts/StablePoolFactory.sol\":48881:48915  amountsIn[i].sub(nonTaxableAmount) */\n      swap2\n      swap1\n      0xffffffff\n      and\n      jump\t// in\n    tag_210:\n        /* \"contracts/StablePoolFactory.sol\":48857:48915  uint256 taxableAmount = amountsIn[i].sub(nonTaxableAmount) */\n      swap1\n      pop\n        /* \"contracts/StablePoolFactory.sol\":49065:49144  nonTaxableAmount.add(taxableAmount.mulDown(FixedPoint.ONE - swapFeePercentage)) */\n      tag_212\n        /* \"contracts/StablePoolFactory.sol\":49086:49143  taxableAmount.mulDown(FixedPoint.ONE - swapFeePercentage) */\n      tag_213\n        /* \"contracts/StablePoolFactory.sol\":48857:48915  uint256 taxableAmount = amountsIn[i].sub(nonTaxableAmount) */\n      dup3\n        /* \"contracts/StablePoolFactory.sol\":33515:33519  1e18 */\n      0x0de0b6b3a7640000\n        /* \"contracts/StablePoolFactory.sol\":49108:49142  FixedPoint.ONE - swapFeePercentage */\n      dup14\n      swap1\n      sub\n        /* \"contracts/StablePoolFactory.sol\":49086:49107  taxableAmount.mulDown */\n      tag_113\n        /* \"contracts/StablePoolFactory.sol\":49086:49143  taxableAmount.mulDown(FixedPoint.ONE - swapFeePercentage) */\n      jump\t// in\n    tag_213:\n        /* \"contracts/StablePoolFactory.sol\":49065:49081  nonTaxableAmount */\n      dup4\n      swap1\n        /* \"contracts/StablePoolFactory.sol\":49065:49085  nonTaxableAmount.add */\n      tag_121\n        /* \"contracts/StablePoolFactory.sol\":49065:49144  nonTaxableAmount.add(taxableAmount.mulDown(FixedPoint.ONE - swapFeePercentage)) */\n      jump\t// in\n    tag_212:\n        /* \"contracts/StablePoolFactory.sol\":49044:49144  amountInWithoutFee = nonTaxableAmount.add(taxableAmount.mulDown(FixedPoint.ONE - swapFeePercentage)) */\n      swap3\n      pop\n        /* \"contracts/StablePoolFactory.sol\":48675:49234  if (balanceRatiosWithFee[i] > invariantRatioWithFees) {\r... */\n      pop\n      pop\n      jump(tag_214)\n    tag_206:\n        /* \"contracts/StablePoolFactory.sol\":49206:49215  amountsIn */\n      dup10\n        /* \"contracts/StablePoolFactory.sol\":49216:49217  i */\n      dup3\n        /* \"contracts/StablePoolFactory.sol\":49206:49218  amountsIn[i] */\n      dup2\n      mload\n      dup2\n      lt\n      tag_215\n      jumpi\n      invalid\n    tag_215:\n      0x20\n      mul\n      0x20\n      add\n      add\n      mload\n        /* \"contracts/StablePoolFactory.sol\":49185:49218  amountInWithoutFee = amountsIn[i] */\n      swap1\n      pop\n        /* \"contracts/StablePoolFactory.sol\":48675:49234  if (balanceRatiosWithFee[i] > invariantRatioWithFees) {\r... */\n    tag_214:\n        /* \"contracts/StablePoolFactory.sol\":49267:49302  balances[i].add(amountInWithoutFee) */\n      tag_216\n        /* \"contracts/StablePoolFactory.sol\":49283:49301  amountInWithoutFee */\n      dup2\n        /* \"contracts/StablePoolFactory.sol\":49267:49275  balances */\n      dup13\n        /* \"contracts/StablePoolFactory.sol\":49276:49277  i */\n      dup5\n        /* \"contracts/StablePoolFactory.sol\":49267:49278  balances[i] */\n      dup2\n      mload\n      dup2\n      lt\n      tag_195\n      jumpi\n      invalid\n        /* \"contracts/StablePoolFactory.sol\":49267:49302  balances[i].add(amountInWithoutFee) */\n    tag_216:\n        /* \"contracts/StablePoolFactory.sol\":49250:49261  newBalances */\n      dup4\n        /* \"contracts/StablePoolFactory.sol\":49262:49263  i */\n      dup4\n        /* \"contracts/StablePoolFactory.sol\":49250:49264  newBalances[i] */\n      dup2\n      mload\n      dup2\n      lt\n      tag_218\n      jumpi\n      invalid\n    tag_218:\n      0x20\n      swap1\n      dup2\n      mul\n      swap2\n      swap1\n      swap2\n      add\n      add\n        /* \"contracts/StablePoolFactory.sol\":49250:49302  newBalances[i] = balances[i].add(amountInWithoutFee) */\n      mstore\n      pop\n        /* \"contracts/StablePoolFactory.sol\":48515:48518  i++ */\n      0x01\n      add\n        /* \"contracts/StablePoolFactory.sol\":48474:49314  for (uint256 i = 0; i < balances.length; i++) {\r... */\n      jump(tag_202)\n    tag_203:\n      pop\n        /* \"contracts/StablePoolFactory.sol\":49400:49424  uint256 currentInvariant */\n      0x00\n        /* \"contracts/StablePoolFactory.sol\":49427:49467  _calculateInvariant(amp, balances, true) */\n      tag_219\n        /* \"contracts/StablePoolFactory.sol\":49447:49450  amp */\n      dup12\n        /* \"contracts/StablePoolFactory.sol\":49452:49460  balances */\n      dup12\n        /* \"contracts/StablePoolFactory.sol\":49462:49466  true */\n      0x01\n        /* \"contracts/StablePoolFactory.sol\":49427:49446  _calculateInvariant */\n      tag_81\n        /* \"contracts/StablePoolFactory.sol\":49427:49467  _calculateInvariant(amp, balances, true) */\n      jump\t// in\n    tag_219:\n        /* \"contracts/StablePoolFactory.sol\":49400:49467  uint256 currentInvariant = _calculateInvariant(amp, balances, true) */\n      swap1\n      pop\n        /* \"contracts/StablePoolFactory.sol\":49478:49498  uint256 newInvariant */\n      0x00\n        /* \"contracts/StablePoolFactory.sol\":49501:49545  _calculateInvariant(amp, newBalances, false) */\n      tag_220\n        /* \"contracts/StablePoolFactory.sol\":49521:49524  amp */\n      dup13\n        /* \"contracts/StablePoolFactory.sol\":49526:49537  newBalances */\n      dup5\n        /* \"contracts/StablePoolFactory.sol\":49539:49544  false */\n      0x00\n        /* \"contracts/StablePoolFactory.sol\":49501:49520  _calculateInvariant */\n      tag_81\n        /* \"contracts/StablePoolFactory.sol\":49501:49545  _calculateInvariant(amp, newBalances, false) */\n      jump\t// in\n    tag_220:\n        /* \"contracts/StablePoolFactory.sol\":49478:49545  uint256 newInvariant = _calculateInvariant(amp, newBalances, false) */\n      swap1\n      pop\n        /* \"contracts/StablePoolFactory.sol\":49556:49578  uint256 invariantRatio */\n      0x00\n        /* \"contracts/StablePoolFactory.sol\":49581:49619  newInvariant.divDown(currentInvariant) */\n      tag_221\n        /* \"contracts/StablePoolFactory.sol\":49478:49545  uint256 newInvariant = _calculateInvariant(amp, newBalances, false) */\n      dup3\n        /* \"contracts/StablePoolFactory.sol\":49602:49618  currentInvariant */\n      dup5\n        /* \"contracts/StablePoolFactory.sol\":49581:49601  newInvariant.divDown */\n      tag_105\n        /* \"contracts/StablePoolFactory.sol\":49581:49619  newInvariant.divDown(currentInvariant) */\n      jump\t// in\n    tag_221:\n        /* \"contracts/StablePoolFactory.sol\":49556:49619  uint256 invariantRatio = newInvariant.divDown(currentInvariant) */\n      swap1\n      pop\n        /* \"contracts/StablePoolFactory.sol\":33515:33519  1e18 */\n      0x0de0b6b3a7640000\n        /* \"contracts/StablePoolFactory.sol\":49722:49736  invariantRatio */\n      dup2\n        /* \"contracts/StablePoolFactory.sol\":49722:49753  invariantRatio > FixedPoint.ONE */\n      gt\n        /* \"contracts/StablePoolFactory.sol\":49718:49885  if (invariantRatio > FixedPoint.ONE) {\r... */\n      iszero\n      tag_222\n      jumpi\n        /* \"contracts/StablePoolFactory.sol\":49777:49832  bptTotalSupply.mulDown(invariantRatio - FixedPoint.ONE) */\n      tag_223\n        /* \"contracts/StablePoolFactory.sol\":49777:49791  bptTotalSupply */\n      dup11\n      not(0x0de0b6b3a763ffff)\n        /* \"contracts/StablePoolFactory.sol\":49800:49831  invariantRatio - FixedPoint.ONE */\n      dup4\n      add\n        /* \"contracts/StablePoolFactory.sol\":49777:49799  bptTotalSupply.mulDown */\n      tag_113\n        /* \"contracts/StablePoolFactory.sol\":49777:49832  bptTotalSupply.mulDown(invariantRatio - FixedPoint.ONE) */\n      jump\t// in\n    tag_223:\n        /* \"contracts/StablePoolFactory.sol\":49770:49832  return bptTotalSupply.mulDown(invariantRatio - FixedPoint.ONE) */\n      swap8\n      pop\n      pop\n      pop\n      pop\n      pop\n      pop\n      pop\n      pop\n      jump(tag_85)\n        /* \"contracts/StablePoolFactory.sol\":49718:49885  if (invariantRatio > FixedPoint.ONE) {\r... */\n    tag_222:\n        /* \"contracts/StablePoolFactory.sol\":49872:49873  0 */\n      0x00\n        /* \"contracts/StablePoolFactory.sol\":49865:49873  return 0 */\n      swap8\n      pop\n      pop\n      pop\n      pop\n      pop\n      pop\n      pop\n      pop\n      jump(tag_85)\n        /* \"contracts/StablePoolFactory.sol\":44550:47050  function _calcInGivenOut(\r... */\n    tag_90:\n        /* \"contracts/StablePoolFactory.sol\":44778:44785  uint256 */\n      0x00\n        /* \"contracts/StablePoolFactory.sol\":46284:46301  uint256 invariant */\n      dup1\n        /* \"contracts/StablePoolFactory.sol\":46304:46363  _calculateInvariant(amplificationParameter, balances, true) */\n      tag_226\n        /* \"contracts/StablePoolFactory.sol\":46324:46346  amplificationParameter */\n      dup8\n        /* \"contracts/StablePoolFactory.sol\":46348:46356  balances */\n      dup8\n        /* \"contracts/StablePoolFactory.sol\":46358:46362  true */\n      0x01\n        /* \"contracts/StablePoolFactory.sol\":46304:46323  _calculateInvariant */\n      tag_81\n        /* \"contracts/StablePoolFactory.sol\":46304:46363  _calculateInvariant(amplificationParameter, balances, true) */\n      jump\t// in\n    tag_226:\n        /* \"contracts/StablePoolFactory.sol\":46284:46363  uint256 invariant = _calculateInvariant(amplificationParameter, balances, true) */\n      swap1\n      pop\n        /* \"contracts/StablePoolFactory.sol\":46402:46445  balances[tokenIndexOut].sub(tokenAmountOut) */\n      tag_227\n        /* \"contracts/StablePoolFactory.sol\":46430:46444  tokenAmountOut */\n      dup4\n        /* \"contracts/StablePoolFactory.sol\":46402:46410  balances */\n      dup8\n        /* \"contracts/StablePoolFactory.sol\":46411:46424  tokenIndexOut */\n      dup7\n        /* \"contracts/StablePoolFactory.sol\":46402:46425  balances[tokenIndexOut] */\n      dup2\n      mload\n      dup2\n      lt\n      tag_211\n      jumpi\n      invalid\n        /* \"contracts/StablePoolFactory.sol\":46402:46445  balances[tokenIndexOut].sub(tokenAmountOut) */\n    tag_227:\n        /* \"contracts/StablePoolFactory.sol\":46376:46384  balances */\n      dup7\n        /* \"contracts/StablePoolFactory.sol\":46385:46398  tokenIndexOut */\n      dup6\n        /* \"contracts/StablePoolFactory.sol\":46376:46399  balances[tokenIndexOut] */\n      dup2\n      mload\n      dup2\n      lt\n      tag_229\n      jumpi\n      invalid\n    tag_229:\n      0x20\n      mul\n      0x20\n      add\n      add\n        /* \"contracts/StablePoolFactory.sol\":46376:46445  balances[tokenIndexOut] = balances[tokenIndexOut].sub(tokenAmountOut) */\n      dup2\n      dup2\n      mstore\n      pop\n      pop\n        /* \"contracts/StablePoolFactory.sol\":46458:46480  uint256 finalBalanceIn */\n      0x00\n        /* \"contracts/StablePoolFactory.sol\":46483:46654  _getTokenBalanceGivenInvariantAndAllOtherBalances(\r... */\n      tag_230\n        /* \"contracts/StablePoolFactory.sol\":46547:46569  amplificationParameter */\n      dup9\n        /* \"contracts/StablePoolFactory.sol\":46584:46592  balances */\n      dup9\n        /* \"contracts/StablePoolFactory.sol\":46607:46616  invariant */\n      dup5\n        /* \"contracts/StablePoolFactory.sol\":46631:46643  tokenIndexIn */\n      dup10\n        /* \"contracts/StablePoolFactory.sol\":46483:46532  _getTokenBalanceGivenInvariantAndAllOtherBalances */\n      tag_161\n        /* \"contracts/StablePoolFactory.sol\":46483:46654  _getTokenBalanceGivenInvariantAndAllOtherBalances(\r... */\n      jump\t// in\n    tag_230:\n        /* \"contracts/StablePoolFactory.sol\":46458:46654  uint256 finalBalanceIn = _getTokenBalanceGivenInvariantAndAllOtherBalances(\r... */\n      swap1\n      pop\n        /* \"contracts/StablePoolFactory.sol\":46959:46973  tokenAmountOut */\n      dup4\n        /* \"contracts/StablePoolFactory.sol\":46933:46941  balances */\n      dup8\n        /* \"contracts/StablePoolFactory.sol\":46942:46955  tokenIndexOut */\n      dup7\n        /* \"contracts/StablePoolFactory.sol\":46933:46956  balances[tokenIndexOut] */\n      dup2\n      mload\n      dup2\n      lt\n      tag_231\n      jumpi\n      invalid\n    tag_231:\n      0x20\n      mul\n      0x20\n      add\n      add\n      mload\n        /* \"contracts/StablePoolFactory.sol\":46933:46973  balances[tokenIndexOut] + tokenAmountOut */\n      add\n        /* \"contracts/StablePoolFactory.sol\":46907:46915  balances */\n      dup8\n        /* \"contracts/StablePoolFactory.sol\":46916:46929  tokenIndexOut */\n      dup7\n        /* \"contracts/StablePoolFactory.sol\":46907:46930  balances[tokenIndexOut] */\n      dup2\n      mload\n      dup2\n      lt\n      tag_232\n      jumpi\n      invalid\n    tag_232:\n      0x20\n      mul\n      0x20\n      add\n      add\n        /* \"contracts/StablePoolFactory.sol\":46907:46973  balances[tokenIndexOut] = balances[tokenIndexOut] + tokenAmountOut */\n      dup2\n      dup2\n      mstore\n      pop\n      pop\n        /* \"contracts/StablePoolFactory.sol\":46993:47042  finalBalanceIn.sub(balances[tokenIndexIn]).add(1) */\n      tag_233\n        /* \"contracts/StablePoolFactory.sol\":47040:47041  1 */\n      0x01\n        /* \"contracts/StablePoolFactory.sol\":46993:47035  finalBalanceIn.sub(balances[tokenIndexIn]) */\n      tag_141\n        /* \"contracts/StablePoolFactory.sol\":47012:47020  balances */\n      dup10\n        /* \"contracts/StablePoolFactory.sol\":47021:47033  tokenIndexIn */\n      dup10\n        /* \"contracts/StablePoolFactory.sol\":47012:47034  balances[tokenIndexIn] */\n      dup2\n      mload\n      dup2\n      lt\n      tag_235\n      jumpi\n      invalid\n    tag_235:\n      0x20\n      mul\n      0x20\n      add\n      add\n      mload\n        /* \"contracts/StablePoolFactory.sol\":46993:47007  finalBalanceIn */\n      dup5\n        /* \"contracts/StablePoolFactory.sol\":46993:47011  finalBalanceIn.sub */\n      tag_164\n      swap1\n        /* \"contracts/StablePoolFactory.sol\":46993:47035  finalBalanceIn.sub(balances[tokenIndexIn]) */\n      swap2\n      swap1\n      0xffffffff\n      and\n      jump\t// in\n        /* \"contracts/StablePoolFactory.sol\":46993:47042  finalBalanceIn.sub(balances[tokenIndexIn]).add(1) */\n    tag_233:\n        /* \"contracts/StablePoolFactory.sol\":46986:47042  return finalBalanceIn.sub(balances[tokenIndexIn]).add(1) */\n      swap9\n        /* \"contracts/StablePoolFactory.sol\":44550:47050  function _calcInGivenOut(\r... */\n      swap8\n      pop\n      pop\n      pop\n      pop\n      pop\n      pop\n      pop\n      pop\n      jump\t// out\n        /* \"contracts/StablePoolFactory.sol\":51937:54638  function _calcBptInGivenExactTokensOut(\r... */\n    tag_93:\n        /* \"contracts/StablePoolFactory.sol\":52171:52178  uint256 */\n      0x00\n      dup1\n      dup1\n        /* \"contracts/StablePoolFactory.sol\":52435:52550  for (uint256 i = 0; i < balances.length; i++) {\r... */\n    tag_237:\n        /* \"contracts/StablePoolFactory.sol\":52459:52467  balances */\n      dup7\n        /* \"contracts/StablePoolFactory.sol\":52459:52474  balances.length */\n      mload\n        /* \"contracts/StablePoolFactory.sol\":52455:52456  i */\n      dup2\n        /* \"contracts/StablePoolFactory.sol\":52455:52474  i < balances.length */\n      lt\n        /* \"contracts/StablePoolFactory.sol\":52435:52550  for (uint256 i = 0; i < balances.length; i++) {\r... */\n      iszero\n      tag_238\n      jumpi\n        /* \"contracts/StablePoolFactory.sol\":52510:52538  sumBalances.add(balances[i]) */\n      tag_240\n        /* \"contracts/StablePoolFactory.sol\":52526:52534  balances */\n      dup8\n        /* \"contracts/StablePoolFactory.sol\":52535:52536  i */\n      dup3\n        /* \"contracts/StablePoolFactory.sol\":52526:52537  balances[i] */\n      dup2\n      mload\n      dup2\n      lt\n      tag_169\n      jumpi\n      invalid\n        /* \"contracts/StablePoolFactory.sol\":52510:52538  sumBalances.add(balances[i]) */\n    tag_240:\n        /* \"contracts/StablePoolFactory.sol\":52496:52538  sumBalances = sumBalances.add(balances[i]) */\n      swap2\n      pop\n        /* \"contracts/StablePoolFactory.sol\":52476:52479  i++ */\n      0x01\n      add\n        /* \"contracts/StablePoolFactory.sol\":52435:52550  for (uint256 i = 0; i < balances.length; i++) {\r... */\n      jump(tag_237)\n    tag_238:\n      pop\n        /* \"contracts/StablePoolFactory.sol\":52636:52676  uint256[] memory balanceRatiosWithoutFee */\n      0x60\n        /* \"contracts/StablePoolFactory.sol\":52693:52703  amountsOut */\n      dup6\n        /* \"contracts/StablePoolFactory.sol\":52693:52710  amountsOut.length */\n      mload\n        /* \"contracts/StablePoolFactory.sol\":52679:52711  new uint256[](amountsOut.length) */\n      0xffffffffffffffff\n      dup2\n      gt\n      dup1\n      iszero\n      tag_242\n      jumpi\n      0x00\n      dup1\n      revert\n    tag_242:\n      pop\n      mload(0x40)\n      swap1\n      dup1\n      dup3\n      mstore\n      dup1\n      0x20\n      mul\n      0x20\n      add\n      dup3\n      add\n      0x40\n      mstore\n      dup1\n      iszero\n      tag_243\n      jumpi\n      dup2\n      0x20\n      add\n      0x20\n      dup3\n      mul\n      dup1\n      calldatasize\n      dup4\n      calldatacopy\n      add\n      swap1\n      pop\n    tag_243:\n      pop\n        /* \"contracts/StablePoolFactory.sol\":52636:52711  uint256[] memory balanceRatiosWithoutFee = new uint256[](amountsOut.length) */\n      swap1\n      pop\n        /* \"contracts/StablePoolFactory.sol\":52722:52755  uint256 invariantRatioWithoutFees */\n      0x00\n        /* \"contracts/StablePoolFactory.sol\":52775:52784  uint256 i */\n      dup1\n        /* \"contracts/StablePoolFactory.sol\":52770:53111  for (uint256 i = 0; i < balances.length; i++) {\r... */\n    tag_244:\n        /* \"contracts/StablePoolFactory.sol\":52794:52802  balances */\n      dup9\n        /* \"contracts/StablePoolFactory.sol\":52794:52809  balances.length */\n      mload\n        /* \"contracts/StablePoolFactory.sol\":52790:52791  i */\n      dup2\n        /* \"contracts/StablePoolFactory.sol\":52790:52809  i < balances.length */\n      lt\n        /* \"contracts/StablePoolFactory.sol\":52770:53111  for (uint256 i = 0; i < balances.length; i++) {\r... */\n      iszero\n      tag_245\n      jumpi\n        /* \"contracts/StablePoolFactory.sol\":52831:52852  uint256 currentWeight */\n      0x00\n        /* \"contracts/StablePoolFactory.sol\":52855:52885  balances[i].divUp(sumBalances) */\n      tag_247\n        /* \"contracts/StablePoolFactory.sol\":52873:52884  sumBalances */\n      dup6\n        /* \"contracts/StablePoolFactory.sol\":52855:52863  balances */\n      dup12\n        /* \"contracts/StablePoolFactory.sol\":52864:52865  i */\n      dup5\n        /* \"contracts/StablePoolFactory.sol\":52855:52866  balances[i] */\n      dup2\n      mload\n      dup2\n      lt\n      tag_248\n      jumpi\n      invalid\n    tag_248:\n      0x20\n      mul\n      0x20\n      add\n      add\n      mload\n        /* \"contracts/StablePoolFactory.sol\":52855:52872  balances[i].divUp */\n      tag_158\n      swap1\n        /* \"contracts/StablePoolFactory.sol\":52855:52885  balances[i].divUp(sumBalances) */\n      swap2\n      swap1\n      0xffffffff\n      and\n      jump\t// in\n    tag_247:\n        /* \"contracts/StablePoolFactory.sol\":52831:52885  uint256 currentWeight = balances[i].divUp(sumBalances) */\n      swap1\n      pop\n        /* \"contracts/StablePoolFactory.sol\":52929:52978  balances[i].sub(amountsOut[i]).divUp(balances[i]) */\n      tag_249\n        /* \"contracts/StablePoolFactory.sol\":52966:52974  balances */\n      dup11\n        /* \"contracts/StablePoolFactory.sol\":52975:52976  i */\n      dup4\n        /* \"contracts/StablePoolFactory.sol\":52966:52977  balances[i] */\n      dup2\n      mload\n      dup2\n      lt\n      tag_250\n      jumpi\n      invalid\n    tag_250:\n      0x20\n      mul\n      0x20\n      add\n      add\n      mload\n        /* \"contracts/StablePoolFactory.sol\":52929:52959  balances[i].sub(amountsOut[i]) */\n      tag_157\n        /* \"contracts/StablePoolFactory.sol\":52945:52955  amountsOut */\n      dup12\n        /* \"contracts/StablePoolFactory.sol\":52956:52957  i */\n      dup6\n        /* \"contracts/StablePoolFactory.sol\":52945:52958  amountsOut[i] */\n      dup2\n      mload\n      dup2\n      lt\n      tag_252\n      jumpi\n      invalid\n    tag_252:\n      0x20\n      mul\n      0x20\n      add\n      add\n      mload\n        /* \"contracts/StablePoolFactory.sol\":52929:52937  balances */\n      dup14\n        /* \"contracts/StablePoolFactory.sol\":52938:52939  i */\n      dup7\n        /* \"contracts/StablePoolFactory.sol\":52929:52940  balances[i] */\n      dup2\n      mload\n      dup2\n      lt\n      tag_211\n      jumpi\n      invalid\n        /* \"contracts/StablePoolFactory.sol\":52929:52978  balances[i].sub(amountsOut[i]).divUp(balances[i]) */\n    tag_249:\n        /* \"contracts/StablePoolFactory.sol\":52900:52923  balanceRatiosWithoutFee */\n      dup5\n        /* \"contracts/StablePoolFactory.sol\":52924:52925  i */\n      dup4\n        /* \"contracts/StablePoolFactory.sol\":52900:52926  balanceRatiosWithoutFee[i] */\n      dup2\n      mload\n      dup2\n      lt\n      tag_254\n      jumpi\n      invalid\n    tag_254:\n      0x20\n      mul\n      0x20\n      add\n      add\n        /* \"contracts/StablePoolFactory.sol\":52900:52978  balanceRatiosWithoutFee[i] = balances[i].sub(amountsOut[i]).divUp(balances[i]) */\n      dup2\n      dup2\n      mstore\n      pop\n      pop\n        /* \"contracts/StablePoolFactory.sol\":53021:53099  invariantRatioWithoutFees.add(balanceRatiosWithoutFee[i].mulUp(currentWeight)) */\n      tag_255\n        /* \"contracts/StablePoolFactory.sol\":53051:53098  balanceRatiosWithoutFee[i].mulUp(currentWeight) */\n      tag_198\n        /* \"contracts/StablePoolFactory.sol\":53084:53097  currentWeight */\n      dup3\n        /* \"contracts/StablePoolFactory.sol\":53051:53074  balanceRatiosWithoutFee */\n      dup7\n        /* \"contracts/StablePoolFactory.sol\":53075:53076  i */\n      dup6\n        /* \"contracts/StablePoolFactory.sol\":53051:53077  balanceRatiosWithoutFee[i] */\n      dup2\n      mload\n      dup2\n      lt\n      tag_257\n      jumpi\n      invalid\n    tag_257:\n      0x20\n      mul\n      0x20\n      add\n      add\n      mload\n        /* \"contracts/StablePoolFactory.sol\":53051:53083  balanceRatiosWithoutFee[i].mulUp */\n      tag_159\n      swap1\n        /* \"contracts/StablePoolFactory.sol\":53051:53098  balanceRatiosWithoutFee[i].mulUp(currentWeight) */\n      swap2\n      swap1\n      0xffffffff\n      and\n      jump\t// in\n        /* \"contracts/StablePoolFactory.sol\":53021:53099  invariantRatioWithoutFees.add(balanceRatiosWithoutFee[i].mulUp(currentWeight)) */\n    tag_255:\n        /* \"contracts/StablePoolFactory.sol\":52993:53099  invariantRatioWithoutFees = invariantRatioWithoutFees.add(balanceRatiosWithoutFee[i].mulUp(currentWeight)) */\n      swap3\n      pop\n      pop\n        /* \"contracts/StablePoolFactory.sol\":52811:52814  i++ */\n      0x01\n      add\n        /* \"contracts/StablePoolFactory.sol\":52770:53111  for (uint256 i = 0; i < balances.length; i++) {\r... */\n      jump(tag_244)\n    tag_245:\n      pop\n        /* \"contracts/StablePoolFactory.sol\":53227:53255  uint256[] memory newBalances */\n      0x60\n        /* \"contracts/StablePoolFactory.sol\":53272:53280  balances */\n      dup9\n        /* \"contracts/StablePoolFactory.sol\":53272:53287  balances.length */\n      mload\n        /* \"contracts/StablePoolFactory.sol\":53258:53288  new uint256[](balances.length) */\n      0xffffffffffffffff\n      dup2\n      gt\n      dup1\n      iszero\n      tag_258\n      jumpi\n      0x00\n      dup1\n      revert\n    tag_258:\n      pop\n      mload(0x40)\n      swap1\n      dup1\n      dup3\n      mstore\n      dup1\n      0x20\n      mul\n      0x20\n      add\n      dup3\n      add\n      0x40\n      mstore\n      dup1\n      iszero\n      tag_259\n      jumpi\n      dup2\n      0x20\n      add\n      0x20\n      dup3\n      mul\n      dup1\n      calldatasize\n      dup4\n      calldatacopy\n      add\n      swap1\n      pop\n    tag_259:\n      pop\n        /* \"contracts/StablePoolFactory.sol\":53227:53288  uint256[] memory newBalances = new uint256[](balances.length) */\n      swap1\n      pop\n        /* \"contracts/StablePoolFactory.sol\":53304:53313  uint256 i */\n      0x00\n        /* \"contracts/StablePoolFactory.sol\":53299:54225  for (uint256 i = 0; i < balances.length; i++) {\r... */\n    tag_260:\n        /* \"contracts/StablePoolFactory.sol\":53323:53331  balances */\n      dup10\n        /* \"contracts/StablePoolFactory.sol\":53323:53338  balances.length */\n      mload\n        /* \"contracts/StablePoolFactory.sol\":53319:53320  i */\n      dup2\n        /* \"contracts/StablePoolFactory.sol\":53319:53338  i < balances.length */\n      lt\n        /* \"contracts/StablePoolFactory.sol\":53299:54225  for (uint256 i = 0; i < balances.length; i++) {\r... */\n      iszero\n      tag_261\n      jumpi\n        /* \"contracts/StablePoolFactory.sol\":53551:53575  uint256 amountOutWithFee */\n      0x00\n        /* \"contracts/StablePoolFactory.sol\":53622:53645  balanceRatiosWithoutFee */\n      dup5\n        /* \"contracts/StablePoolFactory.sol\":53646:53647  i */\n      dup3\n        /* \"contracts/StablePoolFactory.sol\":53622:53648  balanceRatiosWithoutFee[i] */\n      dup2\n      mload\n      dup2\n      lt\n      tag_263\n      jumpi\n      invalid\n    tag_263:\n      0x20\n      mul\n      0x20\n      add\n      add\n      mload\n        /* \"contracts/StablePoolFactory.sol\":53594:53619  invariantRatioWithoutFees */\n      dup5\n        /* \"contracts/StablePoolFactory.sol\":53594:53648  invariantRatioWithoutFees > balanceRatiosWithoutFee[i] */\n      gt\n        /* \"contracts/StablePoolFactory.sol\":53590:54147  if (invariantRatioWithoutFees > balanceRatiosWithoutFee[i]) {\r... */\n      iszero\n      tag_264\n      jumpi\n        /* \"contracts/StablePoolFactory.sol\":53669:53693  uint256 nonTaxableAmount */\n      0x00\n        /* \"contracts/StablePoolFactory.sol\":53696:53755  balances[i].mulDown(invariantRatioWithoutFees.complement()) */\n      tag_265\n        /* \"contracts/StablePoolFactory.sol\":53716:53754  invariantRatioWithoutFees.complement() */\n      tag_208\n        /* \"contracts/StablePoolFactory.sol\":53716:53741  invariantRatioWithoutFees */\n      dup7\n        /* \"contracts/StablePoolFactory.sol\":53716:53752  invariantRatioWithoutFees.complement */\n      tag_173\n        /* \"contracts/StablePoolFactory.sol\":53716:53754  invariantRatioWithoutFees.complement() */\n      jump\t// in\n        /* \"contracts/StablePoolFactory.sol\":53696:53755  balances[i].mulDown(invariantRatioWithoutFees.complement()) */\n    tag_265:\n        /* \"contracts/StablePoolFactory.sol\":53669:53755  uint256 nonTaxableAmount = balances[i].mulDown(invariantRatioWithoutFees.complement()) */\n      swap1\n      pop\n        /* \"contracts/StablePoolFactory.sol\":53774:53795  uint256 taxableAmount */\n      0x00\n        /* \"contracts/StablePoolFactory.sol\":53798:53833  amountsOut[i].sub(nonTaxableAmount) */\n      tag_268\n        /* \"contracts/StablePoolFactory.sol\":53816:53832  nonTaxableAmount */\n      dup3\n        /* \"contracts/StablePoolFactory.sol\":53798:53808  amountsOut */\n      dup14\n        /* \"contracts/StablePoolFactory.sol\":53809:53810  i */\n      dup7\n        /* \"contracts/StablePoolFactory.sol\":53798:53811  amountsOut[i] */\n      dup2\n      mload\n      dup2\n      lt\n      tag_211\n      jumpi\n      invalid\n        /* \"contracts/StablePoolFactory.sol\":53798:53833  amountsOut[i].sub(nonTaxableAmount) */\n    tag_268:\n        /* \"contracts/StablePoolFactory.sol\":53774:53833  uint256 taxableAmount = amountsOut[i].sub(nonTaxableAmount) */\n      swap1\n      pop\n        /* \"contracts/StablePoolFactory.sol\":53981:54058  nonTaxableAmount.add(taxableAmount.divUp(FixedPoint.ONE - swapFeePercentage)) */\n      tag_270\n        /* \"contracts/StablePoolFactory.sol\":54002:54057  taxableAmount.divUp(FixedPoint.ONE - swapFeePercentage) */\n      tag_213\n        /* \"contracts/StablePoolFactory.sol\":53774:53833  uint256 taxableAmount = amountsOut[i].sub(nonTaxableAmount) */\n      dup3\n        /* \"contracts/StablePoolFactory.sol\":33515:33519  1e18 */\n      0x0de0b6b3a7640000\n        /* \"contracts/StablePoolFactory.sol\":54022:54056  FixedPoint.ONE - swapFeePercentage */\n      dup14\n      swap1\n      sub\n        /* \"contracts/StablePoolFactory.sol\":54002:54021  taxableAmount.divUp */\n      tag_158\n        /* \"contracts/StablePoolFactory.sol\":54002:54057  taxableAmount.divUp(FixedPoint.ONE - swapFeePercentage) */\n      jump\t// in\n        /* \"contracts/StablePoolFactory.sol\":53981:54058  nonTaxableAmount.add(taxableAmount.divUp(FixedPoint.ONE - swapFeePercentage)) */\n    tag_270:\n        /* \"contracts/StablePoolFactory.sol\":53962:54058  amountOutWithFee = nonTaxableAmount.add(taxableAmount.divUp(FixedPoint.ONE - swapFeePercentage)) */\n      swap3\n      pop\n        /* \"contracts/StablePoolFactory.sol\":53590:54147  if (invariantRatioWithoutFees > balanceRatiosWithoutFee[i]) {\r... */\n      pop\n      pop\n      jump(tag_272)\n    tag_264:\n        /* \"contracts/StablePoolFactory.sol\":54118:54128  amountsOut */\n      dup10\n        /* \"contracts/StablePoolFactory.sol\":54129:54130  i */\n      dup3\n        /* \"contracts/StablePoolFactory.sol\":54118:54131  amountsOut[i] */\n      dup2\n      mload\n      dup2\n      lt\n      tag_273\n      jumpi\n      invalid\n    tag_273:\n      0x20\n      mul\n      0x20\n      add\n      add\n      mload\n        /* \"contracts/StablePoolFactory.sol\":54099:54131  amountOutWithFee = amountsOut[i] */\n      swap1\n      pop\n        /* \"contracts/StablePoolFactory.sol\":53590:54147  if (invariantRatioWithoutFees > balanceRatiosWithoutFee[i]) {\r... */\n    tag_272:\n        /* \"contracts/StablePoolFactory.sol\":54180:54213  balances[i].sub(amountOutWithFee) */\n      tag_274\n        /* \"contracts/StablePoolFactory.sol\":54196:54212  amountOutWithFee */\n      dup2\n        /* \"contracts/StablePoolFactory.sol\":54180:54188  balances */\n      dup13\n        /* \"contracts/StablePoolFactory.sol\":54189:54190  i */\n      dup5\n        /* \"contracts/StablePoolFactory.sol\":54180:54191  balances[i] */\n      dup2\n      mload\n      dup2\n      lt\n      tag_211\n      jumpi\n      invalid\n        /* \"contracts/StablePoolFactory.sol\":54180:54213  balances[i].sub(amountOutWithFee) */\n    tag_274:\n        /* \"contracts/StablePoolFactory.sol\":54163:54174  newBalances */\n      dup4\n        /* \"contracts/StablePoolFactory.sol\":54175:54176  i */\n      dup4\n        /* \"contracts/StablePoolFactory.sol\":54163:54177  newBalances[i] */\n      dup2\n      mload\n      dup2\n      lt\n      tag_276\n      jumpi\n      invalid\n    tag_276:\n      0x20\n      swap1\n      dup2\n      mul\n      swap2\n      swap1\n      swap2\n      add\n      add\n        /* \"contracts/StablePoolFactory.sol\":54163:54213  newBalances[i] = balances[i].sub(amountOutWithFee) */\n      mstore\n      pop\n        /* \"contracts/StablePoolFactory.sol\":53340:53343  i++ */\n      0x01\n      add\n        /* \"contracts/StablePoolFactory.sol\":53299:54225  for (uint256 i = 0; i < balances.length; i++) {\r... */\n      jump(tag_260)\n    tag_261:\n      pop\n        /* \"contracts/StablePoolFactory.sol\":54311:54335  uint256 currentInvariant */\n      0x00\n        /* \"contracts/StablePoolFactory.sol\":54338:54378  _calculateInvariant(amp, balances, true) */\n      tag_277\n        /* \"contracts/StablePoolFactory.sol\":54358:54361  amp */\n      dup12\n        /* \"contracts/StablePoolFactory.sol\":54363:54371  balances */\n      dup12\n        /* \"contracts/StablePoolFactory.sol\":54373:54377  true */\n      0x01\n        /* \"contracts/StablePoolFactory.sol\":54338:54357  _calculateInvariant */\n      tag_81\n        /* \"contracts/StablePoolFactory.sol\":54338:54378  _calculateInvariant(amp, balances, true) */\n      jump\t// in\n    tag_277:\n        /* \"contracts/StablePoolFactory.sol\":54311:54378  uint256 currentInvariant = _calculateInvariant(amp, balances, true) */\n      swap1\n      pop\n        /* \"contracts/StablePoolFactory.sol\":54389:54409  uint256 newInvariant */\n      0x00\n        /* \"contracts/StablePoolFactory.sol\":54412:54456  _calculateInvariant(amp, newBalances, false) */\n      tag_278\n        /* \"contracts/StablePoolFactory.sol\":54432:54435  amp */\n      dup13\n        /* \"contracts/StablePoolFactory.sol\":54437:54448  newBalances */\n      dup5\n        /* \"contracts/StablePoolFactory.sol\":54450:54455  false */\n      0x00\n        /* \"contracts/StablePoolFactory.sol\":54412:54431  _calculateInvariant */\n      tag_81\n        /* \"contracts/StablePoolFactory.sol\":54412:54456  _calculateInvariant(amp, newBalances, false) */\n      jump\t// in\n    tag_278:\n        /* \"contracts/StablePoolFactory.sol\":54389:54456  uint256 newInvariant = _calculateInvariant(amp, newBalances, false) */\n      swap1\n      pop\n        /* \"contracts/StablePoolFactory.sol\":54467:54489  uint256 invariantRatio */\n      0x00\n        /* \"contracts/StablePoolFactory.sol\":54492:54530  newInvariant.divDown(currentInvariant) */\n      tag_279\n        /* \"contracts/StablePoolFactory.sol\":54389:54456  uint256 newInvariant = _calculateInvariant(amp, newBalances, false) */\n      dup3\n        /* \"contracts/StablePoolFactory.sol\":54513:54529  currentInvariant */\n      dup5\n        /* \"contracts/StablePoolFactory.sol\":54492:54512  newInvariant.divDown */\n      tag_105\n        /* \"contracts/StablePoolFactory.sol\":54492:54530  newInvariant.divDown(currentInvariant) */\n      jump\t// in\n    tag_279:\n        /* \"contracts/StablePoolFactory.sol\":54467:54530  uint256 invariantRatio = newInvariant.divDown(currentInvariant) */\n      swap1\n      pop\n        /* \"contracts/StablePoolFactory.sol\":54581:54630  bptTotalSupply.mulUp(invariantRatio.complement()) */\n      tag_280\n        /* \"contracts/StablePoolFactory.sol\":54602:54629  invariantRatio.complement() */\n      tag_281\n        /* \"contracts/StablePoolFactory.sol\":54602:54616  invariantRatio */\n      dup3\n        /* \"contracts/StablePoolFactory.sol\":54602:54627  invariantRatio.complement */\n      tag_173\n        /* \"contracts/StablePoolFactory.sol\":54602:54629  invariantRatio.complement() */\n      jump\t// in\n    tag_281:\n        /* \"contracts/StablePoolFactory.sol\":54581:54595  bptTotalSupply */\n      dup12\n      swap1\n        /* \"contracts/StablePoolFactory.sol\":54581:54601  bptTotalSupply.mulUp */\n      tag_159\n        /* \"contracts/StablePoolFactory.sol\":54581:54630  bptTotalSupply.mulUp(invariantRatio.complement()) */\n      jump\t// in\n    tag_280:\n        /* \"contracts/StablePoolFactory.sol\":54574:54630  return bptTotalSupply.mulUp(invariantRatio.complement()) */\n      swap14\n        /* \"contracts/StablePoolFactory.sol\":51937:54638  function _calcBptInGivenExactTokensOut(\r... */\n      swap13\n      pop\n      pop\n      pop\n      pop\n      pop\n      pop\n      pop\n      pop\n      pop\n      pop\n      pop\n      pop\n      pop\n      jump\t// out\n        /* \"contracts/StablePoolFactory.sol\":54646:56748  function _calcTokenOutGivenExactBptIn(\r... */\n    tag_96:\n        /* \"contracts/StablePoolFactory.sol\":54900:54907  uint256 */\n      0x00\n        /* \"contracts/StablePoolFactory.sol\":55086:55110  uint256 currentInvariant */\n      dup1\n        /* \"contracts/StablePoolFactory.sol\":55113:55153  _calculateInvariant(amp, balances, true) */\n      tag_283\n        /* \"contracts/StablePoolFactory.sol\":55133:55136  amp */\n      dup9\n        /* \"contracts/StablePoolFactory.sol\":55138:55146  balances */\n      dup9\n        /* \"contracts/StablePoolFactory.sol\":55148:55152  true */\n      0x01\n        /* \"contracts/StablePoolFactory.sol\":55113:55132  _calculateInvariant */\n      tag_81\n        /* \"contracts/StablePoolFactory.sol\":55113:55153  _calculateInvariant(amp, balances, true) */\n      jump\t// in\n    tag_283:\n        /* \"contracts/StablePoolFactory.sol\":55086:55153  uint256 currentInvariant = _calculateInvariant(amp, balances, true) */\n      swap1\n      pop\n        /* \"contracts/StablePoolFactory.sol\":55164:55184  uint256 newInvariant */\n      0x00\n        /* \"contracts/StablePoolFactory.sol\":55187:55264  bptTotalSupply.sub(bptAmountIn).divUp(bptTotalSupply).mulUp(currentInvariant) */\n      tag_284\n        /* \"contracts/StablePoolFactory.sol\":55086:55153  uint256 currentInvariant = _calculateInvariant(amp, balances, true) */\n      dup3\n        /* \"contracts/StablePoolFactory.sol\":55187:55240  bptTotalSupply.sub(bptAmountIn).divUp(bptTotalSupply) */\n      tag_156\n        /* \"contracts/StablePoolFactory.sol\":55225:55239  bptTotalSupply */\n      dup8\n        /* \"contracts/StablePoolFactory.sol\":55187:55218  bptTotalSupply.sub(bptAmountIn) */\n      tag_157\n        /* \"contracts/StablePoolFactory.sol\":55225:55239  bptTotalSupply */\n      dup2\n        /* \"contracts/StablePoolFactory.sol\":55206:55217  bptAmountIn */\n      dup12\n        /* \"contracts/StablePoolFactory.sol\":55187:55205  bptTotalSupply.sub */\n      tag_164\n        /* \"contracts/StablePoolFactory.sol\":55187:55218  bptTotalSupply.sub(bptAmountIn) */\n      jump\t// in\n        /* \"contracts/StablePoolFactory.sol\":55187:55264  bptTotalSupply.sub(bptAmountIn).divUp(bptTotalSupply).mulUp(currentInvariant) */\n    tag_284:\n        /* \"contracts/StablePoolFactory.sol\":55164:55264  uint256 newInvariant = bptTotalSupply.sub(bptAmountIn).divUp(bptTotalSupply).mulUp(currentInvariant) */\n      swap1\n      pop\n        /* \"contracts/StablePoolFactory.sol\":55322:55350  uint256 newBalanceTokenIndex */\n      0x00\n        /* \"contracts/StablePoolFactory.sol\":55353:55506  _getTokenBalanceGivenInvariantAndAllOtherBalances(\r... */\n      tag_287\n        /* \"contracts/StablePoolFactory.sol\":55417:55420  amp */\n      dup11\n        /* \"contracts/StablePoolFactory.sol\":55435:55443  balances */\n      dup11\n        /* \"contracts/StablePoolFactory.sol\":55458:55470  newInvariant */\n      dup5\n        /* \"contracts/StablePoolFactory.sol\":55485:55495  tokenIndex */\n      dup12\n        /* \"contracts/StablePoolFactory.sol\":55353:55402  _getTokenBalanceGivenInvariantAndAllOtherBalances */\n      tag_161\n        /* \"contracts/StablePoolFactory.sol\":55353:55506  _getTokenBalanceGivenInvariantAndAllOtherBalances(\r... */\n      jump\t// in\n    tag_287:\n        /* \"contracts/StablePoolFactory.sol\":55322:55506  uint256 newBalanceTokenIndex = _getTokenBalanceGivenInvariantAndAllOtherBalances(\r... */\n      swap1\n      pop\n        /* \"contracts/StablePoolFactory.sol\":55517:55544  uint256 amountOutWithoutFee */\n      0x00\n        /* \"contracts/StablePoolFactory.sol\":55547:55593  balances[tokenIndex].sub(newBalanceTokenIndex) */\n      tag_288\n        /* \"contracts/StablePoolFactory.sol\":55572:55592  newBalanceTokenIndex */\n      dup3\n        /* \"contracts/StablePoolFactory.sol\":55547:55555  balances */\n      dup12\n        /* \"contracts/StablePoolFactory.sol\":55556:55566  tokenIndex */\n      dup12\n        /* \"contracts/StablePoolFactory.sol\":55547:55567  balances[tokenIndex] */\n      dup2\n      mload\n      dup2\n      lt\n      tag_211\n      jumpi\n      invalid\n        /* \"contracts/StablePoolFactory.sol\":55547:55593  balances[tokenIndex].sub(newBalanceTokenIndex) */\n    tag_288:\n        /* \"contracts/StablePoolFactory.sol\":55517:55593  uint256 amountOutWithoutFee = balances[tokenIndex].sub(newBalanceTokenIndex) */\n      swap1\n      pop\n        /* \"contracts/StablePoolFactory.sol\":55742:55761  uint256 sumBalances */\n      0x00\n        /* \"contracts/StablePoolFactory.sol\":55781:55790  uint256 i */\n      dup1\n        /* \"contracts/StablePoolFactory.sol\":55776:55891  for (uint256 i = 0; i < balances.length; i++) {\r... */\n    tag_290:\n        /* \"contracts/StablePoolFactory.sol\":55800:55808  balances */\n      dup12\n        /* \"contracts/StablePoolFactory.sol\":55800:55815  balances.length */\n      mload\n        /* \"contracts/StablePoolFactory.sol\":55796:55797  i */\n      dup2\n        /* \"contracts/StablePoolFactory.sol\":55796:55815  i < balances.length */\n      lt\n        /* \"contracts/StablePoolFactory.sol\":55776:55891  for (uint256 i = 0; i < balances.length; i++) {\r... */\n      iszero\n      tag_291\n      jumpi\n        /* \"contracts/StablePoolFactory.sol\":55851:55879  sumBalances.add(balances[i]) */\n      tag_293\n        /* \"contracts/StablePoolFactory.sol\":55867:55875  balances */\n      dup13\n        /* \"contracts/StablePoolFactory.sol\":55876:55877  i */\n      dup3\n        /* \"contracts/StablePoolFactory.sol\":55867:55878  balances[i] */\n      dup2\n      mload\n      dup2\n      lt\n      tag_169\n      jumpi\n      invalid\n        /* \"contracts/StablePoolFactory.sol\":55851:55879  sumBalances.add(balances[i]) */\n    tag_293:\n        /* \"contracts/StablePoolFactory.sol\":55837:55879  sumBalances = sumBalances.add(balances[i]) */\n      swap2\n      pop\n        /* \"contracts/StablePoolFactory.sol\":55817:55820  i++ */\n      0x01\n      add\n        /* \"contracts/StablePoolFactory.sol\":55776:55891  for (uint256 i = 0; i < balances.length; i++) {\r... */\n      jump(tag_290)\n    tag_291:\n      pop\n        /* \"contracts/StablePoolFactory.sol\":56050:56071  uint256 currentWeight */\n      0x00\n        /* \"contracts/StablePoolFactory.sol\":56074:56115  balances[tokenIndex].divDown(sumBalances) */\n      tag_295\n        /* \"contracts/StablePoolFactory.sol\":56103:56114  sumBalances */\n      dup3\n        /* \"contracts/StablePoolFactory.sol\":56074:56082  balances */\n      dup14\n        /* \"contracts/StablePoolFactory.sol\":56083:56093  tokenIndex */\n      dup14\n        /* \"contracts/StablePoolFactory.sol\":56074:56094  balances[tokenIndex] */\n      dup2\n      mload\n      dup2\n      lt\n      tag_171\n      jumpi\n      invalid\n        /* \"contracts/StablePoolFactory.sol\":56074:56115  balances[tokenIndex].divDown(sumBalances) */\n    tag_295:\n        /* \"contracts/StablePoolFactory.sol\":56050:56115  uint256 currentWeight = balances[tokenIndex].divDown(sumBalances) */\n      swap1\n      pop\n        /* \"contracts/StablePoolFactory.sol\":56126:56151  uint256 taxablePercentage */\n      0x00\n        /* \"contracts/StablePoolFactory.sol\":56154:56180  currentWeight.complement() */\n      tag_297\n        /* \"contracts/StablePoolFactory.sol\":56154:56167  currentWeight */\n      dup3\n        /* \"contracts/StablePoolFactory.sol\":56154:56178  currentWeight.complement */\n      tag_173\n        /* \"contracts/StablePoolFactory.sol\":56154:56180  currentWeight.complement() */\n      jump\t// in\n    tag_297:\n        /* \"contracts/StablePoolFactory.sol\":56126:56180  uint256 taxablePercentage = currentWeight.complement() */\n      swap1\n      pop\n        /* \"contracts/StablePoolFactory.sol\":56395:56416  uint256 taxableAmount */\n      0x00\n        /* \"contracts/StablePoolFactory.sol\":56419:56463  amountOutWithoutFee.mulUp(taxablePercentage) */\n      tag_298\n        /* \"contracts/StablePoolFactory.sol\":56419:56438  amountOutWithoutFee */\n      dup6\n        /* \"contracts/StablePoolFactory.sol\":56126:56180  uint256 taxablePercentage = currentWeight.complement() */\n      dup4\n        /* \"contracts/StablePoolFactory.sol\":56419:56444  amountOutWithoutFee.mulUp */\n      tag_159\n        /* \"contracts/StablePoolFactory.sol\":56419:56463  amountOutWithoutFee.mulUp(taxablePercentage) */\n      jump\t// in\n    tag_298:\n        /* \"contracts/StablePoolFactory.sol\":56395:56463  uint256 taxableAmount = amountOutWithoutFee.mulUp(taxablePercentage) */\n      swap1\n      pop\n        /* \"contracts/StablePoolFactory.sol\":56474:56498  uint256 nonTaxableAmount */\n      0x00\n        /* \"contracts/StablePoolFactory.sol\":56501:56539  amountOutWithoutFee.sub(taxableAmount) */\n      tag_299\n        /* \"contracts/StablePoolFactory.sol\":56501:56520  amountOutWithoutFee */\n      dup7\n        /* \"contracts/StablePoolFactory.sol\":56395:56463  uint256 taxableAmount = amountOutWithoutFee.mulUp(taxablePercentage) */\n      dup4\n        /* \"contracts/StablePoolFactory.sol\":56501:56524  amountOutWithoutFee.sub */\n      tag_164\n        /* \"contracts/StablePoolFactory.sol\":56501:56539  amountOutWithoutFee.sub(taxableAmount) */\n      jump\t// in\n    tag_299:\n        /* \"contracts/StablePoolFactory.sol\":56474:56539  uint256 nonTaxableAmount = amountOutWithoutFee.sub(taxableAmount) */\n      swap1\n      pop\n        /* \"contracts/StablePoolFactory.sol\":56661:56740  nonTaxableAmount.add(taxableAmount.mulDown(FixedPoint.ONE - swapFeePercentage)) */\n      tag_176\n        /* \"contracts/StablePoolFactory.sol\":56682:56739  taxableAmount.mulDown(FixedPoint.ONE - swapFeePercentage) */\n      tag_177\n        /* \"contracts/StablePoolFactory.sol\":56682:56695  taxableAmount */\n      dup4\n        /* \"contracts/StablePoolFactory.sol\":33515:33519  1e18 */\n      0x0de0b6b3a7640000\n        /* \"contracts/StablePoolFactory.sol\":56704:56738  FixedPoint.ONE - swapFeePercentage */\n      dup15\n      swap1\n      sub\n        /* \"contracts/StablePoolFactory.sol\":56682:56703  taxableAmount.mulDown */\n      tag_113\n        /* \"contracts/StablePoolFactory.sol\":56682:56739  taxableAmount.mulDown(FixedPoint.ONE - swapFeePercentage) */\n      jump\t// in\n        /* \"contracts/StablePoolFactory.sol\":58302:60751  function _calcDueTokenProtocolSwapFeeAmount(\r... */\n    tag_99:\n        /* \"contracts/StablePoolFactory.sol\":58558:58565  uint256 */\n      0x00\n        /* \"contracts/StablePoolFactory.sol\":59977:60005  uint256 finalBalanceFeeToken */\n      dup1\n        /* \"contracts/StablePoolFactory.sol\":60008:60181  _getTokenBalanceGivenInvariantAndAllOtherBalances(\r... */\n      tag_303\n        /* \"contracts/StablePoolFactory.sol\":60072:60094  amplificationParameter */\n      dup8\n        /* \"contracts/StablePoolFactory.sol\":60109:60117  balances */\n      dup8\n        /* \"contracts/StablePoolFactory.sol\":60132:60145  lastInvariant */\n      dup8\n        /* \"contracts/StablePoolFactory.sol\":60160:60170  tokenIndex */\n      dup8\n        /* \"contracts/StablePoolFactory.sol\":60008:60057  _getTokenBalanceGivenInvariantAndAllOtherBalances */\n      tag_161\n        /* \"contracts/StablePoolFactory.sol\":60008:60181  _getTokenBalanceGivenInvariantAndAllOtherBalances(\r... */\n      jump\t// in\n    tag_303:\n        /* \"contracts/StablePoolFactory.sol\":59977:60181  uint256 finalBalanceFeeToken = _getTokenBalanceGivenInvariantAndAllOtherBalances(\r... */\n      swap1\n      pop\n        /* \"contracts/StablePoolFactory.sol\":60222:60242  finalBalanceFeeToken */\n      dup1\n        /* \"contracts/StablePoolFactory.sol\":60198:60206  balances */\n      dup7\n        /* \"contracts/StablePoolFactory.sol\":60207:60217  tokenIndex */\n      dup6\n        /* \"contracts/StablePoolFactory.sol\":60198:60218  balances[tokenIndex] */\n      dup2\n      mload\n      dup2\n      lt\n      tag_304\n      jumpi\n      invalid\n    tag_304:\n      0x20\n      mul\n      0x20\n      add\n      add\n      mload\n        /* \"contracts/StablePoolFactory.sol\":60198:60242  balances[tokenIndex] <= finalBalanceFeeToken */\n      gt\n        /* \"contracts/StablePoolFactory.sol\":60194:60517  if (balances[tokenIndex] <= finalBalanceFeeToken) {\r... */\n      tag_305\n      jumpi\n        /* \"contracts/StablePoolFactory.sol\":60504:60505  0 */\n      0x00\n        /* \"contracts/StablePoolFactory.sol\":60497:60505  return 0 */\n      swap2\n      pop\n      pop\n      jump(tag_85)\n        /* \"contracts/StablePoolFactory.sol\":60194:60517  if (balances[tokenIndex] <= finalBalanceFeeToken) {\r... */\n    tag_305:\n        /* \"contracts/StablePoolFactory.sol\":60564:60596  uint256 accumulatedTokenSwapFees */\n      0x00\n        /* \"contracts/StablePoolFactory.sol\":60622:60642  finalBalanceFeeToken */\n      dup2\n        /* \"contracts/StablePoolFactory.sol\":60599:60607  balances */\n      dup8\n        /* \"contracts/StablePoolFactory.sol\":60608:60618  tokenIndex */\n      dup7\n        /* \"contracts/StablePoolFactory.sol\":60599:60619  balances[tokenIndex] */\n      dup2\n      mload\n      dup2\n      lt\n      tag_306\n      jumpi\n      invalid\n    tag_306:\n      0x20\n      mul\n      0x20\n      add\n      add\n      mload\n        /* \"contracts/StablePoolFactory.sol\":60599:60642  balances[tokenIndex] - finalBalanceFeeToken */\n      sub\n        /* \"contracts/StablePoolFactory.sol\":60564:60642  uint256 accumulatedTokenSwapFees = balances[tokenIndex] - finalBalanceFeeToken */\n      swap1\n      pop\n        /* \"contracts/StablePoolFactory.sol\":60660:60743  accumulatedTokenSwapFees.mulDown(protocolSwapFeePercentage).divDown(FixedPoint.ONE) */\n      tag_233\n        /* \"contracts/StablePoolFactory.sol\":33515:33519  1e18 */\n      0x0de0b6b3a7640000\n        /* \"contracts/StablePoolFactory.sol\":60660:60719  accumulatedTokenSwapFees.mulDown(protocolSwapFeePercentage) */\n      tag_193\n        /* \"contracts/StablePoolFactory.sol\":60693:60718  protocolSwapFeePercentage */\n      dup7\n        /* \"contracts/StablePoolFactory.sol\":60660:60684  accumulatedTokenSwapFees */\n      dup5\n        /* \"contracts/StablePoolFactory.sol\":60660:60692  accumulatedTokenSwapFees.mulDown */\n      tag_113\n      swap1\n        /* \"contracts/StablePoolFactory.sol\":60660:60719  accumulatedTokenSwapFees.mulDown(protocolSwapFeePercentage) */\n      swap2\n      swap1\n      0xffffffff\n      and\n      jump\t// in\n        /* \"contracts/StablePoolFactory.sol\":41834:44327  function _calcOutGivenIn(\r... */\n    tag_102:\n        /* \"contracts/StablePoolFactory.sol\":42061:42068  uint256 */\n      0x00\n        /* \"contracts/StablePoolFactory.sol\":43571:43588  uint256 invariant */\n      dup1\n        /* \"contracts/StablePoolFactory.sol\":43591:43650  _calculateInvariant(amplificationParameter, balances, true) */\n      tag_310\n        /* \"contracts/StablePoolFactory.sol\":43611:43633  amplificationParameter */\n      dup8\n        /* \"contracts/StablePoolFactory.sol\":43635:43643  balances */\n      dup8\n        /* \"contracts/StablePoolFactory.sol\":43645:43649  true */\n      0x01\n        /* \"contracts/StablePoolFactory.sol\":43591:43610  _calculateInvariant */\n      tag_81\n        /* \"contracts/StablePoolFactory.sol\":43591:43650  _calculateInvariant(amplificationParameter, balances, true) */\n      jump\t// in\n    tag_310:\n        /* \"contracts/StablePoolFactory.sol\":43571:43650  uint256 invariant = _calculateInvariant(amplificationParameter, balances, true) */\n      swap1\n      pop\n        /* \"contracts/StablePoolFactory.sol\":43688:43729  balances[tokenIndexIn].add(tokenAmountIn) */\n      tag_311\n        /* \"contracts/StablePoolFactory.sol\":43715:43728  tokenAmountIn */\n      dup4\n        /* \"contracts/StablePoolFactory.sol\":43688:43696  balances */\n      dup8\n        /* \"contracts/StablePoolFactory.sol\":43697:43709  tokenIndexIn */\n      dup8\n        /* \"contracts/StablePoolFactory.sol\":43688:43710  balances[tokenIndexIn] */\n      dup2\n      mload\n      dup2\n      lt\n      tag_195\n      jumpi\n      invalid\n        /* \"contracts/StablePoolFactory.sol\":43688:43729  balances[tokenIndexIn].add(tokenAmountIn) */\n    tag_311:\n        /* \"contracts/StablePoolFactory.sol\":43663:43671  balances */\n      dup7\n        /* \"contracts/StablePoolFactory.sol\":43672:43684  tokenIndexIn */\n      dup7\n        /* \"contracts/StablePoolFactory.sol\":43663:43685  balances[tokenIndexIn] */\n      dup2\n      mload\n      dup2\n      lt\n      tag_313\n      jumpi\n      invalid\n    tag_313:\n      0x20\n      mul\n      0x20\n      add\n      add\n        /* \"contracts/StablePoolFactory.sol\":43663:43729  balances[tokenIndexIn] = balances[tokenIndexIn].add(tokenAmountIn) */\n      dup2\n      dup2\n      mstore\n      pop\n      pop\n        /* \"contracts/StablePoolFactory.sol\":43742:43765  uint256 finalBalanceOut */\n      0x00\n        /* \"contracts/StablePoolFactory.sol\":43768:43940  _getTokenBalanceGivenInvariantAndAllOtherBalances(\r... */\n      tag_314\n        /* \"contracts/StablePoolFactory.sol\":43832:43854  amplificationParameter */\n      dup9\n        /* \"contracts/StablePoolFactory.sol\":43869:43877  balances */\n      dup9\n        /* \"contracts/StablePoolFactory.sol\":43892:43901  invariant */\n      dup5\n        /* \"contracts/StablePoolFactory.sol\":43916:43929  tokenIndexOut */\n      dup9\n        /* \"contracts/StablePoolFactory.sol\":43768:43817  _getTokenBalanceGivenInvariantAndAllOtherBalances */\n      tag_161\n        /* \"contracts/StablePoolFactory.sol\":43768:43940  _getTokenBalanceGivenInvariantAndAllOtherBalances(\r... */\n      jump\t// in\n    tag_314:\n        /* \"contracts/StablePoolFactory.sol\":43742:43940  uint256 finalBalanceOut = _getTokenBalanceGivenInvariantAndAllOtherBalances(\r... */\n      swap1\n      pop\n        /* \"contracts/StablePoolFactory.sol\":44235:44248  tokenAmountIn */\n      dup4\n        /* \"contracts/StablePoolFactory.sol\":44210:44218  balances */\n      dup8\n        /* \"contracts/StablePoolFactory.sol\":44219:44231  tokenIndexIn */\n      dup8\n        /* \"contracts/StablePoolFactory.sol\":44210:44232  balances[tokenIndexIn] */\n      dup2\n      mload\n      dup2\n      lt\n      tag_315\n      jumpi\n      invalid\n    tag_315:\n      0x20\n      mul\n      0x20\n      add\n      add\n      mload\n        /* \"contracts/StablePoolFactory.sol\":44210:44248  balances[tokenIndexIn] - tokenAmountIn */\n      sub\n        /* \"contracts/StablePoolFactory.sol\":44185:44193  balances */\n      dup8\n        /* \"contracts/StablePoolFactory.sol\":44194:44206  tokenIndexIn */\n      dup8\n        /* \"contracts/StablePoolFactory.sol\":44185:44207  balances[tokenIndexIn] */\n      dup2\n      mload\n      dup2\n      lt\n      tag_316\n      jumpi\n      invalid\n    tag_316:\n      0x20\n      mul\n      0x20\n      add\n      add\n        /* \"contracts/StablePoolFactory.sol\":44185:44248  balances[tokenIndexIn] = balances[tokenIndexIn] - tokenAmountIn */\n      dup2\n      dup2\n      mstore\n      pop\n      pop\n        /* \"contracts/StablePoolFactory.sol\":44268:44319  balances[tokenIndexOut].sub(finalBalanceOut).sub(1) */\n      tag_233\n        /* \"contracts/StablePoolFactory.sol\":44317:44318  1 */\n      0x01\n        /* \"contracts/StablePoolFactory.sol\":44268:44312  balances[tokenIndexOut].sub(finalBalanceOut) */\n      tag_318\n        /* \"contracts/StablePoolFactory.sol\":44296:44311  finalBalanceOut */\n      dup4\n        /* \"contracts/StablePoolFactory.sol\":44268:44276  balances */\n      dup11\n        /* \"contracts/StablePoolFactory.sol\":44277:44290  tokenIndexOut */\n      dup10\n        /* \"contracts/StablePoolFactory.sol\":44268:44291  balances[tokenIndexOut] */\n      dup2\n      mload\n      dup2\n      lt\n      tag_211\n      jumpi\n      invalid\n        /* \"contracts/StablePoolFactory.sol\":44268:44312  balances[tokenIndexOut].sub(finalBalanceOut) */\n    tag_318:\n        /* \"contracts/StablePoolFactory.sol\":44268:44316  balances[tokenIndexOut].sub(finalBalanceOut).sub */\n      swap1\n      tag_164\n        /* \"contracts/StablePoolFactory.sol\":44268:44319  balances[tokenIndexOut].sub(finalBalanceOut).sub(1) */\n      jump\t// in\n        /* \"contracts/StablePoolFactory.sol\":35153:35519  function divDown(uint256 a, uint256 b) internal pure returns (uint256) {\r... */\n    tag_105:\n        /* \"contracts/StablePoolFactory.sol\":35215:35222  uint256 */\n      0x00\n        /* \"contracts/StablePoolFactory.sol\":35235:35273  _require(b != 0, Errors.ZERO_DIVISION) */\n      tag_321\n        /* \"contracts/StablePoolFactory.sol\":35244:35250  b != 0 */\n      dup3\n      iszero\n      iszero\n        /* \"contracts/StablePoolFactory.sol\":3906:3907  4 */\n      0x04\n        /* \"contracts/StablePoolFactory.sol\":35235:35243  _require */\n      tag_322\n        /* \"contracts/StablePoolFactory.sol\":35235:35273  _require(b != 0, Errors.ZERO_DIVISION) */\n      jump\t// in\n    tag_321:\n        /* \"contracts/StablePoolFactory.sol\":35290:35296  a == 0 */\n      dup3\n        /* \"contracts/StablePoolFactory.sol\":35286:35512  if (a == 0) {\r... */\n      tag_323\n      jumpi\n      pop\n        /* \"contracts/StablePoolFactory.sol\":35320:35321  0 */\n      0x00\n        /* \"contracts/StablePoolFactory.sol\":35313:35321  return 0 */\n      jump(tag_324)\n        /* \"contracts/StablePoolFactory.sol\":35286:35512  if (a == 0) {\r... */\n    tag_323:\n        /* \"contracts/StablePoolFactory.sol\":33515:33519  1e18 */\n      0x0de0b6b3a7640000\n        /* \"contracts/StablePoolFactory.sol\":35374:35381  a * ONE */\n      dup4\n      dup2\n      mul\n      swap1\n        /* \"contracts/StablePoolFactory.sol\":35396:35447  _require(aInflated / a == ONE, Errors.DIV_INTERNAL) */\n      tag_325\n      swap1\n        /* \"contracts/StablePoolFactory.sol\":35374:35375  a */\n      dup6\n        /* \"contracts/StablePoolFactory.sol\":35374:35381  a * ONE */\n      dup4\n        /* \"contracts/StablePoolFactory.sol\":35374:35375  a */\n      dup2\n        /* \"contracts/StablePoolFactory.sol\":35405:35418  aInflated / a */\n      tag_326\n      jumpi\n      invalid\n    tag_326:\n      div\n        /* \"contracts/StablePoolFactory.sol\":35405:35425  aInflated / a == ONE */\n      eq\n        /* \"contracts/StablePoolFactory.sol\":3955:3956  5 */\n      0x05\n        /* \"contracts/StablePoolFactory.sol\":35396:35404  _require */\n      tag_322\n        /* \"contracts/StablePoolFactory.sol\":35396:35447  _require(aInflated / a == ONE, Errors.DIV_INTERNAL) */\n      jump\t// in\n    tag_325:\n        /* \"contracts/StablePoolFactory.sol\":35499:35500  b */\n      dup3\n        /* \"contracts/StablePoolFactory.sol\":35487:35496  aInflated */\n      dup2\n        /* \"contracts/StablePoolFactory.sol\":35487:35500  aInflated / b */\n      dup2\n      tag_327\n      jumpi\n      invalid\n    tag_327:\n      div\n        /* \"contracts/StablePoolFactory.sol\":35480:35500  return aInflated / b */\n      swap2\n      pop\n      pop\n        /* \"contracts/StablePoolFactory.sol\":35286:35512  if (a == 0) {\r... */\n    tag_324:\n        /* \"contracts/StablePoolFactory.sol\":35153:35519  function divDown(uint256 a, uint256 b) internal pure returns (uint256) {\r... */\n      swap3\n      swap2\n      pop\n      pop\n      jump\t// out\n        /* \"contracts/StablePoolFactory.sol\":34291:34505  function mulDown(uint256 a, uint256 b) internal pure returns (uint256) {\r... */\n    tag_113:\n        /* \"contracts/StablePoolFactory.sol\":34353:34360  uint256 */\n      0x00\n        /* \"contracts/StablePoolFactory.sol\":34391:34396  a * b */\n      dup3\n      dup3\n      mul\n        /* \"contracts/StablePoolFactory.sol\":34407:34464  _require(a == 0 || product / a == b, Errors.MUL_OVERFLOW) */\n      tag_329\n        /* \"contracts/StablePoolFactory.sol\":34416:34422  a == 0 */\n      dup5\n      iszero\n      dup1\n        /* \"contracts/StablePoolFactory.sol\":34416:34442  a == 0 || product / a == b */\n      tag_330\n      jumpi\n      pop\n        /* \"contracts/StablePoolFactory.sol\":34441:34442  b */\n      dup4\n        /* \"contracts/StablePoolFactory.sol\":34436:34437  a */\n      dup6\n        /* \"contracts/StablePoolFactory.sol\":34426:34433  product */\n      dup4\n        /* \"contracts/StablePoolFactory.sol\":34426:34437  product / a */\n      dup2\n      tag_331\n      jumpi\n      invalid\n    tag_331:\n      div\n        /* \"contracts/StablePoolFactory.sol\":34426:34442  product / a == b */\n      eq\n        /* \"contracts/StablePoolFactory.sol\":34416:34442  a == 0 || product / a == b */\n    tag_330:\n        /* \"contracts/StablePoolFactory.sol\":3856:3857  3 */\n      0x03\n        /* \"contracts/StablePoolFactory.sol\":34407:34415  _require */\n      tag_322\n        /* \"contracts/StablePoolFactory.sol\":34407:34464  _require(a == 0 || product / a == b, Errors.MUL_OVERFLOW) */\n      jump\t// in\n    tag_329:\n        /* \"contracts/StablePoolFactory.sol\":33515:33519  1e18 */\n      0x0de0b6b3a7640000\n        /* \"contracts/StablePoolFactory.sol\":34484:34497  product / ONE */\n      swap1\n      div\n      swap4\n      swap3\n      pop\n      pop\n      pop\n        /* \"contracts/StablePoolFactory.sol\":34291:34505  function mulDown(uint256 a, uint256 b) internal pure returns (uint256) {\r... */\n      jump\t// out\n        /* \"contracts/StablePoolFactory.sol\":33785:34030  function add(uint256 a, uint256 b) internal pure returns (uint256) {\r... */\n    tag_121:\n        /* \"contracts/StablePoolFactory.sol\":33843:33850  uint256 */\n      0x00\n        /* \"contracts/StablePoolFactory.sol\":33950:33955  a + b */\n      dup3\n      dup3\n      add\n        /* \"contracts/StablePoolFactory.sol\":33966:34003  _require(c >= a, Errors.ADD_OVERFLOW) */\n      tag_76\n        /* \"contracts/StablePoolFactory.sol\":33975:33981  c >= a */\n      dup5\n      dup3\n      lt\n      iszero\n        /* \"contracts/StablePoolFactory.sol\":33843:33850  uint256 */\n      dup4\n        /* \"contracts/StablePoolFactory.sol\":33966:33974  _require */\n      tag_322\n        /* \"contracts/StablePoolFactory.sol\":33966:34003  _require(c >= a, Errors.ADD_OVERFLOW) */\n      jump\t// in\n        /* \"contracts/StablePoolFactory.sol\":32646:32830  function mul(uint256 a, uint256 b) internal pure returns (uint256) {\r... */\n    tag_134:\n        /* \"contracts/StablePoolFactory.sol\":32704:32711  uint256 */\n      0x00\n        /* \"contracts/StablePoolFactory.sol\":32736:32741  a * b */\n      dup3\n      dup3\n      mul\n        /* \"contracts/StablePoolFactory.sol\":32752:32803  _require(a == 0 || c / a == b, Errors.MUL_OVERFLOW) */\n      tag_76\n        /* \"contracts/StablePoolFactory.sol\":32761:32767  a == 0 */\n      dup5\n      iszero\n      dup1\n        /* \"contracts/StablePoolFactory.sol\":32761:32781  a == 0 || c / a == b */\n      tag_330\n      jumpi\n      pop\n        /* \"contracts/StablePoolFactory.sol\":32780:32781  b */\n      dup4\n        /* \"contracts/StablePoolFactory.sol\":32775:32776  a */\n      dup6\n        /* \"contracts/StablePoolFactory.sol\":32771:32772  c */\n      dup4\n        /* \"contracts/StablePoolFactory.sol\":32771:32776  c / a */\n      dup2\n      tag_331\n      jumpi\n      invalid\n        /* \"contracts/StablePoolFactory.sol\":32838:33016  function div(\r... */\n    tag_135:\n        /* \"contracts/StablePoolFactory.sol\":32944:32951  uint256 */\n      0x00\n        /* \"contracts/StablePoolFactory.sol\":32971:32978  roundUp */\n      dup2\n        /* \"contracts/StablePoolFactory.sol\":32971:33008  roundUp ? divUp(a, b) : divDown(a, b) */\n      tag_340\n      jumpi\n        /* \"contracts/StablePoolFactory.sol\":32995:33008  divDown(a, b) */\n      tag_341\n        /* \"contracts/StablePoolFactory.sol\":33003:33004  a */\n      dup5\n        /* \"contracts/StablePoolFactory.sol\":33006:33007  b */\n      dup5\n        /* \"contracts/StablePoolFactory.sol\":32995:33002  divDown */\n      tag_342\n        /* \"contracts/StablePoolFactory.sol\":32995:33008  divDown(a, b) */\n      jump\t// in\n    tag_341:\n        /* \"contracts/StablePoolFactory.sol\":32971:33008  roundUp ? divUp(a, b) : divDown(a, b) */\n      jump(tag_77)\n    tag_340:\n        /* \"contracts/StablePoolFactory.sol\":32981:32992  divUp(a, b) */\n      tag_77\n        /* \"contracts/StablePoolFactory.sol\":32987:32988  a */\n      dup5\n        /* \"contracts/StablePoolFactory.sol\":32990:32991  b */\n      dup5\n        /* \"contracts/StablePoolFactory.sol\":32981:32986  divUp */\n      tag_345\n        /* \"contracts/StablePoolFactory.sol\":32981:32992  divUp(a, b) */\n      jump\t// in\n        /* \"contracts/StablePoolFactory.sol\":405:3628  function _revert(uint256 errorCode) pure {\r... */\n    tag_152:\n      shl(0xe5, 0x461bcd)\n        /* \"contracts/StablePoolFactory.sol\":2958:2961  0x0 */\n      0x00\n        /* \"contracts/StablePoolFactory.sol\":2951:3030  mstore(0x0, 0x08c379a000000000000000000000000000000000000000000000000000000000) */\n      swap1\n      dup2\n      mstore\n        /* \"contracts/StablePoolFactory.sol\":3171:3237  0x0000000000000000000000000000000000000000000000000000000000000020 */\n      0x20\n        /* \"contracts/StablePoolFactory.sol\":3165:3169  0x04 */\n      0x04\n        /* \"contracts/StablePoolFactory.sol\":3158:3238  mstore(0x04, 0x0000000000000000000000000000000000000000000000000000000000000020) */\n      mstore\n        /* \"contracts/StablePoolFactory.sol\":3315:3316  7 */\n      0x07\n        /* \"contracts/StablePoolFactory.sol\":3309:3313  0x24 */\n      0x24\n        /* \"contracts/StablePoolFactory.sol\":3302:3317  mstore(0x24, 7) */\n      mstore\n        /* \"contracts/StablePoolFactory.sol\":2361:2434  add(0x42414c23000000, add(add(units, shl(8, tenths)), shl(16, hundreds))) */\n      0x42414c23000030\n        /* \"contracts/StablePoolFactory.sol\":1557:1559  10 */\n      0x0a\n        /* \"contracts/StablePoolFactory.sol\":1592:1610  div(errorCode, 10) */\n      dup1\n      dup5\n      div\n        /* \"contracts/StablePoolFactory.sol\":1638:1656  mod(errorCode, 10) */\n      dup2\n      dup2\n      mod\n        /* \"contracts/StablePoolFactory.sol\":1562:1566  0x30 */\n      0x30\n        /* \"contracts/StablePoolFactory.sol\":1634:1663  add(mod(errorCode, 10), 0x30) */\n      swap1\n      dup2\n      add\n        /* \"contracts/StablePoolFactory.sol\":2402:2403  8 */\n      0x08\n        /* \"contracts/StablePoolFactory.sol\":2398:2412  shl(8, tenths) */\n      shl\n        /* \"contracts/StablePoolFactory.sol\":1542:1560  mod(errorCode, 10) */\n      swap6\n      dup4\n      swap1\n      mod\n        /* \"contracts/StablePoolFactory.sol\":2387:2413  add(units, shl(8, tenths)) */\n      swap6\n      swap1\n      swap6\n      add\n        /* \"contracts/StablePoolFactory.sol\":1688:1706  div(errorCode, 10) */\n      swap1\n      dup3\n      swap1\n      div\n        /* \"contracts/StablePoolFactory.sol\":1736:1754  mod(errorCode, 10) */\n      swap2\n      dup3\n      mod\n        /* \"contracts/StablePoolFactory.sol\":1732:1761  add(mod(errorCode, 10), 0x30) */\n      swap1\n      swap5\n      add\n        /* \"contracts/StablePoolFactory.sol\":2419:2421  16 */\n      0x10\n        /* \"contracts/StablePoolFactory.sol\":2415:2432  shl(16, hundreds) */\n      shl\n        /* \"contracts/StablePoolFactory.sol\":2383:2433  add(add(units, shl(8, tenths)), shl(16, hundreds)) */\n      swap4\n      swap1\n      swap4\n      add\n        /* \"contracts/StablePoolFactory.sol\":2361:2434  add(0x42414c23000000, add(add(units, shl(8, tenths)), shl(16, hundreds))) */\n      add\n        /* \"contracts/StablePoolFactory.sol\":2356:2359  200 */\n      0xc8\n        /* \"contracts/StablePoolFactory.sol\":2352:2435  shl(200, add(0x42414c23000000, add(add(units, shl(8, tenths)), shl(16, hundreds)))) */\n      shl\n        /* \"contracts/StablePoolFactory.sol\":3384:3388  0x44 */\n      0x44\n        /* \"contracts/StablePoolFactory.sol\":3377:3403  mstore(0x44, revertReason) */\n      mstore\n        /* \"contracts/StablePoolFactory.sol\":3614:3617  100 */\n      0x64\n      swap1\n        /* \"contracts/StablePoolFactory.sol\":3604:3618  revert(0, 100) */\n      revert\n        /* \"contracts/StablePoolFactory.sol\":35527:36226  function divUp(uint256 a, uint256 b) internal pure returns (uint256) {\r... */\n    tag_158:\n        /* \"contracts/StablePoolFactory.sol\":35587:35594  uint256 */\n      0x00\n        /* \"contracts/StablePoolFactory.sol\":35607:35645  _require(b != 0, Errors.ZERO_DIVISION) */\n      tag_348\n        /* \"contracts/StablePoolFactory.sol\":35616:35622  b != 0 */\n      dup3\n      iszero\n      iszero\n        /* \"contracts/StablePoolFactory.sol\":3906:3907  4 */\n      0x04\n        /* \"contracts/StablePoolFactory.sol\":35607:35615  _require */\n      tag_322\n        /* \"contracts/StablePoolFactory.sol\":35607:35645  _require(b != 0, Errors.ZERO_DIVISION) */\n      jump\t// in\n    tag_348:\n        /* \"contracts/StablePoolFactory.sol\":35662:35668  a == 0 */\n      dup3\n        /* \"contracts/StablePoolFactory.sol\":35658:36219  if (a == 0) {\r... */\n      tag_349\n      jumpi\n      pop\n        /* \"contracts/StablePoolFactory.sol\":35692:35693  0 */\n      0x00\n        /* \"contracts/StablePoolFactory.sol\":35685:35693  return 0 */\n      jump(tag_324)\n        /* \"contracts/StablePoolFactory.sol\":35658:36219  if (a == 0) {\r... */\n    tag_349:\n        /* \"contracts/StablePoolFactory.sol\":33515:33519  1e18 */\n      0x0de0b6b3a7640000\n        /* \"contracts/StablePoolFactory.sol\":35746:35753  a * ONE */\n      dup4\n      dup2\n      mul\n      swap1\n        /* \"contracts/StablePoolFactory.sol\":35768:35819  _require(aInflated / a == ONE, Errors.DIV_INTERNAL) */\n      tag_351\n      swap1\n        /* \"contracts/StablePoolFactory.sol\":35746:35747  a */\n      dup6\n        /* \"contracts/StablePoolFactory.sol\":35746:35753  a * ONE */\n      dup4\n        /* \"contracts/StablePoolFactory.sol\":35746:35747  a */\n      dup2\n        /* \"contracts/StablePoolFactory.sol\":35777:35790  aInflated / a */\n      tag_326\n      jumpi\n      invalid\n        /* \"contracts/StablePoolFactory.sol\":35768:35819  _require(aInflated / a == ONE, Errors.DIV_INTERNAL) */\n    tag_351:\n        /* \"contracts/StablePoolFactory.sol\":36201:36202  b */\n      dup3\n        /* \"contracts/StablePoolFactory.sol\":36196:36197  1 */\n      0x01\n        /* \"contracts/StablePoolFactory.sol\":36184:36193  aInflated */\n      dup3\n        /* \"contracts/StablePoolFactory.sol\":36184:36197  aInflated - 1 */\n      sub\n        /* \"contracts/StablePoolFactory.sol\":36183:36202  (aInflated - 1) / b */\n      dup2\n      tag_353\n      jumpi\n      invalid\n    tag_353:\n      div\n        /* \"contracts/StablePoolFactory.sol\":36206:36207  1 */\n      0x01\n        /* \"contracts/StablePoolFactory.sol\":36182:36207  ((aInflated - 1) / b) + 1 */\n      add\n        /* \"contracts/StablePoolFactory.sol\":36175:36207  return ((aInflated - 1) / b) + 1 */\n      swap2\n      pop\n      pop\n      jump(tag_324)\n        /* \"contracts/StablePoolFactory.sol\":34513:35145  function mulUp(uint256 a, uint256 b) internal pure returns (uint256) {\r... */\n    tag_159:\n        /* \"contracts/StablePoolFactory.sol\":34573:34580  uint256 */\n      0x00\n        /* \"contracts/StablePoolFactory.sol\":34611:34616  a * b */\n      dup3\n      dup3\n      mul\n        /* \"contracts/StablePoolFactory.sol\":34627:34684  _require(a == 0 || product / a == b, Errors.MUL_OVERFLOW) */\n      tag_355\n        /* \"contracts/StablePoolFactory.sol\":34636:34642  a == 0 */\n      dup5\n      iszero\n      dup1\n        /* \"contracts/StablePoolFactory.sol\":34636:34662  a == 0 || product / a == b */\n      tag_330\n      jumpi\n      pop\n        /* \"contracts/StablePoolFactory.sol\":34661:34662  b */\n      dup4\n        /* \"contracts/StablePoolFactory.sol\":34656:34657  a */\n      dup6\n        /* \"contracts/StablePoolFactory.sol\":34646:34653  product */\n      dup4\n        /* \"contracts/StablePoolFactory.sol\":34646:34657  product / a */\n      dup2\n      tag_331\n      jumpi\n      invalid\n        /* \"contracts/StablePoolFactory.sol\":34627:34684  _require(a == 0 || product / a == b, Errors.MUL_OVERFLOW) */\n    tag_355:\n        /* \"contracts/StablePoolFactory.sol\":34701:34713  product == 0 */\n      dup1\n        /* \"contracts/StablePoolFactory.sol\":34697:35138  if (product == 0) {\r... */\n      tag_358\n      jumpi\n        /* \"contracts/StablePoolFactory.sol\":34737:34738  0 */\n      0x00\n        /* \"contracts/StablePoolFactory.sol\":34730:34738  return 0 */\n      swap2\n      pop\n      pop\n      jump(tag_324)\n        /* \"contracts/StablePoolFactory.sol\":34697:35138  if (product == 0) {\r... */\n    tag_358:\n        /* \"contracts/StablePoolFactory.sol\":33515:33519  1e18 */\n      0x0de0b6b3a7640000\n      not(0x00)\n        /* \"contracts/StablePoolFactory.sol\":35103:35114  product - 1 */\n      dup3\n      add\n        /* \"contracts/StablePoolFactory.sol\":35102:35121  (product - 1) / ONE */\n      jump(tag_353)\n        /* \"contracts/StablePoolFactory.sol\":60917:63051  function _getTokenBalanceGivenInvariantAndAllOtherBalances(\r... */\n    tag_161:\n        /* \"contracts/StablePoolFactory.sol\":61140:61147  uint256 */\n      0x00\n        /* \"contracts/StablePoolFactory.sol\":61199:61220  uint256 ampTimesTotal */\n      dup1\n        /* \"contracts/StablePoolFactory.sol\":61248:61256  balances */\n      dup5\n        /* \"contracts/StablePoolFactory.sol\":61248:61263  balances.length */\n      mload\n        /* \"contracts/StablePoolFactory.sol\":61223:61245  amplificationParameter */\n      dup7\n        /* \"contracts/StablePoolFactory.sol\":61223:61263  amplificationParameter * balances.length */\n      mul\n        /* \"contracts/StablePoolFactory.sol\":61199:61263  uint256 ampTimesTotal = amplificationParameter * balances.length */\n      swap1\n      pop\n        /* \"contracts/StablePoolFactory.sol\":61274:61285  uint256 sum */\n      0x00\n        /* \"contracts/StablePoolFactory.sol\":61288:61296  balances */\n      dup6\n        /* \"contracts/StablePoolFactory.sol\":61297:61298  0 */\n      0x00\n        /* \"contracts/StablePoolFactory.sol\":61288:61299  balances[0] */\n      dup2\n      mload\n      dup2\n      lt\n      tag_362\n      jumpi\n      invalid\n    tag_362:\n      0x20\n      mul\n      0x20\n      add\n      add\n      mload\n        /* \"contracts/StablePoolFactory.sol\":61274:61299  uint256 sum = balances[0] */\n      swap1\n      pop\n        /* \"contracts/StablePoolFactory.sol\":61310:61321  uint256 P_D */\n      0x00\n        /* \"contracts/StablePoolFactory.sol\":61338:61346  balances */\n      dup7\n        /* \"contracts/StablePoolFactory.sol\":61338:61353  balances.length */\n      mload\n        /* \"contracts/StablePoolFactory.sol\":61324:61332  balances */\n      dup8\n        /* \"contracts/StablePoolFactory.sol\":61333:61334  0 */\n      0x00\n        /* \"contracts/StablePoolFactory.sol\":61324:61335  balances[0] */\n      dup2\n      mload\n      dup2\n      lt\n      tag_363\n      jumpi\n      invalid\n    tag_363:\n      0x20\n      mul\n      0x20\n      add\n      add\n      mload\n        /* \"contracts/StablePoolFactory.sol\":61324:61353  balances[0] * balances.length */\n      mul\n        /* \"contracts/StablePoolFactory.sol\":61310:61353  uint256 P_D = balances[0] * balances.length */\n      swap1\n      pop\n        /* \"contracts/StablePoolFactory.sol\":61369:61378  uint256 j */\n      0x00\n        /* \"contracts/StablePoolFactory.sol\":61381:61382  1 */\n      0x01\n        /* \"contracts/StablePoolFactory.sol\":61369:61382  uint256 j = 1 */\n      swap1\n      pop\n        /* \"contracts/StablePoolFactory.sol\":61364:61562  for (uint256 j = 1; j < balances.length; j++) {\r... */\n    tag_364:\n        /* \"contracts/StablePoolFactory.sol\":61388:61396  balances */\n      dup8\n        /* \"contracts/StablePoolFactory.sol\":61388:61403  balances.length */\n      mload\n        /* \"contracts/StablePoolFactory.sol\":61384:61385  j */\n      dup2\n        /* \"contracts/StablePoolFactory.sol\":61384:61403  j < balances.length */\n      lt\n        /* \"contracts/StablePoolFactory.sol\":61364:61562  for (uint256 j = 1; j < balances.length; j++) {\r... */\n      iszero\n      tag_365\n      jumpi\n        /* \"contracts/StablePoolFactory.sol\":61431:61509  Math.divDown(Math.mul(Math.mul(P_D, balances[j]), balances.length), invariant) */\n      tag_367\n        /* \"contracts/StablePoolFactory.sol\":61444:61497  Math.mul(Math.mul(P_D, balances[j]), balances.length) */\n      tag_368\n        /* \"contracts/StablePoolFactory.sol\":61453:61479  Math.mul(P_D, balances[j]) */\n      tag_369\n        /* \"contracts/StablePoolFactory.sol\":61462:61465  P_D */\n      dup5\n        /* \"contracts/StablePoolFactory.sol\":61467:61475  balances */\n      dup12\n        /* \"contracts/StablePoolFactory.sol\":61476:61477  j */\n      dup6\n        /* \"contracts/StablePoolFactory.sol\":61467:61478  balances[j] */\n      dup2\n      mload\n      dup2\n      lt\n      tag_133\n      jumpi\n      invalid\n        /* \"contracts/StablePoolFactory.sol\":61453:61479  Math.mul(P_D, balances[j]) */\n    tag_369:\n        /* \"contracts/StablePoolFactory.sol\":61481:61489  balances */\n      dup11\n        /* \"contracts/StablePoolFactory.sol\":61481:61496  balances.length */\n      mload\n        /* \"contracts/StablePoolFactory.sol\":61444:61452  Math.mul */\n      tag_134\n        /* \"contracts/StablePoolFactory.sol\":61444:61497  Math.mul(Math.mul(P_D, balances[j]), balances.length) */\n      jump\t// in\n    tag_368:\n        /* \"contracts/StablePoolFactory.sol\":61499:61508  invariant */\n      dup9\n        /* \"contracts/StablePoolFactory.sol\":61431:61443  Math.divDown */\n      tag_342\n        /* \"contracts/StablePoolFactory.sol\":61431:61509  Math.divDown(Math.mul(Math.mul(P_D, balances[j]), balances.length), invariant) */\n      jump\t// in\n    tag_367:\n        /* \"contracts/StablePoolFactory.sol\":61425:61509  P_D = Math.divDown(Math.mul(Math.mul(P_D, balances[j]), balances.length), invariant) */\n      swap2\n      pop\n        /* \"contracts/StablePoolFactory.sol\":61530:61550  sum.add(balances[j]) */\n      tag_371\n        /* \"contracts/StablePoolFactory.sol\":61538:61546  balances */\n      dup9\n        /* \"contracts/StablePoolFactory.sol\":61547:61548  j */\n      dup3\n        /* \"contracts/StablePoolFactory.sol\":61538:61549  balances[j] */\n      dup2\n      mload\n      dup2\n      lt\n      tag_120\n      jumpi\n      invalid\n        /* \"contracts/StablePoolFactory.sol\":61530:61550  sum.add(balances[j]) */\n    tag_371:\n        /* \"contracts/StablePoolFactory.sol\":61524:61550  sum = sum.add(balances[j]) */\n      swap3\n      pop\n        /* \"contracts/StablePoolFactory.sol\":61405:61408  j++ */\n      0x01\n      add\n        /* \"contracts/StablePoolFactory.sol\":61364:61562  for (uint256 j = 1; j < balances.length; j++) {\r... */\n      jump(tag_364)\n    tag_365:\n      pop\n        /* \"contracts/StablePoolFactory.sol\":61703:61711  balances */\n      dup7\n        /* \"contracts/StablePoolFactory.sol\":61712:61722  tokenIndex */\n      dup6\n        /* \"contracts/StablePoolFactory.sol\":61703:61723  balances[tokenIndex] */\n      dup2\n      mload\n      dup2\n      lt\n      tag_373\n      jumpi\n      invalid\n    tag_373:\n      0x20\n      mul\n      0x20\n      add\n      add\n      mload\n        /* \"contracts/StablePoolFactory.sol\":61697:61700  sum */\n      dup3\n        /* \"contracts/StablePoolFactory.sol\":61697:61723  sum - balances[tokenIndex] */\n      sub\n        /* \"contracts/StablePoolFactory.sol\":61691:61723  sum = sum - balances[tokenIndex] */\n      swap2\n      pop\n        /* \"contracts/StablePoolFactory.sol\":61736:61748  uint256 inv2 */\n      0x00\n        /* \"contracts/StablePoolFactory.sol\":61751:61781  Math.mul(invariant, invariant) */\n      tag_374\n        /* \"contracts/StablePoolFactory.sol\":61760:61769  invariant */\n      dup8\n        /* \"contracts/StablePoolFactory.sol\":61771:61780  invariant */\n      dup9\n        /* \"contracts/StablePoolFactory.sol\":61751:61759  Math.mul */\n      tag_134\n        /* \"contracts/StablePoolFactory.sol\":61751:61781  Math.mul(invariant, invariant) */\n      jump\t// in\n    tag_374:\n        /* \"contracts/StablePoolFactory.sol\":61736:61781  uint256 inv2 = Math.mul(invariant, invariant) */\n      swap1\n      pop\n        /* \"contracts/StablePoolFactory.sol\":61852:61861  uint256 c */\n      0x00\n        /* \"contracts/StablePoolFactory.sol\":61864:62005  Math.mul(\r... */\n      tag_375\n        /* \"contracts/StablePoolFactory.sol\":61887:61959  Math.mul(Math.divUp(inv2, Math.mul(ampTimesTotal, P_D)), _AMP_PRECISION) */\n      tag_376\n        /* \"contracts/StablePoolFactory.sol\":61896:61942  Math.divUp(inv2, Math.mul(ampTimesTotal, P_D)) */\n      tag_377\n        /* \"contracts/StablePoolFactory.sol\":61907:61911  inv2 */\n      dup5\n        /* \"contracts/StablePoolFactory.sol\":61913:61941  Math.mul(ampTimesTotal, P_D) */\n      tag_378\n        /* \"contracts/StablePoolFactory.sol\":61922:61935  ampTimesTotal */\n      dup10\n        /* \"contracts/StablePoolFactory.sol\":61937:61940  P_D */\n      dup9\n        /* \"contracts/StablePoolFactory.sol\":61913:61921  Math.mul */\n      tag_134\n        /* \"contracts/StablePoolFactory.sol\":61913:61941  Math.mul(ampTimesTotal, P_D) */\n      jump\t// in\n    tag_378:\n        /* \"contracts/StablePoolFactory.sol\":61896:61906  Math.divUp */\n      tag_345\n        /* \"contracts/StablePoolFactory.sol\":61896:61942  Math.divUp(inv2, Math.mul(ampTimesTotal, P_D)) */\n      jump\t// in\n    tag_377:\n        /* \"contracts/StablePoolFactory.sol\":37892:37895  1e3 */\n      0x03e8\n        /* \"contracts/StablePoolFactory.sol\":61887:61895  Math.mul */\n      tag_134\n        /* \"contracts/StablePoolFactory.sol\":61887:61959  Math.mul(Math.divUp(inv2, Math.mul(ampTimesTotal, P_D)), _AMP_PRECISION) */\n      jump\t// in\n    tag_376:\n        /* \"contracts/StablePoolFactory.sol\":61974:61982  balances */\n      dup11\n        /* \"contracts/StablePoolFactory.sol\":61983:61993  tokenIndex */\n      dup10\n        /* \"contracts/StablePoolFactory.sol\":61974:61994  balances[tokenIndex] */\n      dup2\n      mload\n      dup2\n      lt\n      tag_133\n      jumpi\n      invalid\n        /* \"contracts/StablePoolFactory.sol\":61864:62005  Math.mul(\r... */\n    tag_375:\n        /* \"contracts/StablePoolFactory.sol\":61852:62005  uint256 c = Math.mul(\r... */\n      swap1\n      pop\n        /* \"contracts/StablePoolFactory.sol\":62016:62025  uint256 b */\n      0x00\n        /* \"contracts/StablePoolFactory.sol\":62028:62101  sum.add(Math.mul(Math.divDown(invariant, ampTimesTotal), _AMP_PRECISION)) */\n      tag_380\n        /* \"contracts/StablePoolFactory.sol\":62036:62100  Math.mul(Math.divDown(invariant, ampTimesTotal), _AMP_PRECISION) */\n      tag_381\n        /* \"contracts/StablePoolFactory.sol\":62045:62083  Math.divDown(invariant, ampTimesTotal) */\n      tag_377\n        /* \"contracts/StablePoolFactory.sol\":62058:62067  invariant */\n      dup12\n        /* \"contracts/StablePoolFactory.sol\":62069:62082  ampTimesTotal */\n      dup10\n        /* \"contracts/StablePoolFactory.sol\":62045:62057  Math.divDown */\n      tag_342\n        /* \"contracts/StablePoolFactory.sol\":62045:62083  Math.divDown(invariant, ampTimesTotal) */\n      jump\t// in\n        /* \"contracts/StablePoolFactory.sol\":62036:62100  Math.mul(Math.divDown(invariant, ampTimesTotal), _AMP_PRECISION) */\n    tag_381:\n        /* \"contracts/StablePoolFactory.sol\":62028:62031  sum */\n      dup7\n      swap1\n        /* \"contracts/StablePoolFactory.sol\":62028:62035  sum.add */\n      tag_121\n        /* \"contracts/StablePoolFactory.sol\":62028:62101  sum.add(Math.mul(Math.divDown(invariant, ampTimesTotal), _AMP_PRECISION)) */\n      jump\t// in\n    tag_380:\n        /* \"contracts/StablePoolFactory.sol\":62016:62101  uint256 b = sum.add(Math.mul(Math.divDown(invariant, ampTimesTotal), _AMP_PRECISION)) */\n      swap1\n      pop\n        /* \"contracts/StablePoolFactory.sol\":62157:62181  uint256 prevTokenBalance */\n      0x00\n      dup1\n        /* \"contracts/StablePoolFactory.sol\":62358:62399  Math.divUp(inv2.add(c), invariant.add(b)) */\n      tag_383\n        /* \"contracts/StablePoolFactory.sol\":62369:62380  inv2.add(c) */\n      tag_384\n        /* \"contracts/StablePoolFactory.sol\":62369:62373  inv2 */\n      dup7\n        /* \"contracts/StablePoolFactory.sol\":62378:62379  c */\n      dup7\n        /* \"contracts/StablePoolFactory.sol\":62369:62377  inv2.add */\n      tag_121\n        /* \"contracts/StablePoolFactory.sol\":62369:62380  inv2.add(c) */\n      jump\t// in\n    tag_384:\n        /* \"contracts/StablePoolFactory.sol\":62382:62398  invariant.add(b) */\n      tag_378\n        /* \"contracts/StablePoolFactory.sol\":62382:62391  invariant */\n      dup14\n        /* \"contracts/StablePoolFactory.sol\":62396:62397  b */\n      dup7\n        /* \"contracts/StablePoolFactory.sol\":62382:62395  invariant.add */\n      tag_121\n        /* \"contracts/StablePoolFactory.sol\":62382:62398  invariant.add(b) */\n      jump\t// in\n        /* \"contracts/StablePoolFactory.sol\":62358:62399  Math.divUp(inv2.add(c), invariant.add(b)) */\n    tag_383:\n        /* \"contracts/StablePoolFactory.sol\":62335:62399  uint256 tokenBalance = Math.divUp(inv2.add(c), invariant.add(b)) */\n      swap1\n      pop\n        /* \"contracts/StablePoolFactory.sol\":62417:62426  uint256 i */\n      0x00\n        /* \"contracts/StablePoolFactory.sol\":62412:62982  for (uint256 i = 0; i < 255; i++) {\r... */\n    tag_386:\n        /* \"contracts/StablePoolFactory.sol\":62436:62439  255 */\n      0xff\n        /* \"contracts/StablePoolFactory.sol\":62432:62433  i */\n      dup2\n        /* \"contracts/StablePoolFactory.sol\":62432:62439  i < 255 */\n      lt\n        /* \"contracts/StablePoolFactory.sol\":62412:62982  for (uint256 i = 0; i < 255; i++) {\r... */\n      iszero\n      tag_387\n      jumpi\n        /* \"contracts/StablePoolFactory.sol\":62480:62492  tokenBalance */\n      dup2\n        /* \"contracts/StablePoolFactory.sol\":62461:62492  prevTokenBalance = tokenBalance */\n      swap3\n      pop\n        /* \"contracts/StablePoolFactory.sol\":62524:62677  Math.divUp(\r... */\n      tag_389\n        /* \"contracts/StablePoolFactory.sol\":62553:62596  Math.mul(tokenBalance, tokenBalance).add(c) */\n      tag_390\n        /* \"contracts/StablePoolFactory.sol\":62594:62595  c */\n      dup7\n        /* \"contracts/StablePoolFactory.sol\":62553:62589  Math.mul(tokenBalance, tokenBalance) */\n      tag_141\n        /* \"contracts/StablePoolFactory.sol\":62562:62574  tokenBalance */\n      dup6\n        /* \"contracts/StablePoolFactory.sol\":62576:62588  tokenBalance */\n      dup7\n        /* \"contracts/StablePoolFactory.sol\":62553:62561  Math.mul */\n      tag_134\n        /* \"contracts/StablePoolFactory.sol\":62553:62589  Math.mul(tokenBalance, tokenBalance) */\n      jump\t// in\n        /* \"contracts/StablePoolFactory.sol\":62553:62596  Math.mul(tokenBalance, tokenBalance).add(c) */\n    tag_390:\n        /* \"contracts/StablePoolFactory.sol\":62615:62662  Math.mul(tokenBalance, 2).add(b).sub(invariant) */\n      tag_378\n        /* \"contracts/StablePoolFactory.sol\":62652:62661  invariant */\n      dup15\n        /* \"contracts/StablePoolFactory.sol\":62615:62647  Math.mul(tokenBalance, 2).add(b) */\n      tag_318\n        /* \"contracts/StablePoolFactory.sol\":62645:62646  b */\n      dup9\n        /* \"contracts/StablePoolFactory.sol\":62615:62640  Math.mul(tokenBalance, 2) */\n      tag_141\n        /* \"contracts/StablePoolFactory.sol\":62624:62636  tokenBalance */\n      dup9\n        /* \"contracts/StablePoolFactory.sol\":62638:62639  2 */\n      0x02\n        /* \"contracts/StablePoolFactory.sol\":62615:62623  Math.mul */\n      tag_134\n        /* \"contracts/StablePoolFactory.sol\":62615:62640  Math.mul(tokenBalance, 2) */\n      jump\t// in\n        /* \"contracts/StablePoolFactory.sol\":62524:62677  Math.divUp(\r... */\n    tag_389:\n        /* \"contracts/StablePoolFactory.sol\":62509:62677  tokenBalance = Math.divUp(\r... */\n      swap2\n      pop\n        /* \"contracts/StablePoolFactory.sol\":62713:62729  prevTokenBalance */\n      dup3\n        /* \"contracts/StablePoolFactory.sol\":62698:62710  tokenBalance */\n      dup3\n        /* \"contracts/StablePoolFactory.sol\":62698:62729  tokenBalance > prevTokenBalance */\n      gt\n        /* \"contracts/StablePoolFactory.sol\":62694:62971  if (tokenBalance > prevTokenBalance) {\r... */\n      iszero\n      tag_395\n      jumpi\n        /* \"contracts/StablePoolFactory.sol\":62789:62790  1 */\n      0x01\n        /* \"contracts/StablePoolFactory.sol\":62769:62785  prevTokenBalance */\n      dup4\n        /* \"contracts/StablePoolFactory.sol\":62754:62766  tokenBalance */\n      dup4\n        /* \"contracts/StablePoolFactory.sol\":62754:62785  tokenBalance - prevTokenBalance */\n      sub\n        /* \"contracts/StablePoolFactory.sol\":62754:62790  tokenBalance - prevTokenBalance <= 1 */\n      gt\n        /* \"contracts/StablePoolFactory.sol\":62750:62854  if (tokenBalance - prevTokenBalance <= 1) {\r... */\n      tag_396\n      jumpi\n      pop\n        /* \"contracts/StablePoolFactory.sol\":62822:62834  tokenBalance */\n      swap8\n      pop\n        /* \"contracts/StablePoolFactory.sol\":62815:62834  return tokenBalance */\n      tag_361\n      swap7\n      pop\n      pop\n      pop\n      pop\n      pop\n      pop\n      pop\n      jump\n        /* \"contracts/StablePoolFactory.sol\":62750:62854  if (tokenBalance - prevTokenBalance <= 1) {\r... */\n    tag_396:\n        /* \"contracts/StablePoolFactory.sol\":62694:62971  if (tokenBalance > prevTokenBalance) {\r... */\n      jump(tag_398)\n    tag_395:\n        /* \"contracts/StablePoolFactory.sol\":62914:62915  1 */\n      0x01\n        /* \"contracts/StablePoolFactory.sol\":62898:62910  tokenBalance */\n      dup3\n        /* \"contracts/StablePoolFactory.sol\":62879:62895  prevTokenBalance */\n      dup5\n        /* \"contracts/StablePoolFactory.sol\":62879:62910  prevTokenBalance - tokenBalance */\n      sub\n        /* \"contracts/StablePoolFactory.sol\":62879:62915  prevTokenBalance - tokenBalance <= 1 */\n      gt\n        /* \"contracts/StablePoolFactory.sol\":62875:62971  if (prevTokenBalance - tokenBalance <= 1) {\r... */\n      tag_398\n      jumpi\n      pop\n        /* \"contracts/StablePoolFactory.sol\":62943:62955  tokenBalance */\n      swap8\n      pop\n        /* \"contracts/StablePoolFactory.sol\":62936:62955  return tokenBalance */\n      tag_361\n      swap7\n      pop\n      pop\n      pop\n      pop\n      pop\n      pop\n      pop\n      jump\n        /* \"contracts/StablePoolFactory.sol\":62875:62971  if (prevTokenBalance - tokenBalance <= 1) {\r... */\n    tag_398:\n        /* \"contracts/StablePoolFactory.sol\":62441:62444  i++ */\n      0x01\n      add\n        /* \"contracts/StablePoolFactory.sol\":62412:62982  for (uint256 i = 0; i < 255; i++) {\r... */\n      jump(tag_386)\n    tag_387:\n      pop\n        /* \"contracts/StablePoolFactory.sol\":62994:63043  _revert(Errors.STABLE_GET_BALANCE_DIDNT_CONVERGE) */\n      tag_399\n        /* \"contracts/StablePoolFactory.sol\":6420:6423  322 */\n      0x0142\n        /* \"contracts/StablePoolFactory.sol\":62994:63001  _revert */\n      tag_152\n        /* \"contracts/StablePoolFactory.sol\":62994:63043  _revert(Errors.STABLE_GET_BALANCE_DIDNT_CONVERGE) */\n      jump\t// in\n    tag_399:\n        /* \"contracts/StablePoolFactory.sol\":60917:63051  function _getTokenBalanceGivenInvariantAndAllOtherBalances(\r... */\n      pop\n      pop\n      pop\n      pop\n      pop\n      pop\n      pop\n      pop\n    tag_361:\n      swap5\n      swap4\n      pop\n      pop\n      pop\n      pop\n      jump\t// out\n        /* \"contracts/StablePoolFactory.sol\":34038:34283  function sub(uint256 a, uint256 b) internal pure returns (uint256) {\r... */\n    tag_164:\n        /* \"contracts/StablePoolFactory.sol\":34096:34103  uint256 */\n      0x00\n        /* \"contracts/StablePoolFactory.sol\":34191:34228  _require(b <= a, Errors.SUB_OVERFLOW) */\n      tag_401\n        /* \"contracts/StablePoolFactory.sol\":34205:34206  a */\n      dup4\n        /* \"contracts/StablePoolFactory.sol\":34200:34201  b */\n      dup4\n        /* \"contracts/StablePoolFactory.sol\":34200:34206  b <= a */\n      gt\n      iszero\n        /* \"contracts/StablePoolFactory.sol\":3757:3758  1 */\n      0x01\n        /* \"contracts/StablePoolFactory.sol\":34191:34199  _require */\n      tag_322\n        /* \"contracts/StablePoolFactory.sol\":34191:34228  _require(b <= a, Errors.SUB_OVERFLOW) */\n      jump\t// in\n    tag_401:\n      pop\n        /* \"contracts/StablePoolFactory.sol\":34251:34256  a - b */\n      swap1\n      sub\n      swap1\n        /* \"contracts/StablePoolFactory.sol\":34038:34283  function sub(uint256 a, uint256 b) internal pure returns (uint256) {\r... */\n      jump\t// out\n        /* \"contracts/StablePoolFactory.sol\":37544:37658  function complement(uint256 x) internal pure returns (uint256) {\r... */\n    tag_173:\n        /* \"contracts/StablePoolFactory.sol\":37598:37605  uint256 */\n      0x00\n        /* \"contracts/StablePoolFactory.sol\":33515:33519  1e18 */\n      0x0de0b6b3a7640000\n        /* \"contracts/StablePoolFactory.sol\":37626:37627  x */\n      dup3\n        /* \"contracts/StablePoolFactory.sol\":37626:37633  x < ONE */\n      lt\n        /* \"contracts/StablePoolFactory.sol\":37625:37650  (x < ONE) ? (ONE - x) : 0 */\n      tag_403\n      jumpi\n        /* \"contracts/StablePoolFactory.sol\":37649:37650  0 */\n      0x00\n        /* \"contracts/StablePoolFactory.sol\":37625:37650  (x < ONE) ? (ONE - x) : 0 */\n      jump(tag_324)\n    tag_403:\n      pop\n        /* \"contracts/StablePoolFactory.sol\":33515:33519  1e18 */\n      0x0de0b6b3a7640000\n        /* \"contracts/StablePoolFactory.sol\":37638:37645  ONE - x */\n      sub\n      swap1\n        /* \"contracts/StablePoolFactory.sol\":37544:37658  function complement(uint256 x) internal pure returns (uint256) {\r... */\n      jump\t// out\n        /* \"contracts/StablePoolFactory.sol\":190:293  function _require(bool condition, uint256 errorCode) pure {\r... */\n    tag_322:\n        /* \"contracts/StablePoolFactory.sol\":260:269  condition */\n      dup2\n        /* \"contracts/StablePoolFactory.sol\":255:289  if (!condition) _revert(errorCode) */\n      tag_407\n      jumpi\n        /* \"contracts/StablePoolFactory.sol\":271:289  _revert(errorCode) */\n      tag_407\n        /* \"contracts/StablePoolFactory.sol\":279:288  errorCode */\n      dup2\n        /* \"contracts/StablePoolFactory.sol\":271:278  _revert */\n      tag_152\n        /* \"contracts/StablePoolFactory.sol\":271:289  _revert(errorCode) */\n      jump\t// in\n    tag_407:\n        /* \"contracts/StablePoolFactory.sol\":190:293  function _require(bool condition, uint256 errorCode) pure {\r... */\n      pop\n      pop\n      jump\t// out\n        /* \"contracts/StablePoolFactory.sol\":33024:33175  function divDown(uint256 a, uint256 b) internal pure returns (uint256) {\r... */\n    tag_342:\n        /* \"contracts/StablePoolFactory.sol\":33086:33093  uint256 */\n      0x00\n        /* \"contracts/StablePoolFactory.sol\":33106:33144  _require(b != 0, Errors.ZERO_DIVISION) */\n      tag_409\n        /* \"contracts/StablePoolFactory.sol\":33115:33121  b != 0 */\n      dup3\n      iszero\n      iszero\n        /* \"contracts/StablePoolFactory.sol\":3906:3907  4 */\n      0x04\n        /* \"contracts/StablePoolFactory.sol\":33106:33114  _require */\n      tag_322\n        /* \"contracts/StablePoolFactory.sol\":33106:33144  _require(b != 0, Errors.ZERO_DIVISION) */\n      jump\t// in\n    tag_409:\n        /* \"contracts/StablePoolFactory.sol\":33166:33167  b */\n      dup2\n        /* \"contracts/StablePoolFactory.sol\":33162:33163  a */\n      dup4\n        /* \"contracts/StablePoolFactory.sol\":33162:33167  a / b */\n      dup2\n      tag_410\n      jumpi\n      invalid\n    tag_410:\n      div\n      swap4\n        /* \"contracts/StablePoolFactory.sol\":33024:33175  function divDown(uint256 a, uint256 b) internal pure returns (uint256) {\r... */\n      swap3\n      pop\n      pop\n      pop\n      jump\t// out\n        /* \"contracts/StablePoolFactory.sol\":33183:33423  function divUp(uint256 a, uint256 b) internal pure returns (uint256) {\r... */\n    tag_345:\n        /* \"contracts/StablePoolFactory.sol\":33243:33250  uint256 */\n      0x00\n        /* \"contracts/StablePoolFactory.sol\":33263:33301  _require(b != 0, Errors.ZERO_DIVISION) */\n      tag_412\n        /* \"contracts/StablePoolFactory.sol\":33272:33278  b != 0 */\n      dup3\n      iszero\n      iszero\n        /* \"contracts/StablePoolFactory.sol\":3906:3907  4 */\n      0x04\n        /* \"contracts/StablePoolFactory.sol\":33263:33271  _require */\n      tag_322\n        /* \"contracts/StablePoolFactory.sol\":33263:33301  _require(b != 0, Errors.ZERO_DIVISION) */\n      jump\t// in\n    tag_412:\n        /* \"contracts/StablePoolFactory.sol\":33318:33324  a == 0 */\n      dup3\n        /* \"contracts/StablePoolFactory.sol\":33314:33416  if (a == 0) {\r... */\n      tag_413\n      jumpi\n      pop\n        /* \"contracts/StablePoolFactory.sol\":33348:33349  0 */\n      0x00\n        /* \"contracts/StablePoolFactory.sol\":33341:33349  return 0 */\n      jump(tag_324)\n        /* \"contracts/StablePoolFactory.sol\":33314:33416  if (a == 0) {\r... */\n    tag_413:\n        /* \"contracts/StablePoolFactory.sol\":33403:33404  b */\n      dup2\n        /* \"contracts/StablePoolFactory.sol\":33398:33399  1 */\n      0x01\n        /* \"contracts/StablePoolFactory.sol\":33394:33395  a */\n      dup5\n        /* \"contracts/StablePoolFactory.sol\":33394:33399  a - 1 */\n      sub\n        /* \"contracts/StablePoolFactory.sol\":33393:33404  (a - 1) / b */\n      dup2\n      tag_415\n      jumpi\n      invalid\n    tag_415:\n      div\n        /* \"contracts/StablePoolFactory.sol\":33389:33390  1 */\n      0x01\n        /* \"contracts/StablePoolFactory.sol\":33389:33404  1 + (a - 1) / b */\n      add\n        /* \"contracts/StablePoolFactory.sol\":33382:33404  return 1 + (a - 1) / b */\n      swap1\n      pop\n      jump(tag_324)\n\n    auxdata: 0xa2646970667358221220ac33e5f86eb7a70ddc57dd63517c4a4c67ccb9758f14a237606704caf412f4a064736f6c63430007010033\n}\n",
				"bytecode": {
					"linkReferences": {},
					"object": "608060405234801561001057600080fd5b5061184d806100206000396000f3fe608060405234801561001057600080fd5b50600436106100935760003560e01c80639cd91d3f116100665780639cd91d3f14610432578063a89d4259146104e5578063cf1b8c8c14610614578063db7ad3f2146106cd578063fe2dd7ba1461078057610093565b80631c855fa61461009857806332fec9051461018e578063405de9781461024a5780636fc82f2914610303575b600080fd5b61013e600480360360608110156100ae57600080fd5b810190602081018135600160201b8111156100c857600080fd5b8201836020820111156100da57600080fd5b803590602001918460208302840111600160201b831117156100fb57600080fd5b9190808060200260200160405190810160405280939291908181526020018383602002808284376000920191909152509295505082359350505060200135610833565b60408051602080825283518183015283519192839290830191858101910280838360005b8381101561017a578181015183820152602001610162565b505050509050019250505060405180910390f35b610238600480360360608110156101a457600080fd5b81359190810190604081016020820135600160201b8111156101c557600080fd5b8201836020820111156101d757600080fd5b803590602001918460208302840111600160201b831117156101f857600080fd5b919080806020026020016040519081016040528093929190818152602001838360200280828437600092019190915250929550505050351515905061084a565b60408051918252519081900360200190f35b610238600480360360c081101561026057600080fd5b81359190810190604081016020820135600160201b81111561028157600080fd5b82018360208201111561029357600080fd5b803590602001918460208302840111600160201b831117156102b457600080fd5b9190808060200260200160405190810160405280939291908181526020018383602002808284376000920191909152509295505082359350505060208101359060408101359060600135610857565b610238600480360360a081101561031957600080fd5b81359190810190604081016020820135600160201b81111561033a57600080fd5b82018360208201111561034c57600080fd5b803590602001918460208302840111600160201b8311171561036d57600080fd5b9190808060200260200160405190810160405280939291908181526020018383602002808284376000920191909152509295949360208101935035915050600160201b8111156103bc57600080fd5b8201836020820111156103ce57600080fd5b803590602001918460208302840111600160201b831117156103ef57600080fd5b9190808060200260200160405190810160405280939291908181526020018383602002808284376000920191909152509295505082359350505060200135610872565b610238600480360360a081101561044857600080fd5b81359190810190604081016020820135600160201b81111561046957600080fd5b82018360208201111561047b57600080fd5b803590602001918460208302840111600160201b8311171561049c57600080fd5b919080806020026020016040519081016040528093929190818152602001838360200280828437600092019190915250929550508235935050506020810135906040013561088d565b610238600480360360a08110156104fb57600080fd5b81359190810190604081016020820135600160201b81111561051c57600080fd5b82018360208201111561052e57600080fd5b803590602001918460208302840111600160201b8311171561054f57600080fd5b9190808060200260200160405190810160405280939291908181526020018383602002808284376000920191909152509295949360208101935035915050600160201b81111561059e57600080fd5b8201836020820111156105b057600080fd5b803590602001918460208302840111600160201b831117156105d157600080fd5b919080806020026020016040519081016040528093929190818152602001838360200280828437600092019190915250929550508235935050506020013561089c565b610238600480360360c081101561062a57600080fd5b81359190810190604081016020820135600160201b81111561064b57600080fd5b82018360208201111561065d57600080fd5b803590602001918460208302840111600160201b8311171561067e57600080fd5b91908080602002602001604051908101604052809392919081815260200183836020028082843760009201919091525092955050823593505050602081013590604081013590606001356108ab565b610238600480360360a08110156106e357600080fd5b81359190810190604081016020820135600160201b81111561070457600080fd5b82018360208201111561071657600080fd5b803590602001918460208302840111600160201b8311171561073757600080fd5b91908080602002602001604051908101604052809392919081815260200183836020028082843760009201919091525092955050823593505050602081013590604001356108bb565b610238600480360360a081101561079657600080fd5b81359190810190604081016020820135600160201b8111156107b757600080fd5b8201836020820111156107c957600080fd5b803590602001918460208302840111600160201b831117156107ea57600080fd5b91908080602002602001604051908101604052809392919081815260200183836020028082843760009201919091525092955050823593505050602081013590604001356108ca565b60606108408484846108d9565b90505b9392505050565b600061084084848461098b565b6000610867878787878787610b27565b979650505050505050565b60006108818686868686610c59565b90505b95945050505050565b60006108818686868686610f1d565b60006108818686868686610fcb565b6000610867878787878787611247565b6000610881868686868661130e565b6000610881868686868661137c565b606060006108e7848461140e565b90506060855167ffffffffffffffff8111801561090357600080fd5b5060405190808252806020026020018201604052801561092d578160200160208202803683370190505b50905060005b8651811015610981576109628388838151811061094c57fe5b602002602001015161146190919063ffffffff16565b82828151811061096e57fe5b6020908102919091010152600101610933565b5095945050505050565b81516000908190815b818110156109cc576109c28682815181106109ab57fe5b60200260200101518461149790919063ffffffff16565b9250600101610994565b50816109dd57600092505050610843565b600082878302825b60ff811015610b0f576000858a6000815181106109fe57fe5b60200260200101510290506000600190505b86811015610a5257610a48610a41610a3b848e8581518110610a2e57fe5b60200260200101516114a9565b896114a9565b868c6114c3565b9150600101610a10565b50839450610ac5610a94610a7b610a72610a6c878c6114a9565b856114a9565b6103e88d6114c3565b610a8e610a888a896114a9565b886114a9565b90611497565b610abf610ab2610aa86103e88803866114a9565b6103e88e156114c3565b610a8e8a600101896114a9565b8b6114c3565b935084841115610aed57600185850311610ae85783975050505050505050610843565b610b06565b600184860311610b065783975050505050505050610843565b506001016109e5565b50610b1b6101426114e3565b50505050509392505050565b600080610b368888600161098b565b90506000610b5882610b5287610b4c818b611497565b90611536565b90611584565b90506000610b688a8a848b6115c0565b90506000610b928a8a81518110610b7b57fe5b60200260200101518361177690919063ffffffff16565b90506000805b8b51811015610bd157610bc78c8281518110610bb057fe5b60200260200101518361149790919063ffffffff16565b9150600101610b98565b506000610bfa828d8d81518110610be457fe5b602002602001015161140e90919063ffffffff16565b90506000610c078261178c565b90506000610c158583611584565b90506000610c238683611776565b9050610c44610c3d83670de0b6b3a76400008e9003611536565b8290611497565b99505050505050505050509695505050505050565b600080805b8651811015610c8057610c76878281518110610bb057fe5b9150600101610c5e565b506060855167ffffffffffffffff81118015610c9b57600080fd5b50604051908082528060200260200182016040528015610cc5578160200160208202803683370190505b5090506000805b8851811015610d7c576000610ce7858b8481518110610be457fe5b9050610d3f8a8381518110610cf857fe5b6020026020010151610d398b8581518110610d0f57fe5b60200260200101518d8681518110610d2357fe5b602002602001015161149790919063ffffffff16565b9061140e565b848381518110610d4b57fe5b602002602001018181525050610d71610d6a8286858151811061094c57fe5b8490611497565b925050600101610ccc565b506060885167ffffffffffffffff81118015610d9757600080fd5b50604051908082528060200260200182016040528015610dc1578160200160208202803683370190505b50905060005b8951811015610eab57600083858381518110610ddf57fe5b60200260200101511115610e64576000610e10610e0486670de0b6b3a7640000611776565b8d858151811061094c57fe5b90506000610e3a828d8681518110610e2457fe5b602002602001015161177690919063ffffffff16565b9050610e5b610e5482670de0b6b3a76400008d9003611461565b8390611497565b92505050610e7b565b898281518110610e7057fe5b602002602001015190505b610e8b818c8481518110610d2357fe5b838381518110610e9757fe5b602090810291909101015250600101610dc7565b506000610eba8b8b600161098b565b90506000610eca8c84600061098b565b90506000610ed8828461140e565b9050670de0b6b3a7640000811115610f0d57610eff8a670de0b6b3a763ffff198301611461565b975050505050505050610884565b6000975050505050505050610884565b600080610f2c8787600161098b565b9050610f3e83878681518110610e2457fe5b868581518110610f4a57fe5b6020026020010181815250506000610f64888884896115c0565b905083878681518110610f7357fe5b602002602001015101878681518110610f8857fe5b602002602001018181525050610fbf6001610a8e898981518110610fa857fe5b60200260200101518461177690919063ffffffff16565b98975050505050505050565b600080805b8651811015610ff257610fe8878281518110610bb057fe5b9150600101610fd0565b506060855167ffffffffffffffff8111801561100d57600080fd5b50604051908082528060200260200182016040528015611037578160200160208202803683370190505b5090506000805b88518110156110f757600061106f858b848151811061105957fe5b602002602001015161153690919063ffffffff16565b90506110ab8a838151811061108057fe5b6020026020010151610b4c8b858151811061109757fe5b60200260200101518d8681518110610e2457fe5b8483815181106110b757fe5b6020026020010181815250506110ec610d6a828685815181106110d657fe5b602002602001015161158490919063ffffffff16565b92505060010161103e565b506060885167ffffffffffffffff8111801561111257600080fd5b5060405190808252806020026020018201604052801561113c578160200160208202803683370190505b50905060005b89518110156111f457600084828151811061115957fe5b60200260200101518411156111ad576000611176610e048661178c565b9050600061118a828d8681518110610e2457fe5b90506111a4610e5482670de0b6b3a76400008d9003611536565b925050506111c4565b8982815181106111b957fe5b602002602001015190505b6111d4818c8481518110610e2457fe5b8383815181106111e057fe5b602090810291909101015250600101611142565b5060006112038b8b600161098b565b905060006112138c84600061098b565b90506000611221828461140e565b905061123661122f8261178c565b8b90611584565b9d9c50505050505050505050505050565b6000806112568888600161098b565b9050600061126c82610b5287610b4c818b611776565b9050600061127c8a8a848b6115c0565b90506000611290828b8b81518110610e2457fe5b90506000805b8b518110156112b8576112ae8c8281518110610bb057fe5b9150600101611296565b5060006112cb828d8d81518110610be457fe5b905060006112d88261178c565b905060006112e68583611584565b905060006112f48683611776565b9050610c44610c3d83670de0b6b3a76400008e9003611461565b60008061131d878787876115c0565b90508086858151811061132c57fe5b602002602001015111611343576000915050610884565b60008187868151811061135257fe5b6020026020010151039050610fbf670de0b6b3a7640000610d39868461146190919063ffffffff16565b60008061138b8787600161098b565b905061139d83878781518110610d2357fe5b8686815181106113a957fe5b60200260200101818152505060006113c3888884886115c0565b9050838787815181106113d257fe5b6020026020010151038787815181106113e757fe5b602002602001018181525050610fbf6001611408838a8981518110610e2457fe5b90611776565b600061141d82151560046117b2565b8261142a5750600061145b565b670de0b6b3a76400008381029061144d9085838161144457fe5b041460056117b2565b82818161145657fe5b049150505b92915050565b600082820261148584158061147e57508385838161147b57fe5b04145b60036117b2565b670de0b6b3a764000090049392505050565b600082820161084384821015836117b2565b600082820261084384158061147e57508385838161147b57fe5b6000816114d9576114d484846117c4565b610840565b61084084846117e4565b62461bcd60e51b6000908152602060045260076024526642414c23000030600a808404818106603090810160081b95839006959095019082900491820690940160101b939093010160c81b604452606490fd5b600061154582151560046117b2565b826115525750600061145b565b670de0b6b3a76400008381029061156c9085838161144457fe5b82600182038161157857fe5b0460010191505061145b565b600082820261159e84158061147e57508385838161147b57fe5b806115ad57600091505061145b565b670de0b6b3a76400006000198201611578565b6000808451860290506000856000815181106115d857fe5b6020026020010151905060008651876000815181106115f357fe5b60200260200101510290506000600190505b875181101561164c5761163161162b611624848b8581518110610a2e57fe5b8a516114a9565b886117c4565b91506116428882815181106109ab57fe5b9250600101611605565b5086858151811061165957fe5b602002602001015182039150600061167187886114a9565b905060006116a261169661168e8461168989886114a9565b6117e4565b6103e86114a9565b8a8981518110610a2e57fe5b905060006116bd6116b661168e8b896117c4565b8690611497565b90506000806116d96116cf8686611497565b6116898d86611497565b905060005b60ff8110156117595781925061170e6116fb86610a8e85866114a9565b6116898e61140888610a8e8860026114a9565b915082821115611737576001838303116117325750975061176e9650505050505050565b611751565b6001828403116117515750975061176e9650505050505050565b6001016116de565b506117656101426114e3565b50505050505050505b949350505050565b60006117868383111560016117b2565b50900390565b6000670de0b6b3a764000082106117a457600061145b565b50670de0b6b3a76400000390565b816117c0576117c0816114e3565b5050565b60006117d382151560046117b2565b8183816117dc57fe5b049392505050565b60006117f382151560046117b2565b826118005750600061145b565b81600184038161180c57fe5b04600101905061145b56fea2646970667358221220ac33e5f86eb7a70ddc57dd63517c4a4c67ccb9758f14a237606704caf412f4a064736f6c63430007010033",
					"opcodes": "PUSH1 0x80 PUSH1 0x40 MSTORE CALLVALUE DUP1 ISZERO PUSH2 0x10 JUMPI PUSH1 0x0 DUP1 REVERT JUMPDEST POP PUSH2 0x184D DUP1 PUSH2 0x20 PUSH1 0x0 CODECOPY PUSH1 0x0 RETURN INVALID PUSH1 0x80 PUSH1 0x40 MSTORE CALLVALUE DUP1 ISZERO PUSH2 0x10 JUMPI PUSH1 0x0 DUP1 REVERT JUMPDEST POP PUSH1 0x4 CALLDATASIZE LT PUSH2 0x93 JUMPI PUSH1 0x0 CALLDATALOAD PUSH1 0xE0 SHR DUP1 PUSH4 0x9CD91D3F GT PUSH2 0x66 JUMPI DUP1 PUSH4 0x9CD91D3F EQ PUSH2 0x432 JUMPI DUP1 PUSH4 0xA89D4259 EQ PUSH2 0x4E5 JUMPI DUP1 PUSH4 0xCF1B8C8C EQ PUSH2 0x614 JUMPI DUP1 PUSH4 0xDB7AD3F2 EQ PUSH2 0x6CD JUMPI DUP1 PUSH4 0xFE2DD7BA EQ PUSH2 0x780 JUMPI PUSH2 0x93 JUMP JUMPDEST DUP1 PUSH4 0x1C855FA6 EQ PUSH2 0x98 JUMPI DUP1 PUSH4 0x32FEC905 EQ PUSH2 0x18E JUMPI DUP1 PUSH4 0x405DE978 EQ PUSH2 0x24A JUMPI DUP1 PUSH4 0x6FC82F29 EQ PUSH2 0x303 JUMPI JUMPDEST PUSH1 0x0 DUP1 REVERT JUMPDEST PUSH2 0x13E PUSH1 0x4 DUP1 CALLDATASIZE SUB PUSH1 0x60 DUP2 LT ISZERO PUSH2 0xAE JUMPI PUSH1 0x0 DUP1 REVERT JUMPDEST DUP2 ADD SWAP1 PUSH1 0x20 DUP2 ADD DUP2 CALLDATALOAD PUSH1 0x1 PUSH1 0x20 SHL DUP2 GT ISZERO PUSH2 0xC8 JUMPI PUSH1 0x0 DUP1 REVERT JUMPDEST DUP3 ADD DUP4 PUSH1 0x20 DUP3 ADD GT ISZERO PUSH2 0xDA JUMPI PUSH1 0x0 DUP1 REVERT JUMPDEST DUP1 CALLDATALOAD SWAP1 PUSH1 0x20 ADD SWAP2 DUP5 PUSH1 0x20 DUP4 MUL DUP5 ADD GT PUSH1 0x1 PUSH1 0x20 SHL DUP4 GT OR ISZERO PUSH2 0xFB JUMPI PUSH1 0x0 DUP1 REVERT JUMPDEST SWAP2 SWAP1 DUP1 DUP1 PUSH1 0x20 MUL PUSH1 0x20 ADD PUSH1 0x40 MLOAD SWAP1 DUP2 ADD PUSH1 0x40 MSTORE DUP1 SWAP4 SWAP3 SWAP2 SWAP1 DUP2 DUP2 MSTORE PUSH1 0x20 ADD DUP4 DUP4 PUSH1 0x20 MUL DUP1 DUP3 DUP5 CALLDATACOPY PUSH1 0x0 SWAP3 ADD SWAP2 SWAP1 SWAP2 MSTORE POP SWAP3 SWAP6 POP POP DUP3 CALLDATALOAD SWAP4 POP POP POP PUSH1 0x20 ADD CALLDATALOAD PUSH2 0x833 JUMP JUMPDEST PUSH1 0x40 DUP1 MLOAD PUSH1 0x20 DUP1 DUP3 MSTORE DUP4 MLOAD DUP2 DUP4 ADD MSTORE DUP4 MLOAD SWAP2 SWAP3 DUP4 SWAP3 SWAP1 DUP4 ADD SWAP2 DUP6 DUP2 ADD SWAP2 MUL DUP1 DUP4 DUP4 PUSH1 0x0 JUMPDEST DUP4 DUP2 LT ISZERO PUSH2 0x17A JUMPI DUP2 DUP2 ADD MLOAD DUP4 DUP3 ADD MSTORE PUSH1 0x20 ADD PUSH2 0x162 JUMP JUMPDEST POP POP POP POP SWAP1 POP ADD SWAP3 POP POP POP PUSH1 0x40 MLOAD DUP1 SWAP2 SUB SWAP1 RETURN JUMPDEST PUSH2 0x238 PUSH1 0x4 DUP1 CALLDATASIZE SUB PUSH1 0x60 DUP2 LT ISZERO PUSH2 0x1A4 JUMPI PUSH1 0x0 DUP1 REVERT JUMPDEST DUP2 CALLDATALOAD SWAP2 SWAP1 DUP2 ADD SWAP1 PUSH1 0x40 DUP2 ADD PUSH1 0x20 DUP3 ADD CALLDATALOAD PUSH1 0x1 PUSH1 0x20 SHL DUP2 GT ISZERO PUSH2 0x1C5 JUMPI PUSH1 0x0 DUP1 REVERT JUMPDEST DUP3 ADD DUP4 PUSH1 0x20 DUP3 ADD GT ISZERO PUSH2 0x1D7 JUMPI PUSH1 0x0 DUP1 REVERT JUMPDEST DUP1 CALLDATALOAD SWAP1 PUSH1 0x20 ADD SWAP2 DUP5 PUSH1 0x20 DUP4 MUL DUP5 ADD GT PUSH1 0x1 PUSH1 0x20 SHL DUP4 GT OR ISZERO PUSH2 0x1F8 JUMPI PUSH1 0x0 DUP1 REVERT JUMPDEST SWAP2 SWAP1 DUP1 DUP1 PUSH1 0x20 MUL PUSH1 0x20 ADD PUSH1 0x40 MLOAD SWAP1 DUP2 ADD PUSH1 0x40 MSTORE DUP1 SWAP4 SWAP3 SWAP2 SWAP1 DUP2 DUP2 MSTORE PUSH1 0x20 ADD DUP4 DUP4 PUSH1 0x20 MUL DUP1 DUP3 DUP5 CALLDATACOPY PUSH1 0x0 SWAP3 ADD SWAP2 SWAP1 SWAP2 MSTORE POP SWAP3 SWAP6 POP POP POP POP CALLDATALOAD ISZERO ISZERO SWAP1 POP PUSH2 0x84A JUMP JUMPDEST PUSH1 0x40 DUP1 MLOAD SWAP2 DUP3 MSTORE MLOAD SWAP1 DUP2 SWAP1 SUB PUSH1 0x20 ADD SWAP1 RETURN JUMPDEST PUSH2 0x238 PUSH1 0x4 DUP1 CALLDATASIZE SUB PUSH1 0xC0 DUP2 LT ISZERO PUSH2 0x260 JUMPI PUSH1 0x0 DUP1 REVERT JUMPDEST DUP2 CALLDATALOAD SWAP2 SWAP1 DUP2 ADD SWAP1 PUSH1 0x40 DUP2 ADD PUSH1 0x20 DUP3 ADD CALLDATALOAD PUSH1 0x1 PUSH1 0x20 SHL DUP2 GT ISZERO PUSH2 0x281 JUMPI PUSH1 0x0 DUP1 REVERT JUMPDEST DUP3 ADD DUP4 PUSH1 0x20 DUP3 ADD GT ISZERO PUSH2 0x293 JUMPI PUSH1 0x0 DUP1 REVERT JUMPDEST DUP1 CALLDATALOAD SWAP1 PUSH1 0x20 ADD SWAP2 DUP5 PUSH1 0x20 DUP4 MUL DUP5 ADD GT PUSH1 0x1 PUSH1 0x20 SHL DUP4 GT OR ISZERO PUSH2 0x2B4 JUMPI PUSH1 0x0 DUP1 REVERT JUMPDEST SWAP2 SWAP1 DUP1 DUP1 PUSH1 0x20 MUL PUSH1 0x20 ADD PUSH1 0x40 MLOAD SWAP1 DUP2 ADD PUSH1 0x40 MSTORE DUP1 SWAP4 SWAP3 SWAP2 SWAP1 DUP2 DUP2 MSTORE PUSH1 0x20 ADD DUP4 DUP4 PUSH1 0x20 MUL DUP1 DUP3 DUP5 CALLDATACOPY PUSH1 0x0 SWAP3 ADD SWAP2 SWAP1 SWAP2 MSTORE POP SWAP3 SWAP6 POP POP DUP3 CALLDATALOAD SWAP4 POP POP POP PUSH1 0x20 DUP2 ADD CALLDATALOAD SWAP1 PUSH1 0x40 DUP2 ADD CALLDATALOAD SWAP1 PUSH1 0x60 ADD CALLDATALOAD PUSH2 0x857 JUMP JUMPDEST PUSH2 0x238 PUSH1 0x4 DUP1 CALLDATASIZE SUB PUSH1 0xA0 DUP2 LT ISZERO PUSH2 0x319 JUMPI PUSH1 0x0 DUP1 REVERT JUMPDEST DUP2 CALLDATALOAD SWAP2 SWAP1 DUP2 ADD SWAP1 PUSH1 0x40 DUP2 ADD PUSH1 0x20 DUP3 ADD CALLDATALOAD PUSH1 0x1 PUSH1 0x20 SHL DUP2 GT ISZERO PUSH2 0x33A JUMPI PUSH1 0x0 DUP1 REVERT JUMPDEST DUP3 ADD DUP4 PUSH1 0x20 DUP3 ADD GT ISZERO PUSH2 0x34C JUMPI PUSH1 0x0 DUP1 REVERT JUMPDEST DUP1 CALLDATALOAD SWAP1 PUSH1 0x20 ADD SWAP2 DUP5 PUSH1 0x20 DUP4 MUL DUP5 ADD GT PUSH1 0x1 PUSH1 0x20 SHL DUP4 GT OR ISZERO PUSH2 0x36D JUMPI PUSH1 0x0 DUP1 REVERT JUMPDEST SWAP2 SWAP1 DUP1 DUP1 PUSH1 0x20 MUL PUSH1 0x20 ADD PUSH1 0x40 MLOAD SWAP1 DUP2 ADD PUSH1 0x40 MSTORE DUP1 SWAP4 SWAP3 SWAP2 SWAP1 DUP2 DUP2 MSTORE PUSH1 0x20 ADD DUP4 DUP4 PUSH1 0x20 MUL DUP1 DUP3 DUP5 CALLDATACOPY PUSH1 0x0 SWAP3 ADD SWAP2 SWAP1 SWAP2 MSTORE POP SWAP3 SWAP6 SWAP5 SWAP4 PUSH1 0x20 DUP2 ADD SWAP4 POP CALLDATALOAD SWAP2 POP POP PUSH1 0x1 PUSH1 0x20 SHL DUP2 GT ISZERO PUSH2 0x3BC JUMPI PUSH1 0x0 DUP1 REVERT JUMPDEST DUP3 ADD DUP4 PUSH1 0x20 DUP3 ADD GT ISZERO PUSH2 0x3CE JUMPI PUSH1 0x0 DUP1 REVERT JUMPDEST DUP1 CALLDATALOAD SWAP1 PUSH1 0x20 ADD SWAP2 DUP5 PUSH1 0x20 DUP4 MUL DUP5 ADD GT PUSH1 0x1 PUSH1 0x20 SHL DUP4 GT OR ISZERO PUSH2 0x3EF JUMPI PUSH1 0x0 DUP1 REVERT JUMPDEST SWAP2 SWAP1 DUP1 DUP1 PUSH1 0x20 MUL PUSH1 0x20 ADD PUSH1 0x40 MLOAD SWAP1 DUP2 ADD PUSH1 0x40 MSTORE DUP1 SWAP4 SWAP3 SWAP2 SWAP1 DUP2 DUP2 MSTORE PUSH1 0x20 ADD DUP4 DUP4 PUSH1 0x20 MUL DUP1 DUP3 DUP5 CALLDATACOPY PUSH1 0x0 SWAP3 ADD SWAP2 SWAP1 SWAP2 MSTORE POP SWAP3 SWAP6 POP POP DUP3 CALLDATALOAD SWAP4 POP POP POP PUSH1 0x20 ADD CALLDATALOAD PUSH2 0x872 JUMP JUMPDEST PUSH2 0x238 PUSH1 0x4 DUP1 CALLDATASIZE SUB PUSH1 0xA0 DUP2 LT ISZERO PUSH2 0x448 JUMPI PUSH1 0x0 DUP1 REVERT JUMPDEST DUP2 CALLDATALOAD SWAP2 SWAP1 DUP2 ADD SWAP1 PUSH1 0x40 DUP2 ADD PUSH1 0x20 DUP3 ADD CALLDATALOAD PUSH1 0x1 PUSH1 0x20 SHL DUP2 GT ISZERO PUSH2 0x469 JUMPI PUSH1 0x0 DUP1 REVERT JUMPDEST DUP3 ADD DUP4 PUSH1 0x20 DUP3 ADD GT ISZERO PUSH2 0x47B JUMPI PUSH1 0x0 DUP1 REVERT JUMPDEST DUP1 CALLDATALOAD SWAP1 PUSH1 0x20 ADD SWAP2 DUP5 PUSH1 0x20 DUP4 MUL DUP5 ADD GT PUSH1 0x1 PUSH1 0x20 SHL DUP4 GT OR ISZERO PUSH2 0x49C JUMPI PUSH1 0x0 DUP1 REVERT JUMPDEST SWAP2 SWAP1 DUP1 DUP1 PUSH1 0x20 MUL PUSH1 0x20 ADD PUSH1 0x40 MLOAD SWAP1 DUP2 ADD PUSH1 0x40 MSTORE DUP1 SWAP4 SWAP3 SWAP2 SWAP1 DUP2 DUP2 MSTORE PUSH1 0x20 ADD DUP4 DUP4 PUSH1 0x20 MUL DUP1 DUP3 DUP5 CALLDATACOPY PUSH1 0x0 SWAP3 ADD SWAP2 SWAP1 SWAP2 MSTORE POP SWAP3 SWAP6 POP POP DUP3 CALLDATALOAD SWAP4 POP POP POP PUSH1 0x20 DUP2 ADD CALLDATALOAD SWAP1 PUSH1 0x40 ADD CALLDATALOAD PUSH2 0x88D JUMP JUMPDEST PUSH2 0x238 PUSH1 0x4 DUP1 CALLDATASIZE SUB PUSH1 0xA0 DUP2 LT ISZERO PUSH2 0x4FB JUMPI PUSH1 0x0 DUP1 REVERT JUMPDEST DUP2 CALLDATALOAD SWAP2 SWAP1 DUP2 ADD SWAP1 PUSH1 0x40 DUP2 ADD PUSH1 0x20 DUP3 ADD CALLDATALOAD PUSH1 0x1 PUSH1 0x20 SHL DUP2 GT ISZERO PUSH2 0x51C JUMPI PUSH1 0x0 DUP1 REVERT JUMPDEST DUP3 ADD DUP4 PUSH1 0x20 DUP3 ADD GT ISZERO PUSH2 0x52E JUMPI PUSH1 0x0 DUP1 REVERT JUMPDEST DUP1 CALLDATALOAD SWAP1 PUSH1 0x20 ADD SWAP2 DUP5 PUSH1 0x20 DUP4 MUL DUP5 ADD GT PUSH1 0x1 PUSH1 0x20 SHL DUP4 GT OR ISZERO PUSH2 0x54F JUMPI PUSH1 0x0 DUP1 REVERT JUMPDEST SWAP2 SWAP1 DUP1 DUP1 PUSH1 0x20 MUL PUSH1 0x20 ADD PUSH1 0x40 MLOAD SWAP1 DUP2 ADD PUSH1 0x40 MSTORE DUP1 SWAP4 SWAP3 SWAP2 SWAP1 DUP2 DUP2 MSTORE PUSH1 0x20 ADD DUP4 DUP4 PUSH1 0x20 MUL DUP1 DUP3 DUP5 CALLDATACOPY PUSH1 0x0 SWAP3 ADD SWAP2 SWAP1 SWAP2 MSTORE POP SWAP3 SWAP6 SWAP5 SWAP4 PUSH1 0x20 DUP2 ADD SWAP4 POP CALLDATALOAD SWAP2 POP POP PUSH1 0x1 PUSH1 0x20 SHL DUP2 GT ISZERO PUSH2 0x59E JUMPI PUSH1 0x0 DUP1 REVERT JUMPDEST DUP3 ADD DUP4 PUSH1 0x20 DUP3 ADD GT ISZERO PUSH2 0x5B0 JUMPI PUSH1 0x0 DUP1 REVERT JUMPDEST DUP1 CALLDATALOAD SWAP1 PUSH1 0x20 ADD SWAP2 DUP5 PUSH1 0x20 DUP4 MUL DUP5 ADD GT PUSH1 0x1 PUSH1 0x20 SHL DUP4 GT OR ISZERO PUSH2 0x5D1 JUMPI PUSH1 0x0 DUP1 REVERT JUMPDEST SWAP2 SWAP1 DUP1 DUP1 PUSH1 0x20 MUL PUSH1 0x20 ADD PUSH1 0x40 MLOAD SWAP1 DUP2 ADD PUSH1 0x40 MSTORE DUP1 SWAP4 SWAP3 SWAP2 SWAP1 DUP2 DUP2 MSTORE PUSH1 0x20 ADD DUP4 DUP4 PUSH1 0x20 MUL DUP1 DUP3 DUP5 CALLDATACOPY PUSH1 0x0 SWAP3 ADD SWAP2 SWAP1 SWAP2 MSTORE POP SWAP3 SWAP6 POP POP DUP3 CALLDATALOAD SWAP4 POP POP POP PUSH1 0x20 ADD CALLDATALOAD PUSH2 0x89C JUMP JUMPDEST PUSH2 0x238 PUSH1 0x4 DUP1 CALLDATASIZE SUB PUSH1 0xC0 DUP2 LT ISZERO PUSH2 0x62A JUMPI PUSH1 0x0 DUP1 REVERT JUMPDEST DUP2 CALLDATALOAD SWAP2 SWAP1 DUP2 ADD SWAP1 PUSH1 0x40 DUP2 ADD PUSH1 0x20 DUP3 ADD CALLDATALOAD PUSH1 0x1 PUSH1 0x20 SHL DUP2 GT ISZERO PUSH2 0x64B JUMPI PUSH1 0x0 DUP1 REVERT JUMPDEST DUP3 ADD DUP4 PUSH1 0x20 DUP3 ADD GT ISZERO PUSH2 0x65D JUMPI PUSH1 0x0 DUP1 REVERT JUMPDEST DUP1 CALLDATALOAD SWAP1 PUSH1 0x20 ADD SWAP2 DUP5 PUSH1 0x20 DUP4 MUL DUP5 ADD GT PUSH1 0x1 PUSH1 0x20 SHL DUP4 GT OR ISZERO PUSH2 0x67E JUMPI PUSH1 0x0 DUP1 REVERT JUMPDEST SWAP2 SWAP1 DUP1 DUP1 PUSH1 0x20 MUL PUSH1 0x20 ADD PUSH1 0x40 MLOAD SWAP1 DUP2 ADD PUSH1 0x40 MSTORE DUP1 SWAP4 SWAP3 SWAP2 SWAP1 DUP2 DUP2 MSTORE PUSH1 0x20 ADD DUP4 DUP4 PUSH1 0x20 MUL DUP1 DUP3 DUP5 CALLDATACOPY PUSH1 0x0 SWAP3 ADD SWAP2 SWAP1 SWAP2 MSTORE POP SWAP3 SWAP6 POP POP DUP3 CALLDATALOAD SWAP4 POP POP POP PUSH1 0x20 DUP2 ADD CALLDATALOAD SWAP1 PUSH1 0x40 DUP2 ADD CALLDATALOAD SWAP1 PUSH1 0x60 ADD CALLDATALOAD PUSH2 0x8AB JUMP JUMPDEST PUSH2 0x238 PUSH1 0x4 DUP1 CALLDATASIZE SUB PUSH1 0xA0 DUP2 LT ISZERO PUSH2 0x6E3 JUMPI PUSH1 0x0 DUP1 REVERT JUMPDEST DUP2 CALLDATALOAD SWAP2 SWAP1 DUP2 ADD SWAP1 PUSH1 0x40 DUP2 ADD PUSH1 0x20 DUP3 ADD CALLDATALOAD PUSH1 0x1 PUSH1 0x20 SHL DUP2 GT ISZERO PUSH2 0x704 JUMPI PUSH1 0x0 DUP1 REVERT JUMPDEST DUP3 ADD DUP4 PUSH1 0x20 DUP3 ADD GT ISZERO PUSH2 0x716 JUMPI PUSH1 0x0 DUP1 REVERT JUMPDEST DUP1 CALLDATALOAD SWAP1 PUSH1 0x20 ADD SWAP2 DUP5 PUSH1 0x20 DUP4 MUL DUP5 ADD GT PUSH1 0x1 PUSH1 0x20 SHL DUP4 GT OR ISZERO PUSH2 0x737 JUMPI PUSH1 0x0 DUP1 REVERT JUMPDEST SWAP2 SWAP1 DUP1 DUP1 PUSH1 0x20 MUL PUSH1 0x20 ADD PUSH1 0x40 MLOAD SWAP1 DUP2 ADD PUSH1 0x40 MSTORE DUP1 SWAP4 SWAP3 SWAP2 SWAP1 DUP2 DUP2 MSTORE PUSH1 0x20 ADD DUP4 DUP4 PUSH1 0x20 MUL DUP1 DUP3 DUP5 CALLDATACOPY PUSH1 0x0 SWAP3 ADD SWAP2 SWAP1 SWAP2 MSTORE POP SWAP3 SWAP6 POP POP DUP3 CALLDATALOAD SWAP4 POP POP POP PUSH1 0x20 DUP2 ADD CALLDATALOAD SWAP1 PUSH1 0x40 ADD CALLDATALOAD PUSH2 0x8BB JUMP JUMPDEST PUSH2 0x238 PUSH1 0x4 DUP1 CALLDATASIZE SUB PUSH1 0xA0 DUP2 LT ISZERO PUSH2 0x796 JUMPI PUSH1 0x0 DUP1 REVERT JUMPDEST DUP2 CALLDATALOAD SWAP2 SWAP1 DUP2 ADD SWAP1 PUSH1 0x40 DUP2 ADD PUSH1 0x20 DUP3 ADD CALLDATALOAD PUSH1 0x1 PUSH1 0x20 SHL DUP2 GT ISZERO PUSH2 0x7B7 JUMPI PUSH1 0x0 DUP1 REVERT JUMPDEST DUP3 ADD DUP4 PUSH1 0x20 DUP3 ADD GT ISZERO PUSH2 0x7C9 JUMPI PUSH1 0x0 DUP1 REVERT JUMPDEST DUP1 CALLDATALOAD SWAP1 PUSH1 0x20 ADD SWAP2 DUP5 PUSH1 0x20 DUP4 MUL DUP5 ADD GT PUSH1 0x1 PUSH1 0x20 SHL DUP4 GT OR ISZERO PUSH2 0x7EA JUMPI PUSH1 0x0 DUP1 REVERT JUMPDEST SWAP2 SWAP1 DUP1 DUP1 PUSH1 0x20 MUL PUSH1 0x20 ADD PUSH1 0x40 MLOAD SWAP1 DUP2 ADD PUSH1 0x40 MSTORE DUP1 SWAP4 SWAP3 SWAP2 SWAP1 DUP2 DUP2 MSTORE PUSH1 0x20 ADD DUP4 DUP4 PUSH1 0x20 MUL DUP1 DUP3 DUP5 CALLDATACOPY PUSH1 0x0 SWAP3 ADD SWAP2 SWAP1 SWAP2 MSTORE POP SWAP3 SWAP6 POP POP DUP3 CALLDATALOAD SWAP4 POP POP POP PUSH1 0x20 DUP2 ADD CALLDATALOAD SWAP1 PUSH1 0x40 ADD CALLDATALOAD PUSH2 0x8CA JUMP JUMPDEST PUSH1 0x60 PUSH2 0x840 DUP5 DUP5 DUP5 PUSH2 0x8D9 JUMP JUMPDEST SWAP1 POP JUMPDEST SWAP4 SWAP3 POP POP POP JUMP JUMPDEST PUSH1 0x0 PUSH2 0x840 DUP5 DUP5 DUP5 PUSH2 0x98B JUMP JUMPDEST PUSH1 0x0 PUSH2 0x867 DUP8 DUP8 DUP8 DUP8 DUP8 DUP8 PUSH2 0xB27 JUMP JUMPDEST SWAP8 SWAP7 POP POP POP POP POP POP POP JUMP JUMPDEST PUSH1 0x0 PUSH2 0x881 DUP7 DUP7 DUP7 DUP7 DUP7 PUSH2 0xC59 JUMP JUMPDEST SWAP1 POP JUMPDEST SWAP6 SWAP5 POP POP POP POP POP JUMP JUMPDEST PUSH1 0x0 PUSH2 0x881 DUP7 DUP7 DUP7 DUP7 DUP7 PUSH2 0xF1D JUMP JUMPDEST PUSH1 0x0 PUSH2 0x881 DUP7 DUP7 DUP7 DUP7 DUP7 PUSH2 0xFCB JUMP JUMPDEST PUSH1 0x0 PUSH2 0x867 DUP8 DUP8 DUP8 DUP8 DUP8 DUP8 PUSH2 0x1247 JUMP JUMPDEST PUSH1 0x0 PUSH2 0x881 DUP7 DUP7 DUP7 DUP7 DUP7 PUSH2 0x130E JUMP JUMPDEST PUSH1 0x0 PUSH2 0x881 DUP7 DUP7 DUP7 DUP7 DUP7 PUSH2 0x137C JUMP JUMPDEST PUSH1 0x60 PUSH1 0x0 PUSH2 0x8E7 DUP5 DUP5 PUSH2 0x140E JUMP JUMPDEST SWAP1 POP PUSH1 0x60 DUP6 MLOAD PUSH8 0xFFFFFFFFFFFFFFFF DUP2 GT DUP1 ISZERO PUSH2 0x903 JUMPI PUSH1 0x0 DUP1 REVERT JUMPDEST POP PUSH1 0x40 MLOAD SWAP1 DUP1 DUP3 MSTORE DUP1 PUSH1 0x20 MUL PUSH1 0x20 ADD DUP3 ADD PUSH1 0x40 MSTORE DUP1 ISZERO PUSH2 0x92D JUMPI DUP2 PUSH1 0x20 ADD PUSH1 0x20 DUP3 MUL DUP1 CALLDATASIZE DUP4 CALLDATACOPY ADD SWAP1 POP JUMPDEST POP SWAP1 POP PUSH1 0x0 JUMPDEST DUP7 MLOAD DUP2 LT ISZERO PUSH2 0x981 JUMPI PUSH2 0x962 DUP4 DUP9 DUP4 DUP2 MLOAD DUP2 LT PUSH2 0x94C JUMPI INVALID JUMPDEST PUSH1 0x20 MUL PUSH1 0x20 ADD ADD MLOAD PUSH2 0x1461 SWAP1 SWAP2 SWAP1 PUSH4 0xFFFFFFFF AND JUMP JUMPDEST DUP3 DUP3 DUP2 MLOAD DUP2 LT PUSH2 0x96E JUMPI INVALID JUMPDEST PUSH1 0x20 SWAP1 DUP2 MUL SWAP2 SWAP1 SWAP2 ADD ADD MSTORE PUSH1 0x1 ADD PUSH2 0x933 JUMP JUMPDEST POP SWAP6 SWAP5 POP POP POP POP POP JUMP JUMPDEST DUP2 MLOAD PUSH1 0x0 SWAP1 DUP2 SWAP1 DUP2 JUMPDEST DUP2 DUP2 LT ISZERO PUSH2 0x9CC JUMPI PUSH2 0x9C2 DUP7 DUP3 DUP2 MLOAD DUP2 LT PUSH2 0x9AB JUMPI INVALID JUMPDEST PUSH1 0x20 MUL PUSH1 0x20 ADD ADD MLOAD DUP5 PUSH2 0x1497 SWAP1 SWAP2 SWAP1 PUSH4 0xFFFFFFFF AND JUMP JUMPDEST SWAP3 POP PUSH1 0x1 ADD PUSH2 0x994 JUMP JUMPDEST POP DUP2 PUSH2 0x9DD JUMPI PUSH1 0x0 SWAP3 POP POP POP PUSH2 0x843 JUMP JUMPDEST PUSH1 0x0 DUP3 DUP8 DUP4 MUL DUP3 JUMPDEST PUSH1 0xFF DUP2 LT ISZERO PUSH2 0xB0F JUMPI PUSH1 0x0 DUP6 DUP11 PUSH1 0x0 DUP2 MLOAD DUP2 LT PUSH2 0x9FE JUMPI INVALID JUMPDEST PUSH1 0x20 MUL PUSH1 0x20 ADD ADD MLOAD MUL SWAP1 POP PUSH1 0x0 PUSH1 0x1 SWAP1 POP JUMPDEST DUP7 DUP2 LT ISZERO PUSH2 0xA52 JUMPI PUSH2 0xA48 PUSH2 0xA41 PUSH2 0xA3B DUP5 DUP15 DUP6 DUP2 MLOAD DUP2 LT PUSH2 0xA2E JUMPI INVALID JUMPDEST PUSH1 0x20 MUL PUSH1 0x20 ADD ADD MLOAD PUSH2 0x14A9 JUMP JUMPDEST DUP10 PUSH2 0x14A9 JUMP JUMPDEST DUP7 DUP13 PUSH2 0x14C3 JUMP JUMPDEST SWAP2 POP PUSH1 0x1 ADD PUSH2 0xA10 JUMP JUMPDEST POP DUP4 SWAP5 POP PUSH2 0xAC5 PUSH2 0xA94 PUSH2 0xA7B PUSH2 0xA72 PUSH2 0xA6C DUP8 DUP13 PUSH2 0x14A9 JUMP JUMPDEST DUP6 PUSH2 0x14A9 JUMP JUMPDEST PUSH2 0x3E8 DUP14 PUSH2 0x14C3 JUMP JUMPDEST PUSH2 0xA8E PUSH2 0xA88 DUP11 DUP10 PUSH2 0x14A9 JUMP JUMPDEST DUP9 PUSH2 0x14A9 JUMP JUMPDEST SWAP1 PUSH2 0x1497 JUMP JUMPDEST PUSH2 0xABF PUSH2 0xAB2 PUSH2 0xAA8 PUSH2 0x3E8 DUP9 SUB DUP7 PUSH2 0x14A9 JUMP JUMPDEST PUSH2 0x3E8 DUP15 ISZERO PUSH2 0x14C3 JUMP JUMPDEST PUSH2 0xA8E DUP11 PUSH1 0x1 ADD DUP10 PUSH2 0x14A9 JUMP JUMPDEST DUP12 PUSH2 0x14C3 JUMP JUMPDEST SWAP4 POP DUP5 DUP5 GT ISZERO PUSH2 0xAED JUMPI PUSH1 0x1 DUP6 DUP6 SUB GT PUSH2 0xAE8 JUMPI DUP4 SWAP8 POP POP POP POP POP POP POP POP PUSH2 0x843 JUMP JUMPDEST PUSH2 0xB06 JUMP JUMPDEST PUSH1 0x1 DUP5 DUP7 SUB GT PUSH2 0xB06 JUMPI DUP4 SWAP8 POP POP POP POP POP POP POP POP PUSH2 0x843 JUMP JUMPDEST POP PUSH1 0x1 ADD PUSH2 0x9E5 JUMP JUMPDEST POP PUSH2 0xB1B PUSH2 0x142 PUSH2 0x14E3 JUMP JUMPDEST POP POP POP POP POP SWAP4 SWAP3 POP POP POP JUMP JUMPDEST PUSH1 0x0 DUP1 PUSH2 0xB36 DUP9 DUP9 PUSH1 0x1 PUSH2 0x98B JUMP JUMPDEST SWAP1 POP PUSH1 0x0 PUSH2 0xB58 DUP3 PUSH2 0xB52 DUP8 PUSH2 0xB4C DUP2 DUP12 PUSH2 0x1497 JUMP JUMPDEST SWAP1 PUSH2 0x1536 JUMP JUMPDEST SWAP1 PUSH2 0x1584 JUMP JUMPDEST SWAP1 POP PUSH1 0x0 PUSH2 0xB68 DUP11 DUP11 DUP5 DUP12 PUSH2 0x15C0 JUMP JUMPDEST SWAP1 POP PUSH1 0x0 PUSH2 0xB92 DUP11 DUP11 DUP2 MLOAD DUP2 LT PUSH2 0xB7B JUMPI INVALID JUMPDEST PUSH1 0x20 MUL PUSH1 0x20 ADD ADD MLOAD DUP4 PUSH2 0x1776 SWAP1 SWAP2 SWAP1 PUSH4 0xFFFFFFFF AND JUMP JUMPDEST SWAP1 POP PUSH1 0x0 DUP1 JUMPDEST DUP12 MLOAD DUP2 LT ISZERO PUSH2 0xBD1 JUMPI PUSH2 0xBC7 DUP13 DUP3 DUP2 MLOAD DUP2 LT PUSH2 0xBB0 JUMPI INVALID JUMPDEST PUSH1 0x20 MUL PUSH1 0x20 ADD ADD MLOAD DUP4 PUSH2 0x1497 SWAP1 SWAP2 SWAP1 PUSH4 0xFFFFFFFF AND JUMP JUMPDEST SWAP2 POP PUSH1 0x1 ADD PUSH2 0xB98 JUMP JUMPDEST POP PUSH1 0x0 PUSH2 0xBFA DUP3 DUP14 DUP14 DUP2 MLOAD DUP2 LT PUSH2 0xBE4 JUMPI INVALID JUMPDEST PUSH1 0x20 MUL PUSH1 0x20 ADD ADD MLOAD PUSH2 0x140E SWAP1 SWAP2 SWAP1 PUSH4 0xFFFFFFFF AND JUMP JUMPDEST SWAP1 POP PUSH1 0x0 PUSH2 0xC07 DUP3 PUSH2 0x178C JUMP JUMPDEST SWAP1 POP PUSH1 0x0 PUSH2 0xC15 DUP6 DUP4 PUSH2 0x1584 JUMP JUMPDEST SWAP1 POP PUSH1 0x0 PUSH2 0xC23 DUP7 DUP4 PUSH2 0x1776 JUMP JUMPDEST SWAP1 POP PUSH2 0xC44 PUSH2 0xC3D DUP4 PUSH8 0xDE0B6B3A7640000 DUP15 SWAP1 SUB PUSH2 0x1536 JUMP JUMPDEST DUP3 SWAP1 PUSH2 0x1497 JUMP JUMPDEST SWAP10 POP POP POP POP POP POP POP POP POP POP SWAP7 SWAP6 POP POP POP POP POP POP JUMP JUMPDEST PUSH1 0x0 DUP1 DUP1 JUMPDEST DUP7 MLOAD DUP2 LT ISZERO PUSH2 0xC80 JUMPI PUSH2 0xC76 DUP8 DUP3 DUP2 MLOAD DUP2 LT PUSH2 0xBB0 JUMPI INVALID JUMPDEST SWAP2 POP PUSH1 0x1 ADD PUSH2 0xC5E JUMP JUMPDEST POP PUSH1 0x60 DUP6 MLOAD PUSH8 0xFFFFFFFFFFFFFFFF DUP2 GT DUP1 ISZERO PUSH2 0xC9B JUMPI PUSH1 0x0 DUP1 REVERT JUMPDEST POP PUSH1 0x40 MLOAD SWAP1 DUP1 DUP3 MSTORE DUP1 PUSH1 0x20 MUL PUSH1 0x20 ADD DUP3 ADD PUSH1 0x40 MSTORE DUP1 ISZERO PUSH2 0xCC5 JUMPI DUP2 PUSH1 0x20 ADD PUSH1 0x20 DUP3 MUL DUP1 CALLDATASIZE DUP4 CALLDATACOPY ADD SWAP1 POP JUMPDEST POP SWAP1 POP PUSH1 0x0 DUP1 JUMPDEST DUP9 MLOAD DUP2 LT ISZERO PUSH2 0xD7C JUMPI PUSH1 0x0 PUSH2 0xCE7 DUP6 DUP12 DUP5 DUP2 MLOAD DUP2 LT PUSH2 0xBE4 JUMPI INVALID JUMPDEST SWAP1 POP PUSH2 0xD3F DUP11 DUP4 DUP2 MLOAD DUP2 LT PUSH2 0xCF8 JUMPI INVALID JUMPDEST PUSH1 0x20 MUL PUSH1 0x20 ADD ADD MLOAD PUSH2 0xD39 DUP12 DUP6 DUP2 MLOAD DUP2 LT PUSH2 0xD0F JUMPI INVALID JUMPDEST PUSH1 0x20 MUL PUSH1 0x20 ADD ADD MLOAD DUP14 DUP7 DUP2 MLOAD DUP2 LT PUSH2 0xD23 JUMPI INVALID JUMPDEST PUSH1 0x20 MUL PUSH1 0x20 ADD ADD MLOAD PUSH2 0x1497 SWAP1 SWAP2 SWAP1 PUSH4 0xFFFFFFFF AND JUMP JUMPDEST SWAP1 PUSH2 0x140E JUMP JUMPDEST DUP5 DUP4 DUP2 MLOAD DUP2 LT PUSH2 0xD4B JUMPI INVALID JUMPDEST PUSH1 0x20 MUL PUSH1 0x20 ADD ADD DUP2 DUP2 MSTORE POP POP PUSH2 0xD71 PUSH2 0xD6A DUP3 DUP7 DUP6 DUP2 MLOAD DUP2 LT PUSH2 0x94C JUMPI INVALID JUMPDEST DUP5 SWAP1 PUSH2 0x1497 JUMP JUMPDEST SWAP3 POP POP PUSH1 0x1 ADD PUSH2 0xCCC JUMP JUMPDEST POP PUSH1 0x60 DUP9 MLOAD PUSH8 0xFFFFFFFFFFFFFFFF DUP2 GT DUP1 ISZERO PUSH2 0xD97 JUMPI PUSH1 0x0 DUP1 REVERT JUMPDEST POP PUSH1 0x40 MLOAD SWAP1 DUP1 DUP3 MSTORE DUP1 PUSH1 0x20 MUL PUSH1 0x20 ADD DUP3 ADD PUSH1 0x40 MSTORE DUP1 ISZERO PUSH2 0xDC1 JUMPI DUP2 PUSH1 0x20 ADD PUSH1 0x20 DUP3 MUL DUP1 CALLDATASIZE DUP4 CALLDATACOPY ADD SWAP1 POP JUMPDEST POP SWAP1 POP PUSH1 0x0 JUMPDEST DUP10 MLOAD DUP2 LT ISZERO PUSH2 0xEAB JUMPI PUSH1 0x0 DUP4 DUP6 DUP4 DUP2 MLOAD DUP2 LT PUSH2 0xDDF JUMPI INVALID JUMPDEST PUSH1 0x20 MUL PUSH1 0x20 ADD ADD MLOAD GT ISZERO PUSH2 0xE64 JUMPI PUSH1 0x0 PUSH2 0xE10 PUSH2 0xE04 DUP7 PUSH8 0xDE0B6B3A7640000 PUSH2 0x1776 JUMP JUMPDEST DUP14 DUP6 DUP2 MLOAD DUP2 LT PUSH2 0x94C JUMPI INVALID JUMPDEST SWAP1 POP PUSH1 0x0 PUSH2 0xE3A DUP3 DUP14 DUP7 DUP2 MLOAD DUP2 LT PUSH2 0xE24 JUMPI INVALID JUMPDEST PUSH1 0x20 MUL PUSH1 0x20 ADD ADD MLOAD PUSH2 0x1776 SWAP1 SWAP2 SWAP1 PUSH4 0xFFFFFFFF AND JUMP JUMPDEST SWAP1 POP PUSH2 0xE5B PUSH2 0xE54 DUP3 PUSH8 0xDE0B6B3A7640000 DUP14 SWAP1 SUB PUSH2 0x1461 JUMP JUMPDEST DUP4 SWAP1 PUSH2 0x1497 JUMP JUMPDEST SWAP3 POP POP POP PUSH2 0xE7B JUMP JUMPDEST DUP10 DUP3 DUP2 MLOAD DUP2 LT PUSH2 0xE70 JUMPI INVALID JUMPDEST PUSH1 0x20 MUL PUSH1 0x20 ADD ADD MLOAD SWAP1 POP JUMPDEST PUSH2 0xE8B DUP2 DUP13 DUP5 DUP2 MLOAD DUP2 LT PUSH2 0xD23 JUMPI INVALID JUMPDEST DUP4 DUP4 DUP2 MLOAD DUP2 LT PUSH2 0xE97 JUMPI INVALID JUMPDEST PUSH1 0x20 SWAP1 DUP2 MUL SWAP2 SWAP1 SWAP2 ADD ADD MSTORE POP PUSH1 0x1 ADD PUSH2 0xDC7 JUMP JUMPDEST POP PUSH1 0x0 PUSH2 0xEBA DUP12 DUP12 PUSH1 0x1 PUSH2 0x98B JUMP JUMPDEST SWAP1 POP PUSH1 0x0 PUSH2 0xECA DUP13 DUP5 PUSH1 0x0 PUSH2 0x98B JUMP JUMPDEST SWAP1 POP PUSH1 0x0 PUSH2 0xED8 DUP3 DUP5 PUSH2 0x140E JUMP JUMPDEST SWAP1 POP PUSH8 0xDE0B6B3A7640000 DUP2 GT ISZERO PUSH2 0xF0D JUMPI PUSH2 0xEFF DUP11 PUSH8 0xDE0B6B3A763FFFF NOT DUP4 ADD PUSH2 0x1461 JUMP JUMPDEST SWAP8 POP POP POP POP POP POP POP POP PUSH2 0x884 JUMP JUMPDEST PUSH1 0x0 SWAP8 POP POP POP POP POP POP POP POP PUSH2 0x884 JUMP JUMPDEST PUSH1 0x0 DUP1 PUSH2 0xF2C DUP8 DUP8 PUSH1 0x1 PUSH2 0x98B JUMP JUMPDEST SWAP1 POP PUSH2 0xF3E DUP4 DUP8 DUP7 DUP2 MLOAD DUP2 LT PUSH2 0xE24 JUMPI INVALID JUMPDEST DUP7 DUP6 DUP2 MLOAD DUP2 LT PUSH2 0xF4A JUMPI INVALID JUMPDEST PUSH1 0x20 MUL PUSH1 0x20 ADD ADD DUP2 DUP2 MSTORE POP POP PUSH1 0x0 PUSH2 0xF64 DUP9 DUP9 DUP5 DUP10 PUSH2 0x15C0 JUMP JUMPDEST SWAP1 POP DUP4 DUP8 DUP7 DUP2 MLOAD DUP2 LT PUSH2 0xF73 JUMPI INVALID JUMPDEST PUSH1 0x20 MUL PUSH1 0x20 ADD ADD MLOAD ADD DUP8 DUP7 DUP2 MLOAD DUP2 LT PUSH2 0xF88 JUMPI INVALID JUMPDEST PUSH1 0x20 MUL PUSH1 0x20 ADD ADD DUP2 DUP2 MSTORE POP POP PUSH2 0xFBF PUSH1 0x1 PUSH2 0xA8E DUP10 DUP10 DUP2 MLOAD DUP2 LT PUSH2 0xFA8 JUMPI INVALID JUMPDEST PUSH1 0x20 MUL PUSH1 0x20 ADD ADD MLOAD DUP5 PUSH2 0x1776 SWAP1 SWAP2 SWAP1 PUSH4 0xFFFFFFFF AND JUMP JUMPDEST SWAP9 SWAP8 POP POP POP POP POP POP POP POP JUMP JUMPDEST PUSH1 0x0 DUP1 DUP1 JUMPDEST DUP7 MLOAD DUP2 LT ISZERO PUSH2 0xFF2 JUMPI PUSH2 0xFE8 DUP8 DUP3 DUP2 MLOAD DUP2 LT PUSH2 0xBB0 JUMPI INVALID JUMPDEST SWAP2 POP PUSH1 0x1 ADD PUSH2 0xFD0 JUMP JUMPDEST POP PUSH1 0x60 DUP6 MLOAD PUSH8 0xFFFFFFFFFFFFFFFF DUP2 GT DUP1 ISZERO PUSH2 0x100D JUMPI PUSH1 0x0 DUP1 REVERT JUMPDEST POP PUSH1 0x40 MLOAD SWAP1 DUP1 DUP3 MSTORE DUP1 PUSH1 0x20 MUL PUSH1 0x20 ADD DUP3 ADD PUSH1 0x40 MSTORE DUP1 ISZERO PUSH2 0x1037 JUMPI DUP2 PUSH1 0x20 ADD PUSH1 0x20 DUP3 MUL DUP1 CALLDATASIZE DUP4 CALLDATACOPY ADD SWAP1 POP JUMPDEST POP SWAP1 POP PUSH1 0x0 DUP1 JUMPDEST DUP9 MLOAD DUP2 LT ISZERO PUSH2 0x10F7 JUMPI PUSH1 0x0 PUSH2 0x106F DUP6 DUP12 DUP5 DUP2 MLOAD DUP2 LT PUSH2 0x1059 JUMPI INVALID JUMPDEST PUSH1 0x20 MUL PUSH1 0x20 ADD ADD MLOAD PUSH2 0x1536 SWAP1 SWAP2 SWAP1 PUSH4 0xFFFFFFFF AND JUMP JUMPDEST SWAP1 POP PUSH2 0x10AB DUP11 DUP4 DUP2 MLOAD DUP2 LT PUSH2 0x1080 JUMPI INVALID JUMPDEST PUSH1 0x20 MUL PUSH1 0x20 ADD ADD MLOAD PUSH2 0xB4C DUP12 DUP6 DUP2 MLOAD DUP2 LT PUSH2 0x1097 JUMPI INVALID JUMPDEST PUSH1 0x20 MUL PUSH1 0x20 ADD ADD MLOAD DUP14 DUP7 DUP2 MLOAD DUP2 LT PUSH2 0xE24 JUMPI INVALID JUMPDEST DUP5 DUP4 DUP2 MLOAD DUP2 LT PUSH2 0x10B7 JUMPI INVALID JUMPDEST PUSH1 0x20 MUL PUSH1 0x20 ADD ADD DUP2 DUP2 MSTORE POP POP PUSH2 0x10EC PUSH2 0xD6A DUP3 DUP7 DUP6 DUP2 MLOAD DUP2 LT PUSH2 0x10D6 JUMPI INVALID JUMPDEST PUSH1 0x20 MUL PUSH1 0x20 ADD ADD MLOAD PUSH2 0x1584 SWAP1 SWAP2 SWAP1 PUSH4 0xFFFFFFFF AND JUMP JUMPDEST SWAP3 POP POP PUSH1 0x1 ADD PUSH2 0x103E JUMP JUMPDEST POP PUSH1 0x60 DUP9 MLOAD PUSH8 0xFFFFFFFFFFFFFFFF DUP2 GT DUP1 ISZERO PUSH2 0x1112 JUMPI PUSH1 0x0 DUP1 REVERT JUMPDEST POP PUSH1 0x40 MLOAD SWAP1 DUP1 DUP3 MSTORE DUP1 PUSH1 0x20 MUL PUSH1 0x20 ADD DUP3 ADD PUSH1 0x40 MSTORE DUP1 ISZERO PUSH2 0x113C JUMPI DUP2 PUSH1 0x20 ADD PUSH1 0x20 DUP3 MUL DUP1 CALLDATASIZE DUP4 CALLDATACOPY ADD SWAP1 POP JUMPDEST POP SWAP1 POP PUSH1 0x0 JUMPDEST DUP10 MLOAD DUP2 LT ISZERO PUSH2 0x11F4 JUMPI PUSH1 0x0 DUP5 DUP3 DUP2 MLOAD DUP2 LT PUSH2 0x1159 JUMPI INVALID JUMPDEST PUSH1 0x20 MUL PUSH1 0x20 ADD ADD MLOAD DUP5 GT ISZERO PUSH2 0x11AD JUMPI PUSH1 0x0 PUSH2 0x1176 PUSH2 0xE04 DUP7 PUSH2 0x178C JUMP JUMPDEST SWAP1 POP PUSH1 0x0 PUSH2 0x118A DUP3 DUP14 DUP7 DUP2 MLOAD DUP2 LT PUSH2 0xE24 JUMPI INVALID JUMPDEST SWAP1 POP PUSH2 0x11A4 PUSH2 0xE54 DUP3 PUSH8 0xDE0B6B3A7640000 DUP14 SWAP1 SUB PUSH2 0x1536 JUMP JUMPDEST SWAP3 POP POP POP PUSH2 0x11C4 JUMP JUMPDEST DUP10 DUP3 DUP2 MLOAD DUP2 LT PUSH2 0x11B9 JUMPI INVALID JUMPDEST PUSH1 0x20 MUL PUSH1 0x20 ADD ADD MLOAD SWAP1 POP JUMPDEST PUSH2 0x11D4 DUP2 DUP13 DUP5 DUP2 MLOAD DUP2 LT PUSH2 0xE24 JUMPI INVALID JUMPDEST DUP4 DUP4 DUP2 MLOAD DUP2 LT PUSH2 0x11E0 JUMPI INVALID JUMPDEST PUSH1 0x20 SWAP1 DUP2 MUL SWAP2 SWAP1 SWAP2 ADD ADD MSTORE POP PUSH1 0x1 ADD PUSH2 0x1142 JUMP JUMPDEST POP PUSH1 0x0 PUSH2 0x1203 DUP12 DUP12 PUSH1 0x1 PUSH2 0x98B JUMP JUMPDEST SWAP1 POP PUSH1 0x0 PUSH2 0x1213 DUP13 DUP5 PUSH1 0x0 PUSH2 0x98B JUMP JUMPDEST SWAP1 POP PUSH1 0x0 PUSH2 0x1221 DUP3 DUP5 PUSH2 0x140E JUMP JUMPDEST SWAP1 POP PUSH2 0x1236 PUSH2 0x122F DUP3 PUSH2 0x178C JUMP JUMPDEST DUP12 SWAP1 PUSH2 0x1584 JUMP JUMPDEST SWAP14 SWAP13 POP POP POP POP POP POP POP POP POP POP POP POP POP JUMP JUMPDEST PUSH1 0x0 DUP1 PUSH2 0x1256 DUP9 DUP9 PUSH1 0x1 PUSH2 0x98B JUMP JUMPDEST SWAP1 POP PUSH1 0x0 PUSH2 0x126C DUP3 PUSH2 0xB52 DUP8 PUSH2 0xB4C DUP2 DUP12 PUSH2 0x1776 JUMP JUMPDEST SWAP1 POP PUSH1 0x0 PUSH2 0x127C DUP11 DUP11 DUP5 DUP12 PUSH2 0x15C0 JUMP JUMPDEST SWAP1 POP PUSH1 0x0 PUSH2 0x1290 DUP3 DUP12 DUP12 DUP2 MLOAD DUP2 LT PUSH2 0xE24 JUMPI INVALID JUMPDEST SWAP1 POP PUSH1 0x0 DUP1 JUMPDEST DUP12 MLOAD DUP2 LT ISZERO PUSH2 0x12B8 JUMPI PUSH2 0x12AE DUP13 DUP3 DUP2 MLOAD DUP2 LT PUSH2 0xBB0 JUMPI INVALID JUMPDEST SWAP2 POP PUSH1 0x1 ADD PUSH2 0x1296 JUMP JUMPDEST POP PUSH1 0x0 PUSH2 0x12CB DUP3 DUP14 DUP14 DUP2 MLOAD DUP2 LT PUSH2 0xBE4 JUMPI INVALID JUMPDEST SWAP1 POP PUSH1 0x0 PUSH2 0x12D8 DUP3 PUSH2 0x178C JUMP JUMPDEST SWAP1 POP PUSH1 0x0 PUSH2 0x12E6 DUP6 DUP4 PUSH2 0x1584 JUMP JUMPDEST SWAP1 POP PUSH1 0x0 PUSH2 0x12F4 DUP7 DUP4 PUSH2 0x1776 JUMP JUMPDEST SWAP1 POP PUSH2 0xC44 PUSH2 0xC3D DUP4 PUSH8 0xDE0B6B3A7640000 DUP15 SWAP1 SUB PUSH2 0x1461 JUMP JUMPDEST PUSH1 0x0 DUP1 PUSH2 0x131D DUP8 DUP8 DUP8 DUP8 PUSH2 0x15C0 JUMP JUMPDEST SWAP1 POP DUP1 DUP7 DUP6 DUP2 MLOAD DUP2 LT PUSH2 0x132C JUMPI INVALID JUMPDEST PUSH1 0x20 MUL PUSH1 0x20 ADD ADD MLOAD GT PUSH2 0x1343 JUMPI PUSH1 0x0 SWAP2 POP POP PUSH2 0x884 JUMP JUMPDEST PUSH1 0x0 DUP2 DUP8 DUP7 DUP2 MLOAD DUP2 LT PUSH2 0x1352 JUMPI INVALID JUMPDEST PUSH1 0x20 MUL PUSH1 0x20 ADD ADD MLOAD SUB SWAP1 POP PUSH2 0xFBF PUSH8 0xDE0B6B3A7640000 PUSH2 0xD39 DUP7 DUP5 PUSH2 0x1461 SWAP1 SWAP2 SWAP1 PUSH4 0xFFFFFFFF AND JUMP JUMPDEST PUSH1 0x0 DUP1 PUSH2 0x138B DUP8 DUP8 PUSH1 0x1 PUSH2 0x98B JUMP JUMPDEST SWAP1 POP PUSH2 0x139D DUP4 DUP8 DUP8 DUP2 MLOAD DUP2 LT PUSH2 0xD23 JUMPI INVALID JUMPDEST DUP7 DUP7 DUP2 MLOAD DUP2 LT PUSH2 0x13A9 JUMPI INVALID JUMPDEST PUSH1 0x20 MUL PUSH1 0x20 ADD ADD DUP2 DUP2 MSTORE POP POP PUSH1 0x0 PUSH2 0x13C3 DUP9 DUP9 DUP5 DUP9 PUSH2 0x15C0 JUMP JUMPDEST SWAP1 POP DUP4 DUP8 DUP8 DUP2 MLOAD DUP2 LT PUSH2 0x13D2 JUMPI INVALID JUMPDEST PUSH1 0x20 MUL PUSH1 0x20 ADD ADD MLOAD SUB DUP8 DUP8 DUP2 MLOAD DUP2 LT PUSH2 0x13E7 JUMPI INVALID JUMPDEST PUSH1 0x20 MUL PUSH1 0x20 ADD ADD DUP2 DUP2 MSTORE POP POP PUSH2 0xFBF PUSH1 0x1 PUSH2 0x1408 DUP4 DUP11 DUP10 DUP2 MLOAD DUP2 LT PUSH2 0xE24 JUMPI INVALID JUMPDEST SWAP1 PUSH2 0x1776 JUMP JUMPDEST PUSH1 0x0 PUSH2 0x141D DUP3 ISZERO ISZERO PUSH1 0x4 PUSH2 0x17B2 JUMP JUMPDEST DUP3 PUSH2 0x142A JUMPI POP PUSH1 0x0 PUSH2 0x145B JUMP JUMPDEST PUSH8 0xDE0B6B3A7640000 DUP4 DUP2 MUL SWAP1 PUSH2 0x144D SWAP1 DUP6 DUP4 DUP2 PUSH2 0x1444 JUMPI INVALID JUMPDEST DIV EQ PUSH1 0x5 PUSH2 0x17B2 JUMP JUMPDEST DUP3 DUP2 DUP2 PUSH2 0x1456 JUMPI INVALID JUMPDEST DIV SWAP2 POP POP JUMPDEST SWAP3 SWAP2 POP POP JUMP JUMPDEST PUSH1 0x0 DUP3 DUP3 MUL PUSH2 0x1485 DUP5 ISZERO DUP1 PUSH2 0x147E JUMPI POP DUP4 DUP6 DUP4 DUP2 PUSH2 0x147B JUMPI INVALID JUMPDEST DIV EQ JUMPDEST PUSH1 0x3 PUSH2 0x17B2 JUMP JUMPDEST PUSH8 0xDE0B6B3A7640000 SWAP1 DIV SWAP4 SWAP3 POP POP POP JUMP JUMPDEST PUSH1 0x0 DUP3 DUP3 ADD PUSH2 0x843 DUP5 DUP3 LT ISZERO DUP4 PUSH2 0x17B2 JUMP JUMPDEST PUSH1 0x0 DUP3 DUP3 MUL PUSH2 0x843 DUP5 ISZERO DUP1 PUSH2 0x147E JUMPI POP DUP4 DUP6 DUP4 DUP2 PUSH2 0x147B JUMPI INVALID JUMPDEST PUSH1 0x0 DUP2 PUSH2 0x14D9 JUMPI PUSH2 0x14D4 DUP5 DUP5 PUSH2 0x17C4 JUMP JUMPDEST PUSH2 0x840 JUMP JUMPDEST PUSH2 0x840 DUP5 DUP5 PUSH2 0x17E4 JUMP JUMPDEST PUSH3 0x461BCD PUSH1 0xE5 SHL PUSH1 0x0 SWAP1 DUP2 MSTORE PUSH1 0x20 PUSH1 0x4 MSTORE PUSH1 0x7 PUSH1 0x24 MSTORE PUSH7 0x42414C23000030 PUSH1 0xA DUP1 DUP5 DIV DUP2 DUP2 MOD PUSH1 0x30 SWAP1 DUP2 ADD PUSH1 0x8 SHL SWAP6 DUP4 SWAP1 MOD SWAP6 SWAP1 SWAP6 ADD SWAP1 DUP3 SWAP1 DIV SWAP2 DUP3 MOD SWAP1 SWAP5 ADD PUSH1 0x10 SHL SWAP4 SWAP1 SWAP4 ADD ADD PUSH1 0xC8 SHL PUSH1 0x44 MSTORE PUSH1 0x64 SWAP1 REVERT JUMPDEST PUSH1 0x0 PUSH2 0x1545 DUP3 ISZERO ISZERO PUSH1 0x4 PUSH2 0x17B2 JUMP JUMPDEST DUP3 PUSH2 0x1552 JUMPI POP PUSH1 0x0 PUSH2 0x145B JUMP JUMPDEST PUSH8 0xDE0B6B3A7640000 DUP4 DUP2 MUL SWAP1 PUSH2 0x156C SWAP1 DUP6 DUP4 DUP2 PUSH2 0x1444 JUMPI INVALID JUMPDEST DUP3 PUSH1 0x1 DUP3 SUB DUP2 PUSH2 0x1578 JUMPI INVALID JUMPDEST DIV PUSH1 0x1 ADD SWAP2 POP POP PUSH2 0x145B JUMP JUMPDEST PUSH1 0x0 DUP3 DUP3 MUL PUSH2 0x159E DUP5 ISZERO DUP1 PUSH2 0x147E JUMPI POP DUP4 DUP6 DUP4 DUP2 PUSH2 0x147B JUMPI INVALID JUMPDEST DUP1 PUSH2 0x15AD JUMPI PUSH1 0x0 SWAP2 POP POP PUSH2 0x145B JUMP JUMPDEST PUSH8 0xDE0B6B3A7640000 PUSH1 0x0 NOT DUP3 ADD PUSH2 0x1578 JUMP JUMPDEST PUSH1 0x0 DUP1 DUP5 MLOAD DUP7 MUL SWAP1 POP PUSH1 0x0 DUP6 PUSH1 0x0 DUP2 MLOAD DUP2 LT PUSH2 0x15D8 JUMPI INVALID JUMPDEST PUSH1 0x20 MUL PUSH1 0x20 ADD ADD MLOAD SWAP1 POP PUSH1 0x0 DUP7 MLOAD DUP8 PUSH1 0x0 DUP2 MLOAD DUP2 LT PUSH2 0x15F3 JUMPI INVALID JUMPDEST PUSH1 0x20 MUL PUSH1 0x20 ADD ADD MLOAD MUL SWAP1 POP PUSH1 0x0 PUSH1 0x1 SWAP1 POP JUMPDEST DUP8 MLOAD DUP2 LT ISZERO PUSH2 0x164C JUMPI PUSH2 0x1631 PUSH2 0x162B PUSH2 0x1624 DUP5 DUP12 DUP6 DUP2 MLOAD DUP2 LT PUSH2 0xA2E JUMPI INVALID JUMPDEST DUP11 MLOAD PUSH2 0x14A9 JUMP JUMPDEST DUP9 PUSH2 0x17C4 JUMP JUMPDEST SWAP2 POP PUSH2 0x1642 DUP9 DUP3 DUP2 MLOAD DUP2 LT PUSH2 0x9AB JUMPI INVALID JUMPDEST SWAP3 POP PUSH1 0x1 ADD PUSH2 0x1605 JUMP JUMPDEST POP DUP7 DUP6 DUP2 MLOAD DUP2 LT PUSH2 0x1659 JUMPI INVALID JUMPDEST PUSH1 0x20 MUL PUSH1 0x20 ADD ADD MLOAD DUP3 SUB SWAP2 POP PUSH1 0x0 PUSH2 0x1671 DUP8 DUP9 PUSH2 0x14A9 JUMP JUMPDEST SWAP1 POP PUSH1 0x0 PUSH2 0x16A2 PUSH2 0x1696 PUSH2 0x168E DUP5 PUSH2 0x1689 DUP10 DUP9 PUSH2 0x14A9 JUMP JUMPDEST PUSH2 0x17E4 JUMP JUMPDEST PUSH2 0x3E8 PUSH2 0x14A9 JUMP JUMPDEST DUP11 DUP10 DUP2 MLOAD DUP2 LT PUSH2 0xA2E JUMPI INVALID JUMPDEST SWAP1 POP PUSH1 0x0 PUSH2 0x16BD PUSH2 0x16B6 PUSH2 0x168E DUP12 DUP10 PUSH2 0x17C4 JUMP JUMPDEST DUP7 SWAP1 PUSH2 0x1497 JUMP JUMPDEST SWAP1 POP PUSH1 0x0 DUP1 PUSH2 0x16D9 PUSH2 0x16CF DUP7 DUP7 PUSH2 0x1497 JUMP JUMPDEST PUSH2 0x1689 DUP14 DUP7 PUSH2 0x1497 JUMP JUMPDEST SWAP1 POP PUSH1 0x0 JUMPDEST PUSH1 0xFF DUP2 LT ISZERO PUSH2 0x1759 JUMPI DUP2 SWAP3 POP PUSH2 0x170E PUSH2 0x16FB DUP7 PUSH2 0xA8E DUP6 DUP7 PUSH2 0x14A9 JUMP JUMPDEST PUSH2 0x1689 DUP15 PUSH2 0x1408 DUP9 PUSH2 0xA8E DUP9 PUSH1 0x2 PUSH2 0x14A9 JUMP JUMPDEST SWAP2 POP DUP3 DUP3 GT ISZERO PUSH2 0x1737 JUMPI PUSH1 0x1 DUP4 DUP4 SUB GT PUSH2 0x1732 JUMPI POP SWAP8 POP PUSH2 0x176E SWAP7 POP POP POP POP POP POP POP JUMP JUMPDEST PUSH2 0x1751 JUMP JUMPDEST PUSH1 0x1 DUP3 DUP5 SUB GT PUSH2 0x1751 JUMPI POP SWAP8 POP PUSH2 0x176E SWAP7 POP POP POP POP POP POP POP JUMP JUMPDEST PUSH1 0x1 ADD PUSH2 0x16DE JUMP JUMPDEST POP PUSH2 0x1765 PUSH2 0x142 PUSH2 0x14E3 JUMP JUMPDEST POP POP POP POP POP POP POP POP JUMPDEST SWAP5 SWAP4 POP POP POP POP JUMP JUMPDEST PUSH1 0x0 PUSH2 0x1786 DUP4 DUP4 GT ISZERO PUSH1 0x1 PUSH2 0x17B2 JUMP JUMPDEST POP SWAP1 SUB SWAP1 JUMP JUMPDEST PUSH1 0x0 PUSH8 0xDE0B6B3A7640000 DUP3 LT PUSH2 0x17A4 JUMPI PUSH1 0x0 PUSH2 0x145B JUMP JUMPDEST POP PUSH8 0xDE0B6B3A7640000 SUB SWAP1 JUMP JUMPDEST DUP2 PUSH2 0x17C0 JUMPI PUSH2 0x17C0 DUP2 PUSH2 0x14E3 JUMP JUMPDEST POP POP JUMP JUMPDEST PUSH1 0x0 PUSH2 0x17D3 DUP3 ISZERO ISZERO PUSH1 0x4 PUSH2 0x17B2 JUMP JUMPDEST DUP2 DUP4 DUP2 PUSH2 0x17DC JUMPI INVALID JUMPDEST DIV SWAP4 SWAP3 POP POP POP JUMP JUMPDEST PUSH1 0x0 PUSH2 0x17F3 DUP3 ISZERO ISZERO PUSH1 0x4 PUSH2 0x17B2 JUMP JUMPDEST DUP3 PUSH2 0x1800 JUMPI POP PUSH1 0x0 PUSH2 0x145B JUMP JUMPDEST DUP2 PUSH1 0x1 DUP5 SUB DUP2 PUSH2 0x180C JUMPI INVALID JUMPDEST DIV PUSH1 0x1 ADD SWAP1 POP PUSH2 0x145B JUMP INVALID LOG2 PUSH5 0x6970667358 0x22 SLT KECCAK256 0xAC CALLER 0xE5 0xF8 PUSH15 0xB7A70DDC57DD63517C4A4C67CCB975 DUP16 EQ LOG2 CALLDATACOPY PUSH1 0x67 DIV 0xCA DELEGATECALL SLT DELEGATECALL LOG0 PUSH5 0x736F6C6343 STOP SMOD ADD STOP CALLER "
				},
				"gasEstimates": {
					"creation": {
						"codeDepositCost": "1244200",
						"executionCost": "1295",
						"totalCost": "1245495"
					},
					"external": {
						"bptInForExactTokensOut(uint256,uint256[],uint256[],uint256,uint256)": "infinite",
						"calculateDueTokenProtocolSwapFeeAmount(uint256,uint256[],uint256,uint256,uint256)": "infinite",
						"exactBPTInForTokenOut(uint256,uint256[],uint256,uint256,uint256,uint256)": "infinite",
						"exactBPTInForTokensOut(uint256[],uint256,uint256)": "infinite",
						"exactTokensInForBPTOut(uint256,uint256[],uint256[],uint256,uint256)": "infinite",
						"inGivenOut(uint256,uint256[],uint256,uint256,uint256)": "infinite",
						"invariant(uint256,uint256[],bool)": "infinite",
						"outGivenIn(uint256,uint256[],uint256,uint256,uint256)": "infinite",
						"tokenInForExactBPTOut(uint256,uint256[],uint256,uint256,uint256,uint256)": "infinite"
					}
				},
				"methodIdentifiers": {
					"bptInForExactTokensOut(uint256,uint256[],uint256[],uint256,uint256)": "a89d4259",
					"calculateDueTokenProtocolSwapFeeAmount(uint256,uint256[],uint256,uint256,uint256)": "db7ad3f2",
					"exactBPTInForTokenOut(uint256,uint256[],uint256,uint256,uint256,uint256)": "cf1b8c8c",
					"exactBPTInForTokensOut(uint256[],uint256,uint256)": "1c855fa6",
					"exactTokensInForBPTOut(uint256,uint256[],uint256[],uint256,uint256)": "6fc82f29",
					"inGivenOut(uint256,uint256[],uint256,uint256,uint256)": "9cd91d3f",
					"invariant(uint256,uint256[],bool)": "32fec905",
					"outGivenIn(uint256,uint256[],uint256,uint256,uint256)": "fe2dd7ba",
					"tokenInForExactBPTOut(uint256,uint256[],uint256,uint256,uint256,uint256)": "405de978"
				}
			},
			"storageLayout": {
				"storage": [],
				"types": null
			},
			"userdoc": {
				"kind": "user",
				"methods": {},
				"version": 1
			}
		}
	}
}