{
	"data": {
		"bytecode": {
			"linkReferences": {},
			"object": "60c06040523480156200001157600080fd5b506040516200275f3803806200275f8339810160408190526200003491620000e8565b6200003f336200007b565b60a092909252600480546001600160a01b0319166001600160a01b039290921691909117905560601b6001600160601b03191660805262000129565b600080546001600160a01b038381166001600160a01b0319831681178455604051919092169283917f8be0079c531659141344cd1fd0a4f28419497f9722a3daafe3b4186f6b6457e09190a35050565b80516001600160a01b0381168114620000e357600080fd5b919050565b600080600060608486031215620000fe57600080fd5b835192506200011060208501620000cb565b91506200012060408501620000cb565b90509250925092565b60805160601c60a0516125ff62000160600039600081816102f1015261085601526000818161012b0152610d9201526125ff6000f3fe608060405234801561001057600080fd5b50600436106101215760003560e01c8063673a2a1f116100ad578063a342f23811610071578063a342f23814610321578063cac626bb14610334578063ee9ee0e414610347578063f2fde38b1461035a578063f525cb681461036d57600080fd5b8063673a2a1f146102ab578063712b772f146102c0578063715018a6146102d35780638da5cb5b146102db5780639c37ebb6146102ec57600080fd5b806323604071116100f45780632360407114610234578063411557d11461024757806346cf3e6e1461026257806351d48cea146102755780635b16ebb71461028857600080fd5b806301b1aff6146101265780630563cd7c1461016a57806305ea21831461017f57806313d21cdf14610192575b600080fd5b61014d7f000000000000000000000000000000000000000000000000000000000000000081565b6040516001600160a01b0390911681526020015b60405180910390f35b61017d610178366004611d28565b610375565b005b61014d61018d36600461206c565b610b4f565b6102076101a0366004611cb5565b6040805160608101825260008082526020820181905291810191909152506001600160a01b03908116600090815260016020818152604092839020835160608101855281549586168152600160a01b90950460ff1615159185019190915201549082015290565b6040805182516001600160a01b031681526020808401511515908201529181015190820152606001610161565b61017d610242366004611cb5565b610b62565b61014d7320dd72ed959b6147912c2e529f0a0c651c33c9ce81565b61014d610270366004611eef565b610bed565b61017d610283366004611db6565b6111a2565b61029b610296366004611cb5565b611282565b6040519015158152602001610161565b6102b361128f565b60405161016191906121c6565b61017d6102ce366004611cef565b6112a0565b61017d6113e0565b6000546001600160a01b031661014d565b6103137f000000000000000000000000000000000000000000000000000000000000000081565b604051908152602001610161565b60045461014d906001600160a01b031681565b610313610342366004611cb5565b611416565b61017d610355366004611cef565b611490565b61017d610368366004611cb5565b61153a565b6103136115d5565b6001600160a01b0384811660009081526001602052604090205485911633146103b95760405162461bcd60e51b81526004016103b090612415565b60405180910390fd5b6000856001600160a01b03166338fff2d06040518163ffffffff1660e01b8152600401602060405180830381600087803b1580156103f657600080fd5b505af115801561040a573d6000803e3d6000fd5b505050506040513d601f19601f8201168201806040525081019061042e9190611ed6565b604051631f29a8cd60e31b8152600481018290529091506000907320dd72ed959b6147912c2e529f0a0c651c33c9ce9063f94d46689060240160006040518083038186803b15801561047f57600080fd5b505afa158015610493573d6000803e3d6000fd5b505050506040513d6000823e601f3d908101601f191682016040526104bb9190810190611de4565b5050805190915085146105075760405162461bcd60e51b81526020600482015260146024820152730d2dcecc2d8d2c840d2dce0eae840d8cadccee8d60631b60448201526064016103b0565b6001600160a01b038781166000818152600160208181526040808420815160608101835281549788168152600160a01b90970460ff1615159287019290925291015484820152516370a0823160e01b8152306004820152909182916370a082319060240160206040518083038186803b15801561058357600080fd5b505afa158015610597573d6000803e3d6000fd5b505050506040513d601f19601f820116820180604052508101906105bb9190611ed6565b90508087111561060d5760405162461bcd60e51b815260206004820152601b60248201527f4e6f7420656e6f7567682042505420746f6b656e20616d6f756e74000000000060448201526064016103b0565b6000811161064c5760405162461bcd60e51b815260206004820152600c60248201526b1a5b9d985b1a59081c1bdbdb60a21b60448201526064016103b0565b866106595780915061065d565b8691505b600060018360405160200161067392919061233c565b6040516020818303038152906040529050600060405180608001604052808781526020018c8c8080602002602001604051908101604052809392919081815260200183836020028082843760009201829052509385525050506020820185905260409182015251638bdb391360e01b81529091507320dd72ed959b6147912c2e529f0a0c651c33c9ce90638bdb391390610717908a90309081908790600401612288565b600060405180830381600087803b15801561073157600080fd5b505af1158015610745573d6000803e3d6000fd5b505050508b6001600160a01b03167ffbbb3d684cc731f4eff666c8534337f397ecf7937c1ed574f8626f6cb718cc01878d8d8660405161078894939291906121d9565b60405180910390a260008686602001516107a35760016107a6565b60005b60ff16815181106107b9576107b961257a565b60209081029190910101516040516370a0823160e01b81523060048201529091506000906001600160a01b038316906370a082319060240160206040518083038186803b15801561080957600080fd5b505afa15801561081d573d6000803e3d6000fd5b505050506040513d601f19601f820116820180604052508101906108419190611ed6565b905086604001518111156109105760006127107f0000000000000000000000000000000000000000000000000000000000000000896040015184610885919061251d565b61088f91906124fe565b61089991906124dc565b6004549091506108b49084906001600160a01b0316836115e1565b8e6001600160a01b03167f52b4a48c36f647498ba38efeaed299eb5e0f7688e76359a58f55738ff7725af284600460009054906101000a90046001600160a01b031684604051610906939291906121a2565b60405180910390a2505b6000886000815181106109255761092561257a565b60209081029190910101516040516370a0823160e01b81523060048201526001600160a01b03909116906370a082319060240160206040518083038186803b15801561097057600080fd5b505afa158015610984573d6000803e3d6000fd5b505050506040513d601f19601f820116820180604052508101906109a89190611ed6565b90506109cf896000815181106109c0576109c061257a565b602002602001015133836115e1565b8e6001600160a01b03167f235d80db0a4b8dc1e99bba791b835d938cbc8cb023a88fdaba36aafd2aa9b2768a600081518110610a0d57610a0d61257a565b60200260200101513384604051610a26939291906121a2565b60405180910390a2600089600181518110610a4357610a4361257a565b60209081029190910101516040516370a0823160e01b81523060048201526001600160a01b03909116906370a082319060240160206040518083038186803b158015610a8e57600080fd5b505afa158015610aa2573d6000803e3d6000fd5b505050506040513d601f19601f82011682018060405250810190610ac69190611ed6565b9050610ade8a6001815181106109c0576109c061257a565b8f6001600160a01b03167f235d80db0a4b8dc1e99bba791b835d938cbc8cb023a88fdaba36aafd2aa9b2768b600181518110610b1c57610b1c61257a565b60200260200101513384604051610b35939291906121a2565b60405180910390a250505050505050505050505050505050565b6000610b5c600283611712565b92915050565b6000546001600160a01b03163314610b8c5760405162461bcd60e51b81526004016103b0906123e0565b600480546001600160a01b038381166001600160a01b031983168117909355604080519190921680825260208201939093527fc335ca37f71e695337f94e5078421114aee3f4c5d97e824efaf8578318e5e8c8910160405180910390a15050565b6000816040015151600214610c365760405162461bcd60e51b815260206004820152600f60248201526e6f6e6c792074776f20746f6b656e7360881b60448201526064016103b0565b610c7e8260400151600081518110610c5057610c5061257a565b602002602001015133308560600151600081518110610c7157610c7161257a565b6020026020010151611725565b610cb98260400151600181518110610c9857610c9861257a565b602002602001015133308560600151600181518110610c7157610c7161257a565b610d148260400151600081518110610cd357610cd361257a565b60200260200101517320dd72ed959b6147912c2e529f0a0c651c33c9ce8460600151600081518110610d0757610d0761257a565b602002602001015161185f565b610d628260400151600181518110610d2e57610d2e61257a565b60200260200101517320dd72ed959b6147912c2e529f0a0c651c33c9ce8460600151600181518110610d0757610d0761257a565b81516020830151604080850151608086015160e08701519251632367971960e01b81526000956001600160a01b037f00000000000000000000000000000000000000000000000000000000000000001695632367971995610dcd959294919330908a90600401612368565b602060405180830381600087803b158015610de757600080fd5b505af1158015610dfb573d6000803e3d6000fd5b505050506040513d601f19601f82011682018060405250810190610e1f9190611cd2565b90506000816001600160a01b03166338fff2d06040518163ffffffff1660e01b8152600401602060405180830381600087803b158015610e5e57600080fd5b505af1158015610e72573d6000803e3d6000fd5b505050506040513d601f19601f82011682018060405250810190610e969190611ed6565b9050816001600160a01b03167f2b416ce78f01c3304331a3a35005ee09bfb64c878f2be9849fc9909101bc61ac8286600001518760200151886040015189608001518a60e00151306000604051610ef49897969594939291906122ba565b60405180910390a26040518060600160405280336001600160a01b031681526020018560c001511515815260200185606001518660c00151610f37576001610f3a565b60005b60ff1681518110610f4d57610f4d61257a565b6020908102919091018101519091526001600160a01b038085166000908152600180845260409182902085518154958701511515600160a01b026001600160a81b03199096169416939093179390931782559290920151910155610fb2600283611987565b610fef5760405162461bcd60e51b815260206004820152600e60248201526d65786973747320616c726561647960901b60448201526064016103b0565b60408051608081018252858201518152606080870151602083015261010087015182840152600090820152905163172b958560e31b81527320dd72ed959b6147912c2e529f0a0c651c33c9ce9163b95cac289161105491859130918291600401612288565b600060405180830381600087803b15801561106e57600080fd5b505af1158015611082573d6000803e3d6000fd5b50505050816001600160a01b03167f5dcdc6c8b7b09c26d0c867e99f2b7389b69d982aa8f10b1373f84667a8f58b35856040015186606001518761010001516040516110d093929190612245565b60405180910390a2816001600160a01b0316633e5692058561012001518661014001518760a001516040518463ffffffff1660e01b815260040161111693929190612435565b600060405180830381600087803b15801561113057600080fd5b505af1158015611144573d6000803e3d6000fd5b50505050816001600160a01b03167f5b604c3eb0508fc702242270d353c7673f02b609e03862e244766785e39c278c8561012001518661014001518760a0015160405161119393929190612435565b60405180910390a25092915050565b6001600160a01b0382811660009081526001602052604090205483911633146111dd5760405162461bcd60e51b81526004016103b090612415565b604051633806be4b60e21b815282151560048201526001600160a01b0384169063e01af92c90602401600060405180830381600087803b15801561122057600080fd5b505af1158015611234573d6000803e3d6000fd5b50505050826001600160a01b03167fdc5bc5b27f91cbe9bad8b85e20c9519fb6d126629108f16d474af76579696ea983604051611275911515815260200190565b60405180910390a2505050565b6000610b5c60028361199c565b606061129b60026119be565b905090565b6000546001600160a01b031633146112ca5760405162461bcd60e51b81526004016103b0906123e0565b6112d560028361199c565b156113195760405162461bcd60e51b815260206004820152601460248201527331b0b713ba1039b5b4b690262128103a37b5b2b760611b60448201526064016103b0565b6040516370a0823160e01b81523060048201526000906001600160a01b038416906370a082319060240160206040518083038186803b15801561135b57600080fd5b505afa15801561136f573d6000803e3d6000fd5b505050506040513d601f19601f820116820180604052508101906113939190611ed6565b90506113a08383836115e1565b7f0cfb7d414a57e3fd35da9f4b61341e65026c225646228ba0262d9264f541c32e8383836040516113d3939291906121a2565b60405180910390a1505050565b6000546001600160a01b0316331461140a5760405162461bcd60e51b81526004016103b0906123e0565b61141460006119cb565b565b6040516370a0823160e01b81523060048201526000906001600160a01b038316906370a082319060240160206040518083038186803b15801561145857600080fd5b505afa15801561146c573d6000803e3d6000fd5b505050506040513d601f19601f82011682018060405250810190610b5c9190611ed6565b6001600160a01b0382811660009081526001602052604090205483911633146114cb5760405162461bcd60e51b81526004016103b090612415565b6001600160a01b0383811660008181526001602090815260409182902080548786166001600160a01b0319821681179092558351951680865291850152927f794fb907c01822765502a338368bdc2f31ef538f609dcc19be5629fee0cedcd8910160405180910390a250505050565b6000546001600160a01b031633146115645760405162461bcd60e51b81526004016103b0906123e0565b6001600160a01b0381166115c95760405162461bcd60e51b815260206004820152602660248201527f4f776e61626c653a206e6577206f776e657220697320746865207a65726f206160448201526564647265737360d01b60648201526084016103b0565b6115d2816119cb565b50565b600061129b6002611a1b565b604080516001600160a01b038481166024830152604480830185905283518084039091018152606490920183526020820180516001600160e01b031663a9059cbb60e01b179052915160009283929087169161163d9190612186565b6000604051808303816000865af19150503d806000811461167a576040519150601f19603f3d011682016040523d82523d6000602084013e61167f565b606091505b50915091508180156116a95750805115806116a95750808060200190518101906116a99190611eb9565b61170b5760405162461bcd60e51b815260206004820152602d60248201527f5472616e7366657248656c7065723a3a736166655472616e736665723a20747260448201526c185b9cd9995c8819985a5b1959609a1b60648201526084016103b0565b5050505050565b600061171e8383611a25565b9392505050565b600080856001600160a01b03166323b872dd86868660405160240161174c939291906121a2565b6040516020818303038152906040529060e01b6020820180516001600160e01b0383818316178352505050506040516117859190612186565b6000604051808303816000865af19150503d80600081146117c2576040519150601f19603f3d011682016040523d82523d6000602084013e6117c7565b606091505b50915091508180156117f15750805115806117f15750808060200190518101906117f19190611eb9565b6118575760405162461bcd60e51b815260206004820152603160248201527f5472616e7366657248656c7065723a3a7472616e7366657246726f6d3a207472604482015270185b9cd9995c919c9bdb4819985a5b1959607a1b60648201526084016103b0565b505050505050565b604080516001600160a01b038481166024830152604480830185905283518084039091018152606490920183526020820180516001600160e01b031663095ea7b360e01b17905291516000928392908716916118bb9190612186565b6000604051808303816000865af19150503d80600081146118f8576040519150601f19603f3d011682016040523d82523d6000602084013e6118fd565b606091505b50915091508180156119275750805115806119275750808060200190518101906119279190611eb9565b61170b5760405162461bcd60e51b815260206004820152602b60248201527f5472616e7366657248656c7065723a3a73616665417070726f76653a2061707060448201526a1c9bdd994819985a5b195960aa1b60648201526084016103b0565b600061171e836001600160a01b038416611a4f565b6001600160a01b0381166000908152600183016020526040812054151561171e565b6060600061171e83611a9e565b600080546001600160a01b038381166001600160a01b0319831681178455604051919092169283917f8be0079c531659141344cd1fd0a4f28419497f9722a3daafe3b4186f6b6457e09190a35050565b6000610b5c825490565b6000826000018281548110611a3c57611a3c61257a565b9060005260206000200154905092915050565b6000818152600183016020526040812054611a9657508154600181810184556000848152602080822090930184905584548482528286019093526040902091909155610b5c565b506000610b5c565b606081600001805480602002602001604051908101604052809291908181526020018280548015611aee57602002820191906000526020600020905b815481526020019060010190808311611ada575b50505050509050919050565b600082601f830112611b0b57600080fd5b81356020611b20611b1b836124b8565b612487565b80838252828201915082860187848660051b8901011115611b4057600080fd5b60005b85811015611b68578135611b56816125a6565b84529284019290840190600101611b43565b5090979650505050505050565b600082601f830112611b8657600080fd5b81356020611b96611b1b836124b8565b80838252828201915082860187848660051b8901011115611bb657600080fd5b60005b85811015611b6857813584529284019290840190600101611bb9565b600082601f830112611be657600080fd5b81516020611bf6611b1b836124b8565b80838252828201915082860187848660051b8901011115611c1657600080fd5b60005b85811015611b6857815184529284019290840190600101611c19565b8035611c40816125bb565b919050565b600082601f830112611c5657600080fd5b813567ffffffffffffffff811115611c7057611c70612590565b611c83601f8201601f1916602001612487565b818152846020838601011115611c9857600080fd5b816020850160208301376000918101602001919091529392505050565b600060208284031215611cc757600080fd5b813561171e816125a6565b600060208284031215611ce457600080fd5b815161171e816125a6565b60008060408385031215611d0257600080fd5b8235611d0d816125a6565b91506020830135611d1d816125a6565b809150509250929050565b60008060008060608587031215611d3e57600080fd5b8435611d49816125a6565b9350602085013567ffffffffffffffff80821115611d6657600080fd5b818701915087601f830112611d7a57600080fd5b813581811115611d8957600080fd5b8860208260051b8501011115611d9e57600080fd5b95986020929092019750949560400135945092505050565b60008060408385031215611dc957600080fd5b8235611dd4816125a6565b91506020830135611d1d816125bb565b600080600060608486031215611df957600080fd5b835167ffffffffffffffff80821115611e1157600080fd5b818601915086601f830112611e2557600080fd5b81516020611e35611b1b836124b8565b8083825282820191508286018b848660051b8901011115611e5557600080fd5b600096505b84871015611e81578051611e6d816125a6565b835260019690960195918301918301611e5a565b5091890151919750909350505080821115611e9b57600080fd5b50611ea886828701611bd5565b925050604084015190509250925092565b600060208284031215611ecb57600080fd5b815161171e816125bb565b600060208284031215611ee857600080fd5b5051919050565b600060208284031215611f0157600080fd5b813567ffffffffffffffff80821115611f1957600080fd5b908301906101608286031215611f2e57600080fd5b611f3661245d565b823582811115611f4557600080fd5b611f5187828601611c45565b825250602083013582811115611f6657600080fd5b611f7287828601611c45565b602083015250604083013582811115611f8a57600080fd5b611f9687828601611afa565b604083015250606083013582811115611fae57600080fd5b611fba87828601611b75565b606083015250608083013582811115611fd257600080fd5b611fde87828601611b75565b60808301525060a083013582811115611ff657600080fd5b61200287828601611b75565b60a08301525061201460c08401611c35565b60c082015260e083013560e0820152610100808401358381111561203757600080fd5b61204388828701611c45565b918301919091525061012083810135908201526101409283013592810192909252509392505050565b60006020828403121561207e57600080fd5b5035919050565b600081518084526020808501945080840160005b838110156120be5781516001600160a01b031687529582019590820190600101612099565b509495945050505050565b600081518084526020808501945080840160005b838110156120be578151875295820195908201906001016120dd565b60008151808452612111816020860160208601612534565b601f01601f19169290920160200192915050565b600081516080845261213a6080850182612085565b90506020830151848203602086015261215382826120c9565b9150506040830151848203604086015261216d82826120f9565b9150506060830151151560608501528091505092915050565b60008251612198818460208701612534565b9190910192915050565b6001600160a01b039384168152919092166020820152604081019190915260600190565b60208152600061171e6020830184612085565b6060815260006121ec6060830187612085565b82810360208401528481526001600160fb1b0385111561220b57600080fd5b8460051b808760208401378082019150506020810160008152602084830301604085015261223981866120f9565b98975050505050505050565b6060815260006122586060830186612085565b828103602084015261226a81866120c9565b9050828103604084015261227e81856120f9565b9695505050505050565b8481526001600160a01b0384811660208301528316604082015260806060820181905260009061227e90830184612125565b60006101008a83528060208401526122d48184018b6120f9565b905082810360408401526122e8818a6120f9565b905082810360608401526122fc8189612085565b9050828103608084015261231081886120c9565b60a084019690965250506001600160a01b039290921660c0830152151560e09091015295945050505050565b604081016003841061235e57634e487b7160e01b600052602160045260246000fd5b9281526020015290565b60e08152600061237b60e083018a6120f9565b828103602084015261238d818a6120f9565b905082810360408401526123a18189612085565b905082810360608401526123b581886120c9565b608084019690965250506001600160a01b039290921660a0830152151560c090910152949350505050565b6020808252818101527f4f776e61626c653a2063616c6c6572206973206e6f7420746865206f776e6572604082015260600190565b60208082526006908201526510b7bbb732b960d11b604082015260600190565b83815282602082015260606040820152600061245460608301846120c9565b95945050505050565b604051610160810167ffffffffffffffff8111828210171561248157612481612590565b60405290565b604051601f8201601f1916810167ffffffffffffffff811182821017156124b0576124b0612590565b604052919050565b600067ffffffffffffffff8211156124d2576124d2612590565b5060051b60200190565b6000826124f957634e487b7160e01b600052601260045260246000fd5b500490565b600081600019048311821515161561251857612518612564565b500290565b60008282101561252f5761252f612564565b500390565b60005b8381101561254f578181015183820152602001612537565b8381111561255e576000848401525b50505050565b634e487b7160e01b600052601160045260246000fd5b634e487b7160e01b600052603260045260246000fd5b634e487b7160e01b600052604160045260246000fd5b6001600160a01b03811681146115d257600080fd5b80151581146115d257600080fdfea2646970667358221220d6a3e12b1331d18c7c024a39f212650e90f92bd1bbef8ab27d33ef6c2fc4cfc564736f6c63430008070033",
			"opcodes": "PUSH1 0xC0 PUSH1 0x40 MSTORE CALLVALUE DUP1 ISZERO PUSH3 0x11 JUMPI PUSH1 0x0 DUP1 REVERT JUMPDEST POP PUSH1 0x40 MLOAD PUSH3 0x275F CODESIZE SUB DUP1 PUSH3 0x275F DUP4 CODECOPY DUP2 ADD PUSH1 0x40 DUP2 SWAP1 MSTORE PUSH3 0x34 SWAP2 PUSH3 0xE8 JUMP JUMPDEST PUSH3 0x3F CALLER PUSH3 0x7B JUMP JUMPDEST PUSH1 0xA0 SWAP3 SWAP1 SWAP3 MSTORE PUSH1 0x4 DUP1 SLOAD PUSH1 0x1 PUSH1 0x1 PUSH1 0xA0 SHL SUB NOT AND PUSH1 0x1 PUSH1 0x1 PUSH1 0xA0 SHL SUB SWAP3 SWAP1 SWAP3 AND SWAP2 SWAP1 SWAP2 OR SWAP1 SSTORE PUSH1 0x60 SHL PUSH1 0x1 PUSH1 0x1 PUSH1 0x60 SHL SUB NOT AND PUSH1 0x80 MSTORE PUSH3 0x129 JUMP JUMPDEST PUSH1 0x0 DUP1 SLOAD PUSH1 0x1 PUSH1 0x1 PUSH1 0xA0 SHL SUB DUP4 DUP2 AND PUSH1 0x1 PUSH1 0x1 PUSH1 0xA0 SHL SUB NOT DUP4 AND DUP2 OR DUP5 SSTORE PUSH1 0x40 MLOAD SWAP2 SWAP1 SWAP3 AND SWAP3 DUP4 SWAP2 PUSH32 0x8BE0079C531659141344CD1FD0A4F28419497F9722A3DAAFE3B4186F6B6457E0 SWAP2 SWAP1 LOG3 POP POP JUMP JUMPDEST DUP1 MLOAD PUSH1 0x1 PUSH1 0x1 PUSH1 0xA0 SHL SUB DUP2 AND DUP2 EQ PUSH3 0xE3 JUMPI PUSH1 0x0 DUP1 REVERT JUMPDEST SWAP2 SWAP1 POP JUMP JUMPDEST PUSH1 0x0 DUP1 PUSH1 0x0 PUSH1 0x60 DUP5 DUP7 SUB SLT ISZERO PUSH3 0xFE JUMPI PUSH1 0x0 DUP1 REVERT JUMPDEST DUP4 MLOAD SWAP3 POP PUSH3 0x110 PUSH1 0x20 DUP6 ADD PUSH3 0xCB JUMP JUMPDEST SWAP2 POP PUSH3 0x120 PUSH1 0x40 DUP6 ADD PUSH3 0xCB JUMP JUMPDEST SWAP1 POP SWAP3 POP SWAP3 POP SWAP3 JUMP JUMPDEST PUSH1 0x80 MLOAD PUSH1 0x60 SHR PUSH1 0xA0 MLOAD PUSH2 0x25FF PUSH3 0x160 PUSH1 0x0 CODECOPY PUSH1 0x0 DUP2 DUP2 PUSH2 0x2F1 ADD MSTORE PUSH2 0x856 ADD MSTORE PUSH1 0x0 DUP2 DUP2 PUSH2 0x12B ADD MSTORE PUSH2 0xD92 ADD MSTORE PUSH2 0x25FF PUSH1 0x0 RETURN INVALID PUSH1 0x80 PUSH1 0x40 MSTORE CALLVALUE DUP1 ISZERO PUSH2 0x10 JUMPI PUSH1 0x0 DUP1 REVERT JUMPDEST POP PUSH1 0x4 CALLDATASIZE LT PUSH2 0x121 JUMPI PUSH1 0x0 CALLDATALOAD PUSH1 0xE0 SHR DUP1 PUSH4 0x673A2A1F GT PUSH2 0xAD JUMPI DUP1 PUSH4 0xA342F238 GT PUSH2 0x71 JUMPI DUP1 PUSH4 0xA342F238 EQ PUSH2 0x321 JUMPI DUP1 PUSH4 0xCAC626BB EQ PUSH2 0x334 JUMPI DUP1 PUSH4 0xEE9EE0E4 EQ PUSH2 0x347 JUMPI DUP1 PUSH4 0xF2FDE38B EQ PUSH2 0x35A JUMPI DUP1 PUSH4 0xF525CB68 EQ PUSH2 0x36D JUMPI PUSH1 0x0 DUP1 REVERT JUMPDEST DUP1 PUSH4 0x673A2A1F EQ PUSH2 0x2AB JUMPI DUP1 PUSH4 0x712B772F EQ PUSH2 0x2C0 JUMPI DUP1 PUSH4 0x715018A6 EQ PUSH2 0x2D3 JUMPI DUP1 PUSH4 0x8DA5CB5B EQ PUSH2 0x2DB JUMPI DUP1 PUSH4 0x9C37EBB6 EQ PUSH2 0x2EC JUMPI PUSH1 0x0 DUP1 REVERT JUMPDEST DUP1 PUSH4 0x23604071 GT PUSH2 0xF4 JUMPI DUP1 PUSH4 0x23604071 EQ PUSH2 0x234 JUMPI DUP1 PUSH4 0x411557D1 EQ PUSH2 0x247 JUMPI DUP1 PUSH4 0x46CF3E6E EQ PUSH2 0x262 JUMPI DUP1 PUSH4 0x51D48CEA EQ PUSH2 0x275 JUMPI DUP1 PUSH4 0x5B16EBB7 EQ PUSH2 0x288 JUMPI PUSH1 0x0 DUP1 REVERT JUMPDEST DUP1 PUSH4 0x1B1AFF6 EQ PUSH2 0x126 JUMPI DUP1 PUSH4 0x563CD7C EQ PUSH2 0x16A JUMPI DUP1 PUSH4 0x5EA2183 EQ PUSH2 0x17F JUMPI DUP1 PUSH4 0x13D21CDF EQ PUSH2 0x192 JUMPI JUMPDEST PUSH1 0x0 DUP1 REVERT JUMPDEST PUSH2 0x14D PUSH32 0x0 DUP2 JUMP JUMPDEST PUSH1 0x40 MLOAD PUSH1 0x1 PUSH1 0x1 PUSH1 0xA0 SHL SUB SWAP1 SWAP2 AND DUP2 MSTORE PUSH1 0x20 ADD JUMPDEST PUSH1 0x40 MLOAD DUP1 SWAP2 SUB SWAP1 RETURN JUMPDEST PUSH2 0x17D PUSH2 0x178 CALLDATASIZE PUSH1 0x4 PUSH2 0x1D28 JUMP JUMPDEST PUSH2 0x375 JUMP JUMPDEST STOP JUMPDEST PUSH2 0x14D PUSH2 0x18D CALLDATASIZE PUSH1 0x4 PUSH2 0x206C JUMP JUMPDEST PUSH2 0xB4F JUMP JUMPDEST PUSH2 0x207 PUSH2 0x1A0 CALLDATASIZE PUSH1 0x4 PUSH2 0x1CB5 JUMP JUMPDEST PUSH1 0x40 DUP1 MLOAD PUSH1 0x60 DUP2 ADD DUP3 MSTORE PUSH1 0x0 DUP1 DUP3 MSTORE PUSH1 0x20 DUP3 ADD DUP2 SWAP1 MSTORE SWAP2 DUP2 ADD SWAP2 SWAP1 SWAP2 MSTORE POP PUSH1 0x1 PUSH1 0x1 PUSH1 0xA0 SHL SUB SWAP1 DUP2 AND PUSH1 0x0 SWAP1 DUP2 MSTORE PUSH1 0x1 PUSH1 0x20 DUP2 DUP2 MSTORE PUSH1 0x40 SWAP3 DUP4 SWAP1 KECCAK256 DUP4 MLOAD PUSH1 0x60 DUP2 ADD DUP6 MSTORE DUP2 SLOAD SWAP6 DUP7 AND DUP2 MSTORE PUSH1 0x1 PUSH1 0xA0 SHL SWAP1 SWAP6 DIV PUSH1 0xFF AND ISZERO ISZERO SWAP2 DUP6 ADD SWAP2 SWAP1 SWAP2 MSTORE ADD SLOAD SWAP1 DUP3 ADD MSTORE SWAP1 JUMP JUMPDEST PUSH1 0x40 DUP1 MLOAD DUP3 MLOAD PUSH1 0x1 PUSH1 0x1 PUSH1 0xA0 SHL SUB AND DUP2 MSTORE PUSH1 0x20 DUP1 DUP5 ADD MLOAD ISZERO ISZERO SWAP1 DUP3 ADD MSTORE SWAP2 DUP2 ADD MLOAD SWAP1 DUP3 ADD MSTORE PUSH1 0x60 ADD PUSH2 0x161 JUMP JUMPDEST PUSH2 0x17D PUSH2 0x242 CALLDATASIZE PUSH1 0x4 PUSH2 0x1CB5 JUMP JUMPDEST PUSH2 0xB62 JUMP JUMPDEST PUSH2 0x14D PUSH20 0x20DD72ED959B6147912C2E529F0A0C651C33C9CE DUP2 JUMP JUMPDEST PUSH2 0x14D PUSH2 0x270 CALLDATASIZE PUSH1 0x4 PUSH2 0x1EEF JUMP JUMPDEST PUSH2 0xBED JUMP JUMPDEST PUSH2 0x17D PUSH2 0x283 CALLDATASIZE PUSH1 0x4 PUSH2 0x1DB6 JUMP JUMPDEST PUSH2 0x11A2 JUMP JUMPDEST PUSH2 0x29B PUSH2 0x296 CALLDATASIZE PUSH1 0x4 PUSH2 0x1CB5 JUMP JUMPDEST PUSH2 0x1282 JUMP JUMPDEST PUSH1 0x40 MLOAD SWAP1 ISZERO ISZERO DUP2 MSTORE PUSH1 0x20 ADD PUSH2 0x161 JUMP JUMPDEST PUSH2 0x2B3 PUSH2 0x128F JUMP JUMPDEST PUSH1 0x40 MLOAD PUSH2 0x161 SWAP2 SWAP1 PUSH2 0x21C6 JUMP JUMPDEST PUSH2 0x17D PUSH2 0x2CE CALLDATASIZE PUSH1 0x4 PUSH2 0x1CEF JUMP JUMPDEST PUSH2 0x12A0 JUMP JUMPDEST PUSH2 0x17D PUSH2 0x13E0 JUMP JUMPDEST PUSH1 0x0 SLOAD PUSH1 0x1 PUSH1 0x1 PUSH1 0xA0 SHL SUB AND PUSH2 0x14D JUMP JUMPDEST PUSH2 0x313 PUSH32 0x0 DUP2 JUMP JUMPDEST PUSH1 0x40 MLOAD SWAP1 DUP2 MSTORE PUSH1 0x20 ADD PUSH2 0x161 JUMP JUMPDEST PUSH1 0x4 SLOAD PUSH2 0x14D SWAP1 PUSH1 0x1 PUSH1 0x1 PUSH1 0xA0 SHL SUB AND DUP2 JUMP JUMPDEST PUSH2 0x313 PUSH2 0x342 CALLDATASIZE PUSH1 0x4 PUSH2 0x1CB5 JUMP JUMPDEST PUSH2 0x1416 JUMP JUMPDEST PUSH2 0x17D PUSH2 0x355 CALLDATASIZE PUSH1 0x4 PUSH2 0x1CEF JUMP JUMPDEST PUSH2 0x1490 JUMP JUMPDEST PUSH2 0x17D PUSH2 0x368 CALLDATASIZE PUSH1 0x4 PUSH2 0x1CB5 JUMP JUMPDEST PUSH2 0x153A JUMP JUMPDEST PUSH2 0x313 PUSH2 0x15D5 JUMP JUMPDEST PUSH1 0x1 PUSH1 0x1 PUSH1 0xA0 SHL SUB DUP5 DUP2 AND PUSH1 0x0 SWAP1 DUP2 MSTORE PUSH1 0x1 PUSH1 0x20 MSTORE PUSH1 0x40 SWAP1 KECCAK256 SLOAD DUP6 SWAP2 AND CALLER EQ PUSH2 0x3B9 JUMPI PUSH1 0x40 MLOAD PUSH3 0x461BCD PUSH1 0xE5 SHL DUP2 MSTORE PUSH1 0x4 ADD PUSH2 0x3B0 SWAP1 PUSH2 0x2415 JUMP JUMPDEST PUSH1 0x40 MLOAD DUP1 SWAP2 SUB SWAP1 REVERT JUMPDEST PUSH1 0x0 DUP6 PUSH1 0x1 PUSH1 0x1 PUSH1 0xA0 SHL SUB AND PUSH4 0x38FFF2D0 PUSH1 0x40 MLOAD DUP2 PUSH4 0xFFFFFFFF AND PUSH1 0xE0 SHL DUP2 MSTORE PUSH1 0x4 ADD PUSH1 0x20 PUSH1 0x40 MLOAD DUP1 DUP4 SUB DUP2 PUSH1 0x0 DUP8 DUP1 EXTCODESIZE ISZERO DUP1 ISZERO PUSH2 0x3F6 JUMPI PUSH1 0x0 DUP1 REVERT JUMPDEST POP GAS CALL ISZERO DUP1 ISZERO PUSH2 0x40A JUMPI RETURNDATASIZE PUSH1 0x0 DUP1 RETURNDATACOPY RETURNDATASIZE PUSH1 0x0 REVERT JUMPDEST POP POP POP POP PUSH1 0x40 MLOAD RETURNDATASIZE PUSH1 0x1F NOT PUSH1 0x1F DUP3 ADD AND DUP3 ADD DUP1 PUSH1 0x40 MSTORE POP DUP2 ADD SWAP1 PUSH2 0x42E SWAP2 SWAP1 PUSH2 0x1ED6 JUMP JUMPDEST PUSH1 0x40 MLOAD PUSH4 0x1F29A8CD PUSH1 0xE3 SHL DUP2 MSTORE PUSH1 0x4 DUP2 ADD DUP3 SWAP1 MSTORE SWAP1 SWAP2 POP PUSH1 0x0 SWAP1 PUSH20 0x20DD72ED959B6147912C2E529F0A0C651C33C9CE SWAP1 PUSH4 0xF94D4668 SWAP1 PUSH1 0x24 ADD PUSH1 0x0 PUSH1 0x40 MLOAD DUP1 DUP4 SUB DUP2 DUP7 DUP1 EXTCODESIZE ISZERO DUP1 ISZERO PUSH2 0x47F JUMPI PUSH1 0x0 DUP1 REVERT JUMPDEST POP GAS STATICCALL ISZERO DUP1 ISZERO PUSH2 0x493 JUMPI RETURNDATASIZE PUSH1 0x0 DUP1 RETURNDATACOPY RETURNDATASIZE PUSH1 0x0 REVERT JUMPDEST POP POP POP POP PUSH1 0x40 MLOAD RETURNDATASIZE PUSH1 0x0 DUP3 RETURNDATACOPY PUSH1 0x1F RETURNDATASIZE SWAP1 DUP2 ADD PUSH1 0x1F NOT AND DUP3 ADD PUSH1 0x40 MSTORE PUSH2 0x4BB SWAP2 SWAP1 DUP2 ADD SWAP1 PUSH2 0x1DE4 JUMP JUMPDEST POP POP DUP1 MLOAD SWAP1 SWAP2 POP DUP6 EQ PUSH2 0x507 JUMPI PUSH1 0x40 MLOAD PUSH3 0x461BCD PUSH1 0xE5 SHL DUP2 MSTORE PUSH1 0x20 PUSH1 0x4 DUP3 ADD MSTORE PUSH1 0x14 PUSH1 0x24 DUP3 ADD MSTORE PUSH20 0xD2DCECC2D8D2C840D2DCE0EAE840D8CADCCEE8D PUSH1 0x63 SHL PUSH1 0x44 DUP3 ADD MSTORE PUSH1 0x64 ADD PUSH2 0x3B0 JUMP JUMPDEST PUSH1 0x1 PUSH1 0x1 PUSH1 0xA0 SHL SUB DUP8 DUP2 AND PUSH1 0x0 DUP2 DUP2 MSTORE PUSH1 0x1 PUSH1 0x20 DUP2 DUP2 MSTORE PUSH1 0x40 DUP1 DUP5 KECCAK256 DUP2 MLOAD PUSH1 0x60 DUP2 ADD DUP4 MSTORE DUP2 SLOAD SWAP8 DUP9 AND DUP2 MSTORE PUSH1 0x1 PUSH1 0xA0 SHL SWAP1 SWAP8 DIV PUSH1 0xFF AND ISZERO ISZERO SWAP3 DUP8 ADD SWAP3 SWAP1 SWAP3 MSTORE SWAP2 ADD SLOAD DUP5 DUP3 ADD MSTORE MLOAD PUSH4 0x70A08231 PUSH1 0xE0 SHL DUP2 MSTORE ADDRESS PUSH1 0x4 DUP3 ADD MSTORE SWAP1 SWAP2 DUP3 SWAP2 PUSH4 0x70A08231 SWAP1 PUSH1 0x24 ADD PUSH1 0x20 PUSH1 0x40 MLOAD DUP1 DUP4 SUB DUP2 DUP7 DUP1 EXTCODESIZE ISZERO DUP1 ISZERO PUSH2 0x583 JUMPI PUSH1 0x0 DUP1 REVERT JUMPDEST POP GAS STATICCALL ISZERO DUP1 ISZERO PUSH2 0x597 JUMPI RETURNDATASIZE PUSH1 0x0 DUP1 RETURNDATACOPY RETURNDATASIZE PUSH1 0x0 REVERT JUMPDEST POP POP POP POP PUSH1 0x40 MLOAD RETURNDATASIZE PUSH1 0x1F NOT PUSH1 0x1F DUP3 ADD AND DUP3 ADD DUP1 PUSH1 0x40 MSTORE POP DUP2 ADD SWAP1 PUSH2 0x5BB SWAP2 SWAP1 PUSH2 0x1ED6 JUMP JUMPDEST SWAP1 POP DUP1 DUP8 GT ISZERO PUSH2 0x60D JUMPI PUSH1 0x40 MLOAD PUSH3 0x461BCD PUSH1 0xE5 SHL DUP2 MSTORE PUSH1 0x20 PUSH1 0x4 DUP3 ADD MSTORE PUSH1 0x1B PUSH1 0x24 DUP3 ADD MSTORE PUSH32 0x4E6F7420656E6F7567682042505420746F6B656E20616D6F756E740000000000 PUSH1 0x44 DUP3 ADD MSTORE PUSH1 0x64 ADD PUSH2 0x3B0 JUMP JUMPDEST PUSH1 0x0 DUP2 GT PUSH2 0x64C JUMPI PUSH1 0x40 MLOAD PUSH3 0x461BCD PUSH1 0xE5 SHL DUP2 MSTORE PUSH1 0x20 PUSH1 0x4 DUP3 ADD MSTORE PUSH1 0xC PUSH1 0x24 DUP3 ADD MSTORE PUSH12 0x1A5B9D985B1A59081C1BDBDB PUSH1 0xA2 SHL PUSH1 0x44 DUP3 ADD MSTORE PUSH1 0x64 ADD PUSH2 0x3B0 JUMP JUMPDEST DUP7 PUSH2 0x659 JUMPI DUP1 SWAP2 POP PUSH2 0x65D JUMP JUMPDEST DUP7 SWAP2 POP JUMPDEST PUSH1 0x0 PUSH1 0x1 DUP4 PUSH1 0x40 MLOAD PUSH1 0x20 ADD PUSH2 0x673 SWAP3 SWAP2 SWAP1 PUSH2 0x233C JUMP JUMPDEST PUSH1 0x40 MLOAD PUSH1 0x20 DUP2 DUP4 SUB SUB DUP2 MSTORE SWAP1 PUSH1 0x40 MSTORE SWAP1 POP PUSH1 0x0 PUSH1 0x40 MLOAD DUP1 PUSH1 0x80 ADD PUSH1 0x40 MSTORE DUP1 DUP8 DUP2 MSTORE PUSH1 0x20 ADD DUP13 DUP13 DUP1 DUP1 PUSH1 0x20 MUL PUSH1 0x20 ADD PUSH1 0x40 MLOAD SWAP1 DUP2 ADD PUSH1 0x40 MSTORE DUP1 SWAP4 SWAP3 SWAP2 SWAP1 DUP2 DUP2 MSTORE PUSH1 0x20 ADD DUP4 DUP4 PUSH1 0x20 MUL DUP1 DUP3 DUP5 CALLDATACOPY PUSH1 0x0 SWAP3 ADD DUP3 SWAP1 MSTORE POP SWAP4 DUP6 MSTORE POP POP POP PUSH1 0x20 DUP3 ADD DUP6 SWAP1 MSTORE PUSH1 0x40 SWAP2 DUP3 ADD MSTORE MLOAD PUSH4 0x8BDB3913 PUSH1 0xE0 SHL DUP2 MSTORE SWAP1 SWAP2 POP PUSH20 0x20DD72ED959B6147912C2E529F0A0C651C33C9CE SWAP1 PUSH4 0x8BDB3913 SWAP1 PUSH2 0x717 SWAP1 DUP11 SWAP1 ADDRESS SWAP1 DUP2 SWAP1 DUP8 SWAP1 PUSH1 0x4 ADD PUSH2 0x2288 JUMP JUMPDEST PUSH1 0x0 PUSH1 0x40 MLOAD DUP1 DUP4 SUB DUP2 PUSH1 0x0 DUP8 DUP1 EXTCODESIZE ISZERO DUP1 ISZERO PUSH2 0x731 JUMPI PUSH1 0x0 DUP1 REVERT JUMPDEST POP GAS CALL ISZERO DUP1 ISZERO PUSH2 0x745 JUMPI RETURNDATASIZE PUSH1 0x0 DUP1 RETURNDATACOPY RETURNDATASIZE PUSH1 0x0 REVERT JUMPDEST POP POP POP POP DUP12 PUSH1 0x1 PUSH1 0x1 PUSH1 0xA0 SHL SUB AND PUSH32 0xFBBB3D684CC731F4EFF666C8534337F397ECF7937C1ED574F8626F6CB718CC01 DUP8 DUP14 DUP14 DUP7 PUSH1 0x40 MLOAD PUSH2 0x788 SWAP5 SWAP4 SWAP3 SWAP2 SWAP1 PUSH2 0x21D9 JUMP JUMPDEST PUSH1 0x40 MLOAD DUP1 SWAP2 SUB SWAP1 LOG2 PUSH1 0x0 DUP7 DUP7 PUSH1 0x20 ADD MLOAD PUSH2 0x7A3 JUMPI PUSH1 0x1 PUSH2 0x7A6 JUMP JUMPDEST PUSH1 0x0 JUMPDEST PUSH1 0xFF AND DUP2 MLOAD DUP2 LT PUSH2 0x7B9 JUMPI PUSH2 0x7B9 PUSH2 0x257A JUMP JUMPDEST PUSH1 0x20 SWAP1 DUP2 MUL SWAP2 SWAP1 SWAP2 ADD ADD MLOAD PUSH1 0x40 MLOAD PUSH4 0x70A08231 PUSH1 0xE0 SHL DUP2 MSTORE ADDRESS PUSH1 0x4 DUP3 ADD MSTORE SWAP1 SWAP2 POP PUSH1 0x0 SWAP1 PUSH1 0x1 PUSH1 0x1 PUSH1 0xA0 SHL SUB DUP4 AND SWAP1 PUSH4 0x70A08231 SWAP1 PUSH1 0x24 ADD PUSH1 0x20 PUSH1 0x40 MLOAD DUP1 DUP4 SUB DUP2 DUP7 DUP1 EXTCODESIZE ISZERO DUP1 ISZERO PUSH2 0x809 JUMPI PUSH1 0x0 DUP1 REVERT JUMPDEST POP GAS STATICCALL ISZERO DUP1 ISZERO PUSH2 0x81D JUMPI RETURNDATASIZE PUSH1 0x0 DUP1 RETURNDATACOPY RETURNDATASIZE PUSH1 0x0 REVERT JUMPDEST POP POP POP POP PUSH1 0x40 MLOAD RETURNDATASIZE PUSH1 0x1F NOT PUSH1 0x1F DUP3 ADD AND DUP3 ADD DUP1 PUSH1 0x40 MSTORE POP DUP2 ADD SWAP1 PUSH2 0x841 SWAP2 SWAP1 PUSH2 0x1ED6 JUMP JUMPDEST SWAP1 POP DUP7 PUSH1 0x40 ADD MLOAD DUP2 GT ISZERO PUSH2 0x910 JUMPI PUSH1 0x0 PUSH2 0x2710 PUSH32 0x0 DUP10 PUSH1 0x40 ADD MLOAD DUP5 PUSH2 0x885 SWAP2 SWAP1 PUSH2 0x251D JUMP JUMPDEST PUSH2 0x88F SWAP2 SWAP1 PUSH2 0x24FE JUMP JUMPDEST PUSH2 0x899 SWAP2 SWAP1 PUSH2 0x24DC JUMP JUMPDEST PUSH1 0x4 SLOAD SWAP1 SWAP2 POP PUSH2 0x8B4 SWAP1 DUP5 SWAP1 PUSH1 0x1 PUSH1 0x1 PUSH1 0xA0 SHL SUB AND DUP4 PUSH2 0x15E1 JUMP JUMPDEST DUP15 PUSH1 0x1 PUSH1 0x1 PUSH1 0xA0 SHL SUB AND PUSH32 0x52B4A48C36F647498BA38EFEAED299EB5E0F7688E76359A58F55738FF7725AF2 DUP5 PUSH1 0x4 PUSH1 0x0 SWAP1 SLOAD SWAP1 PUSH2 0x100 EXP SWAP1 DIV PUSH1 0x1 PUSH1 0x1 PUSH1 0xA0 SHL SUB AND DUP5 PUSH1 0x40 MLOAD PUSH2 0x906 SWAP4 SWAP3 SWAP2 SWAP1 PUSH2 0x21A2 JUMP JUMPDEST PUSH1 0x40 MLOAD DUP1 SWAP2 SUB SWAP1 LOG2 POP JUMPDEST PUSH1 0x0 DUP9 PUSH1 0x0 DUP2 MLOAD DUP2 LT PUSH2 0x925 JUMPI PUSH2 0x925 PUSH2 0x257A JUMP JUMPDEST PUSH1 0x20 SWAP1 DUP2 MUL SWAP2 SWAP1 SWAP2 ADD ADD MLOAD PUSH1 0x40 MLOAD PUSH4 0x70A08231 PUSH1 0xE0 SHL DUP2 MSTORE ADDRESS PUSH1 0x4 DUP3 ADD MSTORE PUSH1 0x1 PUSH1 0x1 PUSH1 0xA0 SHL SUB SWAP1 SWAP2 AND SWAP1 PUSH4 0x70A08231 SWAP1 PUSH1 0x24 ADD PUSH1 0x20 PUSH1 0x40 MLOAD DUP1 DUP4 SUB DUP2 DUP7 DUP1 EXTCODESIZE ISZERO DUP1 ISZERO PUSH2 0x970 JUMPI PUSH1 0x0 DUP1 REVERT JUMPDEST POP GAS STATICCALL ISZERO DUP1 ISZERO PUSH2 0x984 JUMPI RETURNDATASIZE PUSH1 0x0 DUP1 RETURNDATACOPY RETURNDATASIZE PUSH1 0x0 REVERT JUMPDEST POP POP POP POP PUSH1 0x40 MLOAD RETURNDATASIZE PUSH1 0x1F NOT PUSH1 0x1F DUP3 ADD AND DUP3 ADD DUP1 PUSH1 0x40 MSTORE POP DUP2 ADD SWAP1 PUSH2 0x9A8 SWAP2 SWAP1 PUSH2 0x1ED6 JUMP JUMPDEST SWAP1 POP PUSH2 0x9CF DUP10 PUSH1 0x0 DUP2 MLOAD DUP2 LT PUSH2 0x9C0 JUMPI PUSH2 0x9C0 PUSH2 0x257A JUMP JUMPDEST PUSH1 0x20 MUL PUSH1 0x20 ADD ADD MLOAD CALLER DUP4 PUSH2 0x15E1 JUMP JUMPDEST DUP15 PUSH1 0x1 PUSH1 0x1 PUSH1 0xA0 SHL SUB AND PUSH32 0x235D80DB0A4B8DC1E99BBA791B835D938CBC8CB023A88FDABA36AAFD2AA9B276 DUP11 PUSH1 0x0 DUP2 MLOAD DUP2 LT PUSH2 0xA0D JUMPI PUSH2 0xA0D PUSH2 0x257A JUMP JUMPDEST PUSH1 0x20 MUL PUSH1 0x20 ADD ADD MLOAD CALLER DUP5 PUSH1 0x40 MLOAD PUSH2 0xA26 SWAP4 SWAP3 SWAP2 SWAP1 PUSH2 0x21A2 JUMP JUMPDEST PUSH1 0x40 MLOAD DUP1 SWAP2 SUB SWAP1 LOG2 PUSH1 0x0 DUP10 PUSH1 0x1 DUP2 MLOAD DUP2 LT PUSH2 0xA43 JUMPI PUSH2 0xA43 PUSH2 0x257A JUMP JUMPDEST PUSH1 0x20 SWAP1 DUP2 MUL SWAP2 SWAP1 SWAP2 ADD ADD MLOAD PUSH1 0x40 MLOAD PUSH4 0x70A08231 PUSH1 0xE0 SHL DUP2 MSTORE ADDRESS PUSH1 0x4 DUP3 ADD MSTORE PUSH1 0x1 PUSH1 0x1 PUSH1 0xA0 SHL SUB SWAP1 SWAP2 AND SWAP1 PUSH4 0x70A08231 SWAP1 PUSH1 0x24 ADD PUSH1 0x20 PUSH1 0x40 MLOAD DUP1 DUP4 SUB DUP2 DUP7 DUP1 EXTCODESIZE ISZERO DUP1 ISZERO PUSH2 0xA8E JUMPI PUSH1 0x0 DUP1 REVERT JUMPDEST POP GAS STATICCALL ISZERO DUP1 ISZERO PUSH2 0xAA2 JUMPI RETURNDATASIZE PUSH1 0x0 DUP1 RETURNDATACOPY RETURNDATASIZE PUSH1 0x0 REVERT JUMPDEST POP POP POP POP PUSH1 0x40 MLOAD RETURNDATASIZE PUSH1 0x1F NOT PUSH1 0x1F DUP3 ADD AND DUP3 ADD DUP1 PUSH1 0x40 MSTORE POP DUP2 ADD SWAP1 PUSH2 0xAC6 SWAP2 SWAP1 PUSH2 0x1ED6 JUMP JUMPDEST SWAP1 POP PUSH2 0xADE DUP11 PUSH1 0x1 DUP2 MLOAD DUP2 LT PUSH2 0x9C0 JUMPI PUSH2 0x9C0 PUSH2 0x257A JUMP JUMPDEST DUP16 PUSH1 0x1 PUSH1 0x1 PUSH1 0xA0 SHL SUB AND PUSH32 0x235D80DB0A4B8DC1E99BBA791B835D938CBC8CB023A88FDABA36AAFD2AA9B276 DUP12 PUSH1 0x1 DUP2 MLOAD DUP2 LT PUSH2 0xB1C JUMPI PUSH2 0xB1C PUSH2 0x257A JUMP JUMPDEST PUSH1 0x20 MUL PUSH1 0x20 ADD ADD MLOAD CALLER DUP5 PUSH1 0x40 MLOAD PUSH2 0xB35 SWAP4 SWAP3 SWAP2 SWAP1 PUSH2 0x21A2 JUMP JUMPDEST PUSH1 0x40 MLOAD DUP1 SWAP2 SUB SWAP1 LOG2 POP POP POP POP POP POP POP POP POP POP POP POP POP POP POP POP JUMP JUMPDEST PUSH1 0x0 PUSH2 0xB5C PUSH1 0x2 DUP4 PUSH2 0x1712 JUMP JUMPDEST SWAP3 SWAP2 POP POP JUMP JUMPDEST PUSH1 0x0 SLOAD PUSH1 0x1 PUSH1 0x1 PUSH1 0xA0 SHL SUB AND CALLER EQ PUSH2 0xB8C JUMPI PUSH1 0x40 MLOAD PUSH3 0x461BCD PUSH1 0xE5 SHL DUP2 MSTORE PUSH1 0x4 ADD PUSH2 0x3B0 SWAP1 PUSH2 0x23E0 JUMP JUMPDEST PUSH1 0x4 DUP1 SLOAD PUSH1 0x1 PUSH1 0x1 PUSH1 0xA0 SHL SUB DUP4 DUP2 AND PUSH1 0x1 PUSH1 0x1 PUSH1 0xA0 SHL SUB NOT DUP4 AND DUP2 OR SWAP1 SWAP4 SSTORE PUSH1 0x40 DUP1 MLOAD SWAP2 SWAP1 SWAP3 AND DUP1 DUP3 MSTORE PUSH1 0x20 DUP3 ADD SWAP4 SWAP1 SWAP4 MSTORE PUSH32 0xC335CA37F71E695337F94E5078421114AEE3F4C5D97E824EFAF8578318E5E8C8 SWAP2 ADD PUSH1 0x40 MLOAD DUP1 SWAP2 SUB SWAP1 LOG1 POP POP JUMP JUMPDEST PUSH1 0x0 DUP2 PUSH1 0x40 ADD MLOAD MLOAD PUSH1 0x2 EQ PUSH2 0xC36 JUMPI PUSH1 0x40 MLOAD PUSH3 0x461BCD PUSH1 0xE5 SHL DUP2 MSTORE PUSH1 0x20 PUSH1 0x4 DUP3 ADD MSTORE PUSH1 0xF PUSH1 0x24 DUP3 ADD MSTORE PUSH15 0x6F6E6C792074776F20746F6B656E73 PUSH1 0x88 SHL PUSH1 0x44 DUP3 ADD MSTORE PUSH1 0x64 ADD PUSH2 0x3B0 JUMP JUMPDEST PUSH2 0xC7E DUP3 PUSH1 0x40 ADD MLOAD PUSH1 0x0 DUP2 MLOAD DUP2 LT PUSH2 0xC50 JUMPI PUSH2 0xC50 PUSH2 0x257A JUMP JUMPDEST PUSH1 0x20 MUL PUSH1 0x20 ADD ADD MLOAD CALLER ADDRESS DUP6 PUSH1 0x60 ADD MLOAD PUSH1 0x0 DUP2 MLOAD DUP2 LT PUSH2 0xC71 JUMPI PUSH2 0xC71 PUSH2 0x257A JUMP JUMPDEST PUSH1 0x20 MUL PUSH1 0x20 ADD ADD MLOAD PUSH2 0x1725 JUMP JUMPDEST PUSH2 0xCB9 DUP3 PUSH1 0x40 ADD MLOAD PUSH1 0x1 DUP2 MLOAD DUP2 LT PUSH2 0xC98 JUMPI PUSH2 0xC98 PUSH2 0x257A JUMP JUMPDEST PUSH1 0x20 MUL PUSH1 0x20 ADD ADD MLOAD CALLER ADDRESS DUP6 PUSH1 0x60 ADD MLOAD PUSH1 0x1 DUP2 MLOAD DUP2 LT PUSH2 0xC71 JUMPI PUSH2 0xC71 PUSH2 0x257A JUMP JUMPDEST PUSH2 0xD14 DUP3 PUSH1 0x40 ADD MLOAD PUSH1 0x0 DUP2 MLOAD DUP2 LT PUSH2 0xCD3 JUMPI PUSH2 0xCD3 PUSH2 0x257A JUMP JUMPDEST PUSH1 0x20 MUL PUSH1 0x20 ADD ADD MLOAD PUSH20 0x20DD72ED959B6147912C2E529F0A0C651C33C9CE DUP5 PUSH1 0x60 ADD MLOAD PUSH1 0x0 DUP2 MLOAD DUP2 LT PUSH2 0xD07 JUMPI PUSH2 0xD07 PUSH2 0x257A JUMP JUMPDEST PUSH1 0x20 MUL PUSH1 0x20 ADD ADD MLOAD PUSH2 0x185F JUMP JUMPDEST PUSH2 0xD62 DUP3 PUSH1 0x40 ADD MLOAD PUSH1 0x1 DUP2 MLOAD DUP2 LT PUSH2 0xD2E JUMPI PUSH2 0xD2E PUSH2 0x257A JUMP JUMPDEST PUSH1 0x20 MUL PUSH1 0x20 ADD ADD MLOAD PUSH20 0x20DD72ED959B6147912C2E529F0A0C651C33C9CE DUP5 PUSH1 0x60 ADD MLOAD PUSH1 0x1 DUP2 MLOAD DUP2 LT PUSH2 0xD07 JUMPI PUSH2 0xD07 PUSH2 0x257A JUMP JUMPDEST DUP2 MLOAD PUSH1 0x20 DUP4 ADD MLOAD PUSH1 0x40 DUP1 DUP6 ADD MLOAD PUSH1 0x80 DUP7 ADD MLOAD PUSH1 0xE0 DUP8 ADD MLOAD SWAP3 MLOAD PUSH4 0x23679719 PUSH1 0xE0 SHL DUP2 MSTORE PUSH1 0x0 SWAP6 PUSH1 0x1 PUSH1 0x1 PUSH1 0xA0 SHL SUB PUSH32 0x0 AND SWAP6 PUSH4 0x23679719 SWAP6 PUSH2 0xDCD SWAP6 SWAP3 SWAP5 SWAP2 SWAP4 ADDRESS SWAP1 DUP11 SWAP1 PUSH1 0x4 ADD PUSH2 0x2368 JUMP JUMPDEST PUSH1 0x20 PUSH1 0x40 MLOAD DUP1 DUP4 SUB DUP2 PUSH1 0x0 DUP8 DUP1 EXTCODESIZE ISZERO DUP1 ISZERO PUSH2 0xDE7 JUMPI PUSH1 0x0 DUP1 REVERT JUMPDEST POP GAS CALL ISZERO DUP1 ISZERO PUSH2 0xDFB JUMPI RETURNDATASIZE PUSH1 0x0 DUP1 RETURNDATACOPY RETURNDATASIZE PUSH1 0x0 REVERT JUMPDEST POP POP POP POP PUSH1 0x40 MLOAD RETURNDATASIZE PUSH1 0x1F NOT PUSH1 0x1F DUP3 ADD AND DUP3 ADD DUP1 PUSH1 0x40 MSTORE POP DUP2 ADD SWAP1 PUSH2 0xE1F SWAP2 SWAP1 PUSH2 0x1CD2 JUMP JUMPDEST SWAP1 POP PUSH1 0x0 DUP2 PUSH1 0x1 PUSH1 0x1 PUSH1 0xA0 SHL SUB AND PUSH4 0x38FFF2D0 PUSH1 0x40 MLOAD DUP2 PUSH4 0xFFFFFFFF AND PUSH1 0xE0 SHL DUP2 MSTORE PUSH1 0x4 ADD PUSH1 0x20 PUSH1 0x40 MLOAD DUP1 DUP4 SUB DUP2 PUSH1 0x0 DUP8 DUP1 EXTCODESIZE ISZERO DUP1 ISZERO PUSH2 0xE5E JUMPI PUSH1 0x0 DUP1 REVERT JUMPDEST POP GAS CALL ISZERO DUP1 ISZERO PUSH2 0xE72 JUMPI RETURNDATASIZE PUSH1 0x0 DUP1 RETURNDATACOPY RETURNDATASIZE PUSH1 0x0 REVERT JUMPDEST POP POP POP POP PUSH1 0x40 MLOAD RETURNDATASIZE PUSH1 0x1F NOT PUSH1 0x1F DUP3 ADD AND DUP3 ADD DUP1 PUSH1 0x40 MSTORE POP DUP2 ADD SWAP1 PUSH2 0xE96 SWAP2 SWAP1 PUSH2 0x1ED6 JUMP JUMPDEST SWAP1 POP DUP2 PUSH1 0x1 PUSH1 0x1 PUSH1 0xA0 SHL SUB AND PUSH32 0x2B416CE78F01C3304331A3A35005EE09BFB64C878F2BE9849FC9909101BC61AC DUP3 DUP7 PUSH1 0x0 ADD MLOAD DUP8 PUSH1 0x20 ADD MLOAD DUP9 PUSH1 0x40 ADD MLOAD DUP10 PUSH1 0x80 ADD MLOAD DUP11 PUSH1 0xE0 ADD MLOAD ADDRESS PUSH1 0x0 PUSH1 0x40 MLOAD PUSH2 0xEF4 SWAP9 SWAP8 SWAP7 SWAP6 SWAP5 SWAP4 SWAP3 SWAP2 SWAP1 PUSH2 0x22BA JUMP JUMPDEST PUSH1 0x40 MLOAD DUP1 SWAP2 SUB SWAP1 LOG2 PUSH1 0x40 MLOAD DUP1 PUSH1 0x60 ADD PUSH1 0x40 MSTORE DUP1 CALLER PUSH1 0x1 PUSH1 0x1 PUSH1 0xA0 SHL SUB AND DUP2 MSTORE PUSH1 0x20 ADD DUP6 PUSH1 0xC0 ADD MLOAD ISZERO ISZERO DUP2 MSTORE PUSH1 0x20 ADD DUP6 PUSH1 0x60 ADD MLOAD DUP7 PUSH1 0xC0 ADD MLOAD PUSH2 0xF37 JUMPI PUSH1 0x1 PUSH2 0xF3A JUMP JUMPDEST PUSH1 0x0 JUMPDEST PUSH1 0xFF AND DUP2 MLOAD DUP2 LT PUSH2 0xF4D JUMPI PUSH2 0xF4D PUSH2 0x257A JUMP JUMPDEST PUSH1 0x20 SWAP1 DUP2 MUL SWAP2 SWAP1 SWAP2 ADD DUP2 ADD MLOAD SWAP1 SWAP2 MSTORE PUSH1 0x1 PUSH1 0x1 PUSH1 0xA0 SHL SUB DUP1 DUP6 AND PUSH1 0x0 SWAP1 DUP2 MSTORE PUSH1 0x1 DUP1 DUP5 MSTORE PUSH1 0x40 SWAP2 DUP3 SWAP1 KECCAK256 DUP6 MLOAD DUP2 SLOAD SWAP6 DUP8 ADD MLOAD ISZERO ISZERO PUSH1 0x1 PUSH1 0xA0 SHL MUL PUSH1 0x1 PUSH1 0x1 PUSH1 0xA8 SHL SUB NOT SWAP1 SWAP7 AND SWAP5 AND SWAP4 SWAP1 SWAP4 OR SWAP4 SWAP1 SWAP4 OR DUP3 SSTORE SWAP3 SWAP1 SWAP3 ADD MLOAD SWAP2 ADD SSTORE PUSH2 0xFB2 PUSH1 0x2 DUP4 PUSH2 0x1987 JUMP JUMPDEST PUSH2 0xFEF JUMPI PUSH1 0x40 MLOAD PUSH3 0x461BCD PUSH1 0xE5 SHL DUP2 MSTORE PUSH1 0x20 PUSH1 0x4 DUP3 ADD MSTORE PUSH1 0xE PUSH1 0x24 DUP3 ADD MSTORE PUSH14 0x65786973747320616C7265616479 PUSH1 0x90 SHL PUSH1 0x44 DUP3 ADD MSTORE PUSH1 0x64 ADD PUSH2 0x3B0 JUMP JUMPDEST PUSH1 0x40 DUP1 MLOAD PUSH1 0x80 DUP2 ADD DUP3 MSTORE DUP6 DUP3 ADD MLOAD DUP2 MSTORE PUSH1 0x60 DUP1 DUP8 ADD MLOAD PUSH1 0x20 DUP4 ADD MSTORE PUSH2 0x100 DUP8 ADD MLOAD DUP3 DUP5 ADD MSTORE PUSH1 0x0 SWAP1 DUP3 ADD MSTORE SWAP1 MLOAD PUSH4 0x172B9585 PUSH1 0xE3 SHL DUP2 MSTORE PUSH20 0x20DD72ED959B6147912C2E529F0A0C651C33C9CE SWAP2 PUSH4 0xB95CAC28 SWAP2 PUSH2 0x1054 SWAP2 DUP6 SWAP2 ADDRESS SWAP2 DUP3 SWAP2 PUSH1 0x4 ADD PUSH2 0x2288 JUMP JUMPDEST PUSH1 0x0 PUSH1 0x40 MLOAD DUP1 DUP4 SUB DUP2 PUSH1 0x0 DUP8 DUP1 EXTCODESIZE ISZERO DUP1 ISZERO PUSH2 0x106E JUMPI PUSH1 0x0 DUP1 REVERT JUMPDEST POP GAS CALL ISZERO DUP1 ISZERO PUSH2 0x1082 JUMPI RETURNDATASIZE PUSH1 0x0 DUP1 RETURNDATACOPY RETURNDATASIZE PUSH1 0x0 REVERT JUMPDEST POP POP POP POP DUP2 PUSH1 0x1 PUSH1 0x1 PUSH1 0xA0 SHL SUB AND PUSH32 0x5DCDC6C8B7B09C26D0C867E99F2B7389B69D982AA8F10B1373F84667A8F58B35 DUP6 PUSH1 0x40 ADD MLOAD DUP7 PUSH1 0x60 ADD MLOAD DUP8 PUSH2 0x100 ADD MLOAD PUSH1 0x40 MLOAD PUSH2 0x10D0 SWAP4 SWAP3 SWAP2 SWAP1 PUSH2 0x2245 JUMP JUMPDEST PUSH1 0x40 MLOAD DUP1 SWAP2 SUB SWAP1 LOG2 DUP2 PUSH1 0x1 PUSH1 0x1 PUSH1 0xA0 SHL SUB AND PUSH4 0x3E569205 DUP6 PUSH2 0x120 ADD MLOAD DUP7 PUSH2 0x140 ADD MLOAD DUP8 PUSH1 0xA0 ADD MLOAD PUSH1 0x40 MLOAD DUP5 PUSH4 0xFFFFFFFF AND PUSH1 0xE0 SHL DUP2 MSTORE PUSH1 0x4 ADD PUSH2 0x1116 SWAP4 SWAP3 SWAP2 SWAP1 PUSH2 0x2435 JUMP JUMPDEST PUSH1 0x0 PUSH1 0x40 MLOAD DUP1 DUP4 SUB DUP2 PUSH1 0x0 DUP8 DUP1 EXTCODESIZE ISZERO DUP1 ISZERO PUSH2 0x1130 JUMPI PUSH1 0x0 DUP1 REVERT JUMPDEST POP GAS CALL ISZERO DUP1 ISZERO PUSH2 0x1144 JUMPI RETURNDATASIZE PUSH1 0x0 DUP1 RETURNDATACOPY RETURNDATASIZE PUSH1 0x0 REVERT JUMPDEST POP POP POP POP DUP2 PUSH1 0x1 PUSH1 0x1 PUSH1 0xA0 SHL SUB AND PUSH32 0x5B604C3EB0508FC702242270D353C7673F02B609E03862E244766785E39C278C DUP6 PUSH2 0x120 ADD MLOAD DUP7 PUSH2 0x140 ADD MLOAD DUP8 PUSH1 0xA0 ADD MLOAD PUSH1 0x40 MLOAD PUSH2 0x1193 SWAP4 SWAP3 SWAP2 SWAP1 PUSH2 0x2435 JUMP JUMPDEST PUSH1 0x40 MLOAD DUP1 SWAP2 SUB SWAP1 LOG2 POP SWAP3 SWAP2 POP POP JUMP JUMPDEST PUSH1 0x1 PUSH1 0x1 PUSH1 0xA0 SHL SUB DUP3 DUP2 AND PUSH1 0x0 SWAP1 DUP2 MSTORE PUSH1 0x1 PUSH1 0x20 MSTORE PUSH1 0x40 SWAP1 KECCAK256 SLOAD DUP4 SWAP2 AND CALLER EQ PUSH2 0x11DD JUMPI PUSH1 0x40 MLOAD PUSH3 0x461BCD PUSH1 0xE5 SHL DUP2 MSTORE PUSH1 0x4 ADD PUSH2 0x3B0 SWAP1 PUSH2 0x2415 JUMP JUMPDEST PUSH1 0x40 MLOAD PUSH4 0x3806BE4B PUSH1 0xE2 SHL DUP2 MSTORE DUP3 ISZERO ISZERO PUSH1 0x4 DUP3 ADD MSTORE PUSH1 0x1 PUSH1 0x1 PUSH1 0xA0 SHL SUB DUP5 AND SWAP1 PUSH4 0xE01AF92C SWAP1 PUSH1 0x24 ADD PUSH1 0x0 PUSH1 0x40 MLOAD DUP1 DUP4 SUB DUP2 PUSH1 0x0 DUP8 DUP1 EXTCODESIZE ISZERO DUP1 ISZERO PUSH2 0x1220 JUMPI PUSH1 0x0 DUP1 REVERT JUMPDEST POP GAS CALL ISZERO DUP1 ISZERO PUSH2 0x1234 JUMPI RETURNDATASIZE PUSH1 0x0 DUP1 RETURNDATACOPY RETURNDATASIZE PUSH1 0x0 REVERT JUMPDEST POP POP POP POP DUP3 PUSH1 0x1 PUSH1 0x1 PUSH1 0xA0 SHL SUB AND PUSH32 0xDC5BC5B27F91CBE9BAD8B85E20C9519FB6D126629108F16D474AF76579696EA9 DUP4 PUSH1 0x40 MLOAD PUSH2 0x1275 SWAP2 ISZERO ISZERO DUP2 MSTORE PUSH1 0x20 ADD SWAP1 JUMP JUMPDEST PUSH1 0x40 MLOAD DUP1 SWAP2 SUB SWAP1 LOG2 POP POP POP JUMP JUMPDEST PUSH1 0x0 PUSH2 0xB5C PUSH1 0x2 DUP4 PUSH2 0x199C JUMP JUMPDEST PUSH1 0x60 PUSH2 0x129B PUSH1 0x2 PUSH2 0x19BE JUMP JUMPDEST SWAP1 POP SWAP1 JUMP JUMPDEST PUSH1 0x0 SLOAD PUSH1 0x1 PUSH1 0x1 PUSH1 0xA0 SHL SUB AND CALLER EQ PUSH2 0x12CA JUMPI PUSH1 0x40 MLOAD PUSH3 0x461BCD PUSH1 0xE5 SHL DUP2 MSTORE PUSH1 0x4 ADD PUSH2 0x3B0 SWAP1 PUSH2 0x23E0 JUMP JUMPDEST PUSH2 0x12D5 PUSH1 0x2 DUP4 PUSH2 0x199C JUMP JUMPDEST ISZERO PUSH2 0x1319 JUMPI PUSH1 0x40 MLOAD PUSH3 0x461BCD PUSH1 0xE5 SHL DUP2 MSTORE PUSH1 0x20 PUSH1 0x4 DUP3 ADD MSTORE PUSH1 0x14 PUSH1 0x24 DUP3 ADD MSTORE PUSH20 0x31B0B713BA1039B5B4B690262128103A37B5B2B7 PUSH1 0x61 SHL PUSH1 0x44 DUP3 ADD MSTORE PUSH1 0x64 ADD PUSH2 0x3B0 JUMP JUMPDEST PUSH1 0x40 MLOAD PUSH4 0x70A08231 PUSH1 0xE0 SHL DUP2 MSTORE ADDRESS PUSH1 0x4 DUP3 ADD MSTORE PUSH1 0x0 SWAP1 PUSH1 0x1 PUSH1 0x1 PUSH1 0xA0 SHL SUB DUP5 AND SWAP1 PUSH4 0x70A08231 SWAP1 PUSH1 0x24 ADD PUSH1 0x20 PUSH1 0x40 MLOAD DUP1 DUP4 SUB DUP2 DUP7 DUP1 EXTCODESIZE ISZERO DUP1 ISZERO PUSH2 0x135B JUMPI PUSH1 0x0 DUP1 REVERT JUMPDEST POP GAS STATICCALL ISZERO DUP1 ISZERO PUSH2 0x136F JUMPI RETURNDATASIZE PUSH1 0x0 DUP1 RETURNDATACOPY RETURNDATASIZE PUSH1 0x0 REVERT JUMPDEST POP POP POP POP PUSH1 0x40 MLOAD RETURNDATASIZE PUSH1 0x1F NOT PUSH1 0x1F DUP3 ADD AND DUP3 ADD DUP1 PUSH1 0x40 MSTORE POP DUP2 ADD SWAP1 PUSH2 0x1393 SWAP2 SWAP1 PUSH2 0x1ED6 JUMP JUMPDEST SWAP1 POP PUSH2 0x13A0 DUP4 DUP4 DUP4 PUSH2 0x15E1 JUMP JUMPDEST PUSH32 0xCFB7D414A57E3FD35DA9F4B61341E65026C225646228BA0262D9264F541C32E DUP4 DUP4 DUP4 PUSH1 0x40 MLOAD PUSH2 0x13D3 SWAP4 SWAP3 SWAP2 SWAP1 PUSH2 0x21A2 JUMP JUMPDEST PUSH1 0x40 MLOAD DUP1 SWAP2 SUB SWAP1 LOG1 POP POP POP JUMP JUMPDEST PUSH1 0x0 SLOAD PUSH1 0x1 PUSH1 0x1 PUSH1 0xA0 SHL SUB AND CALLER EQ PUSH2 0x140A JUMPI PUSH1 0x40 MLOAD PUSH3 0x461BCD PUSH1 0xE5 SHL DUP2 MSTORE PUSH1 0x4 ADD PUSH2 0x3B0 SWAP1 PUSH2 0x23E0 JUMP JUMPDEST PUSH2 0x1414 PUSH1 0x0 PUSH2 0x19CB JUMP JUMPDEST JUMP JUMPDEST PUSH1 0x40 MLOAD PUSH4 0x70A08231 PUSH1 0xE0 SHL DUP2 MSTORE ADDRESS PUSH1 0x4 DUP3 ADD MSTORE PUSH1 0x0 SWAP1 PUSH1 0x1 PUSH1 0x1 PUSH1 0xA0 SHL SUB DUP4 AND SWAP1 PUSH4 0x70A08231 SWAP1 PUSH1 0x24 ADD PUSH1 0x20 PUSH1 0x40 MLOAD DUP1 DUP4 SUB DUP2 DUP7 DUP1 EXTCODESIZE ISZERO DUP1 ISZERO PUSH2 0x1458 JUMPI PUSH1 0x0 DUP1 REVERT JUMPDEST POP GAS STATICCALL ISZERO DUP1 ISZERO PUSH2 0x146C JUMPI RETURNDATASIZE PUSH1 0x0 DUP1 RETURNDATACOPY RETURNDATASIZE PUSH1 0x0 REVERT JUMPDEST POP POP POP POP PUSH1 0x40 MLOAD RETURNDATASIZE PUSH1 0x1F NOT PUSH1 0x1F DUP3 ADD AND DUP3 ADD DUP1 PUSH1 0x40 MSTORE POP DUP2 ADD SWAP1 PUSH2 0xB5C SWAP2 SWAP1 PUSH2 0x1ED6 JUMP JUMPDEST PUSH1 0x1 PUSH1 0x1 PUSH1 0xA0 SHL SUB DUP3 DUP2 AND PUSH1 0x0 SWAP1 DUP2 MSTORE PUSH1 0x1 PUSH1 0x20 MSTORE PUSH1 0x40 SWAP1 KECCAK256 SLOAD DUP4 SWAP2 AND CALLER EQ PUSH2 0x14CB JUMPI PUSH1 0x40 MLOAD PUSH3 0x461BCD PUSH1 0xE5 SHL DUP2 MSTORE PUSH1 0x4 ADD PUSH2 0x3B0 SWAP1 PUSH2 0x2415 JUMP JUMPDEST PUSH1 0x1 PUSH1 0x1 PUSH1 0xA0 SHL SUB DUP4 DUP2 AND PUSH1 0x0 DUP2 DUP2 MSTORE PUSH1 0x1 PUSH1 0x20 SWAP1 DUP2 MSTORE PUSH1 0x40 SWAP2 DUP3 SWAP1 KECCAK256 DUP1 SLOAD DUP8 DUP7 AND PUSH1 0x1 PUSH1 0x1 PUSH1 0xA0 SHL SUB NOT DUP3 AND DUP2 OR SWAP1 SWAP3 SSTORE DUP4 MLOAD SWAP6 AND DUP1 DUP7 MSTORE SWAP2 DUP6 ADD MSTORE SWAP3 PUSH32 0x794FB907C01822765502A338368BDC2F31EF538F609DCC19BE5629FEE0CEDCD8 SWAP2 ADD PUSH1 0x40 MLOAD DUP1 SWAP2 SUB SWAP1 LOG2 POP POP POP POP JUMP JUMPDEST PUSH1 0x0 SLOAD PUSH1 0x1 PUSH1 0x1 PUSH1 0xA0 SHL SUB AND CALLER EQ PUSH2 0x1564 JUMPI PUSH1 0x40 MLOAD PUSH3 0x461BCD PUSH1 0xE5 SHL DUP2 MSTORE PUSH1 0x4 ADD PUSH2 0x3B0 SWAP1 PUSH2 0x23E0 JUMP JUMPDEST PUSH1 0x1 PUSH1 0x1 PUSH1 0xA0 SHL SUB DUP2 AND PUSH2 0x15C9 JUMPI PUSH1 0x40 MLOAD PUSH3 0x461BCD PUSH1 0xE5 SHL DUP2 MSTORE PUSH1 0x20 PUSH1 0x4 DUP3 ADD MSTORE PUSH1 0x26 PUSH1 0x24 DUP3 ADD MSTORE PUSH32 0x4F776E61626C653A206E6577206F776E657220697320746865207A65726F2061 PUSH1 0x44 DUP3 ADD MSTORE PUSH6 0x646472657373 PUSH1 0xD0 SHL PUSH1 0x64 DUP3 ADD MSTORE PUSH1 0x84 ADD PUSH2 0x3B0 JUMP JUMPDEST PUSH2 0x15D2 DUP2 PUSH2 0x19CB JUMP JUMPDEST POP JUMP JUMPDEST PUSH1 0x0 PUSH2 0x129B PUSH1 0x2 PUSH2 0x1A1B JUMP JUMPDEST PUSH1 0x40 DUP1 MLOAD PUSH1 0x1 PUSH1 0x1 PUSH1 0xA0 SHL SUB DUP5 DUP2 AND PUSH1 0x24 DUP4 ADD MSTORE PUSH1 0x44 DUP1 DUP4 ADD DUP6 SWAP1 MSTORE DUP4 MLOAD DUP1 DUP5 SUB SWAP1 SWAP2 ADD DUP2 MSTORE PUSH1 0x64 SWAP1 SWAP3 ADD DUP4 MSTORE PUSH1 0x20 DUP3 ADD DUP1 MLOAD PUSH1 0x1 PUSH1 0x1 PUSH1 0xE0 SHL SUB AND PUSH4 0xA9059CBB PUSH1 0xE0 SHL OR SWAP1 MSTORE SWAP2 MLOAD PUSH1 0x0 SWAP3 DUP4 SWAP3 SWAP1 DUP8 AND SWAP2 PUSH2 0x163D SWAP2 SWAP1 PUSH2 0x2186 JUMP JUMPDEST PUSH1 0x0 PUSH1 0x40 MLOAD DUP1 DUP4 SUB DUP2 PUSH1 0x0 DUP7 GAS CALL SWAP2 POP POP RETURNDATASIZE DUP1 PUSH1 0x0 DUP2 EQ PUSH2 0x167A JUMPI PUSH1 0x40 MLOAD SWAP2 POP PUSH1 0x1F NOT PUSH1 0x3F RETURNDATASIZE ADD AND DUP3 ADD PUSH1 0x40 MSTORE RETURNDATASIZE DUP3 MSTORE RETURNDATASIZE PUSH1 0x0 PUSH1 0x20 DUP5 ADD RETURNDATACOPY PUSH2 0x167F JUMP JUMPDEST PUSH1 0x60 SWAP2 POP JUMPDEST POP SWAP2 POP SWAP2 POP DUP2 DUP1 ISZERO PUSH2 0x16A9 JUMPI POP DUP1 MLOAD ISZERO DUP1 PUSH2 0x16A9 JUMPI POP DUP1 DUP1 PUSH1 0x20 ADD SWAP1 MLOAD DUP2 ADD SWAP1 PUSH2 0x16A9 SWAP2 SWAP1 PUSH2 0x1EB9 JUMP JUMPDEST PUSH2 0x170B JUMPI PUSH1 0x40 MLOAD PUSH3 0x461BCD PUSH1 0xE5 SHL DUP2 MSTORE PUSH1 0x20 PUSH1 0x4 DUP3 ADD MSTORE PUSH1 0x2D PUSH1 0x24 DUP3 ADD MSTORE PUSH32 0x5472616E7366657248656C7065723A3A736166655472616E736665723A207472 PUSH1 0x44 DUP3 ADD MSTORE PUSH13 0x185B9CD9995C8819985A5B1959 PUSH1 0x9A SHL PUSH1 0x64 DUP3 ADD MSTORE PUSH1 0x84 ADD PUSH2 0x3B0 JUMP JUMPDEST POP POP POP POP POP JUMP JUMPDEST PUSH1 0x0 PUSH2 0x171E DUP4 DUP4 PUSH2 0x1A25 JUMP JUMPDEST SWAP4 SWAP3 POP POP POP JUMP JUMPDEST PUSH1 0x0 DUP1 DUP6 PUSH1 0x1 PUSH1 0x1 PUSH1 0xA0 SHL SUB AND PUSH4 0x23B872DD DUP7 DUP7 DUP7 PUSH1 0x40 MLOAD PUSH1 0x24 ADD PUSH2 0x174C SWAP4 SWAP3 SWAP2 SWAP1 PUSH2 0x21A2 JUMP JUMPDEST PUSH1 0x40 MLOAD PUSH1 0x20 DUP2 DUP4 SUB SUB DUP2 MSTORE SWAP1 PUSH1 0x40 MSTORE SWAP1 PUSH1 0xE0 SHL PUSH1 0x20 DUP3 ADD DUP1 MLOAD PUSH1 0x1 PUSH1 0x1 PUSH1 0xE0 SHL SUB DUP4 DUP2 DUP4 AND OR DUP4 MSTORE POP POP POP POP PUSH1 0x40 MLOAD PUSH2 0x1785 SWAP2 SWAP1 PUSH2 0x2186 JUMP JUMPDEST PUSH1 0x0 PUSH1 0x40 MLOAD DUP1 DUP4 SUB DUP2 PUSH1 0x0 DUP7 GAS CALL SWAP2 POP POP RETURNDATASIZE DUP1 PUSH1 0x0 DUP2 EQ PUSH2 0x17C2 JUMPI PUSH1 0x40 MLOAD SWAP2 POP PUSH1 0x1F NOT PUSH1 0x3F RETURNDATASIZE ADD AND DUP3 ADD PUSH1 0x40 MSTORE RETURNDATASIZE DUP3 MSTORE RETURNDATASIZE PUSH1 0x0 PUSH1 0x20 DUP5 ADD RETURNDATACOPY PUSH2 0x17C7 JUMP JUMPDEST PUSH1 0x60 SWAP2 POP JUMPDEST POP SWAP2 POP SWAP2 POP DUP2 DUP1 ISZERO PUSH2 0x17F1 JUMPI POP DUP1 MLOAD ISZERO DUP1 PUSH2 0x17F1 JUMPI POP DUP1 DUP1 PUSH1 0x20 ADD SWAP1 MLOAD DUP2 ADD SWAP1 PUSH2 0x17F1 SWAP2 SWAP1 PUSH2 0x1EB9 JUMP JUMPDEST PUSH2 0x1857 JUMPI PUSH1 0x40 MLOAD PUSH3 0x461BCD PUSH1 0xE5 SHL DUP2 MSTORE PUSH1 0x20 PUSH1 0x4 DUP3 ADD MSTORE PUSH1 0x31 PUSH1 0x24 DUP3 ADD MSTORE PUSH32 0x5472616E7366657248656C7065723A3A7472616E7366657246726F6D3A207472 PUSH1 0x44 DUP3 ADD MSTORE PUSH17 0x185B9CD9995C919C9BDB4819985A5B1959 PUSH1 0x7A SHL PUSH1 0x64 DUP3 ADD MSTORE PUSH1 0x84 ADD PUSH2 0x3B0 JUMP JUMPDEST POP POP POP POP POP POP JUMP JUMPDEST PUSH1 0x40 DUP1 MLOAD PUSH1 0x1 PUSH1 0x1 PUSH1 0xA0 SHL SUB DUP5 DUP2 AND PUSH1 0x24 DUP4 ADD MSTORE PUSH1 0x44 DUP1 DUP4 ADD DUP6 SWAP1 MSTORE DUP4 MLOAD DUP1 DUP5 SUB SWAP1 SWAP2 ADD DUP2 MSTORE PUSH1 0x64 SWAP1 SWAP3 ADD DUP4 MSTORE PUSH1 0x20 DUP3 ADD DUP1 MLOAD PUSH1 0x1 PUSH1 0x1 PUSH1 0xE0 SHL SUB AND PUSH4 0x95EA7B3 PUSH1 0xE0 SHL OR SWAP1 MSTORE SWAP2 MLOAD PUSH1 0x0 SWAP3 DUP4 SWAP3 SWAP1 DUP8 AND SWAP2 PUSH2 0x18BB SWAP2 SWAP1 PUSH2 0x2186 JUMP JUMPDEST PUSH1 0x0 PUSH1 0x40 MLOAD DUP1 DUP4 SUB DUP2 PUSH1 0x0 DUP7 GAS CALL SWAP2 POP POP RETURNDATASIZE DUP1 PUSH1 0x0 DUP2 EQ PUSH2 0x18F8 JUMPI PUSH1 0x40 MLOAD SWAP2 POP PUSH1 0x1F NOT PUSH1 0x3F RETURNDATASIZE ADD AND DUP3 ADD PUSH1 0x40 MSTORE RETURNDATASIZE DUP3 MSTORE RETURNDATASIZE PUSH1 0x0 PUSH1 0x20 DUP5 ADD RETURNDATACOPY PUSH2 0x18FD JUMP JUMPDEST PUSH1 0x60 SWAP2 POP JUMPDEST POP SWAP2 POP SWAP2 POP DUP2 DUP1 ISZERO PUSH2 0x1927 JUMPI POP DUP1 MLOAD ISZERO DUP1 PUSH2 0x1927 JUMPI POP DUP1 DUP1 PUSH1 0x20 ADD SWAP1 MLOAD DUP2 ADD SWAP1 PUSH2 0x1927 SWAP2 SWAP1 PUSH2 0x1EB9 JUMP JUMPDEST PUSH2 0x170B JUMPI PUSH1 0x40 MLOAD PUSH3 0x461BCD PUSH1 0xE5 SHL DUP2 MSTORE PUSH1 0x20 PUSH1 0x4 DUP3 ADD MSTORE PUSH1 0x2B PUSH1 0x24 DUP3 ADD MSTORE PUSH32 0x5472616E7366657248656C7065723A3A73616665417070726F76653A20617070 PUSH1 0x44 DUP3 ADD MSTORE PUSH11 0x1C9BDD994819985A5B1959 PUSH1 0xAA SHL PUSH1 0x64 DUP3 ADD MSTORE PUSH1 0x84 ADD PUSH2 0x3B0 JUMP JUMPDEST PUSH1 0x0 PUSH2 0x171E DUP4 PUSH1 0x1 PUSH1 0x1 PUSH1 0xA0 SHL SUB DUP5 AND PUSH2 0x1A4F JUMP JUMPDEST PUSH1 0x1 PUSH1 0x1 PUSH1 0xA0 SHL SUB DUP2 AND PUSH1 0x0 SWAP1 DUP2 MSTORE PUSH1 0x1 DUP4 ADD PUSH1 0x20 MSTORE PUSH1 0x40 DUP2 KECCAK256 SLOAD ISZERO ISZERO PUSH2 0x171E JUMP JUMPDEST PUSH1 0x60 PUSH1 0x0 PUSH2 0x171E DUP4 PUSH2 0x1A9E JUMP JUMPDEST PUSH1 0x0 DUP1 SLOAD PUSH1 0x1 PUSH1 0x1 PUSH1 0xA0 SHL SUB DUP4 DUP2 AND PUSH1 0x1 PUSH1 0x1 PUSH1 0xA0 SHL SUB NOT DUP4 AND DUP2 OR DUP5 SSTORE PUSH1 0x40 MLOAD SWAP2 SWAP1 SWAP3 AND SWAP3 DUP4 SWAP2 PUSH32 0x8BE0079C531659141344CD1FD0A4F28419497F9722A3DAAFE3B4186F6B6457E0 SWAP2 SWAP1 LOG3 POP POP JUMP JUMPDEST PUSH1 0x0 PUSH2 0xB5C DUP3 SLOAD SWAP1 JUMP JUMPDEST PUSH1 0x0 DUP3 PUSH1 0x0 ADD DUP3 DUP2 SLOAD DUP2 LT PUSH2 0x1A3C JUMPI PUSH2 0x1A3C PUSH2 0x257A JUMP JUMPDEST SWAP1 PUSH1 0x0 MSTORE PUSH1 0x20 PUSH1 0x0 KECCAK256 ADD SLOAD SWAP1 POP SWAP3 SWAP2 POP POP JUMP JUMPDEST PUSH1 0x0 DUP2 DUP2 MSTORE PUSH1 0x1 DUP4 ADD PUSH1 0x20 MSTORE PUSH1 0x40 DUP2 KECCAK256 SLOAD PUSH2 0x1A96 JUMPI POP DUP2 SLOAD PUSH1 0x1 DUP2 DUP2 ADD DUP5 SSTORE PUSH1 0x0 DUP5 DUP2 MSTORE PUSH1 0x20 DUP1 DUP3 KECCAK256 SWAP1 SWAP4 ADD DUP5 SWAP1 SSTORE DUP5 SLOAD DUP5 DUP3 MSTORE DUP3 DUP7 ADD SWAP1 SWAP4 MSTORE PUSH1 0x40 SWAP1 KECCAK256 SWAP2 SWAP1 SWAP2 SSTORE PUSH2 0xB5C JUMP JUMPDEST POP PUSH1 0x0 PUSH2 0xB5C JUMP JUMPDEST PUSH1 0x60 DUP2 PUSH1 0x0 ADD DUP1 SLOAD DUP1 PUSH1 0x20 MUL PUSH1 0x20 ADD PUSH1 0x40 MLOAD SWAP1 DUP2 ADD PUSH1 0x40 MSTORE DUP1 SWAP3 SWAP2 SWAP1 DUP2 DUP2 MSTORE PUSH1 0x20 ADD DUP3 DUP1 SLOAD DUP1 ISZERO PUSH2 0x1AEE JUMPI PUSH1 0x20 MUL DUP3 ADD SWAP2 SWAP1 PUSH1 0x0 MSTORE PUSH1 0x20 PUSH1 0x0 KECCAK256 SWAP1 JUMPDEST DUP2 SLOAD DUP2 MSTORE PUSH1 0x20 ADD SWAP1 PUSH1 0x1 ADD SWAP1 DUP1 DUP4 GT PUSH2 0x1ADA JUMPI JUMPDEST POP POP POP POP POP SWAP1 POP SWAP2 SWAP1 POP JUMP JUMPDEST PUSH1 0x0 DUP3 PUSH1 0x1F DUP4 ADD SLT PUSH2 0x1B0B JUMPI PUSH1 0x0 DUP1 REVERT JUMPDEST DUP2 CALLDATALOAD PUSH1 0x20 PUSH2 0x1B20 PUSH2 0x1B1B DUP4 PUSH2 0x24B8 JUMP JUMPDEST PUSH2 0x2487 JUMP JUMPDEST DUP1 DUP4 DUP3 MSTORE DUP3 DUP3 ADD SWAP2 POP DUP3 DUP7 ADD DUP8 DUP5 DUP7 PUSH1 0x5 SHL DUP10 ADD ADD GT ISZERO PUSH2 0x1B40 JUMPI PUSH1 0x0 DUP1 REVERT JUMPDEST PUSH1 0x0 JUMPDEST DUP6 DUP2 LT ISZERO PUSH2 0x1B68 JUMPI DUP2 CALLDATALOAD PUSH2 0x1B56 DUP2 PUSH2 0x25A6 JUMP JUMPDEST DUP5 MSTORE SWAP3 DUP5 ADD SWAP3 SWAP1 DUP5 ADD SWAP1 PUSH1 0x1 ADD PUSH2 0x1B43 JUMP JUMPDEST POP SWAP1 SWAP8 SWAP7 POP POP POP POP POP POP POP JUMP JUMPDEST PUSH1 0x0 DUP3 PUSH1 0x1F DUP4 ADD SLT PUSH2 0x1B86 JUMPI PUSH1 0x0 DUP1 REVERT JUMPDEST DUP2 CALLDATALOAD PUSH1 0x20 PUSH2 0x1B96 PUSH2 0x1B1B DUP4 PUSH2 0x24B8 JUMP JUMPDEST DUP1 DUP4 DUP3 MSTORE DUP3 DUP3 ADD SWAP2 POP DUP3 DUP7 ADD DUP8 DUP5 DUP7 PUSH1 0x5 SHL DUP10 ADD ADD GT ISZERO PUSH2 0x1BB6 JUMPI PUSH1 0x0 DUP1 REVERT JUMPDEST PUSH1 0x0 JUMPDEST DUP6 DUP2 LT ISZERO PUSH2 0x1B68 JUMPI DUP2 CALLDATALOAD DUP5 MSTORE SWAP3 DUP5 ADD SWAP3 SWAP1 DUP5 ADD SWAP1 PUSH1 0x1 ADD PUSH2 0x1BB9 JUMP JUMPDEST PUSH1 0x0 DUP3 PUSH1 0x1F DUP4 ADD SLT PUSH2 0x1BE6 JUMPI PUSH1 0x0 DUP1 REVERT JUMPDEST DUP2 MLOAD PUSH1 0x20 PUSH2 0x1BF6 PUSH2 0x1B1B DUP4 PUSH2 0x24B8 JUMP JUMPDEST DUP1 DUP4 DUP3 MSTORE DUP3 DUP3 ADD SWAP2 POP DUP3 DUP7 ADD DUP8 DUP5 DUP7 PUSH1 0x5 SHL DUP10 ADD ADD GT ISZERO PUSH2 0x1C16 JUMPI PUSH1 0x0 DUP1 REVERT JUMPDEST PUSH1 0x0 JUMPDEST DUP6 DUP2 LT ISZERO PUSH2 0x1B68 JUMPI DUP2 MLOAD DUP5 MSTORE SWAP3 DUP5 ADD SWAP3 SWAP1 DUP5 ADD SWAP1 PUSH1 0x1 ADD PUSH2 0x1C19 JUMP JUMPDEST DUP1 CALLDATALOAD PUSH2 0x1C40 DUP2 PUSH2 0x25BB JUMP JUMPDEST SWAP2 SWAP1 POP JUMP JUMPDEST PUSH1 0x0 DUP3 PUSH1 0x1F DUP4 ADD SLT PUSH2 0x1C56 JUMPI PUSH1 0x0 DUP1 REVERT JUMPDEST DUP2 CALLDATALOAD PUSH8 0xFFFFFFFFFFFFFFFF DUP2 GT ISZERO PUSH2 0x1C70 JUMPI PUSH2 0x1C70 PUSH2 0x2590 JUMP JUMPDEST PUSH2 0x1C83 PUSH1 0x1F DUP3 ADD PUSH1 0x1F NOT AND PUSH1 0x20 ADD PUSH2 0x2487 JUMP JUMPDEST DUP2 DUP2 MSTORE DUP5 PUSH1 0x20 DUP4 DUP7 ADD ADD GT ISZERO PUSH2 0x1C98 JUMPI PUSH1 0x0 DUP1 REVERT JUMPDEST DUP2 PUSH1 0x20 DUP6 ADD PUSH1 0x20 DUP4 ADD CALLDATACOPY PUSH1 0x0 SWAP2 DUP2 ADD PUSH1 0x20 ADD SWAP2 SWAP1 SWAP2 MSTORE SWAP4 SWAP3 POP POP POP JUMP JUMPDEST PUSH1 0x0 PUSH1 0x20 DUP3 DUP5 SUB SLT ISZERO PUSH2 0x1CC7 JUMPI PUSH1 0x0 DUP1 REVERT JUMPDEST DUP2 CALLDATALOAD PUSH2 0x171E DUP2 PUSH2 0x25A6 JUMP JUMPDEST PUSH1 0x0 PUSH1 0x20 DUP3 DUP5 SUB SLT ISZERO PUSH2 0x1CE4 JUMPI PUSH1 0x0 DUP1 REVERT JUMPDEST DUP2 MLOAD PUSH2 0x171E DUP2 PUSH2 0x25A6 JUMP JUMPDEST PUSH1 0x0 DUP1 PUSH1 0x40 DUP4 DUP6 SUB SLT ISZERO PUSH2 0x1D02 JUMPI PUSH1 0x0 DUP1 REVERT JUMPDEST DUP3 CALLDATALOAD PUSH2 0x1D0D DUP2 PUSH2 0x25A6 JUMP JUMPDEST SWAP2 POP PUSH1 0x20 DUP4 ADD CALLDATALOAD PUSH2 0x1D1D DUP2 PUSH2 0x25A6 JUMP JUMPDEST DUP1 SWAP2 POP POP SWAP3 POP SWAP3 SWAP1 POP JUMP JUMPDEST PUSH1 0x0 DUP1 PUSH1 0x0 DUP1 PUSH1 0x60 DUP6 DUP8 SUB SLT ISZERO PUSH2 0x1D3E JUMPI PUSH1 0x0 DUP1 REVERT JUMPDEST DUP5 CALLDATALOAD PUSH2 0x1D49 DUP2 PUSH2 0x25A6 JUMP JUMPDEST SWAP4 POP PUSH1 0x20 DUP6 ADD CALLDATALOAD PUSH8 0xFFFFFFFFFFFFFFFF DUP1 DUP3 GT ISZERO PUSH2 0x1D66 JUMPI PUSH1 0x0 DUP1 REVERT JUMPDEST DUP2 DUP8 ADD SWAP2 POP DUP8 PUSH1 0x1F DUP4 ADD SLT PUSH2 0x1D7A JUMPI PUSH1 0x0 DUP1 REVERT JUMPDEST DUP2 CALLDATALOAD DUP2 DUP2 GT ISZERO PUSH2 0x1D89 JUMPI PUSH1 0x0 DUP1 REVERT JUMPDEST DUP9 PUSH1 0x20 DUP3 PUSH1 0x5 SHL DUP6 ADD ADD GT ISZERO PUSH2 0x1D9E JUMPI PUSH1 0x0 DUP1 REVERT JUMPDEST SWAP6 SWAP9 PUSH1 0x20 SWAP3 SWAP1 SWAP3 ADD SWAP8 POP SWAP5 SWAP6 PUSH1 0x40 ADD CALLDATALOAD SWAP5 POP SWAP3 POP POP POP JUMP JUMPDEST PUSH1 0x0 DUP1 PUSH1 0x40 DUP4 DUP6 SUB SLT ISZERO PUSH2 0x1DC9 JUMPI PUSH1 0x0 DUP1 REVERT JUMPDEST DUP3 CALLDATALOAD PUSH2 0x1DD4 DUP2 PUSH2 0x25A6 JUMP JUMPDEST SWAP2 POP PUSH1 0x20 DUP4 ADD CALLDATALOAD PUSH2 0x1D1D DUP2 PUSH2 0x25BB JUMP JUMPDEST PUSH1 0x0 DUP1 PUSH1 0x0 PUSH1 0x60 DUP5 DUP7 SUB SLT ISZERO PUSH2 0x1DF9 JUMPI PUSH1 0x0 DUP1 REVERT JUMPDEST DUP4 MLOAD PUSH8 0xFFFFFFFFFFFFFFFF DUP1 DUP3 GT ISZERO PUSH2 0x1E11 JUMPI PUSH1 0x0 DUP1 REVERT JUMPDEST DUP2 DUP7 ADD SWAP2 POP DUP7 PUSH1 0x1F DUP4 ADD SLT PUSH2 0x1E25 JUMPI PUSH1 0x0 DUP1 REVERT JUMPDEST DUP2 MLOAD PUSH1 0x20 PUSH2 0x1E35 PUSH2 0x1B1B DUP4 PUSH2 0x24B8 JUMP JUMPDEST DUP1 DUP4 DUP3 MSTORE DUP3 DUP3 ADD SWAP2 POP DUP3 DUP7 ADD DUP12 DUP5 DUP7 PUSH1 0x5 SHL DUP10 ADD ADD GT ISZERO PUSH2 0x1E55 JUMPI PUSH1 0x0 DUP1 REVERT JUMPDEST PUSH1 0x0 SWAP7 POP JUMPDEST DUP5 DUP8 LT ISZERO PUSH2 0x1E81 JUMPI DUP1 MLOAD PUSH2 0x1E6D DUP2 PUSH2 0x25A6 JUMP JUMPDEST DUP4 MSTORE PUSH1 0x1 SWAP7 SWAP1 SWAP7 ADD SWAP6 SWAP2 DUP4 ADD SWAP2 DUP4 ADD PUSH2 0x1E5A JUMP JUMPDEST POP SWAP2 DUP10 ADD MLOAD SWAP2 SWAP8 POP SWAP1 SWAP4 POP POP POP DUP1 DUP3 GT ISZERO PUSH2 0x1E9B JUMPI PUSH1 0x0 DUP1 REVERT JUMPDEST POP PUSH2 0x1EA8 DUP7 DUP3 DUP8 ADD PUSH2 0x1BD5 JUMP JUMPDEST SWAP3 POP POP PUSH1 0x40 DUP5 ADD MLOAD SWAP1 POP SWAP3 POP SWAP3 POP SWAP3 JUMP JUMPDEST PUSH1 0x0 PUSH1 0x20 DUP3 DUP5 SUB SLT ISZERO PUSH2 0x1ECB JUMPI PUSH1 0x0 DUP1 REVERT JUMPDEST DUP2 MLOAD PUSH2 0x171E DUP2 PUSH2 0x25BB JUMP JUMPDEST PUSH1 0x0 PUSH1 0x20 DUP3 DUP5 SUB SLT ISZERO PUSH2 0x1EE8 JUMPI PUSH1 0x0 DUP1 REVERT JUMPDEST POP MLOAD SWAP2 SWAP1 POP JUMP JUMPDEST PUSH1 0x0 PUSH1 0x20 DUP3 DUP5 SUB SLT ISZERO PUSH2 0x1F01 JUMPI PUSH1 0x0 DUP1 REVERT JUMPDEST DUP2 CALLDATALOAD PUSH8 0xFFFFFFFFFFFFFFFF DUP1 DUP3 GT ISZERO PUSH2 0x1F19 JUMPI PUSH1 0x0 DUP1 REVERT JUMPDEST SWAP1 DUP4 ADD SWAP1 PUSH2 0x160 DUP3 DUP7 SUB SLT ISZERO PUSH2 0x1F2E JUMPI PUSH1 0x0 DUP1 REVERT JUMPDEST PUSH2 0x1F36 PUSH2 0x245D JUMP JUMPDEST DUP3 CALLDATALOAD DUP3 DUP2 GT ISZERO PUSH2 0x1F45 JUMPI PUSH1 0x0 DUP1 REVERT JUMPDEST PUSH2 0x1F51 DUP8 DUP3 DUP7 ADD PUSH2 0x1C45 JUMP JUMPDEST DUP3 MSTORE POP PUSH1 0x20 DUP4 ADD CALLDATALOAD DUP3 DUP2 GT ISZERO PUSH2 0x1F66 JUMPI PUSH1 0x0 DUP1 REVERT JUMPDEST PUSH2 0x1F72 DUP8 DUP3 DUP7 ADD PUSH2 0x1C45 JUMP JUMPDEST PUSH1 0x20 DUP4 ADD MSTORE POP PUSH1 0x40 DUP4 ADD CALLDATALOAD DUP3 DUP2 GT ISZERO PUSH2 0x1F8A JUMPI PUSH1 0x0 DUP1 REVERT JUMPDEST PUSH2 0x1F96 DUP8 DUP3 DUP7 ADD PUSH2 0x1AFA JUMP JUMPDEST PUSH1 0x40 DUP4 ADD MSTORE POP PUSH1 0x60 DUP4 ADD CALLDATALOAD DUP3 DUP2 GT ISZERO PUSH2 0x1FAE JUMPI PUSH1 0x0 DUP1 REVERT JUMPDEST PUSH2 0x1FBA DUP8 DUP3 DUP7 ADD PUSH2 0x1B75 JUMP JUMPDEST PUSH1 0x60 DUP4 ADD MSTORE POP PUSH1 0x80 DUP4 ADD CALLDATALOAD DUP3 DUP2 GT ISZERO PUSH2 0x1FD2 JUMPI PUSH1 0x0 DUP1 REVERT JUMPDEST PUSH2 0x1FDE DUP8 DUP3 DUP7 ADD PUSH2 0x1B75 JUMP JUMPDEST PUSH1 0x80 DUP4 ADD MSTORE POP PUSH1 0xA0 DUP4 ADD CALLDATALOAD DUP3 DUP2 GT ISZERO PUSH2 0x1FF6 JUMPI PUSH1 0x0 DUP1 REVERT JUMPDEST PUSH2 0x2002 DUP8 DUP3 DUP7 ADD PUSH2 0x1B75 JUMP JUMPDEST PUSH1 0xA0 DUP4 ADD MSTORE POP PUSH2 0x2014 PUSH1 0xC0 DUP5 ADD PUSH2 0x1C35 JUMP JUMPDEST PUSH1 0xC0 DUP3 ADD MSTORE PUSH1 0xE0 DUP4 ADD CALLDATALOAD PUSH1 0xE0 DUP3 ADD MSTORE PUSH2 0x100 DUP1 DUP5 ADD CALLDATALOAD DUP4 DUP2 GT ISZERO PUSH2 0x2037 JUMPI PUSH1 0x0 DUP1 REVERT JUMPDEST PUSH2 0x2043 DUP9 DUP3 DUP8 ADD PUSH2 0x1C45 JUMP JUMPDEST SWAP2 DUP4 ADD SWAP2 SWAP1 SWAP2 MSTORE POP PUSH2 0x120 DUP4 DUP2 ADD CALLDATALOAD SWAP1 DUP3 ADD MSTORE PUSH2 0x140 SWAP3 DUP4 ADD CALLDATALOAD SWAP3 DUP2 ADD SWAP3 SWAP1 SWAP3 MSTORE POP SWAP4 SWAP3 POP POP POP JUMP JUMPDEST PUSH1 0x0 PUSH1 0x20 DUP3 DUP5 SUB SLT ISZERO PUSH2 0x207E JUMPI PUSH1 0x0 DUP1 REVERT JUMPDEST POP CALLDATALOAD SWAP2 SWAP1 POP JUMP JUMPDEST PUSH1 0x0 DUP2 MLOAD DUP1 DUP5 MSTORE PUSH1 0x20 DUP1 DUP6 ADD SWAP5 POP DUP1 DUP5 ADD PUSH1 0x0 JUMPDEST DUP4 DUP2 LT ISZERO PUSH2 0x20BE JUMPI DUP2 MLOAD PUSH1 0x1 PUSH1 0x1 PUSH1 0xA0 SHL SUB AND DUP8 MSTORE SWAP6 DUP3 ADD SWAP6 SWAP1 DUP3 ADD SWAP1 PUSH1 0x1 ADD PUSH2 0x2099 JUMP JUMPDEST POP SWAP5 SWAP6 SWAP5 POP POP POP POP POP JUMP JUMPDEST PUSH1 0x0 DUP2 MLOAD DUP1 DUP5 MSTORE PUSH1 0x20 DUP1 DUP6 ADD SWAP5 POP DUP1 DUP5 ADD PUSH1 0x0 JUMPDEST DUP4 DUP2 LT ISZERO PUSH2 0x20BE JUMPI DUP2 MLOAD DUP8 MSTORE SWAP6 DUP3 ADD SWAP6 SWAP1 DUP3 ADD SWAP1 PUSH1 0x1 ADD PUSH2 0x20DD JUMP JUMPDEST PUSH1 0x0 DUP2 MLOAD DUP1 DUP5 MSTORE PUSH2 0x2111 DUP2 PUSH1 0x20 DUP7 ADD PUSH1 0x20 DUP7 ADD PUSH2 0x2534 JUMP JUMPDEST PUSH1 0x1F ADD PUSH1 0x1F NOT AND SWAP3 SWAP1 SWAP3 ADD PUSH1 0x20 ADD SWAP3 SWAP2 POP POP JUMP JUMPDEST PUSH1 0x0 DUP2 MLOAD PUSH1 0x80 DUP5 MSTORE PUSH2 0x213A PUSH1 0x80 DUP6 ADD DUP3 PUSH2 0x2085 JUMP JUMPDEST SWAP1 POP PUSH1 0x20 DUP4 ADD MLOAD DUP5 DUP3 SUB PUSH1 0x20 DUP7 ADD MSTORE PUSH2 0x2153 DUP3 DUP3 PUSH2 0x20C9 JUMP JUMPDEST SWAP2 POP POP PUSH1 0x40 DUP4 ADD MLOAD DUP5 DUP3 SUB PUSH1 0x40 DUP7 ADD MSTORE PUSH2 0x216D DUP3 DUP3 PUSH2 0x20F9 JUMP JUMPDEST SWAP2 POP POP PUSH1 0x60 DUP4 ADD MLOAD ISZERO ISZERO PUSH1 0x60 DUP6 ADD MSTORE DUP1 SWAP2 POP POP SWAP3 SWAP2 POP POP JUMP JUMPDEST PUSH1 0x0 DUP3 MLOAD PUSH2 0x2198 DUP2 DUP5 PUSH1 0x20 DUP8 ADD PUSH2 0x2534 JUMP JUMPDEST SWAP2 SWAP1 SWAP2 ADD SWAP3 SWAP2 POP POP JUMP JUMPDEST PUSH1 0x1 PUSH1 0x1 PUSH1 0xA0 SHL SUB SWAP4 DUP5 AND DUP2 MSTORE SWAP2 SWAP1 SWAP3 AND PUSH1 0x20 DUP3 ADD MSTORE PUSH1 0x40 DUP2 ADD SWAP2 SWAP1 SWAP2 MSTORE PUSH1 0x60 ADD SWAP1 JUMP JUMPDEST PUSH1 0x20 DUP2 MSTORE PUSH1 0x0 PUSH2 0x171E PUSH1 0x20 DUP4 ADD DUP5 PUSH2 0x2085 JUMP JUMPDEST PUSH1 0x60 DUP2 MSTORE PUSH1 0x0 PUSH2 0x21EC PUSH1 0x60 DUP4 ADD DUP8 PUSH2 0x2085 JUMP JUMPDEST DUP3 DUP2 SUB PUSH1 0x20 DUP5 ADD MSTORE DUP5 DUP2 MSTORE PUSH1 0x1 PUSH1 0x1 PUSH1 0xFB SHL SUB DUP6 GT ISZERO PUSH2 0x220B JUMPI PUSH1 0x0 DUP1 REVERT JUMPDEST DUP5 PUSH1 0x5 SHL DUP1 DUP8 PUSH1 0x20 DUP5 ADD CALLDATACOPY DUP1 DUP3 ADD SWAP2 POP POP PUSH1 0x20 DUP2 ADD PUSH1 0x0 DUP2 MSTORE PUSH1 0x20 DUP5 DUP4 SUB ADD PUSH1 0x40 DUP6 ADD MSTORE PUSH2 0x2239 DUP2 DUP7 PUSH2 0x20F9 JUMP JUMPDEST SWAP9 SWAP8 POP POP POP POP POP POP POP POP JUMP JUMPDEST PUSH1 0x60 DUP2 MSTORE PUSH1 0x0 PUSH2 0x2258 PUSH1 0x60 DUP4 ADD DUP7 PUSH2 0x2085 JUMP JUMPDEST DUP3 DUP2 SUB PUSH1 0x20 DUP5 ADD MSTORE PUSH2 0x226A DUP2 DUP7 PUSH2 0x20C9 JUMP JUMPDEST SWAP1 POP DUP3 DUP2 SUB PUSH1 0x40 DUP5 ADD MSTORE PUSH2 0x227E DUP2 DUP6 PUSH2 0x20F9 JUMP JUMPDEST SWAP7 SWAP6 POP POP POP POP POP POP JUMP JUMPDEST DUP5 DUP2 MSTORE PUSH1 0x1 PUSH1 0x1 PUSH1 0xA0 SHL SUB DUP5 DUP2 AND PUSH1 0x20 DUP4 ADD MSTORE DUP4 AND PUSH1 0x40 DUP3 ADD MSTORE PUSH1 0x80 PUSH1 0x60 DUP3 ADD DUP2 SWAP1 MSTORE PUSH1 0x0 SWAP1 PUSH2 0x227E SWAP1 DUP4 ADD DUP5 PUSH2 0x2125 JUMP JUMPDEST PUSH1 0x0 PUSH2 0x100 DUP11 DUP4 MSTORE DUP1 PUSH1 0x20 DUP5 ADD MSTORE PUSH2 0x22D4 DUP2 DUP5 ADD DUP12 PUSH2 0x20F9 JUMP JUMPDEST SWAP1 POP DUP3 DUP2 SUB PUSH1 0x40 DUP5 ADD MSTORE PUSH2 0x22E8 DUP2 DUP11 PUSH2 0x20F9 JUMP JUMPDEST SWAP1 POP DUP3 DUP2 SUB PUSH1 0x60 DUP5 ADD MSTORE PUSH2 0x22FC DUP2 DUP10 PUSH2 0x2085 JUMP JUMPDEST SWAP1 POP DUP3 DUP2 SUB PUSH1 0x80 DUP5 ADD MSTORE PUSH2 0x2310 DUP2 DUP9 PUSH2 0x20C9 JUMP JUMPDEST PUSH1 0xA0 DUP5 ADD SWAP7 SWAP1 SWAP7 MSTORE POP POP PUSH1 0x1 PUSH1 0x1 PUSH1 0xA0 SHL SUB SWAP3 SWAP1 SWAP3 AND PUSH1 0xC0 DUP4 ADD MSTORE ISZERO ISZERO PUSH1 0xE0 SWAP1 SWAP2 ADD MSTORE SWAP6 SWAP5 POP POP POP POP POP JUMP JUMPDEST PUSH1 0x40 DUP2 ADD PUSH1 0x3 DUP5 LT PUSH2 0x235E JUMPI PUSH4 0x4E487B71 PUSH1 0xE0 SHL PUSH1 0x0 MSTORE PUSH1 0x21 PUSH1 0x4 MSTORE PUSH1 0x24 PUSH1 0x0 REVERT JUMPDEST SWAP3 DUP2 MSTORE PUSH1 0x20 ADD MSTORE SWAP1 JUMP JUMPDEST PUSH1 0xE0 DUP2 MSTORE PUSH1 0x0 PUSH2 0x237B PUSH1 0xE0 DUP4 ADD DUP11 PUSH2 0x20F9 JUMP JUMPDEST DUP3 DUP2 SUB PUSH1 0x20 DUP5 ADD MSTORE PUSH2 0x238D DUP2 DUP11 PUSH2 0x20F9 JUMP JUMPDEST SWAP1 POP DUP3 DUP2 SUB PUSH1 0x40 DUP5 ADD MSTORE PUSH2 0x23A1 DUP2 DUP10 PUSH2 0x2085 JUMP JUMPDEST SWAP1 POP DUP3 DUP2 SUB PUSH1 0x60 DUP5 ADD MSTORE PUSH2 0x23B5 DUP2 DUP9 PUSH2 0x20C9 JUMP JUMPDEST PUSH1 0x80 DUP5 ADD SWAP7 SWAP1 SWAP7 MSTORE POP POP PUSH1 0x1 PUSH1 0x1 PUSH1 0xA0 SHL SUB SWAP3 SWAP1 SWAP3 AND PUSH1 0xA0 DUP4 ADD MSTORE ISZERO ISZERO PUSH1 0xC0 SWAP1 SWAP2 ADD MSTORE SWAP5 SWAP4 POP POP POP POP JUMP JUMPDEST PUSH1 0x20 DUP1 DUP3 MSTORE DUP2 DUP2 ADD MSTORE PUSH32 0x4F776E61626C653A2063616C6C6572206973206E6F7420746865206F776E6572 PUSH1 0x40 DUP3 ADD MSTORE PUSH1 0x60 ADD SWAP1 JUMP JUMPDEST PUSH1 0x20 DUP1 DUP3 MSTORE PUSH1 0x6 SWAP1 DUP3 ADD MSTORE PUSH6 0x10B7BBB732B9 PUSH1 0xD1 SHL PUSH1 0x40 DUP3 ADD MSTORE PUSH1 0x60 ADD SWAP1 JUMP JUMPDEST DUP4 DUP2 MSTORE DUP3 PUSH1 0x20 DUP3 ADD MSTORE PUSH1 0x60 PUSH1 0x40 DUP3 ADD MSTORE PUSH1 0x0 PUSH2 0x2454 PUSH1 0x60 DUP4 ADD DUP5 PUSH2 0x20C9 JUMP JUMPDEST SWAP6 SWAP5 POP POP POP POP POP JUMP JUMPDEST PUSH1 0x40 MLOAD PUSH2 0x160 DUP2 ADD PUSH8 0xFFFFFFFFFFFFFFFF DUP2 GT DUP3 DUP3 LT OR ISZERO PUSH2 0x2481 JUMPI PUSH2 0x2481 PUSH2 0x2590 JUMP JUMPDEST PUSH1 0x40 MSTORE SWAP1 JUMP JUMPDEST PUSH1 0x40 MLOAD PUSH1 0x1F DUP3 ADD PUSH1 0x1F NOT AND DUP2 ADD PUSH8 0xFFFFFFFFFFFFFFFF DUP2 GT DUP3 DUP3 LT OR ISZERO PUSH2 0x24B0 JUMPI PUSH2 0x24B0 PUSH2 0x2590 JUMP JUMPDEST PUSH1 0x40 MSTORE SWAP2 SWAP1 POP JUMP JUMPDEST PUSH1 0x0 PUSH8 0xFFFFFFFFFFFFFFFF DUP3 GT ISZERO PUSH2 0x24D2 JUMPI PUSH2 0x24D2 PUSH2 0x2590 JUMP JUMPDEST POP PUSH1 0x5 SHL PUSH1 0x20 ADD SWAP1 JUMP JUMPDEST PUSH1 0x0 DUP3 PUSH2 0x24F9 JUMPI PUSH4 0x4E487B71 PUSH1 0xE0 SHL PUSH1 0x0 MSTORE PUSH1 0x12 PUSH1 0x4 MSTORE PUSH1 0x24 PUSH1 0x0 REVERT JUMPDEST POP DIV SWAP1 JUMP JUMPDEST PUSH1 0x0 DUP2 PUSH1 0x0 NOT DIV DUP4 GT DUP3 ISZERO ISZERO AND ISZERO PUSH2 0x2518 JUMPI PUSH2 0x2518 PUSH2 0x2564 JUMP JUMPDEST POP MUL SWAP1 JUMP JUMPDEST PUSH1 0x0 DUP3 DUP3 LT ISZERO PUSH2 0x252F JUMPI PUSH2 0x252F PUSH2 0x2564 JUMP JUMPDEST POP SUB SWAP1 JUMP JUMPDEST PUSH1 0x0 JUMPDEST DUP4 DUP2 LT ISZERO PUSH2 0x254F JUMPI DUP2 DUP2 ADD MLOAD DUP4 DUP3 ADD MSTORE PUSH1 0x20 ADD PUSH2 0x2537 JUMP JUMPDEST DUP4 DUP2 GT ISZERO PUSH2 0x255E JUMPI PUSH1 0x0 DUP5 DUP5 ADD MSTORE JUMPDEST POP POP POP POP JUMP JUMPDEST PUSH4 0x4E487B71 PUSH1 0xE0 SHL PUSH1 0x0 MSTORE PUSH1 0x11 PUSH1 0x4 MSTORE PUSH1 0x24 PUSH1 0x0 REVERT JUMPDEST PUSH4 0x4E487B71 PUSH1 0xE0 SHL PUSH1 0x0 MSTORE PUSH1 0x32 PUSH1 0x4 MSTORE PUSH1 0x24 PUSH1 0x0 REVERT JUMPDEST PUSH4 0x4E487B71 PUSH1 0xE0 SHL PUSH1 0x0 MSTORE PUSH1 0x41 PUSH1 0x4 MSTORE PUSH1 0x24 PUSH1 0x0 REVERT JUMPDEST PUSH1 0x1 PUSH1 0x1 PUSH1 0xA0 SHL SUB DUP2 AND DUP2 EQ PUSH2 0x15D2 JUMPI PUSH1 0x0 DUP1 REVERT JUMPDEST DUP1 ISZERO ISZERO DUP2 EQ PUSH2 0x15D2 JUMPI PUSH1 0x0 DUP1 REVERT INVALID LOG2 PUSH5 0x6970667358 0x22 SLT KECCAK256 0xD6 LOG3 0xE1 0x2B SGT BALANCE 0xD1 DUP13 PUSH29 0x24A39F212650E90F92BD1BBEF8AB27D33EF6C2FC4CFC564736F6C6343 STOP ADDMOD SMOD STOP CALLER "
		},
		"gasEstimates": {
			"creation": {
				"codeDepositCost": "1945400",
				"executionCost": "infinite",
				"totalCost": "infinite"
			},
			"external": {
				"VAULT()": "250",
				"_LBPFactoryAddress()": "infinite",
				"_feeBPS()": "infinite",
				"_feeRecipient()": "2348",
				"changeFeeRecipient(address)": "28078",
				"createAuction((string,string,address[],uint256[],uint256[],uint256[],bool,uint256,bytes,uint256,uint256))": "infinite",
				"exitPool(address,uint256[],uint256)": "infinite",
				"getBPTTokenBalance(address)": "infinite",
				"getPoolAt(uint256)": "4751",
				"getPoolData(address)": "5028",
				"getPools()": "infinite",
				"isPool(address)": "infinite",
				"owner()": "2409",
				"poolCount()": "2480",
				"renounceOwnership()": "28181",
				"setSwapEnabled(address,bool)": "infinite",
				"skim(address,address)": "infinite",
				"transferOwnership(address)": "infinite",
				"transferPoolOwnership(address,address)": "infinite"
			}
		},
		"methodIdentifiers": {
			"VAULT()": "411557d1",
			"_LBPFactoryAddress()": "01b1aff6",
			"_feeBPS()": "9c37ebb6",
			"_feeRecipient()": "a342f238",
			"changeFeeRecipient(address)": "23604071",
			"createAuction((string,string,address[],uint256[],uint256[],uint256[],bool,uint256,bytes,uint256,uint256))": "46cf3e6e",
			"exitPool(address,uint256[],uint256)": "0563cd7c",
			"getBPTTokenBalance(address)": "cac626bb",
			"getPoolAt(uint256)": "05ea2183",
			"getPoolData(address)": "13d21cdf",
			"getPools()": "673a2a1f",
			"isPool(address)": "5b16ebb7",
			"owner()": "8da5cb5b",
			"poolCount()": "f525cb68",
			"renounceOwnership()": "715018a6",
			"setSwapEnabled(address,bool)": "51d48cea",
			"skim(address,address)": "712b772f",
			"transferOwnership(address)": "f2fde38b",
			"transferPoolOwnership(address,address)": "ee9ee0e4"
		}
	},
	"abi": [
		{
			"inputs": [
				{
					"internalType": "uint256",
					"name": "feeBPS",
					"type": "uint256"
				},
				{
					"internalType": "address",
					"name": "feeRecipient",
					"type": "address"
				},
				{
					"internalType": "address",
					"name": "LBPFactoryAddress",
					"type": "address"
				}
			],
			"stateMutability": "nonpayable",
			"type": "constructor"
		},
		{
			"anonymous": false,
			"inputs": [
				{
					"indexed": false,
					"internalType": "address",
					"name": "previousRecipient",
					"type": "address"
				},
				{
					"indexed": false,
					"internalType": "address",
					"name": "newRecipient",
					"type": "address"
				}
			],
			"name": "ChangedFeeRecipient",
			"type": "event"
		},
		{
			"anonymous": false,
			"inputs": [
				{
					"indexed": true,
					"internalType": "address",
					"name": "pool",
					"type": "address"
				},
				{
					"indexed": false,
					"internalType": "address[]",
					"name": "tokens",
					"type": "address[]"
				},
				{
					"indexed": false,
					"internalType": "uint256[]",
					"name": "minAmountsOut",
					"type": "uint256[]"
				},
				{
					"indexed": false,
					"internalType": "bytes",
					"name": "userData",
					"type": "bytes"
				}
			],
			"name": "ExitedPool",
			"type": "event"
		},
		{
			"anonymous": false,
			"inputs": [
				{
					"indexed": true,
					"internalType": "address",
					"name": "pool",
					"type": "address"
				},
				{
					"indexed": false,
					"internalType": "uint256",
					"name": "startTime",
					"type": "uint256"
				},
				{
					"indexed": false,
					"internalType": "uint256",
					"name": "endTime",
					"type": "uint256"
				},
				{
					"indexed": false,
					"internalType": "uint256[]",
					"name": "endWeights",
					"type": "uint256[]"
				}
			],
			"name": "GradualWeightUpdateScheduled",
			"type": "event"
		},
		{
			"anonymous": false,
			"inputs": [
				{
					"indexed": true,
					"internalType": "address",
					"name": "pool",
					"type": "address"
				},
				{
					"indexed": false,
					"internalType": "address[]",
					"name": "tokens",
					"type": "address[]"
				},
				{
					"indexed": false,
					"internalType": "uint256[]",
					"name": "amounts",
					"type": "uint256[]"
				},
				{
					"indexed": false,
					"internalType": "bytes",
					"name": "userData",
					"type": "bytes"
				}
			],
			"name": "JoinedPool",
			"type": "event"
		},
		{
			"anonymous": false,
			"inputs": [
				{
					"indexed": true,
					"internalType": "address",
					"name": "previousOwner",
					"type": "address"
				},
				{
					"indexed": true,
					"internalType": "address",
					"name": "newOwner",
					"type": "address"
				}
			],
			"name": "OwnershipTransferred",
			"type": "event"
		},
		{
			"anonymous": false,
			"inputs": [
				{
					"indexed": true,
					"internalType": "address",
					"name": "pool",
					"type": "address"
				},
				{
					"indexed": false,
					"internalType": "bytes32",
					"name": "poolId",
					"type": "bytes32"
				},
				{
					"indexed": false,
					"internalType": "string",
					"name": "name",
					"type": "string"
				},
				{
					"indexed": false,
					"internalType": "string",
					"name": "symbol",
					"type": "string"
				},
				{
					"indexed": false,
					"internalType": "address[]",
					"name": "tokens",
					"type": "address[]"
				},
				{
					"indexed": false,
					"internalType": "uint256[]",
					"name": "weights",
					"type": "uint256[]"
				},
				{
					"indexed": false,
					"internalType": "uint256",
					"name": "swapFeePercentage",
					"type": "uint256"
				},
				{
					"indexed": false,
					"internalType": "address",
					"name": "owner",
					"type": "address"
				},
				{
					"indexed": false,
					"internalType": "bool",
					"name": "swapEnabledOnStart",
					"type": "bool"
				}
			],
			"name": "PoolCreated",
			"type": "event"
		},
		{
			"anonymous": false,
			"inputs": [
				{
					"indexed": false,
					"internalType": "address",
					"name": "token",
					"type": "address"
				},
				{
					"indexed": false,
					"internalType": "address",
					"name": "to",
					"type": "address"
				},
				{
					"indexed": false,
					"internalType": "uint256",
					"name": "balance",
					"type": "uint256"
				}
			],
			"name": "Skimmed",
			"type": "event"
		},
		{
			"anonymous": false,
			"inputs": [
				{
					"indexed": true,
					"internalType": "address",
					"name": "pool",
					"type": "address"
				},
				{
					"indexed": false,
					"internalType": "bool",
					"name": "swapEnabled",
					"type": "bool"
				}
			],
			"name": "SwapEnabledSet",
			"type": "event"
		},
		{
			"anonymous": false,
			"inputs": [
				{
					"indexed": true,
					"internalType": "address",
					"name": "pool",
					"type": "address"
				},
				{
					"indexed": false,
					"internalType": "address",
					"name": "token",
					"type": "address"
				},
				{
					"indexed": false,
					"internalType": "address",
					"name": "feeRecipient",
					"type": "address"
				},
				{
					"indexed": false,
					"internalType": "uint256",
					"name": "feeAmount",
					"type": "uint256"
				}
			],
			"name": "TransferedFee",
			"type": "event"
		},
		{
			"anonymous": false,
			"inputs": [
				{
					"indexed": true,
					"internalType": "address",
					"name": "pool",
					"type": "address"
				},
				{
					"indexed": false,
					"internalType": "address",
					"name": "previousOwner",
					"type": "address"
				},
				{
					"indexed": false,
					"internalType": "address",
					"name": "newOwner",
					"type": "address"
				}
			],
			"name": "TransferedPoolOwnership",
			"type": "event"
		},
		{
			"anonymous": false,
			"inputs": [
				{
					"indexed": true,
					"internalType": "address",
					"name": "pool",
					"type": "address"
				},
				{
					"indexed": false,
					"internalType": "address",
					"name": "token",
					"type": "address"
				},
				{
					"indexed": false,
					"internalType": "address",
					"name": "to",
					"type": "address"
				},
				{
					"indexed": false,
					"internalType": "uint256",
					"name": "amount",
					"type": "uint256"
				}
			],
			"name": "TransferedToken",
			"type": "event"
		},
		{
			"inputs": [],
			"name": "VAULT",
			"outputs": [
				{
					"internalType": "address",
					"name": "",
					"type": "address"
				}
			],
			"stateMutability": "view",
			"type": "function"
		},
		{
			"inputs": [],
			"name": "_LBPFactoryAddress",
			"outputs": [
				{
					"internalType": "address",
					"name": "",
					"type": "address"
				}
			],
			"stateMutability": "view",
			"type": "function"
		},
		{
			"inputs": [],
			"name": "_feeBPS",
			"outputs": [
				{
					"internalType": "uint256",
					"name": "",
					"type": "uint256"
				}
			],
			"stateMutability": "view",
			"type": "function"
		},
		{
			"inputs": [],
			"name": "_feeRecipient",
			"outputs": [
				{
					"internalType": "address",
					"name": "",
					"type": "address"
				}
			],
			"stateMutability": "view",
			"type": "function"
		},
		{
			"inputs": [
				{
					"internalType": "address",
					"name": "newRecipient",
					"type": "address"
				}
			],
			"name": "changeFeeRecipient",
			"outputs": [],
			"stateMutability": "nonpayable",
			"type": "function"
		},
		{
			"inputs": [
				{
					"components": [
						{
							"internalType": "string",
							"name": "name",
							"type": "string"
						},
						{
							"internalType": "string",
							"name": "symbol",
							"type": "string"
						},
						{
							"internalType": "address[]",
							"name": "tokens",
							"type": "address[]"
						},
						{
							"internalType": "uint256[]",
							"name": "amounts",
							"type": "uint256[]"
						},
						{
							"internalType": "uint256[]",
							"name": "weights",
							"type": "uint256[]"
						},
						{
							"internalType": "uint256[]",
							"name": "endWeights",
							"type": "uint256[]"
						},
						{
							"internalType": "bool",
							"name": "isCorrectOrder",
							"type": "bool"
						},
						{
							"internalType": "uint256",
							"name": "swapFeePercentage",
							"type": "uint256"
						},
						{
							"internalType": "bytes",
							"name": "userData",
							"type": "bytes"
						},
						{
							"internalType": "uint256",
							"name": "startTime",
							"type": "uint256"
						},
						{
							"internalType": "uint256",
							"name": "endTime",
							"type": "uint256"
						}
					],
					"internalType": "struct CopperProxy.PoolConfig",
					"name": "poolConfig",
					"type": "tuple"
				}
			],
			"name": "createAuction",
			"outputs": [
				{
					"internalType": "address",
					"name": "",
					"type": "address"
				}
			],
			"stateMutability": "nonpayable",
			"type": "function"
		},
		{
			"inputs": [
				{
					"internalType": "address",
					"name": "pool",
					"type": "address"
				},
				{
					"internalType": "uint256[]",
					"name": "minAmountsOut",
					"type": "uint256[]"
				},
				{
					"internalType": "uint256",
					"name": "maxBPTTokenOut",
					"type": "uint256"
				}
			],
			"name": "exitPool",
			"outputs": [],
			"stateMutability": "nonpayable",
			"type": "function"
		},
		{
			"inputs": [
				{
					"internalType": "address",
					"name": "pool",
					"type": "address"
				}
			],
			"name": "getBPTTokenBalance",
			"outputs": [
				{
					"internalType": "uint256",
					"name": "bptBalance",
					"type": "uint256"
				}
			],
			"stateMutability": "view",
			"type": "function"
		},
		{
			"inputs": [
				{
					"internalType": "uint256",
					"name": "index",
					"type": "uint256"
				}
			],
			"name": "getPoolAt",
			"outputs": [
				{
					"internalType": "address",
					"name": "pool",
					"type": "address"
				}
			],
			"stateMutability": "view",
			"type": "function"
		},
		{
			"inputs": [
				{
					"internalType": "address",
					"name": "pool",
					"type": "address"
				}
			],
			"name": "getPoolData",
			"outputs": [
				{
					"components": [
						{
							"internalType": "address",
							"name": "owner",
							"type": "address"
						},
						{
							"internalType": "bool",
							"name": "isCorrectOrder",
							"type": "bool"
						},
						{
							"internalType": "uint256",
							"name": "fundTokenInputAmount",
							"type": "uint256"
						}
					],
					"internalType": "struct CopperProxy.PoolData",
					"name": "poolData",
					"type": "tuple"
				}
			],
			"stateMutability": "view",
			"type": "function"
		},
		{
			"inputs": [],
			"name": "getPools",
			"outputs": [
				{
					"internalType": "address[]",
					"name": "pools",
					"type": "address[]"
				}
			],
			"stateMutability": "view",
			"type": "function"
		},
		{
			"inputs": [
				{
					"internalType": "address",
					"name": "pool",
					"type": "address"
				}
			],
			"name": "isPool",
			"outputs": [
				{
					"internalType": "bool",
					"name": "valid",
					"type": "bool"
				}
			],
			"stateMutability": "view",
			"type": "function"
		},
		{
			"inputs": [],
			"name": "owner",
			"outputs": [
				{
					"internalType": "address",
					"name": "",
					"type": "address"
				}
			],
			"stateMutability": "view",
			"type": "function"
		},
		{
			"inputs": [],
			"name": "poolCount",
			"outputs": [
				{
					"internalType": "uint256",
					"name": "count",
					"type": "uint256"
				}
			],
			"stateMutability": "view",
			"type": "function"
		},
		{
			"inputs": [],
			"name": "renounceOwnership",
			"outputs": [],
			"stateMutability": "nonpayable",
			"type": "function"
		},
		{
			"inputs": [
				{
					"internalType": "address",
					"name": "pool",
					"type": "address"
				},
				{
					"internalType": "bool",
					"name": "swapEnabled",
					"type": "bool"
				}
			],
			"name": "setSwapEnabled",
			"outputs": [],
			"stateMutability": "nonpayable",
			"type": "function"
		},
		{
			"inputs": [
				{
					"internalType": "address",
					"name": "token",
					"type": "address"
				},
				{
					"internalType": "address",
					"name": "recipient",
					"type": "address"
				}
			],
			"name": "skim",
			"outputs": [],
			"stateMutability": "nonpayable",
			"type": "function"
		},
		{
			"inputs": [
				{
					"internalType": "address",
					"name": "newOwner",
					"type": "address"
				}
			],
			"name": "transferOwnership",
			"outputs": [],
			"stateMutability": "nonpayable",
			"type": "function"
		},
		{
			"inputs": [
				{
					"internalType": "address",
					"name": "pool",
					"type": "address"
				},
				{
					"internalType": "address",
					"name": "newOwner",
					"type": "address"
				}
			],
			"name": "transferPoolOwnership",
			"outputs": [],
			"stateMutability": "nonpayable",
			"type": "function"
		}
	]
}