{
	"data": {
		"bytecode": {
			"linkReferences": {},
			"object": "6101406040523480156200001257600080fd5b5060405162006860380380620068608339810160408190526200003591620001c3565b80604051806020016200004890620001b5565b601f1982820381018352601f909101166040528051819060006002820460a081905280830360e0819052818552909150836200009081620000f9602090811b6200026917901c565b60601b6001600160601b0319166080528285018051838252620000bf82620000f9602090811b6200026917901c565b6001600160601b0319606091821b811660c0529690935290529590951b90911661010052505050426276a700016101205250620001f39050565b80517f602038038060206000396000f3fefefefefefefefefefefefefefefefefefefe808352600091602081018484f09084529150620001476001600160a01b03831615156101ac6200014d565b50919050565b816200015e576200015e8162000162565b5050565b62461bcd60e51b6000908152602060045260076024526642414c23000030600a808404818106603090810160081b95839006959095019082900491820690940160101b939093010160c81b604452606490fd5b615c898062000bd783390190565b600060208284031215620001d5578081fd5b81516001600160a01b0381168114620001ec578182fd5b9392505050565b60805160601c60a05160c05160601c60e0516101005160601c6101205161098262000255600039806101c352806101ec5250806102475250806102c352508061013a528061033f5250806102e4525080610119528061031b52506109826000f3fe608060405234801561001057600080fd5b50600436106100615760003560e01c8062c194db14610066578063174481fa14610084578063236797191461009a5780632da47c40146100ba5780636634b753146100d05780638d928af8146100f0575b600080fd5b61006e6100f8565b60405161007b91906107f3565b60405180910390f35b61008c610117565b60405161007b9291906107ce565b6100ad6100a836600461064d565b61015d565b60405161007b91906107ba565b6100c26101bd565b60405161007b9291906108d3565b6100e36100de366004610631565b610227565b60405161007b91906107e8565b6100ad610245565b6060610112604051806020016040528060008152506102bb565b905090565b7f00000000000000000000000000000000000000000000000000000000000000007f00000000000000000000000000000000000000000000000000000000000000009091565b600080600061016a6101bd565b915091506101af610179610245565b8b8b8b8b8b88888d8d60405160200161019b9a99989796959493929190610806565b604051602081830303815290604052610394565b9a9950505050505050505050565b600080427f000000000000000000000000000000000000000000000000000000000000000081101561021957807f000000000000000000000000000000000000000000000000000000000000000003925062278d009150610222565b60009250600091505b509091565b6001600160a01b031660009081526020819052604090205460ff1690565b7f000000000000000000000000000000000000000000000000000000000000000090565b80517f602038038060206000396000f3fefefefefefefefefefefefefefefefefefefe808352600091602081018484f090845291506102b56001600160a01b03831615156101ac6103f4565b50919050565b8051604080517f00000000000000000000000000000000000000000000000000000000000000007f0000000000000000000000000000000000000000000000000000000000000000818101858101848101602090810190965280855293957f00000000000000000000000000000000000000000000000000000000000000009592947f000000000000000000000000000000000000000000000000000000000000000094938801866000828a3c846000888301883c5060208981019089850101610386818386610406565b505050505050505050919050565b6000806103a083610444565b6001600160a01b038116600081815260208190526040808220805460ff191660011790555192935090917f83a48fbcfc991335314e74d0496aab6a1987e992ddc85dddbcc4d6dd6ef2e9fc9190a292915050565b81610402576104028161047f565b5050565b5b60208110610426578151835260209283019290910190601f1901610407565b905182516020929092036101000a6000190180199091169116179052565b60006060610451836102bb565b905060008151602083016000f090506001600160a01b038116610478573d6000803e3d6000fd5b9392505050565b62461bcd60e51b6000908152602060045260076024526642414c23000030600a808404818106603090810160081b95839006959095019082900491820690940160101b939093010160c81b604452606490fd5b80356104dd81610934565b92915050565b600082601f8301126104f3578081fd5b813561050661050182610908565b6108e1565b81815291506020808301908481018184028601820187101561052757600080fd5b60005b8481101561054f57813561053d81610934565b8452928201929082019060010161052a565b505050505092915050565b600082601f83011261056a578081fd5b813561057861050182610908565b81815291506020808301908481018184028601820187101561059957600080fd5b60005b8481101561054f5781358452928201929082019060010161059c565b803580151581146104dd57600080fd5b600082601f8301126105d8578081fd5b813567ffffffffffffffff8111156105ee578182fd5b610601601f8201601f19166020016108e1565b915080825283602082850101111561061857600080fd5b8060208401602084013760009082016020015292915050565b600060208284031215610642578081fd5b813561047881610934565b600080600080600080600060e0888a031215610667578283fd5b873567ffffffffffffffff8082111561067e578485fd5b61068a8b838c016105c8565b985060208a013591508082111561069f578485fd5b6106ab8b838c016105c8565b975060408a01359150808211156106c0578485fd5b6106cc8b838c016104e3565b965060608a01359150808211156106e1578485fd5b506106ee8a828b0161055a565b945050608088013592506107058960a08a016104d2565b91506107148960c08a016105b8565b905092959891949750929550565b6001600160a01b03169052565b6000815180845260208085019450808401835b8381101561075e57815187529582019590820190600101610742565b509495945050505050565b15159052565b60008151808452815b8181101561079457602081850181015186830182015201610778565b818111156107a55782602083870101525b50601f01601f19169290920160200192915050565b6001600160a01b0391909116815260200190565b6001600160a01b0392831681529116602082015260400190565b901515815260200190565b600060208252610478602083018461076f565b6001600160a01b038b16815261014060208083018290526000919061082d8483018e61076f565b91508382036040850152610841828d61076f565b84810360608601528b51808252828d01935090820190845b8181101561087d5761086b8551610928565b83529383019391830191600101610859565b50508481036080860152610891818c61072f565b93505050508660a08301528560c08301528460e08301526108b6610100830185610722565b6108c4610120830184610769565b9b9a5050505050505050505050565b918252602082015260400190565b60405181810167ffffffffffffffff8111828210171561090057600080fd5b604052919050565b600067ffffffffffffffff82111561091e578081fd5b5060209081020190565b6001600160a01b031690565b6001600160a01b038116811461094957600080fd5b5056fea2646970667358221220d93801f7924805c6824e2574dc21fd0ba3f8ed60a0de11a51ddb8ddcc815548e64736f6c634300070100336102e06040527f6e71edae12b1b97f4d1f60370fef10105fa2faae0126114a169c64845d6126c9610120523480156200003757600080fd5b5060405162005c8938038062005c898339810160408190526200005a9162000d48565b898989898a516001600160401b03811180156200007657600080fd5b50604051908082528060200260200182016040528015620000a1578160200160208202803683370190505b5089898989888651600214620000b9576001620000bc565b60025b8989898989898989828289898180604051806040016040528060018152602001603160f81b815250848489336001600160a01b031660001b806080818152505050806001600160a01b031660a0816001600160a01b031660601b815250505081600390805190602001906200013392919062000b00565b5080516200014990600490602084019062000b00565b50506005805460ff1916601217905550815160209283012060c052805191012060e05250507f8b73c3c69bb8fe3d512ecc4cf759cc79239f7b179b0ffacaa9a75d522b39400f6101005250620001a86276a70083111561019462000511565b620001bc62278d0082111561019562000511565b4290910161014081905201610160528551620001de906002111560c862000511565b620001f8620001ec62000526565b8751111560c962000511565b6200020e866200052b60201b62000f6d1760201c565b620002198462000537565b6040516309b2760f60e01b81526000906001600160a01b038c16906309b2760f906200024a908d9060040162000f5d565b602060405180830381600087803b1580156200026557600080fd5b505af11580156200027a573d6000803e3d6000fd5b505050506040513d601f19601f82011682018060405250810190620002a0919062000d2f565b604051633354e3e960e11b81529091506001600160a01b038c16906366a9c7d290620002d59084908b908b9060040162000ec1565b600060405180830381600087803b158015620002f057600080fd5b505af115801562000305573d6000803e3d6000fd5b505050508a6001600160a01b0316610180816001600160a01b031660601b81525050806101a0818152505050505050505050505050505050505050505050506001600a819055506000875190506200036a818851620005c360201b62000f771760201c565b6101c0819052875188906000906200037e57fe5b60200260200101516001600160a01b03166101e0816001600160a01b031660601b8152505087600181518110620003b157fe5b60200260200101516001600160a01b0316610200816001600160a01b031660601b8152505060028111620003e7576000620003fe565b87600281518110620003f557fe5b60200260200101515b60601b6001600160601b03191661022052600381116200042057600062000437565b876003815181106200042e57fe5b60200260200101515b6001600160a01b0316610240816001600160a01b031660601b815250506200047a886000815181106200046657fe5b6020026020010151620005d260201b60201c565b6102605287516200049390899060019081106200046657fe5b6102805260028111620004a8576000620004ba565b620004ba886002815181106200046657fe5b6102a05260038111620004cf576000620004e1565b620004e1886003815181106200046657fe5b6102c05242620004f481808a806200067e565b620004ff836200080c565b50505050505050505050505062001024565b816200052257620005228162000860565b5050565b600490565b806200052281620008b3565b6200054c64e8d4a5100082101560cb62000511565b6200056467016345785d8a000082111560ca62000511565b620005838160c06008546200094060201b62000f84179092919060201c565b6008556040517fa9ba3ffe0b6c366b81232caab38605a0699ad5398d6cce76f91ee809e322dafc90620005b890839062000f72565b60405180910390a150565b62000522828214606762000511565b600080826001600160a01b031663313ce5676040518163ffffffff1660e01b815260040160206040518083038186803b1580156200060f57600080fd5b505afa15801562000624573d6000803e3d6000fd5b505050506040513d601f19601f820116820180604052508101906200064a919062000e57565b60ff1690506000620006696012836200095560201b62000f991760201c565b600a0a670de0b6b3a764000002949350505050565b600b546000805b83518110156200076f5760008482815181106200069e57fe5b60200260200101519050620006c6662386f26fc1000082101561012e6200051160201b60201c565b62000747620006e0826200097260201b62000faf1760201c565b8360100260800162000732620007158a8781518110620006fc57fe5b6020026020010151620009b360201b62000fcf1760201c565b86601f0260040189620009e060201b62000feb179092919060201c565b620009f260201b62000ffd179092919060201c565b935062000763818462000a0260201b6200100d1790919060201c565b92505060010162000685565b5062000788670de0b6b3a7640000821461013462000511565b620007c18560e0620007ac8960c08762000a1d60201b6200101f179092919060201c565b62000a1d60201b6200101f179092919060201c565b600b556040517f0f3631f9dab08169d1db21c6dc5f32536fb2b0a6b9bb5330d71c52132f968be090620007fc90889088908890889062000f7b565b60405180910390a1505050505050565b6200082b816000600b5462000a2f60201b62001031179092919060201c565b600b556040517f5a9e84f78f7957cb4ed7478eb0fcad35ee4ecbe2e0f298420b28a3955392573f90620005b890839062000eb6565b62461bcd60e51b6000908152602060045260076024526642414c23000030600a808404818106603090810160081b95839006959095019082900491820690940160101b939093010160c81b604452606490fd5b600281511015620008c4576200093d565b600081600081518110620008d457fe5b602002602001015190506000600190505b82518110156200093a576000838281518110620008fe57fe5b602002602001015190506200092f816001600160a01b0316846001600160a01b03161060656200051160201b60201c565b9150600101620008e5565b50505b50565b6001600160401b03811b1992909216911b1790565b60006200096783831115600162000511565b508082035b92915050565b60006200096c670de0b6b3a76400006200099f61ffff80168562000a5860201b620010581790919060201c565b62000aad60201b620010a61790919060201c565b60006200096c670de0b6b3a76400006200099f637fffffff8562000a5860201b620010581790919060201c565b637fffffff811b1992909216911b1790565b61ffff811b1992909216911b1790565b600082820162000a16848210158362000511565b9392505050565b63ffffffff811b1992909216911b1790565b60006001821b198416828462000a4757600062000a4a565b60015b60ff16901b17949350505050565b600082820262000a8084158062000a7857508385838162000a7557fe5b04145b600362000511565b8062000a915760009150506200096c565b670de0b6b3a764000060001982015b046001019150506200096c565b600062000abe821515600462000511565b8262000acd575060006200096c565b670de0b6b3a76400008381029062000af39085838162000ae957fe5b0414600562000511565b82600182038162000aa057fe5b828054600181600116156101000203166002900490600052602060002090601f016020900481019282601f1062000b4357805160ff191683800117855562000b73565b8280016001018555821562000b73579182015b8281111562000b7357825182559160200191906001019062000b56565b5062000b8192915062000b85565b5090565b5b8082111562000b81576000815560010162000b86565b80516200096c816200100e565b600082601f83011262000bba578081fd5b815162000bd162000bcb8262000fe2565b62000fbb565b81815291506020808301908481018184028601820187101562000bf357600080fd5b60005b8481101562000c1f57815162000c0c816200100e565b8452928201929082019060010162000bf6565b505050505092915050565b600082601f83011262000c3b578081fd5b815162000c4c62000bcb8262000fe2565b81815291506020808301908481018184028601820187101562000c6e57600080fd5b60005b8481101562000c1f5781518452928201929082019060010162000c71565b805180151581146200096c57600080fd5b600082601f83011262000cb1578081fd5b81516001600160401b0381111562000cc7578182fd5b602062000cdd601f8301601f1916820162000fbb565b9250818352848183860101111562000cf457600080fd5b60005b8281101562000d1457848101820151848201830152810162000cf7565b8281111562000d265760008284860101525b50505092915050565b60006020828403121562000d41578081fd5b5051919050565b6000806000806000806000806000806101408b8d03121562000d68578586fd5b62000d748c8c62000b9c565b60208c0151909a506001600160401b038082111562000d91578788fd5b62000d9f8e838f0162000ca0565b9a5060408d015191508082111562000db5578788fd5b62000dc38e838f0162000ca0565b995060608d015191508082111562000dd9578788fd5b62000de78e838f0162000ba9565b985060808d015191508082111562000dfd578788fd5b5062000e0c8d828e0162000c2a565b96505060a08b0151945060c08b0151935060e08b0151925062000e348c6101008d0162000b9c565b915062000e468c6101208d0162000c8f565b90509295989b9194979a5092959850565b60006020828403121562000e69578081fd5b815160ff8116811462000a16578182fd5b6000815180845260208085019450808401835b8381101562000eab5781518752958201959082019060010162000e8d565b509495945050505050565b901515815260200190565b60006060820185835260206060818501528186518084526080860191508288019350845b8181101562000f0d5762000efa855162001002565b8352938301939183019160010162000ee5565b505084810360408601528551808252908201925081860190845b8181101562000f4f5762000f3c835162001002565b8552938301939183019160010162000f27565b509298975050505050505050565b602081016003831062000f6c57fe5b91905290565b90815260200190565b60008582528460208301526080604083015262000f9c608083018562000e7a565b828103606084015262000fb0818562000e7a565b979650505050505050565b6040518181016001600160401b038111828210171562000fda57600080fd5b604052919050565b60006001600160401b0382111562000ff8578081fd5b5060209081020190565b6001600160a01b031690565b6001600160a01b03811681146200093d57600080fd5b60805160a05160601c60c05160e051610100516101205161014051610160516101805160601c6101a0516101c0516101e05160601c6102005160601c6102205160601c6102405160601c61026051610280516102a0516102c051614b5f6200112a6000398061139c5280611edd5250806113595280611e7c5250806113165280611e1b5250806112c55280611dba525080611ea25280612d9a525080611e415280612d58525080611de05280612d16525080611d7f5280612cd452508061160052508061067a525080610a18525080611248525080611224525080610cd75250806114cc52508061150e5250806114ed5250806109f452508061097e5250614b5f6000f3fe608060405234801561001057600080fd5b50600436106102325760003560e01c806374f3b009116101305780639d2c110c116100b8578063d505accf1161007c578063d505accf14610482578063d5c096c414610495578063dd62ed3e146104a8578063e01af92c146104bb578063f89f27ed146104ce57610232565b80639d2c110c14610439578063a457c2d71461044c578063a9059cbb1461045f578063aaabadc514610472578063c0ff1a151461047a57610232565b806387ec6817116100ff57806387ec6817146103f9578063893d20e81461040c5780638d928af81461042157806395d89b41146104295780639b02cdde1461043157610232565b806374f3b0091461039b5780637beed220146103bc5780637ecebe00146103d3578063851c1bb3146103e657610232565b806338e9922e116101be57806350dd6ed91161018257806350dd6ed91461034457806355c67628146103575780636028bfd41461035f578063679aefce1461038057806370a082311461038857610232565b806338e9922e146102fb57806338fff2d01461030e57806339509351146103165780633e5692051461032957806347bc4d921461033c57610232565b80631c0de051116102055780631c0de0511461029f5780631dd746ea146102b657806323b872dd146102cb578063313ce567146102de5780633644e515146102f357610232565b806306fdde0314610237578063095ea7b31461025557806316c38b3c1461027557806318160ddd1461028a575b600080fd5b61023f6104d6565b60405161024c9190614a2a565b60405180910390f35b610268610263366004614313565b61056d565b60405161024c9190614931565b610288610283366004614409565b610584565b005b610292610598565b60405161024c9190614954565b6102a761059e565b60405161024c9392919061493c565b6102be6105c7565b60405161024c91906148f9565b6102686102d936600461425e565b6105d6565b6102e661064c565b60405161024c9190614aa6565b610292610655565b610288610309366004614778565b61065f565b610292610678565b610268610324366004614313565b61069c565b610288610337366004614790565b6106d7565b61026861073e565b610288610352366004614527565b61074e565b61029261076c565b61037261036d366004614441565b61077d565b60405161024c929190614a3d565b6102926107b4565b61029261039636600461420a565b6107df565b6103ae6103a9366004614441565b6107fe565b60405161024c92919061490c565b6103c46108a1565b60405161024c93929190614a56565b6102926103e136600461420a565b61095f565b6102926103f43660046144e3565b61097a565b610372610407366004614441565b6109cc565b6104146109f2565b60405161024c91906148e5565b610414610a16565b61023f610a3a565b610292610a9b565b61029261044736600461467d565b610aa1565b61026861045a366004614313565b610b88565b61026861046d366004614313565b610bc6565b610414610bd3565b610292610bdd565b61028861049036600461429e565b610ca2565b6103ae6104a3366004614441565b610deb565b6102926104b6366004614226565b610f0f565b6102886104c9366004614409565b610f3a565b6102be610f63565b60038054604080516020601f60026000196101006001881615020190951694909404938401819004810282018101909252828152606093909290918301828280156105625780601f1061053757610100808354040283529160200191610562565b820191906000526020600020905b81548152906001019060200180831161054557829003601f168201915b505050505090505b90565b600061057a3384846110f1565b5060015b92915050565b61058c611159565b61059581611187565b50565b60025490565b60008060006105ab611205565b1592506105b6611222565b91506105c0611246565b9050909192565b60606105d161126a565b905090565b6000806105e38533610f0f565b9050610607336001600160a01b03871614806105ff5750838210155b61019e6113da565b6106128585856113e8565b336001600160a01b0386161480159061062d57506000198114155b1561063f5761063f85338584036110f1565b60019150505b9392505050565b60055460ff1690565b60006105d16114c8565b610667611159565b61066f611565565b6105958161157a565b7f000000000000000000000000000000000000000000000000000000000000000090565b3360008181526001602090815260408083206001600160a01b0387168452909152812054909161057a9185906106d2908661100d565b6110f1565b6106df611159565b6106e7611565565b6106ef6115e5565b6107016106fa6115fe565b8251610f77565b4261070c8185611622565b935061071d838511156101466113da565b610730848461072a611639565b8561174c565b50610739611861565b505050565b600b546000906105d19082611868565b610756611159565b61075e611565565b6107688282611872565b5050565b6008546000906105d19060c0611971565b60006060610793865161078e6115fe565b610f77565b6107a88989898989898961197e611a4d611aae565b97509795505050505050565b60006105d16107c1610598565b6107d96107cc610bdd565b6107d46115fe565b611bd1565b90611beb565b6001600160a01b0381166000908152602081905260409020545b919050565b6060808861082861080d610a16565b6001600160a01b0316336001600160a01b03161460cd6113da565b61083d610833610678565b82146101f46113da565b606061084761126a565b90506108538882611c33565b60006060806108688e8e8e8e8e8e8a8f61197e565b9250925092506108788d84611c94565b6108828285611a4d565b61088c8185611a4d565b909550935050505b5097509795505050505050565b600b5460009081906060906108b78160c0611c9e565b93506108c48160e0611c9e565b925060006108d06115fe565b9050806001600160401b03811180156108e857600080fd5b50604051908082528060200260200182016040528015610912578160200160208202803683370190505b50925060005b81811015610957576109386109338460806010850201611ca8565b611cb0565b84828151811061094457fe5b6020908102919091010152600101610918565b505050909192565b6001600160a01b031660009081526006602052604090205490565b60007f0000000000000000000000000000000000000000000000000000000000000000826040516020016109af9291906148a2565b604051602081830303815290604052805190602001209050919050565b600060606109dd865161078e6115fe565b6107a889898989898989611cca611d1a611aae565b7f000000000000000000000000000000000000000000000000000000000000000090565b7f000000000000000000000000000000000000000000000000000000000000000090565b60048054604080516020601f60026000196101006001881615020190951694909404938401819004810282018101909252828152606093909290918301828280156105625780601f1061053757610100808354040283529160200191610562565b60095490565b600080610ab18560200151611d7b565b90506000610ac28660400151611d7b565b9050600086516001811115610ad357fe5b1415610b3957610ae68660600151611f0c565b6060870152610af58583611f2d565b9450610b018482611f2d565b9350610b11866060015183611f2d565b60608701526000610b23878787611f39565b9050610b2f8183611f61565b9350505050610645565b610b438583611f2d565b9450610b4f8482611f2d565b9350610b5f866060015182611f2d565b60608701526000610b71878787611f6d565b9050610b7d8184611f85565b9050610b2f81611f91565b600080610b953385610f0f565b9050808310610baf57610baa338560006110f1565b610bbc565b610bbc33858584036110f1565b5060019392505050565b600061057a3384846113e8565b60006105d1611fb7565b60006060610be9610a16565b6001600160a01b031663f94d4668610bff610678565b6040518263ffffffff1660e01b8152600401610c1b9190614954565b60006040518083038186803b158015610c3357600080fd5b505afa158015610c47573d6000803e3d6000fd5b505050506040513d6000823e601f3d908101601f19168201604052610c6f919081019061433e565b50915050610c8481610c7f61126a565b611c33565b6060610c8e612031565b509050610c9b81836120af565b9250505090565b610cb08442111560d16113da565b6001600160a01b0387166000908152600660209081526040808320549051909291610d07917f0000000000000000000000000000000000000000000000000000000000000000918c918c918c9188918d910161497c565b6040516020818303038152906040528051906020012090506000610d2a82612121565b9050600060018288888860405160008152602001604052604051610d519493929190614a0c565b6020604051602081039080840390855afa158015610d73573d6000803e3d6000fd5b5050604051601f1901519150610db590506001600160a01b03821615801590610dad57508b6001600160a01b0316826001600160a01b0316145b6101f86113da565b6001600160a01b038b166000908152600660205260409020600185019055610dde8b8b8b6110f1565b5050505050505050505050565b60608088610dfa61080d610a16565b610e05610833610678565b6060610e0f61126a565b9050610e19610598565b610ebf5760006060610e2e8d8d8d868b61213d565b91509150610e43620f424083101560cc6113da565b610e516000620f4240612183565b610e608b620f42408403612183565b610e6a8184611d1a565b80610e736115fe565b6001600160401b0381118015610e8857600080fd5b50604051908082528060200260200182016040528015610eb2578160200160208202803683370190505b5095509550505050610894565b610ec98882611c33565b6000606080610ede8e8e8e8e8e8e8a8f611cca565b925092509250610eee8c84612183565b610ef88285611d1a565b610f028185611a4d565b9095509350610894915050565b6001600160a01b03918216600090815260016020908152604080832093909416825291909152205490565b610f42611159565b610f4a611565565b610f526115e5565b610f5b8161218d565b610595611861565b60606105d1611639565b80610768816121cf565b61076881831460676113da565b6001600160401b03811b1992909216911b1790565b6000610fa98383111560016113da565b50900390565b600061057e670de0b6b3a7640000610fc98461ffff611058565b906110a6565b600061057e670de0b6b3a7640000610fc984637fffffff611058565b637fffffff811b1992909216911b1790565b61ffff811b1992909216911b1790565b600082820161064584821015836113da565b63ffffffff811b1992909216911b1790565b60006001821b198416828461104757600061104a565b60015b60ff16901b17949350505050565b600082820261107c84158061107557508385838161107257fe5b04145b60036113da565b8061108b57600091505061057e565b670de0b6b3a764000060001982015b0460010191505061057e565b60006110b582151560046113da565b826110c25750600061057e565b670de0b6b3a7640000838102906110e5908583816110dc57fe5b041460056113da565b82600182038161109a57fe5b6001600160a01b0380841660008181526001602090815260408083209487168084529490915290819020849055517f8c5be1e5ebec7d5bd14f71427d1e84f3dd0314c0f7b2291e5b200ac8c7c3b9259061114c908590614954565b60405180910390a3505050565b60006111706000356001600160e01b03191661097a565b905061059561117f8233612248565b6101916113da565b80156111a7576111a2611198611222565b42106101936113da565b6111bc565b6111bc6111b2611246565b42106101a96113da565b6007805460ff19168215151790556040517f9e3a5e37224532dea67b89face185703738a228a6e8a23dee546960180d3be64906111fa908390614931565b60405180910390a150565b600061120f611246565b4211806105d157505060075460ff161590565b7f000000000000000000000000000000000000000000000000000000000000000090565b7f000000000000000000000000000000000000000000000000000000000000000090565b606060006112766115fe565b90506060816001600160401b038111801561129057600080fd5b506040519080825280602002602001820160405280156112ba578160200160208202803683370190505b5090508115611302577f0000000000000000000000000000000000000000000000000000000000000000816000815181106112f157fe5b60200260200101818152505061130b565b915061056a9050565b6001821115611302577f00000000000000000000000000000000000000000000000000000000000000008160018151811061134257fe5b6020026020010181815250506002821115611302577f00000000000000000000000000000000000000000000000000000000000000008160028151811061138557fe5b6020026020010181815250506003821115611302577f0000000000000000000000000000000000000000000000000000000000000000816003815181106113c857fe5b60200260200101818152505091505090565b816107685761076881612338565b6113ff6001600160a01b03841615156101986113da565b6114166001600160a01b03831615156101996113da565b611421838383610739565b6001600160a01b03831660009081526020819052604090205461144790826101a061238b565b6001600160a01b038085166000908152602081905260408082209390935590841681522054611476908261100d565b6001600160a01b0380841660008181526020819052604090819020939093559151908516907fddf252ad1be2c89b69c2b068fc378daa952ba7f163c4a11628f55a4df523b3ef9061114c908590614954565b60007f00000000000000000000000000000000000000000000000000000000000000007f00000000000000000000000000000000000000000000000000000000000000007f00000000000000000000000000000000000000000000000000000000000000006115356123a1565b3060405160200161154a9594939291906149b0565b60405160208183030381529060405280519060200120905090565b611578611570611205565b6101926113da565b565b61158d64e8d4a5100082101560cb6113da565b6115a367016345785d8a000082111560ca6113da565b6008546115b2908260c0610f84565b6008556040517fa9ba3ffe0b6c366b81232caab38605a0699ad5398d6cce76f91ee809e322dafc906111fa908390614954565b6115f76002600a5414156101906113da565b6002600a55565b7f000000000000000000000000000000000000000000000000000000000000000090565b6000818310156116325781610645565b5090919050565b606060006116456115fe565b90506060816001600160401b038111801561165f57600080fd5b50604051908082528060200260200182016040528015611689578160200160208202803683370190505b50600b5490915061169b6000826123a5565b826000815181106116a857fe5b6020026020010181815250506116bf6001826123a5565b826001815181106116cc57fe5b60200260200101818152505082600214156116eb5750915061056a9050565b6116f66002826123a5565b8260028151811061170357fe5b60200260200101818152505082600314156117225750915061056a9050565b61172d6003826123a5565b8260038151811061173a57fe5b60209081029190910101525091505090565b600b546000805b83518110156117e857600084828151811061176a57fe5b6020026020010151905061178a662386f26fc1000082101561012e6113da565b6117d161179682610faf565b836010026080016117ca6117bc8a87815181106117af57fe5b6020026020010151610fcf565b88906004601f890201610feb565b9190610ffd565b93506117dd838261100d565b925050600101611753565b506117ff670de0b6b3a764000082146101346113da565b6118188560e0611811858a60c061101f565b919061101f565b600b556040517f0f3631f9dab08169d1db21c6dc5f32536fb2b0a6b9bb5330d71c52132f968be090611851908890889088908890614a75565b60405180910390a1505050505050565b6001600a55565b1c60019081161490565b600061187c610678565b90506000611888610a16565b6001600160a01b031663b05f8e4883866040518363ffffffff1660e01b81526004016118b59291906149f5565b60806040518083038186803b1580156118cd57600080fd5b505afa1580156118e1573d6000803e3d6000fd5b505050506040513d601f19601f8201168201806040525081019061190591906147dd565b604051630639cdb560e21b81529094506001600160a01b03851693506318e736d492506119399150859087906004016149dc565b600060405180830381600087803b15801561195357600080fd5b505af1158015611967573d6000803e3d6000fd5b5050505050505050565b1c6001600160401b031690565b60006060806060600061198f612031565b9150915061199b611205565b156119d35760006119ac838c6120af565b90506119be8b8484600954858e6123fb565b93506119cd8b85610f996124a9565b50611a1e565b6119db6115fe565b6001600160401b03811180156119f057600080fd5b50604051908082528060200260200182016040528015611a1a578160200160208202803683370190505b5092505b611a2a8a838989612514565b9095509350611a3a8a8584612583565b6009555050985098509895505050505050565b60005b611a586115fe565b81101561073957611a8f838281518110611a6e57fe5b6020026020010151838381518110611a8257fe5b6020026020010151611beb565b838281518110611a9b57fe5b6020908102919091010152600101611a50565b333014611b6c576000306001600160a01b0316600036604051611ad29291906148ba565b6000604051808303816000865af19150503d8060008114611b0f576040519150601f19603f3d011682016040523d82523d6000602084013e611b14565b606091505b505090508060008114611b2357fe5b60046000803e6000516001600160e01b0319166343adbafb60e01b8114611b4e573d6000803e3d6000fd5b506020600460003e604060205260243d03602460403e601c3d016000f35b6060611b7661126a565b9050611b828782611c33565b60006060611b9a8c8c8c8c8c8c898d8d63ffffffff16565b5091509150611bad81848663ffffffff16565b8051601f1982018390526343adbafb603f1983015260200260231982016044820181fd5b600082820261064584158061107557508385838161107257fe5b6000611bfa82151560046113da565b82611c075750600061057e565b670de0b6b3a764000083810290611c21908583816110dc57fe5b828181611c2a57fe5b0491505061057e565b60005b611c3e6115fe565b81101561073957611c75838281518110611c5457fe5b6020026020010151838381518110611c6857fe5b602002602001015161259c565b838281518110611c8157fe5b6020908102919091010152600101611c36565b61076882826125c8565b1c63ffffffff1690565b1c61ffff1690565b600061057e61ffff610fc984670de0b6b3a7640000611058565b6000606080611cf6611cda6109f2565b6001600160a01b03168b6001600160a01b0316146101486113da565b611d068b8b8b8b8b8b8b8b612684565b925092509250985098509895505050505050565b60005b611d256115fe565b81101561073957611d5c838281518110611d3b57fe5b6020026020010151838381518110611d4f57fe5b60200260200101516110a6565b838281518110611d6857fe5b6020908102919091010152600101611d1d565b60007f00000000000000000000000000000000000000000000000000000000000000006001600160a01b0316826001600160a01b03161415611dde57507f00000000000000000000000000000000000000000000000000000000000000006107f9565b7f00000000000000000000000000000000000000000000000000000000000000006001600160a01b0316826001600160a01b03161415611e3f57507f00000000000000000000000000000000000000000000000000000000000000006107f9565b7f00000000000000000000000000000000000000000000000000000000000000006001600160a01b0316826001600160a01b03161415611ea057507f00000000000000000000000000000000000000000000000000000000000000006107f9565b7f00000000000000000000000000000000000000000000000000000000000000006001600160a01b0316826001600160a01b03161415611f0157507f00000000000000000000000000000000000000000000000000000000000000006107f9565b6107f9610135612338565b600080611f21611f1a61076c565b8490611058565b90506106458382610f99565b6000610645838361259c565b6000611f4e611f4661073e565b6101476113da565b611f5984848461270a565b949350505050565b60006106458383611beb565b6000611f7a611f4661073e565b611f5984848461273d565b600061064583836110a6565b600061057e611fb0611fa161076c565b670de0b6b3a764000090610f99565b83906110a6565b6000611fc1610a16565b6001600160a01b031663aaabadc56040518163ffffffff1660e01b815260040160206040518083038186803b158015611ff957600080fd5b505afa15801561200d573d6000803e3d6000fd5b505050506040513d601f19601f820116820180604052508101906105d1919061450b565b6060600061203d611639565b91506000905060008260008151811061205257fe5b602002602001015190506000600190505b83518110156120a9578184828151811061207957fe5b602002602001015111156120a15780925083818151811061209657fe5b602002602001015191505b600101612063565b50509091565b670de0b6b3a764000060005b8351811015612111576121076121008583815181106120d657fe5b60200260200101518584815181106120ea57fe5b602002602001015161277090919063ffffffff16565b839061259c565b91506001016120bb565b5061057e600082116101376113da565b600061212b6114c8565b826040516020016109af9291906148ca565b6000606061216861214c6109f2565b6001600160a01b0316876001600160a01b0316146101486113da565b61217587878787876127bf565b915091509550959350505050565b6107688282612853565b600b5461219c90826000611031565b600b556040517f5a9e84f78f7957cb4ed7478eb0fcad35ee4ecbe2e0f298420b28a3955392573f906111fa908390614931565b6002815110156121de57610595565b6000816000815181106121ed57fe5b602002602001015190506000600190505b825181101561073957600083828151811061221557fe5b6020026020010151905061223e816001600160a01b0316846001600160a01b03161060656113da565b91506001016121fe565b600073ba1ba1ba1ba1ba1ba1ba1ba1ba1ba1ba1ba1ba1b6122676109f2565b6001600160a01b0316141580156122825750612282836128e1565b156122aa5761228f6109f2565b6001600160a01b0316336001600160a01b031614905061057e565b6122b2611fb7565b6001600160a01b0316639be2a8848484306040518463ffffffff1660e01b81526004016122e19392919061495d565b60206040518083038186803b1580156122f957600080fd5b505afa15801561230d573d6000803e3d6000fd5b505050506040513d601f19601f820116820180604052508101906123319190614425565b905061057e565b62461bcd60e51b6000908152602060045260076024526642414c23000030600a808404818106603090810160081b95839006959095019082900491820690940160101b939093010160c81b604452606490fd5b600061239a84841115836113da565b5050900390565b4690565b6000806123c06123bb846004601f88020161291d565b612927565b905060006123d76109338560806010890201611ca8565b905060006123e485612943565b90506123f18383836129c2565b9695505050505050565b6060806124066115fe565b6001600160401b038111801561241b57600080fd5b50604051908082528060200260200182016040528015612445578160200160208202803683370190505b509050826124545790506123f1565b61248788878151811061246357fe5b602002602001015188888151811061247757fe5b6020026020010151878787612a36565b81878151811061249357fe5b6020908102919091010152979650505050505050565b60005b6124b46115fe565b81101561250e576124ef8482815181106124ca57fe5b60200260200101518483815181106124de57fe5b60200260200101518463ffffffff16565b8482815181106124fb57fe5b60209081029190910101526001016124ac565b50505050565b60006060600061252384612abe565b9050600081600281111561253357fe5b141561254e57612544878786612ad4565b925092505061257a565b600181600281111561255c57fe5b141561256c576125448785612bb6565b61254487878787612be8565b505b94509492505050565b60006125928484610f996124a9565b611f5982856120af565b60008282026125b684158061107557508385838161107257fe5b670de0b6b3a764000090049392505050565b6125df6001600160a01b038316151561019b6113da565b6125eb82600083610739565b6001600160a01b03821660009081526020819052604090205461261190826101a161238b565b6001600160a01b0383166000908152602081905260409020556002546126379082612c57565b6002556040516000906001600160a01b038416907fddf252ad1be2c89b69c2b068fc378daa952ba7f163c4a11628f55a4df523b3ef90612678908590614954565b60405180910390a35050565b6000606080612691611565565b6060600061269d612031565b9150915060006126ad838c6120af565b905060606126c18c8585600954868f6123fb565b90506126d08c82610f996124a9565b600060606126e08e878d8d612c65565b915091506126ef8e8288612cc0565b60095590975095509350505050985098509895505050505050565b6000612714611565565b611f59836127258660200151612ccf565b846127338860400151612ccf565b8860600151612df1565b6000612747611565565b611f59836127588660200151612ccf565b846127668860400151612ccf565b8860600151612e5e565b60008061277d8484612ed4565b9050600061279761279083612710611058565b600161100d565b9050808210156127ac5760009250505061057e565b6127b68282610f99565b9250505061057e565b600060606127cb611565565b60006127d684612abe565b90506127f160008260028111156127e957fe5b1460ce6113da565b60606127fc85612fd5565b90506128096106fa6115fe565b6128138187611c33565b606061281d612031565b509050600061282c82846120af565b9050600061283c826107d46115fe565b600992909255509a91995090975050505050505050565b61285f60008383610739565b60025461286c908261100d565b6002556001600160a01b038216600090815260208190526040902054612892908261100d565b6001600160a01b0383166000818152602081905260408082209390935591519091907fddf252ad1be2c89b69c2b068fc378daa952ba7f163c4a11628f55a4df523b3ef90612678908590614954565b60006128f3633806be4b60e21b61097a565b82148061290e575061290b633e56920560e01b61097a565b82145b8061057e575061057e82612feb565b1c637fffffff1690565b600061057e637fffffff610fc984670de0b6b3a7640000611058565b600042816129528460c0611c9e565b905060006129618560e0611c9e565b90508083111561297e57670de0b6b3a764000093505050506107f9565b8183101561299257600093505050506107f9565b81810382840381156129ad576129a88183611beb565b6129b7565b670de0b6b3a76400005b979650505050505050565b60008115806129d057508284145b156129dc575082610645565b670de0b6b3a764000082106129f2575081610645565b82841115612a1c576000612a088385870361259c565b9050612a148582610f99565b915050610645565b6000612a2a8386860361259c565b9050612a14858261100d565b6000838311612a4757506000612ab5565b6000612a5385856110a6565b90506000612a69670de0b6b3a764000088611beb565b9050612a7d826709b6e64a8ec60000611622565b91506000612a8b838361301d565b90506000612aa2612a9b83613049565b8b9061259c565b9050612aae818761259c565b9450505050505b95945050505050565b60008180602001905181019061057e9190614574565b60006060612ae0611565565b600080612aec8561306f565b91509150612b04612afb6115fe565b821060646113da565b6060612b0e6115fe565b6001600160401b0381118015612b2357600080fd5b50604051908082528060200260200182016040528015612b4d578160200160208202803683370190505b509050612b91888381518110612b5f57fe5b6020026020010151888481518110612b7357fe5b602002602001015185612b84610598565b612b8c61076c565b613091565b818381518110612b9d57fe5b6020908102919091010152919791965090945050505050565b600060606000612bc584613151565b90506060612bdb8683612bd6610598565b613167565b9196919550909350505050565b60006060612bf4611565565b60606000612c0185613218565b91509150612c12825161078e6115fe565b612c1c8287611c33565b6000612c39898985612c2c610598565b612c3461076c565b613230565b9050612c498282111560cf6113da565b989197509095505050505050565b60006106458383600161238b565b600060606000612c7484612abe565b90506001816002811115612c8457fe5b1415612c96576125448787878761345d565b6002816002811115612ca457fe5b1415612cb5576125448787866134ba565b612578610136612338565b6000612592848461100d6124a9565b6000807f00000000000000000000000000000000000000000000000000000000000000006001600160a01b0316836001600160a01b03161415612d1457506000612de5565b7f00000000000000000000000000000000000000000000000000000000000000006001600160a01b0316836001600160a01b03161415612d5657506001612de5565b7f00000000000000000000000000000000000000000000000000000000000000006001600160a01b0316836001600160a01b03161415612d9857506002612de5565b7f00000000000000000000000000000000000000000000000000000000000000006001600160a01b0316836001600160a01b03161415612dda57506003612de5565b612de5610135612338565b61064581600b546123a5565b6000612e13612e0887670429d069189e000061259c565b8311156101306113da565b6000612e1f878461100d565b90506000612e2d88836110a6565b90506000612e3b8887611beb565b90506000612e49838361301d565b9050612aae612e5782613049565b899061259c565b6000612e80612e7585670429d069189e000061259c565b8311156101316113da565b6000612e96612e8f8685610f99565b86906110a6565b90506000612ea485886110a6565b90506000612eb2838361301d565b90506000612ec882670de0b6b3a7640000610f99565b9050612aae8a82611058565b600081612eea5750670de0b6b3a764000061057e565b82612ef75750600061057e565b612f08600160ff1b841060066113da565b82612f2e770bce5086492111aea88f4bb1ca6bcf584181ea8059f76532841060076113da565b826000670c7d713b49da000083138015612f4f5750670f43fc2c04ee000083125b15612f86576000612f5f84613566565b9050670de0b6b3a764000080820784020583670de0b6b3a764000083050201915050612f94565b81612f9084613684565b0290505b670de0b6b3a76400009005612fcc680238fd42c5cf03ffff198212801590612fc5575068070c1cc73b00c800008213155b60086113da565b6123f181613a23565b6060818060200190518101906106459190614639565b6000612ffd631c74c91760e11b61097a565b82148061057e57506130156350dd6ed960e01b61097a565b909114919050565b60008061302a8484612ed4565b9050600061303d61279083612710611058565b9050612ab5828261100d565b6000670de0b6b3a7640000821061306157600061057e565b50670de0b6b3a76400000390565b600080828060200190518101906130869190614603565b909590945092505050565b6000806130a284610fc98188610f99565b90506130bb6709b6e64a8ec600008210156101326113da565b60006130d96130d2670de0b6b3a764000089611beb565b839061301d565b905060006130f06130e983613049565b8a9061259c565b905060006130fd89613049565b9050600061310b8383611058565b905060006131198483610f99565b905061314161313a613133670de0b6b3a76400008b610f99565b849061259c565b829061100d565b9c9b505050505050505050505050565b60008180602001905181019061064591906145d6565b606060006131758484611beb565b9050606085516001600160401b038111801561319057600080fd5b506040519080825280602002602001820160405280156131ba578160200160208202803683370190505b50905060005b865181101561320e576131ef838883815181106131d957fe5b602002602001015161259c90919063ffffffff16565b8282815181106131fb57fe5b60209081029190910101526001016131c0565b5095945050505050565b60606000828060200190518101906130869190614590565b6000606084516001600160401b038111801561324b57600080fd5b50604051908082528060200260200182016040528015613275578160200160208202803683370190505b5090506000805b885181101561333a576132d589828151811061329457fe5b6020026020010151610fc98984815181106132ab57fe5b60200260200101518c85815181106132bf57fe5b6020026020010151610f9990919063ffffffff16565b8382815181106132e157fe5b6020026020010181815250506133306133298983815181106132ff57fe5b602002602001015185848151811061331357fe5b602002602001015161105890919063ffffffff16565b839061100d565b915060010161327c565b50670de0b6b3a764000060005b895181101561343c57600084828151811061335e57fe5b60200260200101518411156133be57600061338761337b86613049565b8d85815181106131d957fe5b9050600061339b828c86815181106132bf57fe5b90506133b5613329611fb0670de0b6b3a76400008c610f99565b925050506133d5565b8882815181106133ca57fe5b602002602001015190505b60006133fe8c84815181106133e657fe5b60200260200101516107d9848f87815181106132bf57fe5b90506134306134298c858151811061341257fe5b60200260200101518361277090919063ffffffff16565b859061259c565b93505050600101613347565b5061345061344982613049565b8790611058565b9998505050505050505050565b6000606080600061346d85613218565b9150915061348361347c6115fe565b8351610f77565b61348d8287611c33565b60006134aa89898561349d610598565b6134a561076c565b613e00565b9050612c498282101560d06113da565b600060606000806134ca8561306f565b915091506134d9612afb6115fe565b60606134e36115fe565b6001600160401b03811180156134f857600080fd5b50604051908082528060200260200182016040528015613522578160200160208202803683370190505b509050612b9188838151811061353457fe5b602002602001015188848151811061354857fe5b602002602001015185613559610598565b61356161076c565b614011565b670de0b6b3a7640000026000806a0c097ce7bc90715b34b9f160241b808401906ec097ce7bc90715b34b9f0fffffffff19850102816135a157fe5b05905060006a0c097ce7bc90715b34b9f160241b82800205905081806a0c097ce7bc90715b34b9f160241b81840205915060038205016a0c097ce7bc90715b34b9f160241b82840205915060058205016a0c097ce7bc90715b34b9f160241b82840205915060078205016a0c097ce7bc90715b34b9f160241b82840205915060098205016a0c097ce7bc90715b34b9f160241b828402059150600b8205016a0c097ce7bc90715b34b9f160241b828402059150600d8205016a0c097ce7bc90715b34b9f160241b828402059150600f826002919005919091010295945050505050565b6000670de0b6b3a76400008212156136c0576136b6826a0c097ce7bc90715b34b9f160241b816136b057fe5b05613684565b60000390506107f9565b60007e1600ef3172e58d2e933ec884fde10064c63b5372d805e203c0000000000000831261371157770195e54c5dd42177f53a27172fa9ec630262827000000000830592506806f05b59d3b2000000015b73011798004d755d3c8bc8e03204cf44619e0000008312613749576b1425982cf597cd205cef7380830592506803782dace9d9000000015b606492830292026e01855144814a7ff805980ff00840008312613791576e01855144814a7ff805980ff008400068056bc75e2d63100000840205925068ad78ebc5ac62000000015b6b02df0ab5a80a22c61ab5a70083126137cc576b02df0ab5a80a22c61ab5a70068056bc75e2d6310000084020592506856bc75e2d631000000015b693f1fce3da636ea5cf850831261380357693f1fce3da636ea5cf85068056bc75e2d631000008402059250682b5e3af16b18800000015b690127fa27722cc06cc5e2831261383a57690127fa27722cc06cc5e268056bc75e2d6310000084020592506815af1d78b58c400000015b68280e60114edb805d03831261386f5768280e60114edb805d0368056bc75e2d631000008402059250680ad78ebc5ac6200000015b680ebc5fb41746121110831261389a57680ebc5fb4174612111068056bc75e2d631000009384020592015b6808f00f760a4b2db55d83126138cf576808f00f760a4b2db55d68056bc75e2d6310000084020592506802b5e3af16b1880000015b6806f5f17757889379378312613904576806f5f177578893793768056bc75e2d63100000840205925068015af1d78b58c40000015b6806248f33704b2866038312613938576806248f33704b28660368056bc75e2d63100000840205925067ad78ebc5ac620000015b6805c548670b9510e7ac831261396c576805c548670b9510e7ac68056bc75e2d6310000084020592506756bc75e2d6310000015b600068056bc75e2d63100000840168056bc75e2d63100000808603028161398f57fe5b059050600068056bc75e2d63100000828002059050818068056bc75e2d63100000818402059150600382050168056bc75e2d63100000828402059150600582050168056bc75e2d63100000828402059150600782050168056bc75e2d63100000828402059150600982050168056bc75e2d63100000828402059150600b820501600202606485820105979650505050505050565b6000613a52680238fd42c5cf03ffff198312158015613a4b575068070c1cc73b00c800008313155b60096113da565b6000821215613a8557613a6782600003613a23565b6a0c097ce7bc90715b34b9f160241b81613a7d57fe5b0590506107f9565b60006806f05b59d3b20000008312613ac557506806f05b59d3b1ffffff1990910190770195e54c5dd42177f53a27172fa9ec630262827000000000613afb565b6803782dace9d90000008312613af757506803782dace9d8ffffff19909101906b1425982cf597cd205cef7380613afb565b5060015b6064929092029168056bc75e2d6310000068ad78ebc5ac620000008412613b4b5768ad78ebc5ac61ffffff199093019268056bc75e2d631000006e01855144814a7ff805980ff008400082020590505b6856bc75e2d6310000008412613b87576856bc75e2d630ffffff199093019268056bc75e2d631000006b02df0ab5a80a22c61ab5a70082020590505b682b5e3af16b188000008412613bc157682b5e3af16b187fffff199093019268056bc75e2d63100000693f1fce3da636ea5cf85082020590505b6815af1d78b58c4000008412613bfb576815af1d78b58c3fffff199093019268056bc75e2d63100000690127fa27722cc06cc5e282020590505b680ad78ebc5ac62000008412613c3457680ad78ebc5ac61fffff199093019268056bc75e2d6310000068280e60114edb805d0382020590505b68056bc75e2d631000008412613c6d5768056bc75e2d630fffff199093019268056bc75e2d63100000680ebc5fb4174612111082020590505b6802b5e3af16b18800008412613ca6576802b5e3af16b187ffff199093019268056bc75e2d631000006808f00f760a4b2db55d82020590505b68015af1d78b58c400008412613cdf5768015af1d78b58c3ffff199093019268056bc75e2d631000006806f5f177578893793782020590505b68056bc75e2d631000008481019085906002908280020505918201919050600368056bc75e2d631000008783020505918201919050600468056bc75e2d631000008783020505918201919050600568056bc75e2d631000008783020505918201919050600668056bc75e2d631000008783020505918201919050600768056bc75e2d631000008783020505918201919050600868056bc75e2d631000008783020505918201919050600968056bc75e2d631000008783020505918201919050600a68056bc75e2d631000008783020505918201919050600b68056bc75e2d631000008783020505918201919050600c68056bc75e2d631000008783020505918201919050606468056bc75e2d63100000848402058502059695505050505050565b6000606084516001600160401b0381118015613e1b57600080fd5b50604051908082528060200260200182016040528015613e45578160200160208202803683370190505b5090506000805b8851811015613eed57613ea5898281518110613e6457fe5b60200260200101516107d9898481518110613e7b57fe5b60200260200101518c8581518110613e8f57fe5b602002602001015161100d90919063ffffffff16565b838281518110613eb157fe5b602002602001018181525050613ee3613329898381518110613ecf57fe5b60200260200101518584815181106131d957fe5b9150600101613e4c565b50670de0b6b3a764000060005b8951811015613fce57600083858381518110613f1257fe5b60200260200101511115613f6e576000613f3761337b86670de0b6b3a7640000610f99565b90506000613f4b828c86815181106132bf57fe5b9050613f65613329612100670de0b6b3a76400008c610f99565b92505050613f85565b888281518110613f7a57fe5b602002602001015190505b6000613fae8c8481518110613f9657fe5b60200260200101516107d9848f8781518110613e8f57fe5b9050613fc26134298c858151811061341257fe5b93505050600101613efa565b50670de0b6b3a764000081111561400557613ffb613ff482670de0b6b3a7640000610f99565b879061259c565b9350505050612ab5565b60009350505050612ab5565b60008061402284610fc9818861100d565b905061403b6729a2241af62c00008211156101336113da565b60006140526130d2670de0b6b3a7640000896110a6565b9050600061407261406b83670de0b6b3a7640000610f99565b8a90611058565b9050600061407f89613049565b9050600061408d8383611058565b9050600061409b8483610f99565b905061314161313a6140b5670de0b6b3a76400008b610f99565b84906110a6565b803561057e81614af9565b600082601f8301126140d7578081fd5b81356140ea6140e582614ada565b614ab4565b81815291506020808301908481018184028601820187101561410b57600080fd5b60005b8481101561412a5781358452928201929082019060010161410e565b505050505092915050565b600082601f830112614145578081fd5b81516141536140e582614ada565b81815291506020808301908481018184028601820187101561417457600080fd5b60005b8481101561412a57815184529282019290820190600101614177565b600082601f8301126141a3578081fd5b81356001600160401b038111156141b8578182fd5b6141cb601f8201601f1916602001614ab4565b91508082528360208285010111156141e257600080fd5b8060208401602084013760009082016020015292915050565b80356002811061057e57600080fd5b60006020828403121561421b578081fd5b813561064581614af9565b60008060408385031215614238578081fd5b823561424381614af9565b9150602083013561425381614af9565b809150509250929050565b600080600060608486031215614272578081fd5b833561427d81614af9565b9250602084013561428d81614af9565b929592945050506040919091013590565b600080600080600080600060e0888a0312156142b8578283fd5b87356142c381614af9565b965060208801356142d381614af9565b95506040880135945060608801359350608088013560ff811681146142f6578384fd5b9699959850939692959460a0840135945060c09093013592915050565b60008060408385031215614325578182fd5b823561433081614af9565b946020939093013593505050565b600080600060608486031215614352578081fd5b83516001600160401b0380821115614368578283fd5b818601915086601f83011261437b578283fd5b81516143896140e582614ada565b80828252602080830192508086018b8283870289010111156143a9578788fd5b8796505b848710156143d45780516143c081614af9565b8452600196909601959281019281016143ad565b5089015190975093505050808211156143eb578283fd5b506143f886828701614135565b925050604084015190509250925092565b60006020828403121561441a578081fd5b813561064581614b0e565b600060208284031215614436578081fd5b815161064581614b0e565b600080600080600080600060e0888a03121561445b578081fd5b87359650602088013561446d81614af9565b9550604088013561447d81614af9565b945060608801356001600160401b0380821115614498578283fd5b6144a48b838c016140c7565b955060808a0135945060a08a0135935060c08a01359150808211156144c7578283fd5b506144d48a828b01614193565b91505092959891949750929550565b6000602082840312156144f4578081fd5b81356001600160e01b031981168114610645578182fd5b60006020828403121561451c578081fd5b815161064581614af9565b60008060408385031215614539578182fd5b823561454481614af9565b915060208301356001600160401b0381111561455e578182fd5b61456a85828601614193565b9150509250929050565b600060208284031215614585578081fd5b815161064581614b1c565b6000806000606084860312156145a4578081fd5b83516145af81614b1c565b60208501519093506001600160401b038111156145ca578182fd5b6143f886828701614135565b600080604083850312156145e8578182fd5b82516145f381614b1c565b6020939093015192949293505050565b600080600060608486031215614617578081fd5b835161462281614b1c565b602085015160409095015190969495509392505050565b6000806040838503121561464b578182fd5b825161465681614b1c565b60208401519092506001600160401b03811115614671578182fd5b61456a85828601614135565b600080600060608486031215614691578081fd5b83356001600160401b03808211156146a7578283fd5b81860191506101208083890312156146bd578384fd5b6146c681614ab4565b90506146d288846141fb565b81526146e188602085016140bc565b60208201526146f388604085016140bc565b6040820152606083013560608201526080830135608082015260a083013560a08201526147238860c085016140bc565b60c08201526147358860e085016140bc565b60e0820152610100808401358381111561474d578586fd5b6147598a828701614193565b9183019190915250976020870135975060409096013595945050505050565b600060208284031215614789578081fd5b5035919050565b6000806000606084860312156147a4578081fd5b833592506020840135915060408401356001600160401b038111156147c7578182fd5b6147d3868287016140c7565b9150509250925092565b600080600080608085870312156147f2578182fd5b845193506020850151925060408501519150606085015161481281614af9565b939692955090935050565b6000815180845260208085019450808401835b8381101561484c57815187529582019590820190600101614830565b509495945050505050565b60008151808452815b8181101561487c57602081850181015186830182015201614860565b8181111561488d5782602083870101525b50601f01601f19169290920160200192915050565b9182526001600160e01b031916602082015260240190565b6000828483379101908152919050565b61190160f01b81526002810192909252602282015260420190565b6001600160a01b0391909116815260200190565b600060208252610645602083018461481d565b60006040825261491f604083018561481d565b8281036020840152612ab5818561481d565b901515815260200190565b92151583526020830191909152604082015260600190565b90815260200190565b9283526001600160a01b03918216602084015216604082015260600190565b9586526001600160a01b0394851660208701529290931660408501526060840152608083019190915260a082015260c00190565b9485526020850193909352604084019190915260608301526001600160a01b0316608082015260a00190565b600083825260406020830152611f596040830184614857565b9182526001600160a01b0316602082015260400190565b93845260ff9290921660208401526040830152606082015260800190565b6000602082526106456020830184614857565b600083825260406020830152611f59604083018461481d565b600084825283602083015260606040830152612ab5606083018461481d565b600085825284602083015260806040830152614a94608083018561481d565b82810360608401526129b7818561481d565b60ff91909116815260200190565b6040518181016001600160401b0381118282101715614ad257600080fd5b604052919050565b60006001600160401b03821115614aef578081fd5b5060209081020190565b6001600160a01b038116811461059557600080fd5b801515811461059557600080fd5b6003811061059557600080fdfea264697066735822122080ddf86ce16416b835aa7ae84a6f391b955fb527bfa18141b496b73193ffcef164736f6c63430007010033",
			"opcodes": "PUSH2 0x140 PUSH1 0x40 MSTORE CALLVALUE DUP1 ISZERO PUSH3 0x12 JUMPI PUSH1 0x0 DUP1 REVERT JUMPDEST POP PUSH1 0x40 MLOAD PUSH3 0x6860 CODESIZE SUB DUP1 PUSH3 0x6860 DUP4 CODECOPY DUP2 ADD PUSH1 0x40 DUP2 SWAP1 MSTORE PUSH3 0x35 SWAP2 PUSH3 0x1C3 JUMP JUMPDEST DUP1 PUSH1 0x40 MLOAD DUP1 PUSH1 0x20 ADD PUSH3 0x48 SWAP1 PUSH3 0x1B5 JUMP JUMPDEST PUSH1 0x1F NOT DUP3 DUP3 SUB DUP2 ADD DUP4 MSTORE PUSH1 0x1F SWAP1 SWAP2 ADD AND PUSH1 0x40 MSTORE DUP1 MLOAD DUP2 SWAP1 PUSH1 0x0 PUSH1 0x2 DUP3 DIV PUSH1 0xA0 DUP2 SWAP1 MSTORE DUP1 DUP4 SUB PUSH1 0xE0 DUP2 SWAP1 MSTORE DUP2 DUP6 MSTORE SWAP1 SWAP2 POP DUP4 PUSH3 0x90 DUP2 PUSH3 0xF9 PUSH1 0x20 SWAP1 DUP2 SHL PUSH3 0x269 OR SWAP1 SHR JUMP JUMPDEST PUSH1 0x60 SHL PUSH1 0x1 PUSH1 0x1 PUSH1 0x60 SHL SUB NOT AND PUSH1 0x80 MSTORE DUP3 DUP6 ADD DUP1 MLOAD DUP4 DUP3 MSTORE PUSH3 0xBF DUP3 PUSH3 0xF9 PUSH1 0x20 SWAP1 DUP2 SHL PUSH3 0x269 OR SWAP1 SHR JUMP JUMPDEST PUSH1 0x1 PUSH1 0x1 PUSH1 0x60 SHL SUB NOT PUSH1 0x60 SWAP2 DUP3 SHL DUP2 AND PUSH1 0xC0 MSTORE SWAP7 SWAP1 SWAP4 MSTORE SWAP1 MSTORE SWAP6 SWAP1 SWAP6 SHL SWAP1 SWAP2 AND PUSH2 0x100 MSTORE POP POP POP TIMESTAMP PUSH3 0x76A700 ADD PUSH2 0x120 MSTORE POP PUSH3 0x1F3 SWAP1 POP JUMP JUMPDEST DUP1 MLOAD PUSH32 0x602038038060206000396000F3FEFEFEFEFEFEFEFEFEFEFEFEFEFEFEFEFEFEFE DUP1 DUP4 MSTORE PUSH1 0x0 SWAP2 PUSH1 0x20 DUP2 ADD DUP5 DUP5 CREATE SWAP1 DUP5 MSTORE SWAP2 POP PUSH3 0x147 PUSH1 0x1 PUSH1 0x1 PUSH1 0xA0 SHL SUB DUP4 AND ISZERO ISZERO PUSH2 0x1AC PUSH3 0x14D JUMP JUMPDEST POP SWAP2 SWAP1 POP JUMP JUMPDEST DUP2 PUSH3 0x15E JUMPI PUSH3 0x15E DUP2 PUSH3 0x162 JUMP JUMPDEST POP POP JUMP JUMPDEST PUSH3 0x461BCD PUSH1 0xE5 SHL PUSH1 0x0 SWAP1 DUP2 MSTORE PUSH1 0x20 PUSH1 0x4 MSTORE PUSH1 0x7 PUSH1 0x24 MSTORE PUSH7 0x42414C23000030 PUSH1 0xA DUP1 DUP5 DIV DUP2 DUP2 MOD PUSH1 0x30 SWAP1 DUP2 ADD PUSH1 0x8 SHL SWAP6 DUP4 SWAP1 MOD SWAP6 SWAP1 SWAP6 ADD SWAP1 DUP3 SWAP1 DIV SWAP2 DUP3 MOD SWAP1 SWAP5 ADD PUSH1 0x10 SHL SWAP4 SWAP1 SWAP4 ADD ADD PUSH1 0xC8 SHL PUSH1 0x44 MSTORE PUSH1 0x64 SWAP1 REVERT JUMPDEST PUSH2 0x5C89 DUP1 PUSH3 0xBD7 DUP4 CODECOPY ADD SWAP1 JUMP JUMPDEST PUSH1 0x0 PUSH1 0x20 DUP3 DUP5 SUB SLT ISZERO PUSH3 0x1D5 JUMPI DUP1 DUP2 REVERT JUMPDEST DUP2 MLOAD PUSH1 0x1 PUSH1 0x1 PUSH1 0xA0 SHL SUB DUP2 AND DUP2 EQ PUSH3 0x1EC JUMPI DUP2 DUP3 REVERT JUMPDEST SWAP4 SWAP3 POP POP POP JUMP JUMPDEST PUSH1 0x80 MLOAD PUSH1 0x60 SHR PUSH1 0xA0 MLOAD PUSH1 0xC0 MLOAD PUSH1 0x60 SHR PUSH1 0xE0 MLOAD PUSH2 0x100 MLOAD PUSH1 0x60 SHR PUSH2 0x120 MLOAD PUSH2 0x982 PUSH3 0x255 PUSH1 0x0 CODECOPY DUP1 PUSH2 0x1C3 MSTORE DUP1 PUSH2 0x1EC MSTORE POP DUP1 PUSH2 0x247 MSTORE POP DUP1 PUSH2 0x2C3 MSTORE POP DUP1 PUSH2 0x13A MSTORE DUP1 PUSH2 0x33F MSTORE POP DUP1 PUSH2 0x2E4 MSTORE POP DUP1 PUSH2 0x119 MSTORE DUP1 PUSH2 0x31B MSTORE POP PUSH2 0x982 PUSH1 0x0 RETURN INVALID PUSH1 0x80 PUSH1 0x40 MSTORE CALLVALUE DUP1 ISZERO PUSH2 0x10 JUMPI PUSH1 0x0 DUP1 REVERT JUMPDEST POP PUSH1 0x4 CALLDATASIZE LT PUSH2 0x61 JUMPI PUSH1 0x0 CALLDATALOAD PUSH1 0xE0 SHR DUP1 PUSH3 0xC194DB EQ PUSH2 0x66 JUMPI DUP1 PUSH4 0x174481FA EQ PUSH2 0x84 JUMPI DUP1 PUSH4 0x23679719 EQ PUSH2 0x9A JUMPI DUP1 PUSH4 0x2DA47C40 EQ PUSH2 0xBA JUMPI DUP1 PUSH4 0x6634B753 EQ PUSH2 0xD0 JUMPI DUP1 PUSH4 0x8D928AF8 EQ PUSH2 0xF0 JUMPI JUMPDEST PUSH1 0x0 DUP1 REVERT JUMPDEST PUSH2 0x6E PUSH2 0xF8 JUMP JUMPDEST PUSH1 0x40 MLOAD PUSH2 0x7B SWAP2 SWAP1 PUSH2 0x7F3 JUMP JUMPDEST PUSH1 0x40 MLOAD DUP1 SWAP2 SUB SWAP1 RETURN JUMPDEST PUSH2 0x8C PUSH2 0x117 JUMP JUMPDEST PUSH1 0x40 MLOAD PUSH2 0x7B SWAP3 SWAP2 SWAP1 PUSH2 0x7CE JUMP JUMPDEST PUSH2 0xAD PUSH2 0xA8 CALLDATASIZE PUSH1 0x4 PUSH2 0x64D JUMP JUMPDEST PUSH2 0x15D JUMP JUMPDEST PUSH1 0x40 MLOAD PUSH2 0x7B SWAP2 SWAP1 PUSH2 0x7BA JUMP JUMPDEST PUSH2 0xC2 PUSH2 0x1BD JUMP JUMPDEST PUSH1 0x40 MLOAD PUSH2 0x7B SWAP3 SWAP2 SWAP1 PUSH2 0x8D3 JUMP JUMPDEST PUSH2 0xE3 PUSH2 0xDE CALLDATASIZE PUSH1 0x4 PUSH2 0x631 JUMP JUMPDEST PUSH2 0x227 JUMP JUMPDEST PUSH1 0x40 MLOAD PUSH2 0x7B SWAP2 SWAP1 PUSH2 0x7E8 JUMP JUMPDEST PUSH2 0xAD PUSH2 0x245 JUMP JUMPDEST PUSH1 0x60 PUSH2 0x112 PUSH1 0x40 MLOAD DUP1 PUSH1 0x20 ADD PUSH1 0x40 MSTORE DUP1 PUSH1 0x0 DUP2 MSTORE POP PUSH2 0x2BB JUMP JUMPDEST SWAP1 POP SWAP1 JUMP JUMPDEST PUSH32 0x0 PUSH32 0x0 SWAP1 SWAP2 JUMP JUMPDEST PUSH1 0x0 DUP1 PUSH1 0x0 PUSH2 0x16A PUSH2 0x1BD JUMP JUMPDEST SWAP2 POP SWAP2 POP PUSH2 0x1AF PUSH2 0x179 PUSH2 0x245 JUMP JUMPDEST DUP12 DUP12 DUP12 DUP12 DUP12 DUP9 DUP9 DUP14 DUP14 PUSH1 0x40 MLOAD PUSH1 0x20 ADD PUSH2 0x19B SWAP11 SWAP10 SWAP9 SWAP8 SWAP7 SWAP6 SWAP5 SWAP4 SWAP3 SWAP2 SWAP1 PUSH2 0x806 JUMP JUMPDEST PUSH1 0x40 MLOAD PUSH1 0x20 DUP2 DUP4 SUB SUB DUP2 MSTORE SWAP1 PUSH1 0x40 MSTORE PUSH2 0x394 JUMP JUMPDEST SWAP11 SWAP10 POP POP POP POP POP POP POP POP POP POP JUMP JUMPDEST PUSH1 0x0 DUP1 TIMESTAMP PUSH32 0x0 DUP2 LT ISZERO PUSH2 0x219 JUMPI DUP1 PUSH32 0x0 SUB SWAP3 POP PUSH3 0x278D00 SWAP2 POP PUSH2 0x222 JUMP JUMPDEST PUSH1 0x0 SWAP3 POP PUSH1 0x0 SWAP2 POP JUMPDEST POP SWAP1 SWAP2 JUMP JUMPDEST PUSH1 0x1 PUSH1 0x1 PUSH1 0xA0 SHL SUB AND PUSH1 0x0 SWAP1 DUP2 MSTORE PUSH1 0x20 DUP2 SWAP1 MSTORE PUSH1 0x40 SWAP1 KECCAK256 SLOAD PUSH1 0xFF AND SWAP1 JUMP JUMPDEST PUSH32 0x0 SWAP1 JUMP JUMPDEST DUP1 MLOAD PUSH32 0x602038038060206000396000F3FEFEFEFEFEFEFEFEFEFEFEFEFEFEFEFEFEFEFE DUP1 DUP4 MSTORE PUSH1 0x0 SWAP2 PUSH1 0x20 DUP2 ADD DUP5 DUP5 CREATE SWAP1 DUP5 MSTORE SWAP2 POP PUSH2 0x2B5 PUSH1 0x1 PUSH1 0x1 PUSH1 0xA0 SHL SUB DUP4 AND ISZERO ISZERO PUSH2 0x1AC PUSH2 0x3F4 JUMP JUMPDEST POP SWAP2 SWAP1 POP JUMP JUMPDEST DUP1 MLOAD PUSH1 0x40 DUP1 MLOAD PUSH32 0x0 PUSH32 0x0 DUP2 DUP2 ADD DUP6 DUP2 ADD DUP5 DUP2 ADD PUSH1 0x20 SWAP1 DUP2 ADD SWAP1 SWAP7 MSTORE DUP1 DUP6 MSTORE SWAP4 SWAP6 PUSH32 0x0 SWAP6 SWAP3 SWAP5 PUSH32 0x0 SWAP5 SWAP4 DUP9 ADD DUP7 PUSH1 0x0 DUP3 DUP11 EXTCODECOPY DUP5 PUSH1 0x0 DUP9 DUP4 ADD DUP9 EXTCODECOPY POP PUSH1 0x20 DUP10 DUP2 ADD SWAP1 DUP10 DUP6 ADD ADD PUSH2 0x386 DUP2 DUP4 DUP7 PUSH2 0x406 JUMP JUMPDEST POP POP POP POP POP POP POP POP POP SWAP2 SWAP1 POP JUMP JUMPDEST PUSH1 0x0 DUP1 PUSH2 0x3A0 DUP4 PUSH2 0x444 JUMP JUMPDEST PUSH1 0x1 PUSH1 0x1 PUSH1 0xA0 SHL SUB DUP2 AND PUSH1 0x0 DUP2 DUP2 MSTORE PUSH1 0x20 DUP2 SWAP1 MSTORE PUSH1 0x40 DUP1 DUP3 KECCAK256 DUP1 SLOAD PUSH1 0xFF NOT AND PUSH1 0x1 OR SWAP1 SSTORE MLOAD SWAP3 SWAP4 POP SWAP1 SWAP2 PUSH32 0x83A48FBCFC991335314E74D0496AAB6A1987E992DDC85DDDBCC4D6DD6EF2E9FC SWAP2 SWAP1 LOG2 SWAP3 SWAP2 POP POP JUMP JUMPDEST DUP2 PUSH2 0x402 JUMPI PUSH2 0x402 DUP2 PUSH2 0x47F JUMP JUMPDEST POP POP JUMP JUMPDEST JUMPDEST PUSH1 0x20 DUP2 LT PUSH2 0x426 JUMPI DUP2 MLOAD DUP4 MSTORE PUSH1 0x20 SWAP3 DUP4 ADD SWAP3 SWAP1 SWAP2 ADD SWAP1 PUSH1 0x1F NOT ADD PUSH2 0x407 JUMP JUMPDEST SWAP1 MLOAD DUP3 MLOAD PUSH1 0x20 SWAP3 SWAP1 SWAP3 SUB PUSH2 0x100 EXP PUSH1 0x0 NOT ADD DUP1 NOT SWAP1 SWAP2 AND SWAP2 AND OR SWAP1 MSTORE JUMP JUMPDEST PUSH1 0x0 PUSH1 0x60 PUSH2 0x451 DUP4 PUSH2 0x2BB JUMP JUMPDEST SWAP1 POP PUSH1 0x0 DUP2 MLOAD PUSH1 0x20 DUP4 ADD PUSH1 0x0 CREATE SWAP1 POP PUSH1 0x1 PUSH1 0x1 PUSH1 0xA0 SHL SUB DUP2 AND PUSH2 0x478 JUMPI RETURNDATASIZE PUSH1 0x0 DUP1 RETURNDATACOPY RETURNDATASIZE PUSH1 0x0 REVERT JUMPDEST SWAP4 SWAP3 POP POP POP JUMP JUMPDEST PUSH3 0x461BCD PUSH1 0xE5 SHL PUSH1 0x0 SWAP1 DUP2 MSTORE PUSH1 0x20 PUSH1 0x4 MSTORE PUSH1 0x7 PUSH1 0x24 MSTORE PUSH7 0x42414C23000030 PUSH1 0xA DUP1 DUP5 DIV DUP2 DUP2 MOD PUSH1 0x30 SWAP1 DUP2 ADD PUSH1 0x8 SHL SWAP6 DUP4 SWAP1 MOD SWAP6 SWAP1 SWAP6 ADD SWAP1 DUP3 SWAP1 DIV SWAP2 DUP3 MOD SWAP1 SWAP5 ADD PUSH1 0x10 SHL SWAP4 SWAP1 SWAP4 ADD ADD PUSH1 0xC8 SHL PUSH1 0x44 MSTORE PUSH1 0x64 SWAP1 REVERT JUMPDEST DUP1 CALLDATALOAD PUSH2 0x4DD DUP2 PUSH2 0x934 JUMP JUMPDEST SWAP3 SWAP2 POP POP JUMP JUMPDEST PUSH1 0x0 DUP3 PUSH1 0x1F DUP4 ADD SLT PUSH2 0x4F3 JUMPI DUP1 DUP2 REVERT JUMPDEST DUP2 CALLDATALOAD PUSH2 0x506 PUSH2 0x501 DUP3 PUSH2 0x908 JUMP JUMPDEST PUSH2 0x8E1 JUMP JUMPDEST DUP2 DUP2 MSTORE SWAP2 POP PUSH1 0x20 DUP1 DUP4 ADD SWAP1 DUP5 DUP2 ADD DUP2 DUP5 MUL DUP7 ADD DUP3 ADD DUP8 LT ISZERO PUSH2 0x527 JUMPI PUSH1 0x0 DUP1 REVERT JUMPDEST PUSH1 0x0 JUMPDEST DUP5 DUP2 LT ISZERO PUSH2 0x54F JUMPI DUP2 CALLDATALOAD PUSH2 0x53D DUP2 PUSH2 0x934 JUMP JUMPDEST DUP5 MSTORE SWAP3 DUP3 ADD SWAP3 SWAP1 DUP3 ADD SWAP1 PUSH1 0x1 ADD PUSH2 0x52A JUMP JUMPDEST POP POP POP POP POP SWAP3 SWAP2 POP POP JUMP JUMPDEST PUSH1 0x0 DUP3 PUSH1 0x1F DUP4 ADD SLT PUSH2 0x56A JUMPI DUP1 DUP2 REVERT JUMPDEST DUP2 CALLDATALOAD PUSH2 0x578 PUSH2 0x501 DUP3 PUSH2 0x908 JUMP JUMPDEST DUP2 DUP2 MSTORE SWAP2 POP PUSH1 0x20 DUP1 DUP4 ADD SWAP1 DUP5 DUP2 ADD DUP2 DUP5 MUL DUP7 ADD DUP3 ADD DUP8 LT ISZERO PUSH2 0x599 JUMPI PUSH1 0x0 DUP1 REVERT JUMPDEST PUSH1 0x0 JUMPDEST DUP5 DUP2 LT ISZERO PUSH2 0x54F JUMPI DUP2 CALLDATALOAD DUP5 MSTORE SWAP3 DUP3 ADD SWAP3 SWAP1 DUP3 ADD SWAP1 PUSH1 0x1 ADD PUSH2 0x59C JUMP JUMPDEST DUP1 CALLDATALOAD DUP1 ISZERO ISZERO DUP2 EQ PUSH2 0x4DD JUMPI PUSH1 0x0 DUP1 REVERT JUMPDEST PUSH1 0x0 DUP3 PUSH1 0x1F DUP4 ADD SLT PUSH2 0x5D8 JUMPI DUP1 DUP2 REVERT JUMPDEST DUP2 CALLDATALOAD PUSH8 0xFFFFFFFFFFFFFFFF DUP2 GT ISZERO PUSH2 0x5EE JUMPI DUP2 DUP3 REVERT JUMPDEST PUSH2 0x601 PUSH1 0x1F DUP3 ADD PUSH1 0x1F NOT AND PUSH1 0x20 ADD PUSH2 0x8E1 JUMP JUMPDEST SWAP2 POP DUP1 DUP3 MSTORE DUP4 PUSH1 0x20 DUP3 DUP6 ADD ADD GT ISZERO PUSH2 0x618 JUMPI PUSH1 0x0 DUP1 REVERT JUMPDEST DUP1 PUSH1 0x20 DUP5 ADD PUSH1 0x20 DUP5 ADD CALLDATACOPY PUSH1 0x0 SWAP1 DUP3 ADD PUSH1 0x20 ADD MSTORE SWAP3 SWAP2 POP POP JUMP JUMPDEST PUSH1 0x0 PUSH1 0x20 DUP3 DUP5 SUB SLT ISZERO PUSH2 0x642 JUMPI DUP1 DUP2 REVERT JUMPDEST DUP2 CALLDATALOAD PUSH2 0x478 DUP2 PUSH2 0x934 JUMP JUMPDEST PUSH1 0x0 DUP1 PUSH1 0x0 DUP1 PUSH1 0x0 DUP1 PUSH1 0x0 PUSH1 0xE0 DUP9 DUP11 SUB SLT ISZERO PUSH2 0x667 JUMPI DUP3 DUP4 REVERT JUMPDEST DUP8 CALLDATALOAD PUSH8 0xFFFFFFFFFFFFFFFF DUP1 DUP3 GT ISZERO PUSH2 0x67E JUMPI DUP5 DUP6 REVERT JUMPDEST PUSH2 0x68A DUP12 DUP4 DUP13 ADD PUSH2 0x5C8 JUMP JUMPDEST SWAP9 POP PUSH1 0x20 DUP11 ADD CALLDATALOAD SWAP2 POP DUP1 DUP3 GT ISZERO PUSH2 0x69F JUMPI DUP5 DUP6 REVERT JUMPDEST PUSH2 0x6AB DUP12 DUP4 DUP13 ADD PUSH2 0x5C8 JUMP JUMPDEST SWAP8 POP PUSH1 0x40 DUP11 ADD CALLDATALOAD SWAP2 POP DUP1 DUP3 GT ISZERO PUSH2 0x6C0 JUMPI DUP5 DUP6 REVERT JUMPDEST PUSH2 0x6CC DUP12 DUP4 DUP13 ADD PUSH2 0x4E3 JUMP JUMPDEST SWAP7 POP PUSH1 0x60 DUP11 ADD CALLDATALOAD SWAP2 POP DUP1 DUP3 GT ISZERO PUSH2 0x6E1 JUMPI DUP5 DUP6 REVERT JUMPDEST POP PUSH2 0x6EE DUP11 DUP3 DUP12 ADD PUSH2 0x55A JUMP JUMPDEST SWAP5 POP POP PUSH1 0x80 DUP9 ADD CALLDATALOAD SWAP3 POP PUSH2 0x705 DUP10 PUSH1 0xA0 DUP11 ADD PUSH2 0x4D2 JUMP JUMPDEST SWAP2 POP PUSH2 0x714 DUP10 PUSH1 0xC0 DUP11 ADD PUSH2 0x5B8 JUMP JUMPDEST SWAP1 POP SWAP3 SWAP6 SWAP9 SWAP2 SWAP5 SWAP8 POP SWAP3 SWAP6 POP JUMP JUMPDEST PUSH1 0x1 PUSH1 0x1 PUSH1 0xA0 SHL SUB AND SWAP1 MSTORE JUMP JUMPDEST PUSH1 0x0 DUP2 MLOAD DUP1 DUP5 MSTORE PUSH1 0x20 DUP1 DUP6 ADD SWAP5 POP DUP1 DUP5 ADD DUP4 JUMPDEST DUP4 DUP2 LT ISZERO PUSH2 0x75E JUMPI DUP2 MLOAD DUP8 MSTORE SWAP6 DUP3 ADD SWAP6 SWAP1 DUP3 ADD SWAP1 PUSH1 0x1 ADD PUSH2 0x742 JUMP JUMPDEST POP SWAP5 SWAP6 SWAP5 POP POP POP POP POP JUMP JUMPDEST ISZERO ISZERO SWAP1 MSTORE JUMP JUMPDEST PUSH1 0x0 DUP2 MLOAD DUP1 DUP5 MSTORE DUP2 JUMPDEST DUP2 DUP2 LT ISZERO PUSH2 0x794 JUMPI PUSH1 0x20 DUP2 DUP6 ADD DUP2 ADD MLOAD DUP7 DUP4 ADD DUP3 ADD MSTORE ADD PUSH2 0x778 JUMP JUMPDEST DUP2 DUP2 GT ISZERO PUSH2 0x7A5 JUMPI DUP3 PUSH1 0x20 DUP4 DUP8 ADD ADD MSTORE JUMPDEST POP PUSH1 0x1F ADD PUSH1 0x1F NOT AND SWAP3 SWAP1 SWAP3 ADD PUSH1 0x20 ADD SWAP3 SWAP2 POP POP JUMP JUMPDEST PUSH1 0x1 PUSH1 0x1 PUSH1 0xA0 SHL SUB SWAP2 SWAP1 SWAP2 AND DUP2 MSTORE PUSH1 0x20 ADD SWAP1 JUMP JUMPDEST PUSH1 0x1 PUSH1 0x1 PUSH1 0xA0 SHL SUB SWAP3 DUP4 AND DUP2 MSTORE SWAP2 AND PUSH1 0x20 DUP3 ADD MSTORE PUSH1 0x40 ADD SWAP1 JUMP JUMPDEST SWAP1 ISZERO ISZERO DUP2 MSTORE PUSH1 0x20 ADD SWAP1 JUMP JUMPDEST PUSH1 0x0 PUSH1 0x20 DUP3 MSTORE PUSH2 0x478 PUSH1 0x20 DUP4 ADD DUP5 PUSH2 0x76F JUMP JUMPDEST PUSH1 0x1 PUSH1 0x1 PUSH1 0xA0 SHL SUB DUP12 AND DUP2 MSTORE PUSH2 0x140 PUSH1 0x20 DUP1 DUP4 ADD DUP3 SWAP1 MSTORE PUSH1 0x0 SWAP2 SWAP1 PUSH2 0x82D DUP5 DUP4 ADD DUP15 PUSH2 0x76F JUMP JUMPDEST SWAP2 POP DUP4 DUP3 SUB PUSH1 0x40 DUP6 ADD MSTORE PUSH2 0x841 DUP3 DUP14 PUSH2 0x76F JUMP JUMPDEST DUP5 DUP2 SUB PUSH1 0x60 DUP7 ADD MSTORE DUP12 MLOAD DUP1 DUP3 MSTORE DUP3 DUP14 ADD SWAP4 POP SWAP1 DUP3 ADD SWAP1 DUP5 JUMPDEST DUP2 DUP2 LT ISZERO PUSH2 0x87D JUMPI PUSH2 0x86B DUP6 MLOAD PUSH2 0x928 JUMP JUMPDEST DUP4 MSTORE SWAP4 DUP4 ADD SWAP4 SWAP2 DUP4 ADD SWAP2 PUSH1 0x1 ADD PUSH2 0x859 JUMP JUMPDEST POP POP DUP5 DUP2 SUB PUSH1 0x80 DUP7 ADD MSTORE PUSH2 0x891 DUP2 DUP13 PUSH2 0x72F JUMP JUMPDEST SWAP4 POP POP POP POP DUP7 PUSH1 0xA0 DUP4 ADD MSTORE DUP6 PUSH1 0xC0 DUP4 ADD MSTORE DUP5 PUSH1 0xE0 DUP4 ADD MSTORE PUSH2 0x8B6 PUSH2 0x100 DUP4 ADD DUP6 PUSH2 0x722 JUMP JUMPDEST PUSH2 0x8C4 PUSH2 0x120 DUP4 ADD DUP5 PUSH2 0x769 JUMP JUMPDEST SWAP12 SWAP11 POP POP POP POP POP POP POP POP POP POP POP JUMP JUMPDEST SWAP2 DUP3 MSTORE PUSH1 0x20 DUP3 ADD MSTORE PUSH1 0x40 ADD SWAP1 JUMP JUMPDEST PUSH1 0x40 MLOAD DUP2 DUP2 ADD PUSH8 0xFFFFFFFFFFFFFFFF DUP2 GT DUP3 DUP3 LT OR ISZERO PUSH2 0x900 JUMPI PUSH1 0x0 DUP1 REVERT JUMPDEST PUSH1 0x40 MSTORE SWAP2 SWAP1 POP JUMP JUMPDEST PUSH1 0x0 PUSH8 0xFFFFFFFFFFFFFFFF DUP3 GT ISZERO PUSH2 0x91E JUMPI DUP1 DUP2 REVERT JUMPDEST POP PUSH1 0x20 SWAP1 DUP2 MUL ADD SWAP1 JUMP JUMPDEST PUSH1 0x1 PUSH1 0x1 PUSH1 0xA0 SHL SUB AND SWAP1 JUMP JUMPDEST PUSH1 0x1 PUSH1 0x1 PUSH1 0xA0 SHL SUB DUP2 AND DUP2 EQ PUSH2 0x949 JUMPI PUSH1 0x0 DUP1 REVERT JUMPDEST POP JUMP INVALID LOG2 PUSH5 0x6970667358 0x22 SLT KECCAK256 0xD9 CODESIZE ADD 0xF7 SWAP3 0x48 SDIV 0xC6 DUP3 0x4E 0x25 PUSH21 0xDC21FD0BA3F8ED60A0DE11A51DDB8DDCC815548E64 PUSH20 0x6F6C634300070100336102E06040527F6E71EDAE SLT 0xB1 0xB9 PUSH32 0x4D1F60370FEF10105FA2FAAE0126114A169C64845D6126C96101205234801562 STOP STOP CALLDATACOPY JUMPI PUSH1 0x0 DUP1 REVERT JUMPDEST POP PUSH1 0x40 MLOAD PUSH3 0x5C89 CODESIZE SUB DUP1 PUSH3 0x5C89 DUP4 CODECOPY DUP2 ADD PUSH1 0x40 DUP2 SWAP1 MSTORE PUSH3 0x5A SWAP2 PUSH3 0xD48 JUMP JUMPDEST DUP10 DUP10 DUP10 DUP10 DUP11 MLOAD PUSH1 0x1 PUSH1 0x1 PUSH1 0x40 SHL SUB DUP2 GT DUP1 ISZERO PUSH3 0x76 JUMPI PUSH1 0x0 DUP1 REVERT JUMPDEST POP PUSH1 0x40 MLOAD SWAP1 DUP1 DUP3 MSTORE DUP1 PUSH1 0x20 MUL PUSH1 0x20 ADD DUP3 ADD PUSH1 0x40 MSTORE DUP1 ISZERO PUSH3 0xA1 JUMPI DUP2 PUSH1 0x20 ADD PUSH1 0x20 DUP3 MUL DUP1 CALLDATASIZE DUP4 CALLDATACOPY ADD SWAP1 POP JUMPDEST POP DUP10 DUP10 DUP10 DUP10 DUP9 DUP7 MLOAD PUSH1 0x2 EQ PUSH3 0xB9 JUMPI PUSH1 0x1 PUSH3 0xBC JUMP JUMPDEST PUSH1 0x2 JUMPDEST DUP10 DUP10 DUP10 DUP10 DUP10 DUP10 DUP10 DUP10 DUP3 DUP3 DUP10 DUP10 DUP2 DUP1 PUSH1 0x40 MLOAD DUP1 PUSH1 0x40 ADD PUSH1 0x40 MSTORE DUP1 PUSH1 0x1 DUP2 MSTORE PUSH1 0x20 ADD PUSH1 0x31 PUSH1 0xF8 SHL DUP2 MSTORE POP DUP5 DUP5 DUP10 CALLER PUSH1 0x1 PUSH1 0x1 PUSH1 0xA0 SHL SUB AND PUSH1 0x0 SHL DUP1 PUSH1 0x80 DUP2 DUP2 MSTORE POP POP POP DUP1 PUSH1 0x1 PUSH1 0x1 PUSH1 0xA0 SHL SUB AND PUSH1 0xA0 DUP2 PUSH1 0x1 PUSH1 0x1 PUSH1 0xA0 SHL SUB AND PUSH1 0x60 SHL DUP2 MSTORE POP POP POP DUP2 PUSH1 0x3 SWAP1 DUP1 MLOAD SWAP1 PUSH1 0x20 ADD SWAP1 PUSH3 0x133 SWAP3 SWAP2 SWAP1 PUSH3 0xB00 JUMP JUMPDEST POP DUP1 MLOAD PUSH3 0x149 SWAP1 PUSH1 0x4 SWAP1 PUSH1 0x20 DUP5 ADD SWAP1 PUSH3 0xB00 JUMP JUMPDEST POP POP PUSH1 0x5 DUP1 SLOAD PUSH1 0xFF NOT AND PUSH1 0x12 OR SWAP1 SSTORE POP DUP2 MLOAD PUSH1 0x20 SWAP3 DUP4 ADD KECCAK256 PUSH1 0xC0 MSTORE DUP1 MLOAD SWAP2 ADD KECCAK256 PUSH1 0xE0 MSTORE POP POP PUSH32 0x8B73C3C69BB8FE3D512ECC4CF759CC79239F7B179B0FFACAA9A75D522B39400F PUSH2 0x100 MSTORE POP PUSH3 0x1A8 PUSH3 0x76A700 DUP4 GT ISZERO PUSH2 0x194 PUSH3 0x511 JUMP JUMPDEST PUSH3 0x1BC PUSH3 0x278D00 DUP3 GT ISZERO PUSH2 0x195 PUSH3 0x511 JUMP JUMPDEST TIMESTAMP SWAP1 SWAP2 ADD PUSH2 0x140 DUP2 SWAP1 MSTORE ADD PUSH2 0x160 MSTORE DUP6 MLOAD PUSH3 0x1DE SWAP1 PUSH1 0x2 GT ISZERO PUSH1 0xC8 PUSH3 0x511 JUMP JUMPDEST PUSH3 0x1F8 PUSH3 0x1EC PUSH3 0x526 JUMP JUMPDEST DUP8 MLOAD GT ISZERO PUSH1 0xC9 PUSH3 0x511 JUMP JUMPDEST PUSH3 0x20E DUP7 PUSH3 0x52B PUSH1 0x20 SHL PUSH3 0xF6D OR PUSH1 0x20 SHR JUMP JUMPDEST PUSH3 0x219 DUP5 PUSH3 0x537 JUMP JUMPDEST PUSH1 0x40 MLOAD PUSH4 0x9B2760F PUSH1 0xE0 SHL DUP2 MSTORE PUSH1 0x0 SWAP1 PUSH1 0x1 PUSH1 0x1 PUSH1 0xA0 SHL SUB DUP13 AND SWAP1 PUSH4 0x9B2760F SWAP1 PUSH3 0x24A SWAP1 DUP14 SWAP1 PUSH1 0x4 ADD PUSH3 0xF5D JUMP JUMPDEST PUSH1 0x20 PUSH1 0x40 MLOAD DUP1 DUP4 SUB DUP2 PUSH1 0x0 DUP8 DUP1 EXTCODESIZE ISZERO DUP1 ISZERO PUSH3 0x265 JUMPI PUSH1 0x0 DUP1 REVERT JUMPDEST POP GAS CALL ISZERO DUP1 ISZERO PUSH3 0x27A JUMPI RETURNDATASIZE PUSH1 0x0 DUP1 RETURNDATACOPY RETURNDATASIZE PUSH1 0x0 REVERT JUMPDEST POP POP POP POP PUSH1 0x40 MLOAD RETURNDATASIZE PUSH1 0x1F NOT PUSH1 0x1F DUP3 ADD AND DUP3 ADD DUP1 PUSH1 0x40 MSTORE POP DUP2 ADD SWAP1 PUSH3 0x2A0 SWAP2 SWAP1 PUSH3 0xD2F JUMP JUMPDEST PUSH1 0x40 MLOAD PUSH4 0x3354E3E9 PUSH1 0xE1 SHL DUP2 MSTORE SWAP1 SWAP2 POP PUSH1 0x1 PUSH1 0x1 PUSH1 0xA0 SHL SUB DUP13 AND SWAP1 PUSH4 0x66A9C7D2 SWAP1 PUSH3 0x2D5 SWAP1 DUP5 SWAP1 DUP12 SWAP1 DUP12 SWAP1 PUSH1 0x4 ADD PUSH3 0xEC1 JUMP JUMPDEST PUSH1 0x0 PUSH1 0x40 MLOAD DUP1 DUP4 SUB DUP2 PUSH1 0x0 DUP8 DUP1 EXTCODESIZE ISZERO DUP1 ISZERO PUSH3 0x2F0 JUMPI PUSH1 0x0 DUP1 REVERT JUMPDEST POP GAS CALL ISZERO DUP1 ISZERO PUSH3 0x305 JUMPI RETURNDATASIZE PUSH1 0x0 DUP1 RETURNDATACOPY RETURNDATASIZE PUSH1 0x0 REVERT JUMPDEST POP POP POP POP DUP11 PUSH1 0x1 PUSH1 0x1 PUSH1 0xA0 SHL SUB AND PUSH2 0x180 DUP2 PUSH1 0x1 PUSH1 0x1 PUSH1 0xA0 SHL SUB AND PUSH1 0x60 SHL DUP2 MSTORE POP POP DUP1 PUSH2 0x1A0 DUP2 DUP2 MSTORE POP POP POP POP POP POP POP POP POP POP POP POP POP POP POP POP POP POP POP POP POP POP PUSH1 0x1 PUSH1 0xA DUP2 SWAP1 SSTORE POP PUSH1 0x0 DUP8 MLOAD SWAP1 POP PUSH3 0x36A DUP2 DUP9 MLOAD PUSH3 0x5C3 PUSH1 0x20 SHL PUSH3 0xF77 OR PUSH1 0x20 SHR JUMP JUMPDEST PUSH2 0x1C0 DUP2 SWAP1 MSTORE DUP8 MLOAD DUP9 SWAP1 PUSH1 0x0 SWAP1 PUSH3 0x37E JUMPI INVALID JUMPDEST PUSH1 0x20 MUL PUSH1 0x20 ADD ADD MLOAD PUSH1 0x1 PUSH1 0x1 PUSH1 0xA0 SHL SUB AND PUSH2 0x1E0 DUP2 PUSH1 0x1 PUSH1 0x1 PUSH1 0xA0 SHL SUB AND PUSH1 0x60 SHL DUP2 MSTORE POP POP DUP8 PUSH1 0x1 DUP2 MLOAD DUP2 LT PUSH3 0x3B1 JUMPI INVALID JUMPDEST PUSH1 0x20 MUL PUSH1 0x20 ADD ADD MLOAD PUSH1 0x1 PUSH1 0x1 PUSH1 0xA0 SHL SUB AND PUSH2 0x200 DUP2 PUSH1 0x1 PUSH1 0x1 PUSH1 0xA0 SHL SUB AND PUSH1 0x60 SHL DUP2 MSTORE POP POP PUSH1 0x2 DUP2 GT PUSH3 0x3E7 JUMPI PUSH1 0x0 PUSH3 0x3FE JUMP JUMPDEST DUP8 PUSH1 0x2 DUP2 MLOAD DUP2 LT PUSH3 0x3F5 JUMPI INVALID JUMPDEST PUSH1 0x20 MUL PUSH1 0x20 ADD ADD MLOAD JUMPDEST PUSH1 0x60 SHL PUSH1 0x1 PUSH1 0x1 PUSH1 0x60 SHL SUB NOT AND PUSH2 0x220 MSTORE PUSH1 0x3 DUP2 GT PUSH3 0x420 JUMPI PUSH1 0x0 PUSH3 0x437 JUMP JUMPDEST DUP8 PUSH1 0x3 DUP2 MLOAD DUP2 LT PUSH3 0x42E JUMPI INVALID JUMPDEST PUSH1 0x20 MUL PUSH1 0x20 ADD ADD MLOAD JUMPDEST PUSH1 0x1 PUSH1 0x1 PUSH1 0xA0 SHL SUB AND PUSH2 0x240 DUP2 PUSH1 0x1 PUSH1 0x1 PUSH1 0xA0 SHL SUB AND PUSH1 0x60 SHL DUP2 MSTORE POP POP PUSH3 0x47A DUP9 PUSH1 0x0 DUP2 MLOAD DUP2 LT PUSH3 0x466 JUMPI INVALID JUMPDEST PUSH1 0x20 MUL PUSH1 0x20 ADD ADD MLOAD PUSH3 0x5D2 PUSH1 0x20 SHL PUSH1 0x20 SHR JUMP JUMPDEST PUSH2 0x260 MSTORE DUP8 MLOAD PUSH3 0x493 SWAP1 DUP10 SWAP1 PUSH1 0x1 SWAP1 DUP2 LT PUSH3 0x466 JUMPI INVALID JUMPDEST PUSH2 0x280 MSTORE PUSH1 0x2 DUP2 GT PUSH3 0x4A8 JUMPI PUSH1 0x0 PUSH3 0x4BA JUMP JUMPDEST PUSH3 0x4BA DUP9 PUSH1 0x2 DUP2 MLOAD DUP2 LT PUSH3 0x466 JUMPI INVALID JUMPDEST PUSH2 0x2A0 MSTORE PUSH1 0x3 DUP2 GT PUSH3 0x4CF JUMPI PUSH1 0x0 PUSH3 0x4E1 JUMP JUMPDEST PUSH3 0x4E1 DUP9 PUSH1 0x3 DUP2 MLOAD DUP2 LT PUSH3 0x466 JUMPI INVALID JUMPDEST PUSH2 0x2C0 MSTORE TIMESTAMP PUSH3 0x4F4 DUP2 DUP1 DUP11 DUP1 PUSH3 0x67E JUMP JUMPDEST PUSH3 0x4FF DUP4 PUSH3 0x80C JUMP JUMPDEST POP POP POP POP POP POP POP POP POP POP POP POP PUSH3 0x1024 JUMP JUMPDEST DUP2 PUSH3 0x522 JUMPI PUSH3 0x522 DUP2 PUSH3 0x860 JUMP JUMPDEST POP POP JUMP JUMPDEST PUSH1 0x4 SWAP1 JUMP JUMPDEST DUP1 PUSH3 0x522 DUP2 PUSH3 0x8B3 JUMP JUMPDEST PUSH3 0x54C PUSH5 0xE8D4A51000 DUP3 LT ISZERO PUSH1 0xCB PUSH3 0x511 JUMP JUMPDEST PUSH3 0x564 PUSH8 0x16345785D8A0000 DUP3 GT ISZERO PUSH1 0xCA PUSH3 0x511 JUMP JUMPDEST PUSH3 0x583 DUP2 PUSH1 0xC0 PUSH1 0x8 SLOAD PUSH3 0x940 PUSH1 0x20 SHL PUSH3 0xF84 OR SWAP1 SWAP3 SWAP2 SWAP1 PUSH1 0x20 SHR JUMP JUMPDEST PUSH1 0x8 SSTORE PUSH1 0x40 MLOAD PUSH32 0xA9BA3FFE0B6C366B81232CAAB38605A0699AD5398D6CCE76F91EE809E322DAFC SWAP1 PUSH3 0x5B8 SWAP1 DUP4 SWAP1 PUSH3 0xF72 JUMP JUMPDEST PUSH1 0x40 MLOAD DUP1 SWAP2 SUB SWAP1 LOG1 POP JUMP JUMPDEST PUSH3 0x522 DUP3 DUP3 EQ PUSH1 0x67 PUSH3 0x511 JUMP JUMPDEST PUSH1 0x0 DUP1 DUP3 PUSH1 0x1 PUSH1 0x1 PUSH1 0xA0 SHL SUB AND PUSH4 0x313CE567 PUSH1 0x40 MLOAD DUP2 PUSH4 0xFFFFFFFF AND PUSH1 0xE0 SHL DUP2 MSTORE PUSH1 0x4 ADD PUSH1 0x20 PUSH1 0x40 MLOAD DUP1 DUP4 SUB DUP2 DUP7 DUP1 EXTCODESIZE ISZERO DUP1 ISZERO PUSH3 0x60F JUMPI PUSH1 0x0 DUP1 REVERT JUMPDEST POP GAS STATICCALL ISZERO DUP1 ISZERO PUSH3 0x624 JUMPI RETURNDATASIZE PUSH1 0x0 DUP1 RETURNDATACOPY RETURNDATASIZE PUSH1 0x0 REVERT JUMPDEST POP POP POP POP PUSH1 0x40 MLOAD RETURNDATASIZE PUSH1 0x1F NOT PUSH1 0x1F DUP3 ADD AND DUP3 ADD DUP1 PUSH1 0x40 MSTORE POP DUP2 ADD SWAP1 PUSH3 0x64A SWAP2 SWAP1 PUSH3 0xE57 JUMP JUMPDEST PUSH1 0xFF AND SWAP1 POP PUSH1 0x0 PUSH3 0x669 PUSH1 0x12 DUP4 PUSH3 0x955 PUSH1 0x20 SHL PUSH3 0xF99 OR PUSH1 0x20 SHR JUMP JUMPDEST PUSH1 0xA EXP PUSH8 0xDE0B6B3A7640000 MUL SWAP5 SWAP4 POP POP POP POP JUMP JUMPDEST PUSH1 0xB SLOAD PUSH1 0x0 DUP1 JUMPDEST DUP4 MLOAD DUP2 LT ISZERO PUSH3 0x76F JUMPI PUSH1 0x0 DUP5 DUP3 DUP2 MLOAD DUP2 LT PUSH3 0x69E JUMPI INVALID JUMPDEST PUSH1 0x20 MUL PUSH1 0x20 ADD ADD MLOAD SWAP1 POP PUSH3 0x6C6 PUSH7 0x2386F26FC10000 DUP3 LT ISZERO PUSH2 0x12E PUSH3 0x511 PUSH1 0x20 SHL PUSH1 0x20 SHR JUMP JUMPDEST PUSH3 0x747 PUSH3 0x6E0 DUP3 PUSH3 0x972 PUSH1 0x20 SHL PUSH3 0xFAF OR PUSH1 0x20 SHR JUMP JUMPDEST DUP4 PUSH1 0x10 MUL PUSH1 0x80 ADD PUSH3 0x732 PUSH3 0x715 DUP11 DUP8 DUP2 MLOAD DUP2 LT PUSH3 0x6FC JUMPI INVALID JUMPDEST PUSH1 0x20 MUL PUSH1 0x20 ADD ADD MLOAD PUSH3 0x9B3 PUSH1 0x20 SHL PUSH3 0xFCF OR PUSH1 0x20 SHR JUMP JUMPDEST DUP7 PUSH1 0x1F MUL PUSH1 0x4 ADD DUP10 PUSH3 0x9E0 PUSH1 0x20 SHL PUSH3 0xFEB OR SWAP1 SWAP3 SWAP2 SWAP1 PUSH1 0x20 SHR JUMP JUMPDEST PUSH3 0x9F2 PUSH1 0x20 SHL PUSH3 0xFFD OR SWAP1 SWAP3 SWAP2 SWAP1 PUSH1 0x20 SHR JUMP JUMPDEST SWAP4 POP PUSH3 0x763 DUP2 DUP5 PUSH3 0xA02 PUSH1 0x20 SHL PUSH3 0x100D OR SWAP1 SWAP2 SWAP1 PUSH1 0x20 SHR JUMP JUMPDEST SWAP3 POP POP PUSH1 0x1 ADD PUSH3 0x685 JUMP JUMPDEST POP PUSH3 0x788 PUSH8 0xDE0B6B3A7640000 DUP3 EQ PUSH2 0x134 PUSH3 0x511 JUMP JUMPDEST PUSH3 0x7C1 DUP6 PUSH1 0xE0 PUSH3 0x7AC DUP10 PUSH1 0xC0 DUP8 PUSH3 0xA1D PUSH1 0x20 SHL PUSH3 0x101F OR SWAP1 SWAP3 SWAP2 SWAP1 PUSH1 0x20 SHR JUMP JUMPDEST PUSH3 0xA1D PUSH1 0x20 SHL PUSH3 0x101F OR SWAP1 SWAP3 SWAP2 SWAP1 PUSH1 0x20 SHR JUMP JUMPDEST PUSH1 0xB SSTORE PUSH1 0x40 MLOAD PUSH32 0xF3631F9DAB08169D1DB21C6DC5F32536FB2B0A6B9BB5330D71C52132F968BE0 SWAP1 PUSH3 0x7FC SWAP1 DUP9 SWAP1 DUP9 SWAP1 DUP9 SWAP1 DUP9 SWAP1 PUSH3 0xF7B JUMP JUMPDEST PUSH1 0x40 MLOAD DUP1 SWAP2 SUB SWAP1 LOG1 POP POP POP POP POP POP JUMP JUMPDEST PUSH3 0x82B DUP2 PUSH1 0x0 PUSH1 0xB SLOAD PUSH3 0xA2F PUSH1 0x20 SHL PUSH3 0x1031 OR SWAP1 SWAP3 SWAP2 SWAP1 PUSH1 0x20 SHR JUMP JUMPDEST PUSH1 0xB SSTORE PUSH1 0x40 MLOAD PUSH32 0x5A9E84F78F7957CB4ED7478EB0FCAD35EE4ECBE2E0F298420B28A3955392573F SWAP1 PUSH3 0x5B8 SWAP1 DUP4 SWAP1 PUSH3 0xEB6 JUMP JUMPDEST PUSH3 0x461BCD PUSH1 0xE5 SHL PUSH1 0x0 SWAP1 DUP2 MSTORE PUSH1 0x20 PUSH1 0x4 MSTORE PUSH1 0x7 PUSH1 0x24 MSTORE PUSH7 0x42414C23000030 PUSH1 0xA DUP1 DUP5 DIV DUP2 DUP2 MOD PUSH1 0x30 SWAP1 DUP2 ADD PUSH1 0x8 SHL SWAP6 DUP4 SWAP1 MOD SWAP6 SWAP1 SWAP6 ADD SWAP1 DUP3 SWAP1 DIV SWAP2 DUP3 MOD SWAP1 SWAP5 ADD PUSH1 0x10 SHL SWAP4 SWAP1 SWAP4 ADD ADD PUSH1 0xC8 SHL PUSH1 0x44 MSTORE PUSH1 0x64 SWAP1 REVERT JUMPDEST PUSH1 0x2 DUP2 MLOAD LT ISZERO PUSH3 0x8C4 JUMPI PUSH3 0x93D JUMP JUMPDEST PUSH1 0x0 DUP2 PUSH1 0x0 DUP2 MLOAD DUP2 LT PUSH3 0x8D4 JUMPI INVALID JUMPDEST PUSH1 0x20 MUL PUSH1 0x20 ADD ADD MLOAD SWAP1 POP PUSH1 0x0 PUSH1 0x1 SWAP1 POP JUMPDEST DUP3 MLOAD DUP2 LT ISZERO PUSH3 0x93A JUMPI PUSH1 0x0 DUP4 DUP3 DUP2 MLOAD DUP2 LT PUSH3 0x8FE JUMPI INVALID JUMPDEST PUSH1 0x20 MUL PUSH1 0x20 ADD ADD MLOAD SWAP1 POP PUSH3 0x92F DUP2 PUSH1 0x1 PUSH1 0x1 PUSH1 0xA0 SHL SUB AND DUP5 PUSH1 0x1 PUSH1 0x1 PUSH1 0xA0 SHL SUB AND LT PUSH1 0x65 PUSH3 0x511 PUSH1 0x20 SHL PUSH1 0x20 SHR JUMP JUMPDEST SWAP2 POP PUSH1 0x1 ADD PUSH3 0x8E5 JUMP JUMPDEST POP POP JUMPDEST POP JUMP JUMPDEST PUSH1 0x1 PUSH1 0x1 PUSH1 0x40 SHL SUB DUP2 SHL NOT SWAP3 SWAP1 SWAP3 AND SWAP2 SHL OR SWAP1 JUMP JUMPDEST PUSH1 0x0 PUSH3 0x967 DUP4 DUP4 GT ISZERO PUSH1 0x1 PUSH3 0x511 JUMP JUMPDEST POP DUP1 DUP3 SUB JUMPDEST SWAP3 SWAP2 POP POP JUMP JUMPDEST PUSH1 0x0 PUSH3 0x96C PUSH8 0xDE0B6B3A7640000 PUSH3 0x99F PUSH2 0xFFFF DUP1 AND DUP6 PUSH3 0xA58 PUSH1 0x20 SHL PUSH3 0x1058 OR SWAP1 SWAP2 SWAP1 PUSH1 0x20 SHR JUMP JUMPDEST PUSH3 0xAAD PUSH1 0x20 SHL PUSH3 0x10A6 OR SWAP1 SWAP2 SWAP1 PUSH1 0x20 SHR JUMP JUMPDEST PUSH1 0x0 PUSH3 0x96C PUSH8 0xDE0B6B3A7640000 PUSH3 0x99F PUSH4 0x7FFFFFFF DUP6 PUSH3 0xA58 PUSH1 0x20 SHL PUSH3 0x1058 OR SWAP1 SWAP2 SWAP1 PUSH1 0x20 SHR JUMP JUMPDEST PUSH4 0x7FFFFFFF DUP2 SHL NOT SWAP3 SWAP1 SWAP3 AND SWAP2 SHL OR SWAP1 JUMP JUMPDEST PUSH2 0xFFFF DUP2 SHL NOT SWAP3 SWAP1 SWAP3 AND SWAP2 SHL OR SWAP1 JUMP JUMPDEST PUSH1 0x0 DUP3 DUP3 ADD PUSH3 0xA16 DUP5 DUP3 LT ISZERO DUP4 PUSH3 0x511 JUMP JUMPDEST SWAP4 SWAP3 POP POP POP JUMP JUMPDEST PUSH4 0xFFFFFFFF DUP2 SHL NOT SWAP3 SWAP1 SWAP3 AND SWAP2 SHL OR SWAP1 JUMP JUMPDEST PUSH1 0x0 PUSH1 0x1 DUP3 SHL NOT DUP5 AND DUP3 DUP5 PUSH3 0xA47 JUMPI PUSH1 0x0 PUSH3 0xA4A JUMP JUMPDEST PUSH1 0x1 JUMPDEST PUSH1 0xFF AND SWAP1 SHL OR SWAP5 SWAP4 POP POP POP POP JUMP JUMPDEST PUSH1 0x0 DUP3 DUP3 MUL PUSH3 0xA80 DUP5 ISZERO DUP1 PUSH3 0xA78 JUMPI POP DUP4 DUP6 DUP4 DUP2 PUSH3 0xA75 JUMPI INVALID JUMPDEST DIV EQ JUMPDEST PUSH1 0x3 PUSH3 0x511 JUMP JUMPDEST DUP1 PUSH3 0xA91 JUMPI PUSH1 0x0 SWAP2 POP POP PUSH3 0x96C JUMP JUMPDEST PUSH8 0xDE0B6B3A7640000 PUSH1 0x0 NOT DUP3 ADD JUMPDEST DIV PUSH1 0x1 ADD SWAP2 POP POP PUSH3 0x96C JUMP JUMPDEST PUSH1 0x0 PUSH3 0xABE DUP3 ISZERO ISZERO PUSH1 0x4 PUSH3 0x511 JUMP JUMPDEST DUP3 PUSH3 0xACD JUMPI POP PUSH1 0x0 PUSH3 0x96C JUMP JUMPDEST PUSH8 0xDE0B6B3A7640000 DUP4 DUP2 MUL SWAP1 PUSH3 0xAF3 SWAP1 DUP6 DUP4 DUP2 PUSH3 0xAE9 JUMPI INVALID JUMPDEST DIV EQ PUSH1 0x5 PUSH3 0x511 JUMP JUMPDEST DUP3 PUSH1 0x1 DUP3 SUB DUP2 PUSH3 0xAA0 JUMPI INVALID JUMPDEST DUP3 DUP1 SLOAD PUSH1 0x1 DUP2 PUSH1 0x1 AND ISZERO PUSH2 0x100 MUL SUB AND PUSH1 0x2 SWAP1 DIV SWAP1 PUSH1 0x0 MSTORE PUSH1 0x20 PUSH1 0x0 KECCAK256 SWAP1 PUSH1 0x1F ADD PUSH1 0x20 SWAP1 DIV DUP2 ADD SWAP3 DUP3 PUSH1 0x1F LT PUSH3 0xB43 JUMPI DUP1 MLOAD PUSH1 0xFF NOT AND DUP4 DUP1 ADD OR DUP6 SSTORE PUSH3 0xB73 JUMP JUMPDEST DUP3 DUP1 ADD PUSH1 0x1 ADD DUP6 SSTORE DUP3 ISZERO PUSH3 0xB73 JUMPI SWAP2 DUP3 ADD JUMPDEST DUP3 DUP2 GT ISZERO PUSH3 0xB73 JUMPI DUP3 MLOAD DUP3 SSTORE SWAP2 PUSH1 0x20 ADD SWAP2 SWAP1 PUSH1 0x1 ADD SWAP1 PUSH3 0xB56 JUMP JUMPDEST POP PUSH3 0xB81 SWAP3 SWAP2 POP PUSH3 0xB85 JUMP JUMPDEST POP SWAP1 JUMP JUMPDEST JUMPDEST DUP1 DUP3 GT ISZERO PUSH3 0xB81 JUMPI PUSH1 0x0 DUP2 SSTORE PUSH1 0x1 ADD PUSH3 0xB86 JUMP JUMPDEST DUP1 MLOAD PUSH3 0x96C DUP2 PUSH3 0x100E JUMP JUMPDEST PUSH1 0x0 DUP3 PUSH1 0x1F DUP4 ADD SLT PUSH3 0xBBA JUMPI DUP1 DUP2 REVERT JUMPDEST DUP2 MLOAD PUSH3 0xBD1 PUSH3 0xBCB DUP3 PUSH3 0xFE2 JUMP JUMPDEST PUSH3 0xFBB JUMP JUMPDEST DUP2 DUP2 MSTORE SWAP2 POP PUSH1 0x20 DUP1 DUP4 ADD SWAP1 DUP5 DUP2 ADD DUP2 DUP5 MUL DUP7 ADD DUP3 ADD DUP8 LT ISZERO PUSH3 0xBF3 JUMPI PUSH1 0x0 DUP1 REVERT JUMPDEST PUSH1 0x0 JUMPDEST DUP5 DUP2 LT ISZERO PUSH3 0xC1F JUMPI DUP2 MLOAD PUSH3 0xC0C DUP2 PUSH3 0x100E JUMP JUMPDEST DUP5 MSTORE SWAP3 DUP3 ADD SWAP3 SWAP1 DUP3 ADD SWAP1 PUSH1 0x1 ADD PUSH3 0xBF6 JUMP JUMPDEST POP POP POP POP POP SWAP3 SWAP2 POP POP JUMP JUMPDEST PUSH1 0x0 DUP3 PUSH1 0x1F DUP4 ADD SLT PUSH3 0xC3B JUMPI DUP1 DUP2 REVERT JUMPDEST DUP2 MLOAD PUSH3 0xC4C PUSH3 0xBCB DUP3 PUSH3 0xFE2 JUMP JUMPDEST DUP2 DUP2 MSTORE SWAP2 POP PUSH1 0x20 DUP1 DUP4 ADD SWAP1 DUP5 DUP2 ADD DUP2 DUP5 MUL DUP7 ADD DUP3 ADD DUP8 LT ISZERO PUSH3 0xC6E JUMPI PUSH1 0x0 DUP1 REVERT JUMPDEST PUSH1 0x0 JUMPDEST DUP5 DUP2 LT ISZERO PUSH3 0xC1F JUMPI DUP2 MLOAD DUP5 MSTORE SWAP3 DUP3 ADD SWAP3 SWAP1 DUP3 ADD SWAP1 PUSH1 0x1 ADD PUSH3 0xC71 JUMP JUMPDEST DUP1 MLOAD DUP1 ISZERO ISZERO DUP2 EQ PUSH3 0x96C JUMPI PUSH1 0x0 DUP1 REVERT JUMPDEST PUSH1 0x0 DUP3 PUSH1 0x1F DUP4 ADD SLT PUSH3 0xCB1 JUMPI DUP1 DUP2 REVERT JUMPDEST DUP2 MLOAD PUSH1 0x1 PUSH1 0x1 PUSH1 0x40 SHL SUB DUP2 GT ISZERO PUSH3 0xCC7 JUMPI DUP2 DUP3 REVERT JUMPDEST PUSH1 0x20 PUSH3 0xCDD PUSH1 0x1F DUP4 ADD PUSH1 0x1F NOT AND DUP3 ADD PUSH3 0xFBB JUMP JUMPDEST SWAP3 POP DUP2 DUP4 MSTORE DUP5 DUP2 DUP4 DUP7 ADD ADD GT ISZERO PUSH3 0xCF4 JUMPI PUSH1 0x0 DUP1 REVERT JUMPDEST PUSH1 0x0 JUMPDEST DUP3 DUP2 LT ISZERO PUSH3 0xD14 JUMPI DUP5 DUP2 ADD DUP3 ADD MLOAD DUP5 DUP3 ADD DUP4 ADD MSTORE DUP2 ADD PUSH3 0xCF7 JUMP JUMPDEST DUP3 DUP2 GT ISZERO PUSH3 0xD26 JUMPI PUSH1 0x0 DUP3 DUP5 DUP7 ADD ADD MSTORE JUMPDEST POP POP POP SWAP3 SWAP2 POP POP JUMP JUMPDEST PUSH1 0x0 PUSH1 0x20 DUP3 DUP5 SUB SLT ISZERO PUSH3 0xD41 JUMPI DUP1 DUP2 REVERT JUMPDEST POP MLOAD SWAP2 SWAP1 POP JUMP JUMPDEST PUSH1 0x0 DUP1 PUSH1 0x0 DUP1 PUSH1 0x0 DUP1 PUSH1 0x0 DUP1 PUSH1 0x0 DUP1 PUSH2 0x140 DUP12 DUP14 SUB SLT ISZERO PUSH3 0xD68 JUMPI DUP6 DUP7 REVERT JUMPDEST PUSH3 0xD74 DUP13 DUP13 PUSH3 0xB9C JUMP JUMPDEST PUSH1 0x20 DUP13 ADD MLOAD SWAP1 SWAP11 POP PUSH1 0x1 PUSH1 0x1 PUSH1 0x40 SHL SUB DUP1 DUP3 GT ISZERO PUSH3 0xD91 JUMPI DUP8 DUP9 REVERT JUMPDEST PUSH3 0xD9F DUP15 DUP4 DUP16 ADD PUSH3 0xCA0 JUMP JUMPDEST SWAP11 POP PUSH1 0x40 DUP14 ADD MLOAD SWAP2 POP DUP1 DUP3 GT ISZERO PUSH3 0xDB5 JUMPI DUP8 DUP9 REVERT JUMPDEST PUSH3 0xDC3 DUP15 DUP4 DUP16 ADD PUSH3 0xCA0 JUMP JUMPDEST SWAP10 POP PUSH1 0x60 DUP14 ADD MLOAD SWAP2 POP DUP1 DUP3 GT ISZERO PUSH3 0xDD9 JUMPI DUP8 DUP9 REVERT JUMPDEST PUSH3 0xDE7 DUP15 DUP4 DUP16 ADD PUSH3 0xBA9 JUMP JUMPDEST SWAP9 POP PUSH1 0x80 DUP14 ADD MLOAD SWAP2 POP DUP1 DUP3 GT ISZERO PUSH3 0xDFD JUMPI DUP8 DUP9 REVERT JUMPDEST POP PUSH3 0xE0C DUP14 DUP3 DUP15 ADD PUSH3 0xC2A JUMP JUMPDEST SWAP7 POP POP PUSH1 0xA0 DUP12 ADD MLOAD SWAP5 POP PUSH1 0xC0 DUP12 ADD MLOAD SWAP4 POP PUSH1 0xE0 DUP12 ADD MLOAD SWAP3 POP PUSH3 0xE34 DUP13 PUSH2 0x100 DUP14 ADD PUSH3 0xB9C JUMP JUMPDEST SWAP2 POP PUSH3 0xE46 DUP13 PUSH2 0x120 DUP14 ADD PUSH3 0xC8F JUMP JUMPDEST SWAP1 POP SWAP3 SWAP6 SWAP9 SWAP12 SWAP2 SWAP5 SWAP8 SWAP11 POP SWAP3 SWAP6 SWAP9 POP JUMP JUMPDEST PUSH1 0x0 PUSH1 0x20 DUP3 DUP5 SUB SLT ISZERO PUSH3 0xE69 JUMPI DUP1 DUP2 REVERT JUMPDEST DUP2 MLOAD PUSH1 0xFF DUP2 AND DUP2 EQ PUSH3 0xA16 JUMPI DUP2 DUP3 REVERT JUMPDEST PUSH1 0x0 DUP2 MLOAD DUP1 DUP5 MSTORE PUSH1 0x20 DUP1 DUP6 ADD SWAP5 POP DUP1 DUP5 ADD DUP4 JUMPDEST DUP4 DUP2 LT ISZERO PUSH3 0xEAB JUMPI DUP2 MLOAD DUP8 MSTORE SWAP6 DUP3 ADD SWAP6 SWAP1 DUP3 ADD SWAP1 PUSH1 0x1 ADD PUSH3 0xE8D JUMP JUMPDEST POP SWAP5 SWAP6 SWAP5 POP POP POP POP POP JUMP JUMPDEST SWAP1 ISZERO ISZERO DUP2 MSTORE PUSH1 0x20 ADD SWAP1 JUMP JUMPDEST PUSH1 0x0 PUSH1 0x60 DUP3 ADD DUP6 DUP4 MSTORE PUSH1 0x20 PUSH1 0x60 DUP2 DUP6 ADD MSTORE DUP2 DUP7 MLOAD DUP1 DUP5 MSTORE PUSH1 0x80 DUP7 ADD SWAP2 POP DUP3 DUP9 ADD SWAP4 POP DUP5 JUMPDEST DUP2 DUP2 LT ISZERO PUSH3 0xF0D JUMPI PUSH3 0xEFA DUP6 MLOAD PUSH3 0x1002 JUMP JUMPDEST DUP4 MSTORE SWAP4 DUP4 ADD SWAP4 SWAP2 DUP4 ADD SWAP2 PUSH1 0x1 ADD PUSH3 0xEE5 JUMP JUMPDEST POP POP DUP5 DUP2 SUB PUSH1 0x40 DUP7 ADD MSTORE DUP6 MLOAD DUP1 DUP3 MSTORE SWAP1 DUP3 ADD SWAP3 POP DUP2 DUP7 ADD SWAP1 DUP5 JUMPDEST DUP2 DUP2 LT ISZERO PUSH3 0xF4F JUMPI PUSH3 0xF3C DUP4 MLOAD PUSH3 0x1002 JUMP JUMPDEST DUP6 MSTORE SWAP4 DUP4 ADD SWAP4 SWAP2 DUP4 ADD SWAP2 PUSH1 0x1 ADD PUSH3 0xF27 JUMP JUMPDEST POP SWAP3 SWAP9 SWAP8 POP POP POP POP POP POP POP POP JUMP JUMPDEST PUSH1 0x20 DUP2 ADD PUSH1 0x3 DUP4 LT PUSH3 0xF6C JUMPI INVALID JUMPDEST SWAP2 SWAP1 MSTORE SWAP1 JUMP JUMPDEST SWAP1 DUP2 MSTORE PUSH1 0x20 ADD SWAP1 JUMP JUMPDEST PUSH1 0x0 DUP6 DUP3 MSTORE DUP5 PUSH1 0x20 DUP4 ADD MSTORE PUSH1 0x80 PUSH1 0x40 DUP4 ADD MSTORE PUSH3 0xF9C PUSH1 0x80 DUP4 ADD DUP6 PUSH3 0xE7A JUMP JUMPDEST DUP3 DUP2 SUB PUSH1 0x60 DUP5 ADD MSTORE PUSH3 0xFB0 DUP2 DUP6 PUSH3 0xE7A JUMP JUMPDEST SWAP8 SWAP7 POP POP POP POP POP POP POP JUMP JUMPDEST PUSH1 0x40 MLOAD DUP2 DUP2 ADD PUSH1 0x1 PUSH1 0x1 PUSH1 0x40 SHL SUB DUP2 GT DUP3 DUP3 LT OR ISZERO PUSH3 0xFDA JUMPI PUSH1 0x0 DUP1 REVERT JUMPDEST PUSH1 0x40 MSTORE SWAP2 SWAP1 POP JUMP JUMPDEST PUSH1 0x0 PUSH1 0x1 PUSH1 0x1 PUSH1 0x40 SHL SUB DUP3 GT ISZERO PUSH3 0xFF8 JUMPI DUP1 DUP2 REVERT JUMPDEST POP PUSH1 0x20 SWAP1 DUP2 MUL ADD SWAP1 JUMP JUMPDEST PUSH1 0x1 PUSH1 0x1 PUSH1 0xA0 SHL SUB AND SWAP1 JUMP JUMPDEST PUSH1 0x1 PUSH1 0x1 PUSH1 0xA0 SHL SUB DUP2 AND DUP2 EQ PUSH3 0x93D JUMPI PUSH1 0x0 DUP1 REVERT JUMPDEST PUSH1 0x80 MLOAD PUSH1 0xA0 MLOAD PUSH1 0x60 SHR PUSH1 0xC0 MLOAD PUSH1 0xE0 MLOAD PUSH2 0x100 MLOAD PUSH2 0x120 MLOAD PUSH2 0x140 MLOAD PUSH2 0x160 MLOAD PUSH2 0x180 MLOAD PUSH1 0x60 SHR PUSH2 0x1A0 MLOAD PUSH2 0x1C0 MLOAD PUSH2 0x1E0 MLOAD PUSH1 0x60 SHR PUSH2 0x200 MLOAD PUSH1 0x60 SHR PUSH2 0x220 MLOAD PUSH1 0x60 SHR PUSH2 0x240 MLOAD PUSH1 0x60 SHR PUSH2 0x260 MLOAD PUSH2 0x280 MLOAD PUSH2 0x2A0 MLOAD PUSH2 0x2C0 MLOAD PUSH2 0x4B5F PUSH3 0x112A PUSH1 0x0 CODECOPY DUP1 PUSH2 0x139C MSTORE DUP1 PUSH2 0x1EDD MSTORE POP DUP1 PUSH2 0x1359 MSTORE DUP1 PUSH2 0x1E7C MSTORE POP DUP1 PUSH2 0x1316 MSTORE DUP1 PUSH2 0x1E1B MSTORE POP DUP1 PUSH2 0x12C5 MSTORE DUP1 PUSH2 0x1DBA MSTORE POP DUP1 PUSH2 0x1EA2 MSTORE DUP1 PUSH2 0x2D9A MSTORE POP DUP1 PUSH2 0x1E41 MSTORE DUP1 PUSH2 0x2D58 MSTORE POP DUP1 PUSH2 0x1DE0 MSTORE DUP1 PUSH2 0x2D16 MSTORE POP DUP1 PUSH2 0x1D7F MSTORE DUP1 PUSH2 0x2CD4 MSTORE POP DUP1 PUSH2 0x1600 MSTORE POP DUP1 PUSH2 0x67A MSTORE POP DUP1 PUSH2 0xA18 MSTORE POP DUP1 PUSH2 0x1248 MSTORE POP DUP1 PUSH2 0x1224 MSTORE POP DUP1 PUSH2 0xCD7 MSTORE POP DUP1 PUSH2 0x14CC MSTORE POP DUP1 PUSH2 0x150E MSTORE POP DUP1 PUSH2 0x14ED MSTORE POP DUP1 PUSH2 0x9F4 MSTORE POP DUP1 PUSH2 0x97E MSTORE POP PUSH2 0x4B5F PUSH1 0x0 RETURN INVALID PUSH1 0x80 PUSH1 0x40 MSTORE CALLVALUE DUP1 ISZERO PUSH2 0x10 JUMPI PUSH1 0x0 DUP1 REVERT JUMPDEST POP PUSH1 0x4 CALLDATASIZE LT PUSH2 0x232 JUMPI PUSH1 0x0 CALLDATALOAD PUSH1 0xE0 SHR DUP1 PUSH4 0x74F3B009 GT PUSH2 0x130 JUMPI DUP1 PUSH4 0x9D2C110C GT PUSH2 0xB8 JUMPI DUP1 PUSH4 0xD505ACCF GT PUSH2 0x7C JUMPI DUP1 PUSH4 0xD505ACCF EQ PUSH2 0x482 JUMPI DUP1 PUSH4 0xD5C096C4 EQ PUSH2 0x495 JUMPI DUP1 PUSH4 0xDD62ED3E EQ PUSH2 0x4A8 JUMPI DUP1 PUSH4 0xE01AF92C EQ PUSH2 0x4BB JUMPI DUP1 PUSH4 0xF89F27ED EQ PUSH2 0x4CE JUMPI PUSH2 0x232 JUMP JUMPDEST DUP1 PUSH4 0x9D2C110C EQ PUSH2 0x439 JUMPI DUP1 PUSH4 0xA457C2D7 EQ PUSH2 0x44C JUMPI DUP1 PUSH4 0xA9059CBB EQ PUSH2 0x45F JUMPI DUP1 PUSH4 0xAAABADC5 EQ PUSH2 0x472 JUMPI DUP1 PUSH4 0xC0FF1A15 EQ PUSH2 0x47A JUMPI PUSH2 0x232 JUMP JUMPDEST DUP1 PUSH4 0x87EC6817 GT PUSH2 0xFF JUMPI DUP1 PUSH4 0x87EC6817 EQ PUSH2 0x3F9 JUMPI DUP1 PUSH4 0x893D20E8 EQ PUSH2 0x40C JUMPI DUP1 PUSH4 0x8D928AF8 EQ PUSH2 0x421 JUMPI DUP1 PUSH4 0x95D89B41 EQ PUSH2 0x429 JUMPI DUP1 PUSH4 0x9B02CDDE EQ PUSH2 0x431 JUMPI PUSH2 0x232 JUMP JUMPDEST DUP1 PUSH4 0x74F3B009 EQ PUSH2 0x39B JUMPI DUP1 PUSH4 0x7BEED220 EQ PUSH2 0x3BC JUMPI DUP1 PUSH4 0x7ECEBE00 EQ PUSH2 0x3D3 JUMPI DUP1 PUSH4 0x851C1BB3 EQ PUSH2 0x3E6 JUMPI PUSH2 0x232 JUMP JUMPDEST DUP1 PUSH4 0x38E9922E GT PUSH2 0x1BE JUMPI DUP1 PUSH4 0x50DD6ED9 GT PUSH2 0x182 JUMPI DUP1 PUSH4 0x50DD6ED9 EQ PUSH2 0x344 JUMPI DUP1 PUSH4 0x55C67628 EQ PUSH2 0x357 JUMPI DUP1 PUSH4 0x6028BFD4 EQ PUSH2 0x35F JUMPI DUP1 PUSH4 0x679AEFCE EQ PUSH2 0x380 JUMPI DUP1 PUSH4 0x70A08231 EQ PUSH2 0x388 JUMPI PUSH2 0x232 JUMP JUMPDEST DUP1 PUSH4 0x38E9922E EQ PUSH2 0x2FB JUMPI DUP1 PUSH4 0x38FFF2D0 EQ PUSH2 0x30E JUMPI DUP1 PUSH4 0x39509351 EQ PUSH2 0x316 JUMPI DUP1 PUSH4 0x3E569205 EQ PUSH2 0x329 JUMPI DUP1 PUSH4 0x47BC4D92 EQ PUSH2 0x33C JUMPI PUSH2 0x232 JUMP JUMPDEST DUP1 PUSH4 0x1C0DE051 GT PUSH2 0x205 JUMPI DUP1 PUSH4 0x1C0DE051 EQ PUSH2 0x29F JUMPI DUP1 PUSH4 0x1DD746EA EQ PUSH2 0x2B6 JUMPI DUP1 PUSH4 0x23B872DD EQ PUSH2 0x2CB JUMPI DUP1 PUSH4 0x313CE567 EQ PUSH2 0x2DE JUMPI DUP1 PUSH4 0x3644E515 EQ PUSH2 0x2F3 JUMPI PUSH2 0x232 JUMP JUMPDEST DUP1 PUSH4 0x6FDDE03 EQ PUSH2 0x237 JUMPI DUP1 PUSH4 0x95EA7B3 EQ PUSH2 0x255 JUMPI DUP1 PUSH4 0x16C38B3C EQ PUSH2 0x275 JUMPI DUP1 PUSH4 0x18160DDD EQ PUSH2 0x28A JUMPI JUMPDEST PUSH1 0x0 DUP1 REVERT JUMPDEST PUSH2 0x23F PUSH2 0x4D6 JUMP JUMPDEST PUSH1 0x40 MLOAD PUSH2 0x24C SWAP2 SWAP1 PUSH2 0x4A2A JUMP JUMPDEST PUSH1 0x40 MLOAD DUP1 SWAP2 SUB SWAP1 RETURN JUMPDEST PUSH2 0x268 PUSH2 0x263 CALLDATASIZE PUSH1 0x4 PUSH2 0x4313 JUMP JUMPDEST PUSH2 0x56D JUMP JUMPDEST PUSH1 0x40 MLOAD PUSH2 0x24C SWAP2 SWAP1 PUSH2 0x4931 JUMP JUMPDEST PUSH2 0x288 PUSH2 0x283 CALLDATASIZE PUSH1 0x4 PUSH2 0x4409 JUMP JUMPDEST PUSH2 0x584 JUMP JUMPDEST STOP JUMPDEST PUSH2 0x292 PUSH2 0x598 JUMP JUMPDEST PUSH1 0x40 MLOAD PUSH2 0x24C SWAP2 SWAP1 PUSH2 0x4954 JUMP JUMPDEST PUSH2 0x2A7 PUSH2 0x59E JUMP JUMPDEST PUSH1 0x40 MLOAD PUSH2 0x24C SWAP4 SWAP3 SWAP2 SWAP1 PUSH2 0x493C JUMP JUMPDEST PUSH2 0x2BE PUSH2 0x5C7 JUMP JUMPDEST PUSH1 0x40 MLOAD PUSH2 0x24C SWAP2 SWAP1 PUSH2 0x48F9 JUMP JUMPDEST PUSH2 0x268 PUSH2 0x2D9 CALLDATASIZE PUSH1 0x4 PUSH2 0x425E JUMP JUMPDEST PUSH2 0x5D6 JUMP JUMPDEST PUSH2 0x2E6 PUSH2 0x64C JUMP JUMPDEST PUSH1 0x40 MLOAD PUSH2 0x24C SWAP2 SWAP1 PUSH2 0x4AA6 JUMP JUMPDEST PUSH2 0x292 PUSH2 0x655 JUMP JUMPDEST PUSH2 0x288 PUSH2 0x309 CALLDATASIZE PUSH1 0x4 PUSH2 0x4778 JUMP JUMPDEST PUSH2 0x65F JUMP JUMPDEST PUSH2 0x292 PUSH2 0x678 JUMP JUMPDEST PUSH2 0x268 PUSH2 0x324 CALLDATASIZE PUSH1 0x4 PUSH2 0x4313 JUMP JUMPDEST PUSH2 0x69C JUMP JUMPDEST PUSH2 0x288 PUSH2 0x337 CALLDATASIZE PUSH1 0x4 PUSH2 0x4790 JUMP JUMPDEST PUSH2 0x6D7 JUMP JUMPDEST PUSH2 0x268 PUSH2 0x73E JUMP JUMPDEST PUSH2 0x288 PUSH2 0x352 CALLDATASIZE PUSH1 0x4 PUSH2 0x4527 JUMP JUMPDEST PUSH2 0x74E JUMP JUMPDEST PUSH2 0x292 PUSH2 0x76C JUMP JUMPDEST PUSH2 0x372 PUSH2 0x36D CALLDATASIZE PUSH1 0x4 PUSH2 0x4441 JUMP JUMPDEST PUSH2 0x77D JUMP JUMPDEST PUSH1 0x40 MLOAD PUSH2 0x24C SWAP3 SWAP2 SWAP1 PUSH2 0x4A3D JUMP JUMPDEST PUSH2 0x292 PUSH2 0x7B4 JUMP JUMPDEST PUSH2 0x292 PUSH2 0x396 CALLDATASIZE PUSH1 0x4 PUSH2 0x420A JUMP JUMPDEST PUSH2 0x7DF JUMP JUMPDEST PUSH2 0x3AE PUSH2 0x3A9 CALLDATASIZE PUSH1 0x4 PUSH2 0x4441 JUMP JUMPDEST PUSH2 0x7FE JUMP JUMPDEST PUSH1 0x40 MLOAD PUSH2 0x24C SWAP3 SWAP2 SWAP1 PUSH2 0x490C JUMP JUMPDEST PUSH2 0x3C4 PUSH2 0x8A1 JUMP JUMPDEST PUSH1 0x40 MLOAD PUSH2 0x24C SWAP4 SWAP3 SWAP2 SWAP1 PUSH2 0x4A56 JUMP JUMPDEST PUSH2 0x292 PUSH2 0x3E1 CALLDATASIZE PUSH1 0x4 PUSH2 0x420A JUMP JUMPDEST PUSH2 0x95F JUMP JUMPDEST PUSH2 0x292 PUSH2 0x3F4 CALLDATASIZE PUSH1 0x4 PUSH2 0x44E3 JUMP JUMPDEST PUSH2 0x97A JUMP JUMPDEST PUSH2 0x372 PUSH2 0x407 CALLDATASIZE PUSH1 0x4 PUSH2 0x4441 JUMP JUMPDEST PUSH2 0x9CC JUMP JUMPDEST PUSH2 0x414 PUSH2 0x9F2 JUMP JUMPDEST PUSH1 0x40 MLOAD PUSH2 0x24C SWAP2 SWAP1 PUSH2 0x48E5 JUMP JUMPDEST PUSH2 0x414 PUSH2 0xA16 JUMP JUMPDEST PUSH2 0x23F PUSH2 0xA3A JUMP JUMPDEST PUSH2 0x292 PUSH2 0xA9B JUMP JUMPDEST PUSH2 0x292 PUSH2 0x447 CALLDATASIZE PUSH1 0x4 PUSH2 0x467D JUMP JUMPDEST PUSH2 0xAA1 JUMP JUMPDEST PUSH2 0x268 PUSH2 0x45A CALLDATASIZE PUSH1 0x4 PUSH2 0x4313 JUMP JUMPDEST PUSH2 0xB88 JUMP JUMPDEST PUSH2 0x268 PUSH2 0x46D CALLDATASIZE PUSH1 0x4 PUSH2 0x4313 JUMP JUMPDEST PUSH2 0xBC6 JUMP JUMPDEST PUSH2 0x414 PUSH2 0xBD3 JUMP JUMPDEST PUSH2 0x292 PUSH2 0xBDD JUMP JUMPDEST PUSH2 0x288 PUSH2 0x490 CALLDATASIZE PUSH1 0x4 PUSH2 0x429E JUMP JUMPDEST PUSH2 0xCA2 JUMP JUMPDEST PUSH2 0x3AE PUSH2 0x4A3 CALLDATASIZE PUSH1 0x4 PUSH2 0x4441 JUMP JUMPDEST PUSH2 0xDEB JUMP JUMPDEST PUSH2 0x292 PUSH2 0x4B6 CALLDATASIZE PUSH1 0x4 PUSH2 0x4226 JUMP JUMPDEST PUSH2 0xF0F JUMP JUMPDEST PUSH2 0x288 PUSH2 0x4C9 CALLDATASIZE PUSH1 0x4 PUSH2 0x4409 JUMP JUMPDEST PUSH2 0xF3A JUMP JUMPDEST PUSH2 0x2BE PUSH2 0xF63 JUMP JUMPDEST PUSH1 0x3 DUP1 SLOAD PUSH1 0x40 DUP1 MLOAD PUSH1 0x20 PUSH1 0x1F PUSH1 0x2 PUSH1 0x0 NOT PUSH2 0x100 PUSH1 0x1 DUP9 AND ISZERO MUL ADD SWAP1 SWAP6 AND SWAP5 SWAP1 SWAP5 DIV SWAP4 DUP5 ADD DUP2 SWAP1 DIV DUP2 MUL DUP3 ADD DUP2 ADD SWAP1 SWAP3 MSTORE DUP3 DUP2 MSTORE PUSH1 0x60 SWAP4 SWAP1 SWAP3 SWAP1 SWAP2 DUP4 ADD DUP3 DUP3 DUP1 ISZERO PUSH2 0x562 JUMPI DUP1 PUSH1 0x1F LT PUSH2 0x537 JUMPI PUSH2 0x100 DUP1 DUP4 SLOAD DIV MUL DUP4 MSTORE SWAP2 PUSH1 0x20 ADD SWAP2 PUSH2 0x562 JUMP JUMPDEST DUP3 ADD SWAP2 SWAP1 PUSH1 0x0 MSTORE PUSH1 0x20 PUSH1 0x0 KECCAK256 SWAP1 JUMPDEST DUP2 SLOAD DUP2 MSTORE SWAP1 PUSH1 0x1 ADD SWAP1 PUSH1 0x20 ADD DUP1 DUP4 GT PUSH2 0x545 JUMPI DUP3 SWAP1 SUB PUSH1 0x1F AND DUP3 ADD SWAP2 JUMPDEST POP POP POP POP POP SWAP1 POP JUMPDEST SWAP1 JUMP JUMPDEST PUSH1 0x0 PUSH2 0x57A CALLER DUP5 DUP5 PUSH2 0x10F1 JUMP JUMPDEST POP PUSH1 0x1 JUMPDEST SWAP3 SWAP2 POP POP JUMP JUMPDEST PUSH2 0x58C PUSH2 0x1159 JUMP JUMPDEST PUSH2 0x595 DUP2 PUSH2 0x1187 JUMP JUMPDEST POP JUMP JUMPDEST PUSH1 0x2 SLOAD SWAP1 JUMP JUMPDEST PUSH1 0x0 DUP1 PUSH1 0x0 PUSH2 0x5AB PUSH2 0x1205 JUMP JUMPDEST ISZERO SWAP3 POP PUSH2 0x5B6 PUSH2 0x1222 JUMP JUMPDEST SWAP2 POP PUSH2 0x5C0 PUSH2 0x1246 JUMP JUMPDEST SWAP1 POP SWAP1 SWAP2 SWAP3 JUMP JUMPDEST PUSH1 0x60 PUSH2 0x5D1 PUSH2 0x126A JUMP JUMPDEST SWAP1 POP SWAP1 JUMP JUMPDEST PUSH1 0x0 DUP1 PUSH2 0x5E3 DUP6 CALLER PUSH2 0xF0F JUMP JUMPDEST SWAP1 POP PUSH2 0x607 CALLER PUSH1 0x1 PUSH1 0x1 PUSH1 0xA0 SHL SUB DUP8 AND EQ DUP1 PUSH2 0x5FF JUMPI POP DUP4 DUP3 LT ISZERO JUMPDEST PUSH2 0x19E PUSH2 0x13DA JUMP JUMPDEST PUSH2 0x612 DUP6 DUP6 DUP6 PUSH2 0x13E8 JUMP JUMPDEST CALLER PUSH1 0x1 PUSH1 0x1 PUSH1 0xA0 SHL SUB DUP7 AND EQ DUP1 ISZERO SWAP1 PUSH2 0x62D JUMPI POP PUSH1 0x0 NOT DUP2 EQ ISZERO JUMPDEST ISZERO PUSH2 0x63F JUMPI PUSH2 0x63F DUP6 CALLER DUP6 DUP5 SUB PUSH2 0x10F1 JUMP JUMPDEST PUSH1 0x1 SWAP2 POP POP JUMPDEST SWAP4 SWAP3 POP POP POP JUMP JUMPDEST PUSH1 0x5 SLOAD PUSH1 0xFF AND SWAP1 JUMP JUMPDEST PUSH1 0x0 PUSH2 0x5D1 PUSH2 0x14C8 JUMP JUMPDEST PUSH2 0x667 PUSH2 0x1159 JUMP JUMPDEST PUSH2 0x66F PUSH2 0x1565 JUMP JUMPDEST PUSH2 0x595 DUP2 PUSH2 0x157A JUMP JUMPDEST PUSH32 0x0 SWAP1 JUMP JUMPDEST CALLER PUSH1 0x0 DUP2 DUP2 MSTORE PUSH1 0x1 PUSH1 0x20 SWAP1 DUP2 MSTORE PUSH1 0x40 DUP1 DUP4 KECCAK256 PUSH1 0x1 PUSH1 0x1 PUSH1 0xA0 SHL SUB DUP8 AND DUP5 MSTORE SWAP1 SWAP2 MSTORE DUP2 KECCAK256 SLOAD SWAP1 SWAP2 PUSH2 0x57A SWAP2 DUP6 SWAP1 PUSH2 0x6D2 SWAP1 DUP7 PUSH2 0x100D JUMP JUMPDEST PUSH2 0x10F1 JUMP JUMPDEST PUSH2 0x6DF PUSH2 0x1159 JUMP JUMPDEST PUSH2 0x6E7 PUSH2 0x1565 JUMP JUMPDEST PUSH2 0x6EF PUSH2 0x15E5 JUMP JUMPDEST PUSH2 0x701 PUSH2 0x6FA PUSH2 0x15FE JUMP JUMPDEST DUP3 MLOAD PUSH2 0xF77 JUMP JUMPDEST TIMESTAMP PUSH2 0x70C DUP2 DUP6 PUSH2 0x1622 JUMP JUMPDEST SWAP4 POP PUSH2 0x71D DUP4 DUP6 GT ISZERO PUSH2 0x146 PUSH2 0x13DA JUMP JUMPDEST PUSH2 0x730 DUP5 DUP5 PUSH2 0x72A PUSH2 0x1639 JUMP JUMPDEST DUP6 PUSH2 0x174C JUMP JUMPDEST POP PUSH2 0x739 PUSH2 0x1861 JUMP JUMPDEST POP POP POP JUMP JUMPDEST PUSH1 0xB SLOAD PUSH1 0x0 SWAP1 PUSH2 0x5D1 SWAP1 DUP3 PUSH2 0x1868 JUMP JUMPDEST PUSH2 0x756 PUSH2 0x1159 JUMP JUMPDEST PUSH2 0x75E PUSH2 0x1565 JUMP JUMPDEST PUSH2 0x768 DUP3 DUP3 PUSH2 0x1872 JUMP JUMPDEST POP POP JUMP JUMPDEST PUSH1 0x8 SLOAD PUSH1 0x0 SWAP1 PUSH2 0x5D1 SWAP1 PUSH1 0xC0 PUSH2 0x1971 JUMP JUMPDEST PUSH1 0x0 PUSH1 0x60 PUSH2 0x793 DUP7 MLOAD PUSH2 0x78E PUSH2 0x15FE JUMP JUMPDEST PUSH2 0xF77 JUMP JUMPDEST PUSH2 0x7A8 DUP10 DUP10 DUP10 DUP10 DUP10 DUP10 DUP10 PUSH2 0x197E PUSH2 0x1A4D PUSH2 0x1AAE JUMP JUMPDEST SWAP8 POP SWAP8 SWAP6 POP POP POP POP POP POP JUMP JUMPDEST PUSH1 0x0 PUSH2 0x5D1 PUSH2 0x7C1 PUSH2 0x598 JUMP JUMPDEST PUSH2 0x7D9 PUSH2 0x7CC PUSH2 0xBDD JUMP JUMPDEST PUSH2 0x7D4 PUSH2 0x15FE JUMP JUMPDEST PUSH2 0x1BD1 JUMP JUMPDEST SWAP1 PUSH2 0x1BEB JUMP JUMPDEST PUSH1 0x1 PUSH1 0x1 PUSH1 0xA0 SHL SUB DUP2 AND PUSH1 0x0 SWAP1 DUP2 MSTORE PUSH1 0x20 DUP2 SWAP1 MSTORE PUSH1 0x40 SWAP1 KECCAK256 SLOAD JUMPDEST SWAP2 SWAP1 POP JUMP JUMPDEST PUSH1 0x60 DUP1 DUP9 PUSH2 0x828 PUSH2 0x80D PUSH2 0xA16 JUMP JUMPDEST PUSH1 0x1 PUSH1 0x1 PUSH1 0xA0 SHL SUB AND CALLER PUSH1 0x1 PUSH1 0x1 PUSH1 0xA0 SHL SUB AND EQ PUSH1 0xCD PUSH2 0x13DA JUMP JUMPDEST PUSH2 0x83D PUSH2 0x833 PUSH2 0x678 JUMP JUMPDEST DUP3 EQ PUSH2 0x1F4 PUSH2 0x13DA JUMP JUMPDEST PUSH1 0x60 PUSH2 0x847 PUSH2 0x126A JUMP JUMPDEST SWAP1 POP PUSH2 0x853 DUP9 DUP3 PUSH2 0x1C33 JUMP JUMPDEST PUSH1 0x0 PUSH1 0x60 DUP1 PUSH2 0x868 DUP15 DUP15 DUP15 DUP15 DUP15 DUP15 DUP11 DUP16 PUSH2 0x197E JUMP JUMPDEST SWAP3 POP SWAP3 POP SWAP3 POP PUSH2 0x878 DUP14 DUP5 PUSH2 0x1C94 JUMP JUMPDEST PUSH2 0x882 DUP3 DUP6 PUSH2 0x1A4D JUMP JUMPDEST PUSH2 0x88C DUP2 DUP6 PUSH2 0x1A4D JUMP JUMPDEST SWAP1 SWAP6 POP SWAP4 POP POP POP JUMPDEST POP SWAP8 POP SWAP8 SWAP6 POP POP POP POP POP POP JUMP JUMPDEST PUSH1 0xB SLOAD PUSH1 0x0 SWAP1 DUP2 SWAP1 PUSH1 0x60 SWAP1 PUSH2 0x8B7 DUP2 PUSH1 0xC0 PUSH2 0x1C9E JUMP JUMPDEST SWAP4 POP PUSH2 0x8C4 DUP2 PUSH1 0xE0 PUSH2 0x1C9E JUMP JUMPDEST SWAP3 POP PUSH1 0x0 PUSH2 0x8D0 PUSH2 0x15FE JUMP JUMPDEST SWAP1 POP DUP1 PUSH1 0x1 PUSH1 0x1 PUSH1 0x40 SHL SUB DUP2 GT DUP1 ISZERO PUSH2 0x8E8 JUMPI PUSH1 0x0 DUP1 REVERT JUMPDEST POP PUSH1 0x40 MLOAD SWAP1 DUP1 DUP3 MSTORE DUP1 PUSH1 0x20 MUL PUSH1 0x20 ADD DUP3 ADD PUSH1 0x40 MSTORE DUP1 ISZERO PUSH2 0x912 JUMPI DUP2 PUSH1 0x20 ADD PUSH1 0x20 DUP3 MUL DUP1 CALLDATASIZE DUP4 CALLDATACOPY ADD SWAP1 POP JUMPDEST POP SWAP3 POP PUSH1 0x0 JUMPDEST DUP2 DUP2 LT ISZERO PUSH2 0x957 JUMPI PUSH2 0x938 PUSH2 0x933 DUP5 PUSH1 0x80 PUSH1 0x10 DUP6 MUL ADD PUSH2 0x1CA8 JUMP JUMPDEST PUSH2 0x1CB0 JUMP JUMPDEST DUP5 DUP3 DUP2 MLOAD DUP2 LT PUSH2 0x944 JUMPI INVALID JUMPDEST PUSH1 0x20 SWAP1 DUP2 MUL SWAP2 SWAP1 SWAP2 ADD ADD MSTORE PUSH1 0x1 ADD PUSH2 0x918 JUMP JUMPDEST POP POP POP SWAP1 SWAP2 SWAP3 JUMP JUMPDEST PUSH1 0x1 PUSH1 0x1 PUSH1 0xA0 SHL SUB AND PUSH1 0x0 SWAP1 DUP2 MSTORE PUSH1 0x6 PUSH1 0x20 MSTORE PUSH1 0x40 SWAP1 KECCAK256 SLOAD SWAP1 JUMP JUMPDEST PUSH1 0x0 PUSH32 0x0 DUP3 PUSH1 0x40 MLOAD PUSH1 0x20 ADD PUSH2 0x9AF SWAP3 SWAP2 SWAP1 PUSH2 0x48A2 JUMP JUMPDEST PUSH1 0x40 MLOAD PUSH1 0x20 DUP2 DUP4 SUB SUB DUP2 MSTORE SWAP1 PUSH1 0x40 MSTORE DUP1 MLOAD SWAP1 PUSH1 0x20 ADD KECCAK256 SWAP1 POP SWAP2 SWAP1 POP JUMP JUMPDEST PUSH1 0x0 PUSH1 0x60 PUSH2 0x9DD DUP7 MLOAD PUSH2 0x78E PUSH2 0x15FE JUMP JUMPDEST PUSH2 0x7A8 DUP10 DUP10 DUP10 DUP10 DUP10 DUP10 DUP10 PUSH2 0x1CCA PUSH2 0x1D1A PUSH2 0x1AAE JUMP JUMPDEST PUSH32 0x0 SWAP1 JUMP JUMPDEST PUSH32 0x0 SWAP1 JUMP JUMPDEST PUSH1 0x4 DUP1 SLOAD PUSH1 0x40 DUP1 MLOAD PUSH1 0x20 PUSH1 0x1F PUSH1 0x2 PUSH1 0x0 NOT PUSH2 0x100 PUSH1 0x1 DUP9 AND ISZERO MUL ADD SWAP1 SWAP6 AND SWAP5 SWAP1 SWAP5 DIV SWAP4 DUP5 ADD DUP2 SWAP1 DIV DUP2 MUL DUP3 ADD DUP2 ADD SWAP1 SWAP3 MSTORE DUP3 DUP2 MSTORE PUSH1 0x60 SWAP4 SWAP1 SWAP3 SWAP1 SWAP2 DUP4 ADD DUP3 DUP3 DUP1 ISZERO PUSH2 0x562 JUMPI DUP1 PUSH1 0x1F LT PUSH2 0x537 JUMPI PUSH2 0x100 DUP1 DUP4 SLOAD DIV MUL DUP4 MSTORE SWAP2 PUSH1 0x20 ADD SWAP2 PUSH2 0x562 JUMP JUMPDEST PUSH1 0x9 SLOAD SWAP1 JUMP JUMPDEST PUSH1 0x0 DUP1 PUSH2 0xAB1 DUP6 PUSH1 0x20 ADD MLOAD PUSH2 0x1D7B JUMP JUMPDEST SWAP1 POP PUSH1 0x0 PUSH2 0xAC2 DUP7 PUSH1 0x40 ADD MLOAD PUSH2 0x1D7B JUMP JUMPDEST SWAP1 POP PUSH1 0x0 DUP7 MLOAD PUSH1 0x1 DUP2 GT ISZERO PUSH2 0xAD3 JUMPI INVALID JUMPDEST EQ ISZERO PUSH2 0xB39 JUMPI PUSH2 0xAE6 DUP7 PUSH1 0x60 ADD MLOAD PUSH2 0x1F0C JUMP JUMPDEST PUSH1 0x60 DUP8 ADD MSTORE PUSH2 0xAF5 DUP6 DUP4 PUSH2 0x1F2D JUMP JUMPDEST SWAP5 POP PUSH2 0xB01 DUP5 DUP3 PUSH2 0x1F2D JUMP JUMPDEST SWAP4 POP PUSH2 0xB11 DUP7 PUSH1 0x60 ADD MLOAD DUP4 PUSH2 0x1F2D JUMP JUMPDEST PUSH1 0x60 DUP8 ADD MSTORE PUSH1 0x0 PUSH2 0xB23 DUP8 DUP8 DUP8 PUSH2 0x1F39 JUMP JUMPDEST SWAP1 POP PUSH2 0xB2F DUP2 DUP4 PUSH2 0x1F61 JUMP JUMPDEST SWAP4 POP POP POP POP PUSH2 0x645 JUMP JUMPDEST PUSH2 0xB43 DUP6 DUP4 PUSH2 0x1F2D JUMP JUMPDEST SWAP5 POP PUSH2 0xB4F DUP5 DUP3 PUSH2 0x1F2D JUMP JUMPDEST SWAP4 POP PUSH2 0xB5F DUP7 PUSH1 0x60 ADD MLOAD DUP3 PUSH2 0x1F2D JUMP JUMPDEST PUSH1 0x60 DUP8 ADD MSTORE PUSH1 0x0 PUSH2 0xB71 DUP8 DUP8 DUP8 PUSH2 0x1F6D JUMP JUMPDEST SWAP1 POP PUSH2 0xB7D DUP2 DUP5 PUSH2 0x1F85 JUMP JUMPDEST SWAP1 POP PUSH2 0xB2F DUP2 PUSH2 0x1F91 JUMP JUMPDEST PUSH1 0x0 DUP1 PUSH2 0xB95 CALLER DUP6 PUSH2 0xF0F JUMP JUMPDEST SWAP1 POP DUP1 DUP4 LT PUSH2 0xBAF JUMPI PUSH2 0xBAA CALLER DUP6 PUSH1 0x0 PUSH2 0x10F1 JUMP JUMPDEST PUSH2 0xBBC JUMP JUMPDEST PUSH2 0xBBC CALLER DUP6 DUP6 DUP5 SUB PUSH2 0x10F1 JUMP JUMPDEST POP PUSH1 0x1 SWAP4 SWAP3 POP POP POP JUMP JUMPDEST PUSH1 0x0 PUSH2 0x57A CALLER DUP5 DUP5 PUSH2 0x13E8 JUMP JUMPDEST PUSH1 0x0 PUSH2 0x5D1 PUSH2 0x1FB7 JUMP JUMPDEST PUSH1 0x0 PUSH1 0x60 PUSH2 0xBE9 PUSH2 0xA16 JUMP JUMPDEST PUSH1 0x1 PUSH1 0x1 PUSH1 0xA0 SHL SUB AND PUSH4 0xF94D4668 PUSH2 0xBFF PUSH2 0x678 JUMP JUMPDEST PUSH1 0x40 MLOAD DUP3 PUSH4 0xFFFFFFFF AND PUSH1 0xE0 SHL DUP2 MSTORE PUSH1 0x4 ADD PUSH2 0xC1B SWAP2 SWAP1 PUSH2 0x4954 JUMP JUMPDEST PUSH1 0x0 PUSH1 0x40 MLOAD DUP1 DUP4 SUB DUP2 DUP7 DUP1 EXTCODESIZE ISZERO DUP1 ISZERO PUSH2 0xC33 JUMPI PUSH1 0x0 DUP1 REVERT JUMPDEST POP GAS STATICCALL ISZERO DUP1 ISZERO PUSH2 0xC47 JUMPI RETURNDATASIZE PUSH1 0x0 DUP1 RETURNDATACOPY RETURNDATASIZE PUSH1 0x0 REVERT JUMPDEST POP POP POP POP PUSH1 0x40 MLOAD RETURNDATASIZE PUSH1 0x0 DUP3 RETURNDATACOPY PUSH1 0x1F RETURNDATASIZE SWAP1 DUP2 ADD PUSH1 0x1F NOT AND DUP3 ADD PUSH1 0x40 MSTORE PUSH2 0xC6F SWAP2 SWAP1 DUP2 ADD SWAP1 PUSH2 0x433E JUMP JUMPDEST POP SWAP2 POP POP PUSH2 0xC84 DUP2 PUSH2 0xC7F PUSH2 0x126A JUMP JUMPDEST PUSH2 0x1C33 JUMP JUMPDEST PUSH1 0x60 PUSH2 0xC8E PUSH2 0x2031 JUMP JUMPDEST POP SWAP1 POP PUSH2 0xC9B DUP2 DUP4 PUSH2 0x20AF JUMP JUMPDEST SWAP3 POP POP POP SWAP1 JUMP JUMPDEST PUSH2 0xCB0 DUP5 TIMESTAMP GT ISZERO PUSH1 0xD1 PUSH2 0x13DA JUMP JUMPDEST PUSH1 0x1 PUSH1 0x1 PUSH1 0xA0 SHL SUB DUP8 AND PUSH1 0x0 SWAP1 DUP2 MSTORE PUSH1 0x6 PUSH1 0x20 SWAP1 DUP2 MSTORE PUSH1 0x40 DUP1 DUP4 KECCAK256 SLOAD SWAP1 MLOAD SWAP1 SWAP3 SWAP2 PUSH2 0xD07 SWAP2 PUSH32 0x0 SWAP2 DUP13 SWAP2 DUP13 SWAP2 DUP13 SWAP2 DUP9 SWAP2 DUP14 SWAP2 ADD PUSH2 0x497C JUMP JUMPDEST PUSH1 0x40 MLOAD PUSH1 0x20 DUP2 DUP4 SUB SUB DUP2 MSTORE SWAP1 PUSH1 0x40 MSTORE DUP1 MLOAD SWAP1 PUSH1 0x20 ADD KECCAK256 SWAP1 POP PUSH1 0x0 PUSH2 0xD2A DUP3 PUSH2 0x2121 JUMP JUMPDEST SWAP1 POP PUSH1 0x0 PUSH1 0x1 DUP3 DUP9 DUP9 DUP9 PUSH1 0x40 MLOAD PUSH1 0x0 DUP2 MSTORE PUSH1 0x20 ADD PUSH1 0x40 MSTORE PUSH1 0x40 MLOAD PUSH2 0xD51 SWAP5 SWAP4 SWAP3 SWAP2 SWAP1 PUSH2 0x4A0C JUMP JUMPDEST PUSH1 0x20 PUSH1 0x40 MLOAD PUSH1 0x20 DUP2 SUB SWAP1 DUP1 DUP5 SUB SWAP1 DUP6 GAS STATICCALL ISZERO DUP1 ISZERO PUSH2 0xD73 JUMPI RETURNDATASIZE PUSH1 0x0 DUP1 RETURNDATACOPY RETURNDATASIZE PUSH1 0x0 REVERT JUMPDEST POP POP PUSH1 0x40 MLOAD PUSH1 0x1F NOT ADD MLOAD SWAP2 POP PUSH2 0xDB5 SWAP1 POP PUSH1 0x1 PUSH1 0x1 PUSH1 0xA0 SHL SUB DUP3 AND ISZERO DUP1 ISZERO SWAP1 PUSH2 0xDAD JUMPI POP DUP12 PUSH1 0x1 PUSH1 0x1 PUSH1 0xA0 SHL SUB AND DUP3 PUSH1 0x1 PUSH1 0x1 PUSH1 0xA0 SHL SUB AND EQ JUMPDEST PUSH2 0x1F8 PUSH2 0x13DA JUMP JUMPDEST PUSH1 0x1 PUSH1 0x1 PUSH1 0xA0 SHL SUB DUP12 AND PUSH1 0x0 SWAP1 DUP2 MSTORE PUSH1 0x6 PUSH1 0x20 MSTORE PUSH1 0x40 SWAP1 KECCAK256 PUSH1 0x1 DUP6 ADD SWAP1 SSTORE PUSH2 0xDDE DUP12 DUP12 DUP12 PUSH2 0x10F1 JUMP JUMPDEST POP POP POP POP POP POP POP POP POP POP POP JUMP JUMPDEST PUSH1 0x60 DUP1 DUP9 PUSH2 0xDFA PUSH2 0x80D PUSH2 0xA16 JUMP JUMPDEST PUSH2 0xE05 PUSH2 0x833 PUSH2 0x678 JUMP JUMPDEST PUSH1 0x60 PUSH2 0xE0F PUSH2 0x126A JUMP JUMPDEST SWAP1 POP PUSH2 0xE19 PUSH2 0x598 JUMP JUMPDEST PUSH2 0xEBF JUMPI PUSH1 0x0 PUSH1 0x60 PUSH2 0xE2E DUP14 DUP14 DUP14 DUP7 DUP12 PUSH2 0x213D JUMP JUMPDEST SWAP2 POP SWAP2 POP PUSH2 0xE43 PUSH3 0xF4240 DUP4 LT ISZERO PUSH1 0xCC PUSH2 0x13DA JUMP JUMPDEST PUSH2 0xE51 PUSH1 0x0 PUSH3 0xF4240 PUSH2 0x2183 JUMP JUMPDEST PUSH2 0xE60 DUP12 PUSH3 0xF4240 DUP5 SUB PUSH2 0x2183 JUMP JUMPDEST PUSH2 0xE6A DUP2 DUP5 PUSH2 0x1D1A JUMP JUMPDEST DUP1 PUSH2 0xE73 PUSH2 0x15FE JUMP JUMPDEST PUSH1 0x1 PUSH1 0x1 PUSH1 0x40 SHL SUB DUP2 GT DUP1 ISZERO PUSH2 0xE88 JUMPI PUSH1 0x0 DUP1 REVERT JUMPDEST POP PUSH1 0x40 MLOAD SWAP1 DUP1 DUP3 MSTORE DUP1 PUSH1 0x20 MUL PUSH1 0x20 ADD DUP3 ADD PUSH1 0x40 MSTORE DUP1 ISZERO PUSH2 0xEB2 JUMPI DUP2 PUSH1 0x20 ADD PUSH1 0x20 DUP3 MUL DUP1 CALLDATASIZE DUP4 CALLDATACOPY ADD SWAP1 POP JUMPDEST POP SWAP6 POP SWAP6 POP POP POP POP PUSH2 0x894 JUMP JUMPDEST PUSH2 0xEC9 DUP9 DUP3 PUSH2 0x1C33 JUMP JUMPDEST PUSH1 0x0 PUSH1 0x60 DUP1 PUSH2 0xEDE DUP15 DUP15 DUP15 DUP15 DUP15 DUP15 DUP11 DUP16 PUSH2 0x1CCA JUMP JUMPDEST SWAP3 POP SWAP3 POP SWAP3 POP PUSH2 0xEEE DUP13 DUP5 PUSH2 0x2183 JUMP JUMPDEST PUSH2 0xEF8 DUP3 DUP6 PUSH2 0x1D1A JUMP JUMPDEST PUSH2 0xF02 DUP2 DUP6 PUSH2 0x1A4D JUMP JUMPDEST SWAP1 SWAP6 POP SWAP4 POP PUSH2 0x894 SWAP2 POP POP JUMP JUMPDEST PUSH1 0x1 PUSH1 0x1 PUSH1 0xA0 SHL SUB SWAP2 DUP3 AND PUSH1 0x0 SWAP1 DUP2 MSTORE PUSH1 0x1 PUSH1 0x20 SWAP1 DUP2 MSTORE PUSH1 0x40 DUP1 DUP4 KECCAK256 SWAP4 SWAP1 SWAP5 AND DUP3 MSTORE SWAP2 SWAP1 SWAP2 MSTORE KECCAK256 SLOAD SWAP1 JUMP JUMPDEST PUSH2 0xF42 PUSH2 0x1159 JUMP JUMPDEST PUSH2 0xF4A PUSH2 0x1565 JUMP JUMPDEST PUSH2 0xF52 PUSH2 0x15E5 JUMP JUMPDEST PUSH2 0xF5B DUP2 PUSH2 0x218D JUMP JUMPDEST PUSH2 0x595 PUSH2 0x1861 JUMP JUMPDEST PUSH1 0x60 PUSH2 0x5D1 PUSH2 0x1639 JUMP JUMPDEST DUP1 PUSH2 0x768 DUP2 PUSH2 0x21CF JUMP JUMPDEST PUSH2 0x768 DUP2 DUP4 EQ PUSH1 0x67 PUSH2 0x13DA JUMP JUMPDEST PUSH1 0x1 PUSH1 0x1 PUSH1 0x40 SHL SUB DUP2 SHL NOT SWAP3 SWAP1 SWAP3 AND SWAP2 SHL OR SWAP1 JUMP JUMPDEST PUSH1 0x0 PUSH2 0xFA9 DUP4 DUP4 GT ISZERO PUSH1 0x1 PUSH2 0x13DA JUMP JUMPDEST POP SWAP1 SUB SWAP1 JUMP JUMPDEST PUSH1 0x0 PUSH2 0x57E PUSH8 0xDE0B6B3A7640000 PUSH2 0xFC9 DUP5 PUSH2 0xFFFF PUSH2 0x1058 JUMP JUMPDEST SWAP1 PUSH2 0x10A6 JUMP JUMPDEST PUSH1 0x0 PUSH2 0x57E PUSH8 0xDE0B6B3A7640000 PUSH2 0xFC9 DUP5 PUSH4 0x7FFFFFFF PUSH2 0x1058 JUMP JUMPDEST PUSH4 0x7FFFFFFF DUP2 SHL NOT SWAP3 SWAP1 SWAP3 AND SWAP2 SHL OR SWAP1 JUMP JUMPDEST PUSH2 0xFFFF DUP2 SHL NOT SWAP3 SWAP1 SWAP3 AND SWAP2 SHL OR SWAP1 JUMP JUMPDEST PUSH1 0x0 DUP3 DUP3 ADD PUSH2 0x645 DUP5 DUP3 LT ISZERO DUP4 PUSH2 0x13DA JUMP JUMPDEST PUSH4 0xFFFFFFFF DUP2 SHL NOT SWAP3 SWAP1 SWAP3 AND SWAP2 SHL OR SWAP1 JUMP JUMPDEST PUSH1 0x0 PUSH1 0x1 DUP3 SHL NOT DUP5 AND DUP3 DUP5 PUSH2 0x1047 JUMPI PUSH1 0x0 PUSH2 0x104A JUMP JUMPDEST PUSH1 0x1 JUMPDEST PUSH1 0xFF AND SWAP1 SHL OR SWAP5 SWAP4 POP POP POP POP JUMP JUMPDEST PUSH1 0x0 DUP3 DUP3 MUL PUSH2 0x107C DUP5 ISZERO DUP1 PUSH2 0x1075 JUMPI POP DUP4 DUP6 DUP4 DUP2 PUSH2 0x1072 JUMPI INVALID JUMPDEST DIV EQ JUMPDEST PUSH1 0x3 PUSH2 0x13DA JUMP JUMPDEST DUP1 PUSH2 0x108B JUMPI PUSH1 0x0 SWAP2 POP POP PUSH2 0x57E JUMP JUMPDEST PUSH8 0xDE0B6B3A7640000 PUSH1 0x0 NOT DUP3 ADD JUMPDEST DIV PUSH1 0x1 ADD SWAP2 POP POP PUSH2 0x57E JUMP JUMPDEST PUSH1 0x0 PUSH2 0x10B5 DUP3 ISZERO ISZERO PUSH1 0x4 PUSH2 0x13DA JUMP JUMPDEST DUP3 PUSH2 0x10C2 JUMPI POP PUSH1 0x0 PUSH2 0x57E JUMP JUMPDEST PUSH8 0xDE0B6B3A7640000 DUP4 DUP2 MUL SWAP1 PUSH2 0x10E5 SWAP1 DUP6 DUP4 DUP2 PUSH2 0x10DC JUMPI INVALID JUMPDEST DIV EQ PUSH1 0x5 PUSH2 0x13DA JUMP JUMPDEST DUP3 PUSH1 0x1 DUP3 SUB DUP2 PUSH2 0x109A JUMPI INVALID JUMPDEST PUSH1 0x1 PUSH1 0x1 PUSH1 0xA0 SHL SUB DUP1 DUP5 AND PUSH1 0x0 DUP2 DUP2 MSTORE PUSH1 0x1 PUSH1 0x20 SWAP1 DUP2 MSTORE PUSH1 0x40 DUP1 DUP4 KECCAK256 SWAP5 DUP8 AND DUP1 DUP5 MSTORE SWAP5 SWAP1 SWAP2 MSTORE SWAP1 DUP2 SWAP1 KECCAK256 DUP5 SWAP1 SSTORE MLOAD PUSH32 0x8C5BE1E5EBEC7D5BD14F71427D1E84F3DD0314C0F7B2291E5B200AC8C7C3B925 SWAP1 PUSH2 0x114C SWAP1 DUP6 SWAP1 PUSH2 0x4954 JUMP JUMPDEST PUSH1 0x40 MLOAD DUP1 SWAP2 SUB SWAP1 LOG3 POP POP POP JUMP JUMPDEST PUSH1 0x0 PUSH2 0x1170 PUSH1 0x0 CALLDATALOAD PUSH1 0x1 PUSH1 0x1 PUSH1 0xE0 SHL SUB NOT AND PUSH2 0x97A JUMP JUMPDEST SWAP1 POP PUSH2 0x595 PUSH2 0x117F DUP3 CALLER PUSH2 0x2248 JUMP JUMPDEST PUSH2 0x191 PUSH2 0x13DA JUMP JUMPDEST DUP1 ISZERO PUSH2 0x11A7 JUMPI PUSH2 0x11A2 PUSH2 0x1198 PUSH2 0x1222 JUMP JUMPDEST TIMESTAMP LT PUSH2 0x193 PUSH2 0x13DA JUMP JUMPDEST PUSH2 0x11BC JUMP JUMPDEST PUSH2 0x11BC PUSH2 0x11B2 PUSH2 0x1246 JUMP JUMPDEST TIMESTAMP LT PUSH2 0x1A9 PUSH2 0x13DA JUMP JUMPDEST PUSH1 0x7 DUP1 SLOAD PUSH1 0xFF NOT AND DUP3 ISZERO ISZERO OR SWAP1 SSTORE PUSH1 0x40 MLOAD PUSH32 0x9E3A5E37224532DEA67B89FACE185703738A228A6E8A23DEE546960180D3BE64 SWAP1 PUSH2 0x11FA SWAP1 DUP4 SWAP1 PUSH2 0x4931 JUMP JUMPDEST PUSH1 0x40 MLOAD DUP1 SWAP2 SUB SWAP1 LOG1 POP JUMP JUMPDEST PUSH1 0x0 PUSH2 0x120F PUSH2 0x1246 JUMP JUMPDEST TIMESTAMP GT DUP1 PUSH2 0x5D1 JUMPI POP POP PUSH1 0x7 SLOAD PUSH1 0xFF AND ISZERO SWAP1 JUMP JUMPDEST PUSH32 0x0 SWAP1 JUMP JUMPDEST PUSH32 0x0 SWAP1 JUMP JUMPDEST PUSH1 0x60 PUSH1 0x0 PUSH2 0x1276 PUSH2 0x15FE JUMP JUMPDEST SWAP1 POP PUSH1 0x60 DUP2 PUSH1 0x1 PUSH1 0x1 PUSH1 0x40 SHL SUB DUP2 GT DUP1 ISZERO PUSH2 0x1290 JUMPI PUSH1 0x0 DUP1 REVERT JUMPDEST POP PUSH1 0x40 MLOAD SWAP1 DUP1 DUP3 MSTORE DUP1 PUSH1 0x20 MUL PUSH1 0x20 ADD DUP3 ADD PUSH1 0x40 MSTORE DUP1 ISZERO PUSH2 0x12BA JUMPI DUP2 PUSH1 0x20 ADD PUSH1 0x20 DUP3 MUL DUP1 CALLDATASIZE DUP4 CALLDATACOPY ADD SWAP1 POP JUMPDEST POP SWAP1 POP DUP2 ISZERO PUSH2 0x1302 JUMPI PUSH32 0x0 DUP2 PUSH1 0x0 DUP2 MLOAD DUP2 LT PUSH2 0x12F1 JUMPI INVALID JUMPDEST PUSH1 0x20 MUL PUSH1 0x20 ADD ADD DUP2 DUP2 MSTORE POP POP PUSH2 0x130B JUMP JUMPDEST SWAP2 POP PUSH2 0x56A SWAP1 POP JUMP JUMPDEST PUSH1 0x1 DUP3 GT ISZERO PUSH2 0x1302 JUMPI PUSH32 0x0 DUP2 PUSH1 0x1 DUP2 MLOAD DUP2 LT PUSH2 0x1342 JUMPI INVALID JUMPDEST PUSH1 0x20 MUL PUSH1 0x20 ADD ADD DUP2 DUP2 MSTORE POP POP PUSH1 0x2 DUP3 GT ISZERO PUSH2 0x1302 JUMPI PUSH32 0x0 DUP2 PUSH1 0x2 DUP2 MLOAD DUP2 LT PUSH2 0x1385 JUMPI INVALID JUMPDEST PUSH1 0x20 MUL PUSH1 0x20 ADD ADD DUP2 DUP2 MSTORE POP POP PUSH1 0x3 DUP3 GT ISZERO PUSH2 0x1302 JUMPI PUSH32 0x0 DUP2 PUSH1 0x3 DUP2 MLOAD DUP2 LT PUSH2 0x13C8 JUMPI INVALID JUMPDEST PUSH1 0x20 MUL PUSH1 0x20 ADD ADD DUP2 DUP2 MSTORE POP POP SWAP2 POP POP SWAP1 JUMP JUMPDEST DUP2 PUSH2 0x768 JUMPI PUSH2 0x768 DUP2 PUSH2 0x2338 JUMP JUMPDEST PUSH2 0x13FF PUSH1 0x1 PUSH1 0x1 PUSH1 0xA0 SHL SUB DUP5 AND ISZERO ISZERO PUSH2 0x198 PUSH2 0x13DA JUMP JUMPDEST PUSH2 0x1416 PUSH1 0x1 PUSH1 0x1 PUSH1 0xA0 SHL SUB DUP4 AND ISZERO ISZERO PUSH2 0x199 PUSH2 0x13DA JUMP JUMPDEST PUSH2 0x1421 DUP4 DUP4 DUP4 PUSH2 0x739 JUMP JUMPDEST PUSH1 0x1 PUSH1 0x1 PUSH1 0xA0 SHL SUB DUP4 AND PUSH1 0x0 SWAP1 DUP2 MSTORE PUSH1 0x20 DUP2 SWAP1 MSTORE PUSH1 0x40 SWAP1 KECCAK256 SLOAD PUSH2 0x1447 SWAP1 DUP3 PUSH2 0x1A0 PUSH2 0x238B JUMP JUMPDEST PUSH1 0x1 PUSH1 0x1 PUSH1 0xA0 SHL SUB DUP1 DUP6 AND PUSH1 0x0 SWAP1 DUP2 MSTORE PUSH1 0x20 DUP2 SWAP1 MSTORE PUSH1 0x40 DUP1 DUP3 KECCAK256 SWAP4 SWAP1 SWAP4 SSTORE SWAP1 DUP5 AND DUP2 MSTORE KECCAK256 SLOAD PUSH2 0x1476 SWAP1 DUP3 PUSH2 0x100D JUMP JUMPDEST PUSH1 0x1 PUSH1 0x1 PUSH1 0xA0 SHL SUB DUP1 DUP5 AND PUSH1 0x0 DUP2 DUP2 MSTORE PUSH1 0x20 DUP2 SWAP1 MSTORE PUSH1 0x40 SWAP1 DUP2 SWAP1 KECCAK256 SWAP4 SWAP1 SWAP4 SSTORE SWAP2 MLOAD SWAP1 DUP6 AND SWAP1 PUSH32 0xDDF252AD1BE2C89B69C2B068FC378DAA952BA7F163C4A11628F55A4DF523B3EF SWAP1 PUSH2 0x114C SWAP1 DUP6 SWAP1 PUSH2 0x4954 JUMP JUMPDEST PUSH1 0x0 PUSH32 0x0 PUSH32 0x0 PUSH32 0x0 PUSH2 0x1535 PUSH2 0x23A1 JUMP JUMPDEST ADDRESS PUSH1 0x40 MLOAD PUSH1 0x20 ADD PUSH2 0x154A SWAP6 SWAP5 SWAP4 SWAP3 SWAP2 SWAP1 PUSH2 0x49B0 JUMP JUMPDEST PUSH1 0x40 MLOAD PUSH1 0x20 DUP2 DUP4 SUB SUB DUP2 MSTORE SWAP1 PUSH1 0x40 MSTORE DUP1 MLOAD SWAP1 PUSH1 0x20 ADD KECCAK256 SWAP1 POP SWAP1 JUMP JUMPDEST PUSH2 0x1578 PUSH2 0x1570 PUSH2 0x1205 JUMP JUMPDEST PUSH2 0x192 PUSH2 0x13DA JUMP JUMPDEST JUMP JUMPDEST PUSH2 0x158D PUSH5 0xE8D4A51000 DUP3 LT ISZERO PUSH1 0xCB PUSH2 0x13DA JUMP JUMPDEST PUSH2 0x15A3 PUSH8 0x16345785D8A0000 DUP3 GT ISZERO PUSH1 0xCA PUSH2 0x13DA JUMP JUMPDEST PUSH1 0x8 SLOAD PUSH2 0x15B2 SWAP1 DUP3 PUSH1 0xC0 PUSH2 0xF84 JUMP JUMPDEST PUSH1 0x8 SSTORE PUSH1 0x40 MLOAD PUSH32 0xA9BA3FFE0B6C366B81232CAAB38605A0699AD5398D6CCE76F91EE809E322DAFC SWAP1 PUSH2 0x11FA SWAP1 DUP4 SWAP1 PUSH2 0x4954 JUMP JUMPDEST PUSH2 0x15F7 PUSH1 0x2 PUSH1 0xA SLOAD EQ ISZERO PUSH2 0x190 PUSH2 0x13DA JUMP JUMPDEST PUSH1 0x2 PUSH1 0xA SSTORE JUMP JUMPDEST PUSH32 0x0 SWAP1 JUMP JUMPDEST PUSH1 0x0 DUP2 DUP4 LT ISZERO PUSH2 0x1632 JUMPI DUP2 PUSH2 0x645 JUMP JUMPDEST POP SWAP1 SWAP2 SWAP1 POP JUMP JUMPDEST PUSH1 0x60 PUSH1 0x0 PUSH2 0x1645 PUSH2 0x15FE JUMP JUMPDEST SWAP1 POP PUSH1 0x60 DUP2 PUSH1 0x1 PUSH1 0x1 PUSH1 0x40 SHL SUB DUP2 GT DUP1 ISZERO PUSH2 0x165F JUMPI PUSH1 0x0 DUP1 REVERT JUMPDEST POP PUSH1 0x40 MLOAD SWAP1 DUP1 DUP3 MSTORE DUP1 PUSH1 0x20 MUL PUSH1 0x20 ADD DUP3 ADD PUSH1 0x40 MSTORE DUP1 ISZERO PUSH2 0x1689 JUMPI DUP2 PUSH1 0x20 ADD PUSH1 0x20 DUP3 MUL DUP1 CALLDATASIZE DUP4 CALLDATACOPY ADD SWAP1 POP JUMPDEST POP PUSH1 0xB SLOAD SWAP1 SWAP2 POP PUSH2 0x169B PUSH1 0x0 DUP3 PUSH2 0x23A5 JUMP JUMPDEST DUP3 PUSH1 0x0 DUP2 MLOAD DUP2 LT PUSH2 0x16A8 JUMPI INVALID JUMPDEST PUSH1 0x20 MUL PUSH1 0x20 ADD ADD DUP2 DUP2 MSTORE POP POP PUSH2 0x16BF PUSH1 0x1 DUP3 PUSH2 0x23A5 JUMP JUMPDEST DUP3 PUSH1 0x1 DUP2 MLOAD DUP2 LT PUSH2 0x16CC JUMPI INVALID JUMPDEST PUSH1 0x20 MUL PUSH1 0x20 ADD ADD DUP2 DUP2 MSTORE POP POP DUP3 PUSH1 0x2 EQ ISZERO PUSH2 0x16EB JUMPI POP SWAP2 POP PUSH2 0x56A SWAP1 POP JUMP JUMPDEST PUSH2 0x16F6 PUSH1 0x2 DUP3 PUSH2 0x23A5 JUMP JUMPDEST DUP3 PUSH1 0x2 DUP2 MLOAD DUP2 LT PUSH2 0x1703 JUMPI INVALID JUMPDEST PUSH1 0x20 MUL PUSH1 0x20 ADD ADD DUP2 DUP2 MSTORE POP POP DUP3 PUSH1 0x3 EQ ISZERO PUSH2 0x1722 JUMPI POP SWAP2 POP PUSH2 0x56A SWAP1 POP JUMP JUMPDEST PUSH2 0x172D PUSH1 0x3 DUP3 PUSH2 0x23A5 JUMP JUMPDEST DUP3 PUSH1 0x3 DUP2 MLOAD DUP2 LT PUSH2 0x173A JUMPI INVALID JUMPDEST PUSH1 0x20 SWAP1 DUP2 MUL SWAP2 SWAP1 SWAP2 ADD ADD MSTORE POP SWAP2 POP POP SWAP1 JUMP JUMPDEST PUSH1 0xB SLOAD PUSH1 0x0 DUP1 JUMPDEST DUP4 MLOAD DUP2 LT ISZERO PUSH2 0x17E8 JUMPI PUSH1 0x0 DUP5 DUP3 DUP2 MLOAD DUP2 LT PUSH2 0x176A JUMPI INVALID JUMPDEST PUSH1 0x20 MUL PUSH1 0x20 ADD ADD MLOAD SWAP1 POP PUSH2 0x178A PUSH7 0x2386F26FC10000 DUP3 LT ISZERO PUSH2 0x12E PUSH2 0x13DA JUMP JUMPDEST PUSH2 0x17D1 PUSH2 0x1796 DUP3 PUSH2 0xFAF JUMP JUMPDEST DUP4 PUSH1 0x10 MUL PUSH1 0x80 ADD PUSH2 0x17CA PUSH2 0x17BC DUP11 DUP8 DUP2 MLOAD DUP2 LT PUSH2 0x17AF JUMPI INVALID JUMPDEST PUSH1 0x20 MUL PUSH1 0x20 ADD ADD MLOAD PUSH2 0xFCF JUMP JUMPDEST DUP9 SWAP1 PUSH1 0x4 PUSH1 0x1F DUP10 MUL ADD PUSH2 0xFEB JUMP JUMPDEST SWAP2 SWAP1 PUSH2 0xFFD JUMP JUMPDEST SWAP4 POP PUSH2 0x17DD DUP4 DUP3 PUSH2 0x100D JUMP JUMPDEST SWAP3 POP POP PUSH1 0x1 ADD PUSH2 0x1753 JUMP JUMPDEST POP PUSH2 0x17FF PUSH8 0xDE0B6B3A7640000 DUP3 EQ PUSH2 0x134 PUSH2 0x13DA JUMP JUMPDEST PUSH2 0x1818 DUP6 PUSH1 0xE0 PUSH2 0x1811 DUP6 DUP11 PUSH1 0xC0 PUSH2 0x101F JUMP JUMPDEST SWAP2 SWAP1 PUSH2 0x101F JUMP JUMPDEST PUSH1 0xB SSTORE PUSH1 0x40 MLOAD PUSH32 0xF3631F9DAB08169D1DB21C6DC5F32536FB2B0A6B9BB5330D71C52132F968BE0 SWAP1 PUSH2 0x1851 SWAP1 DUP9 SWAP1 DUP9 SWAP1 DUP9 SWAP1 DUP9 SWAP1 PUSH2 0x4A75 JUMP JUMPDEST PUSH1 0x40 MLOAD DUP1 SWAP2 SUB SWAP1 LOG1 POP POP POP POP POP POP JUMP JUMPDEST PUSH1 0x1 PUSH1 0xA SSTORE JUMP JUMPDEST SHR PUSH1 0x1 SWAP1 DUP2 AND EQ SWAP1 JUMP JUMPDEST PUSH1 0x0 PUSH2 0x187C PUSH2 0x678 JUMP JUMPDEST SWAP1 POP PUSH1 0x0 PUSH2 0x1888 PUSH2 0xA16 JUMP JUMPDEST PUSH1 0x1 PUSH1 0x1 PUSH1 0xA0 SHL SUB AND PUSH4 0xB05F8E48 DUP4 DUP7 PUSH1 0x40 MLOAD DUP4 PUSH4 0xFFFFFFFF AND PUSH1 0xE0 SHL DUP2 MSTORE PUSH1 0x4 ADD PUSH2 0x18B5 SWAP3 SWAP2 SWAP1 PUSH2 0x49F5 JUMP JUMPDEST PUSH1 0x80 PUSH1 0x40 MLOAD DUP1 DUP4 SUB DUP2 DUP7 DUP1 EXTCODESIZE ISZERO DUP1 ISZERO PUSH2 0x18CD JUMPI PUSH1 0x0 DUP1 REVERT JUMPDEST POP GAS STATICCALL ISZERO DUP1 ISZERO PUSH2 0x18E1 JUMPI RETURNDATASIZE PUSH1 0x0 DUP1 RETURNDATACOPY RETURNDATASIZE PUSH1 0x0 REVERT JUMPDEST POP POP POP POP PUSH1 0x40 MLOAD RETURNDATASIZE PUSH1 0x1F NOT PUSH1 0x1F DUP3 ADD AND DUP3 ADD DUP1 PUSH1 0x40 MSTORE POP DUP2 ADD SWAP1 PUSH2 0x1905 SWAP2 SWAP1 PUSH2 0x47DD JUMP JUMPDEST PUSH1 0x40 MLOAD PUSH4 0x639CDB5 PUSH1 0xE2 SHL DUP2 MSTORE SWAP1 SWAP5 POP PUSH1 0x1 PUSH1 0x1 PUSH1 0xA0 SHL SUB DUP6 AND SWAP4 POP PUSH4 0x18E736D4 SWAP3 POP PUSH2 0x1939 SWAP2 POP DUP6 SWAP1 DUP8 SWAP1 PUSH1 0x4 ADD PUSH2 0x49DC JUMP JUMPDEST PUSH1 0x0 PUSH1 0x40 MLOAD DUP1 DUP4 SUB DUP2 PUSH1 0x0 DUP8 DUP1 EXTCODESIZE ISZERO DUP1 ISZERO PUSH2 0x1953 JUMPI PUSH1 0x0 DUP1 REVERT JUMPDEST POP GAS CALL ISZERO DUP1 ISZERO PUSH2 0x1967 JUMPI RETURNDATASIZE PUSH1 0x0 DUP1 RETURNDATACOPY RETURNDATASIZE PUSH1 0x0 REVERT JUMPDEST POP POP POP POP POP POP POP POP JUMP JUMPDEST SHR PUSH1 0x1 PUSH1 0x1 PUSH1 0x40 SHL SUB AND SWAP1 JUMP JUMPDEST PUSH1 0x0 PUSH1 0x60 DUP1 PUSH1 0x60 PUSH1 0x0 PUSH2 0x198F PUSH2 0x2031 JUMP JUMPDEST SWAP2 POP SWAP2 POP PUSH2 0x199B PUSH2 0x1205 JUMP JUMPDEST ISZERO PUSH2 0x19D3 JUMPI PUSH1 0x0 PUSH2 0x19AC DUP4 DUP13 PUSH2 0x20AF JUMP JUMPDEST SWAP1 POP PUSH2 0x19BE DUP12 DUP5 DUP5 PUSH1 0x9 SLOAD DUP6 DUP15 PUSH2 0x23FB JUMP JUMPDEST SWAP4 POP PUSH2 0x19CD DUP12 DUP6 PUSH2 0xF99 PUSH2 0x24A9 JUMP JUMPDEST POP PUSH2 0x1A1E JUMP JUMPDEST PUSH2 0x19DB PUSH2 0x15FE JUMP JUMPDEST PUSH1 0x1 PUSH1 0x1 PUSH1 0x40 SHL SUB DUP2 GT DUP1 ISZERO PUSH2 0x19F0 JUMPI PUSH1 0x0 DUP1 REVERT JUMPDEST POP PUSH1 0x40 MLOAD SWAP1 DUP1 DUP3 MSTORE DUP1 PUSH1 0x20 MUL PUSH1 0x20 ADD DUP3 ADD PUSH1 0x40 MSTORE DUP1 ISZERO PUSH2 0x1A1A JUMPI DUP2 PUSH1 0x20 ADD PUSH1 0x20 DUP3 MUL DUP1 CALLDATASIZE DUP4 CALLDATACOPY ADD SWAP1 POP JUMPDEST POP SWAP3 POP JUMPDEST PUSH2 0x1A2A DUP11 DUP4 DUP10 DUP10 PUSH2 0x2514 JUMP JUMPDEST SWAP1 SWAP6 POP SWAP4 POP PUSH2 0x1A3A DUP11 DUP6 DUP5 PUSH2 0x2583 JUMP JUMPDEST PUSH1 0x9 SSTORE POP POP SWAP9 POP SWAP9 POP SWAP9 SWAP6 POP POP POP POP POP POP JUMP JUMPDEST PUSH1 0x0 JUMPDEST PUSH2 0x1A58 PUSH2 0x15FE JUMP JUMPDEST DUP2 LT ISZERO PUSH2 0x739 JUMPI PUSH2 0x1A8F DUP4 DUP3 DUP2 MLOAD DUP2 LT PUSH2 0x1A6E JUMPI INVALID JUMPDEST PUSH1 0x20 MUL PUSH1 0x20 ADD ADD MLOAD DUP4 DUP4 DUP2 MLOAD DUP2 LT PUSH2 0x1A82 JUMPI INVALID JUMPDEST PUSH1 0x20 MUL PUSH1 0x20 ADD ADD MLOAD PUSH2 0x1BEB JUMP JUMPDEST DUP4 DUP3 DUP2 MLOAD DUP2 LT PUSH2 0x1A9B JUMPI INVALID JUMPDEST PUSH1 0x20 SWAP1 DUP2 MUL SWAP2 SWAP1 SWAP2 ADD ADD MSTORE PUSH1 0x1 ADD PUSH2 0x1A50 JUMP JUMPDEST CALLER ADDRESS EQ PUSH2 0x1B6C JUMPI PUSH1 0x0 ADDRESS PUSH1 0x1 PUSH1 0x1 PUSH1 0xA0 SHL SUB AND PUSH1 0x0 CALLDATASIZE PUSH1 0x40 MLOAD PUSH2 0x1AD2 SWAP3 SWAP2 SWAP1 PUSH2 0x48BA JUMP JUMPDEST PUSH1 0x0 PUSH1 0x40 MLOAD DUP1 DUP4 SUB DUP2 PUSH1 0x0 DUP7 GAS CALL SWAP2 POP POP RETURNDATASIZE DUP1 PUSH1 0x0 DUP2 EQ PUSH2 0x1B0F JUMPI PUSH1 0x40 MLOAD SWAP2 POP PUSH1 0x1F NOT PUSH1 0x3F RETURNDATASIZE ADD AND DUP3 ADD PUSH1 0x40 MSTORE RETURNDATASIZE DUP3 MSTORE RETURNDATASIZE PUSH1 0x0 PUSH1 0x20 DUP5 ADD RETURNDATACOPY PUSH2 0x1B14 JUMP JUMPDEST PUSH1 0x60 SWAP2 POP JUMPDEST POP POP SWAP1 POP DUP1 PUSH1 0x0 DUP2 EQ PUSH2 0x1B23 JUMPI INVALID JUMPDEST PUSH1 0x4 PUSH1 0x0 DUP1 RETURNDATACOPY PUSH1 0x0 MLOAD PUSH1 0x1 PUSH1 0x1 PUSH1 0xE0 SHL SUB NOT AND PUSH4 0x43ADBAFB PUSH1 0xE0 SHL DUP2 EQ PUSH2 0x1B4E JUMPI RETURNDATASIZE PUSH1 0x0 DUP1 RETURNDATACOPY RETURNDATASIZE PUSH1 0x0 REVERT JUMPDEST POP PUSH1 0x20 PUSH1 0x4 PUSH1 0x0 RETURNDATACOPY PUSH1 0x40 PUSH1 0x20 MSTORE PUSH1 0x24 RETURNDATASIZE SUB PUSH1 0x24 PUSH1 0x40 RETURNDATACOPY PUSH1 0x1C RETURNDATASIZE ADD PUSH1 0x0 RETURN JUMPDEST PUSH1 0x60 PUSH2 0x1B76 PUSH2 0x126A JUMP JUMPDEST SWAP1 POP PUSH2 0x1B82 DUP8 DUP3 PUSH2 0x1C33 JUMP JUMPDEST PUSH1 0x0 PUSH1 0x60 PUSH2 0x1B9A DUP13 DUP13 DUP13 DUP13 DUP13 DUP13 DUP10 DUP14 DUP14 PUSH4 0xFFFFFFFF AND JUMP JUMPDEST POP SWAP2 POP SWAP2 POP PUSH2 0x1BAD DUP2 DUP5 DUP7 PUSH4 0xFFFFFFFF AND JUMP JUMPDEST DUP1 MLOAD PUSH1 0x1F NOT DUP3 ADD DUP4 SWAP1 MSTORE PUSH4 0x43ADBAFB PUSH1 0x3F NOT DUP4 ADD MSTORE PUSH1 0x20 MUL PUSH1 0x23 NOT DUP3 ADD PUSH1 0x44 DUP3 ADD DUP2 REVERT JUMPDEST PUSH1 0x0 DUP3 DUP3 MUL PUSH2 0x645 DUP5 ISZERO DUP1 PUSH2 0x1075 JUMPI POP DUP4 DUP6 DUP4 DUP2 PUSH2 0x1072 JUMPI INVALID JUMPDEST PUSH1 0x0 PUSH2 0x1BFA DUP3 ISZERO ISZERO PUSH1 0x4 PUSH2 0x13DA JUMP JUMPDEST DUP3 PUSH2 0x1C07 JUMPI POP PUSH1 0x0 PUSH2 0x57E JUMP JUMPDEST PUSH8 0xDE0B6B3A7640000 DUP4 DUP2 MUL SWAP1 PUSH2 0x1C21 SWAP1 DUP6 DUP4 DUP2 PUSH2 0x10DC JUMPI INVALID JUMPDEST DUP3 DUP2 DUP2 PUSH2 0x1C2A JUMPI INVALID JUMPDEST DIV SWAP2 POP POP PUSH2 0x57E JUMP JUMPDEST PUSH1 0x0 JUMPDEST PUSH2 0x1C3E PUSH2 0x15FE JUMP JUMPDEST DUP2 LT ISZERO PUSH2 0x739 JUMPI PUSH2 0x1C75 DUP4 DUP3 DUP2 MLOAD DUP2 LT PUSH2 0x1C54 JUMPI INVALID JUMPDEST PUSH1 0x20 MUL PUSH1 0x20 ADD ADD MLOAD DUP4 DUP4 DUP2 MLOAD DUP2 LT PUSH2 0x1C68 JUMPI INVALID JUMPDEST PUSH1 0x20 MUL PUSH1 0x20 ADD ADD MLOAD PUSH2 0x259C JUMP JUMPDEST DUP4 DUP3 DUP2 MLOAD DUP2 LT PUSH2 0x1C81 JUMPI INVALID JUMPDEST PUSH1 0x20 SWAP1 DUP2 MUL SWAP2 SWAP1 SWAP2 ADD ADD MSTORE PUSH1 0x1 ADD PUSH2 0x1C36 JUMP JUMPDEST PUSH2 0x768 DUP3 DUP3 PUSH2 0x25C8 JUMP JUMPDEST SHR PUSH4 0xFFFFFFFF AND SWAP1 JUMP JUMPDEST SHR PUSH2 0xFFFF AND SWAP1 JUMP JUMPDEST PUSH1 0x0 PUSH2 0x57E PUSH2 0xFFFF PUSH2 0xFC9 DUP5 PUSH8 0xDE0B6B3A7640000 PUSH2 0x1058 JUMP JUMPDEST PUSH1 0x0 PUSH1 0x60 DUP1 PUSH2 0x1CF6 PUSH2 0x1CDA PUSH2 0x9F2 JUMP JUMPDEST PUSH1 0x1 PUSH1 0x1 PUSH1 0xA0 SHL SUB AND DUP12 PUSH1 0x1 PUSH1 0x1 PUSH1 0xA0 SHL SUB AND EQ PUSH2 0x148 PUSH2 0x13DA JUMP JUMPDEST PUSH2 0x1D06 DUP12 DUP12 DUP12 DUP12 DUP12 DUP12 DUP12 DUP12 PUSH2 0x2684 JUMP JUMPDEST SWAP3 POP SWAP3 POP SWAP3 POP SWAP9 POP SWAP9 POP SWAP9 SWAP6 POP POP POP POP POP POP JUMP JUMPDEST PUSH1 0x0 JUMPDEST PUSH2 0x1D25 PUSH2 0x15FE JUMP JUMPDEST DUP2 LT ISZERO PUSH2 0x739 JUMPI PUSH2 0x1D5C DUP4 DUP3 DUP2 MLOAD DUP2 LT PUSH2 0x1D3B JUMPI INVALID JUMPDEST PUSH1 0x20 MUL PUSH1 0x20 ADD ADD MLOAD DUP4 DUP4 DUP2 MLOAD DUP2 LT PUSH2 0x1D4F JUMPI INVALID JUMPDEST PUSH1 0x20 MUL PUSH1 0x20 ADD ADD MLOAD PUSH2 0x10A6 JUMP JUMPDEST DUP4 DUP3 DUP2 MLOAD DUP2 LT PUSH2 0x1D68 JUMPI INVALID JUMPDEST PUSH1 0x20 SWAP1 DUP2 MUL SWAP2 SWAP1 SWAP2 ADD ADD MSTORE PUSH1 0x1 ADD PUSH2 0x1D1D JUMP JUMPDEST PUSH1 0x0 PUSH32 0x0 PUSH1 0x1 PUSH1 0x1 PUSH1 0xA0 SHL SUB AND DUP3 PUSH1 0x1 PUSH1 0x1 PUSH1 0xA0 SHL SUB AND EQ ISZERO PUSH2 0x1DDE JUMPI POP PUSH32 0x0 PUSH2 0x7F9 JUMP JUMPDEST PUSH32 0x0 PUSH1 0x1 PUSH1 0x1 PUSH1 0xA0 SHL SUB AND DUP3 PUSH1 0x1 PUSH1 0x1 PUSH1 0xA0 SHL SUB AND EQ ISZERO PUSH2 0x1E3F JUMPI POP PUSH32 0x0 PUSH2 0x7F9 JUMP JUMPDEST PUSH32 0x0 PUSH1 0x1 PUSH1 0x1 PUSH1 0xA0 SHL SUB AND DUP3 PUSH1 0x1 PUSH1 0x1 PUSH1 0xA0 SHL SUB AND EQ ISZERO PUSH2 0x1EA0 JUMPI POP PUSH32 0x0 PUSH2 0x7F9 JUMP JUMPDEST PUSH32 0x0 PUSH1 0x1 PUSH1 0x1 PUSH1 0xA0 SHL SUB AND DUP3 PUSH1 0x1 PUSH1 0x1 PUSH1 0xA0 SHL SUB AND EQ ISZERO PUSH2 0x1F01 JUMPI POP PUSH32 0x0 PUSH2 0x7F9 JUMP JUMPDEST PUSH2 0x7F9 PUSH2 0x135 PUSH2 0x2338 JUMP JUMPDEST PUSH1 0x0 DUP1 PUSH2 0x1F21 PUSH2 0x1F1A PUSH2 0x76C JUMP JUMPDEST DUP5 SWAP1 PUSH2 0x1058 JUMP JUMPDEST SWAP1 POP PUSH2 0x645 DUP4 DUP3 PUSH2 0xF99 JUMP JUMPDEST PUSH1 0x0 PUSH2 0x645 DUP4 DUP4 PUSH2 0x259C JUMP JUMPDEST PUSH1 0x0 PUSH2 0x1F4E PUSH2 0x1F46 PUSH2 0x73E JUMP JUMPDEST PUSH2 0x147 PUSH2 0x13DA JUMP JUMPDEST PUSH2 0x1F59 DUP5 DUP5 DUP5 PUSH2 0x270A JUMP JUMPDEST SWAP5 SWAP4 POP POP POP POP JUMP JUMPDEST PUSH1 0x0 PUSH2 0x645 DUP4 DUP4 PUSH2 0x1BEB JUMP JUMPDEST PUSH1 0x0 PUSH2 0x1F7A PUSH2 0x1F46 PUSH2 0x73E JUMP JUMPDEST PUSH2 0x1F59 DUP5 DUP5 DUP5 PUSH2 0x273D JUMP JUMPDEST PUSH1 0x0 PUSH2 0x645 DUP4 DUP4 PUSH2 0x10A6 JUMP JUMPDEST PUSH1 0x0 PUSH2 0x57E PUSH2 0x1FB0 PUSH2 0x1FA1 PUSH2 0x76C JUMP JUMPDEST PUSH8 0xDE0B6B3A7640000 SWAP1 PUSH2 0xF99 JUMP JUMPDEST DUP4 SWAP1 PUSH2 0x10A6 JUMP JUMPDEST PUSH1 0x0 PUSH2 0x1FC1 PUSH2 0xA16 JUMP JUMPDEST PUSH1 0x1 PUSH1 0x1 PUSH1 0xA0 SHL SUB AND PUSH4 0xAAABADC5 PUSH1 0x40 MLOAD DUP2 PUSH4 0xFFFFFFFF AND PUSH1 0xE0 SHL DUP2 MSTORE PUSH1 0x4 ADD PUSH1 0x20 PUSH1 0x40 MLOAD DUP1 DUP4 SUB DUP2 DUP7 DUP1 EXTCODESIZE ISZERO DUP1 ISZERO PUSH2 0x1FF9 JUMPI PUSH1 0x0 DUP1 REVERT JUMPDEST POP GAS STATICCALL ISZERO DUP1 ISZERO PUSH2 0x200D JUMPI RETURNDATASIZE PUSH1 0x0 DUP1 RETURNDATACOPY RETURNDATASIZE PUSH1 0x0 REVERT JUMPDEST POP POP POP POP PUSH1 0x40 MLOAD RETURNDATASIZE PUSH1 0x1F NOT PUSH1 0x1F DUP3 ADD AND DUP3 ADD DUP1 PUSH1 0x40 MSTORE POP DUP2 ADD SWAP1 PUSH2 0x5D1 SWAP2 SWAP1 PUSH2 0x450B JUMP JUMPDEST PUSH1 0x60 PUSH1 0x0 PUSH2 0x203D PUSH2 0x1639 JUMP JUMPDEST SWAP2 POP PUSH1 0x0 SWAP1 POP PUSH1 0x0 DUP3 PUSH1 0x0 DUP2 MLOAD DUP2 LT PUSH2 0x2052 JUMPI INVALID JUMPDEST PUSH1 0x20 MUL PUSH1 0x20 ADD ADD MLOAD SWAP1 POP PUSH1 0x0 PUSH1 0x1 SWAP1 POP JUMPDEST DUP4 MLOAD DUP2 LT ISZERO PUSH2 0x20A9 JUMPI DUP2 DUP5 DUP3 DUP2 MLOAD DUP2 LT PUSH2 0x2079 JUMPI INVALID JUMPDEST PUSH1 0x20 MUL PUSH1 0x20 ADD ADD MLOAD GT ISZERO PUSH2 0x20A1 JUMPI DUP1 SWAP3 POP DUP4 DUP2 DUP2 MLOAD DUP2 LT PUSH2 0x2096 JUMPI INVALID JUMPDEST PUSH1 0x20 MUL PUSH1 0x20 ADD ADD MLOAD SWAP2 POP JUMPDEST PUSH1 0x1 ADD PUSH2 0x2063 JUMP JUMPDEST POP POP SWAP1 SWAP2 JUMP JUMPDEST PUSH8 0xDE0B6B3A7640000 PUSH1 0x0 JUMPDEST DUP4 MLOAD DUP2 LT ISZERO PUSH2 0x2111 JUMPI PUSH2 0x2107 PUSH2 0x2100 DUP6 DUP4 DUP2 MLOAD DUP2 LT PUSH2 0x20D6 JUMPI INVALID JUMPDEST PUSH1 0x20 MUL PUSH1 0x20 ADD ADD MLOAD DUP6 DUP5 DUP2 MLOAD DUP2 LT PUSH2 0x20EA JUMPI INVALID JUMPDEST PUSH1 0x20 MUL PUSH1 0x20 ADD ADD MLOAD PUSH2 0x2770 SWAP1 SWAP2 SWAP1 PUSH4 0xFFFFFFFF AND JUMP JUMPDEST DUP4 SWAP1 PUSH2 0x259C JUMP JUMPDEST SWAP2 POP PUSH1 0x1 ADD PUSH2 0x20BB JUMP JUMPDEST POP PUSH2 0x57E PUSH1 0x0 DUP3 GT PUSH2 0x137 PUSH2 0x13DA JUMP JUMPDEST PUSH1 0x0 PUSH2 0x212B PUSH2 0x14C8 JUMP JUMPDEST DUP3 PUSH1 0x40 MLOAD PUSH1 0x20 ADD PUSH2 0x9AF SWAP3 SWAP2 SWAP1 PUSH2 0x48CA JUMP JUMPDEST PUSH1 0x0 PUSH1 0x60 PUSH2 0x2168 PUSH2 0x214C PUSH2 0x9F2 JUMP JUMPDEST PUSH1 0x1 PUSH1 0x1 PUSH1 0xA0 SHL SUB AND DUP8 PUSH1 0x1 PUSH1 0x1 PUSH1 0xA0 SHL SUB AND EQ PUSH2 0x148 PUSH2 0x13DA JUMP JUMPDEST PUSH2 0x2175 DUP8 DUP8 DUP8 DUP8 DUP8 PUSH2 0x27BF JUMP JUMPDEST SWAP2 POP SWAP2 POP SWAP6 POP SWAP6 SWAP4 POP POP POP POP JUMP JUMPDEST PUSH2 0x768 DUP3 DUP3 PUSH2 0x2853 JUMP JUMPDEST PUSH1 0xB SLOAD PUSH2 0x219C SWAP1 DUP3 PUSH1 0x0 PUSH2 0x1031 JUMP JUMPDEST PUSH1 0xB SSTORE PUSH1 0x40 MLOAD PUSH32 0x5A9E84F78F7957CB4ED7478EB0FCAD35EE4ECBE2E0F298420B28A3955392573F SWAP1 PUSH2 0x11FA SWAP1 DUP4 SWAP1 PUSH2 0x4931 JUMP JUMPDEST PUSH1 0x2 DUP2 MLOAD LT ISZERO PUSH2 0x21DE JUMPI PUSH2 0x595 JUMP JUMPDEST PUSH1 0x0 DUP2 PUSH1 0x0 DUP2 MLOAD DUP2 LT PUSH2 0x21ED JUMPI INVALID JUMPDEST PUSH1 0x20 MUL PUSH1 0x20 ADD ADD MLOAD SWAP1 POP PUSH1 0x0 PUSH1 0x1 SWAP1 POP JUMPDEST DUP3 MLOAD DUP2 LT ISZERO PUSH2 0x739 JUMPI PUSH1 0x0 DUP4 DUP3 DUP2 MLOAD DUP2 LT PUSH2 0x2215 JUMPI INVALID JUMPDEST PUSH1 0x20 MUL PUSH1 0x20 ADD ADD MLOAD SWAP1 POP PUSH2 0x223E DUP2 PUSH1 0x1 PUSH1 0x1 PUSH1 0xA0 SHL SUB AND DUP5 PUSH1 0x1 PUSH1 0x1 PUSH1 0xA0 SHL SUB AND LT PUSH1 0x65 PUSH2 0x13DA JUMP JUMPDEST SWAP2 POP PUSH1 0x1 ADD PUSH2 0x21FE JUMP JUMPDEST PUSH1 0x0 PUSH20 0xBA1BA1BA1BA1BA1BA1BA1BA1BA1BA1BA1BA1BA1B PUSH2 0x2267 PUSH2 0x9F2 JUMP JUMPDEST PUSH1 0x1 PUSH1 0x1 PUSH1 0xA0 SHL SUB AND EQ ISZERO DUP1 ISZERO PUSH2 0x2282 JUMPI POP PUSH2 0x2282 DUP4 PUSH2 0x28E1 JUMP JUMPDEST ISZERO PUSH2 0x22AA JUMPI PUSH2 0x228F PUSH2 0x9F2 JUMP JUMPDEST PUSH1 0x1 PUSH1 0x1 PUSH1 0xA0 SHL SUB AND CALLER PUSH1 0x1 PUSH1 0x1 PUSH1 0xA0 SHL SUB AND EQ SWAP1 POP PUSH2 0x57E JUMP JUMPDEST PUSH2 0x22B2 PUSH2 0x1FB7 JUMP JUMPDEST PUSH1 0x1 PUSH1 0x1 PUSH1 0xA0 SHL SUB AND PUSH4 0x9BE2A884 DUP5 DUP5 ADDRESS PUSH1 0x40 MLOAD DUP5 PUSH4 0xFFFFFFFF AND PUSH1 0xE0 SHL DUP2 MSTORE PUSH1 0x4 ADD PUSH2 0x22E1 SWAP4 SWAP3 SWAP2 SWAP1 PUSH2 0x495D JUMP JUMPDEST PUSH1 0x20 PUSH1 0x40 MLOAD DUP1 DUP4 SUB DUP2 DUP7 DUP1 EXTCODESIZE ISZERO DUP1 ISZERO PUSH2 0x22F9 JUMPI PUSH1 0x0 DUP1 REVERT JUMPDEST POP GAS STATICCALL ISZERO DUP1 ISZERO PUSH2 0x230D JUMPI RETURNDATASIZE PUSH1 0x0 DUP1 RETURNDATACOPY RETURNDATASIZE PUSH1 0x0 REVERT JUMPDEST POP POP POP POP PUSH1 0x40 MLOAD RETURNDATASIZE PUSH1 0x1F NOT PUSH1 0x1F DUP3 ADD AND DUP3 ADD DUP1 PUSH1 0x40 MSTORE POP DUP2 ADD SWAP1 PUSH2 0x2331 SWAP2 SWAP1 PUSH2 0x4425 JUMP JUMPDEST SWAP1 POP PUSH2 0x57E JUMP JUMPDEST PUSH3 0x461BCD PUSH1 0xE5 SHL PUSH1 0x0 SWAP1 DUP2 MSTORE PUSH1 0x20 PUSH1 0x4 MSTORE PUSH1 0x7 PUSH1 0x24 MSTORE PUSH7 0x42414C23000030 PUSH1 0xA DUP1 DUP5 DIV DUP2 DUP2 MOD PUSH1 0x30 SWAP1 DUP2 ADD PUSH1 0x8 SHL SWAP6 DUP4 SWAP1 MOD SWAP6 SWAP1 SWAP6 ADD SWAP1 DUP3 SWAP1 DIV SWAP2 DUP3 MOD SWAP1 SWAP5 ADD PUSH1 0x10 SHL SWAP4 SWAP1 SWAP4 ADD ADD PUSH1 0xC8 SHL PUSH1 0x44 MSTORE PUSH1 0x64 SWAP1 REVERT JUMPDEST PUSH1 0x0 PUSH2 0x239A DUP5 DUP5 GT ISZERO DUP4 PUSH2 0x13DA JUMP JUMPDEST POP POP SWAP1 SUB SWAP1 JUMP JUMPDEST CHAINID SWAP1 JUMP JUMPDEST PUSH1 0x0 DUP1 PUSH2 0x23C0 PUSH2 0x23BB DUP5 PUSH1 0x4 PUSH1 0x1F DUP9 MUL ADD PUSH2 0x291D JUMP JUMPDEST PUSH2 0x2927 JUMP JUMPDEST SWAP1 POP PUSH1 0x0 PUSH2 0x23D7 PUSH2 0x933 DUP6 PUSH1 0x80 PUSH1 0x10 DUP10 MUL ADD PUSH2 0x1CA8 JUMP JUMPDEST SWAP1 POP PUSH1 0x0 PUSH2 0x23E4 DUP6 PUSH2 0x2943 JUMP JUMPDEST SWAP1 POP PUSH2 0x23F1 DUP4 DUP4 DUP4 PUSH2 0x29C2 JUMP JUMPDEST SWAP7 SWAP6 POP POP POP POP POP POP JUMP JUMPDEST PUSH1 0x60 DUP1 PUSH2 0x2406 PUSH2 0x15FE JUMP JUMPDEST PUSH1 0x1 PUSH1 0x1 PUSH1 0x40 SHL SUB DUP2 GT DUP1 ISZERO PUSH2 0x241B JUMPI PUSH1 0x0 DUP1 REVERT JUMPDEST POP PUSH1 0x40 MLOAD SWAP1 DUP1 DUP3 MSTORE DUP1 PUSH1 0x20 MUL PUSH1 0x20 ADD DUP3 ADD PUSH1 0x40 MSTORE DUP1 ISZERO PUSH2 0x2445 JUMPI DUP2 PUSH1 0x20 ADD PUSH1 0x20 DUP3 MUL DUP1 CALLDATASIZE DUP4 CALLDATACOPY ADD SWAP1 POP JUMPDEST POP SWAP1 POP DUP3 PUSH2 0x2454 JUMPI SWAP1 POP PUSH2 0x23F1 JUMP JUMPDEST PUSH2 0x2487 DUP9 DUP8 DUP2 MLOAD DUP2 LT PUSH2 0x2463 JUMPI INVALID JUMPDEST PUSH1 0x20 MUL PUSH1 0x20 ADD ADD MLOAD DUP9 DUP9 DUP2 MLOAD DUP2 LT PUSH2 0x2477 JUMPI INVALID JUMPDEST PUSH1 0x20 MUL PUSH1 0x20 ADD ADD MLOAD DUP8 DUP8 DUP8 PUSH2 0x2A36 JUMP JUMPDEST DUP2 DUP8 DUP2 MLOAD DUP2 LT PUSH2 0x2493 JUMPI INVALID JUMPDEST PUSH1 0x20 SWAP1 DUP2 MUL SWAP2 SWAP1 SWAP2 ADD ADD MSTORE SWAP8 SWAP7 POP POP POP POP POP POP POP JUMP JUMPDEST PUSH1 0x0 JUMPDEST PUSH2 0x24B4 PUSH2 0x15FE JUMP JUMPDEST DUP2 LT ISZERO PUSH2 0x250E JUMPI PUSH2 0x24EF DUP5 DUP3 DUP2 MLOAD DUP2 LT PUSH2 0x24CA JUMPI INVALID JUMPDEST PUSH1 0x20 MUL PUSH1 0x20 ADD ADD MLOAD DUP5 DUP4 DUP2 MLOAD DUP2 LT PUSH2 0x24DE JUMPI INVALID JUMPDEST PUSH1 0x20 MUL PUSH1 0x20 ADD ADD MLOAD DUP5 PUSH4 0xFFFFFFFF AND JUMP JUMPDEST DUP5 DUP3 DUP2 MLOAD DUP2 LT PUSH2 0x24FB JUMPI INVALID JUMPDEST PUSH1 0x20 SWAP1 DUP2 MUL SWAP2 SWAP1 SWAP2 ADD ADD MSTORE PUSH1 0x1 ADD PUSH2 0x24AC JUMP JUMPDEST POP POP POP POP JUMP JUMPDEST PUSH1 0x0 PUSH1 0x60 PUSH1 0x0 PUSH2 0x2523 DUP5 PUSH2 0x2ABE JUMP JUMPDEST SWAP1 POP PUSH1 0x0 DUP2 PUSH1 0x2 DUP2 GT ISZERO PUSH2 0x2533 JUMPI INVALID JUMPDEST EQ ISZERO PUSH2 0x254E JUMPI PUSH2 0x2544 DUP8 DUP8 DUP7 PUSH2 0x2AD4 JUMP JUMPDEST SWAP3 POP SWAP3 POP POP PUSH2 0x257A JUMP JUMPDEST PUSH1 0x1 DUP2 PUSH1 0x2 DUP2 GT ISZERO PUSH2 0x255C JUMPI INVALID JUMPDEST EQ ISZERO PUSH2 0x256C JUMPI PUSH2 0x2544 DUP8 DUP6 PUSH2 0x2BB6 JUMP JUMPDEST PUSH2 0x2544 DUP8 DUP8 DUP8 DUP8 PUSH2 0x2BE8 JUMP JUMPDEST POP JUMPDEST SWAP5 POP SWAP5 SWAP3 POP POP POP JUMP JUMPDEST PUSH1 0x0 PUSH2 0x2592 DUP5 DUP5 PUSH2 0xF99 PUSH2 0x24A9 JUMP JUMPDEST PUSH2 0x1F59 DUP3 DUP6 PUSH2 0x20AF JUMP JUMPDEST PUSH1 0x0 DUP3 DUP3 MUL PUSH2 0x25B6 DUP5 ISZERO DUP1 PUSH2 0x1075 JUMPI POP DUP4 DUP6 DUP4 DUP2 PUSH2 0x1072 JUMPI INVALID JUMPDEST PUSH8 0xDE0B6B3A7640000 SWAP1 DIV SWAP4 SWAP3 POP POP POP JUMP JUMPDEST PUSH2 0x25DF PUSH1 0x1 PUSH1 0x1 PUSH1 0xA0 SHL SUB DUP4 AND ISZERO ISZERO PUSH2 0x19B PUSH2 0x13DA JUMP JUMPDEST PUSH2 0x25EB DUP3 PUSH1 0x0 DUP4 PUSH2 0x739 JUMP JUMPDEST PUSH1 0x1 PUSH1 0x1 PUSH1 0xA0 SHL SUB DUP3 AND PUSH1 0x0 SWAP1 DUP2 MSTORE PUSH1 0x20 DUP2 SWAP1 MSTORE PUSH1 0x40 SWAP1 KECCAK256 SLOAD PUSH2 0x2611 SWAP1 DUP3 PUSH2 0x1A1 PUSH2 0x238B JUMP JUMPDEST PUSH1 0x1 PUSH1 0x1 PUSH1 0xA0 SHL SUB DUP4 AND PUSH1 0x0 SWAP1 DUP2 MSTORE PUSH1 0x20 DUP2 SWAP1 MSTORE PUSH1 0x40 SWAP1 KECCAK256 SSTORE PUSH1 0x2 SLOAD PUSH2 0x2637 SWAP1 DUP3 PUSH2 0x2C57 JUMP JUMPDEST PUSH1 0x2 SSTORE PUSH1 0x40 MLOAD PUSH1 0x0 SWAP1 PUSH1 0x1 PUSH1 0x1 PUSH1 0xA0 SHL SUB DUP5 AND SWAP1 PUSH32 0xDDF252AD1BE2C89B69C2B068FC378DAA952BA7F163C4A11628F55A4DF523B3EF SWAP1 PUSH2 0x2678 SWAP1 DUP6 SWAP1 PUSH2 0x4954 JUMP JUMPDEST PUSH1 0x40 MLOAD DUP1 SWAP2 SUB SWAP1 LOG3 POP POP JUMP JUMPDEST PUSH1 0x0 PUSH1 0x60 DUP1 PUSH2 0x2691 PUSH2 0x1565 JUMP JUMPDEST PUSH1 0x60 PUSH1 0x0 PUSH2 0x269D PUSH2 0x2031 JUMP JUMPDEST SWAP2 POP SWAP2 POP PUSH1 0x0 PUSH2 0x26AD DUP4 DUP13 PUSH2 0x20AF JUMP JUMPDEST SWAP1 POP PUSH1 0x60 PUSH2 0x26C1 DUP13 DUP6 DUP6 PUSH1 0x9 SLOAD DUP7 DUP16 PUSH2 0x23FB JUMP JUMPDEST SWAP1 POP PUSH2 0x26D0 DUP13 DUP3 PUSH2 0xF99 PUSH2 0x24A9 JUMP JUMPDEST PUSH1 0x0 PUSH1 0x60 PUSH2 0x26E0 DUP15 DUP8 DUP14 DUP14 PUSH2 0x2C65 JUMP JUMPDEST SWAP2 POP SWAP2 POP PUSH2 0x26EF DUP15 DUP3 DUP9 PUSH2 0x2CC0 JUMP JUMPDEST PUSH1 0x9 SSTORE SWAP1 SWAP8 POP SWAP6 POP SWAP4 POP POP POP POP SWAP9 POP SWAP9 POP SWAP9 SWAP6 POP POP POP POP POP POP JUMP JUMPDEST PUSH1 0x0 PUSH2 0x2714 PUSH2 0x1565 JUMP JUMPDEST PUSH2 0x1F59 DUP4 PUSH2 0x2725 DUP7 PUSH1 0x20 ADD MLOAD PUSH2 0x2CCF JUMP JUMPDEST DUP5 PUSH2 0x2733 DUP9 PUSH1 0x40 ADD MLOAD PUSH2 0x2CCF JUMP JUMPDEST DUP9 PUSH1 0x60 ADD MLOAD PUSH2 0x2DF1 JUMP JUMPDEST PUSH1 0x0 PUSH2 0x2747 PUSH2 0x1565 JUMP JUMPDEST PUSH2 0x1F59 DUP4 PUSH2 0x2758 DUP7 PUSH1 0x20 ADD MLOAD PUSH2 0x2CCF JUMP JUMPDEST DUP5 PUSH2 0x2766 DUP9 PUSH1 0x40 ADD MLOAD PUSH2 0x2CCF JUMP JUMPDEST DUP9 PUSH1 0x60 ADD MLOAD PUSH2 0x2E5E JUMP JUMPDEST PUSH1 0x0 DUP1 PUSH2 0x277D DUP5 DUP5 PUSH2 0x2ED4 JUMP JUMPDEST SWAP1 POP PUSH1 0x0 PUSH2 0x2797 PUSH2 0x2790 DUP4 PUSH2 0x2710 PUSH2 0x1058 JUMP JUMPDEST PUSH1 0x1 PUSH2 0x100D JUMP JUMPDEST SWAP1 POP DUP1 DUP3 LT ISZERO PUSH2 0x27AC JUMPI PUSH1 0x0 SWAP3 POP POP POP PUSH2 0x57E JUMP JUMPDEST PUSH2 0x27B6 DUP3 DUP3 PUSH2 0xF99 JUMP JUMPDEST SWAP3 POP POP POP PUSH2 0x57E JUMP JUMPDEST PUSH1 0x0 PUSH1 0x60 PUSH2 0x27CB PUSH2 0x1565 JUMP JUMPDEST PUSH1 0x0 PUSH2 0x27D6 DUP5 PUSH2 0x2ABE JUMP JUMPDEST SWAP1 POP PUSH2 0x27F1 PUSH1 0x0 DUP3 PUSH1 0x2 DUP2 GT ISZERO PUSH2 0x27E9 JUMPI INVALID JUMPDEST EQ PUSH1 0xCE PUSH2 0x13DA JUMP JUMPDEST PUSH1 0x60 PUSH2 0x27FC DUP6 PUSH2 0x2FD5 JUMP JUMPDEST SWAP1 POP PUSH2 0x2809 PUSH2 0x6FA PUSH2 0x15FE JUMP JUMPDEST PUSH2 0x2813 DUP2 DUP8 PUSH2 0x1C33 JUMP JUMPDEST PUSH1 0x60 PUSH2 0x281D PUSH2 0x2031 JUMP JUMPDEST POP SWAP1 POP PUSH1 0x0 PUSH2 0x282C DUP3 DUP5 PUSH2 0x20AF JUMP JUMPDEST SWAP1 POP PUSH1 0x0 PUSH2 0x283C DUP3 PUSH2 0x7D4 PUSH2 0x15FE JUMP JUMPDEST PUSH1 0x9 SWAP3 SWAP1 SWAP3 SSTORE POP SWAP11 SWAP2 SWAP10 POP SWAP1 SWAP8 POP POP POP POP POP POP POP POP JUMP JUMPDEST PUSH2 0x285F PUSH1 0x0 DUP4 DUP4 PUSH2 0x739 JUMP JUMPDEST PUSH1 0x2 SLOAD PUSH2 0x286C SWAP1 DUP3 PUSH2 0x100D JUMP JUMPDEST PUSH1 0x2 SSTORE PUSH1 0x1 PUSH1 0x1 PUSH1 0xA0 SHL SUB DUP3 AND PUSH1 0x0 SWAP1 DUP2 MSTORE PUSH1 0x20 DUP2 SWAP1 MSTORE PUSH1 0x40 SWAP1 KECCAK256 SLOAD PUSH2 0x2892 SWAP1 DUP3 PUSH2 0x100D JUMP JUMPDEST PUSH1 0x1 PUSH1 0x1 PUSH1 0xA0 SHL SUB DUP4 AND PUSH1 0x0 DUP2 DUP2 MSTORE PUSH1 0x20 DUP2 SWAP1 MSTORE PUSH1 0x40 DUP1 DUP3 KECCAK256 SWAP4 SWAP1 SWAP4 SSTORE SWAP2 MLOAD SWAP1 SWAP2 SWAP1 PUSH32 0xDDF252AD1BE2C89B69C2B068FC378DAA952BA7F163C4A11628F55A4DF523B3EF SWAP1 PUSH2 0x2678 SWAP1 DUP6 SWAP1 PUSH2 0x4954 JUMP JUMPDEST PUSH1 0x0 PUSH2 0x28F3 PUSH4 0x3806BE4B PUSH1 0xE2 SHL PUSH2 0x97A JUMP JUMPDEST DUP3 EQ DUP1 PUSH2 0x290E JUMPI POP PUSH2 0x290B PUSH4 0x3E569205 PUSH1 0xE0 SHL PUSH2 0x97A JUMP JUMPDEST DUP3 EQ JUMPDEST DUP1 PUSH2 0x57E JUMPI POP PUSH2 0x57E DUP3 PUSH2 0x2FEB JUMP JUMPDEST SHR PUSH4 0x7FFFFFFF AND SWAP1 JUMP JUMPDEST PUSH1 0x0 PUSH2 0x57E PUSH4 0x7FFFFFFF PUSH2 0xFC9 DUP5 PUSH8 0xDE0B6B3A7640000 PUSH2 0x1058 JUMP JUMPDEST PUSH1 0x0 TIMESTAMP DUP2 PUSH2 0x2952 DUP5 PUSH1 0xC0 PUSH2 0x1C9E JUMP JUMPDEST SWAP1 POP PUSH1 0x0 PUSH2 0x2961 DUP6 PUSH1 0xE0 PUSH2 0x1C9E JUMP JUMPDEST SWAP1 POP DUP1 DUP4 GT ISZERO PUSH2 0x297E JUMPI PUSH8 0xDE0B6B3A7640000 SWAP4 POP POP POP POP PUSH2 0x7F9 JUMP JUMPDEST DUP2 DUP4 LT ISZERO PUSH2 0x2992 JUMPI PUSH1 0x0 SWAP4 POP POP POP POP PUSH2 0x7F9 JUMP JUMPDEST DUP2 DUP2 SUB DUP3 DUP5 SUB DUP2 ISZERO PUSH2 0x29AD JUMPI PUSH2 0x29A8 DUP2 DUP4 PUSH2 0x1BEB JUMP JUMPDEST PUSH2 0x29B7 JUMP JUMPDEST PUSH8 0xDE0B6B3A7640000 JUMPDEST SWAP8 SWAP7 POP POP POP POP POP POP POP JUMP JUMPDEST PUSH1 0x0 DUP2 ISZERO DUP1 PUSH2 0x29D0 JUMPI POP DUP3 DUP5 EQ JUMPDEST ISZERO PUSH2 0x29DC JUMPI POP DUP3 PUSH2 0x645 JUMP JUMPDEST PUSH8 0xDE0B6B3A7640000 DUP3 LT PUSH2 0x29F2 JUMPI POP DUP2 PUSH2 0x645 JUMP JUMPDEST DUP3 DUP5 GT ISZERO PUSH2 0x2A1C JUMPI PUSH1 0x0 PUSH2 0x2A08 DUP4 DUP6 DUP8 SUB PUSH2 0x259C JUMP JUMPDEST SWAP1 POP PUSH2 0x2A14 DUP6 DUP3 PUSH2 0xF99 JUMP JUMPDEST SWAP2 POP POP PUSH2 0x645 JUMP JUMPDEST PUSH1 0x0 PUSH2 0x2A2A DUP4 DUP7 DUP7 SUB PUSH2 0x259C JUMP JUMPDEST SWAP1 POP PUSH2 0x2A14 DUP6 DUP3 PUSH2 0x100D JUMP JUMPDEST PUSH1 0x0 DUP4 DUP4 GT PUSH2 0x2A47 JUMPI POP PUSH1 0x0 PUSH2 0x2AB5 JUMP JUMPDEST PUSH1 0x0 PUSH2 0x2A53 DUP6 DUP6 PUSH2 0x10A6 JUMP JUMPDEST SWAP1 POP PUSH1 0x0 PUSH2 0x2A69 PUSH8 0xDE0B6B3A7640000 DUP9 PUSH2 0x1BEB JUMP JUMPDEST SWAP1 POP PUSH2 0x2A7D DUP3 PUSH8 0x9B6E64A8EC60000 PUSH2 0x1622 JUMP JUMPDEST SWAP2 POP PUSH1 0x0 PUSH2 0x2A8B DUP4 DUP4 PUSH2 0x301D JUMP JUMPDEST SWAP1 POP PUSH1 0x0 PUSH2 0x2AA2 PUSH2 0x2A9B DUP4 PUSH2 0x3049 JUMP JUMPDEST DUP12 SWAP1 PUSH2 0x259C JUMP JUMPDEST SWAP1 POP PUSH2 0x2AAE DUP2 DUP8 PUSH2 0x259C JUMP JUMPDEST SWAP5 POP POP POP POP POP JUMPDEST SWAP6 SWAP5 POP POP POP POP POP JUMP JUMPDEST PUSH1 0x0 DUP2 DUP1 PUSH1 0x20 ADD SWAP1 MLOAD DUP2 ADD SWAP1 PUSH2 0x57E SWAP2 SWAP1 PUSH2 0x4574 JUMP JUMPDEST PUSH1 0x0 PUSH1 0x60 PUSH2 0x2AE0 PUSH2 0x1565 JUMP JUMPDEST PUSH1 0x0 DUP1 PUSH2 0x2AEC DUP6 PUSH2 0x306F JUMP JUMPDEST SWAP2 POP SWAP2 POP PUSH2 0x2B04 PUSH2 0x2AFB PUSH2 0x15FE JUMP JUMPDEST DUP3 LT PUSH1 0x64 PUSH2 0x13DA JUMP JUMPDEST PUSH1 0x60 PUSH2 0x2B0E PUSH2 0x15FE JUMP JUMPDEST PUSH1 0x1 PUSH1 0x1 PUSH1 0x40 SHL SUB DUP2 GT DUP1 ISZERO PUSH2 0x2B23 JUMPI PUSH1 0x0 DUP1 REVERT JUMPDEST POP PUSH1 0x40 MLOAD SWAP1 DUP1 DUP3 MSTORE DUP1 PUSH1 0x20 MUL PUSH1 0x20 ADD DUP3 ADD PUSH1 0x40 MSTORE DUP1 ISZERO PUSH2 0x2B4D JUMPI DUP2 PUSH1 0x20 ADD PUSH1 0x20 DUP3 MUL DUP1 CALLDATASIZE DUP4 CALLDATACOPY ADD SWAP1 POP JUMPDEST POP SWAP1 POP PUSH2 0x2B91 DUP9 DUP4 DUP2 MLOAD DUP2 LT PUSH2 0x2B5F JUMPI INVALID JUMPDEST PUSH1 0x20 MUL PUSH1 0x20 ADD ADD MLOAD DUP9 DUP5 DUP2 MLOAD DUP2 LT PUSH2 0x2B73 JUMPI INVALID JUMPDEST PUSH1 0x20 MUL PUSH1 0x20 ADD ADD MLOAD DUP6 PUSH2 0x2B84 PUSH2 0x598 JUMP JUMPDEST PUSH2 0x2B8C PUSH2 0x76C JUMP JUMPDEST PUSH2 0x3091 JUMP JUMPDEST DUP2 DUP4 DUP2 MLOAD DUP2 LT PUSH2 0x2B9D JUMPI INVALID JUMPDEST PUSH1 0x20 SWAP1 DUP2 MUL SWAP2 SWAP1 SWAP2 ADD ADD MSTORE SWAP2 SWAP8 SWAP2 SWAP7 POP SWAP1 SWAP5 POP POP POP POP POP JUMP JUMPDEST PUSH1 0x0 PUSH1 0x60 PUSH1 0x0 PUSH2 0x2BC5 DUP5 PUSH2 0x3151 JUMP JUMPDEST SWAP1 POP PUSH1 0x60 PUSH2 0x2BDB DUP7 DUP4 PUSH2 0x2BD6 PUSH2 0x598 JUMP JUMPDEST PUSH2 0x3167 JUMP JUMPDEST SWAP2 SWAP7 SWAP2 SWAP6 POP SWAP1 SWAP4 POP POP POP POP JUMP JUMPDEST PUSH1 0x0 PUSH1 0x60 PUSH2 0x2BF4 PUSH2 0x1565 JUMP JUMPDEST PUSH1 0x60 PUSH1 0x0 PUSH2 0x2C01 DUP6 PUSH2 0x3218 JUMP JUMPDEST SWAP2 POP SWAP2 POP PUSH2 0x2C12 DUP3 MLOAD PUSH2 0x78E PUSH2 0x15FE JUMP JUMPDEST PUSH2 0x2C1C DUP3 DUP8 PUSH2 0x1C33 JUMP JUMPDEST PUSH1 0x0 PUSH2 0x2C39 DUP10 DUP10 DUP6 PUSH2 0x2C2C PUSH2 0x598 JUMP JUMPDEST PUSH2 0x2C34 PUSH2 0x76C JUMP JUMPDEST PUSH2 0x3230 JUMP JUMPDEST SWAP1 POP PUSH2 0x2C49 DUP3 DUP3 GT ISZERO PUSH1 0xCF PUSH2 0x13DA JUMP JUMPDEST SWAP9 SWAP2 SWAP8 POP SWAP1 SWAP6 POP POP POP POP POP POP JUMP JUMPDEST PUSH1 0x0 PUSH2 0x645 DUP4 DUP4 PUSH1 0x1 PUSH2 0x238B JUMP JUMPDEST PUSH1 0x0 PUSH1 0x60 PUSH1 0x0 PUSH2 0x2C74 DUP5 PUSH2 0x2ABE JUMP JUMPDEST SWAP1 POP PUSH1 0x1 DUP2 PUSH1 0x2 DUP2 GT ISZERO PUSH2 0x2C84 JUMPI INVALID JUMPDEST EQ ISZERO PUSH2 0x2C96 JUMPI PUSH2 0x2544 DUP8 DUP8 DUP8 DUP8 PUSH2 0x345D JUMP JUMPDEST PUSH1 0x2 DUP2 PUSH1 0x2 DUP2 GT ISZERO PUSH2 0x2CA4 JUMPI INVALID JUMPDEST EQ ISZERO PUSH2 0x2CB5 JUMPI PUSH2 0x2544 DUP8 DUP8 DUP7 PUSH2 0x34BA JUMP JUMPDEST PUSH2 0x2578 PUSH2 0x136 PUSH2 0x2338 JUMP JUMPDEST PUSH1 0x0 PUSH2 0x2592 DUP5 DUP5 PUSH2 0x100D PUSH2 0x24A9 JUMP JUMPDEST PUSH1 0x0 DUP1 PUSH32 0x0 PUSH1 0x1 PUSH1 0x1 PUSH1 0xA0 SHL SUB AND DUP4 PUSH1 0x1 PUSH1 0x1 PUSH1 0xA0 SHL SUB AND EQ ISZERO PUSH2 0x2D14 JUMPI POP PUSH1 0x0 PUSH2 0x2DE5 JUMP JUMPDEST PUSH32 0x0 PUSH1 0x1 PUSH1 0x1 PUSH1 0xA0 SHL SUB AND DUP4 PUSH1 0x1 PUSH1 0x1 PUSH1 0xA0 SHL SUB AND EQ ISZERO PUSH2 0x2D56 JUMPI POP PUSH1 0x1 PUSH2 0x2DE5 JUMP JUMPDEST PUSH32 0x0 PUSH1 0x1 PUSH1 0x1 PUSH1 0xA0 SHL SUB AND DUP4 PUSH1 0x1 PUSH1 0x1 PUSH1 0xA0 SHL SUB AND EQ ISZERO PUSH2 0x2D98 JUMPI POP PUSH1 0x2 PUSH2 0x2DE5 JUMP JUMPDEST PUSH32 0x0 PUSH1 0x1 PUSH1 0x1 PUSH1 0xA0 SHL SUB AND DUP4 PUSH1 0x1 PUSH1 0x1 PUSH1 0xA0 SHL SUB AND EQ ISZERO PUSH2 0x2DDA JUMPI POP PUSH1 0x3 PUSH2 0x2DE5 JUMP JUMPDEST PUSH2 0x2DE5 PUSH2 0x135 PUSH2 0x2338 JUMP JUMPDEST PUSH2 0x645 DUP2 PUSH1 0xB SLOAD PUSH2 0x23A5 JUMP JUMPDEST PUSH1 0x0 PUSH2 0x2E13 PUSH2 0x2E08 DUP8 PUSH8 0x429D069189E0000 PUSH2 0x259C JUMP JUMPDEST DUP4 GT ISZERO PUSH2 0x130 PUSH2 0x13DA JUMP JUMPDEST PUSH1 0x0 PUSH2 0x2E1F DUP8 DUP5 PUSH2 0x100D JUMP JUMPDEST SWAP1 POP PUSH1 0x0 PUSH2 0x2E2D DUP9 DUP4 PUSH2 0x10A6 JUMP JUMPDEST SWAP1 POP PUSH1 0x0 PUSH2 0x2E3B DUP9 DUP8 PUSH2 0x1BEB JUMP JUMPDEST SWAP1 POP PUSH1 0x0 PUSH2 0x2E49 DUP4 DUP4 PUSH2 0x301D JUMP JUMPDEST SWAP1 POP PUSH2 0x2AAE PUSH2 0x2E57 DUP3 PUSH2 0x3049 JUMP JUMPDEST DUP10 SWAP1 PUSH2 0x259C JUMP JUMPDEST PUSH1 0x0 PUSH2 0x2E80 PUSH2 0x2E75 DUP6 PUSH8 0x429D069189E0000 PUSH2 0x259C JUMP JUMPDEST DUP4 GT ISZERO PUSH2 0x131 PUSH2 0x13DA JUMP JUMPDEST PUSH1 0x0 PUSH2 0x2E96 PUSH2 0x2E8F DUP7 DUP6 PUSH2 0xF99 JUMP JUMPDEST DUP7 SWAP1 PUSH2 0x10A6 JUMP JUMPDEST SWAP1 POP PUSH1 0x0 PUSH2 0x2EA4 DUP6 DUP9 PUSH2 0x10A6 JUMP JUMPDEST SWAP1 POP PUSH1 0x0 PUSH2 0x2EB2 DUP4 DUP4 PUSH2 0x301D JUMP JUMPDEST SWAP1 POP PUSH1 0x0 PUSH2 0x2EC8 DUP3 PUSH8 0xDE0B6B3A7640000 PUSH2 0xF99 JUMP JUMPDEST SWAP1 POP PUSH2 0x2AAE DUP11 DUP3 PUSH2 0x1058 JUMP JUMPDEST PUSH1 0x0 DUP2 PUSH2 0x2EEA JUMPI POP PUSH8 0xDE0B6B3A7640000 PUSH2 0x57E JUMP JUMPDEST DUP3 PUSH2 0x2EF7 JUMPI POP PUSH1 0x0 PUSH2 0x57E JUMP JUMPDEST PUSH2 0x2F08 PUSH1 0x1 PUSH1 0xFF SHL DUP5 LT PUSH1 0x6 PUSH2 0x13DA JUMP JUMPDEST DUP3 PUSH2 0x2F2E PUSH24 0xBCE5086492111AEA88F4BB1CA6BCF584181EA8059F76532 DUP5 LT PUSH1 0x7 PUSH2 0x13DA JUMP JUMPDEST DUP3 PUSH1 0x0 PUSH8 0xC7D713B49DA0000 DUP4 SGT DUP1 ISZERO PUSH2 0x2F4F JUMPI POP PUSH8 0xF43FC2C04EE0000 DUP4 SLT JUMPDEST ISZERO PUSH2 0x2F86 JUMPI PUSH1 0x0 PUSH2 0x2F5F DUP5 PUSH2 0x3566 JUMP JUMPDEST SWAP1 POP PUSH8 0xDE0B6B3A7640000 DUP1 DUP3 SMOD DUP5 MUL SDIV DUP4 PUSH8 0xDE0B6B3A7640000 DUP4 SDIV MUL ADD SWAP2 POP POP PUSH2 0x2F94 JUMP JUMPDEST DUP2 PUSH2 0x2F90 DUP5 PUSH2 0x3684 JUMP JUMPDEST MUL SWAP1 POP JUMPDEST PUSH8 0xDE0B6B3A7640000 SWAP1 SDIV PUSH2 0x2FCC PUSH9 0x238FD42C5CF03FFFF NOT DUP3 SLT DUP1 ISZERO SWAP1 PUSH2 0x2FC5 JUMPI POP PUSH9 0x70C1CC73B00C80000 DUP3 SGT ISZERO JUMPDEST PUSH1 0x8 PUSH2 0x13DA JUMP JUMPDEST PUSH2 0x23F1 DUP2 PUSH2 0x3A23 JUMP JUMPDEST PUSH1 0x60 DUP2 DUP1 PUSH1 0x20 ADD SWAP1 MLOAD DUP2 ADD SWAP1 PUSH2 0x645 SWAP2 SWAP1 PUSH2 0x4639 JUMP JUMPDEST PUSH1 0x0 PUSH2 0x2FFD PUSH4 0x1C74C917 PUSH1 0xE1 SHL PUSH2 0x97A JUMP JUMPDEST DUP3 EQ DUP1 PUSH2 0x57E JUMPI POP PUSH2 0x3015 PUSH4 0x50DD6ED9 PUSH1 0xE0 SHL PUSH2 0x97A JUMP JUMPDEST SWAP1 SWAP2 EQ SWAP2 SWAP1 POP JUMP JUMPDEST PUSH1 0x0 DUP1 PUSH2 0x302A DUP5 DUP5 PUSH2 0x2ED4 JUMP JUMPDEST SWAP1 POP PUSH1 0x0 PUSH2 0x303D PUSH2 0x2790 DUP4 PUSH2 0x2710 PUSH2 0x1058 JUMP JUMPDEST SWAP1 POP PUSH2 0x2AB5 DUP3 DUP3 PUSH2 0x100D JUMP JUMPDEST PUSH1 0x0 PUSH8 0xDE0B6B3A7640000 DUP3 LT PUSH2 0x3061 JUMPI PUSH1 0x0 PUSH2 0x57E JUMP JUMPDEST POP PUSH8 0xDE0B6B3A7640000 SUB SWAP1 JUMP JUMPDEST PUSH1 0x0 DUP1 DUP3 DUP1 PUSH1 0x20 ADD SWAP1 MLOAD DUP2 ADD SWAP1 PUSH2 0x3086 SWAP2 SWAP1 PUSH2 0x4603 JUMP JUMPDEST SWAP1 SWAP6 SWAP1 SWAP5 POP SWAP3 POP POP POP JUMP JUMPDEST PUSH1 0x0 DUP1 PUSH2 0x30A2 DUP5 PUSH2 0xFC9 DUP2 DUP9 PUSH2 0xF99 JUMP JUMPDEST SWAP1 POP PUSH2 0x30BB PUSH8 0x9B6E64A8EC60000 DUP3 LT ISZERO PUSH2 0x132 PUSH2 0x13DA JUMP JUMPDEST PUSH1 0x0 PUSH2 0x30D9 PUSH2 0x30D2 PUSH8 0xDE0B6B3A7640000 DUP10 PUSH2 0x1BEB JUMP JUMPDEST DUP4 SWAP1 PUSH2 0x301D JUMP JUMPDEST SWAP1 POP PUSH1 0x0 PUSH2 0x30F0 PUSH2 0x30E9 DUP4 PUSH2 0x3049 JUMP JUMPDEST DUP11 SWAP1 PUSH2 0x259C JUMP JUMPDEST SWAP1 POP PUSH1 0x0 PUSH2 0x30FD DUP10 PUSH2 0x3049 JUMP JUMPDEST SWAP1 POP PUSH1 0x0 PUSH2 0x310B DUP4 DUP4 PUSH2 0x1058 JUMP JUMPDEST SWAP1 POP PUSH1 0x0 PUSH2 0x3119 DUP5 DUP4 PUSH2 0xF99 JUMP JUMPDEST SWAP1 POP PUSH2 0x3141 PUSH2 0x313A PUSH2 0x3133 PUSH8 0xDE0B6B3A7640000 DUP12 PUSH2 0xF99 JUMP JUMPDEST DUP5 SWAP1 PUSH2 0x259C JUMP JUMPDEST DUP3 SWAP1 PUSH2 0x100D JUMP JUMPDEST SWAP13 SWAP12 POP POP POP POP POP POP POP POP POP POP POP POP JUMP JUMPDEST PUSH1 0x0 DUP2 DUP1 PUSH1 0x20 ADD SWAP1 MLOAD DUP2 ADD SWAP1 PUSH2 0x645 SWAP2 SWAP1 PUSH2 0x45D6 JUMP JUMPDEST PUSH1 0x60 PUSH1 0x0 PUSH2 0x3175 DUP5 DUP5 PUSH2 0x1BEB JUMP JUMPDEST SWAP1 POP PUSH1 0x60 DUP6 MLOAD PUSH1 0x1 PUSH1 0x1 PUSH1 0x40 SHL SUB DUP2 GT DUP1 ISZERO PUSH2 0x3190 JUMPI PUSH1 0x0 DUP1 REVERT JUMPDEST POP PUSH1 0x40 MLOAD SWAP1 DUP1 DUP3 MSTORE DUP1 PUSH1 0x20 MUL PUSH1 0x20 ADD DUP3 ADD PUSH1 0x40 MSTORE DUP1 ISZERO PUSH2 0x31BA JUMPI DUP2 PUSH1 0x20 ADD PUSH1 0x20 DUP3 MUL DUP1 CALLDATASIZE DUP4 CALLDATACOPY ADD SWAP1 POP JUMPDEST POP SWAP1 POP PUSH1 0x0 JUMPDEST DUP7 MLOAD DUP2 LT ISZERO PUSH2 0x320E JUMPI PUSH2 0x31EF DUP4 DUP9 DUP4 DUP2 MLOAD DUP2 LT PUSH2 0x31D9 JUMPI INVALID JUMPDEST PUSH1 0x20 MUL PUSH1 0x20 ADD ADD MLOAD PUSH2 0x259C SWAP1 SWAP2 SWAP1 PUSH4 0xFFFFFFFF AND JUMP JUMPDEST DUP3 DUP3 DUP2 MLOAD DUP2 LT PUSH2 0x31FB JUMPI INVALID JUMPDEST PUSH1 0x20 SWAP1 DUP2 MUL SWAP2 SWAP1 SWAP2 ADD ADD MSTORE PUSH1 0x1 ADD PUSH2 0x31C0 JUMP JUMPDEST POP SWAP6 SWAP5 POP POP POP POP POP JUMP JUMPDEST PUSH1 0x60 PUSH1 0x0 DUP3 DUP1 PUSH1 0x20 ADD SWAP1 MLOAD DUP2 ADD SWAP1 PUSH2 0x3086 SWAP2 SWAP1 PUSH2 0x4590 JUMP JUMPDEST PUSH1 0x0 PUSH1 0x60 DUP5 MLOAD PUSH1 0x1 PUSH1 0x1 PUSH1 0x40 SHL SUB DUP2 GT DUP1 ISZERO PUSH2 0x324B JUMPI PUSH1 0x0 DUP1 REVERT JUMPDEST POP PUSH1 0x40 MLOAD SWAP1 DUP1 DUP3 MSTORE DUP1 PUSH1 0x20 MUL PUSH1 0x20 ADD DUP3 ADD PUSH1 0x40 MSTORE DUP1 ISZERO PUSH2 0x3275 JUMPI DUP2 PUSH1 0x20 ADD PUSH1 0x20 DUP3 MUL DUP1 CALLDATASIZE DUP4 CALLDATACOPY ADD SWAP1 POP JUMPDEST POP SWAP1 POP PUSH1 0x0 DUP1 JUMPDEST DUP9 MLOAD DUP2 LT ISZERO PUSH2 0x333A JUMPI PUSH2 0x32D5 DUP10 DUP3 DUP2 MLOAD DUP2 LT PUSH2 0x3294 JUMPI INVALID JUMPDEST PUSH1 0x20 MUL PUSH1 0x20 ADD ADD MLOAD PUSH2 0xFC9 DUP10 DUP5 DUP2 MLOAD DUP2 LT PUSH2 0x32AB JUMPI INVALID JUMPDEST PUSH1 0x20 MUL PUSH1 0x20 ADD ADD MLOAD DUP13 DUP6 DUP2 MLOAD DUP2 LT PUSH2 0x32BF JUMPI INVALID JUMPDEST PUSH1 0x20 MUL PUSH1 0x20 ADD ADD MLOAD PUSH2 0xF99 SWAP1 SWAP2 SWAP1 PUSH4 0xFFFFFFFF AND JUMP JUMPDEST DUP4 DUP3 DUP2 MLOAD DUP2 LT PUSH2 0x32E1 JUMPI INVALID JUMPDEST PUSH1 0x20 MUL PUSH1 0x20 ADD ADD DUP2 DUP2 MSTORE POP POP PUSH2 0x3330 PUSH2 0x3329 DUP10 DUP4 DUP2 MLOAD DUP2 LT PUSH2 0x32FF JUMPI INVALID JUMPDEST PUSH1 0x20 MUL PUSH1 0x20 ADD ADD MLOAD DUP6 DUP5 DUP2 MLOAD DUP2 LT PUSH2 0x3313 JUMPI INVALID JUMPDEST PUSH1 0x20 MUL PUSH1 0x20 ADD ADD MLOAD PUSH2 0x1058 SWAP1 SWAP2 SWAP1 PUSH4 0xFFFFFFFF AND JUMP JUMPDEST DUP4 SWAP1 PUSH2 0x100D JUMP JUMPDEST SWAP2 POP PUSH1 0x1 ADD PUSH2 0x327C JUMP JUMPDEST POP PUSH8 0xDE0B6B3A7640000 PUSH1 0x0 JUMPDEST DUP10 MLOAD DUP2 LT ISZERO PUSH2 0x343C JUMPI PUSH1 0x0 DUP5 DUP3 DUP2 MLOAD DUP2 LT PUSH2 0x335E JUMPI INVALID JUMPDEST PUSH1 0x20 MUL PUSH1 0x20 ADD ADD MLOAD DUP5 GT ISZERO PUSH2 0x33BE JUMPI PUSH1 0x0 PUSH2 0x3387 PUSH2 0x337B DUP7 PUSH2 0x3049 JUMP JUMPDEST DUP14 DUP6 DUP2 MLOAD DUP2 LT PUSH2 0x31D9 JUMPI INVALID JUMPDEST SWAP1 POP PUSH1 0x0 PUSH2 0x339B DUP3 DUP13 DUP7 DUP2 MLOAD DUP2 LT PUSH2 0x32BF JUMPI INVALID JUMPDEST SWAP1 POP PUSH2 0x33B5 PUSH2 0x3329 PUSH2 0x1FB0 PUSH8 0xDE0B6B3A7640000 DUP13 PUSH2 0xF99 JUMP JUMPDEST SWAP3 POP POP POP PUSH2 0x33D5 JUMP JUMPDEST DUP9 DUP3 DUP2 MLOAD DUP2 LT PUSH2 0x33CA JUMPI INVALID JUMPDEST PUSH1 0x20 MUL PUSH1 0x20 ADD ADD MLOAD SWAP1 POP JUMPDEST PUSH1 0x0 PUSH2 0x33FE DUP13 DUP5 DUP2 MLOAD DUP2 LT PUSH2 0x33E6 JUMPI INVALID JUMPDEST PUSH1 0x20 MUL PUSH1 0x20 ADD ADD MLOAD PUSH2 0x7D9 DUP5 DUP16 DUP8 DUP2 MLOAD DUP2 LT PUSH2 0x32BF JUMPI INVALID JUMPDEST SWAP1 POP PUSH2 0x3430 PUSH2 0x3429 DUP13 DUP6 DUP2 MLOAD DUP2 LT PUSH2 0x3412 JUMPI INVALID JUMPDEST PUSH1 0x20 MUL PUSH1 0x20 ADD ADD MLOAD DUP4 PUSH2 0x2770 SWAP1 SWAP2 SWAP1 PUSH4 0xFFFFFFFF AND JUMP JUMPDEST DUP6 SWAP1 PUSH2 0x259C JUMP JUMPDEST SWAP4 POP POP POP PUSH1 0x1 ADD PUSH2 0x3347 JUMP JUMPDEST POP PUSH2 0x3450 PUSH2 0x3449 DUP3 PUSH2 0x3049 JUMP JUMPDEST DUP8 SWAP1 PUSH2 0x1058 JUMP JUMPDEST SWAP10 SWAP9 POP POP POP POP POP POP POP POP POP JUMP JUMPDEST PUSH1 0x0 PUSH1 0x60 DUP1 PUSH1 0x0 PUSH2 0x346D DUP6 PUSH2 0x3218 JUMP JUMPDEST SWAP2 POP SWAP2 POP PUSH2 0x3483 PUSH2 0x347C PUSH2 0x15FE JUMP JUMPDEST DUP4 MLOAD PUSH2 0xF77 JUMP JUMPDEST PUSH2 0x348D DUP3 DUP8 PUSH2 0x1C33 JUMP JUMPDEST PUSH1 0x0 PUSH2 0x34AA DUP10 DUP10 DUP6 PUSH2 0x349D PUSH2 0x598 JUMP JUMPDEST PUSH2 0x34A5 PUSH2 0x76C JUMP JUMPDEST PUSH2 0x3E00 JUMP JUMPDEST SWAP1 POP PUSH2 0x2C49 DUP3 DUP3 LT ISZERO PUSH1 0xD0 PUSH2 0x13DA JUMP JUMPDEST PUSH1 0x0 PUSH1 0x60 PUSH1 0x0 DUP1 PUSH2 0x34CA DUP6 PUSH2 0x306F JUMP JUMPDEST SWAP2 POP SWAP2 POP PUSH2 0x34D9 PUSH2 0x2AFB PUSH2 0x15FE JUMP JUMPDEST PUSH1 0x60 PUSH2 0x34E3 PUSH2 0x15FE JUMP JUMPDEST PUSH1 0x1 PUSH1 0x1 PUSH1 0x40 SHL SUB DUP2 GT DUP1 ISZERO PUSH2 0x34F8 JUMPI PUSH1 0x0 DUP1 REVERT JUMPDEST POP PUSH1 0x40 MLOAD SWAP1 DUP1 DUP3 MSTORE DUP1 PUSH1 0x20 MUL PUSH1 0x20 ADD DUP3 ADD PUSH1 0x40 MSTORE DUP1 ISZERO PUSH2 0x3522 JUMPI DUP2 PUSH1 0x20 ADD PUSH1 0x20 DUP3 MUL DUP1 CALLDATASIZE DUP4 CALLDATACOPY ADD SWAP1 POP JUMPDEST POP SWAP1 POP PUSH2 0x2B91 DUP9 DUP4 DUP2 MLOAD DUP2 LT PUSH2 0x3534 JUMPI INVALID JUMPDEST PUSH1 0x20 MUL PUSH1 0x20 ADD ADD MLOAD DUP9 DUP5 DUP2 MLOAD DUP2 LT PUSH2 0x3548 JUMPI INVALID JUMPDEST PUSH1 0x20 MUL PUSH1 0x20 ADD ADD MLOAD DUP6 PUSH2 0x3559 PUSH2 0x598 JUMP JUMPDEST PUSH2 0x3561 PUSH2 0x76C JUMP JUMPDEST PUSH2 0x4011 JUMP JUMPDEST PUSH8 0xDE0B6B3A7640000 MUL PUSH1 0x0 DUP1 PUSH11 0xC097CE7BC90715B34B9F1 PUSH1 0x24 SHL DUP1 DUP5 ADD SWAP1 PUSH15 0xC097CE7BC90715B34B9F0FFFFFFFFF NOT DUP6 ADD MUL DUP2 PUSH2 0x35A1 JUMPI INVALID JUMPDEST SDIV SWAP1 POP PUSH1 0x0 PUSH11 0xC097CE7BC90715B34B9F1 PUSH1 0x24 SHL DUP3 DUP1 MUL SDIV SWAP1 POP DUP2 DUP1 PUSH11 0xC097CE7BC90715B34B9F1 PUSH1 0x24 SHL DUP2 DUP5 MUL SDIV SWAP2 POP PUSH1 0x3 DUP3 SDIV ADD PUSH11 0xC097CE7BC90715B34B9F1 PUSH1 0x24 SHL DUP3 DUP5 MUL SDIV SWAP2 POP PUSH1 0x5 DUP3 SDIV ADD PUSH11 0xC097CE7BC90715B34B9F1 PUSH1 0x24 SHL DUP3 DUP5 MUL SDIV SWAP2 POP PUSH1 0x7 DUP3 SDIV ADD PUSH11 0xC097CE7BC90715B34B9F1 PUSH1 0x24 SHL DUP3 DUP5 MUL SDIV SWAP2 POP PUSH1 0x9 DUP3 SDIV ADD PUSH11 0xC097CE7BC90715B34B9F1 PUSH1 0x24 SHL DUP3 DUP5 MUL SDIV SWAP2 POP PUSH1 0xB DUP3 SDIV ADD PUSH11 0xC097CE7BC90715B34B9F1 PUSH1 0x24 SHL DUP3 DUP5 MUL SDIV SWAP2 POP PUSH1 0xD DUP3 SDIV ADD PUSH11 0xC097CE7BC90715B34B9F1 PUSH1 0x24 SHL DUP3 DUP5 MUL SDIV SWAP2 POP PUSH1 0xF DUP3 PUSH1 0x2 SWAP2 SWAP1 SDIV SWAP2 SWAP1 SWAP2 ADD MUL SWAP6 SWAP5 POP POP POP POP POP JUMP JUMPDEST PUSH1 0x0 PUSH8 0xDE0B6B3A7640000 DUP3 SLT ISZERO PUSH2 0x36C0 JUMPI PUSH2 0x36B6 DUP3 PUSH11 0xC097CE7BC90715B34B9F1 PUSH1 0x24 SHL DUP2 PUSH2 0x36B0 JUMPI INVALID JUMPDEST SDIV PUSH2 0x3684 JUMP JUMPDEST PUSH1 0x0 SUB SWAP1 POP PUSH2 0x7F9 JUMP JUMPDEST PUSH1 0x0 PUSH31 0x1600EF3172E58D2E933EC884FDE10064C63B5372D805E203C0000000000000 DUP4 SLT PUSH2 0x3711 JUMPI PUSH24 0x195E54C5DD42177F53A27172FA9EC630262827000000000 DUP4 SDIV SWAP3 POP PUSH9 0x6F05B59D3B2000000 ADD JUMPDEST PUSH20 0x11798004D755D3C8BC8E03204CF44619E000000 DUP4 SLT PUSH2 0x3749 JUMPI PUSH12 0x1425982CF597CD205CEF7380 DUP4 SDIV SWAP3 POP PUSH9 0x3782DACE9D9000000 ADD JUMPDEST PUSH1 0x64 SWAP3 DUP4 MUL SWAP3 MUL PUSH15 0x1855144814A7FF805980FF0084000 DUP4 SLT PUSH2 0x3791 JUMPI PUSH15 0x1855144814A7FF805980FF0084000 PUSH9 0x56BC75E2D63100000 DUP5 MUL SDIV SWAP3 POP PUSH9 0xAD78EBC5AC62000000 ADD JUMPDEST PUSH12 0x2DF0AB5A80A22C61AB5A700 DUP4 SLT PUSH2 0x37CC JUMPI PUSH12 0x2DF0AB5A80A22C61AB5A700 PUSH9 0x56BC75E2D63100000 DUP5 MUL SDIV SWAP3 POP PUSH9 0x56BC75E2D631000000 ADD JUMPDEST PUSH10 0x3F1FCE3DA636EA5CF850 DUP4 SLT PUSH2 0x3803 JUMPI PUSH10 0x3F1FCE3DA636EA5CF850 PUSH9 0x56BC75E2D63100000 DUP5 MUL SDIV SWAP3 POP PUSH9 0x2B5E3AF16B18800000 ADD JUMPDEST PUSH10 0x127FA27722CC06CC5E2 DUP4 SLT PUSH2 0x383A JUMPI PUSH10 0x127FA27722CC06CC5E2 PUSH9 0x56BC75E2D63100000 DUP5 MUL SDIV SWAP3 POP PUSH9 0x15AF1D78B58C400000 ADD JUMPDEST PUSH9 0x280E60114EDB805D03 DUP4 SLT PUSH2 0x386F JUMPI PUSH9 0x280E60114EDB805D03 PUSH9 0x56BC75E2D63100000 DUP5 MUL SDIV SWAP3 POP PUSH9 0xAD78EBC5AC6200000 ADD JUMPDEST PUSH9 0xEBC5FB41746121110 DUP4 SLT PUSH2 0x389A JUMPI PUSH9 0xEBC5FB41746121110 PUSH9 0x56BC75E2D63100000 SWAP4 DUP5 MUL SDIV SWAP3 ADD JUMPDEST PUSH9 0x8F00F760A4B2DB55D DUP4 SLT PUSH2 0x38CF JUMPI PUSH9 0x8F00F760A4B2DB55D PUSH9 0x56BC75E2D63100000 DUP5 MUL SDIV SWAP3 POP PUSH9 0x2B5E3AF16B1880000 ADD JUMPDEST PUSH9 0x6F5F1775788937937 DUP4 SLT PUSH2 0x3904 JUMPI PUSH9 0x6F5F1775788937937 PUSH9 0x56BC75E2D63100000 DUP5 MUL SDIV SWAP3 POP PUSH9 0x15AF1D78B58C40000 ADD JUMPDEST PUSH9 0x6248F33704B286603 DUP4 SLT PUSH2 0x3938 JUMPI PUSH9 0x6248F33704B286603 PUSH9 0x56BC75E2D63100000 DUP5 MUL SDIV SWAP3 POP PUSH8 0xAD78EBC5AC620000 ADD JUMPDEST PUSH9 0x5C548670B9510E7AC DUP4 SLT PUSH2 0x396C JUMPI PUSH9 0x5C548670B9510E7AC PUSH9 0x56BC75E2D63100000 DUP5 MUL SDIV SWAP3 POP PUSH8 0x56BC75E2D6310000 ADD JUMPDEST PUSH1 0x0 PUSH9 0x56BC75E2D63100000 DUP5 ADD PUSH9 0x56BC75E2D63100000 DUP1 DUP7 SUB MUL DUP2 PUSH2 0x398F JUMPI INVALID JUMPDEST SDIV SWAP1 POP PUSH1 0x0 PUSH9 0x56BC75E2D63100000 DUP3 DUP1 MUL SDIV SWAP1 POP DUP2 DUP1 PUSH9 0x56BC75E2D63100000 DUP2 DUP5 MUL SDIV SWAP2 POP PUSH1 0x3 DUP3 SDIV ADD PUSH9 0x56BC75E2D63100000 DUP3 DUP5 MUL SDIV SWAP2 POP PUSH1 0x5 DUP3 SDIV ADD PUSH9 0x56BC75E2D63100000 DUP3 DUP5 MUL SDIV SWAP2 POP PUSH1 0x7 DUP3 SDIV ADD PUSH9 0x56BC75E2D63100000 DUP3 DUP5 MUL SDIV SWAP2 POP PUSH1 0x9 DUP3 SDIV ADD PUSH9 0x56BC75E2D63100000 DUP3 DUP5 MUL SDIV SWAP2 POP PUSH1 0xB DUP3 SDIV ADD PUSH1 0x2 MUL PUSH1 0x64 DUP6 DUP3 ADD SDIV SWAP8 SWAP7 POP POP POP POP POP POP POP JUMP JUMPDEST PUSH1 0x0 PUSH2 0x3A52 PUSH9 0x238FD42C5CF03FFFF NOT DUP4 SLT ISZERO DUP1 ISZERO PUSH2 0x3A4B JUMPI POP PUSH9 0x70C1CC73B00C80000 DUP4 SGT ISZERO JUMPDEST PUSH1 0x9 PUSH2 0x13DA JUMP JUMPDEST PUSH1 0x0 DUP3 SLT ISZERO PUSH2 0x3A85 JUMPI PUSH2 0x3A67 DUP3 PUSH1 0x0 SUB PUSH2 0x3A23 JUMP JUMPDEST PUSH11 0xC097CE7BC90715B34B9F1 PUSH1 0x24 SHL DUP2 PUSH2 0x3A7D JUMPI INVALID JUMPDEST SDIV SWAP1 POP PUSH2 0x7F9 JUMP JUMPDEST PUSH1 0x0 PUSH9 0x6F05B59D3B2000000 DUP4 SLT PUSH2 0x3AC5 JUMPI POP PUSH9 0x6F05B59D3B1FFFFFF NOT SWAP1 SWAP2 ADD SWAP1 PUSH24 0x195E54C5DD42177F53A27172FA9EC630262827000000000 PUSH2 0x3AFB JUMP JUMPDEST PUSH9 0x3782DACE9D9000000 DUP4 SLT PUSH2 0x3AF7 JUMPI POP PUSH9 0x3782DACE9D8FFFFFF NOT SWAP1 SWAP2 ADD SWAP1 PUSH12 0x1425982CF597CD205CEF7380 PUSH2 0x3AFB JUMP JUMPDEST POP PUSH1 0x1 JUMPDEST PUSH1 0x64 SWAP3 SWAP1 SWAP3 MUL SWAP2 PUSH9 0x56BC75E2D63100000 PUSH9 0xAD78EBC5AC62000000 DUP5 SLT PUSH2 0x3B4B JUMPI PUSH9 0xAD78EBC5AC61FFFFFF NOT SWAP1 SWAP4 ADD SWAP3 PUSH9 0x56BC75E2D63100000 PUSH15 0x1855144814A7FF805980FF0084000 DUP3 MUL SDIV SWAP1 POP JUMPDEST PUSH9 0x56BC75E2D631000000 DUP5 SLT PUSH2 0x3B87 JUMPI PUSH9 0x56BC75E2D630FFFFFF NOT SWAP1 SWAP4 ADD SWAP3 PUSH9 0x56BC75E2D63100000 PUSH12 0x2DF0AB5A80A22C61AB5A700 DUP3 MUL SDIV SWAP1 POP JUMPDEST PUSH9 0x2B5E3AF16B18800000 DUP5 SLT PUSH2 0x3BC1 JUMPI PUSH9 0x2B5E3AF16B187FFFFF NOT SWAP1 SWAP4 ADD SWAP3 PUSH9 0x56BC75E2D63100000 PUSH10 0x3F1FCE3DA636EA5CF850 DUP3 MUL SDIV SWAP1 POP JUMPDEST PUSH9 0x15AF1D78B58C400000 DUP5 SLT PUSH2 0x3BFB JUMPI PUSH9 0x15AF1D78B58C3FFFFF NOT SWAP1 SWAP4 ADD SWAP3 PUSH9 0x56BC75E2D63100000 PUSH10 0x127FA27722CC06CC5E2 DUP3 MUL SDIV SWAP1 POP JUMPDEST PUSH9 0xAD78EBC5AC6200000 DUP5 SLT PUSH2 0x3C34 JUMPI PUSH9 0xAD78EBC5AC61FFFFF NOT SWAP1 SWAP4 ADD SWAP3 PUSH9 0x56BC75E2D63100000 PUSH9 0x280E60114EDB805D03 DUP3 MUL SDIV SWAP1 POP JUMPDEST PUSH9 0x56BC75E2D63100000 DUP5 SLT PUSH2 0x3C6D JUMPI PUSH9 0x56BC75E2D630FFFFF NOT SWAP1 SWAP4 ADD SWAP3 PUSH9 0x56BC75E2D63100000 PUSH9 0xEBC5FB41746121110 DUP3 MUL SDIV SWAP1 POP JUMPDEST PUSH9 0x2B5E3AF16B1880000 DUP5 SLT PUSH2 0x3CA6 JUMPI PUSH9 0x2B5E3AF16B187FFFF NOT SWAP1 SWAP4 ADD SWAP3 PUSH9 0x56BC75E2D63100000 PUSH9 0x8F00F760A4B2DB55D DUP3 MUL SDIV SWAP1 POP JUMPDEST PUSH9 0x15AF1D78B58C40000 DUP5 SLT PUSH2 0x3CDF JUMPI PUSH9 0x15AF1D78B58C3FFFF NOT SWAP1 SWAP4 ADD SWAP3 PUSH9 0x56BC75E2D63100000 PUSH9 0x6F5F1775788937937 DUP3 MUL SDIV SWAP1 POP JUMPDEST PUSH9 0x56BC75E2D63100000 DUP5 DUP2 ADD SWAP1 DUP6 SWAP1 PUSH1 0x2 SWAP1 DUP3 DUP1 MUL SDIV SDIV SWAP2 DUP3 ADD SWAP2 SWAP1 POP PUSH1 0x3 PUSH9 0x56BC75E2D63100000 DUP8 DUP4 MUL SDIV SDIV SWAP2 DUP3 ADD SWAP2 SWAP1 POP PUSH1 0x4 PUSH9 0x56BC75E2D63100000 DUP8 DUP4 MUL SDIV SDIV SWAP2 DUP3 ADD SWAP2 SWAP1 POP PUSH1 0x5 PUSH9 0x56BC75E2D63100000 DUP8 DUP4 MUL SDIV SDIV SWAP2 DUP3 ADD SWAP2 SWAP1 POP PUSH1 0x6 PUSH9 0x56BC75E2D63100000 DUP8 DUP4 MUL SDIV SDIV SWAP2 DUP3 ADD SWAP2 SWAP1 POP PUSH1 0x7 PUSH9 0x56BC75E2D63100000 DUP8 DUP4 MUL SDIV SDIV SWAP2 DUP3 ADD SWAP2 SWAP1 POP PUSH1 0x8 PUSH9 0x56BC75E2D63100000 DUP8 DUP4 MUL SDIV SDIV SWAP2 DUP3 ADD SWAP2 SWAP1 POP PUSH1 0x9 PUSH9 0x56BC75E2D63100000 DUP8 DUP4 MUL SDIV SDIV SWAP2 DUP3 ADD SWAP2 SWAP1 POP PUSH1 0xA PUSH9 0x56BC75E2D63100000 DUP8 DUP4 MUL SDIV SDIV SWAP2 DUP3 ADD SWAP2 SWAP1 POP PUSH1 0xB PUSH9 0x56BC75E2D63100000 DUP8 DUP4 MUL SDIV SDIV SWAP2 DUP3 ADD SWAP2 SWAP1 POP PUSH1 0xC PUSH9 0x56BC75E2D63100000 DUP8 DUP4 MUL SDIV SDIV SWAP2 DUP3 ADD SWAP2 SWAP1 POP PUSH1 0x64 PUSH9 0x56BC75E2D63100000 DUP5 DUP5 MUL SDIV DUP6 MUL SDIV SWAP7 SWAP6 POP POP POP POP POP POP JUMP JUMPDEST PUSH1 0x0 PUSH1 0x60 DUP5 MLOAD PUSH1 0x1 PUSH1 0x1 PUSH1 0x40 SHL SUB DUP2 GT DUP1 ISZERO PUSH2 0x3E1B JUMPI PUSH1 0x0 DUP1 REVERT JUMPDEST POP PUSH1 0x40 MLOAD SWAP1 DUP1 DUP3 MSTORE DUP1 PUSH1 0x20 MUL PUSH1 0x20 ADD DUP3 ADD PUSH1 0x40 MSTORE DUP1 ISZERO PUSH2 0x3E45 JUMPI DUP2 PUSH1 0x20 ADD PUSH1 0x20 DUP3 MUL DUP1 CALLDATASIZE DUP4 CALLDATACOPY ADD SWAP1 POP JUMPDEST POP SWAP1 POP PUSH1 0x0 DUP1 JUMPDEST DUP9 MLOAD DUP2 LT ISZERO PUSH2 0x3EED JUMPI PUSH2 0x3EA5 DUP10 DUP3 DUP2 MLOAD DUP2 LT PUSH2 0x3E64 JUMPI INVALID JUMPDEST PUSH1 0x20 MUL PUSH1 0x20 ADD ADD MLOAD PUSH2 0x7D9 DUP10 DUP5 DUP2 MLOAD DUP2 LT PUSH2 0x3E7B JUMPI INVALID JUMPDEST PUSH1 0x20 MUL PUSH1 0x20 ADD ADD MLOAD DUP13 DUP6 DUP2 MLOAD DUP2 LT PUSH2 0x3E8F JUMPI INVALID JUMPDEST PUSH1 0x20 MUL PUSH1 0x20 ADD ADD MLOAD PUSH2 0x100D SWAP1 SWAP2 SWAP1 PUSH4 0xFFFFFFFF AND JUMP JUMPDEST DUP4 DUP3 DUP2 MLOAD DUP2 LT PUSH2 0x3EB1 JUMPI INVALID JUMPDEST PUSH1 0x20 MUL PUSH1 0x20 ADD ADD DUP2 DUP2 MSTORE POP POP PUSH2 0x3EE3 PUSH2 0x3329 DUP10 DUP4 DUP2 MLOAD DUP2 LT PUSH2 0x3ECF JUMPI INVALID JUMPDEST PUSH1 0x20 MUL PUSH1 0x20 ADD ADD MLOAD DUP6 DUP5 DUP2 MLOAD DUP2 LT PUSH2 0x31D9 JUMPI INVALID JUMPDEST SWAP2 POP PUSH1 0x1 ADD PUSH2 0x3E4C JUMP JUMPDEST POP PUSH8 0xDE0B6B3A7640000 PUSH1 0x0 JUMPDEST DUP10 MLOAD DUP2 LT ISZERO PUSH2 0x3FCE JUMPI PUSH1 0x0 DUP4 DUP6 DUP4 DUP2 MLOAD DUP2 LT PUSH2 0x3F12 JUMPI INVALID JUMPDEST PUSH1 0x20 MUL PUSH1 0x20 ADD ADD MLOAD GT ISZERO PUSH2 0x3F6E JUMPI PUSH1 0x0 PUSH2 0x3F37 PUSH2 0x337B DUP7 PUSH8 0xDE0B6B3A7640000 PUSH2 0xF99 JUMP JUMPDEST SWAP1 POP PUSH1 0x0 PUSH2 0x3F4B DUP3 DUP13 DUP7 DUP2 MLOAD DUP2 LT PUSH2 0x32BF JUMPI INVALID JUMPDEST SWAP1 POP PUSH2 0x3F65 PUSH2 0x3329 PUSH2 0x2100 PUSH8 0xDE0B6B3A7640000 DUP13 PUSH2 0xF99 JUMP JUMPDEST SWAP3 POP POP POP PUSH2 0x3F85 JUMP JUMPDEST DUP9 DUP3 DUP2 MLOAD DUP2 LT PUSH2 0x3F7A JUMPI INVALID JUMPDEST PUSH1 0x20 MUL PUSH1 0x20 ADD ADD MLOAD SWAP1 POP JUMPDEST PUSH1 0x0 PUSH2 0x3FAE DUP13 DUP5 DUP2 MLOAD DUP2 LT PUSH2 0x3F96 JUMPI INVALID JUMPDEST PUSH1 0x20 MUL PUSH1 0x20 ADD ADD MLOAD PUSH2 0x7D9 DUP5 DUP16 DUP8 DUP2 MLOAD DUP2 LT PUSH2 0x3E8F JUMPI INVALID JUMPDEST SWAP1 POP PUSH2 0x3FC2 PUSH2 0x3429 DUP13 DUP6 DUP2 MLOAD DUP2 LT PUSH2 0x3412 JUMPI INVALID JUMPDEST SWAP4 POP POP POP PUSH1 0x1 ADD PUSH2 0x3EFA JUMP JUMPDEST POP PUSH8 0xDE0B6B3A7640000 DUP2 GT ISZERO PUSH2 0x4005 JUMPI PUSH2 0x3FFB PUSH2 0x3FF4 DUP3 PUSH8 0xDE0B6B3A7640000 PUSH2 0xF99 JUMP JUMPDEST DUP8 SWAP1 PUSH2 0x259C JUMP JUMPDEST SWAP4 POP POP POP POP PUSH2 0x2AB5 JUMP JUMPDEST PUSH1 0x0 SWAP4 POP POP POP POP PUSH2 0x2AB5 JUMP JUMPDEST PUSH1 0x0 DUP1 PUSH2 0x4022 DUP5 PUSH2 0xFC9 DUP2 DUP9 PUSH2 0x100D JUMP JUMPDEST SWAP1 POP PUSH2 0x403B PUSH8 0x29A2241AF62C0000 DUP3 GT ISZERO PUSH2 0x133 PUSH2 0x13DA JUMP JUMPDEST PUSH1 0x0 PUSH2 0x4052 PUSH2 0x30D2 PUSH8 0xDE0B6B3A7640000 DUP10 PUSH2 0x10A6 JUMP JUMPDEST SWAP1 POP PUSH1 0x0 PUSH2 0x4072 PUSH2 0x406B DUP4 PUSH8 0xDE0B6B3A7640000 PUSH2 0xF99 JUMP JUMPDEST DUP11 SWAP1 PUSH2 0x1058 JUMP JUMPDEST SWAP1 POP PUSH1 0x0 PUSH2 0x407F DUP10 PUSH2 0x3049 JUMP JUMPDEST SWAP1 POP PUSH1 0x0 PUSH2 0x408D DUP4 DUP4 PUSH2 0x1058 JUMP JUMPDEST SWAP1 POP PUSH1 0x0 PUSH2 0x409B DUP5 DUP4 PUSH2 0xF99 JUMP JUMPDEST SWAP1 POP PUSH2 0x3141 PUSH2 0x313A PUSH2 0x40B5 PUSH8 0xDE0B6B3A7640000 DUP12 PUSH2 0xF99 JUMP JUMPDEST DUP5 SWAP1 PUSH2 0x10A6 JUMP JUMPDEST DUP1 CALLDATALOAD PUSH2 0x57E DUP2 PUSH2 0x4AF9 JUMP JUMPDEST PUSH1 0x0 DUP3 PUSH1 0x1F DUP4 ADD SLT PUSH2 0x40D7 JUMPI DUP1 DUP2 REVERT JUMPDEST DUP2 CALLDATALOAD PUSH2 0x40EA PUSH2 0x40E5 DUP3 PUSH2 0x4ADA JUMP JUMPDEST PUSH2 0x4AB4 JUMP JUMPDEST DUP2 DUP2 MSTORE SWAP2 POP PUSH1 0x20 DUP1 DUP4 ADD SWAP1 DUP5 DUP2 ADD DUP2 DUP5 MUL DUP7 ADD DUP3 ADD DUP8 LT ISZERO PUSH2 0x410B JUMPI PUSH1 0x0 DUP1 REVERT JUMPDEST PUSH1 0x0 JUMPDEST DUP5 DUP2 LT ISZERO PUSH2 0x412A JUMPI DUP2 CALLDATALOAD DUP5 MSTORE SWAP3 DUP3 ADD SWAP3 SWAP1 DUP3 ADD SWAP1 PUSH1 0x1 ADD PUSH2 0x410E JUMP JUMPDEST POP POP POP POP POP SWAP3 SWAP2 POP POP JUMP JUMPDEST PUSH1 0x0 DUP3 PUSH1 0x1F DUP4 ADD SLT PUSH2 0x4145 JUMPI DUP1 DUP2 REVERT JUMPDEST DUP2 MLOAD PUSH2 0x4153 PUSH2 0x40E5 DUP3 PUSH2 0x4ADA JUMP JUMPDEST DUP2 DUP2 MSTORE SWAP2 POP PUSH1 0x20 DUP1 DUP4 ADD SWAP1 DUP5 DUP2 ADD DUP2 DUP5 MUL DUP7 ADD DUP3 ADD DUP8 LT ISZERO PUSH2 0x4174 JUMPI PUSH1 0x0 DUP1 REVERT JUMPDEST PUSH1 0x0 JUMPDEST DUP5 DUP2 LT ISZERO PUSH2 0x412A JUMPI DUP2 MLOAD DUP5 MSTORE SWAP3 DUP3 ADD SWAP3 SWAP1 DUP3 ADD SWAP1 PUSH1 0x1 ADD PUSH2 0x4177 JUMP JUMPDEST PUSH1 0x0 DUP3 PUSH1 0x1F DUP4 ADD SLT PUSH2 0x41A3 JUMPI DUP1 DUP2 REVERT JUMPDEST DUP2 CALLDATALOAD PUSH1 0x1 PUSH1 0x1 PUSH1 0x40 SHL SUB DUP2 GT ISZERO PUSH2 0x41B8 JUMPI DUP2 DUP3 REVERT JUMPDEST PUSH2 0x41CB PUSH1 0x1F DUP3 ADD PUSH1 0x1F NOT AND PUSH1 0x20 ADD PUSH2 0x4AB4 JUMP JUMPDEST SWAP2 POP DUP1 DUP3 MSTORE DUP4 PUSH1 0x20 DUP3 DUP6 ADD ADD GT ISZERO PUSH2 0x41E2 JUMPI PUSH1 0x0 DUP1 REVERT JUMPDEST DUP1 PUSH1 0x20 DUP5 ADD PUSH1 0x20 DUP5 ADD CALLDATACOPY PUSH1 0x0 SWAP1 DUP3 ADD PUSH1 0x20 ADD MSTORE SWAP3 SWAP2 POP POP JUMP JUMPDEST DUP1 CALLDATALOAD PUSH1 0x2 DUP2 LT PUSH2 0x57E JUMPI PUSH1 0x0 DUP1 REVERT JUMPDEST PUSH1 0x0 PUSH1 0x20 DUP3 DUP5 SUB SLT ISZERO PUSH2 0x421B JUMPI DUP1 DUP2 REVERT JUMPDEST DUP2 CALLDATALOAD PUSH2 0x645 DUP2 PUSH2 0x4AF9 JUMP JUMPDEST PUSH1 0x0 DUP1 PUSH1 0x40 DUP4 DUP6 SUB SLT ISZERO PUSH2 0x4238 JUMPI DUP1 DUP2 REVERT JUMPDEST DUP3 CALLDATALOAD PUSH2 0x4243 DUP2 PUSH2 0x4AF9 JUMP JUMPDEST SWAP2 POP PUSH1 0x20 DUP4 ADD CALLDATALOAD PUSH2 0x4253 DUP2 PUSH2 0x4AF9 JUMP JUMPDEST DUP1 SWAP2 POP POP SWAP3 POP SWAP3 SWAP1 POP JUMP JUMPDEST PUSH1 0x0 DUP1 PUSH1 0x0 PUSH1 0x60 DUP5 DUP7 SUB SLT ISZERO PUSH2 0x4272 JUMPI DUP1 DUP2 REVERT JUMPDEST DUP4 CALLDATALOAD PUSH2 0x427D DUP2 PUSH2 0x4AF9 JUMP JUMPDEST SWAP3 POP PUSH1 0x20 DUP5 ADD CALLDATALOAD PUSH2 0x428D DUP2 PUSH2 0x4AF9 JUMP JUMPDEST SWAP3 SWAP6 SWAP3 SWAP5 POP POP POP PUSH1 0x40 SWAP2 SWAP1 SWAP2 ADD CALLDATALOAD SWAP1 JUMP JUMPDEST PUSH1 0x0 DUP1 PUSH1 0x0 DUP1 PUSH1 0x0 DUP1 PUSH1 0x0 PUSH1 0xE0 DUP9 DUP11 SUB SLT ISZERO PUSH2 0x42B8 JUMPI DUP3 DUP4 REVERT JUMPDEST DUP8 CALLDATALOAD PUSH2 0x42C3 DUP2 PUSH2 0x4AF9 JUMP JUMPDEST SWAP7 POP PUSH1 0x20 DUP9 ADD CALLDATALOAD PUSH2 0x42D3 DUP2 PUSH2 0x4AF9 JUMP JUMPDEST SWAP6 POP PUSH1 0x40 DUP9 ADD CALLDATALOAD SWAP5 POP PUSH1 0x60 DUP9 ADD CALLDATALOAD SWAP4 POP PUSH1 0x80 DUP9 ADD CALLDATALOAD PUSH1 0xFF DUP2 AND DUP2 EQ PUSH2 0x42F6 JUMPI DUP4 DUP5 REVERT JUMPDEST SWAP7 SWAP10 SWAP6 SWAP9 POP SWAP4 SWAP7 SWAP3 SWAP6 SWAP5 PUSH1 0xA0 DUP5 ADD CALLDATALOAD SWAP5 POP PUSH1 0xC0 SWAP1 SWAP4 ADD CALLDATALOAD SWAP3 SWAP2 POP POP JUMP JUMPDEST PUSH1 0x0 DUP1 PUSH1 0x40 DUP4 DUP6 SUB SLT ISZERO PUSH2 0x4325 JUMPI DUP2 DUP3 REVERT JUMPDEST DUP3 CALLDATALOAD PUSH2 0x4330 DUP2 PUSH2 0x4AF9 JUMP JUMPDEST SWAP5 PUSH1 0x20 SWAP4 SWAP1 SWAP4 ADD CALLDATALOAD SWAP4 POP POP POP JUMP JUMPDEST PUSH1 0x0 DUP1 PUSH1 0x0 PUSH1 0x60 DUP5 DUP7 SUB SLT ISZERO PUSH2 0x4352 JUMPI DUP1 DUP2 REVERT JUMPDEST DUP4 MLOAD PUSH1 0x1 PUSH1 0x1 PUSH1 0x40 SHL SUB DUP1 DUP3 GT ISZERO PUSH2 0x4368 JUMPI DUP3 DUP4 REVERT JUMPDEST DUP2 DUP7 ADD SWAP2 POP DUP7 PUSH1 0x1F DUP4 ADD SLT PUSH2 0x437B JUMPI DUP3 DUP4 REVERT JUMPDEST DUP2 MLOAD PUSH2 0x4389 PUSH2 0x40E5 DUP3 PUSH2 0x4ADA JUMP JUMPDEST DUP1 DUP3 DUP3 MSTORE PUSH1 0x20 DUP1 DUP4 ADD SWAP3 POP DUP1 DUP7 ADD DUP12 DUP3 DUP4 DUP8 MUL DUP10 ADD ADD GT ISZERO PUSH2 0x43A9 JUMPI DUP8 DUP9 REVERT JUMPDEST DUP8 SWAP7 POP JUMPDEST DUP5 DUP8 LT ISZERO PUSH2 0x43D4 JUMPI DUP1 MLOAD PUSH2 0x43C0 DUP2 PUSH2 0x4AF9 JUMP JUMPDEST DUP5 MSTORE PUSH1 0x1 SWAP7 SWAP1 SWAP7 ADD SWAP6 SWAP3 DUP2 ADD SWAP3 DUP2 ADD PUSH2 0x43AD JUMP JUMPDEST POP DUP10 ADD MLOAD SWAP1 SWAP8 POP SWAP4 POP POP POP DUP1 DUP3 GT ISZERO PUSH2 0x43EB JUMPI DUP3 DUP4 REVERT JUMPDEST POP PUSH2 0x43F8 DUP7 DUP3 DUP8 ADD PUSH2 0x4135 JUMP JUMPDEST SWAP3 POP POP PUSH1 0x40 DUP5 ADD MLOAD SWAP1 POP SWAP3 POP SWAP3 POP SWAP3 JUMP JUMPDEST PUSH1 0x0 PUSH1 0x20 DUP3 DUP5 SUB SLT ISZERO PUSH2 0x441A JUMPI DUP1 DUP2 REVERT JUMPDEST DUP2 CALLDATALOAD PUSH2 0x645 DUP2 PUSH2 0x4B0E JUMP JUMPDEST PUSH1 0x0 PUSH1 0x20 DUP3 DUP5 SUB SLT ISZERO PUSH2 0x4436 JUMPI DUP1 DUP2 REVERT JUMPDEST DUP2 MLOAD PUSH2 0x645 DUP2 PUSH2 0x4B0E JUMP JUMPDEST PUSH1 0x0 DUP1 PUSH1 0x0 DUP1 PUSH1 0x0 DUP1 PUSH1 0x0 PUSH1 0xE0 DUP9 DUP11 SUB SLT ISZERO PUSH2 0x445B JUMPI DUP1 DUP2 REVERT JUMPDEST DUP8 CALLDATALOAD SWAP7 POP PUSH1 0x20 DUP9 ADD CALLDATALOAD PUSH2 0x446D DUP2 PUSH2 0x4AF9 JUMP JUMPDEST SWAP6 POP PUSH1 0x40 DUP9 ADD CALLDATALOAD PUSH2 0x447D DUP2 PUSH2 0x4AF9 JUMP JUMPDEST SWAP5 POP PUSH1 0x60 DUP9 ADD CALLDATALOAD PUSH1 0x1 PUSH1 0x1 PUSH1 0x40 SHL SUB DUP1 DUP3 GT ISZERO PUSH2 0x4498 JUMPI DUP3 DUP4 REVERT JUMPDEST PUSH2 0x44A4 DUP12 DUP4 DUP13 ADD PUSH2 0x40C7 JUMP JUMPDEST SWAP6 POP PUSH1 0x80 DUP11 ADD CALLDATALOAD SWAP5 POP PUSH1 0xA0 DUP11 ADD CALLDATALOAD SWAP4 POP PUSH1 0xC0 DUP11 ADD CALLDATALOAD SWAP2 POP DUP1 DUP3 GT ISZERO PUSH2 0x44C7 JUMPI DUP3 DUP4 REVERT JUMPDEST POP PUSH2 0x44D4 DUP11 DUP3 DUP12 ADD PUSH2 0x4193 JUMP JUMPDEST SWAP2 POP POP SWAP3 SWAP6 SWAP9 SWAP2 SWAP5 SWAP8 POP SWAP3 SWAP6 POP JUMP JUMPDEST PUSH1 0x0 PUSH1 0x20 DUP3 DUP5 SUB SLT ISZERO PUSH2 0x44F4 JUMPI DUP1 DUP2 REVERT JUMPDEST DUP2 CALLDATALOAD PUSH1 0x1 PUSH1 0x1 PUSH1 0xE0 SHL SUB NOT DUP2 AND DUP2 EQ PUSH2 0x645 JUMPI DUP2 DUP3 REVERT JUMPDEST PUSH1 0x0 PUSH1 0x20 DUP3 DUP5 SUB SLT ISZERO PUSH2 0x451C JUMPI DUP1 DUP2 REVERT JUMPDEST DUP2 MLOAD PUSH2 0x645 DUP2 PUSH2 0x4AF9 JUMP JUMPDEST PUSH1 0x0 DUP1 PUSH1 0x40 DUP4 DUP6 SUB SLT ISZERO PUSH2 0x4539 JUMPI DUP2 DUP3 REVERT JUMPDEST DUP3 CALLDATALOAD PUSH2 0x4544 DUP2 PUSH2 0x4AF9 JUMP JUMPDEST SWAP2 POP PUSH1 0x20 DUP4 ADD CALLDATALOAD PUSH1 0x1 PUSH1 0x1 PUSH1 0x40 SHL SUB DUP2 GT ISZERO PUSH2 0x455E JUMPI DUP2 DUP3 REVERT JUMPDEST PUSH2 0x456A DUP6 DUP3 DUP7 ADD PUSH2 0x4193 JUMP JUMPDEST SWAP2 POP POP SWAP3 POP SWAP3 SWAP1 POP JUMP JUMPDEST PUSH1 0x0 PUSH1 0x20 DUP3 DUP5 SUB SLT ISZERO PUSH2 0x4585 JUMPI DUP1 DUP2 REVERT JUMPDEST DUP2 MLOAD PUSH2 0x645 DUP2 PUSH2 0x4B1C JUMP JUMPDEST PUSH1 0x0 DUP1 PUSH1 0x0 PUSH1 0x60 DUP5 DUP7 SUB SLT ISZERO PUSH2 0x45A4 JUMPI DUP1 DUP2 REVERT JUMPDEST DUP4 MLOAD PUSH2 0x45AF DUP2 PUSH2 0x4B1C JUMP JUMPDEST PUSH1 0x20 DUP6 ADD MLOAD SWAP1 SWAP4 POP PUSH1 0x1 PUSH1 0x1 PUSH1 0x40 SHL SUB DUP2 GT ISZERO PUSH2 0x45CA JUMPI DUP2 DUP3 REVERT JUMPDEST PUSH2 0x43F8 DUP7 DUP3 DUP8 ADD PUSH2 0x4135 JUMP JUMPDEST PUSH1 0x0 DUP1 PUSH1 0x40 DUP4 DUP6 SUB SLT ISZERO PUSH2 0x45E8 JUMPI DUP2 DUP3 REVERT JUMPDEST DUP3 MLOAD PUSH2 0x45F3 DUP2 PUSH2 0x4B1C JUMP JUMPDEST PUSH1 0x20 SWAP4 SWAP1 SWAP4 ADD MLOAD SWAP3 SWAP5 SWAP3 SWAP4 POP POP POP JUMP JUMPDEST PUSH1 0x0 DUP1 PUSH1 0x0 PUSH1 0x60 DUP5 DUP7 SUB SLT ISZERO PUSH2 0x4617 JUMPI DUP1 DUP2 REVERT JUMPDEST DUP4 MLOAD PUSH2 0x4622 DUP2 PUSH2 0x4B1C JUMP JUMPDEST PUSH1 0x20 DUP6 ADD MLOAD PUSH1 0x40 SWAP1 SWAP6 ADD MLOAD SWAP1 SWAP7 SWAP5 SWAP6 POP SWAP4 SWAP3 POP POP POP JUMP JUMPDEST PUSH1 0x0 DUP1 PUSH1 0x40 DUP4 DUP6 SUB SLT ISZERO PUSH2 0x464B JUMPI DUP2 DUP3 REVERT JUMPDEST DUP3 MLOAD PUSH2 0x4656 DUP2 PUSH2 0x4B1C JUMP JUMPDEST PUSH1 0x20 DUP5 ADD MLOAD SWAP1 SWAP3 POP PUSH1 0x1 PUSH1 0x1 PUSH1 0x40 SHL SUB DUP2 GT ISZERO PUSH2 0x4671 JUMPI DUP2 DUP3 REVERT JUMPDEST PUSH2 0x456A DUP6 DUP3 DUP7 ADD PUSH2 0x4135 JUMP JUMPDEST PUSH1 0x0 DUP1 PUSH1 0x0 PUSH1 0x60 DUP5 DUP7 SUB SLT ISZERO PUSH2 0x4691 JUMPI DUP1 DUP2 REVERT JUMPDEST DUP4 CALLDATALOAD PUSH1 0x1 PUSH1 0x1 PUSH1 0x40 SHL SUB DUP1 DUP3 GT ISZERO PUSH2 0x46A7 JUMPI DUP3 DUP4 REVERT JUMPDEST DUP2 DUP7 ADD SWAP2 POP PUSH2 0x120 DUP1 DUP4 DUP10 SUB SLT ISZERO PUSH2 0x46BD JUMPI DUP4 DUP5 REVERT JUMPDEST PUSH2 0x46C6 DUP2 PUSH2 0x4AB4 JUMP JUMPDEST SWAP1 POP PUSH2 0x46D2 DUP9 DUP5 PUSH2 0x41FB JUMP JUMPDEST DUP2 MSTORE PUSH2 0x46E1 DUP9 PUSH1 0x20 DUP6 ADD PUSH2 0x40BC JUMP JUMPDEST PUSH1 0x20 DUP3 ADD MSTORE PUSH2 0x46F3 DUP9 PUSH1 0x40 DUP6 ADD PUSH2 0x40BC JUMP JUMPDEST PUSH1 0x40 DUP3 ADD MSTORE PUSH1 0x60 DUP4 ADD CALLDATALOAD PUSH1 0x60 DUP3 ADD MSTORE PUSH1 0x80 DUP4 ADD CALLDATALOAD PUSH1 0x80 DUP3 ADD MSTORE PUSH1 0xA0 DUP4 ADD CALLDATALOAD PUSH1 0xA0 DUP3 ADD MSTORE PUSH2 0x4723 DUP9 PUSH1 0xC0 DUP6 ADD PUSH2 0x40BC JUMP JUMPDEST PUSH1 0xC0 DUP3 ADD MSTORE PUSH2 0x4735 DUP9 PUSH1 0xE0 DUP6 ADD PUSH2 0x40BC JUMP JUMPDEST PUSH1 0xE0 DUP3 ADD MSTORE PUSH2 0x100 DUP1 DUP5 ADD CALLDATALOAD DUP4 DUP2 GT ISZERO PUSH2 0x474D JUMPI DUP6 DUP7 REVERT JUMPDEST PUSH2 0x4759 DUP11 DUP3 DUP8 ADD PUSH2 0x4193 JUMP JUMPDEST SWAP2 DUP4 ADD SWAP2 SWAP1 SWAP2 MSTORE POP SWAP8 PUSH1 0x20 DUP8 ADD CALLDATALOAD SWAP8 POP PUSH1 0x40 SWAP1 SWAP7 ADD CALLDATALOAD SWAP6 SWAP5 POP POP POP POP POP JUMP JUMPDEST PUSH1 0x0 PUSH1 0x20 DUP3 DUP5 SUB SLT ISZERO PUSH2 0x4789 JUMPI DUP1 DUP2 REVERT JUMPDEST POP CALLDATALOAD SWAP2 SWAP1 POP JUMP JUMPDEST PUSH1 0x0 DUP1 PUSH1 0x0 PUSH1 0x60 DUP5 DUP7 SUB SLT ISZERO PUSH2 0x47A4 JUMPI DUP1 DUP2 REVERT JUMPDEST DUP4 CALLDATALOAD SWAP3 POP PUSH1 0x20 DUP5 ADD CALLDATALOAD SWAP2 POP PUSH1 0x40 DUP5 ADD CALLDATALOAD PUSH1 0x1 PUSH1 0x1 PUSH1 0x40 SHL SUB DUP2 GT ISZERO PUSH2 0x47C7 JUMPI DUP2 DUP3 REVERT JUMPDEST PUSH2 0x47D3 DUP7 DUP3 DUP8 ADD PUSH2 0x40C7 JUMP JUMPDEST SWAP2 POP POP SWAP3 POP SWAP3 POP SWAP3 JUMP JUMPDEST PUSH1 0x0 DUP1 PUSH1 0x0 DUP1 PUSH1 0x80 DUP6 DUP8 SUB SLT ISZERO PUSH2 0x47F2 JUMPI DUP2 DUP3 REVERT JUMPDEST DUP5 MLOAD SWAP4 POP PUSH1 0x20 DUP6 ADD MLOAD SWAP3 POP PUSH1 0x40 DUP6 ADD MLOAD SWAP2 POP PUSH1 0x60 DUP6 ADD MLOAD PUSH2 0x4812 DUP2 PUSH2 0x4AF9 JUMP JUMPDEST SWAP4 SWAP7 SWAP3 SWAP6 POP SWAP1 SWAP4 POP POP JUMP JUMPDEST PUSH1 0x0 DUP2 MLOAD DUP1 DUP5 MSTORE PUSH1 0x20 DUP1 DUP6 ADD SWAP5 POP DUP1 DUP5 ADD DUP4 JUMPDEST DUP4 DUP2 LT ISZERO PUSH2 0x484C JUMPI DUP2 MLOAD DUP8 MSTORE SWAP6 DUP3 ADD SWAP6 SWAP1 DUP3 ADD SWAP1 PUSH1 0x1 ADD PUSH2 0x4830 JUMP JUMPDEST POP SWAP5 SWAP6 SWAP5 POP POP POP POP POP JUMP JUMPDEST PUSH1 0x0 DUP2 MLOAD DUP1 DUP5 MSTORE DUP2 JUMPDEST DUP2 DUP2 LT ISZERO PUSH2 0x487C JUMPI PUSH1 0x20 DUP2 DUP6 ADD DUP2 ADD MLOAD DUP7 DUP4 ADD DUP3 ADD MSTORE ADD PUSH2 0x4860 JUMP JUMPDEST DUP2 DUP2 GT ISZERO PUSH2 0x488D JUMPI DUP3 PUSH1 0x20 DUP4 DUP8 ADD ADD MSTORE JUMPDEST POP PUSH1 0x1F ADD PUSH1 0x1F NOT AND SWAP3 SWAP1 SWAP3 ADD PUSH1 0x20 ADD SWAP3 SWAP2 POP POP JUMP JUMPDEST SWAP2 DUP3 MSTORE PUSH1 0x1 PUSH1 0x1 PUSH1 0xE0 SHL SUB NOT AND PUSH1 0x20 DUP3 ADD MSTORE PUSH1 0x24 ADD SWAP1 JUMP JUMPDEST PUSH1 0x0 DUP3 DUP5 DUP4 CALLDATACOPY SWAP2 ADD SWAP1 DUP2 MSTORE SWAP2 SWAP1 POP JUMP JUMPDEST PUSH2 0x1901 PUSH1 0xF0 SHL DUP2 MSTORE PUSH1 0x2 DUP2 ADD SWAP3 SWAP1 SWAP3 MSTORE PUSH1 0x22 DUP3 ADD MSTORE PUSH1 0x42 ADD SWAP1 JUMP JUMPDEST PUSH1 0x1 PUSH1 0x1 PUSH1 0xA0 SHL SUB SWAP2 SWAP1 SWAP2 AND DUP2 MSTORE PUSH1 0x20 ADD SWAP1 JUMP JUMPDEST PUSH1 0x0 PUSH1 0x20 DUP3 MSTORE PUSH2 0x645 PUSH1 0x20 DUP4 ADD DUP5 PUSH2 0x481D JUMP JUMPDEST PUSH1 0x0 PUSH1 0x40 DUP3 MSTORE PUSH2 0x491F PUSH1 0x40 DUP4 ADD DUP6 PUSH2 0x481D JUMP JUMPDEST DUP3 DUP2 SUB PUSH1 0x20 DUP5 ADD MSTORE PUSH2 0x2AB5 DUP2 DUP6 PUSH2 0x481D JUMP JUMPDEST SWAP1 ISZERO ISZERO DUP2 MSTORE PUSH1 0x20 ADD SWAP1 JUMP JUMPDEST SWAP3 ISZERO ISZERO DUP4 MSTORE PUSH1 0x20 DUP4 ADD SWAP2 SWAP1 SWAP2 MSTORE PUSH1 0x40 DUP3 ADD MSTORE PUSH1 0x60 ADD SWAP1 JUMP JUMPDEST SWAP1 DUP2 MSTORE PUSH1 0x20 ADD SWAP1 JUMP JUMPDEST SWAP3 DUP4 MSTORE PUSH1 0x1 PUSH1 0x1 PUSH1 0xA0 SHL SUB SWAP2 DUP3 AND PUSH1 0x20 DUP5 ADD MSTORE AND PUSH1 0x40 DUP3 ADD MSTORE PUSH1 0x60 ADD SWAP1 JUMP JUMPDEST SWAP6 DUP7 MSTORE PUSH1 0x1 PUSH1 0x1 PUSH1 0xA0 SHL SUB SWAP5 DUP6 AND PUSH1 0x20 DUP8 ADD MSTORE SWAP3 SWAP1 SWAP4 AND PUSH1 0x40 DUP6 ADD MSTORE PUSH1 0x60 DUP5 ADD MSTORE PUSH1 0x80 DUP4 ADD SWAP2 SWAP1 SWAP2 MSTORE PUSH1 0xA0 DUP3 ADD MSTORE PUSH1 0xC0 ADD SWAP1 JUMP JUMPDEST SWAP5 DUP6 MSTORE PUSH1 0x20 DUP6 ADD SWAP4 SWAP1 SWAP4 MSTORE PUSH1 0x40 DUP5 ADD SWAP2 SWAP1 SWAP2 MSTORE PUSH1 0x60 DUP4 ADD MSTORE PUSH1 0x1 PUSH1 0x1 PUSH1 0xA0 SHL SUB AND PUSH1 0x80 DUP3 ADD MSTORE PUSH1 0xA0 ADD SWAP1 JUMP JUMPDEST PUSH1 0x0 DUP4 DUP3 MSTORE PUSH1 0x40 PUSH1 0x20 DUP4 ADD MSTORE PUSH2 0x1F59 PUSH1 0x40 DUP4 ADD DUP5 PUSH2 0x4857 JUMP JUMPDEST SWAP2 DUP3 MSTORE PUSH1 0x1 PUSH1 0x1 PUSH1 0xA0 SHL SUB AND PUSH1 0x20 DUP3 ADD MSTORE PUSH1 0x40 ADD SWAP1 JUMP JUMPDEST SWAP4 DUP5 MSTORE PUSH1 0xFF SWAP3 SWAP1 SWAP3 AND PUSH1 0x20 DUP5 ADD MSTORE PUSH1 0x40 DUP4 ADD MSTORE PUSH1 0x60 DUP3 ADD MSTORE PUSH1 0x80 ADD SWAP1 JUMP JUMPDEST PUSH1 0x0 PUSH1 0x20 DUP3 MSTORE PUSH2 0x645 PUSH1 0x20 DUP4 ADD DUP5 PUSH2 0x4857 JUMP JUMPDEST PUSH1 0x0 DUP4 DUP3 MSTORE PUSH1 0x40 PUSH1 0x20 DUP4 ADD MSTORE PUSH2 0x1F59 PUSH1 0x40 DUP4 ADD DUP5 PUSH2 0x481D JUMP JUMPDEST PUSH1 0x0 DUP5 DUP3 MSTORE DUP4 PUSH1 0x20 DUP4 ADD MSTORE PUSH1 0x60 PUSH1 0x40 DUP4 ADD MSTORE PUSH2 0x2AB5 PUSH1 0x60 DUP4 ADD DUP5 PUSH2 0x481D JUMP JUMPDEST PUSH1 0x0 DUP6 DUP3 MSTORE DUP5 PUSH1 0x20 DUP4 ADD MSTORE PUSH1 0x80 PUSH1 0x40 DUP4 ADD MSTORE PUSH2 0x4A94 PUSH1 0x80 DUP4 ADD DUP6 PUSH2 0x481D JUMP JUMPDEST DUP3 DUP2 SUB PUSH1 0x60 DUP5 ADD MSTORE PUSH2 0x29B7 DUP2 DUP6 PUSH2 0x481D JUMP JUMPDEST PUSH1 0xFF SWAP2 SWAP1 SWAP2 AND DUP2 MSTORE PUSH1 0x20 ADD SWAP1 JUMP JUMPDEST PUSH1 0x40 MLOAD DUP2 DUP2 ADD PUSH1 0x1 PUSH1 0x1 PUSH1 0x40 SHL SUB DUP2 GT DUP3 DUP3 LT OR ISZERO PUSH2 0x4AD2 JUMPI PUSH1 0x0 DUP1 REVERT JUMPDEST PUSH1 0x40 MSTORE SWAP2 SWAP1 POP JUMP JUMPDEST PUSH1 0x0 PUSH1 0x1 PUSH1 0x1 PUSH1 0x40 SHL SUB DUP3 GT ISZERO PUSH2 0x4AEF JUMPI DUP1 DUP2 REVERT JUMPDEST POP PUSH1 0x20 SWAP1 DUP2 MUL ADD SWAP1 JUMP JUMPDEST PUSH1 0x1 PUSH1 0x1 PUSH1 0xA0 SHL SUB DUP2 AND DUP2 EQ PUSH2 0x595 JUMPI PUSH1 0x0 DUP1 REVERT JUMPDEST DUP1 ISZERO ISZERO DUP2 EQ PUSH2 0x595 JUMPI PUSH1 0x0 DUP1 REVERT JUMPDEST PUSH1 0x3 DUP2 LT PUSH2 0x595 JUMPI PUSH1 0x0 DUP1 REVERT INVALID LOG2 PUSH5 0x6970667358 0x22 SLT KECCAK256 DUP1 0xDD 0xF8 PUSH13 0xE16416B835AA7AE84A6F391B95 0x5F 0xB5 0x27 0xBF LOG1 DUP2 COINBASE 0xB4 SWAP7 0xB7 BALANCE SWAP4 SELFDESTRUCT 0xCE CALL PUSH5 0x736F6C6343 STOP SMOD ADD STOP CALLER "
		},
		"gasEstimates": {
			"creation": {
				"codeDepositCost": "486800",
				"executionCost": "infinite",
				"totalCost": "infinite"
			},
			"external": {
				"create(string,string,address[],uint256[],uint256,address,bool)": "infinite",
				"getCreationCode()": "infinite",
				"getCreationCodeContracts()": "infinite",
				"getPauseConfiguration()": "infinite",
				"getVault()": "infinite",
				"isPoolFromFactory(address)": "1345"
			}
		},
		"methodIdentifiers": {
			"create(string,string,address[],uint256[],uint256,address,bool)": "23679719",
			"getCreationCode()": "00c194db",
			"getCreationCodeContracts()": "174481fa",
			"getPauseConfiguration()": "2da47c40",
			"getVault()": "8d928af8",
			"isPoolFromFactory(address)": "6634b753"
		}
	},
	"abi": [
		{
			"inputs": [
				{
					"internalType": "contract IVault",
					"name": "vault",
					"type": "address"
				}
			],
			"stateMutability": "nonpayable",
			"type": "constructor"
		},
		{
			"anonymous": false,
			"inputs": [
				{
					"indexed": true,
					"internalType": "address",
					"name": "pool",
					"type": "address"
				}
			],
			"name": "PoolCreated",
			"type": "event"
		},
		{
			"inputs": [
				{
					"internalType": "string",
					"name": "name",
					"type": "string"
				},
				{
					"internalType": "string",
					"name": "symbol",
					"type": "string"
				},
				{
					"internalType": "contract IERC20[]",
					"name": "tokens",
					"type": "address[]"
				},
				{
					"internalType": "uint256[]",
					"name": "weights",
					"type": "uint256[]"
				},
				{
					"internalType": "uint256",
					"name": "swapFeePercentage",
					"type": "uint256"
				},
				{
					"internalType": "address",
					"name": "owner",
					"type": "address"
				},
				{
					"internalType": "bool",
					"name": "swapEnabledOnStart",
					"type": "bool"
				}
			],
			"name": "create",
			"outputs": [
				{
					"internalType": "address",
					"name": "",
					"type": "address"
				}
			],
			"stateMutability": "nonpayable",
			"type": "function"
		},
		{
			"inputs": [],
			"name": "getCreationCode",
			"outputs": [
				{
					"internalType": "bytes",
					"name": "",
					"type": "bytes"
				}
			],
			"stateMutability": "view",
			"type": "function"
		},
		{
			"inputs": [],
			"name": "getCreationCodeContracts",
			"outputs": [
				{
					"internalType": "address",
					"name": "contractA",
					"type": "address"
				},
				{
					"internalType": "address",
					"name": "contractB",
					"type": "address"
				}
			],
			"stateMutability": "view",
			"type": "function"
		},
		{
			"inputs": [],
			"name": "getPauseConfiguration",
			"outputs": [
				{
					"internalType": "uint256",
					"name": "pauseWindowDuration",
					"type": "uint256"
				},
				{
					"internalType": "uint256",
					"name": "bufferPeriodDuration",
					"type": "uint256"
				}
			],
			"stateMutability": "view",
			"type": "function"
		},
		{
			"inputs": [],
			"name": "getVault",
			"outputs": [
				{
					"internalType": "contract IVault",
					"name": "",
					"type": "address"
				}
			],
			"stateMutability": "view",
			"type": "function"
		},
		{
			"inputs": [
				{
					"internalType": "address",
					"name": "pool",
					"type": "address"
				}
			],
			"name": "isPoolFromFactory",
			"outputs": [
				{
					"internalType": "bool",
					"name": "",
					"type": "bool"
				}
			],
			"stateMutability": "view",
			"type": "function"
		}
	]
}