{
	"data": {
		"bytecode": {
			"linkReferences": {
				"contracts/MetaStablePoolFactory.sol": {
					"QueryProcessor": [
						{
							"length": 20,
							"start": 7321
						},
						{
							"length": 20,
							"start": 9511
						},
						{
							"length": 20,
							"start": 13971
						}
					]
				}
			},
			"object": "6103606040527f6e71edae12b1b97f4d1f60370fef10105fa2faae0126114a169c64845d6126c9610120523480156200003757600080fd5b50604051620074d0380380620074d08339810160408190526200005a91620010a1565b805160208201516040830151606084015160c085015160e0860151610100870151610120880151610160890151855189906002146200009b5760006200009e565b60025b8989898a516001600160401b0381118015620000b957600080fd5b50604051908082528060200260200182016040528015620000e4578160200160208202803683370190505b506040805180820190915260018152603160f81b602080830191909152336080526001600160601b031960608a901b1660a05285518c928c928c928c92859285928c928c92849283929183918691620001439160039185019062000de9565b5080516200015990600490602084019062000de9565b50506005805460ff1916601217905550815160209283012060c052805191012060e05250507f8b73c3c69bb8fe3d512ecc4cf759cc79239f7b179b0ffacaa9a75d522b39400f6101005250620001b86276a70083111561019462000833565b620001cc62278d0082111561019562000833565b4290910161014081905201610160528551620001ee906002111560c862000833565b62000208620001fc62000848565b8751111560c962000833565b6200021e866200084d60201b620013d91760201c565b620002298462000859565b6040516309b2760f60e01b81526000906001600160a01b038c16906309b2760f906200025a908d90600401620012e7565b602060405180830381600087803b1580156200027557600080fd5b505af11580156200028a573d6000803e3d6000fd5b505050506040513d601f19601f82011682018060405250810190620002b0919062001088565b604051633354e3e960e11b81529091506001600160a01b038c16906366a9c7d290620002e59084908b908b906004016200124b565b600060405180830381600087803b1580156200030057600080fd5b505af115801562000315573d6000803e3d6000fd5b5050505060609a909a1b6001600160601b031916610180525050506101a0969096525062000352945050506001881015915061012c905062000833565b6200036561138886111561012d62000833565b85516101c0819052865187906000906200037b57fe5b60200260200101516001600160a01b03166101e0816001600160a01b031660601b8152505086600181518110620003ae57fe5b60200260200101516001600160a01b0316610200816001600160a01b031660601b8152505060028111620003e4576000620003fb565b86600281518110620003f257fe5b60200260200101515b60601b6001600160601b03191661022052600381116200041d57600062000434565b866003815181106200042b57fe5b60200260200101515b60601b6001600160601b0319166102405260048111620004565760006200046d565b866004815181106200046457fe5b60200260200101515b6001600160a01b0316610260816001600160a01b031660601b81525050620004b0876000815181106200049c57fe5b6020026020010151620008e560201b60201c565b610280528651620004c990889060019081106200049c57fe5b6102a05260028111620004de576000620004f0565b620004f0876002815181106200049c57fe5b6102c052600381116200050557600062000517565b62000517876003815181106200049c57fe5b6102e052600481116200052c5760006200053e565b6200053e876004815181106200049c57fe5b6103008181525050600062000561876103e86200099160201b620013e31760201c565b90506200056e81620009c2565b50505050505050505050506200059481606001515160021460d26200083360201b60201c565b620005bb8160600151518260800151518360a001515162000a0160201b620014071760201c565b60008160800151600081518110620005cf57fe5b60209081029190910101516001600160601b0319606082901b166103205290506001600160a01b0381161562000686576000806200062d838560a001516000815181106200061957fe5b602002602001015162000a2160201b60201c565b9150915081600d8190555083606001516000815181106200064a57fe5b60200260200101516001600160a01b031660008051602062007490833981519152826040516200067b9190620012fc565b60405180910390a250505b806001600160a01b03168260600151600081518110620006a257fe5b60200260200101516001600160a01b0316600080516020620074b08339815191528460a00151600081518110620006d557fe5b6020026020010151604051620006ec9190620012fc565b60405180910390a3600082608001516001815181106200070857fe5b60209081029190910101516001600160601b0319606082901b166103405290506001600160a01b03811615620007ab5760008062000752838660a001516001815181106200061957fe5b9150915081600e8190555084606001516001815181106200076f57fe5b60200260200101516001600160a01b03166000805160206200749083398151915282604051620007a09190620012fc565b60405180910390a250505b806001600160a01b03168360600151600181518110620007c757fe5b60200260200101516001600160a01b0316600080516020620074b08339815191528560a00151600181518110620007fa57fe5b6020026020010151604051620008119190620012fc565b60405180910390a36101408301516200082a9062000b1f565b50505062001389565b816200084457620008448162000b7d565b5050565b600590565b80620008448162000bd0565b6200086e64e8d4a5100082101560cb62000833565b6200088667016345785d8a000082111560ca62000833565b620008a58160c060085462000c5a60201b62001424179092919060201c565b6008556040517fa9ba3ffe0b6c366b81232caab38605a0699ad5398d6cce76f91ee809e322dafc90620008da908390620012fc565b60405180910390a150565b600080826001600160a01b031663313ce5676040518163ffffffff1660e01b815260040160206040518083038186803b1580156200092257600080fd5b505afa15801562000937573d6000803e3d6000fd5b505050506040513d601f19601f820116820180604052508101906200095d91906200121d565b60ff16905060006200097c60128362000c6f60201b620014391760201c565b600a0a670de0b6b3a764000002949350505050565b6000828202620009b9841580620009b1575083858381620009ae57fe5b04145b600362000833565b90505b92915050565b620009d08180428062000c87565b7fa0d01593e47e69d07e0ccd87bece09411e07dd1ed40ca8f2e7af2976542a023381604051620008da9190620012fc565b62000a1c828414801562000a1457508183145b606762000833565b505050565b600080836001600160a01b031663679aefce6040518163ffffffff1660e01b815260040160206040518083038186803b15801562000a5e57600080fd5b505afa15801562000a73573d6000803e3d6000fd5b505050506040513d601f19601f8201168201806040525081019062000a99919062001088565b905062000aaf600160801b821061014962000833565b62000ad28342016001600160401b031660c062000d5760201b6200144f1760201c565b62000af3846001600160401b0316608062000d5760201b6200144f1760201c565b62000b14836001600160801b0316600062000d5760201b6200144f1760201c565b171791509250929050565b62000b4c62000b468262000b3262000d5b565b62000d6160201b620014531790919060201c565b62000d80565b7f3e350b41e86a8e10f804ade6d35340d620be35569cc75ac943e8bb14ab80ead181604051620008da919062001240565b62461bcd60e51b6000908152602060045260076024526642414c23000030600a808404818106603090810160081b95839006959095019082900491820690940160101b939093010160c81b604452606490fd5b60028151101562000be15762000c57565b60008160008151811062000bf157fe5b602002602001015190506000600190505b825181101562000a1c57600083828151811062000c1b57fe5b6020026020010151905062000c4c816001600160a01b0316846001600160a01b03161060656200083360201b60201c565b915060010162000c02565b50565b6001600160401b03811b1992909216911b1790565b600062000c8183831115600162000833565b50900390565b62000ca8816001600160401b031660c062000d5760201b6200144f1760201c565b62000cc9836001600160401b0316608062000d5760201b6200144f1760201c565b62000cea856001600160401b0316604062000d5760201b6200144f1760201c565b62000d0b876001600160401b0316600062000d5760201b6200144f1760201c565b1717176009556040517f1835882ee7a34ac194f717a35e09bb1d24c82a3b9d854ab6c9749525b714cdf29062000d4990869086908690869062001305565b60405180910390a150505050565b1b90565b60085490565b6000620009b98260558562000da560201b6200145d179092919060201c565b62000d9f81600060085462000dce60201b62001484179092919060201c565b60085550565b60006001821b198416828462000dbd57600062000dc0565b60015b60ff16901b17949350505050565b6001600160c01b03828116821b90821b198416179392505050565b828054600181600116156101000203166002900490600052602060002090601f016020900481019282601f1062000e2c57805160ff191683800117855562000e5c565b8280016001018555821562000e5c579182015b8281111562000e5c57825182559160200191906001019062000e3f565b5062000e6a92915062000e6e565b5090565b5b8082111562000e6a576000815560010162000e6f565b8051620009bc8162001373565b600082601f83011262000ea3578081fd5b815162000eba62000eb48262001347565b62001320565b81815291506020808301908481018184028601820187101562000edc57600080fd5b60005b8481101562000f0857815162000ef58162001373565b8452928201929082019060010162000edf565b505050505092915050565b600082601f83011262000f24578081fd5b815162000f3562000eb48262001347565b81815291506020808301908481018184028601820187101562000f5757600080fd5b60005b8481101562000f0857815162000f708162001373565b8452928201929082019060010162000f5a565b600082601f83011262000f94578081fd5b815162000fa562000eb48262001347565b81815291506020808301908481018184028601820187101562000fc757600080fd5b60005b8481101562000f085781518452928201929082019060010162000fca565b80518015158114620009bc57600080fd5b600082601f8301126200100a578081fd5b81516001600160401b0381111562001020578182fd5b602062001036601f8301601f1916820162001320565b925081835284818386010111156200104d57600080fd5b60005b828110156200106d57848101820151848201830152810162001050565b828111156200107f5760008284860101525b50505092915050565b6000602082840312156200109a578081fd5b5051919050565b600060208284031215620010b3578081fd5b81516001600160401b0380821115620010ca578283fd5b8184019150610180808387031215620010e1578384fd5b620010ec8162001320565b9050620010fa868462000e85565b81526020830151828111156200110e578485fd5b6200111c8782860162000ff9565b60208301525060408301518281111562001134578485fd5b620011428782860162000ff9565b6040830152506060830151828111156200115a578485fd5b620011688782860162000e92565b60608301525060808301518281111562001180578485fd5b6200118e8782860162000f13565b60808301525060a083015182811115620011a6578485fd5b620011b48782860162000f83565b60a08301525060c0838101519082015260e08084015190820152610100808401519082015261012080840151908201526101409150620011f78683850162000fe8565b8282015261016091506200120e8683850162000e85565b91810191909152949350505050565b6000602082840312156200122f578081fd5b815160ff81168114620009b9578182fd5b901515815260200190565b60006060820185835260206060818501528186518084526080860191508288019350845b81811015620012975762001284855162001367565b835293830193918301916001016200126f565b505084810360408601528551808252908201925081860190845b81811015620012d957620012c6835162001367565b85529383019391830191600101620012b1565b509298975050505050505050565b6020810160038310620012f657fe5b91905290565b90815260200190565b93845260208401929092526040830152606082015260800190565b6040518181016001600160401b03811182821017156200133f57600080fd5b604052919050565b60006001600160401b038211156200135d578081fd5b5060209081020190565b6001600160a01b031690565b6001600160a01b038116811462000c5757600080fd5b60805160a05160601c60c05160e051610100516101205161014051610160516101805160601c6101a0516101c0516101e05160601c6102005160601c6102205160601c6102405160601c6102605160601c610280516102a0516102c0516102e051610300516103205160601c6103405160601c615fe4620014ac600039806117d85250806117b452508061348e52508061346a5250806134465250806134225250806133fe5250806139e75250806139a552508061396352508061171f528061262e52806132495250806116b752806125d352806131dd525080611cf5525080610b59525080610f2052508061166f52508061164b525080611240525080611ad1525080611b13525080611af2525080610efc525080610e865250615fe46000f3fe608060405234801561001057600080fd5b50600436106102a05760003560e01c80636daccffa11610167578063a457c2d7116100ce578063b867ee5a11610087578063b867ee5a146105d1578063d505accf146105f3578063d5c096c414610606578063dd62ed3e14610619578063eb0f24d61461062c578063ffd088eb14610634576102a0565b8063a457c2d714610575578063a9059cbb14610588578063aaabadc51461059b578063b10be739146105a3578063b48b5b40146105b6578063b7710251146105be576102a0565b8063893d20e811610120578063893d20e8146105145780638d928af81461052957806395d89b41146105315780639b02cdde146105395780639d2c110c1461054f578063a0daaed014610562576102a0565b80636daccffa1461049057806370a08231146104a757806374f3b009146104ba5780637ecebe00146104db578063851c1bb3146104ee57806387ec681714610501576102a0565b80632f1a0bc91161020b57806350dd6ed9116101c457806350dd6ed91461040657806355c67628146104195780636028bfd41461042157806360d1507c14610442578063679aefce146104685780636b84323914610470576102a0565b80632f1a0bc9146103a8578063313ce567146103bb5780633644e515146103d057806338e9922e146103d857806338fff2d0146103eb57806339509351146103f3576102a0565b80631dccd8301161025d5780631dccd830146103375780631dd746ea146103575780631ed4eddc1461035f578063238a2d591461037857806323b872dd1461038d578063292c914a146103a0576102a0565b806301ec954a146102a557806306fdde03146102ce578063095ea7b3146102e357806316c38b3c1461030357806318160ddd146103185780631c0de05114610320575b600080fd5b6102b86102b33660046159fd565b61063c565b6040516102c59190615ced565b60405180910390f35b6102d661069c565b6040516102c59190615ea0565b6102f66102f13660046154e7565b610733565b6040516102c59190615cca565b610316610311366004615755565b61074a565b005b6102b861075e565b610328610764565b6040516102c593929190615cd5565b61034a61034536600461569b565b61078d565b6040516102c59190615c92565b61034a6108b0565b6103676108bf565b6040516102c5959493929190615df3565b610380610911565b6040516102c59190615c0d565b6102f661039b366004615432565b61099e565b610316610a14565b6103166103b6366004615ad0565b610a48565b6103c3610b2b565b6040516102c59190615f21565b6102b8610b34565b6103166103e6366004615ab8565b610b3e565b6102b8610b57565b6102f66104013660046154e7565b610b7b565b610316610414366004615873565b610bb6565b6102b8610bd4565b61043461042f36600461578d565b610be5565b6040516102c5929190615eb3565b610455610450366004615ab8565b610c1c565b6040516102c59796959493929190615dc3565b6102b8610c65565b61048361047e3660046155dd565b610d43565b6040516102c59190615c5a565b610498610df9565b6040516102c593929190615ecc565b6102b86104b53660046153de565b610e14565b6104cd6104c836600461578d565b610e33565b6040516102c5929190615ca5565b6102b86104e93660046153de565b610e67565b6102b86104fc36600461582f565b610e82565b61043461050f36600461578d565b610ed4565b61051c610efa565b6040516102c59190615bf9565b61051c610f1e565b6102d6610f42565b610541610fa3565b6040516102c5929190615ee2565b6102b861055d366004615a6d565b610fad565b6103166105703660046153de565b610fe6565b6102f66105833660046154e7565b611022565b6102f66105963660046154e7565b611060565b61051c61106d565b6102b86105b13660046159c9565b611077565b6102b861110c565b6103166105cc3660046154e7565b611112565b6105e46105df3660046153de565b6111b2565b6040516102c593929190615ef0565b610316610601366004615472565b61120b565b6104cd61061436600461578d565b611354565b6102b86106273660046153fa565b61137b565b6103166113a6565b6102b86113d2565b6000846080015161066961064e610f1e565b6001600160a01b0316336001600160a01b03161460cd61149f565b61067e610674610b57565b82146101f461149f565b6106866114ad565b610692868686866114bd565b9695505050505050565b60038054604080516020601f60026000196101006001881615020190951694909404938401819004810282018101909252828152606093909290918301828280156107285780601f106106fd57610100808354040283529160200191610728565b820191906000526020600020905b81548152906001019060200180831161070b57829003601f168201915b505050505090505b90565b6000610740338484611518565b5060015b92915050565b610752611580565b61075b816115ae565b50565b60025490565b600080600061077161162c565b15925061077c611649565b915061078661166d565b9050909192565b606081516001600160401b03811180156107a657600080fd5b506040519080825280602002602001820160405280156107d0578160200160208202803683370190505b50905060006107dd611691565b905060005b83518110156108a95773__$3990137a47f8abfa60e1c9480d578e6456$__6379eaef82600c86848151811061081357fe5b6020026020010151856040518463ffffffff1660e01b815260040161083a93929190615e64565b60206040518083038186803b15801561085257600080fd5b505af4158015610866573d6000803e3d6000fd5b505050506040513d601f19601f8201168201806040525081019061088a91906159e5565b83828151811061089657fe5b60209081029190910101526001016107e2565b5050919050565b60606108ba6116a3565b905090565b6000806000806000806108d061176c565b90506108db81611772565b95506108e68161177e565b94506108f18161178b565b93506108fc81611798565b9250610907816117a5565b9150509091929394565b60408051600280825260608083018452926020830190803683370190505090506109396117b2565b8160008151811061094657fe5b60200260200101906001600160a01b031690816001600160a01b03168152505061096e6117d6565b8160018151811061097b57fe5b60200260200101906001600160a01b031690816001600160a01b03168152505090565b6000806109ab853361137b565b90506109cf336001600160a01b03871614806109c75750838210155b61019e61149f565b6109da8585856117fa565b336001600160a01b038616148015906109f557506000198114155b15610a0757610a078533858403611518565b60019150505b9392505050565b610a1c6118da565b610a24611580565b610a2e60016118ed565b6000610a3861075e565b1115610a4657610a46611936565b565b610a50611580565b610a60600183101561012c61149f565b610a7161138883111561012d61149f565b6000610a7d8242611439565b9050610a916201518082101561013d61149f565b600080610a9c61198c565b91509150610aad811561013e61149f565b6000610abb866103e86113e3565b90506000838211610aea57610ae5610ad662015180866113e3565b610ae084886113e3565b611a00565b610b04565b610b04610afa62015180846113e3565b610ae086886113e3565b9050610b16600282111561013f61149f565b610b2284834289611a33565b50505050505050565b60055460ff1690565b60006108ba611acd565b610b46611580565b610b4e6118da565b61075b81611b6a565b7f000000000000000000000000000000000000000000000000000000000000000090565b3360008181526001602090815260408083206001600160a01b03871684529091528120549091610740918590610bb19086611bd5565b611518565b610bbe611580565b610bc66118da565b610bd08282611be7565b5050565b6008546000906108ba9060c0611ce6565b60006060610bfb8651610bf6611cf3565b611d17565b610c1089898989898989611d24611d8e611def565b97509795505050505050565b6000806000806000806000610c37610400891061013b61149f565b6000610c4289611f12565b9050610c4d81611f24565b959f949e50929c50909a509850965090945092505050565b60006060610c71610f1e565b6001600160a01b031663f94d4668610c87610b57565b6040518263ffffffff1660e01b8152600401610ca39190615ced565b60006040518083038186803b158015610cbb57600080fd5b505afa158015610ccf573d6000803e3d6000fd5b505050506040513d6000823e601f3d908101601f19168201604052610cf79190810190615512565b509150506000610d0561198c565b509050610d1982610d146116a3565b611f87565b6000610d2782846000611fe8565b9050610d3b610d3461075e565b8290612184565b935050505090565b606081516001600160401b0381118015610d5c57600080fd5b50604051908082528060200260200182016040528015610d86578160200160208202803683370190505b5090506000610d93611691565b9050610d9d6151aa565b60005b8451811015610df157848181518110610db557fe5b60200260200101519150610dd282600001518484602001516121d5565b848281518110610dde57fe5b6020908102919091010152600101610da0565b505050919050565b6000806000610e0661198c565b90949093506103e892509050565b6001600160a01b0381166000908152602081905260409020545b919050565b606080610e3e6114ad565b610e4d89898989898989612266565b9092509050610e5a61162c565b15610c1057610c10611936565b6001600160a01b031660009081526006602052604090205490565b60007f000000000000000000000000000000000000000000000000000000000000000082604051602001610eb7929190615bb6565b604051602081830303815290604052805190602001209050919050565b60006060610ee58651610bf6611cf3565b610c10898989898989896122e461230a611def565b7f000000000000000000000000000000000000000000000000000000000000000090565b7f000000000000000000000000000000000000000000000000000000000000000090565b60048054604080516020601f60026000196101006001881615020190951694909404938401819004810282018101909252828152606093909290918301828280156107285780601f106106fd57610100808354040283529160200191610728565b600a54600b549091565b60008360800151610fbf61064e610f1e565b610fca610674610b57565b610fd26114ad565b610fdd85858561236b565b95945050505050565b610fef81612452565b1561100157610ffc61247f565b61075b565b61100a81612497565b1561101757610ffc6124b3565b61075b6101356124c6565b60008061102f338561137b565b90508083106110495761104433856000611518565b611056565b6110563385858403611518565b5060019392505050565b60006107403384846117fa565b60006108ba612519565b600073__$3990137a47f8abfa60e1c9480d578e6456$__630397bee0600c8461109e611691565b6040518463ffffffff1660e01b81526004016110bc93929190615e18565b60206040518083038186803b1580156110d457600080fd5b505af41580156110e8573d6000803e3d6000fd5b505050506040513d601f19601f8201168201806040525081019061074491906159e5565b61040090565b61111a611580565b61112382612452565b156111885761113181612593565b6111396117b2565b6001600160a01b0316826001600160a01b03167fca6c2c5b6b44b5f3f0c08f0e28e5b6deda1cb38c3fe1113e8031d926c1e8c6d08360405161117b9190615ced565b60405180910390a3610bd0565b61119182612497565b156111a75761119f816125b5565b6111396117d6565b610bd06101356124c6565b60008060006111c0846125d1565b156111e0576111d56111d0612603565b612609565b925092509250611204565b6111e98461262c565b156111f9576111d56111d061265e565b6112046101356124c6565b9193909250565b6112198442111560d161149f565b6001600160a01b0387166000908152600660209081526040808320549051909291611270917f0000000000000000000000000000000000000000000000000000000000000000918c918c918c9188918d9101615d15565b604051602081830303815290604052805190602001209050600061129382612664565b90506000600182888888604051600081526020016040526040516112ba9493929190615da5565b6020604051602081039080840390855afa1580156112dc573d6000803e3d6000fd5b5050604051601f190151915061131e90506001600160a01b0382161580159061131657508b6001600160a01b0316826001600160a01b0316145b6101f861149f565b6001600160a01b038b1660009081526006602052604090206001850190556113478b8b8b611518565b5050505050505050505050565b60608061135f6114ad565b61136e89898989898989612680565b9092509050610c10611936565b6001600160a01b03918216600090815260016020908152604080832093909416825291909152205490565b6113ae611580565b6000806113b961198c565b915091506113c98161014061149f565b610bd0826127a4565b6201de2090565b80610bd0816127df565b6000828202610a0d8415806114005750838583816113fd57fe5b04145b600361149f565b61141f828414801561141857508183145b606761149f565b505050565b6001600160401b03811b1992909216911b1790565b600061144983831115600161149f565b50900390565b1b90565b6000610a0d838360555b60006001821b1984168284611473576000611476565b60015b60ff16901b17949350505050565b6001600160c01b03828116821b90821b198416179392505050565b81610bd057610bd0816124c6565b6114b5612858565b610a46612898565b60006114d183836114cc611cf3565b6128d3565b60606114db6116a3565b90506000865160018111156114ec57fe5b14611503576114fe86868686856128eb565b610692565b6106928686868685612960565b949350505050565b6001600160a01b0380841660008181526001602090815260408083209487168084529490915290819020849055517f8c5be1e5ebec7d5bd14f71427d1e84f3dd0314c0f7b2291e5b200ac8c7c3b92590611573908590615ced565b60405180910390a3505050565b60006115976000356001600160e01b031916610e82565b905061075b6115a682336129c4565b61019161149f565b80156115ce576115c96115bf611649565b421061019361149f565b6115e3565b6115e36115d961166d565b42106101a961149f565b6007805460ff19168215151790556040517f9e3a5e37224532dea67b89face185703738a228a6e8a23dee546960180d3be6490611621908390615cca565b60405180910390a150565b600061163661166d565b4211806108ba57505060075460ff161590565b7f000000000000000000000000000000000000000000000000000000000000000090565b7f000000000000000000000000000000000000000000000000000000000000000090565b60006108ba61169e61176c565b611798565b60606116ad612ab4565b90506116fe6116db7f0000000000000000000000000000000000000000000000000000000000000000612bea565b826000815181106116e857fe5b6020026020010151612c3990919063ffffffff16565b8160008151811061170b57fe5b6020026020010181815250506117506117437f0000000000000000000000000000000000000000000000000000000000000000612bea565b826001815181106116e857fe5b8160018151811061175d57fe5b60200260200101818152505090565b60085490565b60006107448282612c65565b6000610744826016612c65565b600061074482602c612c8c565b600061074482604b612c96565b6000610744826055612c9e565b7f000000000000000000000000000000000000000000000000000000000000000090565b7f000000000000000000000000000000000000000000000000000000000000000090565b6118116001600160a01b038416151561019861149f565b6118286001600160a01b038316151561019961149f565b61183383838361141f565b6001600160a01b03831660009081526020819052604090205461185990826101a0612ca8565b6001600160a01b0380851660009081526020819052604080822093909355908416815220546118889082611bd5565b6001600160a01b0380841660008181526020819052604090819020939093559151908516907fddf252ad1be2c89b69c2b068fc378daa952ba7f163c4a11628f55a4df523b3ef90611573908590615ced565b610a466118e561162c565b61019261149f565b611907611902826118fc61176c565b90611453565b612cbe565b7f3e350b41e86a8e10f804ade6d35340d620be35569cc75ac943e8bb14ab80ead1816040516116219190615cca565b600061194061176c565b905061194b816117a5565b1561075b5761196561195e600a54612cd3565b8290612d13565b905061198161197a61197561075e565b612cd3565b8290612d20565b905061075b81612cbe565b60008060008060008061199d612d2e565b9350935093509350804210156119f05760019450838311156119d45781810382420385850302816119ca57fe5b04840195506119eb565b81810382420384860302816119e557fe5b04840395505b6119f8565b600094508295505b505050509091565b6000611a0f821515600461149f565b82611a1c57506000610744565b816001840381611a2857fe5b046001019050610744565b611a47816001600160401b031660c061144f565b611a5b836001600160401b0316608061144f565b611a6f856001600160401b0316604061144f565b611a83876001600160401b0316600061144f565b1717176009556040517f1835882ee7a34ac194f717a35e09bb1d24c82a3b9d854ab6c9749525b714cdf290611abf908690869086908690615f06565b60405180910390a150505050565b60007f00000000000000000000000000000000000000000000000000000000000000007f00000000000000000000000000000000000000000000000000000000000000007f0000000000000000000000000000000000000000000000000000000000000000611b3a612d85565b30604051602001611b4f959493929190615d49565b60405160208183030381529060405280519060200120905090565b611b7d64e8d4a5100082101560cb61149f565b611b9367016345785d8a000082111560ca61149f565b600854611ba2908260c0611424565b6008556040517fa9ba3ffe0b6c366b81232caab38605a0699ad5398d6cce76f91ee809e322dafc90611621908390615ced565b6000828201610a0d848210158361149f565b6000611bf1610b57565b90506000611bfd610f1e565b6001600160a01b031663b05f8e4883866040518363ffffffff1660e01b8152600401611c2a929190615d8e565b60806040518083038186803b158015611c4257600080fd5b505afa158015611c56573d6000803e3d6000fd5b505050506040513d601f19601f82011682018060405250810190611c7a9190615af1565b604051630639cdb560e21b81529094506001600160a01b03851693506318e736d49250611cae915085908790600401615d75565b600060405180830381600087803b158015611cc857600080fd5b505af1158015611cdc573d6000803e3d6000fd5b5050505050505050565b1c6001600160401b031690565b7f000000000000000000000000000000000000000000000000000000000000000090565b610bd0818314606761149f565b6000606080611d3161162c565b15611d6957611d698789600081518110611d4757fe5b60200260200101518a600181518110611d5c57fe5b6020026020010151612d89565b611d798b8b8b8b8b8b8b8b612e3e565b9250925092505b985098509895505050505050565b60005b611d99611cf3565b81101561141f57611dd0838281518110611daf57fe5b6020026020010151838381518110611dc357fe5b6020026020010151612184565b838281518110611ddc57fe5b6020908102919091010152600101611d91565b333014611ead576000306001600160a01b0316600036604051611e13929190615bce565b6000604051808303816000865af19150503d8060008114611e50576040519150601f19603f3d011682016040523d82523d6000602084013e611e55565b606091505b505090508060008114611e6457fe5b60046000803e6000516001600160e01b0319166343adbafb60e01b8114611e8f573d6000803e3d6000fd5b506020600460003e604060205260243d03602460403e601c3d016000f35b6060611eb76116a3565b9050611ec38782611f87565b60006060611edb8c8c8c8c8c8c898d8d63ffffffff16565b5091509150611eee81848663ffffffff16565b8051601f1982018390526343adbafb603f1983015260200260231982016044820181fd5b6000908152600c602052604090205490565b6000806000806000806000611f3888612ed3565b9650611f4388612ee0565b9550611f4e88612eed565b9450611f5988612efa565b9350611f6488612f07565b9250611f6f88612f14565b9150611f7a88612f21565b9050919395979092949650565b60005b611f92611cf3565b81101561141f57611fc9838281518110611fa857fe5b6020026020010151838381518110611fbc57fe5b6020026020010151612c39565b838281518110611fd557fe5b6020908102919091010152600101611f8a565b81516000908190815b818110156120295761201f86828151811061200857fe5b602002602001015184611bd590919063ffffffff16565b9250600101611ff1565b508161203a57600092505050610a0d565b600082878302825b60ff81101561216c576000858a60008151811061205b57fe5b60200260200101510290506000600190505b868110156120af576120a561209e612098848e858151811061208b57fe5b60200260200101516113e3565b896113e3565b868c612f2d565b915060010161206d565b508394506121226120f16120d86120cf6120c9878c6113e3565b856113e3565b6103e88d612f2d565b6120eb6120e58a896113e3565b886113e3565b90611bd5565b61211c61210f6121056103e88803866113e3565b6103e88e15612f2d565b6120eb8a600101896113e3565b8b612f2d565b93508484111561214a576001858503116121455783975050505050505050610a0d565b612163565b6001848603116121635783975050505050505050610a0d565b50600101612042565b506121786101426124c6565b50505050509392505050565b6000612193821515600461149f565b826121a057506000610744565b670de0b6b3a7640000838102906121c3908583816121ba57fe5b0414600561149f565b8281816121cc57fe5b04915050610744565b6040516334171a8560e01b815260009073__$3990137a47f8abfa60e1c9480d578e6456$__906334171a859061221690600c90889088908890600401615e39565b60206040518083038186803b15801561222e57600080fd5b505af4158015612242573d6000803e3d6000fd5b505050506040513d601f19601f8201168201806040525081019061151091906159e5565b6060808861227561064e610f1e565b612280610674610b57565b606061228a6116a3565b90506122968882611f87565b60006060806122ab8e8e8e8e8e8e8a8f611d24565b9250925092506122bb8d84612f4d565b6122c58285611d8e565b6122cf8185611d8e565b909550935050505b5097509795505050505050565b60006060806122fa8789600081518110611d4757fe5b611d798b8b8b8b8b8b8b8b612f57565b60005b612315611cf3565b81101561141f5761234c83828151811061232b57fe5b602002602001015183838151811061233f57fe5b6020026020010151612fb0565b83828151811061235857fe5b602090810291909101015260010161230d565b60008061237b8560200151612ffe565b9050600061238c8660400151612ffe565b905060008651600181111561239d57fe5b1415612403576123b08660600151613023565b60608701526123bf8583613044565b94506123cb8482613044565b93506123db866060015183613044565b606087015260006123ed878787613050565b90506123f98183613089565b9350505050610a0d565b61240d8583613044565b94506124198482613044565b9350612429866060015182613044565b6060870152600061243b878787613095565b905061244781846130c4565b90506123f9816130d0565b600061245d826125d1565b80156107445750600061246e6117b2565b6001600160a01b0316141592915050565b610a4661249261248d612603565b6130f6565b612593565b60006124a28261262c565b80156107445750600061246e6117d6565b610a466124c161248d61265e565b6125b5565b62461bcd60e51b6000908152602060045260076024526642414c23000030600a808404818106603090810160081b95839006959095019082900491820690940160101b939093010160c81b604452606490fd5b6000612523610f1e565b6001600160a01b031663aaabadc56040518163ffffffff1660e01b815260040160206040518083038186803b15801561255b57600080fd5b505afa15801561256f573d6000803e3d6000fd5b505050506040513d601f19601f820116820180604052508101906108ba9190615857565b6000806125a76125a16117b2565b84613103565b9150915061141f82826131d4565b6000806125c36125a16117d6565b9150915061141f8282613240565b7f00000000000000000000000000000000000000000000000000000000000000006001600160a01b0390811691161490565b600d5490565b6000806000612617846132a0565b9250612622846132ac565b9395909450915050565b7f00000000000000000000000000000000000000000000000000000000000000006001600160a01b0390811691161490565b600e5490565b600061266e611acd565b82604051602001610eb7929190615bde565b6060808861268f61064e610f1e565b61269a610674610b57565b60606126a46116a3565b90506126ae61075e565b61275457600060606126c38d8d8d868b6132cc565b915091506126d8620f424083101560cc61149f565b6126e66000620f424061335b565b6126f58b620f4240840361335b565b6126ff818461230a565b80612708611cf3565b6001600160401b038111801561271d57600080fd5b50604051908082528060200260200182016040528015612747578160200160208202803683370190505b50955095505050506122d7565b61275e8882611f87565b60006060806127738e8e8e8e8e8e8a8f6122e4565b9250925092506127838c8461335b565b61278d828561230a565b6127978185611d8e565b90955093506122d7915050565b6127b081824242611a33565b7fa0d01593e47e69d07e0ccd87bece09411e07dd1ed40ca8f2e7af2976542a0233816040516116219190615ced565b6002815110156127ee5761075b565b6000816000815181106127fd57fe5b602002602001015190506000600190505b825181101561141f57600083828151811061282557fe5b6020026020010151905061284e816001600160a01b0316846001600160a01b031610606561149f565b915060010161280e565b60006128626117b2565b6001600160a01b031614610a465760008061288361287e612603565b6132ac565b9150915080421115610bd057610bd082612593565b60006128a26117d6565b6001600160a01b031614610a46576000806128be61287e61265e565b9150915080421115610bd057610bd0826125b5565b61141f81841080156128e457508183105b606461149f565b60006128f78583611f87565b612918866060015183858151811061290b57fe5b6020026020010151613044565b6060870152600061292b87878787613365565b905061294a8184878151811061293d57fe5b60200260200101516130c4565b9050612955816130d0565b979650505050505050565b600061296f8660600151613023565b606087015261297e8583611f87565b612992866060015183868151811061290b57fe5b606087015260006129a58787878761339d565b9050612955818486815181106129b757fe5b6020026020010151613089565b600073ba1ba1ba1ba1ba1ba1ba1ba1ba1ba1ba1ba1ba1b6129e3610efa565b6001600160a01b0316141580156129fe57506129fe836133c0565b15612a2657612a0b610efa565b6001600160a01b0316336001600160a01b0316149050610744565b612a2e612519565b6001600160a01b0316639be2a8848484306040518463ffffffff1660e01b8152600401612a5d93929190615cf6565b60206040518083038186803b158015612a7557600080fd5b505afa158015612a89573d6000803e3d6000fd5b505050506040513d601f19601f82011682018060405250810190612aad9190615771565b9050610744565b60606000612ac0611cf3565b90506060816001600160401b0381118015612ada57600080fd5b50604051908082528060200260200182016040528015612b04578160200160208202803683370190505b5090508115612b3357612b156133fc565b81600081518110612b2257fe5b602002602001018181525050612b3c565b91506107309050565b6001821115612b3357612b4d613420565b81600181518110612b5a57fe5b6020026020010181815250506002821115612b3357612b77613444565b81600281518110612b8457fe5b6020026020010181815250506003821115612b3357612ba1613468565b81600381518110612bae57fe5b6020026020010181815250506004821115612b3357612bcb61348c565b81600481518110612bd857fe5b60200260200101818152505091505090565b6000612bf582612452565b15612c1157612c0a612c05612603565b6132a0565b9050610e2e565b612c1a82612497565b15612c2a57612c0a612c0561265e565b50670de0b6b3a7640000610e2e565b6000828202612c538415806114005750838583816113fd57fe5b670de0b6b3a764000090049392505050565b600082821c623fffff16621fffff8113612c7f5780611510565b623fffff19179392505050565b1c637fffffff1690565b1c6103ff1690565b1c60019081161490565b6000612cb7848411158361149f565b5050900390565b600854612ccd90826000611484565b60085550565b600080612cdf836134b0565b90506000808213612cf857652d79883d20008203612d02565b652d79883d200082015b655af3107a40009005949350505050565b6000610a0d83838361350d565b6000610a0d8383601661350d565b600080600080612d4a6000600954611ce690919063ffffffff16565b600954909450612d5b906040611ce6565b600954909350612d6c906080611ce6565b600954909250612d7d9060c0611ce6565b905090919293565b4690565b6000612d9361176c565b90506000612d9f61198c565b509050612dab826117a5565b8015612db657508443115b15612e3757600080612dd2838787612dcd8861177e565b613524565b915091506000612de185611798565b90506000612dee8661178b565b90506000612e0782848787612e028c611772565b613559565b9050808314612e3157612e1a87826135b0565b9650612e2687426135be565b9650612e3187612cbe565b50505050505b5050505050565b6000606080612e4b61162c565b15612e6e57612e5a88876135cc565b9050612e6988826114396136b8565b612eb9565b612e76611cf3565b6001600160401b0381118015612e8b57600080fd5b50604051908082528060200260200182016040528015612eb5578160200160208202803683370190505b5090505b612ec4888686613723565b9093509150611d80888361378f565b60006107448260ea612c65565b60006107448260b56137be565b600061074482609f612c65565b600061074482606a6137be565b6000610744826054612c65565b600061074482601f6137be565b60006107448282612c8c565b600081612f4357612f3e84846137f1565b611510565b6115108484611a00565b610bd08282613811565b6000606080612f646118da565b6060612f7089886135cc565b9050612f7f89826114396136b8565b60006060612f8e8b89896138cd565b91509150612f9c8b82613926565b909d909c50909a5098505050505050505050565b6000612fbf821515600461149f565b82612fcc57506000610744565b670de0b6b3a764000083810290612fe6908583816121ba57fe5b826001820381612ff257fe5b04600101915050610744565b60008061300a83613933565b9050600061301784612bea565b90506115108282612c39565b600080613038613031610bd4565b8490613a32565b9050610a0d8382611439565b6000610a0d8383612c39565b600061306761305d611cf3565b60021460d261149f565b6060600080613077878787613a6e565b9250925092506129558784848461339d565b6000610a0d8383612184565b60006130a261305d611cf3565b60606000806130b2878787613a6e565b92509250925061295587848484613365565b6000610a0d8383612fb0565b60006107446130ef6130e0610bd4565b670de0b6b3a764000090611439565b8390612fb0565b6000610744826080611ce6565b600080836001600160a01b031663679aefce6040518163ffffffff1660e01b815260040160206040518083038186803b15801561313f57600080fd5b505afa158015613153573d6000803e3d6000fd5b505050506040513d601f19601f8201168201806040525081019061317791906159e5565b905061318b600160801b821061014961149f565b6131a18342016001600160401b031660c061144f565b6131b5846001600160401b0316608061144f565b6131c9836001600160801b0316600061144f565b171791509250929050565b81600d819055507f00000000000000000000000000000000000000000000000000000000000000006001600160a01b03167fc1a224b14823b63c7711127f125fbf592434682f38881ebb61408747a303affc826040516132349190615ced565b60405180910390a25050565b81600e819055507f00000000000000000000000000000000000000000000000000000000000000006001600160a01b03167fc1a224b14823b63c7711127f125fbf592434682f38881ebb61408747a303affc826040516132349190615ced565b60006107448282613b2f565b6000806132b8836130f6565b91506132c58360c0611ce6565b9050915091565b600060606132d86118da565b60006132e384613b3c565b90506132fe60008260028111156132f657fe5b1460ce61149f565b606061330985613b52565b90506133188151610bf6611cf3565b6133228187611f87565b600061332c61198c565b509050600061333d82846001611fe8565b90508061334a8184613b68565b9b929a509198505050505050505050565b610bd08282613b73565b60006133918560a001518560008151811061337c57fe5b602002602001015186600181518110611d5c57fe5b610fdd85858585613c01565b60006133b48560a001518560008151811061337c57fe5b610fdd85858585613c2b565b60006133d2632f1a0bc960e01b610e82565b8214806133ed57506133ea637587926b60e11b610e82565b82145b80610744575061074482613c55565b7f000000000000000000000000000000000000000000000000000000000000000090565b7f000000000000000000000000000000000000000000000000000000000000000090565b7f000000000000000000000000000000000000000000000000000000000000000090565b7f000000000000000000000000000000000000000000000000000000000000000090565b7f000000000000000000000000000000000000000000000000000000000000000090565b60006134c060008313606461149f565b670c7d713b49da0000821380156134de5750670f43fc2c04ee000082125b1561350457670de0b6b3a76400006134f583613c87565b816134fc57fe5b059050610e2e565b612c0a82613da5565b623fffff828116821b90821b198416179392505050565b6000806000613534878787614144565b905061354281878787614203565b915061354d81612cd3565b92505094509492505050565b6000806135758585854261356c8b611f12565b9392919061422e565b905060784288900310158061358a5786613593565b61359387614280565b6000818152600c6020526040902092909255509695505050505050565b6000610a0d8383604b61428d565b6000610a0d8383602c61429d565b6060806135d7611cf3565b6001600160401b03811180156135ec57600080fd5b50604051908082528060200260200182016040528015613616578160200160208202803683370190505b50905082613625579050610744565b6000808560008151811061363557fe5b602002602001015190506000600190505b61364e611cf3565b81101561368557600087828151811061366357fe5b602002602001015190508281111561367c578193508092505b50600101613646565b50613697600b5487600a5485896142af565b8383815181106136a357fe5b60209081029190910101525090949350505050565b60005b6136c3611cf3565b81101561371d576136fe8482815181106136d957fe5b60200260200101518483815181106136ed57fe5b60200260200101518463ffffffff16565b84828151811061370a57fe5b60209081029190910101526001016136bb565b50505050565b60006060600061373284613b3c565b9050600081600281111561374257fe5b141561375c57613752868561432f565b9250925050613787565b600181600281111561376a57fe5b141561377a5761375286856143f9565b61375286868661442b565b505b935093915050565b61379c82826114396136b8565b60006137a661198c565b50905061141f6137b882856001611fe8565b82613b68565b600082821c661fffffffffffff16660fffffffffffff81136137e05780611510565b661fffffffffffff19179392505050565b6000613800821515600461149f565b81838161380957fe5b049392505050565b6138286001600160a01b038316151561019b61149f565b6138348260008361141f565b6001600160a01b03821660009081526020819052604090205461385a90826101a1612ca8565b6001600160a01b03831660009081526020819052604090205560025461388090826144a7565b6002556040516000906001600160a01b038416907fddf252ad1be2c89b69c2b068fc378daa952ba7f163c4a11628f55a4df523b3ef906138c1908590615ced565b60405180910390a35050565b6000606060006138dc84613b3c565b905060018160028111156138ec57fe5b14156138fd576137528686866144b5565b600281600281111561390b57fe5b141561391b57613752868561451f565b6137856101366124c6565b61379c8282611bd56136b8565b600061393e826125d1565b1561394b57612c0a6133fc565b6139548261262c565b1561396157612c0a613420565b7f00000000000000000000000000000000000000000000000000000000000000006001600160a01b0316826001600160a01b031614156139a357612c0a613444565b7f00000000000000000000000000000000000000000000000000000000000000006001600160a01b0316826001600160a01b031614156139e557612c0a613468565b7f00000000000000000000000000000000000000000000000000000000000000006001600160a01b0316826001600160a01b03161415613a2757612c0a61348c565b610e2e6101356124c6565b6000828202613a4c8415806114005750838583816113fd57fe5b80613a5b576000915050610744565b670de0b6b3a76400006000198201612ff2565b60408051600280825260608281019093526000918291816020016020820280368337019050509250613aa386602001516125d1565b15613ae95760009150600190508483600081518110613abe57fe5b6020026020010181815250508383600181518110613ad857fe5b602002602001018181525050613b26565b60009050600191508383600081518110613aff57fe5b6020026020010181815250508483600181518110613b1957fe5b6020026020010181815250505b93509350939050565b1c6001600160801b031690565b60008180602001905181019061074491906158c0565b606081806020019051810190610a0d9190615985565b600a91909155600b55565b613b7f6000838361141f565b600254613b8c9082611bd5565b6002556001600160a01b038216600090815260208190526040902054613bb29082611bd5565b6001600160a01b0383166000818152602081905260408082209390935591519091907fddf252ad1be2c89b69c2b068fc378daa952ba7f163c4a11628f55a4df523b3ef906138c1908590615ced565b6000613c0b6118da565b6000613c1561198c565b5090506000612955828787878b606001516145b3565b6000613c356118da565b6000613c3f61198c565b5090506000612955828787878b6060015161466b565b6000613c67631c74c91760e11b610e82565b8214806107445750613c7f6350dd6ed960e01b610e82565b909114919050565b670de0b6b3a7640000026000806a0c097ce7bc90715b34b9f160241b808401906ec097ce7bc90715b34b9f0fffffffff1985010281613cc257fe5b05905060006a0c097ce7bc90715b34b9f160241b82800205905081806a0c097ce7bc90715b34b9f160241b81840205915060038205016a0c097ce7bc90715b34b9f160241b82840205915060058205016a0c097ce7bc90715b34b9f160241b82840205915060078205016a0c097ce7bc90715b34b9f160241b82840205915060098205016a0c097ce7bc90715b34b9f160241b828402059150600b8205016a0c097ce7bc90715b34b9f160241b828402059150600d8205016a0c097ce7bc90715b34b9f160241b828402059150600f826002919005919091010295945050505050565b6000670de0b6b3a7640000821215613de157613dd7826a0c097ce7bc90715b34b9f160241b81613dd157fe5b05613da5565b6000039050610e2e565b60007e1600ef3172e58d2e933ec884fde10064c63b5372d805e203c00000000000008312613e3257770195e54c5dd42177f53a27172fa9ec630262827000000000830592506806f05b59d3b2000000015b73011798004d755d3c8bc8e03204cf44619e0000008312613e6a576b1425982cf597cd205cef7380830592506803782dace9d9000000015b606492830292026e01855144814a7ff805980ff00840008312613eb2576e01855144814a7ff805980ff008400068056bc75e2d63100000840205925068ad78ebc5ac62000000015b6b02df0ab5a80a22c61ab5a7008312613eed576b02df0ab5a80a22c61ab5a70068056bc75e2d6310000084020592506856bc75e2d631000000015b693f1fce3da636ea5cf8508312613f2457693f1fce3da636ea5cf85068056bc75e2d631000008402059250682b5e3af16b18800000015b690127fa27722cc06cc5e28312613f5b57690127fa27722cc06cc5e268056bc75e2d6310000084020592506815af1d78b58c400000015b68280e60114edb805d038312613f905768280e60114edb805d0368056bc75e2d631000008402059250680ad78ebc5ac6200000015b680ebc5fb417461211108312613fbb57680ebc5fb4174612111068056bc75e2d631000009384020592015b6808f00f760a4b2db55d8312613ff0576808f00f760a4b2db55d68056bc75e2d6310000084020592506802b5e3af16b1880000015b6806f5f17757889379378312614025576806f5f177578893793768056bc75e2d63100000840205925068015af1d78b58c40000015b6806248f33704b2866038312614059576806248f33704b28660368056bc75e2d63100000840205925067ad78ebc5ac620000015b6805c548670b9510e7ac831261408d576805c548670b9510e7ac68056bc75e2d6310000084020592506756bc75e2d6310000015b600068056bc75e2d63100000840168056bc75e2d6310000080860302816140b057fe5b059050600068056bc75e2d63100000828002059050818068056bc75e2d63100000818402059150600382050168056bc75e2d63100000828402059150600582050168056bc75e2d63100000828402059150600782050168056bc75e2d63100000828402059150600982050168056bc75e2d63100000828402059150600b820501600202606485820105979650505050505050565b60008061415c85614155868661470d565b6001611fe8565b90506103e86002860204600061417c8361417681856113e3565b90611439565b9050600061419786614191856002028a6113e3565b90612c39565b905060006141c06141a88489612c39565b6141766141b98a614191898d6113e3565b8590611bd5565b905060006141e96141d1858b612c39565b6141766141e28c6141918a8f6113e3565b8690611bd5565b90506141f58282612fb0565b9a9950505050505050505050565b6000806142136141e28786613a32565b9050600061422082612cd3565b939093039695505050505050565b60008061423a87612f21565b83039050600081870261424c89612ee0565b019050600082870261425d8a612efa565b019050600083870261426e8b612f14565b0190506141f589848a858b868c614767565b60006107448260016147c7565b6103ff811b1992909216911b1790565b637fffffff811b1992909216911b1790565b6000806142be878787876147cf565b9050808685815181106142cd57fe5b6020026020010151116142e4576000915050610fdd565b6000818786815181106142f357fe5b6020026020010151039050614323670de0b6b3a764000061431d8684612c3990919063ffffffff16565b90612184565b98975050505050505050565b6000606061433b6118da565b60008061434785614978565b9150915061435f614356611cf3565b8210606461149f565b6060614369611cf3565b6001600160401b038111801561437e57600080fd5b506040519080825280602002602001820160405280156143a8578160200160208202803683370190505b50905060006143b561198c565b5090506143d4818985876143c761075e565b6143cf610bd4565b61499a565b8284815181106143e057fe5b6020908102919091010152509196919550909350505050565b60006060600061440884614ab6565b9050606061441e868361441961075e565b614acc565b9196919550909350505050565b600060606144376118da565b6060600061444485614b67565b915091506144558251610bf6611cf3565b61445f8287611f87565b600061446961198c565b5090506000614489828a8661447c61075e565b614484610bd4565b614b7f565b90506144998382111560cf61149f565b989297509195505050505050565b6000610a0d83836001612ca8565b600060608060006144c585614b67565b915091506144db6144d4611cf3565b8351611d17565b6144e58287611f87565b60006144ef61198c565b509050600061450f828a8661450261075e565b61450a610bd4565b614e13565b90506144998382101560d061149f565b6000606060008061452f85614978565b9150915061453e614356611cf3565b6060614548611cf3565b6001600160401b038111801561455d57600080fd5b50604051908082528060200260200182016040528015614587578160200160208202803683370190505b509050600061459461198c565b5090506143d4818985876145a661075e565b6145ae610bd4565b615089565b6000806145c287876001611fe8565b90506145ea838786815181106145d457fe5b602002602001015161143990919063ffffffff16565b8685815181106145f657fe5b6020026020010181815250506000614610888884896147cf565b90508387868151811061461f57fe5b60200260200101510187868151811061463457fe5b60200260200101818152505061432360016120eb89898151811061465457fe5b60200260200101518461143990919063ffffffff16565b60008061467a87876001611fe8565b90506146a28387878151811061468c57fe5b6020026020010151611bd590919063ffffffff16565b8686815181106146ae57fe5b60200260200101818152505060006146c8888884886147cf565b9050838787815181106146d757fe5b6020026020010151038787815181106146ec57fe5b6020026020010181815250506143236001614176838a89815181106145d457fe5b6040805160028082526060808301845292602083019080368337019050509050828160008151811061473b57fe5b602002602001018181525050818160018151811061475557fe5b60200260200101818152505092915050565b6000614773828261144f565b61477e84601f615166565b614789866054615177565b61479488606a615166565b61479f8a609f615177565b6147aa8c60b5615166565b6147b58e60ea615177565b17171717171798975050505050505050565b016103ff1690565b6000808451860290506000856000815181106147e757fe5b60200260200101519050600086518760008151811061480257fe5b60200260200101510290506000600190505b875181101561485b5761484061483a614833848b858151811061208b57fe5b8a516113e3565b886137f1565b915061485188828151811061200857fe5b9250600101614814565b5086858151811061486857fe5b602002602001015182039150600061488087886113e3565b905060006148ac6148a061489884610ae089886113e3565b6103e86113e3565b8a898151811061208b57fe5b905060006148c06141e26148988b896137f1565b90506000806148dc6148d28686611bd5565b610ae08d86611bd5565b905060005b60ff81101561495c578192506149116148fe866120eb85866113e3565b610ae08e614176886120eb8860026113e3565b91508282111561493a57600183830311614935575097506115109650505050505050565b614954565b600182840311614954575097506115109650505050505050565b6001016148e1565b506149686101426124c6565b5050505050505050949350505050565b6000808280602001905181019061498f919061594f565b909590945092505050565b6000806149a988886001611fe8565b905060006149cb826149c5876149bf818b611439565b90612fb0565b90613a32565b905060006149db8a8a848b6147cf565b905060006149ef828b8b815181106145d457fe5b90506000805b8b51811015614a2e57614a248c8281518110614a0d57fe5b602002602001015183611bd590919063ffffffff16565b91506001016149f5565b506000614a57828d8d81518110614a4157fe5b602002602001015161218490919063ffffffff16565b90506000614a6482615184565b90506000614a728583613a32565b90506000614a808683611439565b9050614aa1614a9a83670de0b6b3a76400008e9003612c39565b8290611bd5565b99505050505050505050509695505050505050565b600081806020019051810190610a0d9190615922565b60606000614ada8484612184565b9050606085516001600160401b0381118015614af557600080fd5b50604051908082528060200260200182016040528015614b1f578160200160208202803683370190505b50905060005b8651811015614b5d57614b3e838883815181106116e857fe5b828281518110614b4a57fe5b6020908102919091010152600101614b25565b5095945050505050565b606060008280602001905181019061498f91906158dc565b600080805b8651811015614ba657614b9c878281518110614a0d57fe5b9150600101614b84565b50606085516001600160401b0381118015614bc057600080fd5b50604051908082528060200260200182016040528015614bea578160200160208202803683370190505b5090506000805b8851811015614cb1576000614c22858b8481518110614c0c57fe5b6020026020010151612fb090919063ffffffff16565b9050614c5e8a8381518110614c3357fe5b60200260200101516149bf8b8581518110614c4a57fe5b60200260200101518d86815181106145d457fe5b848381518110614c6a57fe5b602002602001018181525050614ca6614c9f82868581518110614c8957fe5b6020026020010151613a3290919063ffffffff16565b8490611bd5565b925050600101614bf1565b50606088516001600160401b0381118015614ccb57600080fd5b50604051908082528060200260200182016040528015614cf5578160200160208202803683370190505b50905060005b8951811015614dc0576000848281518110614d1257fe5b6020026020010151841115614d79576000614d3b614d2f86615184565b8d85815181106116e857fe5b90506000614d4f828d86815181106145d457fe5b9050614d70614d6982670de0b6b3a76400008d9003612fb0565b8390611bd5565b92505050614d90565b898281518110614d8557fe5b602002602001015190505b614da0818c84815181106145d457fe5b838381518110614dac57fe5b602090810291909101015250600101614cfb565b506000614dcf8b8b6001611fe8565b90506000614ddf8c846000611fe8565b90506000614ded8284612184565b9050614e02614dfb82615184565b8b90613a32565b9d9c50505050505050505050505050565b600080805b8651811015614e3a57614e30878281518110614a0d57fe5b9150600101614e18565b50606085516001600160401b0381118015614e5457600080fd5b50604051908082528060200260200182016040528015614e7e578160200160208202803683370190505b5090506000805b8851811015614f12576000614ea0858b8481518110614a4157fe5b9050614edc8a8381518110614eb157fe5b602002602001015161431d8b8581518110614ec857fe5b60200260200101518d868151811061468c57fe5b848381518110614ee857fe5b602002602001018181525050614f07614c9f828685815181106116e857fe5b925050600101614e85565b50606088516001600160401b0381118015614f2c57600080fd5b50604051908082528060200260200182016040528015614f56578160200160208202803683370190505b50905060005b895181101561501757600083858381518110614f7457fe5b60200260200101511115614fd0576000614f99614d2f86670de0b6b3a7640000611439565b90506000614fad828d86815181106145d457fe5b9050614fc7614d6982670de0b6b3a76400008d9003612c39565b92505050614fe7565b898281518110614fdc57fe5b602002602001015190505b614ff7818c848151811061468c57fe5b83838151811061500357fe5b602090810291909101015250600101614f5c565b5060006150268b8b6001611fe8565b905060006150368c846000611fe8565b905060006150448284612184565b9050670de0b6b3a76400008111156150795761506b8a670de0b6b3a763ffff198301612c39565b975050505050505050610fdd565b6000975050505050505050610fdd565b60008061509888886001611fe8565b905060006150ae826149c5876149bf818b611bd5565b905060006150be8a8a848b6147cf565b905060006150e88a8a815181106150d157fe5b60200260200101518361143990919063ffffffff16565b90506000805b8b51811015615110576151068c8281518110614a0d57fe5b91506001016150ee565b506000615123828d8d81518110614a4157fe5b9050600061513082615184565b9050600061513e8583613a32565b9050600061514c8683611439565b9050614aa1614a9a83670de0b6b3a76400008e9003612fb0565b661fffffffffffff91909116901b90565b623fffff91909116901b90565b6000670de0b6b3a7640000821061519c576000610744565b50670de0b6b3a76400000390565b604080518082019091526000808252602082015290565b803561074481615f7e565b600082601f8301126151dc578081fd5b81356151ef6151ea82615f55565b615f2f565b81815291506020808301908481018184028601820187101561521057600080fd5b60005b8481101561522f57813584529282019290820190600101615213565b505050505092915050565b600082601f83011261524a578081fd5b81516152586151ea82615f55565b81815291506020808301908481018184028601820187101561527957600080fd5b60005b8481101561522f5781518452928201929082019060010161527c565b600082601f8301126152a8578081fd5b81356001600160401b038111156152bd578182fd5b6152d0601f8201601f1916602001615f2f565b91508082528360208285010111156152e757600080fd5b8060208401602084013760009082016020015292915050565b80356002811061074457600080fd5b803561074481615fa1565b600061012080838503121561532d578182fd5b61533681615f2f565b9150506153438383615300565b815261535283602084016151c1565b602082015261536483604084016151c1565b6040820152606082013560608201526080820135608082015260a082013560a08201526153948360c084016151c1565b60c08201526153a68360e084016151c1565b60e0820152610100808301356001600160401b038111156153c657600080fd5b6153d285828601615298565b82840152505092915050565b6000602082840312156153ef578081fd5b8135610a0d81615f7e565b6000806040838503121561540c578081fd5b823561541781615f7e565b9150602083013561542781615f7e565b809150509250929050565b600080600060608486031215615446578081fd5b833561545181615f7e565b9250602084013561546181615f7e565b929592945050506040919091013590565b600080600080600080600060e0888a03121561548c578485fd5b873561549781615f7e565b965060208801356154a781615f7e565b95506040880135945060608801359350608088013560ff811681146154ca578384fd5b9699959850939692959460a0840135945060c09093013592915050565b600080604083850312156154f9578182fd5b823561550481615f7e565b946020939093013593505050565b600080600060608486031215615526578081fd5b83516001600160401b038082111561553c578283fd5b818601915086601f83011261554f578283fd5b815161555d6151ea82615f55565b80828252602080830192508086018b82838702890101111561557d578788fd5b8796505b848710156155a857805161559481615f7e565b845260019690960195928101928101615581565b5089015190975093505050808211156155bf578283fd5b506155cc8682870161523a565b925050604084015190509250925092565b600060208083850312156155ef578182fd5b82356001600160401b03811115615604578283fd5b8301601f81018513615614578283fd5b80356156226151ea82615f55565b818152838101908385016040808502860187018a1015615640578788fd5b8795505b8486101561568d5780828b03121561565a578788fd5b61566381615f2f565b61566d8b8461530f565b815282880135888201528452600195909501949286019290810190615644565b509098975050505050505050565b600060208083850312156156ad578182fd5b82356001600160401b038111156156c2578283fd5b8301601f810185136156d2578283fd5b80356156e06151ea82615f55565b818152838101908385016060808502860187018a10156156fe578788fd5b8795505b8486101561568d5780828b031215615718578788fd5b61572181615f2f565b61572b8b8461530f565b81528288013588820152604080840135908201528452600195909501949286019290810190615702565b600060208284031215615766578081fd5b8135610a0d81615f93565b600060208284031215615782578081fd5b8151610a0d81615f93565b600080600080600080600060e0888a0312156157a7578081fd5b8735965060208801356157b981615f7e565b955060408801356157c981615f7e565b945060608801356001600160401b03808211156157e4578283fd5b6157f08b838c016151cc565b955060808a0135945060a08a0135935060c08a0135915080821115615813578283fd5b506158208a828b01615298565b91505092959891949750929550565b600060208284031215615840578081fd5b81356001600160e01b031981168114610a0d578182fd5b600060208284031215615868578081fd5b8151610a0d81615f7e565b60008060408385031215615885578182fd5b823561589081615f7e565b915060208301356001600160401b038111156158aa578182fd5b6158b685828601615298565b9150509250929050565b6000602082840312156158d1578081fd5b8151610a0d81615fa1565b6000806000606084860312156158f0578081fd5b83516158fb81615fa1565b60208501519093506001600160401b03811115615916578182fd5b6155cc8682870161523a565b60008060408385031215615934578182fd5b825161593f81615fa1565b6020939093015192949293505050565b600080600060608486031215615963578081fd5b835161596e81615fa1565b602085015160409095015190969495509392505050565b60008060408385031215615997578182fd5b82516159a281615fa1565b60208401519092506001600160401b038111156159bd578182fd5b6158b68582860161523a565b6000602082840312156159da578081fd5b8135610a0d81615fa1565b6000602082840312156159f6578081fd5b5051919050565b60008060008060808587031215615a12578182fd5b84356001600160401b0380821115615a28578384fd5b615a348883890161531a565b95506020870135915080821115615a49578384fd5b50615a56878288016151cc565b949794965050505060408301359260600135919050565b600080600060608486031215615a81578081fd5b83356001600160401b03811115615a96578182fd5b615aa28682870161531a565b9660208601359650604090950135949350505050565b600060208284031215615ac9578081fd5b5035919050565b60008060408385031215615ae2578182fd5b50508035926020909101359150565b60008060008060808587031215615b06578182fd5b8451935060208501519250604085015191506060850151615b2681615f7e565b939692955090935050565b6000815180845260208085019450808401835b83811015615b6057815187529582019590820190600101615b44565b509495945050505050565b60008151808452815b81811015615b9057602081850181015186830182015201615b74565b81811115615ba15782602083870101525b50601f01601f19169290920160200192915050565b9182526001600160e01b031916602082015260240190565b6000828483379101908152919050565b61190160f01b81526002810192909252602282015260420190565b6001600160a01b0391909116815260200190565b6020808252825182820181905260009190848201906040850190845b81811015615c4e5783516001600160a01b031683529284019291840191600101615c29565b50909695505050505050565b6020808252825182820181905260009190848201906040850190845b81811015615c4e57835183529284019291840191600101615c76565b600060208252610a0d6020830184615b31565b600060408252615cb86040830185615b31565b8281036020840152610fdd8185615b31565b901515815260200190565b92151583526020830191909152604082015260600190565b90815260200190565b9283526001600160a01b03918216602084015216604082015260600190565b9586526001600160a01b0394851660208701529290931660408501526060840152608083019190915260a082015260c00190565b9485526020850193909352604084019190915260608301526001600160a01b0316608082015260a00190565b6000838252604060208301526115106040830184615b6b565b9182526001600160a01b0316602082015260400190565b93845260ff9290921660208401526040830152606082015260800190565b968752602087019590955260408601939093526060850191909152608084015260a083015260c082015260e00190565b9485526020850193909352604084019190915260608301521515608082015260a00190565b83815260608101615e2884615f74565b602082019390935260400152919050565b84815260808101615e4985615f74565b84602083015283604083015282606083015295945050505050565b838152825160a0820190615e7781615f74565b806020840152506020840151604083015260408401516060830152826080830152949350505050565b600060208252610a0d6020830184615b6b565b6000838252604060208301526115106040830184615b31565b9283529015156020830152604082015260600190565b918252602082015260400190565b9283526020830191909152604082015260600190565b93845260208401929092526040830152606082015260800190565b60ff91909116815260200190565b6040518181016001600160401b0381118282101715615f4d57600080fd5b604052919050565b60006001600160401b03821115615f6a578081fd5b5060209081020190565b6003811061075b57fe5b6001600160a01b038116811461075b57600080fd5b801515811461075b57600080fd5b6003811061075b57600080fdfea26469706673582212209de18559474ed08eb8e1e8ddbe85e361987879011d788d9f40db3be35612863164736f6c63430007010033c1a224b14823b63c7711127f125fbf592434682f38881ebb61408747a303affcca6c2c5b6b44b5f3f0c08f0e28e5b6deda1cb38c3fe1113e8031d926c1e8c6d0",
			"opcodes": "PUSH2 0x360 PUSH1 0x40 MSTORE PUSH32 0x6E71EDAE12B1B97F4D1F60370FEF10105FA2FAAE0126114A169C64845D6126C9 PUSH2 0x120 MSTORE CALLVALUE DUP1 ISZERO PUSH3 0x37 JUMPI PUSH1 0x0 DUP1 REVERT JUMPDEST POP PUSH1 0x40 MLOAD PUSH3 0x74D0 CODESIZE SUB DUP1 PUSH3 0x74D0 DUP4 CODECOPY DUP2 ADD PUSH1 0x40 DUP2 SWAP1 MSTORE PUSH3 0x5A SWAP2 PUSH3 0x10A1 JUMP JUMPDEST DUP1 MLOAD PUSH1 0x20 DUP3 ADD MLOAD PUSH1 0x40 DUP4 ADD MLOAD PUSH1 0x60 DUP5 ADD MLOAD PUSH1 0xC0 DUP6 ADD MLOAD PUSH1 0xE0 DUP7 ADD MLOAD PUSH2 0x100 DUP8 ADD MLOAD PUSH2 0x120 DUP9 ADD MLOAD PUSH2 0x160 DUP10 ADD MLOAD DUP6 MLOAD DUP10 SWAP1 PUSH1 0x2 EQ PUSH3 0x9B JUMPI PUSH1 0x0 PUSH3 0x9E JUMP JUMPDEST PUSH1 0x2 JUMPDEST DUP10 DUP10 DUP10 DUP11 MLOAD PUSH1 0x1 PUSH1 0x1 PUSH1 0x40 SHL SUB DUP2 GT DUP1 ISZERO PUSH3 0xB9 JUMPI PUSH1 0x0 DUP1 REVERT JUMPDEST POP PUSH1 0x40 MLOAD SWAP1 DUP1 DUP3 MSTORE DUP1 PUSH1 0x20 MUL PUSH1 0x20 ADD DUP3 ADD PUSH1 0x40 MSTORE DUP1 ISZERO PUSH3 0xE4 JUMPI DUP2 PUSH1 0x20 ADD PUSH1 0x20 DUP3 MUL DUP1 CALLDATASIZE DUP4 CALLDATACOPY ADD SWAP1 POP JUMPDEST POP PUSH1 0x40 DUP1 MLOAD DUP1 DUP3 ADD SWAP1 SWAP2 MSTORE PUSH1 0x1 DUP2 MSTORE PUSH1 0x31 PUSH1 0xF8 SHL PUSH1 0x20 DUP1 DUP4 ADD SWAP2 SWAP1 SWAP2 MSTORE CALLER PUSH1 0x80 MSTORE PUSH1 0x1 PUSH1 0x1 PUSH1 0x60 SHL SUB NOT PUSH1 0x60 DUP11 SWAP1 SHL AND PUSH1 0xA0 MSTORE DUP6 MLOAD DUP13 SWAP3 DUP13 SWAP3 DUP13 SWAP3 DUP13 SWAP3 DUP6 SWAP3 DUP6 SWAP3 DUP13 SWAP3 DUP13 SWAP3 DUP5 SWAP3 DUP4 SWAP3 SWAP2 DUP4 SWAP2 DUP7 SWAP2 PUSH3 0x143 SWAP2 PUSH1 0x3 SWAP2 DUP6 ADD SWAP1 PUSH3 0xDE9 JUMP JUMPDEST POP DUP1 MLOAD PUSH3 0x159 SWAP1 PUSH1 0x4 SWAP1 PUSH1 0x20 DUP5 ADD SWAP1 PUSH3 0xDE9 JUMP JUMPDEST POP POP PUSH1 0x5 DUP1 SLOAD PUSH1 0xFF NOT AND PUSH1 0x12 OR SWAP1 SSTORE POP DUP2 MLOAD PUSH1 0x20 SWAP3 DUP4 ADD KECCAK256 PUSH1 0xC0 MSTORE DUP1 MLOAD SWAP2 ADD KECCAK256 PUSH1 0xE0 MSTORE POP POP PUSH32 0x8B73C3C69BB8FE3D512ECC4CF759CC79239F7B179B0FFACAA9A75D522B39400F PUSH2 0x100 MSTORE POP PUSH3 0x1B8 PUSH3 0x76A700 DUP4 GT ISZERO PUSH2 0x194 PUSH3 0x833 JUMP JUMPDEST PUSH3 0x1CC PUSH3 0x278D00 DUP3 GT ISZERO PUSH2 0x195 PUSH3 0x833 JUMP JUMPDEST TIMESTAMP SWAP1 SWAP2 ADD PUSH2 0x140 DUP2 SWAP1 MSTORE ADD PUSH2 0x160 MSTORE DUP6 MLOAD PUSH3 0x1EE SWAP1 PUSH1 0x2 GT ISZERO PUSH1 0xC8 PUSH3 0x833 JUMP JUMPDEST PUSH3 0x208 PUSH3 0x1FC PUSH3 0x848 JUMP JUMPDEST DUP8 MLOAD GT ISZERO PUSH1 0xC9 PUSH3 0x833 JUMP JUMPDEST PUSH3 0x21E DUP7 PUSH3 0x84D PUSH1 0x20 SHL PUSH3 0x13D9 OR PUSH1 0x20 SHR JUMP JUMPDEST PUSH3 0x229 DUP5 PUSH3 0x859 JUMP JUMPDEST PUSH1 0x40 MLOAD PUSH4 0x9B2760F PUSH1 0xE0 SHL DUP2 MSTORE PUSH1 0x0 SWAP1 PUSH1 0x1 PUSH1 0x1 PUSH1 0xA0 SHL SUB DUP13 AND SWAP1 PUSH4 0x9B2760F SWAP1 PUSH3 0x25A SWAP1 DUP14 SWAP1 PUSH1 0x4 ADD PUSH3 0x12E7 JUMP JUMPDEST PUSH1 0x20 PUSH1 0x40 MLOAD DUP1 DUP4 SUB DUP2 PUSH1 0x0 DUP8 DUP1 EXTCODESIZE ISZERO DUP1 ISZERO PUSH3 0x275 JUMPI PUSH1 0x0 DUP1 REVERT JUMPDEST POP GAS CALL ISZERO DUP1 ISZERO PUSH3 0x28A JUMPI RETURNDATASIZE PUSH1 0x0 DUP1 RETURNDATACOPY RETURNDATASIZE PUSH1 0x0 REVERT JUMPDEST POP POP POP POP PUSH1 0x40 MLOAD RETURNDATASIZE PUSH1 0x1F NOT PUSH1 0x1F DUP3 ADD AND DUP3 ADD DUP1 PUSH1 0x40 MSTORE POP DUP2 ADD SWAP1 PUSH3 0x2B0 SWAP2 SWAP1 PUSH3 0x1088 JUMP JUMPDEST PUSH1 0x40 MLOAD PUSH4 0x3354E3E9 PUSH1 0xE1 SHL DUP2 MSTORE SWAP1 SWAP2 POP PUSH1 0x1 PUSH1 0x1 PUSH1 0xA0 SHL SUB DUP13 AND SWAP1 PUSH4 0x66A9C7D2 SWAP1 PUSH3 0x2E5 SWAP1 DUP5 SWAP1 DUP12 SWAP1 DUP12 SWAP1 PUSH1 0x4 ADD PUSH3 0x124B JUMP JUMPDEST PUSH1 0x0 PUSH1 0x40 MLOAD DUP1 DUP4 SUB DUP2 PUSH1 0x0 DUP8 DUP1 EXTCODESIZE ISZERO DUP1 ISZERO PUSH3 0x300 JUMPI PUSH1 0x0 DUP1 REVERT JUMPDEST POP GAS CALL ISZERO DUP1 ISZERO PUSH3 0x315 JUMPI RETURNDATASIZE PUSH1 0x0 DUP1 RETURNDATACOPY RETURNDATASIZE PUSH1 0x0 REVERT JUMPDEST POP POP POP POP PUSH1 0x60 SWAP11 SWAP1 SWAP11 SHL PUSH1 0x1 PUSH1 0x1 PUSH1 0x60 SHL SUB NOT AND PUSH2 0x180 MSTORE POP POP POP PUSH2 0x1A0 SWAP7 SWAP1 SWAP7 MSTORE POP PUSH3 0x352 SWAP5 POP POP POP PUSH1 0x1 DUP9 LT ISZERO SWAP2 POP PUSH2 0x12C SWAP1 POP PUSH3 0x833 JUMP JUMPDEST PUSH3 0x365 PUSH2 0x1388 DUP7 GT ISZERO PUSH2 0x12D PUSH3 0x833 JUMP JUMPDEST DUP6 MLOAD PUSH2 0x1C0 DUP2 SWAP1 MSTORE DUP7 MLOAD DUP8 SWAP1 PUSH1 0x0 SWAP1 PUSH3 0x37B JUMPI INVALID JUMPDEST PUSH1 0x20 MUL PUSH1 0x20 ADD ADD MLOAD PUSH1 0x1 PUSH1 0x1 PUSH1 0xA0 SHL SUB AND PUSH2 0x1E0 DUP2 PUSH1 0x1 PUSH1 0x1 PUSH1 0xA0 SHL SUB AND PUSH1 0x60 SHL DUP2 MSTORE POP POP DUP7 PUSH1 0x1 DUP2 MLOAD DUP2 LT PUSH3 0x3AE JUMPI INVALID JUMPDEST PUSH1 0x20 MUL PUSH1 0x20 ADD ADD MLOAD PUSH1 0x1 PUSH1 0x1 PUSH1 0xA0 SHL SUB AND PUSH2 0x200 DUP2 PUSH1 0x1 PUSH1 0x1 PUSH1 0xA0 SHL SUB AND PUSH1 0x60 SHL DUP2 MSTORE POP POP PUSH1 0x2 DUP2 GT PUSH3 0x3E4 JUMPI PUSH1 0x0 PUSH3 0x3FB JUMP JUMPDEST DUP7 PUSH1 0x2 DUP2 MLOAD DUP2 LT PUSH3 0x3F2 JUMPI INVALID JUMPDEST PUSH1 0x20 MUL PUSH1 0x20 ADD ADD MLOAD JUMPDEST PUSH1 0x60 SHL PUSH1 0x1 PUSH1 0x1 PUSH1 0x60 SHL SUB NOT AND PUSH2 0x220 MSTORE PUSH1 0x3 DUP2 GT PUSH3 0x41D JUMPI PUSH1 0x0 PUSH3 0x434 JUMP JUMPDEST DUP7 PUSH1 0x3 DUP2 MLOAD DUP2 LT PUSH3 0x42B JUMPI INVALID JUMPDEST PUSH1 0x20 MUL PUSH1 0x20 ADD ADD MLOAD JUMPDEST PUSH1 0x60 SHL PUSH1 0x1 PUSH1 0x1 PUSH1 0x60 SHL SUB NOT AND PUSH2 0x240 MSTORE PUSH1 0x4 DUP2 GT PUSH3 0x456 JUMPI PUSH1 0x0 PUSH3 0x46D JUMP JUMPDEST DUP7 PUSH1 0x4 DUP2 MLOAD DUP2 LT PUSH3 0x464 JUMPI INVALID JUMPDEST PUSH1 0x20 MUL PUSH1 0x20 ADD ADD MLOAD JUMPDEST PUSH1 0x1 PUSH1 0x1 PUSH1 0xA0 SHL SUB AND PUSH2 0x260 DUP2 PUSH1 0x1 PUSH1 0x1 PUSH1 0xA0 SHL SUB AND PUSH1 0x60 SHL DUP2 MSTORE POP POP PUSH3 0x4B0 DUP8 PUSH1 0x0 DUP2 MLOAD DUP2 LT PUSH3 0x49C JUMPI INVALID JUMPDEST PUSH1 0x20 MUL PUSH1 0x20 ADD ADD MLOAD PUSH3 0x8E5 PUSH1 0x20 SHL PUSH1 0x20 SHR JUMP JUMPDEST PUSH2 0x280 MSTORE DUP7 MLOAD PUSH3 0x4C9 SWAP1 DUP9 SWAP1 PUSH1 0x1 SWAP1 DUP2 LT PUSH3 0x49C JUMPI INVALID JUMPDEST PUSH2 0x2A0 MSTORE PUSH1 0x2 DUP2 GT PUSH3 0x4DE JUMPI PUSH1 0x0 PUSH3 0x4F0 JUMP JUMPDEST PUSH3 0x4F0 DUP8 PUSH1 0x2 DUP2 MLOAD DUP2 LT PUSH3 0x49C JUMPI INVALID JUMPDEST PUSH2 0x2C0 MSTORE PUSH1 0x3 DUP2 GT PUSH3 0x505 JUMPI PUSH1 0x0 PUSH3 0x517 JUMP JUMPDEST PUSH3 0x517 DUP8 PUSH1 0x3 DUP2 MLOAD DUP2 LT PUSH3 0x49C JUMPI INVALID JUMPDEST PUSH2 0x2E0 MSTORE PUSH1 0x4 DUP2 GT PUSH3 0x52C JUMPI PUSH1 0x0 PUSH3 0x53E JUMP JUMPDEST PUSH3 0x53E DUP8 PUSH1 0x4 DUP2 MLOAD DUP2 LT PUSH3 0x49C JUMPI INVALID JUMPDEST PUSH2 0x300 DUP2 DUP2 MSTORE POP POP PUSH1 0x0 PUSH3 0x561 DUP8 PUSH2 0x3E8 PUSH3 0x991 PUSH1 0x20 SHL PUSH3 0x13E3 OR PUSH1 0x20 SHR JUMP JUMPDEST SWAP1 POP PUSH3 0x56E DUP2 PUSH3 0x9C2 JUMP JUMPDEST POP POP POP POP POP POP POP POP POP POP POP PUSH3 0x594 DUP2 PUSH1 0x60 ADD MLOAD MLOAD PUSH1 0x2 EQ PUSH1 0xD2 PUSH3 0x833 PUSH1 0x20 SHL PUSH1 0x20 SHR JUMP JUMPDEST PUSH3 0x5BB DUP2 PUSH1 0x60 ADD MLOAD MLOAD DUP3 PUSH1 0x80 ADD MLOAD MLOAD DUP4 PUSH1 0xA0 ADD MLOAD MLOAD PUSH3 0xA01 PUSH1 0x20 SHL PUSH3 0x1407 OR PUSH1 0x20 SHR JUMP JUMPDEST PUSH1 0x0 DUP2 PUSH1 0x80 ADD MLOAD PUSH1 0x0 DUP2 MLOAD DUP2 LT PUSH3 0x5CF JUMPI INVALID JUMPDEST PUSH1 0x20 SWAP1 DUP2 MUL SWAP2 SWAP1 SWAP2 ADD ADD MLOAD PUSH1 0x1 PUSH1 0x1 PUSH1 0x60 SHL SUB NOT PUSH1 0x60 DUP3 SWAP1 SHL AND PUSH2 0x320 MSTORE SWAP1 POP PUSH1 0x1 PUSH1 0x1 PUSH1 0xA0 SHL SUB DUP2 AND ISZERO PUSH3 0x686 JUMPI PUSH1 0x0 DUP1 PUSH3 0x62D DUP4 DUP6 PUSH1 0xA0 ADD MLOAD PUSH1 0x0 DUP2 MLOAD DUP2 LT PUSH3 0x619 JUMPI INVALID JUMPDEST PUSH1 0x20 MUL PUSH1 0x20 ADD ADD MLOAD PUSH3 0xA21 PUSH1 0x20 SHL PUSH1 0x20 SHR JUMP JUMPDEST SWAP2 POP SWAP2 POP DUP2 PUSH1 0xD DUP2 SWAP1 SSTORE POP DUP4 PUSH1 0x60 ADD MLOAD PUSH1 0x0 DUP2 MLOAD DUP2 LT PUSH3 0x64A JUMPI INVALID JUMPDEST PUSH1 0x20 MUL PUSH1 0x20 ADD ADD MLOAD PUSH1 0x1 PUSH1 0x1 PUSH1 0xA0 SHL SUB AND PUSH1 0x0 DUP1 MLOAD PUSH1 0x20 PUSH3 0x7490 DUP4 CODECOPY DUP2 MLOAD SWAP2 MSTORE DUP3 PUSH1 0x40 MLOAD PUSH3 0x67B SWAP2 SWAP1 PUSH3 0x12FC JUMP JUMPDEST PUSH1 0x40 MLOAD DUP1 SWAP2 SUB SWAP1 LOG2 POP POP JUMPDEST DUP1 PUSH1 0x1 PUSH1 0x1 PUSH1 0xA0 SHL SUB AND DUP3 PUSH1 0x60 ADD MLOAD PUSH1 0x0 DUP2 MLOAD DUP2 LT PUSH3 0x6A2 JUMPI INVALID JUMPDEST PUSH1 0x20 MUL PUSH1 0x20 ADD ADD MLOAD PUSH1 0x1 PUSH1 0x1 PUSH1 0xA0 SHL SUB AND PUSH1 0x0 DUP1 MLOAD PUSH1 0x20 PUSH3 0x74B0 DUP4 CODECOPY DUP2 MLOAD SWAP2 MSTORE DUP5 PUSH1 0xA0 ADD MLOAD PUSH1 0x0 DUP2 MLOAD DUP2 LT PUSH3 0x6D5 JUMPI INVALID JUMPDEST PUSH1 0x20 MUL PUSH1 0x20 ADD ADD MLOAD PUSH1 0x40 MLOAD PUSH3 0x6EC SWAP2 SWAP1 PUSH3 0x12FC JUMP JUMPDEST PUSH1 0x40 MLOAD DUP1 SWAP2 SUB SWAP1 LOG3 PUSH1 0x0 DUP3 PUSH1 0x80 ADD MLOAD PUSH1 0x1 DUP2 MLOAD DUP2 LT PUSH3 0x708 JUMPI INVALID JUMPDEST PUSH1 0x20 SWAP1 DUP2 MUL SWAP2 SWAP1 SWAP2 ADD ADD MLOAD PUSH1 0x1 PUSH1 0x1 PUSH1 0x60 SHL SUB NOT PUSH1 0x60 DUP3 SWAP1 SHL AND PUSH2 0x340 MSTORE SWAP1 POP PUSH1 0x1 PUSH1 0x1 PUSH1 0xA0 SHL SUB DUP2 AND ISZERO PUSH3 0x7AB JUMPI PUSH1 0x0 DUP1 PUSH3 0x752 DUP4 DUP7 PUSH1 0xA0 ADD MLOAD PUSH1 0x1 DUP2 MLOAD DUP2 LT PUSH3 0x619 JUMPI INVALID JUMPDEST SWAP2 POP SWAP2 POP DUP2 PUSH1 0xE DUP2 SWAP1 SSTORE POP DUP5 PUSH1 0x60 ADD MLOAD PUSH1 0x1 DUP2 MLOAD DUP2 LT PUSH3 0x76F JUMPI INVALID JUMPDEST PUSH1 0x20 MUL PUSH1 0x20 ADD ADD MLOAD PUSH1 0x1 PUSH1 0x1 PUSH1 0xA0 SHL SUB AND PUSH1 0x0 DUP1 MLOAD PUSH1 0x20 PUSH3 0x7490 DUP4 CODECOPY DUP2 MLOAD SWAP2 MSTORE DUP3 PUSH1 0x40 MLOAD PUSH3 0x7A0 SWAP2 SWAP1 PUSH3 0x12FC JUMP JUMPDEST PUSH1 0x40 MLOAD DUP1 SWAP2 SUB SWAP1 LOG2 POP POP JUMPDEST DUP1 PUSH1 0x1 PUSH1 0x1 PUSH1 0xA0 SHL SUB AND DUP4 PUSH1 0x60 ADD MLOAD PUSH1 0x1 DUP2 MLOAD DUP2 LT PUSH3 0x7C7 JUMPI INVALID JUMPDEST PUSH1 0x20 MUL PUSH1 0x20 ADD ADD MLOAD PUSH1 0x1 PUSH1 0x1 PUSH1 0xA0 SHL SUB AND PUSH1 0x0 DUP1 MLOAD PUSH1 0x20 PUSH3 0x74B0 DUP4 CODECOPY DUP2 MLOAD SWAP2 MSTORE DUP6 PUSH1 0xA0 ADD MLOAD PUSH1 0x1 DUP2 MLOAD DUP2 LT PUSH3 0x7FA JUMPI INVALID JUMPDEST PUSH1 0x20 MUL PUSH1 0x20 ADD ADD MLOAD PUSH1 0x40 MLOAD PUSH3 0x811 SWAP2 SWAP1 PUSH3 0x12FC JUMP JUMPDEST PUSH1 0x40 MLOAD DUP1 SWAP2 SUB SWAP1 LOG3 PUSH2 0x140 DUP4 ADD MLOAD PUSH3 0x82A SWAP1 PUSH3 0xB1F JUMP JUMPDEST POP POP POP PUSH3 0x1389 JUMP JUMPDEST DUP2 PUSH3 0x844 JUMPI PUSH3 0x844 DUP2 PUSH3 0xB7D JUMP JUMPDEST POP POP JUMP JUMPDEST PUSH1 0x5 SWAP1 JUMP JUMPDEST DUP1 PUSH3 0x844 DUP2 PUSH3 0xBD0 JUMP JUMPDEST PUSH3 0x86E PUSH5 0xE8D4A51000 DUP3 LT ISZERO PUSH1 0xCB PUSH3 0x833 JUMP JUMPDEST PUSH3 0x886 PUSH8 0x16345785D8A0000 DUP3 GT ISZERO PUSH1 0xCA PUSH3 0x833 JUMP JUMPDEST PUSH3 0x8A5 DUP2 PUSH1 0xC0 PUSH1 0x8 SLOAD PUSH3 0xC5A PUSH1 0x20 SHL PUSH3 0x1424 OR SWAP1 SWAP3 SWAP2 SWAP1 PUSH1 0x20 SHR JUMP JUMPDEST PUSH1 0x8 SSTORE PUSH1 0x40 MLOAD PUSH32 0xA9BA3FFE0B6C366B81232CAAB38605A0699AD5398D6CCE76F91EE809E322DAFC SWAP1 PUSH3 0x8DA SWAP1 DUP4 SWAP1 PUSH3 0x12FC JUMP JUMPDEST PUSH1 0x40 MLOAD DUP1 SWAP2 SUB SWAP1 LOG1 POP JUMP JUMPDEST PUSH1 0x0 DUP1 DUP3 PUSH1 0x1 PUSH1 0x1 PUSH1 0xA0 SHL SUB AND PUSH4 0x313CE567 PUSH1 0x40 MLOAD DUP2 PUSH4 0xFFFFFFFF AND PUSH1 0xE0 SHL DUP2 MSTORE PUSH1 0x4 ADD PUSH1 0x20 PUSH1 0x40 MLOAD DUP1 DUP4 SUB DUP2 DUP7 DUP1 EXTCODESIZE ISZERO DUP1 ISZERO PUSH3 0x922 JUMPI PUSH1 0x0 DUP1 REVERT JUMPDEST POP GAS STATICCALL ISZERO DUP1 ISZERO PUSH3 0x937 JUMPI RETURNDATASIZE PUSH1 0x0 DUP1 RETURNDATACOPY RETURNDATASIZE PUSH1 0x0 REVERT JUMPDEST POP POP POP POP PUSH1 0x40 MLOAD RETURNDATASIZE PUSH1 0x1F NOT PUSH1 0x1F DUP3 ADD AND DUP3 ADD DUP1 PUSH1 0x40 MSTORE POP DUP2 ADD SWAP1 PUSH3 0x95D SWAP2 SWAP1 PUSH3 0x121D JUMP JUMPDEST PUSH1 0xFF AND SWAP1 POP PUSH1 0x0 PUSH3 0x97C PUSH1 0x12 DUP4 PUSH3 0xC6F PUSH1 0x20 SHL PUSH3 0x1439 OR PUSH1 0x20 SHR JUMP JUMPDEST PUSH1 0xA EXP PUSH8 0xDE0B6B3A7640000 MUL SWAP5 SWAP4 POP POP POP POP JUMP JUMPDEST PUSH1 0x0 DUP3 DUP3 MUL PUSH3 0x9B9 DUP5 ISZERO DUP1 PUSH3 0x9B1 JUMPI POP DUP4 DUP6 DUP4 DUP2 PUSH3 0x9AE JUMPI INVALID JUMPDEST DIV EQ JUMPDEST PUSH1 0x3 PUSH3 0x833 JUMP JUMPDEST SWAP1 POP JUMPDEST SWAP3 SWAP2 POP POP JUMP JUMPDEST PUSH3 0x9D0 DUP2 DUP1 TIMESTAMP DUP1 PUSH3 0xC87 JUMP JUMPDEST PUSH32 0xA0D01593E47E69D07E0CCD87BECE09411E07DD1ED40CA8F2E7AF2976542A0233 DUP2 PUSH1 0x40 MLOAD PUSH3 0x8DA SWAP2 SWAP1 PUSH3 0x12FC JUMP JUMPDEST PUSH3 0xA1C DUP3 DUP5 EQ DUP1 ISZERO PUSH3 0xA14 JUMPI POP DUP2 DUP4 EQ JUMPDEST PUSH1 0x67 PUSH3 0x833 JUMP JUMPDEST POP POP POP JUMP JUMPDEST PUSH1 0x0 DUP1 DUP4 PUSH1 0x1 PUSH1 0x1 PUSH1 0xA0 SHL SUB AND PUSH4 0x679AEFCE PUSH1 0x40 MLOAD DUP2 PUSH4 0xFFFFFFFF AND PUSH1 0xE0 SHL DUP2 MSTORE PUSH1 0x4 ADD PUSH1 0x20 PUSH1 0x40 MLOAD DUP1 DUP4 SUB DUP2 DUP7 DUP1 EXTCODESIZE ISZERO DUP1 ISZERO PUSH3 0xA5E JUMPI PUSH1 0x0 DUP1 REVERT JUMPDEST POP GAS STATICCALL ISZERO DUP1 ISZERO PUSH3 0xA73 JUMPI RETURNDATASIZE PUSH1 0x0 DUP1 RETURNDATACOPY RETURNDATASIZE PUSH1 0x0 REVERT JUMPDEST POP POP POP POP PUSH1 0x40 MLOAD RETURNDATASIZE PUSH1 0x1F NOT PUSH1 0x1F DUP3 ADD AND DUP3 ADD DUP1 PUSH1 0x40 MSTORE POP DUP2 ADD SWAP1 PUSH3 0xA99 SWAP2 SWAP1 PUSH3 0x1088 JUMP JUMPDEST SWAP1 POP PUSH3 0xAAF PUSH1 0x1 PUSH1 0x80 SHL DUP3 LT PUSH2 0x149 PUSH3 0x833 JUMP JUMPDEST PUSH3 0xAD2 DUP4 TIMESTAMP ADD PUSH1 0x1 PUSH1 0x1 PUSH1 0x40 SHL SUB AND PUSH1 0xC0 PUSH3 0xD57 PUSH1 0x20 SHL PUSH3 0x144F OR PUSH1 0x20 SHR JUMP JUMPDEST PUSH3 0xAF3 DUP5 PUSH1 0x1 PUSH1 0x1 PUSH1 0x40 SHL SUB AND PUSH1 0x80 PUSH3 0xD57 PUSH1 0x20 SHL PUSH3 0x144F OR PUSH1 0x20 SHR JUMP JUMPDEST PUSH3 0xB14 DUP4 PUSH1 0x1 PUSH1 0x1 PUSH1 0x80 SHL SUB AND PUSH1 0x0 PUSH3 0xD57 PUSH1 0x20 SHL PUSH3 0x144F OR PUSH1 0x20 SHR JUMP JUMPDEST OR OR SWAP2 POP SWAP3 POP SWAP3 SWAP1 POP JUMP JUMPDEST PUSH3 0xB4C PUSH3 0xB46 DUP3 PUSH3 0xB32 PUSH3 0xD5B JUMP JUMPDEST PUSH3 0xD61 PUSH1 0x20 SHL PUSH3 0x1453 OR SWAP1 SWAP2 SWAP1 PUSH1 0x20 SHR JUMP JUMPDEST PUSH3 0xD80 JUMP JUMPDEST PUSH32 0x3E350B41E86A8E10F804ADE6D35340D620BE35569CC75AC943E8BB14AB80EAD1 DUP2 PUSH1 0x40 MLOAD PUSH3 0x8DA SWAP2 SWAP1 PUSH3 0x1240 JUMP JUMPDEST PUSH3 0x461BCD PUSH1 0xE5 SHL PUSH1 0x0 SWAP1 DUP2 MSTORE PUSH1 0x20 PUSH1 0x4 MSTORE PUSH1 0x7 PUSH1 0x24 MSTORE PUSH7 0x42414C23000030 PUSH1 0xA DUP1 DUP5 DIV DUP2 DUP2 MOD PUSH1 0x30 SWAP1 DUP2 ADD PUSH1 0x8 SHL SWAP6 DUP4 SWAP1 MOD SWAP6 SWAP1 SWAP6 ADD SWAP1 DUP3 SWAP1 DIV SWAP2 DUP3 MOD SWAP1 SWAP5 ADD PUSH1 0x10 SHL SWAP4 SWAP1 SWAP4 ADD ADD PUSH1 0xC8 SHL PUSH1 0x44 MSTORE PUSH1 0x64 SWAP1 REVERT JUMPDEST PUSH1 0x2 DUP2 MLOAD LT ISZERO PUSH3 0xBE1 JUMPI PUSH3 0xC57 JUMP JUMPDEST PUSH1 0x0 DUP2 PUSH1 0x0 DUP2 MLOAD DUP2 LT PUSH3 0xBF1 JUMPI INVALID JUMPDEST PUSH1 0x20 MUL PUSH1 0x20 ADD ADD MLOAD SWAP1 POP PUSH1 0x0 PUSH1 0x1 SWAP1 POP JUMPDEST DUP3 MLOAD DUP2 LT ISZERO PUSH3 0xA1C JUMPI PUSH1 0x0 DUP4 DUP3 DUP2 MLOAD DUP2 LT PUSH3 0xC1B JUMPI INVALID JUMPDEST PUSH1 0x20 MUL PUSH1 0x20 ADD ADD MLOAD SWAP1 POP PUSH3 0xC4C DUP2 PUSH1 0x1 PUSH1 0x1 PUSH1 0xA0 SHL SUB AND DUP5 PUSH1 0x1 PUSH1 0x1 PUSH1 0xA0 SHL SUB AND LT PUSH1 0x65 PUSH3 0x833 PUSH1 0x20 SHL PUSH1 0x20 SHR JUMP JUMPDEST SWAP2 POP PUSH1 0x1 ADD PUSH3 0xC02 JUMP JUMPDEST POP JUMP JUMPDEST PUSH1 0x1 PUSH1 0x1 PUSH1 0x40 SHL SUB DUP2 SHL NOT SWAP3 SWAP1 SWAP3 AND SWAP2 SHL OR SWAP1 JUMP JUMPDEST PUSH1 0x0 PUSH3 0xC81 DUP4 DUP4 GT ISZERO PUSH1 0x1 PUSH3 0x833 JUMP JUMPDEST POP SWAP1 SUB SWAP1 JUMP JUMPDEST PUSH3 0xCA8 DUP2 PUSH1 0x1 PUSH1 0x1 PUSH1 0x40 SHL SUB AND PUSH1 0xC0 PUSH3 0xD57 PUSH1 0x20 SHL PUSH3 0x144F OR PUSH1 0x20 SHR JUMP JUMPDEST PUSH3 0xCC9 DUP4 PUSH1 0x1 PUSH1 0x1 PUSH1 0x40 SHL SUB AND PUSH1 0x80 PUSH3 0xD57 PUSH1 0x20 SHL PUSH3 0x144F OR PUSH1 0x20 SHR JUMP JUMPDEST PUSH3 0xCEA DUP6 PUSH1 0x1 PUSH1 0x1 PUSH1 0x40 SHL SUB AND PUSH1 0x40 PUSH3 0xD57 PUSH1 0x20 SHL PUSH3 0x144F OR PUSH1 0x20 SHR JUMP JUMPDEST PUSH3 0xD0B DUP8 PUSH1 0x1 PUSH1 0x1 PUSH1 0x40 SHL SUB AND PUSH1 0x0 PUSH3 0xD57 PUSH1 0x20 SHL PUSH3 0x144F OR PUSH1 0x20 SHR JUMP JUMPDEST OR OR OR PUSH1 0x9 SSTORE PUSH1 0x40 MLOAD PUSH32 0x1835882EE7A34AC194F717A35E09BB1D24C82A3B9D854AB6C9749525B714CDF2 SWAP1 PUSH3 0xD49 SWAP1 DUP7 SWAP1 DUP7 SWAP1 DUP7 SWAP1 DUP7 SWAP1 PUSH3 0x1305 JUMP JUMPDEST PUSH1 0x40 MLOAD DUP1 SWAP2 SUB SWAP1 LOG1 POP POP POP POP JUMP JUMPDEST SHL SWAP1 JUMP JUMPDEST PUSH1 0x8 SLOAD SWAP1 JUMP JUMPDEST PUSH1 0x0 PUSH3 0x9B9 DUP3 PUSH1 0x55 DUP6 PUSH3 0xDA5 PUSH1 0x20 SHL PUSH3 0x145D OR SWAP1 SWAP3 SWAP2 SWAP1 PUSH1 0x20 SHR JUMP JUMPDEST PUSH3 0xD9F DUP2 PUSH1 0x0 PUSH1 0x8 SLOAD PUSH3 0xDCE PUSH1 0x20 SHL PUSH3 0x1484 OR SWAP1 SWAP3 SWAP2 SWAP1 PUSH1 0x20 SHR JUMP JUMPDEST PUSH1 0x8 SSTORE POP JUMP JUMPDEST PUSH1 0x0 PUSH1 0x1 DUP3 SHL NOT DUP5 AND DUP3 DUP5 PUSH3 0xDBD JUMPI PUSH1 0x0 PUSH3 0xDC0 JUMP JUMPDEST PUSH1 0x1 JUMPDEST PUSH1 0xFF AND SWAP1 SHL OR SWAP5 SWAP4 POP POP POP POP JUMP JUMPDEST PUSH1 0x1 PUSH1 0x1 PUSH1 0xC0 SHL SUB DUP3 DUP2 AND DUP3 SHL SWAP1 DUP3 SHL NOT DUP5 AND OR SWAP4 SWAP3 POP POP POP JUMP JUMPDEST DUP3 DUP1 SLOAD PUSH1 0x1 DUP2 PUSH1 0x1 AND ISZERO PUSH2 0x100 MUL SUB AND PUSH1 0x2 SWAP1 DIV SWAP1 PUSH1 0x0 MSTORE PUSH1 0x20 PUSH1 0x0 KECCAK256 SWAP1 PUSH1 0x1F ADD PUSH1 0x20 SWAP1 DIV DUP2 ADD SWAP3 DUP3 PUSH1 0x1F LT PUSH3 0xE2C JUMPI DUP1 MLOAD PUSH1 0xFF NOT AND DUP4 DUP1 ADD OR DUP6 SSTORE PUSH3 0xE5C JUMP JUMPDEST DUP3 DUP1 ADD PUSH1 0x1 ADD DUP6 SSTORE DUP3 ISZERO PUSH3 0xE5C JUMPI SWAP2 DUP3 ADD JUMPDEST DUP3 DUP2 GT ISZERO PUSH3 0xE5C JUMPI DUP3 MLOAD DUP3 SSTORE SWAP2 PUSH1 0x20 ADD SWAP2 SWAP1 PUSH1 0x1 ADD SWAP1 PUSH3 0xE3F JUMP JUMPDEST POP PUSH3 0xE6A SWAP3 SWAP2 POP PUSH3 0xE6E JUMP JUMPDEST POP SWAP1 JUMP JUMPDEST JUMPDEST DUP1 DUP3 GT ISZERO PUSH3 0xE6A JUMPI PUSH1 0x0 DUP2 SSTORE PUSH1 0x1 ADD PUSH3 0xE6F JUMP JUMPDEST DUP1 MLOAD PUSH3 0x9BC DUP2 PUSH3 0x1373 JUMP JUMPDEST PUSH1 0x0 DUP3 PUSH1 0x1F DUP4 ADD SLT PUSH3 0xEA3 JUMPI DUP1 DUP2 REVERT JUMPDEST DUP2 MLOAD PUSH3 0xEBA PUSH3 0xEB4 DUP3 PUSH3 0x1347 JUMP JUMPDEST PUSH3 0x1320 JUMP JUMPDEST DUP2 DUP2 MSTORE SWAP2 POP PUSH1 0x20 DUP1 DUP4 ADD SWAP1 DUP5 DUP2 ADD DUP2 DUP5 MUL DUP7 ADD DUP3 ADD DUP8 LT ISZERO PUSH3 0xEDC JUMPI PUSH1 0x0 DUP1 REVERT JUMPDEST PUSH1 0x0 JUMPDEST DUP5 DUP2 LT ISZERO PUSH3 0xF08 JUMPI DUP2 MLOAD PUSH3 0xEF5 DUP2 PUSH3 0x1373 JUMP JUMPDEST DUP5 MSTORE SWAP3 DUP3 ADD SWAP3 SWAP1 DUP3 ADD SWAP1 PUSH1 0x1 ADD PUSH3 0xEDF JUMP JUMPDEST POP POP POP POP POP SWAP3 SWAP2 POP POP JUMP JUMPDEST PUSH1 0x0 DUP3 PUSH1 0x1F DUP4 ADD SLT PUSH3 0xF24 JUMPI DUP1 DUP2 REVERT JUMPDEST DUP2 MLOAD PUSH3 0xF35 PUSH3 0xEB4 DUP3 PUSH3 0x1347 JUMP JUMPDEST DUP2 DUP2 MSTORE SWAP2 POP PUSH1 0x20 DUP1 DUP4 ADD SWAP1 DUP5 DUP2 ADD DUP2 DUP5 MUL DUP7 ADD DUP3 ADD DUP8 LT ISZERO PUSH3 0xF57 JUMPI PUSH1 0x0 DUP1 REVERT JUMPDEST PUSH1 0x0 JUMPDEST DUP5 DUP2 LT ISZERO PUSH3 0xF08 JUMPI DUP2 MLOAD PUSH3 0xF70 DUP2 PUSH3 0x1373 JUMP JUMPDEST DUP5 MSTORE SWAP3 DUP3 ADD SWAP3 SWAP1 DUP3 ADD SWAP1 PUSH1 0x1 ADD PUSH3 0xF5A JUMP JUMPDEST PUSH1 0x0 DUP3 PUSH1 0x1F DUP4 ADD SLT PUSH3 0xF94 JUMPI DUP1 DUP2 REVERT JUMPDEST DUP2 MLOAD PUSH3 0xFA5 PUSH3 0xEB4 DUP3 PUSH3 0x1347 JUMP JUMPDEST DUP2 DUP2 MSTORE SWAP2 POP PUSH1 0x20 DUP1 DUP4 ADD SWAP1 DUP5 DUP2 ADD DUP2 DUP5 MUL DUP7 ADD DUP3 ADD DUP8 LT ISZERO PUSH3 0xFC7 JUMPI PUSH1 0x0 DUP1 REVERT JUMPDEST PUSH1 0x0 JUMPDEST DUP5 DUP2 LT ISZERO PUSH3 0xF08 JUMPI DUP2 MLOAD DUP5 MSTORE SWAP3 DUP3 ADD SWAP3 SWAP1 DUP3 ADD SWAP1 PUSH1 0x1 ADD PUSH3 0xFCA JUMP JUMPDEST DUP1 MLOAD DUP1 ISZERO ISZERO DUP2 EQ PUSH3 0x9BC JUMPI PUSH1 0x0 DUP1 REVERT JUMPDEST PUSH1 0x0 DUP3 PUSH1 0x1F DUP4 ADD SLT PUSH3 0x100A JUMPI DUP1 DUP2 REVERT JUMPDEST DUP2 MLOAD PUSH1 0x1 PUSH1 0x1 PUSH1 0x40 SHL SUB DUP2 GT ISZERO PUSH3 0x1020 JUMPI DUP2 DUP3 REVERT JUMPDEST PUSH1 0x20 PUSH3 0x1036 PUSH1 0x1F DUP4 ADD PUSH1 0x1F NOT AND DUP3 ADD PUSH3 0x1320 JUMP JUMPDEST SWAP3 POP DUP2 DUP4 MSTORE DUP5 DUP2 DUP4 DUP7 ADD ADD GT ISZERO PUSH3 0x104D JUMPI PUSH1 0x0 DUP1 REVERT JUMPDEST PUSH1 0x0 JUMPDEST DUP3 DUP2 LT ISZERO PUSH3 0x106D JUMPI DUP5 DUP2 ADD DUP3 ADD MLOAD DUP5 DUP3 ADD DUP4 ADD MSTORE DUP2 ADD PUSH3 0x1050 JUMP JUMPDEST DUP3 DUP2 GT ISZERO PUSH3 0x107F JUMPI PUSH1 0x0 DUP3 DUP5 DUP7 ADD ADD MSTORE JUMPDEST POP POP POP SWAP3 SWAP2 POP POP JUMP JUMPDEST PUSH1 0x0 PUSH1 0x20 DUP3 DUP5 SUB SLT ISZERO PUSH3 0x109A JUMPI DUP1 DUP2 REVERT JUMPDEST POP MLOAD SWAP2 SWAP1 POP JUMP JUMPDEST PUSH1 0x0 PUSH1 0x20 DUP3 DUP5 SUB SLT ISZERO PUSH3 0x10B3 JUMPI DUP1 DUP2 REVERT JUMPDEST DUP2 MLOAD PUSH1 0x1 PUSH1 0x1 PUSH1 0x40 SHL SUB DUP1 DUP3 GT ISZERO PUSH3 0x10CA JUMPI DUP3 DUP4 REVERT JUMPDEST DUP2 DUP5 ADD SWAP2 POP PUSH2 0x180 DUP1 DUP4 DUP8 SUB SLT ISZERO PUSH3 0x10E1 JUMPI DUP4 DUP5 REVERT JUMPDEST PUSH3 0x10EC DUP2 PUSH3 0x1320 JUMP JUMPDEST SWAP1 POP PUSH3 0x10FA DUP7 DUP5 PUSH3 0xE85 JUMP JUMPDEST DUP2 MSTORE PUSH1 0x20 DUP4 ADD MLOAD DUP3 DUP2 GT ISZERO PUSH3 0x110E JUMPI DUP5 DUP6 REVERT JUMPDEST PUSH3 0x111C DUP8 DUP3 DUP7 ADD PUSH3 0xFF9 JUMP JUMPDEST PUSH1 0x20 DUP4 ADD MSTORE POP PUSH1 0x40 DUP4 ADD MLOAD DUP3 DUP2 GT ISZERO PUSH3 0x1134 JUMPI DUP5 DUP6 REVERT JUMPDEST PUSH3 0x1142 DUP8 DUP3 DUP7 ADD PUSH3 0xFF9 JUMP JUMPDEST PUSH1 0x40 DUP4 ADD MSTORE POP PUSH1 0x60 DUP4 ADD MLOAD DUP3 DUP2 GT ISZERO PUSH3 0x115A JUMPI DUP5 DUP6 REVERT JUMPDEST PUSH3 0x1168 DUP8 DUP3 DUP7 ADD PUSH3 0xE92 JUMP JUMPDEST PUSH1 0x60 DUP4 ADD MSTORE POP PUSH1 0x80 DUP4 ADD MLOAD DUP3 DUP2 GT ISZERO PUSH3 0x1180 JUMPI DUP5 DUP6 REVERT JUMPDEST PUSH3 0x118E DUP8 DUP3 DUP7 ADD PUSH3 0xF13 JUMP JUMPDEST PUSH1 0x80 DUP4 ADD MSTORE POP PUSH1 0xA0 DUP4 ADD MLOAD DUP3 DUP2 GT ISZERO PUSH3 0x11A6 JUMPI DUP5 DUP6 REVERT JUMPDEST PUSH3 0x11B4 DUP8 DUP3 DUP7 ADD PUSH3 0xF83 JUMP JUMPDEST PUSH1 0xA0 DUP4 ADD MSTORE POP PUSH1 0xC0 DUP4 DUP2 ADD MLOAD SWAP1 DUP3 ADD MSTORE PUSH1 0xE0 DUP1 DUP5 ADD MLOAD SWAP1 DUP3 ADD MSTORE PUSH2 0x100 DUP1 DUP5 ADD MLOAD SWAP1 DUP3 ADD MSTORE PUSH2 0x120 DUP1 DUP5 ADD MLOAD SWAP1 DUP3 ADD MSTORE PUSH2 0x140 SWAP2 POP PUSH3 0x11F7 DUP7 DUP4 DUP6 ADD PUSH3 0xFE8 JUMP JUMPDEST DUP3 DUP3 ADD MSTORE PUSH2 0x160 SWAP2 POP PUSH3 0x120E DUP7 DUP4 DUP6 ADD PUSH3 0xE85 JUMP JUMPDEST SWAP2 DUP2 ADD SWAP2 SWAP1 SWAP2 MSTORE SWAP5 SWAP4 POP POP POP POP JUMP JUMPDEST PUSH1 0x0 PUSH1 0x20 DUP3 DUP5 SUB SLT ISZERO PUSH3 0x122F JUMPI DUP1 DUP2 REVERT JUMPDEST DUP2 MLOAD PUSH1 0xFF DUP2 AND DUP2 EQ PUSH3 0x9B9 JUMPI DUP2 DUP3 REVERT JUMPDEST SWAP1 ISZERO ISZERO DUP2 MSTORE PUSH1 0x20 ADD SWAP1 JUMP JUMPDEST PUSH1 0x0 PUSH1 0x60 DUP3 ADD DUP6 DUP4 MSTORE PUSH1 0x20 PUSH1 0x60 DUP2 DUP6 ADD MSTORE DUP2 DUP7 MLOAD DUP1 DUP5 MSTORE PUSH1 0x80 DUP7 ADD SWAP2 POP DUP3 DUP9 ADD SWAP4 POP DUP5 JUMPDEST DUP2 DUP2 LT ISZERO PUSH3 0x1297 JUMPI PUSH3 0x1284 DUP6 MLOAD PUSH3 0x1367 JUMP JUMPDEST DUP4 MSTORE SWAP4 DUP4 ADD SWAP4 SWAP2 DUP4 ADD SWAP2 PUSH1 0x1 ADD PUSH3 0x126F JUMP JUMPDEST POP POP DUP5 DUP2 SUB PUSH1 0x40 DUP7 ADD MSTORE DUP6 MLOAD DUP1 DUP3 MSTORE SWAP1 DUP3 ADD SWAP3 POP DUP2 DUP7 ADD SWAP1 DUP5 JUMPDEST DUP2 DUP2 LT ISZERO PUSH3 0x12D9 JUMPI PUSH3 0x12C6 DUP4 MLOAD PUSH3 0x1367 JUMP JUMPDEST DUP6 MSTORE SWAP4 DUP4 ADD SWAP4 SWAP2 DUP4 ADD SWAP2 PUSH1 0x1 ADD PUSH3 0x12B1 JUMP JUMPDEST POP SWAP3 SWAP9 SWAP8 POP POP POP POP POP POP POP POP JUMP JUMPDEST PUSH1 0x20 DUP2 ADD PUSH1 0x3 DUP4 LT PUSH3 0x12F6 JUMPI INVALID JUMPDEST SWAP2 SWAP1 MSTORE SWAP1 JUMP JUMPDEST SWAP1 DUP2 MSTORE PUSH1 0x20 ADD SWAP1 JUMP JUMPDEST SWAP4 DUP5 MSTORE PUSH1 0x20 DUP5 ADD SWAP3 SWAP1 SWAP3 MSTORE PUSH1 0x40 DUP4 ADD MSTORE PUSH1 0x60 DUP3 ADD MSTORE PUSH1 0x80 ADD SWAP1 JUMP JUMPDEST PUSH1 0x40 MLOAD DUP2 DUP2 ADD PUSH1 0x1 PUSH1 0x1 PUSH1 0x40 SHL SUB DUP2 GT DUP3 DUP3 LT OR ISZERO PUSH3 0x133F JUMPI PUSH1 0x0 DUP1 REVERT JUMPDEST PUSH1 0x40 MSTORE SWAP2 SWAP1 POP JUMP JUMPDEST PUSH1 0x0 PUSH1 0x1 PUSH1 0x1 PUSH1 0x40 SHL SUB DUP3 GT ISZERO PUSH3 0x135D JUMPI DUP1 DUP2 REVERT JUMPDEST POP PUSH1 0x20 SWAP1 DUP2 MUL ADD SWAP1 JUMP JUMPDEST PUSH1 0x1 PUSH1 0x1 PUSH1 0xA0 SHL SUB AND SWAP1 JUMP JUMPDEST PUSH1 0x1 PUSH1 0x1 PUSH1 0xA0 SHL SUB DUP2 AND DUP2 EQ PUSH3 0xC57 JUMPI PUSH1 0x0 DUP1 REVERT JUMPDEST PUSH1 0x80 MLOAD PUSH1 0xA0 MLOAD PUSH1 0x60 SHR PUSH1 0xC0 MLOAD PUSH1 0xE0 MLOAD PUSH2 0x100 MLOAD PUSH2 0x120 MLOAD PUSH2 0x140 MLOAD PUSH2 0x160 MLOAD PUSH2 0x180 MLOAD PUSH1 0x60 SHR PUSH2 0x1A0 MLOAD PUSH2 0x1C0 MLOAD PUSH2 0x1E0 MLOAD PUSH1 0x60 SHR PUSH2 0x200 MLOAD PUSH1 0x60 SHR PUSH2 0x220 MLOAD PUSH1 0x60 SHR PUSH2 0x240 MLOAD PUSH1 0x60 SHR PUSH2 0x260 MLOAD PUSH1 0x60 SHR PUSH2 0x280 MLOAD PUSH2 0x2A0 MLOAD PUSH2 0x2C0 MLOAD PUSH2 0x2E0 MLOAD PUSH2 0x300 MLOAD PUSH2 0x320 MLOAD PUSH1 0x60 SHR PUSH2 0x340 MLOAD PUSH1 0x60 SHR PUSH2 0x5FE4 PUSH3 0x14AC PUSH1 0x0 CODECOPY DUP1 PUSH2 0x17D8 MSTORE POP DUP1 PUSH2 0x17B4 MSTORE POP DUP1 PUSH2 0x348E MSTORE POP DUP1 PUSH2 0x346A MSTORE POP DUP1 PUSH2 0x3446 MSTORE POP DUP1 PUSH2 0x3422 MSTORE POP DUP1 PUSH2 0x33FE MSTORE POP DUP1 PUSH2 0x39E7 MSTORE POP DUP1 PUSH2 0x39A5 MSTORE POP DUP1 PUSH2 0x3963 MSTORE POP DUP1 PUSH2 0x171F MSTORE DUP1 PUSH2 0x262E MSTORE DUP1 PUSH2 0x3249 MSTORE POP DUP1 PUSH2 0x16B7 MSTORE DUP1 PUSH2 0x25D3 MSTORE DUP1 PUSH2 0x31DD MSTORE POP DUP1 PUSH2 0x1CF5 MSTORE POP DUP1 PUSH2 0xB59 MSTORE POP DUP1 PUSH2 0xF20 MSTORE POP DUP1 PUSH2 0x166F MSTORE POP DUP1 PUSH2 0x164B MSTORE POP DUP1 PUSH2 0x1240 MSTORE POP DUP1 PUSH2 0x1AD1 MSTORE POP DUP1 PUSH2 0x1B13 MSTORE POP DUP1 PUSH2 0x1AF2 MSTORE POP DUP1 PUSH2 0xEFC MSTORE POP DUP1 PUSH2 0xE86 MSTORE POP PUSH2 0x5FE4 PUSH1 0x0 RETURN INVALID PUSH1 0x80 PUSH1 0x40 MSTORE CALLVALUE DUP1 ISZERO PUSH2 0x10 JUMPI PUSH1 0x0 DUP1 REVERT JUMPDEST POP PUSH1 0x4 CALLDATASIZE LT PUSH2 0x2A0 JUMPI PUSH1 0x0 CALLDATALOAD PUSH1 0xE0 SHR DUP1 PUSH4 0x6DACCFFA GT PUSH2 0x167 JUMPI DUP1 PUSH4 0xA457C2D7 GT PUSH2 0xCE JUMPI DUP1 PUSH4 0xB867EE5A GT PUSH2 0x87 JUMPI DUP1 PUSH4 0xB867EE5A EQ PUSH2 0x5D1 JUMPI DUP1 PUSH4 0xD505ACCF EQ PUSH2 0x5F3 JUMPI DUP1 PUSH4 0xD5C096C4 EQ PUSH2 0x606 JUMPI DUP1 PUSH4 0xDD62ED3E EQ PUSH2 0x619 JUMPI DUP1 PUSH4 0xEB0F24D6 EQ PUSH2 0x62C JUMPI DUP1 PUSH4 0xFFD088EB EQ PUSH2 0x634 JUMPI PUSH2 0x2A0 JUMP JUMPDEST DUP1 PUSH4 0xA457C2D7 EQ PUSH2 0x575 JUMPI DUP1 PUSH4 0xA9059CBB EQ PUSH2 0x588 JUMPI DUP1 PUSH4 0xAAABADC5 EQ PUSH2 0x59B JUMPI DUP1 PUSH4 0xB10BE739 EQ PUSH2 0x5A3 JUMPI DUP1 PUSH4 0xB48B5B40 EQ PUSH2 0x5B6 JUMPI DUP1 PUSH4 0xB7710251 EQ PUSH2 0x5BE JUMPI PUSH2 0x2A0 JUMP JUMPDEST DUP1 PUSH4 0x893D20E8 GT PUSH2 0x120 JUMPI DUP1 PUSH4 0x893D20E8 EQ PUSH2 0x514 JUMPI DUP1 PUSH4 0x8D928AF8 EQ PUSH2 0x529 JUMPI DUP1 PUSH4 0x95D89B41 EQ PUSH2 0x531 JUMPI DUP1 PUSH4 0x9B02CDDE EQ PUSH2 0x539 JUMPI DUP1 PUSH4 0x9D2C110C EQ PUSH2 0x54F JUMPI DUP1 PUSH4 0xA0DAAED0 EQ PUSH2 0x562 JUMPI PUSH2 0x2A0 JUMP JUMPDEST DUP1 PUSH4 0x6DACCFFA EQ PUSH2 0x490 JUMPI DUP1 PUSH4 0x70A08231 EQ PUSH2 0x4A7 JUMPI DUP1 PUSH4 0x74F3B009 EQ PUSH2 0x4BA JUMPI DUP1 PUSH4 0x7ECEBE00 EQ PUSH2 0x4DB JUMPI DUP1 PUSH4 0x851C1BB3 EQ PUSH2 0x4EE JUMPI DUP1 PUSH4 0x87EC6817 EQ PUSH2 0x501 JUMPI PUSH2 0x2A0 JUMP JUMPDEST DUP1 PUSH4 0x2F1A0BC9 GT PUSH2 0x20B JUMPI DUP1 PUSH4 0x50DD6ED9 GT PUSH2 0x1C4 JUMPI DUP1 PUSH4 0x50DD6ED9 EQ PUSH2 0x406 JUMPI DUP1 PUSH4 0x55C67628 EQ PUSH2 0x419 JUMPI DUP1 PUSH4 0x6028BFD4 EQ PUSH2 0x421 JUMPI DUP1 PUSH4 0x60D1507C EQ PUSH2 0x442 JUMPI DUP1 PUSH4 0x679AEFCE EQ PUSH2 0x468 JUMPI DUP1 PUSH4 0x6B843239 EQ PUSH2 0x470 JUMPI PUSH2 0x2A0 JUMP JUMPDEST DUP1 PUSH4 0x2F1A0BC9 EQ PUSH2 0x3A8 JUMPI DUP1 PUSH4 0x313CE567 EQ PUSH2 0x3BB JUMPI DUP1 PUSH4 0x3644E515 EQ PUSH2 0x3D0 JUMPI DUP1 PUSH4 0x38E9922E EQ PUSH2 0x3D8 JUMPI DUP1 PUSH4 0x38FFF2D0 EQ PUSH2 0x3EB JUMPI DUP1 PUSH4 0x39509351 EQ PUSH2 0x3F3 JUMPI PUSH2 0x2A0 JUMP JUMPDEST DUP1 PUSH4 0x1DCCD830 GT PUSH2 0x25D JUMPI DUP1 PUSH4 0x1DCCD830 EQ PUSH2 0x337 JUMPI DUP1 PUSH4 0x1DD746EA EQ PUSH2 0x357 JUMPI DUP1 PUSH4 0x1ED4EDDC EQ PUSH2 0x35F JUMPI DUP1 PUSH4 0x238A2D59 EQ PUSH2 0x378 JUMPI DUP1 PUSH4 0x23B872DD EQ PUSH2 0x38D JUMPI DUP1 PUSH4 0x292C914A EQ PUSH2 0x3A0 JUMPI PUSH2 0x2A0 JUMP JUMPDEST DUP1 PUSH4 0x1EC954A EQ PUSH2 0x2A5 JUMPI DUP1 PUSH4 0x6FDDE03 EQ PUSH2 0x2CE JUMPI DUP1 PUSH4 0x95EA7B3 EQ PUSH2 0x2E3 JUMPI DUP1 PUSH4 0x16C38B3C EQ PUSH2 0x303 JUMPI DUP1 PUSH4 0x18160DDD EQ PUSH2 0x318 JUMPI DUP1 PUSH4 0x1C0DE051 EQ PUSH2 0x320 JUMPI JUMPDEST PUSH1 0x0 DUP1 REVERT JUMPDEST PUSH2 0x2B8 PUSH2 0x2B3 CALLDATASIZE PUSH1 0x4 PUSH2 0x59FD JUMP JUMPDEST PUSH2 0x63C JUMP JUMPDEST PUSH1 0x40 MLOAD PUSH2 0x2C5 SWAP2 SWAP1 PUSH2 0x5CED JUMP JUMPDEST PUSH1 0x40 MLOAD DUP1 SWAP2 SUB SWAP1 RETURN JUMPDEST PUSH2 0x2D6 PUSH2 0x69C JUMP JUMPDEST PUSH1 0x40 MLOAD PUSH2 0x2C5 SWAP2 SWAP1 PUSH2 0x5EA0 JUMP JUMPDEST PUSH2 0x2F6 PUSH2 0x2F1 CALLDATASIZE PUSH1 0x4 PUSH2 0x54E7 JUMP JUMPDEST PUSH2 0x733 JUMP JUMPDEST PUSH1 0x40 MLOAD PUSH2 0x2C5 SWAP2 SWAP1 PUSH2 0x5CCA JUMP JUMPDEST PUSH2 0x316 PUSH2 0x311 CALLDATASIZE PUSH1 0x4 PUSH2 0x5755 JUMP JUMPDEST PUSH2 0x74A JUMP JUMPDEST STOP JUMPDEST PUSH2 0x2B8 PUSH2 0x75E JUMP JUMPDEST PUSH2 0x328 PUSH2 0x764 JUMP JUMPDEST PUSH1 0x40 MLOAD PUSH2 0x2C5 SWAP4 SWAP3 SWAP2 SWAP1 PUSH2 0x5CD5 JUMP JUMPDEST PUSH2 0x34A PUSH2 0x345 CALLDATASIZE PUSH1 0x4 PUSH2 0x569B JUMP JUMPDEST PUSH2 0x78D JUMP JUMPDEST PUSH1 0x40 MLOAD PUSH2 0x2C5 SWAP2 SWAP1 PUSH2 0x5C92 JUMP JUMPDEST PUSH2 0x34A PUSH2 0x8B0 JUMP JUMPDEST PUSH2 0x367 PUSH2 0x8BF JUMP JUMPDEST PUSH1 0x40 MLOAD PUSH2 0x2C5 SWAP6 SWAP5 SWAP4 SWAP3 SWAP2 SWAP1 PUSH2 0x5DF3 JUMP JUMPDEST PUSH2 0x380 PUSH2 0x911 JUMP JUMPDEST PUSH1 0x40 MLOAD PUSH2 0x2C5 SWAP2 SWAP1 PUSH2 0x5C0D JUMP JUMPDEST PUSH2 0x2F6 PUSH2 0x39B CALLDATASIZE PUSH1 0x4 PUSH2 0x5432 JUMP JUMPDEST PUSH2 0x99E JUMP JUMPDEST PUSH2 0x316 PUSH2 0xA14 JUMP JUMPDEST PUSH2 0x316 PUSH2 0x3B6 CALLDATASIZE PUSH1 0x4 PUSH2 0x5AD0 JUMP JUMPDEST PUSH2 0xA48 JUMP JUMPDEST PUSH2 0x3C3 PUSH2 0xB2B JUMP JUMPDEST PUSH1 0x40 MLOAD PUSH2 0x2C5 SWAP2 SWAP1 PUSH2 0x5F21 JUMP JUMPDEST PUSH2 0x2B8 PUSH2 0xB34 JUMP JUMPDEST PUSH2 0x316 PUSH2 0x3E6 CALLDATASIZE PUSH1 0x4 PUSH2 0x5AB8 JUMP JUMPDEST PUSH2 0xB3E JUMP JUMPDEST PUSH2 0x2B8 PUSH2 0xB57 JUMP JUMPDEST PUSH2 0x2F6 PUSH2 0x401 CALLDATASIZE PUSH1 0x4 PUSH2 0x54E7 JUMP JUMPDEST PUSH2 0xB7B JUMP JUMPDEST PUSH2 0x316 PUSH2 0x414 CALLDATASIZE PUSH1 0x4 PUSH2 0x5873 JUMP JUMPDEST PUSH2 0xBB6 JUMP JUMPDEST PUSH2 0x2B8 PUSH2 0xBD4 JUMP JUMPDEST PUSH2 0x434 PUSH2 0x42F CALLDATASIZE PUSH1 0x4 PUSH2 0x578D JUMP JUMPDEST PUSH2 0xBE5 JUMP JUMPDEST PUSH1 0x40 MLOAD PUSH2 0x2C5 SWAP3 SWAP2 SWAP1 PUSH2 0x5EB3 JUMP JUMPDEST PUSH2 0x455 PUSH2 0x450 CALLDATASIZE PUSH1 0x4 PUSH2 0x5AB8 JUMP JUMPDEST PUSH2 0xC1C JUMP JUMPDEST PUSH1 0x40 MLOAD PUSH2 0x2C5 SWAP8 SWAP7 SWAP6 SWAP5 SWAP4 SWAP3 SWAP2 SWAP1 PUSH2 0x5DC3 JUMP JUMPDEST PUSH2 0x2B8 PUSH2 0xC65 JUMP JUMPDEST PUSH2 0x483 PUSH2 0x47E CALLDATASIZE PUSH1 0x4 PUSH2 0x55DD JUMP JUMPDEST PUSH2 0xD43 JUMP JUMPDEST PUSH1 0x40 MLOAD PUSH2 0x2C5 SWAP2 SWAP1 PUSH2 0x5C5A JUMP JUMPDEST PUSH2 0x498 PUSH2 0xDF9 JUMP JUMPDEST PUSH1 0x40 MLOAD PUSH2 0x2C5 SWAP4 SWAP3 SWAP2 SWAP1 PUSH2 0x5ECC JUMP JUMPDEST PUSH2 0x2B8 PUSH2 0x4B5 CALLDATASIZE PUSH1 0x4 PUSH2 0x53DE JUMP JUMPDEST PUSH2 0xE14 JUMP JUMPDEST PUSH2 0x4CD PUSH2 0x4C8 CALLDATASIZE PUSH1 0x4 PUSH2 0x578D JUMP JUMPDEST PUSH2 0xE33 JUMP JUMPDEST PUSH1 0x40 MLOAD PUSH2 0x2C5 SWAP3 SWAP2 SWAP1 PUSH2 0x5CA5 JUMP JUMPDEST PUSH2 0x2B8 PUSH2 0x4E9 CALLDATASIZE PUSH1 0x4 PUSH2 0x53DE JUMP JUMPDEST PUSH2 0xE67 JUMP JUMPDEST PUSH2 0x2B8 PUSH2 0x4FC CALLDATASIZE PUSH1 0x4 PUSH2 0x582F JUMP JUMPDEST PUSH2 0xE82 JUMP JUMPDEST PUSH2 0x434 PUSH2 0x50F CALLDATASIZE PUSH1 0x4 PUSH2 0x578D JUMP JUMPDEST PUSH2 0xED4 JUMP JUMPDEST PUSH2 0x51C PUSH2 0xEFA JUMP JUMPDEST PUSH1 0x40 MLOAD PUSH2 0x2C5 SWAP2 SWAP1 PUSH2 0x5BF9 JUMP JUMPDEST PUSH2 0x51C PUSH2 0xF1E JUMP JUMPDEST PUSH2 0x2D6 PUSH2 0xF42 JUMP JUMPDEST PUSH2 0x541 PUSH2 0xFA3 JUMP JUMPDEST PUSH1 0x40 MLOAD PUSH2 0x2C5 SWAP3 SWAP2 SWAP1 PUSH2 0x5EE2 JUMP JUMPDEST PUSH2 0x2B8 PUSH2 0x55D CALLDATASIZE PUSH1 0x4 PUSH2 0x5A6D JUMP JUMPDEST PUSH2 0xFAD JUMP JUMPDEST PUSH2 0x316 PUSH2 0x570 CALLDATASIZE PUSH1 0x4 PUSH2 0x53DE JUMP JUMPDEST PUSH2 0xFE6 JUMP JUMPDEST PUSH2 0x2F6 PUSH2 0x583 CALLDATASIZE PUSH1 0x4 PUSH2 0x54E7 JUMP JUMPDEST PUSH2 0x1022 JUMP JUMPDEST PUSH2 0x2F6 PUSH2 0x596 CALLDATASIZE PUSH1 0x4 PUSH2 0x54E7 JUMP JUMPDEST PUSH2 0x1060 JUMP JUMPDEST PUSH2 0x51C PUSH2 0x106D JUMP JUMPDEST PUSH2 0x2B8 PUSH2 0x5B1 CALLDATASIZE PUSH1 0x4 PUSH2 0x59C9 JUMP JUMPDEST PUSH2 0x1077 JUMP JUMPDEST PUSH2 0x2B8 PUSH2 0x110C JUMP JUMPDEST PUSH2 0x316 PUSH2 0x5CC CALLDATASIZE PUSH1 0x4 PUSH2 0x54E7 JUMP JUMPDEST PUSH2 0x1112 JUMP JUMPDEST PUSH2 0x5E4 PUSH2 0x5DF CALLDATASIZE PUSH1 0x4 PUSH2 0x53DE JUMP JUMPDEST PUSH2 0x11B2 JUMP JUMPDEST PUSH1 0x40 MLOAD PUSH2 0x2C5 SWAP4 SWAP3 SWAP2 SWAP1 PUSH2 0x5EF0 JUMP JUMPDEST PUSH2 0x316 PUSH2 0x601 CALLDATASIZE PUSH1 0x4 PUSH2 0x5472 JUMP JUMPDEST PUSH2 0x120B JUMP JUMPDEST PUSH2 0x4CD PUSH2 0x614 CALLDATASIZE PUSH1 0x4 PUSH2 0x578D JUMP JUMPDEST PUSH2 0x1354 JUMP JUMPDEST PUSH2 0x2B8 PUSH2 0x627 CALLDATASIZE PUSH1 0x4 PUSH2 0x53FA JUMP JUMPDEST PUSH2 0x137B JUMP JUMPDEST PUSH2 0x316 PUSH2 0x13A6 JUMP JUMPDEST PUSH2 0x2B8 PUSH2 0x13D2 JUMP JUMPDEST PUSH1 0x0 DUP5 PUSH1 0x80 ADD MLOAD PUSH2 0x669 PUSH2 0x64E PUSH2 0xF1E JUMP JUMPDEST PUSH1 0x1 PUSH1 0x1 PUSH1 0xA0 SHL SUB AND CALLER PUSH1 0x1 PUSH1 0x1 PUSH1 0xA0 SHL SUB AND EQ PUSH1 0xCD PUSH2 0x149F JUMP JUMPDEST PUSH2 0x67E PUSH2 0x674 PUSH2 0xB57 JUMP JUMPDEST DUP3 EQ PUSH2 0x1F4 PUSH2 0x149F JUMP JUMPDEST PUSH2 0x686 PUSH2 0x14AD JUMP JUMPDEST PUSH2 0x692 DUP7 DUP7 DUP7 DUP7 PUSH2 0x14BD JUMP JUMPDEST SWAP7 SWAP6 POP POP POP POP POP POP JUMP JUMPDEST PUSH1 0x3 DUP1 SLOAD PUSH1 0x40 DUP1 MLOAD PUSH1 0x20 PUSH1 0x1F PUSH1 0x2 PUSH1 0x0 NOT PUSH2 0x100 PUSH1 0x1 DUP9 AND ISZERO MUL ADD SWAP1 SWAP6 AND SWAP5 SWAP1 SWAP5 DIV SWAP4 DUP5 ADD DUP2 SWAP1 DIV DUP2 MUL DUP3 ADD DUP2 ADD SWAP1 SWAP3 MSTORE DUP3 DUP2 MSTORE PUSH1 0x60 SWAP4 SWAP1 SWAP3 SWAP1 SWAP2 DUP4 ADD DUP3 DUP3 DUP1 ISZERO PUSH2 0x728 JUMPI DUP1 PUSH1 0x1F LT PUSH2 0x6FD JUMPI PUSH2 0x100 DUP1 DUP4 SLOAD DIV MUL DUP4 MSTORE SWAP2 PUSH1 0x20 ADD SWAP2 PUSH2 0x728 JUMP JUMPDEST DUP3 ADD SWAP2 SWAP1 PUSH1 0x0 MSTORE PUSH1 0x20 PUSH1 0x0 KECCAK256 SWAP1 JUMPDEST DUP2 SLOAD DUP2 MSTORE SWAP1 PUSH1 0x1 ADD SWAP1 PUSH1 0x20 ADD DUP1 DUP4 GT PUSH2 0x70B JUMPI DUP3 SWAP1 SUB PUSH1 0x1F AND DUP3 ADD SWAP2 JUMPDEST POP POP POP POP POP SWAP1 POP JUMPDEST SWAP1 JUMP JUMPDEST PUSH1 0x0 PUSH2 0x740 CALLER DUP5 DUP5 PUSH2 0x1518 JUMP JUMPDEST POP PUSH1 0x1 JUMPDEST SWAP3 SWAP2 POP POP JUMP JUMPDEST PUSH2 0x752 PUSH2 0x1580 JUMP JUMPDEST PUSH2 0x75B DUP2 PUSH2 0x15AE JUMP JUMPDEST POP JUMP JUMPDEST PUSH1 0x2 SLOAD SWAP1 JUMP JUMPDEST PUSH1 0x0 DUP1 PUSH1 0x0 PUSH2 0x771 PUSH2 0x162C JUMP JUMPDEST ISZERO SWAP3 POP PUSH2 0x77C PUSH2 0x1649 JUMP JUMPDEST SWAP2 POP PUSH2 0x786 PUSH2 0x166D JUMP JUMPDEST SWAP1 POP SWAP1 SWAP2 SWAP3 JUMP JUMPDEST PUSH1 0x60 DUP2 MLOAD PUSH1 0x1 PUSH1 0x1 PUSH1 0x40 SHL SUB DUP2 GT DUP1 ISZERO PUSH2 0x7A6 JUMPI PUSH1 0x0 DUP1 REVERT JUMPDEST POP PUSH1 0x40 MLOAD SWAP1 DUP1 DUP3 MSTORE DUP1 PUSH1 0x20 MUL PUSH1 0x20 ADD DUP3 ADD PUSH1 0x40 MSTORE DUP1 ISZERO PUSH2 0x7D0 JUMPI DUP2 PUSH1 0x20 ADD PUSH1 0x20 DUP3 MUL DUP1 CALLDATASIZE DUP4 CALLDATACOPY ADD SWAP1 POP JUMPDEST POP SWAP1 POP PUSH1 0x0 PUSH2 0x7DD PUSH2 0x1691 JUMP JUMPDEST SWAP1 POP PUSH1 0x0 JUMPDEST DUP4 MLOAD DUP2 LT ISZERO PUSH2 0x8A9 JUMPI PUSH20 0x0 PUSH4 0x79EAEF82 PUSH1 0xC DUP7 DUP5 DUP2 MLOAD DUP2 LT PUSH2 0x813 JUMPI INVALID JUMPDEST PUSH1 0x20 MUL PUSH1 0x20 ADD ADD MLOAD DUP6 PUSH1 0x40 MLOAD DUP5 PUSH4 0xFFFFFFFF AND PUSH1 0xE0 SHL DUP2 MSTORE PUSH1 0x4 ADD PUSH2 0x83A SWAP4 SWAP3 SWAP2 SWAP1 PUSH2 0x5E64 JUMP JUMPDEST PUSH1 0x20 PUSH1 0x40 MLOAD DUP1 DUP4 SUB DUP2 DUP7 DUP1 EXTCODESIZE ISZERO DUP1 ISZERO PUSH2 0x852 JUMPI PUSH1 0x0 DUP1 REVERT JUMPDEST POP GAS DELEGATECALL ISZERO DUP1 ISZERO PUSH2 0x866 JUMPI RETURNDATASIZE PUSH1 0x0 DUP1 RETURNDATACOPY RETURNDATASIZE PUSH1 0x0 REVERT JUMPDEST POP POP POP POP PUSH1 0x40 MLOAD RETURNDATASIZE PUSH1 0x1F NOT PUSH1 0x1F DUP3 ADD AND DUP3 ADD DUP1 PUSH1 0x40 MSTORE POP DUP2 ADD SWAP1 PUSH2 0x88A SWAP2 SWAP1 PUSH2 0x59E5 JUMP JUMPDEST DUP4 DUP3 DUP2 MLOAD DUP2 LT PUSH2 0x896 JUMPI INVALID JUMPDEST PUSH1 0x20 SWAP1 DUP2 MUL SWAP2 SWAP1 SWAP2 ADD ADD MSTORE PUSH1 0x1 ADD PUSH2 0x7E2 JUMP JUMPDEST POP POP SWAP2 SWAP1 POP JUMP JUMPDEST PUSH1 0x60 PUSH2 0x8BA PUSH2 0x16A3 JUMP JUMPDEST SWAP1 POP SWAP1 JUMP JUMPDEST PUSH1 0x0 DUP1 PUSH1 0x0 DUP1 PUSH1 0x0 DUP1 PUSH2 0x8D0 PUSH2 0x176C JUMP JUMPDEST SWAP1 POP PUSH2 0x8DB DUP2 PUSH2 0x1772 JUMP JUMPDEST SWAP6 POP PUSH2 0x8E6 DUP2 PUSH2 0x177E JUMP JUMPDEST SWAP5 POP PUSH2 0x8F1 DUP2 PUSH2 0x178B JUMP JUMPDEST SWAP4 POP PUSH2 0x8FC DUP2 PUSH2 0x1798 JUMP JUMPDEST SWAP3 POP PUSH2 0x907 DUP2 PUSH2 0x17A5 JUMP JUMPDEST SWAP2 POP POP SWAP1 SWAP2 SWAP3 SWAP4 SWAP5 JUMP JUMPDEST PUSH1 0x40 DUP1 MLOAD PUSH1 0x2 DUP1 DUP3 MSTORE PUSH1 0x60 DUP1 DUP4 ADD DUP5 MSTORE SWAP3 PUSH1 0x20 DUP4 ADD SWAP1 DUP1 CALLDATASIZE DUP4 CALLDATACOPY ADD SWAP1 POP POP SWAP1 POP PUSH2 0x939 PUSH2 0x17B2 JUMP JUMPDEST DUP2 PUSH1 0x0 DUP2 MLOAD DUP2 LT PUSH2 0x946 JUMPI INVALID JUMPDEST PUSH1 0x20 MUL PUSH1 0x20 ADD ADD SWAP1 PUSH1 0x1 PUSH1 0x1 PUSH1 0xA0 SHL SUB AND SWAP1 DUP2 PUSH1 0x1 PUSH1 0x1 PUSH1 0xA0 SHL SUB AND DUP2 MSTORE POP POP PUSH2 0x96E PUSH2 0x17D6 JUMP JUMPDEST DUP2 PUSH1 0x1 DUP2 MLOAD DUP2 LT PUSH2 0x97B JUMPI INVALID JUMPDEST PUSH1 0x20 MUL PUSH1 0x20 ADD ADD SWAP1 PUSH1 0x1 PUSH1 0x1 PUSH1 0xA0 SHL SUB AND SWAP1 DUP2 PUSH1 0x1 PUSH1 0x1 PUSH1 0xA0 SHL SUB AND DUP2 MSTORE POP POP SWAP1 JUMP JUMPDEST PUSH1 0x0 DUP1 PUSH2 0x9AB DUP6 CALLER PUSH2 0x137B JUMP JUMPDEST SWAP1 POP PUSH2 0x9CF CALLER PUSH1 0x1 PUSH1 0x1 PUSH1 0xA0 SHL SUB DUP8 AND EQ DUP1 PUSH2 0x9C7 JUMPI POP DUP4 DUP3 LT ISZERO JUMPDEST PUSH2 0x19E PUSH2 0x149F JUMP JUMPDEST PUSH2 0x9DA DUP6 DUP6 DUP6 PUSH2 0x17FA JUMP JUMPDEST CALLER PUSH1 0x1 PUSH1 0x1 PUSH1 0xA0 SHL SUB DUP7 AND EQ DUP1 ISZERO SWAP1 PUSH2 0x9F5 JUMPI POP PUSH1 0x0 NOT DUP2 EQ ISZERO JUMPDEST ISZERO PUSH2 0xA07 JUMPI PUSH2 0xA07 DUP6 CALLER DUP6 DUP5 SUB PUSH2 0x1518 JUMP JUMPDEST PUSH1 0x1 SWAP2 POP POP JUMPDEST SWAP4 SWAP3 POP POP POP JUMP JUMPDEST PUSH2 0xA1C PUSH2 0x18DA JUMP JUMPDEST PUSH2 0xA24 PUSH2 0x1580 JUMP JUMPDEST PUSH2 0xA2E PUSH1 0x1 PUSH2 0x18ED JUMP JUMPDEST PUSH1 0x0 PUSH2 0xA38 PUSH2 0x75E JUMP JUMPDEST GT ISZERO PUSH2 0xA46 JUMPI PUSH2 0xA46 PUSH2 0x1936 JUMP JUMPDEST JUMP JUMPDEST PUSH2 0xA50 PUSH2 0x1580 JUMP JUMPDEST PUSH2 0xA60 PUSH1 0x1 DUP4 LT ISZERO PUSH2 0x12C PUSH2 0x149F JUMP JUMPDEST PUSH2 0xA71 PUSH2 0x1388 DUP4 GT ISZERO PUSH2 0x12D PUSH2 0x149F JUMP JUMPDEST PUSH1 0x0 PUSH2 0xA7D DUP3 TIMESTAMP PUSH2 0x1439 JUMP JUMPDEST SWAP1 POP PUSH2 0xA91 PUSH3 0x15180 DUP3 LT ISZERO PUSH2 0x13D PUSH2 0x149F JUMP JUMPDEST PUSH1 0x0 DUP1 PUSH2 0xA9C PUSH2 0x198C JUMP JUMPDEST SWAP2 POP SWAP2 POP PUSH2 0xAAD DUP2 ISZERO PUSH2 0x13E PUSH2 0x149F JUMP JUMPDEST PUSH1 0x0 PUSH2 0xABB DUP7 PUSH2 0x3E8 PUSH2 0x13E3 JUMP JUMPDEST SWAP1 POP PUSH1 0x0 DUP4 DUP3 GT PUSH2 0xAEA JUMPI PUSH2 0xAE5 PUSH2 0xAD6 PUSH3 0x15180 DUP7 PUSH2 0x13E3 JUMP JUMPDEST PUSH2 0xAE0 DUP5 DUP9 PUSH2 0x13E3 JUMP JUMPDEST PUSH2 0x1A00 JUMP JUMPDEST PUSH2 0xB04 JUMP JUMPDEST PUSH2 0xB04 PUSH2 0xAFA PUSH3 0x15180 DUP5 PUSH2 0x13E3 JUMP JUMPDEST PUSH2 0xAE0 DUP7 DUP9 PUSH2 0x13E3 JUMP JUMPDEST SWAP1 POP PUSH2 0xB16 PUSH1 0x2 DUP3 GT ISZERO PUSH2 0x13F PUSH2 0x149F JUMP JUMPDEST PUSH2 0xB22 DUP5 DUP4 TIMESTAMP DUP10 PUSH2 0x1A33 JUMP JUMPDEST POP POP POP POP POP POP POP JUMP JUMPDEST PUSH1 0x5 SLOAD PUSH1 0xFF AND SWAP1 JUMP JUMPDEST PUSH1 0x0 PUSH2 0x8BA PUSH2 0x1ACD JUMP JUMPDEST PUSH2 0xB46 PUSH2 0x1580 JUMP JUMPDEST PUSH2 0xB4E PUSH2 0x18DA JUMP JUMPDEST PUSH2 0x75B DUP2 PUSH2 0x1B6A JUMP JUMPDEST PUSH32 0x0 SWAP1 JUMP JUMPDEST CALLER PUSH1 0x0 DUP2 DUP2 MSTORE PUSH1 0x1 PUSH1 0x20 SWAP1 DUP2 MSTORE PUSH1 0x40 DUP1 DUP4 KECCAK256 PUSH1 0x1 PUSH1 0x1 PUSH1 0xA0 SHL SUB DUP8 AND DUP5 MSTORE SWAP1 SWAP2 MSTORE DUP2 KECCAK256 SLOAD SWAP1 SWAP2 PUSH2 0x740 SWAP2 DUP6 SWAP1 PUSH2 0xBB1 SWAP1 DUP7 PUSH2 0x1BD5 JUMP JUMPDEST PUSH2 0x1518 JUMP JUMPDEST PUSH2 0xBBE PUSH2 0x1580 JUMP JUMPDEST PUSH2 0xBC6 PUSH2 0x18DA JUMP JUMPDEST PUSH2 0xBD0 DUP3 DUP3 PUSH2 0x1BE7 JUMP JUMPDEST POP POP JUMP JUMPDEST PUSH1 0x8 SLOAD PUSH1 0x0 SWAP1 PUSH2 0x8BA SWAP1 PUSH1 0xC0 PUSH2 0x1CE6 JUMP JUMPDEST PUSH1 0x0 PUSH1 0x60 PUSH2 0xBFB DUP7 MLOAD PUSH2 0xBF6 PUSH2 0x1CF3 JUMP JUMPDEST PUSH2 0x1D17 JUMP JUMPDEST PUSH2 0xC10 DUP10 DUP10 DUP10 DUP10 DUP10 DUP10 DUP10 PUSH2 0x1D24 PUSH2 0x1D8E PUSH2 0x1DEF JUMP JUMPDEST SWAP8 POP SWAP8 SWAP6 POP POP POP POP POP POP JUMP JUMPDEST PUSH1 0x0 DUP1 PUSH1 0x0 DUP1 PUSH1 0x0 DUP1 PUSH1 0x0 PUSH2 0xC37 PUSH2 0x400 DUP10 LT PUSH2 0x13B PUSH2 0x149F JUMP JUMPDEST PUSH1 0x0 PUSH2 0xC42 DUP10 PUSH2 0x1F12 JUMP JUMPDEST SWAP1 POP PUSH2 0xC4D DUP2 PUSH2 0x1F24 JUMP JUMPDEST SWAP6 SWAP16 SWAP5 SWAP15 POP SWAP3 SWAP13 POP SWAP1 SWAP11 POP SWAP9 POP SWAP7 POP SWAP1 SWAP5 POP SWAP3 POP POP POP JUMP JUMPDEST PUSH1 0x0 PUSH1 0x60 PUSH2 0xC71 PUSH2 0xF1E JUMP JUMPDEST PUSH1 0x1 PUSH1 0x1 PUSH1 0xA0 SHL SUB AND PUSH4 0xF94D4668 PUSH2 0xC87 PUSH2 0xB57 JUMP JUMPDEST PUSH1 0x40 MLOAD DUP3 PUSH4 0xFFFFFFFF AND PUSH1 0xE0 SHL DUP2 MSTORE PUSH1 0x4 ADD PUSH2 0xCA3 SWAP2 SWAP1 PUSH2 0x5CED JUMP JUMPDEST PUSH1 0x0 PUSH1 0x40 MLOAD DUP1 DUP4 SUB DUP2 DUP7 DUP1 EXTCODESIZE ISZERO DUP1 ISZERO PUSH2 0xCBB JUMPI PUSH1 0x0 DUP1 REVERT JUMPDEST POP GAS STATICCALL ISZERO DUP1 ISZERO PUSH2 0xCCF JUMPI RETURNDATASIZE PUSH1 0x0 DUP1 RETURNDATACOPY RETURNDATASIZE PUSH1 0x0 REVERT JUMPDEST POP POP POP POP PUSH1 0x40 MLOAD RETURNDATASIZE PUSH1 0x0 DUP3 RETURNDATACOPY PUSH1 0x1F RETURNDATASIZE SWAP1 DUP2 ADD PUSH1 0x1F NOT AND DUP3 ADD PUSH1 0x40 MSTORE PUSH2 0xCF7 SWAP2 SWAP1 DUP2 ADD SWAP1 PUSH2 0x5512 JUMP JUMPDEST POP SWAP2 POP POP PUSH1 0x0 PUSH2 0xD05 PUSH2 0x198C JUMP JUMPDEST POP SWAP1 POP PUSH2 0xD19 DUP3 PUSH2 0xD14 PUSH2 0x16A3 JUMP JUMPDEST PUSH2 0x1F87 JUMP JUMPDEST PUSH1 0x0 PUSH2 0xD27 DUP3 DUP5 PUSH1 0x0 PUSH2 0x1FE8 JUMP JUMPDEST SWAP1 POP PUSH2 0xD3B PUSH2 0xD34 PUSH2 0x75E JUMP JUMPDEST DUP3 SWAP1 PUSH2 0x2184 JUMP JUMPDEST SWAP4 POP POP POP POP SWAP1 JUMP JUMPDEST PUSH1 0x60 DUP2 MLOAD PUSH1 0x1 PUSH1 0x1 PUSH1 0x40 SHL SUB DUP2 GT DUP1 ISZERO PUSH2 0xD5C JUMPI PUSH1 0x0 DUP1 REVERT JUMPDEST POP PUSH1 0x40 MLOAD SWAP1 DUP1 DUP3 MSTORE DUP1 PUSH1 0x20 MUL PUSH1 0x20 ADD DUP3 ADD PUSH1 0x40 MSTORE DUP1 ISZERO PUSH2 0xD86 JUMPI DUP2 PUSH1 0x20 ADD PUSH1 0x20 DUP3 MUL DUP1 CALLDATASIZE DUP4 CALLDATACOPY ADD SWAP1 POP JUMPDEST POP SWAP1 POP PUSH1 0x0 PUSH2 0xD93 PUSH2 0x1691 JUMP JUMPDEST SWAP1 POP PUSH2 0xD9D PUSH2 0x51AA JUMP JUMPDEST PUSH1 0x0 JUMPDEST DUP5 MLOAD DUP2 LT ISZERO PUSH2 0xDF1 JUMPI DUP5 DUP2 DUP2 MLOAD DUP2 LT PUSH2 0xDB5 JUMPI INVALID JUMPDEST PUSH1 0x20 MUL PUSH1 0x20 ADD ADD MLOAD SWAP2 POP PUSH2 0xDD2 DUP3 PUSH1 0x0 ADD MLOAD DUP5 DUP5 PUSH1 0x20 ADD MLOAD PUSH2 0x21D5 JUMP JUMPDEST DUP5 DUP3 DUP2 MLOAD DUP2 LT PUSH2 0xDDE JUMPI INVALID JUMPDEST PUSH1 0x20 SWAP1 DUP2 MUL SWAP2 SWAP1 SWAP2 ADD ADD MSTORE PUSH1 0x1 ADD PUSH2 0xDA0 JUMP JUMPDEST POP POP POP SWAP2 SWAP1 POP JUMP JUMPDEST PUSH1 0x0 DUP1 PUSH1 0x0 PUSH2 0xE06 PUSH2 0x198C JUMP JUMPDEST SWAP1 SWAP5 SWAP1 SWAP4 POP PUSH2 0x3E8 SWAP3 POP SWAP1 POP JUMP JUMPDEST PUSH1 0x1 PUSH1 0x1 PUSH1 0xA0 SHL SUB DUP2 AND PUSH1 0x0 SWAP1 DUP2 MSTORE PUSH1 0x20 DUP2 SWAP1 MSTORE PUSH1 0x40 SWAP1 KECCAK256 SLOAD JUMPDEST SWAP2 SWAP1 POP JUMP JUMPDEST PUSH1 0x60 DUP1 PUSH2 0xE3E PUSH2 0x14AD JUMP JUMPDEST PUSH2 0xE4D DUP10 DUP10 DUP10 DUP10 DUP10 DUP10 DUP10 PUSH2 0x2266 JUMP JUMPDEST SWAP1 SWAP3 POP SWAP1 POP PUSH2 0xE5A PUSH2 0x162C JUMP JUMPDEST ISZERO PUSH2 0xC10 JUMPI PUSH2 0xC10 PUSH2 0x1936 JUMP JUMPDEST PUSH1 0x1 PUSH1 0x1 PUSH1 0xA0 SHL SUB AND PUSH1 0x0 SWAP1 DUP2 MSTORE PUSH1 0x6 PUSH1 0x20 MSTORE PUSH1 0x40 SWAP1 KECCAK256 SLOAD SWAP1 JUMP JUMPDEST PUSH1 0x0 PUSH32 0x0 DUP3 PUSH1 0x40 MLOAD PUSH1 0x20 ADD PUSH2 0xEB7 SWAP3 SWAP2 SWAP1 PUSH2 0x5BB6 JUMP JUMPDEST PUSH1 0x40 MLOAD PUSH1 0x20 DUP2 DUP4 SUB SUB DUP2 MSTORE SWAP1 PUSH1 0x40 MSTORE DUP1 MLOAD SWAP1 PUSH1 0x20 ADD KECCAK256 SWAP1 POP SWAP2 SWAP1 POP JUMP JUMPDEST PUSH1 0x0 PUSH1 0x60 PUSH2 0xEE5 DUP7 MLOAD PUSH2 0xBF6 PUSH2 0x1CF3 JUMP JUMPDEST PUSH2 0xC10 DUP10 DUP10 DUP10 DUP10 DUP10 DUP10 DUP10 PUSH2 0x22E4 PUSH2 0x230A PUSH2 0x1DEF JUMP JUMPDEST PUSH32 0x0 SWAP1 JUMP JUMPDEST PUSH32 0x0 SWAP1 JUMP JUMPDEST PUSH1 0x4 DUP1 SLOAD PUSH1 0x40 DUP1 MLOAD PUSH1 0x20 PUSH1 0x1F PUSH1 0x2 PUSH1 0x0 NOT PUSH2 0x100 PUSH1 0x1 DUP9 AND ISZERO MUL ADD SWAP1 SWAP6 AND SWAP5 SWAP1 SWAP5 DIV SWAP4 DUP5 ADD DUP2 SWAP1 DIV DUP2 MUL DUP3 ADD DUP2 ADD SWAP1 SWAP3 MSTORE DUP3 DUP2 MSTORE PUSH1 0x60 SWAP4 SWAP1 SWAP3 SWAP1 SWAP2 DUP4 ADD DUP3 DUP3 DUP1 ISZERO PUSH2 0x728 JUMPI DUP1 PUSH1 0x1F LT PUSH2 0x6FD JUMPI PUSH2 0x100 DUP1 DUP4 SLOAD DIV MUL DUP4 MSTORE SWAP2 PUSH1 0x20 ADD SWAP2 PUSH2 0x728 JUMP JUMPDEST PUSH1 0xA SLOAD PUSH1 0xB SLOAD SWAP1 SWAP2 JUMP JUMPDEST PUSH1 0x0 DUP4 PUSH1 0x80 ADD MLOAD PUSH2 0xFBF PUSH2 0x64E PUSH2 0xF1E JUMP JUMPDEST PUSH2 0xFCA PUSH2 0x674 PUSH2 0xB57 JUMP JUMPDEST PUSH2 0xFD2 PUSH2 0x14AD JUMP JUMPDEST PUSH2 0xFDD DUP6 DUP6 DUP6 PUSH2 0x236B JUMP JUMPDEST SWAP6 SWAP5 POP POP POP POP POP JUMP JUMPDEST PUSH2 0xFEF DUP2 PUSH2 0x2452 JUMP JUMPDEST ISZERO PUSH2 0x1001 JUMPI PUSH2 0xFFC PUSH2 0x247F JUMP JUMPDEST PUSH2 0x75B JUMP JUMPDEST PUSH2 0x100A DUP2 PUSH2 0x2497 JUMP JUMPDEST ISZERO PUSH2 0x1017 JUMPI PUSH2 0xFFC PUSH2 0x24B3 JUMP JUMPDEST PUSH2 0x75B PUSH2 0x135 PUSH2 0x24C6 JUMP JUMPDEST PUSH1 0x0 DUP1 PUSH2 0x102F CALLER DUP6 PUSH2 0x137B JUMP JUMPDEST SWAP1 POP DUP1 DUP4 LT PUSH2 0x1049 JUMPI PUSH2 0x1044 CALLER DUP6 PUSH1 0x0 PUSH2 0x1518 JUMP JUMPDEST PUSH2 0x1056 JUMP JUMPDEST PUSH2 0x1056 CALLER DUP6 DUP6 DUP5 SUB PUSH2 0x1518 JUMP JUMPDEST POP PUSH1 0x1 SWAP4 SWAP3 POP POP POP JUMP JUMPDEST PUSH1 0x0 PUSH2 0x740 CALLER DUP5 DUP5 PUSH2 0x17FA JUMP JUMPDEST PUSH1 0x0 PUSH2 0x8BA PUSH2 0x2519 JUMP JUMPDEST PUSH1 0x0 PUSH20 0x0 PUSH4 0x397BEE0 PUSH1 0xC DUP5 PUSH2 0x109E PUSH2 0x1691 JUMP JUMPDEST PUSH1 0x40 MLOAD DUP5 PUSH4 0xFFFFFFFF AND PUSH1 0xE0 SHL DUP2 MSTORE PUSH1 0x4 ADD PUSH2 0x10BC SWAP4 SWAP3 SWAP2 SWAP1 PUSH2 0x5E18 JUMP JUMPDEST PUSH1 0x20 PUSH1 0x40 MLOAD DUP1 DUP4 SUB DUP2 DUP7 DUP1 EXTCODESIZE ISZERO DUP1 ISZERO PUSH2 0x10D4 JUMPI PUSH1 0x0 DUP1 REVERT JUMPDEST POP GAS DELEGATECALL ISZERO DUP1 ISZERO PUSH2 0x10E8 JUMPI RETURNDATASIZE PUSH1 0x0 DUP1 RETURNDATACOPY RETURNDATASIZE PUSH1 0x0 REVERT JUMPDEST POP POP POP POP PUSH1 0x40 MLOAD RETURNDATASIZE PUSH1 0x1F NOT PUSH1 0x1F DUP3 ADD AND DUP3 ADD DUP1 PUSH1 0x40 MSTORE POP DUP2 ADD SWAP1 PUSH2 0x744 SWAP2 SWAP1 PUSH2 0x59E5 JUMP JUMPDEST PUSH2 0x400 SWAP1 JUMP JUMPDEST PUSH2 0x111A PUSH2 0x1580 JUMP JUMPDEST PUSH2 0x1123 DUP3 PUSH2 0x2452 JUMP JUMPDEST ISZERO PUSH2 0x1188 JUMPI PUSH2 0x1131 DUP2 PUSH2 0x2593 JUMP JUMPDEST PUSH2 0x1139 PUSH2 0x17B2 JUMP JUMPDEST PUSH1 0x1 PUSH1 0x1 PUSH1 0xA0 SHL SUB AND DUP3 PUSH1 0x1 PUSH1 0x1 PUSH1 0xA0 SHL SUB AND PUSH32 0xCA6C2C5B6B44B5F3F0C08F0E28E5B6DEDA1CB38C3FE1113E8031D926C1E8C6D0 DUP4 PUSH1 0x40 MLOAD PUSH2 0x117B SWAP2 SWAP1 PUSH2 0x5CED JUMP JUMPDEST PUSH1 0x40 MLOAD DUP1 SWAP2 SUB SWAP1 LOG3 PUSH2 0xBD0 JUMP JUMPDEST PUSH2 0x1191 DUP3 PUSH2 0x2497 JUMP JUMPDEST ISZERO PUSH2 0x11A7 JUMPI PUSH2 0x119F DUP2 PUSH2 0x25B5 JUMP JUMPDEST PUSH2 0x1139 PUSH2 0x17D6 JUMP JUMPDEST PUSH2 0xBD0 PUSH2 0x135 PUSH2 0x24C6 JUMP JUMPDEST PUSH1 0x0 DUP1 PUSH1 0x0 PUSH2 0x11C0 DUP5 PUSH2 0x25D1 JUMP JUMPDEST ISZERO PUSH2 0x11E0 JUMPI PUSH2 0x11D5 PUSH2 0x11D0 PUSH2 0x2603 JUMP JUMPDEST PUSH2 0x2609 JUMP JUMPDEST SWAP3 POP SWAP3 POP SWAP3 POP PUSH2 0x1204 JUMP JUMPDEST PUSH2 0x11E9 DUP5 PUSH2 0x262C JUMP JUMPDEST ISZERO PUSH2 0x11F9 JUMPI PUSH2 0x11D5 PUSH2 0x11D0 PUSH2 0x265E JUMP JUMPDEST PUSH2 0x1204 PUSH2 0x135 PUSH2 0x24C6 JUMP JUMPDEST SWAP2 SWAP4 SWAP1 SWAP3 POP JUMP JUMPDEST PUSH2 0x1219 DUP5 TIMESTAMP GT ISZERO PUSH1 0xD1 PUSH2 0x149F JUMP JUMPDEST PUSH1 0x1 PUSH1 0x1 PUSH1 0xA0 SHL SUB DUP8 AND PUSH1 0x0 SWAP1 DUP2 MSTORE PUSH1 0x6 PUSH1 0x20 SWAP1 DUP2 MSTORE PUSH1 0x40 DUP1 DUP4 KECCAK256 SLOAD SWAP1 MLOAD SWAP1 SWAP3 SWAP2 PUSH2 0x1270 SWAP2 PUSH32 0x0 SWAP2 DUP13 SWAP2 DUP13 SWAP2 DUP13 SWAP2 DUP9 SWAP2 DUP14 SWAP2 ADD PUSH2 0x5D15 JUMP JUMPDEST PUSH1 0x40 MLOAD PUSH1 0x20 DUP2 DUP4 SUB SUB DUP2 MSTORE SWAP1 PUSH1 0x40 MSTORE DUP1 MLOAD SWAP1 PUSH1 0x20 ADD KECCAK256 SWAP1 POP PUSH1 0x0 PUSH2 0x1293 DUP3 PUSH2 0x2664 JUMP JUMPDEST SWAP1 POP PUSH1 0x0 PUSH1 0x1 DUP3 DUP9 DUP9 DUP9 PUSH1 0x40 MLOAD PUSH1 0x0 DUP2 MSTORE PUSH1 0x20 ADD PUSH1 0x40 MSTORE PUSH1 0x40 MLOAD PUSH2 0x12BA SWAP5 SWAP4 SWAP3 SWAP2 SWAP1 PUSH2 0x5DA5 JUMP JUMPDEST PUSH1 0x20 PUSH1 0x40 MLOAD PUSH1 0x20 DUP2 SUB SWAP1 DUP1 DUP5 SUB SWAP1 DUP6 GAS STATICCALL ISZERO DUP1 ISZERO PUSH2 0x12DC JUMPI RETURNDATASIZE PUSH1 0x0 DUP1 RETURNDATACOPY RETURNDATASIZE PUSH1 0x0 REVERT JUMPDEST POP POP PUSH1 0x40 MLOAD PUSH1 0x1F NOT ADD MLOAD SWAP2 POP PUSH2 0x131E SWAP1 POP PUSH1 0x1 PUSH1 0x1 PUSH1 0xA0 SHL SUB DUP3 AND ISZERO DUP1 ISZERO SWAP1 PUSH2 0x1316 JUMPI POP DUP12 PUSH1 0x1 PUSH1 0x1 PUSH1 0xA0 SHL SUB AND DUP3 PUSH1 0x1 PUSH1 0x1 PUSH1 0xA0 SHL SUB AND EQ JUMPDEST PUSH2 0x1F8 PUSH2 0x149F JUMP JUMPDEST PUSH1 0x1 PUSH1 0x1 PUSH1 0xA0 SHL SUB DUP12 AND PUSH1 0x0 SWAP1 DUP2 MSTORE PUSH1 0x6 PUSH1 0x20 MSTORE PUSH1 0x40 SWAP1 KECCAK256 PUSH1 0x1 DUP6 ADD SWAP1 SSTORE PUSH2 0x1347 DUP12 DUP12 DUP12 PUSH2 0x1518 JUMP JUMPDEST POP POP POP POP POP POP POP POP POP POP POP JUMP JUMPDEST PUSH1 0x60 DUP1 PUSH2 0x135F PUSH2 0x14AD JUMP JUMPDEST PUSH2 0x136E DUP10 DUP10 DUP10 DUP10 DUP10 DUP10 DUP10 PUSH2 0x2680 JUMP JUMPDEST SWAP1 SWAP3 POP SWAP1 POP PUSH2 0xC10 PUSH2 0x1936 JUMP JUMPDEST PUSH1 0x1 PUSH1 0x1 PUSH1 0xA0 SHL SUB SWAP2 DUP3 AND PUSH1 0x0 SWAP1 DUP2 MSTORE PUSH1 0x1 PUSH1 0x20 SWAP1 DUP2 MSTORE PUSH1 0x40 DUP1 DUP4 KECCAK256 SWAP4 SWAP1 SWAP5 AND DUP3 MSTORE SWAP2 SWAP1 SWAP2 MSTORE KECCAK256 SLOAD SWAP1 JUMP JUMPDEST PUSH2 0x13AE PUSH2 0x1580 JUMP JUMPDEST PUSH1 0x0 DUP1 PUSH2 0x13B9 PUSH2 0x198C JUMP JUMPDEST SWAP2 POP SWAP2 POP PUSH2 0x13C9 DUP2 PUSH2 0x140 PUSH2 0x149F JUMP JUMPDEST PUSH2 0xBD0 DUP3 PUSH2 0x27A4 JUMP JUMPDEST PUSH3 0x1DE20 SWAP1 JUMP JUMPDEST DUP1 PUSH2 0xBD0 DUP2 PUSH2 0x27DF JUMP JUMPDEST PUSH1 0x0 DUP3 DUP3 MUL PUSH2 0xA0D DUP5 ISZERO DUP1 PUSH2 0x1400 JUMPI POP DUP4 DUP6 DUP4 DUP2 PUSH2 0x13FD JUMPI INVALID JUMPDEST DIV EQ JUMPDEST PUSH1 0x3 PUSH2 0x149F JUMP JUMPDEST PUSH2 0x141F DUP3 DUP5 EQ DUP1 ISZERO PUSH2 0x1418 JUMPI POP DUP2 DUP4 EQ JUMPDEST PUSH1 0x67 PUSH2 0x149F JUMP JUMPDEST POP POP POP JUMP JUMPDEST PUSH1 0x1 PUSH1 0x1 PUSH1 0x40 SHL SUB DUP2 SHL NOT SWAP3 SWAP1 SWAP3 AND SWAP2 SHL OR SWAP1 JUMP JUMPDEST PUSH1 0x0 PUSH2 0x1449 DUP4 DUP4 GT ISZERO PUSH1 0x1 PUSH2 0x149F JUMP JUMPDEST POP SWAP1 SUB SWAP1 JUMP JUMPDEST SHL SWAP1 JUMP JUMPDEST PUSH1 0x0 PUSH2 0xA0D DUP4 DUP4 PUSH1 0x55 JUMPDEST PUSH1 0x0 PUSH1 0x1 DUP3 SHL NOT DUP5 AND DUP3 DUP5 PUSH2 0x1473 JUMPI PUSH1 0x0 PUSH2 0x1476 JUMP JUMPDEST PUSH1 0x1 JUMPDEST PUSH1 0xFF AND SWAP1 SHL OR SWAP5 SWAP4 POP POP POP POP JUMP JUMPDEST PUSH1 0x1 PUSH1 0x1 PUSH1 0xC0 SHL SUB DUP3 DUP2 AND DUP3 SHL SWAP1 DUP3 SHL NOT DUP5 AND OR SWAP4 SWAP3 POP POP POP JUMP JUMPDEST DUP2 PUSH2 0xBD0 JUMPI PUSH2 0xBD0 DUP2 PUSH2 0x24C6 JUMP JUMPDEST PUSH2 0x14B5 PUSH2 0x2858 JUMP JUMPDEST PUSH2 0xA46 PUSH2 0x2898 JUMP JUMPDEST PUSH1 0x0 PUSH2 0x14D1 DUP4 DUP4 PUSH2 0x14CC PUSH2 0x1CF3 JUMP JUMPDEST PUSH2 0x28D3 JUMP JUMPDEST PUSH1 0x60 PUSH2 0x14DB PUSH2 0x16A3 JUMP JUMPDEST SWAP1 POP PUSH1 0x0 DUP7 MLOAD PUSH1 0x1 DUP2 GT ISZERO PUSH2 0x14EC JUMPI INVALID JUMPDEST EQ PUSH2 0x1503 JUMPI PUSH2 0x14FE DUP7 DUP7 DUP7 DUP7 DUP6 PUSH2 0x28EB JUMP JUMPDEST PUSH2 0x692 JUMP JUMPDEST PUSH2 0x692 DUP7 DUP7 DUP7 DUP7 DUP6 PUSH2 0x2960 JUMP JUMPDEST SWAP5 SWAP4 POP POP POP POP JUMP JUMPDEST PUSH1 0x1 PUSH1 0x1 PUSH1 0xA0 SHL SUB DUP1 DUP5 AND PUSH1 0x0 DUP2 DUP2 MSTORE PUSH1 0x1 PUSH1 0x20 SWAP1 DUP2 MSTORE PUSH1 0x40 DUP1 DUP4 KECCAK256 SWAP5 DUP8 AND DUP1 DUP5 MSTORE SWAP5 SWAP1 SWAP2 MSTORE SWAP1 DUP2 SWAP1 KECCAK256 DUP5 SWAP1 SSTORE MLOAD PUSH32 0x8C5BE1E5EBEC7D5BD14F71427D1E84F3DD0314C0F7B2291E5B200AC8C7C3B925 SWAP1 PUSH2 0x1573 SWAP1 DUP6 SWAP1 PUSH2 0x5CED JUMP JUMPDEST PUSH1 0x40 MLOAD DUP1 SWAP2 SUB SWAP1 LOG3 POP POP POP JUMP JUMPDEST PUSH1 0x0 PUSH2 0x1597 PUSH1 0x0 CALLDATALOAD PUSH1 0x1 PUSH1 0x1 PUSH1 0xE0 SHL SUB NOT AND PUSH2 0xE82 JUMP JUMPDEST SWAP1 POP PUSH2 0x75B PUSH2 0x15A6 DUP3 CALLER PUSH2 0x29C4 JUMP JUMPDEST PUSH2 0x191 PUSH2 0x149F JUMP JUMPDEST DUP1 ISZERO PUSH2 0x15CE JUMPI PUSH2 0x15C9 PUSH2 0x15BF PUSH2 0x1649 JUMP JUMPDEST TIMESTAMP LT PUSH2 0x193 PUSH2 0x149F JUMP JUMPDEST PUSH2 0x15E3 JUMP JUMPDEST PUSH2 0x15E3 PUSH2 0x15D9 PUSH2 0x166D JUMP JUMPDEST TIMESTAMP LT PUSH2 0x1A9 PUSH2 0x149F JUMP JUMPDEST PUSH1 0x7 DUP1 SLOAD PUSH1 0xFF NOT AND DUP3 ISZERO ISZERO OR SWAP1 SSTORE PUSH1 0x40 MLOAD PUSH32 0x9E3A5E37224532DEA67B89FACE185703738A228A6E8A23DEE546960180D3BE64 SWAP1 PUSH2 0x1621 SWAP1 DUP4 SWAP1 PUSH2 0x5CCA JUMP JUMPDEST PUSH1 0x40 MLOAD DUP1 SWAP2 SUB SWAP1 LOG1 POP JUMP JUMPDEST PUSH1 0x0 PUSH2 0x1636 PUSH2 0x166D JUMP JUMPDEST TIMESTAMP GT DUP1 PUSH2 0x8BA JUMPI POP POP PUSH1 0x7 SLOAD PUSH1 0xFF AND ISZERO SWAP1 JUMP JUMPDEST PUSH32 0x0 SWAP1 JUMP JUMPDEST PUSH32 0x0 SWAP1 JUMP JUMPDEST PUSH1 0x0 PUSH2 0x8BA PUSH2 0x169E PUSH2 0x176C JUMP JUMPDEST PUSH2 0x1798 JUMP JUMPDEST PUSH1 0x60 PUSH2 0x16AD PUSH2 0x2AB4 JUMP JUMPDEST SWAP1 POP PUSH2 0x16FE PUSH2 0x16DB PUSH32 0x0 PUSH2 0x2BEA JUMP JUMPDEST DUP3 PUSH1 0x0 DUP2 MLOAD DUP2 LT PUSH2 0x16E8 JUMPI INVALID JUMPDEST PUSH1 0x20 MUL PUSH1 0x20 ADD ADD MLOAD PUSH2 0x2C39 SWAP1 SWAP2 SWAP1 PUSH4 0xFFFFFFFF AND JUMP JUMPDEST DUP2 PUSH1 0x0 DUP2 MLOAD DUP2 LT PUSH2 0x170B JUMPI INVALID JUMPDEST PUSH1 0x20 MUL PUSH1 0x20 ADD ADD DUP2 DUP2 MSTORE POP POP PUSH2 0x1750 PUSH2 0x1743 PUSH32 0x0 PUSH2 0x2BEA JUMP JUMPDEST DUP3 PUSH1 0x1 DUP2 MLOAD DUP2 LT PUSH2 0x16E8 JUMPI INVALID JUMPDEST DUP2 PUSH1 0x1 DUP2 MLOAD DUP2 LT PUSH2 0x175D JUMPI INVALID JUMPDEST PUSH1 0x20 MUL PUSH1 0x20 ADD ADD DUP2 DUP2 MSTORE POP POP SWAP1 JUMP JUMPDEST PUSH1 0x8 SLOAD SWAP1 JUMP JUMPDEST PUSH1 0x0 PUSH2 0x744 DUP3 DUP3 PUSH2 0x2C65 JUMP JUMPDEST PUSH1 0x0 PUSH2 0x744 DUP3 PUSH1 0x16 PUSH2 0x2C65 JUMP JUMPDEST PUSH1 0x0 PUSH2 0x744 DUP3 PUSH1 0x2C PUSH2 0x2C8C JUMP JUMPDEST PUSH1 0x0 PUSH2 0x744 DUP3 PUSH1 0x4B PUSH2 0x2C96 JUMP JUMPDEST PUSH1 0x0 PUSH2 0x744 DUP3 PUSH1 0x55 PUSH2 0x2C9E JUMP JUMPDEST PUSH32 0x0 SWAP1 JUMP JUMPDEST PUSH32 0x0 SWAP1 JUMP JUMPDEST PUSH2 0x1811 PUSH1 0x1 PUSH1 0x1 PUSH1 0xA0 SHL SUB DUP5 AND ISZERO ISZERO PUSH2 0x198 PUSH2 0x149F JUMP JUMPDEST PUSH2 0x1828 PUSH1 0x1 PUSH1 0x1 PUSH1 0xA0 SHL SUB DUP4 AND ISZERO ISZERO PUSH2 0x199 PUSH2 0x149F JUMP JUMPDEST PUSH2 0x1833 DUP4 DUP4 DUP4 PUSH2 0x141F JUMP JUMPDEST PUSH1 0x1 PUSH1 0x1 PUSH1 0xA0 SHL SUB DUP4 AND PUSH1 0x0 SWAP1 DUP2 MSTORE PUSH1 0x20 DUP2 SWAP1 MSTORE PUSH1 0x40 SWAP1 KECCAK256 SLOAD PUSH2 0x1859 SWAP1 DUP3 PUSH2 0x1A0 PUSH2 0x2CA8 JUMP JUMPDEST PUSH1 0x1 PUSH1 0x1 PUSH1 0xA0 SHL SUB DUP1 DUP6 AND PUSH1 0x0 SWAP1 DUP2 MSTORE PUSH1 0x20 DUP2 SWAP1 MSTORE PUSH1 0x40 DUP1 DUP3 KECCAK256 SWAP4 SWAP1 SWAP4 SSTORE SWAP1 DUP5 AND DUP2 MSTORE KECCAK256 SLOAD PUSH2 0x1888 SWAP1 DUP3 PUSH2 0x1BD5 JUMP JUMPDEST PUSH1 0x1 PUSH1 0x1 PUSH1 0xA0 SHL SUB DUP1 DUP5 AND PUSH1 0x0 DUP2 DUP2 MSTORE PUSH1 0x20 DUP2 SWAP1 MSTORE PUSH1 0x40 SWAP1 DUP2 SWAP1 KECCAK256 SWAP4 SWAP1 SWAP4 SSTORE SWAP2 MLOAD SWAP1 DUP6 AND SWAP1 PUSH32 0xDDF252AD1BE2C89B69C2B068FC378DAA952BA7F163C4A11628F55A4DF523B3EF SWAP1 PUSH2 0x1573 SWAP1 DUP6 SWAP1 PUSH2 0x5CED JUMP JUMPDEST PUSH2 0xA46 PUSH2 0x18E5 PUSH2 0x162C JUMP JUMPDEST PUSH2 0x192 PUSH2 0x149F JUMP JUMPDEST PUSH2 0x1907 PUSH2 0x1902 DUP3 PUSH2 0x18FC PUSH2 0x176C JUMP JUMPDEST SWAP1 PUSH2 0x1453 JUMP JUMPDEST PUSH2 0x2CBE JUMP JUMPDEST PUSH32 0x3E350B41E86A8E10F804ADE6D35340D620BE35569CC75AC943E8BB14AB80EAD1 DUP2 PUSH1 0x40 MLOAD PUSH2 0x1621 SWAP2 SWAP1 PUSH2 0x5CCA JUMP JUMPDEST PUSH1 0x0 PUSH2 0x1940 PUSH2 0x176C JUMP JUMPDEST SWAP1 POP PUSH2 0x194B DUP2 PUSH2 0x17A5 JUMP JUMPDEST ISZERO PUSH2 0x75B JUMPI PUSH2 0x1965 PUSH2 0x195E PUSH1 0xA SLOAD PUSH2 0x2CD3 JUMP JUMPDEST DUP3 SWAP1 PUSH2 0x2D13 JUMP JUMPDEST SWAP1 POP PUSH2 0x1981 PUSH2 0x197A PUSH2 0x1975 PUSH2 0x75E JUMP JUMPDEST PUSH2 0x2CD3 JUMP JUMPDEST DUP3 SWAP1 PUSH2 0x2D20 JUMP JUMPDEST SWAP1 POP PUSH2 0x75B DUP2 PUSH2 0x2CBE JUMP JUMPDEST PUSH1 0x0 DUP1 PUSH1 0x0 DUP1 PUSH1 0x0 DUP1 PUSH2 0x199D PUSH2 0x2D2E JUMP JUMPDEST SWAP4 POP SWAP4 POP SWAP4 POP SWAP4 POP DUP1 TIMESTAMP LT ISZERO PUSH2 0x19F0 JUMPI PUSH1 0x1 SWAP5 POP DUP4 DUP4 GT ISZERO PUSH2 0x19D4 JUMPI DUP2 DUP2 SUB DUP3 TIMESTAMP SUB DUP6 DUP6 SUB MUL DUP2 PUSH2 0x19CA JUMPI INVALID JUMPDEST DIV DUP5 ADD SWAP6 POP PUSH2 0x19EB JUMP JUMPDEST DUP2 DUP2 SUB DUP3 TIMESTAMP SUB DUP5 DUP7 SUB MUL DUP2 PUSH2 0x19E5 JUMPI INVALID JUMPDEST DIV DUP5 SUB SWAP6 POP JUMPDEST PUSH2 0x19F8 JUMP JUMPDEST PUSH1 0x0 SWAP5 POP DUP3 SWAP6 POP JUMPDEST POP POP POP POP SWAP1 SWAP2 JUMP JUMPDEST PUSH1 0x0 PUSH2 0x1A0F DUP3 ISZERO ISZERO PUSH1 0x4 PUSH2 0x149F JUMP JUMPDEST DUP3 PUSH2 0x1A1C JUMPI POP PUSH1 0x0 PUSH2 0x744 JUMP JUMPDEST DUP2 PUSH1 0x1 DUP5 SUB DUP2 PUSH2 0x1A28 JUMPI INVALID JUMPDEST DIV PUSH1 0x1 ADD SWAP1 POP PUSH2 0x744 JUMP JUMPDEST PUSH2 0x1A47 DUP2 PUSH1 0x1 PUSH1 0x1 PUSH1 0x40 SHL SUB AND PUSH1 0xC0 PUSH2 0x144F JUMP JUMPDEST PUSH2 0x1A5B DUP4 PUSH1 0x1 PUSH1 0x1 PUSH1 0x40 SHL SUB AND PUSH1 0x80 PUSH2 0x144F JUMP JUMPDEST PUSH2 0x1A6F DUP6 PUSH1 0x1 PUSH1 0x1 PUSH1 0x40 SHL SUB AND PUSH1 0x40 PUSH2 0x144F JUMP JUMPDEST PUSH2 0x1A83 DUP8 PUSH1 0x1 PUSH1 0x1 PUSH1 0x40 SHL SUB AND PUSH1 0x0 PUSH2 0x144F JUMP JUMPDEST OR OR OR PUSH1 0x9 SSTORE PUSH1 0x40 MLOAD PUSH32 0x1835882EE7A34AC194F717A35E09BB1D24C82A3B9D854AB6C9749525B714CDF2 SWAP1 PUSH2 0x1ABF SWAP1 DUP7 SWAP1 DUP7 SWAP1 DUP7 SWAP1 DUP7 SWAP1 PUSH2 0x5F06 JUMP JUMPDEST PUSH1 0x40 MLOAD DUP1 SWAP2 SUB SWAP1 LOG1 POP POP POP POP JUMP JUMPDEST PUSH1 0x0 PUSH32 0x0 PUSH32 0x0 PUSH32 0x0 PUSH2 0x1B3A PUSH2 0x2D85 JUMP JUMPDEST ADDRESS PUSH1 0x40 MLOAD PUSH1 0x20 ADD PUSH2 0x1B4F SWAP6 SWAP5 SWAP4 SWAP3 SWAP2 SWAP1 PUSH2 0x5D49 JUMP JUMPDEST PUSH1 0x40 MLOAD PUSH1 0x20 DUP2 DUP4 SUB SUB DUP2 MSTORE SWAP1 PUSH1 0x40 MSTORE DUP1 MLOAD SWAP1 PUSH1 0x20 ADD KECCAK256 SWAP1 POP SWAP1 JUMP JUMPDEST PUSH2 0x1B7D PUSH5 0xE8D4A51000 DUP3 LT ISZERO PUSH1 0xCB PUSH2 0x149F JUMP JUMPDEST PUSH2 0x1B93 PUSH8 0x16345785D8A0000 DUP3 GT ISZERO PUSH1 0xCA PUSH2 0x149F JUMP JUMPDEST PUSH1 0x8 SLOAD PUSH2 0x1BA2 SWAP1 DUP3 PUSH1 0xC0 PUSH2 0x1424 JUMP JUMPDEST PUSH1 0x8 SSTORE PUSH1 0x40 MLOAD PUSH32 0xA9BA3FFE0B6C366B81232CAAB38605A0699AD5398D6CCE76F91EE809E322DAFC SWAP1 PUSH2 0x1621 SWAP1 DUP4 SWAP1 PUSH2 0x5CED JUMP JUMPDEST PUSH1 0x0 DUP3 DUP3 ADD PUSH2 0xA0D DUP5 DUP3 LT ISZERO DUP4 PUSH2 0x149F JUMP JUMPDEST PUSH1 0x0 PUSH2 0x1BF1 PUSH2 0xB57 JUMP JUMPDEST SWAP1 POP PUSH1 0x0 PUSH2 0x1BFD PUSH2 0xF1E JUMP JUMPDEST PUSH1 0x1 PUSH1 0x1 PUSH1 0xA0 SHL SUB AND PUSH4 0xB05F8E48 DUP4 DUP7 PUSH1 0x40 MLOAD DUP4 PUSH4 0xFFFFFFFF AND PUSH1 0xE0 SHL DUP2 MSTORE PUSH1 0x4 ADD PUSH2 0x1C2A SWAP3 SWAP2 SWAP1 PUSH2 0x5D8E JUMP JUMPDEST PUSH1 0x80 PUSH1 0x40 MLOAD DUP1 DUP4 SUB DUP2 DUP7 DUP1 EXTCODESIZE ISZERO DUP1 ISZERO PUSH2 0x1C42 JUMPI PUSH1 0x0 DUP1 REVERT JUMPDEST POP GAS STATICCALL ISZERO DUP1 ISZERO PUSH2 0x1C56 JUMPI RETURNDATASIZE PUSH1 0x0 DUP1 RETURNDATACOPY RETURNDATASIZE PUSH1 0x0 REVERT JUMPDEST POP POP POP POP PUSH1 0x40 MLOAD RETURNDATASIZE PUSH1 0x1F NOT PUSH1 0x1F DUP3 ADD AND DUP3 ADD DUP1 PUSH1 0x40 MSTORE POP DUP2 ADD SWAP1 PUSH2 0x1C7A SWAP2 SWAP1 PUSH2 0x5AF1 JUMP JUMPDEST PUSH1 0x40 MLOAD PUSH4 0x639CDB5 PUSH1 0xE2 SHL DUP2 MSTORE SWAP1 SWAP5 POP PUSH1 0x1 PUSH1 0x1 PUSH1 0xA0 SHL SUB DUP6 AND SWAP4 POP PUSH4 0x18E736D4 SWAP3 POP PUSH2 0x1CAE SWAP2 POP DUP6 SWAP1 DUP8 SWAP1 PUSH1 0x4 ADD PUSH2 0x5D75 JUMP JUMPDEST PUSH1 0x0 PUSH1 0x40 MLOAD DUP1 DUP4 SUB DUP2 PUSH1 0x0 DUP8 DUP1 EXTCODESIZE ISZERO DUP1 ISZERO PUSH2 0x1CC8 JUMPI PUSH1 0x0 DUP1 REVERT JUMPDEST POP GAS CALL ISZERO DUP1 ISZERO PUSH2 0x1CDC JUMPI RETURNDATASIZE PUSH1 0x0 DUP1 RETURNDATACOPY RETURNDATASIZE PUSH1 0x0 REVERT JUMPDEST POP POP POP POP POP POP POP POP JUMP JUMPDEST SHR PUSH1 0x1 PUSH1 0x1 PUSH1 0x40 SHL SUB AND SWAP1 JUMP JUMPDEST PUSH32 0x0 SWAP1 JUMP JUMPDEST PUSH2 0xBD0 DUP2 DUP4 EQ PUSH1 0x67 PUSH2 0x149F JUMP JUMPDEST PUSH1 0x0 PUSH1 0x60 DUP1 PUSH2 0x1D31 PUSH2 0x162C JUMP JUMPDEST ISZERO PUSH2 0x1D69 JUMPI PUSH2 0x1D69 DUP8 DUP10 PUSH1 0x0 DUP2 MLOAD DUP2 LT PUSH2 0x1D47 JUMPI INVALID JUMPDEST PUSH1 0x20 MUL PUSH1 0x20 ADD ADD MLOAD DUP11 PUSH1 0x1 DUP2 MLOAD DUP2 LT PUSH2 0x1D5C JUMPI INVALID JUMPDEST PUSH1 0x20 MUL PUSH1 0x20 ADD ADD MLOAD PUSH2 0x2D89 JUMP JUMPDEST PUSH2 0x1D79 DUP12 DUP12 DUP12 DUP12 DUP12 DUP12 DUP12 DUP12 PUSH2 0x2E3E JUMP JUMPDEST SWAP3 POP SWAP3 POP SWAP3 POP JUMPDEST SWAP9 POP SWAP9 POP SWAP9 SWAP6 POP POP POP POP POP POP JUMP JUMPDEST PUSH1 0x0 JUMPDEST PUSH2 0x1D99 PUSH2 0x1CF3 JUMP JUMPDEST DUP2 LT ISZERO PUSH2 0x141F JUMPI PUSH2 0x1DD0 DUP4 DUP3 DUP2 MLOAD DUP2 LT PUSH2 0x1DAF JUMPI INVALID JUMPDEST PUSH1 0x20 MUL PUSH1 0x20 ADD ADD MLOAD DUP4 DUP4 DUP2 MLOAD DUP2 LT PUSH2 0x1DC3 JUMPI INVALID JUMPDEST PUSH1 0x20 MUL PUSH1 0x20 ADD ADD MLOAD PUSH2 0x2184 JUMP JUMPDEST DUP4 DUP3 DUP2 MLOAD DUP2 LT PUSH2 0x1DDC JUMPI INVALID JUMPDEST PUSH1 0x20 SWAP1 DUP2 MUL SWAP2 SWAP1 SWAP2 ADD ADD MSTORE PUSH1 0x1 ADD PUSH2 0x1D91 JUMP JUMPDEST CALLER ADDRESS EQ PUSH2 0x1EAD JUMPI PUSH1 0x0 ADDRESS PUSH1 0x1 PUSH1 0x1 PUSH1 0xA0 SHL SUB AND PUSH1 0x0 CALLDATASIZE PUSH1 0x40 MLOAD PUSH2 0x1E13 SWAP3 SWAP2 SWAP1 PUSH2 0x5BCE JUMP JUMPDEST PUSH1 0x0 PUSH1 0x40 MLOAD DUP1 DUP4 SUB DUP2 PUSH1 0x0 DUP7 GAS CALL SWAP2 POP POP RETURNDATASIZE DUP1 PUSH1 0x0 DUP2 EQ PUSH2 0x1E50 JUMPI PUSH1 0x40 MLOAD SWAP2 POP PUSH1 0x1F NOT PUSH1 0x3F RETURNDATASIZE ADD AND DUP3 ADD PUSH1 0x40 MSTORE RETURNDATASIZE DUP3 MSTORE RETURNDATASIZE PUSH1 0x0 PUSH1 0x20 DUP5 ADD RETURNDATACOPY PUSH2 0x1E55 JUMP JUMPDEST PUSH1 0x60 SWAP2 POP JUMPDEST POP POP SWAP1 POP DUP1 PUSH1 0x0 DUP2 EQ PUSH2 0x1E64 JUMPI INVALID JUMPDEST PUSH1 0x4 PUSH1 0x0 DUP1 RETURNDATACOPY PUSH1 0x0 MLOAD PUSH1 0x1 PUSH1 0x1 PUSH1 0xE0 SHL SUB NOT AND PUSH4 0x43ADBAFB PUSH1 0xE0 SHL DUP2 EQ PUSH2 0x1E8F JUMPI RETURNDATASIZE PUSH1 0x0 DUP1 RETURNDATACOPY RETURNDATASIZE PUSH1 0x0 REVERT JUMPDEST POP PUSH1 0x20 PUSH1 0x4 PUSH1 0x0 RETURNDATACOPY PUSH1 0x40 PUSH1 0x20 MSTORE PUSH1 0x24 RETURNDATASIZE SUB PUSH1 0x24 PUSH1 0x40 RETURNDATACOPY PUSH1 0x1C RETURNDATASIZE ADD PUSH1 0x0 RETURN JUMPDEST PUSH1 0x60 PUSH2 0x1EB7 PUSH2 0x16A3 JUMP JUMPDEST SWAP1 POP PUSH2 0x1EC3 DUP8 DUP3 PUSH2 0x1F87 JUMP JUMPDEST PUSH1 0x0 PUSH1 0x60 PUSH2 0x1EDB DUP13 DUP13 DUP13 DUP13 DUP13 DUP13 DUP10 DUP14 DUP14 PUSH4 0xFFFFFFFF AND JUMP JUMPDEST POP SWAP2 POP SWAP2 POP PUSH2 0x1EEE DUP2 DUP5 DUP7 PUSH4 0xFFFFFFFF AND JUMP JUMPDEST DUP1 MLOAD PUSH1 0x1F NOT DUP3 ADD DUP4 SWAP1 MSTORE PUSH4 0x43ADBAFB PUSH1 0x3F NOT DUP4 ADD MSTORE PUSH1 0x20 MUL PUSH1 0x23 NOT DUP3 ADD PUSH1 0x44 DUP3 ADD DUP2 REVERT JUMPDEST PUSH1 0x0 SWAP1 DUP2 MSTORE PUSH1 0xC PUSH1 0x20 MSTORE PUSH1 0x40 SWAP1 KECCAK256 SLOAD SWAP1 JUMP JUMPDEST PUSH1 0x0 DUP1 PUSH1 0x0 DUP1 PUSH1 0x0 DUP1 PUSH1 0x0 PUSH2 0x1F38 DUP9 PUSH2 0x2ED3 JUMP JUMPDEST SWAP7 POP PUSH2 0x1F43 DUP9 PUSH2 0x2EE0 JUMP JUMPDEST SWAP6 POP PUSH2 0x1F4E DUP9 PUSH2 0x2EED JUMP JUMPDEST SWAP5 POP PUSH2 0x1F59 DUP9 PUSH2 0x2EFA JUMP JUMPDEST SWAP4 POP PUSH2 0x1F64 DUP9 PUSH2 0x2F07 JUMP JUMPDEST SWAP3 POP PUSH2 0x1F6F DUP9 PUSH2 0x2F14 JUMP JUMPDEST SWAP2 POP PUSH2 0x1F7A DUP9 PUSH2 0x2F21 JUMP JUMPDEST SWAP1 POP SWAP2 SWAP4 SWAP6 SWAP8 SWAP1 SWAP3 SWAP5 SWAP7 POP JUMP JUMPDEST PUSH1 0x0 JUMPDEST PUSH2 0x1F92 PUSH2 0x1CF3 JUMP JUMPDEST DUP2 LT ISZERO PUSH2 0x141F JUMPI PUSH2 0x1FC9 DUP4 DUP3 DUP2 MLOAD DUP2 LT PUSH2 0x1FA8 JUMPI INVALID JUMPDEST PUSH1 0x20 MUL PUSH1 0x20 ADD ADD MLOAD DUP4 DUP4 DUP2 MLOAD DUP2 LT PUSH2 0x1FBC JUMPI INVALID JUMPDEST PUSH1 0x20 MUL PUSH1 0x20 ADD ADD MLOAD PUSH2 0x2C39 JUMP JUMPDEST DUP4 DUP3 DUP2 MLOAD DUP2 LT PUSH2 0x1FD5 JUMPI INVALID JUMPDEST PUSH1 0x20 SWAP1 DUP2 MUL SWAP2 SWAP1 SWAP2 ADD ADD MSTORE PUSH1 0x1 ADD PUSH2 0x1F8A JUMP JUMPDEST DUP2 MLOAD PUSH1 0x0 SWAP1 DUP2 SWAP1 DUP2 JUMPDEST DUP2 DUP2 LT ISZERO PUSH2 0x2029 JUMPI PUSH2 0x201F DUP7 DUP3 DUP2 MLOAD DUP2 LT PUSH2 0x2008 JUMPI INVALID JUMPDEST PUSH1 0x20 MUL PUSH1 0x20 ADD ADD MLOAD DUP5 PUSH2 0x1BD5 SWAP1 SWAP2 SWAP1 PUSH4 0xFFFFFFFF AND JUMP JUMPDEST SWAP3 POP PUSH1 0x1 ADD PUSH2 0x1FF1 JUMP JUMPDEST POP DUP2 PUSH2 0x203A JUMPI PUSH1 0x0 SWAP3 POP POP POP PUSH2 0xA0D JUMP JUMPDEST PUSH1 0x0 DUP3 DUP8 DUP4 MUL DUP3 JUMPDEST PUSH1 0xFF DUP2 LT ISZERO PUSH2 0x216C JUMPI PUSH1 0x0 DUP6 DUP11 PUSH1 0x0 DUP2 MLOAD DUP2 LT PUSH2 0x205B JUMPI INVALID JUMPDEST PUSH1 0x20 MUL PUSH1 0x20 ADD ADD MLOAD MUL SWAP1 POP PUSH1 0x0 PUSH1 0x1 SWAP1 POP JUMPDEST DUP7 DUP2 LT ISZERO PUSH2 0x20AF JUMPI PUSH2 0x20A5 PUSH2 0x209E PUSH2 0x2098 DUP5 DUP15 DUP6 DUP2 MLOAD DUP2 LT PUSH2 0x208B JUMPI INVALID JUMPDEST PUSH1 0x20 MUL PUSH1 0x20 ADD ADD MLOAD PUSH2 0x13E3 JUMP JUMPDEST DUP10 PUSH2 0x13E3 JUMP JUMPDEST DUP7 DUP13 PUSH2 0x2F2D JUMP JUMPDEST SWAP2 POP PUSH1 0x1 ADD PUSH2 0x206D JUMP JUMPDEST POP DUP4 SWAP5 POP PUSH2 0x2122 PUSH2 0x20F1 PUSH2 0x20D8 PUSH2 0x20CF PUSH2 0x20C9 DUP8 DUP13 PUSH2 0x13E3 JUMP JUMPDEST DUP6 PUSH2 0x13E3 JUMP JUMPDEST PUSH2 0x3E8 DUP14 PUSH2 0x2F2D JUMP JUMPDEST PUSH2 0x20EB PUSH2 0x20E5 DUP11 DUP10 PUSH2 0x13E3 JUMP JUMPDEST DUP9 PUSH2 0x13E3 JUMP JUMPDEST SWAP1 PUSH2 0x1BD5 JUMP JUMPDEST PUSH2 0x211C PUSH2 0x210F PUSH2 0x2105 PUSH2 0x3E8 DUP9 SUB DUP7 PUSH2 0x13E3 JUMP JUMPDEST PUSH2 0x3E8 DUP15 ISZERO PUSH2 0x2F2D JUMP JUMPDEST PUSH2 0x20EB DUP11 PUSH1 0x1 ADD DUP10 PUSH2 0x13E3 JUMP JUMPDEST DUP12 PUSH2 0x2F2D JUMP JUMPDEST SWAP4 POP DUP5 DUP5 GT ISZERO PUSH2 0x214A JUMPI PUSH1 0x1 DUP6 DUP6 SUB GT PUSH2 0x2145 JUMPI DUP4 SWAP8 POP POP POP POP POP POP POP POP PUSH2 0xA0D JUMP JUMPDEST PUSH2 0x2163 JUMP JUMPDEST PUSH1 0x1 DUP5 DUP7 SUB GT PUSH2 0x2163 JUMPI DUP4 SWAP8 POP POP POP POP POP POP POP POP PUSH2 0xA0D JUMP JUMPDEST POP PUSH1 0x1 ADD PUSH2 0x2042 JUMP JUMPDEST POP PUSH2 0x2178 PUSH2 0x142 PUSH2 0x24C6 JUMP JUMPDEST POP POP POP POP POP SWAP4 SWAP3 POP POP POP JUMP JUMPDEST PUSH1 0x0 PUSH2 0x2193 DUP3 ISZERO ISZERO PUSH1 0x4 PUSH2 0x149F JUMP JUMPDEST DUP3 PUSH2 0x21A0 JUMPI POP PUSH1 0x0 PUSH2 0x744 JUMP JUMPDEST PUSH8 0xDE0B6B3A7640000 DUP4 DUP2 MUL SWAP1 PUSH2 0x21C3 SWAP1 DUP6 DUP4 DUP2 PUSH2 0x21BA JUMPI INVALID JUMPDEST DIV EQ PUSH1 0x5 PUSH2 0x149F JUMP JUMPDEST DUP3 DUP2 DUP2 PUSH2 0x21CC JUMPI INVALID JUMPDEST DIV SWAP2 POP POP PUSH2 0x744 JUMP JUMPDEST PUSH1 0x40 MLOAD PUSH4 0x34171A85 PUSH1 0xE0 SHL DUP2 MSTORE PUSH1 0x0 SWAP1 PUSH20 0x0 SWAP1 PUSH4 0x34171A85 SWAP1 PUSH2 0x2216 SWAP1 PUSH1 0xC SWAP1 DUP9 SWAP1 DUP9 SWAP1 DUP9 SWAP1 PUSH1 0x4 ADD PUSH2 0x5E39 JUMP JUMPDEST PUSH1 0x20 PUSH1 0x40 MLOAD DUP1 DUP4 SUB DUP2 DUP7 DUP1 EXTCODESIZE ISZERO DUP1 ISZERO PUSH2 0x222E JUMPI PUSH1 0x0 DUP1 REVERT JUMPDEST POP GAS DELEGATECALL ISZERO DUP1 ISZERO PUSH2 0x2242 JUMPI RETURNDATASIZE PUSH1 0x0 DUP1 RETURNDATACOPY RETURNDATASIZE PUSH1 0x0 REVERT JUMPDEST POP POP POP POP PUSH1 0x40 MLOAD RETURNDATASIZE PUSH1 0x1F NOT PUSH1 0x1F DUP3 ADD AND DUP3 ADD DUP1 PUSH1 0x40 MSTORE POP DUP2 ADD SWAP1 PUSH2 0x1510 SWAP2 SWAP1 PUSH2 0x59E5 JUMP JUMPDEST PUSH1 0x60 DUP1 DUP9 PUSH2 0x2275 PUSH2 0x64E PUSH2 0xF1E JUMP JUMPDEST PUSH2 0x2280 PUSH2 0x674 PUSH2 0xB57 JUMP JUMPDEST PUSH1 0x60 PUSH2 0x228A PUSH2 0x16A3 JUMP JUMPDEST SWAP1 POP PUSH2 0x2296 DUP9 DUP3 PUSH2 0x1F87 JUMP JUMPDEST PUSH1 0x0 PUSH1 0x60 DUP1 PUSH2 0x22AB DUP15 DUP15 DUP15 DUP15 DUP15 DUP15 DUP11 DUP16 PUSH2 0x1D24 JUMP JUMPDEST SWAP3 POP SWAP3 POP SWAP3 POP PUSH2 0x22BB DUP14 DUP5 PUSH2 0x2F4D JUMP JUMPDEST PUSH2 0x22C5 DUP3 DUP6 PUSH2 0x1D8E JUMP JUMPDEST PUSH2 0x22CF DUP2 DUP6 PUSH2 0x1D8E JUMP JUMPDEST SWAP1 SWAP6 POP SWAP4 POP POP POP JUMPDEST POP SWAP8 POP SWAP8 SWAP6 POP POP POP POP POP POP JUMP JUMPDEST PUSH1 0x0 PUSH1 0x60 DUP1 PUSH2 0x22FA DUP8 DUP10 PUSH1 0x0 DUP2 MLOAD DUP2 LT PUSH2 0x1D47 JUMPI INVALID JUMPDEST PUSH2 0x1D79 DUP12 DUP12 DUP12 DUP12 DUP12 DUP12 DUP12 DUP12 PUSH2 0x2F57 JUMP JUMPDEST PUSH1 0x0 JUMPDEST PUSH2 0x2315 PUSH2 0x1CF3 JUMP JUMPDEST DUP2 LT ISZERO PUSH2 0x141F JUMPI PUSH2 0x234C DUP4 DUP3 DUP2 MLOAD DUP2 LT PUSH2 0x232B JUMPI INVALID JUMPDEST PUSH1 0x20 MUL PUSH1 0x20 ADD ADD MLOAD DUP4 DUP4 DUP2 MLOAD DUP2 LT PUSH2 0x233F JUMPI INVALID JUMPDEST PUSH1 0x20 MUL PUSH1 0x20 ADD ADD MLOAD PUSH2 0x2FB0 JUMP JUMPDEST DUP4 DUP3 DUP2 MLOAD DUP2 LT PUSH2 0x2358 JUMPI INVALID JUMPDEST PUSH1 0x20 SWAP1 DUP2 MUL SWAP2 SWAP1 SWAP2 ADD ADD MSTORE PUSH1 0x1 ADD PUSH2 0x230D JUMP JUMPDEST PUSH1 0x0 DUP1 PUSH2 0x237B DUP6 PUSH1 0x20 ADD MLOAD PUSH2 0x2FFE JUMP JUMPDEST SWAP1 POP PUSH1 0x0 PUSH2 0x238C DUP7 PUSH1 0x40 ADD MLOAD PUSH2 0x2FFE JUMP JUMPDEST SWAP1 POP PUSH1 0x0 DUP7 MLOAD PUSH1 0x1 DUP2 GT ISZERO PUSH2 0x239D JUMPI INVALID JUMPDEST EQ ISZERO PUSH2 0x2403 JUMPI PUSH2 0x23B0 DUP7 PUSH1 0x60 ADD MLOAD PUSH2 0x3023 JUMP JUMPDEST PUSH1 0x60 DUP8 ADD MSTORE PUSH2 0x23BF DUP6 DUP4 PUSH2 0x3044 JUMP JUMPDEST SWAP5 POP PUSH2 0x23CB DUP5 DUP3 PUSH2 0x3044 JUMP JUMPDEST SWAP4 POP PUSH2 0x23DB DUP7 PUSH1 0x60 ADD MLOAD DUP4 PUSH2 0x3044 JUMP JUMPDEST PUSH1 0x60 DUP8 ADD MSTORE PUSH1 0x0 PUSH2 0x23ED DUP8 DUP8 DUP8 PUSH2 0x3050 JUMP JUMPDEST SWAP1 POP PUSH2 0x23F9 DUP2 DUP4 PUSH2 0x3089 JUMP JUMPDEST SWAP4 POP POP POP POP PUSH2 0xA0D JUMP JUMPDEST PUSH2 0x240D DUP6 DUP4 PUSH2 0x3044 JUMP JUMPDEST SWAP5 POP PUSH2 0x2419 DUP5 DUP3 PUSH2 0x3044 JUMP JUMPDEST SWAP4 POP PUSH2 0x2429 DUP7 PUSH1 0x60 ADD MLOAD DUP3 PUSH2 0x3044 JUMP JUMPDEST PUSH1 0x60 DUP8 ADD MSTORE PUSH1 0x0 PUSH2 0x243B DUP8 DUP8 DUP8 PUSH2 0x3095 JUMP JUMPDEST SWAP1 POP PUSH2 0x2447 DUP2 DUP5 PUSH2 0x30C4 JUMP JUMPDEST SWAP1 POP PUSH2 0x23F9 DUP2 PUSH2 0x30D0 JUMP JUMPDEST PUSH1 0x0 PUSH2 0x245D DUP3 PUSH2 0x25D1 JUMP JUMPDEST DUP1 ISZERO PUSH2 0x744 JUMPI POP PUSH1 0x0 PUSH2 0x246E PUSH2 0x17B2 JUMP JUMPDEST PUSH1 0x1 PUSH1 0x1 PUSH1 0xA0 SHL SUB AND EQ ISZERO SWAP3 SWAP2 POP POP JUMP JUMPDEST PUSH2 0xA46 PUSH2 0x2492 PUSH2 0x248D PUSH2 0x2603 JUMP JUMPDEST PUSH2 0x30F6 JUMP JUMPDEST PUSH2 0x2593 JUMP JUMPDEST PUSH1 0x0 PUSH2 0x24A2 DUP3 PUSH2 0x262C JUMP JUMPDEST DUP1 ISZERO PUSH2 0x744 JUMPI POP PUSH1 0x0 PUSH2 0x246E PUSH2 0x17D6 JUMP JUMPDEST PUSH2 0xA46 PUSH2 0x24C1 PUSH2 0x248D PUSH2 0x265E JUMP JUMPDEST PUSH2 0x25B5 JUMP JUMPDEST PUSH3 0x461BCD PUSH1 0xE5 SHL PUSH1 0x0 SWAP1 DUP2 MSTORE PUSH1 0x20 PUSH1 0x4 MSTORE PUSH1 0x7 PUSH1 0x24 MSTORE PUSH7 0x42414C23000030 PUSH1 0xA DUP1 DUP5 DIV DUP2 DUP2 MOD PUSH1 0x30 SWAP1 DUP2 ADD PUSH1 0x8 SHL SWAP6 DUP4 SWAP1 MOD SWAP6 SWAP1 SWAP6 ADD SWAP1 DUP3 SWAP1 DIV SWAP2 DUP3 MOD SWAP1 SWAP5 ADD PUSH1 0x10 SHL SWAP4 SWAP1 SWAP4 ADD ADD PUSH1 0xC8 SHL PUSH1 0x44 MSTORE PUSH1 0x64 SWAP1 REVERT JUMPDEST PUSH1 0x0 PUSH2 0x2523 PUSH2 0xF1E JUMP JUMPDEST PUSH1 0x1 PUSH1 0x1 PUSH1 0xA0 SHL SUB AND PUSH4 0xAAABADC5 PUSH1 0x40 MLOAD DUP2 PUSH4 0xFFFFFFFF AND PUSH1 0xE0 SHL DUP2 MSTORE PUSH1 0x4 ADD PUSH1 0x20 PUSH1 0x40 MLOAD DUP1 DUP4 SUB DUP2 DUP7 DUP1 EXTCODESIZE ISZERO DUP1 ISZERO PUSH2 0x255B JUMPI PUSH1 0x0 DUP1 REVERT JUMPDEST POP GAS STATICCALL ISZERO DUP1 ISZERO PUSH2 0x256F JUMPI RETURNDATASIZE PUSH1 0x0 DUP1 RETURNDATACOPY RETURNDATASIZE PUSH1 0x0 REVERT JUMPDEST POP POP POP POP PUSH1 0x40 MLOAD RETURNDATASIZE PUSH1 0x1F NOT PUSH1 0x1F DUP3 ADD AND DUP3 ADD DUP1 PUSH1 0x40 MSTORE POP DUP2 ADD SWAP1 PUSH2 0x8BA SWAP2 SWAP1 PUSH2 0x5857 JUMP JUMPDEST PUSH1 0x0 DUP1 PUSH2 0x25A7 PUSH2 0x25A1 PUSH2 0x17B2 JUMP JUMPDEST DUP5 PUSH2 0x3103 JUMP JUMPDEST SWAP2 POP SWAP2 POP PUSH2 0x141F DUP3 DUP3 PUSH2 0x31D4 JUMP JUMPDEST PUSH1 0x0 DUP1 PUSH2 0x25C3 PUSH2 0x25A1 PUSH2 0x17D6 JUMP JUMPDEST SWAP2 POP SWAP2 POP PUSH2 0x141F DUP3 DUP3 PUSH2 0x3240 JUMP JUMPDEST PUSH32 0x0 PUSH1 0x1 PUSH1 0x1 PUSH1 0xA0 SHL SUB SWAP1 DUP2 AND SWAP2 AND EQ SWAP1 JUMP JUMPDEST PUSH1 0xD SLOAD SWAP1 JUMP JUMPDEST PUSH1 0x0 DUP1 PUSH1 0x0 PUSH2 0x2617 DUP5 PUSH2 0x32A0 JUMP JUMPDEST SWAP3 POP PUSH2 0x2622 DUP5 PUSH2 0x32AC JUMP JUMPDEST SWAP4 SWAP6 SWAP1 SWAP5 POP SWAP2 POP POP JUMP JUMPDEST PUSH32 0x0 PUSH1 0x1 PUSH1 0x1 PUSH1 0xA0 SHL SUB SWAP1 DUP2 AND SWAP2 AND EQ SWAP1 JUMP JUMPDEST PUSH1 0xE SLOAD SWAP1 JUMP JUMPDEST PUSH1 0x0 PUSH2 0x266E PUSH2 0x1ACD JUMP JUMPDEST DUP3 PUSH1 0x40 MLOAD PUSH1 0x20 ADD PUSH2 0xEB7 SWAP3 SWAP2 SWAP1 PUSH2 0x5BDE JUMP JUMPDEST PUSH1 0x60 DUP1 DUP9 PUSH2 0x268F PUSH2 0x64E PUSH2 0xF1E JUMP JUMPDEST PUSH2 0x269A PUSH2 0x674 PUSH2 0xB57 JUMP JUMPDEST PUSH1 0x60 PUSH2 0x26A4 PUSH2 0x16A3 JUMP JUMPDEST SWAP1 POP PUSH2 0x26AE PUSH2 0x75E JUMP JUMPDEST PUSH2 0x2754 JUMPI PUSH1 0x0 PUSH1 0x60 PUSH2 0x26C3 DUP14 DUP14 DUP14 DUP7 DUP12 PUSH2 0x32CC JUMP JUMPDEST SWAP2 POP SWAP2 POP PUSH2 0x26D8 PUSH3 0xF4240 DUP4 LT ISZERO PUSH1 0xCC PUSH2 0x149F JUMP JUMPDEST PUSH2 0x26E6 PUSH1 0x0 PUSH3 0xF4240 PUSH2 0x335B JUMP JUMPDEST PUSH2 0x26F5 DUP12 PUSH3 0xF4240 DUP5 SUB PUSH2 0x335B JUMP JUMPDEST PUSH2 0x26FF DUP2 DUP5 PUSH2 0x230A JUMP JUMPDEST DUP1 PUSH2 0x2708 PUSH2 0x1CF3 JUMP JUMPDEST PUSH1 0x1 PUSH1 0x1 PUSH1 0x40 SHL SUB DUP2 GT DUP1 ISZERO PUSH2 0x271D JUMPI PUSH1 0x0 DUP1 REVERT JUMPDEST POP PUSH1 0x40 MLOAD SWAP1 DUP1 DUP3 MSTORE DUP1 PUSH1 0x20 MUL PUSH1 0x20 ADD DUP3 ADD PUSH1 0x40 MSTORE DUP1 ISZERO PUSH2 0x2747 JUMPI DUP2 PUSH1 0x20 ADD PUSH1 0x20 DUP3 MUL DUP1 CALLDATASIZE DUP4 CALLDATACOPY ADD SWAP1 POP JUMPDEST POP SWAP6 POP SWAP6 POP POP POP POP PUSH2 0x22D7 JUMP JUMPDEST PUSH2 0x275E DUP9 DUP3 PUSH2 0x1F87 JUMP JUMPDEST PUSH1 0x0 PUSH1 0x60 DUP1 PUSH2 0x2773 DUP15 DUP15 DUP15 DUP15 DUP15 DUP15 DUP11 DUP16 PUSH2 0x22E4 JUMP JUMPDEST SWAP3 POP SWAP3 POP SWAP3 POP PUSH2 0x2783 DUP13 DUP5 PUSH2 0x335B JUMP JUMPDEST PUSH2 0x278D DUP3 DUP6 PUSH2 0x230A JUMP JUMPDEST PUSH2 0x2797 DUP2 DUP6 PUSH2 0x1D8E JUMP JUMPDEST SWAP1 SWAP6 POP SWAP4 POP PUSH2 0x22D7 SWAP2 POP POP JUMP JUMPDEST PUSH2 0x27B0 DUP2 DUP3 TIMESTAMP TIMESTAMP PUSH2 0x1A33 JUMP JUMPDEST PUSH32 0xA0D01593E47E69D07E0CCD87BECE09411E07DD1ED40CA8F2E7AF2976542A0233 DUP2 PUSH1 0x40 MLOAD PUSH2 0x1621 SWAP2 SWAP1 PUSH2 0x5CED JUMP JUMPDEST PUSH1 0x2 DUP2 MLOAD LT ISZERO PUSH2 0x27EE JUMPI PUSH2 0x75B JUMP JUMPDEST PUSH1 0x0 DUP2 PUSH1 0x0 DUP2 MLOAD DUP2 LT PUSH2 0x27FD JUMPI INVALID JUMPDEST PUSH1 0x20 MUL PUSH1 0x20 ADD ADD MLOAD SWAP1 POP PUSH1 0x0 PUSH1 0x1 SWAP1 POP JUMPDEST DUP3 MLOAD DUP2 LT ISZERO PUSH2 0x141F JUMPI PUSH1 0x0 DUP4 DUP3 DUP2 MLOAD DUP2 LT PUSH2 0x2825 JUMPI INVALID JUMPDEST PUSH1 0x20 MUL PUSH1 0x20 ADD ADD MLOAD SWAP1 POP PUSH2 0x284E DUP2 PUSH1 0x1 PUSH1 0x1 PUSH1 0xA0 SHL SUB AND DUP5 PUSH1 0x1 PUSH1 0x1 PUSH1 0xA0 SHL SUB AND LT PUSH1 0x65 PUSH2 0x149F JUMP JUMPDEST SWAP2 POP PUSH1 0x1 ADD PUSH2 0x280E JUMP JUMPDEST PUSH1 0x0 PUSH2 0x2862 PUSH2 0x17B2 JUMP JUMPDEST PUSH1 0x1 PUSH1 0x1 PUSH1 0xA0 SHL SUB AND EQ PUSH2 0xA46 JUMPI PUSH1 0x0 DUP1 PUSH2 0x2883 PUSH2 0x287E PUSH2 0x2603 JUMP JUMPDEST PUSH2 0x32AC JUMP JUMPDEST SWAP2 POP SWAP2 POP DUP1 TIMESTAMP GT ISZERO PUSH2 0xBD0 JUMPI PUSH2 0xBD0 DUP3 PUSH2 0x2593 JUMP JUMPDEST PUSH1 0x0 PUSH2 0x28A2 PUSH2 0x17D6 JUMP JUMPDEST PUSH1 0x1 PUSH1 0x1 PUSH1 0xA0 SHL SUB AND EQ PUSH2 0xA46 JUMPI PUSH1 0x0 DUP1 PUSH2 0x28BE PUSH2 0x287E PUSH2 0x265E JUMP JUMPDEST SWAP2 POP SWAP2 POP DUP1 TIMESTAMP GT ISZERO PUSH2 0xBD0 JUMPI PUSH2 0xBD0 DUP3 PUSH2 0x25B5 JUMP JUMPDEST PUSH2 0x141F DUP2 DUP5 LT DUP1 ISZERO PUSH2 0x28E4 JUMPI POP DUP2 DUP4 LT JUMPDEST PUSH1 0x64 PUSH2 0x149F JUMP JUMPDEST PUSH1 0x0 PUSH2 0x28F7 DUP6 DUP4 PUSH2 0x1F87 JUMP JUMPDEST PUSH2 0x2918 DUP7 PUSH1 0x60 ADD MLOAD DUP4 DUP6 DUP2 MLOAD DUP2 LT PUSH2 0x290B JUMPI INVALID JUMPDEST PUSH1 0x20 MUL PUSH1 0x20 ADD ADD MLOAD PUSH2 0x3044 JUMP JUMPDEST PUSH1 0x60 DUP8 ADD MSTORE PUSH1 0x0 PUSH2 0x292B DUP8 DUP8 DUP8 DUP8 PUSH2 0x3365 JUMP JUMPDEST SWAP1 POP PUSH2 0x294A DUP2 DUP5 DUP8 DUP2 MLOAD DUP2 LT PUSH2 0x293D JUMPI INVALID JUMPDEST PUSH1 0x20 MUL PUSH1 0x20 ADD ADD MLOAD PUSH2 0x30C4 JUMP JUMPDEST SWAP1 POP PUSH2 0x2955 DUP2 PUSH2 0x30D0 JUMP JUMPDEST SWAP8 SWAP7 POP POP POP POP POP POP POP JUMP JUMPDEST PUSH1 0x0 PUSH2 0x296F DUP7 PUSH1 0x60 ADD MLOAD PUSH2 0x3023 JUMP JUMPDEST PUSH1 0x60 DUP8 ADD MSTORE PUSH2 0x297E DUP6 DUP4 PUSH2 0x1F87 JUMP JUMPDEST PUSH2 0x2992 DUP7 PUSH1 0x60 ADD MLOAD DUP4 DUP7 DUP2 MLOAD DUP2 LT PUSH2 0x290B JUMPI INVALID JUMPDEST PUSH1 0x60 DUP8 ADD MSTORE PUSH1 0x0 PUSH2 0x29A5 DUP8 DUP8 DUP8 DUP8 PUSH2 0x339D JUMP JUMPDEST SWAP1 POP PUSH2 0x2955 DUP2 DUP5 DUP7 DUP2 MLOAD DUP2 LT PUSH2 0x29B7 JUMPI INVALID JUMPDEST PUSH1 0x20 MUL PUSH1 0x20 ADD ADD MLOAD PUSH2 0x3089 JUMP JUMPDEST PUSH1 0x0 PUSH20 0xBA1BA1BA1BA1BA1BA1BA1BA1BA1BA1BA1BA1BA1B PUSH2 0x29E3 PUSH2 0xEFA JUMP JUMPDEST PUSH1 0x1 PUSH1 0x1 PUSH1 0xA0 SHL SUB AND EQ ISZERO DUP1 ISZERO PUSH2 0x29FE JUMPI POP PUSH2 0x29FE DUP4 PUSH2 0x33C0 JUMP JUMPDEST ISZERO PUSH2 0x2A26 JUMPI PUSH2 0x2A0B PUSH2 0xEFA JUMP JUMPDEST PUSH1 0x1 PUSH1 0x1 PUSH1 0xA0 SHL SUB AND CALLER PUSH1 0x1 PUSH1 0x1 PUSH1 0xA0 SHL SUB AND EQ SWAP1 POP PUSH2 0x744 JUMP JUMPDEST PUSH2 0x2A2E PUSH2 0x2519 JUMP JUMPDEST PUSH1 0x1 PUSH1 0x1 PUSH1 0xA0 SHL SUB AND PUSH4 0x9BE2A884 DUP5 DUP5 ADDRESS PUSH1 0x40 MLOAD DUP5 PUSH4 0xFFFFFFFF AND PUSH1 0xE0 SHL DUP2 MSTORE PUSH1 0x4 ADD PUSH2 0x2A5D SWAP4 SWAP3 SWAP2 SWAP1 PUSH2 0x5CF6 JUMP JUMPDEST PUSH1 0x20 PUSH1 0x40 MLOAD DUP1 DUP4 SUB DUP2 DUP7 DUP1 EXTCODESIZE ISZERO DUP1 ISZERO PUSH2 0x2A75 JUMPI PUSH1 0x0 DUP1 REVERT JUMPDEST POP GAS STATICCALL ISZERO DUP1 ISZERO PUSH2 0x2A89 JUMPI RETURNDATASIZE PUSH1 0x0 DUP1 RETURNDATACOPY RETURNDATASIZE PUSH1 0x0 REVERT JUMPDEST POP POP POP POP PUSH1 0x40 MLOAD RETURNDATASIZE PUSH1 0x1F NOT PUSH1 0x1F DUP3 ADD AND DUP3 ADD DUP1 PUSH1 0x40 MSTORE POP DUP2 ADD SWAP1 PUSH2 0x2AAD SWAP2 SWAP1 PUSH2 0x5771 JUMP JUMPDEST SWAP1 POP PUSH2 0x744 JUMP JUMPDEST PUSH1 0x60 PUSH1 0x0 PUSH2 0x2AC0 PUSH2 0x1CF3 JUMP JUMPDEST SWAP1 POP PUSH1 0x60 DUP2 PUSH1 0x1 PUSH1 0x1 PUSH1 0x40 SHL SUB DUP2 GT DUP1 ISZERO PUSH2 0x2ADA JUMPI PUSH1 0x0 DUP1 REVERT JUMPDEST POP PUSH1 0x40 MLOAD SWAP1 DUP1 DUP3 MSTORE DUP1 PUSH1 0x20 MUL PUSH1 0x20 ADD DUP3 ADD PUSH1 0x40 MSTORE DUP1 ISZERO PUSH2 0x2B04 JUMPI DUP2 PUSH1 0x20 ADD PUSH1 0x20 DUP3 MUL DUP1 CALLDATASIZE DUP4 CALLDATACOPY ADD SWAP1 POP JUMPDEST POP SWAP1 POP DUP2 ISZERO PUSH2 0x2B33 JUMPI PUSH2 0x2B15 PUSH2 0x33FC JUMP JUMPDEST DUP2 PUSH1 0x0 DUP2 MLOAD DUP2 LT PUSH2 0x2B22 JUMPI INVALID JUMPDEST PUSH1 0x20 MUL PUSH1 0x20 ADD ADD DUP2 DUP2 MSTORE POP POP PUSH2 0x2B3C JUMP JUMPDEST SWAP2 POP PUSH2 0x730 SWAP1 POP JUMP JUMPDEST PUSH1 0x1 DUP3 GT ISZERO PUSH2 0x2B33 JUMPI PUSH2 0x2B4D PUSH2 0x3420 JUMP JUMPDEST DUP2 PUSH1 0x1 DUP2 MLOAD DUP2 LT PUSH2 0x2B5A JUMPI INVALID JUMPDEST PUSH1 0x20 MUL PUSH1 0x20 ADD ADD DUP2 DUP2 MSTORE POP POP PUSH1 0x2 DUP3 GT ISZERO PUSH2 0x2B33 JUMPI PUSH2 0x2B77 PUSH2 0x3444 JUMP JUMPDEST DUP2 PUSH1 0x2 DUP2 MLOAD DUP2 LT PUSH2 0x2B84 JUMPI INVALID JUMPDEST PUSH1 0x20 MUL PUSH1 0x20 ADD ADD DUP2 DUP2 MSTORE POP POP PUSH1 0x3 DUP3 GT ISZERO PUSH2 0x2B33 JUMPI PUSH2 0x2BA1 PUSH2 0x3468 JUMP JUMPDEST DUP2 PUSH1 0x3 DUP2 MLOAD DUP2 LT PUSH2 0x2BAE JUMPI INVALID JUMPDEST PUSH1 0x20 MUL PUSH1 0x20 ADD ADD DUP2 DUP2 MSTORE POP POP PUSH1 0x4 DUP3 GT ISZERO PUSH2 0x2B33 JUMPI PUSH2 0x2BCB PUSH2 0x348C JUMP JUMPDEST DUP2 PUSH1 0x4 DUP2 MLOAD DUP2 LT PUSH2 0x2BD8 JUMPI INVALID JUMPDEST PUSH1 0x20 MUL PUSH1 0x20 ADD ADD DUP2 DUP2 MSTORE POP POP SWAP2 POP POP SWAP1 JUMP JUMPDEST PUSH1 0x0 PUSH2 0x2BF5 DUP3 PUSH2 0x2452 JUMP JUMPDEST ISZERO PUSH2 0x2C11 JUMPI PUSH2 0x2C0A PUSH2 0x2C05 PUSH2 0x2603 JUMP JUMPDEST PUSH2 0x32A0 JUMP JUMPDEST SWAP1 POP PUSH2 0xE2E JUMP JUMPDEST PUSH2 0x2C1A DUP3 PUSH2 0x2497 JUMP JUMPDEST ISZERO PUSH2 0x2C2A JUMPI PUSH2 0x2C0A PUSH2 0x2C05 PUSH2 0x265E JUMP JUMPDEST POP PUSH8 0xDE0B6B3A7640000 PUSH2 0xE2E JUMP JUMPDEST PUSH1 0x0 DUP3 DUP3 MUL PUSH2 0x2C53 DUP5 ISZERO DUP1 PUSH2 0x1400 JUMPI POP DUP4 DUP6 DUP4 DUP2 PUSH2 0x13FD JUMPI INVALID JUMPDEST PUSH8 0xDE0B6B3A7640000 SWAP1 DIV SWAP4 SWAP3 POP POP POP JUMP JUMPDEST PUSH1 0x0 DUP3 DUP3 SHR PUSH3 0x3FFFFF AND PUSH3 0x1FFFFF DUP2 SGT PUSH2 0x2C7F JUMPI DUP1 PUSH2 0x1510 JUMP JUMPDEST PUSH3 0x3FFFFF NOT OR SWAP4 SWAP3 POP POP POP JUMP JUMPDEST SHR PUSH4 0x7FFFFFFF AND SWAP1 JUMP JUMPDEST SHR PUSH2 0x3FF AND SWAP1 JUMP JUMPDEST SHR PUSH1 0x1 SWAP1 DUP2 AND EQ SWAP1 JUMP JUMPDEST PUSH1 0x0 PUSH2 0x2CB7 DUP5 DUP5 GT ISZERO DUP4 PUSH2 0x149F JUMP JUMPDEST POP POP SWAP1 SUB SWAP1 JUMP JUMPDEST PUSH1 0x8 SLOAD PUSH2 0x2CCD SWAP1 DUP3 PUSH1 0x0 PUSH2 0x1484 JUMP JUMPDEST PUSH1 0x8 SSTORE POP JUMP JUMPDEST PUSH1 0x0 DUP1 PUSH2 0x2CDF DUP4 PUSH2 0x34B0 JUMP JUMPDEST SWAP1 POP PUSH1 0x0 DUP1 DUP3 SGT PUSH2 0x2CF8 JUMPI PUSH6 0x2D79883D2000 DUP3 SUB PUSH2 0x2D02 JUMP JUMPDEST PUSH6 0x2D79883D2000 DUP3 ADD JUMPDEST PUSH6 0x5AF3107A4000 SWAP1 SDIV SWAP5 SWAP4 POP POP POP POP JUMP JUMPDEST PUSH1 0x0 PUSH2 0xA0D DUP4 DUP4 DUP4 PUSH2 0x350D JUMP JUMPDEST PUSH1 0x0 PUSH2 0xA0D DUP4 DUP4 PUSH1 0x16 PUSH2 0x350D JUMP JUMPDEST PUSH1 0x0 DUP1 PUSH1 0x0 DUP1 PUSH2 0x2D4A PUSH1 0x0 PUSH1 0x9 SLOAD PUSH2 0x1CE6 SWAP1 SWAP2 SWAP1 PUSH4 0xFFFFFFFF AND JUMP JUMPDEST PUSH1 0x9 SLOAD SWAP1 SWAP5 POP PUSH2 0x2D5B SWAP1 PUSH1 0x40 PUSH2 0x1CE6 JUMP JUMPDEST PUSH1 0x9 SLOAD SWAP1 SWAP4 POP PUSH2 0x2D6C SWAP1 PUSH1 0x80 PUSH2 0x1CE6 JUMP JUMPDEST PUSH1 0x9 SLOAD SWAP1 SWAP3 POP PUSH2 0x2D7D SWAP1 PUSH1 0xC0 PUSH2 0x1CE6 JUMP JUMPDEST SWAP1 POP SWAP1 SWAP2 SWAP3 SWAP4 JUMP JUMPDEST CHAINID SWAP1 JUMP JUMPDEST PUSH1 0x0 PUSH2 0x2D93 PUSH2 0x176C JUMP JUMPDEST SWAP1 POP PUSH1 0x0 PUSH2 0x2D9F PUSH2 0x198C JUMP JUMPDEST POP SWAP1 POP PUSH2 0x2DAB DUP3 PUSH2 0x17A5 JUMP JUMPDEST DUP1 ISZERO PUSH2 0x2DB6 JUMPI POP DUP5 NUMBER GT JUMPDEST ISZERO PUSH2 0x2E37 JUMPI PUSH1 0x0 DUP1 PUSH2 0x2DD2 DUP4 DUP8 DUP8 PUSH2 0x2DCD DUP9 PUSH2 0x177E JUMP JUMPDEST PUSH2 0x3524 JUMP JUMPDEST SWAP2 POP SWAP2 POP PUSH1 0x0 PUSH2 0x2DE1 DUP6 PUSH2 0x1798 JUMP JUMPDEST SWAP1 POP PUSH1 0x0 PUSH2 0x2DEE DUP7 PUSH2 0x178B JUMP JUMPDEST SWAP1 POP PUSH1 0x0 PUSH2 0x2E07 DUP3 DUP5 DUP8 DUP8 PUSH2 0x2E02 DUP13 PUSH2 0x1772 JUMP JUMPDEST PUSH2 0x3559 JUMP JUMPDEST SWAP1 POP DUP1 DUP4 EQ PUSH2 0x2E31 JUMPI PUSH2 0x2E1A DUP8 DUP3 PUSH2 0x35B0 JUMP JUMPDEST SWAP7 POP PUSH2 0x2E26 DUP8 TIMESTAMP PUSH2 0x35BE JUMP JUMPDEST SWAP7 POP PUSH2 0x2E31 DUP8 PUSH2 0x2CBE JUMP JUMPDEST POP POP POP POP POP JUMPDEST POP POP POP POP POP JUMP JUMPDEST PUSH1 0x0 PUSH1 0x60 DUP1 PUSH2 0x2E4B PUSH2 0x162C JUMP JUMPDEST ISZERO PUSH2 0x2E6E JUMPI PUSH2 0x2E5A DUP9 DUP8 PUSH2 0x35CC JUMP JUMPDEST SWAP1 POP PUSH2 0x2E69 DUP9 DUP3 PUSH2 0x1439 PUSH2 0x36B8 JUMP JUMPDEST PUSH2 0x2EB9 JUMP JUMPDEST PUSH2 0x2E76 PUSH2 0x1CF3 JUMP JUMPDEST PUSH1 0x1 PUSH1 0x1 PUSH1 0x40 SHL SUB DUP2 GT DUP1 ISZERO PUSH2 0x2E8B JUMPI PUSH1 0x0 DUP1 REVERT JUMPDEST POP PUSH1 0x40 MLOAD SWAP1 DUP1 DUP3 MSTORE DUP1 PUSH1 0x20 MUL PUSH1 0x20 ADD DUP3 ADD PUSH1 0x40 MSTORE DUP1 ISZERO PUSH2 0x2EB5 JUMPI DUP2 PUSH1 0x20 ADD PUSH1 0x20 DUP3 MUL DUP1 CALLDATASIZE DUP4 CALLDATACOPY ADD SWAP1 POP JUMPDEST POP SWAP1 POP JUMPDEST PUSH2 0x2EC4 DUP9 DUP7 DUP7 PUSH2 0x3723 JUMP JUMPDEST SWAP1 SWAP4 POP SWAP2 POP PUSH2 0x1D80 DUP9 DUP4 PUSH2 0x378F JUMP JUMPDEST PUSH1 0x0 PUSH2 0x744 DUP3 PUSH1 0xEA PUSH2 0x2C65 JUMP JUMPDEST PUSH1 0x0 PUSH2 0x744 DUP3 PUSH1 0xB5 PUSH2 0x37BE JUMP JUMPDEST PUSH1 0x0 PUSH2 0x744 DUP3 PUSH1 0x9F PUSH2 0x2C65 JUMP JUMPDEST PUSH1 0x0 PUSH2 0x744 DUP3 PUSH1 0x6A PUSH2 0x37BE JUMP JUMPDEST PUSH1 0x0 PUSH2 0x744 DUP3 PUSH1 0x54 PUSH2 0x2C65 JUMP JUMPDEST PUSH1 0x0 PUSH2 0x744 DUP3 PUSH1 0x1F PUSH2 0x37BE JUMP JUMPDEST PUSH1 0x0 PUSH2 0x744 DUP3 DUP3 PUSH2 0x2C8C JUMP JUMPDEST PUSH1 0x0 DUP2 PUSH2 0x2F43 JUMPI PUSH2 0x2F3E DUP5 DUP5 PUSH2 0x37F1 JUMP JUMPDEST PUSH2 0x1510 JUMP JUMPDEST PUSH2 0x1510 DUP5 DUP5 PUSH2 0x1A00 JUMP JUMPDEST PUSH2 0xBD0 DUP3 DUP3 PUSH2 0x3811 JUMP JUMPDEST PUSH1 0x0 PUSH1 0x60 DUP1 PUSH2 0x2F64 PUSH2 0x18DA JUMP JUMPDEST PUSH1 0x60 PUSH2 0x2F70 DUP10 DUP9 PUSH2 0x35CC JUMP JUMPDEST SWAP1 POP PUSH2 0x2F7F DUP10 DUP3 PUSH2 0x1439 PUSH2 0x36B8 JUMP JUMPDEST PUSH1 0x0 PUSH1 0x60 PUSH2 0x2F8E DUP12 DUP10 DUP10 PUSH2 0x38CD JUMP JUMPDEST SWAP2 POP SWAP2 POP PUSH2 0x2F9C DUP12 DUP3 PUSH2 0x3926 JUMP JUMPDEST SWAP1 SWAP14 SWAP1 SWAP13 POP SWAP1 SWAP11 POP SWAP9 POP POP POP POP POP POP POP POP POP JUMP JUMPDEST PUSH1 0x0 PUSH2 0x2FBF DUP3 ISZERO ISZERO PUSH1 0x4 PUSH2 0x149F JUMP JUMPDEST DUP3 PUSH2 0x2FCC JUMPI POP PUSH1 0x0 PUSH2 0x744 JUMP JUMPDEST PUSH8 0xDE0B6B3A7640000 DUP4 DUP2 MUL SWAP1 PUSH2 0x2FE6 SWAP1 DUP6 DUP4 DUP2 PUSH2 0x21BA JUMPI INVALID JUMPDEST DUP3 PUSH1 0x1 DUP3 SUB DUP2 PUSH2 0x2FF2 JUMPI INVALID JUMPDEST DIV PUSH1 0x1 ADD SWAP2 POP POP PUSH2 0x744 JUMP JUMPDEST PUSH1 0x0 DUP1 PUSH2 0x300A DUP4 PUSH2 0x3933 JUMP JUMPDEST SWAP1 POP PUSH1 0x0 PUSH2 0x3017 DUP5 PUSH2 0x2BEA JUMP JUMPDEST SWAP1 POP PUSH2 0x1510 DUP3 DUP3 PUSH2 0x2C39 JUMP JUMPDEST PUSH1 0x0 DUP1 PUSH2 0x3038 PUSH2 0x3031 PUSH2 0xBD4 JUMP JUMPDEST DUP5 SWAP1 PUSH2 0x3A32 JUMP JUMPDEST SWAP1 POP PUSH2 0xA0D DUP4 DUP3 PUSH2 0x1439 JUMP JUMPDEST PUSH1 0x0 PUSH2 0xA0D DUP4 DUP4 PUSH2 0x2C39 JUMP JUMPDEST PUSH1 0x0 PUSH2 0x3067 PUSH2 0x305D PUSH2 0x1CF3 JUMP JUMPDEST PUSH1 0x2 EQ PUSH1 0xD2 PUSH2 0x149F JUMP JUMPDEST PUSH1 0x60 PUSH1 0x0 DUP1 PUSH2 0x3077 DUP8 DUP8 DUP8 PUSH2 0x3A6E JUMP JUMPDEST SWAP3 POP SWAP3 POP SWAP3 POP PUSH2 0x2955 DUP8 DUP5 DUP5 DUP5 PUSH2 0x339D JUMP JUMPDEST PUSH1 0x0 PUSH2 0xA0D DUP4 DUP4 PUSH2 0x2184 JUMP JUMPDEST PUSH1 0x0 PUSH2 0x30A2 PUSH2 0x305D PUSH2 0x1CF3 JUMP JUMPDEST PUSH1 0x60 PUSH1 0x0 DUP1 PUSH2 0x30B2 DUP8 DUP8 DUP8 PUSH2 0x3A6E JUMP JUMPDEST SWAP3 POP SWAP3 POP SWAP3 POP PUSH2 0x2955 DUP8 DUP5 DUP5 DUP5 PUSH2 0x3365 JUMP JUMPDEST PUSH1 0x0 PUSH2 0xA0D DUP4 DUP4 PUSH2 0x2FB0 JUMP JUMPDEST PUSH1 0x0 PUSH2 0x744 PUSH2 0x30EF PUSH2 0x30E0 PUSH2 0xBD4 JUMP JUMPDEST PUSH8 0xDE0B6B3A7640000 SWAP1 PUSH2 0x1439 JUMP JUMPDEST DUP4 SWAP1 PUSH2 0x2FB0 JUMP JUMPDEST PUSH1 0x0 PUSH2 0x744 DUP3 PUSH1 0x80 PUSH2 0x1CE6 JUMP JUMPDEST PUSH1 0x0 DUP1 DUP4 PUSH1 0x1 PUSH1 0x1 PUSH1 0xA0 SHL SUB AND PUSH4 0x679AEFCE PUSH1 0x40 MLOAD DUP2 PUSH4 0xFFFFFFFF AND PUSH1 0xE0 SHL DUP2 MSTORE PUSH1 0x4 ADD PUSH1 0x20 PUSH1 0x40 MLOAD DUP1 DUP4 SUB DUP2 DUP7 DUP1 EXTCODESIZE ISZERO DUP1 ISZERO PUSH2 0x313F JUMPI PUSH1 0x0 DUP1 REVERT JUMPDEST POP GAS STATICCALL ISZERO DUP1 ISZERO PUSH2 0x3153 JUMPI RETURNDATASIZE PUSH1 0x0 DUP1 RETURNDATACOPY RETURNDATASIZE PUSH1 0x0 REVERT JUMPDEST POP POP POP POP PUSH1 0x40 MLOAD RETURNDATASIZE PUSH1 0x1F NOT PUSH1 0x1F DUP3 ADD AND DUP3 ADD DUP1 PUSH1 0x40 MSTORE POP DUP2 ADD SWAP1 PUSH2 0x3177 SWAP2 SWAP1 PUSH2 0x59E5 JUMP JUMPDEST SWAP1 POP PUSH2 0x318B PUSH1 0x1 PUSH1 0x80 SHL DUP3 LT PUSH2 0x149 PUSH2 0x149F JUMP JUMPDEST PUSH2 0x31A1 DUP4 TIMESTAMP ADD PUSH1 0x1 PUSH1 0x1 PUSH1 0x40 SHL SUB AND PUSH1 0xC0 PUSH2 0x144F JUMP JUMPDEST PUSH2 0x31B5 DUP5 PUSH1 0x1 PUSH1 0x1 PUSH1 0x40 SHL SUB AND PUSH1 0x80 PUSH2 0x144F JUMP JUMPDEST PUSH2 0x31C9 DUP4 PUSH1 0x1 PUSH1 0x1 PUSH1 0x80 SHL SUB AND PUSH1 0x0 PUSH2 0x144F JUMP JUMPDEST OR OR SWAP2 POP SWAP3 POP SWAP3 SWAP1 POP JUMP JUMPDEST DUP2 PUSH1 0xD DUP2 SWAP1 SSTORE POP PUSH32 0x0 PUSH1 0x1 PUSH1 0x1 PUSH1 0xA0 SHL SUB AND PUSH32 0xC1A224B14823B63C7711127F125FBF592434682F38881EBB61408747A303AFFC DUP3 PUSH1 0x40 MLOAD PUSH2 0x3234 SWAP2 SWAP1 PUSH2 0x5CED JUMP JUMPDEST PUSH1 0x40 MLOAD DUP1 SWAP2 SUB SWAP1 LOG2 POP POP JUMP JUMPDEST DUP2 PUSH1 0xE DUP2 SWAP1 SSTORE POP PUSH32 0x0 PUSH1 0x1 PUSH1 0x1 PUSH1 0xA0 SHL SUB AND PUSH32 0xC1A224B14823B63C7711127F125FBF592434682F38881EBB61408747A303AFFC DUP3 PUSH1 0x40 MLOAD PUSH2 0x3234 SWAP2 SWAP1 PUSH2 0x5CED JUMP JUMPDEST PUSH1 0x0 PUSH2 0x744 DUP3 DUP3 PUSH2 0x3B2F JUMP JUMPDEST PUSH1 0x0 DUP1 PUSH2 0x32B8 DUP4 PUSH2 0x30F6 JUMP JUMPDEST SWAP2 POP PUSH2 0x32C5 DUP4 PUSH1 0xC0 PUSH2 0x1CE6 JUMP JUMPDEST SWAP1 POP SWAP2 POP SWAP2 JUMP JUMPDEST PUSH1 0x0 PUSH1 0x60 PUSH2 0x32D8 PUSH2 0x18DA JUMP JUMPDEST PUSH1 0x0 PUSH2 0x32E3 DUP5 PUSH2 0x3B3C JUMP JUMPDEST SWAP1 POP PUSH2 0x32FE PUSH1 0x0 DUP3 PUSH1 0x2 DUP2 GT ISZERO PUSH2 0x32F6 JUMPI INVALID JUMPDEST EQ PUSH1 0xCE PUSH2 0x149F JUMP JUMPDEST PUSH1 0x60 PUSH2 0x3309 DUP6 PUSH2 0x3B52 JUMP JUMPDEST SWAP1 POP PUSH2 0x3318 DUP2 MLOAD PUSH2 0xBF6 PUSH2 0x1CF3 JUMP JUMPDEST PUSH2 0x3322 DUP2 DUP8 PUSH2 0x1F87 JUMP JUMPDEST PUSH1 0x0 PUSH2 0x332C PUSH2 0x198C JUMP JUMPDEST POP SWAP1 POP PUSH1 0x0 PUSH2 0x333D DUP3 DUP5 PUSH1 0x1 PUSH2 0x1FE8 JUMP JUMPDEST SWAP1 POP DUP1 PUSH2 0x334A DUP2 DUP5 PUSH2 0x3B68 JUMP JUMPDEST SWAP12 SWAP3 SWAP11 POP SWAP2 SWAP9 POP POP POP POP POP POP POP POP POP JUMP JUMPDEST PUSH2 0xBD0 DUP3 DUP3 PUSH2 0x3B73 JUMP JUMPDEST PUSH1 0x0 PUSH2 0x3391 DUP6 PUSH1 0xA0 ADD MLOAD DUP6 PUSH1 0x0 DUP2 MLOAD DUP2 LT PUSH2 0x337C JUMPI INVALID JUMPDEST PUSH1 0x20 MUL PUSH1 0x20 ADD ADD MLOAD DUP7 PUSH1 0x1 DUP2 MLOAD DUP2 LT PUSH2 0x1D5C JUMPI INVALID JUMPDEST PUSH2 0xFDD DUP6 DUP6 DUP6 DUP6 PUSH2 0x3C01 JUMP JUMPDEST PUSH1 0x0 PUSH2 0x33B4 DUP6 PUSH1 0xA0 ADD MLOAD DUP6 PUSH1 0x0 DUP2 MLOAD DUP2 LT PUSH2 0x337C JUMPI INVALID JUMPDEST PUSH2 0xFDD DUP6 DUP6 DUP6 DUP6 PUSH2 0x3C2B JUMP JUMPDEST PUSH1 0x0 PUSH2 0x33D2 PUSH4 0x2F1A0BC9 PUSH1 0xE0 SHL PUSH2 0xE82 JUMP JUMPDEST DUP3 EQ DUP1 PUSH2 0x33ED JUMPI POP PUSH2 0x33EA PUSH4 0x7587926B PUSH1 0xE1 SHL PUSH2 0xE82 JUMP JUMPDEST DUP3 EQ JUMPDEST DUP1 PUSH2 0x744 JUMPI POP PUSH2 0x744 DUP3 PUSH2 0x3C55 JUMP JUMPDEST PUSH32 0x0 SWAP1 JUMP JUMPDEST PUSH32 0x0 SWAP1 JUMP JUMPDEST PUSH32 0x0 SWAP1 JUMP JUMPDEST PUSH32 0x0 SWAP1 JUMP JUMPDEST PUSH32 0x0 SWAP1 JUMP JUMPDEST PUSH1 0x0 PUSH2 0x34C0 PUSH1 0x0 DUP4 SGT PUSH1 0x64 PUSH2 0x149F JUMP JUMPDEST PUSH8 0xC7D713B49DA0000 DUP3 SGT DUP1 ISZERO PUSH2 0x34DE JUMPI POP PUSH8 0xF43FC2C04EE0000 DUP3 SLT JUMPDEST ISZERO PUSH2 0x3504 JUMPI PUSH8 0xDE0B6B3A7640000 PUSH2 0x34F5 DUP4 PUSH2 0x3C87 JUMP JUMPDEST DUP2 PUSH2 0x34FC JUMPI INVALID JUMPDEST SDIV SWAP1 POP PUSH2 0xE2E JUMP JUMPDEST PUSH2 0x2C0A DUP3 PUSH2 0x3DA5 JUMP JUMPDEST PUSH3 0x3FFFFF DUP3 DUP2 AND DUP3 SHL SWAP1 DUP3 SHL NOT DUP5 AND OR SWAP4 SWAP3 POP POP POP JUMP JUMPDEST PUSH1 0x0 DUP1 PUSH1 0x0 PUSH2 0x3534 DUP8 DUP8 DUP8 PUSH2 0x4144 JUMP JUMPDEST SWAP1 POP PUSH2 0x3542 DUP2 DUP8 DUP8 DUP8 PUSH2 0x4203 JUMP JUMPDEST SWAP2 POP PUSH2 0x354D DUP2 PUSH2 0x2CD3 JUMP JUMPDEST SWAP3 POP POP SWAP5 POP SWAP5 SWAP3 POP POP POP JUMP JUMPDEST PUSH1 0x0 DUP1 PUSH2 0x3575 DUP6 DUP6 DUP6 TIMESTAMP PUSH2 0x356C DUP12 PUSH2 0x1F12 JUMP JUMPDEST SWAP4 SWAP3 SWAP2 SWAP1 PUSH2 0x422E JUMP JUMPDEST SWAP1 POP PUSH1 0x78 TIMESTAMP DUP9 SWAP1 SUB LT ISZERO DUP1 PUSH2 0x358A JUMPI DUP7 PUSH2 0x3593 JUMP JUMPDEST PUSH2 0x3593 DUP8 PUSH2 0x4280 JUMP JUMPDEST PUSH1 0x0 DUP2 DUP2 MSTORE PUSH1 0xC PUSH1 0x20 MSTORE PUSH1 0x40 SWAP1 KECCAK256 SWAP3 SWAP1 SWAP3 SSTORE POP SWAP7 SWAP6 POP POP POP POP POP POP JUMP JUMPDEST PUSH1 0x0 PUSH2 0xA0D DUP4 DUP4 PUSH1 0x4B PUSH2 0x428D JUMP JUMPDEST PUSH1 0x0 PUSH2 0xA0D DUP4 DUP4 PUSH1 0x2C PUSH2 0x429D JUMP JUMPDEST PUSH1 0x60 DUP1 PUSH2 0x35D7 PUSH2 0x1CF3 JUMP JUMPDEST PUSH1 0x1 PUSH1 0x1 PUSH1 0x40 SHL SUB DUP2 GT DUP1 ISZERO PUSH2 0x35EC JUMPI PUSH1 0x0 DUP1 REVERT JUMPDEST POP PUSH1 0x40 MLOAD SWAP1 DUP1 DUP3 MSTORE DUP1 PUSH1 0x20 MUL PUSH1 0x20 ADD DUP3 ADD PUSH1 0x40 MSTORE DUP1 ISZERO PUSH2 0x3616 JUMPI DUP2 PUSH1 0x20 ADD PUSH1 0x20 DUP3 MUL DUP1 CALLDATASIZE DUP4 CALLDATACOPY ADD SWAP1 POP JUMPDEST POP SWAP1 POP DUP3 PUSH2 0x3625 JUMPI SWAP1 POP PUSH2 0x744 JUMP JUMPDEST PUSH1 0x0 DUP1 DUP6 PUSH1 0x0 DUP2 MLOAD DUP2 LT PUSH2 0x3635 JUMPI INVALID JUMPDEST PUSH1 0x20 MUL PUSH1 0x20 ADD ADD MLOAD SWAP1 POP PUSH1 0x0 PUSH1 0x1 SWAP1 POP JUMPDEST PUSH2 0x364E PUSH2 0x1CF3 JUMP JUMPDEST DUP2 LT ISZERO PUSH2 0x3685 JUMPI PUSH1 0x0 DUP8 DUP3 DUP2 MLOAD DUP2 LT PUSH2 0x3663 JUMPI INVALID JUMPDEST PUSH1 0x20 MUL PUSH1 0x20 ADD ADD MLOAD SWAP1 POP DUP3 DUP2 GT ISZERO PUSH2 0x367C JUMPI DUP2 SWAP4 POP DUP1 SWAP3 POP JUMPDEST POP PUSH1 0x1 ADD PUSH2 0x3646 JUMP JUMPDEST POP PUSH2 0x3697 PUSH1 0xB SLOAD DUP8 PUSH1 0xA SLOAD DUP6 DUP10 PUSH2 0x42AF JUMP JUMPDEST DUP4 DUP4 DUP2 MLOAD DUP2 LT PUSH2 0x36A3 JUMPI INVALID JUMPDEST PUSH1 0x20 SWAP1 DUP2 MUL SWAP2 SWAP1 SWAP2 ADD ADD MSTORE POP SWAP1 SWAP5 SWAP4 POP POP POP POP JUMP JUMPDEST PUSH1 0x0 JUMPDEST PUSH2 0x36C3 PUSH2 0x1CF3 JUMP JUMPDEST DUP2 LT ISZERO PUSH2 0x371D JUMPI PUSH2 0x36FE DUP5 DUP3 DUP2 MLOAD DUP2 LT PUSH2 0x36D9 JUMPI INVALID JUMPDEST PUSH1 0x20 MUL PUSH1 0x20 ADD ADD MLOAD DUP5 DUP4 DUP2 MLOAD DUP2 LT PUSH2 0x36ED JUMPI INVALID JUMPDEST PUSH1 0x20 MUL PUSH1 0x20 ADD ADD MLOAD DUP5 PUSH4 0xFFFFFFFF AND JUMP JUMPDEST DUP5 DUP3 DUP2 MLOAD DUP2 LT PUSH2 0x370A JUMPI INVALID JUMPDEST PUSH1 0x20 SWAP1 DUP2 MUL SWAP2 SWAP1 SWAP2 ADD ADD MSTORE PUSH1 0x1 ADD PUSH2 0x36BB JUMP JUMPDEST POP POP POP POP JUMP JUMPDEST PUSH1 0x0 PUSH1 0x60 PUSH1 0x0 PUSH2 0x3732 DUP5 PUSH2 0x3B3C JUMP JUMPDEST SWAP1 POP PUSH1 0x0 DUP2 PUSH1 0x2 DUP2 GT ISZERO PUSH2 0x3742 JUMPI INVALID JUMPDEST EQ ISZERO PUSH2 0x375C JUMPI PUSH2 0x3752 DUP7 DUP6 PUSH2 0x432F JUMP JUMPDEST SWAP3 POP SWAP3 POP POP PUSH2 0x3787 JUMP JUMPDEST PUSH1 0x1 DUP2 PUSH1 0x2 DUP2 GT ISZERO PUSH2 0x376A JUMPI INVALID JUMPDEST EQ ISZERO PUSH2 0x377A JUMPI PUSH2 0x3752 DUP7 DUP6 PUSH2 0x43F9 JUMP JUMPDEST PUSH2 0x3752 DUP7 DUP7 DUP7 PUSH2 0x442B JUMP JUMPDEST POP JUMPDEST SWAP4 POP SWAP4 SWAP2 POP POP JUMP JUMPDEST PUSH2 0x379C DUP3 DUP3 PUSH2 0x1439 PUSH2 0x36B8 JUMP JUMPDEST PUSH1 0x0 PUSH2 0x37A6 PUSH2 0x198C JUMP JUMPDEST POP SWAP1 POP PUSH2 0x141F PUSH2 0x37B8 DUP3 DUP6 PUSH1 0x1 PUSH2 0x1FE8 JUMP JUMPDEST DUP3 PUSH2 0x3B68 JUMP JUMPDEST PUSH1 0x0 DUP3 DUP3 SHR PUSH7 0x1FFFFFFFFFFFFF AND PUSH7 0xFFFFFFFFFFFFF DUP2 SGT PUSH2 0x37E0 JUMPI DUP1 PUSH2 0x1510 JUMP JUMPDEST PUSH7 0x1FFFFFFFFFFFFF NOT OR SWAP4 SWAP3 POP POP POP JUMP JUMPDEST PUSH1 0x0 PUSH2 0x3800 DUP3 ISZERO ISZERO PUSH1 0x4 PUSH2 0x149F JUMP JUMPDEST DUP2 DUP4 DUP2 PUSH2 0x3809 JUMPI INVALID JUMPDEST DIV SWAP4 SWAP3 POP POP POP JUMP JUMPDEST PUSH2 0x3828 PUSH1 0x1 PUSH1 0x1 PUSH1 0xA0 SHL SUB DUP4 AND ISZERO ISZERO PUSH2 0x19B PUSH2 0x149F JUMP JUMPDEST PUSH2 0x3834 DUP3 PUSH1 0x0 DUP4 PUSH2 0x141F JUMP JUMPDEST PUSH1 0x1 PUSH1 0x1 PUSH1 0xA0 SHL SUB DUP3 AND PUSH1 0x0 SWAP1 DUP2 MSTORE PUSH1 0x20 DUP2 SWAP1 MSTORE PUSH1 0x40 SWAP1 KECCAK256 SLOAD PUSH2 0x385A SWAP1 DUP3 PUSH2 0x1A1 PUSH2 0x2CA8 JUMP JUMPDEST PUSH1 0x1 PUSH1 0x1 PUSH1 0xA0 SHL SUB DUP4 AND PUSH1 0x0 SWAP1 DUP2 MSTORE PUSH1 0x20 DUP2 SWAP1 MSTORE PUSH1 0x40 SWAP1 KECCAK256 SSTORE PUSH1 0x2 SLOAD PUSH2 0x3880 SWAP1 DUP3 PUSH2 0x44A7 JUMP JUMPDEST PUSH1 0x2 SSTORE PUSH1 0x40 MLOAD PUSH1 0x0 SWAP1 PUSH1 0x1 PUSH1 0x1 PUSH1 0xA0 SHL SUB DUP5 AND SWAP1 PUSH32 0xDDF252AD1BE2C89B69C2B068FC378DAA952BA7F163C4A11628F55A4DF523B3EF SWAP1 PUSH2 0x38C1 SWAP1 DUP6 SWAP1 PUSH2 0x5CED JUMP JUMPDEST PUSH1 0x40 MLOAD DUP1 SWAP2 SUB SWAP1 LOG3 POP POP JUMP JUMPDEST PUSH1 0x0 PUSH1 0x60 PUSH1 0x0 PUSH2 0x38DC DUP5 PUSH2 0x3B3C JUMP JUMPDEST SWAP1 POP PUSH1 0x1 DUP2 PUSH1 0x2 DUP2 GT ISZERO PUSH2 0x38EC JUMPI INVALID JUMPDEST EQ ISZERO PUSH2 0x38FD JUMPI PUSH2 0x3752 DUP7 DUP7 DUP7 PUSH2 0x44B5 JUMP JUMPDEST PUSH1 0x2 DUP2 PUSH1 0x2 DUP2 GT ISZERO PUSH2 0x390B JUMPI INVALID JUMPDEST EQ ISZERO PUSH2 0x391B JUMPI PUSH2 0x3752 DUP7 DUP6 PUSH2 0x451F JUMP JUMPDEST PUSH2 0x3785 PUSH2 0x136 PUSH2 0x24C6 JUMP JUMPDEST PUSH2 0x379C DUP3 DUP3 PUSH2 0x1BD5 PUSH2 0x36B8 JUMP JUMPDEST PUSH1 0x0 PUSH2 0x393E DUP3 PUSH2 0x25D1 JUMP JUMPDEST ISZERO PUSH2 0x394B JUMPI PUSH2 0x2C0A PUSH2 0x33FC JUMP JUMPDEST PUSH2 0x3954 DUP3 PUSH2 0x262C JUMP JUMPDEST ISZERO PUSH2 0x3961 JUMPI PUSH2 0x2C0A PUSH2 0x3420 JUMP JUMPDEST PUSH32 0x0 PUSH1 0x1 PUSH1 0x1 PUSH1 0xA0 SHL SUB AND DUP3 PUSH1 0x1 PUSH1 0x1 PUSH1 0xA0 SHL SUB AND EQ ISZERO PUSH2 0x39A3 JUMPI PUSH2 0x2C0A PUSH2 0x3444 JUMP JUMPDEST PUSH32 0x0 PUSH1 0x1 PUSH1 0x1 PUSH1 0xA0 SHL SUB AND DUP3 PUSH1 0x1 PUSH1 0x1 PUSH1 0xA0 SHL SUB AND EQ ISZERO PUSH2 0x39E5 JUMPI PUSH2 0x2C0A PUSH2 0x3468 JUMP JUMPDEST PUSH32 0x0 PUSH1 0x1 PUSH1 0x1 PUSH1 0xA0 SHL SUB AND DUP3 PUSH1 0x1 PUSH1 0x1 PUSH1 0xA0 SHL SUB AND EQ ISZERO PUSH2 0x3A27 JUMPI PUSH2 0x2C0A PUSH2 0x348C JUMP JUMPDEST PUSH2 0xE2E PUSH2 0x135 PUSH2 0x24C6 JUMP JUMPDEST PUSH1 0x0 DUP3 DUP3 MUL PUSH2 0x3A4C DUP5 ISZERO DUP1 PUSH2 0x1400 JUMPI POP DUP4 DUP6 DUP4 DUP2 PUSH2 0x13FD JUMPI INVALID JUMPDEST DUP1 PUSH2 0x3A5B JUMPI PUSH1 0x0 SWAP2 POP POP PUSH2 0x744 JUMP JUMPDEST PUSH8 0xDE0B6B3A7640000 PUSH1 0x0 NOT DUP3 ADD PUSH2 0x2FF2 JUMP JUMPDEST PUSH1 0x40 DUP1 MLOAD PUSH1 0x2 DUP1 DUP3 MSTORE PUSH1 0x60 DUP3 DUP2 ADD SWAP1 SWAP4 MSTORE PUSH1 0x0 SWAP2 DUP3 SWAP2 DUP2 PUSH1 0x20 ADD PUSH1 0x20 DUP3 MUL DUP1 CALLDATASIZE DUP4 CALLDATACOPY ADD SWAP1 POP POP SWAP3 POP PUSH2 0x3AA3 DUP7 PUSH1 0x20 ADD MLOAD PUSH2 0x25D1 JUMP JUMPDEST ISZERO PUSH2 0x3AE9 JUMPI PUSH1 0x0 SWAP2 POP PUSH1 0x1 SWAP1 POP DUP5 DUP4 PUSH1 0x0 DUP2 MLOAD DUP2 LT PUSH2 0x3ABE JUMPI INVALID JUMPDEST PUSH1 0x20 MUL PUSH1 0x20 ADD ADD DUP2 DUP2 MSTORE POP POP DUP4 DUP4 PUSH1 0x1 DUP2 MLOAD DUP2 LT PUSH2 0x3AD8 JUMPI INVALID JUMPDEST PUSH1 0x20 MUL PUSH1 0x20 ADD ADD DUP2 DUP2 MSTORE POP POP PUSH2 0x3B26 JUMP JUMPDEST PUSH1 0x0 SWAP1 POP PUSH1 0x1 SWAP2 POP DUP4 DUP4 PUSH1 0x0 DUP2 MLOAD DUP2 LT PUSH2 0x3AFF JUMPI INVALID JUMPDEST PUSH1 0x20 MUL PUSH1 0x20 ADD ADD DUP2 DUP2 MSTORE POP POP DUP5 DUP4 PUSH1 0x1 DUP2 MLOAD DUP2 LT PUSH2 0x3B19 JUMPI INVALID JUMPDEST PUSH1 0x20 MUL PUSH1 0x20 ADD ADD DUP2 DUP2 MSTORE POP POP JUMPDEST SWAP4 POP SWAP4 POP SWAP4 SWAP1 POP JUMP JUMPDEST SHR PUSH1 0x1 PUSH1 0x1 PUSH1 0x80 SHL SUB AND SWAP1 JUMP JUMPDEST PUSH1 0x0 DUP2 DUP1 PUSH1 0x20 ADD SWAP1 MLOAD DUP2 ADD SWAP1 PUSH2 0x744 SWAP2 SWAP1 PUSH2 0x58C0 JUMP JUMPDEST PUSH1 0x60 DUP2 DUP1 PUSH1 0x20 ADD SWAP1 MLOAD DUP2 ADD SWAP1 PUSH2 0xA0D SWAP2 SWAP1 PUSH2 0x5985 JUMP JUMPDEST PUSH1 0xA SWAP2 SWAP1 SWAP2 SSTORE PUSH1 0xB SSTORE JUMP JUMPDEST PUSH2 0x3B7F PUSH1 0x0 DUP4 DUP4 PUSH2 0x141F JUMP JUMPDEST PUSH1 0x2 SLOAD PUSH2 0x3B8C SWAP1 DUP3 PUSH2 0x1BD5 JUMP JUMPDEST PUSH1 0x2 SSTORE PUSH1 0x1 PUSH1 0x1 PUSH1 0xA0 SHL SUB DUP3 AND PUSH1 0x0 SWAP1 DUP2 MSTORE PUSH1 0x20 DUP2 SWAP1 MSTORE PUSH1 0x40 SWAP1 KECCAK256 SLOAD PUSH2 0x3BB2 SWAP1 DUP3 PUSH2 0x1BD5 JUMP JUMPDEST PUSH1 0x1 PUSH1 0x1 PUSH1 0xA0 SHL SUB DUP4 AND PUSH1 0x0 DUP2 DUP2 MSTORE PUSH1 0x20 DUP2 SWAP1 MSTORE PUSH1 0x40 DUP1 DUP3 KECCAK256 SWAP4 SWAP1 SWAP4 SSTORE SWAP2 MLOAD SWAP1 SWAP2 SWAP1 PUSH32 0xDDF252AD1BE2C89B69C2B068FC378DAA952BA7F163C4A11628F55A4DF523B3EF SWAP1 PUSH2 0x38C1 SWAP1 DUP6 SWAP1 PUSH2 0x5CED JUMP JUMPDEST PUSH1 0x0 PUSH2 0x3C0B PUSH2 0x18DA JUMP JUMPDEST PUSH1 0x0 PUSH2 0x3C15 PUSH2 0x198C JUMP JUMPDEST POP SWAP1 POP PUSH1 0x0 PUSH2 0x2955 DUP3 DUP8 DUP8 DUP8 DUP12 PUSH1 0x60 ADD MLOAD PUSH2 0x45B3 JUMP JUMPDEST PUSH1 0x0 PUSH2 0x3C35 PUSH2 0x18DA JUMP JUMPDEST PUSH1 0x0 PUSH2 0x3C3F PUSH2 0x198C JUMP JUMPDEST POP SWAP1 POP PUSH1 0x0 PUSH2 0x2955 DUP3 DUP8 DUP8 DUP8 DUP12 PUSH1 0x60 ADD MLOAD PUSH2 0x466B JUMP JUMPDEST PUSH1 0x0 PUSH2 0x3C67 PUSH4 0x1C74C917 PUSH1 0xE1 SHL PUSH2 0xE82 JUMP JUMPDEST DUP3 EQ DUP1 PUSH2 0x744 JUMPI POP PUSH2 0x3C7F PUSH4 0x50DD6ED9 PUSH1 0xE0 SHL PUSH2 0xE82 JUMP JUMPDEST SWAP1 SWAP2 EQ SWAP2 SWAP1 POP JUMP JUMPDEST PUSH8 0xDE0B6B3A7640000 MUL PUSH1 0x0 DUP1 PUSH11 0xC097CE7BC90715B34B9F1 PUSH1 0x24 SHL DUP1 DUP5 ADD SWAP1 PUSH15 0xC097CE7BC90715B34B9F0FFFFFFFFF NOT DUP6 ADD MUL DUP2 PUSH2 0x3CC2 JUMPI INVALID JUMPDEST SDIV SWAP1 POP PUSH1 0x0 PUSH11 0xC097CE7BC90715B34B9F1 PUSH1 0x24 SHL DUP3 DUP1 MUL SDIV SWAP1 POP DUP2 DUP1 PUSH11 0xC097CE7BC90715B34B9F1 PUSH1 0x24 SHL DUP2 DUP5 MUL SDIV SWAP2 POP PUSH1 0x3 DUP3 SDIV ADD PUSH11 0xC097CE7BC90715B34B9F1 PUSH1 0x24 SHL DUP3 DUP5 MUL SDIV SWAP2 POP PUSH1 0x5 DUP3 SDIV ADD PUSH11 0xC097CE7BC90715B34B9F1 PUSH1 0x24 SHL DUP3 DUP5 MUL SDIV SWAP2 POP PUSH1 0x7 DUP3 SDIV ADD PUSH11 0xC097CE7BC90715B34B9F1 PUSH1 0x24 SHL DUP3 DUP5 MUL SDIV SWAP2 POP PUSH1 0x9 DUP3 SDIV ADD PUSH11 0xC097CE7BC90715B34B9F1 PUSH1 0x24 SHL DUP3 DUP5 MUL SDIV SWAP2 POP PUSH1 0xB DUP3 SDIV ADD PUSH11 0xC097CE7BC90715B34B9F1 PUSH1 0x24 SHL DUP3 DUP5 MUL SDIV SWAP2 POP PUSH1 0xD DUP3 SDIV ADD PUSH11 0xC097CE7BC90715B34B9F1 PUSH1 0x24 SHL DUP3 DUP5 MUL SDIV SWAP2 POP PUSH1 0xF DUP3 PUSH1 0x2 SWAP2 SWAP1 SDIV SWAP2 SWAP1 SWAP2 ADD MUL SWAP6 SWAP5 POP POP POP POP POP JUMP JUMPDEST PUSH1 0x0 PUSH8 0xDE0B6B3A7640000 DUP3 SLT ISZERO PUSH2 0x3DE1 JUMPI PUSH2 0x3DD7 DUP3 PUSH11 0xC097CE7BC90715B34B9F1 PUSH1 0x24 SHL DUP2 PUSH2 0x3DD1 JUMPI INVALID JUMPDEST SDIV PUSH2 0x3DA5 JUMP JUMPDEST PUSH1 0x0 SUB SWAP1 POP PUSH2 0xE2E JUMP JUMPDEST PUSH1 0x0 PUSH31 0x1600EF3172E58D2E933EC884FDE10064C63B5372D805E203C0000000000000 DUP4 SLT PUSH2 0x3E32 JUMPI PUSH24 0x195E54C5DD42177F53A27172FA9EC630262827000000000 DUP4 SDIV SWAP3 POP PUSH9 0x6F05B59D3B2000000 ADD JUMPDEST PUSH20 0x11798004D755D3C8BC8E03204CF44619E000000 DUP4 SLT PUSH2 0x3E6A JUMPI PUSH12 0x1425982CF597CD205CEF7380 DUP4 SDIV SWAP3 POP PUSH9 0x3782DACE9D9000000 ADD JUMPDEST PUSH1 0x64 SWAP3 DUP4 MUL SWAP3 MUL PUSH15 0x1855144814A7FF805980FF0084000 DUP4 SLT PUSH2 0x3EB2 JUMPI PUSH15 0x1855144814A7FF805980FF0084000 PUSH9 0x56BC75E2D63100000 DUP5 MUL SDIV SWAP3 POP PUSH9 0xAD78EBC5AC62000000 ADD JUMPDEST PUSH12 0x2DF0AB5A80A22C61AB5A700 DUP4 SLT PUSH2 0x3EED JUMPI PUSH12 0x2DF0AB5A80A22C61AB5A700 PUSH9 0x56BC75E2D63100000 DUP5 MUL SDIV SWAP3 POP PUSH9 0x56BC75E2D631000000 ADD JUMPDEST PUSH10 0x3F1FCE3DA636EA5CF850 DUP4 SLT PUSH2 0x3F24 JUMPI PUSH10 0x3F1FCE3DA636EA5CF850 PUSH9 0x56BC75E2D63100000 DUP5 MUL SDIV SWAP3 POP PUSH9 0x2B5E3AF16B18800000 ADD JUMPDEST PUSH10 0x127FA27722CC06CC5E2 DUP4 SLT PUSH2 0x3F5B JUMPI PUSH10 0x127FA27722CC06CC5E2 PUSH9 0x56BC75E2D63100000 DUP5 MUL SDIV SWAP3 POP PUSH9 0x15AF1D78B58C400000 ADD JUMPDEST PUSH9 0x280E60114EDB805D03 DUP4 SLT PUSH2 0x3F90 JUMPI PUSH9 0x280E60114EDB805D03 PUSH9 0x56BC75E2D63100000 DUP5 MUL SDIV SWAP3 POP PUSH9 0xAD78EBC5AC6200000 ADD JUMPDEST PUSH9 0xEBC5FB41746121110 DUP4 SLT PUSH2 0x3FBB JUMPI PUSH9 0xEBC5FB41746121110 PUSH9 0x56BC75E2D63100000 SWAP4 DUP5 MUL SDIV SWAP3 ADD JUMPDEST PUSH9 0x8F00F760A4B2DB55D DUP4 SLT PUSH2 0x3FF0 JUMPI PUSH9 0x8F00F760A4B2DB55D PUSH9 0x56BC75E2D63100000 DUP5 MUL SDIV SWAP3 POP PUSH9 0x2B5E3AF16B1880000 ADD JUMPDEST PUSH9 0x6F5F1775788937937 DUP4 SLT PUSH2 0x4025 JUMPI PUSH9 0x6F5F1775788937937 PUSH9 0x56BC75E2D63100000 DUP5 MUL SDIV SWAP3 POP PUSH9 0x15AF1D78B58C40000 ADD JUMPDEST PUSH9 0x6248F33704B286603 DUP4 SLT PUSH2 0x4059 JUMPI PUSH9 0x6248F33704B286603 PUSH9 0x56BC75E2D63100000 DUP5 MUL SDIV SWAP3 POP PUSH8 0xAD78EBC5AC620000 ADD JUMPDEST PUSH9 0x5C548670B9510E7AC DUP4 SLT PUSH2 0x408D JUMPI PUSH9 0x5C548670B9510E7AC PUSH9 0x56BC75E2D63100000 DUP5 MUL SDIV SWAP3 POP PUSH8 0x56BC75E2D6310000 ADD JUMPDEST PUSH1 0x0 PUSH9 0x56BC75E2D63100000 DUP5 ADD PUSH9 0x56BC75E2D63100000 DUP1 DUP7 SUB MUL DUP2 PUSH2 0x40B0 JUMPI INVALID JUMPDEST SDIV SWAP1 POP PUSH1 0x0 PUSH9 0x56BC75E2D63100000 DUP3 DUP1 MUL SDIV SWAP1 POP DUP2 DUP1 PUSH9 0x56BC75E2D63100000 DUP2 DUP5 MUL SDIV SWAP2 POP PUSH1 0x3 DUP3 SDIV ADD PUSH9 0x56BC75E2D63100000 DUP3 DUP5 MUL SDIV SWAP2 POP PUSH1 0x5 DUP3 SDIV ADD PUSH9 0x56BC75E2D63100000 DUP3 DUP5 MUL SDIV SWAP2 POP PUSH1 0x7 DUP3 SDIV ADD PUSH9 0x56BC75E2D63100000 DUP3 DUP5 MUL SDIV SWAP2 POP PUSH1 0x9 DUP3 SDIV ADD PUSH9 0x56BC75E2D63100000 DUP3 DUP5 MUL SDIV SWAP2 POP PUSH1 0xB DUP3 SDIV ADD PUSH1 0x2 MUL PUSH1 0x64 DUP6 DUP3 ADD SDIV SWAP8 SWAP7 POP POP POP POP POP POP POP JUMP JUMPDEST PUSH1 0x0 DUP1 PUSH2 0x415C DUP6 PUSH2 0x4155 DUP7 DUP7 PUSH2 0x470D JUMP JUMPDEST PUSH1 0x1 PUSH2 0x1FE8 JUMP JUMPDEST SWAP1 POP PUSH2 0x3E8 PUSH1 0x2 DUP7 MUL DIV PUSH1 0x0 PUSH2 0x417C DUP4 PUSH2 0x4176 DUP2 DUP6 PUSH2 0x13E3 JUMP JUMPDEST SWAP1 PUSH2 0x1439 JUMP JUMPDEST SWAP1 POP PUSH1 0x0 PUSH2 0x4197 DUP7 PUSH2 0x4191 DUP6 PUSH1 0x2 MUL DUP11 PUSH2 0x13E3 JUMP JUMPDEST SWAP1 PUSH2 0x2C39 JUMP JUMPDEST SWAP1 POP PUSH1 0x0 PUSH2 0x41C0 PUSH2 0x41A8 DUP5 DUP10 PUSH2 0x2C39 JUMP JUMPDEST PUSH2 0x4176 PUSH2 0x41B9 DUP11 PUSH2 0x4191 DUP10 DUP14 PUSH2 0x13E3 JUMP JUMPDEST DUP6 SWAP1 PUSH2 0x1BD5 JUMP JUMPDEST SWAP1 POP PUSH1 0x0 PUSH2 0x41E9 PUSH2 0x41D1 DUP6 DUP12 PUSH2 0x2C39 JUMP JUMPDEST PUSH2 0x4176 PUSH2 0x41E2 DUP13 PUSH2 0x4191 DUP11 DUP16 PUSH2 0x13E3 JUMP JUMPDEST DUP7 SWAP1 PUSH2 0x1BD5 JUMP JUMPDEST SWAP1 POP PUSH2 0x41F5 DUP3 DUP3 PUSH2 0x2FB0 JUMP JUMPDEST SWAP11 SWAP10 POP POP POP POP POP POP POP POP POP POP JUMP JUMPDEST PUSH1 0x0 DUP1 PUSH2 0x4213 PUSH2 0x41E2 DUP8 DUP7 PUSH2 0x3A32 JUMP JUMPDEST SWAP1 POP PUSH1 0x0 PUSH2 0x4220 DUP3 PUSH2 0x2CD3 JUMP JUMPDEST SWAP4 SWAP1 SWAP4 SUB SWAP7 SWAP6 POP POP POP POP POP POP JUMP JUMPDEST PUSH1 0x0 DUP1 PUSH2 0x423A DUP8 PUSH2 0x2F21 JUMP JUMPDEST DUP4 SUB SWAP1 POP PUSH1 0x0 DUP2 DUP8 MUL PUSH2 0x424C DUP10 PUSH2 0x2EE0 JUMP JUMPDEST ADD SWAP1 POP PUSH1 0x0 DUP3 DUP8 MUL PUSH2 0x425D DUP11 PUSH2 0x2EFA JUMP JUMPDEST ADD SWAP1 POP PUSH1 0x0 DUP4 DUP8 MUL PUSH2 0x426E DUP12 PUSH2 0x2F14 JUMP JUMPDEST ADD SWAP1 POP PUSH2 0x41F5 DUP10 DUP5 DUP11 DUP6 DUP12 DUP7 DUP13 PUSH2 0x4767 JUMP JUMPDEST PUSH1 0x0 PUSH2 0x744 DUP3 PUSH1 0x1 PUSH2 0x47C7 JUMP JUMPDEST PUSH2 0x3FF DUP2 SHL NOT SWAP3 SWAP1 SWAP3 AND SWAP2 SHL OR SWAP1 JUMP JUMPDEST PUSH4 0x7FFFFFFF DUP2 SHL NOT SWAP3 SWAP1 SWAP3 AND SWAP2 SHL OR SWAP1 JUMP JUMPDEST PUSH1 0x0 DUP1 PUSH2 0x42BE DUP8 DUP8 DUP8 DUP8 PUSH2 0x47CF JUMP JUMPDEST SWAP1 POP DUP1 DUP7 DUP6 DUP2 MLOAD DUP2 LT PUSH2 0x42CD JUMPI INVALID JUMPDEST PUSH1 0x20 MUL PUSH1 0x20 ADD ADD MLOAD GT PUSH2 0x42E4 JUMPI PUSH1 0x0 SWAP2 POP POP PUSH2 0xFDD JUMP JUMPDEST PUSH1 0x0 DUP2 DUP8 DUP7 DUP2 MLOAD DUP2 LT PUSH2 0x42F3 JUMPI INVALID JUMPDEST PUSH1 0x20 MUL PUSH1 0x20 ADD ADD MLOAD SUB SWAP1 POP PUSH2 0x4323 PUSH8 0xDE0B6B3A7640000 PUSH2 0x431D DUP7 DUP5 PUSH2 0x2C39 SWAP1 SWAP2 SWAP1 PUSH4 0xFFFFFFFF AND JUMP JUMPDEST SWAP1 PUSH2 0x2184 JUMP JUMPDEST SWAP9 SWAP8 POP POP POP POP POP POP POP POP JUMP JUMPDEST PUSH1 0x0 PUSH1 0x60 PUSH2 0x433B PUSH2 0x18DA JUMP JUMPDEST PUSH1 0x0 DUP1 PUSH2 0x4347 DUP6 PUSH2 0x4978 JUMP JUMPDEST SWAP2 POP SWAP2 POP PUSH2 0x435F PUSH2 0x4356 PUSH2 0x1CF3 JUMP JUMPDEST DUP3 LT PUSH1 0x64 PUSH2 0x149F JUMP JUMPDEST PUSH1 0x60 PUSH2 0x4369 PUSH2 0x1CF3 JUMP JUMPDEST PUSH1 0x1 PUSH1 0x1 PUSH1 0x40 SHL SUB DUP2 GT DUP1 ISZERO PUSH2 0x437E JUMPI PUSH1 0x0 DUP1 REVERT JUMPDEST POP PUSH1 0x40 MLOAD SWAP1 DUP1 DUP3 MSTORE DUP1 PUSH1 0x20 MUL PUSH1 0x20 ADD DUP3 ADD PUSH1 0x40 MSTORE DUP1 ISZERO PUSH2 0x43A8 JUMPI DUP2 PUSH1 0x20 ADD PUSH1 0x20 DUP3 MUL DUP1 CALLDATASIZE DUP4 CALLDATACOPY ADD SWAP1 POP JUMPDEST POP SWAP1 POP PUSH1 0x0 PUSH2 0x43B5 PUSH2 0x198C JUMP JUMPDEST POP SWAP1 POP PUSH2 0x43D4 DUP2 DUP10 DUP6 DUP8 PUSH2 0x43C7 PUSH2 0x75E JUMP JUMPDEST PUSH2 0x43CF PUSH2 0xBD4 JUMP JUMPDEST PUSH2 0x499A JUMP JUMPDEST DUP3 DUP5 DUP2 MLOAD DUP2 LT PUSH2 0x43E0 JUMPI INVALID JUMPDEST PUSH1 0x20 SWAP1 DUP2 MUL SWAP2 SWAP1 SWAP2 ADD ADD MSTORE POP SWAP2 SWAP7 SWAP2 SWAP6 POP SWAP1 SWAP4 POP POP POP POP JUMP JUMPDEST PUSH1 0x0 PUSH1 0x60 PUSH1 0x0 PUSH2 0x4408 DUP5 PUSH2 0x4AB6 JUMP JUMPDEST SWAP1 POP PUSH1 0x60 PUSH2 0x441E DUP7 DUP4 PUSH2 0x4419 PUSH2 0x75E JUMP JUMPDEST PUSH2 0x4ACC JUMP JUMPDEST SWAP2 SWAP7 SWAP2 SWAP6 POP SWAP1 SWAP4 POP POP POP POP JUMP JUMPDEST PUSH1 0x0 PUSH1 0x60 PUSH2 0x4437 PUSH2 0x18DA JUMP JUMPDEST PUSH1 0x60 PUSH1 0x0 PUSH2 0x4444 DUP6 PUSH2 0x4B67 JUMP JUMPDEST SWAP2 POP SWAP2 POP PUSH2 0x4455 DUP3 MLOAD PUSH2 0xBF6 PUSH2 0x1CF3 JUMP JUMPDEST PUSH2 0x445F DUP3 DUP8 PUSH2 0x1F87 JUMP JUMPDEST PUSH1 0x0 PUSH2 0x4469 PUSH2 0x198C JUMP JUMPDEST POP SWAP1 POP PUSH1 0x0 PUSH2 0x4489 DUP3 DUP11 DUP7 PUSH2 0x447C PUSH2 0x75E JUMP JUMPDEST PUSH2 0x4484 PUSH2 0xBD4 JUMP JUMPDEST PUSH2 0x4B7F JUMP JUMPDEST SWAP1 POP PUSH2 0x4499 DUP4 DUP3 GT ISZERO PUSH1 0xCF PUSH2 0x149F JUMP JUMPDEST SWAP9 SWAP3 SWAP8 POP SWAP2 SWAP6 POP POP POP POP POP POP JUMP JUMPDEST PUSH1 0x0 PUSH2 0xA0D DUP4 DUP4 PUSH1 0x1 PUSH2 0x2CA8 JUMP JUMPDEST PUSH1 0x0 PUSH1 0x60 DUP1 PUSH1 0x0 PUSH2 0x44C5 DUP6 PUSH2 0x4B67 JUMP JUMPDEST SWAP2 POP SWAP2 POP PUSH2 0x44DB PUSH2 0x44D4 PUSH2 0x1CF3 JUMP JUMPDEST DUP4 MLOAD PUSH2 0x1D17 JUMP JUMPDEST PUSH2 0x44E5 DUP3 DUP8 PUSH2 0x1F87 JUMP JUMPDEST PUSH1 0x0 PUSH2 0x44EF PUSH2 0x198C JUMP JUMPDEST POP SWAP1 POP PUSH1 0x0 PUSH2 0x450F DUP3 DUP11 DUP7 PUSH2 0x4502 PUSH2 0x75E JUMP JUMPDEST PUSH2 0x450A PUSH2 0xBD4 JUMP JUMPDEST PUSH2 0x4E13 JUMP JUMPDEST SWAP1 POP PUSH2 0x4499 DUP4 DUP3 LT ISZERO PUSH1 0xD0 PUSH2 0x149F JUMP JUMPDEST PUSH1 0x0 PUSH1 0x60 PUSH1 0x0 DUP1 PUSH2 0x452F DUP6 PUSH2 0x4978 JUMP JUMPDEST SWAP2 POP SWAP2 POP PUSH2 0x453E PUSH2 0x4356 PUSH2 0x1CF3 JUMP JUMPDEST PUSH1 0x60 PUSH2 0x4548 PUSH2 0x1CF3 JUMP JUMPDEST PUSH1 0x1 PUSH1 0x1 PUSH1 0x40 SHL SUB DUP2 GT DUP1 ISZERO PUSH2 0x455D JUMPI PUSH1 0x0 DUP1 REVERT JUMPDEST POP PUSH1 0x40 MLOAD SWAP1 DUP1 DUP3 MSTORE DUP1 PUSH1 0x20 MUL PUSH1 0x20 ADD DUP3 ADD PUSH1 0x40 MSTORE DUP1 ISZERO PUSH2 0x4587 JUMPI DUP2 PUSH1 0x20 ADD PUSH1 0x20 DUP3 MUL DUP1 CALLDATASIZE DUP4 CALLDATACOPY ADD SWAP1 POP JUMPDEST POP SWAP1 POP PUSH1 0x0 PUSH2 0x4594 PUSH2 0x198C JUMP JUMPDEST POP SWAP1 POP PUSH2 0x43D4 DUP2 DUP10 DUP6 DUP8 PUSH2 0x45A6 PUSH2 0x75E JUMP JUMPDEST PUSH2 0x45AE PUSH2 0xBD4 JUMP JUMPDEST PUSH2 0x5089 JUMP JUMPDEST PUSH1 0x0 DUP1 PUSH2 0x45C2 DUP8 DUP8 PUSH1 0x1 PUSH2 0x1FE8 JUMP JUMPDEST SWAP1 POP PUSH2 0x45EA DUP4 DUP8 DUP7 DUP2 MLOAD DUP2 LT PUSH2 0x45D4 JUMPI INVALID JUMPDEST PUSH1 0x20 MUL PUSH1 0x20 ADD ADD MLOAD PUSH2 0x1439 SWAP1 SWAP2 SWAP1 PUSH4 0xFFFFFFFF AND JUMP JUMPDEST DUP7 DUP6 DUP2 MLOAD DUP2 LT PUSH2 0x45F6 JUMPI INVALID JUMPDEST PUSH1 0x20 MUL PUSH1 0x20 ADD ADD DUP2 DUP2 MSTORE POP POP PUSH1 0x0 PUSH2 0x4610 DUP9 DUP9 DUP5 DUP10 PUSH2 0x47CF JUMP JUMPDEST SWAP1 POP DUP4 DUP8 DUP7 DUP2 MLOAD DUP2 LT PUSH2 0x461F JUMPI INVALID JUMPDEST PUSH1 0x20 MUL PUSH1 0x20 ADD ADD MLOAD ADD DUP8 DUP7 DUP2 MLOAD DUP2 LT PUSH2 0x4634 JUMPI INVALID JUMPDEST PUSH1 0x20 MUL PUSH1 0x20 ADD ADD DUP2 DUP2 MSTORE POP POP PUSH2 0x4323 PUSH1 0x1 PUSH2 0x20EB DUP10 DUP10 DUP2 MLOAD DUP2 LT PUSH2 0x4654 JUMPI INVALID JUMPDEST PUSH1 0x20 MUL PUSH1 0x20 ADD ADD MLOAD DUP5 PUSH2 0x1439 SWAP1 SWAP2 SWAP1 PUSH4 0xFFFFFFFF AND JUMP JUMPDEST PUSH1 0x0 DUP1 PUSH2 0x467A DUP8 DUP8 PUSH1 0x1 PUSH2 0x1FE8 JUMP JUMPDEST SWAP1 POP PUSH2 0x46A2 DUP4 DUP8 DUP8 DUP2 MLOAD DUP2 LT PUSH2 0x468C JUMPI INVALID JUMPDEST PUSH1 0x20 MUL PUSH1 0x20 ADD ADD MLOAD PUSH2 0x1BD5 SWAP1 SWAP2 SWAP1 PUSH4 0xFFFFFFFF AND JUMP JUMPDEST DUP7 DUP7 DUP2 MLOAD DUP2 LT PUSH2 0x46AE JUMPI INVALID JUMPDEST PUSH1 0x20 MUL PUSH1 0x20 ADD ADD DUP2 DUP2 MSTORE POP POP PUSH1 0x0 PUSH2 0x46C8 DUP9 DUP9 DUP5 DUP9 PUSH2 0x47CF JUMP JUMPDEST SWAP1 POP DUP4 DUP8 DUP8 DUP2 MLOAD DUP2 LT PUSH2 0x46D7 JUMPI INVALID JUMPDEST PUSH1 0x20 MUL PUSH1 0x20 ADD ADD MLOAD SUB DUP8 DUP8 DUP2 MLOAD DUP2 LT PUSH2 0x46EC JUMPI INVALID JUMPDEST PUSH1 0x20 MUL PUSH1 0x20 ADD ADD DUP2 DUP2 MSTORE POP POP PUSH2 0x4323 PUSH1 0x1 PUSH2 0x4176 DUP4 DUP11 DUP10 DUP2 MLOAD DUP2 LT PUSH2 0x45D4 JUMPI INVALID JUMPDEST PUSH1 0x40 DUP1 MLOAD PUSH1 0x2 DUP1 DUP3 MSTORE PUSH1 0x60 DUP1 DUP4 ADD DUP5 MSTORE SWAP3 PUSH1 0x20 DUP4 ADD SWAP1 DUP1 CALLDATASIZE DUP4 CALLDATACOPY ADD SWAP1 POP POP SWAP1 POP DUP3 DUP2 PUSH1 0x0 DUP2 MLOAD DUP2 LT PUSH2 0x473B JUMPI INVALID JUMPDEST PUSH1 0x20 MUL PUSH1 0x20 ADD ADD DUP2 DUP2 MSTORE POP POP DUP2 DUP2 PUSH1 0x1 DUP2 MLOAD DUP2 LT PUSH2 0x4755 JUMPI INVALID JUMPDEST PUSH1 0x20 MUL PUSH1 0x20 ADD ADD DUP2 DUP2 MSTORE POP POP SWAP3 SWAP2 POP POP JUMP JUMPDEST PUSH1 0x0 PUSH2 0x4773 DUP3 DUP3 PUSH2 0x144F JUMP JUMPDEST PUSH2 0x477E DUP5 PUSH1 0x1F PUSH2 0x5166 JUMP JUMPDEST PUSH2 0x4789 DUP7 PUSH1 0x54 PUSH2 0x5177 JUMP JUMPDEST PUSH2 0x4794 DUP9 PUSH1 0x6A PUSH2 0x5166 JUMP JUMPDEST PUSH2 0x479F DUP11 PUSH1 0x9F PUSH2 0x5177 JUMP JUMPDEST PUSH2 0x47AA DUP13 PUSH1 0xB5 PUSH2 0x5166 JUMP JUMPDEST PUSH2 0x47B5 DUP15 PUSH1 0xEA PUSH2 0x5177 JUMP JUMPDEST OR OR OR OR OR OR SWAP9 SWAP8 POP POP POP POP POP POP POP POP JUMP JUMPDEST ADD PUSH2 0x3FF AND SWAP1 JUMP JUMPDEST PUSH1 0x0 DUP1 DUP5 MLOAD DUP7 MUL SWAP1 POP PUSH1 0x0 DUP6 PUSH1 0x0 DUP2 MLOAD DUP2 LT PUSH2 0x47E7 JUMPI INVALID JUMPDEST PUSH1 0x20 MUL PUSH1 0x20 ADD ADD MLOAD SWAP1 POP PUSH1 0x0 DUP7 MLOAD DUP8 PUSH1 0x0 DUP2 MLOAD DUP2 LT PUSH2 0x4802 JUMPI INVALID JUMPDEST PUSH1 0x20 MUL PUSH1 0x20 ADD ADD MLOAD MUL SWAP1 POP PUSH1 0x0 PUSH1 0x1 SWAP1 POP JUMPDEST DUP8 MLOAD DUP2 LT ISZERO PUSH2 0x485B JUMPI PUSH2 0x4840 PUSH2 0x483A PUSH2 0x4833 DUP5 DUP12 DUP6 DUP2 MLOAD DUP2 LT PUSH2 0x208B JUMPI INVALID JUMPDEST DUP11 MLOAD PUSH2 0x13E3 JUMP JUMPDEST DUP9 PUSH2 0x37F1 JUMP JUMPDEST SWAP2 POP PUSH2 0x4851 DUP9 DUP3 DUP2 MLOAD DUP2 LT PUSH2 0x2008 JUMPI INVALID JUMPDEST SWAP3 POP PUSH1 0x1 ADD PUSH2 0x4814 JUMP JUMPDEST POP DUP7 DUP6 DUP2 MLOAD DUP2 LT PUSH2 0x4868 JUMPI INVALID JUMPDEST PUSH1 0x20 MUL PUSH1 0x20 ADD ADD MLOAD DUP3 SUB SWAP2 POP PUSH1 0x0 PUSH2 0x4880 DUP8 DUP9 PUSH2 0x13E3 JUMP JUMPDEST SWAP1 POP PUSH1 0x0 PUSH2 0x48AC PUSH2 0x48A0 PUSH2 0x4898 DUP5 PUSH2 0xAE0 DUP10 DUP9 PUSH2 0x13E3 JUMP JUMPDEST PUSH2 0x3E8 PUSH2 0x13E3 JUMP JUMPDEST DUP11 DUP10 DUP2 MLOAD DUP2 LT PUSH2 0x208B JUMPI INVALID JUMPDEST SWAP1 POP PUSH1 0x0 PUSH2 0x48C0 PUSH2 0x41E2 PUSH2 0x4898 DUP12 DUP10 PUSH2 0x37F1 JUMP JUMPDEST SWAP1 POP PUSH1 0x0 DUP1 PUSH2 0x48DC PUSH2 0x48D2 DUP7 DUP7 PUSH2 0x1BD5 JUMP JUMPDEST PUSH2 0xAE0 DUP14 DUP7 PUSH2 0x1BD5 JUMP JUMPDEST SWAP1 POP PUSH1 0x0 JUMPDEST PUSH1 0xFF DUP2 LT ISZERO PUSH2 0x495C JUMPI DUP2 SWAP3 POP PUSH2 0x4911 PUSH2 0x48FE DUP7 PUSH2 0x20EB DUP6 DUP7 PUSH2 0x13E3 JUMP JUMPDEST PUSH2 0xAE0 DUP15 PUSH2 0x4176 DUP9 PUSH2 0x20EB DUP9 PUSH1 0x2 PUSH2 0x13E3 JUMP JUMPDEST SWAP2 POP DUP3 DUP3 GT ISZERO PUSH2 0x493A JUMPI PUSH1 0x1 DUP4 DUP4 SUB GT PUSH2 0x4935 JUMPI POP SWAP8 POP PUSH2 0x1510 SWAP7 POP POP POP POP POP POP POP JUMP JUMPDEST PUSH2 0x4954 JUMP JUMPDEST PUSH1 0x1 DUP3 DUP5 SUB GT PUSH2 0x4954 JUMPI POP SWAP8 POP PUSH2 0x1510 SWAP7 POP POP POP POP POP POP POP JUMP JUMPDEST PUSH1 0x1 ADD PUSH2 0x48E1 JUMP JUMPDEST POP PUSH2 0x4968 PUSH2 0x142 PUSH2 0x24C6 JUMP JUMPDEST POP POP POP POP POP POP POP POP SWAP5 SWAP4 POP POP POP POP JUMP JUMPDEST PUSH1 0x0 DUP1 DUP3 DUP1 PUSH1 0x20 ADD SWAP1 MLOAD DUP2 ADD SWAP1 PUSH2 0x498F SWAP2 SWAP1 PUSH2 0x594F JUMP JUMPDEST SWAP1 SWAP6 SWAP1 SWAP5 POP SWAP3 POP POP POP JUMP JUMPDEST PUSH1 0x0 DUP1 PUSH2 0x49A9 DUP9 DUP9 PUSH1 0x1 PUSH2 0x1FE8 JUMP JUMPDEST SWAP1 POP PUSH1 0x0 PUSH2 0x49CB DUP3 PUSH2 0x49C5 DUP8 PUSH2 0x49BF DUP2 DUP12 PUSH2 0x1439 JUMP JUMPDEST SWAP1 PUSH2 0x2FB0 JUMP JUMPDEST SWAP1 PUSH2 0x3A32 JUMP JUMPDEST SWAP1 POP PUSH1 0x0 PUSH2 0x49DB DUP11 DUP11 DUP5 DUP12 PUSH2 0x47CF JUMP JUMPDEST SWAP1 POP PUSH1 0x0 PUSH2 0x49EF DUP3 DUP12 DUP12 DUP2 MLOAD DUP2 LT PUSH2 0x45D4 JUMPI INVALID JUMPDEST SWAP1 POP PUSH1 0x0 DUP1 JUMPDEST DUP12 MLOAD DUP2 LT ISZERO PUSH2 0x4A2E JUMPI PUSH2 0x4A24 DUP13 DUP3 DUP2 MLOAD DUP2 LT PUSH2 0x4A0D JUMPI INVALID JUMPDEST PUSH1 0x20 MUL PUSH1 0x20 ADD ADD MLOAD DUP4 PUSH2 0x1BD5 SWAP1 SWAP2 SWAP1 PUSH4 0xFFFFFFFF AND JUMP JUMPDEST SWAP2 POP PUSH1 0x1 ADD PUSH2 0x49F5 JUMP JUMPDEST POP PUSH1 0x0 PUSH2 0x4A57 DUP3 DUP14 DUP14 DUP2 MLOAD DUP2 LT PUSH2 0x4A41 JUMPI INVALID JUMPDEST PUSH1 0x20 MUL PUSH1 0x20 ADD ADD MLOAD PUSH2 0x2184 SWAP1 SWAP2 SWAP1 PUSH4 0xFFFFFFFF AND JUMP JUMPDEST SWAP1 POP PUSH1 0x0 PUSH2 0x4A64 DUP3 PUSH2 0x5184 JUMP JUMPDEST SWAP1 POP PUSH1 0x0 PUSH2 0x4A72 DUP6 DUP4 PUSH2 0x3A32 JUMP JUMPDEST SWAP1 POP PUSH1 0x0 PUSH2 0x4A80 DUP7 DUP4 PUSH2 0x1439 JUMP JUMPDEST SWAP1 POP PUSH2 0x4AA1 PUSH2 0x4A9A DUP4 PUSH8 0xDE0B6B3A7640000 DUP15 SWAP1 SUB PUSH2 0x2C39 JUMP JUMPDEST DUP3 SWAP1 PUSH2 0x1BD5 JUMP JUMPDEST SWAP10 POP POP POP POP POP POP POP POP POP POP SWAP7 SWAP6 POP POP POP POP POP POP JUMP JUMPDEST PUSH1 0x0 DUP2 DUP1 PUSH1 0x20 ADD SWAP1 MLOAD DUP2 ADD SWAP1 PUSH2 0xA0D SWAP2 SWAP1 PUSH2 0x5922 JUMP JUMPDEST PUSH1 0x60 PUSH1 0x0 PUSH2 0x4ADA DUP5 DUP5 PUSH2 0x2184 JUMP JUMPDEST SWAP1 POP PUSH1 0x60 DUP6 MLOAD PUSH1 0x1 PUSH1 0x1 PUSH1 0x40 SHL SUB DUP2 GT DUP1 ISZERO PUSH2 0x4AF5 JUMPI PUSH1 0x0 DUP1 REVERT JUMPDEST POP PUSH1 0x40 MLOAD SWAP1 DUP1 DUP3 MSTORE DUP1 PUSH1 0x20 MUL PUSH1 0x20 ADD DUP3 ADD PUSH1 0x40 MSTORE DUP1 ISZERO PUSH2 0x4B1F JUMPI DUP2 PUSH1 0x20 ADD PUSH1 0x20 DUP3 MUL DUP1 CALLDATASIZE DUP4 CALLDATACOPY ADD SWAP1 POP JUMPDEST POP SWAP1 POP PUSH1 0x0 JUMPDEST DUP7 MLOAD DUP2 LT ISZERO PUSH2 0x4B5D JUMPI PUSH2 0x4B3E DUP4 DUP9 DUP4 DUP2 MLOAD DUP2 LT PUSH2 0x16E8 JUMPI INVALID JUMPDEST DUP3 DUP3 DUP2 MLOAD DUP2 LT PUSH2 0x4B4A JUMPI INVALID JUMPDEST PUSH1 0x20 SWAP1 DUP2 MUL SWAP2 SWAP1 SWAP2 ADD ADD MSTORE PUSH1 0x1 ADD PUSH2 0x4B25 JUMP JUMPDEST POP SWAP6 SWAP5 POP POP POP POP POP JUMP JUMPDEST PUSH1 0x60 PUSH1 0x0 DUP3 DUP1 PUSH1 0x20 ADD SWAP1 MLOAD DUP2 ADD SWAP1 PUSH2 0x498F SWAP2 SWAP1 PUSH2 0x58DC JUMP JUMPDEST PUSH1 0x0 DUP1 DUP1 JUMPDEST DUP7 MLOAD DUP2 LT ISZERO PUSH2 0x4BA6 JUMPI PUSH2 0x4B9C DUP8 DUP3 DUP2 MLOAD DUP2 LT PUSH2 0x4A0D JUMPI INVALID JUMPDEST SWAP2 POP PUSH1 0x1 ADD PUSH2 0x4B84 JUMP JUMPDEST POP PUSH1 0x60 DUP6 MLOAD PUSH1 0x1 PUSH1 0x1 PUSH1 0x40 SHL SUB DUP2 GT DUP1 ISZERO PUSH2 0x4BC0 JUMPI PUSH1 0x0 DUP1 REVERT JUMPDEST POP PUSH1 0x40 MLOAD SWAP1 DUP1 DUP3 MSTORE DUP1 PUSH1 0x20 MUL PUSH1 0x20 ADD DUP3 ADD PUSH1 0x40 MSTORE DUP1 ISZERO PUSH2 0x4BEA JUMPI DUP2 PUSH1 0x20 ADD PUSH1 0x20 DUP3 MUL DUP1 CALLDATASIZE DUP4 CALLDATACOPY ADD SWAP1 POP JUMPDEST POP SWAP1 POP PUSH1 0x0 DUP1 JUMPDEST DUP9 MLOAD DUP2 LT ISZERO PUSH2 0x4CB1 JUMPI PUSH1 0x0 PUSH2 0x4C22 DUP6 DUP12 DUP5 DUP2 MLOAD DUP2 LT PUSH2 0x4C0C JUMPI INVALID JUMPDEST PUSH1 0x20 MUL PUSH1 0x20 ADD ADD MLOAD PUSH2 0x2FB0 SWAP1 SWAP2 SWAP1 PUSH4 0xFFFFFFFF AND JUMP JUMPDEST SWAP1 POP PUSH2 0x4C5E DUP11 DUP4 DUP2 MLOAD DUP2 LT PUSH2 0x4C33 JUMPI INVALID JUMPDEST PUSH1 0x20 MUL PUSH1 0x20 ADD ADD MLOAD PUSH2 0x49BF DUP12 DUP6 DUP2 MLOAD DUP2 LT PUSH2 0x4C4A JUMPI INVALID JUMPDEST PUSH1 0x20 MUL PUSH1 0x20 ADD ADD MLOAD DUP14 DUP7 DUP2 MLOAD DUP2 LT PUSH2 0x45D4 JUMPI INVALID JUMPDEST DUP5 DUP4 DUP2 MLOAD DUP2 LT PUSH2 0x4C6A JUMPI INVALID JUMPDEST PUSH1 0x20 MUL PUSH1 0x20 ADD ADD DUP2 DUP2 MSTORE POP POP PUSH2 0x4CA6 PUSH2 0x4C9F DUP3 DUP7 DUP6 DUP2 MLOAD DUP2 LT PUSH2 0x4C89 JUMPI INVALID JUMPDEST PUSH1 0x20 MUL PUSH1 0x20 ADD ADD MLOAD PUSH2 0x3A32 SWAP1 SWAP2 SWAP1 PUSH4 0xFFFFFFFF AND JUMP JUMPDEST DUP5 SWAP1 PUSH2 0x1BD5 JUMP JUMPDEST SWAP3 POP POP PUSH1 0x1 ADD PUSH2 0x4BF1 JUMP JUMPDEST POP PUSH1 0x60 DUP9 MLOAD PUSH1 0x1 PUSH1 0x1 PUSH1 0x40 SHL SUB DUP2 GT DUP1 ISZERO PUSH2 0x4CCB JUMPI PUSH1 0x0 DUP1 REVERT JUMPDEST POP PUSH1 0x40 MLOAD SWAP1 DUP1 DUP3 MSTORE DUP1 PUSH1 0x20 MUL PUSH1 0x20 ADD DUP3 ADD PUSH1 0x40 MSTORE DUP1 ISZERO PUSH2 0x4CF5 JUMPI DUP2 PUSH1 0x20 ADD PUSH1 0x20 DUP3 MUL DUP1 CALLDATASIZE DUP4 CALLDATACOPY ADD SWAP1 POP JUMPDEST POP SWAP1 POP PUSH1 0x0 JUMPDEST DUP10 MLOAD DUP2 LT ISZERO PUSH2 0x4DC0 JUMPI PUSH1 0x0 DUP5 DUP3 DUP2 MLOAD DUP2 LT PUSH2 0x4D12 JUMPI INVALID JUMPDEST PUSH1 0x20 MUL PUSH1 0x20 ADD ADD MLOAD DUP5 GT ISZERO PUSH2 0x4D79 JUMPI PUSH1 0x0 PUSH2 0x4D3B PUSH2 0x4D2F DUP7 PUSH2 0x5184 JUMP JUMPDEST DUP14 DUP6 DUP2 MLOAD DUP2 LT PUSH2 0x16E8 JUMPI INVALID JUMPDEST SWAP1 POP PUSH1 0x0 PUSH2 0x4D4F DUP3 DUP14 DUP7 DUP2 MLOAD DUP2 LT PUSH2 0x45D4 JUMPI INVALID JUMPDEST SWAP1 POP PUSH2 0x4D70 PUSH2 0x4D69 DUP3 PUSH8 0xDE0B6B3A7640000 DUP14 SWAP1 SUB PUSH2 0x2FB0 JUMP JUMPDEST DUP4 SWAP1 PUSH2 0x1BD5 JUMP JUMPDEST SWAP3 POP POP POP PUSH2 0x4D90 JUMP JUMPDEST DUP10 DUP3 DUP2 MLOAD DUP2 LT PUSH2 0x4D85 JUMPI INVALID JUMPDEST PUSH1 0x20 MUL PUSH1 0x20 ADD ADD MLOAD SWAP1 POP JUMPDEST PUSH2 0x4DA0 DUP2 DUP13 DUP5 DUP2 MLOAD DUP2 LT PUSH2 0x45D4 JUMPI INVALID JUMPDEST DUP4 DUP4 DUP2 MLOAD DUP2 LT PUSH2 0x4DAC JUMPI INVALID JUMPDEST PUSH1 0x20 SWAP1 DUP2 MUL SWAP2 SWAP1 SWAP2 ADD ADD MSTORE POP PUSH1 0x1 ADD PUSH2 0x4CFB JUMP JUMPDEST POP PUSH1 0x0 PUSH2 0x4DCF DUP12 DUP12 PUSH1 0x1 PUSH2 0x1FE8 JUMP JUMPDEST SWAP1 POP PUSH1 0x0 PUSH2 0x4DDF DUP13 DUP5 PUSH1 0x0 PUSH2 0x1FE8 JUMP JUMPDEST SWAP1 POP PUSH1 0x0 PUSH2 0x4DED DUP3 DUP5 PUSH2 0x2184 JUMP JUMPDEST SWAP1 POP PUSH2 0x4E02 PUSH2 0x4DFB DUP3 PUSH2 0x5184 JUMP JUMPDEST DUP12 SWAP1 PUSH2 0x3A32 JUMP JUMPDEST SWAP14 SWAP13 POP POP POP POP POP POP POP POP POP POP POP POP POP JUMP JUMPDEST PUSH1 0x0 DUP1 DUP1 JUMPDEST DUP7 MLOAD DUP2 LT ISZERO PUSH2 0x4E3A JUMPI PUSH2 0x4E30 DUP8 DUP3 DUP2 MLOAD DUP2 LT PUSH2 0x4A0D JUMPI INVALID JUMPDEST SWAP2 POP PUSH1 0x1 ADD PUSH2 0x4E18 JUMP JUMPDEST POP PUSH1 0x60 DUP6 MLOAD PUSH1 0x1 PUSH1 0x1 PUSH1 0x40 SHL SUB DUP2 GT DUP1 ISZERO PUSH2 0x4E54 JUMPI PUSH1 0x0 DUP1 REVERT JUMPDEST POP PUSH1 0x40 MLOAD SWAP1 DUP1 DUP3 MSTORE DUP1 PUSH1 0x20 MUL PUSH1 0x20 ADD DUP3 ADD PUSH1 0x40 MSTORE DUP1 ISZERO PUSH2 0x4E7E JUMPI DUP2 PUSH1 0x20 ADD PUSH1 0x20 DUP3 MUL DUP1 CALLDATASIZE DUP4 CALLDATACOPY ADD SWAP1 POP JUMPDEST POP SWAP1 POP PUSH1 0x0 DUP1 JUMPDEST DUP9 MLOAD DUP2 LT ISZERO PUSH2 0x4F12 JUMPI PUSH1 0x0 PUSH2 0x4EA0 DUP6 DUP12 DUP5 DUP2 MLOAD DUP2 LT PUSH2 0x4A41 JUMPI INVALID JUMPDEST SWAP1 POP PUSH2 0x4EDC DUP11 DUP4 DUP2 MLOAD DUP2 LT PUSH2 0x4EB1 JUMPI INVALID JUMPDEST PUSH1 0x20 MUL PUSH1 0x20 ADD ADD MLOAD PUSH2 0x431D DUP12 DUP6 DUP2 MLOAD DUP2 LT PUSH2 0x4EC8 JUMPI INVALID JUMPDEST PUSH1 0x20 MUL PUSH1 0x20 ADD ADD MLOAD DUP14 DUP7 DUP2 MLOAD DUP2 LT PUSH2 0x468C JUMPI INVALID JUMPDEST DUP5 DUP4 DUP2 MLOAD DUP2 LT PUSH2 0x4EE8 JUMPI INVALID JUMPDEST PUSH1 0x20 MUL PUSH1 0x20 ADD ADD DUP2 DUP2 MSTORE POP POP PUSH2 0x4F07 PUSH2 0x4C9F DUP3 DUP7 DUP6 DUP2 MLOAD DUP2 LT PUSH2 0x16E8 JUMPI INVALID JUMPDEST SWAP3 POP POP PUSH1 0x1 ADD PUSH2 0x4E85 JUMP JUMPDEST POP PUSH1 0x60 DUP9 MLOAD PUSH1 0x1 PUSH1 0x1 PUSH1 0x40 SHL SUB DUP2 GT DUP1 ISZERO PUSH2 0x4F2C JUMPI PUSH1 0x0 DUP1 REVERT JUMPDEST POP PUSH1 0x40 MLOAD SWAP1 DUP1 DUP3 MSTORE DUP1 PUSH1 0x20 MUL PUSH1 0x20 ADD DUP3 ADD PUSH1 0x40 MSTORE DUP1 ISZERO PUSH2 0x4F56 JUMPI DUP2 PUSH1 0x20 ADD PUSH1 0x20 DUP3 MUL DUP1 CALLDATASIZE DUP4 CALLDATACOPY ADD SWAP1 POP JUMPDEST POP SWAP1 POP PUSH1 0x0 JUMPDEST DUP10 MLOAD DUP2 LT ISZERO PUSH2 0x5017 JUMPI PUSH1 0x0 DUP4 DUP6 DUP4 DUP2 MLOAD DUP2 LT PUSH2 0x4F74 JUMPI INVALID JUMPDEST PUSH1 0x20 MUL PUSH1 0x20 ADD ADD MLOAD GT ISZERO PUSH2 0x4FD0 JUMPI PUSH1 0x0 PUSH2 0x4F99 PUSH2 0x4D2F DUP7 PUSH8 0xDE0B6B3A7640000 PUSH2 0x1439 JUMP JUMPDEST SWAP1 POP PUSH1 0x0 PUSH2 0x4FAD DUP3 DUP14 DUP7 DUP2 MLOAD DUP2 LT PUSH2 0x45D4 JUMPI INVALID JUMPDEST SWAP1 POP PUSH2 0x4FC7 PUSH2 0x4D69 DUP3 PUSH8 0xDE0B6B3A7640000 DUP14 SWAP1 SUB PUSH2 0x2C39 JUMP JUMPDEST SWAP3 POP POP POP PUSH2 0x4FE7 JUMP JUMPDEST DUP10 DUP3 DUP2 MLOAD DUP2 LT PUSH2 0x4FDC JUMPI INVALID JUMPDEST PUSH1 0x20 MUL PUSH1 0x20 ADD ADD MLOAD SWAP1 POP JUMPDEST PUSH2 0x4FF7 DUP2 DUP13 DUP5 DUP2 MLOAD DUP2 LT PUSH2 0x468C JUMPI INVALID JUMPDEST DUP4 DUP4 DUP2 MLOAD DUP2 LT PUSH2 0x5003 JUMPI INVALID JUMPDEST PUSH1 0x20 SWAP1 DUP2 MUL SWAP2 SWAP1 SWAP2 ADD ADD MSTORE POP PUSH1 0x1 ADD PUSH2 0x4F5C JUMP JUMPDEST POP PUSH1 0x0 PUSH2 0x5026 DUP12 DUP12 PUSH1 0x1 PUSH2 0x1FE8 JUMP JUMPDEST SWAP1 POP PUSH1 0x0 PUSH2 0x5036 DUP13 DUP5 PUSH1 0x0 PUSH2 0x1FE8 JUMP JUMPDEST SWAP1 POP PUSH1 0x0 PUSH2 0x5044 DUP3 DUP5 PUSH2 0x2184 JUMP JUMPDEST SWAP1 POP PUSH8 0xDE0B6B3A7640000 DUP2 GT ISZERO PUSH2 0x5079 JUMPI PUSH2 0x506B DUP11 PUSH8 0xDE0B6B3A763FFFF NOT DUP4 ADD PUSH2 0x2C39 JUMP JUMPDEST SWAP8 POP POP POP POP POP POP POP POP PUSH2 0xFDD JUMP JUMPDEST PUSH1 0x0 SWAP8 POP POP POP POP POP POP POP POP PUSH2 0xFDD JUMP JUMPDEST PUSH1 0x0 DUP1 PUSH2 0x5098 DUP9 DUP9 PUSH1 0x1 PUSH2 0x1FE8 JUMP JUMPDEST SWAP1 POP PUSH1 0x0 PUSH2 0x50AE DUP3 PUSH2 0x49C5 DUP8 PUSH2 0x49BF DUP2 DUP12 PUSH2 0x1BD5 JUMP JUMPDEST SWAP1 POP PUSH1 0x0 PUSH2 0x50BE DUP11 DUP11 DUP5 DUP12 PUSH2 0x47CF JUMP JUMPDEST SWAP1 POP PUSH1 0x0 PUSH2 0x50E8 DUP11 DUP11 DUP2 MLOAD DUP2 LT PUSH2 0x50D1 JUMPI INVALID JUMPDEST PUSH1 0x20 MUL PUSH1 0x20 ADD ADD MLOAD DUP4 PUSH2 0x1439 SWAP1 SWAP2 SWAP1 PUSH4 0xFFFFFFFF AND JUMP JUMPDEST SWAP1 POP PUSH1 0x0 DUP1 JUMPDEST DUP12 MLOAD DUP2 LT ISZERO PUSH2 0x5110 JUMPI PUSH2 0x5106 DUP13 DUP3 DUP2 MLOAD DUP2 LT PUSH2 0x4A0D JUMPI INVALID JUMPDEST SWAP2 POP PUSH1 0x1 ADD PUSH2 0x50EE JUMP JUMPDEST POP PUSH1 0x0 PUSH2 0x5123 DUP3 DUP14 DUP14 DUP2 MLOAD DUP2 LT PUSH2 0x4A41 JUMPI INVALID JUMPDEST SWAP1 POP PUSH1 0x0 PUSH2 0x5130 DUP3 PUSH2 0x5184 JUMP JUMPDEST SWAP1 POP PUSH1 0x0 PUSH2 0x513E DUP6 DUP4 PUSH2 0x3A32 JUMP JUMPDEST SWAP1 POP PUSH1 0x0 PUSH2 0x514C DUP7 DUP4 PUSH2 0x1439 JUMP JUMPDEST SWAP1 POP PUSH2 0x4AA1 PUSH2 0x4A9A DUP4 PUSH8 0xDE0B6B3A7640000 DUP15 SWAP1 SUB PUSH2 0x2FB0 JUMP JUMPDEST PUSH7 0x1FFFFFFFFFFFFF SWAP2 SWAP1 SWAP2 AND SWAP1 SHL SWAP1 JUMP JUMPDEST PUSH3 0x3FFFFF SWAP2 SWAP1 SWAP2 AND SWAP1 SHL SWAP1 JUMP JUMPDEST PUSH1 0x0 PUSH8 0xDE0B6B3A7640000 DUP3 LT PUSH2 0x519C JUMPI PUSH1 0x0 PUSH2 0x744 JUMP JUMPDEST POP PUSH8 0xDE0B6B3A7640000 SUB SWAP1 JUMP JUMPDEST PUSH1 0x40 DUP1 MLOAD DUP1 DUP3 ADD SWAP1 SWAP2 MSTORE PUSH1 0x0 DUP1 DUP3 MSTORE PUSH1 0x20 DUP3 ADD MSTORE SWAP1 JUMP JUMPDEST DUP1 CALLDATALOAD PUSH2 0x744 DUP2 PUSH2 0x5F7E JUMP JUMPDEST PUSH1 0x0 DUP3 PUSH1 0x1F DUP4 ADD SLT PUSH2 0x51DC JUMPI DUP1 DUP2 REVERT JUMPDEST DUP2 CALLDATALOAD PUSH2 0x51EF PUSH2 0x51EA DUP3 PUSH2 0x5F55 JUMP JUMPDEST PUSH2 0x5F2F JUMP JUMPDEST DUP2 DUP2 MSTORE SWAP2 POP PUSH1 0x20 DUP1 DUP4 ADD SWAP1 DUP5 DUP2 ADD DUP2 DUP5 MUL DUP7 ADD DUP3 ADD DUP8 LT ISZERO PUSH2 0x5210 JUMPI PUSH1 0x0 DUP1 REVERT JUMPDEST PUSH1 0x0 JUMPDEST DUP5 DUP2 LT ISZERO PUSH2 0x522F JUMPI DUP2 CALLDATALOAD DUP5 MSTORE SWAP3 DUP3 ADD SWAP3 SWAP1 DUP3 ADD SWAP1 PUSH1 0x1 ADD PUSH2 0x5213 JUMP JUMPDEST POP POP POP POP POP SWAP3 SWAP2 POP POP JUMP JUMPDEST PUSH1 0x0 DUP3 PUSH1 0x1F DUP4 ADD SLT PUSH2 0x524A JUMPI DUP1 DUP2 REVERT JUMPDEST DUP2 MLOAD PUSH2 0x5258 PUSH2 0x51EA DUP3 PUSH2 0x5F55 JUMP JUMPDEST DUP2 DUP2 MSTORE SWAP2 POP PUSH1 0x20 DUP1 DUP4 ADD SWAP1 DUP5 DUP2 ADD DUP2 DUP5 MUL DUP7 ADD DUP3 ADD DUP8 LT ISZERO PUSH2 0x5279 JUMPI PUSH1 0x0 DUP1 REVERT JUMPDEST PUSH1 0x0 JUMPDEST DUP5 DUP2 LT ISZERO PUSH2 0x522F JUMPI DUP2 MLOAD DUP5 MSTORE SWAP3 DUP3 ADD SWAP3 SWAP1 DUP3 ADD SWAP1 PUSH1 0x1 ADD PUSH2 0x527C JUMP JUMPDEST PUSH1 0x0 DUP3 PUSH1 0x1F DUP4 ADD SLT PUSH2 0x52A8 JUMPI DUP1 DUP2 REVERT JUMPDEST DUP2 CALLDATALOAD PUSH1 0x1 PUSH1 0x1 PUSH1 0x40 SHL SUB DUP2 GT ISZERO PUSH2 0x52BD JUMPI DUP2 DUP3 REVERT JUMPDEST PUSH2 0x52D0 PUSH1 0x1F DUP3 ADD PUSH1 0x1F NOT AND PUSH1 0x20 ADD PUSH2 0x5F2F JUMP JUMPDEST SWAP2 POP DUP1 DUP3 MSTORE DUP4 PUSH1 0x20 DUP3 DUP6 ADD ADD GT ISZERO PUSH2 0x52E7 JUMPI PUSH1 0x0 DUP1 REVERT JUMPDEST DUP1 PUSH1 0x20 DUP5 ADD PUSH1 0x20 DUP5 ADD CALLDATACOPY PUSH1 0x0 SWAP1 DUP3 ADD PUSH1 0x20 ADD MSTORE SWAP3 SWAP2 POP POP JUMP JUMPDEST DUP1 CALLDATALOAD PUSH1 0x2 DUP2 LT PUSH2 0x744 JUMPI PUSH1 0x0 DUP1 REVERT JUMPDEST DUP1 CALLDATALOAD PUSH2 0x744 DUP2 PUSH2 0x5FA1 JUMP JUMPDEST PUSH1 0x0 PUSH2 0x120 DUP1 DUP4 DUP6 SUB SLT ISZERO PUSH2 0x532D JUMPI DUP2 DUP3 REVERT JUMPDEST PUSH2 0x5336 DUP2 PUSH2 0x5F2F JUMP JUMPDEST SWAP2 POP POP PUSH2 0x5343 DUP4 DUP4 PUSH2 0x5300 JUMP JUMPDEST DUP2 MSTORE PUSH2 0x5352 DUP4 PUSH1 0x20 DUP5 ADD PUSH2 0x51C1 JUMP JUMPDEST PUSH1 0x20 DUP3 ADD MSTORE PUSH2 0x5364 DUP4 PUSH1 0x40 DUP5 ADD PUSH2 0x51C1 JUMP JUMPDEST PUSH1 0x40 DUP3 ADD MSTORE PUSH1 0x60 DUP3 ADD CALLDATALOAD PUSH1 0x60 DUP3 ADD MSTORE PUSH1 0x80 DUP3 ADD CALLDATALOAD PUSH1 0x80 DUP3 ADD MSTORE PUSH1 0xA0 DUP3 ADD CALLDATALOAD PUSH1 0xA0 DUP3 ADD MSTORE PUSH2 0x5394 DUP4 PUSH1 0xC0 DUP5 ADD PUSH2 0x51C1 JUMP JUMPDEST PUSH1 0xC0 DUP3 ADD MSTORE PUSH2 0x53A6 DUP4 PUSH1 0xE0 DUP5 ADD PUSH2 0x51C1 JUMP JUMPDEST PUSH1 0xE0 DUP3 ADD MSTORE PUSH2 0x100 DUP1 DUP4 ADD CALLDATALOAD PUSH1 0x1 PUSH1 0x1 PUSH1 0x40 SHL SUB DUP2 GT ISZERO PUSH2 0x53C6 JUMPI PUSH1 0x0 DUP1 REVERT JUMPDEST PUSH2 0x53D2 DUP6 DUP3 DUP7 ADD PUSH2 0x5298 JUMP JUMPDEST DUP3 DUP5 ADD MSTORE POP POP SWAP3 SWAP2 POP POP JUMP JUMPDEST PUSH1 0x0 PUSH1 0x20 DUP3 DUP5 SUB SLT ISZERO PUSH2 0x53EF JUMPI DUP1 DUP2 REVERT JUMPDEST DUP2 CALLDATALOAD PUSH2 0xA0D DUP2 PUSH2 0x5F7E JUMP JUMPDEST PUSH1 0x0 DUP1 PUSH1 0x40 DUP4 DUP6 SUB SLT ISZERO PUSH2 0x540C JUMPI DUP1 DUP2 REVERT JUMPDEST DUP3 CALLDATALOAD PUSH2 0x5417 DUP2 PUSH2 0x5F7E JUMP JUMPDEST SWAP2 POP PUSH1 0x20 DUP4 ADD CALLDATALOAD PUSH2 0x5427 DUP2 PUSH2 0x5F7E JUMP JUMPDEST DUP1 SWAP2 POP POP SWAP3 POP SWAP3 SWAP1 POP JUMP JUMPDEST PUSH1 0x0 DUP1 PUSH1 0x0 PUSH1 0x60 DUP5 DUP7 SUB SLT ISZERO PUSH2 0x5446 JUMPI DUP1 DUP2 REVERT JUMPDEST DUP4 CALLDATALOAD PUSH2 0x5451 DUP2 PUSH2 0x5F7E JUMP JUMPDEST SWAP3 POP PUSH1 0x20 DUP5 ADD CALLDATALOAD PUSH2 0x5461 DUP2 PUSH2 0x5F7E JUMP JUMPDEST SWAP3 SWAP6 SWAP3 SWAP5 POP POP POP PUSH1 0x40 SWAP2 SWAP1 SWAP2 ADD CALLDATALOAD SWAP1 JUMP JUMPDEST PUSH1 0x0 DUP1 PUSH1 0x0 DUP1 PUSH1 0x0 DUP1 PUSH1 0x0 PUSH1 0xE0 DUP9 DUP11 SUB SLT ISZERO PUSH2 0x548C JUMPI DUP5 DUP6 REVERT JUMPDEST DUP8 CALLDATALOAD PUSH2 0x5497 DUP2 PUSH2 0x5F7E JUMP JUMPDEST SWAP7 POP PUSH1 0x20 DUP9 ADD CALLDATALOAD PUSH2 0x54A7 DUP2 PUSH2 0x5F7E JUMP JUMPDEST SWAP6 POP PUSH1 0x40 DUP9 ADD CALLDATALOAD SWAP5 POP PUSH1 0x60 DUP9 ADD CALLDATALOAD SWAP4 POP PUSH1 0x80 DUP9 ADD CALLDATALOAD PUSH1 0xFF DUP2 AND DUP2 EQ PUSH2 0x54CA JUMPI DUP4 DUP5 REVERT JUMPDEST SWAP7 SWAP10 SWAP6 SWAP9 POP SWAP4 SWAP7 SWAP3 SWAP6 SWAP5 PUSH1 0xA0 DUP5 ADD CALLDATALOAD SWAP5 POP PUSH1 0xC0 SWAP1 SWAP4 ADD CALLDATALOAD SWAP3 SWAP2 POP POP JUMP JUMPDEST PUSH1 0x0 DUP1 PUSH1 0x40 DUP4 DUP6 SUB SLT ISZERO PUSH2 0x54F9 JUMPI DUP2 DUP3 REVERT JUMPDEST DUP3 CALLDATALOAD PUSH2 0x5504 DUP2 PUSH2 0x5F7E JUMP JUMPDEST SWAP5 PUSH1 0x20 SWAP4 SWAP1 SWAP4 ADD CALLDATALOAD SWAP4 POP POP POP JUMP JUMPDEST PUSH1 0x0 DUP1 PUSH1 0x0 PUSH1 0x60 DUP5 DUP7 SUB SLT ISZERO PUSH2 0x5526 JUMPI DUP1 DUP2 REVERT JUMPDEST DUP4 MLOAD PUSH1 0x1 PUSH1 0x1 PUSH1 0x40 SHL SUB DUP1 DUP3 GT ISZERO PUSH2 0x553C JUMPI DUP3 DUP4 REVERT JUMPDEST DUP2 DUP7 ADD SWAP2 POP DUP7 PUSH1 0x1F DUP4 ADD SLT PUSH2 0x554F JUMPI DUP3 DUP4 REVERT JUMPDEST DUP2 MLOAD PUSH2 0x555D PUSH2 0x51EA DUP3 PUSH2 0x5F55 JUMP JUMPDEST DUP1 DUP3 DUP3 MSTORE PUSH1 0x20 DUP1 DUP4 ADD SWAP3 POP DUP1 DUP7 ADD DUP12 DUP3 DUP4 DUP8 MUL DUP10 ADD ADD GT ISZERO PUSH2 0x557D JUMPI DUP8 DUP9 REVERT JUMPDEST DUP8 SWAP7 POP JUMPDEST DUP5 DUP8 LT ISZERO PUSH2 0x55A8 JUMPI DUP1 MLOAD PUSH2 0x5594 DUP2 PUSH2 0x5F7E JUMP JUMPDEST DUP5 MSTORE PUSH1 0x1 SWAP7 SWAP1 SWAP7 ADD SWAP6 SWAP3 DUP2 ADD SWAP3 DUP2 ADD PUSH2 0x5581 JUMP JUMPDEST POP DUP10 ADD MLOAD SWAP1 SWAP8 POP SWAP4 POP POP POP DUP1 DUP3 GT ISZERO PUSH2 0x55BF JUMPI DUP3 DUP4 REVERT JUMPDEST POP PUSH2 0x55CC DUP7 DUP3 DUP8 ADD PUSH2 0x523A JUMP JUMPDEST SWAP3 POP POP PUSH1 0x40 DUP5 ADD MLOAD SWAP1 POP SWAP3 POP SWAP3 POP SWAP3 JUMP JUMPDEST PUSH1 0x0 PUSH1 0x20 DUP1 DUP4 DUP6 SUB SLT ISZERO PUSH2 0x55EF JUMPI DUP2 DUP3 REVERT JUMPDEST DUP3 CALLDATALOAD PUSH1 0x1 PUSH1 0x1 PUSH1 0x40 SHL SUB DUP2 GT ISZERO PUSH2 0x5604 JUMPI DUP3 DUP4 REVERT JUMPDEST DUP4 ADD PUSH1 0x1F DUP2 ADD DUP6 SGT PUSH2 0x5614 JUMPI DUP3 DUP4 REVERT JUMPDEST DUP1 CALLDATALOAD PUSH2 0x5622 PUSH2 0x51EA DUP3 PUSH2 0x5F55 JUMP JUMPDEST DUP2 DUP2 MSTORE DUP4 DUP2 ADD SWAP1 DUP4 DUP6 ADD PUSH1 0x40 DUP1 DUP6 MUL DUP7 ADD DUP8 ADD DUP11 LT ISZERO PUSH2 0x5640 JUMPI DUP8 DUP9 REVERT JUMPDEST DUP8 SWAP6 POP JUMPDEST DUP5 DUP7 LT ISZERO PUSH2 0x568D JUMPI DUP1 DUP3 DUP12 SUB SLT ISZERO PUSH2 0x565A JUMPI DUP8 DUP9 REVERT JUMPDEST PUSH2 0x5663 DUP2 PUSH2 0x5F2F JUMP JUMPDEST PUSH2 0x566D DUP12 DUP5 PUSH2 0x530F JUMP JUMPDEST DUP2 MSTORE DUP3 DUP9 ADD CALLDATALOAD DUP9 DUP3 ADD MSTORE DUP5 MSTORE PUSH1 0x1 SWAP6 SWAP1 SWAP6 ADD SWAP5 SWAP3 DUP7 ADD SWAP3 SWAP1 DUP2 ADD SWAP1 PUSH2 0x5644 JUMP JUMPDEST POP SWAP1 SWAP9 SWAP8 POP POP POP POP POP POP POP POP JUMP JUMPDEST PUSH1 0x0 PUSH1 0x20 DUP1 DUP4 DUP6 SUB SLT ISZERO PUSH2 0x56AD JUMPI DUP2 DUP3 REVERT JUMPDEST DUP3 CALLDATALOAD PUSH1 0x1 PUSH1 0x1 PUSH1 0x40 SHL SUB DUP2 GT ISZERO PUSH2 0x56C2 JUMPI DUP3 DUP4 REVERT JUMPDEST DUP4 ADD PUSH1 0x1F DUP2 ADD DUP6 SGT PUSH2 0x56D2 JUMPI DUP3 DUP4 REVERT JUMPDEST DUP1 CALLDATALOAD PUSH2 0x56E0 PUSH2 0x51EA DUP3 PUSH2 0x5F55 JUMP JUMPDEST DUP2 DUP2 MSTORE DUP4 DUP2 ADD SWAP1 DUP4 DUP6 ADD PUSH1 0x60 DUP1 DUP6 MUL DUP7 ADD DUP8 ADD DUP11 LT ISZERO PUSH2 0x56FE JUMPI DUP8 DUP9 REVERT JUMPDEST DUP8 SWAP6 POP JUMPDEST DUP5 DUP7 LT ISZERO PUSH2 0x568D JUMPI DUP1 DUP3 DUP12 SUB SLT ISZERO PUSH2 0x5718 JUMPI DUP8 DUP9 REVERT JUMPDEST PUSH2 0x5721 DUP2 PUSH2 0x5F2F JUMP JUMPDEST PUSH2 0x572B DUP12 DUP5 PUSH2 0x530F JUMP JUMPDEST DUP2 MSTORE DUP3 DUP9 ADD CALLDATALOAD DUP9 DUP3 ADD MSTORE PUSH1 0x40 DUP1 DUP5 ADD CALLDATALOAD SWAP1 DUP3 ADD MSTORE DUP5 MSTORE PUSH1 0x1 SWAP6 SWAP1 SWAP6 ADD SWAP5 SWAP3 DUP7 ADD SWAP3 SWAP1 DUP2 ADD SWAP1 PUSH2 0x5702 JUMP JUMPDEST PUSH1 0x0 PUSH1 0x20 DUP3 DUP5 SUB SLT ISZERO PUSH2 0x5766 JUMPI DUP1 DUP2 REVERT JUMPDEST DUP2 CALLDATALOAD PUSH2 0xA0D DUP2 PUSH2 0x5F93 JUMP JUMPDEST PUSH1 0x0 PUSH1 0x20 DUP3 DUP5 SUB SLT ISZERO PUSH2 0x5782 JUMPI DUP1 DUP2 REVERT JUMPDEST DUP2 MLOAD PUSH2 0xA0D DUP2 PUSH2 0x5F93 JUMP JUMPDEST PUSH1 0x0 DUP1 PUSH1 0x0 DUP1 PUSH1 0x0 DUP1 PUSH1 0x0 PUSH1 0xE0 DUP9 DUP11 SUB SLT ISZERO PUSH2 0x57A7 JUMPI DUP1 DUP2 REVERT JUMPDEST DUP8 CALLDATALOAD SWAP7 POP PUSH1 0x20 DUP9 ADD CALLDATALOAD PUSH2 0x57B9 DUP2 PUSH2 0x5F7E JUMP JUMPDEST SWAP6 POP PUSH1 0x40 DUP9 ADD CALLDATALOAD PUSH2 0x57C9 DUP2 PUSH2 0x5F7E JUMP JUMPDEST SWAP5 POP PUSH1 0x60 DUP9 ADD CALLDATALOAD PUSH1 0x1 PUSH1 0x1 PUSH1 0x40 SHL SUB DUP1 DUP3 GT ISZERO PUSH2 0x57E4 JUMPI DUP3 DUP4 REVERT JUMPDEST PUSH2 0x57F0 DUP12 DUP4 DUP13 ADD PUSH2 0x51CC JUMP JUMPDEST SWAP6 POP PUSH1 0x80 DUP11 ADD CALLDATALOAD SWAP5 POP PUSH1 0xA0 DUP11 ADD CALLDATALOAD SWAP4 POP PUSH1 0xC0 DUP11 ADD CALLDATALOAD SWAP2 POP DUP1 DUP3 GT ISZERO PUSH2 0x5813 JUMPI DUP3 DUP4 REVERT JUMPDEST POP PUSH2 0x5820 DUP11 DUP3 DUP12 ADD PUSH2 0x5298 JUMP JUMPDEST SWAP2 POP POP SWAP3 SWAP6 SWAP9 SWAP2 SWAP5 SWAP8 POP SWAP3 SWAP6 POP JUMP JUMPDEST PUSH1 0x0 PUSH1 0x20 DUP3 DUP5 SUB SLT ISZERO PUSH2 0x5840 JUMPI DUP1 DUP2 REVERT JUMPDEST DUP2 CALLDATALOAD PUSH1 0x1 PUSH1 0x1 PUSH1 0xE0 SHL SUB NOT DUP2 AND DUP2 EQ PUSH2 0xA0D JUMPI DUP2 DUP3 REVERT JUMPDEST PUSH1 0x0 PUSH1 0x20 DUP3 DUP5 SUB SLT ISZERO PUSH2 0x5868 JUMPI DUP1 DUP2 REVERT JUMPDEST DUP2 MLOAD PUSH2 0xA0D DUP2 PUSH2 0x5F7E JUMP JUMPDEST PUSH1 0x0 DUP1 PUSH1 0x40 DUP4 DUP6 SUB SLT ISZERO PUSH2 0x5885 JUMPI DUP2 DUP3 REVERT JUMPDEST DUP3 CALLDATALOAD PUSH2 0x5890 DUP2 PUSH2 0x5F7E JUMP JUMPDEST SWAP2 POP PUSH1 0x20 DUP4 ADD CALLDATALOAD PUSH1 0x1 PUSH1 0x1 PUSH1 0x40 SHL SUB DUP2 GT ISZERO PUSH2 0x58AA JUMPI DUP2 DUP3 REVERT JUMPDEST PUSH2 0x58B6 DUP6 DUP3 DUP7 ADD PUSH2 0x5298 JUMP JUMPDEST SWAP2 POP POP SWAP3 POP SWAP3 SWAP1 POP JUMP JUMPDEST PUSH1 0x0 PUSH1 0x20 DUP3 DUP5 SUB SLT ISZERO PUSH2 0x58D1 JUMPI DUP1 DUP2 REVERT JUMPDEST DUP2 MLOAD PUSH2 0xA0D DUP2 PUSH2 0x5FA1 JUMP JUMPDEST PUSH1 0x0 DUP1 PUSH1 0x0 PUSH1 0x60 DUP5 DUP7 SUB SLT ISZERO PUSH2 0x58F0 JUMPI DUP1 DUP2 REVERT JUMPDEST DUP4 MLOAD PUSH2 0x58FB DUP2 PUSH2 0x5FA1 JUMP JUMPDEST PUSH1 0x20 DUP6 ADD MLOAD SWAP1 SWAP4 POP PUSH1 0x1 PUSH1 0x1 PUSH1 0x40 SHL SUB DUP2 GT ISZERO PUSH2 0x5916 JUMPI DUP2 DUP3 REVERT JUMPDEST PUSH2 0x55CC DUP7 DUP3 DUP8 ADD PUSH2 0x523A JUMP JUMPDEST PUSH1 0x0 DUP1 PUSH1 0x40 DUP4 DUP6 SUB SLT ISZERO PUSH2 0x5934 JUMPI DUP2 DUP3 REVERT JUMPDEST DUP3 MLOAD PUSH2 0x593F DUP2 PUSH2 0x5FA1 JUMP JUMPDEST PUSH1 0x20 SWAP4 SWAP1 SWAP4 ADD MLOAD SWAP3 SWAP5 SWAP3 SWAP4 POP POP POP JUMP JUMPDEST PUSH1 0x0 DUP1 PUSH1 0x0 PUSH1 0x60 DUP5 DUP7 SUB SLT ISZERO PUSH2 0x5963 JUMPI DUP1 DUP2 REVERT JUMPDEST DUP4 MLOAD PUSH2 0x596E DUP2 PUSH2 0x5FA1 JUMP JUMPDEST PUSH1 0x20 DUP6 ADD MLOAD PUSH1 0x40 SWAP1 SWAP6 ADD MLOAD SWAP1 SWAP7 SWAP5 SWAP6 POP SWAP4 SWAP3 POP POP POP JUMP JUMPDEST PUSH1 0x0 DUP1 PUSH1 0x40 DUP4 DUP6 SUB SLT ISZERO PUSH2 0x5997 JUMPI DUP2 DUP3 REVERT JUMPDEST DUP3 MLOAD PUSH2 0x59A2 DUP2 PUSH2 0x5FA1 JUMP JUMPDEST PUSH1 0x20 DUP5 ADD MLOAD SWAP1 SWAP3 POP PUSH1 0x1 PUSH1 0x1 PUSH1 0x40 SHL SUB DUP2 GT ISZERO PUSH2 0x59BD JUMPI DUP2 DUP3 REVERT JUMPDEST PUSH2 0x58B6 DUP6 DUP3 DUP7 ADD PUSH2 0x523A JUMP JUMPDEST PUSH1 0x0 PUSH1 0x20 DUP3 DUP5 SUB SLT ISZERO PUSH2 0x59DA JUMPI DUP1 DUP2 REVERT JUMPDEST DUP2 CALLDATALOAD PUSH2 0xA0D DUP2 PUSH2 0x5FA1 JUMP JUMPDEST PUSH1 0x0 PUSH1 0x20 DUP3 DUP5 SUB SLT ISZERO PUSH2 0x59F6 JUMPI DUP1 DUP2 REVERT JUMPDEST POP MLOAD SWAP2 SWAP1 POP JUMP JUMPDEST PUSH1 0x0 DUP1 PUSH1 0x0 DUP1 PUSH1 0x80 DUP6 DUP8 SUB SLT ISZERO PUSH2 0x5A12 JUMPI DUP2 DUP3 REVERT JUMPDEST DUP5 CALLDATALOAD PUSH1 0x1 PUSH1 0x1 PUSH1 0x40 SHL SUB DUP1 DUP3 GT ISZERO PUSH2 0x5A28 JUMPI DUP4 DUP5 REVERT JUMPDEST PUSH2 0x5A34 DUP9 DUP4 DUP10 ADD PUSH2 0x531A JUMP JUMPDEST SWAP6 POP PUSH1 0x20 DUP8 ADD CALLDATALOAD SWAP2 POP DUP1 DUP3 GT ISZERO PUSH2 0x5A49 JUMPI DUP4 DUP5 REVERT JUMPDEST POP PUSH2 0x5A56 DUP8 DUP3 DUP9 ADD PUSH2 0x51CC JUMP JUMPDEST SWAP5 SWAP8 SWAP5 SWAP7 POP POP POP POP PUSH1 0x40 DUP4 ADD CALLDATALOAD SWAP3 PUSH1 0x60 ADD CALLDATALOAD SWAP2 SWAP1 POP JUMP JUMPDEST PUSH1 0x0 DUP1 PUSH1 0x0 PUSH1 0x60 DUP5 DUP7 SUB SLT ISZERO PUSH2 0x5A81 JUMPI DUP1 DUP2 REVERT JUMPDEST DUP4 CALLDATALOAD PUSH1 0x1 PUSH1 0x1 PUSH1 0x40 SHL SUB DUP2 GT ISZERO PUSH2 0x5A96 JUMPI DUP2 DUP3 REVERT JUMPDEST PUSH2 0x5AA2 DUP7 DUP3 DUP8 ADD PUSH2 0x531A JUMP JUMPDEST SWAP7 PUSH1 0x20 DUP7 ADD CALLDATALOAD SWAP7 POP PUSH1 0x40 SWAP1 SWAP6 ADD CALLDATALOAD SWAP5 SWAP4 POP POP POP POP JUMP JUMPDEST PUSH1 0x0 PUSH1 0x20 DUP3 DUP5 SUB SLT ISZERO PUSH2 0x5AC9 JUMPI DUP1 DUP2 REVERT JUMPDEST POP CALLDATALOAD SWAP2 SWAP1 POP JUMP JUMPDEST PUSH1 0x0 DUP1 PUSH1 0x40 DUP4 DUP6 SUB SLT ISZERO PUSH2 0x5AE2 JUMPI DUP2 DUP3 REVERT JUMPDEST POP POP DUP1 CALLDATALOAD SWAP3 PUSH1 0x20 SWAP1 SWAP2 ADD CALLDATALOAD SWAP2 POP JUMP JUMPDEST PUSH1 0x0 DUP1 PUSH1 0x0 DUP1 PUSH1 0x80 DUP6 DUP8 SUB SLT ISZERO PUSH2 0x5B06 JUMPI DUP2 DUP3 REVERT JUMPDEST DUP5 MLOAD SWAP4 POP PUSH1 0x20 DUP6 ADD MLOAD SWAP3 POP PUSH1 0x40 DUP6 ADD MLOAD SWAP2 POP PUSH1 0x60 DUP6 ADD MLOAD PUSH2 0x5B26 DUP2 PUSH2 0x5F7E JUMP JUMPDEST SWAP4 SWAP7 SWAP3 SWAP6 POP SWAP1 SWAP4 POP POP JUMP JUMPDEST PUSH1 0x0 DUP2 MLOAD DUP1 DUP5 MSTORE PUSH1 0x20 DUP1 DUP6 ADD SWAP5 POP DUP1 DUP5 ADD DUP4 JUMPDEST DUP4 DUP2 LT ISZERO PUSH2 0x5B60 JUMPI DUP2 MLOAD DUP8 MSTORE SWAP6 DUP3 ADD SWAP6 SWAP1 DUP3 ADD SWAP1 PUSH1 0x1 ADD PUSH2 0x5B44 JUMP JUMPDEST POP SWAP5 SWAP6 SWAP5 POP POP POP POP POP JUMP JUMPDEST PUSH1 0x0 DUP2 MLOAD DUP1 DUP5 MSTORE DUP2 JUMPDEST DUP2 DUP2 LT ISZERO PUSH2 0x5B90 JUMPI PUSH1 0x20 DUP2 DUP6 ADD DUP2 ADD MLOAD DUP7 DUP4 ADD DUP3 ADD MSTORE ADD PUSH2 0x5B74 JUMP JUMPDEST DUP2 DUP2 GT ISZERO PUSH2 0x5BA1 JUMPI DUP3 PUSH1 0x20 DUP4 DUP8 ADD ADD MSTORE JUMPDEST POP PUSH1 0x1F ADD PUSH1 0x1F NOT AND SWAP3 SWAP1 SWAP3 ADD PUSH1 0x20 ADD SWAP3 SWAP2 POP POP JUMP JUMPDEST SWAP2 DUP3 MSTORE PUSH1 0x1 PUSH1 0x1 PUSH1 0xE0 SHL SUB NOT AND PUSH1 0x20 DUP3 ADD MSTORE PUSH1 0x24 ADD SWAP1 JUMP JUMPDEST PUSH1 0x0 DUP3 DUP5 DUP4 CALLDATACOPY SWAP2 ADD SWAP1 DUP2 MSTORE SWAP2 SWAP1 POP JUMP JUMPDEST PUSH2 0x1901 PUSH1 0xF0 SHL DUP2 MSTORE PUSH1 0x2 DUP2 ADD SWAP3 SWAP1 SWAP3 MSTORE PUSH1 0x22 DUP3 ADD MSTORE PUSH1 0x42 ADD SWAP1 JUMP JUMPDEST PUSH1 0x1 PUSH1 0x1 PUSH1 0xA0 SHL SUB SWAP2 SWAP1 SWAP2 AND DUP2 MSTORE PUSH1 0x20 ADD SWAP1 JUMP JUMPDEST PUSH1 0x20 DUP1 DUP3 MSTORE DUP3 MLOAD DUP3 DUP3 ADD DUP2 SWAP1 MSTORE PUSH1 0x0 SWAP2 SWAP1 DUP5 DUP3 ADD SWAP1 PUSH1 0x40 DUP6 ADD SWAP1 DUP5 JUMPDEST DUP2 DUP2 LT ISZERO PUSH2 0x5C4E JUMPI DUP4 MLOAD PUSH1 0x1 PUSH1 0x1 PUSH1 0xA0 SHL SUB AND DUP4 MSTORE SWAP3 DUP5 ADD SWAP3 SWAP2 DUP5 ADD SWAP2 PUSH1 0x1 ADD PUSH2 0x5C29 JUMP JUMPDEST POP SWAP1 SWAP7 SWAP6 POP POP POP POP POP POP JUMP JUMPDEST PUSH1 0x20 DUP1 DUP3 MSTORE DUP3 MLOAD DUP3 DUP3 ADD DUP2 SWAP1 MSTORE PUSH1 0x0 SWAP2 SWAP1 DUP5 DUP3 ADD SWAP1 PUSH1 0x40 DUP6 ADD SWAP1 DUP5 JUMPDEST DUP2 DUP2 LT ISZERO PUSH2 0x5C4E JUMPI DUP4 MLOAD DUP4 MSTORE SWAP3 DUP5 ADD SWAP3 SWAP2 DUP5 ADD SWAP2 PUSH1 0x1 ADD PUSH2 0x5C76 JUMP JUMPDEST PUSH1 0x0 PUSH1 0x20 DUP3 MSTORE PUSH2 0xA0D PUSH1 0x20 DUP4 ADD DUP5 PUSH2 0x5B31 JUMP JUMPDEST PUSH1 0x0 PUSH1 0x40 DUP3 MSTORE PUSH2 0x5CB8 PUSH1 0x40 DUP4 ADD DUP6 PUSH2 0x5B31 JUMP JUMPDEST DUP3 DUP2 SUB PUSH1 0x20 DUP5 ADD MSTORE PUSH2 0xFDD DUP2 DUP6 PUSH2 0x5B31 JUMP JUMPDEST SWAP1 ISZERO ISZERO DUP2 MSTORE PUSH1 0x20 ADD SWAP1 JUMP JUMPDEST SWAP3 ISZERO ISZERO DUP4 MSTORE PUSH1 0x20 DUP4 ADD SWAP2 SWAP1 SWAP2 MSTORE PUSH1 0x40 DUP3 ADD MSTORE PUSH1 0x60 ADD SWAP1 JUMP JUMPDEST SWAP1 DUP2 MSTORE PUSH1 0x20 ADD SWAP1 JUMP JUMPDEST SWAP3 DUP4 MSTORE PUSH1 0x1 PUSH1 0x1 PUSH1 0xA0 SHL SUB SWAP2 DUP3 AND PUSH1 0x20 DUP5 ADD MSTORE AND PUSH1 0x40 DUP3 ADD MSTORE PUSH1 0x60 ADD SWAP1 JUMP JUMPDEST SWAP6 DUP7 MSTORE PUSH1 0x1 PUSH1 0x1 PUSH1 0xA0 SHL SUB SWAP5 DUP6 AND PUSH1 0x20 DUP8 ADD MSTORE SWAP3 SWAP1 SWAP4 AND PUSH1 0x40 DUP6 ADD MSTORE PUSH1 0x60 DUP5 ADD MSTORE PUSH1 0x80 DUP4 ADD SWAP2 SWAP1 SWAP2 MSTORE PUSH1 0xA0 DUP3 ADD MSTORE PUSH1 0xC0 ADD SWAP1 JUMP JUMPDEST SWAP5 DUP6 MSTORE PUSH1 0x20 DUP6 ADD SWAP4 SWAP1 SWAP4 MSTORE PUSH1 0x40 DUP5 ADD SWAP2 SWAP1 SWAP2 MSTORE PUSH1 0x60 DUP4 ADD MSTORE PUSH1 0x1 PUSH1 0x1 PUSH1 0xA0 SHL SUB AND PUSH1 0x80 DUP3 ADD MSTORE PUSH1 0xA0 ADD SWAP1 JUMP JUMPDEST PUSH1 0x0 DUP4 DUP3 MSTORE PUSH1 0x40 PUSH1 0x20 DUP4 ADD MSTORE PUSH2 0x1510 PUSH1 0x40 DUP4 ADD DUP5 PUSH2 0x5B6B JUMP JUMPDEST SWAP2 DUP3 MSTORE PUSH1 0x1 PUSH1 0x1 PUSH1 0xA0 SHL SUB AND PUSH1 0x20 DUP3 ADD MSTORE PUSH1 0x40 ADD SWAP1 JUMP JUMPDEST SWAP4 DUP5 MSTORE PUSH1 0xFF SWAP3 SWAP1 SWAP3 AND PUSH1 0x20 DUP5 ADD MSTORE PUSH1 0x40 DUP4 ADD MSTORE PUSH1 0x60 DUP3 ADD MSTORE PUSH1 0x80 ADD SWAP1 JUMP JUMPDEST SWAP7 DUP8 MSTORE PUSH1 0x20 DUP8 ADD SWAP6 SWAP1 SWAP6 MSTORE PUSH1 0x40 DUP7 ADD SWAP4 SWAP1 SWAP4 MSTORE PUSH1 0x60 DUP6 ADD SWAP2 SWAP1 SWAP2 MSTORE PUSH1 0x80 DUP5 ADD MSTORE PUSH1 0xA0 DUP4 ADD MSTORE PUSH1 0xC0 DUP3 ADD MSTORE PUSH1 0xE0 ADD SWAP1 JUMP JUMPDEST SWAP5 DUP6 MSTORE PUSH1 0x20 DUP6 ADD SWAP4 SWAP1 SWAP4 MSTORE PUSH1 0x40 DUP5 ADD SWAP2 SWAP1 SWAP2 MSTORE PUSH1 0x60 DUP4 ADD MSTORE ISZERO ISZERO PUSH1 0x80 DUP3 ADD MSTORE PUSH1 0xA0 ADD SWAP1 JUMP JUMPDEST DUP4 DUP2 MSTORE PUSH1 0x60 DUP2 ADD PUSH2 0x5E28 DUP5 PUSH2 0x5F74 JUMP JUMPDEST PUSH1 0x20 DUP3 ADD SWAP4 SWAP1 SWAP4 MSTORE PUSH1 0x40 ADD MSTORE SWAP2 SWAP1 POP JUMP JUMPDEST DUP5 DUP2 MSTORE PUSH1 0x80 DUP2 ADD PUSH2 0x5E49 DUP6 PUSH2 0x5F74 JUMP JUMPDEST DUP5 PUSH1 0x20 DUP4 ADD MSTORE DUP4 PUSH1 0x40 DUP4 ADD MSTORE DUP3 PUSH1 0x60 DUP4 ADD MSTORE SWAP6 SWAP5 POP POP POP POP POP JUMP JUMPDEST DUP4 DUP2 MSTORE DUP3 MLOAD PUSH1 0xA0 DUP3 ADD SWAP1 PUSH2 0x5E77 DUP2 PUSH2 0x5F74 JUMP JUMPDEST DUP1 PUSH1 0x20 DUP5 ADD MSTORE POP PUSH1 0x20 DUP5 ADD MLOAD PUSH1 0x40 DUP4 ADD MSTORE PUSH1 0x40 DUP5 ADD MLOAD PUSH1 0x60 DUP4 ADD MSTORE DUP3 PUSH1 0x80 DUP4 ADD MSTORE SWAP5 SWAP4 POP POP POP POP JUMP JUMPDEST PUSH1 0x0 PUSH1 0x20 DUP3 MSTORE PUSH2 0xA0D PUSH1 0x20 DUP4 ADD DUP5 PUSH2 0x5B6B JUMP JUMPDEST PUSH1 0x0 DUP4 DUP3 MSTORE PUSH1 0x40 PUSH1 0x20 DUP4 ADD MSTORE PUSH2 0x1510 PUSH1 0x40 DUP4 ADD DUP5 PUSH2 0x5B31 JUMP JUMPDEST SWAP3 DUP4 MSTORE SWAP1 ISZERO ISZERO PUSH1 0x20 DUP4 ADD MSTORE PUSH1 0x40 DUP3 ADD MSTORE PUSH1 0x60 ADD SWAP1 JUMP JUMPDEST SWAP2 DUP3 MSTORE PUSH1 0x20 DUP3 ADD MSTORE PUSH1 0x40 ADD SWAP1 JUMP JUMPDEST SWAP3 DUP4 MSTORE PUSH1 0x20 DUP4 ADD SWAP2 SWAP1 SWAP2 MSTORE PUSH1 0x40 DUP3 ADD MSTORE PUSH1 0x60 ADD SWAP1 JUMP JUMPDEST SWAP4 DUP5 MSTORE PUSH1 0x20 DUP5 ADD SWAP3 SWAP1 SWAP3 MSTORE PUSH1 0x40 DUP4 ADD MSTORE PUSH1 0x60 DUP3 ADD MSTORE PUSH1 0x80 ADD SWAP1 JUMP JUMPDEST PUSH1 0xFF SWAP2 SWAP1 SWAP2 AND DUP2 MSTORE PUSH1 0x20 ADD SWAP1 JUMP JUMPDEST PUSH1 0x40 MLOAD DUP2 DUP2 ADD PUSH1 0x1 PUSH1 0x1 PUSH1 0x40 SHL SUB DUP2 GT DUP3 DUP3 LT OR ISZERO PUSH2 0x5F4D JUMPI PUSH1 0x0 DUP1 REVERT JUMPDEST PUSH1 0x40 MSTORE SWAP2 SWAP1 POP JUMP JUMPDEST PUSH1 0x0 PUSH1 0x1 PUSH1 0x1 PUSH1 0x40 SHL SUB DUP3 GT ISZERO PUSH2 0x5F6A JUMPI DUP1 DUP2 REVERT JUMPDEST POP PUSH1 0x20 SWAP1 DUP2 MUL ADD SWAP1 JUMP JUMPDEST PUSH1 0x3 DUP2 LT PUSH2 0x75B JUMPI INVALID JUMPDEST PUSH1 0x1 PUSH1 0x1 PUSH1 0xA0 SHL SUB DUP2 AND DUP2 EQ PUSH2 0x75B JUMPI PUSH1 0x0 DUP1 REVERT JUMPDEST DUP1 ISZERO ISZERO DUP2 EQ PUSH2 0x75B JUMPI PUSH1 0x0 DUP1 REVERT JUMPDEST PUSH1 0x3 DUP2 LT PUSH2 0x75B JUMPI PUSH1 0x0 DUP1 REVERT INVALID LOG2 PUSH5 0x6970667358 0x22 SLT KECCAK256 SWAP14 0xE1 DUP6 MSIZE SELFBALANCE 0x4E 0xD0 DUP15 0xB8 0xE1 0xE8 0xDD 0xBE DUP6 0xE3 PUSH2 0x9878 PUSH26 0x11D788D9F40DB3BE35612863164736F6C63430007010033C1A2 0x24 0xB1 0x48 0x23 0xB6 EXTCODECOPY PUSH24 0x11127F125FBF592434682F38881EBB61408747A303AFFCCA PUSH13 0x2C5B6B44B5F3F0C08F0E28E5B6 0xDE 0xDA SHR 0xB3 DUP13 EXTCODEHASH 0xE1 GT RETURNDATACOPY DUP1 BALANCE 0xD9 0x26 0xC1 0xE8 0xC6 0xD0 "
		},
		"gasEstimates": {
			"creation": {
				"codeDepositCost": "4909600",
				"executionCost": "infinite",
				"totalCost": "infinite"
			},
			"external": {
				"DOMAIN_SEPARATOR()": "infinite",
				"allowance(address,address)": "infinite",
				"approve(address,uint256)": "22572",
				"balanceOf(address)": "1344",
				"decimals()": "1114",
				"decreaseAllowance(address,uint256)": "23570",
				"enableOracle()": "infinite",
				"getActionId(bytes4)": "infinite",
				"getAmplificationParameter()": "infinite",
				"getAuthorizer()": "infinite",
				"getLargestSafeQueryWindow()": "382",
				"getLastInvariant()": "1963",
				"getLatest(uint8)": "infinite",
				"getOracleMiscData()": "infinite",
				"getOwner()": "infinite",
				"getPastAccumulators((uint8,uint256)[])": "infinite",
				"getPausedState()": "infinite",
				"getPoolId()": "infinite",
				"getPriceRateCache(address)": "infinite",
				"getRate()": "infinite",
				"getRateProviders()": "infinite",
				"getSample(uint256)": "infinite",
				"getScalingFactors()": "infinite",
				"getSwapFeePercentage()": "1160",
				"getTimeWeightedAverage((uint8,uint256,uint256)[])": "infinite",
				"getTotalSamples()": "361",
				"getVault()": "infinite",
				"increaseAllowance(address,uint256)": "23716",
				"name()": "infinite",
				"nonces(address)": "1376",
				"onExitPool(bytes32,address,address,uint256[],uint256,uint256,bytes)": "infinite",
				"onJoinPool(bytes32,address,address,uint256[],uint256,uint256,bytes)": "infinite",
				"onSwap((uint8,address,address,uint256,bytes32,uint256,address,address,bytes),uint256,uint256)": "infinite",
				"onSwap((uint8,address,address,uint256,bytes32,uint256,address,address,bytes),uint256[],uint256,uint256)": "infinite",
				"permit(address,address,uint256,uint256,uint8,bytes32,bytes32)": "infinite",
				"queryExit(bytes32,address,address,uint256[],uint256,uint256,bytes)": "infinite",
				"queryJoin(bytes32,address,address,uint256[],uint256,uint256,bytes)": "infinite",
				"setAssetManagerPoolConfig(address,bytes)": "infinite",
				"setPaused(bool)": "infinite",
				"setPriceRateCacheDuration(address,uint256)": "infinite",
				"setSwapFeePercentage(uint256)": "infinite",
				"startAmplificationParameterUpdate(uint256,uint256)": "infinite",
				"stopAmplificationParameterUpdate()": "infinite",
				"symbol()": "infinite",
				"totalSupply()": "1163",
				"transfer(address,uint256)": "infinite",
				"transferFrom(address,address,uint256)": "infinite",
				"updatePriceRateCache(address)": "infinite"
			},
			"internal": {
				"_cacheInvariantAndSupply()": "infinite",
				"_cachePriceRate0IfNecessary()": "infinite",
				"_cachePriceRate1IfNecessary()": "infinite",
				"_cachePriceRatesIfNecessary()": "infinite",
				"_getNewPriceRateCache(contract IRateProvider,uint256)": "infinite",
				"_getOracleIndex()": "929",
				"_getPriceRateCache(bytes32)": "infinite",
				"_getPriceRateCache0()": "815",
				"_getPriceRateCache1()": "815",
				"_getPriceRateCacheDuration(bytes32)": "76",
				"_getPriceRateCacheTimestamps(bytes32)": "infinite",
				"_getPriceRateCacheValue(bytes32)": "76",
				"_getRateProvider0()": "infinite",
				"_getRateProvider1()": "infinite",
				"_isToken0WithRateProvider(contract IERC20)": "infinite",
				"_isToken1WithRateProvider(contract IERC20)": "infinite",
				"_onExitPool(bytes32,address,address,uint256[] memory,uint256,uint256,uint256[] memory,bytes memory)": "infinite",
				"_onJoinPool(bytes32,address,address,uint256[] memory,uint256,uint256,uint256[] memory,bytes memory)": "infinite",
				"_onSwapGivenIn(struct IPoolSwapStructs.SwapRequest memory,uint256[] memory,uint256,uint256)": "infinite",
				"_onSwapGivenOut(struct IPoolSwapStructs.SwapRequest memory,uint256[] memory,uint256,uint256)": "infinite",
				"_priceRate(contract IERC20)": "infinite",
				"_scalingFactor(contract IERC20)": "infinite",
				"_scalingFactors()": "infinite",
				"_setOracleEnabled(bool)": "infinite",
				"_setToken0PriceRateCache(bytes32,uint256)": "infinite",
				"_setToken1PriceRateCache(bytes32,uint256)": "infinite",
				"_updateOracle(uint256,uint256,uint256)": "infinite",
				"_updateToken0PriceRateCache()": "infinite",
				"_updateToken0PriceRateCache(uint256)": "infinite",
				"_updateToken1PriceRateCache()": "infinite",
				"_updateToken1PriceRateCache(uint256)": "infinite"
			}
		},
		"methodIdentifiers": {
			"DOMAIN_SEPARATOR()": "3644e515",
			"allowance(address,address)": "dd62ed3e",
			"approve(address,uint256)": "095ea7b3",
			"balanceOf(address)": "70a08231",
			"decimals()": "313ce567",
			"decreaseAllowance(address,uint256)": "a457c2d7",
			"enableOracle()": "292c914a",
			"getActionId(bytes4)": "851c1bb3",
			"getAmplificationParameter()": "6daccffa",
			"getAuthorizer()": "aaabadc5",
			"getLargestSafeQueryWindow()": "ffd088eb",
			"getLastInvariant()": "9b02cdde",
			"getLatest(uint8)": "b10be739",
			"getOracleMiscData()": "1ed4eddc",
			"getOwner()": "893d20e8",
			"getPastAccumulators((uint8,uint256)[])": "6b843239",
			"getPausedState()": "1c0de051",
			"getPoolId()": "38fff2d0",
			"getPriceRateCache(address)": "b867ee5a",
			"getRate()": "679aefce",
			"getRateProviders()": "238a2d59",
			"getSample(uint256)": "60d1507c",
			"getScalingFactors()": "1dd746ea",
			"getSwapFeePercentage()": "55c67628",
			"getTimeWeightedAverage((uint8,uint256,uint256)[])": "1dccd830",
			"getTotalSamples()": "b48b5b40",
			"getVault()": "8d928af8",
			"increaseAllowance(address,uint256)": "39509351",
			"name()": "06fdde03",
			"nonces(address)": "7ecebe00",
			"onExitPool(bytes32,address,address,uint256[],uint256,uint256,bytes)": "74f3b009",
			"onJoinPool(bytes32,address,address,uint256[],uint256,uint256,bytes)": "d5c096c4",
			"onSwap((uint8,address,address,uint256,bytes32,uint256,address,address,bytes),uint256,uint256)": "9d2c110c",
			"onSwap((uint8,address,address,uint256,bytes32,uint256,address,address,bytes),uint256[],uint256,uint256)": "01ec954a",
			"permit(address,address,uint256,uint256,uint8,bytes32,bytes32)": "d505accf",
			"queryExit(bytes32,address,address,uint256[],uint256,uint256,bytes)": "6028bfd4",
			"queryJoin(bytes32,address,address,uint256[],uint256,uint256,bytes)": "87ec6817",
			"setAssetManagerPoolConfig(address,bytes)": "50dd6ed9",
			"setPaused(bool)": "16c38b3c",
			"setPriceRateCacheDuration(address,uint256)": "b7710251",
			"setSwapFeePercentage(uint256)": "38e9922e",
			"startAmplificationParameterUpdate(uint256,uint256)": "2f1a0bc9",
			"stopAmplificationParameterUpdate()": "eb0f24d6",
			"symbol()": "95d89b41",
			"totalSupply()": "18160ddd",
			"transfer(address,uint256)": "a9059cbb",
			"transferFrom(address,address,uint256)": "23b872dd",
			"updatePriceRateCache(address)": "a0daaed0"
		}
	},
	"abi": [
		{
			"inputs": [
				{
					"components": [
						{
							"internalType": "contract IVault",
							"name": "vault",
							"type": "address"
						},
						{
							"internalType": "string",
							"name": "name",
							"type": "string"
						},
						{
							"internalType": "string",
							"name": "symbol",
							"type": "string"
						},
						{
							"internalType": "contract IERC20[]",
							"name": "tokens",
							"type": "address[]"
						},
						{
							"internalType": "contract IRateProvider[]",
							"name": "rateProviders",
							"type": "address[]"
						},
						{
							"internalType": "uint256[]",
							"name": "priceRateCacheDuration",
							"type": "uint256[]"
						},
						{
							"internalType": "uint256",
							"name": "amplificationParameter",
							"type": "uint256"
						},
						{
							"internalType": "uint256",
							"name": "swapFeePercentage",
							"type": "uint256"
						},
						{
							"internalType": "uint256",
							"name": "pauseWindowDuration",
							"type": "uint256"
						},
						{
							"internalType": "uint256",
							"name": "bufferPeriodDuration",
							"type": "uint256"
						},
						{
							"internalType": "bool",
							"name": "oracleEnabled",
							"type": "bool"
						},
						{
							"internalType": "address",
							"name": "owner",
							"type": "address"
						}
					],
					"internalType": "struct MetaStablePool.NewPoolParams",
					"name": "params",
					"type": "tuple"
				}
			],
			"stateMutability": "nonpayable",
			"type": "constructor"
		},
		{
			"anonymous": false,
			"inputs": [
				{
					"indexed": false,
					"internalType": "uint256",
					"name": "startValue",
					"type": "uint256"
				},
				{
					"indexed": false,
					"internalType": "uint256",
					"name": "endValue",
					"type": "uint256"
				},
				{
					"indexed": false,
					"internalType": "uint256",
					"name": "startTime",
					"type": "uint256"
				},
				{
					"indexed": false,
					"internalType": "uint256",
					"name": "endTime",
					"type": "uint256"
				}
			],
			"name": "AmpUpdateStarted",
			"type": "event"
		},
		{
			"anonymous": false,
			"inputs": [
				{
					"indexed": false,
					"internalType": "uint256",
					"name": "currentValue",
					"type": "uint256"
				}
			],
			"name": "AmpUpdateStopped",
			"type": "event"
		},
		{
			"anonymous": false,
			"inputs": [
				{
					"indexed": true,
					"internalType": "address",
					"name": "owner",
					"type": "address"
				},
				{
					"indexed": true,
					"internalType": "address",
					"name": "spender",
					"type": "address"
				},
				{
					"indexed": false,
					"internalType": "uint256",
					"name": "value",
					"type": "uint256"
				}
			],
			"name": "Approval",
			"type": "event"
		},
		{
			"anonymous": false,
			"inputs": [
				{
					"indexed": false,
					"internalType": "bool",
					"name": "enabled",
					"type": "bool"
				}
			],
			"name": "OracleEnabledChanged",
			"type": "event"
		},
		{
			"anonymous": false,
			"inputs": [
				{
					"indexed": false,
					"internalType": "bool",
					"name": "paused",
					"type": "bool"
				}
			],
			"name": "PausedStateChanged",
			"type": "event"
		},
		{
			"anonymous": false,
			"inputs": [
				{
					"indexed": true,
					"internalType": "contract IERC20",
					"name": "token",
					"type": "address"
				},
				{
					"indexed": false,
					"internalType": "uint256",
					"name": "rate",
					"type": "uint256"
				}
			],
			"name": "PriceRateCacheUpdated",
			"type": "event"
		},
		{
			"anonymous": false,
			"inputs": [
				{
					"indexed": true,
					"internalType": "contract IERC20",
					"name": "token",
					"type": "address"
				},
				{
					"indexed": true,
					"internalType": "contract IRateProvider",
					"name": "provider",
					"type": "address"
				},
				{
					"indexed": false,
					"internalType": "uint256",
					"name": "cacheDuration",
					"type": "uint256"
				}
			],
			"name": "PriceRateProviderSet",
			"type": "event"
		},
		{
			"anonymous": false,
			"inputs": [
				{
					"indexed": false,
					"internalType": "uint256",
					"name": "swapFeePercentage",
					"type": "uint256"
				}
			],
			"name": "SwapFeePercentageChanged",
			"type": "event"
		},
		{
			"anonymous": false,
			"inputs": [
				{
					"indexed": true,
					"internalType": "address",
					"name": "from",
					"type": "address"
				},
				{
					"indexed": true,
					"internalType": "address",
					"name": "to",
					"type": "address"
				},
				{
					"indexed": false,
					"internalType": "uint256",
					"name": "value",
					"type": "uint256"
				}
			],
			"name": "Transfer",
			"type": "event"
		},
		{
			"inputs": [],
			"name": "DOMAIN_SEPARATOR",
			"outputs": [
				{
					"internalType": "bytes32",
					"name": "",
					"type": "bytes32"
				}
			],
			"stateMutability": "view",
			"type": "function"
		},
		{
			"inputs": [
				{
					"internalType": "address",
					"name": "owner",
					"type": "address"
				},
				{
					"internalType": "address",
					"name": "spender",
					"type": "address"
				}
			],
			"name": "allowance",
			"outputs": [
				{
					"internalType": "uint256",
					"name": "",
					"type": "uint256"
				}
			],
			"stateMutability": "view",
			"type": "function"
		},
		{
			"inputs": [
				{
					"internalType": "address",
					"name": "spender",
					"type": "address"
				},
				{
					"internalType": "uint256",
					"name": "amount",
					"type": "uint256"
				}
			],
			"name": "approve",
			"outputs": [
				{
					"internalType": "bool",
					"name": "",
					"type": "bool"
				}
			],
			"stateMutability": "nonpayable",
			"type": "function"
		},
		{
			"inputs": [
				{
					"internalType": "address",
					"name": "account",
					"type": "address"
				}
			],
			"name": "balanceOf",
			"outputs": [
				{
					"internalType": "uint256",
					"name": "",
					"type": "uint256"
				}
			],
			"stateMutability": "view",
			"type": "function"
		},
		{
			"inputs": [],
			"name": "decimals",
			"outputs": [
				{
					"internalType": "uint8",
					"name": "",
					"type": "uint8"
				}
			],
			"stateMutability": "view",
			"type": "function"
		},
		{
			"inputs": [
				{
					"internalType": "address",
					"name": "spender",
					"type": "address"
				},
				{
					"internalType": "uint256",
					"name": "amount",
					"type": "uint256"
				}
			],
			"name": "decreaseAllowance",
			"outputs": [
				{
					"internalType": "bool",
					"name": "",
					"type": "bool"
				}
			],
			"stateMutability": "nonpayable",
			"type": "function"
		},
		{
			"inputs": [],
			"name": "enableOracle",
			"outputs": [],
			"stateMutability": "nonpayable",
			"type": "function"
		},
		{
			"inputs": [
				{
					"internalType": "bytes4",
					"name": "selector",
					"type": "bytes4"
				}
			],
			"name": "getActionId",
			"outputs": [
				{
					"internalType": "bytes32",
					"name": "",
					"type": "bytes32"
				}
			],
			"stateMutability": "view",
			"type": "function"
		},
		{
			"inputs": [],
			"name": "getAmplificationParameter",
			"outputs": [
				{
					"internalType": "uint256",
					"name": "value",
					"type": "uint256"
				},
				{
					"internalType": "bool",
					"name": "isUpdating",
					"type": "bool"
				},
				{
					"internalType": "uint256",
					"name": "precision",
					"type": "uint256"
				}
			],
			"stateMutability": "view",
			"type": "function"
		},
		{
			"inputs": [],
			"name": "getAuthorizer",
			"outputs": [
				{
					"internalType": "contract IAuthorizer",
					"name": "",
					"type": "address"
				}
			],
			"stateMutability": "view",
			"type": "function"
		},
		{
			"inputs": [],
			"name": "getLargestSafeQueryWindow",
			"outputs": [
				{
					"internalType": "uint256",
					"name": "",
					"type": "uint256"
				}
			],
			"stateMutability": "pure",
			"type": "function"
		},
		{
			"inputs": [],
			"name": "getLastInvariant",
			"outputs": [
				{
					"internalType": "uint256",
					"name": "lastInvariant",
					"type": "uint256"
				},
				{
					"internalType": "uint256",
					"name": "lastInvariantAmp",
					"type": "uint256"
				}
			],
			"stateMutability": "view",
			"type": "function"
		},
		{
			"inputs": [
				{
					"internalType": "enum IPriceOracle.Variable",
					"name": "variable",
					"type": "uint8"
				}
			],
			"name": "getLatest",
			"outputs": [
				{
					"internalType": "uint256",
					"name": "",
					"type": "uint256"
				}
			],
			"stateMutability": "view",
			"type": "function"
		},
		{
			"inputs": [],
			"name": "getOracleMiscData",
			"outputs": [
				{
					"internalType": "int256",
					"name": "logInvariant",
					"type": "int256"
				},
				{
					"internalType": "int256",
					"name": "logTotalSupply",
					"type": "int256"
				},
				{
					"internalType": "uint256",
					"name": "oracleSampleCreationTimestamp",
					"type": "uint256"
				},
				{
					"internalType": "uint256",
					"name": "oracleIndex",
					"type": "uint256"
				},
				{
					"internalType": "bool",
					"name": "oracleEnabled",
					"type": "bool"
				}
			],
			"stateMutability": "view",
			"type": "function"
		},
		{
			"inputs": [],
			"name": "getOwner",
			"outputs": [
				{
					"internalType": "address",
					"name": "",
					"type": "address"
				}
			],
			"stateMutability": "view",
			"type": "function"
		},
		{
			"inputs": [
				{
					"components": [
						{
							"internalType": "enum IPriceOracle.Variable",
							"name": "variable",
							"type": "uint8"
						},
						{
							"internalType": "uint256",
							"name": "ago",
							"type": "uint256"
						}
					],
					"internalType": "struct IPriceOracle.OracleAccumulatorQuery[]",
					"name": "queries",
					"type": "tuple[]"
				}
			],
			"name": "getPastAccumulators",
			"outputs": [
				{
					"internalType": "int256[]",
					"name": "results",
					"type": "int256[]"
				}
			],
			"stateMutability": "view",
			"type": "function"
		},
		{
			"inputs": [],
			"name": "getPausedState",
			"outputs": [
				{
					"internalType": "bool",
					"name": "paused",
					"type": "bool"
				},
				{
					"internalType": "uint256",
					"name": "pauseWindowEndTime",
					"type": "uint256"
				},
				{
					"internalType": "uint256",
					"name": "bufferPeriodEndTime",
					"type": "uint256"
				}
			],
			"stateMutability": "view",
			"type": "function"
		},
		{
			"inputs": [],
			"name": "getPoolId",
			"outputs": [
				{
					"internalType": "bytes32",
					"name": "",
					"type": "bytes32"
				}
			],
			"stateMutability": "view",
			"type": "function"
		},
		{
			"inputs": [
				{
					"internalType": "contract IERC20",
					"name": "token",
					"type": "address"
				}
			],
			"name": "getPriceRateCache",
			"outputs": [
				{
					"internalType": "uint256",
					"name": "rate",
					"type": "uint256"
				},
				{
					"internalType": "uint256",
					"name": "duration",
					"type": "uint256"
				},
				{
					"internalType": "uint256",
					"name": "expires",
					"type": "uint256"
				}
			],
			"stateMutability": "view",
			"type": "function"
		},
		{
			"inputs": [],
			"name": "getRate",
			"outputs": [
				{
					"internalType": "uint256",
					"name": "",
					"type": "uint256"
				}
			],
			"stateMutability": "view",
			"type": "function"
		},
		{
			"inputs": [],
			"name": "getRateProviders",
			"outputs": [
				{
					"internalType": "contract IRateProvider[]",
					"name": "providers",
					"type": "address[]"
				}
			],
			"stateMutability": "view",
			"type": "function"
		},
		{
			"inputs": [
				{
					"internalType": "uint256",
					"name": "index",
					"type": "uint256"
				}
			],
			"name": "getSample",
			"outputs": [
				{
					"internalType": "int256",
					"name": "logPairPrice",
					"type": "int256"
				},
				{
					"internalType": "int256",
					"name": "accLogPairPrice",
					"type": "int256"
				},
				{
					"internalType": "int256",
					"name": "logBptPrice",
					"type": "int256"
				},
				{
					"internalType": "int256",
					"name": "accLogBptPrice",
					"type": "int256"
				},
				{
					"internalType": "int256",
					"name": "logInvariant",
					"type": "int256"
				},
				{
					"internalType": "int256",
					"name": "accLogInvariant",
					"type": "int256"
				},
				{
					"internalType": "uint256",
					"name": "timestamp",
					"type": "uint256"
				}
			],
			"stateMutability": "view",
			"type": "function"
		},
		{
			"inputs": [],
			"name": "getScalingFactors",
			"outputs": [
				{
					"internalType": "uint256[]",
					"name": "",
					"type": "uint256[]"
				}
			],
			"stateMutability": "view",
			"type": "function"
		},
		{
			"inputs": [],
			"name": "getSwapFeePercentage",
			"outputs": [
				{
					"internalType": "uint256",
					"name": "",
					"type": "uint256"
				}
			],
			"stateMutability": "view",
			"type": "function"
		},
		{
			"inputs": [
				{
					"components": [
						{
							"internalType": "enum IPriceOracle.Variable",
							"name": "variable",
							"type": "uint8"
						},
						{
							"internalType": "uint256",
							"name": "secs",
							"type": "uint256"
						},
						{
							"internalType": "uint256",
							"name": "ago",
							"type": "uint256"
						}
					],
					"internalType": "struct IPriceOracle.OracleAverageQuery[]",
					"name": "queries",
					"type": "tuple[]"
				}
			],
			"name": "getTimeWeightedAverage",
			"outputs": [
				{
					"internalType": "uint256[]",
					"name": "results",
					"type": "uint256[]"
				}
			],
			"stateMutability": "view",
			"type": "function"
		},
		{
			"inputs": [],
			"name": "getTotalSamples",
			"outputs": [
				{
					"internalType": "uint256",
					"name": "",
					"type": "uint256"
				}
			],
			"stateMutability": "pure",
			"type": "function"
		},
		{
			"inputs": [],
			"name": "getVault",
			"outputs": [
				{
					"internalType": "contract IVault",
					"name": "",
					"type": "address"
				}
			],
			"stateMutability": "view",
			"type": "function"
		},
		{
			"inputs": [
				{
					"internalType": "address",
					"name": "spender",
					"type": "address"
				},
				{
					"internalType": "uint256",
					"name": "addedValue",
					"type": "uint256"
				}
			],
			"name": "increaseAllowance",
			"outputs": [
				{
					"internalType": "bool",
					"name": "",
					"type": "bool"
				}
			],
			"stateMutability": "nonpayable",
			"type": "function"
		},
		{
			"inputs": [],
			"name": "name",
			"outputs": [
				{
					"internalType": "string",
					"name": "",
					"type": "string"
				}
			],
			"stateMutability": "view",
			"type": "function"
		},
		{
			"inputs": [
				{
					"internalType": "address",
					"name": "owner",
					"type": "address"
				}
			],
			"name": "nonces",
			"outputs": [
				{
					"internalType": "uint256",
					"name": "",
					"type": "uint256"
				}
			],
			"stateMutability": "view",
			"type": "function"
		},
		{
			"inputs": [
				{
					"internalType": "bytes32",
					"name": "poolId",
					"type": "bytes32"
				},
				{
					"internalType": "address",
					"name": "sender",
					"type": "address"
				},
				{
					"internalType": "address",
					"name": "recipient",
					"type": "address"
				},
				{
					"internalType": "uint256[]",
					"name": "balances",
					"type": "uint256[]"
				},
				{
					"internalType": "uint256",
					"name": "lastChangeBlock",
					"type": "uint256"
				},
				{
					"internalType": "uint256",
					"name": "protocolSwapFeePercentage",
					"type": "uint256"
				},
				{
					"internalType": "bytes",
					"name": "userData",
					"type": "bytes"
				}
			],
			"name": "onExitPool",
			"outputs": [
				{
					"internalType": "uint256[]",
					"name": "amountsOut",
					"type": "uint256[]"
				},
				{
					"internalType": "uint256[]",
					"name": "dueProtocolFeeAmounts",
					"type": "uint256[]"
				}
			],
			"stateMutability": "nonpayable",
			"type": "function"
		},
		{
			"inputs": [
				{
					"internalType": "bytes32",
					"name": "poolId",
					"type": "bytes32"
				},
				{
					"internalType": "address",
					"name": "sender",
					"type": "address"
				},
				{
					"internalType": "address",
					"name": "recipient",
					"type": "address"
				},
				{
					"internalType": "uint256[]",
					"name": "balances",
					"type": "uint256[]"
				},
				{
					"internalType": "uint256",
					"name": "lastChangeBlock",
					"type": "uint256"
				},
				{
					"internalType": "uint256",
					"name": "protocolSwapFeePercentage",
					"type": "uint256"
				},
				{
					"internalType": "bytes",
					"name": "userData",
					"type": "bytes"
				}
			],
			"name": "onJoinPool",
			"outputs": [
				{
					"internalType": "uint256[]",
					"name": "amountsIn",
					"type": "uint256[]"
				},
				{
					"internalType": "uint256[]",
					"name": "dueProtocolFeeAmounts",
					"type": "uint256[]"
				}
			],
			"stateMutability": "nonpayable",
			"type": "function"
		},
		{
			"inputs": [
				{
					"components": [
						{
							"internalType": "enum IVault.SwapKind",
							"name": "kind",
							"type": "uint8"
						},
						{
							"internalType": "contract IERC20",
							"name": "tokenIn",
							"type": "address"
						},
						{
							"internalType": "contract IERC20",
							"name": "tokenOut",
							"type": "address"
						},
						{
							"internalType": "uint256",
							"name": "amount",
							"type": "uint256"
						},
						{
							"internalType": "bytes32",
							"name": "poolId",
							"type": "bytes32"
						},
						{
							"internalType": "uint256",
							"name": "lastChangeBlock",
							"type": "uint256"
						},
						{
							"internalType": "address",
							"name": "from",
							"type": "address"
						},
						{
							"internalType": "address",
							"name": "to",
							"type": "address"
						},
						{
							"internalType": "bytes",
							"name": "userData",
							"type": "bytes"
						}
					],
					"internalType": "struct IPoolSwapStructs.SwapRequest",
					"name": "request",
					"type": "tuple"
				},
				{
					"internalType": "uint256[]",
					"name": "balances",
					"type": "uint256[]"
				},
				{
					"internalType": "uint256",
					"name": "indexIn",
					"type": "uint256"
				},
				{
					"internalType": "uint256",
					"name": "indexOut",
					"type": "uint256"
				}
			],
			"name": "onSwap",
			"outputs": [
				{
					"internalType": "uint256",
					"name": "",
					"type": "uint256"
				}
			],
			"stateMutability": "nonpayable",
			"type": "function"
		},
		{
			"inputs": [
				{
					"components": [
						{
							"internalType": "enum IVault.SwapKind",
							"name": "kind",
							"type": "uint8"
						},
						{
							"internalType": "contract IERC20",
							"name": "tokenIn",
							"type": "address"
						},
						{
							"internalType": "contract IERC20",
							"name": "tokenOut",
							"type": "address"
						},
						{
							"internalType": "uint256",
							"name": "amount",
							"type": "uint256"
						},
						{
							"internalType": "bytes32",
							"name": "poolId",
							"type": "bytes32"
						},
						{
							"internalType": "uint256",
							"name": "lastChangeBlock",
							"type": "uint256"
						},
						{
							"internalType": "address",
							"name": "from",
							"type": "address"
						},
						{
							"internalType": "address",
							"name": "to",
							"type": "address"
						},
						{
							"internalType": "bytes",
							"name": "userData",
							"type": "bytes"
						}
					],
					"internalType": "struct IPoolSwapStructs.SwapRequest",
					"name": "request",
					"type": "tuple"
				},
				{
					"internalType": "uint256",
					"name": "balanceTokenIn",
					"type": "uint256"
				},
				{
					"internalType": "uint256",
					"name": "balanceTokenOut",
					"type": "uint256"
				}
			],
			"name": "onSwap",
			"outputs": [
				{
					"internalType": "uint256",
					"name": "",
					"type": "uint256"
				}
			],
			"stateMutability": "nonpayable",
			"type": "function"
		},
		{
			"inputs": [
				{
					"internalType": "address",
					"name": "owner",
					"type": "address"
				},
				{
					"internalType": "address",
					"name": "spender",
					"type": "address"
				},
				{
					"internalType": "uint256",
					"name": "value",
					"type": "uint256"
				},
				{
					"internalType": "uint256",
					"name": "deadline",
					"type": "uint256"
				},
				{
					"internalType": "uint8",
					"name": "v",
					"type": "uint8"
				},
				{
					"internalType": "bytes32",
					"name": "r",
					"type": "bytes32"
				},
				{
					"internalType": "bytes32",
					"name": "s",
					"type": "bytes32"
				}
			],
			"name": "permit",
			"outputs": [],
			"stateMutability": "nonpayable",
			"type": "function"
		},
		{
			"inputs": [
				{
					"internalType": "bytes32",
					"name": "poolId",
					"type": "bytes32"
				},
				{
					"internalType": "address",
					"name": "sender",
					"type": "address"
				},
				{
					"internalType": "address",
					"name": "recipient",
					"type": "address"
				},
				{
					"internalType": "uint256[]",
					"name": "balances",
					"type": "uint256[]"
				},
				{
					"internalType": "uint256",
					"name": "lastChangeBlock",
					"type": "uint256"
				},
				{
					"internalType": "uint256",
					"name": "protocolSwapFeePercentage",
					"type": "uint256"
				},
				{
					"internalType": "bytes",
					"name": "userData",
					"type": "bytes"
				}
			],
			"name": "queryExit",
			"outputs": [
				{
					"internalType": "uint256",
					"name": "bptIn",
					"type": "uint256"
				},
				{
					"internalType": "uint256[]",
					"name": "amountsOut",
					"type": "uint256[]"
				}
			],
			"stateMutability": "nonpayable",
			"type": "function"
		},
		{
			"inputs": [
				{
					"internalType": "bytes32",
					"name": "poolId",
					"type": "bytes32"
				},
				{
					"internalType": "address",
					"name": "sender",
					"type": "address"
				},
				{
					"internalType": "address",
					"name": "recipient",
					"type": "address"
				},
				{
					"internalType": "uint256[]",
					"name": "balances",
					"type": "uint256[]"
				},
				{
					"internalType": "uint256",
					"name": "lastChangeBlock",
					"type": "uint256"
				},
				{
					"internalType": "uint256",
					"name": "protocolSwapFeePercentage",
					"type": "uint256"
				},
				{
					"internalType": "bytes",
					"name": "userData",
					"type": "bytes"
				}
			],
			"name": "queryJoin",
			"outputs": [
				{
					"internalType": "uint256",
					"name": "bptOut",
					"type": "uint256"
				},
				{
					"internalType": "uint256[]",
					"name": "amountsIn",
					"type": "uint256[]"
				}
			],
			"stateMutability": "nonpayable",
			"type": "function"
		},
		{
			"inputs": [
				{
					"internalType": "contract IERC20",
					"name": "token",
					"type": "address"
				},
				{
					"internalType": "bytes",
					"name": "poolConfig",
					"type": "bytes"
				}
			],
			"name": "setAssetManagerPoolConfig",
			"outputs": [],
			"stateMutability": "nonpayable",
			"type": "function"
		},
		{
			"inputs": [
				{
					"internalType": "bool",
					"name": "paused",
					"type": "bool"
				}
			],
			"name": "setPaused",
			"outputs": [],
			"stateMutability": "nonpayable",
			"type": "function"
		},
		{
			"inputs": [
				{
					"internalType": "contract IERC20",
					"name": "token",
					"type": "address"
				},
				{
					"internalType": "uint256",
					"name": "duration",
					"type": "uint256"
				}
			],
			"name": "setPriceRateCacheDuration",
			"outputs": [],
			"stateMutability": "nonpayable",
			"type": "function"
		},
		{
			"inputs": [
				{
					"internalType": "uint256",
					"name": "swapFeePercentage",
					"type": "uint256"
				}
			],
			"name": "setSwapFeePercentage",
			"outputs": [],
			"stateMutability": "nonpayable",
			"type": "function"
		},
		{
			"inputs": [
				{
					"internalType": "uint256",
					"name": "rawEndValue",
					"type": "uint256"
				},
				{
					"internalType": "uint256",
					"name": "endTime",
					"type": "uint256"
				}
			],
			"name": "startAmplificationParameterUpdate",
			"outputs": [],
			"stateMutability": "nonpayable",
			"type": "function"
		},
		{
			"inputs": [],
			"name": "stopAmplificationParameterUpdate",
			"outputs": [],
			"stateMutability": "nonpayable",
			"type": "function"
		},
		{
			"inputs": [],
			"name": "symbol",
			"outputs": [
				{
					"internalType": "string",
					"name": "",
					"type": "string"
				}
			],
			"stateMutability": "view",
			"type": "function"
		},
		{
			"inputs": [],
			"name": "totalSupply",
			"outputs": [
				{
					"internalType": "uint256",
					"name": "",
					"type": "uint256"
				}
			],
			"stateMutability": "view",
			"type": "function"
		},
		{
			"inputs": [
				{
					"internalType": "address",
					"name": "recipient",
					"type": "address"
				},
				{
					"internalType": "uint256",
					"name": "amount",
					"type": "uint256"
				}
			],
			"name": "transfer",
			"outputs": [
				{
					"internalType": "bool",
					"name": "",
					"type": "bool"
				}
			],
			"stateMutability": "nonpayable",
			"type": "function"
		},
		{
			"inputs": [
				{
					"internalType": "address",
					"name": "sender",
					"type": "address"
				},
				{
					"internalType": "address",
					"name": "recipient",
					"type": "address"
				},
				{
					"internalType": "uint256",
					"name": "amount",
					"type": "uint256"
				}
			],
			"name": "transferFrom",
			"outputs": [
				{
					"internalType": "bool",
					"name": "",
					"type": "bool"
				}
			],
			"stateMutability": "nonpayable",
			"type": "function"
		},
		{
			"inputs": [
				{
					"internalType": "contract IERC20",
					"name": "token",
					"type": "address"
				}
			],
			"name": "updatePriceRateCache",
			"outputs": [],
			"stateMutability": "nonpayable",
			"type": "function"
		}
	]
}