{
	"data": {
		"bytecode": {
			"linkReferences": {},
			"object": "608060405234801561001057600080fd5b5061144d806100206000396000f3fe608060405234801561001057600080fd5b50600436106100935760003560e01c80639cd91d3f116100665780639cd91d3f14610107578063a89d42591461011a578063cf1b8c8c1461012d578063db7ad3f214610140578063fe2dd7ba1461015357610093565b80631c855fa61461009857806332fec905146100c1578063405de978146100e15780636fc82f29146100f4575b600080fd5b6100ab6100a63660046111dd565b610166565b6040516100b891906113ca565b60405180910390f35b6100d46100cf3660046112a5565b61017d565b6040516100b8919061140e565b6100d46100ef366004611362565b61018a565b6100d4610102366004611229565b6101a5565b6100d4610115366004611302565b6101c0565b6100d4610128366004611229565b6101cf565b6100d461013b366004611362565b6101de565b6100d461014e366004611302565b6101ee565b6100d4610161366004611302565b6101fd565b606061017384848461020c565b90505b9392505050565b60006101738484846102be565b600061019a87878787878761045a565b979650505050505050565b60006101b4868686868661058c565b90505b95945050505050565b60006101b48686868686610850565b60006101b486868686866108fe565b600061019a878787878787610b7a565b60006101b48686868686610c41565b60006101b48686868686610caf565b6060600061021a8484610d41565b90506060855167ffffffffffffffff8111801561023657600080fd5b50604051908082528060200260200182016040528015610260578160200160208202803683370190505b50905060005b86518110156102b4576102958388838151811061027f57fe5b6020026020010151610d9490919063ffffffff16565b8282815181106102a157fe5b6020908102919091010152600101610266565b5095945050505050565b81516000908190815b818110156102ff576102f58682815181106102de57fe5b602002602001015184610dca90919063ffffffff16565b92506001016102c7565b508161031057600092505050610176565b600082878302825b60ff811015610442576000858a60008151811061033157fe5b60200260200101510290506000600190505b868110156103855761037b61037461036e848e858151811061036157fe5b6020026020010151610ddc565b89610ddc565b868c610df6565b9150600101610343565b508394506103f86103c76103ae6103a561039f878c610ddc565b85610ddc565b6103e88d610df6565b6103c16103bb8a89610ddc565b88610ddc565b90610dca565b6103f26103e56103db6103e8880386610ddc565b6103e88e15610df6565b6103c18a60010189610ddc565b8b610df6565b9350848411156104205760018585031161041b5783975050505050505050610176565b610439565b6001848603116104395783975050505050505050610176565b50600101610318565b5061044e610142610e16565b50505050509392505050565b600080610469888860016102be565b9050600061048b826104858761047f818b610dca565b90610e69565b90610eb7565b9050600061049b8a8a848b610ef3565b905060006104c58a8a815181106104ae57fe5b6020026020010151836110a990919063ffffffff16565b90506000805b8b51811015610504576104fa8c82815181106104e357fe5b602002602001015183610dca90919063ffffffff16565b91506001016104cb565b50600061052d828d8d8151811061051757fe5b6020026020010151610d4190919063ffffffff16565b9050600061053a826110bf565b905060006105488583610eb7565b9050600061055686836110a9565b905061057761057083670de0b6b3a76400008e9003610e69565b8290610dca565b99505050505050505050509695505050505050565b600080805b86518110156105b3576105a98782815181106104e357fe5b9150600101610591565b506060855167ffffffffffffffff811180156105ce57600080fd5b506040519080825280602002602001820160405280156105f8578160200160208202803683370190505b5090506000805b88518110156106af57600061061a858b848151811061051757fe5b90506106728a838151811061062b57fe5b602002602001015161066c8b858151811061064257fe5b60200260200101518d868151811061065657fe5b6020026020010151610dca90919063ffffffff16565b90610d41565b84838151811061067e57fe5b6020026020010181815250506106a461069d8286858151811061027f57fe5b8490610dca565b9250506001016105ff565b506060885167ffffffffffffffff811180156106ca57600080fd5b506040519080825280602002602001820160405280156106f4578160200160208202803683370190505b50905060005b89518110156107de5760008385838151811061071257fe5b6020026020010151111561079757600061074361073786670de0b6b3a76400006110a9565b8d858151811061027f57fe5b9050600061076d828d868151811061075757fe5b60200260200101516110a990919063ffffffff16565b905061078e61078782670de0b6b3a76400008d9003610d94565b8390610dca565b925050506107ae565b8982815181106107a357fe5b602002602001015190505b6107be818c848151811061065657fe5b8383815181106107ca57fe5b6020908102919091010152506001016106fa565b5060006107ed8b8b60016102be565b905060006107fd8c8460006102be565b9050600061080b8284610d41565b9050670de0b6b3a7640000811115610840576108328a670de0b6b3a763ffff198301610d94565b9750505050505050506101b7565b60009750505050505050506101b7565b60008061085f878760016102be565b90506108718387868151811061075757fe5b86858151811061087d57fe5b602002602001018181525050600061089788888489610ef3565b9050838786815181106108a657fe5b6020026020010151018786815181106108bb57fe5b6020026020010181815250506108f260016103c18989815181106108db57fe5b6020026020010151846110a990919063ffffffff16565b98975050505050505050565b600080805b86518110156109255761091b8782815181106104e357fe5b9150600101610903565b506060855167ffffffffffffffff8111801561094057600080fd5b5060405190808252806020026020018201604052801561096a578160200160208202803683370190505b5090506000805b8851811015610a2a5760006109a2858b848151811061098c57fe5b6020026020010151610e6990919063ffffffff16565b90506109de8a83815181106109b357fe5b602002602001015161047f8b85815181106109ca57fe5b60200260200101518d868151811061075757fe5b8483815181106109ea57fe5b602002602001018181525050610a1f61069d82868581518110610a0957fe5b6020026020010151610eb790919063ffffffff16565b925050600101610971565b506060885167ffffffffffffffff81118015610a4557600080fd5b50604051908082528060200260200182016040528015610a6f578160200160208202803683370190505b50905060005b8951811015610b27576000848281518110610a8c57fe5b6020026020010151841115610ae0576000610aa9610737866110bf565b90506000610abd828d868151811061075757fe5b9050610ad761078782670de0b6b3a76400008d9003610e69565b92505050610af7565b898281518110610aec57fe5b602002602001015190505b610b07818c848151811061075757fe5b838381518110610b1357fe5b602090810291909101015250600101610a75565b506000610b368b8b60016102be565b90506000610b468c8460006102be565b90506000610b548284610d41565b9050610b69610b62826110bf565b8b90610eb7565b9d9c50505050505050505050505050565b600080610b89888860016102be565b90506000610b9f826104858761047f818b6110a9565b90506000610baf8a8a848b610ef3565b90506000610bc3828b8b8151811061075757fe5b90506000805b8b51811015610beb57610be18c82815181106104e357fe5b9150600101610bc9565b506000610bfe828d8d8151811061051757fe5b90506000610c0b826110bf565b90506000610c198583610eb7565b90506000610c2786836110a9565b905061057761057083670de0b6b3a76400008e9003610d94565b600080610c5087878787610ef3565b905080868581518110610c5f57fe5b602002602001015111610c765760009150506101b7565b600081878681518110610c8557fe5b60200260200101510390506108f2670de0b6b3a764000061066c8684610d9490919063ffffffff16565b600080610cbe878760016102be565b9050610cd08387878151811061065657fe5b868681518110610cdc57fe5b6020026020010181815250506000610cf688888488610ef3565b905083878781518110610d0557fe5b602002602001015103878781518110610d1a57fe5b6020026020010181815250506108f26001610d3b838a898151811061075757fe5b906110a9565b6000610d5082151560046110e5565b82610d5d57506000610d8e565b670de0b6b3a764000083810290610d8090858381610d7757fe5b041460056110e5565b828181610d8957fe5b049150505b92915050565b6000828202610db8841580610db1575083858381610dae57fe5b04145b60036110e5565b670de0b6b3a764000090049392505050565b600082820161017684821015836110e5565b6000828202610176841580610db1575083858381610dae57fe5b600081610e0c57610e0784846110f7565b610173565b6101738484611117565b62461bcd60e51b6000908152602060045260076024526642414c23000030600a808404818106603090810160081b95839006959095019082900491820690940160101b939093010160c81b604452606490fd5b6000610e7882151560046110e5565b82610e8557506000610d8e565b670de0b6b3a764000083810290610e9f90858381610d7757fe5b826001820381610eab57fe5b04600101915050610d8e565b6000828202610ed1841580610db1575083858381610dae57fe5b80610ee0576000915050610d8e565b670de0b6b3a76400006000198201610eab565b600080845186029050600085600081518110610f0b57fe5b602002602001015190506000865187600081518110610f2657fe5b60200260200101510290506000600190505b8751811015610f7f57610f64610f5e610f57848b858151811061036157fe5b8a51610ddc565b886110f7565b9150610f758882815181106102de57fe5b9250600101610f38565b50868581518110610f8c57fe5b6020026020010151820391506000610fa48788610ddc565b90506000610fd5610fc9610fc184610fbc8988610ddc565b611117565b6103e8610ddc565b8a898151811061036157fe5b90506000610ff0610fe9610fc18b896110f7565b8690610dca565b905060008061100c6110028686610dca565b610fbc8d86610dca565b905060005b60ff81101561108c5781925061104161102e866103c18586610ddc565b610fbc8e610d3b886103c1886002610ddc565b91508282111561106a57600183830311611065575097506110a19650505050505050565b611084565b600182840311611084575097506110a19650505050505050565b600101611011565b50611098610142610e16565b50505050505050505b949350505050565b60006110b98383111560016110e5565b50900390565b6000670de0b6b3a764000082106110d7576000610d8e565b50670de0b6b3a76400000390565b816110f3576110f381610e16565b5050565b600061110682151560046110e5565b81838161110f57fe5b049392505050565b600061112682151560046110e5565b8261113357506000610d8e565b81600184038161113f57fe5b046001019050610d8e565b600082601f83011261115a578081fd5b813567ffffffffffffffff80821115611171578283fd5b60208083026040518282820101818110858211171561118e578687fd5b6040528481529450818501925085820181870183018810156111af57600080fd5b600091505b848210156111d25780358452928201926001919091019082016111b4565b505050505092915050565b6000806000606084860312156111f1578283fd5b833567ffffffffffffffff811115611207578384fd5b6112138682870161114a565b9660208601359650604090950135949350505050565b600080600080600060a08688031215611240578081fd5b85359450602086013567ffffffffffffffff8082111561125e578283fd5b61126a89838a0161114a565b9550604088013591508082111561127f578283fd5b5061128c8882890161114a565b9598949750949560608101359550608001359392505050565b6000806000606084860312156112b9578283fd5b83359250602084013567ffffffffffffffff8111156112d6578283fd5b6112e28682870161114a565b925050604084013580151581146112f7578182fd5b809150509250925092565b600080600080600060a08688031215611319578081fd5b85359450602086013567ffffffffffffffff811115611336578182fd5b6113428882890161114a565b959895975050505060408401359360608101359360809091013592509050565b60008060008060008060c0878903121561137a578081fd5b86359550602087013567ffffffffffffffff811115611397578182fd5b6113a389828a0161114a565b96999698505050506040850135946060810135946080820135945060a09091013592509050565b6020808252825182820181905260009190848201906040850190845b81811015611402578351835292840192918401916001016113e6565b50909695505050505050565b9081526020019056fea26469706673582212203a4f5df770a2bad930ec04962d8217c86074b0b77e2e8c1800eac86c60110d5064736f6c63430007010033",
			"opcodes": "PUSH1 0x80 PUSH1 0x40 MSTORE CALLVALUE DUP1 ISZERO PUSH2 0x10 JUMPI PUSH1 0x0 DUP1 REVERT JUMPDEST POP PUSH2 0x144D DUP1 PUSH2 0x20 PUSH1 0x0 CODECOPY PUSH1 0x0 RETURN INVALID PUSH1 0x80 PUSH1 0x40 MSTORE CALLVALUE DUP1 ISZERO PUSH2 0x10 JUMPI PUSH1 0x0 DUP1 REVERT JUMPDEST POP PUSH1 0x4 CALLDATASIZE LT PUSH2 0x93 JUMPI PUSH1 0x0 CALLDATALOAD PUSH1 0xE0 SHR DUP1 PUSH4 0x9CD91D3F GT PUSH2 0x66 JUMPI DUP1 PUSH4 0x9CD91D3F EQ PUSH2 0x107 JUMPI DUP1 PUSH4 0xA89D4259 EQ PUSH2 0x11A JUMPI DUP1 PUSH4 0xCF1B8C8C EQ PUSH2 0x12D JUMPI DUP1 PUSH4 0xDB7AD3F2 EQ PUSH2 0x140 JUMPI DUP1 PUSH4 0xFE2DD7BA EQ PUSH2 0x153 JUMPI PUSH2 0x93 JUMP JUMPDEST DUP1 PUSH4 0x1C855FA6 EQ PUSH2 0x98 JUMPI DUP1 PUSH4 0x32FEC905 EQ PUSH2 0xC1 JUMPI DUP1 PUSH4 0x405DE978 EQ PUSH2 0xE1 JUMPI DUP1 PUSH4 0x6FC82F29 EQ PUSH2 0xF4 JUMPI JUMPDEST PUSH1 0x0 DUP1 REVERT JUMPDEST PUSH2 0xAB PUSH2 0xA6 CALLDATASIZE PUSH1 0x4 PUSH2 0x11DD JUMP JUMPDEST PUSH2 0x166 JUMP JUMPDEST PUSH1 0x40 MLOAD PUSH2 0xB8 SWAP2 SWAP1 PUSH2 0x13CA JUMP JUMPDEST PUSH1 0x40 MLOAD DUP1 SWAP2 SUB SWAP1 RETURN JUMPDEST PUSH2 0xD4 PUSH2 0xCF CALLDATASIZE PUSH1 0x4 PUSH2 0x12A5 JUMP JUMPDEST PUSH2 0x17D JUMP JUMPDEST PUSH1 0x40 MLOAD PUSH2 0xB8 SWAP2 SWAP1 PUSH2 0x140E JUMP JUMPDEST PUSH2 0xD4 PUSH2 0xEF CALLDATASIZE PUSH1 0x4 PUSH2 0x1362 JUMP JUMPDEST PUSH2 0x18A JUMP JUMPDEST PUSH2 0xD4 PUSH2 0x102 CALLDATASIZE PUSH1 0x4 PUSH2 0x1229 JUMP JUMPDEST PUSH2 0x1A5 JUMP JUMPDEST PUSH2 0xD4 PUSH2 0x115 CALLDATASIZE PUSH1 0x4 PUSH2 0x1302 JUMP JUMPDEST PUSH2 0x1C0 JUMP JUMPDEST PUSH2 0xD4 PUSH2 0x128 CALLDATASIZE PUSH1 0x4 PUSH2 0x1229 JUMP JUMPDEST PUSH2 0x1CF JUMP JUMPDEST PUSH2 0xD4 PUSH2 0x13B CALLDATASIZE PUSH1 0x4 PUSH2 0x1362 JUMP JUMPDEST PUSH2 0x1DE JUMP JUMPDEST PUSH2 0xD4 PUSH2 0x14E CALLDATASIZE PUSH1 0x4 PUSH2 0x1302 JUMP JUMPDEST PUSH2 0x1EE JUMP JUMPDEST PUSH2 0xD4 PUSH2 0x161 CALLDATASIZE PUSH1 0x4 PUSH2 0x1302 JUMP JUMPDEST PUSH2 0x1FD JUMP JUMPDEST PUSH1 0x60 PUSH2 0x173 DUP5 DUP5 DUP5 PUSH2 0x20C JUMP JUMPDEST SWAP1 POP JUMPDEST SWAP4 SWAP3 POP POP POP JUMP JUMPDEST PUSH1 0x0 PUSH2 0x173 DUP5 DUP5 DUP5 PUSH2 0x2BE JUMP JUMPDEST PUSH1 0x0 PUSH2 0x19A DUP8 DUP8 DUP8 DUP8 DUP8 DUP8 PUSH2 0x45A JUMP JUMPDEST SWAP8 SWAP7 POP POP POP POP POP POP POP JUMP JUMPDEST PUSH1 0x0 PUSH2 0x1B4 DUP7 DUP7 DUP7 DUP7 DUP7 PUSH2 0x58C JUMP JUMPDEST SWAP1 POP JUMPDEST SWAP6 SWAP5 POP POP POP POP POP JUMP JUMPDEST PUSH1 0x0 PUSH2 0x1B4 DUP7 DUP7 DUP7 DUP7 DUP7 PUSH2 0x850 JUMP JUMPDEST PUSH1 0x0 PUSH2 0x1B4 DUP7 DUP7 DUP7 DUP7 DUP7 PUSH2 0x8FE JUMP JUMPDEST PUSH1 0x0 PUSH2 0x19A DUP8 DUP8 DUP8 DUP8 DUP8 DUP8 PUSH2 0xB7A JUMP JUMPDEST PUSH1 0x0 PUSH2 0x1B4 DUP7 DUP7 DUP7 DUP7 DUP7 PUSH2 0xC41 JUMP JUMPDEST PUSH1 0x0 PUSH2 0x1B4 DUP7 DUP7 DUP7 DUP7 DUP7 PUSH2 0xCAF JUMP JUMPDEST PUSH1 0x60 PUSH1 0x0 PUSH2 0x21A DUP5 DUP5 PUSH2 0xD41 JUMP JUMPDEST SWAP1 POP PUSH1 0x60 DUP6 MLOAD PUSH8 0xFFFFFFFFFFFFFFFF DUP2 GT DUP1 ISZERO PUSH2 0x236 JUMPI PUSH1 0x0 DUP1 REVERT JUMPDEST POP PUSH1 0x40 MLOAD SWAP1 DUP1 DUP3 MSTORE DUP1 PUSH1 0x20 MUL PUSH1 0x20 ADD DUP3 ADD PUSH1 0x40 MSTORE DUP1 ISZERO PUSH2 0x260 JUMPI DUP2 PUSH1 0x20 ADD PUSH1 0x20 DUP3 MUL DUP1 CALLDATASIZE DUP4 CALLDATACOPY ADD SWAP1 POP JUMPDEST POP SWAP1 POP PUSH1 0x0 JUMPDEST DUP7 MLOAD DUP2 LT ISZERO PUSH2 0x2B4 JUMPI PUSH2 0x295 DUP4 DUP9 DUP4 DUP2 MLOAD DUP2 LT PUSH2 0x27F JUMPI INVALID JUMPDEST PUSH1 0x20 MUL PUSH1 0x20 ADD ADD MLOAD PUSH2 0xD94 SWAP1 SWAP2 SWAP1 PUSH4 0xFFFFFFFF AND JUMP JUMPDEST DUP3 DUP3 DUP2 MLOAD DUP2 LT PUSH2 0x2A1 JUMPI INVALID JUMPDEST PUSH1 0x20 SWAP1 DUP2 MUL SWAP2 SWAP1 SWAP2 ADD ADD MSTORE PUSH1 0x1 ADD PUSH2 0x266 JUMP JUMPDEST POP SWAP6 SWAP5 POP POP POP POP POP JUMP JUMPDEST DUP2 MLOAD PUSH1 0x0 SWAP1 DUP2 SWAP1 DUP2 JUMPDEST DUP2 DUP2 LT ISZERO PUSH2 0x2FF JUMPI PUSH2 0x2F5 DUP7 DUP3 DUP2 MLOAD DUP2 LT PUSH2 0x2DE JUMPI INVALID JUMPDEST PUSH1 0x20 MUL PUSH1 0x20 ADD ADD MLOAD DUP5 PUSH2 0xDCA SWAP1 SWAP2 SWAP1 PUSH4 0xFFFFFFFF AND JUMP JUMPDEST SWAP3 POP PUSH1 0x1 ADD PUSH2 0x2C7 JUMP JUMPDEST POP DUP2 PUSH2 0x310 JUMPI PUSH1 0x0 SWAP3 POP POP POP PUSH2 0x176 JUMP JUMPDEST PUSH1 0x0 DUP3 DUP8 DUP4 MUL DUP3 JUMPDEST PUSH1 0xFF DUP2 LT ISZERO PUSH2 0x442 JUMPI PUSH1 0x0 DUP6 DUP11 PUSH1 0x0 DUP2 MLOAD DUP2 LT PUSH2 0x331 JUMPI INVALID JUMPDEST PUSH1 0x20 MUL PUSH1 0x20 ADD ADD MLOAD MUL SWAP1 POP PUSH1 0x0 PUSH1 0x1 SWAP1 POP JUMPDEST DUP7 DUP2 LT ISZERO PUSH2 0x385 JUMPI PUSH2 0x37B PUSH2 0x374 PUSH2 0x36E DUP5 DUP15 DUP6 DUP2 MLOAD DUP2 LT PUSH2 0x361 JUMPI INVALID JUMPDEST PUSH1 0x20 MUL PUSH1 0x20 ADD ADD MLOAD PUSH2 0xDDC JUMP JUMPDEST DUP10 PUSH2 0xDDC JUMP JUMPDEST DUP7 DUP13 PUSH2 0xDF6 JUMP JUMPDEST SWAP2 POP PUSH1 0x1 ADD PUSH2 0x343 JUMP JUMPDEST POP DUP4 SWAP5 POP PUSH2 0x3F8 PUSH2 0x3C7 PUSH2 0x3AE PUSH2 0x3A5 PUSH2 0x39F DUP8 DUP13 PUSH2 0xDDC JUMP JUMPDEST DUP6 PUSH2 0xDDC JUMP JUMPDEST PUSH2 0x3E8 DUP14 PUSH2 0xDF6 JUMP JUMPDEST PUSH2 0x3C1 PUSH2 0x3BB DUP11 DUP10 PUSH2 0xDDC JUMP JUMPDEST DUP9 PUSH2 0xDDC JUMP JUMPDEST SWAP1 PUSH2 0xDCA JUMP JUMPDEST PUSH2 0x3F2 PUSH2 0x3E5 PUSH2 0x3DB PUSH2 0x3E8 DUP9 SUB DUP7 PUSH2 0xDDC JUMP JUMPDEST PUSH2 0x3E8 DUP15 ISZERO PUSH2 0xDF6 JUMP JUMPDEST PUSH2 0x3C1 DUP11 PUSH1 0x1 ADD DUP10 PUSH2 0xDDC JUMP JUMPDEST DUP12 PUSH2 0xDF6 JUMP JUMPDEST SWAP4 POP DUP5 DUP5 GT ISZERO PUSH2 0x420 JUMPI PUSH1 0x1 DUP6 DUP6 SUB GT PUSH2 0x41B JUMPI DUP4 SWAP8 POP POP POP POP POP POP POP POP PUSH2 0x176 JUMP JUMPDEST PUSH2 0x439 JUMP JUMPDEST PUSH1 0x1 DUP5 DUP7 SUB GT PUSH2 0x439 JUMPI DUP4 SWAP8 POP POP POP POP POP POP POP POP PUSH2 0x176 JUMP JUMPDEST POP PUSH1 0x1 ADD PUSH2 0x318 JUMP JUMPDEST POP PUSH2 0x44E PUSH2 0x142 PUSH2 0xE16 JUMP JUMPDEST POP POP POP POP POP SWAP4 SWAP3 POP POP POP JUMP JUMPDEST PUSH1 0x0 DUP1 PUSH2 0x469 DUP9 DUP9 PUSH1 0x1 PUSH2 0x2BE JUMP JUMPDEST SWAP1 POP PUSH1 0x0 PUSH2 0x48B DUP3 PUSH2 0x485 DUP8 PUSH2 0x47F DUP2 DUP12 PUSH2 0xDCA JUMP JUMPDEST SWAP1 PUSH2 0xE69 JUMP JUMPDEST SWAP1 PUSH2 0xEB7 JUMP JUMPDEST SWAP1 POP PUSH1 0x0 PUSH2 0x49B DUP11 DUP11 DUP5 DUP12 PUSH2 0xEF3 JUMP JUMPDEST SWAP1 POP PUSH1 0x0 PUSH2 0x4C5 DUP11 DUP11 DUP2 MLOAD DUP2 LT PUSH2 0x4AE JUMPI INVALID JUMPDEST PUSH1 0x20 MUL PUSH1 0x20 ADD ADD MLOAD DUP4 PUSH2 0x10A9 SWAP1 SWAP2 SWAP1 PUSH4 0xFFFFFFFF AND JUMP JUMPDEST SWAP1 POP PUSH1 0x0 DUP1 JUMPDEST DUP12 MLOAD DUP2 LT ISZERO PUSH2 0x504 JUMPI PUSH2 0x4FA DUP13 DUP3 DUP2 MLOAD DUP2 LT PUSH2 0x4E3 JUMPI INVALID JUMPDEST PUSH1 0x20 MUL PUSH1 0x20 ADD ADD MLOAD DUP4 PUSH2 0xDCA SWAP1 SWAP2 SWAP1 PUSH4 0xFFFFFFFF AND JUMP JUMPDEST SWAP2 POP PUSH1 0x1 ADD PUSH2 0x4CB JUMP JUMPDEST POP PUSH1 0x0 PUSH2 0x52D DUP3 DUP14 DUP14 DUP2 MLOAD DUP2 LT PUSH2 0x517 JUMPI INVALID JUMPDEST PUSH1 0x20 MUL PUSH1 0x20 ADD ADD MLOAD PUSH2 0xD41 SWAP1 SWAP2 SWAP1 PUSH4 0xFFFFFFFF AND JUMP JUMPDEST SWAP1 POP PUSH1 0x0 PUSH2 0x53A DUP3 PUSH2 0x10BF JUMP JUMPDEST SWAP1 POP PUSH1 0x0 PUSH2 0x548 DUP6 DUP4 PUSH2 0xEB7 JUMP JUMPDEST SWAP1 POP PUSH1 0x0 PUSH2 0x556 DUP7 DUP4 PUSH2 0x10A9 JUMP JUMPDEST SWAP1 POP PUSH2 0x577 PUSH2 0x570 DUP4 PUSH8 0xDE0B6B3A7640000 DUP15 SWAP1 SUB PUSH2 0xE69 JUMP JUMPDEST DUP3 SWAP1 PUSH2 0xDCA JUMP JUMPDEST SWAP10 POP POP POP POP POP POP POP POP POP POP SWAP7 SWAP6 POP POP POP POP POP POP JUMP JUMPDEST PUSH1 0x0 DUP1 DUP1 JUMPDEST DUP7 MLOAD DUP2 LT ISZERO PUSH2 0x5B3 JUMPI PUSH2 0x5A9 DUP8 DUP3 DUP2 MLOAD DUP2 LT PUSH2 0x4E3 JUMPI INVALID JUMPDEST SWAP2 POP PUSH1 0x1 ADD PUSH2 0x591 JUMP JUMPDEST POP PUSH1 0x60 DUP6 MLOAD PUSH8 0xFFFFFFFFFFFFFFFF DUP2 GT DUP1 ISZERO PUSH2 0x5CE JUMPI PUSH1 0x0 DUP1 REVERT JUMPDEST POP PUSH1 0x40 MLOAD SWAP1 DUP1 DUP3 MSTORE DUP1 PUSH1 0x20 MUL PUSH1 0x20 ADD DUP3 ADD PUSH1 0x40 MSTORE DUP1 ISZERO PUSH2 0x5F8 JUMPI DUP2 PUSH1 0x20 ADD PUSH1 0x20 DUP3 MUL DUP1 CALLDATASIZE DUP4 CALLDATACOPY ADD SWAP1 POP JUMPDEST POP SWAP1 POP PUSH1 0x0 DUP1 JUMPDEST DUP9 MLOAD DUP2 LT ISZERO PUSH2 0x6AF JUMPI PUSH1 0x0 PUSH2 0x61A DUP6 DUP12 DUP5 DUP2 MLOAD DUP2 LT PUSH2 0x517 JUMPI INVALID JUMPDEST SWAP1 POP PUSH2 0x672 DUP11 DUP4 DUP2 MLOAD DUP2 LT PUSH2 0x62B JUMPI INVALID JUMPDEST PUSH1 0x20 MUL PUSH1 0x20 ADD ADD MLOAD PUSH2 0x66C DUP12 DUP6 DUP2 MLOAD DUP2 LT PUSH2 0x642 JUMPI INVALID JUMPDEST PUSH1 0x20 MUL PUSH1 0x20 ADD ADD MLOAD DUP14 DUP7 DUP2 MLOAD DUP2 LT PUSH2 0x656 JUMPI INVALID JUMPDEST PUSH1 0x20 MUL PUSH1 0x20 ADD ADD MLOAD PUSH2 0xDCA SWAP1 SWAP2 SWAP1 PUSH4 0xFFFFFFFF AND JUMP JUMPDEST SWAP1 PUSH2 0xD41 JUMP JUMPDEST DUP5 DUP4 DUP2 MLOAD DUP2 LT PUSH2 0x67E JUMPI INVALID JUMPDEST PUSH1 0x20 MUL PUSH1 0x20 ADD ADD DUP2 DUP2 MSTORE POP POP PUSH2 0x6A4 PUSH2 0x69D DUP3 DUP7 DUP6 DUP2 MLOAD DUP2 LT PUSH2 0x27F JUMPI INVALID JUMPDEST DUP5 SWAP1 PUSH2 0xDCA JUMP JUMPDEST SWAP3 POP POP PUSH1 0x1 ADD PUSH2 0x5FF JUMP JUMPDEST POP PUSH1 0x60 DUP9 MLOAD PUSH8 0xFFFFFFFFFFFFFFFF DUP2 GT DUP1 ISZERO PUSH2 0x6CA JUMPI PUSH1 0x0 DUP1 REVERT JUMPDEST POP PUSH1 0x40 MLOAD SWAP1 DUP1 DUP3 MSTORE DUP1 PUSH1 0x20 MUL PUSH1 0x20 ADD DUP3 ADD PUSH1 0x40 MSTORE DUP1 ISZERO PUSH2 0x6F4 JUMPI DUP2 PUSH1 0x20 ADD PUSH1 0x20 DUP3 MUL DUP1 CALLDATASIZE DUP4 CALLDATACOPY ADD SWAP1 POP JUMPDEST POP SWAP1 POP PUSH1 0x0 JUMPDEST DUP10 MLOAD DUP2 LT ISZERO PUSH2 0x7DE JUMPI PUSH1 0x0 DUP4 DUP6 DUP4 DUP2 MLOAD DUP2 LT PUSH2 0x712 JUMPI INVALID JUMPDEST PUSH1 0x20 MUL PUSH1 0x20 ADD ADD MLOAD GT ISZERO PUSH2 0x797 JUMPI PUSH1 0x0 PUSH2 0x743 PUSH2 0x737 DUP7 PUSH8 0xDE0B6B3A7640000 PUSH2 0x10A9 JUMP JUMPDEST DUP14 DUP6 DUP2 MLOAD DUP2 LT PUSH2 0x27F JUMPI INVALID JUMPDEST SWAP1 POP PUSH1 0x0 PUSH2 0x76D DUP3 DUP14 DUP7 DUP2 MLOAD DUP2 LT PUSH2 0x757 JUMPI INVALID JUMPDEST PUSH1 0x20 MUL PUSH1 0x20 ADD ADD MLOAD PUSH2 0x10A9 SWAP1 SWAP2 SWAP1 PUSH4 0xFFFFFFFF AND JUMP JUMPDEST SWAP1 POP PUSH2 0x78E PUSH2 0x787 DUP3 PUSH8 0xDE0B6B3A7640000 DUP14 SWAP1 SUB PUSH2 0xD94 JUMP JUMPDEST DUP4 SWAP1 PUSH2 0xDCA JUMP JUMPDEST SWAP3 POP POP POP PUSH2 0x7AE JUMP JUMPDEST DUP10 DUP3 DUP2 MLOAD DUP2 LT PUSH2 0x7A3 JUMPI INVALID JUMPDEST PUSH1 0x20 MUL PUSH1 0x20 ADD ADD MLOAD SWAP1 POP JUMPDEST PUSH2 0x7BE DUP2 DUP13 DUP5 DUP2 MLOAD DUP2 LT PUSH2 0x656 JUMPI INVALID JUMPDEST DUP4 DUP4 DUP2 MLOAD DUP2 LT PUSH2 0x7CA JUMPI INVALID JUMPDEST PUSH1 0x20 SWAP1 DUP2 MUL SWAP2 SWAP1 SWAP2 ADD ADD MSTORE POP PUSH1 0x1 ADD PUSH2 0x6FA JUMP JUMPDEST POP PUSH1 0x0 PUSH2 0x7ED DUP12 DUP12 PUSH1 0x1 PUSH2 0x2BE JUMP JUMPDEST SWAP1 POP PUSH1 0x0 PUSH2 0x7FD DUP13 DUP5 PUSH1 0x0 PUSH2 0x2BE JUMP JUMPDEST SWAP1 POP PUSH1 0x0 PUSH2 0x80B DUP3 DUP5 PUSH2 0xD41 JUMP JUMPDEST SWAP1 POP PUSH8 0xDE0B6B3A7640000 DUP2 GT ISZERO PUSH2 0x840 JUMPI PUSH2 0x832 DUP11 PUSH8 0xDE0B6B3A763FFFF NOT DUP4 ADD PUSH2 0xD94 JUMP JUMPDEST SWAP8 POP POP POP POP POP POP POP POP PUSH2 0x1B7 JUMP JUMPDEST PUSH1 0x0 SWAP8 POP POP POP POP POP POP POP POP PUSH2 0x1B7 JUMP JUMPDEST PUSH1 0x0 DUP1 PUSH2 0x85F DUP8 DUP8 PUSH1 0x1 PUSH2 0x2BE JUMP JUMPDEST SWAP1 POP PUSH2 0x871 DUP4 DUP8 DUP7 DUP2 MLOAD DUP2 LT PUSH2 0x757 JUMPI INVALID JUMPDEST DUP7 DUP6 DUP2 MLOAD DUP2 LT PUSH2 0x87D JUMPI INVALID JUMPDEST PUSH1 0x20 MUL PUSH1 0x20 ADD ADD DUP2 DUP2 MSTORE POP POP PUSH1 0x0 PUSH2 0x897 DUP9 DUP9 DUP5 DUP10 PUSH2 0xEF3 JUMP JUMPDEST SWAP1 POP DUP4 DUP8 DUP7 DUP2 MLOAD DUP2 LT PUSH2 0x8A6 JUMPI INVALID JUMPDEST PUSH1 0x20 MUL PUSH1 0x20 ADD ADD MLOAD ADD DUP8 DUP7 DUP2 MLOAD DUP2 LT PUSH2 0x8BB JUMPI INVALID JUMPDEST PUSH1 0x20 MUL PUSH1 0x20 ADD ADD DUP2 DUP2 MSTORE POP POP PUSH2 0x8F2 PUSH1 0x1 PUSH2 0x3C1 DUP10 DUP10 DUP2 MLOAD DUP2 LT PUSH2 0x8DB JUMPI INVALID JUMPDEST PUSH1 0x20 MUL PUSH1 0x20 ADD ADD MLOAD DUP5 PUSH2 0x10A9 SWAP1 SWAP2 SWAP1 PUSH4 0xFFFFFFFF AND JUMP JUMPDEST SWAP9 SWAP8 POP POP POP POP POP POP POP POP JUMP JUMPDEST PUSH1 0x0 DUP1 DUP1 JUMPDEST DUP7 MLOAD DUP2 LT ISZERO PUSH2 0x925 JUMPI PUSH2 0x91B DUP8 DUP3 DUP2 MLOAD DUP2 LT PUSH2 0x4E3 JUMPI INVALID JUMPDEST SWAP2 POP PUSH1 0x1 ADD PUSH2 0x903 JUMP JUMPDEST POP PUSH1 0x60 DUP6 MLOAD PUSH8 0xFFFFFFFFFFFFFFFF DUP2 GT DUP1 ISZERO PUSH2 0x940 JUMPI PUSH1 0x0 DUP1 REVERT JUMPDEST POP PUSH1 0x40 MLOAD SWAP1 DUP1 DUP3 MSTORE DUP1 PUSH1 0x20 MUL PUSH1 0x20 ADD DUP3 ADD PUSH1 0x40 MSTORE DUP1 ISZERO PUSH2 0x96A JUMPI DUP2 PUSH1 0x20 ADD PUSH1 0x20 DUP3 MUL DUP1 CALLDATASIZE DUP4 CALLDATACOPY ADD SWAP1 POP JUMPDEST POP SWAP1 POP PUSH1 0x0 DUP1 JUMPDEST DUP9 MLOAD DUP2 LT ISZERO PUSH2 0xA2A JUMPI PUSH1 0x0 PUSH2 0x9A2 DUP6 DUP12 DUP5 DUP2 MLOAD DUP2 LT PUSH2 0x98C JUMPI INVALID JUMPDEST PUSH1 0x20 MUL PUSH1 0x20 ADD ADD MLOAD PUSH2 0xE69 SWAP1 SWAP2 SWAP1 PUSH4 0xFFFFFFFF AND JUMP JUMPDEST SWAP1 POP PUSH2 0x9DE DUP11 DUP4 DUP2 MLOAD DUP2 LT PUSH2 0x9B3 JUMPI INVALID JUMPDEST PUSH1 0x20 MUL PUSH1 0x20 ADD ADD MLOAD PUSH2 0x47F DUP12 DUP6 DUP2 MLOAD DUP2 LT PUSH2 0x9CA JUMPI INVALID JUMPDEST PUSH1 0x20 MUL PUSH1 0x20 ADD ADD MLOAD DUP14 DUP7 DUP2 MLOAD DUP2 LT PUSH2 0x757 JUMPI INVALID JUMPDEST DUP5 DUP4 DUP2 MLOAD DUP2 LT PUSH2 0x9EA JUMPI INVALID JUMPDEST PUSH1 0x20 MUL PUSH1 0x20 ADD ADD DUP2 DUP2 MSTORE POP POP PUSH2 0xA1F PUSH2 0x69D DUP3 DUP7 DUP6 DUP2 MLOAD DUP2 LT PUSH2 0xA09 JUMPI INVALID JUMPDEST PUSH1 0x20 MUL PUSH1 0x20 ADD ADD MLOAD PUSH2 0xEB7 SWAP1 SWAP2 SWAP1 PUSH4 0xFFFFFFFF AND JUMP JUMPDEST SWAP3 POP POP PUSH1 0x1 ADD PUSH2 0x971 JUMP JUMPDEST POP PUSH1 0x60 DUP9 MLOAD PUSH8 0xFFFFFFFFFFFFFFFF DUP2 GT DUP1 ISZERO PUSH2 0xA45 JUMPI PUSH1 0x0 DUP1 REVERT JUMPDEST POP PUSH1 0x40 MLOAD SWAP1 DUP1 DUP3 MSTORE DUP1 PUSH1 0x20 MUL PUSH1 0x20 ADD DUP3 ADD PUSH1 0x40 MSTORE DUP1 ISZERO PUSH2 0xA6F JUMPI DUP2 PUSH1 0x20 ADD PUSH1 0x20 DUP3 MUL DUP1 CALLDATASIZE DUP4 CALLDATACOPY ADD SWAP1 POP JUMPDEST POP SWAP1 POP PUSH1 0x0 JUMPDEST DUP10 MLOAD DUP2 LT ISZERO PUSH2 0xB27 JUMPI PUSH1 0x0 DUP5 DUP3 DUP2 MLOAD DUP2 LT PUSH2 0xA8C JUMPI INVALID JUMPDEST PUSH1 0x20 MUL PUSH1 0x20 ADD ADD MLOAD DUP5 GT ISZERO PUSH2 0xAE0 JUMPI PUSH1 0x0 PUSH2 0xAA9 PUSH2 0x737 DUP7 PUSH2 0x10BF JUMP JUMPDEST SWAP1 POP PUSH1 0x0 PUSH2 0xABD DUP3 DUP14 DUP7 DUP2 MLOAD DUP2 LT PUSH2 0x757 JUMPI INVALID JUMPDEST SWAP1 POP PUSH2 0xAD7 PUSH2 0x787 DUP3 PUSH8 0xDE0B6B3A7640000 DUP14 SWAP1 SUB PUSH2 0xE69 JUMP JUMPDEST SWAP3 POP POP POP PUSH2 0xAF7 JUMP JUMPDEST DUP10 DUP3 DUP2 MLOAD DUP2 LT PUSH2 0xAEC JUMPI INVALID JUMPDEST PUSH1 0x20 MUL PUSH1 0x20 ADD ADD MLOAD SWAP1 POP JUMPDEST PUSH2 0xB07 DUP2 DUP13 DUP5 DUP2 MLOAD DUP2 LT PUSH2 0x757 JUMPI INVALID JUMPDEST DUP4 DUP4 DUP2 MLOAD DUP2 LT PUSH2 0xB13 JUMPI INVALID JUMPDEST PUSH1 0x20 SWAP1 DUP2 MUL SWAP2 SWAP1 SWAP2 ADD ADD MSTORE POP PUSH1 0x1 ADD PUSH2 0xA75 JUMP JUMPDEST POP PUSH1 0x0 PUSH2 0xB36 DUP12 DUP12 PUSH1 0x1 PUSH2 0x2BE JUMP JUMPDEST SWAP1 POP PUSH1 0x0 PUSH2 0xB46 DUP13 DUP5 PUSH1 0x0 PUSH2 0x2BE JUMP JUMPDEST SWAP1 POP PUSH1 0x0 PUSH2 0xB54 DUP3 DUP5 PUSH2 0xD41 JUMP JUMPDEST SWAP1 POP PUSH2 0xB69 PUSH2 0xB62 DUP3 PUSH2 0x10BF JUMP JUMPDEST DUP12 SWAP1 PUSH2 0xEB7 JUMP JUMPDEST SWAP14 SWAP13 POP POP POP POP POP POP POP POP POP POP POP POP POP JUMP JUMPDEST PUSH1 0x0 DUP1 PUSH2 0xB89 DUP9 DUP9 PUSH1 0x1 PUSH2 0x2BE JUMP JUMPDEST SWAP1 POP PUSH1 0x0 PUSH2 0xB9F DUP3 PUSH2 0x485 DUP8 PUSH2 0x47F DUP2 DUP12 PUSH2 0x10A9 JUMP JUMPDEST SWAP1 POP PUSH1 0x0 PUSH2 0xBAF DUP11 DUP11 DUP5 DUP12 PUSH2 0xEF3 JUMP JUMPDEST SWAP1 POP PUSH1 0x0 PUSH2 0xBC3 DUP3 DUP12 DUP12 DUP2 MLOAD DUP2 LT PUSH2 0x757 JUMPI INVALID JUMPDEST SWAP1 POP PUSH1 0x0 DUP1 JUMPDEST DUP12 MLOAD DUP2 LT ISZERO PUSH2 0xBEB JUMPI PUSH2 0xBE1 DUP13 DUP3 DUP2 MLOAD DUP2 LT PUSH2 0x4E3 JUMPI INVALID JUMPDEST SWAP2 POP PUSH1 0x1 ADD PUSH2 0xBC9 JUMP JUMPDEST POP PUSH1 0x0 PUSH2 0xBFE DUP3 DUP14 DUP14 DUP2 MLOAD DUP2 LT PUSH2 0x517 JUMPI INVALID JUMPDEST SWAP1 POP PUSH1 0x0 PUSH2 0xC0B DUP3 PUSH2 0x10BF JUMP JUMPDEST SWAP1 POP PUSH1 0x0 PUSH2 0xC19 DUP6 DUP4 PUSH2 0xEB7 JUMP JUMPDEST SWAP1 POP PUSH1 0x0 PUSH2 0xC27 DUP7 DUP4 PUSH2 0x10A9 JUMP JUMPDEST SWAP1 POP PUSH2 0x577 PUSH2 0x570 DUP4 PUSH8 0xDE0B6B3A7640000 DUP15 SWAP1 SUB PUSH2 0xD94 JUMP JUMPDEST PUSH1 0x0 DUP1 PUSH2 0xC50 DUP8 DUP8 DUP8 DUP8 PUSH2 0xEF3 JUMP JUMPDEST SWAP1 POP DUP1 DUP7 DUP6 DUP2 MLOAD DUP2 LT PUSH2 0xC5F JUMPI INVALID JUMPDEST PUSH1 0x20 MUL PUSH1 0x20 ADD ADD MLOAD GT PUSH2 0xC76 JUMPI PUSH1 0x0 SWAP2 POP POP PUSH2 0x1B7 JUMP JUMPDEST PUSH1 0x0 DUP2 DUP8 DUP7 DUP2 MLOAD DUP2 LT PUSH2 0xC85 JUMPI INVALID JUMPDEST PUSH1 0x20 MUL PUSH1 0x20 ADD ADD MLOAD SUB SWAP1 POP PUSH2 0x8F2 PUSH8 0xDE0B6B3A7640000 PUSH2 0x66C DUP7 DUP5 PUSH2 0xD94 SWAP1 SWAP2 SWAP1 PUSH4 0xFFFFFFFF AND JUMP JUMPDEST PUSH1 0x0 DUP1 PUSH2 0xCBE DUP8 DUP8 PUSH1 0x1 PUSH2 0x2BE JUMP JUMPDEST SWAP1 POP PUSH2 0xCD0 DUP4 DUP8 DUP8 DUP2 MLOAD DUP2 LT PUSH2 0x656 JUMPI INVALID JUMPDEST DUP7 DUP7 DUP2 MLOAD DUP2 LT PUSH2 0xCDC JUMPI INVALID JUMPDEST PUSH1 0x20 MUL PUSH1 0x20 ADD ADD DUP2 DUP2 MSTORE POP POP PUSH1 0x0 PUSH2 0xCF6 DUP9 DUP9 DUP5 DUP9 PUSH2 0xEF3 JUMP JUMPDEST SWAP1 POP DUP4 DUP8 DUP8 DUP2 MLOAD DUP2 LT PUSH2 0xD05 JUMPI INVALID JUMPDEST PUSH1 0x20 MUL PUSH1 0x20 ADD ADD MLOAD SUB DUP8 DUP8 DUP2 MLOAD DUP2 LT PUSH2 0xD1A JUMPI INVALID JUMPDEST PUSH1 0x20 MUL PUSH1 0x20 ADD ADD DUP2 DUP2 MSTORE POP POP PUSH2 0x8F2 PUSH1 0x1 PUSH2 0xD3B DUP4 DUP11 DUP10 DUP2 MLOAD DUP2 LT PUSH2 0x757 JUMPI INVALID JUMPDEST SWAP1 PUSH2 0x10A9 JUMP JUMPDEST PUSH1 0x0 PUSH2 0xD50 DUP3 ISZERO ISZERO PUSH1 0x4 PUSH2 0x10E5 JUMP JUMPDEST DUP3 PUSH2 0xD5D JUMPI POP PUSH1 0x0 PUSH2 0xD8E JUMP JUMPDEST PUSH8 0xDE0B6B3A7640000 DUP4 DUP2 MUL SWAP1 PUSH2 0xD80 SWAP1 DUP6 DUP4 DUP2 PUSH2 0xD77 JUMPI INVALID JUMPDEST DIV EQ PUSH1 0x5 PUSH2 0x10E5 JUMP JUMPDEST DUP3 DUP2 DUP2 PUSH2 0xD89 JUMPI INVALID JUMPDEST DIV SWAP2 POP POP JUMPDEST SWAP3 SWAP2 POP POP JUMP JUMPDEST PUSH1 0x0 DUP3 DUP3 MUL PUSH2 0xDB8 DUP5 ISZERO DUP1 PUSH2 0xDB1 JUMPI POP DUP4 DUP6 DUP4 DUP2 PUSH2 0xDAE JUMPI INVALID JUMPDEST DIV EQ JUMPDEST PUSH1 0x3 PUSH2 0x10E5 JUMP JUMPDEST PUSH8 0xDE0B6B3A7640000 SWAP1 DIV SWAP4 SWAP3 POP POP POP JUMP JUMPDEST PUSH1 0x0 DUP3 DUP3 ADD PUSH2 0x176 DUP5 DUP3 LT ISZERO DUP4 PUSH2 0x10E5 JUMP JUMPDEST PUSH1 0x0 DUP3 DUP3 MUL PUSH2 0x176 DUP5 ISZERO DUP1 PUSH2 0xDB1 JUMPI POP DUP4 DUP6 DUP4 DUP2 PUSH2 0xDAE JUMPI INVALID JUMPDEST PUSH1 0x0 DUP2 PUSH2 0xE0C JUMPI PUSH2 0xE07 DUP5 DUP5 PUSH2 0x10F7 JUMP JUMPDEST PUSH2 0x173 JUMP JUMPDEST PUSH2 0x173 DUP5 DUP5 PUSH2 0x1117 JUMP JUMPDEST PUSH3 0x461BCD PUSH1 0xE5 SHL PUSH1 0x0 SWAP1 DUP2 MSTORE PUSH1 0x20 PUSH1 0x4 MSTORE PUSH1 0x7 PUSH1 0x24 MSTORE PUSH7 0x42414C23000030 PUSH1 0xA DUP1 DUP5 DIV DUP2 DUP2 MOD PUSH1 0x30 SWAP1 DUP2 ADD PUSH1 0x8 SHL SWAP6 DUP4 SWAP1 MOD SWAP6 SWAP1 SWAP6 ADD SWAP1 DUP3 SWAP1 DIV SWAP2 DUP3 MOD SWAP1 SWAP5 ADD PUSH1 0x10 SHL SWAP4 SWAP1 SWAP4 ADD ADD PUSH1 0xC8 SHL PUSH1 0x44 MSTORE PUSH1 0x64 SWAP1 REVERT JUMPDEST PUSH1 0x0 PUSH2 0xE78 DUP3 ISZERO ISZERO PUSH1 0x4 PUSH2 0x10E5 JUMP JUMPDEST DUP3 PUSH2 0xE85 JUMPI POP PUSH1 0x0 PUSH2 0xD8E JUMP JUMPDEST PUSH8 0xDE0B6B3A7640000 DUP4 DUP2 MUL SWAP1 PUSH2 0xE9F SWAP1 DUP6 DUP4 DUP2 PUSH2 0xD77 JUMPI INVALID JUMPDEST DUP3 PUSH1 0x1 DUP3 SUB DUP2 PUSH2 0xEAB JUMPI INVALID JUMPDEST DIV PUSH1 0x1 ADD SWAP2 POP POP PUSH2 0xD8E JUMP JUMPDEST PUSH1 0x0 DUP3 DUP3 MUL PUSH2 0xED1 DUP5 ISZERO DUP1 PUSH2 0xDB1 JUMPI POP DUP4 DUP6 DUP4 DUP2 PUSH2 0xDAE JUMPI INVALID JUMPDEST DUP1 PUSH2 0xEE0 JUMPI PUSH1 0x0 SWAP2 POP POP PUSH2 0xD8E JUMP JUMPDEST PUSH8 0xDE0B6B3A7640000 PUSH1 0x0 NOT DUP3 ADD PUSH2 0xEAB JUMP JUMPDEST PUSH1 0x0 DUP1 DUP5 MLOAD DUP7 MUL SWAP1 POP PUSH1 0x0 DUP6 PUSH1 0x0 DUP2 MLOAD DUP2 LT PUSH2 0xF0B JUMPI INVALID JUMPDEST PUSH1 0x20 MUL PUSH1 0x20 ADD ADD MLOAD SWAP1 POP PUSH1 0x0 DUP7 MLOAD DUP8 PUSH1 0x0 DUP2 MLOAD DUP2 LT PUSH2 0xF26 JUMPI INVALID JUMPDEST PUSH1 0x20 MUL PUSH1 0x20 ADD ADD MLOAD MUL SWAP1 POP PUSH1 0x0 PUSH1 0x1 SWAP1 POP JUMPDEST DUP8 MLOAD DUP2 LT ISZERO PUSH2 0xF7F JUMPI PUSH2 0xF64 PUSH2 0xF5E PUSH2 0xF57 DUP5 DUP12 DUP6 DUP2 MLOAD DUP2 LT PUSH2 0x361 JUMPI INVALID JUMPDEST DUP11 MLOAD PUSH2 0xDDC JUMP JUMPDEST DUP9 PUSH2 0x10F7 JUMP JUMPDEST SWAP2 POP PUSH2 0xF75 DUP9 DUP3 DUP2 MLOAD DUP2 LT PUSH2 0x2DE JUMPI INVALID JUMPDEST SWAP3 POP PUSH1 0x1 ADD PUSH2 0xF38 JUMP JUMPDEST POP DUP7 DUP6 DUP2 MLOAD DUP2 LT PUSH2 0xF8C JUMPI INVALID JUMPDEST PUSH1 0x20 MUL PUSH1 0x20 ADD ADD MLOAD DUP3 SUB SWAP2 POP PUSH1 0x0 PUSH2 0xFA4 DUP8 DUP9 PUSH2 0xDDC JUMP JUMPDEST SWAP1 POP PUSH1 0x0 PUSH2 0xFD5 PUSH2 0xFC9 PUSH2 0xFC1 DUP5 PUSH2 0xFBC DUP10 DUP9 PUSH2 0xDDC JUMP JUMPDEST PUSH2 0x1117 JUMP JUMPDEST PUSH2 0x3E8 PUSH2 0xDDC JUMP JUMPDEST DUP11 DUP10 DUP2 MLOAD DUP2 LT PUSH2 0x361 JUMPI INVALID JUMPDEST SWAP1 POP PUSH1 0x0 PUSH2 0xFF0 PUSH2 0xFE9 PUSH2 0xFC1 DUP12 DUP10 PUSH2 0x10F7 JUMP JUMPDEST DUP7 SWAP1 PUSH2 0xDCA JUMP JUMPDEST SWAP1 POP PUSH1 0x0 DUP1 PUSH2 0x100C PUSH2 0x1002 DUP7 DUP7 PUSH2 0xDCA JUMP JUMPDEST PUSH2 0xFBC DUP14 DUP7 PUSH2 0xDCA JUMP JUMPDEST SWAP1 POP PUSH1 0x0 JUMPDEST PUSH1 0xFF DUP2 LT ISZERO PUSH2 0x108C JUMPI DUP2 SWAP3 POP PUSH2 0x1041 PUSH2 0x102E DUP7 PUSH2 0x3C1 DUP6 DUP7 PUSH2 0xDDC JUMP JUMPDEST PUSH2 0xFBC DUP15 PUSH2 0xD3B DUP9 PUSH2 0x3C1 DUP9 PUSH1 0x2 PUSH2 0xDDC JUMP JUMPDEST SWAP2 POP DUP3 DUP3 GT ISZERO PUSH2 0x106A JUMPI PUSH1 0x1 DUP4 DUP4 SUB GT PUSH2 0x1065 JUMPI POP SWAP8 POP PUSH2 0x10A1 SWAP7 POP POP POP POP POP POP POP JUMP JUMPDEST PUSH2 0x1084 JUMP JUMPDEST PUSH1 0x1 DUP3 DUP5 SUB GT PUSH2 0x1084 JUMPI POP SWAP8 POP PUSH2 0x10A1 SWAP7 POP POP POP POP POP POP POP JUMP JUMPDEST PUSH1 0x1 ADD PUSH2 0x1011 JUMP JUMPDEST POP PUSH2 0x1098 PUSH2 0x142 PUSH2 0xE16 JUMP JUMPDEST POP POP POP POP POP POP POP POP JUMPDEST SWAP5 SWAP4 POP POP POP POP JUMP JUMPDEST PUSH1 0x0 PUSH2 0x10B9 DUP4 DUP4 GT ISZERO PUSH1 0x1 PUSH2 0x10E5 JUMP JUMPDEST POP SWAP1 SUB SWAP1 JUMP JUMPDEST PUSH1 0x0 PUSH8 0xDE0B6B3A7640000 DUP3 LT PUSH2 0x10D7 JUMPI PUSH1 0x0 PUSH2 0xD8E JUMP JUMPDEST POP PUSH8 0xDE0B6B3A7640000 SUB SWAP1 JUMP JUMPDEST DUP2 PUSH2 0x10F3 JUMPI PUSH2 0x10F3 DUP2 PUSH2 0xE16 JUMP JUMPDEST POP POP JUMP JUMPDEST PUSH1 0x0 PUSH2 0x1106 DUP3 ISZERO ISZERO PUSH1 0x4 PUSH2 0x10E5 JUMP JUMPDEST DUP2 DUP4 DUP2 PUSH2 0x110F JUMPI INVALID JUMPDEST DIV SWAP4 SWAP3 POP POP POP JUMP JUMPDEST PUSH1 0x0 PUSH2 0x1126 DUP3 ISZERO ISZERO PUSH1 0x4 PUSH2 0x10E5 JUMP JUMPDEST DUP3 PUSH2 0x1133 JUMPI POP PUSH1 0x0 PUSH2 0xD8E JUMP JUMPDEST DUP2 PUSH1 0x1 DUP5 SUB DUP2 PUSH2 0x113F JUMPI INVALID JUMPDEST DIV PUSH1 0x1 ADD SWAP1 POP PUSH2 0xD8E JUMP JUMPDEST PUSH1 0x0 DUP3 PUSH1 0x1F DUP4 ADD SLT PUSH2 0x115A JUMPI DUP1 DUP2 REVERT JUMPDEST DUP2 CALLDATALOAD PUSH8 0xFFFFFFFFFFFFFFFF DUP1 DUP3 GT ISZERO PUSH2 0x1171 JUMPI DUP3 DUP4 REVERT JUMPDEST PUSH1 0x20 DUP1 DUP4 MUL PUSH1 0x40 MLOAD DUP3 DUP3 DUP3 ADD ADD DUP2 DUP2 LT DUP6 DUP3 GT OR ISZERO PUSH2 0x118E JUMPI DUP7 DUP8 REVERT JUMPDEST PUSH1 0x40 MSTORE DUP5 DUP2 MSTORE SWAP5 POP DUP2 DUP6 ADD SWAP3 POP DUP6 DUP3 ADD DUP2 DUP8 ADD DUP4 ADD DUP9 LT ISZERO PUSH2 0x11AF JUMPI PUSH1 0x0 DUP1 REVERT JUMPDEST PUSH1 0x0 SWAP2 POP JUMPDEST DUP5 DUP3 LT ISZERO PUSH2 0x11D2 JUMPI DUP1 CALLDATALOAD DUP5 MSTORE SWAP3 DUP3 ADD SWAP3 PUSH1 0x1 SWAP2 SWAP1 SWAP2 ADD SWAP1 DUP3 ADD PUSH2 0x11B4 JUMP JUMPDEST POP POP POP POP POP SWAP3 SWAP2 POP POP JUMP JUMPDEST PUSH1 0x0 DUP1 PUSH1 0x0 PUSH1 0x60 DUP5 DUP7 SUB SLT ISZERO PUSH2 0x11F1 JUMPI DUP3 DUP4 REVERT JUMPDEST DUP4 CALLDATALOAD PUSH8 0xFFFFFFFFFFFFFFFF DUP2 GT ISZERO PUSH2 0x1207 JUMPI DUP4 DUP5 REVERT JUMPDEST PUSH2 0x1213 DUP7 DUP3 DUP8 ADD PUSH2 0x114A JUMP JUMPDEST SWAP7 PUSH1 0x20 DUP7 ADD CALLDATALOAD SWAP7 POP PUSH1 0x40 SWAP1 SWAP6 ADD CALLDATALOAD SWAP5 SWAP4 POP POP POP POP JUMP JUMPDEST PUSH1 0x0 DUP1 PUSH1 0x0 DUP1 PUSH1 0x0 PUSH1 0xA0 DUP7 DUP9 SUB SLT ISZERO PUSH2 0x1240 JUMPI DUP1 DUP2 REVERT JUMPDEST DUP6 CALLDATALOAD SWAP5 POP PUSH1 0x20 DUP7 ADD CALLDATALOAD PUSH8 0xFFFFFFFFFFFFFFFF DUP1 DUP3 GT ISZERO PUSH2 0x125E JUMPI DUP3 DUP4 REVERT JUMPDEST PUSH2 0x126A DUP10 DUP4 DUP11 ADD PUSH2 0x114A JUMP JUMPDEST SWAP6 POP PUSH1 0x40 DUP9 ADD CALLDATALOAD SWAP2 POP DUP1 DUP3 GT ISZERO PUSH2 0x127F JUMPI DUP3 DUP4 REVERT JUMPDEST POP PUSH2 0x128C DUP9 DUP3 DUP10 ADD PUSH2 0x114A JUMP JUMPDEST SWAP6 SWAP9 SWAP5 SWAP8 POP SWAP5 SWAP6 PUSH1 0x60 DUP2 ADD CALLDATALOAD SWAP6 POP PUSH1 0x80 ADD CALLDATALOAD SWAP4 SWAP3 POP POP POP JUMP JUMPDEST PUSH1 0x0 DUP1 PUSH1 0x0 PUSH1 0x60 DUP5 DUP7 SUB SLT ISZERO PUSH2 0x12B9 JUMPI DUP3 DUP4 REVERT JUMPDEST DUP4 CALLDATALOAD SWAP3 POP PUSH1 0x20 DUP5 ADD CALLDATALOAD PUSH8 0xFFFFFFFFFFFFFFFF DUP2 GT ISZERO PUSH2 0x12D6 JUMPI DUP3 DUP4 REVERT JUMPDEST PUSH2 0x12E2 DUP7 DUP3 DUP8 ADD PUSH2 0x114A JUMP JUMPDEST SWAP3 POP POP PUSH1 0x40 DUP5 ADD CALLDATALOAD DUP1 ISZERO ISZERO DUP2 EQ PUSH2 0x12F7 JUMPI DUP2 DUP3 REVERT JUMPDEST DUP1 SWAP2 POP POP SWAP3 POP SWAP3 POP SWAP3 JUMP JUMPDEST PUSH1 0x0 DUP1 PUSH1 0x0 DUP1 PUSH1 0x0 PUSH1 0xA0 DUP7 DUP9 SUB SLT ISZERO PUSH2 0x1319 JUMPI DUP1 DUP2 REVERT JUMPDEST DUP6 CALLDATALOAD SWAP5 POP PUSH1 0x20 DUP7 ADD CALLDATALOAD PUSH8 0xFFFFFFFFFFFFFFFF DUP2 GT ISZERO PUSH2 0x1336 JUMPI DUP2 DUP3 REVERT JUMPDEST PUSH2 0x1342 DUP9 DUP3 DUP10 ADD PUSH2 0x114A JUMP JUMPDEST SWAP6 SWAP9 SWAP6 SWAP8 POP POP POP POP PUSH1 0x40 DUP5 ADD CALLDATALOAD SWAP4 PUSH1 0x60 DUP2 ADD CALLDATALOAD SWAP4 PUSH1 0x80 SWAP1 SWAP2 ADD CALLDATALOAD SWAP3 POP SWAP1 POP JUMP JUMPDEST PUSH1 0x0 DUP1 PUSH1 0x0 DUP1 PUSH1 0x0 DUP1 PUSH1 0xC0 DUP8 DUP10 SUB SLT ISZERO PUSH2 0x137A JUMPI DUP1 DUP2 REVERT JUMPDEST DUP7 CALLDATALOAD SWAP6 POP PUSH1 0x20 DUP8 ADD CALLDATALOAD PUSH8 0xFFFFFFFFFFFFFFFF DUP2 GT ISZERO PUSH2 0x1397 JUMPI DUP2 DUP3 REVERT JUMPDEST PUSH2 0x13A3 DUP10 DUP3 DUP11 ADD PUSH2 0x114A JUMP JUMPDEST SWAP7 SWAP10 SWAP7 SWAP9 POP POP POP POP PUSH1 0x40 DUP6 ADD CALLDATALOAD SWAP5 PUSH1 0x60 DUP2 ADD CALLDATALOAD SWAP5 PUSH1 0x80 DUP3 ADD CALLDATALOAD SWAP5 POP PUSH1 0xA0 SWAP1 SWAP2 ADD CALLDATALOAD SWAP3 POP SWAP1 POP JUMP JUMPDEST PUSH1 0x20 DUP1 DUP3 MSTORE DUP3 MLOAD DUP3 DUP3 ADD DUP2 SWAP1 MSTORE PUSH1 0x0 SWAP2 SWAP1 DUP5 DUP3 ADD SWAP1 PUSH1 0x40 DUP6 ADD SWAP1 DUP5 JUMPDEST DUP2 DUP2 LT ISZERO PUSH2 0x1402 JUMPI DUP4 MLOAD DUP4 MSTORE SWAP3 DUP5 ADD SWAP3 SWAP2 DUP5 ADD SWAP2 PUSH1 0x1 ADD PUSH2 0x13E6 JUMP JUMPDEST POP SWAP1 SWAP7 SWAP6 POP POP POP POP POP POP JUMP JUMPDEST SWAP1 DUP2 MSTORE PUSH1 0x20 ADD SWAP1 JUMP INVALID LOG2 PUSH5 0x6970667358 0x22 SLT KECCAK256 GASPRICE 0x4F 0x5D 0xF7 PUSH17 0xA2BAD930EC04962D8217C86074B0B77E2E DUP13 XOR STOP 0xEA 0xC8 PUSH13 0x60110D5064736F6C6343000701 STOP CALLER "
		},
		"gasEstimates": {
			"creation": {
				"codeDepositCost": "1039400",
				"executionCost": "1080",
				"totalCost": "1040480"
			},
			"external": {
				"bptInForExactTokensOut(uint256,uint256[],uint256[],uint256,uint256)": "infinite",
				"calculateDueTokenProtocolSwapFeeAmount(uint256,uint256[],uint256,uint256,uint256)": "infinite",
				"exactBPTInForTokenOut(uint256,uint256[],uint256,uint256,uint256,uint256)": "infinite",
				"exactBPTInForTokensOut(uint256[],uint256,uint256)": "infinite",
				"exactTokensInForBPTOut(uint256,uint256[],uint256[],uint256,uint256)": "infinite",
				"inGivenOut(uint256,uint256[],uint256,uint256,uint256)": "infinite",
				"invariant(uint256,uint256[],bool)": "infinite",
				"outGivenIn(uint256,uint256[],uint256,uint256,uint256)": "infinite",
				"tokenInForExactBPTOut(uint256,uint256[],uint256,uint256,uint256,uint256)": "infinite"
			}
		},
		"methodIdentifiers": {
			"bptInForExactTokensOut(uint256,uint256[],uint256[],uint256,uint256)": "a89d4259",
			"calculateDueTokenProtocolSwapFeeAmount(uint256,uint256[],uint256,uint256,uint256)": "db7ad3f2",
			"exactBPTInForTokenOut(uint256,uint256[],uint256,uint256,uint256,uint256)": "cf1b8c8c",
			"exactBPTInForTokensOut(uint256[],uint256,uint256)": "1c855fa6",
			"exactTokensInForBPTOut(uint256,uint256[],uint256[],uint256,uint256)": "6fc82f29",
			"inGivenOut(uint256,uint256[],uint256,uint256,uint256)": "9cd91d3f",
			"invariant(uint256,uint256[],bool)": "32fec905",
			"outGivenIn(uint256,uint256[],uint256,uint256,uint256)": "fe2dd7ba",
			"tokenInForExactBPTOut(uint256,uint256[],uint256,uint256,uint256,uint256)": "405de978"
		}
	},
	"abi": [
		{
			"inputs": [
				{
					"internalType": "uint256",
					"name": "amp",
					"type": "uint256"
				},
				{
					"internalType": "uint256[]",
					"name": "balances",
					"type": "uint256[]"
				},
				{
					"internalType": "uint256[]",
					"name": "amountsOut",
					"type": "uint256[]"
				},
				{
					"internalType": "uint256",
					"name": "bptTotalSupply",
					"type": "uint256"
				},
				{
					"internalType": "uint256",
					"name": "swapFee",
					"type": "uint256"
				}
			],
			"name": "bptInForExactTokensOut",
			"outputs": [
				{
					"internalType": "uint256",
					"name": "",
					"type": "uint256"
				}
			],
			"stateMutability": "pure",
			"type": "function"
		},
		{
			"inputs": [
				{
					"internalType": "uint256",
					"name": "amp",
					"type": "uint256"
				},
				{
					"internalType": "uint256[]",
					"name": "balances",
					"type": "uint256[]"
				},
				{
					"internalType": "uint256",
					"name": "lastInvariant",
					"type": "uint256"
				},
				{
					"internalType": "uint256",
					"name": "tokenIndex",
					"type": "uint256"
				},
				{
					"internalType": "uint256",
					"name": "protocolSwapFeePercentage",
					"type": "uint256"
				}
			],
			"name": "calculateDueTokenProtocolSwapFeeAmount",
			"outputs": [
				{
					"internalType": "uint256",
					"name": "",
					"type": "uint256"
				}
			],
			"stateMutability": "pure",
			"type": "function"
		},
		{
			"inputs": [
				{
					"internalType": "uint256",
					"name": "amp",
					"type": "uint256"
				},
				{
					"internalType": "uint256[]",
					"name": "balances",
					"type": "uint256[]"
				},
				{
					"internalType": "uint256",
					"name": "tokenIndex",
					"type": "uint256"
				},
				{
					"internalType": "uint256",
					"name": "bptAmountIn",
					"type": "uint256"
				},
				{
					"internalType": "uint256",
					"name": "bptTotalSupply",
					"type": "uint256"
				},
				{
					"internalType": "uint256",
					"name": "swapFee",
					"type": "uint256"
				}
			],
			"name": "exactBPTInForTokenOut",
			"outputs": [
				{
					"internalType": "uint256",
					"name": "",
					"type": "uint256"
				}
			],
			"stateMutability": "pure",
			"type": "function"
		},
		{
			"inputs": [
				{
					"internalType": "uint256[]",
					"name": "balances",
					"type": "uint256[]"
				},
				{
					"internalType": "uint256",
					"name": "bptAmountIn",
					"type": "uint256"
				},
				{
					"internalType": "uint256",
					"name": "bptTotalSupply",
					"type": "uint256"
				}
			],
			"name": "exactBPTInForTokensOut",
			"outputs": [
				{
					"internalType": "uint256[]",
					"name": "",
					"type": "uint256[]"
				}
			],
			"stateMutability": "pure",
			"type": "function"
		},
		{
			"inputs": [
				{
					"internalType": "uint256",
					"name": "amp",
					"type": "uint256"
				},
				{
					"internalType": "uint256[]",
					"name": "balances",
					"type": "uint256[]"
				},
				{
					"internalType": "uint256[]",
					"name": "amountsIn",
					"type": "uint256[]"
				},
				{
					"internalType": "uint256",
					"name": "bptTotalSupply",
					"type": "uint256"
				},
				{
					"internalType": "uint256",
					"name": "swapFee",
					"type": "uint256"
				}
			],
			"name": "exactTokensInForBPTOut",
			"outputs": [
				{
					"internalType": "uint256",
					"name": "",
					"type": "uint256"
				}
			],
			"stateMutability": "pure",
			"type": "function"
		},
		{
			"inputs": [
				{
					"internalType": "uint256",
					"name": "amp",
					"type": "uint256"
				},
				{
					"internalType": "uint256[]",
					"name": "balances",
					"type": "uint256[]"
				},
				{
					"internalType": "uint256",
					"name": "tokenIndexIn",
					"type": "uint256"
				},
				{
					"internalType": "uint256",
					"name": "tokenIndexOut",
					"type": "uint256"
				},
				{
					"internalType": "uint256",
					"name": "tokenAmountOut",
					"type": "uint256"
				}
			],
			"name": "inGivenOut",
			"outputs": [
				{
					"internalType": "uint256",
					"name": "",
					"type": "uint256"
				}
			],
			"stateMutability": "pure",
			"type": "function"
		},
		{
			"inputs": [
				{
					"internalType": "uint256",
					"name": "amp",
					"type": "uint256"
				},
				{
					"internalType": "uint256[]",
					"name": "balances",
					"type": "uint256[]"
				},
				{
					"internalType": "bool",
					"name": "roundUp",
					"type": "bool"
				}
			],
			"name": "invariant",
			"outputs": [
				{
					"internalType": "uint256",
					"name": "",
					"type": "uint256"
				}
			],
			"stateMutability": "pure",
			"type": "function"
		},
		{
			"inputs": [
				{
					"internalType": "uint256",
					"name": "amp",
					"type": "uint256"
				},
				{
					"internalType": "uint256[]",
					"name": "balances",
					"type": "uint256[]"
				},
				{
					"internalType": "uint256",
					"name": "tokenIndexIn",
					"type": "uint256"
				},
				{
					"internalType": "uint256",
					"name": "tokenIndexOut",
					"type": "uint256"
				},
				{
					"internalType": "uint256",
					"name": "tokenAmountIn",
					"type": "uint256"
				}
			],
			"name": "outGivenIn",
			"outputs": [
				{
					"internalType": "uint256",
					"name": "",
					"type": "uint256"
				}
			],
			"stateMutability": "pure",
			"type": "function"
		},
		{
			"inputs": [
				{
					"internalType": "uint256",
					"name": "amp",
					"type": "uint256"
				},
				{
					"internalType": "uint256[]",
					"name": "balances",
					"type": "uint256[]"
				},
				{
					"internalType": "uint256",
					"name": "tokenIndex",
					"type": "uint256"
				},
				{
					"internalType": "uint256",
					"name": "bptAmountOut",
					"type": "uint256"
				},
				{
					"internalType": "uint256",
					"name": "bptTotalSupply",
					"type": "uint256"
				},
				{
					"internalType": "uint256",
					"name": "swapFee",
					"type": "uint256"
				}
			],
			"name": "tokenInForExactBPTOut",
			"outputs": [
				{
					"internalType": "uint256",
					"name": "",
					"type": "uint256"
				}
			],
			"stateMutability": "pure",
			"type": "function"
		}
	]
}