{
	"data": {
		"bytecode": {
			"linkReferences": {},
			"object": "6102a06040527f6e71edae12b1b97f4d1f60370fef10105fa2faae0126114a169c64845d6126c9610120523480156200003757600080fd5b5060405162006119380380620061198339810160408190526200005a9162000824565b610100810151610120820151602080840151604080860151815180830190925260018252603160f81b828501526101608701513360805260601b6001600160601b03191660a05282518796959491928492839283918691620000c39160039190850190620006b7565b508051620000d9906004906020840190620006b7565b50506005805460ff1916601217905550815160209283012060c052805191012060e05250507f8b73c3c69bb8fe3d512ecc4cf759cc79239f7b179b0ffacaa9a75d522b39400f6101005250620001386276a70083111561019462000422565b6200014c62278d0082111561019562000422565b429091016101408181529101610160528101516200016a9062000437565b60e08101516200017a9062000493565b80516040516309b2760f60e01b81526000916001600160a01b0316906309b2760f90620001ad9060029060040162000a2a565b602060405180830381600087803b158015620001c857600080fd5b505af1158015620001dd573d6000803e3d6000fd5b505050506040513d601f19601f820116820180604052508101906200020391906200080b565b6040805160028082526060808301845293945090916020830190803683370190505090508260600151816000815181106200023a57fe5b60200260200101906001600160a01b031690816001600160a01b0316815250508260800151816001815181106200026d57fe5b6001600160a01b0392831660209182029290920101528351166366a9c7d283836002604051908082528060200260200182016040528015620002b9578160200160208202803683370190505b506040518463ffffffff1660e01b8152600401620002da939291906200098e565b600060405180830381600087803b158015620002f557600080fd5b505af11580156200030a573d6000803e3d6000fd5b505084516001600160601b0319606091821b8116610180526101a08690528187018051831b82166101c052608088015190921b166101e05251620003519250905062000511565b610260526080830151620003659062000511565b6102805260a08301516200038690662386f26fc10000111561012e62000422565b620003a8662386f26fc100008460c00151101561012e6200042260201b60201c565b6000620003cc8460c001518560a00151620005b360201b620016d61790919060201c565b9050620003e6670de0b6b3a7640000821461013462000422565b60a0840180516102005260c0850180516102205251905110156200040c5760016200040f565b60005b60ff16610240525062000a7b9350505050565b8162000433576200043381620005d0565b5050565b62000453816009546200062360201b620016e81790919060201c565b6009556040517f3e350b41e86a8e10f804ade6d35340d620be35569cc75ac943e8bb14ab80ead1906200048890839062000983565b60405180910390a150565b620004a864e8d4a5100082101560cb62000422565b620004c067016345785d8a000082111560ca62000422565b620004dc816009546200064260201b620016f61790919060201c565b6009556040517fa9ba3ffe0b6c366b81232caab38605a0699ad5398d6cce76f91ee809e322dafc906200048890839062000a3f565b600080826001600160a01b031663313ce5676040518163ffffffff1660e01b815260040160206040518083038186803b1580156200054e57600080fd5b505afa15801562000563573d6000803e3d6000fd5b505050506040513d601f19601f8201168201806040525081019062000589919062000960565b60ff1690506000620005a86012836200066160201b620017041760201c565b600a0a949350505050565b6000828201620005c7848210158362000422565b90505b92915050565b62461bcd60e51b6000908152602060045260076024526642414c23000030600a808404818106603090810160081b95839006959095019082900491820690940160101b939093010160c81b604452606490fd5b6000620005c7826055856200067960201b6200171a179092919060201c565b6000620005c782605685620006a260201b62001741179092919060201c565b60006200067383831115600162000422565b50900390565b60006001821b19841682846200069157600062000694565b60015b60ff16901b17949350505050565b6001600160401b03811b1992909216911b1790565b828054600181600116156101000203166002900490600052602060002090601f016020900481019282601f10620006fa57805160ff19168380011785556200072a565b828001600101855582156200072a579182015b828111156200072a5782518255916020019190600101906200070d565b50620007389291506200073c565b5090565b5b808211156200073857600081556001016200073d565b80516001600160a01b0381168114620005ca57600080fd5b80518015158114620005ca57600080fd5b600082601f8301126200078d578081fd5b81516001600160401b03811115620007a3578182fd5b6020620007b9601f8301601f1916820162000a48565b92508183528481838601011115620007d057600080fd5b60005b82811015620007f0578481018201518482018301528101620007d3565b82811115620008025760008284860101525b50505092915050565b6000602082840312156200081d578081fd5b5051919050565b60006020828403121562000836578081fd5b81516001600160401b03808211156200084d578283fd5b818401915061018080838703121562000864578384fd5b6200086f8162000a48565b90506200087d868462000753565b815260208301518281111562000891578485fd5b6200089f878286016200077c565b602083015250604083015182811115620008b7578485fd5b620008c5878286016200077c565b604083015250620008da866060850162000753565b6060820152620008ee866080850162000753565b608082015260a0838101519082015260c0808401519082015260e080840151908201526101008084015190820152610120808401519082015261014091506200093a868385016200076b565b828201526101609150620009518683850162000753565b91810191909152949350505050565b60006020828403121562000972578081fd5b815160ff81168114620005c7578182fd5b901515815260200190565b60006060820185835260206060818501528186518084526080860191508288019350845b81811015620009da57620009c7855162000a6f565b83529383019391830191600101620009b2565b505084810360408601528551808252908201925081860190845b8181101562000a1c5762000a09835162000a6f565b85529383019391830191600101620009f4565b509298975050505050505050565b602081016003831062000a3957fe5b91905290565b90815260200190565b6040518181016001600160401b038111828210171562000a6757600080fd5b604052919050565b6001600160a01b031690565b60805160a05160601c60c05160e051610100516101205161014051610160516101805160601c6101a0516101c05160601c6101e05160601c61020051610220516102405161026051610280516155c662000b536000398061225252508061227952508061307252806130a652806130e25250806122a652806123425250806122cd5280612320528061237052505080610f12525080610a80525080610e605250806118ad525080611889525080611396525080611bc0525080611c02525080611be1525080610e3c525080610dc752506155c66000f3fe608060405234801561001057600080fd5b506004361061035d5760003560e01c80637ecebe00116101d3578063be7a6d1e11610104578063d5125db6116100a2578063e5fe5f3c1161007c578063e5fe5f3c14610735578063f89f27ed14610748578063ff7b6f1e14610750578063ffd088eb146107635761035d565b8063d5125db6146106fc578063d5c096c41461070f578063dd62ed3e146107225761035d565b8063c3748ef1116100de578063c3748ef114610696578063c519a075146106b6578063d4376804146106c9578063d505accf146106e95761035d565b8063be7a6d1e14610668578063bf3386661461067b578063c0ff1a151461068e5761035d565b80639d2c110c11610171578063aaabadc51161014b578063aaabadc514610632578063abb9d0d51461063a578063b10be7391461064d578063b48b5b40146106605761035d565b80639d2c110c146105f9578063a457c2d71461060c578063a9059cbb1461061f5761035d565b8063893d20e8116101ad578063893d20e8146105cc5780638d928af8146105e157806395d89b41146105e95780639b02cdde146105f15761035d565b80637ecebe0014610593578063851c1bb3146105a657806387ec6817146105b95761035d565b806338e9922e116102ad5780636028bfd41161024b57806368a54df21161022557806368a54df21461052c5780636b8432391461053f57806370a082311461055f57806374f3b009146105725761035d565b80636028bfd4146104dd57806360d1507c146104fe578063679aefce146105245761035d565b80633d48f8c1116102875780633d48f8c1146104955780634a6b0b15146104a857806355c67628146104c257806357aad013146104ca5761035d565b806338e9922e1461046757806338fff2d01461047a57806339509351146104825761035d565b806323b872dd1161031a578063292c914a116102f4578063292c914a1461043a5780633081bfee14610442578063313ce5671461044a5780633644e5151461045f5761035d565b806323b872dd14610401578063259efd1614610414578063264959fb146104275761035d565b806306fdde0314610362578063095ea7b31461038057806316c38b3c146103a057806318160ddd146103b55780631c0de051146103ca5780631dccd830146103e1575b600080fd5b61036a61076b565b6040516103779190615453565b60405180910390f35b61039361038e36600461497b565b610801565b6040516103779190615320565b6103b36103ae366004614cef565b610818565b005b6103bd61082c565b6040516103779190615353565b6103d2610832565b6040516103779392919061533b565b6103f46103ef366004614b2f565b61085b565b60405161037791906152e8565b61039361040f3660046148c6565b610963565b6103b361042236600461513b565b6109d9565b6103bd610435366004614f8e565b6109f8565b6103b3610a0f565b6103b3610a43565b610452610a4d565b604051610377919061550d565b6103bd610a56565b6103b3610475366004614d27565b610a65565b6103bd610a7e565b61039361049036600461497b565b610aa2565b6103bd6104a3366004615025565b610add565b6104b0610b12565b60405161037796959493929190615429565b6103bd610b6d565b6103bd6104d8366004614d27565b610b7a565b6104f06104eb366004614d3f565b610b85565b6040516103779291906154f4565b61051161050c366004614d27565b610bb6565b60405161037797969594939291906153f9565b6103bd610bff565b6103b361053a366004614d27565b610c24565b61055261054d366004614a71565b610c37565b6040516103779190615255565b6103bd61056d366004614872565b610ce8565b610585610580366004614d3f565b610d03565b6040516103779291906152fb565b6103bd6105a1366004614872565b610da8565b6103bd6105b4366004614e1b565b610dc3565b6104f06105c7366004614d3f565b610e15565b6105d4610e3a565b6040516103779190615241565b6105d4610e5e565b61036a610e82565b6103bd610ee3565b6103bd610607366004615040565b610ee9565b61039361061a36600461497b565b611098565b61039361062d36600461497b565b6110d6565b6105d46110e3565b6103bd610648366004614d27565b6110ed565b6103bd61065b366004614f72565b6110f8565b6103bd61111a565b6103bd610676366004615168565b611120565b6103b3610689366004614fc2565b61112d565b6103bd611136565b6106a96106a4366004614d27565b6111f2565b60405161037791906154a6565b6103bd6106c4366004615193565b611277565b6106dc6106d7366004614cad565b61128e565b6040516103779190615299565b6103b36106f7366004614906565b611361565b6103b361070a366004614de1565b6114aa565b61058561071d366004614d3f565b611504565b6103bd61073036600461488e565b611624565b6103b3610743366004614be9565b61164f565b6103f4611698565b6106a961075e366004614de1565b6116a2565b6103bd6116cf565b60038054604080516020601f60026000196101006001881615020190951694909404938401819004810282018101909252828152606093909290918301828280156107f75780601f106107cc576101008083540402835291602001916107f7565b820191906000526020600020905b8154815290600101906020018083116107da57829003601f168201915b5050505050905090565b600061080e338484611756565b5060015b92915050565b6108206117be565b610829816117ec565b50565b60025490565b600080600061083f61186a565b15925061084a611887565b91506108546118ab565b9050909192565b606081516001600160401b038111801561087457600080fd5b5060405190808252806020026020018201604052801561089e578160200160208202803683370190505b50905060006108ae6009546118cf565b90506108b8614626565b60005b845181101561095b578481815181106108d057fe5b602002602001015191506108ee82602001516000141561013c6118dc565b600061090983600001518585602001518660400151016118ee565b9050600061092084600001518686604001516118ee565b905061093a84602001518383038161093457fe5b05611a34565b86848151811061094657fe5b602090810291909101015250506001016108bb565b505050919050565b6000806109708533611624565b9050610994336001600160a01b038716148061098c5750838210155b61019e6118dc565b61099f858585611a47565b336001600160a01b038616148015906109ba57506000198114155b156109cc576109cc8533858403611756565b60019150505b9392505050565b6109e281610add565b6000928352600860205260409092209190915550565b6000610a0784848442036118ee565b949350505050565b610a17611b27565b610a1f6117be565b610a296001611b3a565b6000610a3361082c565b1115610a4157610a41611b7a565b565b610a416000611b3a565b60055460ff1690565b6000610a60611bbc565b905090565b610a6d6117be565b610a75611b27565b61082981611c59565b7f000000000000000000000000000000000000000000000000000000000000000090565b3360008181526001602090815260408083206001600160a01b0387168452909152812054909161080e918590610ad890866116d6565b611756565b6000610b0a826000015183602001518460400151856060015186608001518760a001518860c00151611cc2565b90505b919050565b60008060008060008060006009549050610b2b81611d22565b9650610b3681611d2e565b9550610b4181611d3b565b9450610b4c816118cf565b9350610b5781611d48565b9250610b6281611d55565b915050909192939495565b6000610a60600954611d55565b6000610b0a82611d62565b60006060610b9586516002611da2565b610baa89898989898989611daf611e69611ee7565b97509795505050505050565b6000806000806000806000610bd1610400891061013b6118dc565b6000610bdc89612006565b9050610be781612018565b959f949e50929c50909a509850965090945092505050565b6000610a60610c0c61082c565b610c1e610c17611136565b600261207b565b9061209f565b600954610c3190826120f0565b60095550565b606081516001600160401b0381118015610c5057600080fd5b50604051908082528060200260200182016040528015610c7a578160200160208202803683370190505b5090506000610c8a6009546118cf565b9050610c94614648565b60005b845181101561095b57848181518110610cac57fe5b60200260200101519150610cc982600001518484602001516118ee565b848281518110610cd557fe5b6020908102919091010152600101610c97565b6001600160a01b031660009081526020819052604090205490565b60608088610d2d610d12610e5e565b6001600160a01b0316336001600160a01b03161460cd6118dc565b610d42610d38610a7e565b82146101f46118dc565b610d4b876120fe565b6000606080610d5f8d8d8d8d8d8d8d611daf565b925092509250610d6f8c84612160565b610d7882611e69565b610d8181611e69565b610d8961186a565b15610d9657610d96611b7a565b909c909b509950505050505050505050565b6001600160a01b031660009081526006602052604090205490565b60007f000000000000000000000000000000000000000000000000000000000000000082604051602001610df89291906151fe565b604051602081830303815290604052805190602001209050919050565b60006060610e2586516002611da2565b610baa8989898989898961216a6121eb611ee7565b7f000000000000000000000000000000000000000000000000000000000000000090565b7f000000000000000000000000000000000000000000000000000000000000000090565b60048054604080516020601f60026000196101006001881615020190951694909404938401819004810282018101909252828152606093909290918301828280156107f75780601f106107cc576101008083540402835291602001916107f7565b600a5490565b6000610ef3611b27565b8360800151610f03610d12610e5e565b610f0e610d38610a7e565b60007f00000000000000000000000000000000000000000000000000000000000000006001600160a01b031686602001516001600160a01b03161490506000610f5682612249565b90506000610f648315612249565b90506000610f718461229d565b90506000610f7f851561229d565b9050610f8b89856122f1565b9850610f9788846122f1565b9750610fc08a60a0015186610fac5789610fae565b8a5b87610fb9578b610fbb565b8a5b6122fd565b60008a516001811115610fcf57fe5b141561103d576000610fed610fe2610b6d565b60608d015190612403565b905061100f611009828d6060015161170490919063ffffffff16565b866122f1565b60608c015260006110238c8c8c8787612447565b905061102f8186612464565b985050505050505050611090565b61104b8a60600151846122f1565b60608b0152600061105f8b8b8b8686612470565b905061106b8186612483565b905061108761108061107b610b6d565b61248f565b82906124b5565b97505050505050505b509392505050565b6000806110a53385611624565b90508083106110bf576110ba33856000611756565b6110cc565b6110cc3385858403611756565b5060019392505050565b600061080e338484611a47565b6000610a606124f7565b6000610b0a82611a34565b60008061110f8361110a6009546118cf565b612571565b90506109d281611a34565b61040090565b6000610a078484846125a0565b610c31816125c7565b60006060611142610e5e565b6001600160a01b031663f94d4668611158610a7e565b6040518263ffffffff1660e01b81526004016111749190615353565b60006040518083038186803b15801561118c57600080fd5b505afa1580156111a0573d6000803e3d6000fd5b505050506040513d6000823e601f3d908101601f191682016040526111c891908101906149a6565b509150506111d5816120fe565b60606111df612654565b90506111eb81836126c2565b9250505090565b6111fa61465f565b6040805160e0810190915280611211846000612734565b815260200161122184600061277f565b8152602001611231846001612734565b815260200161124184600161277f565b8152602001611251846002612734565b815260200161126184600261277f565b815260200161126f846127c3565b905292915050565b6000611285858585856127cf565b95945050505050565b606082516001600160401b03811180156112a757600080fd5b506040519080825280602002602001820160405280156112e157816020015b6112ce61469c565b8152602001906001900390816112c65790505b50905060005b835181101561135a5760008061131086848151811061130257fe5b6020026020010151866127fa565b915091506040518060400160405280611328846127c3565b8152602001611336836127c3565b81525084848151811061134557fe5b602090810291909101015250506001016112e7565b5092915050565b61136f8442111560d16118dc565b6001600160a01b03871660009081526006602090815260408083205490519092916113c6917f0000000000000000000000000000000000000000000000000000000000000000918c918c918c9188918d910161537b565b60405160208183030381529060405280519060200120905060006113e9826128ad565b905060006001828888886040516000815260200160405260405161141094939291906153db565b6020604051602081039080840390855afa158015611432573d6000803e3d6000fd5b5050604051601f190151915061147490506001600160a01b0382161580159061146c57508b6001600160a01b0316826001600160a01b0316145b6101f86118dc565b6001600160a01b038b16600090815260066020526040902060018501905561149d8b8b8b611756565b5050505050505050505050565b4285900360006114bd82878787876128c9565b90507fa7f3e984c65d79d0fa58244dddb6522f661c9dea23fe4940801cbfe08810750686821415826040516114f392919061532b565b60405180910390a150505050505050565b60608088611513610d12610e5e565b61151e610d38610a7e565b611526611b27565b600061153061082c565b6115a0576115408b8b8b88612920565b94509050611555620f424082101560cc6118dc565b6115636000620f42406129a9565b61157289620f424083036129a9565b61157b846121eb565b604080516002808252606082018352909160208301908036833701905050925061160e565b6115a9886120fe565b6115dc87896000815181106115ba57fe5b60200260200101518a6001815181106115cf57fe5b60200260200101516122fd565b6115eb8b8b8b8b8b8b8b61216a565b909550935090506115fc89826129a9565b611605846121eb565b61160e83611e69565b611616611b7a565b505097509795505050505050565b6001600160a01b03918216600090815260016020908152604080832093909416825291909152205490565b60005b82518110156116935761168b83828151811061166a57fe5b602002602001015183838151811061167e57fe5b60200260200101516109d9565b600101611652565b505050565b6060610a60612654565b6116aa61465f565b60006116b987878787876129b3565b90506116c4816111f2565b979650505050505050565b6201de2090565b60008282016109d284821015836118dc565b60006109d28383605561171a565b60006109d283836056611741565b60006117148383111560016118dc565b50900390565b60006001821b1984168284611730576000611733565b60015b60ff16901b17949350505050565b6001600160401b03811b1992909216911b1790565b6001600160a01b0380841660008181526001602090815260408083209487168084529490915290819020849055517f8c5be1e5ebec7d5bd14f71427d1e84f3dd0314c0f7b2291e5b200ac8c7c3b925906117b1908590615353565b60405180910390a3505050565b60006117d56000356001600160e01b031916610dc3565b90506108296117e48233612a13565b6101916118dc565b801561180c576118076117fd611887565b42106101936118dc565b611821565b6118216118176118ab565b42106101a96118dc565b6007805460ff19168215151790556040517f9e3a5e37224532dea67b89face185703738a228a6e8a23dee546960180d3be649061185f908390615320565b60405180910390a150565b60006118746118ab565b421180610a6057505060075460ff161590565b7f000000000000000000000000000000000000000000000000000000000000000090565b7f000000000000000000000000000000000000000000000000000000000000000090565b6000610b0a82604b612afc565b816118ea576118ea81612b04565b5050565b60006118ff824210156101386118dc565b42829003600061190e85612006565b9050600061191b826127c3565b905061192c600082116101396118dc565b8281116119585780830380611941848a612734565b0261194c848a61277f565b019450505050506109d2565b600061196387612b57565b9050600061197082612006565b9050600061197d826127c3565b905061198e600082116101396118dc565b61199d8682111561013a6118dc565b50506000806119ac86846127fa565b9150915060006119bb836127c3565b6119c4836127c3565b0390508015611a1c5760006119d9848d61277f565b6119e3848e61277f565b03905060006119f1856127c3565b890390508281830281611a0057fe5b05611a0b868f61277f565b0199505050505050505050506109d2565b611a26838c61277f565b9750505050505050506109d2565b6000610b0a655af3107a40008302612b64565b611a5e6001600160a01b03841615156101986118dc565b611a756001600160a01b03831615156101996118dc565b611a80838383611693565b6001600160a01b038316600090815260208190526040902054611aa690826101a0612f41565b6001600160a01b038085166000908152602081905260408082209390935590841681522054611ad590826116d6565b6001600160a01b0380841660008181526020819052604090819020939093559151908516907fddf252ad1be2c89b69c2b068fc378daa952ba7f163c4a11628f55a4df523b3ef906117b1908590615353565b610a41611b3261186a565b6101926118dc565b600954611b4790826116e8565b6009556040517f3e350b41e86a8e10f804ade6d35340d620be35569cc75ac943e8bb14ab80ead19061185f908390615320565b600954611b8681611d48565b1561082957611ba0611b99600a54611d62565b8290612f57565b9050610c31611bb5611bb061082c565b611d62565b8290612f64565b60007f00000000000000000000000000000000000000000000000000000000000000007f00000000000000000000000000000000000000000000000000000000000000007f0000000000000000000000000000000000000000000000000000000000000000611c29612f72565b30604051602001611c3e9594939291906153af565b60405160208183030381529060405280519060200120905090565b611c6c64e8d4a5100082101560cb6118dc565b611c8267016345785d8a000082111560ca6118dc565b600954611c8f90826116f6565b6009556040517fa9ba3ffe0b6c366b81232caab38605a0699ad5398d6cce76f91ee809e322dafc9061185f908390615353565b6000611cce8282612f76565b611cd984601f612f7a565b611ce4866054612f8b565b611cef88606a612f7a565b611cfa8a609f612f8b565b611d058c60b5612f7a565b611d108e60ea612f8b565b17171717171798975050505050505050565b6000610b0a8282612f98565b6000610b0a826016612f98565b6000610b0a82602c612fbf565b6000610b0a826055612fc9565b6000610b0a826056612fd3565b600080611d6e83612fe0565b90506000808213611d8757652d79883d20008203611d91565b652d79883d200082015b655af3107a40009005949350505050565b6118ea81831460676118dc565b60006060806060611dbe612654565b9050611dc861186a565b15611e1057611dde87896000815181106115ba57fe5b6000611dea828a6126c2565b9050611dfb8983600a54848b61303c565b9250611e0a8984611704613120565b50611e31565b60408051600280825260608201835290916020830190803683370190505091505b611e3c8882876131b2565b9094509250611e4e8884611704613120565b611e5881896126c2565b600a55509750975097945050505050565b611e9081600081518110611e7957fe5b6020026020010151611e8b6001612249565b61321f565b81600081518110611e9d57fe5b602002602001018181525050611ecb81600181518110611eb957fe5b6020026020010151611e8b6000612249565b81600181518110611ed857fe5b60200260200101818152505050565b333014611fa5576000306001600160a01b0316600036604051611f0b929190615216565b6000604051808303816000865af19150503d8060008114611f48576040519150601f19603f3d011682016040523d82523d6000602084013e611f4d565b606091505b505090508060008114611f5c57fe5b60046000803e6000516001600160e01b0319166343adbafb60e01b8114611f87573d6000803e3d6000fd5b506020600460003e604060205260243d03602460403e601c3d016000f35b611fae866120fe565b60006060611fc58b8b8b8b8b8b8b8b63ffffffff16565b5091509150611fd7818463ffffffff16565b8051601f1982018390526343adbafb603f1983015260200260231982016044820181fd5b505050505050505050565b60009081526008602052604090205490565b600080600080600080600061202c8861323f565b96506120378861324c565b955061204288613259565b945061204d88613266565b935061205888613273565b925061206388613280565b915061206e886127c3565b9050919395979092949650565b60008282026109d284158061209857508385838161209557fe5b04145b60036118dc565b60006120ae82151560046118dc565b826120bb57506000610812565b670de0b6b3a7640000838102906120de908583816120d557fe5b041460056118dc565b8281816120e757fe5b04915050610812565b60006109d28383604b61328d565b6121258160008151811061210e57fe5b60200260200101516121206001612249565b61207b565b8160008151811061213257fe5b602002602001018181525050611ecb8160018151811061214e57fe5b60200260200101516121206000612249565b6118ea828261329d565b60006060806060612179612654565b90506000612187828a6126c2565b9050606061219a8a84600a54858c61303c565b90506121a98a82611704613120565b600060606121b88c868b613359565b915091506121c98c826116d6613120565b6121d3858d6126c2565b600a55909e909d50909b509950505050505050505050565b612212816000815181106121fb57fe5b602002602001015161220d6001612249565b6133b3565b8160008151811061221f57fe5b602002602001018181525050611ecb8160018151811061223b57fe5b602002602001015161220d60005b600081612276577f0000000000000000000000000000000000000000000000000000000000000000610b0a565b507f0000000000000000000000000000000000000000000000000000000000000000919050565b6000816122ca577f0000000000000000000000000000000000000000000000000000000000000000610b0a565b507f0000000000000000000000000000000000000000000000000000000000000000919050565b60006109d2838361207b565b60095461230981611d48565b801561231457508343115b156123fd5760006123677f0000000000000000000000000000000000000000000000000000000000000000857f0000000000000000000000000000000000000000000000000000000000000000866127cf565b9050600061239e7f00000000000000000000000000000000000000000000000000000000000000008661239986611d2e565b6125a0565b905060006123ab846118cf565b905060006123b885611d3b565b905060006123d1828487876123cc8b611d22565b6128c9565b9050808314611ffb576123e486826120f0565b95506123f086426133e6565b6009819055955050505050505b50505050565b600082820261241d84158061209857508385838161209557fe5b8061242c576000915050610812565b670de0b6b3a764000060001982015b04600101915050610812565b600061245a858486858a606001516133f4565b9695505050505050565b60006109d2838361321f565b600061245a858486858a60600151613461565b60006109d283836133b3565b6000670de0b6b3a764000082106124a7576000610b0a565b50670de0b6b3a76400000390565b60006124c482151560046118dc565b826124d157506000610812565b670de0b6b3a7640000838102906124eb908583816120d557fe5b82600182038161243b57fe5b6000612501610e5e565b6001600160a01b031663aaabadc56040518163ffffffff1660e01b815260040160206040518083038186803b15801561253957600080fd5b505afa15801561254d573d6000803e3d6000fd5b505050506040513d601f19601f82011682018060405250810190610a609190614e43565b60008061257d83612006565b9050612596600061258d836127c3565b116101396118dc565b610a078185612734565b6000806125ad84866124b5565b905060006125ba82611d62565b9390930395945050505050565b60006125e08260a00151826116f690919063ffffffff16565b90506125f98260800151826116e890919063ffffffff16565b90506126128260600151826120f090919063ffffffff16565b905061262b8260400151826133e690919063ffffffff16565b9050612644826020015182612f6490919063ffffffff16565b8251909150610b0a908290612f57565b604080516002808252606080830184529283929190602083019080368337019050509050612682600161229d565b8160008151811061268f57fe5b6020026020010181815250506126a5600061229d565b816001815181106126b257fe5b6020908102919091010152905090565b670de0b6b3a764000060005b83518110156127245761271a6127138583815181106126e957fe5b60200260200101518584815181106126fd57fe5b60200260200101516134d790919063ffffffff16565b8390613526565b91506001016126ce565b50610812600082116101376118dc565b60008082600281111561274357fe5b1415612759576127528361323f565b9050610812565b600182600281111561276757fe5b14156127765761275283613259565b61275283613273565b60008082600281111561278e57fe5b141561279d576127528361324c565b60018260028111156127ab57fe5b14156127ba5761275283613266565b61275283613280565b6000610b0a8282612fbf565b6000806127ef6127df84866124b5565b6127e987896124b5565b906124b5565b905061245a81611d62565b600080806103ff8180805b8385116128715760028585010461281c818a613552565b935061282784612006565b9250612832836127c3565b9150898210156128475780600101955061286b565b8982111561285a5760018103945061286b565b8283975097505050505050506128a6565b50612805565b88811061288f5761288961288484613563565b612006565b8261289c565b8161289c61288485612b57565b9650965050505050505b9250929050565b60006128b7611bbc565b82604051602001610df8929190615226565b6000806128e5858585426128dc8b612006565b939291906129b3565b90506078428890031015806128fa5786612903565b61290387612b57565b600081815260086020526040902092909255509695505050505050565b60006060600061292f84613570565b905061294a600082600281111561294257fe5b1460ce6118dc565b606061295585613586565b905061296381516002611da2565b61296c816120fe565b6060612976612654565b9050600061298482846126c2565b9050600061299382600261207b565b600a929092555099919850909650505050505050565b6118ea828261359c565b6000806129bf876127c3565b8303905060008187026129d18961324c565b01905060008287026129e28a613266565b01905060008387026129f38b613280565b019050612a0589848a858b868c611cc2565b9a9950505050505050505050565b600073ba1ba1ba1ba1ba1ba1ba1ba1ba1ba1ba1ba1ba1b612a32610e3a565b6001600160a01b031614158015612a4d5750612a4d8361362a565b15612a7557612a5a610e3a565b6001600160a01b0316336001600160a01b0316149050610812565b612a7d6124f7565b6001600160a01b0316639be2a8848484306040518463ffffffff1660e01b8152600401612aac9392919061535c565b60206040518083038186803b158015612ac457600080fd5b505afa158015612ad8573d6000803e3d6000fd5b505050506040513d601f19601f820116820180604052508101906127529190614d0b565b1c6103ff1690565b62461bcd60e51b6000908152602060045260076024526642414c23000030600a808404818106603090810160081b95839006959095019082900491820690940160101b939093010160c81b604452606490fd5b6000610b0a826001613552565b6000612b93680238fd42c5cf03ffff198312158015612b8c575068070c1cc73b00c800008313155b60096118dc565b6000821215612bc657612ba882600003612b64565b6a0c097ce7bc90715b34b9f160241b81612bbe57fe5b059050610b0d565b60006806f05b59d3b20000008312612c0657506806f05b59d3b1ffffff1990910190770195e54c5dd42177f53a27172fa9ec630262827000000000612c3c565b6803782dace9d90000008312612c3857506803782dace9d8ffffff19909101906b1425982cf597cd205cef7380612c3c565b5060015b6064929092029168056bc75e2d6310000068ad78ebc5ac620000008412612c8c5768ad78ebc5ac61ffffff199093019268056bc75e2d631000006e01855144814a7ff805980ff008400082020590505b6856bc75e2d6310000008412612cc8576856bc75e2d630ffffff199093019268056bc75e2d631000006b02df0ab5a80a22c61ab5a70082020590505b682b5e3af16b188000008412612d0257682b5e3af16b187fffff199093019268056bc75e2d63100000693f1fce3da636ea5cf85082020590505b6815af1d78b58c4000008412612d3c576815af1d78b58c3fffff199093019268056bc75e2d63100000690127fa27722cc06cc5e282020590505b680ad78ebc5ac62000008412612d7557680ad78ebc5ac61fffff199093019268056bc75e2d6310000068280e60114edb805d0382020590505b68056bc75e2d631000008412612dae5768056bc75e2d630fffff199093019268056bc75e2d63100000680ebc5fb4174612111082020590505b6802b5e3af16b18800008412612de7576802b5e3af16b187ffff199093019268056bc75e2d631000006808f00f760a4b2db55d82020590505b68015af1d78b58c400008412612e205768015af1d78b58c3ffff199093019268056bc75e2d631000006806f5f177578893793782020590505b68056bc75e2d631000008481019085906002908280020505918201919050600368056bc75e2d631000008783020505918201919050600468056bc75e2d631000008783020505918201919050600568056bc75e2d631000008783020505918201919050600668056bc75e2d631000008783020505918201919050600768056bc75e2d631000008783020505918201919050600868056bc75e2d631000008783020505918201919050600968056bc75e2d631000008783020505918201919050600a68056bc75e2d631000008783020505918201919050600b68056bc75e2d631000008783020505918201919050600c68056bc75e2d631000008783020505918201919050606468056bc75e2d63100000848402058502059695505050505050565b6000612f5084841115836118dc565b5050900390565b60006109d283838361365c565b60006109d28383601661365c565b4690565b1b90565b661fffffffffffff91909116901b90565b623fffff91909116901b90565b600082821c623fffff16621fffff8113612fb25780610a07565b623fffff19179392505050565b1c637fffffff1690565b1c60019081161490565b1c6001600160401b031690565b6000612ff06000831360646118dc565b670c7d713b49da00008213801561300e5750670f43fc2c04ee000082125b1561302c57670de0b6b3a764000061302583613673565b81612bbe57fe5b61303582613791565b9050610b0d565b6040805160028082526060808301845292839291906020830190803683370190505090508261306c579050611285565b6130df877f00000000000000000000000000000000000000000000000000000000000000008151811061309b57fe5b6020026020010151877f0000000000000000000000000000000000000000000000000000000000000000815181106130cf57fe5b6020026020010151878787613b30565b817f00000000000000000000000000000000000000000000000000000000000000008151811061310b57fe5b60209081029190910101529695505050505050565b6131568360008151811061313057fe5b60200260200101518360008151811061314557fe5b60200260200101518363ffffffff16565b8360008151811061316357fe5b6020026020010181815250506131948360018151811061317f57fe5b60200260200101518360018151811061314557fe5b836001815181106131a157fe5b602002602001018181525050505050565b6000606060006131c184613570565b905060008160028111156131d157fe5b14156131ec576131e2868686613ba8565b9250925050613217565b60018160028111156131fa57fe5b141561320a576131e28685613c58565b6131e2868686613c8a565b505b935093915050565b600061322e82151560046118dc565b81838161323757fe5b049392505050565b6000610b0a8260ea612f98565b6000610b0a8260b5613cf6565b6000610b0a82609f612f98565b6000610b0a82606a613cf6565b6000610b0a826054612f98565b6000610b0a82601f613cf6565b6103ff811b1992909216911b1790565b6132b46001600160a01b038316151561019b6118dc565b6132c082600083611693565b6001600160a01b0382166000908152602081905260409020546132e690826101a1612f41565b6001600160a01b03831660009081526020819052604090205560025461330c9082613d29565b6002556040516000906001600160a01b038416907fddf252ad1be2c89b69c2b068fc378daa952ba7f163c4a11628f55a4df523b3ef9061334d908590615353565b60405180910390a35050565b60006060600061336884613570565b9050600181600281111561337857fe5b1415613389576131e2868686613d37565b600281600281111561339757fe5b14156133a8576131e2868686613d8d565b613215610136612b04565b60006133c282151560046118dc565b826133cf57506000610812565b8160018403816133db57fe5b046001019050610812565b60006109d28383602c613e10565b600061341661340b87670429d069189e0000613526565b8311156101306118dc565b600061342287846116d6565b9050600061343088836124b5565b9050600061343e888761209f565b9050600061344c8383613e22565b9050612a0561345a8261248f565b8990613526565b600061348361347885670429d069189e0000613526565b8311156101316118dc565b60006134996134928685611704565b86906124b5565b905060006134a785886124b5565b905060006134b58383613e22565b905060006134cb82670de0b6b3a7640000611704565b9050612a058a82612403565b6000806134e48484613e4e565b905060006134fe6134f783612710612403565b60016116d6565b90508082101561351357600092505050610812565b61351d8282611704565b92505050610812565b600082820261354084158061209857508385838161209557fe5b670de0b6b3a764000090049392505050565b60006104008383015b069392505050565b6000610b0a826001613f4f565b600081806020019051810190610b0a9190614e5f565b6060818060200190518101906109d29190614f24565b6135a860008383611693565b6002546135b590826116d6565b6002556001600160a01b0382166000908152602081905260409020546135db90826116d6565b6001600160a01b0383166000818152602081905260408082209390935591519091907fddf252ad1be2c89b69c2b068fc378daa952ba7f163c4a11628f55a4df523b3ef9061334d908590615353565b600061363c631c74c91760e11b610dc3565b821480610b0a57506136546350dd6ed960e01b610dc3565b909114919050565b623fffff828116821b90821b198416179392505050565b670de0b6b3a7640000026000806a0c097ce7bc90715b34b9f160241b808401906ec097ce7bc90715b34b9f0fffffffff19850102816136ae57fe5b05905060006a0c097ce7bc90715b34b9f160241b82800205905081806a0c097ce7bc90715b34b9f160241b81840205915060038205016a0c097ce7bc90715b34b9f160241b82840205915060058205016a0c097ce7bc90715b34b9f160241b82840205915060078205016a0c097ce7bc90715b34b9f160241b82840205915060098205016a0c097ce7bc90715b34b9f160241b828402059150600b8205016a0c097ce7bc90715b34b9f160241b828402059150600d8205016a0c097ce7bc90715b34b9f160241b828402059150600f826002919005919091010295945050505050565b6000670de0b6b3a76400008212156137cd576137c3826a0c097ce7bc90715b34b9f160241b816137bd57fe5b05613791565b6000039050610b0d565b60007e1600ef3172e58d2e933ec884fde10064c63b5372d805e203c0000000000000831261381e57770195e54c5dd42177f53a27172fa9ec630262827000000000830592506806f05b59d3b2000000015b73011798004d755d3c8bc8e03204cf44619e0000008312613856576b1425982cf597cd205cef7380830592506803782dace9d9000000015b606492830292026e01855144814a7ff805980ff0084000831261389e576e01855144814a7ff805980ff008400068056bc75e2d63100000840205925068ad78ebc5ac62000000015b6b02df0ab5a80a22c61ab5a70083126138d9576b02df0ab5a80a22c61ab5a70068056bc75e2d6310000084020592506856bc75e2d631000000015b693f1fce3da636ea5cf850831261391057693f1fce3da636ea5cf85068056bc75e2d631000008402059250682b5e3af16b18800000015b690127fa27722cc06cc5e2831261394757690127fa27722cc06cc5e268056bc75e2d6310000084020592506815af1d78b58c400000015b68280e60114edb805d03831261397c5768280e60114edb805d0368056bc75e2d631000008402059250680ad78ebc5ac6200000015b680ebc5fb4174612111083126139a757680ebc5fb4174612111068056bc75e2d631000009384020592015b6808f00f760a4b2db55d83126139dc576808f00f760a4b2db55d68056bc75e2d6310000084020592506802b5e3af16b1880000015b6806f5f17757889379378312613a11576806f5f177578893793768056bc75e2d63100000840205925068015af1d78b58c40000015b6806248f33704b2866038312613a45576806248f33704b28660368056bc75e2d63100000840205925067ad78ebc5ac620000015b6805c548670b9510e7ac8312613a79576805c548670b9510e7ac68056bc75e2d6310000084020592506756bc75e2d6310000015b600068056bc75e2d63100000840168056bc75e2d631000008086030281613a9c57fe5b059050600068056bc75e2d63100000828002059050818068056bc75e2d63100000818402059150600382050168056bc75e2d63100000828402059150600582050168056bc75e2d63100000828402059150600782050168056bc75e2d63100000828402059150600982050168056bc75e2d63100000828402059150600b820501600202606485820105979650505050505050565b6000838311613b4157506000611285565b6000613b4d85856124b5565b90506000613b63670de0b6b3a76400008861209f565b9050613b77826709b6e64a8ec60000613f5e565b91506000613b858383613e22565b90506000613b9c613b958361248f565b8b90613526565b9050612a058187613526565b60006060613bb4611b27565b600080613bc085613f75565b91509150613bd26002821060646118dc565b6040805160028082526060808301845292602083019080368337019050509050613c33888381518110613c0157fe5b6020026020010151888481518110613c1557fe5b602002602001015185613c2661082c565b613c2e610b6d565b613f97565b818381518110613c3f57fe5b6020908102919091010152919791965090945050505050565b600060606000613c6784614057565b90506060613c7d8683613c7861082c565b61406d565b9196919550909350505050565b60006060613c96611b27565b60606000613ca38561411e565b91509150613cb382516002611da2565b613cbc826120fe565b6000613cd9888885613ccc61082c565b613cd4610b6d565b614136565b9050613ce98282111560cf6118dc565b9791965090945050505050565b600082821c661fffffffffffff16660fffffffffffff8113613d185780610a07565b661fffffffffffff19179392505050565b60006109d283836001612f41565b60006060806000613d478561411e565b91509150613d5782516002611da2565b613d60826120fe565b6000613d7d888885613d7061082c565b613d78610b6d565b61436a565b9050613ce98282101560d06118dc565b60006060600080613d9d85613f75565b91509150613daf6002821060646118dc565b6040805160028082526060808301845292602083019080368337019050509050613c33888381518110613dde57fe5b6020026020010151888481518110613df257fe5b602002602001015185613e0361082c565b613e0b610b6d565b61457b565b637fffffff811b1992909216911b1790565b600080613e2f8484613e4e565b90506000613e426134f783612710612403565b905061128582826116d6565b600081613e645750670de0b6b3a7640000610812565b82613e7157506000610812565b613e82600160ff1b841060066118dc565b82613ea8770bce5086492111aea88f4bb1ca6bcf584181ea8059f76532841060076118dc565b826000670c7d713b49da000083138015613ec95750670f43fc2c04ee000083125b15613f00576000613ed984613673565b9050670de0b6b3a764000080820784020583670de0b6b3a764000083050201915050613f0e565b81613f0a84613791565b0290505b670de0b6b3a76400009005613f46680238fd42c5cf03ffff198212801590613f3f575068070c1cc73b00c800008213155b60086118dc565b61245a81612b64565b6000610400828403810161355b565b600081831015613f6e57816109d2565b5090919050565b60008082806020019051810190613f8c9190614eee565b909590945092505050565b600080613fa8846127e98188611704565b9050613fc16709b6e64a8ec600008210156101326118dc565b6000613fdf613fd8670de0b6b3a76400008961209f565b8390613e22565b90506000613ff6613fef8361248f565b8a90613526565b905060006140038961248f565b905060006140118383612403565b9050600061401f8483611704565b9050614047614040614039670de0b6b3a76400008b611704565b8490613526565b82906116d6565b9c9b505050505050505050505050565b6000818060200190518101906109d29190614ec1565b6060600061407b848461209f565b9050606085516001600160401b038111801561409657600080fd5b506040519080825280602002602001820160405280156140c0578160200160208202803683370190505b50905060005b8651811015614114576140f5838883815181106140df57fe5b602002602001015161352690919063ffffffff16565b82828151811061410157fe5b60209081029190910101526001016140c6565b5095945050505050565b6060600082806020019051810190613f8c9190614e7b565b6000606084516001600160401b038111801561415157600080fd5b5060405190808252806020026020018201604052801561417b578160200160208202803683370190505b5090506000805b8851811015614240576141db89828151811061419a57fe5b60200260200101516127e98984815181106141b157fe5b60200260200101518c85815181106141c557fe5b602002602001015161170490919063ffffffff16565b8382815181106141e757fe5b60200260200101818152505061423661422f89838151811061420557fe5b602002602001015185848151811061421957fe5b602002602001015161240390919063ffffffff16565b83906116d6565b9150600101614182565b50670de0b6b3a764000060005b895181101561434957600084828151811061426457fe5b60200260200101518411156142cb57600061428d6142818661248f565b8d85815181106140df57fe5b905060006142a1828c86815181106141c557fe5b90506142c261422f6142bb670de0b6b3a76400008c611704565b83906124b5565b925050506142e2565b8882815181106142d757fe5b602002602001015190505b600061430b8c84815181106142f357fe5b6020026020010151610c1e848f87815181106141c557fe5b905061433d6143368c858151811061431f57fe5b6020026020010151836134d790919063ffffffff16565b8590613526565b9350505060010161424d565b5061435d6143568261248f565b8790612403565b9998505050505050505050565b6000606084516001600160401b038111801561438557600080fd5b506040519080825280602002602001820160405280156143af578160200160208202803683370190505b5090506000805b88518110156144575761440f8982815181106143ce57fe5b6020026020010151610c1e8984815181106143e557fe5b60200260200101518c85815181106143f957fe5b60200260200101516116d690919063ffffffff16565b83828151811061441b57fe5b60200260200101818152505061444d61422f89838151811061443957fe5b60200260200101518584815181106140df57fe5b91506001016143b6565b50670de0b6b3a764000060005b89518110156145385760008385838151811061447c57fe5b602002602001015111156144d85760006144a161428186670de0b6b3a7640000611704565b905060006144b5828c86815181106141c557fe5b90506144cf61422f612713670de0b6b3a76400008c611704565b925050506144ef565b8882815181106144e457fe5b602002602001015190505b60006145188c848151811061450057fe5b6020026020010151610c1e848f87815181106143f957fe5b905061452c6143368c858151811061431f57fe5b93505050600101614464565b50670de0b6b3a764000081111561456f5761456561455e82670de0b6b3a7640000611704565b8790613526565b9350505050611285565b60009350505050611285565b60008061458c846127e981886116d6565b90506145a56729a2241af62c00008211156101336118dc565b60006145bc613fd8670de0b6b3a7640000896124b5565b905060006145dc6145d583670de0b6b3a7640000611704565b8a90612403565b905060006145e98961248f565b905060006145f78383612403565b905060006146058483611704565b905061404761404061461f670de0b6b3a76400008b611704565b84906124b5565b6040805160608101909152806000815260200160008152602001600081525090565b604080518082019091526000808252602082015290565b6040518060e00160405280600081526020016000815260200160008152602001600081526020016000815260200160008152602001600081525090565b604051806040016040528060008152602001600081525090565b803561081281615560565b600082601f8301126146d1578081fd5b81356146e46146df82615541565b61551b565b81815291506020808301908481018184028601820187101561470557600080fd5b60005b8481101561472457813584529282019290820190600101614708565b505050505092915050565b600082601f83011261473f578081fd5b815161474d6146df82615541565b81815291506020808301908481018184028601820187101561476e57600080fd5b60005b8481101561472457815184529282019290820190600101614771565b600082601f83011261479d578081fd5b81356001600160401b038111156147b2578182fd5b6147c5601f8201601f191660200161551b565b91508082528360208285010111156147dc57600080fd5b8060208401602084013760009082016020015292915050565b80356002811061081257600080fd5b803561081281615583565b600060e08284031215614820578081fd5b61482a60e061551b565b9050813581526020820135602082015260408201356040820152606082013560608201526080820135608082015260a082013560a082015260c082013560c082015292915050565b600060208284031215614883578081fd5b81356109d281615560565b600080604083850312156148a0578081fd5b82356148ab81615560565b915060208301356148bb81615560565b809150509250929050565b6000806000606084860312156148da578081fd5b83356148e581615560565b925060208401356148f581615560565b929592945050506040919091013590565b600080600080600080600060e0888a031215614920578485fd5b873561492b81615560565b9650602088013561493b81615560565b95506040880135945060608801359350608088013560ff8116811461495e578384fd5b9699959850939692959460a0840135945060c09093013592915050565b6000806040838503121561498d578182fd5b823561499881615560565b946020939093013593505050565b6000806000606084860312156149ba578081fd5b83516001600160401b03808211156149d0578283fd5b818601915086601f8301126149e3578283fd5b81516149f16146df82615541565b80828252602080830192508086018b828387028901011115614a11578788fd5b8796505b84871015614a3c578051614a2881615560565b845260019690960195928101928101614a15565b508901519097509350505080821115614a53578283fd5b50614a608682870161472f565b925050604084015190509250925092565b60006020808385031215614a83578182fd5b82356001600160401b03811115614a98578283fd5b8301601f81018513614aa8578283fd5b8035614ab66146df82615541565b818152838101908385016040808502860187018a1015614ad4578788fd5b8795505b84861015614b215780828b031215614aee578788fd5b614af78161551b565b614b018b84614804565b815282880135888201528452600195909501949286019290810190614ad8565b509098975050505050505050565b60006020808385031215614b41578182fd5b82356001600160401b03811115614b56578283fd5b8301601f81018513614b66578283fd5b8035614b746146df82615541565b818152838101908385016060808502860187018a1015614b92578788fd5b8795505b84861015614b215780828b031215614bac578788fd5b614bb58161551b565b614bbf8b84614804565b81528288013588820152604080840135908201528452600195909501949286019290810190614b96565b60008060408385031215614bfb578182fd5b82356001600160401b0380821115614c11578384fd5b614c1d868387016146c1565b9350602091508185013581811115614c33578384fd5b85019050601f81018613614c45578283fd5b8035614c536146df82615541565b8181528381019083850160e0808502860187018b1015614c71578788fd5b8795505b84861015614c9d57614c878b8361480f565b8452600195909501949286019290810190614c75565b5096999098509650505050505050565b60008060408385031215614cbf578182fd5b82356001600160401b03811115614cd4578283fd5b614ce0858286016146c1565b95602094909401359450505050565b600060208284031215614d00578081fd5b81356109d281615575565b600060208284031215614d1c578081fd5b81516109d281615575565b600060208284031215614d38578081fd5b5035919050565b600080600080600080600060e0888a031215614d59578081fd5b873596506020880135614d6b81615560565b95506040880135614d7b81615560565b945060608801356001600160401b0380821115614d96578283fd5b614da28b838c016146c1565b955060808a0135945060a08a0135935060c08a0135915080821115614dc5578283fd5b50614dd28a828b0161478d565b91505092959891949750929550565b600080600080600060a08688031215614df8578283fd5b505083359560208501359550604085013594606081013594506080013592509050565b600060208284031215614e2c578081fd5b81356001600160e01b0319811681146109d2578182fd5b600060208284031215614e54578081fd5b81516109d281615560565b600060208284031215614e70578081fd5b81516109d281615583565b600080600060608486031215614e8f578081fd5b8351614e9a81615583565b60208501519093506001600160401b03811115614eb5578182fd5b614a608682870161472f565b60008060408385031215614ed3578182fd5b8251614ede81615583565b6020939093015192949293505050565b600080600060608486031215614f02578081fd5b8351614f0d81615583565b602085015160409095015190969495509392505050565b60008060408385031215614f36578182fd5b8251614f4181615583565b60208401519092506001600160401b03811115614f5c578182fd5b614f688582860161472f565b9150509250929050565b600060208284031215614f83578081fd5b81356109d281615583565b600080600060608486031215614fa2578081fd5b8335614fad81615583565b95602085013595506040909401359392505050565b600060c08284031215614fd3578081fd5b614fdd60c061551b565b82358152602083013560208201526040830135604082015260608301356060820152608083013561500d81615575565b608082015260a0928301359281019290925250919050565b600060e08284031215615036578081fd5b6109d2838361480f565b600080600060608486031215615054578081fd5b83356001600160401b038082111561506a578283fd5b8186019150610120808389031215615080578384fd5b6150898161551b565b905061509588846147f5565b81526150a488602085016146b6565b60208201526150b688604085016146b6565b6040820152606083013560608201526080830135608082015260a083013560a08201526150e68860c085016146b6565b60c08201526150f88860e085016146b6565b60e08201526101008084013583811115615110578586fd5b61511c8a82870161478d565b9183019190915250976020870135975060409096013595945050505050565b600080610100838503121561514e578182fd5b8235915061515f846020850161480f565b90509250929050565b60008060006060848603121561517c578081fd5b505081359360208301359350604090920135919050565b600080600080608085870312156151a8578182fd5b5050823594602084013594506040840135936060013592509050565b6000815180845260208085019450808401835b838110156151f3578151875295820195908201906001016151d7565b509495945050505050565b9182526001600160e01b031916602082015260240190565b6000828483379101908152919050565b61190160f01b81526002810192909252602282015260420190565b6001600160a01b0391909116815260200190565b6020808252825182820181905260009190848201906040850190845b8181101561528d57835183529284019291840191600101615271565b50909695505050505050565b602080825282518282018190526000919060409081850190868401855b828110156152db578151805185528601518685015292840192908501906001016152b6565b5091979650505050505050565b6000602082526109d260208301846151c4565b60006040825261530e60408301856151c4565b828103602084015261128581856151c4565b901515815260200190565b9115158252602082015260400190565b92151583526020830191909152604082015260600190565b90815260200190565b9283526001600160a01b03918216602084015216604082015260600190565b9586526001600160a01b0394851660208701529290931660408501526060840152608083019190915260a082015260c00190565b9485526020850193909352604084019190915260608301526001600160a01b0316608082015260a00190565b93845260ff9290921660208401526040830152606082015260800190565b968752602087019590955260408601939093526060850191909152608084015260a083015260c082015260e00190565b9586526020860194909452604085019290925260608401521515608083015260a082015260c00190565b6000602080835283518082850152825b8181101561547f57858101830151858201604001528201615463565b818111156154905783604083870101525b50601f01601f1916929092016040019392505050565b600060e082019050825182526020830151602083015260408301516040830152606083015160608301526080830151608083015260a083015160a083015260c083015160c083015292915050565b600083825260406020830152610a0760408301846151c4565b60ff91909116815260200190565b6040518181016001600160401b038111828210171561553957600080fd5b604052919050565b60006001600160401b03821115615556578081fd5b5060209081020190565b6001600160a01b038116811461082957600080fd5b801515811461082957600080fd5b6003811061082957600080fdfea264697066735822122073eba6cba66be2e6cce7f7aea18de2f6c9d07e72aff537a3ba3694733d4c107464736f6c63430007010033",
			"opcodes": "PUSH2 0x2A0 PUSH1 0x40 MSTORE PUSH32 0x6E71EDAE12B1B97F4D1F60370FEF10105FA2FAAE0126114A169C64845D6126C9 PUSH2 0x120 MSTORE CALLVALUE DUP1 ISZERO PUSH3 0x37 JUMPI PUSH1 0x0 DUP1 REVERT JUMPDEST POP PUSH1 0x40 MLOAD PUSH3 0x6119 CODESIZE SUB DUP1 PUSH3 0x6119 DUP4 CODECOPY DUP2 ADD PUSH1 0x40 DUP2 SWAP1 MSTORE PUSH3 0x5A SWAP2 PUSH3 0x824 JUMP JUMPDEST PUSH2 0x100 DUP2 ADD MLOAD PUSH2 0x120 DUP3 ADD MLOAD PUSH1 0x20 DUP1 DUP5 ADD MLOAD PUSH1 0x40 DUP1 DUP7 ADD MLOAD DUP2 MLOAD DUP1 DUP4 ADD SWAP1 SWAP3 MSTORE PUSH1 0x1 DUP3 MSTORE PUSH1 0x31 PUSH1 0xF8 SHL DUP3 DUP6 ADD MSTORE PUSH2 0x160 DUP8 ADD MLOAD CALLER PUSH1 0x80 MSTORE PUSH1 0x60 SHL PUSH1 0x1 PUSH1 0x1 PUSH1 0x60 SHL SUB NOT AND PUSH1 0xA0 MSTORE DUP3 MLOAD DUP8 SWAP7 SWAP6 SWAP5 SWAP2 SWAP3 DUP5 SWAP3 DUP4 SWAP3 DUP4 SWAP2 DUP7 SWAP2 PUSH3 0xC3 SWAP2 PUSH1 0x3 SWAP2 SWAP1 DUP6 ADD SWAP1 PUSH3 0x6B7 JUMP JUMPDEST POP DUP1 MLOAD PUSH3 0xD9 SWAP1 PUSH1 0x4 SWAP1 PUSH1 0x20 DUP5 ADD SWAP1 PUSH3 0x6B7 JUMP JUMPDEST POP POP PUSH1 0x5 DUP1 SLOAD PUSH1 0xFF NOT AND PUSH1 0x12 OR SWAP1 SSTORE POP DUP2 MLOAD PUSH1 0x20 SWAP3 DUP4 ADD KECCAK256 PUSH1 0xC0 MSTORE DUP1 MLOAD SWAP2 ADD KECCAK256 PUSH1 0xE0 MSTORE POP POP PUSH32 0x8B73C3C69BB8FE3D512ECC4CF759CC79239F7B179B0FFACAA9A75D522B39400F PUSH2 0x100 MSTORE POP PUSH3 0x138 PUSH3 0x76A700 DUP4 GT ISZERO PUSH2 0x194 PUSH3 0x422 JUMP JUMPDEST PUSH3 0x14C PUSH3 0x278D00 DUP3 GT ISZERO PUSH2 0x195 PUSH3 0x422 JUMP JUMPDEST TIMESTAMP SWAP1 SWAP2 ADD PUSH2 0x140 DUP2 DUP2 MSTORE SWAP2 ADD PUSH2 0x160 MSTORE DUP2 ADD MLOAD PUSH3 0x16A SWAP1 PUSH3 0x437 JUMP JUMPDEST PUSH1 0xE0 DUP2 ADD MLOAD PUSH3 0x17A SWAP1 PUSH3 0x493 JUMP JUMPDEST DUP1 MLOAD PUSH1 0x40 MLOAD PUSH4 0x9B2760F PUSH1 0xE0 SHL DUP2 MSTORE PUSH1 0x0 SWAP2 PUSH1 0x1 PUSH1 0x1 PUSH1 0xA0 SHL SUB AND SWAP1 PUSH4 0x9B2760F SWAP1 PUSH3 0x1AD SWAP1 PUSH1 0x2 SWAP1 PUSH1 0x4 ADD PUSH3 0xA2A JUMP JUMPDEST PUSH1 0x20 PUSH1 0x40 MLOAD DUP1 DUP4 SUB DUP2 PUSH1 0x0 DUP8 DUP1 EXTCODESIZE ISZERO DUP1 ISZERO PUSH3 0x1C8 JUMPI PUSH1 0x0 DUP1 REVERT JUMPDEST POP GAS CALL ISZERO DUP1 ISZERO PUSH3 0x1DD JUMPI RETURNDATASIZE PUSH1 0x0 DUP1 RETURNDATACOPY RETURNDATASIZE PUSH1 0x0 REVERT JUMPDEST POP POP POP POP PUSH1 0x40 MLOAD RETURNDATASIZE PUSH1 0x1F NOT PUSH1 0x1F DUP3 ADD AND DUP3 ADD DUP1 PUSH1 0x40 MSTORE POP DUP2 ADD SWAP1 PUSH3 0x203 SWAP2 SWAP1 PUSH3 0x80B JUMP JUMPDEST PUSH1 0x40 DUP1 MLOAD PUSH1 0x2 DUP1 DUP3 MSTORE PUSH1 0x60 DUP1 DUP4 ADD DUP5 MSTORE SWAP4 SWAP5 POP SWAP1 SWAP2 PUSH1 0x20 DUP4 ADD SWAP1 DUP1 CALLDATASIZE DUP4 CALLDATACOPY ADD SWAP1 POP POP SWAP1 POP DUP3 PUSH1 0x60 ADD MLOAD DUP2 PUSH1 0x0 DUP2 MLOAD DUP2 LT PUSH3 0x23A JUMPI INVALID JUMPDEST PUSH1 0x20 MUL PUSH1 0x20 ADD ADD SWAP1 PUSH1 0x1 PUSH1 0x1 PUSH1 0xA0 SHL SUB AND SWAP1 DUP2 PUSH1 0x1 PUSH1 0x1 PUSH1 0xA0 SHL SUB AND DUP2 MSTORE POP POP DUP3 PUSH1 0x80 ADD MLOAD DUP2 PUSH1 0x1 DUP2 MLOAD DUP2 LT PUSH3 0x26D JUMPI INVALID JUMPDEST PUSH1 0x1 PUSH1 0x1 PUSH1 0xA0 SHL SUB SWAP3 DUP4 AND PUSH1 0x20 SWAP2 DUP3 MUL SWAP3 SWAP1 SWAP3 ADD ADD MSTORE DUP4 MLOAD AND PUSH4 0x66A9C7D2 DUP4 DUP4 PUSH1 0x2 PUSH1 0x40 MLOAD SWAP1 DUP1 DUP3 MSTORE DUP1 PUSH1 0x20 MUL PUSH1 0x20 ADD DUP3 ADD PUSH1 0x40 MSTORE DUP1 ISZERO PUSH3 0x2B9 JUMPI DUP2 PUSH1 0x20 ADD PUSH1 0x20 DUP3 MUL DUP1 CALLDATASIZE DUP4 CALLDATACOPY ADD SWAP1 POP JUMPDEST POP PUSH1 0x40 MLOAD DUP5 PUSH4 0xFFFFFFFF AND PUSH1 0xE0 SHL DUP2 MSTORE PUSH1 0x4 ADD PUSH3 0x2DA SWAP4 SWAP3 SWAP2 SWAP1 PUSH3 0x98E JUMP JUMPDEST PUSH1 0x0 PUSH1 0x40 MLOAD DUP1 DUP4 SUB DUP2 PUSH1 0x0 DUP8 DUP1 EXTCODESIZE ISZERO DUP1 ISZERO PUSH3 0x2F5 JUMPI PUSH1 0x0 DUP1 REVERT JUMPDEST POP GAS CALL ISZERO DUP1 ISZERO PUSH3 0x30A JUMPI RETURNDATASIZE PUSH1 0x0 DUP1 RETURNDATACOPY RETURNDATASIZE PUSH1 0x0 REVERT JUMPDEST POP POP DUP5 MLOAD PUSH1 0x1 PUSH1 0x1 PUSH1 0x60 SHL SUB NOT PUSH1 0x60 SWAP2 DUP3 SHL DUP2 AND PUSH2 0x180 MSTORE PUSH2 0x1A0 DUP7 SWAP1 MSTORE DUP2 DUP8 ADD DUP1 MLOAD DUP4 SHL DUP3 AND PUSH2 0x1C0 MSTORE PUSH1 0x80 DUP9 ADD MLOAD SWAP1 SWAP3 SHL AND PUSH2 0x1E0 MSTORE MLOAD PUSH3 0x351 SWAP3 POP SWAP1 POP PUSH3 0x511 JUMP JUMPDEST PUSH2 0x260 MSTORE PUSH1 0x80 DUP4 ADD MLOAD PUSH3 0x365 SWAP1 PUSH3 0x511 JUMP JUMPDEST PUSH2 0x280 MSTORE PUSH1 0xA0 DUP4 ADD MLOAD PUSH3 0x386 SWAP1 PUSH7 0x2386F26FC10000 GT ISZERO PUSH2 0x12E PUSH3 0x422 JUMP JUMPDEST PUSH3 0x3A8 PUSH7 0x2386F26FC10000 DUP5 PUSH1 0xC0 ADD MLOAD LT ISZERO PUSH2 0x12E PUSH3 0x422 PUSH1 0x20 SHL PUSH1 0x20 SHR JUMP JUMPDEST PUSH1 0x0 PUSH3 0x3CC DUP5 PUSH1 0xC0 ADD MLOAD DUP6 PUSH1 0xA0 ADD MLOAD PUSH3 0x5B3 PUSH1 0x20 SHL PUSH3 0x16D6 OR SWAP1 SWAP2 SWAP1 PUSH1 0x20 SHR JUMP JUMPDEST SWAP1 POP PUSH3 0x3E6 PUSH8 0xDE0B6B3A7640000 DUP3 EQ PUSH2 0x134 PUSH3 0x422 JUMP JUMPDEST PUSH1 0xA0 DUP5 ADD DUP1 MLOAD PUSH2 0x200 MSTORE PUSH1 0xC0 DUP6 ADD DUP1 MLOAD PUSH2 0x220 MSTORE MLOAD SWAP1 MLOAD LT ISZERO PUSH3 0x40C JUMPI PUSH1 0x1 PUSH3 0x40F JUMP JUMPDEST PUSH1 0x0 JUMPDEST PUSH1 0xFF AND PUSH2 0x240 MSTORE POP PUSH3 0xA7B SWAP4 POP POP POP POP JUMP JUMPDEST DUP2 PUSH3 0x433 JUMPI PUSH3 0x433 DUP2 PUSH3 0x5D0 JUMP JUMPDEST POP POP JUMP JUMPDEST PUSH3 0x453 DUP2 PUSH1 0x9 SLOAD PUSH3 0x623 PUSH1 0x20 SHL PUSH3 0x16E8 OR SWAP1 SWAP2 SWAP1 PUSH1 0x20 SHR JUMP JUMPDEST PUSH1 0x9 SSTORE PUSH1 0x40 MLOAD PUSH32 0x3E350B41E86A8E10F804ADE6D35340D620BE35569CC75AC943E8BB14AB80EAD1 SWAP1 PUSH3 0x488 SWAP1 DUP4 SWAP1 PUSH3 0x983 JUMP JUMPDEST PUSH1 0x40 MLOAD DUP1 SWAP2 SUB SWAP1 LOG1 POP JUMP JUMPDEST PUSH3 0x4A8 PUSH5 0xE8D4A51000 DUP3 LT ISZERO PUSH1 0xCB PUSH3 0x422 JUMP JUMPDEST PUSH3 0x4C0 PUSH8 0x16345785D8A0000 DUP3 GT ISZERO PUSH1 0xCA PUSH3 0x422 JUMP JUMPDEST PUSH3 0x4DC DUP2 PUSH1 0x9 SLOAD PUSH3 0x642 PUSH1 0x20 SHL PUSH3 0x16F6 OR SWAP1 SWAP2 SWAP1 PUSH1 0x20 SHR JUMP JUMPDEST PUSH1 0x9 SSTORE PUSH1 0x40 MLOAD PUSH32 0xA9BA3FFE0B6C366B81232CAAB38605A0699AD5398D6CCE76F91EE809E322DAFC SWAP1 PUSH3 0x488 SWAP1 DUP4 SWAP1 PUSH3 0xA3F JUMP JUMPDEST PUSH1 0x0 DUP1 DUP3 PUSH1 0x1 PUSH1 0x1 PUSH1 0xA0 SHL SUB AND PUSH4 0x313CE567 PUSH1 0x40 MLOAD DUP2 PUSH4 0xFFFFFFFF AND PUSH1 0xE0 SHL DUP2 MSTORE PUSH1 0x4 ADD PUSH1 0x20 PUSH1 0x40 MLOAD DUP1 DUP4 SUB DUP2 DUP7 DUP1 EXTCODESIZE ISZERO DUP1 ISZERO PUSH3 0x54E JUMPI PUSH1 0x0 DUP1 REVERT JUMPDEST POP GAS STATICCALL ISZERO DUP1 ISZERO PUSH3 0x563 JUMPI RETURNDATASIZE PUSH1 0x0 DUP1 RETURNDATACOPY RETURNDATASIZE PUSH1 0x0 REVERT JUMPDEST POP POP POP POP PUSH1 0x40 MLOAD RETURNDATASIZE PUSH1 0x1F NOT PUSH1 0x1F DUP3 ADD AND DUP3 ADD DUP1 PUSH1 0x40 MSTORE POP DUP2 ADD SWAP1 PUSH3 0x589 SWAP2 SWAP1 PUSH3 0x960 JUMP JUMPDEST PUSH1 0xFF AND SWAP1 POP PUSH1 0x0 PUSH3 0x5A8 PUSH1 0x12 DUP4 PUSH3 0x661 PUSH1 0x20 SHL PUSH3 0x1704 OR PUSH1 0x20 SHR JUMP JUMPDEST PUSH1 0xA EXP SWAP5 SWAP4 POP POP POP POP JUMP JUMPDEST PUSH1 0x0 DUP3 DUP3 ADD PUSH3 0x5C7 DUP5 DUP3 LT ISZERO DUP4 PUSH3 0x422 JUMP JUMPDEST SWAP1 POP JUMPDEST SWAP3 SWAP2 POP POP JUMP JUMPDEST PUSH3 0x461BCD PUSH1 0xE5 SHL PUSH1 0x0 SWAP1 DUP2 MSTORE PUSH1 0x20 PUSH1 0x4 MSTORE PUSH1 0x7 PUSH1 0x24 MSTORE PUSH7 0x42414C23000030 PUSH1 0xA DUP1 DUP5 DIV DUP2 DUP2 MOD PUSH1 0x30 SWAP1 DUP2 ADD PUSH1 0x8 SHL SWAP6 DUP4 SWAP1 MOD SWAP6 SWAP1 SWAP6 ADD SWAP1 DUP3 SWAP1 DIV SWAP2 DUP3 MOD SWAP1 SWAP5 ADD PUSH1 0x10 SHL SWAP4 SWAP1 SWAP4 ADD ADD PUSH1 0xC8 SHL PUSH1 0x44 MSTORE PUSH1 0x64 SWAP1 REVERT JUMPDEST PUSH1 0x0 PUSH3 0x5C7 DUP3 PUSH1 0x55 DUP6 PUSH3 0x679 PUSH1 0x20 SHL PUSH3 0x171A OR SWAP1 SWAP3 SWAP2 SWAP1 PUSH1 0x20 SHR JUMP JUMPDEST PUSH1 0x0 PUSH3 0x5C7 DUP3 PUSH1 0x56 DUP6 PUSH3 0x6A2 PUSH1 0x20 SHL PUSH3 0x1741 OR SWAP1 SWAP3 SWAP2 SWAP1 PUSH1 0x20 SHR JUMP JUMPDEST PUSH1 0x0 PUSH3 0x673 DUP4 DUP4 GT ISZERO PUSH1 0x1 PUSH3 0x422 JUMP JUMPDEST POP SWAP1 SUB SWAP1 JUMP JUMPDEST PUSH1 0x0 PUSH1 0x1 DUP3 SHL NOT DUP5 AND DUP3 DUP5 PUSH3 0x691 JUMPI PUSH1 0x0 PUSH3 0x694 JUMP JUMPDEST PUSH1 0x1 JUMPDEST PUSH1 0xFF AND SWAP1 SHL OR SWAP5 SWAP4 POP POP POP POP JUMP JUMPDEST PUSH1 0x1 PUSH1 0x1 PUSH1 0x40 SHL SUB DUP2 SHL NOT SWAP3 SWAP1 SWAP3 AND SWAP2 SHL OR SWAP1 JUMP JUMPDEST DUP3 DUP1 SLOAD PUSH1 0x1 DUP2 PUSH1 0x1 AND ISZERO PUSH2 0x100 MUL SUB AND PUSH1 0x2 SWAP1 DIV SWAP1 PUSH1 0x0 MSTORE PUSH1 0x20 PUSH1 0x0 KECCAK256 SWAP1 PUSH1 0x1F ADD PUSH1 0x20 SWAP1 DIV DUP2 ADD SWAP3 DUP3 PUSH1 0x1F LT PUSH3 0x6FA JUMPI DUP1 MLOAD PUSH1 0xFF NOT AND DUP4 DUP1 ADD OR DUP6 SSTORE PUSH3 0x72A JUMP JUMPDEST DUP3 DUP1 ADD PUSH1 0x1 ADD DUP6 SSTORE DUP3 ISZERO PUSH3 0x72A JUMPI SWAP2 DUP3 ADD JUMPDEST DUP3 DUP2 GT ISZERO PUSH3 0x72A JUMPI DUP3 MLOAD DUP3 SSTORE SWAP2 PUSH1 0x20 ADD SWAP2 SWAP1 PUSH1 0x1 ADD SWAP1 PUSH3 0x70D JUMP JUMPDEST POP PUSH3 0x738 SWAP3 SWAP2 POP PUSH3 0x73C JUMP JUMPDEST POP SWAP1 JUMP JUMPDEST JUMPDEST DUP1 DUP3 GT ISZERO PUSH3 0x738 JUMPI PUSH1 0x0 DUP2 SSTORE PUSH1 0x1 ADD PUSH3 0x73D JUMP JUMPDEST DUP1 MLOAD PUSH1 0x1 PUSH1 0x1 PUSH1 0xA0 SHL SUB DUP2 AND DUP2 EQ PUSH3 0x5CA JUMPI PUSH1 0x0 DUP1 REVERT JUMPDEST DUP1 MLOAD DUP1 ISZERO ISZERO DUP2 EQ PUSH3 0x5CA JUMPI PUSH1 0x0 DUP1 REVERT JUMPDEST PUSH1 0x0 DUP3 PUSH1 0x1F DUP4 ADD SLT PUSH3 0x78D JUMPI DUP1 DUP2 REVERT JUMPDEST DUP2 MLOAD PUSH1 0x1 PUSH1 0x1 PUSH1 0x40 SHL SUB DUP2 GT ISZERO PUSH3 0x7A3 JUMPI DUP2 DUP3 REVERT JUMPDEST PUSH1 0x20 PUSH3 0x7B9 PUSH1 0x1F DUP4 ADD PUSH1 0x1F NOT AND DUP3 ADD PUSH3 0xA48 JUMP JUMPDEST SWAP3 POP DUP2 DUP4 MSTORE DUP5 DUP2 DUP4 DUP7 ADD ADD GT ISZERO PUSH3 0x7D0 JUMPI PUSH1 0x0 DUP1 REVERT JUMPDEST PUSH1 0x0 JUMPDEST DUP3 DUP2 LT ISZERO PUSH3 0x7F0 JUMPI DUP5 DUP2 ADD DUP3 ADD MLOAD DUP5 DUP3 ADD DUP4 ADD MSTORE DUP2 ADD PUSH3 0x7D3 JUMP JUMPDEST DUP3 DUP2 GT ISZERO PUSH3 0x802 JUMPI PUSH1 0x0 DUP3 DUP5 DUP7 ADD ADD MSTORE JUMPDEST POP POP POP SWAP3 SWAP2 POP POP JUMP JUMPDEST PUSH1 0x0 PUSH1 0x20 DUP3 DUP5 SUB SLT ISZERO PUSH3 0x81D JUMPI DUP1 DUP2 REVERT JUMPDEST POP MLOAD SWAP2 SWAP1 POP JUMP JUMPDEST PUSH1 0x0 PUSH1 0x20 DUP3 DUP5 SUB SLT ISZERO PUSH3 0x836 JUMPI DUP1 DUP2 REVERT JUMPDEST DUP2 MLOAD PUSH1 0x1 PUSH1 0x1 PUSH1 0x40 SHL SUB DUP1 DUP3 GT ISZERO PUSH3 0x84D JUMPI DUP3 DUP4 REVERT JUMPDEST DUP2 DUP5 ADD SWAP2 POP PUSH2 0x180 DUP1 DUP4 DUP8 SUB SLT ISZERO PUSH3 0x864 JUMPI DUP4 DUP5 REVERT JUMPDEST PUSH3 0x86F DUP2 PUSH3 0xA48 JUMP JUMPDEST SWAP1 POP PUSH3 0x87D DUP7 DUP5 PUSH3 0x753 JUMP JUMPDEST DUP2 MSTORE PUSH1 0x20 DUP4 ADD MLOAD DUP3 DUP2 GT ISZERO PUSH3 0x891 JUMPI DUP5 DUP6 REVERT JUMPDEST PUSH3 0x89F DUP8 DUP3 DUP7 ADD PUSH3 0x77C JUMP JUMPDEST PUSH1 0x20 DUP4 ADD MSTORE POP PUSH1 0x40 DUP4 ADD MLOAD DUP3 DUP2 GT ISZERO PUSH3 0x8B7 JUMPI DUP5 DUP6 REVERT JUMPDEST PUSH3 0x8C5 DUP8 DUP3 DUP7 ADD PUSH3 0x77C JUMP JUMPDEST PUSH1 0x40 DUP4 ADD MSTORE POP PUSH3 0x8DA DUP7 PUSH1 0x60 DUP6 ADD PUSH3 0x753 JUMP JUMPDEST PUSH1 0x60 DUP3 ADD MSTORE PUSH3 0x8EE DUP7 PUSH1 0x80 DUP6 ADD PUSH3 0x753 JUMP JUMPDEST PUSH1 0x80 DUP3 ADD MSTORE PUSH1 0xA0 DUP4 DUP2 ADD MLOAD SWAP1 DUP3 ADD MSTORE PUSH1 0xC0 DUP1 DUP5 ADD MLOAD SWAP1 DUP3 ADD MSTORE PUSH1 0xE0 DUP1 DUP5 ADD MLOAD SWAP1 DUP3 ADD MSTORE PUSH2 0x100 DUP1 DUP5 ADD MLOAD SWAP1 DUP3 ADD MSTORE PUSH2 0x120 DUP1 DUP5 ADD MLOAD SWAP1 DUP3 ADD MSTORE PUSH2 0x140 SWAP2 POP PUSH3 0x93A DUP7 DUP4 DUP6 ADD PUSH3 0x76B JUMP JUMPDEST DUP3 DUP3 ADD MSTORE PUSH2 0x160 SWAP2 POP PUSH3 0x951 DUP7 DUP4 DUP6 ADD PUSH3 0x753 JUMP JUMPDEST SWAP2 DUP2 ADD SWAP2 SWAP1 SWAP2 MSTORE SWAP5 SWAP4 POP POP POP POP JUMP JUMPDEST PUSH1 0x0 PUSH1 0x20 DUP3 DUP5 SUB SLT ISZERO PUSH3 0x972 JUMPI DUP1 DUP2 REVERT JUMPDEST DUP2 MLOAD PUSH1 0xFF DUP2 AND DUP2 EQ PUSH3 0x5C7 JUMPI DUP2 DUP3 REVERT JUMPDEST SWAP1 ISZERO ISZERO DUP2 MSTORE PUSH1 0x20 ADD SWAP1 JUMP JUMPDEST PUSH1 0x0 PUSH1 0x60 DUP3 ADD DUP6 DUP4 MSTORE PUSH1 0x20 PUSH1 0x60 DUP2 DUP6 ADD MSTORE DUP2 DUP7 MLOAD DUP1 DUP5 MSTORE PUSH1 0x80 DUP7 ADD SWAP2 POP DUP3 DUP9 ADD SWAP4 POP DUP5 JUMPDEST DUP2 DUP2 LT ISZERO PUSH3 0x9DA JUMPI PUSH3 0x9C7 DUP6 MLOAD PUSH3 0xA6F JUMP JUMPDEST DUP4 MSTORE SWAP4 DUP4 ADD SWAP4 SWAP2 DUP4 ADD SWAP2 PUSH1 0x1 ADD PUSH3 0x9B2 JUMP JUMPDEST POP POP DUP5 DUP2 SUB PUSH1 0x40 DUP7 ADD MSTORE DUP6 MLOAD DUP1 DUP3 MSTORE SWAP1 DUP3 ADD SWAP3 POP DUP2 DUP7 ADD SWAP1 DUP5 JUMPDEST DUP2 DUP2 LT ISZERO PUSH3 0xA1C JUMPI PUSH3 0xA09 DUP4 MLOAD PUSH3 0xA6F JUMP JUMPDEST DUP6 MSTORE SWAP4 DUP4 ADD SWAP4 SWAP2 DUP4 ADD SWAP2 PUSH1 0x1 ADD PUSH3 0x9F4 JUMP JUMPDEST POP SWAP3 SWAP9 SWAP8 POP POP POP POP POP POP POP POP JUMP JUMPDEST PUSH1 0x20 DUP2 ADD PUSH1 0x3 DUP4 LT PUSH3 0xA39 JUMPI INVALID JUMPDEST SWAP2 SWAP1 MSTORE SWAP1 JUMP JUMPDEST SWAP1 DUP2 MSTORE PUSH1 0x20 ADD SWAP1 JUMP JUMPDEST PUSH1 0x40 MLOAD DUP2 DUP2 ADD PUSH1 0x1 PUSH1 0x1 PUSH1 0x40 SHL SUB DUP2 GT DUP3 DUP3 LT OR ISZERO PUSH3 0xA67 JUMPI PUSH1 0x0 DUP1 REVERT JUMPDEST PUSH1 0x40 MSTORE SWAP2 SWAP1 POP JUMP JUMPDEST PUSH1 0x1 PUSH1 0x1 PUSH1 0xA0 SHL SUB AND SWAP1 JUMP JUMPDEST PUSH1 0x80 MLOAD PUSH1 0xA0 MLOAD PUSH1 0x60 SHR PUSH1 0xC0 MLOAD PUSH1 0xE0 MLOAD PUSH2 0x100 MLOAD PUSH2 0x120 MLOAD PUSH2 0x140 MLOAD PUSH2 0x160 MLOAD PUSH2 0x180 MLOAD PUSH1 0x60 SHR PUSH2 0x1A0 MLOAD PUSH2 0x1C0 MLOAD PUSH1 0x60 SHR PUSH2 0x1E0 MLOAD PUSH1 0x60 SHR PUSH2 0x200 MLOAD PUSH2 0x220 MLOAD PUSH2 0x240 MLOAD PUSH2 0x260 MLOAD PUSH2 0x280 MLOAD PUSH2 0x55C6 PUSH3 0xB53 PUSH1 0x0 CODECOPY DUP1 PUSH2 0x2252 MSTORE POP DUP1 PUSH2 0x2279 MSTORE POP DUP1 PUSH2 0x3072 MSTORE DUP1 PUSH2 0x30A6 MSTORE DUP1 PUSH2 0x30E2 MSTORE POP DUP1 PUSH2 0x22A6 MSTORE DUP1 PUSH2 0x2342 MSTORE POP DUP1 PUSH2 0x22CD MSTORE DUP1 PUSH2 0x2320 MSTORE DUP1 PUSH2 0x2370 MSTORE POP POP DUP1 PUSH2 0xF12 MSTORE POP DUP1 PUSH2 0xA80 MSTORE POP DUP1 PUSH2 0xE60 MSTORE POP DUP1 PUSH2 0x18AD MSTORE POP DUP1 PUSH2 0x1889 MSTORE POP DUP1 PUSH2 0x1396 MSTORE POP DUP1 PUSH2 0x1BC0 MSTORE POP DUP1 PUSH2 0x1C02 MSTORE POP DUP1 PUSH2 0x1BE1 MSTORE POP DUP1 PUSH2 0xE3C MSTORE POP DUP1 PUSH2 0xDC7 MSTORE POP PUSH2 0x55C6 PUSH1 0x0 RETURN INVALID PUSH1 0x80 PUSH1 0x40 MSTORE CALLVALUE DUP1 ISZERO PUSH2 0x10 JUMPI PUSH1 0x0 DUP1 REVERT JUMPDEST POP PUSH1 0x4 CALLDATASIZE LT PUSH2 0x35D JUMPI PUSH1 0x0 CALLDATALOAD PUSH1 0xE0 SHR DUP1 PUSH4 0x7ECEBE00 GT PUSH2 0x1D3 JUMPI DUP1 PUSH4 0xBE7A6D1E GT PUSH2 0x104 JUMPI DUP1 PUSH4 0xD5125DB6 GT PUSH2 0xA2 JUMPI DUP1 PUSH4 0xE5FE5F3C GT PUSH2 0x7C JUMPI DUP1 PUSH4 0xE5FE5F3C EQ PUSH2 0x735 JUMPI DUP1 PUSH4 0xF89F27ED EQ PUSH2 0x748 JUMPI DUP1 PUSH4 0xFF7B6F1E EQ PUSH2 0x750 JUMPI DUP1 PUSH4 0xFFD088EB EQ PUSH2 0x763 JUMPI PUSH2 0x35D JUMP JUMPDEST DUP1 PUSH4 0xD5125DB6 EQ PUSH2 0x6FC JUMPI DUP1 PUSH4 0xD5C096C4 EQ PUSH2 0x70F JUMPI DUP1 PUSH4 0xDD62ED3E EQ PUSH2 0x722 JUMPI PUSH2 0x35D JUMP JUMPDEST DUP1 PUSH4 0xC3748EF1 GT PUSH2 0xDE JUMPI DUP1 PUSH4 0xC3748EF1 EQ PUSH2 0x696 JUMPI DUP1 PUSH4 0xC519A075 EQ PUSH2 0x6B6 JUMPI DUP1 PUSH4 0xD4376804 EQ PUSH2 0x6C9 JUMPI DUP1 PUSH4 0xD505ACCF EQ PUSH2 0x6E9 JUMPI PUSH2 0x35D JUMP JUMPDEST DUP1 PUSH4 0xBE7A6D1E EQ PUSH2 0x668 JUMPI DUP1 PUSH4 0xBF338666 EQ PUSH2 0x67B JUMPI DUP1 PUSH4 0xC0FF1A15 EQ PUSH2 0x68E JUMPI PUSH2 0x35D JUMP JUMPDEST DUP1 PUSH4 0x9D2C110C GT PUSH2 0x171 JUMPI DUP1 PUSH4 0xAAABADC5 GT PUSH2 0x14B JUMPI DUP1 PUSH4 0xAAABADC5 EQ PUSH2 0x632 JUMPI DUP1 PUSH4 0xABB9D0D5 EQ PUSH2 0x63A JUMPI DUP1 PUSH4 0xB10BE739 EQ PUSH2 0x64D JUMPI DUP1 PUSH4 0xB48B5B40 EQ PUSH2 0x660 JUMPI PUSH2 0x35D JUMP JUMPDEST DUP1 PUSH4 0x9D2C110C EQ PUSH2 0x5F9 JUMPI DUP1 PUSH4 0xA457C2D7 EQ PUSH2 0x60C JUMPI DUP1 PUSH4 0xA9059CBB EQ PUSH2 0x61F JUMPI PUSH2 0x35D JUMP JUMPDEST DUP1 PUSH4 0x893D20E8 GT PUSH2 0x1AD JUMPI DUP1 PUSH4 0x893D20E8 EQ PUSH2 0x5CC JUMPI DUP1 PUSH4 0x8D928AF8 EQ PUSH2 0x5E1 JUMPI DUP1 PUSH4 0x95D89B41 EQ PUSH2 0x5E9 JUMPI DUP1 PUSH4 0x9B02CDDE EQ PUSH2 0x5F1 JUMPI PUSH2 0x35D JUMP JUMPDEST DUP1 PUSH4 0x7ECEBE00 EQ PUSH2 0x593 JUMPI DUP1 PUSH4 0x851C1BB3 EQ PUSH2 0x5A6 JUMPI DUP1 PUSH4 0x87EC6817 EQ PUSH2 0x5B9 JUMPI PUSH2 0x35D JUMP JUMPDEST DUP1 PUSH4 0x38E9922E GT PUSH2 0x2AD JUMPI DUP1 PUSH4 0x6028BFD4 GT PUSH2 0x24B JUMPI DUP1 PUSH4 0x68A54DF2 GT PUSH2 0x225 JUMPI DUP1 PUSH4 0x68A54DF2 EQ PUSH2 0x52C JUMPI DUP1 PUSH4 0x6B843239 EQ PUSH2 0x53F JUMPI DUP1 PUSH4 0x70A08231 EQ PUSH2 0x55F JUMPI DUP1 PUSH4 0x74F3B009 EQ PUSH2 0x572 JUMPI PUSH2 0x35D JUMP JUMPDEST DUP1 PUSH4 0x6028BFD4 EQ PUSH2 0x4DD JUMPI DUP1 PUSH4 0x60D1507C EQ PUSH2 0x4FE JUMPI DUP1 PUSH4 0x679AEFCE EQ PUSH2 0x524 JUMPI PUSH2 0x35D JUMP JUMPDEST DUP1 PUSH4 0x3D48F8C1 GT PUSH2 0x287 JUMPI DUP1 PUSH4 0x3D48F8C1 EQ PUSH2 0x495 JUMPI DUP1 PUSH4 0x4A6B0B15 EQ PUSH2 0x4A8 JUMPI DUP1 PUSH4 0x55C67628 EQ PUSH2 0x4C2 JUMPI DUP1 PUSH4 0x57AAD013 EQ PUSH2 0x4CA JUMPI PUSH2 0x35D JUMP JUMPDEST DUP1 PUSH4 0x38E9922E EQ PUSH2 0x467 JUMPI DUP1 PUSH4 0x38FFF2D0 EQ PUSH2 0x47A JUMPI DUP1 PUSH4 0x39509351 EQ PUSH2 0x482 JUMPI PUSH2 0x35D JUMP JUMPDEST DUP1 PUSH4 0x23B872DD GT PUSH2 0x31A JUMPI DUP1 PUSH4 0x292C914A GT PUSH2 0x2F4 JUMPI DUP1 PUSH4 0x292C914A EQ PUSH2 0x43A JUMPI DUP1 PUSH4 0x3081BFEE EQ PUSH2 0x442 JUMPI DUP1 PUSH4 0x313CE567 EQ PUSH2 0x44A JUMPI DUP1 PUSH4 0x3644E515 EQ PUSH2 0x45F JUMPI PUSH2 0x35D JUMP JUMPDEST DUP1 PUSH4 0x23B872DD EQ PUSH2 0x401 JUMPI DUP1 PUSH4 0x259EFD16 EQ PUSH2 0x414 JUMPI DUP1 PUSH4 0x264959FB EQ PUSH2 0x427 JUMPI PUSH2 0x35D JUMP JUMPDEST DUP1 PUSH4 0x6FDDE03 EQ PUSH2 0x362 JUMPI DUP1 PUSH4 0x95EA7B3 EQ PUSH2 0x380 JUMPI DUP1 PUSH4 0x16C38B3C EQ PUSH2 0x3A0 JUMPI DUP1 PUSH4 0x18160DDD EQ PUSH2 0x3B5 JUMPI DUP1 PUSH4 0x1C0DE051 EQ PUSH2 0x3CA JUMPI DUP1 PUSH4 0x1DCCD830 EQ PUSH2 0x3E1 JUMPI JUMPDEST PUSH1 0x0 DUP1 REVERT JUMPDEST PUSH2 0x36A PUSH2 0x76B JUMP JUMPDEST PUSH1 0x40 MLOAD PUSH2 0x377 SWAP2 SWAP1 PUSH2 0x5453 JUMP JUMPDEST PUSH1 0x40 MLOAD DUP1 SWAP2 SUB SWAP1 RETURN JUMPDEST PUSH2 0x393 PUSH2 0x38E CALLDATASIZE PUSH1 0x4 PUSH2 0x497B JUMP JUMPDEST PUSH2 0x801 JUMP JUMPDEST PUSH1 0x40 MLOAD PUSH2 0x377 SWAP2 SWAP1 PUSH2 0x5320 JUMP JUMPDEST PUSH2 0x3B3 PUSH2 0x3AE CALLDATASIZE PUSH1 0x4 PUSH2 0x4CEF JUMP JUMPDEST PUSH2 0x818 JUMP JUMPDEST STOP JUMPDEST PUSH2 0x3BD PUSH2 0x82C JUMP JUMPDEST PUSH1 0x40 MLOAD PUSH2 0x377 SWAP2 SWAP1 PUSH2 0x5353 JUMP JUMPDEST PUSH2 0x3D2 PUSH2 0x832 JUMP JUMPDEST PUSH1 0x40 MLOAD PUSH2 0x377 SWAP4 SWAP3 SWAP2 SWAP1 PUSH2 0x533B JUMP JUMPDEST PUSH2 0x3F4 PUSH2 0x3EF CALLDATASIZE PUSH1 0x4 PUSH2 0x4B2F JUMP JUMPDEST PUSH2 0x85B JUMP JUMPDEST PUSH1 0x40 MLOAD PUSH2 0x377 SWAP2 SWAP1 PUSH2 0x52E8 JUMP JUMPDEST PUSH2 0x393 PUSH2 0x40F CALLDATASIZE PUSH1 0x4 PUSH2 0x48C6 JUMP JUMPDEST PUSH2 0x963 JUMP JUMPDEST PUSH2 0x3B3 PUSH2 0x422 CALLDATASIZE PUSH1 0x4 PUSH2 0x513B JUMP JUMPDEST PUSH2 0x9D9 JUMP JUMPDEST PUSH2 0x3BD PUSH2 0x435 CALLDATASIZE PUSH1 0x4 PUSH2 0x4F8E JUMP JUMPDEST PUSH2 0x9F8 JUMP JUMPDEST PUSH2 0x3B3 PUSH2 0xA0F JUMP JUMPDEST PUSH2 0x3B3 PUSH2 0xA43 JUMP JUMPDEST PUSH2 0x452 PUSH2 0xA4D JUMP JUMPDEST PUSH1 0x40 MLOAD PUSH2 0x377 SWAP2 SWAP1 PUSH2 0x550D JUMP JUMPDEST PUSH2 0x3BD PUSH2 0xA56 JUMP JUMPDEST PUSH2 0x3B3 PUSH2 0x475 CALLDATASIZE PUSH1 0x4 PUSH2 0x4D27 JUMP JUMPDEST PUSH2 0xA65 JUMP JUMPDEST PUSH2 0x3BD PUSH2 0xA7E JUMP JUMPDEST PUSH2 0x393 PUSH2 0x490 CALLDATASIZE PUSH1 0x4 PUSH2 0x497B JUMP JUMPDEST PUSH2 0xAA2 JUMP JUMPDEST PUSH2 0x3BD PUSH2 0x4A3 CALLDATASIZE PUSH1 0x4 PUSH2 0x5025 JUMP JUMPDEST PUSH2 0xADD JUMP JUMPDEST PUSH2 0x4B0 PUSH2 0xB12 JUMP JUMPDEST PUSH1 0x40 MLOAD PUSH2 0x377 SWAP7 SWAP6 SWAP5 SWAP4 SWAP3 SWAP2 SWAP1 PUSH2 0x5429 JUMP JUMPDEST PUSH2 0x3BD PUSH2 0xB6D JUMP JUMPDEST PUSH2 0x3BD PUSH2 0x4D8 CALLDATASIZE PUSH1 0x4 PUSH2 0x4D27 JUMP JUMPDEST PUSH2 0xB7A JUMP JUMPDEST PUSH2 0x4F0 PUSH2 0x4EB CALLDATASIZE PUSH1 0x4 PUSH2 0x4D3F JUMP JUMPDEST PUSH2 0xB85 JUMP JUMPDEST PUSH1 0x40 MLOAD PUSH2 0x377 SWAP3 SWAP2 SWAP1 PUSH2 0x54F4 JUMP JUMPDEST PUSH2 0x511 PUSH2 0x50C CALLDATASIZE PUSH1 0x4 PUSH2 0x4D27 JUMP JUMPDEST PUSH2 0xBB6 JUMP JUMPDEST PUSH1 0x40 MLOAD PUSH2 0x377 SWAP8 SWAP7 SWAP6 SWAP5 SWAP4 SWAP3 SWAP2 SWAP1 PUSH2 0x53F9 JUMP JUMPDEST PUSH2 0x3BD PUSH2 0xBFF JUMP JUMPDEST PUSH2 0x3B3 PUSH2 0x53A CALLDATASIZE PUSH1 0x4 PUSH2 0x4D27 JUMP JUMPDEST PUSH2 0xC24 JUMP JUMPDEST PUSH2 0x552 PUSH2 0x54D CALLDATASIZE PUSH1 0x4 PUSH2 0x4A71 JUMP JUMPDEST PUSH2 0xC37 JUMP JUMPDEST PUSH1 0x40 MLOAD PUSH2 0x377 SWAP2 SWAP1 PUSH2 0x5255 JUMP JUMPDEST PUSH2 0x3BD PUSH2 0x56D CALLDATASIZE PUSH1 0x4 PUSH2 0x4872 JUMP JUMPDEST PUSH2 0xCE8 JUMP JUMPDEST PUSH2 0x585 PUSH2 0x580 CALLDATASIZE PUSH1 0x4 PUSH2 0x4D3F JUMP JUMPDEST PUSH2 0xD03 JUMP JUMPDEST PUSH1 0x40 MLOAD PUSH2 0x377 SWAP3 SWAP2 SWAP1 PUSH2 0x52FB JUMP JUMPDEST PUSH2 0x3BD PUSH2 0x5A1 CALLDATASIZE PUSH1 0x4 PUSH2 0x4872 JUMP JUMPDEST PUSH2 0xDA8 JUMP JUMPDEST PUSH2 0x3BD PUSH2 0x5B4 CALLDATASIZE PUSH1 0x4 PUSH2 0x4E1B JUMP JUMPDEST PUSH2 0xDC3 JUMP JUMPDEST PUSH2 0x4F0 PUSH2 0x5C7 CALLDATASIZE PUSH1 0x4 PUSH2 0x4D3F JUMP JUMPDEST PUSH2 0xE15 JUMP JUMPDEST PUSH2 0x5D4 PUSH2 0xE3A JUMP JUMPDEST PUSH1 0x40 MLOAD PUSH2 0x377 SWAP2 SWAP1 PUSH2 0x5241 JUMP JUMPDEST PUSH2 0x5D4 PUSH2 0xE5E JUMP JUMPDEST PUSH2 0x36A PUSH2 0xE82 JUMP JUMPDEST PUSH2 0x3BD PUSH2 0xEE3 JUMP JUMPDEST PUSH2 0x3BD PUSH2 0x607 CALLDATASIZE PUSH1 0x4 PUSH2 0x5040 JUMP JUMPDEST PUSH2 0xEE9 JUMP JUMPDEST PUSH2 0x393 PUSH2 0x61A CALLDATASIZE PUSH1 0x4 PUSH2 0x497B JUMP JUMPDEST PUSH2 0x1098 JUMP JUMPDEST PUSH2 0x393 PUSH2 0x62D CALLDATASIZE PUSH1 0x4 PUSH2 0x497B JUMP JUMPDEST PUSH2 0x10D6 JUMP JUMPDEST PUSH2 0x5D4 PUSH2 0x10E3 JUMP JUMPDEST PUSH2 0x3BD PUSH2 0x648 CALLDATASIZE PUSH1 0x4 PUSH2 0x4D27 JUMP JUMPDEST PUSH2 0x10ED JUMP JUMPDEST PUSH2 0x3BD PUSH2 0x65B CALLDATASIZE PUSH1 0x4 PUSH2 0x4F72 JUMP JUMPDEST PUSH2 0x10F8 JUMP JUMPDEST PUSH2 0x3BD PUSH2 0x111A JUMP JUMPDEST PUSH2 0x3BD PUSH2 0x676 CALLDATASIZE PUSH1 0x4 PUSH2 0x5168 JUMP JUMPDEST PUSH2 0x1120 JUMP JUMPDEST PUSH2 0x3B3 PUSH2 0x689 CALLDATASIZE PUSH1 0x4 PUSH2 0x4FC2 JUMP JUMPDEST PUSH2 0x112D JUMP JUMPDEST PUSH2 0x3BD PUSH2 0x1136 JUMP JUMPDEST PUSH2 0x6A9 PUSH2 0x6A4 CALLDATASIZE PUSH1 0x4 PUSH2 0x4D27 JUMP JUMPDEST PUSH2 0x11F2 JUMP JUMPDEST PUSH1 0x40 MLOAD PUSH2 0x377 SWAP2 SWAP1 PUSH2 0x54A6 JUMP JUMPDEST PUSH2 0x3BD PUSH2 0x6C4 CALLDATASIZE PUSH1 0x4 PUSH2 0x5193 JUMP JUMPDEST PUSH2 0x1277 JUMP JUMPDEST PUSH2 0x6DC PUSH2 0x6D7 CALLDATASIZE PUSH1 0x4 PUSH2 0x4CAD JUMP JUMPDEST PUSH2 0x128E JUMP JUMPDEST PUSH1 0x40 MLOAD PUSH2 0x377 SWAP2 SWAP1 PUSH2 0x5299 JUMP JUMPDEST PUSH2 0x3B3 PUSH2 0x6F7 CALLDATASIZE PUSH1 0x4 PUSH2 0x4906 JUMP JUMPDEST PUSH2 0x1361 JUMP JUMPDEST PUSH2 0x3B3 PUSH2 0x70A CALLDATASIZE PUSH1 0x4 PUSH2 0x4DE1 JUMP JUMPDEST PUSH2 0x14AA JUMP JUMPDEST PUSH2 0x585 PUSH2 0x71D CALLDATASIZE PUSH1 0x4 PUSH2 0x4D3F JUMP JUMPDEST PUSH2 0x1504 JUMP JUMPDEST PUSH2 0x3BD PUSH2 0x730 CALLDATASIZE PUSH1 0x4 PUSH2 0x488E JUMP JUMPDEST PUSH2 0x1624 JUMP JUMPDEST PUSH2 0x3B3 PUSH2 0x743 CALLDATASIZE PUSH1 0x4 PUSH2 0x4BE9 JUMP JUMPDEST PUSH2 0x164F JUMP JUMPDEST PUSH2 0x3F4 PUSH2 0x1698 JUMP JUMPDEST PUSH2 0x6A9 PUSH2 0x75E CALLDATASIZE PUSH1 0x4 PUSH2 0x4DE1 JUMP JUMPDEST PUSH2 0x16A2 JUMP JUMPDEST PUSH2 0x3BD PUSH2 0x16CF JUMP JUMPDEST PUSH1 0x3 DUP1 SLOAD PUSH1 0x40 DUP1 MLOAD PUSH1 0x20 PUSH1 0x1F PUSH1 0x2 PUSH1 0x0 NOT PUSH2 0x100 PUSH1 0x1 DUP9 AND ISZERO MUL ADD SWAP1 SWAP6 AND SWAP5 SWAP1 SWAP5 DIV SWAP4 DUP5 ADD DUP2 SWAP1 DIV DUP2 MUL DUP3 ADD DUP2 ADD SWAP1 SWAP3 MSTORE DUP3 DUP2 MSTORE PUSH1 0x60 SWAP4 SWAP1 SWAP3 SWAP1 SWAP2 DUP4 ADD DUP3 DUP3 DUP1 ISZERO PUSH2 0x7F7 JUMPI DUP1 PUSH1 0x1F LT PUSH2 0x7CC JUMPI PUSH2 0x100 DUP1 DUP4 SLOAD DIV MUL DUP4 MSTORE SWAP2 PUSH1 0x20 ADD SWAP2 PUSH2 0x7F7 JUMP JUMPDEST DUP3 ADD SWAP2 SWAP1 PUSH1 0x0 MSTORE PUSH1 0x20 PUSH1 0x0 KECCAK256 SWAP1 JUMPDEST DUP2 SLOAD DUP2 MSTORE SWAP1 PUSH1 0x1 ADD SWAP1 PUSH1 0x20 ADD DUP1 DUP4 GT PUSH2 0x7DA JUMPI DUP3 SWAP1 SUB PUSH1 0x1F AND DUP3 ADD SWAP2 JUMPDEST POP POP POP POP POP SWAP1 POP SWAP1 JUMP JUMPDEST PUSH1 0x0 PUSH2 0x80E CALLER DUP5 DUP5 PUSH2 0x1756 JUMP JUMPDEST POP PUSH1 0x1 JUMPDEST SWAP3 SWAP2 POP POP JUMP JUMPDEST PUSH2 0x820 PUSH2 0x17BE JUMP JUMPDEST PUSH2 0x829 DUP2 PUSH2 0x17EC JUMP JUMPDEST POP JUMP JUMPDEST PUSH1 0x2 SLOAD SWAP1 JUMP JUMPDEST PUSH1 0x0 DUP1 PUSH1 0x0 PUSH2 0x83F PUSH2 0x186A JUMP JUMPDEST ISZERO SWAP3 POP PUSH2 0x84A PUSH2 0x1887 JUMP JUMPDEST SWAP2 POP PUSH2 0x854 PUSH2 0x18AB JUMP JUMPDEST SWAP1 POP SWAP1 SWAP2 SWAP3 JUMP JUMPDEST PUSH1 0x60 DUP2 MLOAD PUSH1 0x1 PUSH1 0x1 PUSH1 0x40 SHL SUB DUP2 GT DUP1 ISZERO PUSH2 0x874 JUMPI PUSH1 0x0 DUP1 REVERT JUMPDEST POP PUSH1 0x40 MLOAD SWAP1 DUP1 DUP3 MSTORE DUP1 PUSH1 0x20 MUL PUSH1 0x20 ADD DUP3 ADD PUSH1 0x40 MSTORE DUP1 ISZERO PUSH2 0x89E JUMPI DUP2 PUSH1 0x20 ADD PUSH1 0x20 DUP3 MUL DUP1 CALLDATASIZE DUP4 CALLDATACOPY ADD SWAP1 POP JUMPDEST POP SWAP1 POP PUSH1 0x0 PUSH2 0x8AE PUSH1 0x9 SLOAD PUSH2 0x18CF JUMP JUMPDEST SWAP1 POP PUSH2 0x8B8 PUSH2 0x4626 JUMP JUMPDEST PUSH1 0x0 JUMPDEST DUP5 MLOAD DUP2 LT ISZERO PUSH2 0x95B JUMPI DUP5 DUP2 DUP2 MLOAD DUP2 LT PUSH2 0x8D0 JUMPI INVALID JUMPDEST PUSH1 0x20 MUL PUSH1 0x20 ADD ADD MLOAD SWAP2 POP PUSH2 0x8EE DUP3 PUSH1 0x20 ADD MLOAD PUSH1 0x0 EQ ISZERO PUSH2 0x13C PUSH2 0x18DC JUMP JUMPDEST PUSH1 0x0 PUSH2 0x909 DUP4 PUSH1 0x0 ADD MLOAD DUP6 DUP6 PUSH1 0x20 ADD MLOAD DUP7 PUSH1 0x40 ADD MLOAD ADD PUSH2 0x18EE JUMP JUMPDEST SWAP1 POP PUSH1 0x0 PUSH2 0x920 DUP5 PUSH1 0x0 ADD MLOAD DUP7 DUP7 PUSH1 0x40 ADD MLOAD PUSH2 0x18EE JUMP JUMPDEST SWAP1 POP PUSH2 0x93A DUP5 PUSH1 0x20 ADD MLOAD DUP4 DUP4 SUB DUP2 PUSH2 0x934 JUMPI INVALID JUMPDEST SDIV PUSH2 0x1A34 JUMP JUMPDEST DUP7 DUP5 DUP2 MLOAD DUP2 LT PUSH2 0x946 JUMPI INVALID JUMPDEST PUSH1 0x20 SWAP1 DUP2 MUL SWAP2 SWAP1 SWAP2 ADD ADD MSTORE POP POP PUSH1 0x1 ADD PUSH2 0x8BB JUMP JUMPDEST POP POP POP SWAP2 SWAP1 POP JUMP JUMPDEST PUSH1 0x0 DUP1 PUSH2 0x970 DUP6 CALLER PUSH2 0x1624 JUMP JUMPDEST SWAP1 POP PUSH2 0x994 CALLER PUSH1 0x1 PUSH1 0x1 PUSH1 0xA0 SHL SUB DUP8 AND EQ DUP1 PUSH2 0x98C JUMPI POP DUP4 DUP3 LT ISZERO JUMPDEST PUSH2 0x19E PUSH2 0x18DC JUMP JUMPDEST PUSH2 0x99F DUP6 DUP6 DUP6 PUSH2 0x1A47 JUMP JUMPDEST CALLER PUSH1 0x1 PUSH1 0x1 PUSH1 0xA0 SHL SUB DUP7 AND EQ DUP1 ISZERO SWAP1 PUSH2 0x9BA JUMPI POP PUSH1 0x0 NOT DUP2 EQ ISZERO JUMPDEST ISZERO PUSH2 0x9CC JUMPI PUSH2 0x9CC DUP6 CALLER DUP6 DUP5 SUB PUSH2 0x1756 JUMP JUMPDEST PUSH1 0x1 SWAP2 POP POP JUMPDEST SWAP4 SWAP3 POP POP POP JUMP JUMPDEST PUSH2 0x9E2 DUP2 PUSH2 0xADD JUMP JUMPDEST PUSH1 0x0 SWAP3 DUP4 MSTORE PUSH1 0x8 PUSH1 0x20 MSTORE PUSH1 0x40 SWAP1 SWAP3 KECCAK256 SWAP2 SWAP1 SWAP2 SSTORE POP JUMP JUMPDEST PUSH1 0x0 PUSH2 0xA07 DUP5 DUP5 DUP5 TIMESTAMP SUB PUSH2 0x18EE JUMP JUMPDEST SWAP5 SWAP4 POP POP POP POP JUMP JUMPDEST PUSH2 0xA17 PUSH2 0x1B27 JUMP JUMPDEST PUSH2 0xA1F PUSH2 0x17BE JUMP JUMPDEST PUSH2 0xA29 PUSH1 0x1 PUSH2 0x1B3A JUMP JUMPDEST PUSH1 0x0 PUSH2 0xA33 PUSH2 0x82C JUMP JUMPDEST GT ISZERO PUSH2 0xA41 JUMPI PUSH2 0xA41 PUSH2 0x1B7A JUMP JUMPDEST JUMP JUMPDEST PUSH2 0xA41 PUSH1 0x0 PUSH2 0x1B3A JUMP JUMPDEST PUSH1 0x5 SLOAD PUSH1 0xFF AND SWAP1 JUMP JUMPDEST PUSH1 0x0 PUSH2 0xA60 PUSH2 0x1BBC JUMP JUMPDEST SWAP1 POP SWAP1 JUMP JUMPDEST PUSH2 0xA6D PUSH2 0x17BE JUMP JUMPDEST PUSH2 0xA75 PUSH2 0x1B27 JUMP JUMPDEST PUSH2 0x829 DUP2 PUSH2 0x1C59 JUMP JUMPDEST PUSH32 0x0 SWAP1 JUMP JUMPDEST CALLER PUSH1 0x0 DUP2 DUP2 MSTORE PUSH1 0x1 PUSH1 0x20 SWAP1 DUP2 MSTORE PUSH1 0x40 DUP1 DUP4 KECCAK256 PUSH1 0x1 PUSH1 0x1 PUSH1 0xA0 SHL SUB DUP8 AND DUP5 MSTORE SWAP1 SWAP2 MSTORE DUP2 KECCAK256 SLOAD SWAP1 SWAP2 PUSH2 0x80E SWAP2 DUP6 SWAP1 PUSH2 0xAD8 SWAP1 DUP7 PUSH2 0x16D6 JUMP JUMPDEST PUSH2 0x1756 JUMP JUMPDEST PUSH1 0x0 PUSH2 0xB0A DUP3 PUSH1 0x0 ADD MLOAD DUP4 PUSH1 0x20 ADD MLOAD DUP5 PUSH1 0x40 ADD MLOAD DUP6 PUSH1 0x60 ADD MLOAD DUP7 PUSH1 0x80 ADD MLOAD DUP8 PUSH1 0xA0 ADD MLOAD DUP9 PUSH1 0xC0 ADD MLOAD PUSH2 0x1CC2 JUMP JUMPDEST SWAP1 POP JUMPDEST SWAP2 SWAP1 POP JUMP JUMPDEST PUSH1 0x0 DUP1 PUSH1 0x0 DUP1 PUSH1 0x0 DUP1 PUSH1 0x0 PUSH1 0x9 SLOAD SWAP1 POP PUSH2 0xB2B DUP2 PUSH2 0x1D22 JUMP JUMPDEST SWAP7 POP PUSH2 0xB36 DUP2 PUSH2 0x1D2E JUMP JUMPDEST SWAP6 POP PUSH2 0xB41 DUP2 PUSH2 0x1D3B JUMP JUMPDEST SWAP5 POP PUSH2 0xB4C DUP2 PUSH2 0x18CF JUMP JUMPDEST SWAP4 POP PUSH2 0xB57 DUP2 PUSH2 0x1D48 JUMP JUMPDEST SWAP3 POP PUSH2 0xB62 DUP2 PUSH2 0x1D55 JUMP JUMPDEST SWAP2 POP POP SWAP1 SWAP2 SWAP3 SWAP4 SWAP5 SWAP6 JUMP JUMPDEST PUSH1 0x0 PUSH2 0xA60 PUSH1 0x9 SLOAD PUSH2 0x1D55 JUMP JUMPDEST PUSH1 0x0 PUSH2 0xB0A DUP3 PUSH2 0x1D62 JUMP JUMPDEST PUSH1 0x0 PUSH1 0x60 PUSH2 0xB95 DUP7 MLOAD PUSH1 0x2 PUSH2 0x1DA2 JUMP JUMPDEST PUSH2 0xBAA DUP10 DUP10 DUP10 DUP10 DUP10 DUP10 DUP10 PUSH2 0x1DAF PUSH2 0x1E69 PUSH2 0x1EE7 JUMP JUMPDEST SWAP8 POP SWAP8 SWAP6 POP POP POP POP POP POP JUMP JUMPDEST PUSH1 0x0 DUP1 PUSH1 0x0 DUP1 PUSH1 0x0 DUP1 PUSH1 0x0 PUSH2 0xBD1 PUSH2 0x400 DUP10 LT PUSH2 0x13B PUSH2 0x18DC JUMP JUMPDEST PUSH1 0x0 PUSH2 0xBDC DUP10 PUSH2 0x2006 JUMP JUMPDEST SWAP1 POP PUSH2 0xBE7 DUP2 PUSH2 0x2018 JUMP JUMPDEST SWAP6 SWAP16 SWAP5 SWAP15 POP SWAP3 SWAP13 POP SWAP1 SWAP11 POP SWAP9 POP SWAP7 POP SWAP1 SWAP5 POP SWAP3 POP POP POP JUMP JUMPDEST PUSH1 0x0 PUSH2 0xA60 PUSH2 0xC0C PUSH2 0x82C JUMP JUMPDEST PUSH2 0xC1E PUSH2 0xC17 PUSH2 0x1136 JUMP JUMPDEST PUSH1 0x2 PUSH2 0x207B JUMP JUMPDEST SWAP1 PUSH2 0x209F JUMP JUMPDEST PUSH1 0x9 SLOAD PUSH2 0xC31 SWAP1 DUP3 PUSH2 0x20F0 JUMP JUMPDEST PUSH1 0x9 SSTORE POP JUMP JUMPDEST PUSH1 0x60 DUP2 MLOAD PUSH1 0x1 PUSH1 0x1 PUSH1 0x40 SHL SUB DUP2 GT DUP1 ISZERO PUSH2 0xC50 JUMPI PUSH1 0x0 DUP1 REVERT JUMPDEST POP PUSH1 0x40 MLOAD SWAP1 DUP1 DUP3 MSTORE DUP1 PUSH1 0x20 MUL PUSH1 0x20 ADD DUP3 ADD PUSH1 0x40 MSTORE DUP1 ISZERO PUSH2 0xC7A JUMPI DUP2 PUSH1 0x20 ADD PUSH1 0x20 DUP3 MUL DUP1 CALLDATASIZE DUP4 CALLDATACOPY ADD SWAP1 POP JUMPDEST POP SWAP1 POP PUSH1 0x0 PUSH2 0xC8A PUSH1 0x9 SLOAD PUSH2 0x18CF JUMP JUMPDEST SWAP1 POP PUSH2 0xC94 PUSH2 0x4648 JUMP JUMPDEST PUSH1 0x0 JUMPDEST DUP5 MLOAD DUP2 LT ISZERO PUSH2 0x95B JUMPI DUP5 DUP2 DUP2 MLOAD DUP2 LT PUSH2 0xCAC JUMPI INVALID JUMPDEST PUSH1 0x20 MUL PUSH1 0x20 ADD ADD MLOAD SWAP2 POP PUSH2 0xCC9 DUP3 PUSH1 0x0 ADD MLOAD DUP5 DUP5 PUSH1 0x20 ADD MLOAD PUSH2 0x18EE JUMP JUMPDEST DUP5 DUP3 DUP2 MLOAD DUP2 LT PUSH2 0xCD5 JUMPI INVALID JUMPDEST PUSH1 0x20 SWAP1 DUP2 MUL SWAP2 SWAP1 SWAP2 ADD ADD MSTORE PUSH1 0x1 ADD PUSH2 0xC97 JUMP JUMPDEST PUSH1 0x1 PUSH1 0x1 PUSH1 0xA0 SHL SUB AND PUSH1 0x0 SWAP1 DUP2 MSTORE PUSH1 0x20 DUP2 SWAP1 MSTORE PUSH1 0x40 SWAP1 KECCAK256 SLOAD SWAP1 JUMP JUMPDEST PUSH1 0x60 DUP1 DUP9 PUSH2 0xD2D PUSH2 0xD12 PUSH2 0xE5E JUMP JUMPDEST PUSH1 0x1 PUSH1 0x1 PUSH1 0xA0 SHL SUB AND CALLER PUSH1 0x1 PUSH1 0x1 PUSH1 0xA0 SHL SUB AND EQ PUSH1 0xCD PUSH2 0x18DC JUMP JUMPDEST PUSH2 0xD42 PUSH2 0xD38 PUSH2 0xA7E JUMP JUMPDEST DUP3 EQ PUSH2 0x1F4 PUSH2 0x18DC JUMP JUMPDEST PUSH2 0xD4B DUP8 PUSH2 0x20FE JUMP JUMPDEST PUSH1 0x0 PUSH1 0x60 DUP1 PUSH2 0xD5F DUP14 DUP14 DUP14 DUP14 DUP14 DUP14 DUP14 PUSH2 0x1DAF JUMP JUMPDEST SWAP3 POP SWAP3 POP SWAP3 POP PUSH2 0xD6F DUP13 DUP5 PUSH2 0x2160 JUMP JUMPDEST PUSH2 0xD78 DUP3 PUSH2 0x1E69 JUMP JUMPDEST PUSH2 0xD81 DUP2 PUSH2 0x1E69 JUMP JUMPDEST PUSH2 0xD89 PUSH2 0x186A JUMP JUMPDEST ISZERO PUSH2 0xD96 JUMPI PUSH2 0xD96 PUSH2 0x1B7A JUMP JUMPDEST SWAP1 SWAP13 SWAP1 SWAP12 POP SWAP10 POP POP POP POP POP POP POP POP POP POP JUMP JUMPDEST PUSH1 0x1 PUSH1 0x1 PUSH1 0xA0 SHL SUB AND PUSH1 0x0 SWAP1 DUP2 MSTORE PUSH1 0x6 PUSH1 0x20 MSTORE PUSH1 0x40 SWAP1 KECCAK256 SLOAD SWAP1 JUMP JUMPDEST PUSH1 0x0 PUSH32 0x0 DUP3 PUSH1 0x40 MLOAD PUSH1 0x20 ADD PUSH2 0xDF8 SWAP3 SWAP2 SWAP1 PUSH2 0x51FE JUMP JUMPDEST PUSH1 0x40 MLOAD PUSH1 0x20 DUP2 DUP4 SUB SUB DUP2 MSTORE SWAP1 PUSH1 0x40 MSTORE DUP1 MLOAD SWAP1 PUSH1 0x20 ADD KECCAK256 SWAP1 POP SWAP2 SWAP1 POP JUMP JUMPDEST PUSH1 0x0 PUSH1 0x60 PUSH2 0xE25 DUP7 MLOAD PUSH1 0x2 PUSH2 0x1DA2 JUMP JUMPDEST PUSH2 0xBAA DUP10 DUP10 DUP10 DUP10 DUP10 DUP10 DUP10 PUSH2 0x216A PUSH2 0x21EB PUSH2 0x1EE7 JUMP JUMPDEST PUSH32 0x0 SWAP1 JUMP JUMPDEST PUSH32 0x0 SWAP1 JUMP JUMPDEST PUSH1 0x4 DUP1 SLOAD PUSH1 0x40 DUP1 MLOAD PUSH1 0x20 PUSH1 0x1F PUSH1 0x2 PUSH1 0x0 NOT PUSH2 0x100 PUSH1 0x1 DUP9 AND ISZERO MUL ADD SWAP1 SWAP6 AND SWAP5 SWAP1 SWAP5 DIV SWAP4 DUP5 ADD DUP2 SWAP1 DIV DUP2 MUL DUP3 ADD DUP2 ADD SWAP1 SWAP3 MSTORE DUP3 DUP2 MSTORE PUSH1 0x60 SWAP4 SWAP1 SWAP3 SWAP1 SWAP2 DUP4 ADD DUP3 DUP3 DUP1 ISZERO PUSH2 0x7F7 JUMPI DUP1 PUSH1 0x1F LT PUSH2 0x7CC JUMPI PUSH2 0x100 DUP1 DUP4 SLOAD DIV MUL DUP4 MSTORE SWAP2 PUSH1 0x20 ADD SWAP2 PUSH2 0x7F7 JUMP JUMPDEST PUSH1 0xA SLOAD SWAP1 JUMP JUMPDEST PUSH1 0x0 PUSH2 0xEF3 PUSH2 0x1B27 JUMP JUMPDEST DUP4 PUSH1 0x80 ADD MLOAD PUSH2 0xF03 PUSH2 0xD12 PUSH2 0xE5E JUMP JUMPDEST PUSH2 0xF0E PUSH2 0xD38 PUSH2 0xA7E JUMP JUMPDEST PUSH1 0x0 PUSH32 0x0 PUSH1 0x1 PUSH1 0x1 PUSH1 0xA0 SHL SUB AND DUP7 PUSH1 0x20 ADD MLOAD PUSH1 0x1 PUSH1 0x1 PUSH1 0xA0 SHL SUB AND EQ SWAP1 POP PUSH1 0x0 PUSH2 0xF56 DUP3 PUSH2 0x2249 JUMP JUMPDEST SWAP1 POP PUSH1 0x0 PUSH2 0xF64 DUP4 ISZERO PUSH2 0x2249 JUMP JUMPDEST SWAP1 POP PUSH1 0x0 PUSH2 0xF71 DUP5 PUSH2 0x229D JUMP JUMPDEST SWAP1 POP PUSH1 0x0 PUSH2 0xF7F DUP6 ISZERO PUSH2 0x229D JUMP JUMPDEST SWAP1 POP PUSH2 0xF8B DUP10 DUP6 PUSH2 0x22F1 JUMP JUMPDEST SWAP9 POP PUSH2 0xF97 DUP9 DUP5 PUSH2 0x22F1 JUMP JUMPDEST SWAP8 POP PUSH2 0xFC0 DUP11 PUSH1 0xA0 ADD MLOAD DUP7 PUSH2 0xFAC JUMPI DUP10 PUSH2 0xFAE JUMP JUMPDEST DUP11 JUMPDEST DUP8 PUSH2 0xFB9 JUMPI DUP12 PUSH2 0xFBB JUMP JUMPDEST DUP11 JUMPDEST PUSH2 0x22FD JUMP JUMPDEST PUSH1 0x0 DUP11 MLOAD PUSH1 0x1 DUP2 GT ISZERO PUSH2 0xFCF JUMPI INVALID JUMPDEST EQ ISZERO PUSH2 0x103D JUMPI PUSH1 0x0 PUSH2 0xFED PUSH2 0xFE2 PUSH2 0xB6D JUMP JUMPDEST PUSH1 0x60 DUP14 ADD MLOAD SWAP1 PUSH2 0x2403 JUMP JUMPDEST SWAP1 POP PUSH2 0x100F PUSH2 0x1009 DUP3 DUP14 PUSH1 0x60 ADD MLOAD PUSH2 0x1704 SWAP1 SWAP2 SWAP1 PUSH4 0xFFFFFFFF AND JUMP JUMPDEST DUP7 PUSH2 0x22F1 JUMP JUMPDEST PUSH1 0x60 DUP13 ADD MSTORE PUSH1 0x0 PUSH2 0x1023 DUP13 DUP13 DUP13 DUP8 DUP8 PUSH2 0x2447 JUMP JUMPDEST SWAP1 POP PUSH2 0x102F DUP2 DUP7 PUSH2 0x2464 JUMP JUMPDEST SWAP9 POP POP POP POP POP POP POP POP PUSH2 0x1090 JUMP JUMPDEST PUSH2 0x104B DUP11 PUSH1 0x60 ADD MLOAD DUP5 PUSH2 0x22F1 JUMP JUMPDEST PUSH1 0x60 DUP12 ADD MSTORE PUSH1 0x0 PUSH2 0x105F DUP12 DUP12 DUP12 DUP7 DUP7 PUSH2 0x2470 JUMP JUMPDEST SWAP1 POP PUSH2 0x106B DUP2 DUP7 PUSH2 0x2483 JUMP JUMPDEST SWAP1 POP PUSH2 0x1087 PUSH2 0x1080 PUSH2 0x107B PUSH2 0xB6D JUMP JUMPDEST PUSH2 0x248F JUMP JUMPDEST DUP3 SWAP1 PUSH2 0x24B5 JUMP JUMPDEST SWAP8 POP POP POP POP POP POP POP JUMPDEST POP SWAP4 SWAP3 POP POP POP JUMP JUMPDEST PUSH1 0x0 DUP1 PUSH2 0x10A5 CALLER DUP6 PUSH2 0x1624 JUMP JUMPDEST SWAP1 POP DUP1 DUP4 LT PUSH2 0x10BF JUMPI PUSH2 0x10BA CALLER DUP6 PUSH1 0x0 PUSH2 0x1756 JUMP JUMPDEST PUSH2 0x10CC JUMP JUMPDEST PUSH2 0x10CC CALLER DUP6 DUP6 DUP5 SUB PUSH2 0x1756 JUMP JUMPDEST POP PUSH1 0x1 SWAP4 SWAP3 POP POP POP JUMP JUMPDEST PUSH1 0x0 PUSH2 0x80E CALLER DUP5 DUP5 PUSH2 0x1A47 JUMP JUMPDEST PUSH1 0x0 PUSH2 0xA60 PUSH2 0x24F7 JUMP JUMPDEST PUSH1 0x0 PUSH2 0xB0A DUP3 PUSH2 0x1A34 JUMP JUMPDEST PUSH1 0x0 DUP1 PUSH2 0x110F DUP4 PUSH2 0x110A PUSH1 0x9 SLOAD PUSH2 0x18CF JUMP JUMPDEST PUSH2 0x2571 JUMP JUMPDEST SWAP1 POP PUSH2 0x9D2 DUP2 PUSH2 0x1A34 JUMP JUMPDEST PUSH2 0x400 SWAP1 JUMP JUMPDEST PUSH1 0x0 PUSH2 0xA07 DUP5 DUP5 DUP5 PUSH2 0x25A0 JUMP JUMPDEST PUSH2 0xC31 DUP2 PUSH2 0x25C7 JUMP JUMPDEST PUSH1 0x0 PUSH1 0x60 PUSH2 0x1142 PUSH2 0xE5E JUMP JUMPDEST PUSH1 0x1 PUSH1 0x1 PUSH1 0xA0 SHL SUB AND PUSH4 0xF94D4668 PUSH2 0x1158 PUSH2 0xA7E JUMP JUMPDEST PUSH1 0x40 MLOAD DUP3 PUSH4 0xFFFFFFFF AND PUSH1 0xE0 SHL DUP2 MSTORE PUSH1 0x4 ADD PUSH2 0x1174 SWAP2 SWAP1 PUSH2 0x5353 JUMP JUMPDEST PUSH1 0x0 PUSH1 0x40 MLOAD DUP1 DUP4 SUB DUP2 DUP7 DUP1 EXTCODESIZE ISZERO DUP1 ISZERO PUSH2 0x118C JUMPI PUSH1 0x0 DUP1 REVERT JUMPDEST POP GAS STATICCALL ISZERO DUP1 ISZERO PUSH2 0x11A0 JUMPI RETURNDATASIZE PUSH1 0x0 DUP1 RETURNDATACOPY RETURNDATASIZE PUSH1 0x0 REVERT JUMPDEST POP POP POP POP PUSH1 0x40 MLOAD RETURNDATASIZE PUSH1 0x0 DUP3 RETURNDATACOPY PUSH1 0x1F RETURNDATASIZE SWAP1 DUP2 ADD PUSH1 0x1F NOT AND DUP3 ADD PUSH1 0x40 MSTORE PUSH2 0x11C8 SWAP2 SWAP1 DUP2 ADD SWAP1 PUSH2 0x49A6 JUMP JUMPDEST POP SWAP2 POP POP PUSH2 0x11D5 DUP2 PUSH2 0x20FE JUMP JUMPDEST PUSH1 0x60 PUSH2 0x11DF PUSH2 0x2654 JUMP JUMPDEST SWAP1 POP PUSH2 0x11EB DUP2 DUP4 PUSH2 0x26C2 JUMP JUMPDEST SWAP3 POP POP POP SWAP1 JUMP JUMPDEST PUSH2 0x11FA PUSH2 0x465F JUMP JUMPDEST PUSH1 0x40 DUP1 MLOAD PUSH1 0xE0 DUP2 ADD SWAP1 SWAP2 MSTORE DUP1 PUSH2 0x1211 DUP5 PUSH1 0x0 PUSH2 0x2734 JUMP JUMPDEST DUP2 MSTORE PUSH1 0x20 ADD PUSH2 0x1221 DUP5 PUSH1 0x0 PUSH2 0x277F JUMP JUMPDEST DUP2 MSTORE PUSH1 0x20 ADD PUSH2 0x1231 DUP5 PUSH1 0x1 PUSH2 0x2734 JUMP JUMPDEST DUP2 MSTORE PUSH1 0x20 ADD PUSH2 0x1241 DUP5 PUSH1 0x1 PUSH2 0x277F JUMP JUMPDEST DUP2 MSTORE PUSH1 0x20 ADD PUSH2 0x1251 DUP5 PUSH1 0x2 PUSH2 0x2734 JUMP JUMPDEST DUP2 MSTORE PUSH1 0x20 ADD PUSH2 0x1261 DUP5 PUSH1 0x2 PUSH2 0x277F JUMP JUMPDEST DUP2 MSTORE PUSH1 0x20 ADD PUSH2 0x126F DUP5 PUSH2 0x27C3 JUMP JUMPDEST SWAP1 MSTORE SWAP3 SWAP2 POP POP JUMP JUMPDEST PUSH1 0x0 PUSH2 0x1285 DUP6 DUP6 DUP6 DUP6 PUSH2 0x27CF JUMP JUMPDEST SWAP6 SWAP5 POP POP POP POP POP JUMP JUMPDEST PUSH1 0x60 DUP3 MLOAD PUSH1 0x1 PUSH1 0x1 PUSH1 0x40 SHL SUB DUP2 GT DUP1 ISZERO PUSH2 0x12A7 JUMPI PUSH1 0x0 DUP1 REVERT JUMPDEST POP PUSH1 0x40 MLOAD SWAP1 DUP1 DUP3 MSTORE DUP1 PUSH1 0x20 MUL PUSH1 0x20 ADD DUP3 ADD PUSH1 0x40 MSTORE DUP1 ISZERO PUSH2 0x12E1 JUMPI DUP2 PUSH1 0x20 ADD JUMPDEST PUSH2 0x12CE PUSH2 0x469C JUMP JUMPDEST DUP2 MSTORE PUSH1 0x20 ADD SWAP1 PUSH1 0x1 SWAP1 SUB SWAP1 DUP2 PUSH2 0x12C6 JUMPI SWAP1 POP JUMPDEST POP SWAP1 POP PUSH1 0x0 JUMPDEST DUP4 MLOAD DUP2 LT ISZERO PUSH2 0x135A JUMPI PUSH1 0x0 DUP1 PUSH2 0x1310 DUP7 DUP5 DUP2 MLOAD DUP2 LT PUSH2 0x1302 JUMPI INVALID JUMPDEST PUSH1 0x20 MUL PUSH1 0x20 ADD ADD MLOAD DUP7 PUSH2 0x27FA JUMP JUMPDEST SWAP2 POP SWAP2 POP PUSH1 0x40 MLOAD DUP1 PUSH1 0x40 ADD PUSH1 0x40 MSTORE DUP1 PUSH2 0x1328 DUP5 PUSH2 0x27C3 JUMP JUMPDEST DUP2 MSTORE PUSH1 0x20 ADD PUSH2 0x1336 DUP4 PUSH2 0x27C3 JUMP JUMPDEST DUP2 MSTORE POP DUP5 DUP5 DUP2 MLOAD DUP2 LT PUSH2 0x1345 JUMPI INVALID JUMPDEST PUSH1 0x20 SWAP1 DUP2 MUL SWAP2 SWAP1 SWAP2 ADD ADD MSTORE POP POP PUSH1 0x1 ADD PUSH2 0x12E7 JUMP JUMPDEST POP SWAP3 SWAP2 POP POP JUMP JUMPDEST PUSH2 0x136F DUP5 TIMESTAMP GT ISZERO PUSH1 0xD1 PUSH2 0x18DC JUMP JUMPDEST PUSH1 0x1 PUSH1 0x1 PUSH1 0xA0 SHL SUB DUP8 AND PUSH1 0x0 SWAP1 DUP2 MSTORE PUSH1 0x6 PUSH1 0x20 SWAP1 DUP2 MSTORE PUSH1 0x40 DUP1 DUP4 KECCAK256 SLOAD SWAP1 MLOAD SWAP1 SWAP3 SWAP2 PUSH2 0x13C6 SWAP2 PUSH32 0x0 SWAP2 DUP13 SWAP2 DUP13 SWAP2 DUP13 SWAP2 DUP9 SWAP2 DUP14 SWAP2 ADD PUSH2 0x537B JUMP JUMPDEST PUSH1 0x40 MLOAD PUSH1 0x20 DUP2 DUP4 SUB SUB DUP2 MSTORE SWAP1 PUSH1 0x40 MSTORE DUP1 MLOAD SWAP1 PUSH1 0x20 ADD KECCAK256 SWAP1 POP PUSH1 0x0 PUSH2 0x13E9 DUP3 PUSH2 0x28AD JUMP JUMPDEST SWAP1 POP PUSH1 0x0 PUSH1 0x1 DUP3 DUP9 DUP9 DUP9 PUSH1 0x40 MLOAD PUSH1 0x0 DUP2 MSTORE PUSH1 0x20 ADD PUSH1 0x40 MSTORE PUSH1 0x40 MLOAD PUSH2 0x1410 SWAP5 SWAP4 SWAP3 SWAP2 SWAP1 PUSH2 0x53DB JUMP JUMPDEST PUSH1 0x20 PUSH1 0x40 MLOAD PUSH1 0x20 DUP2 SUB SWAP1 DUP1 DUP5 SUB SWAP1 DUP6 GAS STATICCALL ISZERO DUP1 ISZERO PUSH2 0x1432 JUMPI RETURNDATASIZE PUSH1 0x0 DUP1 RETURNDATACOPY RETURNDATASIZE PUSH1 0x0 REVERT JUMPDEST POP POP PUSH1 0x40 MLOAD PUSH1 0x1F NOT ADD MLOAD SWAP2 POP PUSH2 0x1474 SWAP1 POP PUSH1 0x1 PUSH1 0x1 PUSH1 0xA0 SHL SUB DUP3 AND ISZERO DUP1 ISZERO SWAP1 PUSH2 0x146C JUMPI POP DUP12 PUSH1 0x1 PUSH1 0x1 PUSH1 0xA0 SHL SUB AND DUP3 PUSH1 0x1 PUSH1 0x1 PUSH1 0xA0 SHL SUB AND EQ JUMPDEST PUSH2 0x1F8 PUSH2 0x18DC JUMP JUMPDEST PUSH1 0x1 PUSH1 0x1 PUSH1 0xA0 SHL SUB DUP12 AND PUSH1 0x0 SWAP1 DUP2 MSTORE PUSH1 0x6 PUSH1 0x20 MSTORE PUSH1 0x40 SWAP1 KECCAK256 PUSH1 0x1 DUP6 ADD SWAP1 SSTORE PUSH2 0x149D DUP12 DUP12 DUP12 PUSH2 0x1756 JUMP JUMPDEST POP POP POP POP POP POP POP POP POP POP POP JUMP JUMPDEST TIMESTAMP DUP6 SWAP1 SUB PUSH1 0x0 PUSH2 0x14BD DUP3 DUP8 DUP8 DUP8 DUP8 PUSH2 0x28C9 JUMP JUMPDEST SWAP1 POP PUSH32 0xA7F3E984C65D79D0FA58244DDDB6522F661C9DEA23FE4940801CBFE088107506 DUP7 DUP3 EQ ISZERO DUP3 PUSH1 0x40 MLOAD PUSH2 0x14F3 SWAP3 SWAP2 SWAP1 PUSH2 0x532B JUMP JUMPDEST PUSH1 0x40 MLOAD DUP1 SWAP2 SUB SWAP1 LOG1 POP POP POP POP POP POP POP JUMP JUMPDEST PUSH1 0x60 DUP1 DUP9 PUSH2 0x1513 PUSH2 0xD12 PUSH2 0xE5E JUMP JUMPDEST PUSH2 0x151E PUSH2 0xD38 PUSH2 0xA7E JUMP JUMPDEST PUSH2 0x1526 PUSH2 0x1B27 JUMP JUMPDEST PUSH1 0x0 PUSH2 0x1530 PUSH2 0x82C JUMP JUMPDEST PUSH2 0x15A0 JUMPI PUSH2 0x1540 DUP12 DUP12 DUP12 DUP9 PUSH2 0x2920 JUMP JUMPDEST SWAP5 POP SWAP1 POP PUSH2 0x1555 PUSH3 0xF4240 DUP3 LT ISZERO PUSH1 0xCC PUSH2 0x18DC JUMP JUMPDEST PUSH2 0x1563 PUSH1 0x0 PUSH3 0xF4240 PUSH2 0x29A9 JUMP JUMPDEST PUSH2 0x1572 DUP10 PUSH3 0xF4240 DUP4 SUB PUSH2 0x29A9 JUMP JUMPDEST PUSH2 0x157B DUP5 PUSH2 0x21EB JUMP JUMPDEST PUSH1 0x40 DUP1 MLOAD PUSH1 0x2 DUP1 DUP3 MSTORE PUSH1 0x60 DUP3 ADD DUP4 MSTORE SWAP1 SWAP2 PUSH1 0x20 DUP4 ADD SWAP1 DUP1 CALLDATASIZE DUP4 CALLDATACOPY ADD SWAP1 POP POP SWAP3 POP PUSH2 0x160E JUMP JUMPDEST PUSH2 0x15A9 DUP9 PUSH2 0x20FE JUMP JUMPDEST PUSH2 0x15DC DUP8 DUP10 PUSH1 0x0 DUP2 MLOAD DUP2 LT PUSH2 0x15BA JUMPI INVALID JUMPDEST PUSH1 0x20 MUL PUSH1 0x20 ADD ADD MLOAD DUP11 PUSH1 0x1 DUP2 MLOAD DUP2 LT PUSH2 0x15CF JUMPI INVALID JUMPDEST PUSH1 0x20 MUL PUSH1 0x20 ADD ADD MLOAD PUSH2 0x22FD JUMP JUMPDEST PUSH2 0x15EB DUP12 DUP12 DUP12 DUP12 DUP12 DUP12 DUP12 PUSH2 0x216A JUMP JUMPDEST SWAP1 SWAP6 POP SWAP4 POP SWAP1 POP PUSH2 0x15FC DUP10 DUP3 PUSH2 0x29A9 JUMP JUMPDEST PUSH2 0x1605 DUP5 PUSH2 0x21EB JUMP JUMPDEST PUSH2 0x160E DUP4 PUSH2 0x1E69 JUMP JUMPDEST PUSH2 0x1616 PUSH2 0x1B7A JUMP JUMPDEST POP POP SWAP8 POP SWAP8 SWAP6 POP POP POP POP POP POP JUMP JUMPDEST PUSH1 0x1 PUSH1 0x1 PUSH1 0xA0 SHL SUB SWAP2 DUP3 AND PUSH1 0x0 SWAP1 DUP2 MSTORE PUSH1 0x1 PUSH1 0x20 SWAP1 DUP2 MSTORE PUSH1 0x40 DUP1 DUP4 KECCAK256 SWAP4 SWAP1 SWAP5 AND DUP3 MSTORE SWAP2 SWAP1 SWAP2 MSTORE KECCAK256 SLOAD SWAP1 JUMP JUMPDEST PUSH1 0x0 JUMPDEST DUP3 MLOAD DUP2 LT ISZERO PUSH2 0x1693 JUMPI PUSH2 0x168B DUP4 DUP3 DUP2 MLOAD DUP2 LT PUSH2 0x166A JUMPI INVALID JUMPDEST PUSH1 0x20 MUL PUSH1 0x20 ADD ADD MLOAD DUP4 DUP4 DUP2 MLOAD DUP2 LT PUSH2 0x167E JUMPI INVALID JUMPDEST PUSH1 0x20 MUL PUSH1 0x20 ADD ADD MLOAD PUSH2 0x9D9 JUMP JUMPDEST PUSH1 0x1 ADD PUSH2 0x1652 JUMP JUMPDEST POP POP POP JUMP JUMPDEST PUSH1 0x60 PUSH2 0xA60 PUSH2 0x2654 JUMP JUMPDEST PUSH2 0x16AA PUSH2 0x465F JUMP JUMPDEST PUSH1 0x0 PUSH2 0x16B9 DUP8 DUP8 DUP8 DUP8 DUP8 PUSH2 0x29B3 JUMP JUMPDEST SWAP1 POP PUSH2 0x16C4 DUP2 PUSH2 0x11F2 JUMP JUMPDEST SWAP8 SWAP7 POP POP POP POP POP POP POP JUMP JUMPDEST PUSH3 0x1DE20 SWAP1 JUMP JUMPDEST PUSH1 0x0 DUP3 DUP3 ADD PUSH2 0x9D2 DUP5 DUP3 LT ISZERO DUP4 PUSH2 0x18DC JUMP JUMPDEST PUSH1 0x0 PUSH2 0x9D2 DUP4 DUP4 PUSH1 0x55 PUSH2 0x171A JUMP JUMPDEST PUSH1 0x0 PUSH2 0x9D2 DUP4 DUP4 PUSH1 0x56 PUSH2 0x1741 JUMP JUMPDEST PUSH1 0x0 PUSH2 0x1714 DUP4 DUP4 GT ISZERO PUSH1 0x1 PUSH2 0x18DC JUMP JUMPDEST POP SWAP1 SUB SWAP1 JUMP JUMPDEST PUSH1 0x0 PUSH1 0x1 DUP3 SHL NOT DUP5 AND DUP3 DUP5 PUSH2 0x1730 JUMPI PUSH1 0x0 PUSH2 0x1733 JUMP JUMPDEST PUSH1 0x1 JUMPDEST PUSH1 0xFF AND SWAP1 SHL OR SWAP5 SWAP4 POP POP POP POP JUMP JUMPDEST PUSH1 0x1 PUSH1 0x1 PUSH1 0x40 SHL SUB DUP2 SHL NOT SWAP3 SWAP1 SWAP3 AND SWAP2 SHL OR SWAP1 JUMP JUMPDEST PUSH1 0x1 PUSH1 0x1 PUSH1 0xA0 SHL SUB DUP1 DUP5 AND PUSH1 0x0 DUP2 DUP2 MSTORE PUSH1 0x1 PUSH1 0x20 SWAP1 DUP2 MSTORE PUSH1 0x40 DUP1 DUP4 KECCAK256 SWAP5 DUP8 AND DUP1 DUP5 MSTORE SWAP5 SWAP1 SWAP2 MSTORE SWAP1 DUP2 SWAP1 KECCAK256 DUP5 SWAP1 SSTORE MLOAD PUSH32 0x8C5BE1E5EBEC7D5BD14F71427D1E84F3DD0314C0F7B2291E5B200AC8C7C3B925 SWAP1 PUSH2 0x17B1 SWAP1 DUP6 SWAP1 PUSH2 0x5353 JUMP JUMPDEST PUSH1 0x40 MLOAD DUP1 SWAP2 SUB SWAP1 LOG3 POP POP POP JUMP JUMPDEST PUSH1 0x0 PUSH2 0x17D5 PUSH1 0x0 CALLDATALOAD PUSH1 0x1 PUSH1 0x1 PUSH1 0xE0 SHL SUB NOT AND PUSH2 0xDC3 JUMP JUMPDEST SWAP1 POP PUSH2 0x829 PUSH2 0x17E4 DUP3 CALLER PUSH2 0x2A13 JUMP JUMPDEST PUSH2 0x191 PUSH2 0x18DC JUMP JUMPDEST DUP1 ISZERO PUSH2 0x180C JUMPI PUSH2 0x1807 PUSH2 0x17FD PUSH2 0x1887 JUMP JUMPDEST TIMESTAMP LT PUSH2 0x193 PUSH2 0x18DC JUMP JUMPDEST PUSH2 0x1821 JUMP JUMPDEST PUSH2 0x1821 PUSH2 0x1817 PUSH2 0x18AB JUMP JUMPDEST TIMESTAMP LT PUSH2 0x1A9 PUSH2 0x18DC JUMP JUMPDEST PUSH1 0x7 DUP1 SLOAD PUSH1 0xFF NOT AND DUP3 ISZERO ISZERO OR SWAP1 SSTORE PUSH1 0x40 MLOAD PUSH32 0x9E3A5E37224532DEA67B89FACE185703738A228A6E8A23DEE546960180D3BE64 SWAP1 PUSH2 0x185F SWAP1 DUP4 SWAP1 PUSH2 0x5320 JUMP JUMPDEST PUSH1 0x40 MLOAD DUP1 SWAP2 SUB SWAP1 LOG1 POP JUMP JUMPDEST PUSH1 0x0 PUSH2 0x1874 PUSH2 0x18AB JUMP JUMPDEST TIMESTAMP GT DUP1 PUSH2 0xA60 JUMPI POP POP PUSH1 0x7 SLOAD PUSH1 0xFF AND ISZERO SWAP1 JUMP JUMPDEST PUSH32 0x0 SWAP1 JUMP JUMPDEST PUSH32 0x0 SWAP1 JUMP JUMPDEST PUSH1 0x0 PUSH2 0xB0A DUP3 PUSH1 0x4B PUSH2 0x2AFC JUMP JUMPDEST DUP2 PUSH2 0x18EA JUMPI PUSH2 0x18EA DUP2 PUSH2 0x2B04 JUMP JUMPDEST POP POP JUMP JUMPDEST PUSH1 0x0 PUSH2 0x18FF DUP3 TIMESTAMP LT ISZERO PUSH2 0x138 PUSH2 0x18DC JUMP JUMPDEST TIMESTAMP DUP3 SWAP1 SUB PUSH1 0x0 PUSH2 0x190E DUP6 PUSH2 0x2006 JUMP JUMPDEST SWAP1 POP PUSH1 0x0 PUSH2 0x191B DUP3 PUSH2 0x27C3 JUMP JUMPDEST SWAP1 POP PUSH2 0x192C PUSH1 0x0 DUP3 GT PUSH2 0x139 PUSH2 0x18DC JUMP JUMPDEST DUP3 DUP2 GT PUSH2 0x1958 JUMPI DUP1 DUP4 SUB DUP1 PUSH2 0x1941 DUP5 DUP11 PUSH2 0x2734 JUMP JUMPDEST MUL PUSH2 0x194C DUP5 DUP11 PUSH2 0x277F JUMP JUMPDEST ADD SWAP5 POP POP POP POP POP PUSH2 0x9D2 JUMP JUMPDEST PUSH1 0x0 PUSH2 0x1963 DUP8 PUSH2 0x2B57 JUMP JUMPDEST SWAP1 POP PUSH1 0x0 PUSH2 0x1970 DUP3 PUSH2 0x2006 JUMP JUMPDEST SWAP1 POP PUSH1 0x0 PUSH2 0x197D DUP3 PUSH2 0x27C3 JUMP JUMPDEST SWAP1 POP PUSH2 0x198E PUSH1 0x0 DUP3 GT PUSH2 0x139 PUSH2 0x18DC JUMP JUMPDEST PUSH2 0x199D DUP7 DUP3 GT ISZERO PUSH2 0x13A PUSH2 0x18DC JUMP JUMPDEST POP POP PUSH1 0x0 DUP1 PUSH2 0x19AC DUP7 DUP5 PUSH2 0x27FA JUMP JUMPDEST SWAP2 POP SWAP2 POP PUSH1 0x0 PUSH2 0x19BB DUP4 PUSH2 0x27C3 JUMP JUMPDEST PUSH2 0x19C4 DUP4 PUSH2 0x27C3 JUMP JUMPDEST SUB SWAP1 POP DUP1 ISZERO PUSH2 0x1A1C JUMPI PUSH1 0x0 PUSH2 0x19D9 DUP5 DUP14 PUSH2 0x277F JUMP JUMPDEST PUSH2 0x19E3 DUP5 DUP15 PUSH2 0x277F JUMP JUMPDEST SUB SWAP1 POP PUSH1 0x0 PUSH2 0x19F1 DUP6 PUSH2 0x27C3 JUMP JUMPDEST DUP10 SUB SWAP1 POP DUP3 DUP2 DUP4 MUL DUP2 PUSH2 0x1A00 JUMPI INVALID JUMPDEST SDIV PUSH2 0x1A0B DUP7 DUP16 PUSH2 0x277F JUMP JUMPDEST ADD SWAP10 POP POP POP POP POP POP POP POP POP POP PUSH2 0x9D2 JUMP JUMPDEST PUSH2 0x1A26 DUP4 DUP13 PUSH2 0x277F JUMP JUMPDEST SWAP8 POP POP POP POP POP POP POP POP PUSH2 0x9D2 JUMP JUMPDEST PUSH1 0x0 PUSH2 0xB0A PUSH6 0x5AF3107A4000 DUP4 MUL PUSH2 0x2B64 JUMP JUMPDEST PUSH2 0x1A5E PUSH1 0x1 PUSH1 0x1 PUSH1 0xA0 SHL SUB DUP5 AND ISZERO ISZERO PUSH2 0x198 PUSH2 0x18DC JUMP JUMPDEST PUSH2 0x1A75 PUSH1 0x1 PUSH1 0x1 PUSH1 0xA0 SHL SUB DUP4 AND ISZERO ISZERO PUSH2 0x199 PUSH2 0x18DC JUMP JUMPDEST PUSH2 0x1A80 DUP4 DUP4 DUP4 PUSH2 0x1693 JUMP JUMPDEST PUSH1 0x1 PUSH1 0x1 PUSH1 0xA0 SHL SUB DUP4 AND PUSH1 0x0 SWAP1 DUP2 MSTORE PUSH1 0x20 DUP2 SWAP1 MSTORE PUSH1 0x40 SWAP1 KECCAK256 SLOAD PUSH2 0x1AA6 SWAP1 DUP3 PUSH2 0x1A0 PUSH2 0x2F41 JUMP JUMPDEST PUSH1 0x1 PUSH1 0x1 PUSH1 0xA0 SHL SUB DUP1 DUP6 AND PUSH1 0x0 SWAP1 DUP2 MSTORE PUSH1 0x20 DUP2 SWAP1 MSTORE PUSH1 0x40 DUP1 DUP3 KECCAK256 SWAP4 SWAP1 SWAP4 SSTORE SWAP1 DUP5 AND DUP2 MSTORE KECCAK256 SLOAD PUSH2 0x1AD5 SWAP1 DUP3 PUSH2 0x16D6 JUMP JUMPDEST PUSH1 0x1 PUSH1 0x1 PUSH1 0xA0 SHL SUB DUP1 DUP5 AND PUSH1 0x0 DUP2 DUP2 MSTORE PUSH1 0x20 DUP2 SWAP1 MSTORE PUSH1 0x40 SWAP1 DUP2 SWAP1 KECCAK256 SWAP4 SWAP1 SWAP4 SSTORE SWAP2 MLOAD SWAP1 DUP6 AND SWAP1 PUSH32 0xDDF252AD1BE2C89B69C2B068FC378DAA952BA7F163C4A11628F55A4DF523B3EF SWAP1 PUSH2 0x17B1 SWAP1 DUP6 SWAP1 PUSH2 0x5353 JUMP JUMPDEST PUSH2 0xA41 PUSH2 0x1B32 PUSH2 0x186A JUMP JUMPDEST PUSH2 0x192 PUSH2 0x18DC JUMP JUMPDEST PUSH1 0x9 SLOAD PUSH2 0x1B47 SWAP1 DUP3 PUSH2 0x16E8 JUMP JUMPDEST PUSH1 0x9 SSTORE PUSH1 0x40 MLOAD PUSH32 0x3E350B41E86A8E10F804ADE6D35340D620BE35569CC75AC943E8BB14AB80EAD1 SWAP1 PUSH2 0x185F SWAP1 DUP4 SWAP1 PUSH2 0x5320 JUMP JUMPDEST PUSH1 0x9 SLOAD PUSH2 0x1B86 DUP2 PUSH2 0x1D48 JUMP JUMPDEST ISZERO PUSH2 0x829 JUMPI PUSH2 0x1BA0 PUSH2 0x1B99 PUSH1 0xA SLOAD PUSH2 0x1D62 JUMP JUMPDEST DUP3 SWAP1 PUSH2 0x2F57 JUMP JUMPDEST SWAP1 POP PUSH2 0xC31 PUSH2 0x1BB5 PUSH2 0x1BB0 PUSH2 0x82C JUMP JUMPDEST PUSH2 0x1D62 JUMP JUMPDEST DUP3 SWAP1 PUSH2 0x2F64 JUMP JUMPDEST PUSH1 0x0 PUSH32 0x0 PUSH32 0x0 PUSH32 0x0 PUSH2 0x1C29 PUSH2 0x2F72 JUMP JUMPDEST ADDRESS PUSH1 0x40 MLOAD PUSH1 0x20 ADD PUSH2 0x1C3E SWAP6 SWAP5 SWAP4 SWAP3 SWAP2 SWAP1 PUSH2 0x53AF JUMP JUMPDEST PUSH1 0x40 MLOAD PUSH1 0x20 DUP2 DUP4 SUB SUB DUP2 MSTORE SWAP1 PUSH1 0x40 MSTORE DUP1 MLOAD SWAP1 PUSH1 0x20 ADD KECCAK256 SWAP1 POP SWAP1 JUMP JUMPDEST PUSH2 0x1C6C PUSH5 0xE8D4A51000 DUP3 LT ISZERO PUSH1 0xCB PUSH2 0x18DC JUMP JUMPDEST PUSH2 0x1C82 PUSH8 0x16345785D8A0000 DUP3 GT ISZERO PUSH1 0xCA PUSH2 0x18DC JUMP JUMPDEST PUSH1 0x9 SLOAD PUSH2 0x1C8F SWAP1 DUP3 PUSH2 0x16F6 JUMP JUMPDEST PUSH1 0x9 SSTORE PUSH1 0x40 MLOAD PUSH32 0xA9BA3FFE0B6C366B81232CAAB38605A0699AD5398D6CCE76F91EE809E322DAFC SWAP1 PUSH2 0x185F SWAP1 DUP4 SWAP1 PUSH2 0x5353 JUMP JUMPDEST PUSH1 0x0 PUSH2 0x1CCE DUP3 DUP3 PUSH2 0x2F76 JUMP JUMPDEST PUSH2 0x1CD9 DUP5 PUSH1 0x1F PUSH2 0x2F7A JUMP JUMPDEST PUSH2 0x1CE4 DUP7 PUSH1 0x54 PUSH2 0x2F8B JUMP JUMPDEST PUSH2 0x1CEF DUP9 PUSH1 0x6A PUSH2 0x2F7A JUMP JUMPDEST PUSH2 0x1CFA DUP11 PUSH1 0x9F PUSH2 0x2F8B JUMP JUMPDEST PUSH2 0x1D05 DUP13 PUSH1 0xB5 PUSH2 0x2F7A JUMP JUMPDEST PUSH2 0x1D10 DUP15 PUSH1 0xEA PUSH2 0x2F8B JUMP JUMPDEST OR OR OR OR OR OR SWAP9 SWAP8 POP POP POP POP POP POP POP POP JUMP JUMPDEST PUSH1 0x0 PUSH2 0xB0A DUP3 DUP3 PUSH2 0x2F98 JUMP JUMPDEST PUSH1 0x0 PUSH2 0xB0A DUP3 PUSH1 0x16 PUSH2 0x2F98 JUMP JUMPDEST PUSH1 0x0 PUSH2 0xB0A DUP3 PUSH1 0x2C PUSH2 0x2FBF JUMP JUMPDEST PUSH1 0x0 PUSH2 0xB0A DUP3 PUSH1 0x55 PUSH2 0x2FC9 JUMP JUMPDEST PUSH1 0x0 PUSH2 0xB0A DUP3 PUSH1 0x56 PUSH2 0x2FD3 JUMP JUMPDEST PUSH1 0x0 DUP1 PUSH2 0x1D6E DUP4 PUSH2 0x2FE0 JUMP JUMPDEST SWAP1 POP PUSH1 0x0 DUP1 DUP3 SGT PUSH2 0x1D87 JUMPI PUSH6 0x2D79883D2000 DUP3 SUB PUSH2 0x1D91 JUMP JUMPDEST PUSH6 0x2D79883D2000 DUP3 ADD JUMPDEST PUSH6 0x5AF3107A4000 SWAP1 SDIV SWAP5 SWAP4 POP POP POP POP JUMP JUMPDEST PUSH2 0x18EA DUP2 DUP4 EQ PUSH1 0x67 PUSH2 0x18DC JUMP JUMPDEST PUSH1 0x0 PUSH1 0x60 DUP1 PUSH1 0x60 PUSH2 0x1DBE PUSH2 0x2654 JUMP JUMPDEST SWAP1 POP PUSH2 0x1DC8 PUSH2 0x186A JUMP JUMPDEST ISZERO PUSH2 0x1E10 JUMPI PUSH2 0x1DDE DUP8 DUP10 PUSH1 0x0 DUP2 MLOAD DUP2 LT PUSH2 0x15BA JUMPI INVALID JUMPDEST PUSH1 0x0 PUSH2 0x1DEA DUP3 DUP11 PUSH2 0x26C2 JUMP JUMPDEST SWAP1 POP PUSH2 0x1DFB DUP10 DUP4 PUSH1 0xA SLOAD DUP5 DUP12 PUSH2 0x303C JUMP JUMPDEST SWAP3 POP PUSH2 0x1E0A DUP10 DUP5 PUSH2 0x1704 PUSH2 0x3120 JUMP JUMPDEST POP PUSH2 0x1E31 JUMP JUMPDEST PUSH1 0x40 DUP1 MLOAD PUSH1 0x2 DUP1 DUP3 MSTORE PUSH1 0x60 DUP3 ADD DUP4 MSTORE SWAP1 SWAP2 PUSH1 0x20 DUP4 ADD SWAP1 DUP1 CALLDATASIZE DUP4 CALLDATACOPY ADD SWAP1 POP POP SWAP2 POP JUMPDEST PUSH2 0x1E3C DUP9 DUP3 DUP8 PUSH2 0x31B2 JUMP JUMPDEST SWAP1 SWAP5 POP SWAP3 POP PUSH2 0x1E4E DUP9 DUP5 PUSH2 0x1704 PUSH2 0x3120 JUMP JUMPDEST PUSH2 0x1E58 DUP2 DUP10 PUSH2 0x26C2 JUMP JUMPDEST PUSH1 0xA SSTORE POP SWAP8 POP SWAP8 POP SWAP8 SWAP5 POP POP POP POP POP JUMP JUMPDEST PUSH2 0x1E90 DUP2 PUSH1 0x0 DUP2 MLOAD DUP2 LT PUSH2 0x1E79 JUMPI INVALID JUMPDEST PUSH1 0x20 MUL PUSH1 0x20 ADD ADD MLOAD PUSH2 0x1E8B PUSH1 0x1 PUSH2 0x2249 JUMP JUMPDEST PUSH2 0x321F JUMP JUMPDEST DUP2 PUSH1 0x0 DUP2 MLOAD DUP2 LT PUSH2 0x1E9D JUMPI INVALID JUMPDEST PUSH1 0x20 MUL PUSH1 0x20 ADD ADD DUP2 DUP2 MSTORE POP POP PUSH2 0x1ECB DUP2 PUSH1 0x1 DUP2 MLOAD DUP2 LT PUSH2 0x1EB9 JUMPI INVALID JUMPDEST PUSH1 0x20 MUL PUSH1 0x20 ADD ADD MLOAD PUSH2 0x1E8B PUSH1 0x0 PUSH2 0x2249 JUMP JUMPDEST DUP2 PUSH1 0x1 DUP2 MLOAD DUP2 LT PUSH2 0x1ED8 JUMPI INVALID JUMPDEST PUSH1 0x20 MUL PUSH1 0x20 ADD ADD DUP2 DUP2 MSTORE POP POP POP JUMP JUMPDEST CALLER ADDRESS EQ PUSH2 0x1FA5 JUMPI PUSH1 0x0 ADDRESS PUSH1 0x1 PUSH1 0x1 PUSH1 0xA0 SHL SUB AND PUSH1 0x0 CALLDATASIZE PUSH1 0x40 MLOAD PUSH2 0x1F0B SWAP3 SWAP2 SWAP1 PUSH2 0x5216 JUMP JUMPDEST PUSH1 0x0 PUSH1 0x40 MLOAD DUP1 DUP4 SUB DUP2 PUSH1 0x0 DUP7 GAS CALL SWAP2 POP POP RETURNDATASIZE DUP1 PUSH1 0x0 DUP2 EQ PUSH2 0x1F48 JUMPI PUSH1 0x40 MLOAD SWAP2 POP PUSH1 0x1F NOT PUSH1 0x3F RETURNDATASIZE ADD AND DUP3 ADD PUSH1 0x40 MSTORE RETURNDATASIZE DUP3 MSTORE RETURNDATASIZE PUSH1 0x0 PUSH1 0x20 DUP5 ADD RETURNDATACOPY PUSH2 0x1F4D JUMP JUMPDEST PUSH1 0x60 SWAP2 POP JUMPDEST POP POP SWAP1 POP DUP1 PUSH1 0x0 DUP2 EQ PUSH2 0x1F5C JUMPI INVALID JUMPDEST PUSH1 0x4 PUSH1 0x0 DUP1 RETURNDATACOPY PUSH1 0x0 MLOAD PUSH1 0x1 PUSH1 0x1 PUSH1 0xE0 SHL SUB NOT AND PUSH4 0x43ADBAFB PUSH1 0xE0 SHL DUP2 EQ PUSH2 0x1F87 JUMPI RETURNDATASIZE PUSH1 0x0 DUP1 RETURNDATACOPY RETURNDATASIZE PUSH1 0x0 REVERT JUMPDEST POP PUSH1 0x20 PUSH1 0x4 PUSH1 0x0 RETURNDATACOPY PUSH1 0x40 PUSH1 0x20 MSTORE PUSH1 0x24 RETURNDATASIZE SUB PUSH1 0x24 PUSH1 0x40 RETURNDATACOPY PUSH1 0x1C RETURNDATASIZE ADD PUSH1 0x0 RETURN JUMPDEST PUSH2 0x1FAE DUP7 PUSH2 0x20FE JUMP JUMPDEST PUSH1 0x0 PUSH1 0x60 PUSH2 0x1FC5 DUP12 DUP12 DUP12 DUP12 DUP12 DUP12 DUP12 DUP12 PUSH4 0xFFFFFFFF AND JUMP JUMPDEST POP SWAP2 POP SWAP2 POP PUSH2 0x1FD7 DUP2 DUP5 PUSH4 0xFFFFFFFF AND JUMP JUMPDEST DUP1 MLOAD PUSH1 0x1F NOT DUP3 ADD DUP4 SWAP1 MSTORE PUSH4 0x43ADBAFB PUSH1 0x3F NOT DUP4 ADD MSTORE PUSH1 0x20 MUL PUSH1 0x23 NOT DUP3 ADD PUSH1 0x44 DUP3 ADD DUP2 REVERT JUMPDEST POP POP POP POP POP POP POP POP POP JUMP JUMPDEST PUSH1 0x0 SWAP1 DUP2 MSTORE PUSH1 0x8 PUSH1 0x20 MSTORE PUSH1 0x40 SWAP1 KECCAK256 SLOAD SWAP1 JUMP JUMPDEST PUSH1 0x0 DUP1 PUSH1 0x0 DUP1 PUSH1 0x0 DUP1 PUSH1 0x0 PUSH2 0x202C DUP9 PUSH2 0x323F JUMP JUMPDEST SWAP7 POP PUSH2 0x2037 DUP9 PUSH2 0x324C JUMP JUMPDEST SWAP6 POP PUSH2 0x2042 DUP9 PUSH2 0x3259 JUMP JUMPDEST SWAP5 POP PUSH2 0x204D DUP9 PUSH2 0x3266 JUMP JUMPDEST SWAP4 POP PUSH2 0x2058 DUP9 PUSH2 0x3273 JUMP JUMPDEST SWAP3 POP PUSH2 0x2063 DUP9 PUSH2 0x3280 JUMP JUMPDEST SWAP2 POP PUSH2 0x206E DUP9 PUSH2 0x27C3 JUMP JUMPDEST SWAP1 POP SWAP2 SWAP4 SWAP6 SWAP8 SWAP1 SWAP3 SWAP5 SWAP7 POP JUMP JUMPDEST PUSH1 0x0 DUP3 DUP3 MUL PUSH2 0x9D2 DUP5 ISZERO DUP1 PUSH2 0x2098 JUMPI POP DUP4 DUP6 DUP4 DUP2 PUSH2 0x2095 JUMPI INVALID JUMPDEST DIV EQ JUMPDEST PUSH1 0x3 PUSH2 0x18DC JUMP JUMPDEST PUSH1 0x0 PUSH2 0x20AE DUP3 ISZERO ISZERO PUSH1 0x4 PUSH2 0x18DC JUMP JUMPDEST DUP3 PUSH2 0x20BB JUMPI POP PUSH1 0x0 PUSH2 0x812 JUMP JUMPDEST PUSH8 0xDE0B6B3A7640000 DUP4 DUP2 MUL SWAP1 PUSH2 0x20DE SWAP1 DUP6 DUP4 DUP2 PUSH2 0x20D5 JUMPI INVALID JUMPDEST DIV EQ PUSH1 0x5 PUSH2 0x18DC JUMP JUMPDEST DUP3 DUP2 DUP2 PUSH2 0x20E7 JUMPI INVALID JUMPDEST DIV SWAP2 POP POP PUSH2 0x812 JUMP JUMPDEST PUSH1 0x0 PUSH2 0x9D2 DUP4 DUP4 PUSH1 0x4B PUSH2 0x328D JUMP JUMPDEST PUSH2 0x2125 DUP2 PUSH1 0x0 DUP2 MLOAD DUP2 LT PUSH2 0x210E JUMPI INVALID JUMPDEST PUSH1 0x20 MUL PUSH1 0x20 ADD ADD MLOAD PUSH2 0x2120 PUSH1 0x1 PUSH2 0x2249 JUMP JUMPDEST PUSH2 0x207B JUMP JUMPDEST DUP2 PUSH1 0x0 DUP2 MLOAD DUP2 LT PUSH2 0x2132 JUMPI INVALID JUMPDEST PUSH1 0x20 MUL PUSH1 0x20 ADD ADD DUP2 DUP2 MSTORE POP POP PUSH2 0x1ECB DUP2 PUSH1 0x1 DUP2 MLOAD DUP2 LT PUSH2 0x214E JUMPI INVALID JUMPDEST PUSH1 0x20 MUL PUSH1 0x20 ADD ADD MLOAD PUSH2 0x2120 PUSH1 0x0 PUSH2 0x2249 JUMP JUMPDEST PUSH2 0x18EA DUP3 DUP3 PUSH2 0x329D JUMP JUMPDEST PUSH1 0x0 PUSH1 0x60 DUP1 PUSH1 0x60 PUSH2 0x2179 PUSH2 0x2654 JUMP JUMPDEST SWAP1 POP PUSH1 0x0 PUSH2 0x2187 DUP3 DUP11 PUSH2 0x26C2 JUMP JUMPDEST SWAP1 POP PUSH1 0x60 PUSH2 0x219A DUP11 DUP5 PUSH1 0xA SLOAD DUP6 DUP13 PUSH2 0x303C JUMP JUMPDEST SWAP1 POP PUSH2 0x21A9 DUP11 DUP3 PUSH2 0x1704 PUSH2 0x3120 JUMP JUMPDEST PUSH1 0x0 PUSH1 0x60 PUSH2 0x21B8 DUP13 DUP7 DUP12 PUSH2 0x3359 JUMP JUMPDEST SWAP2 POP SWAP2 POP PUSH2 0x21C9 DUP13 DUP3 PUSH2 0x16D6 PUSH2 0x3120 JUMP JUMPDEST PUSH2 0x21D3 DUP6 DUP14 PUSH2 0x26C2 JUMP JUMPDEST PUSH1 0xA SSTORE SWAP1 SWAP15 SWAP1 SWAP14 POP SWAP1 SWAP12 POP SWAP10 POP POP POP POP POP POP POP POP POP POP JUMP JUMPDEST PUSH2 0x2212 DUP2 PUSH1 0x0 DUP2 MLOAD DUP2 LT PUSH2 0x21FB JUMPI INVALID JUMPDEST PUSH1 0x20 MUL PUSH1 0x20 ADD ADD MLOAD PUSH2 0x220D PUSH1 0x1 PUSH2 0x2249 JUMP JUMPDEST PUSH2 0x33B3 JUMP JUMPDEST DUP2 PUSH1 0x0 DUP2 MLOAD DUP2 LT PUSH2 0x221F JUMPI INVALID JUMPDEST PUSH1 0x20 MUL PUSH1 0x20 ADD ADD DUP2 DUP2 MSTORE POP POP PUSH2 0x1ECB DUP2 PUSH1 0x1 DUP2 MLOAD DUP2 LT PUSH2 0x223B JUMPI INVALID JUMPDEST PUSH1 0x20 MUL PUSH1 0x20 ADD ADD MLOAD PUSH2 0x220D PUSH1 0x0 JUMPDEST PUSH1 0x0 DUP2 PUSH2 0x2276 JUMPI PUSH32 0x0 PUSH2 0xB0A JUMP JUMPDEST POP PUSH32 0x0 SWAP2 SWAP1 POP JUMP JUMPDEST PUSH1 0x0 DUP2 PUSH2 0x22CA JUMPI PUSH32 0x0 PUSH2 0xB0A JUMP JUMPDEST POP PUSH32 0x0 SWAP2 SWAP1 POP JUMP JUMPDEST PUSH1 0x0 PUSH2 0x9D2 DUP4 DUP4 PUSH2 0x207B JUMP JUMPDEST PUSH1 0x9 SLOAD PUSH2 0x2309 DUP2 PUSH2 0x1D48 JUMP JUMPDEST DUP1 ISZERO PUSH2 0x2314 JUMPI POP DUP4 NUMBER GT JUMPDEST ISZERO PUSH2 0x23FD JUMPI PUSH1 0x0 PUSH2 0x2367 PUSH32 0x0 DUP6 PUSH32 0x0 DUP7 PUSH2 0x27CF JUMP JUMPDEST SWAP1 POP PUSH1 0x0 PUSH2 0x239E PUSH32 0x0 DUP7 PUSH2 0x2399 DUP7 PUSH2 0x1D2E JUMP JUMPDEST PUSH2 0x25A0 JUMP JUMPDEST SWAP1 POP PUSH1 0x0 PUSH2 0x23AB DUP5 PUSH2 0x18CF JUMP JUMPDEST SWAP1 POP PUSH1 0x0 PUSH2 0x23B8 DUP6 PUSH2 0x1D3B JUMP JUMPDEST SWAP1 POP PUSH1 0x0 PUSH2 0x23D1 DUP3 DUP5 DUP8 DUP8 PUSH2 0x23CC DUP12 PUSH2 0x1D22 JUMP JUMPDEST PUSH2 0x28C9 JUMP JUMPDEST SWAP1 POP DUP1 DUP4 EQ PUSH2 0x1FFB JUMPI PUSH2 0x23E4 DUP7 DUP3 PUSH2 0x20F0 JUMP JUMPDEST SWAP6 POP PUSH2 0x23F0 DUP7 TIMESTAMP PUSH2 0x33E6 JUMP JUMPDEST PUSH1 0x9 DUP2 SWAP1 SSTORE SWAP6 POP POP POP POP POP POP JUMPDEST POP POP POP POP JUMP JUMPDEST PUSH1 0x0 DUP3 DUP3 MUL PUSH2 0x241D DUP5 ISZERO DUP1 PUSH2 0x2098 JUMPI POP DUP4 DUP6 DUP4 DUP2 PUSH2 0x2095 JUMPI INVALID JUMPDEST DUP1 PUSH2 0x242C JUMPI PUSH1 0x0 SWAP2 POP POP PUSH2 0x812 JUMP JUMPDEST PUSH8 0xDE0B6B3A7640000 PUSH1 0x0 NOT DUP3 ADD JUMPDEST DIV PUSH1 0x1 ADD SWAP2 POP POP PUSH2 0x812 JUMP JUMPDEST PUSH1 0x0 PUSH2 0x245A DUP6 DUP5 DUP7 DUP6 DUP11 PUSH1 0x60 ADD MLOAD PUSH2 0x33F4 JUMP JUMPDEST SWAP7 SWAP6 POP POP POP POP POP POP JUMP JUMPDEST PUSH1 0x0 PUSH2 0x9D2 DUP4 DUP4 PUSH2 0x321F JUMP JUMPDEST PUSH1 0x0 PUSH2 0x245A DUP6 DUP5 DUP7 DUP6 DUP11 PUSH1 0x60 ADD MLOAD PUSH2 0x3461 JUMP JUMPDEST PUSH1 0x0 PUSH2 0x9D2 DUP4 DUP4 PUSH2 0x33B3 JUMP JUMPDEST PUSH1 0x0 PUSH8 0xDE0B6B3A7640000 DUP3 LT PUSH2 0x24A7 JUMPI PUSH1 0x0 PUSH2 0xB0A JUMP JUMPDEST POP PUSH8 0xDE0B6B3A7640000 SUB SWAP1 JUMP JUMPDEST PUSH1 0x0 PUSH2 0x24C4 DUP3 ISZERO ISZERO PUSH1 0x4 PUSH2 0x18DC JUMP JUMPDEST DUP3 PUSH2 0x24D1 JUMPI POP PUSH1 0x0 PUSH2 0x812 JUMP JUMPDEST PUSH8 0xDE0B6B3A7640000 DUP4 DUP2 MUL SWAP1 PUSH2 0x24EB SWAP1 DUP6 DUP4 DUP2 PUSH2 0x20D5 JUMPI INVALID JUMPDEST DUP3 PUSH1 0x1 DUP3 SUB DUP2 PUSH2 0x243B JUMPI INVALID JUMPDEST PUSH1 0x0 PUSH2 0x2501 PUSH2 0xE5E JUMP JUMPDEST PUSH1 0x1 PUSH1 0x1 PUSH1 0xA0 SHL SUB AND PUSH4 0xAAABADC5 PUSH1 0x40 MLOAD DUP2 PUSH4 0xFFFFFFFF AND PUSH1 0xE0 SHL DUP2 MSTORE PUSH1 0x4 ADD PUSH1 0x20 PUSH1 0x40 MLOAD DUP1 DUP4 SUB DUP2 DUP7 DUP1 EXTCODESIZE ISZERO DUP1 ISZERO PUSH2 0x2539 JUMPI PUSH1 0x0 DUP1 REVERT JUMPDEST POP GAS STATICCALL ISZERO DUP1 ISZERO PUSH2 0x254D JUMPI RETURNDATASIZE PUSH1 0x0 DUP1 RETURNDATACOPY RETURNDATASIZE PUSH1 0x0 REVERT JUMPDEST POP POP POP POP PUSH1 0x40 MLOAD RETURNDATASIZE PUSH1 0x1F NOT PUSH1 0x1F DUP3 ADD AND DUP3 ADD DUP1 PUSH1 0x40 MSTORE POP DUP2 ADD SWAP1 PUSH2 0xA60 SWAP2 SWAP1 PUSH2 0x4E43 JUMP JUMPDEST PUSH1 0x0 DUP1 PUSH2 0x257D DUP4 PUSH2 0x2006 JUMP JUMPDEST SWAP1 POP PUSH2 0x2596 PUSH1 0x0 PUSH2 0x258D DUP4 PUSH2 0x27C3 JUMP JUMPDEST GT PUSH2 0x139 PUSH2 0x18DC JUMP JUMPDEST PUSH2 0xA07 DUP2 DUP6 PUSH2 0x2734 JUMP JUMPDEST PUSH1 0x0 DUP1 PUSH2 0x25AD DUP5 DUP7 PUSH2 0x24B5 JUMP JUMPDEST SWAP1 POP PUSH1 0x0 PUSH2 0x25BA DUP3 PUSH2 0x1D62 JUMP JUMPDEST SWAP4 SWAP1 SWAP4 SUB SWAP6 SWAP5 POP POP POP POP POP JUMP JUMPDEST PUSH1 0x0 PUSH2 0x25E0 DUP3 PUSH1 0xA0 ADD MLOAD DUP3 PUSH2 0x16F6 SWAP1 SWAP2 SWAP1 PUSH4 0xFFFFFFFF AND JUMP JUMPDEST SWAP1 POP PUSH2 0x25F9 DUP3 PUSH1 0x80 ADD MLOAD DUP3 PUSH2 0x16E8 SWAP1 SWAP2 SWAP1 PUSH4 0xFFFFFFFF AND JUMP JUMPDEST SWAP1 POP PUSH2 0x2612 DUP3 PUSH1 0x60 ADD MLOAD DUP3 PUSH2 0x20F0 SWAP1 SWAP2 SWAP1 PUSH4 0xFFFFFFFF AND JUMP JUMPDEST SWAP1 POP PUSH2 0x262B DUP3 PUSH1 0x40 ADD MLOAD DUP3 PUSH2 0x33E6 SWAP1 SWAP2 SWAP1 PUSH4 0xFFFFFFFF AND JUMP JUMPDEST SWAP1 POP PUSH2 0x2644 DUP3 PUSH1 0x20 ADD MLOAD DUP3 PUSH2 0x2F64 SWAP1 SWAP2 SWAP1 PUSH4 0xFFFFFFFF AND JUMP JUMPDEST DUP3 MLOAD SWAP1 SWAP2 POP PUSH2 0xB0A SWAP1 DUP3 SWAP1 PUSH2 0x2F57 JUMP JUMPDEST PUSH1 0x40 DUP1 MLOAD PUSH1 0x2 DUP1 DUP3 MSTORE PUSH1 0x60 DUP1 DUP4 ADD DUP5 MSTORE SWAP3 DUP4 SWAP3 SWAP2 SWAP1 PUSH1 0x20 DUP4 ADD SWAP1 DUP1 CALLDATASIZE DUP4 CALLDATACOPY ADD SWAP1 POP POP SWAP1 POP PUSH2 0x2682 PUSH1 0x1 PUSH2 0x229D JUMP JUMPDEST DUP2 PUSH1 0x0 DUP2 MLOAD DUP2 LT PUSH2 0x268F JUMPI INVALID JUMPDEST PUSH1 0x20 MUL PUSH1 0x20 ADD ADD DUP2 DUP2 MSTORE POP POP PUSH2 0x26A5 PUSH1 0x0 PUSH2 0x229D JUMP JUMPDEST DUP2 PUSH1 0x1 DUP2 MLOAD DUP2 LT PUSH2 0x26B2 JUMPI INVALID JUMPDEST PUSH1 0x20 SWAP1 DUP2 MUL SWAP2 SWAP1 SWAP2 ADD ADD MSTORE SWAP1 POP SWAP1 JUMP JUMPDEST PUSH8 0xDE0B6B3A7640000 PUSH1 0x0 JUMPDEST DUP4 MLOAD DUP2 LT ISZERO PUSH2 0x2724 JUMPI PUSH2 0x271A PUSH2 0x2713 DUP6 DUP4 DUP2 MLOAD DUP2 LT PUSH2 0x26E9 JUMPI INVALID JUMPDEST PUSH1 0x20 MUL PUSH1 0x20 ADD ADD MLOAD DUP6 DUP5 DUP2 MLOAD DUP2 LT PUSH2 0x26FD JUMPI INVALID JUMPDEST PUSH1 0x20 MUL PUSH1 0x20 ADD ADD MLOAD PUSH2 0x34D7 SWAP1 SWAP2 SWAP1 PUSH4 0xFFFFFFFF AND JUMP JUMPDEST DUP4 SWAP1 PUSH2 0x3526 JUMP JUMPDEST SWAP2 POP PUSH1 0x1 ADD PUSH2 0x26CE JUMP JUMPDEST POP PUSH2 0x812 PUSH1 0x0 DUP3 GT PUSH2 0x137 PUSH2 0x18DC JUMP JUMPDEST PUSH1 0x0 DUP1 DUP3 PUSH1 0x2 DUP2 GT ISZERO PUSH2 0x2743 JUMPI INVALID JUMPDEST EQ ISZERO PUSH2 0x2759 JUMPI PUSH2 0x2752 DUP4 PUSH2 0x323F JUMP JUMPDEST SWAP1 POP PUSH2 0x812 JUMP JUMPDEST PUSH1 0x1 DUP3 PUSH1 0x2 DUP2 GT ISZERO PUSH2 0x2767 JUMPI INVALID JUMPDEST EQ ISZERO PUSH2 0x2776 JUMPI PUSH2 0x2752 DUP4 PUSH2 0x3259 JUMP JUMPDEST PUSH2 0x2752 DUP4 PUSH2 0x3273 JUMP JUMPDEST PUSH1 0x0 DUP1 DUP3 PUSH1 0x2 DUP2 GT ISZERO PUSH2 0x278E JUMPI INVALID JUMPDEST EQ ISZERO PUSH2 0x279D JUMPI PUSH2 0x2752 DUP4 PUSH2 0x324C JUMP JUMPDEST PUSH1 0x1 DUP3 PUSH1 0x2 DUP2 GT ISZERO PUSH2 0x27AB JUMPI INVALID JUMPDEST EQ ISZERO PUSH2 0x27BA JUMPI PUSH2 0x2752 DUP4 PUSH2 0x3266 JUMP JUMPDEST PUSH2 0x2752 DUP4 PUSH2 0x3280 JUMP JUMPDEST PUSH1 0x0 PUSH2 0xB0A DUP3 DUP3 PUSH2 0x2FBF JUMP JUMPDEST PUSH1 0x0 DUP1 PUSH2 0x27EF PUSH2 0x27DF DUP5 DUP7 PUSH2 0x24B5 JUMP JUMPDEST PUSH2 0x27E9 DUP8 DUP10 PUSH2 0x24B5 JUMP JUMPDEST SWAP1 PUSH2 0x24B5 JUMP JUMPDEST SWAP1 POP PUSH2 0x245A DUP2 PUSH2 0x1D62 JUMP JUMPDEST PUSH1 0x0 DUP1 DUP1 PUSH2 0x3FF DUP2 DUP1 DUP1 JUMPDEST DUP4 DUP6 GT PUSH2 0x2871 JUMPI PUSH1 0x2 DUP6 DUP6 ADD DIV PUSH2 0x281C DUP2 DUP11 PUSH2 0x3552 JUMP JUMPDEST SWAP4 POP PUSH2 0x2827 DUP5 PUSH2 0x2006 JUMP JUMPDEST SWAP3 POP PUSH2 0x2832 DUP4 PUSH2 0x27C3 JUMP JUMPDEST SWAP2 POP DUP10 DUP3 LT ISZERO PUSH2 0x2847 JUMPI DUP1 PUSH1 0x1 ADD SWAP6 POP PUSH2 0x286B JUMP JUMPDEST DUP10 DUP3 GT ISZERO PUSH2 0x285A JUMPI PUSH1 0x1 DUP2 SUB SWAP5 POP PUSH2 0x286B JUMP JUMPDEST DUP3 DUP4 SWAP8 POP SWAP8 POP POP POP POP POP POP POP PUSH2 0x28A6 JUMP JUMPDEST POP PUSH2 0x2805 JUMP JUMPDEST DUP9 DUP2 LT PUSH2 0x288F JUMPI PUSH2 0x2889 PUSH2 0x2884 DUP5 PUSH2 0x3563 JUMP JUMPDEST PUSH2 0x2006 JUMP JUMPDEST DUP3 PUSH2 0x289C JUMP JUMPDEST DUP2 PUSH2 0x289C PUSH2 0x2884 DUP6 PUSH2 0x2B57 JUMP JUMPDEST SWAP7 POP SWAP7 POP POP POP POP POP POP JUMPDEST SWAP3 POP SWAP3 SWAP1 POP JUMP JUMPDEST PUSH1 0x0 PUSH2 0x28B7 PUSH2 0x1BBC JUMP JUMPDEST DUP3 PUSH1 0x40 MLOAD PUSH1 0x20 ADD PUSH2 0xDF8 SWAP3 SWAP2 SWAP1 PUSH2 0x5226 JUMP JUMPDEST PUSH1 0x0 DUP1 PUSH2 0x28E5 DUP6 DUP6 DUP6 TIMESTAMP PUSH2 0x28DC DUP12 PUSH2 0x2006 JUMP JUMPDEST SWAP4 SWAP3 SWAP2 SWAP1 PUSH2 0x29B3 JUMP JUMPDEST SWAP1 POP PUSH1 0x78 TIMESTAMP DUP9 SWAP1 SUB LT ISZERO DUP1 PUSH2 0x28FA JUMPI DUP7 PUSH2 0x2903 JUMP JUMPDEST PUSH2 0x2903 DUP8 PUSH2 0x2B57 JUMP JUMPDEST PUSH1 0x0 DUP2 DUP2 MSTORE PUSH1 0x8 PUSH1 0x20 MSTORE PUSH1 0x40 SWAP1 KECCAK256 SWAP3 SWAP1 SWAP3 SSTORE POP SWAP7 SWAP6 POP POP POP POP POP POP JUMP JUMPDEST PUSH1 0x0 PUSH1 0x60 PUSH1 0x0 PUSH2 0x292F DUP5 PUSH2 0x3570 JUMP JUMPDEST SWAP1 POP PUSH2 0x294A PUSH1 0x0 DUP3 PUSH1 0x2 DUP2 GT ISZERO PUSH2 0x2942 JUMPI INVALID JUMPDEST EQ PUSH1 0xCE PUSH2 0x18DC JUMP JUMPDEST PUSH1 0x60 PUSH2 0x2955 DUP6 PUSH2 0x3586 JUMP JUMPDEST SWAP1 POP PUSH2 0x2963 DUP2 MLOAD PUSH1 0x2 PUSH2 0x1DA2 JUMP JUMPDEST PUSH2 0x296C DUP2 PUSH2 0x20FE JUMP JUMPDEST PUSH1 0x60 PUSH2 0x2976 PUSH2 0x2654 JUMP JUMPDEST SWAP1 POP PUSH1 0x0 PUSH2 0x2984 DUP3 DUP5 PUSH2 0x26C2 JUMP JUMPDEST SWAP1 POP PUSH1 0x0 PUSH2 0x2993 DUP3 PUSH1 0x2 PUSH2 0x207B JUMP JUMPDEST PUSH1 0xA SWAP3 SWAP1 SWAP3 SSTORE POP SWAP10 SWAP2 SWAP9 POP SWAP1 SWAP7 POP POP POP POP POP POP POP JUMP JUMPDEST PUSH2 0x18EA DUP3 DUP3 PUSH2 0x359C JUMP JUMPDEST PUSH1 0x0 DUP1 PUSH2 0x29BF DUP8 PUSH2 0x27C3 JUMP JUMPDEST DUP4 SUB SWAP1 POP PUSH1 0x0 DUP2 DUP8 MUL PUSH2 0x29D1 DUP10 PUSH2 0x324C JUMP JUMPDEST ADD SWAP1 POP PUSH1 0x0 DUP3 DUP8 MUL PUSH2 0x29E2 DUP11 PUSH2 0x3266 JUMP JUMPDEST ADD SWAP1 POP PUSH1 0x0 DUP4 DUP8 MUL PUSH2 0x29F3 DUP12 PUSH2 0x3280 JUMP JUMPDEST ADD SWAP1 POP PUSH2 0x2A05 DUP10 DUP5 DUP11 DUP6 DUP12 DUP7 DUP13 PUSH2 0x1CC2 JUMP JUMPDEST SWAP11 SWAP10 POP POP POP POP POP POP POP POP POP POP JUMP JUMPDEST PUSH1 0x0 PUSH20 0xBA1BA1BA1BA1BA1BA1BA1BA1BA1BA1BA1BA1BA1B PUSH2 0x2A32 PUSH2 0xE3A JUMP JUMPDEST PUSH1 0x1 PUSH1 0x1 PUSH1 0xA0 SHL SUB AND EQ ISZERO DUP1 ISZERO PUSH2 0x2A4D JUMPI POP PUSH2 0x2A4D DUP4 PUSH2 0x362A JUMP JUMPDEST ISZERO PUSH2 0x2A75 JUMPI PUSH2 0x2A5A PUSH2 0xE3A JUMP JUMPDEST PUSH1 0x1 PUSH1 0x1 PUSH1 0xA0 SHL SUB AND CALLER PUSH1 0x1 PUSH1 0x1 PUSH1 0xA0 SHL SUB AND EQ SWAP1 POP PUSH2 0x812 JUMP JUMPDEST PUSH2 0x2A7D PUSH2 0x24F7 JUMP JUMPDEST PUSH1 0x1 PUSH1 0x1 PUSH1 0xA0 SHL SUB AND PUSH4 0x9BE2A884 DUP5 DUP5 ADDRESS PUSH1 0x40 MLOAD DUP5 PUSH4 0xFFFFFFFF AND PUSH1 0xE0 SHL DUP2 MSTORE PUSH1 0x4 ADD PUSH2 0x2AAC SWAP4 SWAP3 SWAP2 SWAP1 PUSH2 0x535C JUMP JUMPDEST PUSH1 0x20 PUSH1 0x40 MLOAD DUP1 DUP4 SUB DUP2 DUP7 DUP1 EXTCODESIZE ISZERO DUP1 ISZERO PUSH2 0x2AC4 JUMPI PUSH1 0x0 DUP1 REVERT JUMPDEST POP GAS STATICCALL ISZERO DUP1 ISZERO PUSH2 0x2AD8 JUMPI RETURNDATASIZE PUSH1 0x0 DUP1 RETURNDATACOPY RETURNDATASIZE PUSH1 0x0 REVERT JUMPDEST POP POP POP POP PUSH1 0x40 MLOAD RETURNDATASIZE PUSH1 0x1F NOT PUSH1 0x1F DUP3 ADD AND DUP3 ADD DUP1 PUSH1 0x40 MSTORE POP DUP2 ADD SWAP1 PUSH2 0x2752 SWAP2 SWAP1 PUSH2 0x4D0B JUMP JUMPDEST SHR PUSH2 0x3FF AND SWAP1 JUMP JUMPDEST PUSH3 0x461BCD PUSH1 0xE5 SHL PUSH1 0x0 SWAP1 DUP2 MSTORE PUSH1 0x20 PUSH1 0x4 MSTORE PUSH1 0x7 PUSH1 0x24 MSTORE PUSH7 0x42414C23000030 PUSH1 0xA DUP1 DUP5 DIV DUP2 DUP2 MOD PUSH1 0x30 SWAP1 DUP2 ADD PUSH1 0x8 SHL SWAP6 DUP4 SWAP1 MOD SWAP6 SWAP1 SWAP6 ADD SWAP1 DUP3 SWAP1 DIV SWAP2 DUP3 MOD SWAP1 SWAP5 ADD PUSH1 0x10 SHL SWAP4 SWAP1 SWAP4 ADD ADD PUSH1 0xC8 SHL PUSH1 0x44 MSTORE PUSH1 0x64 SWAP1 REVERT JUMPDEST PUSH1 0x0 PUSH2 0xB0A DUP3 PUSH1 0x1 PUSH2 0x3552 JUMP JUMPDEST PUSH1 0x0 PUSH2 0x2B93 PUSH9 0x238FD42C5CF03FFFF NOT DUP4 SLT ISZERO DUP1 ISZERO PUSH2 0x2B8C JUMPI POP PUSH9 0x70C1CC73B00C80000 DUP4 SGT ISZERO JUMPDEST PUSH1 0x9 PUSH2 0x18DC JUMP JUMPDEST PUSH1 0x0 DUP3 SLT ISZERO PUSH2 0x2BC6 JUMPI PUSH2 0x2BA8 DUP3 PUSH1 0x0 SUB PUSH2 0x2B64 JUMP JUMPDEST PUSH11 0xC097CE7BC90715B34B9F1 PUSH1 0x24 SHL DUP2 PUSH2 0x2BBE JUMPI INVALID JUMPDEST SDIV SWAP1 POP PUSH2 0xB0D JUMP JUMPDEST PUSH1 0x0 PUSH9 0x6F05B59D3B2000000 DUP4 SLT PUSH2 0x2C06 JUMPI POP PUSH9 0x6F05B59D3B1FFFFFF NOT SWAP1 SWAP2 ADD SWAP1 PUSH24 0x195E54C5DD42177F53A27172FA9EC630262827000000000 PUSH2 0x2C3C JUMP JUMPDEST PUSH9 0x3782DACE9D9000000 DUP4 SLT PUSH2 0x2C38 JUMPI POP PUSH9 0x3782DACE9D8FFFFFF NOT SWAP1 SWAP2 ADD SWAP1 PUSH12 0x1425982CF597CD205CEF7380 PUSH2 0x2C3C JUMP JUMPDEST POP PUSH1 0x1 JUMPDEST PUSH1 0x64 SWAP3 SWAP1 SWAP3 MUL SWAP2 PUSH9 0x56BC75E2D63100000 PUSH9 0xAD78EBC5AC62000000 DUP5 SLT PUSH2 0x2C8C JUMPI PUSH9 0xAD78EBC5AC61FFFFFF NOT SWAP1 SWAP4 ADD SWAP3 PUSH9 0x56BC75E2D63100000 PUSH15 0x1855144814A7FF805980FF0084000 DUP3 MUL SDIV SWAP1 POP JUMPDEST PUSH9 0x56BC75E2D631000000 DUP5 SLT PUSH2 0x2CC8 JUMPI PUSH9 0x56BC75E2D630FFFFFF NOT SWAP1 SWAP4 ADD SWAP3 PUSH9 0x56BC75E2D63100000 PUSH12 0x2DF0AB5A80A22C61AB5A700 DUP3 MUL SDIV SWAP1 POP JUMPDEST PUSH9 0x2B5E3AF16B18800000 DUP5 SLT PUSH2 0x2D02 JUMPI PUSH9 0x2B5E3AF16B187FFFFF NOT SWAP1 SWAP4 ADD SWAP3 PUSH9 0x56BC75E2D63100000 PUSH10 0x3F1FCE3DA636EA5CF850 DUP3 MUL SDIV SWAP1 POP JUMPDEST PUSH9 0x15AF1D78B58C400000 DUP5 SLT PUSH2 0x2D3C JUMPI PUSH9 0x15AF1D78B58C3FFFFF NOT SWAP1 SWAP4 ADD SWAP3 PUSH9 0x56BC75E2D63100000 PUSH10 0x127FA27722CC06CC5E2 DUP3 MUL SDIV SWAP1 POP JUMPDEST PUSH9 0xAD78EBC5AC6200000 DUP5 SLT PUSH2 0x2D75 JUMPI PUSH9 0xAD78EBC5AC61FFFFF NOT SWAP1 SWAP4 ADD SWAP3 PUSH9 0x56BC75E2D63100000 PUSH9 0x280E60114EDB805D03 DUP3 MUL SDIV SWAP1 POP JUMPDEST PUSH9 0x56BC75E2D63100000 DUP5 SLT PUSH2 0x2DAE JUMPI PUSH9 0x56BC75E2D630FFFFF NOT SWAP1 SWAP4 ADD SWAP3 PUSH9 0x56BC75E2D63100000 PUSH9 0xEBC5FB41746121110 DUP3 MUL SDIV SWAP1 POP JUMPDEST PUSH9 0x2B5E3AF16B1880000 DUP5 SLT PUSH2 0x2DE7 JUMPI PUSH9 0x2B5E3AF16B187FFFF NOT SWAP1 SWAP4 ADD SWAP3 PUSH9 0x56BC75E2D63100000 PUSH9 0x8F00F760A4B2DB55D DUP3 MUL SDIV SWAP1 POP JUMPDEST PUSH9 0x15AF1D78B58C40000 DUP5 SLT PUSH2 0x2E20 JUMPI PUSH9 0x15AF1D78B58C3FFFF NOT SWAP1 SWAP4 ADD SWAP3 PUSH9 0x56BC75E2D63100000 PUSH9 0x6F5F1775788937937 DUP3 MUL SDIV SWAP1 POP JUMPDEST PUSH9 0x56BC75E2D63100000 DUP5 DUP2 ADD SWAP1 DUP6 SWAP1 PUSH1 0x2 SWAP1 DUP3 DUP1 MUL SDIV SDIV SWAP2 DUP3 ADD SWAP2 SWAP1 POP PUSH1 0x3 PUSH9 0x56BC75E2D63100000 DUP8 DUP4 MUL SDIV SDIV SWAP2 DUP3 ADD SWAP2 SWAP1 POP PUSH1 0x4 PUSH9 0x56BC75E2D63100000 DUP8 DUP4 MUL SDIV SDIV SWAP2 DUP3 ADD SWAP2 SWAP1 POP PUSH1 0x5 PUSH9 0x56BC75E2D63100000 DUP8 DUP4 MUL SDIV SDIV SWAP2 DUP3 ADD SWAP2 SWAP1 POP PUSH1 0x6 PUSH9 0x56BC75E2D63100000 DUP8 DUP4 MUL SDIV SDIV SWAP2 DUP3 ADD SWAP2 SWAP1 POP PUSH1 0x7 PUSH9 0x56BC75E2D63100000 DUP8 DUP4 MUL SDIV SDIV SWAP2 DUP3 ADD SWAP2 SWAP1 POP PUSH1 0x8 PUSH9 0x56BC75E2D63100000 DUP8 DUP4 MUL SDIV SDIV SWAP2 DUP3 ADD SWAP2 SWAP1 POP PUSH1 0x9 PUSH9 0x56BC75E2D63100000 DUP8 DUP4 MUL SDIV SDIV SWAP2 DUP3 ADD SWAP2 SWAP1 POP PUSH1 0xA PUSH9 0x56BC75E2D63100000 DUP8 DUP4 MUL SDIV SDIV SWAP2 DUP3 ADD SWAP2 SWAP1 POP PUSH1 0xB PUSH9 0x56BC75E2D63100000 DUP8 DUP4 MUL SDIV SDIV SWAP2 DUP3 ADD SWAP2 SWAP1 POP PUSH1 0xC PUSH9 0x56BC75E2D63100000 DUP8 DUP4 MUL SDIV SDIV SWAP2 DUP3 ADD SWAP2 SWAP1 POP PUSH1 0x64 PUSH9 0x56BC75E2D63100000 DUP5 DUP5 MUL SDIV DUP6 MUL SDIV SWAP7 SWAP6 POP POP POP POP POP POP JUMP JUMPDEST PUSH1 0x0 PUSH2 0x2F50 DUP5 DUP5 GT ISZERO DUP4 PUSH2 0x18DC JUMP JUMPDEST POP POP SWAP1 SUB SWAP1 JUMP JUMPDEST PUSH1 0x0 PUSH2 0x9D2 DUP4 DUP4 DUP4 PUSH2 0x365C JUMP JUMPDEST PUSH1 0x0 PUSH2 0x9D2 DUP4 DUP4 PUSH1 0x16 PUSH2 0x365C JUMP JUMPDEST CHAINID SWAP1 JUMP JUMPDEST SHL SWAP1 JUMP JUMPDEST PUSH7 0x1FFFFFFFFFFFFF SWAP2 SWAP1 SWAP2 AND SWAP1 SHL SWAP1 JUMP JUMPDEST PUSH3 0x3FFFFF SWAP2 SWAP1 SWAP2 AND SWAP1 SHL SWAP1 JUMP JUMPDEST PUSH1 0x0 DUP3 DUP3 SHR PUSH3 0x3FFFFF AND PUSH3 0x1FFFFF DUP2 SGT PUSH2 0x2FB2 JUMPI DUP1 PUSH2 0xA07 JUMP JUMPDEST PUSH3 0x3FFFFF NOT OR SWAP4 SWAP3 POP POP POP JUMP JUMPDEST SHR PUSH4 0x7FFFFFFF AND SWAP1 JUMP JUMPDEST SHR PUSH1 0x1 SWAP1 DUP2 AND EQ SWAP1 JUMP JUMPDEST SHR PUSH1 0x1 PUSH1 0x1 PUSH1 0x40 SHL SUB AND SWAP1 JUMP JUMPDEST PUSH1 0x0 PUSH2 0x2FF0 PUSH1 0x0 DUP4 SGT PUSH1 0x64 PUSH2 0x18DC JUMP JUMPDEST PUSH8 0xC7D713B49DA0000 DUP3 SGT DUP1 ISZERO PUSH2 0x300E JUMPI POP PUSH8 0xF43FC2C04EE0000 DUP3 SLT JUMPDEST ISZERO PUSH2 0x302C JUMPI PUSH8 0xDE0B6B3A7640000 PUSH2 0x3025 DUP4 PUSH2 0x3673 JUMP JUMPDEST DUP2 PUSH2 0x2BBE JUMPI INVALID JUMPDEST PUSH2 0x3035 DUP3 PUSH2 0x3791 JUMP JUMPDEST SWAP1 POP PUSH2 0xB0D JUMP JUMPDEST PUSH1 0x40 DUP1 MLOAD PUSH1 0x2 DUP1 DUP3 MSTORE PUSH1 0x60 DUP1 DUP4 ADD DUP5 MSTORE SWAP3 DUP4 SWAP3 SWAP2 SWAP1 PUSH1 0x20 DUP4 ADD SWAP1 DUP1 CALLDATASIZE DUP4 CALLDATACOPY ADD SWAP1 POP POP SWAP1 POP DUP3 PUSH2 0x306C JUMPI SWAP1 POP PUSH2 0x1285 JUMP JUMPDEST PUSH2 0x30DF DUP8 PUSH32 0x0 DUP2 MLOAD DUP2 LT PUSH2 0x309B JUMPI INVALID JUMPDEST PUSH1 0x20 MUL PUSH1 0x20 ADD ADD MLOAD DUP8 PUSH32 0x0 DUP2 MLOAD DUP2 LT PUSH2 0x30CF JUMPI INVALID JUMPDEST PUSH1 0x20 MUL PUSH1 0x20 ADD ADD MLOAD DUP8 DUP8 DUP8 PUSH2 0x3B30 JUMP JUMPDEST DUP2 PUSH32 0x0 DUP2 MLOAD DUP2 LT PUSH2 0x310B JUMPI INVALID JUMPDEST PUSH1 0x20 SWAP1 DUP2 MUL SWAP2 SWAP1 SWAP2 ADD ADD MSTORE SWAP7 SWAP6 POP POP POP POP POP POP JUMP JUMPDEST PUSH2 0x3156 DUP4 PUSH1 0x0 DUP2 MLOAD DUP2 LT PUSH2 0x3130 JUMPI INVALID JUMPDEST PUSH1 0x20 MUL PUSH1 0x20 ADD ADD MLOAD DUP4 PUSH1 0x0 DUP2 MLOAD DUP2 LT PUSH2 0x3145 JUMPI INVALID JUMPDEST PUSH1 0x20 MUL PUSH1 0x20 ADD ADD MLOAD DUP4 PUSH4 0xFFFFFFFF AND JUMP JUMPDEST DUP4 PUSH1 0x0 DUP2 MLOAD DUP2 LT PUSH2 0x3163 JUMPI INVALID JUMPDEST PUSH1 0x20 MUL PUSH1 0x20 ADD ADD DUP2 DUP2 MSTORE POP POP PUSH2 0x3194 DUP4 PUSH1 0x1 DUP2 MLOAD DUP2 LT PUSH2 0x317F JUMPI INVALID JUMPDEST PUSH1 0x20 MUL PUSH1 0x20 ADD ADD MLOAD DUP4 PUSH1 0x1 DUP2 MLOAD DUP2 LT PUSH2 0x3145 JUMPI INVALID JUMPDEST DUP4 PUSH1 0x1 DUP2 MLOAD DUP2 LT PUSH2 0x31A1 JUMPI INVALID JUMPDEST PUSH1 0x20 MUL PUSH1 0x20 ADD ADD DUP2 DUP2 MSTORE POP POP POP POP POP JUMP JUMPDEST PUSH1 0x0 PUSH1 0x60 PUSH1 0x0 PUSH2 0x31C1 DUP5 PUSH2 0x3570 JUMP JUMPDEST SWAP1 POP PUSH1 0x0 DUP2 PUSH1 0x2 DUP2 GT ISZERO PUSH2 0x31D1 JUMPI INVALID JUMPDEST EQ ISZERO PUSH2 0x31EC JUMPI PUSH2 0x31E2 DUP7 DUP7 DUP7 PUSH2 0x3BA8 JUMP JUMPDEST SWAP3 POP SWAP3 POP POP PUSH2 0x3217 JUMP JUMPDEST PUSH1 0x1 DUP2 PUSH1 0x2 DUP2 GT ISZERO PUSH2 0x31FA JUMPI INVALID JUMPDEST EQ ISZERO PUSH2 0x320A JUMPI PUSH2 0x31E2 DUP7 DUP6 PUSH2 0x3C58 JUMP JUMPDEST PUSH2 0x31E2 DUP7 DUP7 DUP7 PUSH2 0x3C8A JUMP JUMPDEST POP JUMPDEST SWAP4 POP SWAP4 SWAP2 POP POP JUMP JUMPDEST PUSH1 0x0 PUSH2 0x322E DUP3 ISZERO ISZERO PUSH1 0x4 PUSH2 0x18DC JUMP JUMPDEST DUP2 DUP4 DUP2 PUSH2 0x3237 JUMPI INVALID JUMPDEST DIV SWAP4 SWAP3 POP POP POP JUMP JUMPDEST PUSH1 0x0 PUSH2 0xB0A DUP3 PUSH1 0xEA PUSH2 0x2F98 JUMP JUMPDEST PUSH1 0x0 PUSH2 0xB0A DUP3 PUSH1 0xB5 PUSH2 0x3CF6 JUMP JUMPDEST PUSH1 0x0 PUSH2 0xB0A DUP3 PUSH1 0x9F PUSH2 0x2F98 JUMP JUMPDEST PUSH1 0x0 PUSH2 0xB0A DUP3 PUSH1 0x6A PUSH2 0x3CF6 JUMP JUMPDEST PUSH1 0x0 PUSH2 0xB0A DUP3 PUSH1 0x54 PUSH2 0x2F98 JUMP JUMPDEST PUSH1 0x0 PUSH2 0xB0A DUP3 PUSH1 0x1F PUSH2 0x3CF6 JUMP JUMPDEST PUSH2 0x3FF DUP2 SHL NOT SWAP3 SWAP1 SWAP3 AND SWAP2 SHL OR SWAP1 JUMP JUMPDEST PUSH2 0x32B4 PUSH1 0x1 PUSH1 0x1 PUSH1 0xA0 SHL SUB DUP4 AND ISZERO ISZERO PUSH2 0x19B PUSH2 0x18DC JUMP JUMPDEST PUSH2 0x32C0 DUP3 PUSH1 0x0 DUP4 PUSH2 0x1693 JUMP JUMPDEST PUSH1 0x1 PUSH1 0x1 PUSH1 0xA0 SHL SUB DUP3 AND PUSH1 0x0 SWAP1 DUP2 MSTORE PUSH1 0x20 DUP2 SWAP1 MSTORE PUSH1 0x40 SWAP1 KECCAK256 SLOAD PUSH2 0x32E6 SWAP1 DUP3 PUSH2 0x1A1 PUSH2 0x2F41 JUMP JUMPDEST PUSH1 0x1 PUSH1 0x1 PUSH1 0xA0 SHL SUB DUP4 AND PUSH1 0x0 SWAP1 DUP2 MSTORE PUSH1 0x20 DUP2 SWAP1 MSTORE PUSH1 0x40 SWAP1 KECCAK256 SSTORE PUSH1 0x2 SLOAD PUSH2 0x330C SWAP1 DUP3 PUSH2 0x3D29 JUMP JUMPDEST PUSH1 0x2 SSTORE PUSH1 0x40 MLOAD PUSH1 0x0 SWAP1 PUSH1 0x1 PUSH1 0x1 PUSH1 0xA0 SHL SUB DUP5 AND SWAP1 PUSH32 0xDDF252AD1BE2C89B69C2B068FC378DAA952BA7F163C4A11628F55A4DF523B3EF SWAP1 PUSH2 0x334D SWAP1 DUP6 SWAP1 PUSH2 0x5353 JUMP JUMPDEST PUSH1 0x40 MLOAD DUP1 SWAP2 SUB SWAP1 LOG3 POP POP JUMP JUMPDEST PUSH1 0x0 PUSH1 0x60 PUSH1 0x0 PUSH2 0x3368 DUP5 PUSH2 0x3570 JUMP JUMPDEST SWAP1 POP PUSH1 0x1 DUP2 PUSH1 0x2 DUP2 GT ISZERO PUSH2 0x3378 JUMPI INVALID JUMPDEST EQ ISZERO PUSH2 0x3389 JUMPI PUSH2 0x31E2 DUP7 DUP7 DUP7 PUSH2 0x3D37 JUMP JUMPDEST PUSH1 0x2 DUP2 PUSH1 0x2 DUP2 GT ISZERO PUSH2 0x3397 JUMPI INVALID JUMPDEST EQ ISZERO PUSH2 0x33A8 JUMPI PUSH2 0x31E2 DUP7 DUP7 DUP7 PUSH2 0x3D8D JUMP JUMPDEST PUSH2 0x3215 PUSH2 0x136 PUSH2 0x2B04 JUMP JUMPDEST PUSH1 0x0 PUSH2 0x33C2 DUP3 ISZERO ISZERO PUSH1 0x4 PUSH2 0x18DC JUMP JUMPDEST DUP3 PUSH2 0x33CF JUMPI POP PUSH1 0x0 PUSH2 0x812 JUMP JUMPDEST DUP2 PUSH1 0x1 DUP5 SUB DUP2 PUSH2 0x33DB JUMPI INVALID JUMPDEST DIV PUSH1 0x1 ADD SWAP1 POP PUSH2 0x812 JUMP JUMPDEST PUSH1 0x0 PUSH2 0x9D2 DUP4 DUP4 PUSH1 0x2C PUSH2 0x3E10 JUMP JUMPDEST PUSH1 0x0 PUSH2 0x3416 PUSH2 0x340B DUP8 PUSH8 0x429D069189E0000 PUSH2 0x3526 JUMP JUMPDEST DUP4 GT ISZERO PUSH2 0x130 PUSH2 0x18DC JUMP JUMPDEST PUSH1 0x0 PUSH2 0x3422 DUP8 DUP5 PUSH2 0x16D6 JUMP JUMPDEST SWAP1 POP PUSH1 0x0 PUSH2 0x3430 DUP9 DUP4 PUSH2 0x24B5 JUMP JUMPDEST SWAP1 POP PUSH1 0x0 PUSH2 0x343E DUP9 DUP8 PUSH2 0x209F JUMP JUMPDEST SWAP1 POP PUSH1 0x0 PUSH2 0x344C DUP4 DUP4 PUSH2 0x3E22 JUMP JUMPDEST SWAP1 POP PUSH2 0x2A05 PUSH2 0x345A DUP3 PUSH2 0x248F JUMP JUMPDEST DUP10 SWAP1 PUSH2 0x3526 JUMP JUMPDEST PUSH1 0x0 PUSH2 0x3483 PUSH2 0x3478 DUP6 PUSH8 0x429D069189E0000 PUSH2 0x3526 JUMP JUMPDEST DUP4 GT ISZERO PUSH2 0x131 PUSH2 0x18DC JUMP JUMPDEST PUSH1 0x0 PUSH2 0x3499 PUSH2 0x3492 DUP7 DUP6 PUSH2 0x1704 JUMP JUMPDEST DUP7 SWAP1 PUSH2 0x24B5 JUMP JUMPDEST SWAP1 POP PUSH1 0x0 PUSH2 0x34A7 DUP6 DUP9 PUSH2 0x24B5 JUMP JUMPDEST SWAP1 POP PUSH1 0x0 PUSH2 0x34B5 DUP4 DUP4 PUSH2 0x3E22 JUMP JUMPDEST SWAP1 POP PUSH1 0x0 PUSH2 0x34CB DUP3 PUSH8 0xDE0B6B3A7640000 PUSH2 0x1704 JUMP JUMPDEST SWAP1 POP PUSH2 0x2A05 DUP11 DUP3 PUSH2 0x2403 JUMP JUMPDEST PUSH1 0x0 DUP1 PUSH2 0x34E4 DUP5 DUP5 PUSH2 0x3E4E JUMP JUMPDEST SWAP1 POP PUSH1 0x0 PUSH2 0x34FE PUSH2 0x34F7 DUP4 PUSH2 0x2710 PUSH2 0x2403 JUMP JUMPDEST PUSH1 0x1 PUSH2 0x16D6 JUMP JUMPDEST SWAP1 POP DUP1 DUP3 LT ISZERO PUSH2 0x3513 JUMPI PUSH1 0x0 SWAP3 POP POP POP PUSH2 0x812 JUMP JUMPDEST PUSH2 0x351D DUP3 DUP3 PUSH2 0x1704 JUMP JUMPDEST SWAP3 POP POP POP PUSH2 0x812 JUMP JUMPDEST PUSH1 0x0 DUP3 DUP3 MUL PUSH2 0x3540 DUP5 ISZERO DUP1 PUSH2 0x2098 JUMPI POP DUP4 DUP6 DUP4 DUP2 PUSH2 0x2095 JUMPI INVALID JUMPDEST PUSH8 0xDE0B6B3A7640000 SWAP1 DIV SWAP4 SWAP3 POP POP POP JUMP JUMPDEST PUSH1 0x0 PUSH2 0x400 DUP4 DUP4 ADD JUMPDEST MOD SWAP4 SWAP3 POP POP POP JUMP JUMPDEST PUSH1 0x0 PUSH2 0xB0A DUP3 PUSH1 0x1 PUSH2 0x3F4F JUMP JUMPDEST PUSH1 0x0 DUP2 DUP1 PUSH1 0x20 ADD SWAP1 MLOAD DUP2 ADD SWAP1 PUSH2 0xB0A SWAP2 SWAP1 PUSH2 0x4E5F JUMP JUMPDEST PUSH1 0x60 DUP2 DUP1 PUSH1 0x20 ADD SWAP1 MLOAD DUP2 ADD SWAP1 PUSH2 0x9D2 SWAP2 SWAP1 PUSH2 0x4F24 JUMP JUMPDEST PUSH2 0x35A8 PUSH1 0x0 DUP4 DUP4 PUSH2 0x1693 JUMP JUMPDEST PUSH1 0x2 SLOAD PUSH2 0x35B5 SWAP1 DUP3 PUSH2 0x16D6 JUMP JUMPDEST PUSH1 0x2 SSTORE PUSH1 0x1 PUSH1 0x1 PUSH1 0xA0 SHL SUB DUP3 AND PUSH1 0x0 SWAP1 DUP2 MSTORE PUSH1 0x20 DUP2 SWAP1 MSTORE PUSH1 0x40 SWAP1 KECCAK256 SLOAD PUSH2 0x35DB SWAP1 DUP3 PUSH2 0x16D6 JUMP JUMPDEST PUSH1 0x1 PUSH1 0x1 PUSH1 0xA0 SHL SUB DUP4 AND PUSH1 0x0 DUP2 DUP2 MSTORE PUSH1 0x20 DUP2 SWAP1 MSTORE PUSH1 0x40 DUP1 DUP3 KECCAK256 SWAP4 SWAP1 SWAP4 SSTORE SWAP2 MLOAD SWAP1 SWAP2 SWAP1 PUSH32 0xDDF252AD1BE2C89B69C2B068FC378DAA952BA7F163C4A11628F55A4DF523B3EF SWAP1 PUSH2 0x334D SWAP1 DUP6 SWAP1 PUSH2 0x5353 JUMP JUMPDEST PUSH1 0x0 PUSH2 0x363C PUSH4 0x1C74C917 PUSH1 0xE1 SHL PUSH2 0xDC3 JUMP JUMPDEST DUP3 EQ DUP1 PUSH2 0xB0A JUMPI POP PUSH2 0x3654 PUSH4 0x50DD6ED9 PUSH1 0xE0 SHL PUSH2 0xDC3 JUMP JUMPDEST SWAP1 SWAP2 EQ SWAP2 SWAP1 POP JUMP JUMPDEST PUSH3 0x3FFFFF DUP3 DUP2 AND DUP3 SHL SWAP1 DUP3 SHL NOT DUP5 AND OR SWAP4 SWAP3 POP POP POP JUMP JUMPDEST PUSH8 0xDE0B6B3A7640000 MUL PUSH1 0x0 DUP1 PUSH11 0xC097CE7BC90715B34B9F1 PUSH1 0x24 SHL DUP1 DUP5 ADD SWAP1 PUSH15 0xC097CE7BC90715B34B9F0FFFFFFFFF NOT DUP6 ADD MUL DUP2 PUSH2 0x36AE JUMPI INVALID JUMPDEST SDIV SWAP1 POP PUSH1 0x0 PUSH11 0xC097CE7BC90715B34B9F1 PUSH1 0x24 SHL DUP3 DUP1 MUL SDIV SWAP1 POP DUP2 DUP1 PUSH11 0xC097CE7BC90715B34B9F1 PUSH1 0x24 SHL DUP2 DUP5 MUL SDIV SWAP2 POP PUSH1 0x3 DUP3 SDIV ADD PUSH11 0xC097CE7BC90715B34B9F1 PUSH1 0x24 SHL DUP3 DUP5 MUL SDIV SWAP2 POP PUSH1 0x5 DUP3 SDIV ADD PUSH11 0xC097CE7BC90715B34B9F1 PUSH1 0x24 SHL DUP3 DUP5 MUL SDIV SWAP2 POP PUSH1 0x7 DUP3 SDIV ADD PUSH11 0xC097CE7BC90715B34B9F1 PUSH1 0x24 SHL DUP3 DUP5 MUL SDIV SWAP2 POP PUSH1 0x9 DUP3 SDIV ADD PUSH11 0xC097CE7BC90715B34B9F1 PUSH1 0x24 SHL DUP3 DUP5 MUL SDIV SWAP2 POP PUSH1 0xB DUP3 SDIV ADD PUSH11 0xC097CE7BC90715B34B9F1 PUSH1 0x24 SHL DUP3 DUP5 MUL SDIV SWAP2 POP PUSH1 0xD DUP3 SDIV ADD PUSH11 0xC097CE7BC90715B34B9F1 PUSH1 0x24 SHL DUP3 DUP5 MUL SDIV SWAP2 POP PUSH1 0xF DUP3 PUSH1 0x2 SWAP2 SWAP1 SDIV SWAP2 SWAP1 SWAP2 ADD MUL SWAP6 SWAP5 POP POP POP POP POP JUMP JUMPDEST PUSH1 0x0 PUSH8 0xDE0B6B3A7640000 DUP3 SLT ISZERO PUSH2 0x37CD JUMPI PUSH2 0x37C3 DUP3 PUSH11 0xC097CE7BC90715B34B9F1 PUSH1 0x24 SHL DUP2 PUSH2 0x37BD JUMPI INVALID JUMPDEST SDIV PUSH2 0x3791 JUMP JUMPDEST PUSH1 0x0 SUB SWAP1 POP PUSH2 0xB0D JUMP JUMPDEST PUSH1 0x0 PUSH31 0x1600EF3172E58D2E933EC884FDE10064C63B5372D805E203C0000000000000 DUP4 SLT PUSH2 0x381E JUMPI PUSH24 0x195E54C5DD42177F53A27172FA9EC630262827000000000 DUP4 SDIV SWAP3 POP PUSH9 0x6F05B59D3B2000000 ADD JUMPDEST PUSH20 0x11798004D755D3C8BC8E03204CF44619E000000 DUP4 SLT PUSH2 0x3856 JUMPI PUSH12 0x1425982CF597CD205CEF7380 DUP4 SDIV SWAP3 POP PUSH9 0x3782DACE9D9000000 ADD JUMPDEST PUSH1 0x64 SWAP3 DUP4 MUL SWAP3 MUL PUSH15 0x1855144814A7FF805980FF0084000 DUP4 SLT PUSH2 0x389E JUMPI PUSH15 0x1855144814A7FF805980FF0084000 PUSH9 0x56BC75E2D63100000 DUP5 MUL SDIV SWAP3 POP PUSH9 0xAD78EBC5AC62000000 ADD JUMPDEST PUSH12 0x2DF0AB5A80A22C61AB5A700 DUP4 SLT PUSH2 0x38D9 JUMPI PUSH12 0x2DF0AB5A80A22C61AB5A700 PUSH9 0x56BC75E2D63100000 DUP5 MUL SDIV SWAP3 POP PUSH9 0x56BC75E2D631000000 ADD JUMPDEST PUSH10 0x3F1FCE3DA636EA5CF850 DUP4 SLT PUSH2 0x3910 JUMPI PUSH10 0x3F1FCE3DA636EA5CF850 PUSH9 0x56BC75E2D63100000 DUP5 MUL SDIV SWAP3 POP PUSH9 0x2B5E3AF16B18800000 ADD JUMPDEST PUSH10 0x127FA27722CC06CC5E2 DUP4 SLT PUSH2 0x3947 JUMPI PUSH10 0x127FA27722CC06CC5E2 PUSH9 0x56BC75E2D63100000 DUP5 MUL SDIV SWAP3 POP PUSH9 0x15AF1D78B58C400000 ADD JUMPDEST PUSH9 0x280E60114EDB805D03 DUP4 SLT PUSH2 0x397C JUMPI PUSH9 0x280E60114EDB805D03 PUSH9 0x56BC75E2D63100000 DUP5 MUL SDIV SWAP3 POP PUSH9 0xAD78EBC5AC6200000 ADD JUMPDEST PUSH9 0xEBC5FB41746121110 DUP4 SLT PUSH2 0x39A7 JUMPI PUSH9 0xEBC5FB41746121110 PUSH9 0x56BC75E2D63100000 SWAP4 DUP5 MUL SDIV SWAP3 ADD JUMPDEST PUSH9 0x8F00F760A4B2DB55D DUP4 SLT PUSH2 0x39DC JUMPI PUSH9 0x8F00F760A4B2DB55D PUSH9 0x56BC75E2D63100000 DUP5 MUL SDIV SWAP3 POP PUSH9 0x2B5E3AF16B1880000 ADD JUMPDEST PUSH9 0x6F5F1775788937937 DUP4 SLT PUSH2 0x3A11 JUMPI PUSH9 0x6F5F1775788937937 PUSH9 0x56BC75E2D63100000 DUP5 MUL SDIV SWAP3 POP PUSH9 0x15AF1D78B58C40000 ADD JUMPDEST PUSH9 0x6248F33704B286603 DUP4 SLT PUSH2 0x3A45 JUMPI PUSH9 0x6248F33704B286603 PUSH9 0x56BC75E2D63100000 DUP5 MUL SDIV SWAP3 POP PUSH8 0xAD78EBC5AC620000 ADD JUMPDEST PUSH9 0x5C548670B9510E7AC DUP4 SLT PUSH2 0x3A79 JUMPI PUSH9 0x5C548670B9510E7AC PUSH9 0x56BC75E2D63100000 DUP5 MUL SDIV SWAP3 POP PUSH8 0x56BC75E2D6310000 ADD JUMPDEST PUSH1 0x0 PUSH9 0x56BC75E2D63100000 DUP5 ADD PUSH9 0x56BC75E2D63100000 DUP1 DUP7 SUB MUL DUP2 PUSH2 0x3A9C JUMPI INVALID JUMPDEST SDIV SWAP1 POP PUSH1 0x0 PUSH9 0x56BC75E2D63100000 DUP3 DUP1 MUL SDIV SWAP1 POP DUP2 DUP1 PUSH9 0x56BC75E2D63100000 DUP2 DUP5 MUL SDIV SWAP2 POP PUSH1 0x3 DUP3 SDIV ADD PUSH9 0x56BC75E2D63100000 DUP3 DUP5 MUL SDIV SWAP2 POP PUSH1 0x5 DUP3 SDIV ADD PUSH9 0x56BC75E2D63100000 DUP3 DUP5 MUL SDIV SWAP2 POP PUSH1 0x7 DUP3 SDIV ADD PUSH9 0x56BC75E2D63100000 DUP3 DUP5 MUL SDIV SWAP2 POP PUSH1 0x9 DUP3 SDIV ADD PUSH9 0x56BC75E2D63100000 DUP3 DUP5 MUL SDIV SWAP2 POP PUSH1 0xB DUP3 SDIV ADD PUSH1 0x2 MUL PUSH1 0x64 DUP6 DUP3 ADD SDIV SWAP8 SWAP7 POP POP POP POP POP POP POP JUMP JUMPDEST PUSH1 0x0 DUP4 DUP4 GT PUSH2 0x3B41 JUMPI POP PUSH1 0x0 PUSH2 0x1285 JUMP JUMPDEST PUSH1 0x0 PUSH2 0x3B4D DUP6 DUP6 PUSH2 0x24B5 JUMP JUMPDEST SWAP1 POP PUSH1 0x0 PUSH2 0x3B63 PUSH8 0xDE0B6B3A7640000 DUP9 PUSH2 0x209F JUMP JUMPDEST SWAP1 POP PUSH2 0x3B77 DUP3 PUSH8 0x9B6E64A8EC60000 PUSH2 0x3F5E JUMP JUMPDEST SWAP2 POP PUSH1 0x0 PUSH2 0x3B85 DUP4 DUP4 PUSH2 0x3E22 JUMP JUMPDEST SWAP1 POP PUSH1 0x0 PUSH2 0x3B9C PUSH2 0x3B95 DUP4 PUSH2 0x248F JUMP JUMPDEST DUP12 SWAP1 PUSH2 0x3526 JUMP JUMPDEST SWAP1 POP PUSH2 0x2A05 DUP2 DUP8 PUSH2 0x3526 JUMP JUMPDEST PUSH1 0x0 PUSH1 0x60 PUSH2 0x3BB4 PUSH2 0x1B27 JUMP JUMPDEST PUSH1 0x0 DUP1 PUSH2 0x3BC0 DUP6 PUSH2 0x3F75 JUMP JUMPDEST SWAP2 POP SWAP2 POP PUSH2 0x3BD2 PUSH1 0x2 DUP3 LT PUSH1 0x64 PUSH2 0x18DC JUMP JUMPDEST PUSH1 0x40 DUP1 MLOAD PUSH1 0x2 DUP1 DUP3 MSTORE PUSH1 0x60 DUP1 DUP4 ADD DUP5 MSTORE SWAP3 PUSH1 0x20 DUP4 ADD SWAP1 DUP1 CALLDATASIZE DUP4 CALLDATACOPY ADD SWAP1 POP POP SWAP1 POP PUSH2 0x3C33 DUP9 DUP4 DUP2 MLOAD DUP2 LT PUSH2 0x3C01 JUMPI INVALID JUMPDEST PUSH1 0x20 MUL PUSH1 0x20 ADD ADD MLOAD DUP9 DUP5 DUP2 MLOAD DUP2 LT PUSH2 0x3C15 JUMPI INVALID JUMPDEST PUSH1 0x20 MUL PUSH1 0x20 ADD ADD MLOAD DUP6 PUSH2 0x3C26 PUSH2 0x82C JUMP JUMPDEST PUSH2 0x3C2E PUSH2 0xB6D JUMP JUMPDEST PUSH2 0x3F97 JUMP JUMPDEST DUP2 DUP4 DUP2 MLOAD DUP2 LT PUSH2 0x3C3F JUMPI INVALID JUMPDEST PUSH1 0x20 SWAP1 DUP2 MUL SWAP2 SWAP1 SWAP2 ADD ADD MSTORE SWAP2 SWAP8 SWAP2 SWAP7 POP SWAP1 SWAP5 POP POP POP POP POP JUMP JUMPDEST PUSH1 0x0 PUSH1 0x60 PUSH1 0x0 PUSH2 0x3C67 DUP5 PUSH2 0x4057 JUMP JUMPDEST SWAP1 POP PUSH1 0x60 PUSH2 0x3C7D DUP7 DUP4 PUSH2 0x3C78 PUSH2 0x82C JUMP JUMPDEST PUSH2 0x406D JUMP JUMPDEST SWAP2 SWAP7 SWAP2 SWAP6 POP SWAP1 SWAP4 POP POP POP POP JUMP JUMPDEST PUSH1 0x0 PUSH1 0x60 PUSH2 0x3C96 PUSH2 0x1B27 JUMP JUMPDEST PUSH1 0x60 PUSH1 0x0 PUSH2 0x3CA3 DUP6 PUSH2 0x411E JUMP JUMPDEST SWAP2 POP SWAP2 POP PUSH2 0x3CB3 DUP3 MLOAD PUSH1 0x2 PUSH2 0x1DA2 JUMP JUMPDEST PUSH2 0x3CBC DUP3 PUSH2 0x20FE JUMP JUMPDEST PUSH1 0x0 PUSH2 0x3CD9 DUP9 DUP9 DUP6 PUSH2 0x3CCC PUSH2 0x82C JUMP JUMPDEST PUSH2 0x3CD4 PUSH2 0xB6D JUMP JUMPDEST PUSH2 0x4136 JUMP JUMPDEST SWAP1 POP PUSH2 0x3CE9 DUP3 DUP3 GT ISZERO PUSH1 0xCF PUSH2 0x18DC JUMP JUMPDEST SWAP8 SWAP2 SWAP7 POP SWAP1 SWAP5 POP POP POP POP POP JUMP JUMPDEST PUSH1 0x0 DUP3 DUP3 SHR PUSH7 0x1FFFFFFFFFFFFF AND PUSH7 0xFFFFFFFFFFFFF DUP2 SGT PUSH2 0x3D18 JUMPI DUP1 PUSH2 0xA07 JUMP JUMPDEST PUSH7 0x1FFFFFFFFFFFFF NOT OR SWAP4 SWAP3 POP POP POP JUMP JUMPDEST PUSH1 0x0 PUSH2 0x9D2 DUP4 DUP4 PUSH1 0x1 PUSH2 0x2F41 JUMP JUMPDEST PUSH1 0x0 PUSH1 0x60 DUP1 PUSH1 0x0 PUSH2 0x3D47 DUP6 PUSH2 0x411E JUMP JUMPDEST SWAP2 POP SWAP2 POP PUSH2 0x3D57 DUP3 MLOAD PUSH1 0x2 PUSH2 0x1DA2 JUMP JUMPDEST PUSH2 0x3D60 DUP3 PUSH2 0x20FE JUMP JUMPDEST PUSH1 0x0 PUSH2 0x3D7D DUP9 DUP9 DUP6 PUSH2 0x3D70 PUSH2 0x82C JUMP JUMPDEST PUSH2 0x3D78 PUSH2 0xB6D JUMP JUMPDEST PUSH2 0x436A JUMP JUMPDEST SWAP1 POP PUSH2 0x3CE9 DUP3 DUP3 LT ISZERO PUSH1 0xD0 PUSH2 0x18DC JUMP JUMPDEST PUSH1 0x0 PUSH1 0x60 PUSH1 0x0 DUP1 PUSH2 0x3D9D DUP6 PUSH2 0x3F75 JUMP JUMPDEST SWAP2 POP SWAP2 POP PUSH2 0x3DAF PUSH1 0x2 DUP3 LT PUSH1 0x64 PUSH2 0x18DC JUMP JUMPDEST PUSH1 0x40 DUP1 MLOAD PUSH1 0x2 DUP1 DUP3 MSTORE PUSH1 0x60 DUP1 DUP4 ADD DUP5 MSTORE SWAP3 PUSH1 0x20 DUP4 ADD SWAP1 DUP1 CALLDATASIZE DUP4 CALLDATACOPY ADD SWAP1 POP POP SWAP1 POP PUSH2 0x3C33 DUP9 DUP4 DUP2 MLOAD DUP2 LT PUSH2 0x3DDE JUMPI INVALID JUMPDEST PUSH1 0x20 MUL PUSH1 0x20 ADD ADD MLOAD DUP9 DUP5 DUP2 MLOAD DUP2 LT PUSH2 0x3DF2 JUMPI INVALID JUMPDEST PUSH1 0x20 MUL PUSH1 0x20 ADD ADD MLOAD DUP6 PUSH2 0x3E03 PUSH2 0x82C JUMP JUMPDEST PUSH2 0x3E0B PUSH2 0xB6D JUMP JUMPDEST PUSH2 0x457B JUMP JUMPDEST PUSH4 0x7FFFFFFF DUP2 SHL NOT SWAP3 SWAP1 SWAP3 AND SWAP2 SHL OR SWAP1 JUMP JUMPDEST PUSH1 0x0 DUP1 PUSH2 0x3E2F DUP5 DUP5 PUSH2 0x3E4E JUMP JUMPDEST SWAP1 POP PUSH1 0x0 PUSH2 0x3E42 PUSH2 0x34F7 DUP4 PUSH2 0x2710 PUSH2 0x2403 JUMP JUMPDEST SWAP1 POP PUSH2 0x1285 DUP3 DUP3 PUSH2 0x16D6 JUMP JUMPDEST PUSH1 0x0 DUP2 PUSH2 0x3E64 JUMPI POP PUSH8 0xDE0B6B3A7640000 PUSH2 0x812 JUMP JUMPDEST DUP3 PUSH2 0x3E71 JUMPI POP PUSH1 0x0 PUSH2 0x812 JUMP JUMPDEST PUSH2 0x3E82 PUSH1 0x1 PUSH1 0xFF SHL DUP5 LT PUSH1 0x6 PUSH2 0x18DC JUMP JUMPDEST DUP3 PUSH2 0x3EA8 PUSH24 0xBCE5086492111AEA88F4BB1CA6BCF584181EA8059F76532 DUP5 LT PUSH1 0x7 PUSH2 0x18DC JUMP JUMPDEST DUP3 PUSH1 0x0 PUSH8 0xC7D713B49DA0000 DUP4 SGT DUP1 ISZERO PUSH2 0x3EC9 JUMPI POP PUSH8 0xF43FC2C04EE0000 DUP4 SLT JUMPDEST ISZERO PUSH2 0x3F00 JUMPI PUSH1 0x0 PUSH2 0x3ED9 DUP5 PUSH2 0x3673 JUMP JUMPDEST SWAP1 POP PUSH8 0xDE0B6B3A7640000 DUP1 DUP3 SMOD DUP5 MUL SDIV DUP4 PUSH8 0xDE0B6B3A7640000 DUP4 SDIV MUL ADD SWAP2 POP POP PUSH2 0x3F0E JUMP JUMPDEST DUP2 PUSH2 0x3F0A DUP5 PUSH2 0x3791 JUMP JUMPDEST MUL SWAP1 POP JUMPDEST PUSH8 0xDE0B6B3A7640000 SWAP1 SDIV PUSH2 0x3F46 PUSH9 0x238FD42C5CF03FFFF NOT DUP3 SLT DUP1 ISZERO SWAP1 PUSH2 0x3F3F JUMPI POP PUSH9 0x70C1CC73B00C80000 DUP3 SGT ISZERO JUMPDEST PUSH1 0x8 PUSH2 0x18DC JUMP JUMPDEST PUSH2 0x245A DUP2 PUSH2 0x2B64 JUMP JUMPDEST PUSH1 0x0 PUSH2 0x400 DUP3 DUP5 SUB DUP2 ADD PUSH2 0x355B JUMP JUMPDEST PUSH1 0x0 DUP2 DUP4 LT ISZERO PUSH2 0x3F6E JUMPI DUP2 PUSH2 0x9D2 JUMP JUMPDEST POP SWAP1 SWAP2 SWAP1 POP JUMP JUMPDEST PUSH1 0x0 DUP1 DUP3 DUP1 PUSH1 0x20 ADD SWAP1 MLOAD DUP2 ADD SWAP1 PUSH2 0x3F8C SWAP2 SWAP1 PUSH2 0x4EEE JUMP JUMPDEST SWAP1 SWAP6 SWAP1 SWAP5 POP SWAP3 POP POP POP JUMP JUMPDEST PUSH1 0x0 DUP1 PUSH2 0x3FA8 DUP5 PUSH2 0x27E9 DUP2 DUP9 PUSH2 0x1704 JUMP JUMPDEST SWAP1 POP PUSH2 0x3FC1 PUSH8 0x9B6E64A8EC60000 DUP3 LT ISZERO PUSH2 0x132 PUSH2 0x18DC JUMP JUMPDEST PUSH1 0x0 PUSH2 0x3FDF PUSH2 0x3FD8 PUSH8 0xDE0B6B3A7640000 DUP10 PUSH2 0x209F JUMP JUMPDEST DUP4 SWAP1 PUSH2 0x3E22 JUMP JUMPDEST SWAP1 POP PUSH1 0x0 PUSH2 0x3FF6 PUSH2 0x3FEF DUP4 PUSH2 0x248F JUMP JUMPDEST DUP11 SWAP1 PUSH2 0x3526 JUMP JUMPDEST SWAP1 POP PUSH1 0x0 PUSH2 0x4003 DUP10 PUSH2 0x248F JUMP JUMPDEST SWAP1 POP PUSH1 0x0 PUSH2 0x4011 DUP4 DUP4 PUSH2 0x2403 JUMP JUMPDEST SWAP1 POP PUSH1 0x0 PUSH2 0x401F DUP5 DUP4 PUSH2 0x1704 JUMP JUMPDEST SWAP1 POP PUSH2 0x4047 PUSH2 0x4040 PUSH2 0x4039 PUSH8 0xDE0B6B3A7640000 DUP12 PUSH2 0x1704 JUMP JUMPDEST DUP5 SWAP1 PUSH2 0x3526 JUMP JUMPDEST DUP3 SWAP1 PUSH2 0x16D6 JUMP JUMPDEST SWAP13 SWAP12 POP POP POP POP POP POP POP POP POP POP POP POP JUMP JUMPDEST PUSH1 0x0 DUP2 DUP1 PUSH1 0x20 ADD SWAP1 MLOAD DUP2 ADD SWAP1 PUSH2 0x9D2 SWAP2 SWAP1 PUSH2 0x4EC1 JUMP JUMPDEST PUSH1 0x60 PUSH1 0x0 PUSH2 0x407B DUP5 DUP5 PUSH2 0x209F JUMP JUMPDEST SWAP1 POP PUSH1 0x60 DUP6 MLOAD PUSH1 0x1 PUSH1 0x1 PUSH1 0x40 SHL SUB DUP2 GT DUP1 ISZERO PUSH2 0x4096 JUMPI PUSH1 0x0 DUP1 REVERT JUMPDEST POP PUSH1 0x40 MLOAD SWAP1 DUP1 DUP3 MSTORE DUP1 PUSH1 0x20 MUL PUSH1 0x20 ADD DUP3 ADD PUSH1 0x40 MSTORE DUP1 ISZERO PUSH2 0x40C0 JUMPI DUP2 PUSH1 0x20 ADD PUSH1 0x20 DUP3 MUL DUP1 CALLDATASIZE DUP4 CALLDATACOPY ADD SWAP1 POP JUMPDEST POP SWAP1 POP PUSH1 0x0 JUMPDEST DUP7 MLOAD DUP2 LT ISZERO PUSH2 0x4114 JUMPI PUSH2 0x40F5 DUP4 DUP9 DUP4 DUP2 MLOAD DUP2 LT PUSH2 0x40DF JUMPI INVALID JUMPDEST PUSH1 0x20 MUL PUSH1 0x20 ADD ADD MLOAD PUSH2 0x3526 SWAP1 SWAP2 SWAP1 PUSH4 0xFFFFFFFF AND JUMP JUMPDEST DUP3 DUP3 DUP2 MLOAD DUP2 LT PUSH2 0x4101 JUMPI INVALID JUMPDEST PUSH1 0x20 SWAP1 DUP2 MUL SWAP2 SWAP1 SWAP2 ADD ADD MSTORE PUSH1 0x1 ADD PUSH2 0x40C6 JUMP JUMPDEST POP SWAP6 SWAP5 POP POP POP POP POP JUMP JUMPDEST PUSH1 0x60 PUSH1 0x0 DUP3 DUP1 PUSH1 0x20 ADD SWAP1 MLOAD DUP2 ADD SWAP1 PUSH2 0x3F8C SWAP2 SWAP1 PUSH2 0x4E7B JUMP JUMPDEST PUSH1 0x0 PUSH1 0x60 DUP5 MLOAD PUSH1 0x1 PUSH1 0x1 PUSH1 0x40 SHL SUB DUP2 GT DUP1 ISZERO PUSH2 0x4151 JUMPI PUSH1 0x0 DUP1 REVERT JUMPDEST POP PUSH1 0x40 MLOAD SWAP1 DUP1 DUP3 MSTORE DUP1 PUSH1 0x20 MUL PUSH1 0x20 ADD DUP3 ADD PUSH1 0x40 MSTORE DUP1 ISZERO PUSH2 0x417B JUMPI DUP2 PUSH1 0x20 ADD PUSH1 0x20 DUP3 MUL DUP1 CALLDATASIZE DUP4 CALLDATACOPY ADD SWAP1 POP JUMPDEST POP SWAP1 POP PUSH1 0x0 DUP1 JUMPDEST DUP9 MLOAD DUP2 LT ISZERO PUSH2 0x4240 JUMPI PUSH2 0x41DB DUP10 DUP3 DUP2 MLOAD DUP2 LT PUSH2 0x419A JUMPI INVALID JUMPDEST PUSH1 0x20 MUL PUSH1 0x20 ADD ADD MLOAD PUSH2 0x27E9 DUP10 DUP5 DUP2 MLOAD DUP2 LT PUSH2 0x41B1 JUMPI INVALID JUMPDEST PUSH1 0x20 MUL PUSH1 0x20 ADD ADD MLOAD DUP13 DUP6 DUP2 MLOAD DUP2 LT PUSH2 0x41C5 JUMPI INVALID JUMPDEST PUSH1 0x20 MUL PUSH1 0x20 ADD ADD MLOAD PUSH2 0x1704 SWAP1 SWAP2 SWAP1 PUSH4 0xFFFFFFFF AND JUMP JUMPDEST DUP4 DUP3 DUP2 MLOAD DUP2 LT PUSH2 0x41E7 JUMPI INVALID JUMPDEST PUSH1 0x20 MUL PUSH1 0x20 ADD ADD DUP2 DUP2 MSTORE POP POP PUSH2 0x4236 PUSH2 0x422F DUP10 DUP4 DUP2 MLOAD DUP2 LT PUSH2 0x4205 JUMPI INVALID JUMPDEST PUSH1 0x20 MUL PUSH1 0x20 ADD ADD MLOAD DUP6 DUP5 DUP2 MLOAD DUP2 LT PUSH2 0x4219 JUMPI INVALID JUMPDEST PUSH1 0x20 MUL PUSH1 0x20 ADD ADD MLOAD PUSH2 0x2403 SWAP1 SWAP2 SWAP1 PUSH4 0xFFFFFFFF AND JUMP JUMPDEST DUP4 SWAP1 PUSH2 0x16D6 JUMP JUMPDEST SWAP2 POP PUSH1 0x1 ADD PUSH2 0x4182 JUMP JUMPDEST POP PUSH8 0xDE0B6B3A7640000 PUSH1 0x0 JUMPDEST DUP10 MLOAD DUP2 LT ISZERO PUSH2 0x4349 JUMPI PUSH1 0x0 DUP5 DUP3 DUP2 MLOAD DUP2 LT PUSH2 0x4264 JUMPI INVALID JUMPDEST PUSH1 0x20 MUL PUSH1 0x20 ADD ADD MLOAD DUP5 GT ISZERO PUSH2 0x42CB JUMPI PUSH1 0x0 PUSH2 0x428D PUSH2 0x4281 DUP7 PUSH2 0x248F JUMP JUMPDEST DUP14 DUP6 DUP2 MLOAD DUP2 LT PUSH2 0x40DF JUMPI INVALID JUMPDEST SWAP1 POP PUSH1 0x0 PUSH2 0x42A1 DUP3 DUP13 DUP7 DUP2 MLOAD DUP2 LT PUSH2 0x41C5 JUMPI INVALID JUMPDEST SWAP1 POP PUSH2 0x42C2 PUSH2 0x422F PUSH2 0x42BB PUSH8 0xDE0B6B3A7640000 DUP13 PUSH2 0x1704 JUMP JUMPDEST DUP4 SWAP1 PUSH2 0x24B5 JUMP JUMPDEST SWAP3 POP POP POP PUSH2 0x42E2 JUMP JUMPDEST DUP9 DUP3 DUP2 MLOAD DUP2 LT PUSH2 0x42D7 JUMPI INVALID JUMPDEST PUSH1 0x20 MUL PUSH1 0x20 ADD ADD MLOAD SWAP1 POP JUMPDEST PUSH1 0x0 PUSH2 0x430B DUP13 DUP5 DUP2 MLOAD DUP2 LT PUSH2 0x42F3 JUMPI INVALID JUMPDEST PUSH1 0x20 MUL PUSH1 0x20 ADD ADD MLOAD PUSH2 0xC1E DUP5 DUP16 DUP8 DUP2 MLOAD DUP2 LT PUSH2 0x41C5 JUMPI INVALID JUMPDEST SWAP1 POP PUSH2 0x433D PUSH2 0x4336 DUP13 DUP6 DUP2 MLOAD DUP2 LT PUSH2 0x431F JUMPI INVALID JUMPDEST PUSH1 0x20 MUL PUSH1 0x20 ADD ADD MLOAD DUP4 PUSH2 0x34D7 SWAP1 SWAP2 SWAP1 PUSH4 0xFFFFFFFF AND JUMP JUMPDEST DUP6 SWAP1 PUSH2 0x3526 JUMP JUMPDEST SWAP4 POP POP POP PUSH1 0x1 ADD PUSH2 0x424D JUMP JUMPDEST POP PUSH2 0x435D PUSH2 0x4356 DUP3 PUSH2 0x248F JUMP JUMPDEST DUP8 SWAP1 PUSH2 0x2403 JUMP JUMPDEST SWAP10 SWAP9 POP POP POP POP POP POP POP POP POP JUMP JUMPDEST PUSH1 0x0 PUSH1 0x60 DUP5 MLOAD PUSH1 0x1 PUSH1 0x1 PUSH1 0x40 SHL SUB DUP2 GT DUP1 ISZERO PUSH2 0x4385 JUMPI PUSH1 0x0 DUP1 REVERT JUMPDEST POP PUSH1 0x40 MLOAD SWAP1 DUP1 DUP3 MSTORE DUP1 PUSH1 0x20 MUL PUSH1 0x20 ADD DUP3 ADD PUSH1 0x40 MSTORE DUP1 ISZERO PUSH2 0x43AF JUMPI DUP2 PUSH1 0x20 ADD PUSH1 0x20 DUP3 MUL DUP1 CALLDATASIZE DUP4 CALLDATACOPY ADD SWAP1 POP JUMPDEST POP SWAP1 POP PUSH1 0x0 DUP1 JUMPDEST DUP9 MLOAD DUP2 LT ISZERO PUSH2 0x4457 JUMPI PUSH2 0x440F DUP10 DUP3 DUP2 MLOAD DUP2 LT PUSH2 0x43CE JUMPI INVALID JUMPDEST PUSH1 0x20 MUL PUSH1 0x20 ADD ADD MLOAD PUSH2 0xC1E DUP10 DUP5 DUP2 MLOAD DUP2 LT PUSH2 0x43E5 JUMPI INVALID JUMPDEST PUSH1 0x20 MUL PUSH1 0x20 ADD ADD MLOAD DUP13 DUP6 DUP2 MLOAD DUP2 LT PUSH2 0x43F9 JUMPI INVALID JUMPDEST PUSH1 0x20 MUL PUSH1 0x20 ADD ADD MLOAD PUSH2 0x16D6 SWAP1 SWAP2 SWAP1 PUSH4 0xFFFFFFFF AND JUMP JUMPDEST DUP4 DUP3 DUP2 MLOAD DUP2 LT PUSH2 0x441B JUMPI INVALID JUMPDEST PUSH1 0x20 MUL PUSH1 0x20 ADD ADD DUP2 DUP2 MSTORE POP POP PUSH2 0x444D PUSH2 0x422F DUP10 DUP4 DUP2 MLOAD DUP2 LT PUSH2 0x4439 JUMPI INVALID JUMPDEST PUSH1 0x20 MUL PUSH1 0x20 ADD ADD MLOAD DUP6 DUP5 DUP2 MLOAD DUP2 LT PUSH2 0x40DF JUMPI INVALID JUMPDEST SWAP2 POP PUSH1 0x1 ADD PUSH2 0x43B6 JUMP JUMPDEST POP PUSH8 0xDE0B6B3A7640000 PUSH1 0x0 JUMPDEST DUP10 MLOAD DUP2 LT ISZERO PUSH2 0x4538 JUMPI PUSH1 0x0 DUP4 DUP6 DUP4 DUP2 MLOAD DUP2 LT PUSH2 0x447C JUMPI INVALID JUMPDEST PUSH1 0x20 MUL PUSH1 0x20 ADD ADD MLOAD GT ISZERO PUSH2 0x44D8 JUMPI PUSH1 0x0 PUSH2 0x44A1 PUSH2 0x4281 DUP7 PUSH8 0xDE0B6B3A7640000 PUSH2 0x1704 JUMP JUMPDEST SWAP1 POP PUSH1 0x0 PUSH2 0x44B5 DUP3 DUP13 DUP7 DUP2 MLOAD DUP2 LT PUSH2 0x41C5 JUMPI INVALID JUMPDEST SWAP1 POP PUSH2 0x44CF PUSH2 0x422F PUSH2 0x2713 PUSH8 0xDE0B6B3A7640000 DUP13 PUSH2 0x1704 JUMP JUMPDEST SWAP3 POP POP POP PUSH2 0x44EF JUMP JUMPDEST DUP9 DUP3 DUP2 MLOAD DUP2 LT PUSH2 0x44E4 JUMPI INVALID JUMPDEST PUSH1 0x20 MUL PUSH1 0x20 ADD ADD MLOAD SWAP1 POP JUMPDEST PUSH1 0x0 PUSH2 0x4518 DUP13 DUP5 DUP2 MLOAD DUP2 LT PUSH2 0x4500 JUMPI INVALID JUMPDEST PUSH1 0x20 MUL PUSH1 0x20 ADD ADD MLOAD PUSH2 0xC1E DUP5 DUP16 DUP8 DUP2 MLOAD DUP2 LT PUSH2 0x43F9 JUMPI INVALID JUMPDEST SWAP1 POP PUSH2 0x452C PUSH2 0x4336 DUP13 DUP6 DUP2 MLOAD DUP2 LT PUSH2 0x431F JUMPI INVALID JUMPDEST SWAP4 POP POP POP PUSH1 0x1 ADD PUSH2 0x4464 JUMP JUMPDEST POP PUSH8 0xDE0B6B3A7640000 DUP2 GT ISZERO PUSH2 0x456F JUMPI PUSH2 0x4565 PUSH2 0x455E DUP3 PUSH8 0xDE0B6B3A7640000 PUSH2 0x1704 JUMP JUMPDEST DUP8 SWAP1 PUSH2 0x3526 JUMP JUMPDEST SWAP4 POP POP POP POP PUSH2 0x1285 JUMP JUMPDEST PUSH1 0x0 SWAP4 POP POP POP POP PUSH2 0x1285 JUMP JUMPDEST PUSH1 0x0 DUP1 PUSH2 0x458C DUP5 PUSH2 0x27E9 DUP2 DUP9 PUSH2 0x16D6 JUMP JUMPDEST SWAP1 POP PUSH2 0x45A5 PUSH8 0x29A2241AF62C0000 DUP3 GT ISZERO PUSH2 0x133 PUSH2 0x18DC JUMP JUMPDEST PUSH1 0x0 PUSH2 0x45BC PUSH2 0x3FD8 PUSH8 0xDE0B6B3A7640000 DUP10 PUSH2 0x24B5 JUMP JUMPDEST SWAP1 POP PUSH1 0x0 PUSH2 0x45DC PUSH2 0x45D5 DUP4 PUSH8 0xDE0B6B3A7640000 PUSH2 0x1704 JUMP JUMPDEST DUP11 SWAP1 PUSH2 0x2403 JUMP JUMPDEST SWAP1 POP PUSH1 0x0 PUSH2 0x45E9 DUP10 PUSH2 0x248F JUMP JUMPDEST SWAP1 POP PUSH1 0x0 PUSH2 0x45F7 DUP4 DUP4 PUSH2 0x2403 JUMP JUMPDEST SWAP1 POP PUSH1 0x0 PUSH2 0x4605 DUP5 DUP4 PUSH2 0x1704 JUMP JUMPDEST SWAP1 POP PUSH2 0x4047 PUSH2 0x4040 PUSH2 0x461F PUSH8 0xDE0B6B3A7640000 DUP12 PUSH2 0x1704 JUMP JUMPDEST DUP5 SWAP1 PUSH2 0x24B5 JUMP JUMPDEST PUSH1 0x40 DUP1 MLOAD PUSH1 0x60 DUP2 ADD SWAP1 SWAP2 MSTORE DUP1 PUSH1 0x0 DUP2 MSTORE PUSH1 0x20 ADD PUSH1 0x0 DUP2 MSTORE PUSH1 0x20 ADD PUSH1 0x0 DUP2 MSTORE POP SWAP1 JUMP JUMPDEST PUSH1 0x40 DUP1 MLOAD DUP1 DUP3 ADD SWAP1 SWAP2 MSTORE PUSH1 0x0 DUP1 DUP3 MSTORE PUSH1 0x20 DUP3 ADD MSTORE SWAP1 JUMP JUMPDEST PUSH1 0x40 MLOAD DUP1 PUSH1 0xE0 ADD PUSH1 0x40 MSTORE DUP1 PUSH1 0x0 DUP2 MSTORE PUSH1 0x20 ADD PUSH1 0x0 DUP2 MSTORE PUSH1 0x20 ADD PUSH1 0x0 DUP2 MSTORE PUSH1 0x20 ADD PUSH1 0x0 DUP2 MSTORE PUSH1 0x20 ADD PUSH1 0x0 DUP2 MSTORE PUSH1 0x20 ADD PUSH1 0x0 DUP2 MSTORE PUSH1 0x20 ADD PUSH1 0x0 DUP2 MSTORE POP SWAP1 JUMP JUMPDEST PUSH1 0x40 MLOAD DUP1 PUSH1 0x40 ADD PUSH1 0x40 MSTORE DUP1 PUSH1 0x0 DUP2 MSTORE PUSH1 0x20 ADD PUSH1 0x0 DUP2 MSTORE POP SWAP1 JUMP JUMPDEST DUP1 CALLDATALOAD PUSH2 0x812 DUP2 PUSH2 0x5560 JUMP JUMPDEST PUSH1 0x0 DUP3 PUSH1 0x1F DUP4 ADD SLT PUSH2 0x46D1 JUMPI DUP1 DUP2 REVERT JUMPDEST DUP2 CALLDATALOAD PUSH2 0x46E4 PUSH2 0x46DF DUP3 PUSH2 0x5541 JUMP JUMPDEST PUSH2 0x551B JUMP JUMPDEST DUP2 DUP2 MSTORE SWAP2 POP PUSH1 0x20 DUP1 DUP4 ADD SWAP1 DUP5 DUP2 ADD DUP2 DUP5 MUL DUP7 ADD DUP3 ADD DUP8 LT ISZERO PUSH2 0x4705 JUMPI PUSH1 0x0 DUP1 REVERT JUMPDEST PUSH1 0x0 JUMPDEST DUP5 DUP2 LT ISZERO PUSH2 0x4724 JUMPI DUP2 CALLDATALOAD DUP5 MSTORE SWAP3 DUP3 ADD SWAP3 SWAP1 DUP3 ADD SWAP1 PUSH1 0x1 ADD PUSH2 0x4708 JUMP JUMPDEST POP POP POP POP POP SWAP3 SWAP2 POP POP JUMP JUMPDEST PUSH1 0x0 DUP3 PUSH1 0x1F DUP4 ADD SLT PUSH2 0x473F JUMPI DUP1 DUP2 REVERT JUMPDEST DUP2 MLOAD PUSH2 0x474D PUSH2 0x46DF DUP3 PUSH2 0x5541 JUMP JUMPDEST DUP2 DUP2 MSTORE SWAP2 POP PUSH1 0x20 DUP1 DUP4 ADD SWAP1 DUP5 DUP2 ADD DUP2 DUP5 MUL DUP7 ADD DUP3 ADD DUP8 LT ISZERO PUSH2 0x476E JUMPI PUSH1 0x0 DUP1 REVERT JUMPDEST PUSH1 0x0 JUMPDEST DUP5 DUP2 LT ISZERO PUSH2 0x4724 JUMPI DUP2 MLOAD DUP5 MSTORE SWAP3 DUP3 ADD SWAP3 SWAP1 DUP3 ADD SWAP1 PUSH1 0x1 ADD PUSH2 0x4771 JUMP JUMPDEST PUSH1 0x0 DUP3 PUSH1 0x1F DUP4 ADD SLT PUSH2 0x479D JUMPI DUP1 DUP2 REVERT JUMPDEST DUP2 CALLDATALOAD PUSH1 0x1 PUSH1 0x1 PUSH1 0x40 SHL SUB DUP2 GT ISZERO PUSH2 0x47B2 JUMPI DUP2 DUP3 REVERT JUMPDEST PUSH2 0x47C5 PUSH1 0x1F DUP3 ADD PUSH1 0x1F NOT AND PUSH1 0x20 ADD PUSH2 0x551B JUMP JUMPDEST SWAP2 POP DUP1 DUP3 MSTORE DUP4 PUSH1 0x20 DUP3 DUP6 ADD ADD GT ISZERO PUSH2 0x47DC JUMPI PUSH1 0x0 DUP1 REVERT JUMPDEST DUP1 PUSH1 0x20 DUP5 ADD PUSH1 0x20 DUP5 ADD CALLDATACOPY PUSH1 0x0 SWAP1 DUP3 ADD PUSH1 0x20 ADD MSTORE SWAP3 SWAP2 POP POP JUMP JUMPDEST DUP1 CALLDATALOAD PUSH1 0x2 DUP2 LT PUSH2 0x812 JUMPI PUSH1 0x0 DUP1 REVERT JUMPDEST DUP1 CALLDATALOAD PUSH2 0x812 DUP2 PUSH2 0x5583 JUMP JUMPDEST PUSH1 0x0 PUSH1 0xE0 DUP3 DUP5 SUB SLT ISZERO PUSH2 0x4820 JUMPI DUP1 DUP2 REVERT JUMPDEST PUSH2 0x482A PUSH1 0xE0 PUSH2 0x551B JUMP JUMPDEST SWAP1 POP DUP2 CALLDATALOAD DUP2 MSTORE PUSH1 0x20 DUP3 ADD CALLDATALOAD PUSH1 0x20 DUP3 ADD MSTORE PUSH1 0x40 DUP3 ADD CALLDATALOAD PUSH1 0x40 DUP3 ADD MSTORE PUSH1 0x60 DUP3 ADD CALLDATALOAD PUSH1 0x60 DUP3 ADD MSTORE PUSH1 0x80 DUP3 ADD CALLDATALOAD PUSH1 0x80 DUP3 ADD MSTORE PUSH1 0xA0 DUP3 ADD CALLDATALOAD PUSH1 0xA0 DUP3 ADD MSTORE PUSH1 0xC0 DUP3 ADD CALLDATALOAD PUSH1 0xC0 DUP3 ADD MSTORE SWAP3 SWAP2 POP POP JUMP JUMPDEST PUSH1 0x0 PUSH1 0x20 DUP3 DUP5 SUB SLT ISZERO PUSH2 0x4883 JUMPI DUP1 DUP2 REVERT JUMPDEST DUP2 CALLDATALOAD PUSH2 0x9D2 DUP2 PUSH2 0x5560 JUMP JUMPDEST PUSH1 0x0 DUP1 PUSH1 0x40 DUP4 DUP6 SUB SLT ISZERO PUSH2 0x48A0 JUMPI DUP1 DUP2 REVERT JUMPDEST DUP3 CALLDATALOAD PUSH2 0x48AB DUP2 PUSH2 0x5560 JUMP JUMPDEST SWAP2 POP PUSH1 0x20 DUP4 ADD CALLDATALOAD PUSH2 0x48BB DUP2 PUSH2 0x5560 JUMP JUMPDEST DUP1 SWAP2 POP POP SWAP3 POP SWAP3 SWAP1 POP JUMP JUMPDEST PUSH1 0x0 DUP1 PUSH1 0x0 PUSH1 0x60 DUP5 DUP7 SUB SLT ISZERO PUSH2 0x48DA JUMPI DUP1 DUP2 REVERT JUMPDEST DUP4 CALLDATALOAD PUSH2 0x48E5 DUP2 PUSH2 0x5560 JUMP JUMPDEST SWAP3 POP PUSH1 0x20 DUP5 ADD CALLDATALOAD PUSH2 0x48F5 DUP2 PUSH2 0x5560 JUMP JUMPDEST SWAP3 SWAP6 SWAP3 SWAP5 POP POP POP PUSH1 0x40 SWAP2 SWAP1 SWAP2 ADD CALLDATALOAD SWAP1 JUMP JUMPDEST PUSH1 0x0 DUP1 PUSH1 0x0 DUP1 PUSH1 0x0 DUP1 PUSH1 0x0 PUSH1 0xE0 DUP9 DUP11 SUB SLT ISZERO PUSH2 0x4920 JUMPI DUP5 DUP6 REVERT JUMPDEST DUP8 CALLDATALOAD PUSH2 0x492B DUP2 PUSH2 0x5560 JUMP JUMPDEST SWAP7 POP PUSH1 0x20 DUP9 ADD CALLDATALOAD PUSH2 0x493B DUP2 PUSH2 0x5560 JUMP JUMPDEST SWAP6 POP PUSH1 0x40 DUP9 ADD CALLDATALOAD SWAP5 POP PUSH1 0x60 DUP9 ADD CALLDATALOAD SWAP4 POP PUSH1 0x80 DUP9 ADD CALLDATALOAD PUSH1 0xFF DUP2 AND DUP2 EQ PUSH2 0x495E JUMPI DUP4 DUP5 REVERT JUMPDEST SWAP7 SWAP10 SWAP6 SWAP9 POP SWAP4 SWAP7 SWAP3 SWAP6 SWAP5 PUSH1 0xA0 DUP5 ADD CALLDATALOAD SWAP5 POP PUSH1 0xC0 SWAP1 SWAP4 ADD CALLDATALOAD SWAP3 SWAP2 POP POP JUMP JUMPDEST PUSH1 0x0 DUP1 PUSH1 0x40 DUP4 DUP6 SUB SLT ISZERO PUSH2 0x498D JUMPI DUP2 DUP3 REVERT JUMPDEST DUP3 CALLDATALOAD PUSH2 0x4998 DUP2 PUSH2 0x5560 JUMP JUMPDEST SWAP5 PUSH1 0x20 SWAP4 SWAP1 SWAP4 ADD CALLDATALOAD SWAP4 POP POP POP JUMP JUMPDEST PUSH1 0x0 DUP1 PUSH1 0x0 PUSH1 0x60 DUP5 DUP7 SUB SLT ISZERO PUSH2 0x49BA JUMPI DUP1 DUP2 REVERT JUMPDEST DUP4 MLOAD PUSH1 0x1 PUSH1 0x1 PUSH1 0x40 SHL SUB DUP1 DUP3 GT ISZERO PUSH2 0x49D0 JUMPI DUP3 DUP4 REVERT JUMPDEST DUP2 DUP7 ADD SWAP2 POP DUP7 PUSH1 0x1F DUP4 ADD SLT PUSH2 0x49E3 JUMPI DUP3 DUP4 REVERT JUMPDEST DUP2 MLOAD PUSH2 0x49F1 PUSH2 0x46DF DUP3 PUSH2 0x5541 JUMP JUMPDEST DUP1 DUP3 DUP3 MSTORE PUSH1 0x20 DUP1 DUP4 ADD SWAP3 POP DUP1 DUP7 ADD DUP12 DUP3 DUP4 DUP8 MUL DUP10 ADD ADD GT ISZERO PUSH2 0x4A11 JUMPI DUP8 DUP9 REVERT JUMPDEST DUP8 SWAP7 POP JUMPDEST DUP5 DUP8 LT ISZERO PUSH2 0x4A3C JUMPI DUP1 MLOAD PUSH2 0x4A28 DUP2 PUSH2 0x5560 JUMP JUMPDEST DUP5 MSTORE PUSH1 0x1 SWAP7 SWAP1 SWAP7 ADD SWAP6 SWAP3 DUP2 ADD SWAP3 DUP2 ADD PUSH2 0x4A15 JUMP JUMPDEST POP DUP10 ADD MLOAD SWAP1 SWAP8 POP SWAP4 POP POP POP DUP1 DUP3 GT ISZERO PUSH2 0x4A53 JUMPI DUP3 DUP4 REVERT JUMPDEST POP PUSH2 0x4A60 DUP7 DUP3 DUP8 ADD PUSH2 0x472F JUMP JUMPDEST SWAP3 POP POP PUSH1 0x40 DUP5 ADD MLOAD SWAP1 POP SWAP3 POP SWAP3 POP SWAP3 JUMP JUMPDEST PUSH1 0x0 PUSH1 0x20 DUP1 DUP4 DUP6 SUB SLT ISZERO PUSH2 0x4A83 JUMPI DUP2 DUP3 REVERT JUMPDEST DUP3 CALLDATALOAD PUSH1 0x1 PUSH1 0x1 PUSH1 0x40 SHL SUB DUP2 GT ISZERO PUSH2 0x4A98 JUMPI DUP3 DUP4 REVERT JUMPDEST DUP4 ADD PUSH1 0x1F DUP2 ADD DUP6 SGT PUSH2 0x4AA8 JUMPI DUP3 DUP4 REVERT JUMPDEST DUP1 CALLDATALOAD PUSH2 0x4AB6 PUSH2 0x46DF DUP3 PUSH2 0x5541 JUMP JUMPDEST DUP2 DUP2 MSTORE DUP4 DUP2 ADD SWAP1 DUP4 DUP6 ADD PUSH1 0x40 DUP1 DUP6 MUL DUP7 ADD DUP8 ADD DUP11 LT ISZERO PUSH2 0x4AD4 JUMPI DUP8 DUP9 REVERT JUMPDEST DUP8 SWAP6 POP JUMPDEST DUP5 DUP7 LT ISZERO PUSH2 0x4B21 JUMPI DUP1 DUP3 DUP12 SUB SLT ISZERO PUSH2 0x4AEE JUMPI DUP8 DUP9 REVERT JUMPDEST PUSH2 0x4AF7 DUP2 PUSH2 0x551B JUMP JUMPDEST PUSH2 0x4B01 DUP12 DUP5 PUSH2 0x4804 JUMP JUMPDEST DUP2 MSTORE DUP3 DUP9 ADD CALLDATALOAD DUP9 DUP3 ADD MSTORE DUP5 MSTORE PUSH1 0x1 SWAP6 SWAP1 SWAP6 ADD SWAP5 SWAP3 DUP7 ADD SWAP3 SWAP1 DUP2 ADD SWAP1 PUSH2 0x4AD8 JUMP JUMPDEST POP SWAP1 SWAP9 SWAP8 POP POP POP POP POP POP POP POP JUMP JUMPDEST PUSH1 0x0 PUSH1 0x20 DUP1 DUP4 DUP6 SUB SLT ISZERO PUSH2 0x4B41 JUMPI DUP2 DUP3 REVERT JUMPDEST DUP3 CALLDATALOAD PUSH1 0x1 PUSH1 0x1 PUSH1 0x40 SHL SUB DUP2 GT ISZERO PUSH2 0x4B56 JUMPI DUP3 DUP4 REVERT JUMPDEST DUP4 ADD PUSH1 0x1F DUP2 ADD DUP6 SGT PUSH2 0x4B66 JUMPI DUP3 DUP4 REVERT JUMPDEST DUP1 CALLDATALOAD PUSH2 0x4B74 PUSH2 0x46DF DUP3 PUSH2 0x5541 JUMP JUMPDEST DUP2 DUP2 MSTORE DUP4 DUP2 ADD SWAP1 DUP4 DUP6 ADD PUSH1 0x60 DUP1 DUP6 MUL DUP7 ADD DUP8 ADD DUP11 LT ISZERO PUSH2 0x4B92 JUMPI DUP8 DUP9 REVERT JUMPDEST DUP8 SWAP6 POP JUMPDEST DUP5 DUP7 LT ISZERO PUSH2 0x4B21 JUMPI DUP1 DUP3 DUP12 SUB SLT ISZERO PUSH2 0x4BAC JUMPI DUP8 DUP9 REVERT JUMPDEST PUSH2 0x4BB5 DUP2 PUSH2 0x551B JUMP JUMPDEST PUSH2 0x4BBF DUP12 DUP5 PUSH2 0x4804 JUMP JUMPDEST DUP2 MSTORE DUP3 DUP9 ADD CALLDATALOAD DUP9 DUP3 ADD MSTORE PUSH1 0x40 DUP1 DUP5 ADD CALLDATALOAD SWAP1 DUP3 ADD MSTORE DUP5 MSTORE PUSH1 0x1 SWAP6 SWAP1 SWAP6 ADD SWAP5 SWAP3 DUP7 ADD SWAP3 SWAP1 DUP2 ADD SWAP1 PUSH2 0x4B96 JUMP JUMPDEST PUSH1 0x0 DUP1 PUSH1 0x40 DUP4 DUP6 SUB SLT ISZERO PUSH2 0x4BFB JUMPI DUP2 DUP3 REVERT JUMPDEST DUP3 CALLDATALOAD PUSH1 0x1 PUSH1 0x1 PUSH1 0x40 SHL SUB DUP1 DUP3 GT ISZERO PUSH2 0x4C11 JUMPI DUP4 DUP5 REVERT JUMPDEST PUSH2 0x4C1D DUP7 DUP4 DUP8 ADD PUSH2 0x46C1 JUMP JUMPDEST SWAP4 POP PUSH1 0x20 SWAP2 POP DUP2 DUP6 ADD CALLDATALOAD DUP2 DUP2 GT ISZERO PUSH2 0x4C33 JUMPI DUP4 DUP5 REVERT JUMPDEST DUP6 ADD SWAP1 POP PUSH1 0x1F DUP2 ADD DUP7 SGT PUSH2 0x4C45 JUMPI DUP3 DUP4 REVERT JUMPDEST DUP1 CALLDATALOAD PUSH2 0x4C53 PUSH2 0x46DF DUP3 PUSH2 0x5541 JUMP JUMPDEST DUP2 DUP2 MSTORE DUP4 DUP2 ADD SWAP1 DUP4 DUP6 ADD PUSH1 0xE0 DUP1 DUP6 MUL DUP7 ADD DUP8 ADD DUP12 LT ISZERO PUSH2 0x4C71 JUMPI DUP8 DUP9 REVERT JUMPDEST DUP8 SWAP6 POP JUMPDEST DUP5 DUP7 LT ISZERO PUSH2 0x4C9D JUMPI PUSH2 0x4C87 DUP12 DUP4 PUSH2 0x480F JUMP JUMPDEST DUP5 MSTORE PUSH1 0x1 SWAP6 SWAP1 SWAP6 ADD SWAP5 SWAP3 DUP7 ADD SWAP3 SWAP1 DUP2 ADD SWAP1 PUSH2 0x4C75 JUMP JUMPDEST POP SWAP7 SWAP10 SWAP1 SWAP9 POP SWAP7 POP POP POP POP POP POP POP JUMP JUMPDEST PUSH1 0x0 DUP1 PUSH1 0x40 DUP4 DUP6 SUB SLT ISZERO PUSH2 0x4CBF JUMPI DUP2 DUP3 REVERT JUMPDEST DUP3 CALLDATALOAD PUSH1 0x1 PUSH1 0x1 PUSH1 0x40 SHL SUB DUP2 GT ISZERO PUSH2 0x4CD4 JUMPI DUP3 DUP4 REVERT JUMPDEST PUSH2 0x4CE0 DUP6 DUP3 DUP7 ADD PUSH2 0x46C1 JUMP JUMPDEST SWAP6 PUSH1 0x20 SWAP5 SWAP1 SWAP5 ADD CALLDATALOAD SWAP5 POP POP POP POP JUMP JUMPDEST PUSH1 0x0 PUSH1 0x20 DUP3 DUP5 SUB SLT ISZERO PUSH2 0x4D00 JUMPI DUP1 DUP2 REVERT JUMPDEST DUP2 CALLDATALOAD PUSH2 0x9D2 DUP2 PUSH2 0x5575 JUMP JUMPDEST PUSH1 0x0 PUSH1 0x20 DUP3 DUP5 SUB SLT ISZERO PUSH2 0x4D1C JUMPI DUP1 DUP2 REVERT JUMPDEST DUP2 MLOAD PUSH2 0x9D2 DUP2 PUSH2 0x5575 JUMP JUMPDEST PUSH1 0x0 PUSH1 0x20 DUP3 DUP5 SUB SLT ISZERO PUSH2 0x4D38 JUMPI DUP1 DUP2 REVERT JUMPDEST POP CALLDATALOAD SWAP2 SWAP1 POP JUMP JUMPDEST PUSH1 0x0 DUP1 PUSH1 0x0 DUP1 PUSH1 0x0 DUP1 PUSH1 0x0 PUSH1 0xE0 DUP9 DUP11 SUB SLT ISZERO PUSH2 0x4D59 JUMPI DUP1 DUP2 REVERT JUMPDEST DUP8 CALLDATALOAD SWAP7 POP PUSH1 0x20 DUP9 ADD CALLDATALOAD PUSH2 0x4D6B DUP2 PUSH2 0x5560 JUMP JUMPDEST SWAP6 POP PUSH1 0x40 DUP9 ADD CALLDATALOAD PUSH2 0x4D7B DUP2 PUSH2 0x5560 JUMP JUMPDEST SWAP5 POP PUSH1 0x60 DUP9 ADD CALLDATALOAD PUSH1 0x1 PUSH1 0x1 PUSH1 0x40 SHL SUB DUP1 DUP3 GT ISZERO PUSH2 0x4D96 JUMPI DUP3 DUP4 REVERT JUMPDEST PUSH2 0x4DA2 DUP12 DUP4 DUP13 ADD PUSH2 0x46C1 JUMP JUMPDEST SWAP6 POP PUSH1 0x80 DUP11 ADD CALLDATALOAD SWAP5 POP PUSH1 0xA0 DUP11 ADD CALLDATALOAD SWAP4 POP PUSH1 0xC0 DUP11 ADD CALLDATALOAD SWAP2 POP DUP1 DUP3 GT ISZERO PUSH2 0x4DC5 JUMPI DUP3 DUP4 REVERT JUMPDEST POP PUSH2 0x4DD2 DUP11 DUP3 DUP12 ADD PUSH2 0x478D JUMP JUMPDEST SWAP2 POP POP SWAP3 SWAP6 SWAP9 SWAP2 SWAP5 SWAP8 POP SWAP3 SWAP6 POP JUMP JUMPDEST PUSH1 0x0 DUP1 PUSH1 0x0 DUP1 PUSH1 0x0 PUSH1 0xA0 DUP7 DUP9 SUB SLT ISZERO PUSH2 0x4DF8 JUMPI DUP3 DUP4 REVERT JUMPDEST POP POP DUP4 CALLDATALOAD SWAP6 PUSH1 0x20 DUP6 ADD CALLDATALOAD SWAP6 POP PUSH1 0x40 DUP6 ADD CALLDATALOAD SWAP5 PUSH1 0x60 DUP2 ADD CALLDATALOAD SWAP5 POP PUSH1 0x80 ADD CALLDATALOAD SWAP3 POP SWAP1 POP JUMP JUMPDEST PUSH1 0x0 PUSH1 0x20 DUP3 DUP5 SUB SLT ISZERO PUSH2 0x4E2C JUMPI DUP1 DUP2 REVERT JUMPDEST DUP2 CALLDATALOAD PUSH1 0x1 PUSH1 0x1 PUSH1 0xE0 SHL SUB NOT DUP2 AND DUP2 EQ PUSH2 0x9D2 JUMPI DUP2 DUP3 REVERT JUMPDEST PUSH1 0x0 PUSH1 0x20 DUP3 DUP5 SUB SLT ISZERO PUSH2 0x4E54 JUMPI DUP1 DUP2 REVERT JUMPDEST DUP2 MLOAD PUSH2 0x9D2 DUP2 PUSH2 0x5560 JUMP JUMPDEST PUSH1 0x0 PUSH1 0x20 DUP3 DUP5 SUB SLT ISZERO PUSH2 0x4E70 JUMPI DUP1 DUP2 REVERT JUMPDEST DUP2 MLOAD PUSH2 0x9D2 DUP2 PUSH2 0x5583 JUMP JUMPDEST PUSH1 0x0 DUP1 PUSH1 0x0 PUSH1 0x60 DUP5 DUP7 SUB SLT ISZERO PUSH2 0x4E8F JUMPI DUP1 DUP2 REVERT JUMPDEST DUP4 MLOAD PUSH2 0x4E9A DUP2 PUSH2 0x5583 JUMP JUMPDEST PUSH1 0x20 DUP6 ADD MLOAD SWAP1 SWAP4 POP PUSH1 0x1 PUSH1 0x1 PUSH1 0x40 SHL SUB DUP2 GT ISZERO PUSH2 0x4EB5 JUMPI DUP2 DUP3 REVERT JUMPDEST PUSH2 0x4A60 DUP7 DUP3 DUP8 ADD PUSH2 0x472F JUMP JUMPDEST PUSH1 0x0 DUP1 PUSH1 0x40 DUP4 DUP6 SUB SLT ISZERO PUSH2 0x4ED3 JUMPI DUP2 DUP3 REVERT JUMPDEST DUP3 MLOAD PUSH2 0x4EDE DUP2 PUSH2 0x5583 JUMP JUMPDEST PUSH1 0x20 SWAP4 SWAP1 SWAP4 ADD MLOAD SWAP3 SWAP5 SWAP3 SWAP4 POP POP POP JUMP JUMPDEST PUSH1 0x0 DUP1 PUSH1 0x0 PUSH1 0x60 DUP5 DUP7 SUB SLT ISZERO PUSH2 0x4F02 JUMPI DUP1 DUP2 REVERT JUMPDEST DUP4 MLOAD PUSH2 0x4F0D DUP2 PUSH2 0x5583 JUMP JUMPDEST PUSH1 0x20 DUP6 ADD MLOAD PUSH1 0x40 SWAP1 SWAP6 ADD MLOAD SWAP1 SWAP7 SWAP5 SWAP6 POP SWAP4 SWAP3 POP POP POP JUMP JUMPDEST PUSH1 0x0 DUP1 PUSH1 0x40 DUP4 DUP6 SUB SLT ISZERO PUSH2 0x4F36 JUMPI DUP2 DUP3 REVERT JUMPDEST DUP3 MLOAD PUSH2 0x4F41 DUP2 PUSH2 0x5583 JUMP JUMPDEST PUSH1 0x20 DUP5 ADD MLOAD SWAP1 SWAP3 POP PUSH1 0x1 PUSH1 0x1 PUSH1 0x40 SHL SUB DUP2 GT ISZERO PUSH2 0x4F5C JUMPI DUP2 DUP3 REVERT JUMPDEST PUSH2 0x4F68 DUP6 DUP3 DUP7 ADD PUSH2 0x472F JUMP JUMPDEST SWAP2 POP POP SWAP3 POP SWAP3 SWAP1 POP JUMP JUMPDEST PUSH1 0x0 PUSH1 0x20 DUP3 DUP5 SUB SLT ISZERO PUSH2 0x4F83 JUMPI DUP1 DUP2 REVERT JUMPDEST DUP2 CALLDATALOAD PUSH2 0x9D2 DUP2 PUSH2 0x5583 JUMP JUMPDEST PUSH1 0x0 DUP1 PUSH1 0x0 PUSH1 0x60 DUP5 DUP7 SUB SLT ISZERO PUSH2 0x4FA2 JUMPI DUP1 DUP2 REVERT JUMPDEST DUP4 CALLDATALOAD PUSH2 0x4FAD DUP2 PUSH2 0x5583 JUMP JUMPDEST SWAP6 PUSH1 0x20 DUP6 ADD CALLDATALOAD SWAP6 POP PUSH1 0x40 SWAP1 SWAP5 ADD CALLDATALOAD SWAP4 SWAP3 POP POP POP JUMP JUMPDEST PUSH1 0x0 PUSH1 0xC0 DUP3 DUP5 SUB SLT ISZERO PUSH2 0x4FD3 JUMPI DUP1 DUP2 REVERT JUMPDEST PUSH2 0x4FDD PUSH1 0xC0 PUSH2 0x551B JUMP JUMPDEST DUP3 CALLDATALOAD DUP2 MSTORE PUSH1 0x20 DUP4 ADD CALLDATALOAD PUSH1 0x20 DUP3 ADD MSTORE PUSH1 0x40 DUP4 ADD CALLDATALOAD PUSH1 0x40 DUP3 ADD MSTORE PUSH1 0x60 DUP4 ADD CALLDATALOAD PUSH1 0x60 DUP3 ADD MSTORE PUSH1 0x80 DUP4 ADD CALLDATALOAD PUSH2 0x500D DUP2 PUSH2 0x5575 JUMP JUMPDEST PUSH1 0x80 DUP3 ADD MSTORE PUSH1 0xA0 SWAP3 DUP4 ADD CALLDATALOAD SWAP3 DUP2 ADD SWAP3 SWAP1 SWAP3 MSTORE POP SWAP2 SWAP1 POP JUMP JUMPDEST PUSH1 0x0 PUSH1 0xE0 DUP3 DUP5 SUB SLT ISZERO PUSH2 0x5036 JUMPI DUP1 DUP2 REVERT JUMPDEST PUSH2 0x9D2 DUP4 DUP4 PUSH2 0x480F JUMP JUMPDEST PUSH1 0x0 DUP1 PUSH1 0x0 PUSH1 0x60 DUP5 DUP7 SUB SLT ISZERO PUSH2 0x5054 JUMPI DUP1 DUP2 REVERT JUMPDEST DUP4 CALLDATALOAD PUSH1 0x1 PUSH1 0x1 PUSH1 0x40 SHL SUB DUP1 DUP3 GT ISZERO PUSH2 0x506A JUMPI DUP3 DUP4 REVERT JUMPDEST DUP2 DUP7 ADD SWAP2 POP PUSH2 0x120 DUP1 DUP4 DUP10 SUB SLT ISZERO PUSH2 0x5080 JUMPI DUP4 DUP5 REVERT JUMPDEST PUSH2 0x5089 DUP2 PUSH2 0x551B JUMP JUMPDEST SWAP1 POP PUSH2 0x5095 DUP9 DUP5 PUSH2 0x47F5 JUMP JUMPDEST DUP2 MSTORE PUSH2 0x50A4 DUP9 PUSH1 0x20 DUP6 ADD PUSH2 0x46B6 JUMP JUMPDEST PUSH1 0x20 DUP3 ADD MSTORE PUSH2 0x50B6 DUP9 PUSH1 0x40 DUP6 ADD PUSH2 0x46B6 JUMP JUMPDEST PUSH1 0x40 DUP3 ADD MSTORE PUSH1 0x60 DUP4 ADD CALLDATALOAD PUSH1 0x60 DUP3 ADD MSTORE PUSH1 0x80 DUP4 ADD CALLDATALOAD PUSH1 0x80 DUP3 ADD MSTORE PUSH1 0xA0 DUP4 ADD CALLDATALOAD PUSH1 0xA0 DUP3 ADD MSTORE PUSH2 0x50E6 DUP9 PUSH1 0xC0 DUP6 ADD PUSH2 0x46B6 JUMP JUMPDEST PUSH1 0xC0 DUP3 ADD MSTORE PUSH2 0x50F8 DUP9 PUSH1 0xE0 DUP6 ADD PUSH2 0x46B6 JUMP JUMPDEST PUSH1 0xE0 DUP3 ADD MSTORE PUSH2 0x100 DUP1 DUP5 ADD CALLDATALOAD DUP4 DUP2 GT ISZERO PUSH2 0x5110 JUMPI DUP6 DUP7 REVERT JUMPDEST PUSH2 0x511C DUP11 DUP3 DUP8 ADD PUSH2 0x478D JUMP JUMPDEST SWAP2 DUP4 ADD SWAP2 SWAP1 SWAP2 MSTORE POP SWAP8 PUSH1 0x20 DUP8 ADD CALLDATALOAD SWAP8 POP PUSH1 0x40 SWAP1 SWAP7 ADD CALLDATALOAD SWAP6 SWAP5 POP POP POP POP POP JUMP JUMPDEST PUSH1 0x0 DUP1 PUSH2 0x100 DUP4 DUP6 SUB SLT ISZERO PUSH2 0x514E JUMPI DUP2 DUP3 REVERT JUMPDEST DUP3 CALLDATALOAD SWAP2 POP PUSH2 0x515F DUP5 PUSH1 0x20 DUP6 ADD PUSH2 0x480F JUMP JUMPDEST SWAP1 POP SWAP3 POP SWAP3 SWAP1 POP JUMP JUMPDEST PUSH1 0x0 DUP1 PUSH1 0x0 PUSH1 0x60 DUP5 DUP7 SUB SLT ISZERO PUSH2 0x517C JUMPI DUP1 DUP2 REVERT JUMPDEST POP POP DUP2 CALLDATALOAD SWAP4 PUSH1 0x20 DUP4 ADD CALLDATALOAD SWAP4 POP PUSH1 0x40 SWAP1 SWAP3 ADD CALLDATALOAD SWAP2 SWAP1 POP JUMP JUMPDEST PUSH1 0x0 DUP1 PUSH1 0x0 DUP1 PUSH1 0x80 DUP6 DUP8 SUB SLT ISZERO PUSH2 0x51A8 JUMPI DUP2 DUP3 REVERT JUMPDEST POP POP DUP3 CALLDATALOAD SWAP5 PUSH1 0x20 DUP5 ADD CALLDATALOAD SWAP5 POP PUSH1 0x40 DUP5 ADD CALLDATALOAD SWAP4 PUSH1 0x60 ADD CALLDATALOAD SWAP3 POP SWAP1 POP JUMP JUMPDEST PUSH1 0x0 DUP2 MLOAD DUP1 DUP5 MSTORE PUSH1 0x20 DUP1 DUP6 ADD SWAP5 POP DUP1 DUP5 ADD DUP4 JUMPDEST DUP4 DUP2 LT ISZERO PUSH2 0x51F3 JUMPI DUP2 MLOAD DUP8 MSTORE SWAP6 DUP3 ADD SWAP6 SWAP1 DUP3 ADD SWAP1 PUSH1 0x1 ADD PUSH2 0x51D7 JUMP JUMPDEST POP SWAP5 SWAP6 SWAP5 POP POP POP POP POP JUMP JUMPDEST SWAP2 DUP3 MSTORE PUSH1 0x1 PUSH1 0x1 PUSH1 0xE0 SHL SUB NOT AND PUSH1 0x20 DUP3 ADD MSTORE PUSH1 0x24 ADD SWAP1 JUMP JUMPDEST PUSH1 0x0 DUP3 DUP5 DUP4 CALLDATACOPY SWAP2 ADD SWAP1 DUP2 MSTORE SWAP2 SWAP1 POP JUMP JUMPDEST PUSH2 0x1901 PUSH1 0xF0 SHL DUP2 MSTORE PUSH1 0x2 DUP2 ADD SWAP3 SWAP1 SWAP3 MSTORE PUSH1 0x22 DUP3 ADD MSTORE PUSH1 0x42 ADD SWAP1 JUMP JUMPDEST PUSH1 0x1 PUSH1 0x1 PUSH1 0xA0 SHL SUB SWAP2 SWAP1 SWAP2 AND DUP2 MSTORE PUSH1 0x20 ADD SWAP1 JUMP JUMPDEST PUSH1 0x20 DUP1 DUP3 MSTORE DUP3 MLOAD DUP3 DUP3 ADD DUP2 SWAP1 MSTORE PUSH1 0x0 SWAP2 SWAP1 DUP5 DUP3 ADD SWAP1 PUSH1 0x40 DUP6 ADD SWAP1 DUP5 JUMPDEST DUP2 DUP2 LT ISZERO PUSH2 0x528D JUMPI DUP4 MLOAD DUP4 MSTORE SWAP3 DUP5 ADD SWAP3 SWAP2 DUP5 ADD SWAP2 PUSH1 0x1 ADD PUSH2 0x5271 JUMP JUMPDEST POP SWAP1 SWAP7 SWAP6 POP POP POP POP POP POP JUMP JUMPDEST PUSH1 0x20 DUP1 DUP3 MSTORE DUP3 MLOAD DUP3 DUP3 ADD DUP2 SWAP1 MSTORE PUSH1 0x0 SWAP2 SWAP1 PUSH1 0x40 SWAP1 DUP2 DUP6 ADD SWAP1 DUP7 DUP5 ADD DUP6 JUMPDEST DUP3 DUP2 LT ISZERO PUSH2 0x52DB JUMPI DUP2 MLOAD DUP1 MLOAD DUP6 MSTORE DUP7 ADD MLOAD DUP7 DUP6 ADD MSTORE SWAP3 DUP5 ADD SWAP3 SWAP1 DUP6 ADD SWAP1 PUSH1 0x1 ADD PUSH2 0x52B6 JUMP JUMPDEST POP SWAP2 SWAP8 SWAP7 POP POP POP POP POP POP POP JUMP JUMPDEST PUSH1 0x0 PUSH1 0x20 DUP3 MSTORE PUSH2 0x9D2 PUSH1 0x20 DUP4 ADD DUP5 PUSH2 0x51C4 JUMP JUMPDEST PUSH1 0x0 PUSH1 0x40 DUP3 MSTORE PUSH2 0x530E PUSH1 0x40 DUP4 ADD DUP6 PUSH2 0x51C4 JUMP JUMPDEST DUP3 DUP2 SUB PUSH1 0x20 DUP5 ADD MSTORE PUSH2 0x1285 DUP2 DUP6 PUSH2 0x51C4 JUMP JUMPDEST SWAP1 ISZERO ISZERO DUP2 MSTORE PUSH1 0x20 ADD SWAP1 JUMP JUMPDEST SWAP2 ISZERO ISZERO DUP3 MSTORE PUSH1 0x20 DUP3 ADD MSTORE PUSH1 0x40 ADD SWAP1 JUMP JUMPDEST SWAP3 ISZERO ISZERO DUP4 MSTORE PUSH1 0x20 DUP4 ADD SWAP2 SWAP1 SWAP2 MSTORE PUSH1 0x40 DUP3 ADD MSTORE PUSH1 0x60 ADD SWAP1 JUMP JUMPDEST SWAP1 DUP2 MSTORE PUSH1 0x20 ADD SWAP1 JUMP JUMPDEST SWAP3 DUP4 MSTORE PUSH1 0x1 PUSH1 0x1 PUSH1 0xA0 SHL SUB SWAP2 DUP3 AND PUSH1 0x20 DUP5 ADD MSTORE AND PUSH1 0x40 DUP3 ADD MSTORE PUSH1 0x60 ADD SWAP1 JUMP JUMPDEST SWAP6 DUP7 MSTORE PUSH1 0x1 PUSH1 0x1 PUSH1 0xA0 SHL SUB SWAP5 DUP6 AND PUSH1 0x20 DUP8 ADD MSTORE SWAP3 SWAP1 SWAP4 AND PUSH1 0x40 DUP6 ADD MSTORE PUSH1 0x60 DUP5 ADD MSTORE PUSH1 0x80 DUP4 ADD SWAP2 SWAP1 SWAP2 MSTORE PUSH1 0xA0 DUP3 ADD MSTORE PUSH1 0xC0 ADD SWAP1 JUMP JUMPDEST SWAP5 DUP6 MSTORE PUSH1 0x20 DUP6 ADD SWAP4 SWAP1 SWAP4 MSTORE PUSH1 0x40 DUP5 ADD SWAP2 SWAP1 SWAP2 MSTORE PUSH1 0x60 DUP4 ADD MSTORE PUSH1 0x1 PUSH1 0x1 PUSH1 0xA0 SHL SUB AND PUSH1 0x80 DUP3 ADD MSTORE PUSH1 0xA0 ADD SWAP1 JUMP JUMPDEST SWAP4 DUP5 MSTORE PUSH1 0xFF SWAP3 SWAP1 SWAP3 AND PUSH1 0x20 DUP5 ADD MSTORE PUSH1 0x40 DUP4 ADD MSTORE PUSH1 0x60 DUP3 ADD MSTORE PUSH1 0x80 ADD SWAP1 JUMP JUMPDEST SWAP7 DUP8 MSTORE PUSH1 0x20 DUP8 ADD SWAP6 SWAP1 SWAP6 MSTORE PUSH1 0x40 DUP7 ADD SWAP4 SWAP1 SWAP4 MSTORE PUSH1 0x60 DUP6 ADD SWAP2 SWAP1 SWAP2 MSTORE PUSH1 0x80 DUP5 ADD MSTORE PUSH1 0xA0 DUP4 ADD MSTORE PUSH1 0xC0 DUP3 ADD MSTORE PUSH1 0xE0 ADD SWAP1 JUMP JUMPDEST SWAP6 DUP7 MSTORE PUSH1 0x20 DUP7 ADD SWAP5 SWAP1 SWAP5 MSTORE PUSH1 0x40 DUP6 ADD SWAP3 SWAP1 SWAP3 MSTORE PUSH1 0x60 DUP5 ADD MSTORE ISZERO ISZERO PUSH1 0x80 DUP4 ADD MSTORE PUSH1 0xA0 DUP3 ADD MSTORE PUSH1 0xC0 ADD SWAP1 JUMP JUMPDEST PUSH1 0x0 PUSH1 0x20 DUP1 DUP4 MSTORE DUP4 MLOAD DUP1 DUP3 DUP6 ADD MSTORE DUP3 JUMPDEST DUP2 DUP2 LT ISZERO PUSH2 0x547F JUMPI DUP6 DUP2 ADD DUP4 ADD MLOAD DUP6 DUP3 ADD PUSH1 0x40 ADD MSTORE DUP3 ADD PUSH2 0x5463 JUMP JUMPDEST DUP2 DUP2 GT ISZERO PUSH2 0x5490 JUMPI DUP4 PUSH1 0x40 DUP4 DUP8 ADD ADD MSTORE JUMPDEST POP PUSH1 0x1F ADD PUSH1 0x1F NOT AND SWAP3 SWAP1 SWAP3 ADD PUSH1 0x40 ADD SWAP4 SWAP3 POP POP POP JUMP JUMPDEST PUSH1 0x0 PUSH1 0xE0 DUP3 ADD SWAP1 POP DUP3 MLOAD DUP3 MSTORE PUSH1 0x20 DUP4 ADD MLOAD PUSH1 0x20 DUP4 ADD MSTORE PUSH1 0x40 DUP4 ADD MLOAD PUSH1 0x40 DUP4 ADD MSTORE PUSH1 0x60 DUP4 ADD MLOAD PUSH1 0x60 DUP4 ADD MSTORE PUSH1 0x80 DUP4 ADD MLOAD PUSH1 0x80 DUP4 ADD MSTORE PUSH1 0xA0 DUP4 ADD MLOAD PUSH1 0xA0 DUP4 ADD MSTORE PUSH1 0xC0 DUP4 ADD MLOAD PUSH1 0xC0 DUP4 ADD MSTORE SWAP3 SWAP2 POP POP JUMP JUMPDEST PUSH1 0x0 DUP4 DUP3 MSTORE PUSH1 0x40 PUSH1 0x20 DUP4 ADD MSTORE PUSH2 0xA07 PUSH1 0x40 DUP4 ADD DUP5 PUSH2 0x51C4 JUMP JUMPDEST PUSH1 0xFF SWAP2 SWAP1 SWAP2 AND DUP2 MSTORE PUSH1 0x20 ADD SWAP1 JUMP JUMPDEST PUSH1 0x40 MLOAD DUP2 DUP2 ADD PUSH1 0x1 PUSH1 0x1 PUSH1 0x40 SHL SUB DUP2 GT DUP3 DUP3 LT OR ISZERO PUSH2 0x5539 JUMPI PUSH1 0x0 DUP1 REVERT JUMPDEST PUSH1 0x40 MSTORE SWAP2 SWAP1 POP JUMP JUMPDEST PUSH1 0x0 PUSH1 0x1 PUSH1 0x1 PUSH1 0x40 SHL SUB DUP3 GT ISZERO PUSH2 0x5556 JUMPI DUP1 DUP2 REVERT JUMPDEST POP PUSH1 0x20 SWAP1 DUP2 MUL ADD SWAP1 JUMP JUMPDEST PUSH1 0x1 PUSH1 0x1 PUSH1 0xA0 SHL SUB DUP2 AND DUP2 EQ PUSH2 0x829 JUMPI PUSH1 0x0 DUP1 REVERT JUMPDEST DUP1 ISZERO ISZERO DUP2 EQ PUSH2 0x829 JUMPI PUSH1 0x0 DUP1 REVERT JUMPDEST PUSH1 0x3 DUP2 LT PUSH2 0x829 JUMPI PUSH1 0x0 DUP1 REVERT INVALID LOG2 PUSH5 0x6970667358 0x22 SLT KECCAK256 PUSH20 0xEBA6CBA66BE2E6CCE7F7AEA18DE2F6C9D07E72AF CREATE2 CALLDATACOPY LOG3 0xBA CALLDATASIZE SWAP5 PUSH20 0x3D4C107464736F6C634300070100330000000000 "
		},
		"gasEstimates": {
			"creation": {
				"codeDepositCost": "4391600",
				"executionCost": "infinite",
				"totalCost": "infinite"
			},
			"external": {
				"DOMAIN_SEPARATOR()": "infinite",
				"allowance(address,address)": "infinite",
				"approve(address,uint256)": "22550",
				"balanceOf(address)": "1378",
				"calcLogBPTPrice(uint256,uint256,int256)": "infinite",
				"calcLogSpotPrice(uint256,uint256,uint256,uint256)": "infinite",
				"decimals()": "1158",
				"decode(bytes32)": "infinite",
				"decreaseAllowance(address,uint256)": "23615",
				"enableOracle()": "infinite",
				"encode((int256,int256,int256,int256,int256,int256,uint256))": "infinite",
				"findNearestSamplesTimestamp(uint256[],uint256)": "infinite",
				"fromLowResLog(int256)": "infinite",
				"getActionId(bytes4)": "infinite",
				"getAuthorizer()": "infinite",
				"getInvariant()": "infinite",
				"getLargestSafeQueryWindow()": "360",
				"getLastInvariant()": "1162",
				"getLatest(uint8)": "infinite",
				"getMiscData()": "infinite",
				"getNormalizedWeights()": "infinite",
				"getOwner()": "infinite",
				"getPastAccumulator(uint8,uint256,uint256)": "infinite",
				"getPastAccumulators((uint8,uint256)[])": "infinite",
				"getPausedState()": "infinite",
				"getPoolId()": "infinite",
				"getRate()": "infinite",
				"getSample(uint256)": "infinite",
				"getSwapFeePercentage()": "1243",
				"getTimeWeightedAverage((uint8,uint256,uint256)[])": "infinite",
				"getTotalSamples()": "361",
				"getVault()": "infinite",
				"increaseAllowance(address,uint256)": "23673",
				"mockMiscData((int256,int256,uint256,uint256,bool,uint256))": "infinite",
				"mockOracleDisabled()": "22330",
				"mockOracleIndex(uint256)": "21210",
				"mockSample(uint256,(int256,int256,int256,int256,int256,int256,uint256))": "infinite",
				"mockSamples(uint256[],(int256,int256,int256,int256,int256,int256,uint256)[])": "infinite",
				"name()": "infinite",
				"nonces(address)": "1333",
				"onExitPool(bytes32,address,address,uint256[],uint256,uint256,bytes)": "infinite",
				"onJoinPool(bytes32,address,address,uint256[],uint256,uint256,bytes)": "infinite",
				"onSwap((uint8,address,address,uint256,bytes32,uint256,address,address,bytes),uint256,uint256)": "infinite",
				"permit(address,address,uint256,uint256,uint8,bytes32,bytes32)": "infinite",
				"processPriceData(uint256,uint256,int256,int256,int256)": "infinite",
				"queryExit(bytes32,address,address,uint256[],uint256,uint256,bytes)": "infinite",
				"queryJoin(bytes32,address,address,uint256[],uint256,uint256,bytes)": "infinite",
				"setPaused(bool)": "infinite",
				"setSwapFeePercentage(uint256)": "infinite",
				"symbol()": "infinite",
				"toLowResLog(uint256)": "infinite",
				"totalSupply()": "1141",
				"transfer(address,uint256)": "infinite",
				"transferFrom(address,address,uint256)": "infinite",
				"update(bytes32,int256,int256,int256,uint256)": "infinite"
			},
			"internal": {
				"encode(struct MockWeightedPool2Tokens.MiscData memory)": "infinite"
			}
		},
		"methodIdentifiers": {
			"DOMAIN_SEPARATOR()": "3644e515",
			"allowance(address,address)": "dd62ed3e",
			"approve(address,uint256)": "095ea7b3",
			"balanceOf(address)": "70a08231",
			"calcLogBPTPrice(uint256,uint256,int256)": "be7a6d1e",
			"calcLogSpotPrice(uint256,uint256,uint256,uint256)": "c519a075",
			"decimals()": "313ce567",
			"decode(bytes32)": "c3748ef1",
			"decreaseAllowance(address,uint256)": "a457c2d7",
			"enableOracle()": "292c914a",
			"encode((int256,int256,int256,int256,int256,int256,uint256))": "3d48f8c1",
			"findNearestSamplesTimestamp(uint256[],uint256)": "d4376804",
			"fromLowResLog(int256)": "abb9d0d5",
			"getActionId(bytes4)": "851c1bb3",
			"getAuthorizer()": "aaabadc5",
			"getInvariant()": "c0ff1a15",
			"getLargestSafeQueryWindow()": "ffd088eb",
			"getLastInvariant()": "9b02cdde",
			"getLatest(uint8)": "b10be739",
			"getMiscData()": "4a6b0b15",
			"getNormalizedWeights()": "f89f27ed",
			"getOwner()": "893d20e8",
			"getPastAccumulator(uint8,uint256,uint256)": "264959fb",
			"getPastAccumulators((uint8,uint256)[])": "6b843239",
			"getPausedState()": "1c0de051",
			"getPoolId()": "38fff2d0",
			"getRate()": "679aefce",
			"getSample(uint256)": "60d1507c",
			"getSwapFeePercentage()": "55c67628",
			"getTimeWeightedAverage((uint8,uint256,uint256)[])": "1dccd830",
			"getTotalSamples()": "b48b5b40",
			"getVault()": "8d928af8",
			"increaseAllowance(address,uint256)": "39509351",
			"mockMiscData((int256,int256,uint256,uint256,bool,uint256))": "bf338666",
			"mockOracleDisabled()": "3081bfee",
			"mockOracleIndex(uint256)": "68a54df2",
			"mockSample(uint256,(int256,int256,int256,int256,int256,int256,uint256))": "259efd16",
			"mockSamples(uint256[],(int256,int256,int256,int256,int256,int256,uint256)[])": "e5fe5f3c",
			"name()": "06fdde03",
			"nonces(address)": "7ecebe00",
			"onExitPool(bytes32,address,address,uint256[],uint256,uint256,bytes)": "74f3b009",
			"onJoinPool(bytes32,address,address,uint256[],uint256,uint256,bytes)": "d5c096c4",
			"onSwap((uint8,address,address,uint256,bytes32,uint256,address,address,bytes),uint256,uint256)": "9d2c110c",
			"permit(address,address,uint256,uint256,uint8,bytes32,bytes32)": "d505accf",
			"processPriceData(uint256,uint256,int256,int256,int256)": "d5125db6",
			"queryExit(bytes32,address,address,uint256[],uint256,uint256,bytes)": "6028bfd4",
			"queryJoin(bytes32,address,address,uint256[],uint256,uint256,bytes)": "87ec6817",
			"setPaused(bool)": "16c38b3c",
			"setSwapFeePercentage(uint256)": "38e9922e",
			"symbol()": "95d89b41",
			"toLowResLog(uint256)": "57aad013",
			"totalSupply()": "18160ddd",
			"transfer(address,uint256)": "a9059cbb",
			"transferFrom(address,address,uint256)": "23b872dd",
			"update(bytes32,int256,int256,int256,uint256)": "ff7b6f1e"
		}
	},
	"abi": [
		{
			"inputs": [
				{
					"components": [
						{
							"internalType": "contract IVault",
							"name": "vault",
							"type": "address"
						},
						{
							"internalType": "string",
							"name": "name",
							"type": "string"
						},
						{
							"internalType": "string",
							"name": "symbol",
							"type": "string"
						},
						{
							"internalType": "contract IERC20",
							"name": "token0",
							"type": "address"
						},
						{
							"internalType": "contract IERC20",
							"name": "token1",
							"type": "address"
						},
						{
							"internalType": "uint256",
							"name": "normalizedWeight0",
							"type": "uint256"
						},
						{
							"internalType": "uint256",
							"name": "normalizedWeight1",
							"type": "uint256"
						},
						{
							"internalType": "uint256",
							"name": "swapFeePercentage",
							"type": "uint256"
						},
						{
							"internalType": "uint256",
							"name": "pauseWindowDuration",
							"type": "uint256"
						},
						{
							"internalType": "uint256",
							"name": "bufferPeriodDuration",
							"type": "uint256"
						},
						{
							"internalType": "bool",
							"name": "oracleEnabled",
							"type": "bool"
						},
						{
							"internalType": "address",
							"name": "owner",
							"type": "address"
						}
					],
					"internalType": "struct WeightedPool2Tokens.NewPoolParams",
					"name": "params",
					"type": "tuple"
				}
			],
			"stateMutability": "nonpayable",
			"type": "constructor"
		},
		{
			"anonymous": false,
			"inputs": [
				{
					"indexed": true,
					"internalType": "address",
					"name": "owner",
					"type": "address"
				},
				{
					"indexed": true,
					"internalType": "address",
					"name": "spender",
					"type": "address"
				},
				{
					"indexed": false,
					"internalType": "uint256",
					"name": "value",
					"type": "uint256"
				}
			],
			"name": "Approval",
			"type": "event"
		},
		{
			"anonymous": false,
			"inputs": [
				{
					"indexed": false,
					"internalType": "bool",
					"name": "enabled",
					"type": "bool"
				}
			],
			"name": "OracleEnabledChanged",
			"type": "event"
		},
		{
			"anonymous": false,
			"inputs": [
				{
					"indexed": false,
					"internalType": "bool",
					"name": "paused",
					"type": "bool"
				}
			],
			"name": "PausedStateChanged",
			"type": "event"
		},
		{
			"anonymous": false,
			"inputs": [
				{
					"indexed": false,
					"internalType": "bool",
					"name": "newSample",
					"type": "bool"
				},
				{
					"indexed": false,
					"internalType": "uint256",
					"name": "sampleIndex",
					"type": "uint256"
				}
			],
			"name": "PriceDataProcessed",
			"type": "event"
		},
		{
			"anonymous": false,
			"inputs": [
				{
					"indexed": false,
					"internalType": "uint256",
					"name": "swapFeePercentage",
					"type": "uint256"
				}
			],
			"name": "SwapFeePercentageChanged",
			"type": "event"
		},
		{
			"anonymous": false,
			"inputs": [
				{
					"indexed": true,
					"internalType": "address",
					"name": "from",
					"type": "address"
				},
				{
					"indexed": true,
					"internalType": "address",
					"name": "to",
					"type": "address"
				},
				{
					"indexed": false,
					"internalType": "uint256",
					"name": "value",
					"type": "uint256"
				}
			],
			"name": "Transfer",
			"type": "event"
		},
		{
			"inputs": [],
			"name": "DOMAIN_SEPARATOR",
			"outputs": [
				{
					"internalType": "bytes32",
					"name": "",
					"type": "bytes32"
				}
			],
			"stateMutability": "view",
			"type": "function"
		},
		{
			"inputs": [
				{
					"internalType": "address",
					"name": "owner",
					"type": "address"
				},
				{
					"internalType": "address",
					"name": "spender",
					"type": "address"
				}
			],
			"name": "allowance",
			"outputs": [
				{
					"internalType": "uint256",
					"name": "",
					"type": "uint256"
				}
			],
			"stateMutability": "view",
			"type": "function"
		},
		{
			"inputs": [
				{
					"internalType": "address",
					"name": "spender",
					"type": "address"
				},
				{
					"internalType": "uint256",
					"name": "amount",
					"type": "uint256"
				}
			],
			"name": "approve",
			"outputs": [
				{
					"internalType": "bool",
					"name": "",
					"type": "bool"
				}
			],
			"stateMutability": "nonpayable",
			"type": "function"
		},
		{
			"inputs": [
				{
					"internalType": "address",
					"name": "account",
					"type": "address"
				}
			],
			"name": "balanceOf",
			"outputs": [
				{
					"internalType": "uint256",
					"name": "",
					"type": "uint256"
				}
			],
			"stateMutability": "view",
			"type": "function"
		},
		{
			"inputs": [
				{
					"internalType": "uint256",
					"name": "normalizedWeight",
					"type": "uint256"
				},
				{
					"internalType": "uint256",
					"name": "balance",
					"type": "uint256"
				},
				{
					"internalType": "int256",
					"name": "bptTotalSupplyLn",
					"type": "int256"
				}
			],
			"name": "calcLogBPTPrice",
			"outputs": [
				{
					"internalType": "int256",
					"name": "",
					"type": "int256"
				}
			],
			"stateMutability": "pure",
			"type": "function"
		},
		{
			"inputs": [
				{
					"internalType": "uint256",
					"name": "normalizedWeightA",
					"type": "uint256"
				},
				{
					"internalType": "uint256",
					"name": "balanceA",
					"type": "uint256"
				},
				{
					"internalType": "uint256",
					"name": "normalizedWeightB",
					"type": "uint256"
				},
				{
					"internalType": "uint256",
					"name": "balanceB",
					"type": "uint256"
				}
			],
			"name": "calcLogSpotPrice",
			"outputs": [
				{
					"internalType": "int256",
					"name": "",
					"type": "int256"
				}
			],
			"stateMutability": "pure",
			"type": "function"
		},
		{
			"inputs": [],
			"name": "decimals",
			"outputs": [
				{
					"internalType": "uint8",
					"name": "",
					"type": "uint8"
				}
			],
			"stateMutability": "view",
			"type": "function"
		},
		{
			"inputs": [
				{
					"internalType": "bytes32",
					"name": "sample",
					"type": "bytes32"
				}
			],
			"name": "decode",
			"outputs": [
				{
					"components": [
						{
							"internalType": "int256",
							"name": "logPairPrice",
							"type": "int256"
						},
						{
							"internalType": "int256",
							"name": "accLogPairPrice",
							"type": "int256"
						},
						{
							"internalType": "int256",
							"name": "logBptPrice",
							"type": "int256"
						},
						{
							"internalType": "int256",
							"name": "accLogBptPrice",
							"type": "int256"
						},
						{
							"internalType": "int256",
							"name": "logInvariant",
							"type": "int256"
						},
						{
							"internalType": "int256",
							"name": "accLogInvariant",
							"type": "int256"
						},
						{
							"internalType": "uint256",
							"name": "timestamp",
							"type": "uint256"
						}
					],
					"internalType": "struct MockSamples.Sample",
					"name": "",
					"type": "tuple"
				}
			],
			"stateMutability": "pure",
			"type": "function"
		},
		{
			"inputs": [
				{
					"internalType": "address",
					"name": "spender",
					"type": "address"
				},
				{
					"internalType": "uint256",
					"name": "amount",
					"type": "uint256"
				}
			],
			"name": "decreaseAllowance",
			"outputs": [
				{
					"internalType": "bool",
					"name": "",
					"type": "bool"
				}
			],
			"stateMutability": "nonpayable",
			"type": "function"
		},
		{
			"inputs": [],
			"name": "enableOracle",
			"outputs": [],
			"stateMutability": "nonpayable",
			"type": "function"
		},
		{
			"inputs": [
				{
					"components": [
						{
							"internalType": "int256",
							"name": "logPairPrice",
							"type": "int256"
						},
						{
							"internalType": "int256",
							"name": "accLogPairPrice",
							"type": "int256"
						},
						{
							"internalType": "int256",
							"name": "logBptPrice",
							"type": "int256"
						},
						{
							"internalType": "int256",
							"name": "accLogBptPrice",
							"type": "int256"
						},
						{
							"internalType": "int256",
							"name": "logInvariant",
							"type": "int256"
						},
						{
							"internalType": "int256",
							"name": "accLogInvariant",
							"type": "int256"
						},
						{
							"internalType": "uint256",
							"name": "timestamp",
							"type": "uint256"
						}
					],
					"internalType": "struct MockSamples.Sample",
					"name": "sample",
					"type": "tuple"
				}
			],
			"name": "encode",
			"outputs": [
				{
					"internalType": "bytes32",
					"name": "",
					"type": "bytes32"
				}
			],
			"stateMutability": "pure",
			"type": "function"
		},
		{
			"inputs": [
				{
					"internalType": "uint256[]",
					"name": "dates",
					"type": "uint256[]"
				},
				{
					"internalType": "uint256",
					"name": "offset",
					"type": "uint256"
				}
			],
			"name": "findNearestSamplesTimestamp",
			"outputs": [
				{
					"components": [
						{
							"internalType": "uint256",
							"name": "prev",
							"type": "uint256"
						},
						{
							"internalType": "uint256",
							"name": "next",
							"type": "uint256"
						}
					],
					"internalType": "struct MockPoolPriceOracle.BinarySearchResult[]",
					"name": "results",
					"type": "tuple[]"
				}
			],
			"stateMutability": "view",
			"type": "function"
		},
		{
			"inputs": [
				{
					"internalType": "int256",
					"name": "value",
					"type": "int256"
				}
			],
			"name": "fromLowResLog",
			"outputs": [
				{
					"internalType": "uint256",
					"name": "",
					"type": "uint256"
				}
			],
			"stateMutability": "pure",
			"type": "function"
		},
		{
			"inputs": [
				{
					"internalType": "bytes4",
					"name": "selector",
					"type": "bytes4"
				}
			],
			"name": "getActionId",
			"outputs": [
				{
					"internalType": "bytes32",
					"name": "",
					"type": "bytes32"
				}
			],
			"stateMutability": "view",
			"type": "function"
		},
		{
			"inputs": [],
			"name": "getAuthorizer",
			"outputs": [
				{
					"internalType": "contract IAuthorizer",
					"name": "",
					"type": "address"
				}
			],
			"stateMutability": "view",
			"type": "function"
		},
		{
			"inputs": [],
			"name": "getInvariant",
			"outputs": [
				{
					"internalType": "uint256",
					"name": "",
					"type": "uint256"
				}
			],
			"stateMutability": "view",
			"type": "function"
		},
		{
			"inputs": [],
			"name": "getLargestSafeQueryWindow",
			"outputs": [
				{
					"internalType": "uint256",
					"name": "",
					"type": "uint256"
				}
			],
			"stateMutability": "pure",
			"type": "function"
		},
		{
			"inputs": [],
			"name": "getLastInvariant",
			"outputs": [
				{
					"internalType": "uint256",
					"name": "",
					"type": "uint256"
				}
			],
			"stateMutability": "view",
			"type": "function"
		},
		{
			"inputs": [
				{
					"internalType": "enum IPriceOracle.Variable",
					"name": "variable",
					"type": "uint8"
				}
			],
			"name": "getLatest",
			"outputs": [
				{
					"internalType": "uint256",
					"name": "",
					"type": "uint256"
				}
			],
			"stateMutability": "view",
			"type": "function"
		},
		{
			"inputs": [],
			"name": "getMiscData",
			"outputs": [
				{
					"internalType": "int256",
					"name": "logInvariant",
					"type": "int256"
				},
				{
					"internalType": "int256",
					"name": "logTotalSupply",
					"type": "int256"
				},
				{
					"internalType": "uint256",
					"name": "oracleSampleCreationTimestamp",
					"type": "uint256"
				},
				{
					"internalType": "uint256",
					"name": "oracleIndex",
					"type": "uint256"
				},
				{
					"internalType": "bool",
					"name": "oracleEnabled",
					"type": "bool"
				},
				{
					"internalType": "uint256",
					"name": "swapFeePercentage",
					"type": "uint256"
				}
			],
			"stateMutability": "view",
			"type": "function"
		},
		{
			"inputs": [],
			"name": "getNormalizedWeights",
			"outputs": [
				{
					"internalType": "uint256[]",
					"name": "",
					"type": "uint256[]"
				}
			],
			"stateMutability": "view",
			"type": "function"
		},
		{
			"inputs": [],
			"name": "getOwner",
			"outputs": [
				{
					"internalType": "address",
					"name": "",
					"type": "address"
				}
			],
			"stateMutability": "view",
			"type": "function"
		},
		{
			"inputs": [
				{
					"internalType": "enum IPriceOracle.Variable",
					"name": "variable",
					"type": "uint8"
				},
				{
					"internalType": "uint256",
					"name": "currentIndex",
					"type": "uint256"
				},
				{
					"internalType": "uint256",
					"name": "timestamp",
					"type": "uint256"
				}
			],
			"name": "getPastAccumulator",
			"outputs": [
				{
					"internalType": "int256",
					"name": "",
					"type": "int256"
				}
			],
			"stateMutability": "view",
			"type": "function"
		},
		{
			"inputs": [
				{
					"components": [
						{
							"internalType": "enum IPriceOracle.Variable",
							"name": "variable",
							"type": "uint8"
						},
						{
							"internalType": "uint256",
							"name": "ago",
							"type": "uint256"
						}
					],
					"internalType": "struct IPriceOracle.OracleAccumulatorQuery[]",
					"name": "queries",
					"type": "tuple[]"
				}
			],
			"name": "getPastAccumulators",
			"outputs": [
				{
					"internalType": "int256[]",
					"name": "results",
					"type": "int256[]"
				}
			],
			"stateMutability": "view",
			"type": "function"
		},
		{
			"inputs": [],
			"name": "getPausedState",
			"outputs": [
				{
					"internalType": "bool",
					"name": "paused",
					"type": "bool"
				},
				{
					"internalType": "uint256",
					"name": "pauseWindowEndTime",
					"type": "uint256"
				},
				{
					"internalType": "uint256",
					"name": "bufferPeriodEndTime",
					"type": "uint256"
				}
			],
			"stateMutability": "view",
			"type": "function"
		},
		{
			"inputs": [],
			"name": "getPoolId",
			"outputs": [
				{
					"internalType": "bytes32",
					"name": "",
					"type": "bytes32"
				}
			],
			"stateMutability": "view",
			"type": "function"
		},
		{
			"inputs": [],
			"name": "getRate",
			"outputs": [
				{
					"internalType": "uint256",
					"name": "",
					"type": "uint256"
				}
			],
			"stateMutability": "view",
			"type": "function"
		},
		{
			"inputs": [
				{
					"internalType": "uint256",
					"name": "index",
					"type": "uint256"
				}
			],
			"name": "getSample",
			"outputs": [
				{
					"internalType": "int256",
					"name": "logPairPrice",
					"type": "int256"
				},
				{
					"internalType": "int256",
					"name": "accLogPairPrice",
					"type": "int256"
				},
				{
					"internalType": "int256",
					"name": "logBptPrice",
					"type": "int256"
				},
				{
					"internalType": "int256",
					"name": "accLogBptPrice",
					"type": "int256"
				},
				{
					"internalType": "int256",
					"name": "logInvariant",
					"type": "int256"
				},
				{
					"internalType": "int256",
					"name": "accLogInvariant",
					"type": "int256"
				},
				{
					"internalType": "uint256",
					"name": "timestamp",
					"type": "uint256"
				}
			],
			"stateMutability": "view",
			"type": "function"
		},
		{
			"inputs": [],
			"name": "getSwapFeePercentage",
			"outputs": [
				{
					"internalType": "uint256",
					"name": "",
					"type": "uint256"
				}
			],
			"stateMutability": "view",
			"type": "function"
		},
		{
			"inputs": [
				{
					"components": [
						{
							"internalType": "enum IPriceOracle.Variable",
							"name": "variable",
							"type": "uint8"
						},
						{
							"internalType": "uint256",
							"name": "secs",
							"type": "uint256"
						},
						{
							"internalType": "uint256",
							"name": "ago",
							"type": "uint256"
						}
					],
					"internalType": "struct IPriceOracle.OracleAverageQuery[]",
					"name": "queries",
					"type": "tuple[]"
				}
			],
			"name": "getTimeWeightedAverage",
			"outputs": [
				{
					"internalType": "uint256[]",
					"name": "results",
					"type": "uint256[]"
				}
			],
			"stateMutability": "view",
			"type": "function"
		},
		{
			"inputs": [],
			"name": "getTotalSamples",
			"outputs": [
				{
					"internalType": "uint256",
					"name": "",
					"type": "uint256"
				}
			],
			"stateMutability": "pure",
			"type": "function"
		},
		{
			"inputs": [],
			"name": "getVault",
			"outputs": [
				{
					"internalType": "contract IVault",
					"name": "",
					"type": "address"
				}
			],
			"stateMutability": "view",
			"type": "function"
		},
		{
			"inputs": [
				{
					"internalType": "address",
					"name": "spender",
					"type": "address"
				},
				{
					"internalType": "uint256",
					"name": "addedValue",
					"type": "uint256"
				}
			],
			"name": "increaseAllowance",
			"outputs": [
				{
					"internalType": "bool",
					"name": "",
					"type": "bool"
				}
			],
			"stateMutability": "nonpayable",
			"type": "function"
		},
		{
			"inputs": [
				{
					"components": [
						{
							"internalType": "int256",
							"name": "logInvariant",
							"type": "int256"
						},
						{
							"internalType": "int256",
							"name": "logTotalSupply",
							"type": "int256"
						},
						{
							"internalType": "uint256",
							"name": "oracleSampleCreationTimestamp",
							"type": "uint256"
						},
						{
							"internalType": "uint256",
							"name": "oracleIndex",
							"type": "uint256"
						},
						{
							"internalType": "bool",
							"name": "oracleEnabled",
							"type": "bool"
						},
						{
							"internalType": "uint256",
							"name": "swapFeePercentage",
							"type": "uint256"
						}
					],
					"internalType": "struct MockWeightedPool2Tokens.MiscData",
					"name": "miscData",
					"type": "tuple"
				}
			],
			"name": "mockMiscData",
			"outputs": [],
			"stateMutability": "nonpayable",
			"type": "function"
		},
		{
			"inputs": [],
			"name": "mockOracleDisabled",
			"outputs": [],
			"stateMutability": "nonpayable",
			"type": "function"
		},
		{
			"inputs": [
				{
					"internalType": "uint256",
					"name": "index",
					"type": "uint256"
				}
			],
			"name": "mockOracleIndex",
			"outputs": [],
			"stateMutability": "nonpayable",
			"type": "function"
		},
		{
			"inputs": [
				{
					"internalType": "uint256",
					"name": "index",
					"type": "uint256"
				},
				{
					"components": [
						{
							"internalType": "int256",
							"name": "logPairPrice",
							"type": "int256"
						},
						{
							"internalType": "int256",
							"name": "accLogPairPrice",
							"type": "int256"
						},
						{
							"internalType": "int256",
							"name": "logBptPrice",
							"type": "int256"
						},
						{
							"internalType": "int256",
							"name": "accLogBptPrice",
							"type": "int256"
						},
						{
							"internalType": "int256",
							"name": "logInvariant",
							"type": "int256"
						},
						{
							"internalType": "int256",
							"name": "accLogInvariant",
							"type": "int256"
						},
						{
							"internalType": "uint256",
							"name": "timestamp",
							"type": "uint256"
						}
					],
					"internalType": "struct MockSamples.Sample",
					"name": "sample",
					"type": "tuple"
				}
			],
			"name": "mockSample",
			"outputs": [],
			"stateMutability": "nonpayable",
			"type": "function"
		},
		{
			"inputs": [
				{
					"internalType": "uint256[]",
					"name": "indexes",
					"type": "uint256[]"
				},
				{
					"components": [
						{
							"internalType": "int256",
							"name": "logPairPrice",
							"type": "int256"
						},
						{
							"internalType": "int256",
							"name": "accLogPairPrice",
							"type": "int256"
						},
						{
							"internalType": "int256",
							"name": "logBptPrice",
							"type": "int256"
						},
						{
							"internalType": "int256",
							"name": "accLogBptPrice",
							"type": "int256"
						},
						{
							"internalType": "int256",
							"name": "logInvariant",
							"type": "int256"
						},
						{
							"internalType": "int256",
							"name": "accLogInvariant",
							"type": "int256"
						},
						{
							"internalType": "uint256",
							"name": "timestamp",
							"type": "uint256"
						}
					],
					"internalType": "struct MockSamples.Sample[]",
					"name": "samples",
					"type": "tuple[]"
				}
			],
			"name": "mockSamples",
			"outputs": [],
			"stateMutability": "nonpayable",
			"type": "function"
		},
		{
			"inputs": [],
			"name": "name",
			"outputs": [
				{
					"internalType": "string",
					"name": "",
					"type": "string"
				}
			],
			"stateMutability": "view",
			"type": "function"
		},
		{
			"inputs": [
				{
					"internalType": "address",
					"name": "owner",
					"type": "address"
				}
			],
			"name": "nonces",
			"outputs": [
				{
					"internalType": "uint256",
					"name": "",
					"type": "uint256"
				}
			],
			"stateMutability": "view",
			"type": "function"
		},
		{
			"inputs": [
				{
					"internalType": "bytes32",
					"name": "poolId",
					"type": "bytes32"
				},
				{
					"internalType": "address",
					"name": "sender",
					"type": "address"
				},
				{
					"internalType": "address",
					"name": "recipient",
					"type": "address"
				},
				{
					"internalType": "uint256[]",
					"name": "balances",
					"type": "uint256[]"
				},
				{
					"internalType": "uint256",
					"name": "lastChangeBlock",
					"type": "uint256"
				},
				{
					"internalType": "uint256",
					"name": "protocolSwapFeePercentage",
					"type": "uint256"
				},
				{
					"internalType": "bytes",
					"name": "userData",
					"type": "bytes"
				}
			],
			"name": "onExitPool",
			"outputs": [
				{
					"internalType": "uint256[]",
					"name": "",
					"type": "uint256[]"
				},
				{
					"internalType": "uint256[]",
					"name": "",
					"type": "uint256[]"
				}
			],
			"stateMutability": "nonpayable",
			"type": "function"
		},
		{
			"inputs": [
				{
					"internalType": "bytes32",
					"name": "poolId",
					"type": "bytes32"
				},
				{
					"internalType": "address",
					"name": "sender",
					"type": "address"
				},
				{
					"internalType": "address",
					"name": "recipient",
					"type": "address"
				},
				{
					"internalType": "uint256[]",
					"name": "balances",
					"type": "uint256[]"
				},
				{
					"internalType": "uint256",
					"name": "lastChangeBlock",
					"type": "uint256"
				},
				{
					"internalType": "uint256",
					"name": "protocolSwapFeePercentage",
					"type": "uint256"
				},
				{
					"internalType": "bytes",
					"name": "userData",
					"type": "bytes"
				}
			],
			"name": "onJoinPool",
			"outputs": [
				{
					"internalType": "uint256[]",
					"name": "amountsIn",
					"type": "uint256[]"
				},
				{
					"internalType": "uint256[]",
					"name": "dueProtocolFeeAmounts",
					"type": "uint256[]"
				}
			],
			"stateMutability": "nonpayable",
			"type": "function"
		},
		{
			"inputs": [
				{
					"components": [
						{
							"internalType": "enum IVault.SwapKind",
							"name": "kind",
							"type": "uint8"
						},
						{
							"internalType": "contract IERC20",
							"name": "tokenIn",
							"type": "address"
						},
						{
							"internalType": "contract IERC20",
							"name": "tokenOut",
							"type": "address"
						},
						{
							"internalType": "uint256",
							"name": "amount",
							"type": "uint256"
						},
						{
							"internalType": "bytes32",
							"name": "poolId",
							"type": "bytes32"
						},
						{
							"internalType": "uint256",
							"name": "lastChangeBlock",
							"type": "uint256"
						},
						{
							"internalType": "address",
							"name": "from",
							"type": "address"
						},
						{
							"internalType": "address",
							"name": "to",
							"type": "address"
						},
						{
							"internalType": "bytes",
							"name": "userData",
							"type": "bytes"
						}
					],
					"internalType": "struct IPoolSwapStructs.SwapRequest",
					"name": "request",
					"type": "tuple"
				},
				{
					"internalType": "uint256",
					"name": "balanceTokenIn",
					"type": "uint256"
				},
				{
					"internalType": "uint256",
					"name": "balanceTokenOut",
					"type": "uint256"
				}
			],
			"name": "onSwap",
			"outputs": [
				{
					"internalType": "uint256",
					"name": "",
					"type": "uint256"
				}
			],
			"stateMutability": "nonpayable",
			"type": "function"
		},
		{
			"inputs": [
				{
					"internalType": "address",
					"name": "owner",
					"type": "address"
				},
				{
					"internalType": "address",
					"name": "spender",
					"type": "address"
				},
				{
					"internalType": "uint256",
					"name": "value",
					"type": "uint256"
				},
				{
					"internalType": "uint256",
					"name": "deadline",
					"type": "uint256"
				},
				{
					"internalType": "uint8",
					"name": "v",
					"type": "uint8"
				},
				{
					"internalType": "bytes32",
					"name": "r",
					"type": "bytes32"
				},
				{
					"internalType": "bytes32",
					"name": "s",
					"type": "bytes32"
				}
			],
			"name": "permit",
			"outputs": [],
			"stateMutability": "nonpayable",
			"type": "function"
		},
		{
			"inputs": [
				{
					"internalType": "uint256",
					"name": "elapsed",
					"type": "uint256"
				},
				{
					"internalType": "uint256",
					"name": "currentIndex",
					"type": "uint256"
				},
				{
					"internalType": "int256",
					"name": "logPairPrice",
					"type": "int256"
				},
				{
					"internalType": "int256",
					"name": "logBptPrice",
					"type": "int256"
				},
				{
					"internalType": "int256",
					"name": "logInvariant",
					"type": "int256"
				}
			],
			"name": "processPriceData",
			"outputs": [],
			"stateMutability": "nonpayable",
			"type": "function"
		},
		{
			"inputs": [
				{
					"internalType": "bytes32",
					"name": "poolId",
					"type": "bytes32"
				},
				{
					"internalType": "address",
					"name": "sender",
					"type": "address"
				},
				{
					"internalType": "address",
					"name": "recipient",
					"type": "address"
				},
				{
					"internalType": "uint256[]",
					"name": "balances",
					"type": "uint256[]"
				},
				{
					"internalType": "uint256",
					"name": "lastChangeBlock",
					"type": "uint256"
				},
				{
					"internalType": "uint256",
					"name": "protocolSwapFeePercentage",
					"type": "uint256"
				},
				{
					"internalType": "bytes",
					"name": "userData",
					"type": "bytes"
				}
			],
			"name": "queryExit",
			"outputs": [
				{
					"internalType": "uint256",
					"name": "bptIn",
					"type": "uint256"
				},
				{
					"internalType": "uint256[]",
					"name": "amountsOut",
					"type": "uint256[]"
				}
			],
			"stateMutability": "nonpayable",
			"type": "function"
		},
		{
			"inputs": [
				{
					"internalType": "bytes32",
					"name": "poolId",
					"type": "bytes32"
				},
				{
					"internalType": "address",
					"name": "sender",
					"type": "address"
				},
				{
					"internalType": "address",
					"name": "recipient",
					"type": "address"
				},
				{
					"internalType": "uint256[]",
					"name": "balances",
					"type": "uint256[]"
				},
				{
					"internalType": "uint256",
					"name": "lastChangeBlock",
					"type": "uint256"
				},
				{
					"internalType": "uint256",
					"name": "protocolSwapFeePercentage",
					"type": "uint256"
				},
				{
					"internalType": "bytes",
					"name": "userData",
					"type": "bytes"
				}
			],
			"name": "queryJoin",
			"outputs": [
				{
					"internalType": "uint256",
					"name": "bptOut",
					"type": "uint256"
				},
				{
					"internalType": "uint256[]",
					"name": "amountsIn",
					"type": "uint256[]"
				}
			],
			"stateMutability": "nonpayable",
			"type": "function"
		},
		{
			"inputs": [
				{
					"internalType": "bool",
					"name": "paused",
					"type": "bool"
				}
			],
			"name": "setPaused",
			"outputs": [],
			"stateMutability": "nonpayable",
			"type": "function"
		},
		{
			"inputs": [
				{
					"internalType": "uint256",
					"name": "swapFeePercentage",
					"type": "uint256"
				}
			],
			"name": "setSwapFeePercentage",
			"outputs": [],
			"stateMutability": "nonpayable",
			"type": "function"
		},
		{
			"inputs": [],
			"name": "symbol",
			"outputs": [
				{
					"internalType": "string",
					"name": "",
					"type": "string"
				}
			],
			"stateMutability": "view",
			"type": "function"
		},
		{
			"inputs": [
				{
					"internalType": "uint256",
					"name": "value",
					"type": "uint256"
				}
			],
			"name": "toLowResLog",
			"outputs": [
				{
					"internalType": "int256",
					"name": "",
					"type": "int256"
				}
			],
			"stateMutability": "pure",
			"type": "function"
		},
		{
			"inputs": [],
			"name": "totalSupply",
			"outputs": [
				{
					"internalType": "uint256",
					"name": "",
					"type": "uint256"
				}
			],
			"stateMutability": "view",
			"type": "function"
		},
		{
			"inputs": [
				{
					"internalType": "address",
					"name": "recipient",
					"type": "address"
				},
				{
					"internalType": "uint256",
					"name": "amount",
					"type": "uint256"
				}
			],
			"name": "transfer",
			"outputs": [
				{
					"internalType": "bool",
					"name": "",
					"type": "bool"
				}
			],
			"stateMutability": "nonpayable",
			"type": "function"
		},
		{
			"inputs": [
				{
					"internalType": "address",
					"name": "sender",
					"type": "address"
				},
				{
					"internalType": "address",
					"name": "recipient",
					"type": "address"
				},
				{
					"internalType": "uint256",
					"name": "amount",
					"type": "uint256"
				}
			],
			"name": "transferFrom",
			"outputs": [
				{
					"internalType": "bool",
					"name": "",
					"type": "bool"
				}
			],
			"stateMutability": "nonpayable",
			"type": "function"
		},
		{
			"inputs": [
				{
					"internalType": "bytes32",
					"name": "sample",
					"type": "bytes32"
				},
				{
					"internalType": "int256",
					"name": "logPairPrice",
					"type": "int256"
				},
				{
					"internalType": "int256",
					"name": "logBptPrice",
					"type": "int256"
				},
				{
					"internalType": "int256",
					"name": "logInvariant",
					"type": "int256"
				},
				{
					"internalType": "uint256",
					"name": "timestamp",
					"type": "uint256"
				}
			],
			"name": "update",
			"outputs": [
				{
					"components": [
						{
							"internalType": "int256",
							"name": "logPairPrice",
							"type": "int256"
						},
						{
							"internalType": "int256",
							"name": "accLogPairPrice",
							"type": "int256"
						},
						{
							"internalType": "int256",
							"name": "logBptPrice",
							"type": "int256"
						},
						{
							"internalType": "int256",
							"name": "accLogBptPrice",
							"type": "int256"
						},
						{
							"internalType": "int256",
							"name": "logInvariant",
							"type": "int256"
						},
						{
							"internalType": "int256",
							"name": "accLogInvariant",
							"type": "int256"
						},
						{
							"internalType": "uint256",
							"name": "timestamp",
							"type": "uint256"
						}
					],
					"internalType": "struct MockSamples.Sample",
					"name": "",
					"type": "tuple"
				}
			],
			"stateMutability": "pure",
			"type": "function"
		}
	]
}