{
	"data": {
		"bytecode": {
			"linkReferences": {},
			"object": "608060405234801561001057600080fd5b506118e0806100206000396000f3fe608060405234801561001057600080fd5b50600436106100935760003560e01c8063567853711161006657806356785371146101075780635b55b24a1461011a57806398f59bca1461012d578063c2546cc314610140578063fab3b9d71461015357610093565b80631b02e9a8146100985780631c855fa6146100c15780632e752149146100e15780634b114ddf146100f4575b600080fd5b6100ab6100a6366004611823565b610166565b6040516100b891906118a1565b60405180910390f35b6100d46100cf3660046117d7565b610181565b6040516100b8919061185d565b6100ab6100ef366004611741565b610196565b6100ab610102366004611823565b6101a5565b6100ab6101153660046116e0565b6101b4565b6100ab610128366004611823565b6101c9565b6100ab61013b366004611741565b6101d8565b6100ab61014e366004611823565b6101e7565b6100ab610161366004611823565b6101f6565b60006101758686868686610205565b90505b95945050505050565b606061018e848484610289565b949350505050565b6000610175868686868661033b565b600061017586868686866105a1565b60006101c0838361060e565b90505b92915050565b60006101758686868686610679565b6000610175868686868661073f565b6000610175868686868661092d565b600061017586868686866109d8565b600061022761021c85670429d069189e0000610a4c565b831115610131610a82565b600061023d6102368685610a94565b8690610aaa565b9050600061024b8588610aaa565b905060006102598383610b01565b9050600061026f82670de0b6b3a7640000610a94565b905061027b8a82610b34565b9a9950505050505050505050565b606060006102978484610b70565b90506060855167ffffffffffffffff811180156102b357600080fd5b506040519080825280602002602001820160405280156102dd578160200160208202803683370190505b50905060005b865181101561033157610312838883815181106102fc57fe5b6020026020010151610a4c90919063ffffffff16565b82828151811061031e57fe5b60209081029190910101526001016102e3565b5095945050505050565b60006060845167ffffffffffffffff8111801561035757600080fd5b50604051908082528060200260200182016040528015610381578160200160208202803683370190505b5090506000805b8851811015610436576103e78982815181106103a057fe5b60200260200101516103e18984815181106103b757fe5b60200260200101518c85815181106103cb57fe5b6020026020010151610bb890919063ffffffff16565b90610b70565b8382815181106103f357fe5b60200260200101818152505061042c61042589838151811061041157fe5b60200260200101518584815181106102fc57fe5b8390610bb8565b9150600101610388565b50670de0b6b3a764000060005b895181101561055e5760008385838151811061045b57fe5b602002602001015111156104e057600061048c61048086670de0b6b3a7640000610a94565b8d85815181106102fc57fe5b905060006104b6828c86815181106104a057fe5b6020026020010151610a9490919063ffffffff16565b90506104d76104256104d0670de0b6b3a76400008c610a94565b8390610a4c565b925050506104f7565b8882815181106104ec57fe5b602002602001015190505b60006105208c848151811061050857fe5b60200260200101516103e1848f87815181106103cb57fe5b905061055261054b8c858151811061053457fe5b602002602001015183610bca90919063ffffffff16565b8590610a4c565b93505050600101610443565b50670de0b6b3a76400008111156105955761058b61058482670de0b6b3a7640000610a94565b8790610a4c565b9350505050610178565b60009350505050610178565b60006105c36105b887670429d069189e0000610a4c565b831115610130610a82565b60006105cf8784610bb8565b905060006105dd8883610aaa565b905060006105eb8887610b70565b905060006105f98383610b01565b905061027b61060782610c12565b8990610a4c565b670de0b6b3a764000060005b83518110156106695761065f6104d085838151811061063557fe5b602002602001015185848151811061064957fe5b6020026020010151610bca90919063ffffffff16565b915060010161061a565b506101c360008211610137610a82565b6000806106908461068a8188610a94565b90610aaa565b90506106a96709b6e64a8ec60000821015610132610a82565b60006106c76106c0670de0b6b3a764000089610b70565b8390610b01565b905060006106de6106d783610c12565b8a90610a4c565b905060006106eb89610c12565b905060006106f98383610b34565b905060006107078483610a94565b905061072f610728610721670de0b6b3a76400008b610a94565b8490610a4c565b8290610bb8565b9c9b505050505050505050505050565b60006060845167ffffffffffffffff8111801561075b57600080fd5b50604051908082528060200260200182016040528015610785578160200160208202803683370190505b5090506000805b885181101561082d576107cf8982815181106107a457fe5b602002602001015161068a8984815181106107bb57fe5b60200260200101518c85815181106104a057fe5b8382815181106107db57fe5b6020026020010181815250506108236104258983815181106107f957fe5b602002602001015185848151811061080d57fe5b6020026020010151610b3490919063ffffffff16565b915060010161078c565b50670de0b6b3a764000060005b895181101561090c57600084828151811061085157fe5b60200260200101518411156108ac57600061086e61048086610c12565b90506000610882828c86815181106104a057fe5b90506108a361042561089c670de0b6b3a76400008c610a94565b8390610aaa565b925050506108c3565b8882815181106108b857fe5b602002602001015190505b60006108ec8c84815181106108d457fe5b60200260200101516103e1848f87815181106104a057fe5b905061090061054b8c858151811061053457fe5b9350505060010161083a565b5061092061091982610c12565b8790610b34565b9998505050505050505050565b60008061093e8461068a8188610bb8565b90506109576729a2241af62c0000821115610133610a82565b600061096e6106c0670de0b6b3a764000089610aaa565b9050600061098e61098783670de0b6b3a7640000610a94565b8a90610b34565b9050600061099b89610c12565b905060006109a98383610b34565b905060006109b78483610a94565b905061072f6107286109d1670de0b6b3a76400008b610a94565b8490610aaa565b60008383116109e957506000610178565b60006109f58585610aaa565b90506000610a0b670de0b6b3a764000088610b70565b9050610a1f826709b6e64a8ec60000610c3e565b91506000610a2d8383610b01565b90506000610a44610a3d83610c12565b8b90610a4c565b905061027b81875b6000828202610a70841580610a69575083858381610a6657fe5b04145b6003610a82565b670de0b6b3a764000090049392505050565b81610a9057610a9081610c55565b5050565b6000610aa4838311156001610a82565b50900390565b6000610ab98215156004610a82565b82610ac6575060006101c3565b670de0b6b3a764000083810290610ae990858381610ae057fe5b04146005610a82565b826001820381610af557fe5b046001019150506101c3565b600080610b0e8484610ca8565b90506000610b28610b2183612710610b34565b6001610bb8565b90506101788282610bb8565b6000828202610b4e841580610a69575083858381610a6657fe5b80610b5d5760009150506101c3565b670de0b6b3a76400006000198201610af5565b6000610b7f8215156004610a82565b82610b8c575060006101c3565b670de0b6b3a764000083810290610ba690858381610ae057fe5b828181610baf57fe5b049150506101c3565b60008282016101c08482101583610a82565b600080610bd78484610ca8565b90506000610bea610b2183612710610b34565b905080821015610bff576000925050506101c3565b610c098282610a94565b925050506101c3565b6000670de0b6b3a76400008210610c2a576000610c36565b81670de0b6b3a7640000035b90505b919050565b600081831015610c4e57816101c0565b5090919050565b62461bcd60e51b6000908152602060045260076024526642414c23000030600a808404818106603090810160081b95839006959095019082900491820690940160101b939093010160c81b604452606490fd5b600081610cbe5750670de0b6b3a76400006101c3565b82610ccb575060006101c3565b610cdc600160ff1b84106006610a82565b82610d02770bce5086492111aea88f4bb1ca6bcf584181ea8059f7653284106007610a82565b826000670c7d713b49da000083138015610d235750670f43fc2c04ee000083125b15610d5a576000610d3384610db3565b9050670de0b6b3a764000080820784020583670de0b6b3a764000083050201915050610d68565b81610d6484610ed1565b0290505b670de0b6b3a76400009005610da0680238fd42c5cf03ffff198212801590610d99575068070c1cc73b00c800008213155b6008610a82565b610da981611270565b9695505050505050565b670de0b6b3a7640000026000806a0c097ce7bc90715b34b9f160241b808401906ec097ce7bc90715b34b9f0fffffffff1985010281610dee57fe5b05905060006a0c097ce7bc90715b34b9f160241b82800205905081806a0c097ce7bc90715b34b9f160241b81840205915060038205016a0c097ce7bc90715b34b9f160241b82840205915060058205016a0c097ce7bc90715b34b9f160241b82840205915060078205016a0c097ce7bc90715b34b9f160241b82840205915060098205016a0c097ce7bc90715b34b9f160241b828402059150600b8205016a0c097ce7bc90715b34b9f160241b828402059150600d8205016a0c097ce7bc90715b34b9f160241b828402059150600f826002919005919091010295945050505050565b6000670de0b6b3a7640000821215610f0d57610f03826a0c097ce7bc90715b34b9f160241b81610efd57fe5b05610ed1565b6000039050610c39565b60007e1600ef3172e58d2e933ec884fde10064c63b5372d805e203c00000000000008312610f5e57770195e54c5dd42177f53a27172fa9ec630262827000000000830592506806f05b59d3b2000000015b73011798004d755d3c8bc8e03204cf44619e0000008312610f96576b1425982cf597cd205cef7380830592506803782dace9d9000000015b606492830292026e01855144814a7ff805980ff00840008312610fde576e01855144814a7ff805980ff008400068056bc75e2d63100000840205925068ad78ebc5ac62000000015b6b02df0ab5a80a22c61ab5a7008312611019576b02df0ab5a80a22c61ab5a70068056bc75e2d6310000084020592506856bc75e2d631000000015b693f1fce3da636ea5cf850831261105057693f1fce3da636ea5cf85068056bc75e2d631000008402059250682b5e3af16b18800000015b690127fa27722cc06cc5e2831261108757690127fa27722cc06cc5e268056bc75e2d6310000084020592506815af1d78b58c400000015b68280e60114edb805d0383126110bc5768280e60114edb805d0368056bc75e2d631000008402059250680ad78ebc5ac6200000015b680ebc5fb4174612111083126110e757680ebc5fb4174612111068056bc75e2d631000009384020592015b6808f00f760a4b2db55d831261111c576808f00f760a4b2db55d68056bc75e2d6310000084020592506802b5e3af16b1880000015b6806f5f17757889379378312611151576806f5f177578893793768056bc75e2d63100000840205925068015af1d78b58c40000015b6806248f33704b2866038312611185576806248f33704b28660368056bc75e2d63100000840205925067ad78ebc5ac620000015b6805c548670b9510e7ac83126111b9576805c548670b9510e7ac68056bc75e2d6310000084020592506756bc75e2d6310000015b600068056bc75e2d63100000840168056bc75e2d6310000080860302816111dc57fe5b059050600068056bc75e2d63100000828002059050818068056bc75e2d63100000818402059150600382050168056bc75e2d63100000828402059150600582050168056bc75e2d63100000828402059150600782050168056bc75e2d63100000828402059150600982050168056bc75e2d63100000828402059150600b820501600202606485820105979650505050505050565b600061129f680238fd42c5cf03ffff198312158015611298575068070c1cc73b00c800008313155b6009610a82565b60008212156112d2576112b482600003611270565b6a0c097ce7bc90715b34b9f160241b816112ca57fe5b059050610c39565b60006806f05b59d3b2000000831261131257506806f05b59d3b1ffffff1990910190770195e54c5dd42177f53a27172fa9ec630262827000000000611348565b6803782dace9d9000000831261134457506803782dace9d8ffffff19909101906b1425982cf597cd205cef7380611348565b5060015b6064929092029168056bc75e2d6310000068ad78ebc5ac6200000084126113985768ad78ebc5ac61ffffff199093019268056bc75e2d631000006e01855144814a7ff805980ff008400082020590505b6856bc75e2d63100000084126113d4576856bc75e2d630ffffff199093019268056bc75e2d631000006b02df0ab5a80a22c61ab5a70082020590505b682b5e3af16b18800000841261140e57682b5e3af16b187fffff199093019268056bc75e2d63100000693f1fce3da636ea5cf85082020590505b6815af1d78b58c4000008412611448576815af1d78b58c3fffff199093019268056bc75e2d63100000690127fa27722cc06cc5e282020590505b680ad78ebc5ac6200000841261148157680ad78ebc5ac61fffff199093019268056bc75e2d6310000068280e60114edb805d0382020590505b68056bc75e2d6310000084126114ba5768056bc75e2d630fffff199093019268056bc75e2d63100000680ebc5fb4174612111082020590505b6802b5e3af16b188000084126114f3576802b5e3af16b187ffff199093019268056bc75e2d631000006808f00f760a4b2db55d82020590505b68015af1d78b58c40000841261152c5768015af1d78b58c3ffff199093019268056bc75e2d631000006806f5f177578893793782020590505b68056bc75e2d631000008481019085906002908280020505918201919050600368056bc75e2d631000008783020505918201919050600468056bc75e2d631000008783020505918201919050600568056bc75e2d631000008783020505918201919050600668056bc75e2d631000008783020505918201919050600768056bc75e2d631000008783020505918201919050600868056bc75e2d631000008783020505918201919050600968056bc75e2d631000008783020505918201919050600a68056bc75e2d631000008783020505918201919050600b68056bc75e2d631000008783020505918201919050600c68056bc75e2d631000008783020505918201919050606468056bc75e2d63100000848402058502059695505050505050565b600082601f83011261165d578081fd5b813567ffffffffffffffff80821115611674578283fd5b602080830260405182828201018181108582111715611691578687fd5b6040528481529450818501925085820181870183018810156116b257600080fd5b600091505b848210156116d55780358452928201926001919091019082016116b7565b505050505092915050565b600080604083850312156116f2578182fd5b823567ffffffffffffffff80821115611709578384fd5b6117158683870161164d565b9350602085013591508082111561172a578283fd5b506117378582860161164d565b9150509250929050565b600080600080600060a08688031215611758578081fd5b853567ffffffffffffffff8082111561176f578283fd5b61177b89838a0161164d565b96506020880135915080821115611790578283fd5b61179c89838a0161164d565b955060408801359150808211156117b1578283fd5b506117be8882890161164d565b9598949750949560608101359550608001359392505050565b6000806000606084860312156117eb578283fd5b833567ffffffffffffffff811115611801578384fd5b61180d8682870161164d565b9660208601359650604090950135949350505050565b600080600080600060a0868803121561183a578081fd5b505083359560208501359550604085013594606081013594506080013592509050565b6020808252825182820181905260009190848201906040850190845b8181101561189557835183529284019291840191600101611879565b50909695505050505050565b9081526020019056fea2646970667358221220c9d32662ed2b6298cbfc52604f0d9ac046b2fc90db8358e6892095317374881b64736f6c63430007010033",
			"opcodes": "PUSH1 0x80 PUSH1 0x40 MSTORE CALLVALUE DUP1 ISZERO PUSH2 0x10 JUMPI PUSH1 0x0 DUP1 REVERT JUMPDEST POP PUSH2 0x18E0 DUP1 PUSH2 0x20 PUSH1 0x0 CODECOPY PUSH1 0x0 RETURN INVALID PUSH1 0x80 PUSH1 0x40 MSTORE CALLVALUE DUP1 ISZERO PUSH2 0x10 JUMPI PUSH1 0x0 DUP1 REVERT JUMPDEST POP PUSH1 0x4 CALLDATASIZE LT PUSH2 0x93 JUMPI PUSH1 0x0 CALLDATALOAD PUSH1 0xE0 SHR DUP1 PUSH4 0x56785371 GT PUSH2 0x66 JUMPI DUP1 PUSH4 0x56785371 EQ PUSH2 0x107 JUMPI DUP1 PUSH4 0x5B55B24A EQ PUSH2 0x11A JUMPI DUP1 PUSH4 0x98F59BCA EQ PUSH2 0x12D JUMPI DUP1 PUSH4 0xC2546CC3 EQ PUSH2 0x140 JUMPI DUP1 PUSH4 0xFAB3B9D7 EQ PUSH2 0x153 JUMPI PUSH2 0x93 JUMP JUMPDEST DUP1 PUSH4 0x1B02E9A8 EQ PUSH2 0x98 JUMPI DUP1 PUSH4 0x1C855FA6 EQ PUSH2 0xC1 JUMPI DUP1 PUSH4 0x2E752149 EQ PUSH2 0xE1 JUMPI DUP1 PUSH4 0x4B114DDF EQ PUSH2 0xF4 JUMPI JUMPDEST PUSH1 0x0 DUP1 REVERT JUMPDEST PUSH2 0xAB PUSH2 0xA6 CALLDATASIZE PUSH1 0x4 PUSH2 0x1823 JUMP JUMPDEST PUSH2 0x166 JUMP JUMPDEST PUSH1 0x40 MLOAD PUSH2 0xB8 SWAP2 SWAP1 PUSH2 0x18A1 JUMP JUMPDEST PUSH1 0x40 MLOAD DUP1 SWAP2 SUB SWAP1 RETURN JUMPDEST PUSH2 0xD4 PUSH2 0xCF CALLDATASIZE PUSH1 0x4 PUSH2 0x17D7 JUMP JUMPDEST PUSH2 0x181 JUMP JUMPDEST PUSH1 0x40 MLOAD PUSH2 0xB8 SWAP2 SWAP1 PUSH2 0x185D JUMP JUMPDEST PUSH2 0xAB PUSH2 0xEF CALLDATASIZE PUSH1 0x4 PUSH2 0x1741 JUMP JUMPDEST PUSH2 0x196 JUMP JUMPDEST PUSH2 0xAB PUSH2 0x102 CALLDATASIZE PUSH1 0x4 PUSH2 0x1823 JUMP JUMPDEST PUSH2 0x1A5 JUMP JUMPDEST PUSH2 0xAB PUSH2 0x115 CALLDATASIZE PUSH1 0x4 PUSH2 0x16E0 JUMP JUMPDEST PUSH2 0x1B4 JUMP JUMPDEST PUSH2 0xAB PUSH2 0x128 CALLDATASIZE PUSH1 0x4 PUSH2 0x1823 JUMP JUMPDEST PUSH2 0x1C9 JUMP JUMPDEST PUSH2 0xAB PUSH2 0x13B CALLDATASIZE PUSH1 0x4 PUSH2 0x1741 JUMP JUMPDEST PUSH2 0x1D8 JUMP JUMPDEST PUSH2 0xAB PUSH2 0x14E CALLDATASIZE PUSH1 0x4 PUSH2 0x1823 JUMP JUMPDEST PUSH2 0x1E7 JUMP JUMPDEST PUSH2 0xAB PUSH2 0x161 CALLDATASIZE PUSH1 0x4 PUSH2 0x1823 JUMP JUMPDEST PUSH2 0x1F6 JUMP JUMPDEST PUSH1 0x0 PUSH2 0x175 DUP7 DUP7 DUP7 DUP7 DUP7 PUSH2 0x205 JUMP JUMPDEST SWAP1 POP JUMPDEST SWAP6 SWAP5 POP POP POP POP POP JUMP JUMPDEST PUSH1 0x60 PUSH2 0x18E DUP5 DUP5 DUP5 PUSH2 0x289 JUMP JUMPDEST SWAP5 SWAP4 POP POP POP POP JUMP JUMPDEST PUSH1 0x0 PUSH2 0x175 DUP7 DUP7 DUP7 DUP7 DUP7 PUSH2 0x33B JUMP JUMPDEST PUSH1 0x0 PUSH2 0x175 DUP7 DUP7 DUP7 DUP7 DUP7 PUSH2 0x5A1 JUMP JUMPDEST PUSH1 0x0 PUSH2 0x1C0 DUP4 DUP4 PUSH2 0x60E JUMP JUMPDEST SWAP1 POP JUMPDEST SWAP3 SWAP2 POP POP JUMP JUMPDEST PUSH1 0x0 PUSH2 0x175 DUP7 DUP7 DUP7 DUP7 DUP7 PUSH2 0x679 JUMP JUMPDEST PUSH1 0x0 PUSH2 0x175 DUP7 DUP7 DUP7 DUP7 DUP7 PUSH2 0x73F JUMP JUMPDEST PUSH1 0x0 PUSH2 0x175 DUP7 DUP7 DUP7 DUP7 DUP7 PUSH2 0x92D JUMP JUMPDEST PUSH1 0x0 PUSH2 0x175 DUP7 DUP7 DUP7 DUP7 DUP7 PUSH2 0x9D8 JUMP JUMPDEST PUSH1 0x0 PUSH2 0x227 PUSH2 0x21C DUP6 PUSH8 0x429D069189E0000 PUSH2 0xA4C JUMP JUMPDEST DUP4 GT ISZERO PUSH2 0x131 PUSH2 0xA82 JUMP JUMPDEST PUSH1 0x0 PUSH2 0x23D PUSH2 0x236 DUP7 DUP6 PUSH2 0xA94 JUMP JUMPDEST DUP7 SWAP1 PUSH2 0xAAA JUMP JUMPDEST SWAP1 POP PUSH1 0x0 PUSH2 0x24B DUP6 DUP9 PUSH2 0xAAA JUMP JUMPDEST SWAP1 POP PUSH1 0x0 PUSH2 0x259 DUP4 DUP4 PUSH2 0xB01 JUMP JUMPDEST SWAP1 POP PUSH1 0x0 PUSH2 0x26F DUP3 PUSH8 0xDE0B6B3A7640000 PUSH2 0xA94 JUMP JUMPDEST SWAP1 POP PUSH2 0x27B DUP11 DUP3 PUSH2 0xB34 JUMP JUMPDEST SWAP11 SWAP10 POP POP POP POP POP POP POP POP POP POP JUMP JUMPDEST PUSH1 0x60 PUSH1 0x0 PUSH2 0x297 DUP5 DUP5 PUSH2 0xB70 JUMP JUMPDEST SWAP1 POP PUSH1 0x60 DUP6 MLOAD PUSH8 0xFFFFFFFFFFFFFFFF DUP2 GT DUP1 ISZERO PUSH2 0x2B3 JUMPI PUSH1 0x0 DUP1 REVERT JUMPDEST POP PUSH1 0x40 MLOAD SWAP1 DUP1 DUP3 MSTORE DUP1 PUSH1 0x20 MUL PUSH1 0x20 ADD DUP3 ADD PUSH1 0x40 MSTORE DUP1 ISZERO PUSH2 0x2DD JUMPI DUP2 PUSH1 0x20 ADD PUSH1 0x20 DUP3 MUL DUP1 CALLDATASIZE DUP4 CALLDATACOPY ADD SWAP1 POP JUMPDEST POP SWAP1 POP PUSH1 0x0 JUMPDEST DUP7 MLOAD DUP2 LT ISZERO PUSH2 0x331 JUMPI PUSH2 0x312 DUP4 DUP9 DUP4 DUP2 MLOAD DUP2 LT PUSH2 0x2FC JUMPI INVALID JUMPDEST PUSH1 0x20 MUL PUSH1 0x20 ADD ADD MLOAD PUSH2 0xA4C SWAP1 SWAP2 SWAP1 PUSH4 0xFFFFFFFF AND JUMP JUMPDEST DUP3 DUP3 DUP2 MLOAD DUP2 LT PUSH2 0x31E JUMPI INVALID JUMPDEST PUSH1 0x20 SWAP1 DUP2 MUL SWAP2 SWAP1 SWAP2 ADD ADD MSTORE PUSH1 0x1 ADD PUSH2 0x2E3 JUMP JUMPDEST POP SWAP6 SWAP5 POP POP POP POP POP JUMP JUMPDEST PUSH1 0x0 PUSH1 0x60 DUP5 MLOAD PUSH8 0xFFFFFFFFFFFFFFFF DUP2 GT DUP1 ISZERO PUSH2 0x357 JUMPI PUSH1 0x0 DUP1 REVERT JUMPDEST POP PUSH1 0x40 MLOAD SWAP1 DUP1 DUP3 MSTORE DUP1 PUSH1 0x20 MUL PUSH1 0x20 ADD DUP3 ADD PUSH1 0x40 MSTORE DUP1 ISZERO PUSH2 0x381 JUMPI DUP2 PUSH1 0x20 ADD PUSH1 0x20 DUP3 MUL DUP1 CALLDATASIZE DUP4 CALLDATACOPY ADD SWAP1 POP JUMPDEST POP SWAP1 POP PUSH1 0x0 DUP1 JUMPDEST DUP9 MLOAD DUP2 LT ISZERO PUSH2 0x436 JUMPI PUSH2 0x3E7 DUP10 DUP3 DUP2 MLOAD DUP2 LT PUSH2 0x3A0 JUMPI INVALID JUMPDEST PUSH1 0x20 MUL PUSH1 0x20 ADD ADD MLOAD PUSH2 0x3E1 DUP10 DUP5 DUP2 MLOAD DUP2 LT PUSH2 0x3B7 JUMPI INVALID JUMPDEST PUSH1 0x20 MUL PUSH1 0x20 ADD ADD MLOAD DUP13 DUP6 DUP2 MLOAD DUP2 LT PUSH2 0x3CB JUMPI INVALID JUMPDEST PUSH1 0x20 MUL PUSH1 0x20 ADD ADD MLOAD PUSH2 0xBB8 SWAP1 SWAP2 SWAP1 PUSH4 0xFFFFFFFF AND JUMP JUMPDEST SWAP1 PUSH2 0xB70 JUMP JUMPDEST DUP4 DUP3 DUP2 MLOAD DUP2 LT PUSH2 0x3F3 JUMPI INVALID JUMPDEST PUSH1 0x20 MUL PUSH1 0x20 ADD ADD DUP2 DUP2 MSTORE POP POP PUSH2 0x42C PUSH2 0x425 DUP10 DUP4 DUP2 MLOAD DUP2 LT PUSH2 0x411 JUMPI INVALID JUMPDEST PUSH1 0x20 MUL PUSH1 0x20 ADD ADD MLOAD DUP6 DUP5 DUP2 MLOAD DUP2 LT PUSH2 0x2FC JUMPI INVALID JUMPDEST DUP4 SWAP1 PUSH2 0xBB8 JUMP JUMPDEST SWAP2 POP PUSH1 0x1 ADD PUSH2 0x388 JUMP JUMPDEST POP PUSH8 0xDE0B6B3A7640000 PUSH1 0x0 JUMPDEST DUP10 MLOAD DUP2 LT ISZERO PUSH2 0x55E JUMPI PUSH1 0x0 DUP4 DUP6 DUP4 DUP2 MLOAD DUP2 LT PUSH2 0x45B JUMPI INVALID JUMPDEST PUSH1 0x20 MUL PUSH1 0x20 ADD ADD MLOAD GT ISZERO PUSH2 0x4E0 JUMPI PUSH1 0x0 PUSH2 0x48C PUSH2 0x480 DUP7 PUSH8 0xDE0B6B3A7640000 PUSH2 0xA94 JUMP JUMPDEST DUP14 DUP6 DUP2 MLOAD DUP2 LT PUSH2 0x2FC JUMPI INVALID JUMPDEST SWAP1 POP PUSH1 0x0 PUSH2 0x4B6 DUP3 DUP13 DUP7 DUP2 MLOAD DUP2 LT PUSH2 0x4A0 JUMPI INVALID JUMPDEST PUSH1 0x20 MUL PUSH1 0x20 ADD ADD MLOAD PUSH2 0xA94 SWAP1 SWAP2 SWAP1 PUSH4 0xFFFFFFFF AND JUMP JUMPDEST SWAP1 POP PUSH2 0x4D7 PUSH2 0x425 PUSH2 0x4D0 PUSH8 0xDE0B6B3A7640000 DUP13 PUSH2 0xA94 JUMP JUMPDEST DUP4 SWAP1 PUSH2 0xA4C JUMP JUMPDEST SWAP3 POP POP POP PUSH2 0x4F7 JUMP JUMPDEST DUP9 DUP3 DUP2 MLOAD DUP2 LT PUSH2 0x4EC JUMPI INVALID JUMPDEST PUSH1 0x20 MUL PUSH1 0x20 ADD ADD MLOAD SWAP1 POP JUMPDEST PUSH1 0x0 PUSH2 0x520 DUP13 DUP5 DUP2 MLOAD DUP2 LT PUSH2 0x508 JUMPI INVALID JUMPDEST PUSH1 0x20 MUL PUSH1 0x20 ADD ADD MLOAD PUSH2 0x3E1 DUP5 DUP16 DUP8 DUP2 MLOAD DUP2 LT PUSH2 0x3CB JUMPI INVALID JUMPDEST SWAP1 POP PUSH2 0x552 PUSH2 0x54B DUP13 DUP6 DUP2 MLOAD DUP2 LT PUSH2 0x534 JUMPI INVALID JUMPDEST PUSH1 0x20 MUL PUSH1 0x20 ADD ADD MLOAD DUP4 PUSH2 0xBCA SWAP1 SWAP2 SWAP1 PUSH4 0xFFFFFFFF AND JUMP JUMPDEST DUP6 SWAP1 PUSH2 0xA4C JUMP JUMPDEST SWAP4 POP POP POP PUSH1 0x1 ADD PUSH2 0x443 JUMP JUMPDEST POP PUSH8 0xDE0B6B3A7640000 DUP2 GT ISZERO PUSH2 0x595 JUMPI PUSH2 0x58B PUSH2 0x584 DUP3 PUSH8 0xDE0B6B3A7640000 PUSH2 0xA94 JUMP JUMPDEST DUP8 SWAP1 PUSH2 0xA4C JUMP JUMPDEST SWAP4 POP POP POP POP PUSH2 0x178 JUMP JUMPDEST PUSH1 0x0 SWAP4 POP POP POP POP PUSH2 0x178 JUMP JUMPDEST PUSH1 0x0 PUSH2 0x5C3 PUSH2 0x5B8 DUP8 PUSH8 0x429D069189E0000 PUSH2 0xA4C JUMP JUMPDEST DUP4 GT ISZERO PUSH2 0x130 PUSH2 0xA82 JUMP JUMPDEST PUSH1 0x0 PUSH2 0x5CF DUP8 DUP5 PUSH2 0xBB8 JUMP JUMPDEST SWAP1 POP PUSH1 0x0 PUSH2 0x5DD DUP9 DUP4 PUSH2 0xAAA JUMP JUMPDEST SWAP1 POP PUSH1 0x0 PUSH2 0x5EB DUP9 DUP8 PUSH2 0xB70 JUMP JUMPDEST SWAP1 POP PUSH1 0x0 PUSH2 0x5F9 DUP4 DUP4 PUSH2 0xB01 JUMP JUMPDEST SWAP1 POP PUSH2 0x27B PUSH2 0x607 DUP3 PUSH2 0xC12 JUMP JUMPDEST DUP10 SWAP1 PUSH2 0xA4C JUMP JUMPDEST PUSH8 0xDE0B6B3A7640000 PUSH1 0x0 JUMPDEST DUP4 MLOAD DUP2 LT ISZERO PUSH2 0x669 JUMPI PUSH2 0x65F PUSH2 0x4D0 DUP6 DUP4 DUP2 MLOAD DUP2 LT PUSH2 0x635 JUMPI INVALID JUMPDEST PUSH1 0x20 MUL PUSH1 0x20 ADD ADD MLOAD DUP6 DUP5 DUP2 MLOAD DUP2 LT PUSH2 0x649 JUMPI INVALID JUMPDEST PUSH1 0x20 MUL PUSH1 0x20 ADD ADD MLOAD PUSH2 0xBCA SWAP1 SWAP2 SWAP1 PUSH4 0xFFFFFFFF AND JUMP JUMPDEST SWAP2 POP PUSH1 0x1 ADD PUSH2 0x61A JUMP JUMPDEST POP PUSH2 0x1C3 PUSH1 0x0 DUP3 GT PUSH2 0x137 PUSH2 0xA82 JUMP JUMPDEST PUSH1 0x0 DUP1 PUSH2 0x690 DUP5 PUSH2 0x68A DUP2 DUP9 PUSH2 0xA94 JUMP JUMPDEST SWAP1 PUSH2 0xAAA JUMP JUMPDEST SWAP1 POP PUSH2 0x6A9 PUSH8 0x9B6E64A8EC60000 DUP3 LT ISZERO PUSH2 0x132 PUSH2 0xA82 JUMP JUMPDEST PUSH1 0x0 PUSH2 0x6C7 PUSH2 0x6C0 PUSH8 0xDE0B6B3A7640000 DUP10 PUSH2 0xB70 JUMP JUMPDEST DUP4 SWAP1 PUSH2 0xB01 JUMP JUMPDEST SWAP1 POP PUSH1 0x0 PUSH2 0x6DE PUSH2 0x6D7 DUP4 PUSH2 0xC12 JUMP JUMPDEST DUP11 SWAP1 PUSH2 0xA4C JUMP JUMPDEST SWAP1 POP PUSH1 0x0 PUSH2 0x6EB DUP10 PUSH2 0xC12 JUMP JUMPDEST SWAP1 POP PUSH1 0x0 PUSH2 0x6F9 DUP4 DUP4 PUSH2 0xB34 JUMP JUMPDEST SWAP1 POP PUSH1 0x0 PUSH2 0x707 DUP5 DUP4 PUSH2 0xA94 JUMP JUMPDEST SWAP1 POP PUSH2 0x72F PUSH2 0x728 PUSH2 0x721 PUSH8 0xDE0B6B3A7640000 DUP12 PUSH2 0xA94 JUMP JUMPDEST DUP5 SWAP1 PUSH2 0xA4C JUMP JUMPDEST DUP3 SWAP1 PUSH2 0xBB8 JUMP JUMPDEST SWAP13 SWAP12 POP POP POP POP POP POP POP POP POP POP POP POP JUMP JUMPDEST PUSH1 0x0 PUSH1 0x60 DUP5 MLOAD PUSH8 0xFFFFFFFFFFFFFFFF DUP2 GT DUP1 ISZERO PUSH2 0x75B JUMPI PUSH1 0x0 DUP1 REVERT JUMPDEST POP PUSH1 0x40 MLOAD SWAP1 DUP1 DUP3 MSTORE DUP1 PUSH1 0x20 MUL PUSH1 0x20 ADD DUP3 ADD PUSH1 0x40 MSTORE DUP1 ISZERO PUSH2 0x785 JUMPI DUP2 PUSH1 0x20 ADD PUSH1 0x20 DUP3 MUL DUP1 CALLDATASIZE DUP4 CALLDATACOPY ADD SWAP1 POP JUMPDEST POP SWAP1 POP PUSH1 0x0 DUP1 JUMPDEST DUP9 MLOAD DUP2 LT ISZERO PUSH2 0x82D JUMPI PUSH2 0x7CF DUP10 DUP3 DUP2 MLOAD DUP2 LT PUSH2 0x7A4 JUMPI INVALID JUMPDEST PUSH1 0x20 MUL PUSH1 0x20 ADD ADD MLOAD PUSH2 0x68A DUP10 DUP5 DUP2 MLOAD DUP2 LT PUSH2 0x7BB JUMPI INVALID JUMPDEST PUSH1 0x20 MUL PUSH1 0x20 ADD ADD MLOAD DUP13 DUP6 DUP2 MLOAD DUP2 LT PUSH2 0x4A0 JUMPI INVALID JUMPDEST DUP4 DUP3 DUP2 MLOAD DUP2 LT PUSH2 0x7DB JUMPI INVALID JUMPDEST PUSH1 0x20 MUL PUSH1 0x20 ADD ADD DUP2 DUP2 MSTORE POP POP PUSH2 0x823 PUSH2 0x425 DUP10 DUP4 DUP2 MLOAD DUP2 LT PUSH2 0x7F9 JUMPI INVALID JUMPDEST PUSH1 0x20 MUL PUSH1 0x20 ADD ADD MLOAD DUP6 DUP5 DUP2 MLOAD DUP2 LT PUSH2 0x80D JUMPI INVALID JUMPDEST PUSH1 0x20 MUL PUSH1 0x20 ADD ADD MLOAD PUSH2 0xB34 SWAP1 SWAP2 SWAP1 PUSH4 0xFFFFFFFF AND JUMP JUMPDEST SWAP2 POP PUSH1 0x1 ADD PUSH2 0x78C JUMP JUMPDEST POP PUSH8 0xDE0B6B3A7640000 PUSH1 0x0 JUMPDEST DUP10 MLOAD DUP2 LT ISZERO PUSH2 0x90C JUMPI PUSH1 0x0 DUP5 DUP3 DUP2 MLOAD DUP2 LT PUSH2 0x851 JUMPI INVALID JUMPDEST PUSH1 0x20 MUL PUSH1 0x20 ADD ADD MLOAD DUP5 GT ISZERO PUSH2 0x8AC JUMPI PUSH1 0x0 PUSH2 0x86E PUSH2 0x480 DUP7 PUSH2 0xC12 JUMP JUMPDEST SWAP1 POP PUSH1 0x0 PUSH2 0x882 DUP3 DUP13 DUP7 DUP2 MLOAD DUP2 LT PUSH2 0x4A0 JUMPI INVALID JUMPDEST SWAP1 POP PUSH2 0x8A3 PUSH2 0x425 PUSH2 0x89C PUSH8 0xDE0B6B3A7640000 DUP13 PUSH2 0xA94 JUMP JUMPDEST DUP4 SWAP1 PUSH2 0xAAA JUMP JUMPDEST SWAP3 POP POP POP PUSH2 0x8C3 JUMP JUMPDEST DUP9 DUP3 DUP2 MLOAD DUP2 LT PUSH2 0x8B8 JUMPI INVALID JUMPDEST PUSH1 0x20 MUL PUSH1 0x20 ADD ADD MLOAD SWAP1 POP JUMPDEST PUSH1 0x0 PUSH2 0x8EC DUP13 DUP5 DUP2 MLOAD DUP2 LT PUSH2 0x8D4 JUMPI INVALID JUMPDEST PUSH1 0x20 MUL PUSH1 0x20 ADD ADD MLOAD PUSH2 0x3E1 DUP5 DUP16 DUP8 DUP2 MLOAD DUP2 LT PUSH2 0x4A0 JUMPI INVALID JUMPDEST SWAP1 POP PUSH2 0x900 PUSH2 0x54B DUP13 DUP6 DUP2 MLOAD DUP2 LT PUSH2 0x534 JUMPI INVALID JUMPDEST SWAP4 POP POP POP PUSH1 0x1 ADD PUSH2 0x83A JUMP JUMPDEST POP PUSH2 0x920 PUSH2 0x919 DUP3 PUSH2 0xC12 JUMP JUMPDEST DUP8 SWAP1 PUSH2 0xB34 JUMP JUMPDEST SWAP10 SWAP9 POP POP POP POP POP POP POP POP POP JUMP JUMPDEST PUSH1 0x0 DUP1 PUSH2 0x93E DUP5 PUSH2 0x68A DUP2 DUP9 PUSH2 0xBB8 JUMP JUMPDEST SWAP1 POP PUSH2 0x957 PUSH8 0x29A2241AF62C0000 DUP3 GT ISZERO PUSH2 0x133 PUSH2 0xA82 JUMP JUMPDEST PUSH1 0x0 PUSH2 0x96E PUSH2 0x6C0 PUSH8 0xDE0B6B3A7640000 DUP10 PUSH2 0xAAA JUMP JUMPDEST SWAP1 POP PUSH1 0x0 PUSH2 0x98E PUSH2 0x987 DUP4 PUSH8 0xDE0B6B3A7640000 PUSH2 0xA94 JUMP JUMPDEST DUP11 SWAP1 PUSH2 0xB34 JUMP JUMPDEST SWAP1 POP PUSH1 0x0 PUSH2 0x99B DUP10 PUSH2 0xC12 JUMP JUMPDEST SWAP1 POP PUSH1 0x0 PUSH2 0x9A9 DUP4 DUP4 PUSH2 0xB34 JUMP JUMPDEST SWAP1 POP PUSH1 0x0 PUSH2 0x9B7 DUP5 DUP4 PUSH2 0xA94 JUMP JUMPDEST SWAP1 POP PUSH2 0x72F PUSH2 0x728 PUSH2 0x9D1 PUSH8 0xDE0B6B3A7640000 DUP12 PUSH2 0xA94 JUMP JUMPDEST DUP5 SWAP1 PUSH2 0xAAA JUMP JUMPDEST PUSH1 0x0 DUP4 DUP4 GT PUSH2 0x9E9 JUMPI POP PUSH1 0x0 PUSH2 0x178 JUMP JUMPDEST PUSH1 0x0 PUSH2 0x9F5 DUP6 DUP6 PUSH2 0xAAA JUMP JUMPDEST SWAP1 POP PUSH1 0x0 PUSH2 0xA0B PUSH8 0xDE0B6B3A7640000 DUP9 PUSH2 0xB70 JUMP JUMPDEST SWAP1 POP PUSH2 0xA1F DUP3 PUSH8 0x9B6E64A8EC60000 PUSH2 0xC3E JUMP JUMPDEST SWAP2 POP PUSH1 0x0 PUSH2 0xA2D DUP4 DUP4 PUSH2 0xB01 JUMP JUMPDEST SWAP1 POP PUSH1 0x0 PUSH2 0xA44 PUSH2 0xA3D DUP4 PUSH2 0xC12 JUMP JUMPDEST DUP12 SWAP1 PUSH2 0xA4C JUMP JUMPDEST SWAP1 POP PUSH2 0x27B DUP2 DUP8 JUMPDEST PUSH1 0x0 DUP3 DUP3 MUL PUSH2 0xA70 DUP5 ISZERO DUP1 PUSH2 0xA69 JUMPI POP DUP4 DUP6 DUP4 DUP2 PUSH2 0xA66 JUMPI INVALID JUMPDEST DIV EQ JUMPDEST PUSH1 0x3 PUSH2 0xA82 JUMP JUMPDEST PUSH8 0xDE0B6B3A7640000 SWAP1 DIV SWAP4 SWAP3 POP POP POP JUMP JUMPDEST DUP2 PUSH2 0xA90 JUMPI PUSH2 0xA90 DUP2 PUSH2 0xC55 JUMP JUMPDEST POP POP JUMP JUMPDEST PUSH1 0x0 PUSH2 0xAA4 DUP4 DUP4 GT ISZERO PUSH1 0x1 PUSH2 0xA82 JUMP JUMPDEST POP SWAP1 SUB SWAP1 JUMP JUMPDEST PUSH1 0x0 PUSH2 0xAB9 DUP3 ISZERO ISZERO PUSH1 0x4 PUSH2 0xA82 JUMP JUMPDEST DUP3 PUSH2 0xAC6 JUMPI POP PUSH1 0x0 PUSH2 0x1C3 JUMP JUMPDEST PUSH8 0xDE0B6B3A7640000 DUP4 DUP2 MUL SWAP1 PUSH2 0xAE9 SWAP1 DUP6 DUP4 DUP2 PUSH2 0xAE0 JUMPI INVALID JUMPDEST DIV EQ PUSH1 0x5 PUSH2 0xA82 JUMP JUMPDEST DUP3 PUSH1 0x1 DUP3 SUB DUP2 PUSH2 0xAF5 JUMPI INVALID JUMPDEST DIV PUSH1 0x1 ADD SWAP2 POP POP PUSH2 0x1C3 JUMP JUMPDEST PUSH1 0x0 DUP1 PUSH2 0xB0E DUP5 DUP5 PUSH2 0xCA8 JUMP JUMPDEST SWAP1 POP PUSH1 0x0 PUSH2 0xB28 PUSH2 0xB21 DUP4 PUSH2 0x2710 PUSH2 0xB34 JUMP JUMPDEST PUSH1 0x1 PUSH2 0xBB8 JUMP JUMPDEST SWAP1 POP PUSH2 0x178 DUP3 DUP3 PUSH2 0xBB8 JUMP JUMPDEST PUSH1 0x0 DUP3 DUP3 MUL PUSH2 0xB4E DUP5 ISZERO DUP1 PUSH2 0xA69 JUMPI POP DUP4 DUP6 DUP4 DUP2 PUSH2 0xA66 JUMPI INVALID JUMPDEST DUP1 PUSH2 0xB5D JUMPI PUSH1 0x0 SWAP2 POP POP PUSH2 0x1C3 JUMP JUMPDEST PUSH8 0xDE0B6B3A7640000 PUSH1 0x0 NOT DUP3 ADD PUSH2 0xAF5 JUMP JUMPDEST PUSH1 0x0 PUSH2 0xB7F DUP3 ISZERO ISZERO PUSH1 0x4 PUSH2 0xA82 JUMP JUMPDEST DUP3 PUSH2 0xB8C JUMPI POP PUSH1 0x0 PUSH2 0x1C3 JUMP JUMPDEST PUSH8 0xDE0B6B3A7640000 DUP4 DUP2 MUL SWAP1 PUSH2 0xBA6 SWAP1 DUP6 DUP4 DUP2 PUSH2 0xAE0 JUMPI INVALID JUMPDEST DUP3 DUP2 DUP2 PUSH2 0xBAF JUMPI INVALID JUMPDEST DIV SWAP2 POP POP PUSH2 0x1C3 JUMP JUMPDEST PUSH1 0x0 DUP3 DUP3 ADD PUSH2 0x1C0 DUP5 DUP3 LT ISZERO DUP4 PUSH2 0xA82 JUMP JUMPDEST PUSH1 0x0 DUP1 PUSH2 0xBD7 DUP5 DUP5 PUSH2 0xCA8 JUMP JUMPDEST SWAP1 POP PUSH1 0x0 PUSH2 0xBEA PUSH2 0xB21 DUP4 PUSH2 0x2710 PUSH2 0xB34 JUMP JUMPDEST SWAP1 POP DUP1 DUP3 LT ISZERO PUSH2 0xBFF JUMPI PUSH1 0x0 SWAP3 POP POP POP PUSH2 0x1C3 JUMP JUMPDEST PUSH2 0xC09 DUP3 DUP3 PUSH2 0xA94 JUMP JUMPDEST SWAP3 POP POP POP PUSH2 0x1C3 JUMP JUMPDEST PUSH1 0x0 PUSH8 0xDE0B6B3A7640000 DUP3 LT PUSH2 0xC2A JUMPI PUSH1 0x0 PUSH2 0xC36 JUMP JUMPDEST DUP2 PUSH8 0xDE0B6B3A7640000 SUB JUMPDEST SWAP1 POP JUMPDEST SWAP2 SWAP1 POP JUMP JUMPDEST PUSH1 0x0 DUP2 DUP4 LT ISZERO PUSH2 0xC4E JUMPI DUP2 PUSH2 0x1C0 JUMP JUMPDEST POP SWAP1 SWAP2 SWAP1 POP JUMP JUMPDEST PUSH3 0x461BCD PUSH1 0xE5 SHL PUSH1 0x0 SWAP1 DUP2 MSTORE PUSH1 0x20 PUSH1 0x4 MSTORE PUSH1 0x7 PUSH1 0x24 MSTORE PUSH7 0x42414C23000030 PUSH1 0xA DUP1 DUP5 DIV DUP2 DUP2 MOD PUSH1 0x30 SWAP1 DUP2 ADD PUSH1 0x8 SHL SWAP6 DUP4 SWAP1 MOD SWAP6 SWAP1 SWAP6 ADD SWAP1 DUP3 SWAP1 DIV SWAP2 DUP3 MOD SWAP1 SWAP5 ADD PUSH1 0x10 SHL SWAP4 SWAP1 SWAP4 ADD ADD PUSH1 0xC8 SHL PUSH1 0x44 MSTORE PUSH1 0x64 SWAP1 REVERT JUMPDEST PUSH1 0x0 DUP2 PUSH2 0xCBE JUMPI POP PUSH8 0xDE0B6B3A7640000 PUSH2 0x1C3 JUMP JUMPDEST DUP3 PUSH2 0xCCB JUMPI POP PUSH1 0x0 PUSH2 0x1C3 JUMP JUMPDEST PUSH2 0xCDC PUSH1 0x1 PUSH1 0xFF SHL DUP5 LT PUSH1 0x6 PUSH2 0xA82 JUMP JUMPDEST DUP3 PUSH2 0xD02 PUSH24 0xBCE5086492111AEA88F4BB1CA6BCF584181EA8059F76532 DUP5 LT PUSH1 0x7 PUSH2 0xA82 JUMP JUMPDEST DUP3 PUSH1 0x0 PUSH8 0xC7D713B49DA0000 DUP4 SGT DUP1 ISZERO PUSH2 0xD23 JUMPI POP PUSH8 0xF43FC2C04EE0000 DUP4 SLT JUMPDEST ISZERO PUSH2 0xD5A JUMPI PUSH1 0x0 PUSH2 0xD33 DUP5 PUSH2 0xDB3 JUMP JUMPDEST SWAP1 POP PUSH8 0xDE0B6B3A7640000 DUP1 DUP3 SMOD DUP5 MUL SDIV DUP4 PUSH8 0xDE0B6B3A7640000 DUP4 SDIV MUL ADD SWAP2 POP POP PUSH2 0xD68 JUMP JUMPDEST DUP2 PUSH2 0xD64 DUP5 PUSH2 0xED1 JUMP JUMPDEST MUL SWAP1 POP JUMPDEST PUSH8 0xDE0B6B3A7640000 SWAP1 SDIV PUSH2 0xDA0 PUSH9 0x238FD42C5CF03FFFF NOT DUP3 SLT DUP1 ISZERO SWAP1 PUSH2 0xD99 JUMPI POP PUSH9 0x70C1CC73B00C80000 DUP3 SGT ISZERO JUMPDEST PUSH1 0x8 PUSH2 0xA82 JUMP JUMPDEST PUSH2 0xDA9 DUP2 PUSH2 0x1270 JUMP JUMPDEST SWAP7 SWAP6 POP POP POP POP POP POP JUMP JUMPDEST PUSH8 0xDE0B6B3A7640000 MUL PUSH1 0x0 DUP1 PUSH11 0xC097CE7BC90715B34B9F1 PUSH1 0x24 SHL DUP1 DUP5 ADD SWAP1 PUSH15 0xC097CE7BC90715B34B9F0FFFFFFFFF NOT DUP6 ADD MUL DUP2 PUSH2 0xDEE JUMPI INVALID JUMPDEST SDIV SWAP1 POP PUSH1 0x0 PUSH11 0xC097CE7BC90715B34B9F1 PUSH1 0x24 SHL DUP3 DUP1 MUL SDIV SWAP1 POP DUP2 DUP1 PUSH11 0xC097CE7BC90715B34B9F1 PUSH1 0x24 SHL DUP2 DUP5 MUL SDIV SWAP2 POP PUSH1 0x3 DUP3 SDIV ADD PUSH11 0xC097CE7BC90715B34B9F1 PUSH1 0x24 SHL DUP3 DUP5 MUL SDIV SWAP2 POP PUSH1 0x5 DUP3 SDIV ADD PUSH11 0xC097CE7BC90715B34B9F1 PUSH1 0x24 SHL DUP3 DUP5 MUL SDIV SWAP2 POP PUSH1 0x7 DUP3 SDIV ADD PUSH11 0xC097CE7BC90715B34B9F1 PUSH1 0x24 SHL DUP3 DUP5 MUL SDIV SWAP2 POP PUSH1 0x9 DUP3 SDIV ADD PUSH11 0xC097CE7BC90715B34B9F1 PUSH1 0x24 SHL DUP3 DUP5 MUL SDIV SWAP2 POP PUSH1 0xB DUP3 SDIV ADD PUSH11 0xC097CE7BC90715B34B9F1 PUSH1 0x24 SHL DUP3 DUP5 MUL SDIV SWAP2 POP PUSH1 0xD DUP3 SDIV ADD PUSH11 0xC097CE7BC90715B34B9F1 PUSH1 0x24 SHL DUP3 DUP5 MUL SDIV SWAP2 POP PUSH1 0xF DUP3 PUSH1 0x2 SWAP2 SWAP1 SDIV SWAP2 SWAP1 SWAP2 ADD MUL SWAP6 SWAP5 POP POP POP POP POP JUMP JUMPDEST PUSH1 0x0 PUSH8 0xDE0B6B3A7640000 DUP3 SLT ISZERO PUSH2 0xF0D JUMPI PUSH2 0xF03 DUP3 PUSH11 0xC097CE7BC90715B34B9F1 PUSH1 0x24 SHL DUP2 PUSH2 0xEFD JUMPI INVALID JUMPDEST SDIV PUSH2 0xED1 JUMP JUMPDEST PUSH1 0x0 SUB SWAP1 POP PUSH2 0xC39 JUMP JUMPDEST PUSH1 0x0 PUSH31 0x1600EF3172E58D2E933EC884FDE10064C63B5372D805E203C0000000000000 DUP4 SLT PUSH2 0xF5E JUMPI PUSH24 0x195E54C5DD42177F53A27172FA9EC630262827000000000 DUP4 SDIV SWAP3 POP PUSH9 0x6F05B59D3B2000000 ADD JUMPDEST PUSH20 0x11798004D755D3C8BC8E03204CF44619E000000 DUP4 SLT PUSH2 0xF96 JUMPI PUSH12 0x1425982CF597CD205CEF7380 DUP4 SDIV SWAP3 POP PUSH9 0x3782DACE9D9000000 ADD JUMPDEST PUSH1 0x64 SWAP3 DUP4 MUL SWAP3 MUL PUSH15 0x1855144814A7FF805980FF0084000 DUP4 SLT PUSH2 0xFDE JUMPI PUSH15 0x1855144814A7FF805980FF0084000 PUSH9 0x56BC75E2D63100000 DUP5 MUL SDIV SWAP3 POP PUSH9 0xAD78EBC5AC62000000 ADD JUMPDEST PUSH12 0x2DF0AB5A80A22C61AB5A700 DUP4 SLT PUSH2 0x1019 JUMPI PUSH12 0x2DF0AB5A80A22C61AB5A700 PUSH9 0x56BC75E2D63100000 DUP5 MUL SDIV SWAP3 POP PUSH9 0x56BC75E2D631000000 ADD JUMPDEST PUSH10 0x3F1FCE3DA636EA5CF850 DUP4 SLT PUSH2 0x1050 JUMPI PUSH10 0x3F1FCE3DA636EA5CF850 PUSH9 0x56BC75E2D63100000 DUP5 MUL SDIV SWAP3 POP PUSH9 0x2B5E3AF16B18800000 ADD JUMPDEST PUSH10 0x127FA27722CC06CC5E2 DUP4 SLT PUSH2 0x1087 JUMPI PUSH10 0x127FA27722CC06CC5E2 PUSH9 0x56BC75E2D63100000 DUP5 MUL SDIV SWAP3 POP PUSH9 0x15AF1D78B58C400000 ADD JUMPDEST PUSH9 0x280E60114EDB805D03 DUP4 SLT PUSH2 0x10BC JUMPI PUSH9 0x280E60114EDB805D03 PUSH9 0x56BC75E2D63100000 DUP5 MUL SDIV SWAP3 POP PUSH9 0xAD78EBC5AC6200000 ADD JUMPDEST PUSH9 0xEBC5FB41746121110 DUP4 SLT PUSH2 0x10E7 JUMPI PUSH9 0xEBC5FB41746121110 PUSH9 0x56BC75E2D63100000 SWAP4 DUP5 MUL SDIV SWAP3 ADD JUMPDEST PUSH9 0x8F00F760A4B2DB55D DUP4 SLT PUSH2 0x111C JUMPI PUSH9 0x8F00F760A4B2DB55D PUSH9 0x56BC75E2D63100000 DUP5 MUL SDIV SWAP3 POP PUSH9 0x2B5E3AF16B1880000 ADD JUMPDEST PUSH9 0x6F5F1775788937937 DUP4 SLT PUSH2 0x1151 JUMPI PUSH9 0x6F5F1775788937937 PUSH9 0x56BC75E2D63100000 DUP5 MUL SDIV SWAP3 POP PUSH9 0x15AF1D78B58C40000 ADD JUMPDEST PUSH9 0x6248F33704B286603 DUP4 SLT PUSH2 0x1185 JUMPI PUSH9 0x6248F33704B286603 PUSH9 0x56BC75E2D63100000 DUP5 MUL SDIV SWAP3 POP PUSH8 0xAD78EBC5AC620000 ADD JUMPDEST PUSH9 0x5C548670B9510E7AC DUP4 SLT PUSH2 0x11B9 JUMPI PUSH9 0x5C548670B9510E7AC PUSH9 0x56BC75E2D63100000 DUP5 MUL SDIV SWAP3 POP PUSH8 0x56BC75E2D6310000 ADD JUMPDEST PUSH1 0x0 PUSH9 0x56BC75E2D63100000 DUP5 ADD PUSH9 0x56BC75E2D63100000 DUP1 DUP7 SUB MUL DUP2 PUSH2 0x11DC JUMPI INVALID JUMPDEST SDIV SWAP1 POP PUSH1 0x0 PUSH9 0x56BC75E2D63100000 DUP3 DUP1 MUL SDIV SWAP1 POP DUP2 DUP1 PUSH9 0x56BC75E2D63100000 DUP2 DUP5 MUL SDIV SWAP2 POP PUSH1 0x3 DUP3 SDIV ADD PUSH9 0x56BC75E2D63100000 DUP3 DUP5 MUL SDIV SWAP2 POP PUSH1 0x5 DUP3 SDIV ADD PUSH9 0x56BC75E2D63100000 DUP3 DUP5 MUL SDIV SWAP2 POP PUSH1 0x7 DUP3 SDIV ADD PUSH9 0x56BC75E2D63100000 DUP3 DUP5 MUL SDIV SWAP2 POP PUSH1 0x9 DUP3 SDIV ADD PUSH9 0x56BC75E2D63100000 DUP3 DUP5 MUL SDIV SWAP2 POP PUSH1 0xB DUP3 SDIV ADD PUSH1 0x2 MUL PUSH1 0x64 DUP6 DUP3 ADD SDIV SWAP8 SWAP7 POP POP POP POP POP POP POP JUMP JUMPDEST PUSH1 0x0 PUSH2 0x129F PUSH9 0x238FD42C5CF03FFFF NOT DUP4 SLT ISZERO DUP1 ISZERO PUSH2 0x1298 JUMPI POP PUSH9 0x70C1CC73B00C80000 DUP4 SGT ISZERO JUMPDEST PUSH1 0x9 PUSH2 0xA82 JUMP JUMPDEST PUSH1 0x0 DUP3 SLT ISZERO PUSH2 0x12D2 JUMPI PUSH2 0x12B4 DUP3 PUSH1 0x0 SUB PUSH2 0x1270 JUMP JUMPDEST PUSH11 0xC097CE7BC90715B34B9F1 PUSH1 0x24 SHL DUP2 PUSH2 0x12CA JUMPI INVALID JUMPDEST SDIV SWAP1 POP PUSH2 0xC39 JUMP JUMPDEST PUSH1 0x0 PUSH9 0x6F05B59D3B2000000 DUP4 SLT PUSH2 0x1312 JUMPI POP PUSH9 0x6F05B59D3B1FFFFFF NOT SWAP1 SWAP2 ADD SWAP1 PUSH24 0x195E54C5DD42177F53A27172FA9EC630262827000000000 PUSH2 0x1348 JUMP JUMPDEST PUSH9 0x3782DACE9D9000000 DUP4 SLT PUSH2 0x1344 JUMPI POP PUSH9 0x3782DACE9D8FFFFFF NOT SWAP1 SWAP2 ADD SWAP1 PUSH12 0x1425982CF597CD205CEF7380 PUSH2 0x1348 JUMP JUMPDEST POP PUSH1 0x1 JUMPDEST PUSH1 0x64 SWAP3 SWAP1 SWAP3 MUL SWAP2 PUSH9 0x56BC75E2D63100000 PUSH9 0xAD78EBC5AC62000000 DUP5 SLT PUSH2 0x1398 JUMPI PUSH9 0xAD78EBC5AC61FFFFFF NOT SWAP1 SWAP4 ADD SWAP3 PUSH9 0x56BC75E2D63100000 PUSH15 0x1855144814A7FF805980FF0084000 DUP3 MUL SDIV SWAP1 POP JUMPDEST PUSH9 0x56BC75E2D631000000 DUP5 SLT PUSH2 0x13D4 JUMPI PUSH9 0x56BC75E2D630FFFFFF NOT SWAP1 SWAP4 ADD SWAP3 PUSH9 0x56BC75E2D63100000 PUSH12 0x2DF0AB5A80A22C61AB5A700 DUP3 MUL SDIV SWAP1 POP JUMPDEST PUSH9 0x2B5E3AF16B18800000 DUP5 SLT PUSH2 0x140E JUMPI PUSH9 0x2B5E3AF16B187FFFFF NOT SWAP1 SWAP4 ADD SWAP3 PUSH9 0x56BC75E2D63100000 PUSH10 0x3F1FCE3DA636EA5CF850 DUP3 MUL SDIV SWAP1 POP JUMPDEST PUSH9 0x15AF1D78B58C400000 DUP5 SLT PUSH2 0x1448 JUMPI PUSH9 0x15AF1D78B58C3FFFFF NOT SWAP1 SWAP4 ADD SWAP3 PUSH9 0x56BC75E2D63100000 PUSH10 0x127FA27722CC06CC5E2 DUP3 MUL SDIV SWAP1 POP JUMPDEST PUSH9 0xAD78EBC5AC6200000 DUP5 SLT PUSH2 0x1481 JUMPI PUSH9 0xAD78EBC5AC61FFFFF NOT SWAP1 SWAP4 ADD SWAP3 PUSH9 0x56BC75E2D63100000 PUSH9 0x280E60114EDB805D03 DUP3 MUL SDIV SWAP1 POP JUMPDEST PUSH9 0x56BC75E2D63100000 DUP5 SLT PUSH2 0x14BA JUMPI PUSH9 0x56BC75E2D630FFFFF NOT SWAP1 SWAP4 ADD SWAP3 PUSH9 0x56BC75E2D63100000 PUSH9 0xEBC5FB41746121110 DUP3 MUL SDIV SWAP1 POP JUMPDEST PUSH9 0x2B5E3AF16B1880000 DUP5 SLT PUSH2 0x14F3 JUMPI PUSH9 0x2B5E3AF16B187FFFF NOT SWAP1 SWAP4 ADD SWAP3 PUSH9 0x56BC75E2D63100000 PUSH9 0x8F00F760A4B2DB55D DUP3 MUL SDIV SWAP1 POP JUMPDEST PUSH9 0x15AF1D78B58C40000 DUP5 SLT PUSH2 0x152C JUMPI PUSH9 0x15AF1D78B58C3FFFF NOT SWAP1 SWAP4 ADD SWAP3 PUSH9 0x56BC75E2D63100000 PUSH9 0x6F5F1775788937937 DUP3 MUL SDIV SWAP1 POP JUMPDEST PUSH9 0x56BC75E2D63100000 DUP5 DUP2 ADD SWAP1 DUP6 SWAP1 PUSH1 0x2 SWAP1 DUP3 DUP1 MUL SDIV SDIV SWAP2 DUP3 ADD SWAP2 SWAP1 POP PUSH1 0x3 PUSH9 0x56BC75E2D63100000 DUP8 DUP4 MUL SDIV SDIV SWAP2 DUP3 ADD SWAP2 SWAP1 POP PUSH1 0x4 PUSH9 0x56BC75E2D63100000 DUP8 DUP4 MUL SDIV SDIV SWAP2 DUP3 ADD SWAP2 SWAP1 POP PUSH1 0x5 PUSH9 0x56BC75E2D63100000 DUP8 DUP4 MUL SDIV SDIV SWAP2 DUP3 ADD SWAP2 SWAP1 POP PUSH1 0x6 PUSH9 0x56BC75E2D63100000 DUP8 DUP4 MUL SDIV SDIV SWAP2 DUP3 ADD SWAP2 SWAP1 POP PUSH1 0x7 PUSH9 0x56BC75E2D63100000 DUP8 DUP4 MUL SDIV SDIV SWAP2 DUP3 ADD SWAP2 SWAP1 POP PUSH1 0x8 PUSH9 0x56BC75E2D63100000 DUP8 DUP4 MUL SDIV SDIV SWAP2 DUP3 ADD SWAP2 SWAP1 POP PUSH1 0x9 PUSH9 0x56BC75E2D63100000 DUP8 DUP4 MUL SDIV SDIV SWAP2 DUP3 ADD SWAP2 SWAP1 POP PUSH1 0xA PUSH9 0x56BC75E2D63100000 DUP8 DUP4 MUL SDIV SDIV SWAP2 DUP3 ADD SWAP2 SWAP1 POP PUSH1 0xB PUSH9 0x56BC75E2D63100000 DUP8 DUP4 MUL SDIV SDIV SWAP2 DUP3 ADD SWAP2 SWAP1 POP PUSH1 0xC PUSH9 0x56BC75E2D63100000 DUP8 DUP4 MUL SDIV SDIV SWAP2 DUP3 ADD SWAP2 SWAP1 POP PUSH1 0x64 PUSH9 0x56BC75E2D63100000 DUP5 DUP5 MUL SDIV DUP6 MUL SDIV SWAP7 SWAP6 POP POP POP POP POP POP JUMP JUMPDEST PUSH1 0x0 DUP3 PUSH1 0x1F DUP4 ADD SLT PUSH2 0x165D JUMPI DUP1 DUP2 REVERT JUMPDEST DUP2 CALLDATALOAD PUSH8 0xFFFFFFFFFFFFFFFF DUP1 DUP3 GT ISZERO PUSH2 0x1674 JUMPI DUP3 DUP4 REVERT JUMPDEST PUSH1 0x20 DUP1 DUP4 MUL PUSH1 0x40 MLOAD DUP3 DUP3 DUP3 ADD ADD DUP2 DUP2 LT DUP6 DUP3 GT OR ISZERO PUSH2 0x1691 JUMPI DUP7 DUP8 REVERT JUMPDEST PUSH1 0x40 MSTORE DUP5 DUP2 MSTORE SWAP5 POP DUP2 DUP6 ADD SWAP3 POP DUP6 DUP3 ADD DUP2 DUP8 ADD DUP4 ADD DUP9 LT ISZERO PUSH2 0x16B2 JUMPI PUSH1 0x0 DUP1 REVERT JUMPDEST PUSH1 0x0 SWAP2 POP JUMPDEST DUP5 DUP3 LT ISZERO PUSH2 0x16D5 JUMPI DUP1 CALLDATALOAD DUP5 MSTORE SWAP3 DUP3 ADD SWAP3 PUSH1 0x1 SWAP2 SWAP1 SWAP2 ADD SWAP1 DUP3 ADD PUSH2 0x16B7 JUMP JUMPDEST POP POP POP POP POP SWAP3 SWAP2 POP POP JUMP JUMPDEST PUSH1 0x0 DUP1 PUSH1 0x40 DUP4 DUP6 SUB SLT ISZERO PUSH2 0x16F2 JUMPI DUP2 DUP3 REVERT JUMPDEST DUP3 CALLDATALOAD PUSH8 0xFFFFFFFFFFFFFFFF DUP1 DUP3 GT ISZERO PUSH2 0x1709 JUMPI DUP4 DUP5 REVERT JUMPDEST PUSH2 0x1715 DUP7 DUP4 DUP8 ADD PUSH2 0x164D JUMP JUMPDEST SWAP4 POP PUSH1 0x20 DUP6 ADD CALLDATALOAD SWAP2 POP DUP1 DUP3 GT ISZERO PUSH2 0x172A JUMPI DUP3 DUP4 REVERT JUMPDEST POP PUSH2 0x1737 DUP6 DUP3 DUP7 ADD PUSH2 0x164D JUMP JUMPDEST SWAP2 POP POP SWAP3 POP SWAP3 SWAP1 POP JUMP JUMPDEST PUSH1 0x0 DUP1 PUSH1 0x0 DUP1 PUSH1 0x0 PUSH1 0xA0 DUP7 DUP9 SUB SLT ISZERO PUSH2 0x1758 JUMPI DUP1 DUP2 REVERT JUMPDEST DUP6 CALLDATALOAD PUSH8 0xFFFFFFFFFFFFFFFF DUP1 DUP3 GT ISZERO PUSH2 0x176F JUMPI DUP3 DUP4 REVERT JUMPDEST PUSH2 0x177B DUP10 DUP4 DUP11 ADD PUSH2 0x164D JUMP JUMPDEST SWAP7 POP PUSH1 0x20 DUP9 ADD CALLDATALOAD SWAP2 POP DUP1 DUP3 GT ISZERO PUSH2 0x1790 JUMPI DUP3 DUP4 REVERT JUMPDEST PUSH2 0x179C DUP10 DUP4 DUP11 ADD PUSH2 0x164D JUMP JUMPDEST SWAP6 POP PUSH1 0x40 DUP9 ADD CALLDATALOAD SWAP2 POP DUP1 DUP3 GT ISZERO PUSH2 0x17B1 JUMPI DUP3 DUP4 REVERT JUMPDEST POP PUSH2 0x17BE DUP9 DUP3 DUP10 ADD PUSH2 0x164D JUMP JUMPDEST SWAP6 SWAP9 SWAP5 SWAP8 POP SWAP5 SWAP6 PUSH1 0x60 DUP2 ADD CALLDATALOAD SWAP6 POP PUSH1 0x80 ADD CALLDATALOAD SWAP4 SWAP3 POP POP POP JUMP JUMPDEST PUSH1 0x0 DUP1 PUSH1 0x0 PUSH1 0x60 DUP5 DUP7 SUB SLT ISZERO PUSH2 0x17EB JUMPI DUP3 DUP4 REVERT JUMPDEST DUP4 CALLDATALOAD PUSH8 0xFFFFFFFFFFFFFFFF DUP2 GT ISZERO PUSH2 0x1801 JUMPI DUP4 DUP5 REVERT JUMPDEST PUSH2 0x180D DUP7 DUP3 DUP8 ADD PUSH2 0x164D JUMP JUMPDEST SWAP7 PUSH1 0x20 DUP7 ADD CALLDATALOAD SWAP7 POP PUSH1 0x40 SWAP1 SWAP6 ADD CALLDATALOAD SWAP5 SWAP4 POP POP POP POP JUMP JUMPDEST PUSH1 0x0 DUP1 PUSH1 0x0 DUP1 PUSH1 0x0 PUSH1 0xA0 DUP7 DUP9 SUB SLT ISZERO PUSH2 0x183A JUMPI DUP1 DUP2 REVERT JUMPDEST POP POP DUP4 CALLDATALOAD SWAP6 PUSH1 0x20 DUP6 ADD CALLDATALOAD SWAP6 POP PUSH1 0x40 DUP6 ADD CALLDATALOAD SWAP5 PUSH1 0x60 DUP2 ADD CALLDATALOAD SWAP5 POP PUSH1 0x80 ADD CALLDATALOAD SWAP3 POP SWAP1 POP JUMP JUMPDEST PUSH1 0x20 DUP1 DUP3 MSTORE DUP3 MLOAD DUP3 DUP3 ADD DUP2 SWAP1 MSTORE PUSH1 0x0 SWAP2 SWAP1 DUP5 DUP3 ADD SWAP1 PUSH1 0x40 DUP6 ADD SWAP1 DUP5 JUMPDEST DUP2 DUP2 LT ISZERO PUSH2 0x1895 JUMPI DUP4 MLOAD DUP4 MSTORE SWAP3 DUP5 ADD SWAP3 SWAP2 DUP5 ADD SWAP2 PUSH1 0x1 ADD PUSH2 0x1879 JUMP JUMPDEST POP SWAP1 SWAP7 SWAP6 POP POP POP POP POP POP JUMP JUMPDEST SWAP1 DUP2 MSTORE PUSH1 0x20 ADD SWAP1 JUMP INVALID LOG2 PUSH5 0x6970667358 0x22 SLT KECCAK256 0xC9 0xD3 0x26 PUSH3 0xED2B62 SWAP9 0xCB 0xFC MSTORE PUSH1 0x4F 0xD SWAP11 0xC0 CHAINID 0xB2 0xFC SWAP1 0xDB DUP4 PC 0xE6 DUP10 KECCAK256 SWAP6 BALANCE PUSH20 0x74881B64736F6C63430007010033000000000000 "
		},
		"gasEstimates": {
			"creation": {
				"codeDepositCost": "1273600",
				"executionCost": "1322",
				"totalCost": "1274922"
			},
			"external": {
				"bptInForExactTokensOut(uint256[],uint256[],uint256[],uint256,uint256)": "infinite",
				"calculateDueTokenProtocolSwapFeeAmount(uint256,uint256,uint256,uint256,uint256)": "infinite",
				"exactBPTInForTokenOut(uint256,uint256,uint256,uint256,uint256)": "infinite",
				"exactBPTInForTokensOut(uint256[],uint256,uint256)": "infinite",
				"exactTokensInForBPTOut(uint256[],uint256[],uint256[],uint256,uint256)": "infinite",
				"inGivenOut(uint256,uint256,uint256,uint256,uint256)": "infinite",
				"invariant(uint256[],uint256[])": "infinite",
				"outGivenIn(uint256,uint256,uint256,uint256,uint256)": "infinite",
				"tokenInForExactBPTOut(uint256,uint256,uint256,uint256,uint256)": "infinite"
			}
		},
		"methodIdentifiers": {
			"bptInForExactTokensOut(uint256[],uint256[],uint256[],uint256,uint256)": "98f59bca",
			"calculateDueTokenProtocolSwapFeeAmount(uint256,uint256,uint256,uint256,uint256)": "fab3b9d7",
			"exactBPTInForTokenOut(uint256,uint256,uint256,uint256,uint256)": "5b55b24a",
			"exactBPTInForTokensOut(uint256[],uint256,uint256)": "1c855fa6",
			"exactTokensInForBPTOut(uint256[],uint256[],uint256[],uint256,uint256)": "2e752149",
			"inGivenOut(uint256,uint256,uint256,uint256,uint256)": "1b02e9a8",
			"invariant(uint256[],uint256[])": "56785371",
			"outGivenIn(uint256,uint256,uint256,uint256,uint256)": "4b114ddf",
			"tokenInForExactBPTOut(uint256,uint256,uint256,uint256,uint256)": "c2546cc3"
		}
	},
	"abi": [
		{
			"inputs": [
				{
					"internalType": "uint256[]",
					"name": "balances",
					"type": "uint256[]"
				},
				{
					"internalType": "uint256[]",
					"name": "normalizedWeights",
					"type": "uint256[]"
				},
				{
					"internalType": "uint256[]",
					"name": "amountsOut",
					"type": "uint256[]"
				},
				{
					"internalType": "uint256",
					"name": "bptTotalSupply",
					"type": "uint256"
				},
				{
					"internalType": "uint256",
					"name": "swapFee",
					"type": "uint256"
				}
			],
			"name": "bptInForExactTokensOut",
			"outputs": [
				{
					"internalType": "uint256",
					"name": "",
					"type": "uint256"
				}
			],
			"stateMutability": "pure",
			"type": "function"
		},
		{
			"inputs": [
				{
					"internalType": "uint256",
					"name": "balance",
					"type": "uint256"
				},
				{
					"internalType": "uint256",
					"name": "normalizedWeight",
					"type": "uint256"
				},
				{
					"internalType": "uint256",
					"name": "previousInvariant",
					"type": "uint256"
				},
				{
					"internalType": "uint256",
					"name": "currentInvariant",
					"type": "uint256"
				},
				{
					"internalType": "uint256",
					"name": "protocolSwapFeePercentage",
					"type": "uint256"
				}
			],
			"name": "calculateDueTokenProtocolSwapFeeAmount",
			"outputs": [
				{
					"internalType": "uint256",
					"name": "",
					"type": "uint256"
				}
			],
			"stateMutability": "pure",
			"type": "function"
		},
		{
			"inputs": [
				{
					"internalType": "uint256",
					"name": "tokenBalance",
					"type": "uint256"
				},
				{
					"internalType": "uint256",
					"name": "tokenNormalizedWeight",
					"type": "uint256"
				},
				{
					"internalType": "uint256",
					"name": "bptAmountIn",
					"type": "uint256"
				},
				{
					"internalType": "uint256",
					"name": "bptTotalSupply",
					"type": "uint256"
				},
				{
					"internalType": "uint256",
					"name": "swapFee",
					"type": "uint256"
				}
			],
			"name": "exactBPTInForTokenOut",
			"outputs": [
				{
					"internalType": "uint256",
					"name": "",
					"type": "uint256"
				}
			],
			"stateMutability": "pure",
			"type": "function"
		},
		{
			"inputs": [
				{
					"internalType": "uint256[]",
					"name": "currentBalances",
					"type": "uint256[]"
				},
				{
					"internalType": "uint256",
					"name": "bptAmountIn",
					"type": "uint256"
				},
				{
					"internalType": "uint256",
					"name": "totalBPT",
					"type": "uint256"
				}
			],
			"name": "exactBPTInForTokensOut",
			"outputs": [
				{
					"internalType": "uint256[]",
					"name": "",
					"type": "uint256[]"
				}
			],
			"stateMutability": "pure",
			"type": "function"
		},
		{
			"inputs": [
				{
					"internalType": "uint256[]",
					"name": "balances",
					"type": "uint256[]"
				},
				{
					"internalType": "uint256[]",
					"name": "normalizedWeights",
					"type": "uint256[]"
				},
				{
					"internalType": "uint256[]",
					"name": "amountsIn",
					"type": "uint256[]"
				},
				{
					"internalType": "uint256",
					"name": "bptTotalSupply",
					"type": "uint256"
				},
				{
					"internalType": "uint256",
					"name": "swapFee",
					"type": "uint256"
				}
			],
			"name": "exactTokensInForBPTOut",
			"outputs": [
				{
					"internalType": "uint256",
					"name": "",
					"type": "uint256"
				}
			],
			"stateMutability": "pure",
			"type": "function"
		},
		{
			"inputs": [
				{
					"internalType": "uint256",
					"name": "tokenBalanceIn",
					"type": "uint256"
				},
				{
					"internalType": "uint256",
					"name": "tokenWeightIn",
					"type": "uint256"
				},
				{
					"internalType": "uint256",
					"name": "tokenBalanceOut",
					"type": "uint256"
				},
				{
					"internalType": "uint256",
					"name": "tokenWeightOut",
					"type": "uint256"
				},
				{
					"internalType": "uint256",
					"name": "tokenAmountOut",
					"type": "uint256"
				}
			],
			"name": "inGivenOut",
			"outputs": [
				{
					"internalType": "uint256",
					"name": "",
					"type": "uint256"
				}
			],
			"stateMutability": "pure",
			"type": "function"
		},
		{
			"inputs": [
				{
					"internalType": "uint256[]",
					"name": "normalizedWeights",
					"type": "uint256[]"
				},
				{
					"internalType": "uint256[]",
					"name": "balances",
					"type": "uint256[]"
				}
			],
			"name": "invariant",
			"outputs": [
				{
					"internalType": "uint256",
					"name": "",
					"type": "uint256"
				}
			],
			"stateMutability": "pure",
			"type": "function"
		},
		{
			"inputs": [
				{
					"internalType": "uint256",
					"name": "tokenBalanceIn",
					"type": "uint256"
				},
				{
					"internalType": "uint256",
					"name": "tokenWeightIn",
					"type": "uint256"
				},
				{
					"internalType": "uint256",
					"name": "tokenBalanceOut",
					"type": "uint256"
				},
				{
					"internalType": "uint256",
					"name": "tokenWeightOut",
					"type": "uint256"
				},
				{
					"internalType": "uint256",
					"name": "tokenAmountIn",
					"type": "uint256"
				}
			],
			"name": "outGivenIn",
			"outputs": [
				{
					"internalType": "uint256",
					"name": "",
					"type": "uint256"
				}
			],
			"stateMutability": "pure",
			"type": "function"
		},
		{
			"inputs": [
				{
					"internalType": "uint256",
					"name": "tokenBalance",
					"type": "uint256"
				},
				{
					"internalType": "uint256",
					"name": "tokenNormalizedWeight",
					"type": "uint256"
				},
				{
					"internalType": "uint256",
					"name": "bptAmountOut",
					"type": "uint256"
				},
				{
					"internalType": "uint256",
					"name": "bptTotalSupply",
					"type": "uint256"
				},
				{
					"internalType": "uint256",
					"name": "swapFee",
					"type": "uint256"
				}
			],
			"name": "tokenInForExactBPTOut",
			"outputs": [
				{
					"internalType": "uint256",
					"name": "",
					"type": "uint256"
				}
			],
			"stateMutability": "pure",
			"type": "function"
		}
	]
}