{
	"data": {
		"bytecode": {
			"linkReferences": {},
			"object": "608060405234801561001057600080fd5b50610e78806100206000396000f3fe608060405234801561001057600080fd5b506004361061009e5760003560e01c8063c3748ef111610066578063c3748ef114610122578063d437680414610142578063d5125db614610162578063e5fe5f3c14610175578063ff7b6f1e146101885761009e565b8063259efd16146100a3578063264959fb146100b85780633d48f8c1146100e157806360d1507c146100f4578063b48b5b401461011a575b600080fd5b6100b66100b1366004610ce8565b61019b565b005b6100cb6100c6366004610c96565b6101ba565b6040516100d89190610d74565b60405180910390f35b6100cb6100ef366004610ccd565b6101d3565b610107610102366004610c44565b610206565b6040516100d89796959493929190610d7d565b6100cb61024f565b610135610130366004610c44565b610255565b6040516100d89190610dad565b610155610150366004610c01565b6102da565b6040516100d89190610d15565b6100b6610170366004610c5c565b6103ae565b6100b6610183366004610b3c565b610408565b610135610196366004610c5c565b610451565b6101a4816101d3565b6000928352602083905260409092209190915550565b60006101c9848484420361047e565b90505b9392505050565b6000610200826000015183602001518460400151856060015186608001518760a001518860c001516105c4565b92915050565b6000806000806000806000610221610400891061013b610624565b600061022c89610636565b905061023781610648565b959f949e50929c50909a509850965090945092505050565b61040090565b61025d610a14565b6040805160e08101909152806102748460006106ab565b81526020016102848460006106f6565b81526020016102948460016106ab565b81526020016102a48460016106f6565b81526020016102b48460026106ab565b81526020016102c48460026106f6565b81526020016102d28461073a565b905292915050565b6060825167ffffffffffffffff811180156102f457600080fd5b5060405190808252806020026020018201604052801561032e57816020015b61031b610a51565b8152602001906001900390816103135790505b50905060005b83518110156103a75760008061035d86848151811061034f57fe5b602002602001015186610746565b9150915060405180604001604052806103758461073a565b81526020016103838361073a565b81525084848151811061039257fe5b60209081029190910101525050600101610334565b5092915050565b4285900360006103c182878787876107f9565b90507fa7f3e984c65d79d0fa58244dddb6522f661c9dea23fe4940801cbfe08810750686821415826040516103f7929190610d64565b60405180910390a150505050505050565b60005b825181101561044c5761044483828151811061042357fe5b602002602001015183838151811061043757fe5b602002602001015161019b565b60010161040b565b505050565b610459610a14565b60006104688787878787610850565b905061047381610255565b979650505050505050565b600061048f82421015610138610624565b42829003600061049e85610636565b905060006104ab8261073a565b90506104bc60008211610139610624565b8281116104e857808303806104d1848a6106ab565b026104dc848a6106f6565b019450505050506101cc565b60006104f3876108b0565b9050600061050082610636565b9050600061050d8261073a565b905061051e60008211610139610624565b61052d8682111561013a610624565b505060008061053c8684610746565b91509150600061054b8361073a565b6105548361073a565b03905080156105ac576000610569848d6106f6565b610573848e6106f6565b03905060006105818561073a565b89039050828183028161059057fe5b0561059b868f6106f6565b0199505050505050505050506101cc565b6105b6838c6106f6565b9750505050505050506101cc565b60006105d082826108bd565b6105db84601f6108c1565b6105e68660546108d2565b6105f188606a6108c1565b6105fc8a609f6108d2565b6106078c60b56108c1565b6106128e60ea6108d2565b17171717171798975050505050505050565b8161063257610632816108df565b5050565b60009081526020819052604090205490565b600080600080600080600061065c88610932565b96506106678861093f565b95506106728861094c565b945061067d88610959565b935061068888610966565b925061069388610973565b915061069e8861073a565b9050919395979092949650565b6000808260028111156106ba57fe5b14156106d0576106c983610932565b9050610200565b60018260028111156106de57fe5b14156106ed576106c98361094c565b6106c983610966565b60008082600281111561070557fe5b1415610714576106c98361093f565b600182600281111561072257fe5b1415610731576106c983610959565b6106c983610973565b60006102008282610980565b600080806103ff8180805b8385116107bd57600285850104610768818a61098a565b935061077384610636565b925061077e8361073a565b915089821015610793578060010195506107b7565b898211156107a6576001810394506107b7565b8283975097505050505050506107f2565b50610751565b8881106107db576107d56107d08461099b565b610636565b826107e8565b816107e86107d0856108b0565b9650965050505050505b9250929050565b6000806108158585854261080c8b610636565b93929190610850565b905060784288900310158061082a5786610833565b610833876108b0565b600081815260208190526040902092909255509695505050505050565b60008061085c8761073a565b83039050600081870261086e8961093f565b019050600082870261087f8a610959565b01905060008387026108908b610973565b0190506108a289848a858b868c6105c4565b9a9950505050505050505050565b600061020082600161098a565b1b90565b661fffffffffffff91909116901b90565b623fffff91909116901b90565b62461bcd60e51b6000908152602060045260076024526642414c23000030600a808404818106603090810160081b95839006959095019082900491820690940160101b939093010160c81b604452606490fd5b60006102008260ea6109a8565b60006102008260b56109d2565b600061020082609f6109a8565b600061020082606a6109d2565b60006102008260546109a8565b600061020082601f6109d2565b1c637fffffff1690565b60006104008383015b069392505050565b6000610200826001610a05565b600082821c623fffff16621fffff81136109c257806109ca565b623fffff1981175b949350505050565b600082821c661fffffffffffff16660fffffffffffff81136109f457806109ca565b661fffffffffffff19179392505050565b60006104008284038101610993565b6040518060e00160405280600081526020016000815260200160008152602001600081526020016000815260200160008152602001600081525090565b604051806040016040528060008152602001600081525090565b600082601f830112610a7b578081fd5b8135610a8e610a8982610e22565b610dfb565b818152915060208083019084810181840286018201871015610aaf57600080fd5b60005b84811015610ace57813584529282019290820190600101610ab2565b505050505092915050565b600060e08284031215610aea578081fd5b610af460e0610dfb565b9050813581526020820135602082015260408201356040820152606082013560608201526080820135608082015260a082013560a082015260c082013560c082015292915050565b60008060408385031215610b4e578182fd5b823567ffffffffffffffff80821115610b65578384fd5b610b7186838701610a6b565b9350602091508185013581811115610b87578384fd5b85019050601f81018613610b99578283fd5b8035610ba7610a8982610e22565b8181528381019083850160e0808502860187018b1015610bc5578788fd5b8795505b84861015610bf157610bdb8b83610ad9565b8452600195909501949286019290810190610bc9565b5096999098509650505050505050565b60008060408385031215610c13578182fd5b823567ffffffffffffffff811115610c29578283fd5b610c3585828601610a6b565b95602094909401359450505050565b600060208284031215610c55578081fd5b5035919050565b600080600080600060a08688031215610c73578081fd5b505083359560208501359550604085013594606081013594506080013592509050565b600080600060608486031215610caa578283fd5b833560038110610cb8578384fd5b95602085013595506040909401359392505050565b600060e08284031215610cde578081fd5b6101cc8383610ad9565b6000806101008385031215610cfb578182fd5b82359150610d0c8460208501610ad9565b90509250929050565b602080825282518282018190526000919060409081850190868401855b82811015610d5757815180518552860151868501529284019290850190600101610d32565b5091979650505050505050565b9115158252602082015260400190565b90815260200190565b968752602087019590955260408601939093526060850191909152608084015260a083015260c082015260e00190565b600060e082019050825182526020830151602083015260408301516040830152606083015160608301526080830151608083015260a083015160a083015260c083015160c083015292915050565b60405181810167ffffffffffffffff81118282101715610e1a57600080fd5b604052919050565b600067ffffffffffffffff821115610e38578081fd5b506020908102019056fea2646970667358221220bebfe42a30864e4ff9b6e10c03bf832b12bbbd62744f50389c14a77cde31995a64736f6c63430007010033",
			"opcodes": "PUSH1 0x80 PUSH1 0x40 MSTORE CALLVALUE DUP1 ISZERO PUSH2 0x10 JUMPI PUSH1 0x0 DUP1 REVERT JUMPDEST POP PUSH2 0xE78 DUP1 PUSH2 0x20 PUSH1 0x0 CODECOPY PUSH1 0x0 RETURN INVALID PUSH1 0x80 PUSH1 0x40 MSTORE CALLVALUE DUP1 ISZERO PUSH2 0x10 JUMPI PUSH1 0x0 DUP1 REVERT JUMPDEST POP PUSH1 0x4 CALLDATASIZE LT PUSH2 0x9E JUMPI PUSH1 0x0 CALLDATALOAD PUSH1 0xE0 SHR DUP1 PUSH4 0xC3748EF1 GT PUSH2 0x66 JUMPI DUP1 PUSH4 0xC3748EF1 EQ PUSH2 0x122 JUMPI DUP1 PUSH4 0xD4376804 EQ PUSH2 0x142 JUMPI DUP1 PUSH4 0xD5125DB6 EQ PUSH2 0x162 JUMPI DUP1 PUSH4 0xE5FE5F3C EQ PUSH2 0x175 JUMPI DUP1 PUSH4 0xFF7B6F1E EQ PUSH2 0x188 JUMPI PUSH2 0x9E JUMP JUMPDEST DUP1 PUSH4 0x259EFD16 EQ PUSH2 0xA3 JUMPI DUP1 PUSH4 0x264959FB EQ PUSH2 0xB8 JUMPI DUP1 PUSH4 0x3D48F8C1 EQ PUSH2 0xE1 JUMPI DUP1 PUSH4 0x60D1507C EQ PUSH2 0xF4 JUMPI DUP1 PUSH4 0xB48B5B40 EQ PUSH2 0x11A JUMPI JUMPDEST PUSH1 0x0 DUP1 REVERT JUMPDEST PUSH2 0xB6 PUSH2 0xB1 CALLDATASIZE PUSH1 0x4 PUSH2 0xCE8 JUMP JUMPDEST PUSH2 0x19B JUMP JUMPDEST STOP JUMPDEST PUSH2 0xCB PUSH2 0xC6 CALLDATASIZE PUSH1 0x4 PUSH2 0xC96 JUMP JUMPDEST PUSH2 0x1BA JUMP JUMPDEST PUSH1 0x40 MLOAD PUSH2 0xD8 SWAP2 SWAP1 PUSH2 0xD74 JUMP JUMPDEST PUSH1 0x40 MLOAD DUP1 SWAP2 SUB SWAP1 RETURN JUMPDEST PUSH2 0xCB PUSH2 0xEF CALLDATASIZE PUSH1 0x4 PUSH2 0xCCD JUMP JUMPDEST PUSH2 0x1D3 JUMP JUMPDEST PUSH2 0x107 PUSH2 0x102 CALLDATASIZE PUSH1 0x4 PUSH2 0xC44 JUMP JUMPDEST PUSH2 0x206 JUMP JUMPDEST PUSH1 0x40 MLOAD PUSH2 0xD8 SWAP8 SWAP7 SWAP6 SWAP5 SWAP4 SWAP3 SWAP2 SWAP1 PUSH2 0xD7D JUMP JUMPDEST PUSH2 0xCB PUSH2 0x24F JUMP JUMPDEST PUSH2 0x135 PUSH2 0x130 CALLDATASIZE PUSH1 0x4 PUSH2 0xC44 JUMP JUMPDEST PUSH2 0x255 JUMP JUMPDEST PUSH1 0x40 MLOAD PUSH2 0xD8 SWAP2 SWAP1 PUSH2 0xDAD JUMP JUMPDEST PUSH2 0x155 PUSH2 0x150 CALLDATASIZE PUSH1 0x4 PUSH2 0xC01 JUMP JUMPDEST PUSH2 0x2DA JUMP JUMPDEST PUSH1 0x40 MLOAD PUSH2 0xD8 SWAP2 SWAP1 PUSH2 0xD15 JUMP JUMPDEST PUSH2 0xB6 PUSH2 0x170 CALLDATASIZE PUSH1 0x4 PUSH2 0xC5C JUMP JUMPDEST PUSH2 0x3AE JUMP JUMPDEST PUSH2 0xB6 PUSH2 0x183 CALLDATASIZE PUSH1 0x4 PUSH2 0xB3C JUMP JUMPDEST PUSH2 0x408 JUMP JUMPDEST PUSH2 0x135 PUSH2 0x196 CALLDATASIZE PUSH1 0x4 PUSH2 0xC5C JUMP JUMPDEST PUSH2 0x451 JUMP JUMPDEST PUSH2 0x1A4 DUP2 PUSH2 0x1D3 JUMP JUMPDEST PUSH1 0x0 SWAP3 DUP4 MSTORE PUSH1 0x20 DUP4 SWAP1 MSTORE PUSH1 0x40 SWAP1 SWAP3 KECCAK256 SWAP2 SWAP1 SWAP2 SSTORE POP JUMP JUMPDEST PUSH1 0x0 PUSH2 0x1C9 DUP5 DUP5 DUP5 TIMESTAMP SUB PUSH2 0x47E JUMP JUMPDEST SWAP1 POP JUMPDEST SWAP4 SWAP3 POP POP POP JUMP JUMPDEST PUSH1 0x0 PUSH2 0x200 DUP3 PUSH1 0x0 ADD MLOAD DUP4 PUSH1 0x20 ADD MLOAD DUP5 PUSH1 0x40 ADD MLOAD DUP6 PUSH1 0x60 ADD MLOAD DUP7 PUSH1 0x80 ADD MLOAD DUP8 PUSH1 0xA0 ADD MLOAD DUP9 PUSH1 0xC0 ADD MLOAD PUSH2 0x5C4 JUMP JUMPDEST SWAP3 SWAP2 POP POP JUMP JUMPDEST PUSH1 0x0 DUP1 PUSH1 0x0 DUP1 PUSH1 0x0 DUP1 PUSH1 0x0 PUSH2 0x221 PUSH2 0x400 DUP10 LT PUSH2 0x13B PUSH2 0x624 JUMP JUMPDEST PUSH1 0x0 PUSH2 0x22C DUP10 PUSH2 0x636 JUMP JUMPDEST SWAP1 POP PUSH2 0x237 DUP2 PUSH2 0x648 JUMP JUMPDEST SWAP6 SWAP16 SWAP5 SWAP15 POP SWAP3 SWAP13 POP SWAP1 SWAP11 POP SWAP9 POP SWAP7 POP SWAP1 SWAP5 POP SWAP3 POP POP POP JUMP JUMPDEST PUSH2 0x400 SWAP1 JUMP JUMPDEST PUSH2 0x25D PUSH2 0xA14 JUMP JUMPDEST PUSH1 0x40 DUP1 MLOAD PUSH1 0xE0 DUP2 ADD SWAP1 SWAP2 MSTORE DUP1 PUSH2 0x274 DUP5 PUSH1 0x0 PUSH2 0x6AB JUMP JUMPDEST DUP2 MSTORE PUSH1 0x20 ADD PUSH2 0x284 DUP5 PUSH1 0x0 PUSH2 0x6F6 JUMP JUMPDEST DUP2 MSTORE PUSH1 0x20 ADD PUSH2 0x294 DUP5 PUSH1 0x1 PUSH2 0x6AB JUMP JUMPDEST DUP2 MSTORE PUSH1 0x20 ADD PUSH2 0x2A4 DUP5 PUSH1 0x1 PUSH2 0x6F6 JUMP JUMPDEST DUP2 MSTORE PUSH1 0x20 ADD PUSH2 0x2B4 DUP5 PUSH1 0x2 PUSH2 0x6AB JUMP JUMPDEST DUP2 MSTORE PUSH1 0x20 ADD PUSH2 0x2C4 DUP5 PUSH1 0x2 PUSH2 0x6F6 JUMP JUMPDEST DUP2 MSTORE PUSH1 0x20 ADD PUSH2 0x2D2 DUP5 PUSH2 0x73A JUMP JUMPDEST SWAP1 MSTORE SWAP3 SWAP2 POP POP JUMP JUMPDEST PUSH1 0x60 DUP3 MLOAD PUSH8 0xFFFFFFFFFFFFFFFF DUP2 GT DUP1 ISZERO PUSH2 0x2F4 JUMPI PUSH1 0x0 DUP1 REVERT JUMPDEST POP PUSH1 0x40 MLOAD SWAP1 DUP1 DUP3 MSTORE DUP1 PUSH1 0x20 MUL PUSH1 0x20 ADD DUP3 ADD PUSH1 0x40 MSTORE DUP1 ISZERO PUSH2 0x32E JUMPI DUP2 PUSH1 0x20 ADD JUMPDEST PUSH2 0x31B PUSH2 0xA51 JUMP JUMPDEST DUP2 MSTORE PUSH1 0x20 ADD SWAP1 PUSH1 0x1 SWAP1 SUB SWAP1 DUP2 PUSH2 0x313 JUMPI SWAP1 POP JUMPDEST POP SWAP1 POP PUSH1 0x0 JUMPDEST DUP4 MLOAD DUP2 LT ISZERO PUSH2 0x3A7 JUMPI PUSH1 0x0 DUP1 PUSH2 0x35D DUP7 DUP5 DUP2 MLOAD DUP2 LT PUSH2 0x34F JUMPI INVALID JUMPDEST PUSH1 0x20 MUL PUSH1 0x20 ADD ADD MLOAD DUP7 PUSH2 0x746 JUMP JUMPDEST SWAP2 POP SWAP2 POP PUSH1 0x40 MLOAD DUP1 PUSH1 0x40 ADD PUSH1 0x40 MSTORE DUP1 PUSH2 0x375 DUP5 PUSH2 0x73A JUMP JUMPDEST DUP2 MSTORE PUSH1 0x20 ADD PUSH2 0x383 DUP4 PUSH2 0x73A JUMP JUMPDEST DUP2 MSTORE POP DUP5 DUP5 DUP2 MLOAD DUP2 LT PUSH2 0x392 JUMPI INVALID JUMPDEST PUSH1 0x20 SWAP1 DUP2 MUL SWAP2 SWAP1 SWAP2 ADD ADD MSTORE POP POP PUSH1 0x1 ADD PUSH2 0x334 JUMP JUMPDEST POP SWAP3 SWAP2 POP POP JUMP JUMPDEST TIMESTAMP DUP6 SWAP1 SUB PUSH1 0x0 PUSH2 0x3C1 DUP3 DUP8 DUP8 DUP8 DUP8 PUSH2 0x7F9 JUMP JUMPDEST SWAP1 POP PUSH32 0xA7F3E984C65D79D0FA58244DDDB6522F661C9DEA23FE4940801CBFE088107506 DUP7 DUP3 EQ ISZERO DUP3 PUSH1 0x40 MLOAD PUSH2 0x3F7 SWAP3 SWAP2 SWAP1 PUSH2 0xD64 JUMP JUMPDEST PUSH1 0x40 MLOAD DUP1 SWAP2 SUB SWAP1 LOG1 POP POP POP POP POP POP POP JUMP JUMPDEST PUSH1 0x0 JUMPDEST DUP3 MLOAD DUP2 LT ISZERO PUSH2 0x44C JUMPI PUSH2 0x444 DUP4 DUP3 DUP2 MLOAD DUP2 LT PUSH2 0x423 JUMPI INVALID JUMPDEST PUSH1 0x20 MUL PUSH1 0x20 ADD ADD MLOAD DUP4 DUP4 DUP2 MLOAD DUP2 LT PUSH2 0x437 JUMPI INVALID JUMPDEST PUSH1 0x20 MUL PUSH1 0x20 ADD ADD MLOAD PUSH2 0x19B JUMP JUMPDEST PUSH1 0x1 ADD PUSH2 0x40B JUMP JUMPDEST POP POP POP JUMP JUMPDEST PUSH2 0x459 PUSH2 0xA14 JUMP JUMPDEST PUSH1 0x0 PUSH2 0x468 DUP8 DUP8 DUP8 DUP8 DUP8 PUSH2 0x850 JUMP JUMPDEST SWAP1 POP PUSH2 0x473 DUP2 PUSH2 0x255 JUMP JUMPDEST SWAP8 SWAP7 POP POP POP POP POP POP POP JUMP JUMPDEST PUSH1 0x0 PUSH2 0x48F DUP3 TIMESTAMP LT ISZERO PUSH2 0x138 PUSH2 0x624 JUMP JUMPDEST TIMESTAMP DUP3 SWAP1 SUB PUSH1 0x0 PUSH2 0x49E DUP6 PUSH2 0x636 JUMP JUMPDEST SWAP1 POP PUSH1 0x0 PUSH2 0x4AB DUP3 PUSH2 0x73A JUMP JUMPDEST SWAP1 POP PUSH2 0x4BC PUSH1 0x0 DUP3 GT PUSH2 0x139 PUSH2 0x624 JUMP JUMPDEST DUP3 DUP2 GT PUSH2 0x4E8 JUMPI DUP1 DUP4 SUB DUP1 PUSH2 0x4D1 DUP5 DUP11 PUSH2 0x6AB JUMP JUMPDEST MUL PUSH2 0x4DC DUP5 DUP11 PUSH2 0x6F6 JUMP JUMPDEST ADD SWAP5 POP POP POP POP POP PUSH2 0x1CC JUMP JUMPDEST PUSH1 0x0 PUSH2 0x4F3 DUP8 PUSH2 0x8B0 JUMP JUMPDEST SWAP1 POP PUSH1 0x0 PUSH2 0x500 DUP3 PUSH2 0x636 JUMP JUMPDEST SWAP1 POP PUSH1 0x0 PUSH2 0x50D DUP3 PUSH2 0x73A JUMP JUMPDEST SWAP1 POP PUSH2 0x51E PUSH1 0x0 DUP3 GT PUSH2 0x139 PUSH2 0x624 JUMP JUMPDEST PUSH2 0x52D DUP7 DUP3 GT ISZERO PUSH2 0x13A PUSH2 0x624 JUMP JUMPDEST POP POP PUSH1 0x0 DUP1 PUSH2 0x53C DUP7 DUP5 PUSH2 0x746 JUMP JUMPDEST SWAP2 POP SWAP2 POP PUSH1 0x0 PUSH2 0x54B DUP4 PUSH2 0x73A JUMP JUMPDEST PUSH2 0x554 DUP4 PUSH2 0x73A JUMP JUMPDEST SUB SWAP1 POP DUP1 ISZERO PUSH2 0x5AC JUMPI PUSH1 0x0 PUSH2 0x569 DUP5 DUP14 PUSH2 0x6F6 JUMP JUMPDEST PUSH2 0x573 DUP5 DUP15 PUSH2 0x6F6 JUMP JUMPDEST SUB SWAP1 POP PUSH1 0x0 PUSH2 0x581 DUP6 PUSH2 0x73A JUMP JUMPDEST DUP10 SUB SWAP1 POP DUP3 DUP2 DUP4 MUL DUP2 PUSH2 0x590 JUMPI INVALID JUMPDEST SDIV PUSH2 0x59B DUP7 DUP16 PUSH2 0x6F6 JUMP JUMPDEST ADD SWAP10 POP POP POP POP POP POP POP POP POP POP PUSH2 0x1CC JUMP JUMPDEST PUSH2 0x5B6 DUP4 DUP13 PUSH2 0x6F6 JUMP JUMPDEST SWAP8 POP POP POP POP POP POP POP POP PUSH2 0x1CC JUMP JUMPDEST PUSH1 0x0 PUSH2 0x5D0 DUP3 DUP3 PUSH2 0x8BD JUMP JUMPDEST PUSH2 0x5DB DUP5 PUSH1 0x1F PUSH2 0x8C1 JUMP JUMPDEST PUSH2 0x5E6 DUP7 PUSH1 0x54 PUSH2 0x8D2 JUMP JUMPDEST PUSH2 0x5F1 DUP9 PUSH1 0x6A PUSH2 0x8C1 JUMP JUMPDEST PUSH2 0x5FC DUP11 PUSH1 0x9F PUSH2 0x8D2 JUMP JUMPDEST PUSH2 0x607 DUP13 PUSH1 0xB5 PUSH2 0x8C1 JUMP JUMPDEST PUSH2 0x612 DUP15 PUSH1 0xEA PUSH2 0x8D2 JUMP JUMPDEST OR OR OR OR OR OR SWAP9 SWAP8 POP POP POP POP POP POP POP POP JUMP JUMPDEST DUP2 PUSH2 0x632 JUMPI PUSH2 0x632 DUP2 PUSH2 0x8DF JUMP JUMPDEST POP POP JUMP JUMPDEST PUSH1 0x0 SWAP1 DUP2 MSTORE PUSH1 0x20 DUP2 SWAP1 MSTORE PUSH1 0x40 SWAP1 KECCAK256 SLOAD SWAP1 JUMP JUMPDEST PUSH1 0x0 DUP1 PUSH1 0x0 DUP1 PUSH1 0x0 DUP1 PUSH1 0x0 PUSH2 0x65C DUP9 PUSH2 0x932 JUMP JUMPDEST SWAP7 POP PUSH2 0x667 DUP9 PUSH2 0x93F JUMP JUMPDEST SWAP6 POP PUSH2 0x672 DUP9 PUSH2 0x94C JUMP JUMPDEST SWAP5 POP PUSH2 0x67D DUP9 PUSH2 0x959 JUMP JUMPDEST SWAP4 POP PUSH2 0x688 DUP9 PUSH2 0x966 JUMP JUMPDEST SWAP3 POP PUSH2 0x693 DUP9 PUSH2 0x973 JUMP JUMPDEST SWAP2 POP PUSH2 0x69E DUP9 PUSH2 0x73A JUMP JUMPDEST SWAP1 POP SWAP2 SWAP4 SWAP6 SWAP8 SWAP1 SWAP3 SWAP5 SWAP7 POP JUMP JUMPDEST PUSH1 0x0 DUP1 DUP3 PUSH1 0x2 DUP2 GT ISZERO PUSH2 0x6BA JUMPI INVALID JUMPDEST EQ ISZERO PUSH2 0x6D0 JUMPI PUSH2 0x6C9 DUP4 PUSH2 0x932 JUMP JUMPDEST SWAP1 POP PUSH2 0x200 JUMP JUMPDEST PUSH1 0x1 DUP3 PUSH1 0x2 DUP2 GT ISZERO PUSH2 0x6DE JUMPI INVALID JUMPDEST EQ ISZERO PUSH2 0x6ED JUMPI PUSH2 0x6C9 DUP4 PUSH2 0x94C JUMP JUMPDEST PUSH2 0x6C9 DUP4 PUSH2 0x966 JUMP JUMPDEST PUSH1 0x0 DUP1 DUP3 PUSH1 0x2 DUP2 GT ISZERO PUSH2 0x705 JUMPI INVALID JUMPDEST EQ ISZERO PUSH2 0x714 JUMPI PUSH2 0x6C9 DUP4 PUSH2 0x93F JUMP JUMPDEST PUSH1 0x1 DUP3 PUSH1 0x2 DUP2 GT ISZERO PUSH2 0x722 JUMPI INVALID JUMPDEST EQ ISZERO PUSH2 0x731 JUMPI PUSH2 0x6C9 DUP4 PUSH2 0x959 JUMP JUMPDEST PUSH2 0x6C9 DUP4 PUSH2 0x973 JUMP JUMPDEST PUSH1 0x0 PUSH2 0x200 DUP3 DUP3 PUSH2 0x980 JUMP JUMPDEST PUSH1 0x0 DUP1 DUP1 PUSH2 0x3FF DUP2 DUP1 DUP1 JUMPDEST DUP4 DUP6 GT PUSH2 0x7BD JUMPI PUSH1 0x2 DUP6 DUP6 ADD DIV PUSH2 0x768 DUP2 DUP11 PUSH2 0x98A JUMP JUMPDEST SWAP4 POP PUSH2 0x773 DUP5 PUSH2 0x636 JUMP JUMPDEST SWAP3 POP PUSH2 0x77E DUP4 PUSH2 0x73A JUMP JUMPDEST SWAP2 POP DUP10 DUP3 LT ISZERO PUSH2 0x793 JUMPI DUP1 PUSH1 0x1 ADD SWAP6 POP PUSH2 0x7B7 JUMP JUMPDEST DUP10 DUP3 GT ISZERO PUSH2 0x7A6 JUMPI PUSH1 0x1 DUP2 SUB SWAP5 POP PUSH2 0x7B7 JUMP JUMPDEST DUP3 DUP4 SWAP8 POP SWAP8 POP POP POP POP POP POP POP PUSH2 0x7F2 JUMP JUMPDEST POP PUSH2 0x751 JUMP JUMPDEST DUP9 DUP2 LT PUSH2 0x7DB JUMPI PUSH2 0x7D5 PUSH2 0x7D0 DUP5 PUSH2 0x99B JUMP JUMPDEST PUSH2 0x636 JUMP JUMPDEST DUP3 PUSH2 0x7E8 JUMP JUMPDEST DUP2 PUSH2 0x7E8 PUSH2 0x7D0 DUP6 PUSH2 0x8B0 JUMP JUMPDEST SWAP7 POP SWAP7 POP POP POP POP POP POP JUMPDEST SWAP3 POP SWAP3 SWAP1 POP JUMP JUMPDEST PUSH1 0x0 DUP1 PUSH2 0x815 DUP6 DUP6 DUP6 TIMESTAMP PUSH2 0x80C DUP12 PUSH2 0x636 JUMP JUMPDEST SWAP4 SWAP3 SWAP2 SWAP1 PUSH2 0x850 JUMP JUMPDEST SWAP1 POP PUSH1 0x78 TIMESTAMP DUP9 SWAP1 SUB LT ISZERO DUP1 PUSH2 0x82A JUMPI DUP7 PUSH2 0x833 JUMP JUMPDEST PUSH2 0x833 DUP8 PUSH2 0x8B0 JUMP JUMPDEST PUSH1 0x0 DUP2 DUP2 MSTORE PUSH1 0x20 DUP2 SWAP1 MSTORE PUSH1 0x40 SWAP1 KECCAK256 SWAP3 SWAP1 SWAP3 SSTORE POP SWAP7 SWAP6 POP POP POP POP POP POP JUMP JUMPDEST PUSH1 0x0 DUP1 PUSH2 0x85C DUP8 PUSH2 0x73A JUMP JUMPDEST DUP4 SUB SWAP1 POP PUSH1 0x0 DUP2 DUP8 MUL PUSH2 0x86E DUP10 PUSH2 0x93F JUMP JUMPDEST ADD SWAP1 POP PUSH1 0x0 DUP3 DUP8 MUL PUSH2 0x87F DUP11 PUSH2 0x959 JUMP JUMPDEST ADD SWAP1 POP PUSH1 0x0 DUP4 DUP8 MUL PUSH2 0x890 DUP12 PUSH2 0x973 JUMP JUMPDEST ADD SWAP1 POP PUSH2 0x8A2 DUP10 DUP5 DUP11 DUP6 DUP12 DUP7 DUP13 PUSH2 0x5C4 JUMP JUMPDEST SWAP11 SWAP10 POP POP POP POP POP POP POP POP POP POP JUMP JUMPDEST PUSH1 0x0 PUSH2 0x200 DUP3 PUSH1 0x1 PUSH2 0x98A JUMP JUMPDEST SHL SWAP1 JUMP JUMPDEST PUSH7 0x1FFFFFFFFFFFFF SWAP2 SWAP1 SWAP2 AND SWAP1 SHL SWAP1 JUMP JUMPDEST PUSH3 0x3FFFFF SWAP2 SWAP1 SWAP2 AND SWAP1 SHL SWAP1 JUMP JUMPDEST PUSH3 0x461BCD PUSH1 0xE5 SHL PUSH1 0x0 SWAP1 DUP2 MSTORE PUSH1 0x20 PUSH1 0x4 MSTORE PUSH1 0x7 PUSH1 0x24 MSTORE PUSH7 0x42414C23000030 PUSH1 0xA DUP1 DUP5 DIV DUP2 DUP2 MOD PUSH1 0x30 SWAP1 DUP2 ADD PUSH1 0x8 SHL SWAP6 DUP4 SWAP1 MOD SWAP6 SWAP1 SWAP6 ADD SWAP1 DUP3 SWAP1 DIV SWAP2 DUP3 MOD SWAP1 SWAP5 ADD PUSH1 0x10 SHL SWAP4 SWAP1 SWAP4 ADD ADD PUSH1 0xC8 SHL PUSH1 0x44 MSTORE PUSH1 0x64 SWAP1 REVERT JUMPDEST PUSH1 0x0 PUSH2 0x200 DUP3 PUSH1 0xEA PUSH2 0x9A8 JUMP JUMPDEST PUSH1 0x0 PUSH2 0x200 DUP3 PUSH1 0xB5 PUSH2 0x9D2 JUMP JUMPDEST PUSH1 0x0 PUSH2 0x200 DUP3 PUSH1 0x9F PUSH2 0x9A8 JUMP JUMPDEST PUSH1 0x0 PUSH2 0x200 DUP3 PUSH1 0x6A PUSH2 0x9D2 JUMP JUMPDEST PUSH1 0x0 PUSH2 0x200 DUP3 PUSH1 0x54 PUSH2 0x9A8 JUMP JUMPDEST PUSH1 0x0 PUSH2 0x200 DUP3 PUSH1 0x1F PUSH2 0x9D2 JUMP JUMPDEST SHR PUSH4 0x7FFFFFFF AND SWAP1 JUMP JUMPDEST PUSH1 0x0 PUSH2 0x400 DUP4 DUP4 ADD JUMPDEST MOD SWAP4 SWAP3 POP POP POP JUMP JUMPDEST PUSH1 0x0 PUSH2 0x200 DUP3 PUSH1 0x1 PUSH2 0xA05 JUMP JUMPDEST PUSH1 0x0 DUP3 DUP3 SHR PUSH3 0x3FFFFF AND PUSH3 0x1FFFFF DUP2 SGT PUSH2 0x9C2 JUMPI DUP1 PUSH2 0x9CA JUMP JUMPDEST PUSH3 0x3FFFFF NOT DUP2 OR JUMPDEST SWAP5 SWAP4 POP POP POP POP JUMP JUMPDEST PUSH1 0x0 DUP3 DUP3 SHR PUSH7 0x1FFFFFFFFFFFFF AND PUSH7 0xFFFFFFFFFFFFF DUP2 SGT PUSH2 0x9F4 JUMPI DUP1 PUSH2 0x9CA JUMP JUMPDEST PUSH7 0x1FFFFFFFFFFFFF NOT OR SWAP4 SWAP3 POP POP POP JUMP JUMPDEST PUSH1 0x0 PUSH2 0x400 DUP3 DUP5 SUB DUP2 ADD PUSH2 0x993 JUMP JUMPDEST PUSH1 0x40 MLOAD DUP1 PUSH1 0xE0 ADD PUSH1 0x40 MSTORE DUP1 PUSH1 0x0 DUP2 MSTORE PUSH1 0x20 ADD PUSH1 0x0 DUP2 MSTORE PUSH1 0x20 ADD PUSH1 0x0 DUP2 MSTORE PUSH1 0x20 ADD PUSH1 0x0 DUP2 MSTORE PUSH1 0x20 ADD PUSH1 0x0 DUP2 MSTORE PUSH1 0x20 ADD PUSH1 0x0 DUP2 MSTORE PUSH1 0x20 ADD PUSH1 0x0 DUP2 MSTORE POP SWAP1 JUMP JUMPDEST PUSH1 0x40 MLOAD DUP1 PUSH1 0x40 ADD PUSH1 0x40 MSTORE DUP1 PUSH1 0x0 DUP2 MSTORE PUSH1 0x20 ADD PUSH1 0x0 DUP2 MSTORE POP SWAP1 JUMP JUMPDEST PUSH1 0x0 DUP3 PUSH1 0x1F DUP4 ADD SLT PUSH2 0xA7B JUMPI DUP1 DUP2 REVERT JUMPDEST DUP2 CALLDATALOAD PUSH2 0xA8E PUSH2 0xA89 DUP3 PUSH2 0xE22 JUMP JUMPDEST PUSH2 0xDFB JUMP JUMPDEST DUP2 DUP2 MSTORE SWAP2 POP PUSH1 0x20 DUP1 DUP4 ADD SWAP1 DUP5 DUP2 ADD DUP2 DUP5 MUL DUP7 ADD DUP3 ADD DUP8 LT ISZERO PUSH2 0xAAF JUMPI PUSH1 0x0 DUP1 REVERT JUMPDEST PUSH1 0x0 JUMPDEST DUP5 DUP2 LT ISZERO PUSH2 0xACE JUMPI DUP2 CALLDATALOAD DUP5 MSTORE SWAP3 DUP3 ADD SWAP3 SWAP1 DUP3 ADD SWAP1 PUSH1 0x1 ADD PUSH2 0xAB2 JUMP JUMPDEST POP POP POP POP POP SWAP3 SWAP2 POP POP JUMP JUMPDEST PUSH1 0x0 PUSH1 0xE0 DUP3 DUP5 SUB SLT ISZERO PUSH2 0xAEA JUMPI DUP1 DUP2 REVERT JUMPDEST PUSH2 0xAF4 PUSH1 0xE0 PUSH2 0xDFB JUMP JUMPDEST SWAP1 POP DUP2 CALLDATALOAD DUP2 MSTORE PUSH1 0x20 DUP3 ADD CALLDATALOAD PUSH1 0x20 DUP3 ADD MSTORE PUSH1 0x40 DUP3 ADD CALLDATALOAD PUSH1 0x40 DUP3 ADD MSTORE PUSH1 0x60 DUP3 ADD CALLDATALOAD PUSH1 0x60 DUP3 ADD MSTORE PUSH1 0x80 DUP3 ADD CALLDATALOAD PUSH1 0x80 DUP3 ADD MSTORE PUSH1 0xA0 DUP3 ADD CALLDATALOAD PUSH1 0xA0 DUP3 ADD MSTORE PUSH1 0xC0 DUP3 ADD CALLDATALOAD PUSH1 0xC0 DUP3 ADD MSTORE SWAP3 SWAP2 POP POP JUMP JUMPDEST PUSH1 0x0 DUP1 PUSH1 0x40 DUP4 DUP6 SUB SLT ISZERO PUSH2 0xB4E JUMPI DUP2 DUP3 REVERT JUMPDEST DUP3 CALLDATALOAD PUSH8 0xFFFFFFFFFFFFFFFF DUP1 DUP3 GT ISZERO PUSH2 0xB65 JUMPI DUP4 DUP5 REVERT JUMPDEST PUSH2 0xB71 DUP7 DUP4 DUP8 ADD PUSH2 0xA6B JUMP JUMPDEST SWAP4 POP PUSH1 0x20 SWAP2 POP DUP2 DUP6 ADD CALLDATALOAD DUP2 DUP2 GT ISZERO PUSH2 0xB87 JUMPI DUP4 DUP5 REVERT JUMPDEST DUP6 ADD SWAP1 POP PUSH1 0x1F DUP2 ADD DUP7 SGT PUSH2 0xB99 JUMPI DUP3 DUP4 REVERT JUMPDEST DUP1 CALLDATALOAD PUSH2 0xBA7 PUSH2 0xA89 DUP3 PUSH2 0xE22 JUMP JUMPDEST DUP2 DUP2 MSTORE DUP4 DUP2 ADD SWAP1 DUP4 DUP6 ADD PUSH1 0xE0 DUP1 DUP6 MUL DUP7 ADD DUP8 ADD DUP12 LT ISZERO PUSH2 0xBC5 JUMPI DUP8 DUP9 REVERT JUMPDEST DUP8 SWAP6 POP JUMPDEST DUP5 DUP7 LT ISZERO PUSH2 0xBF1 JUMPI PUSH2 0xBDB DUP12 DUP4 PUSH2 0xAD9 JUMP JUMPDEST DUP5 MSTORE PUSH1 0x1 SWAP6 SWAP1 SWAP6 ADD SWAP5 SWAP3 DUP7 ADD SWAP3 SWAP1 DUP2 ADD SWAP1 PUSH2 0xBC9 JUMP JUMPDEST POP SWAP7 SWAP10 SWAP1 SWAP9 POP SWAP7 POP POP POP POP POP POP POP JUMP JUMPDEST PUSH1 0x0 DUP1 PUSH1 0x40 DUP4 DUP6 SUB SLT ISZERO PUSH2 0xC13 JUMPI DUP2 DUP3 REVERT JUMPDEST DUP3 CALLDATALOAD PUSH8 0xFFFFFFFFFFFFFFFF DUP2 GT ISZERO PUSH2 0xC29 JUMPI DUP3 DUP4 REVERT JUMPDEST PUSH2 0xC35 DUP6 DUP3 DUP7 ADD PUSH2 0xA6B JUMP JUMPDEST SWAP6 PUSH1 0x20 SWAP5 SWAP1 SWAP5 ADD CALLDATALOAD SWAP5 POP POP POP POP JUMP JUMPDEST PUSH1 0x0 PUSH1 0x20 DUP3 DUP5 SUB SLT ISZERO PUSH2 0xC55 JUMPI DUP1 DUP2 REVERT JUMPDEST POP CALLDATALOAD SWAP2 SWAP1 POP JUMP JUMPDEST PUSH1 0x0 DUP1 PUSH1 0x0 DUP1 PUSH1 0x0 PUSH1 0xA0 DUP7 DUP9 SUB SLT ISZERO PUSH2 0xC73 JUMPI DUP1 DUP2 REVERT JUMPDEST POP POP DUP4 CALLDATALOAD SWAP6 PUSH1 0x20 DUP6 ADD CALLDATALOAD SWAP6 POP PUSH1 0x40 DUP6 ADD CALLDATALOAD SWAP5 PUSH1 0x60 DUP2 ADD CALLDATALOAD SWAP5 POP PUSH1 0x80 ADD CALLDATALOAD SWAP3 POP SWAP1 POP JUMP JUMPDEST PUSH1 0x0 DUP1 PUSH1 0x0 PUSH1 0x60 DUP5 DUP7 SUB SLT ISZERO PUSH2 0xCAA JUMPI DUP3 DUP4 REVERT JUMPDEST DUP4 CALLDATALOAD PUSH1 0x3 DUP2 LT PUSH2 0xCB8 JUMPI DUP4 DUP5 REVERT JUMPDEST SWAP6 PUSH1 0x20 DUP6 ADD CALLDATALOAD SWAP6 POP PUSH1 0x40 SWAP1 SWAP5 ADD CALLDATALOAD SWAP4 SWAP3 POP POP POP JUMP JUMPDEST PUSH1 0x0 PUSH1 0xE0 DUP3 DUP5 SUB SLT ISZERO PUSH2 0xCDE JUMPI DUP1 DUP2 REVERT JUMPDEST PUSH2 0x1CC DUP4 DUP4 PUSH2 0xAD9 JUMP JUMPDEST PUSH1 0x0 DUP1 PUSH2 0x100 DUP4 DUP6 SUB SLT ISZERO PUSH2 0xCFB JUMPI DUP2 DUP3 REVERT JUMPDEST DUP3 CALLDATALOAD SWAP2 POP PUSH2 0xD0C DUP5 PUSH1 0x20 DUP6 ADD PUSH2 0xAD9 JUMP JUMPDEST SWAP1 POP SWAP3 POP SWAP3 SWAP1 POP JUMP JUMPDEST PUSH1 0x20 DUP1 DUP3 MSTORE DUP3 MLOAD DUP3 DUP3 ADD DUP2 SWAP1 MSTORE PUSH1 0x0 SWAP2 SWAP1 PUSH1 0x40 SWAP1 DUP2 DUP6 ADD SWAP1 DUP7 DUP5 ADD DUP6 JUMPDEST DUP3 DUP2 LT ISZERO PUSH2 0xD57 JUMPI DUP2 MLOAD DUP1 MLOAD DUP6 MSTORE DUP7 ADD MLOAD DUP7 DUP6 ADD MSTORE SWAP3 DUP5 ADD SWAP3 SWAP1 DUP6 ADD SWAP1 PUSH1 0x1 ADD PUSH2 0xD32 JUMP JUMPDEST POP SWAP2 SWAP8 SWAP7 POP POP POP POP POP POP POP JUMP JUMPDEST SWAP2 ISZERO ISZERO DUP3 MSTORE PUSH1 0x20 DUP3 ADD MSTORE PUSH1 0x40 ADD SWAP1 JUMP JUMPDEST SWAP1 DUP2 MSTORE PUSH1 0x20 ADD SWAP1 JUMP JUMPDEST SWAP7 DUP8 MSTORE PUSH1 0x20 DUP8 ADD SWAP6 SWAP1 SWAP6 MSTORE PUSH1 0x40 DUP7 ADD SWAP4 SWAP1 SWAP4 MSTORE PUSH1 0x60 DUP6 ADD SWAP2 SWAP1 SWAP2 MSTORE PUSH1 0x80 DUP5 ADD MSTORE PUSH1 0xA0 DUP4 ADD MSTORE PUSH1 0xC0 DUP3 ADD MSTORE PUSH1 0xE0 ADD SWAP1 JUMP JUMPDEST PUSH1 0x0 PUSH1 0xE0 DUP3 ADD SWAP1 POP DUP3 MLOAD DUP3 MSTORE PUSH1 0x20 DUP4 ADD MLOAD PUSH1 0x20 DUP4 ADD MSTORE PUSH1 0x40 DUP4 ADD MLOAD PUSH1 0x40 DUP4 ADD MSTORE PUSH1 0x60 DUP4 ADD MLOAD PUSH1 0x60 DUP4 ADD MSTORE PUSH1 0x80 DUP4 ADD MLOAD PUSH1 0x80 DUP4 ADD MSTORE PUSH1 0xA0 DUP4 ADD MLOAD PUSH1 0xA0 DUP4 ADD MSTORE PUSH1 0xC0 DUP4 ADD MLOAD PUSH1 0xC0 DUP4 ADD MSTORE SWAP3 SWAP2 POP POP JUMP JUMPDEST PUSH1 0x40 MLOAD DUP2 DUP2 ADD PUSH8 0xFFFFFFFFFFFFFFFF DUP2 GT DUP3 DUP3 LT OR ISZERO PUSH2 0xE1A JUMPI PUSH1 0x0 DUP1 REVERT JUMPDEST PUSH1 0x40 MSTORE SWAP2 SWAP1 POP JUMP JUMPDEST PUSH1 0x0 PUSH8 0xFFFFFFFFFFFFFFFF DUP3 GT ISZERO PUSH2 0xE38 JUMPI DUP1 DUP2 REVERT JUMPDEST POP PUSH1 0x20 SWAP1 DUP2 MUL ADD SWAP1 JUMP INVALID LOG2 PUSH5 0x6970667358 0x22 SLT KECCAK256 0xBE 0xBF 0xE4 0x2A ADDRESS DUP7 0x4E 0x4F 0xF9 0xB6 0xE1 0xC SUB 0xBF DUP4 0x2B SLT 0xBB 0xBD PUSH3 0x744F50 CODESIZE SWAP13 EQ 0xA7 PUSH29 0xDE31995A64736F6C634300070100330000000000000000000000000000 "
		},
		"gasEstimates": {
			"creation": {
				"codeDepositCost": "740800",
				"executionCost": "773",
				"totalCost": "741573"
			},
			"external": {
				"decode(bytes32)": "infinite",
				"encode((int256,int256,int256,int256,int256,int256,uint256))": "infinite",
				"findNearestSamplesTimestamp(uint256[],uint256)": "infinite",
				"getPastAccumulator(uint8,uint256,uint256)": "infinite",
				"getSample(uint256)": "infinite",
				"getTotalSamples()": "317",
				"mockSample(uint256,(int256,int256,int256,int256,int256,int256,uint256))": "infinite",
				"mockSamples(uint256[],(int256,int256,int256,int256,int256,int256,uint256)[])": "infinite",
				"processPriceData(uint256,uint256,int256,int256,int256)": "infinite",
				"update(bytes32,int256,int256,int256,uint256)": "infinite"
			}
		},
		"methodIdentifiers": {
			"decode(bytes32)": "c3748ef1",
			"encode((int256,int256,int256,int256,int256,int256,uint256))": "3d48f8c1",
			"findNearestSamplesTimestamp(uint256[],uint256)": "d4376804",
			"getPastAccumulator(uint8,uint256,uint256)": "264959fb",
			"getSample(uint256)": "60d1507c",
			"getTotalSamples()": "b48b5b40",
			"mockSample(uint256,(int256,int256,int256,int256,int256,int256,uint256))": "259efd16",
			"mockSamples(uint256[],(int256,int256,int256,int256,int256,int256,uint256)[])": "e5fe5f3c",
			"processPriceData(uint256,uint256,int256,int256,int256)": "d5125db6",
			"update(bytes32,int256,int256,int256,uint256)": "ff7b6f1e"
		}
	},
	"abi": [
		{
			"anonymous": false,
			"inputs": [
				{
					"indexed": false,
					"internalType": "bool",
					"name": "newSample",
					"type": "bool"
				},
				{
					"indexed": false,
					"internalType": "uint256",
					"name": "sampleIndex",
					"type": "uint256"
				}
			],
			"name": "PriceDataProcessed",
			"type": "event"
		},
		{
			"inputs": [
				{
					"internalType": "bytes32",
					"name": "sample",
					"type": "bytes32"
				}
			],
			"name": "decode",
			"outputs": [
				{
					"components": [
						{
							"internalType": "int256",
							"name": "logPairPrice",
							"type": "int256"
						},
						{
							"internalType": "int256",
							"name": "accLogPairPrice",
							"type": "int256"
						},
						{
							"internalType": "int256",
							"name": "logBptPrice",
							"type": "int256"
						},
						{
							"internalType": "int256",
							"name": "accLogBptPrice",
							"type": "int256"
						},
						{
							"internalType": "int256",
							"name": "logInvariant",
							"type": "int256"
						},
						{
							"internalType": "int256",
							"name": "accLogInvariant",
							"type": "int256"
						},
						{
							"internalType": "uint256",
							"name": "timestamp",
							"type": "uint256"
						}
					],
					"internalType": "struct MockSamples.Sample",
					"name": "",
					"type": "tuple"
				}
			],
			"stateMutability": "pure",
			"type": "function"
		},
		{
			"inputs": [
				{
					"components": [
						{
							"internalType": "int256",
							"name": "logPairPrice",
							"type": "int256"
						},
						{
							"internalType": "int256",
							"name": "accLogPairPrice",
							"type": "int256"
						},
						{
							"internalType": "int256",
							"name": "logBptPrice",
							"type": "int256"
						},
						{
							"internalType": "int256",
							"name": "accLogBptPrice",
							"type": "int256"
						},
						{
							"internalType": "int256",
							"name": "logInvariant",
							"type": "int256"
						},
						{
							"internalType": "int256",
							"name": "accLogInvariant",
							"type": "int256"
						},
						{
							"internalType": "uint256",
							"name": "timestamp",
							"type": "uint256"
						}
					],
					"internalType": "struct MockSamples.Sample",
					"name": "sample",
					"type": "tuple"
				}
			],
			"name": "encode",
			"outputs": [
				{
					"internalType": "bytes32",
					"name": "",
					"type": "bytes32"
				}
			],
			"stateMutability": "pure",
			"type": "function"
		},
		{
			"inputs": [
				{
					"internalType": "uint256[]",
					"name": "dates",
					"type": "uint256[]"
				},
				{
					"internalType": "uint256",
					"name": "offset",
					"type": "uint256"
				}
			],
			"name": "findNearestSamplesTimestamp",
			"outputs": [
				{
					"components": [
						{
							"internalType": "uint256",
							"name": "prev",
							"type": "uint256"
						},
						{
							"internalType": "uint256",
							"name": "next",
							"type": "uint256"
						}
					],
					"internalType": "struct MockPoolPriceOracle.BinarySearchResult[]",
					"name": "results",
					"type": "tuple[]"
				}
			],
			"stateMutability": "view",
			"type": "function"
		},
		{
			"inputs": [
				{
					"internalType": "enum IPriceOracle.Variable",
					"name": "variable",
					"type": "uint8"
				},
				{
					"internalType": "uint256",
					"name": "currentIndex",
					"type": "uint256"
				},
				{
					"internalType": "uint256",
					"name": "timestamp",
					"type": "uint256"
				}
			],
			"name": "getPastAccumulator",
			"outputs": [
				{
					"internalType": "int256",
					"name": "",
					"type": "int256"
				}
			],
			"stateMutability": "view",
			"type": "function"
		},
		{
			"inputs": [
				{
					"internalType": "uint256",
					"name": "index",
					"type": "uint256"
				}
			],
			"name": "getSample",
			"outputs": [
				{
					"internalType": "int256",
					"name": "logPairPrice",
					"type": "int256"
				},
				{
					"internalType": "int256",
					"name": "accLogPairPrice",
					"type": "int256"
				},
				{
					"internalType": "int256",
					"name": "logBptPrice",
					"type": "int256"
				},
				{
					"internalType": "int256",
					"name": "accLogBptPrice",
					"type": "int256"
				},
				{
					"internalType": "int256",
					"name": "logInvariant",
					"type": "int256"
				},
				{
					"internalType": "int256",
					"name": "accLogInvariant",
					"type": "int256"
				},
				{
					"internalType": "uint256",
					"name": "timestamp",
					"type": "uint256"
				}
			],
			"stateMutability": "view",
			"type": "function"
		},
		{
			"inputs": [],
			"name": "getTotalSamples",
			"outputs": [
				{
					"internalType": "uint256",
					"name": "",
					"type": "uint256"
				}
			],
			"stateMutability": "pure",
			"type": "function"
		},
		{
			"inputs": [
				{
					"internalType": "uint256",
					"name": "index",
					"type": "uint256"
				},
				{
					"components": [
						{
							"internalType": "int256",
							"name": "logPairPrice",
							"type": "int256"
						},
						{
							"internalType": "int256",
							"name": "accLogPairPrice",
							"type": "int256"
						},
						{
							"internalType": "int256",
							"name": "logBptPrice",
							"type": "int256"
						},
						{
							"internalType": "int256",
							"name": "accLogBptPrice",
							"type": "int256"
						},
						{
							"internalType": "int256",
							"name": "logInvariant",
							"type": "int256"
						},
						{
							"internalType": "int256",
							"name": "accLogInvariant",
							"type": "int256"
						},
						{
							"internalType": "uint256",
							"name": "timestamp",
							"type": "uint256"
						}
					],
					"internalType": "struct MockSamples.Sample",
					"name": "sample",
					"type": "tuple"
				}
			],
			"name": "mockSample",
			"outputs": [],
			"stateMutability": "nonpayable",
			"type": "function"
		},
		{
			"inputs": [
				{
					"internalType": "uint256[]",
					"name": "indexes",
					"type": "uint256[]"
				},
				{
					"components": [
						{
							"internalType": "int256",
							"name": "logPairPrice",
							"type": "int256"
						},
						{
							"internalType": "int256",
							"name": "accLogPairPrice",
							"type": "int256"
						},
						{
							"internalType": "int256",
							"name": "logBptPrice",
							"type": "int256"
						},
						{
							"internalType": "int256",
							"name": "accLogBptPrice",
							"type": "int256"
						},
						{
							"internalType": "int256",
							"name": "logInvariant",
							"type": "int256"
						},
						{
							"internalType": "int256",
							"name": "accLogInvariant",
							"type": "int256"
						},
						{
							"internalType": "uint256",
							"name": "timestamp",
							"type": "uint256"
						}
					],
					"internalType": "struct MockSamples.Sample[]",
					"name": "samples",
					"type": "tuple[]"
				}
			],
			"name": "mockSamples",
			"outputs": [],
			"stateMutability": "nonpayable",
			"type": "function"
		},
		{
			"inputs": [
				{
					"internalType": "uint256",
					"name": "elapsed",
					"type": "uint256"
				},
				{
					"internalType": "uint256",
					"name": "currentIndex",
					"type": "uint256"
				},
				{
					"internalType": "int256",
					"name": "logPairPrice",
					"type": "int256"
				},
				{
					"internalType": "int256",
					"name": "logBptPrice",
					"type": "int256"
				},
				{
					"internalType": "int256",
					"name": "logInvariant",
					"type": "int256"
				}
			],
			"name": "processPriceData",
			"outputs": [],
			"stateMutability": "nonpayable",
			"type": "function"
		},
		{
			"inputs": [
				{
					"internalType": "bytes32",
					"name": "sample",
					"type": "bytes32"
				},
				{
					"internalType": "int256",
					"name": "logPairPrice",
					"type": "int256"
				},
				{
					"internalType": "int256",
					"name": "logBptPrice",
					"type": "int256"
				},
				{
					"internalType": "int256",
					"name": "logInvariant",
					"type": "int256"
				},
				{
					"internalType": "uint256",
					"name": "timestamp",
					"type": "uint256"
				}
			],
			"name": "update",
			"outputs": [
				{
					"components": [
						{
							"internalType": "int256",
							"name": "logPairPrice",
							"type": "int256"
						},
						{
							"internalType": "int256",
							"name": "accLogPairPrice",
							"type": "int256"
						},
						{
							"internalType": "int256",
							"name": "logBptPrice",
							"type": "int256"
						},
						{
							"internalType": "int256",
							"name": "accLogBptPrice",
							"type": "int256"
						},
						{
							"internalType": "int256",
							"name": "logInvariant",
							"type": "int256"
						},
						{
							"internalType": "int256",
							"name": "accLogInvariant",
							"type": "int256"
						},
						{
							"internalType": "uint256",
							"name": "timestamp",
							"type": "uint256"
						}
					],
					"internalType": "struct MockSamples.Sample",
					"name": "",
					"type": "tuple"
				}
			],
			"stateMutability": "pure",
			"type": "function"
		}
	]
}