{
	"data": {
		"bytecode": {
			"linkReferences": {},
			"object": "6102e06040527f6e71edae12b1b97f4d1f60370fef10105fa2faae0126114a169c64845d6126c9610120523480156200003757600080fd5b5060405162005cd338038062005cd38339810160408190526200005a9162000d5c565b89898989898989898989898989898a516001600160401b03811180156200008057600080fd5b50604051908082528060200260200182016040528015620000ab578160200160208202803683370190505b5089898989888651600214620000c3576001620000c6565b60025b8989898989898989828289898180604051806040016040528060018152602001603160f81b815250848489336001600160a01b031660001b806080818152505050806001600160a01b031660a0816001600160a01b031660601b815250505081600390805190602001906200013d92919062000b14565b5080516200015390600490602084019062000b14565b50506005805460ff1916601217905550815160209283012060c052805191012060e05250507f8b73c3c69bb8fe3d512ecc4cf759cc79239f7b179b0ffacaa9a75d522b39400f6101005250620001b26276a70083111561019462000525565b620001c662278d0082111561019562000525565b4290910161014081905201610160528551620001e8906002111560c862000525565b62000202620001f66200053a565b8751111560c962000525565b62000218866200053f60201b62000ddc1760201c565b62000223846200054b565b6040516309b2760f60e01b81526000906001600160a01b038c16906309b2760f9062000254908d9060040162000f71565b602060405180830381600087803b1580156200026f57600080fd5b505af115801562000284573d6000803e3d6000fd5b505050506040513d601f19601f82011682018060405250810190620002aa919062000d43565b604051633354e3e960e11b81529091506001600160a01b038c16906366a9c7d290620002df9084908b908b9060040162000ed5565b600060405180830381600087803b158015620002fa57600080fd5b505af11580156200030f573d6000803e3d6000fd5b505050508a6001600160a01b0316610180816001600160a01b031660601b81525050806101a0818152505050505050505050505050505050505050505050506001600a8190555060008751905062000374818851620005d760201b62000de61760201c565b6101c0819052875188906000906200038857fe5b60200260200101516001600160a01b03166101e0816001600160a01b031660601b8152505087600181518110620003bb57fe5b60200260200101516001600160a01b0316610200816001600160a01b031660601b8152505060028111620003f157600062000408565b87600281518110620003ff57fe5b60200260200101515b60601b6001600160601b03191661022052600381116200042a57600062000441565b876003815181106200043857fe5b60200260200101515b6001600160a01b0316610240816001600160a01b031660601b8152505062000484886000815181106200047057fe5b6020026020010151620005e660201b60201c565b6102605287516200049d90899060019081106200047057fe5b6102805260028111620004b2576000620004c4565b620004c4886002815181106200047057fe5b6102a05260038111620004d9576000620004eb565b620004eb886003815181106200047057fe5b6102c05242620004fe81808a8062000692565b620005098362000820565b5050505050505050505050505050505050505050505062001038565b816200053657620005368162000874565b5050565b600490565b806200053681620008c7565b6200056064e8d4a5100082101560cb62000525565b6200057867016345785d8a000082111560ca62000525565b620005978160c06008546200095460201b62000df3179092919060201c565b6008556040517fa9ba3ffe0b6c366b81232caab38605a0699ad5398d6cce76f91ee809e322dafc90620005cc90839062000f86565b60405180910390a150565b62000536828214606762000525565b600080826001600160a01b031663313ce5676040518163ffffffff1660e01b815260040160206040518083038186803b1580156200062357600080fd5b505afa15801562000638573d6000803e3d6000fd5b505050506040513d601f19601f820116820180604052508101906200065e919062000e6b565b60ff16905060006200067d6012836200096960201b62000e081760201c565b600a0a670de0b6b3a764000002949350505050565b600b546000805b835181101562000783576000848281518110620006b257fe5b60200260200101519050620006da662386f26fc1000082101561012e6200052560201b60201c565b6200075b620006f4826200098660201b62000e1e1760201c565b8360100260800162000746620007298a87815181106200071057fe5b6020026020010151620009c760201b62000e3e1760201c565b86601f0260040189620009f460201b62000e5a179092919060201c565b62000a0660201b62000e6c179092919060201c565b935062000777818462000a1660201b62000e7c1790919060201c565b92505060010162000699565b506200079c670de0b6b3a7640000821461013462000525565b620007d58560e0620007c08960c08762000a3160201b62000e8e179092919060201c565b62000a3160201b62000e8e179092919060201c565b600b556040517f0f3631f9dab08169d1db21c6dc5f32536fb2b0a6b9bb5330d71c52132f968be0906200081090889088908890889062000f8f565b60405180910390a1505050505050565b6200083f816000600b5462000a4360201b62000ea0179092919060201c565b600b556040517f5a9e84f78f7957cb4ed7478eb0fcad35ee4ecbe2e0f298420b28a3955392573f90620005cc90839062000eca565b62461bcd60e51b6000908152602060045260076024526642414c23000030600a808404818106603090810160081b95839006959095019082900491820690940160101b939093010160c81b604452606490fd5b600281511015620008d85762000951565b600081600081518110620008e857fe5b602002602001015190506000600190505b82518110156200094e5760008382815181106200091257fe5b6020026020010151905062000943816001600160a01b0316846001600160a01b03161060656200052560201b60201c565b9150600101620008f9565b50505b50565b6001600160401b03811b1992909216911b1790565b60006200097b83831115600162000525565b508082035b92915050565b600062000980670de0b6b3a7640000620009b361ffff80168562000a6c60201b62000ec71790919060201c565b62000ac160201b62000f151790919060201c565b600062000980670de0b6b3a7640000620009b3637fffffff8562000a6c60201b62000ec71790919060201c565b637fffffff811b1992909216911b1790565b61ffff811b1992909216911b1790565b600082820162000a2a848210158362000525565b9392505050565b63ffffffff811b1992909216911b1790565b60006001821b198416828462000a5b57600062000a5e565b60015b60ff16901b17949350505050565b600082820262000a9484158062000a8c57508385838162000a8957fe5b04145b600362000525565b8062000aa557600091505062000980565b670de0b6b3a764000060001982015b0460010191505062000980565b600062000ad2821515600462000525565b8262000ae15750600062000980565b670de0b6b3a76400008381029062000b079085838162000afd57fe5b0414600562000525565b82600182038162000ab457fe5b828054600181600116156101000203166002900490600052602060002090601f016020900481019282601f1062000b5757805160ff191683800117855562000b87565b8280016001018555821562000b87579182015b8281111562000b8757825182559160200191906001019062000b6a565b5062000b9592915062000b99565b5090565b5b8082111562000b95576000815560010162000b9a565b8051620009808162001022565b600082601f83011262000bce578081fd5b815162000be562000bdf8262000ff6565b62000fcf565b81815291506020808301908481018184028601820187101562000c0757600080fd5b60005b8481101562000c3357815162000c208162001022565b8452928201929082019060010162000c0a565b505050505092915050565b600082601f83011262000c4f578081fd5b815162000c6062000bdf8262000ff6565b81815291506020808301908481018184028601820187101562000c8257600080fd5b60005b8481101562000c335781518452928201929082019060010162000c85565b805180151581146200098057600080fd5b600082601f83011262000cc5578081fd5b81516001600160401b0381111562000cdb578182fd5b602062000cf1601f8301601f1916820162000fcf565b9250818352848183860101111562000d0857600080fd5b60005b8281101562000d2857848101820151848201830152810162000d0b565b8281111562000d3a5760008284860101525b50505092915050565b60006020828403121562000d55578081fd5b5051919050565b6000806000806000806000806000806101408b8d03121562000d7c578586fd5b62000d888c8c62000bb0565b60208c0151909a506001600160401b038082111562000da5578788fd5b62000db38e838f0162000cb4565b9a5060408d015191508082111562000dc9578788fd5b62000dd78e838f0162000cb4565b995060608d015191508082111562000ded578788fd5b62000dfb8e838f0162000bbd565b985060808d015191508082111562000e11578788fd5b5062000e208d828e0162000c3e565b96505060a08b0151945060c08b0151935060e08b0151925062000e488c6101008d0162000bb0565b915062000e5a8c6101208d0162000ca3565b90509295989b9194979a5092959850565b60006020828403121562000e7d578081fd5b815160ff8116811462000a2a578182fd5b6000815180845260208085019450808401835b8381101562000ebf5781518752958201959082019060010162000ea1565b509495945050505050565b901515815260200190565b60006060820185835260206060818501528186518084526080860191508288019350845b8181101562000f215762000f0e855162001016565b8352938301939183019160010162000ef9565b505084810360408601528551808252908201925081860190845b8181101562000f635762000f50835162001016565b8552938301939183019160010162000f3b565b509298975050505050505050565b602081016003831062000f8057fe5b91905290565b90815260200190565b60008582528460208301526080604083015262000fb0608083018562000e8e565b828103606084015262000fc4818562000e8e565b979650505050505050565b6040518181016001600160401b038111828210171562000fee57600080fd5b604052919050565b60006001600160401b038211156200100c578081fd5b5060209081020190565b6001600160a01b031690565b6001600160a01b03811681146200095157600080fd5b60805160a05160601c60c05160e051610100516101205161014051610160516101805160601c6101a0516101c0516101e05160601c6102005160601c6102205160601c6102405160601c61026051610280516102a0516102c051614b956200113e6000398061120b5280611d845250806111c85280611d235250806111855280611cc25250806111345280611c61525080611d495280612ca0525080611ce85280612c5e525080611c875280612c1c525080611c265280612bda52508061146f52508061067a5250806109985250806110b7525080611093525080610c5752508061133b52508061137d52508061135c5250806109745250806108fe5250614b956000f3fe608060405234801561001057600080fd5b50600436106102325760003560e01c806374f3b009116101305780639d2c110c116100b8578063d505accf1161007c578063d505accf14610482578063d5c096c414610495578063dd62ed3e146104a8578063e01af92c146104bb578063f89f27ed146104ce57610232565b80639d2c110c14610439578063a457c2d71461044c578063a9059cbb1461045f578063aaabadc514610472578063c0ff1a151461047a57610232565b806387ec6817116100ff57806387ec6817146103f9578063893d20e81461040c5780638d928af81461042157806395d89b41146104295780639b02cdde1461043157610232565b806374f3b0091461039b5780637beed220146103bc5780637ecebe00146103d3578063851c1bb3146103e657610232565b806338e9922e116101be57806350dd6ed91161018257806350dd6ed91461034457806355c67628146103575780636028bfd41461035f578063679aefce1461038057806370a082311461038857610232565b806338e9922e146102fb57806338fff2d01461030e57806339509351146103165780633e5692051461032957806347bc4d921461033c57610232565b80631c0de051116102055780631c0de0511461029f5780631dd746ea146102b657806323b872dd146102cb578063313ce567146102de5780633644e515146102f357610232565b806306fdde0314610237578063095ea7b31461025557806316c38b3c1461027557806318160ddd1461028a575b600080fd5b61023f6104d6565b60405161024c9190614a60565b60405180910390f35b610268610263366004614349565b61056d565b60405161024c9190614967565b61028861028336600461443f565b610584565b005b610292610598565b60405161024c919061498a565b6102a761059e565b60405161024c93929190614972565b6102be6105c7565b60405161024c919061492f565b6102686102d9366004614294565b6105d6565b6102e661064c565b60405161024c9190614adc565b610292610655565b6102886103093660046147ae565b61065f565b610292610678565b610268610324366004614349565b61069c565b6102886103373660046147c6565b6106d7565b61026861073e565b61028861035236600461455d565b61074e565b61029261076c565b61037261036d366004614477565b61077d565b60405161024c929190614a73565b6102926107b4565b610292610396366004614240565b6107df565b6103ae6103a9366004614477565b6107fe565b60405161024c929190614942565b6103c4610821565b60405161024c93929190614a8c565b6102926103e1366004614240565b6108df565b6102926103f4366004614519565b6108fa565b610372610407366004614477565b61094c565b610414610972565b60405161024c919061491b565b610414610996565b61023f6109ba565b610292610a1b565b6102926104473660046146b3565b610a21565b61026861045a366004614349565b610b08565b61026861046d366004614349565b610b46565b610414610b53565b610292610b5d565b6102886104903660046142d4565b610c22565b6103ae6104a3366004614477565b610d6b565b6102926104b636600461425c565b610d7e565b6102886104c936600461443f565b610da9565b6102be610dd2565b60038054604080516020601f60026000196101006001881615020190951694909404938401819004810282018101909252828152606093909290918301828280156105625780601f1061053757610100808354040283529160200191610562565b820191906000526020600020905b81548152906001019060200180831161054557829003601f168201915b505050505090505b90565b600061057a338484610f60565b5060015b92915050565b61058c610fc8565b61059581610ff6565b50565b60025490565b60008060006105ab611074565b1592506105b6611091565b91506105c06110b5565b9050909192565b60606105d16110d9565b905090565b6000806105e38533610d7e565b9050610607336001600160a01b03871614806105ff5750838210155b61019e611249565b610612858585611257565b336001600160a01b0386161480159061062d57506000198114155b1561063f5761063f8533858403610f60565b60019150505b9392505050565b60055460ff1690565b60006105d1611337565b610667610fc8565b61066f6113d4565b610595816113e9565b7f000000000000000000000000000000000000000000000000000000000000000090565b3360008181526001602090815260408083206001600160a01b0387168452909152812054909161057a9185906106d29086610e7c565b610f60565b6106df610fc8565b6106e76113d4565b6106ef611454565b6107016106fa61146d565b8251610de6565b4261070c8185611491565b935061071d83851115610146611249565b610730848461072a6114a8565b856115bb565b506107396116d0565b505050565b600b546000906105d190826116d7565b610756610fc8565b61075e6113d4565b61076882826116e1565b5050565b6008546000906105d19060c06117e0565b60006060610793865161078e61146d565b610de6565b6107a8898989898989896117ed6118bc61191d565b97509795505050505050565b60006105d16107c1610598565b6107d96107cc610b5d565b6107d461146d565b611a40565b90611a5a565b6001600160a01b0381166000908152602081905260409020545b919050565b6060806108118989898989600089611aa2565b9150915097509795505050505050565b600b5460009081906060906108378160c0611b45565b93506108448160e0611b45565b9250600061085061146d565b9050806001600160401b038111801561086857600080fd5b50604051908082528060200260200182016040528015610892578160200160208202803683370190505b50925060005b818110156108d7576108b86108b38460806010850201611b4f565b611b57565b8482815181106108c457fe5b6020908102919091010152600101610898565b505050909192565b6001600160a01b031660009081526006602052604090205490565b60007f00000000000000000000000000000000000000000000000000000000000000008260405160200161092f9291906148d8565b604051602081830303815290604052805190602001209050919050565b6000606061095d865161078e61146d565b6107a889898989898989611b71611bc161191d565b7f000000000000000000000000000000000000000000000000000000000000000090565b7f000000000000000000000000000000000000000000000000000000000000000090565b60048054604080516020601f60026000196101006001881615020190951694909404938401819004810282018101909252828152606093909290918301828280156105625780601f1061053757610100808354040283529160200191610562565b60095490565b600080610a318560200151611c22565b90506000610a428660400151611c22565b9050600086516001811115610a5357fe5b1415610ab957610a668660600151611db3565b6060870152610a758583611dd4565b9450610a818482611dd4565b9350610a91866060015183611dd4565b60608701526000610aa3878787611de0565b9050610aaf8183611e08565b9350505050610645565b610ac38583611dd4565b9450610acf8482611dd4565b9350610adf866060015182611dd4565b60608701526000610af1878787611e14565b9050610afd8184611e2c565b9050610aaf81611e38565b600080610b153385610d7e565b9050808310610b2f57610b2a33856000610f60565b610b3c565b610b3c3385858403610f60565b5060019392505050565b600061057a338484611257565b60006105d1611e5e565b60006060610b69610996565b6001600160a01b031663f94d4668610b7f610678565b6040518263ffffffff1660e01b8152600401610b9b919061498a565b60006040518083038186803b158015610bb357600080fd5b505afa158015610bc7573d6000803e3d6000fd5b505050506040513d6000823e601f3d908101601f19168201604052610bef9190810190614374565b50915050610c0481610bff6110d9565b611ed8565b6060610c0e611f39565b509050610c1b8183611fb7565b9250505090565b610c308442111560d1611249565b6001600160a01b0387166000908152600660209081526040808320549051909291610c87917f0000000000000000000000000000000000000000000000000000000000000000918c918c918c9188918d91016149b2565b6040516020818303038152906040528051906020012090506000610caa82612029565b9050600060018288888860405160008152602001604052604051610cd19493929190614a42565b6020604051602081039080840390855afa158015610cf3573d6000803e3d6000fd5b5050604051601f1901519150610d3590506001600160a01b03821615801590610d2d57508b6001600160a01b0316826001600160a01b0316145b6101f8611249565b6001600160a01b038b166000908152600660205260409020600185019055610d5e8b8b8b610f60565b5050505050505050505050565b6060806108118989898989600089612045565b6001600160a01b03918216600090815260016020908152604080832093909416825291909152205490565b610db1610fc8565b610db96113d4565b610dc1611454565b610dca81612169565b6105956116d0565b60606105d16114a8565b80610768816121ab565b6107688183146067611249565b6001600160401b03811b1992909216911b1790565b6000610e18838311156001611249565b50900390565b600061057e670de0b6b3a7640000610e388461ffff610ec7565b90610f15565b600061057e670de0b6b3a7640000610e3884637fffffff610ec7565b637fffffff811b1992909216911b1790565b61ffff811b1992909216911b1790565b60008282016106458482101583611249565b63ffffffff811b1992909216911b1790565b60006001821b1984168284610eb6576000610eb9565b60015b60ff16901b17949350505050565b6000828202610eeb841580610ee4575083858381610ee157fe5b04145b6003611249565b80610efa57600091505061057e565b670de0b6b3a764000060001982015b0460010191505061057e565b6000610f248215156004611249565b82610f315750600061057e565b670de0b6b3a764000083810290610f5490858381610f4b57fe5b04146005611249565b826001820381610f0957fe5b6001600160a01b0380841660008181526001602090815260408083209487168084529490915290819020849055517f8c5be1e5ebec7d5bd14f71427d1e84f3dd0314c0f7b2291e5b200ac8c7c3b92590610fbb90859061498a565b60405180910390a3505050565b6000610fdf6000356001600160e01b0319166108fa565b9050610595610fee8233612224565b610191611249565b801561101657611011611007611091565b4210610193611249565b61102b565b61102b6110216110b5565b42106101a9611249565b6007805460ff19168215151790556040517f9e3a5e37224532dea67b89face185703738a228a6e8a23dee546960180d3be6490611069908390614967565b60405180910390a150565b600061107e6110b5565b4211806105d157505060075460ff161590565b7f000000000000000000000000000000000000000000000000000000000000000090565b7f000000000000000000000000000000000000000000000000000000000000000090565b606060006110e561146d565b90506060816001600160401b03811180156110ff57600080fd5b50604051908082528060200260200182016040528015611129578160200160208202803683370190505b5090508115611171577f00000000000000000000000000000000000000000000000000000000000000008160008151811061116057fe5b60200260200101818152505061117a565b915061056a9050565b6001821115611171577f0000000000000000000000000000000000000000000000000000000000000000816001815181106111b157fe5b6020026020010181815250506002821115611171577f0000000000000000000000000000000000000000000000000000000000000000816002815181106111f457fe5b6020026020010181815250506003821115611171577f00000000000000000000000000000000000000000000000000000000000000008160038151811061123757fe5b60200260200101818152505091505090565b816107685761076881612314565b61126e6001600160a01b0384161515610198611249565b6112856001600160a01b0383161515610199611249565b611290838383610739565b6001600160a01b0383166000908152602081905260409020546112b690826101a0612367565b6001600160a01b0380851660009081526020819052604080822093909355908416815220546112e59082610e7c565b6001600160a01b0380841660008181526020819052604090819020939093559151908516907fddf252ad1be2c89b69c2b068fc378daa952ba7f163c4a11628f55a4df523b3ef90610fbb90859061498a565b60007f00000000000000000000000000000000000000000000000000000000000000007f00000000000000000000000000000000000000000000000000000000000000007f00000000000000000000000000000000000000000000000000000000000000006113a461237d565b306040516020016113b99594939291906149e6565b60405160208183030381529060405280519060200120905090565b6113e76113df611074565b610192611249565b565b6113fc64e8d4a5100082101560cb611249565b61141267016345785d8a000082111560ca611249565b600854611421908260c0610df3565b6008556040517fa9ba3ffe0b6c366b81232caab38605a0699ad5398d6cce76f91ee809e322dafc9061106990839061498a565b6114666002600a541415610190611249565b6002600a55565b7f000000000000000000000000000000000000000000000000000000000000000090565b6000818310156114a15781610645565b5090919050565b606060006114b461146d565b90506060816001600160401b03811180156114ce57600080fd5b506040519080825280602002602001820160405280156114f8578160200160208202803683370190505b50600b5490915061150a600082612381565b8260008151811061151757fe5b60200260200101818152505061152e600182612381565b8260018151811061153b57fe5b602002602001018181525050826002141561155a5750915061056a9050565b611565600282612381565b8260028151811061157257fe5b60200260200101818152505082600314156115915750915061056a9050565b61159c600382612381565b826003815181106115a957fe5b60209081029190910101525091505090565b600b546000805b83518110156116575760008482815181106115d957fe5b602002602001015190506115f9662386f26fc1000082101561012e611249565b61164061160582610e1e565b8360100260800161163961162b8a878151811061161e57fe5b6020026020010151610e3e565b88906004601f890201610e5a565b9190610e6c565b935061164c8382610e7c565b9250506001016115c2565b5061166e670de0b6b3a76400008214610134611249565b6116878560e0611680858a60c0610e8e565b9190610e8e565b600b556040517f0f3631f9dab08169d1db21c6dc5f32536fb2b0a6b9bb5330d71c52132f968be0906116c0908890889088908890614aab565b60405180910390a1505050505050565b6001600a55565b1c60019081161490565b60006116eb610678565b905060006116f7610996565b6001600160a01b031663b05f8e4883866040518363ffffffff1660e01b8152600401611724929190614a2b565b60806040518083038186803b15801561173c57600080fd5b505afa158015611750573d6000803e3d6000fd5b505050506040513d601f19601f820116820180604052508101906117749190614813565b604051630639cdb560e21b81529094506001600160a01b03851693506318e736d492506117a8915085908790600401614a12565b600060405180830381600087803b1580156117c257600080fd5b505af11580156117d6573d6000803e3d6000fd5b5050505050505050565b1c6001600160401b031690565b6000606080606060006117fe611f39565b9150915061180a611074565b1561184257600061181b838c611fb7565b905061182d8b8484600954858e6123d7565b935061183c8b85610e08612485565b5061188d565b61184a61146d565b6001600160401b038111801561185f57600080fd5b50604051908082528060200260200182016040528015611889578160200160208202803683370190505b5092505b6118998a8389896124f0565b90955093506118a98a858461255f565b6009555050985098509895505050505050565b60005b6118c761146d565b811015610739576118fe8382815181106118dd57fe5b60200260200101518383815181106118f157fe5b6020026020010151611a5a565b83828151811061190a57fe5b60209081029190910101526001016118bf565b3330146119db576000306001600160a01b03166000366040516119419291906148f0565b6000604051808303816000865af19150503d806000811461197e576040519150601f19603f3d011682016040523d82523d6000602084013e611983565b606091505b50509050806000811461199257fe5b60046000803e6000516001600160e01b0319166343adbafb60e01b81146119bd573d6000803e3d6000fd5b506020600460003e604060205260243d03602460403e601c3d016000f35b60606119e56110d9565b90506119f18782611ed8565b60006060611a098c8c8c8c8c8c898d8d63ffffffff16565b5091509150611a1c81848663ffffffff16565b8051601f1982018390526343adbafb603f1983015260200260231982016044820181fd5b6000828202610645841580610ee4575083858381610ee157fe5b6000611a698215156004611249565b82611a765750600061057e565b670de0b6b3a764000083810290611a9090858381610f4b57fe5b828181611a9957fe5b0491505061057e565b60608088611acc611ab1610996565b6001600160a01b0316336001600160a01b03161460cd611249565b611ae1611ad7610678565b82146101f4611249565b6060611aeb6110d9565b9050611af78882611ed8565b6000606080611b0c8e8e8e8e8e8e8a8f6117ed565b925092509250611b1c8d84612578565b611b2682856118bc565b611b3081856118bc565b909550935050505b5097509795505050505050565b1c63ffffffff1690565b1c61ffff1690565b600061057e61ffff610e3884670de0b6b3a7640000610ec7565b6000606080611b9d611b81610972565b6001600160a01b03168b6001600160a01b031614610148611249565b611bad8b8b8b8b8b8b8b8b612582565b925092509250985098509895505050505050565b60005b611bcc61146d565b81101561073957611c03838281518110611be257fe5b6020026020010151838381518110611bf657fe5b6020026020010151610f15565b838281518110611c0f57fe5b6020908102919091010152600101611bc4565b60007f00000000000000000000000000000000000000000000000000000000000000006001600160a01b0316826001600160a01b03161415611c8557507f00000000000000000000000000000000000000000000000000000000000000006107f9565b7f00000000000000000000000000000000000000000000000000000000000000006001600160a01b0316826001600160a01b03161415611ce657507f00000000000000000000000000000000000000000000000000000000000000006107f9565b7f00000000000000000000000000000000000000000000000000000000000000006001600160a01b0316826001600160a01b03161415611d4757507f00000000000000000000000000000000000000000000000000000000000000006107f9565b7f00000000000000000000000000000000000000000000000000000000000000006001600160a01b0316826001600160a01b03161415611da857507f00000000000000000000000000000000000000000000000000000000000000006107f9565b6107f9610135612314565b600080611dc8611dc161076c565b8490610ec7565b90506106458382610e08565b60006106458383612608565b6000611df5611ded61073e565b610147611249565b611e00848484612634565b949350505050565b60006106458383611a5a565b6000611e21611ded61073e565b611e00848484612667565b60006106458383610f15565b600061057e611e57611e4861076c565b670de0b6b3a764000090610e08565b8390610f15565b6000611e68610996565b6001600160a01b031663aaabadc56040518163ffffffff1660e01b815260040160206040518083038186803b158015611ea057600080fd5b505afa158015611eb4573d6000803e3d6000fd5b505050506040513d601f19601f820116820180604052508101906105d19190614541565b60005b611ee361146d565b81101561073957611f1a838281518110611ef957fe5b6020026020010151838381518110611f0d57fe5b6020026020010151612608565b838281518110611f2657fe5b6020908102919091010152600101611edb565b60606000611f456114a8565b915060009050600082600081518110611f5a57fe5b602002602001015190506000600190505b8351811015611fb15781848281518110611f8157fe5b60200260200101511115611fa957809250838181518110611f9e57fe5b602002602001015191505b600101611f6b565b50509091565b670de0b6b3a764000060005b83518110156120195761200f612008858381518110611fde57fe5b6020026020010151858481518110611ff257fe5b602002602001015161269a90919063ffffffff16565b8390612608565b9150600101611fc3565b5061057e60008211610137611249565b6000612033611337565b8260405160200161092f929190614900565b60608088612054611ab1610996565b61205f611ad7610678565b60606120696110d9565b9050612073610598565b61211957600060606120888d8d8d868b6126e9565b9150915061209d620f424083101560cc611249565b6120ab6000620f424061272f565b6120ba8b620f4240840361272f565b6120c48184611bc1565b806120cd61146d565b6001600160401b03811180156120e257600080fd5b5060405190808252806020026020018201604052801561210c578160200160208202803683370190505b5095509550505050611b38565b6121238882611ed8565b60006060806121388e8e8e8e8e8e8a8f611b71565b9250925092506121488c8461272f565b6121528285611bc1565b61215c81856118bc565b9095509350611b38915050565b600b5461217890826000610ea0565b600b556040517f5a9e84f78f7957cb4ed7478eb0fcad35ee4ecbe2e0f298420b28a3955392573f90611069908390614967565b6002815110156121ba57610595565b6000816000815181106121c957fe5b602002602001015190506000600190505b82518110156107395760008382815181106121f157fe5b6020026020010151905061221a816001600160a01b0316846001600160a01b0316106065611249565b91506001016121da565b600073ba1ba1ba1ba1ba1ba1ba1ba1ba1ba1ba1ba1ba1b612243610972565b6001600160a01b03161415801561225e575061225e83612739565b156122865761226b610972565b6001600160a01b0316336001600160a01b031614905061057e565b61228e611e5e565b6001600160a01b0316639be2a8848484306040518463ffffffff1660e01b81526004016122bd93929190614993565b60206040518083038186803b1580156122d557600080fd5b505afa1580156122e9573d6000803e3d6000fd5b505050506040513d601f19601f8201168201806040525081019061230d919061445b565b905061057e565b62461bcd60e51b6000908152602060045260076024526642414c23000030600a808404818106603090810160081b95839006959095019082900491820690940160101b939093010160c81b604452606490fd5b60006123768484111583611249565b5050900390565b4690565b60008061239c612397846004601f880201612775565b61277f565b905060006123b36108b38560806010890201611b4f565b905060006123c08561279b565b90506123cd83838361281a565b9695505050505050565b6060806123e261146d565b6001600160401b03811180156123f757600080fd5b50604051908082528060200260200182016040528015612421578160200160208202803683370190505b509050826124305790506123cd565b61246388878151811061243f57fe5b602002602001015188888151811061245357fe5b602002602001015187878761288e565b81878151811061246f57fe5b6020908102919091010152979650505050505050565b60005b61249061146d565b8110156124ea576124cb8482815181106124a657fe5b60200260200101518483815181106124ba57fe5b60200260200101518463ffffffff16565b8482815181106124d757fe5b6020908102919091010152600101612488565b50505050565b6000606060006124ff84612916565b9050600081600281111561250f57fe5b141561252a5761252087878661292c565b9250925050612556565b600181600281111561253857fe5b1415612548576125208785612a0e565b61252087878787612a40565b505b94509492505050565b600061256e8484610e08612485565b611e008285611fb7565b6107688282612aaf565b600060608061258f6113d4565b6060600061259b611f39565b9150915060006125ab838c611fb7565b905060606125bf8c8585600954868f6123d7565b90506125ce8c82610e08612485565b600060606125de8e878d8d612b6b565b915091506125ed8e8288612bc6565b60095590975095509350505050985098509895505050505050565b6000828202612622841580610ee4575083858381610ee157fe5b670de0b6b3a764000090049392505050565b600061263e6113d4565b611e008361264f8660200151612bd5565b8461265d8860400151612bd5565b8860600151612cf7565b60006126716113d4565b611e00836126828660200151612bd5565b846126908860400151612bd5565b8860600151612d64565b6000806126a78484612dda565b905060006126c16126ba83612710610ec7565b6001610e7c565b9050808210156126d65760009250505061057e565b6126e08282610e08565b9250505061057e565b600060606127146126f8610972565b6001600160a01b0316876001600160a01b031614610148611249565b6127218787878787612edb565b915091509550959350505050565b6107688282612f6f565b600061274b633806be4b60e21b6108fa565b8214806127665750612763633e56920560e01b6108fa565b82145b8061057e575061057e82612ffd565b1c637fffffff1690565b600061057e637fffffff610e3884670de0b6b3a7640000610ec7565b600042816127aa8460c0611b45565b905060006127b98560e0611b45565b9050808311156127d657670de0b6b3a764000093505050506107f9565b818310156127ea57600093505050506107f9565b8181038284038115612805576128008183611a5a565b61280f565b670de0b6b3a76400005b979650505050505050565b600081158061282857508284145b15612834575082610645565b670de0b6b3a7640000821061284a575081610645565b8284111561287457600061286083858703612608565b905061286c8582610e08565b915050610645565b600061288283868603612608565b905061286c8582610e7c565b600083831161289f5750600061290d565b60006128ab8585610f15565b905060006128c1670de0b6b3a764000088611a5a565b90506128d5826709b6e64a8ec60000611491565b915060006128e3838361302f565b905060006128fa6128f38361305b565b8b90612608565b90506129068187612608565b9450505050505b95945050505050565b60008180602001905181019061057e91906145aa565b600060606129386113d4565b60008061294485613081565b9150915061295c61295361146d565b82106064611249565b606061296661146d565b6001600160401b038111801561297b57600080fd5b506040519080825280602002602001820160405280156129a5578160200160208202803683370190505b5090506129e98883815181106129b757fe5b60200260200101518884815181106129cb57fe5b6020026020010151856129dc610598565b6129e461076c565b6130a3565b8183815181106129f557fe5b6020908102919091010152919791965090945050505050565b600060606000612a1d84613163565b90506060612a338683612a2e610598565b613179565b9196919550909350505050565b60006060612a4c6113d4565b60606000612a598561322a565b91509150612a6a825161078e61146d565b612a748287611ed8565b6000612a91898985612a84610598565b612a8c61076c565b613242565b9050612aa18282111560cf611249565b989197509095505050505050565b612ac66001600160a01b038316151561019b611249565b612ad282600083610739565b6001600160a01b038216600090815260208190526040902054612af890826101a1612367565b6001600160a01b038316600090815260208190526040902055600254612b1e908261346f565b6002556040516000906001600160a01b038416907fddf252ad1be2c89b69c2b068fc378daa952ba7f163c4a11628f55a4df523b3ef90612b5f90859061498a565b60405180910390a35050565b600060606000612b7a84612916565b90506001816002811115612b8a57fe5b1415612b9c576125208787878761347d565b6002816002811115612baa57fe5b1415612bbb576125208787866134da565b612554610136612314565b600061256e8484610e7c612485565b6000807f00000000000000000000000000000000000000000000000000000000000000006001600160a01b0316836001600160a01b03161415612c1a57506000612ceb565b7f00000000000000000000000000000000000000000000000000000000000000006001600160a01b0316836001600160a01b03161415612c5c57506001612ceb565b7f00000000000000000000000000000000000000000000000000000000000000006001600160a01b0316836001600160a01b03161415612c9e57506002612ceb565b7f00000000000000000000000000000000000000000000000000000000000000006001600160a01b0316836001600160a01b03161415612ce057506003612ceb565b612ceb610135612314565b61064581600b54612381565b6000612d19612d0e87670429d069189e0000612608565b831115610130611249565b6000612d258784610e7c565b90506000612d338883610f15565b90506000612d418887611a5a565b90506000612d4f838361302f565b9050612906612d5d8261305b565b8990612608565b6000612d86612d7b85670429d069189e0000612608565b831115610131611249565b6000612d9c612d958685610e08565b8690610f15565b90506000612daa8588610f15565b90506000612db8838361302f565b90506000612dce82670de0b6b3a7640000610e08565b90506129068a82610ec7565b600081612df05750670de0b6b3a764000061057e565b82612dfd5750600061057e565b612e0e600160ff1b84106006611249565b82612e34770bce5086492111aea88f4bb1ca6bcf584181ea8059f7653284106007611249565b826000670c7d713b49da000083138015612e555750670f43fc2c04ee000083125b15612e8c576000612e6584613586565b9050670de0b6b3a764000080820784020583670de0b6b3a764000083050201915050612e9a565b81612e96846136a4565b0290505b670de0b6b3a76400009005612ed2680238fd42c5cf03ffff198212801590612ecb575068070c1cc73b00c800008213155b6008611249565b6123cd81613a43565b60006060612ee76113d4565b6000612ef284612916565b9050612f0d6000826002811115612f0557fe5b1460ce611249565b6060612f1885613e20565b9050612f256106fa61146d565b612f2f8187611ed8565b6060612f39611f39565b5090506000612f488284611fb7565b90506000612f58826107d461146d565b600992909255509a91995090975050505050505050565b612f7b60008383610739565b600254612f889082610e7c565b6002556001600160a01b038216600090815260208190526040902054612fae9082610e7c565b6001600160a01b0383166000818152602081905260408082209390935591519091907fddf252ad1be2c89b69c2b068fc378daa952ba7f163c4a11628f55a4df523b3ef90612b5f90859061498a565b600061300f631c74c91760e11b6108fa565b82148061057e57506130276350dd6ed960e01b6108fa565b909114919050565b60008061303c8484612dda565b9050600061304f6126ba83612710610ec7565b905061290d8282610e7c565b6000670de0b6b3a7640000821061307357600061057e565b50670de0b6b3a76400000390565b600080828060200190518101906130989190614639565b909590945092505050565b6000806130b484610e388188610e08565b90506130cd6709b6e64a8ec60000821015610132611249565b60006130eb6130e4670de0b6b3a764000089611a5a565b839061302f565b905060006131026130fb8361305b565b8a90612608565b9050600061310f8961305b565b9050600061311d8383610ec7565b9050600061312b8483610e08565b905061315361314c613145670de0b6b3a76400008b610e08565b8490612608565b8290610e7c565b9c9b505050505050505050505050565b600081806020019051810190610645919061460c565b606060006131878484611a5a565b9050606085516001600160401b03811180156131a257600080fd5b506040519080825280602002602001820160405280156131cc578160200160208202803683370190505b50905060005b865181101561322057613201838883815181106131eb57fe5b602002602001015161260890919063ffffffff16565b82828151811061320d57fe5b60209081029190910101526001016131d2565b5095945050505050565b606060008280602001905181019061309891906145c6565b6000606084516001600160401b038111801561325d57600080fd5b50604051908082528060200260200182016040528015613287578160200160208202803683370190505b5090506000805b885181101561334c576132e78982815181106132a657fe5b6020026020010151610e388984815181106132bd57fe5b60200260200101518c85815181106132d157fe5b6020026020010151610e0890919063ffffffff16565b8382815181106132f357fe5b60200260200101818152505061334261333b89838151811061331157fe5b602002602001015185848151811061332557fe5b6020026020010151610ec790919063ffffffff16565b8390610e7c565b915060010161328e565b50670de0b6b3a764000060005b895181101561344e57600084828151811061337057fe5b60200260200101518411156133d057600061339961338d8661305b565b8d85815181106131eb57fe5b905060006133ad828c86815181106132d157fe5b90506133c761333b611e57670de0b6b3a76400008c610e08565b925050506133e7565b8882815181106133dc57fe5b602002602001015190505b60006134108c84815181106133f857fe5b60200260200101516107d9848f87815181106132d157fe5b905061344261343b8c858151811061342457fe5b60200260200101518361269a90919063ffffffff16565b8590612608565b93505050600101613359565b5061346261345b8261305b565b8790610ec7565b9998505050505050505050565b600061064583836001612367565b6000606080600061348d8561322a565b915091506134a361349c61146d565b8351610de6565b6134ad8287611ed8565b60006134ca8989856134bd610598565b6134c561076c565b613e36565b9050612aa18282101560d0611249565b600060606000806134ea85613081565b915091506134f961295361146d565b606061350361146d565b6001600160401b038111801561351857600080fd5b50604051908082528060200260200182016040528015613542578160200160208202803683370190505b5090506129e988838151811061355457fe5b602002602001015188848151811061356857fe5b602002602001015185613579610598565b61358161076c565b614047565b670de0b6b3a7640000026000806a0c097ce7bc90715b34b9f160241b808401906ec097ce7bc90715b34b9f0fffffffff19850102816135c157fe5b05905060006a0c097ce7bc90715b34b9f160241b82800205905081806a0c097ce7bc90715b34b9f160241b81840205915060038205016a0c097ce7bc90715b34b9f160241b82840205915060058205016a0c097ce7bc90715b34b9f160241b82840205915060078205016a0c097ce7bc90715b34b9f160241b82840205915060098205016a0c097ce7bc90715b34b9f160241b828402059150600b8205016a0c097ce7bc90715b34b9f160241b828402059150600d8205016a0c097ce7bc90715b34b9f160241b828402059150600f826002919005919091010295945050505050565b6000670de0b6b3a76400008212156136e0576136d6826a0c097ce7bc90715b34b9f160241b816136d057fe5b056136a4565b60000390506107f9565b60007e1600ef3172e58d2e933ec884fde10064c63b5372d805e203c0000000000000831261373157770195e54c5dd42177f53a27172fa9ec630262827000000000830592506806f05b59d3b2000000015b73011798004d755d3c8bc8e03204cf44619e0000008312613769576b1425982cf597cd205cef7380830592506803782dace9d9000000015b606492830292026e01855144814a7ff805980ff008400083126137b1576e01855144814a7ff805980ff008400068056bc75e2d63100000840205925068ad78ebc5ac62000000015b6b02df0ab5a80a22c61ab5a70083126137ec576b02df0ab5a80a22c61ab5a70068056bc75e2d6310000084020592506856bc75e2d631000000015b693f1fce3da636ea5cf850831261382357693f1fce3da636ea5cf85068056bc75e2d631000008402059250682b5e3af16b18800000015b690127fa27722cc06cc5e2831261385a57690127fa27722cc06cc5e268056bc75e2d6310000084020592506815af1d78b58c400000015b68280e60114edb805d03831261388f5768280e60114edb805d0368056bc75e2d631000008402059250680ad78ebc5ac6200000015b680ebc5fb4174612111083126138ba57680ebc5fb4174612111068056bc75e2d631000009384020592015b6808f00f760a4b2db55d83126138ef576808f00f760a4b2db55d68056bc75e2d6310000084020592506802b5e3af16b1880000015b6806f5f17757889379378312613924576806f5f177578893793768056bc75e2d63100000840205925068015af1d78b58c40000015b6806248f33704b2866038312613958576806248f33704b28660368056bc75e2d63100000840205925067ad78ebc5ac620000015b6805c548670b9510e7ac831261398c576805c548670b9510e7ac68056bc75e2d6310000084020592506756bc75e2d6310000015b600068056bc75e2d63100000840168056bc75e2d6310000080860302816139af57fe5b059050600068056bc75e2d63100000828002059050818068056bc75e2d63100000818402059150600382050168056bc75e2d63100000828402059150600582050168056bc75e2d63100000828402059150600782050168056bc75e2d63100000828402059150600982050168056bc75e2d63100000828402059150600b820501600202606485820105979650505050505050565b6000613a72680238fd42c5cf03ffff198312158015613a6b575068070c1cc73b00c800008313155b6009611249565b6000821215613aa557613a8782600003613a43565b6a0c097ce7bc90715b34b9f160241b81613a9d57fe5b0590506107f9565b60006806f05b59d3b20000008312613ae557506806f05b59d3b1ffffff1990910190770195e54c5dd42177f53a27172fa9ec630262827000000000613b1b565b6803782dace9d90000008312613b1757506803782dace9d8ffffff19909101906b1425982cf597cd205cef7380613b1b565b5060015b6064929092029168056bc75e2d6310000068ad78ebc5ac620000008412613b6b5768ad78ebc5ac61ffffff199093019268056bc75e2d631000006e01855144814a7ff805980ff008400082020590505b6856bc75e2d6310000008412613ba7576856bc75e2d630ffffff199093019268056bc75e2d631000006b02df0ab5a80a22c61ab5a70082020590505b682b5e3af16b188000008412613be157682b5e3af16b187fffff199093019268056bc75e2d63100000693f1fce3da636ea5cf85082020590505b6815af1d78b58c4000008412613c1b576815af1d78b58c3fffff199093019268056bc75e2d63100000690127fa27722cc06cc5e282020590505b680ad78ebc5ac62000008412613c5457680ad78ebc5ac61fffff199093019268056bc75e2d6310000068280e60114edb805d0382020590505b68056bc75e2d631000008412613c8d5768056bc75e2d630fffff199093019268056bc75e2d63100000680ebc5fb4174612111082020590505b6802b5e3af16b18800008412613cc6576802b5e3af16b187ffff199093019268056bc75e2d631000006808f00f760a4b2db55d82020590505b68015af1d78b58c400008412613cff5768015af1d78b58c3ffff199093019268056bc75e2d631000006806f5f177578893793782020590505b68056bc75e2d631000008481019085906002908280020505918201919050600368056bc75e2d631000008783020505918201919050600468056bc75e2d631000008783020505918201919050600568056bc75e2d631000008783020505918201919050600668056bc75e2d631000008783020505918201919050600768056bc75e2d631000008783020505918201919050600868056bc75e2d631000008783020505918201919050600968056bc75e2d631000008783020505918201919050600a68056bc75e2d631000008783020505918201919050600b68056bc75e2d631000008783020505918201919050600c68056bc75e2d631000008783020505918201919050606468056bc75e2d63100000848402058502059695505050505050565b606081806020019051810190610645919061466f565b6000606084516001600160401b0381118015613e5157600080fd5b50604051908082528060200260200182016040528015613e7b578160200160208202803683370190505b5090506000805b8851811015613f2357613edb898281518110613e9a57fe5b60200260200101516107d9898481518110613eb157fe5b60200260200101518c8581518110613ec557fe5b6020026020010151610e7c90919063ffffffff16565b838281518110613ee757fe5b602002602001018181525050613f1961333b898381518110613f0557fe5b60200260200101518584815181106131eb57fe5b9150600101613e82565b50670de0b6b3a764000060005b895181101561400457600083858381518110613f4857fe5b60200260200101511115613fa4576000613f6d61338d86670de0b6b3a7640000610e08565b90506000613f81828c86815181106132d157fe5b9050613f9b61333b612008670de0b6b3a76400008c610e08565b92505050613fbb565b888281518110613fb057fe5b602002602001015190505b6000613fe48c8481518110613fcc57fe5b60200260200101516107d9848f8781518110613ec557fe5b9050613ff861343b8c858151811061342457fe5b93505050600101613f30565b50670de0b6b3a764000081111561403b5761403161402a82670de0b6b3a7640000610e08565b8790612608565b935050505061290d565b6000935050505061290d565b60008061405884610e388188610e7c565b90506140716729a2241af62c0000821115610133611249565b60006140886130e4670de0b6b3a764000089610f15565b905060006140a86140a183670de0b6b3a7640000610e08565b8a90610ec7565b905060006140b58961305b565b905060006140c38383610ec7565b905060006140d18483610e08565b905061315361314c6140eb670de0b6b3a76400008b610e08565b8490610f15565b803561057e81614b2f565b600082601f83011261410d578081fd5b813561412061411b82614b10565b614aea565b81815291506020808301908481018184028601820187101561414157600080fd5b60005b8481101561416057813584529282019290820190600101614144565b505050505092915050565b600082601f83011261417b578081fd5b815161418961411b82614b10565b8181529150602080830190848101818402860182018710156141aa57600080fd5b60005b84811015614160578151845292820192908201906001016141ad565b600082601f8301126141d9578081fd5b81356001600160401b038111156141ee578182fd5b614201601f8201601f1916602001614aea565b915080825283602082850101111561421857600080fd5b8060208401602084013760009082016020015292915050565b80356002811061057e57600080fd5b600060208284031215614251578081fd5b813561064581614b2f565b6000806040838503121561426e578081fd5b823561427981614b2f565b9150602083013561428981614b2f565b809150509250929050565b6000806000606084860312156142a8578081fd5b83356142b381614b2f565b925060208401356142c381614b2f565b929592945050506040919091013590565b600080600080600080600060e0888a0312156142ee578283fd5b87356142f981614b2f565b9650602088013561430981614b2f565b95506040880135945060608801359350608088013560ff8116811461432c578384fd5b9699959850939692959460a0840135945060c09093013592915050565b6000806040838503121561435b578182fd5b823561436681614b2f565b946020939093013593505050565b600080600060608486031215614388578081fd5b83516001600160401b038082111561439e578283fd5b818601915086601f8301126143b1578283fd5b81516143bf61411b82614b10565b80828252602080830192508086018b8283870289010111156143df578788fd5b8796505b8487101561440a5780516143f681614b2f565b8452600196909601959281019281016143e3565b508901519097509350505080821115614421578283fd5b5061442e8682870161416b565b925050604084015190509250925092565b600060208284031215614450578081fd5b813561064581614b44565b60006020828403121561446c578081fd5b815161064581614b44565b600080600080600080600060e0888a031215614491578081fd5b8735965060208801356144a381614b2f565b955060408801356144b381614b2f565b945060608801356001600160401b03808211156144ce578283fd5b6144da8b838c016140fd565b955060808a0135945060a08a0135935060c08a01359150808211156144fd578283fd5b5061450a8a828b016141c9565b91505092959891949750929550565b60006020828403121561452a578081fd5b81356001600160e01b031981168114610645578182fd5b600060208284031215614552578081fd5b815161064581614b2f565b6000806040838503121561456f578182fd5b823561457a81614b2f565b915060208301356001600160401b03811115614594578182fd5b6145a0858286016141c9565b9150509250929050565b6000602082840312156145bb578081fd5b815161064581614b52565b6000806000606084860312156145da578081fd5b83516145e581614b52565b60208501519093506001600160401b03811115614600578182fd5b61442e8682870161416b565b6000806040838503121561461e578182fd5b825161462981614b52565b6020939093015192949293505050565b60008060006060848603121561464d578081fd5b835161465881614b52565b602085015160409095015190969495509392505050565b60008060408385031215614681578182fd5b825161468c81614b52565b60208401519092506001600160401b038111156146a7578182fd5b6145a08582860161416b565b6000806000606084860312156146c7578081fd5b83356001600160401b03808211156146dd578283fd5b81860191506101208083890312156146f3578384fd5b6146fc81614aea565b90506147088884614231565b815261471788602085016140f2565b602082015261472988604085016140f2565b6040820152606083013560608201526080830135608082015260a083013560a08201526147598860c085016140f2565b60c082015261476b8860e085016140f2565b60e08201526101008084013583811115614783578586fd5b61478f8a8287016141c9565b9183019190915250976020870135975060409096013595945050505050565b6000602082840312156147bf578081fd5b5035919050565b6000806000606084860312156147da578081fd5b833592506020840135915060408401356001600160401b038111156147fd578182fd5b614809868287016140fd565b9150509250925092565b60008060008060808587031215614828578182fd5b845193506020850151925060408501519150606085015161484881614b2f565b939692955090935050565b6000815180845260208085019450808401835b8381101561488257815187529582019590820190600101614866565b509495945050505050565b60008151808452815b818110156148b257602081850181015186830182015201614896565b818111156148c35782602083870101525b50601f01601f19169290920160200192915050565b9182526001600160e01b031916602082015260240190565b6000828483379101908152919050565b61190160f01b81526002810192909252602282015260420190565b6001600160a01b0391909116815260200190565b6000602082526106456020830184614853565b6000604082526149556040830185614853565b828103602084015261290d8185614853565b901515815260200190565b92151583526020830191909152604082015260600190565b90815260200190565b9283526001600160a01b03918216602084015216604082015260600190565b9586526001600160a01b0394851660208701529290931660408501526060840152608083019190915260a082015260c00190565b9485526020850193909352604084019190915260608301526001600160a01b0316608082015260a00190565b600083825260406020830152611e00604083018461488d565b9182526001600160a01b0316602082015260400190565b93845260ff9290921660208401526040830152606082015260800190565b600060208252610645602083018461488d565b600083825260406020830152611e006040830184614853565b60008482528360208301526060604083015261290d6060830184614853565b600085825284602083015260806040830152614aca6080830185614853565b828103606084015261280f8185614853565b60ff91909116815260200190565b6040518181016001600160401b0381118282101715614b0857600080fd5b604052919050565b60006001600160401b03821115614b25578081fd5b5060209081020190565b6001600160a01b038116811461059557600080fd5b801515811461059557600080fd5b6003811061059557600080fdfea26469706673582212201aa6bdda3831823ab5e424c54853cfe9239d85d4d2f7069c0b9489802d9d152064736f6c63430007010033",
			"opcodes": "PUSH2 0x2E0 PUSH1 0x40 MSTORE PUSH32 0x6E71EDAE12B1B97F4D1F60370FEF10105FA2FAAE0126114A169C64845D6126C9 PUSH2 0x120 MSTORE CALLVALUE DUP1 ISZERO PUSH3 0x37 JUMPI PUSH1 0x0 DUP1 REVERT JUMPDEST POP PUSH1 0x40 MLOAD PUSH3 0x5CD3 CODESIZE SUB DUP1 PUSH3 0x5CD3 DUP4 CODECOPY DUP2 ADD PUSH1 0x40 DUP2 SWAP1 MSTORE PUSH3 0x5A SWAP2 PUSH3 0xD5C JUMP JUMPDEST DUP10 DUP10 DUP10 DUP10 DUP10 DUP10 DUP10 DUP10 DUP10 DUP10 DUP10 DUP10 DUP10 DUP10 DUP11 MLOAD PUSH1 0x1 PUSH1 0x1 PUSH1 0x40 SHL SUB DUP2 GT DUP1 ISZERO PUSH3 0x80 JUMPI PUSH1 0x0 DUP1 REVERT JUMPDEST POP PUSH1 0x40 MLOAD SWAP1 DUP1 DUP3 MSTORE DUP1 PUSH1 0x20 MUL PUSH1 0x20 ADD DUP3 ADD PUSH1 0x40 MSTORE DUP1 ISZERO PUSH3 0xAB JUMPI DUP2 PUSH1 0x20 ADD PUSH1 0x20 DUP3 MUL DUP1 CALLDATASIZE DUP4 CALLDATACOPY ADD SWAP1 POP JUMPDEST POP DUP10 DUP10 DUP10 DUP10 DUP9 DUP7 MLOAD PUSH1 0x2 EQ PUSH3 0xC3 JUMPI PUSH1 0x1 PUSH3 0xC6 JUMP JUMPDEST PUSH1 0x2 JUMPDEST DUP10 DUP10 DUP10 DUP10 DUP10 DUP10 DUP10 DUP10 DUP3 DUP3 DUP10 DUP10 DUP2 DUP1 PUSH1 0x40 MLOAD DUP1 PUSH1 0x40 ADD PUSH1 0x40 MSTORE DUP1 PUSH1 0x1 DUP2 MSTORE PUSH1 0x20 ADD PUSH1 0x31 PUSH1 0xF8 SHL DUP2 MSTORE POP DUP5 DUP5 DUP10 CALLER PUSH1 0x1 PUSH1 0x1 PUSH1 0xA0 SHL SUB AND PUSH1 0x0 SHL DUP1 PUSH1 0x80 DUP2 DUP2 MSTORE POP POP POP DUP1 PUSH1 0x1 PUSH1 0x1 PUSH1 0xA0 SHL SUB AND PUSH1 0xA0 DUP2 PUSH1 0x1 PUSH1 0x1 PUSH1 0xA0 SHL SUB AND PUSH1 0x60 SHL DUP2 MSTORE POP POP POP DUP2 PUSH1 0x3 SWAP1 DUP1 MLOAD SWAP1 PUSH1 0x20 ADD SWAP1 PUSH3 0x13D SWAP3 SWAP2 SWAP1 PUSH3 0xB14 JUMP JUMPDEST POP DUP1 MLOAD PUSH3 0x153 SWAP1 PUSH1 0x4 SWAP1 PUSH1 0x20 DUP5 ADD SWAP1 PUSH3 0xB14 JUMP JUMPDEST POP POP PUSH1 0x5 DUP1 SLOAD PUSH1 0xFF NOT AND PUSH1 0x12 OR SWAP1 SSTORE POP DUP2 MLOAD PUSH1 0x20 SWAP3 DUP4 ADD KECCAK256 PUSH1 0xC0 MSTORE DUP1 MLOAD SWAP2 ADD KECCAK256 PUSH1 0xE0 MSTORE POP POP PUSH32 0x8B73C3C69BB8FE3D512ECC4CF759CC79239F7B179B0FFACAA9A75D522B39400F PUSH2 0x100 MSTORE POP PUSH3 0x1B2 PUSH3 0x76A700 DUP4 GT ISZERO PUSH2 0x194 PUSH3 0x525 JUMP JUMPDEST PUSH3 0x1C6 PUSH3 0x278D00 DUP3 GT ISZERO PUSH2 0x195 PUSH3 0x525 JUMP JUMPDEST TIMESTAMP SWAP1 SWAP2 ADD PUSH2 0x140 DUP2 SWAP1 MSTORE ADD PUSH2 0x160 MSTORE DUP6 MLOAD PUSH3 0x1E8 SWAP1 PUSH1 0x2 GT ISZERO PUSH1 0xC8 PUSH3 0x525 JUMP JUMPDEST PUSH3 0x202 PUSH3 0x1F6 PUSH3 0x53A JUMP JUMPDEST DUP8 MLOAD GT ISZERO PUSH1 0xC9 PUSH3 0x525 JUMP JUMPDEST PUSH3 0x218 DUP7 PUSH3 0x53F PUSH1 0x20 SHL PUSH3 0xDDC OR PUSH1 0x20 SHR JUMP JUMPDEST PUSH3 0x223 DUP5 PUSH3 0x54B JUMP JUMPDEST PUSH1 0x40 MLOAD PUSH4 0x9B2760F PUSH1 0xE0 SHL DUP2 MSTORE PUSH1 0x0 SWAP1 PUSH1 0x1 PUSH1 0x1 PUSH1 0xA0 SHL SUB DUP13 AND SWAP1 PUSH4 0x9B2760F SWAP1 PUSH3 0x254 SWAP1 DUP14 SWAP1 PUSH1 0x4 ADD PUSH3 0xF71 JUMP JUMPDEST PUSH1 0x20 PUSH1 0x40 MLOAD DUP1 DUP4 SUB DUP2 PUSH1 0x0 DUP8 DUP1 EXTCODESIZE ISZERO DUP1 ISZERO PUSH3 0x26F JUMPI PUSH1 0x0 DUP1 REVERT JUMPDEST POP GAS CALL ISZERO DUP1 ISZERO PUSH3 0x284 JUMPI RETURNDATASIZE PUSH1 0x0 DUP1 RETURNDATACOPY RETURNDATASIZE PUSH1 0x0 REVERT JUMPDEST POP POP POP POP PUSH1 0x40 MLOAD RETURNDATASIZE PUSH1 0x1F NOT PUSH1 0x1F DUP3 ADD AND DUP3 ADD DUP1 PUSH1 0x40 MSTORE POP DUP2 ADD SWAP1 PUSH3 0x2AA SWAP2 SWAP1 PUSH3 0xD43 JUMP JUMPDEST PUSH1 0x40 MLOAD PUSH4 0x3354E3E9 PUSH1 0xE1 SHL DUP2 MSTORE SWAP1 SWAP2 POP PUSH1 0x1 PUSH1 0x1 PUSH1 0xA0 SHL SUB DUP13 AND SWAP1 PUSH4 0x66A9C7D2 SWAP1 PUSH3 0x2DF SWAP1 DUP5 SWAP1 DUP12 SWAP1 DUP12 SWAP1 PUSH1 0x4 ADD PUSH3 0xED5 JUMP JUMPDEST PUSH1 0x0 PUSH1 0x40 MLOAD DUP1 DUP4 SUB DUP2 PUSH1 0x0 DUP8 DUP1 EXTCODESIZE ISZERO DUP1 ISZERO PUSH3 0x2FA JUMPI PUSH1 0x0 DUP1 REVERT JUMPDEST POP GAS CALL ISZERO DUP1 ISZERO PUSH3 0x30F JUMPI RETURNDATASIZE PUSH1 0x0 DUP1 RETURNDATACOPY RETURNDATASIZE PUSH1 0x0 REVERT JUMPDEST POP POP POP POP DUP11 PUSH1 0x1 PUSH1 0x1 PUSH1 0xA0 SHL SUB AND PUSH2 0x180 DUP2 PUSH1 0x1 PUSH1 0x1 PUSH1 0xA0 SHL SUB AND PUSH1 0x60 SHL DUP2 MSTORE POP POP DUP1 PUSH2 0x1A0 DUP2 DUP2 MSTORE POP POP POP POP POP POP POP POP POP POP POP POP POP POP POP POP POP POP POP POP POP POP PUSH1 0x1 PUSH1 0xA DUP2 SWAP1 SSTORE POP PUSH1 0x0 DUP8 MLOAD SWAP1 POP PUSH3 0x374 DUP2 DUP9 MLOAD PUSH3 0x5D7 PUSH1 0x20 SHL PUSH3 0xDE6 OR PUSH1 0x20 SHR JUMP JUMPDEST PUSH2 0x1C0 DUP2 SWAP1 MSTORE DUP8 MLOAD DUP9 SWAP1 PUSH1 0x0 SWAP1 PUSH3 0x388 JUMPI INVALID JUMPDEST PUSH1 0x20 MUL PUSH1 0x20 ADD ADD MLOAD PUSH1 0x1 PUSH1 0x1 PUSH1 0xA0 SHL SUB AND PUSH2 0x1E0 DUP2 PUSH1 0x1 PUSH1 0x1 PUSH1 0xA0 SHL SUB AND PUSH1 0x60 SHL DUP2 MSTORE POP POP DUP8 PUSH1 0x1 DUP2 MLOAD DUP2 LT PUSH3 0x3BB JUMPI INVALID JUMPDEST PUSH1 0x20 MUL PUSH1 0x20 ADD ADD MLOAD PUSH1 0x1 PUSH1 0x1 PUSH1 0xA0 SHL SUB AND PUSH2 0x200 DUP2 PUSH1 0x1 PUSH1 0x1 PUSH1 0xA0 SHL SUB AND PUSH1 0x60 SHL DUP2 MSTORE POP POP PUSH1 0x2 DUP2 GT PUSH3 0x3F1 JUMPI PUSH1 0x0 PUSH3 0x408 JUMP JUMPDEST DUP8 PUSH1 0x2 DUP2 MLOAD DUP2 LT PUSH3 0x3FF JUMPI INVALID JUMPDEST PUSH1 0x20 MUL PUSH1 0x20 ADD ADD MLOAD JUMPDEST PUSH1 0x60 SHL PUSH1 0x1 PUSH1 0x1 PUSH1 0x60 SHL SUB NOT AND PUSH2 0x220 MSTORE PUSH1 0x3 DUP2 GT PUSH3 0x42A JUMPI PUSH1 0x0 PUSH3 0x441 JUMP JUMPDEST DUP8 PUSH1 0x3 DUP2 MLOAD DUP2 LT PUSH3 0x438 JUMPI INVALID JUMPDEST PUSH1 0x20 MUL PUSH1 0x20 ADD ADD MLOAD JUMPDEST PUSH1 0x1 PUSH1 0x1 PUSH1 0xA0 SHL SUB AND PUSH2 0x240 DUP2 PUSH1 0x1 PUSH1 0x1 PUSH1 0xA0 SHL SUB AND PUSH1 0x60 SHL DUP2 MSTORE POP POP PUSH3 0x484 DUP9 PUSH1 0x0 DUP2 MLOAD DUP2 LT PUSH3 0x470 JUMPI INVALID JUMPDEST PUSH1 0x20 MUL PUSH1 0x20 ADD ADD MLOAD PUSH3 0x5E6 PUSH1 0x20 SHL PUSH1 0x20 SHR JUMP JUMPDEST PUSH2 0x260 MSTORE DUP8 MLOAD PUSH3 0x49D SWAP1 DUP10 SWAP1 PUSH1 0x1 SWAP1 DUP2 LT PUSH3 0x470 JUMPI INVALID JUMPDEST PUSH2 0x280 MSTORE PUSH1 0x2 DUP2 GT PUSH3 0x4B2 JUMPI PUSH1 0x0 PUSH3 0x4C4 JUMP JUMPDEST PUSH3 0x4C4 DUP9 PUSH1 0x2 DUP2 MLOAD DUP2 LT PUSH3 0x470 JUMPI INVALID JUMPDEST PUSH2 0x2A0 MSTORE PUSH1 0x3 DUP2 GT PUSH3 0x4D9 JUMPI PUSH1 0x0 PUSH3 0x4EB JUMP JUMPDEST PUSH3 0x4EB DUP9 PUSH1 0x3 DUP2 MLOAD DUP2 LT PUSH3 0x470 JUMPI INVALID JUMPDEST PUSH2 0x2C0 MSTORE TIMESTAMP PUSH3 0x4FE DUP2 DUP1 DUP11 DUP1 PUSH3 0x692 JUMP JUMPDEST PUSH3 0x509 DUP4 PUSH3 0x820 JUMP JUMPDEST POP POP POP POP POP POP POP POP POP POP POP POP POP POP POP POP POP POP POP POP POP POP PUSH3 0x1038 JUMP JUMPDEST DUP2 PUSH3 0x536 JUMPI PUSH3 0x536 DUP2 PUSH3 0x874 JUMP JUMPDEST POP POP JUMP JUMPDEST PUSH1 0x4 SWAP1 JUMP JUMPDEST DUP1 PUSH3 0x536 DUP2 PUSH3 0x8C7 JUMP JUMPDEST PUSH3 0x560 PUSH5 0xE8D4A51000 DUP3 LT ISZERO PUSH1 0xCB PUSH3 0x525 JUMP JUMPDEST PUSH3 0x578 PUSH8 0x16345785D8A0000 DUP3 GT ISZERO PUSH1 0xCA PUSH3 0x525 JUMP JUMPDEST PUSH3 0x597 DUP2 PUSH1 0xC0 PUSH1 0x8 SLOAD PUSH3 0x954 PUSH1 0x20 SHL PUSH3 0xDF3 OR SWAP1 SWAP3 SWAP2 SWAP1 PUSH1 0x20 SHR JUMP JUMPDEST PUSH1 0x8 SSTORE PUSH1 0x40 MLOAD PUSH32 0xA9BA3FFE0B6C366B81232CAAB38605A0699AD5398D6CCE76F91EE809E322DAFC SWAP1 PUSH3 0x5CC SWAP1 DUP4 SWAP1 PUSH3 0xF86 JUMP JUMPDEST PUSH1 0x40 MLOAD DUP1 SWAP2 SUB SWAP1 LOG1 POP JUMP JUMPDEST PUSH3 0x536 DUP3 DUP3 EQ PUSH1 0x67 PUSH3 0x525 JUMP JUMPDEST PUSH1 0x0 DUP1 DUP3 PUSH1 0x1 PUSH1 0x1 PUSH1 0xA0 SHL SUB AND PUSH4 0x313CE567 PUSH1 0x40 MLOAD DUP2 PUSH4 0xFFFFFFFF AND PUSH1 0xE0 SHL DUP2 MSTORE PUSH1 0x4 ADD PUSH1 0x20 PUSH1 0x40 MLOAD DUP1 DUP4 SUB DUP2 DUP7 DUP1 EXTCODESIZE ISZERO DUP1 ISZERO PUSH3 0x623 JUMPI PUSH1 0x0 DUP1 REVERT JUMPDEST POP GAS STATICCALL ISZERO DUP1 ISZERO PUSH3 0x638 JUMPI RETURNDATASIZE PUSH1 0x0 DUP1 RETURNDATACOPY RETURNDATASIZE PUSH1 0x0 REVERT JUMPDEST POP POP POP POP PUSH1 0x40 MLOAD RETURNDATASIZE PUSH1 0x1F NOT PUSH1 0x1F DUP3 ADD AND DUP3 ADD DUP1 PUSH1 0x40 MSTORE POP DUP2 ADD SWAP1 PUSH3 0x65E SWAP2 SWAP1 PUSH3 0xE6B JUMP JUMPDEST PUSH1 0xFF AND SWAP1 POP PUSH1 0x0 PUSH3 0x67D PUSH1 0x12 DUP4 PUSH3 0x969 PUSH1 0x20 SHL PUSH3 0xE08 OR PUSH1 0x20 SHR JUMP JUMPDEST PUSH1 0xA EXP PUSH8 0xDE0B6B3A7640000 MUL SWAP5 SWAP4 POP POP POP POP JUMP JUMPDEST PUSH1 0xB SLOAD PUSH1 0x0 DUP1 JUMPDEST DUP4 MLOAD DUP2 LT ISZERO PUSH3 0x783 JUMPI PUSH1 0x0 DUP5 DUP3 DUP2 MLOAD DUP2 LT PUSH3 0x6B2 JUMPI INVALID JUMPDEST PUSH1 0x20 MUL PUSH1 0x20 ADD ADD MLOAD SWAP1 POP PUSH3 0x6DA PUSH7 0x2386F26FC10000 DUP3 LT ISZERO PUSH2 0x12E PUSH3 0x525 PUSH1 0x20 SHL PUSH1 0x20 SHR JUMP JUMPDEST PUSH3 0x75B PUSH3 0x6F4 DUP3 PUSH3 0x986 PUSH1 0x20 SHL PUSH3 0xE1E OR PUSH1 0x20 SHR JUMP JUMPDEST DUP4 PUSH1 0x10 MUL PUSH1 0x80 ADD PUSH3 0x746 PUSH3 0x729 DUP11 DUP8 DUP2 MLOAD DUP2 LT PUSH3 0x710 JUMPI INVALID JUMPDEST PUSH1 0x20 MUL PUSH1 0x20 ADD ADD MLOAD PUSH3 0x9C7 PUSH1 0x20 SHL PUSH3 0xE3E OR PUSH1 0x20 SHR JUMP JUMPDEST DUP7 PUSH1 0x1F MUL PUSH1 0x4 ADD DUP10 PUSH3 0x9F4 PUSH1 0x20 SHL PUSH3 0xE5A OR SWAP1 SWAP3 SWAP2 SWAP1 PUSH1 0x20 SHR JUMP JUMPDEST PUSH3 0xA06 PUSH1 0x20 SHL PUSH3 0xE6C OR SWAP1 SWAP3 SWAP2 SWAP1 PUSH1 0x20 SHR JUMP JUMPDEST SWAP4 POP PUSH3 0x777 DUP2 DUP5 PUSH3 0xA16 PUSH1 0x20 SHL PUSH3 0xE7C OR SWAP1 SWAP2 SWAP1 PUSH1 0x20 SHR JUMP JUMPDEST SWAP3 POP POP PUSH1 0x1 ADD PUSH3 0x699 JUMP JUMPDEST POP PUSH3 0x79C PUSH8 0xDE0B6B3A7640000 DUP3 EQ PUSH2 0x134 PUSH3 0x525 JUMP JUMPDEST PUSH3 0x7D5 DUP6 PUSH1 0xE0 PUSH3 0x7C0 DUP10 PUSH1 0xC0 DUP8 PUSH3 0xA31 PUSH1 0x20 SHL PUSH3 0xE8E OR SWAP1 SWAP3 SWAP2 SWAP1 PUSH1 0x20 SHR JUMP JUMPDEST PUSH3 0xA31 PUSH1 0x20 SHL PUSH3 0xE8E OR SWAP1 SWAP3 SWAP2 SWAP1 PUSH1 0x20 SHR JUMP JUMPDEST PUSH1 0xB SSTORE PUSH1 0x40 MLOAD PUSH32 0xF3631F9DAB08169D1DB21C6DC5F32536FB2B0A6B9BB5330D71C52132F968BE0 SWAP1 PUSH3 0x810 SWAP1 DUP9 SWAP1 DUP9 SWAP1 DUP9 SWAP1 DUP9 SWAP1 PUSH3 0xF8F JUMP JUMPDEST PUSH1 0x40 MLOAD DUP1 SWAP2 SUB SWAP1 LOG1 POP POP POP POP POP POP JUMP JUMPDEST PUSH3 0x83F DUP2 PUSH1 0x0 PUSH1 0xB SLOAD PUSH3 0xA43 PUSH1 0x20 SHL PUSH3 0xEA0 OR SWAP1 SWAP3 SWAP2 SWAP1 PUSH1 0x20 SHR JUMP JUMPDEST PUSH1 0xB SSTORE PUSH1 0x40 MLOAD PUSH32 0x5A9E84F78F7957CB4ED7478EB0FCAD35EE4ECBE2E0F298420B28A3955392573F SWAP1 PUSH3 0x5CC SWAP1 DUP4 SWAP1 PUSH3 0xECA JUMP JUMPDEST PUSH3 0x461BCD PUSH1 0xE5 SHL PUSH1 0x0 SWAP1 DUP2 MSTORE PUSH1 0x20 PUSH1 0x4 MSTORE PUSH1 0x7 PUSH1 0x24 MSTORE PUSH7 0x42414C23000030 PUSH1 0xA DUP1 DUP5 DIV DUP2 DUP2 MOD PUSH1 0x30 SWAP1 DUP2 ADD PUSH1 0x8 SHL SWAP6 DUP4 SWAP1 MOD SWAP6 SWAP1 SWAP6 ADD SWAP1 DUP3 SWAP1 DIV SWAP2 DUP3 MOD SWAP1 SWAP5 ADD PUSH1 0x10 SHL SWAP4 SWAP1 SWAP4 ADD ADD PUSH1 0xC8 SHL PUSH1 0x44 MSTORE PUSH1 0x64 SWAP1 REVERT JUMPDEST PUSH1 0x2 DUP2 MLOAD LT ISZERO PUSH3 0x8D8 JUMPI PUSH3 0x951 JUMP JUMPDEST PUSH1 0x0 DUP2 PUSH1 0x0 DUP2 MLOAD DUP2 LT PUSH3 0x8E8 JUMPI INVALID JUMPDEST PUSH1 0x20 MUL PUSH1 0x20 ADD ADD MLOAD SWAP1 POP PUSH1 0x0 PUSH1 0x1 SWAP1 POP JUMPDEST DUP3 MLOAD DUP2 LT ISZERO PUSH3 0x94E JUMPI PUSH1 0x0 DUP4 DUP3 DUP2 MLOAD DUP2 LT PUSH3 0x912 JUMPI INVALID JUMPDEST PUSH1 0x20 MUL PUSH1 0x20 ADD ADD MLOAD SWAP1 POP PUSH3 0x943 DUP2 PUSH1 0x1 PUSH1 0x1 PUSH1 0xA0 SHL SUB AND DUP5 PUSH1 0x1 PUSH1 0x1 PUSH1 0xA0 SHL SUB AND LT PUSH1 0x65 PUSH3 0x525 PUSH1 0x20 SHL PUSH1 0x20 SHR JUMP JUMPDEST SWAP2 POP PUSH1 0x1 ADD PUSH3 0x8F9 JUMP JUMPDEST POP POP JUMPDEST POP JUMP JUMPDEST PUSH1 0x1 PUSH1 0x1 PUSH1 0x40 SHL SUB DUP2 SHL NOT SWAP3 SWAP1 SWAP3 AND SWAP2 SHL OR SWAP1 JUMP JUMPDEST PUSH1 0x0 PUSH3 0x97B DUP4 DUP4 GT ISZERO PUSH1 0x1 PUSH3 0x525 JUMP JUMPDEST POP DUP1 DUP3 SUB JUMPDEST SWAP3 SWAP2 POP POP JUMP JUMPDEST PUSH1 0x0 PUSH3 0x980 PUSH8 0xDE0B6B3A7640000 PUSH3 0x9B3 PUSH2 0xFFFF DUP1 AND DUP6 PUSH3 0xA6C PUSH1 0x20 SHL PUSH3 0xEC7 OR SWAP1 SWAP2 SWAP1 PUSH1 0x20 SHR JUMP JUMPDEST PUSH3 0xAC1 PUSH1 0x20 SHL PUSH3 0xF15 OR SWAP1 SWAP2 SWAP1 PUSH1 0x20 SHR JUMP JUMPDEST PUSH1 0x0 PUSH3 0x980 PUSH8 0xDE0B6B3A7640000 PUSH3 0x9B3 PUSH4 0x7FFFFFFF DUP6 PUSH3 0xA6C PUSH1 0x20 SHL PUSH3 0xEC7 OR SWAP1 SWAP2 SWAP1 PUSH1 0x20 SHR JUMP JUMPDEST PUSH4 0x7FFFFFFF DUP2 SHL NOT SWAP3 SWAP1 SWAP3 AND SWAP2 SHL OR SWAP1 JUMP JUMPDEST PUSH2 0xFFFF DUP2 SHL NOT SWAP3 SWAP1 SWAP3 AND SWAP2 SHL OR SWAP1 JUMP JUMPDEST PUSH1 0x0 DUP3 DUP3 ADD PUSH3 0xA2A DUP5 DUP3 LT ISZERO DUP4 PUSH3 0x525 JUMP JUMPDEST SWAP4 SWAP3 POP POP POP JUMP JUMPDEST PUSH4 0xFFFFFFFF DUP2 SHL NOT SWAP3 SWAP1 SWAP3 AND SWAP2 SHL OR SWAP1 JUMP JUMPDEST PUSH1 0x0 PUSH1 0x1 DUP3 SHL NOT DUP5 AND DUP3 DUP5 PUSH3 0xA5B JUMPI PUSH1 0x0 PUSH3 0xA5E JUMP JUMPDEST PUSH1 0x1 JUMPDEST PUSH1 0xFF AND SWAP1 SHL OR SWAP5 SWAP4 POP POP POP POP JUMP JUMPDEST PUSH1 0x0 DUP3 DUP3 MUL PUSH3 0xA94 DUP5 ISZERO DUP1 PUSH3 0xA8C JUMPI POP DUP4 DUP6 DUP4 DUP2 PUSH3 0xA89 JUMPI INVALID JUMPDEST DIV EQ JUMPDEST PUSH1 0x3 PUSH3 0x525 JUMP JUMPDEST DUP1 PUSH3 0xAA5 JUMPI PUSH1 0x0 SWAP2 POP POP PUSH3 0x980 JUMP JUMPDEST PUSH8 0xDE0B6B3A7640000 PUSH1 0x0 NOT DUP3 ADD JUMPDEST DIV PUSH1 0x1 ADD SWAP2 POP POP PUSH3 0x980 JUMP JUMPDEST PUSH1 0x0 PUSH3 0xAD2 DUP3 ISZERO ISZERO PUSH1 0x4 PUSH3 0x525 JUMP JUMPDEST DUP3 PUSH3 0xAE1 JUMPI POP PUSH1 0x0 PUSH3 0x980 JUMP JUMPDEST PUSH8 0xDE0B6B3A7640000 DUP4 DUP2 MUL SWAP1 PUSH3 0xB07 SWAP1 DUP6 DUP4 DUP2 PUSH3 0xAFD JUMPI INVALID JUMPDEST DIV EQ PUSH1 0x5 PUSH3 0x525 JUMP JUMPDEST DUP3 PUSH1 0x1 DUP3 SUB DUP2 PUSH3 0xAB4 JUMPI INVALID JUMPDEST DUP3 DUP1 SLOAD PUSH1 0x1 DUP2 PUSH1 0x1 AND ISZERO PUSH2 0x100 MUL SUB AND PUSH1 0x2 SWAP1 DIV SWAP1 PUSH1 0x0 MSTORE PUSH1 0x20 PUSH1 0x0 KECCAK256 SWAP1 PUSH1 0x1F ADD PUSH1 0x20 SWAP1 DIV DUP2 ADD SWAP3 DUP3 PUSH1 0x1F LT PUSH3 0xB57 JUMPI DUP1 MLOAD PUSH1 0xFF NOT AND DUP4 DUP1 ADD OR DUP6 SSTORE PUSH3 0xB87 JUMP JUMPDEST DUP3 DUP1 ADD PUSH1 0x1 ADD DUP6 SSTORE DUP3 ISZERO PUSH3 0xB87 JUMPI SWAP2 DUP3 ADD JUMPDEST DUP3 DUP2 GT ISZERO PUSH3 0xB87 JUMPI DUP3 MLOAD DUP3 SSTORE SWAP2 PUSH1 0x20 ADD SWAP2 SWAP1 PUSH1 0x1 ADD SWAP1 PUSH3 0xB6A JUMP JUMPDEST POP PUSH3 0xB95 SWAP3 SWAP2 POP PUSH3 0xB99 JUMP JUMPDEST POP SWAP1 JUMP JUMPDEST JUMPDEST DUP1 DUP3 GT ISZERO PUSH3 0xB95 JUMPI PUSH1 0x0 DUP2 SSTORE PUSH1 0x1 ADD PUSH3 0xB9A JUMP JUMPDEST DUP1 MLOAD PUSH3 0x980 DUP2 PUSH3 0x1022 JUMP JUMPDEST PUSH1 0x0 DUP3 PUSH1 0x1F DUP4 ADD SLT PUSH3 0xBCE JUMPI DUP1 DUP2 REVERT JUMPDEST DUP2 MLOAD PUSH3 0xBE5 PUSH3 0xBDF DUP3 PUSH3 0xFF6 JUMP JUMPDEST PUSH3 0xFCF JUMP JUMPDEST DUP2 DUP2 MSTORE SWAP2 POP PUSH1 0x20 DUP1 DUP4 ADD SWAP1 DUP5 DUP2 ADD DUP2 DUP5 MUL DUP7 ADD DUP3 ADD DUP8 LT ISZERO PUSH3 0xC07 JUMPI PUSH1 0x0 DUP1 REVERT JUMPDEST PUSH1 0x0 JUMPDEST DUP5 DUP2 LT ISZERO PUSH3 0xC33 JUMPI DUP2 MLOAD PUSH3 0xC20 DUP2 PUSH3 0x1022 JUMP JUMPDEST DUP5 MSTORE SWAP3 DUP3 ADD SWAP3 SWAP1 DUP3 ADD SWAP1 PUSH1 0x1 ADD PUSH3 0xC0A JUMP JUMPDEST POP POP POP POP POP SWAP3 SWAP2 POP POP JUMP JUMPDEST PUSH1 0x0 DUP3 PUSH1 0x1F DUP4 ADD SLT PUSH3 0xC4F JUMPI DUP1 DUP2 REVERT JUMPDEST DUP2 MLOAD PUSH3 0xC60 PUSH3 0xBDF DUP3 PUSH3 0xFF6 JUMP JUMPDEST DUP2 DUP2 MSTORE SWAP2 POP PUSH1 0x20 DUP1 DUP4 ADD SWAP1 DUP5 DUP2 ADD DUP2 DUP5 MUL DUP7 ADD DUP3 ADD DUP8 LT ISZERO PUSH3 0xC82 JUMPI PUSH1 0x0 DUP1 REVERT JUMPDEST PUSH1 0x0 JUMPDEST DUP5 DUP2 LT ISZERO PUSH3 0xC33 JUMPI DUP2 MLOAD DUP5 MSTORE SWAP3 DUP3 ADD SWAP3 SWAP1 DUP3 ADD SWAP1 PUSH1 0x1 ADD PUSH3 0xC85 JUMP JUMPDEST DUP1 MLOAD DUP1 ISZERO ISZERO DUP2 EQ PUSH3 0x980 JUMPI PUSH1 0x0 DUP1 REVERT JUMPDEST PUSH1 0x0 DUP3 PUSH1 0x1F DUP4 ADD SLT PUSH3 0xCC5 JUMPI DUP1 DUP2 REVERT JUMPDEST DUP2 MLOAD PUSH1 0x1 PUSH1 0x1 PUSH1 0x40 SHL SUB DUP2 GT ISZERO PUSH3 0xCDB JUMPI DUP2 DUP3 REVERT JUMPDEST PUSH1 0x20 PUSH3 0xCF1 PUSH1 0x1F DUP4 ADD PUSH1 0x1F NOT AND DUP3 ADD PUSH3 0xFCF JUMP JUMPDEST SWAP3 POP DUP2 DUP4 MSTORE DUP5 DUP2 DUP4 DUP7 ADD ADD GT ISZERO PUSH3 0xD08 JUMPI PUSH1 0x0 DUP1 REVERT JUMPDEST PUSH1 0x0 JUMPDEST DUP3 DUP2 LT ISZERO PUSH3 0xD28 JUMPI DUP5 DUP2 ADD DUP3 ADD MLOAD DUP5 DUP3 ADD DUP4 ADD MSTORE DUP2 ADD PUSH3 0xD0B JUMP JUMPDEST DUP3 DUP2 GT ISZERO PUSH3 0xD3A JUMPI PUSH1 0x0 DUP3 DUP5 DUP7 ADD ADD MSTORE JUMPDEST POP POP POP SWAP3 SWAP2 POP POP JUMP JUMPDEST PUSH1 0x0 PUSH1 0x20 DUP3 DUP5 SUB SLT ISZERO PUSH3 0xD55 JUMPI DUP1 DUP2 REVERT JUMPDEST POP MLOAD SWAP2 SWAP1 POP JUMP JUMPDEST PUSH1 0x0 DUP1 PUSH1 0x0 DUP1 PUSH1 0x0 DUP1 PUSH1 0x0 DUP1 PUSH1 0x0 DUP1 PUSH2 0x140 DUP12 DUP14 SUB SLT ISZERO PUSH3 0xD7C JUMPI DUP6 DUP7 REVERT JUMPDEST PUSH3 0xD88 DUP13 DUP13 PUSH3 0xBB0 JUMP JUMPDEST PUSH1 0x20 DUP13 ADD MLOAD SWAP1 SWAP11 POP PUSH1 0x1 PUSH1 0x1 PUSH1 0x40 SHL SUB DUP1 DUP3 GT ISZERO PUSH3 0xDA5 JUMPI DUP8 DUP9 REVERT JUMPDEST PUSH3 0xDB3 DUP15 DUP4 DUP16 ADD PUSH3 0xCB4 JUMP JUMPDEST SWAP11 POP PUSH1 0x40 DUP14 ADD MLOAD SWAP2 POP DUP1 DUP3 GT ISZERO PUSH3 0xDC9 JUMPI DUP8 DUP9 REVERT JUMPDEST PUSH3 0xDD7 DUP15 DUP4 DUP16 ADD PUSH3 0xCB4 JUMP JUMPDEST SWAP10 POP PUSH1 0x60 DUP14 ADD MLOAD SWAP2 POP DUP1 DUP3 GT ISZERO PUSH3 0xDED JUMPI DUP8 DUP9 REVERT JUMPDEST PUSH3 0xDFB DUP15 DUP4 DUP16 ADD PUSH3 0xBBD JUMP JUMPDEST SWAP9 POP PUSH1 0x80 DUP14 ADD MLOAD SWAP2 POP DUP1 DUP3 GT ISZERO PUSH3 0xE11 JUMPI DUP8 DUP9 REVERT JUMPDEST POP PUSH3 0xE20 DUP14 DUP3 DUP15 ADD PUSH3 0xC3E JUMP JUMPDEST SWAP7 POP POP PUSH1 0xA0 DUP12 ADD MLOAD SWAP5 POP PUSH1 0xC0 DUP12 ADD MLOAD SWAP4 POP PUSH1 0xE0 DUP12 ADD MLOAD SWAP3 POP PUSH3 0xE48 DUP13 PUSH2 0x100 DUP14 ADD PUSH3 0xBB0 JUMP JUMPDEST SWAP2 POP PUSH3 0xE5A DUP13 PUSH2 0x120 DUP14 ADD PUSH3 0xCA3 JUMP JUMPDEST SWAP1 POP SWAP3 SWAP6 SWAP9 SWAP12 SWAP2 SWAP5 SWAP8 SWAP11 POP SWAP3 SWAP6 SWAP9 POP JUMP JUMPDEST PUSH1 0x0 PUSH1 0x20 DUP3 DUP5 SUB SLT ISZERO PUSH3 0xE7D JUMPI DUP1 DUP2 REVERT JUMPDEST DUP2 MLOAD PUSH1 0xFF DUP2 AND DUP2 EQ PUSH3 0xA2A JUMPI DUP2 DUP3 REVERT JUMPDEST PUSH1 0x0 DUP2 MLOAD DUP1 DUP5 MSTORE PUSH1 0x20 DUP1 DUP6 ADD SWAP5 POP DUP1 DUP5 ADD DUP4 JUMPDEST DUP4 DUP2 LT ISZERO PUSH3 0xEBF JUMPI DUP2 MLOAD DUP8 MSTORE SWAP6 DUP3 ADD SWAP6 SWAP1 DUP3 ADD SWAP1 PUSH1 0x1 ADD PUSH3 0xEA1 JUMP JUMPDEST POP SWAP5 SWAP6 SWAP5 POP POP POP POP POP JUMP JUMPDEST SWAP1 ISZERO ISZERO DUP2 MSTORE PUSH1 0x20 ADD SWAP1 JUMP JUMPDEST PUSH1 0x0 PUSH1 0x60 DUP3 ADD DUP6 DUP4 MSTORE PUSH1 0x20 PUSH1 0x60 DUP2 DUP6 ADD MSTORE DUP2 DUP7 MLOAD DUP1 DUP5 MSTORE PUSH1 0x80 DUP7 ADD SWAP2 POP DUP3 DUP9 ADD SWAP4 POP DUP5 JUMPDEST DUP2 DUP2 LT ISZERO PUSH3 0xF21 JUMPI PUSH3 0xF0E DUP6 MLOAD PUSH3 0x1016 JUMP JUMPDEST DUP4 MSTORE SWAP4 DUP4 ADD SWAP4 SWAP2 DUP4 ADD SWAP2 PUSH1 0x1 ADD PUSH3 0xEF9 JUMP JUMPDEST POP POP DUP5 DUP2 SUB PUSH1 0x40 DUP7 ADD MSTORE DUP6 MLOAD DUP1 DUP3 MSTORE SWAP1 DUP3 ADD SWAP3 POP DUP2 DUP7 ADD SWAP1 DUP5 JUMPDEST DUP2 DUP2 LT ISZERO PUSH3 0xF63 JUMPI PUSH3 0xF50 DUP4 MLOAD PUSH3 0x1016 JUMP JUMPDEST DUP6 MSTORE SWAP4 DUP4 ADD SWAP4 SWAP2 DUP4 ADD SWAP2 PUSH1 0x1 ADD PUSH3 0xF3B JUMP JUMPDEST POP SWAP3 SWAP9 SWAP8 POP POP POP POP POP POP POP POP JUMP JUMPDEST PUSH1 0x20 DUP2 ADD PUSH1 0x3 DUP4 LT PUSH3 0xF80 JUMPI INVALID JUMPDEST SWAP2 SWAP1 MSTORE SWAP1 JUMP JUMPDEST SWAP1 DUP2 MSTORE PUSH1 0x20 ADD SWAP1 JUMP JUMPDEST PUSH1 0x0 DUP6 DUP3 MSTORE DUP5 PUSH1 0x20 DUP4 ADD MSTORE PUSH1 0x80 PUSH1 0x40 DUP4 ADD MSTORE PUSH3 0xFB0 PUSH1 0x80 DUP4 ADD DUP6 PUSH3 0xE8E JUMP JUMPDEST DUP3 DUP2 SUB PUSH1 0x60 DUP5 ADD MSTORE PUSH3 0xFC4 DUP2 DUP6 PUSH3 0xE8E JUMP JUMPDEST SWAP8 SWAP7 POP POP POP POP POP POP POP JUMP JUMPDEST PUSH1 0x40 MLOAD DUP2 DUP2 ADD PUSH1 0x1 PUSH1 0x1 PUSH1 0x40 SHL SUB DUP2 GT DUP3 DUP3 LT OR ISZERO PUSH3 0xFEE JUMPI PUSH1 0x0 DUP1 REVERT JUMPDEST PUSH1 0x40 MSTORE SWAP2 SWAP1 POP JUMP JUMPDEST PUSH1 0x0 PUSH1 0x1 PUSH1 0x1 PUSH1 0x40 SHL SUB DUP3 GT ISZERO PUSH3 0x100C JUMPI DUP1 DUP2 REVERT JUMPDEST POP PUSH1 0x20 SWAP1 DUP2 MUL ADD SWAP1 JUMP JUMPDEST PUSH1 0x1 PUSH1 0x1 PUSH1 0xA0 SHL SUB AND SWAP1 JUMP JUMPDEST PUSH1 0x1 PUSH1 0x1 PUSH1 0xA0 SHL SUB DUP2 AND DUP2 EQ PUSH3 0x951 JUMPI PUSH1 0x0 DUP1 REVERT JUMPDEST PUSH1 0x80 MLOAD PUSH1 0xA0 MLOAD PUSH1 0x60 SHR PUSH1 0xC0 MLOAD PUSH1 0xE0 MLOAD PUSH2 0x100 MLOAD PUSH2 0x120 MLOAD PUSH2 0x140 MLOAD PUSH2 0x160 MLOAD PUSH2 0x180 MLOAD PUSH1 0x60 SHR PUSH2 0x1A0 MLOAD PUSH2 0x1C0 MLOAD PUSH2 0x1E0 MLOAD PUSH1 0x60 SHR PUSH2 0x200 MLOAD PUSH1 0x60 SHR PUSH2 0x220 MLOAD PUSH1 0x60 SHR PUSH2 0x240 MLOAD PUSH1 0x60 SHR PUSH2 0x260 MLOAD PUSH2 0x280 MLOAD PUSH2 0x2A0 MLOAD PUSH2 0x2C0 MLOAD PUSH2 0x4B95 PUSH3 0x113E PUSH1 0x0 CODECOPY DUP1 PUSH2 0x120B MSTORE DUP1 PUSH2 0x1D84 MSTORE POP DUP1 PUSH2 0x11C8 MSTORE DUP1 PUSH2 0x1D23 MSTORE POP DUP1 PUSH2 0x1185 MSTORE DUP1 PUSH2 0x1CC2 MSTORE POP DUP1 PUSH2 0x1134 MSTORE DUP1 PUSH2 0x1C61 MSTORE POP DUP1 PUSH2 0x1D49 MSTORE DUP1 PUSH2 0x2CA0 MSTORE POP DUP1 PUSH2 0x1CE8 MSTORE DUP1 PUSH2 0x2C5E MSTORE POP DUP1 PUSH2 0x1C87 MSTORE DUP1 PUSH2 0x2C1C MSTORE POP DUP1 PUSH2 0x1C26 MSTORE DUP1 PUSH2 0x2BDA MSTORE POP DUP1 PUSH2 0x146F MSTORE POP DUP1 PUSH2 0x67A MSTORE POP DUP1 PUSH2 0x998 MSTORE POP DUP1 PUSH2 0x10B7 MSTORE POP DUP1 PUSH2 0x1093 MSTORE POP DUP1 PUSH2 0xC57 MSTORE POP DUP1 PUSH2 0x133B MSTORE POP DUP1 PUSH2 0x137D MSTORE POP DUP1 PUSH2 0x135C MSTORE POP DUP1 PUSH2 0x974 MSTORE POP DUP1 PUSH2 0x8FE MSTORE POP PUSH2 0x4B95 PUSH1 0x0 RETURN INVALID PUSH1 0x80 PUSH1 0x40 MSTORE CALLVALUE DUP1 ISZERO PUSH2 0x10 JUMPI PUSH1 0x0 DUP1 REVERT JUMPDEST POP PUSH1 0x4 CALLDATASIZE LT PUSH2 0x232 JUMPI PUSH1 0x0 CALLDATALOAD PUSH1 0xE0 SHR DUP1 PUSH4 0x74F3B009 GT PUSH2 0x130 JUMPI DUP1 PUSH4 0x9D2C110C GT PUSH2 0xB8 JUMPI DUP1 PUSH4 0xD505ACCF GT PUSH2 0x7C JUMPI DUP1 PUSH4 0xD505ACCF EQ PUSH2 0x482 JUMPI DUP1 PUSH4 0xD5C096C4 EQ PUSH2 0x495 JUMPI DUP1 PUSH4 0xDD62ED3E EQ PUSH2 0x4A8 JUMPI DUP1 PUSH4 0xE01AF92C EQ PUSH2 0x4BB JUMPI DUP1 PUSH4 0xF89F27ED EQ PUSH2 0x4CE JUMPI PUSH2 0x232 JUMP JUMPDEST DUP1 PUSH4 0x9D2C110C EQ PUSH2 0x439 JUMPI DUP1 PUSH4 0xA457C2D7 EQ PUSH2 0x44C JUMPI DUP1 PUSH4 0xA9059CBB EQ PUSH2 0x45F JUMPI DUP1 PUSH4 0xAAABADC5 EQ PUSH2 0x472 JUMPI DUP1 PUSH4 0xC0FF1A15 EQ PUSH2 0x47A JUMPI PUSH2 0x232 JUMP JUMPDEST DUP1 PUSH4 0x87EC6817 GT PUSH2 0xFF JUMPI DUP1 PUSH4 0x87EC6817 EQ PUSH2 0x3F9 JUMPI DUP1 PUSH4 0x893D20E8 EQ PUSH2 0x40C JUMPI DUP1 PUSH4 0x8D928AF8 EQ PUSH2 0x421 JUMPI DUP1 PUSH4 0x95D89B41 EQ PUSH2 0x429 JUMPI DUP1 PUSH4 0x9B02CDDE EQ PUSH2 0x431 JUMPI PUSH2 0x232 JUMP JUMPDEST DUP1 PUSH4 0x74F3B009 EQ PUSH2 0x39B JUMPI DUP1 PUSH4 0x7BEED220 EQ PUSH2 0x3BC JUMPI DUP1 PUSH4 0x7ECEBE00 EQ PUSH2 0x3D3 JUMPI DUP1 PUSH4 0x851C1BB3 EQ PUSH2 0x3E6 JUMPI PUSH2 0x232 JUMP JUMPDEST DUP1 PUSH4 0x38E9922E GT PUSH2 0x1BE JUMPI DUP1 PUSH4 0x50DD6ED9 GT PUSH2 0x182 JUMPI DUP1 PUSH4 0x50DD6ED9 EQ PUSH2 0x344 JUMPI DUP1 PUSH4 0x55C67628 EQ PUSH2 0x357 JUMPI DUP1 PUSH4 0x6028BFD4 EQ PUSH2 0x35F JUMPI DUP1 PUSH4 0x679AEFCE EQ PUSH2 0x380 JUMPI DUP1 PUSH4 0x70A08231 EQ PUSH2 0x388 JUMPI PUSH2 0x232 JUMP JUMPDEST DUP1 PUSH4 0x38E9922E EQ PUSH2 0x2FB JUMPI DUP1 PUSH4 0x38FFF2D0 EQ PUSH2 0x30E JUMPI DUP1 PUSH4 0x39509351 EQ PUSH2 0x316 JUMPI DUP1 PUSH4 0x3E569205 EQ PUSH2 0x329 JUMPI DUP1 PUSH4 0x47BC4D92 EQ PUSH2 0x33C JUMPI PUSH2 0x232 JUMP JUMPDEST DUP1 PUSH4 0x1C0DE051 GT PUSH2 0x205 JUMPI DUP1 PUSH4 0x1C0DE051 EQ PUSH2 0x29F JUMPI DUP1 PUSH4 0x1DD746EA EQ PUSH2 0x2B6 JUMPI DUP1 PUSH4 0x23B872DD EQ PUSH2 0x2CB JUMPI DUP1 PUSH4 0x313CE567 EQ PUSH2 0x2DE JUMPI DUP1 PUSH4 0x3644E515 EQ PUSH2 0x2F3 JUMPI PUSH2 0x232 JUMP JUMPDEST DUP1 PUSH4 0x6FDDE03 EQ PUSH2 0x237 JUMPI DUP1 PUSH4 0x95EA7B3 EQ PUSH2 0x255 JUMPI DUP1 PUSH4 0x16C38B3C EQ PUSH2 0x275 JUMPI DUP1 PUSH4 0x18160DDD EQ PUSH2 0x28A JUMPI JUMPDEST PUSH1 0x0 DUP1 REVERT JUMPDEST PUSH2 0x23F PUSH2 0x4D6 JUMP JUMPDEST PUSH1 0x40 MLOAD PUSH2 0x24C SWAP2 SWAP1 PUSH2 0x4A60 JUMP JUMPDEST PUSH1 0x40 MLOAD DUP1 SWAP2 SUB SWAP1 RETURN JUMPDEST PUSH2 0x268 PUSH2 0x263 CALLDATASIZE PUSH1 0x4 PUSH2 0x4349 JUMP JUMPDEST PUSH2 0x56D JUMP JUMPDEST PUSH1 0x40 MLOAD PUSH2 0x24C SWAP2 SWAP1 PUSH2 0x4967 JUMP JUMPDEST PUSH2 0x288 PUSH2 0x283 CALLDATASIZE PUSH1 0x4 PUSH2 0x443F JUMP JUMPDEST PUSH2 0x584 JUMP JUMPDEST STOP JUMPDEST PUSH2 0x292 PUSH2 0x598 JUMP JUMPDEST PUSH1 0x40 MLOAD PUSH2 0x24C SWAP2 SWAP1 PUSH2 0x498A JUMP JUMPDEST PUSH2 0x2A7 PUSH2 0x59E JUMP JUMPDEST PUSH1 0x40 MLOAD PUSH2 0x24C SWAP4 SWAP3 SWAP2 SWAP1 PUSH2 0x4972 JUMP JUMPDEST PUSH2 0x2BE PUSH2 0x5C7 JUMP JUMPDEST PUSH1 0x40 MLOAD PUSH2 0x24C SWAP2 SWAP1 PUSH2 0x492F JUMP JUMPDEST PUSH2 0x268 PUSH2 0x2D9 CALLDATASIZE PUSH1 0x4 PUSH2 0x4294 JUMP JUMPDEST PUSH2 0x5D6 JUMP JUMPDEST PUSH2 0x2E6 PUSH2 0x64C JUMP JUMPDEST PUSH1 0x40 MLOAD PUSH2 0x24C SWAP2 SWAP1 PUSH2 0x4ADC JUMP JUMPDEST PUSH2 0x292 PUSH2 0x655 JUMP JUMPDEST PUSH2 0x288 PUSH2 0x309 CALLDATASIZE PUSH1 0x4 PUSH2 0x47AE JUMP JUMPDEST PUSH2 0x65F JUMP JUMPDEST PUSH2 0x292 PUSH2 0x678 JUMP JUMPDEST PUSH2 0x268 PUSH2 0x324 CALLDATASIZE PUSH1 0x4 PUSH2 0x4349 JUMP JUMPDEST PUSH2 0x69C JUMP JUMPDEST PUSH2 0x288 PUSH2 0x337 CALLDATASIZE PUSH1 0x4 PUSH2 0x47C6 JUMP JUMPDEST PUSH2 0x6D7 JUMP JUMPDEST PUSH2 0x268 PUSH2 0x73E JUMP JUMPDEST PUSH2 0x288 PUSH2 0x352 CALLDATASIZE PUSH1 0x4 PUSH2 0x455D JUMP JUMPDEST PUSH2 0x74E JUMP JUMPDEST PUSH2 0x292 PUSH2 0x76C JUMP JUMPDEST PUSH2 0x372 PUSH2 0x36D CALLDATASIZE PUSH1 0x4 PUSH2 0x4477 JUMP JUMPDEST PUSH2 0x77D JUMP JUMPDEST PUSH1 0x40 MLOAD PUSH2 0x24C SWAP3 SWAP2 SWAP1 PUSH2 0x4A73 JUMP JUMPDEST PUSH2 0x292 PUSH2 0x7B4 JUMP JUMPDEST PUSH2 0x292 PUSH2 0x396 CALLDATASIZE PUSH1 0x4 PUSH2 0x4240 JUMP JUMPDEST PUSH2 0x7DF JUMP JUMPDEST PUSH2 0x3AE PUSH2 0x3A9 CALLDATASIZE PUSH1 0x4 PUSH2 0x4477 JUMP JUMPDEST PUSH2 0x7FE JUMP JUMPDEST PUSH1 0x40 MLOAD PUSH2 0x24C SWAP3 SWAP2 SWAP1 PUSH2 0x4942 JUMP JUMPDEST PUSH2 0x3C4 PUSH2 0x821 JUMP JUMPDEST PUSH1 0x40 MLOAD PUSH2 0x24C SWAP4 SWAP3 SWAP2 SWAP1 PUSH2 0x4A8C JUMP JUMPDEST PUSH2 0x292 PUSH2 0x3E1 CALLDATASIZE PUSH1 0x4 PUSH2 0x4240 JUMP JUMPDEST PUSH2 0x8DF JUMP JUMPDEST PUSH2 0x292 PUSH2 0x3F4 CALLDATASIZE PUSH1 0x4 PUSH2 0x4519 JUMP JUMPDEST PUSH2 0x8FA JUMP JUMPDEST PUSH2 0x372 PUSH2 0x407 CALLDATASIZE PUSH1 0x4 PUSH2 0x4477 JUMP JUMPDEST PUSH2 0x94C JUMP JUMPDEST PUSH2 0x414 PUSH2 0x972 JUMP JUMPDEST PUSH1 0x40 MLOAD PUSH2 0x24C SWAP2 SWAP1 PUSH2 0x491B JUMP JUMPDEST PUSH2 0x414 PUSH2 0x996 JUMP JUMPDEST PUSH2 0x23F PUSH2 0x9BA JUMP JUMPDEST PUSH2 0x292 PUSH2 0xA1B JUMP JUMPDEST PUSH2 0x292 PUSH2 0x447 CALLDATASIZE PUSH1 0x4 PUSH2 0x46B3 JUMP JUMPDEST PUSH2 0xA21 JUMP JUMPDEST PUSH2 0x268 PUSH2 0x45A CALLDATASIZE PUSH1 0x4 PUSH2 0x4349 JUMP JUMPDEST PUSH2 0xB08 JUMP JUMPDEST PUSH2 0x268 PUSH2 0x46D CALLDATASIZE PUSH1 0x4 PUSH2 0x4349 JUMP JUMPDEST PUSH2 0xB46 JUMP JUMPDEST PUSH2 0x414 PUSH2 0xB53 JUMP JUMPDEST PUSH2 0x292 PUSH2 0xB5D JUMP JUMPDEST PUSH2 0x288 PUSH2 0x490 CALLDATASIZE PUSH1 0x4 PUSH2 0x42D4 JUMP JUMPDEST PUSH2 0xC22 JUMP JUMPDEST PUSH2 0x3AE PUSH2 0x4A3 CALLDATASIZE PUSH1 0x4 PUSH2 0x4477 JUMP JUMPDEST PUSH2 0xD6B JUMP JUMPDEST PUSH2 0x292 PUSH2 0x4B6 CALLDATASIZE PUSH1 0x4 PUSH2 0x425C JUMP JUMPDEST PUSH2 0xD7E JUMP JUMPDEST PUSH2 0x288 PUSH2 0x4C9 CALLDATASIZE PUSH1 0x4 PUSH2 0x443F JUMP JUMPDEST PUSH2 0xDA9 JUMP JUMPDEST PUSH2 0x2BE PUSH2 0xDD2 JUMP JUMPDEST PUSH1 0x3 DUP1 SLOAD PUSH1 0x40 DUP1 MLOAD PUSH1 0x20 PUSH1 0x1F PUSH1 0x2 PUSH1 0x0 NOT PUSH2 0x100 PUSH1 0x1 DUP9 AND ISZERO MUL ADD SWAP1 SWAP6 AND SWAP5 SWAP1 SWAP5 DIV SWAP4 DUP5 ADD DUP2 SWAP1 DIV DUP2 MUL DUP3 ADD DUP2 ADD SWAP1 SWAP3 MSTORE DUP3 DUP2 MSTORE PUSH1 0x60 SWAP4 SWAP1 SWAP3 SWAP1 SWAP2 DUP4 ADD DUP3 DUP3 DUP1 ISZERO PUSH2 0x562 JUMPI DUP1 PUSH1 0x1F LT PUSH2 0x537 JUMPI PUSH2 0x100 DUP1 DUP4 SLOAD DIV MUL DUP4 MSTORE SWAP2 PUSH1 0x20 ADD SWAP2 PUSH2 0x562 JUMP JUMPDEST DUP3 ADD SWAP2 SWAP1 PUSH1 0x0 MSTORE PUSH1 0x20 PUSH1 0x0 KECCAK256 SWAP1 JUMPDEST DUP2 SLOAD DUP2 MSTORE SWAP1 PUSH1 0x1 ADD SWAP1 PUSH1 0x20 ADD DUP1 DUP4 GT PUSH2 0x545 JUMPI DUP3 SWAP1 SUB PUSH1 0x1F AND DUP3 ADD SWAP2 JUMPDEST POP POP POP POP POP SWAP1 POP JUMPDEST SWAP1 JUMP JUMPDEST PUSH1 0x0 PUSH2 0x57A CALLER DUP5 DUP5 PUSH2 0xF60 JUMP JUMPDEST POP PUSH1 0x1 JUMPDEST SWAP3 SWAP2 POP POP JUMP JUMPDEST PUSH2 0x58C PUSH2 0xFC8 JUMP JUMPDEST PUSH2 0x595 DUP2 PUSH2 0xFF6 JUMP JUMPDEST POP JUMP JUMPDEST PUSH1 0x2 SLOAD SWAP1 JUMP JUMPDEST PUSH1 0x0 DUP1 PUSH1 0x0 PUSH2 0x5AB PUSH2 0x1074 JUMP JUMPDEST ISZERO SWAP3 POP PUSH2 0x5B6 PUSH2 0x1091 JUMP JUMPDEST SWAP2 POP PUSH2 0x5C0 PUSH2 0x10B5 JUMP JUMPDEST SWAP1 POP SWAP1 SWAP2 SWAP3 JUMP JUMPDEST PUSH1 0x60 PUSH2 0x5D1 PUSH2 0x10D9 JUMP JUMPDEST SWAP1 POP SWAP1 JUMP JUMPDEST PUSH1 0x0 DUP1 PUSH2 0x5E3 DUP6 CALLER PUSH2 0xD7E JUMP JUMPDEST SWAP1 POP PUSH2 0x607 CALLER PUSH1 0x1 PUSH1 0x1 PUSH1 0xA0 SHL SUB DUP8 AND EQ DUP1 PUSH2 0x5FF JUMPI POP DUP4 DUP3 LT ISZERO JUMPDEST PUSH2 0x19E PUSH2 0x1249 JUMP JUMPDEST PUSH2 0x612 DUP6 DUP6 DUP6 PUSH2 0x1257 JUMP JUMPDEST CALLER PUSH1 0x1 PUSH1 0x1 PUSH1 0xA0 SHL SUB DUP7 AND EQ DUP1 ISZERO SWAP1 PUSH2 0x62D JUMPI POP PUSH1 0x0 NOT DUP2 EQ ISZERO JUMPDEST ISZERO PUSH2 0x63F JUMPI PUSH2 0x63F DUP6 CALLER DUP6 DUP5 SUB PUSH2 0xF60 JUMP JUMPDEST PUSH1 0x1 SWAP2 POP POP JUMPDEST SWAP4 SWAP3 POP POP POP JUMP JUMPDEST PUSH1 0x5 SLOAD PUSH1 0xFF AND SWAP1 JUMP JUMPDEST PUSH1 0x0 PUSH2 0x5D1 PUSH2 0x1337 JUMP JUMPDEST PUSH2 0x667 PUSH2 0xFC8 JUMP JUMPDEST PUSH2 0x66F PUSH2 0x13D4 JUMP JUMPDEST PUSH2 0x595 DUP2 PUSH2 0x13E9 JUMP JUMPDEST PUSH32 0x0 SWAP1 JUMP JUMPDEST CALLER PUSH1 0x0 DUP2 DUP2 MSTORE PUSH1 0x1 PUSH1 0x20 SWAP1 DUP2 MSTORE PUSH1 0x40 DUP1 DUP4 KECCAK256 PUSH1 0x1 PUSH1 0x1 PUSH1 0xA0 SHL SUB DUP8 AND DUP5 MSTORE SWAP1 SWAP2 MSTORE DUP2 KECCAK256 SLOAD SWAP1 SWAP2 PUSH2 0x57A SWAP2 DUP6 SWAP1 PUSH2 0x6D2 SWAP1 DUP7 PUSH2 0xE7C JUMP JUMPDEST PUSH2 0xF60 JUMP JUMPDEST PUSH2 0x6DF PUSH2 0xFC8 JUMP JUMPDEST PUSH2 0x6E7 PUSH2 0x13D4 JUMP JUMPDEST PUSH2 0x6EF PUSH2 0x1454 JUMP JUMPDEST PUSH2 0x701 PUSH2 0x6FA PUSH2 0x146D JUMP JUMPDEST DUP3 MLOAD PUSH2 0xDE6 JUMP JUMPDEST TIMESTAMP PUSH2 0x70C DUP2 DUP6 PUSH2 0x1491 JUMP JUMPDEST SWAP4 POP PUSH2 0x71D DUP4 DUP6 GT ISZERO PUSH2 0x146 PUSH2 0x1249 JUMP JUMPDEST PUSH2 0x730 DUP5 DUP5 PUSH2 0x72A PUSH2 0x14A8 JUMP JUMPDEST DUP6 PUSH2 0x15BB JUMP JUMPDEST POP PUSH2 0x739 PUSH2 0x16D0 JUMP JUMPDEST POP POP POP JUMP JUMPDEST PUSH1 0xB SLOAD PUSH1 0x0 SWAP1 PUSH2 0x5D1 SWAP1 DUP3 PUSH2 0x16D7 JUMP JUMPDEST PUSH2 0x756 PUSH2 0xFC8 JUMP JUMPDEST PUSH2 0x75E PUSH2 0x13D4 JUMP JUMPDEST PUSH2 0x768 DUP3 DUP3 PUSH2 0x16E1 JUMP JUMPDEST POP POP JUMP JUMPDEST PUSH1 0x8 SLOAD PUSH1 0x0 SWAP1 PUSH2 0x5D1 SWAP1 PUSH1 0xC0 PUSH2 0x17E0 JUMP JUMPDEST PUSH1 0x0 PUSH1 0x60 PUSH2 0x793 DUP7 MLOAD PUSH2 0x78E PUSH2 0x146D JUMP JUMPDEST PUSH2 0xDE6 JUMP JUMPDEST PUSH2 0x7A8 DUP10 DUP10 DUP10 DUP10 DUP10 DUP10 DUP10 PUSH2 0x17ED PUSH2 0x18BC PUSH2 0x191D JUMP JUMPDEST SWAP8 POP SWAP8 SWAP6 POP POP POP POP POP POP JUMP JUMPDEST PUSH1 0x0 PUSH2 0x5D1 PUSH2 0x7C1 PUSH2 0x598 JUMP JUMPDEST PUSH2 0x7D9 PUSH2 0x7CC PUSH2 0xB5D JUMP JUMPDEST PUSH2 0x7D4 PUSH2 0x146D JUMP JUMPDEST PUSH2 0x1A40 JUMP JUMPDEST SWAP1 PUSH2 0x1A5A JUMP JUMPDEST PUSH1 0x1 PUSH1 0x1 PUSH1 0xA0 SHL SUB DUP2 AND PUSH1 0x0 SWAP1 DUP2 MSTORE PUSH1 0x20 DUP2 SWAP1 MSTORE PUSH1 0x40 SWAP1 KECCAK256 SLOAD JUMPDEST SWAP2 SWAP1 POP JUMP JUMPDEST PUSH1 0x60 DUP1 PUSH2 0x811 DUP10 DUP10 DUP10 DUP10 DUP10 PUSH1 0x0 DUP10 PUSH2 0x1AA2 JUMP JUMPDEST SWAP2 POP SWAP2 POP SWAP8 POP SWAP8 SWAP6 POP POP POP POP POP POP JUMP JUMPDEST PUSH1 0xB SLOAD PUSH1 0x0 SWAP1 DUP2 SWAP1 PUSH1 0x60 SWAP1 PUSH2 0x837 DUP2 PUSH1 0xC0 PUSH2 0x1B45 JUMP JUMPDEST SWAP4 POP PUSH2 0x844 DUP2 PUSH1 0xE0 PUSH2 0x1B45 JUMP JUMPDEST SWAP3 POP PUSH1 0x0 PUSH2 0x850 PUSH2 0x146D JUMP JUMPDEST SWAP1 POP DUP1 PUSH1 0x1 PUSH1 0x1 PUSH1 0x40 SHL SUB DUP2 GT DUP1 ISZERO PUSH2 0x868 JUMPI PUSH1 0x0 DUP1 REVERT JUMPDEST POP PUSH1 0x40 MLOAD SWAP1 DUP1 DUP3 MSTORE DUP1 PUSH1 0x20 MUL PUSH1 0x20 ADD DUP3 ADD PUSH1 0x40 MSTORE DUP1 ISZERO PUSH2 0x892 JUMPI DUP2 PUSH1 0x20 ADD PUSH1 0x20 DUP3 MUL DUP1 CALLDATASIZE DUP4 CALLDATACOPY ADD SWAP1 POP JUMPDEST POP SWAP3 POP PUSH1 0x0 JUMPDEST DUP2 DUP2 LT ISZERO PUSH2 0x8D7 JUMPI PUSH2 0x8B8 PUSH2 0x8B3 DUP5 PUSH1 0x80 PUSH1 0x10 DUP6 MUL ADD PUSH2 0x1B4F JUMP JUMPDEST PUSH2 0x1B57 JUMP JUMPDEST DUP5 DUP3 DUP2 MLOAD DUP2 LT PUSH2 0x8C4 JUMPI INVALID JUMPDEST PUSH1 0x20 SWAP1 DUP2 MUL SWAP2 SWAP1 SWAP2 ADD ADD MSTORE PUSH1 0x1 ADD PUSH2 0x898 JUMP JUMPDEST POP POP POP SWAP1 SWAP2 SWAP3 JUMP JUMPDEST PUSH1 0x1 PUSH1 0x1 PUSH1 0xA0 SHL SUB AND PUSH1 0x0 SWAP1 DUP2 MSTORE PUSH1 0x6 PUSH1 0x20 MSTORE PUSH1 0x40 SWAP1 KECCAK256 SLOAD SWAP1 JUMP JUMPDEST PUSH1 0x0 PUSH32 0x0 DUP3 PUSH1 0x40 MLOAD PUSH1 0x20 ADD PUSH2 0x92F SWAP3 SWAP2 SWAP1 PUSH2 0x48D8 JUMP JUMPDEST PUSH1 0x40 MLOAD PUSH1 0x20 DUP2 DUP4 SUB SUB DUP2 MSTORE SWAP1 PUSH1 0x40 MSTORE DUP1 MLOAD SWAP1 PUSH1 0x20 ADD KECCAK256 SWAP1 POP SWAP2 SWAP1 POP JUMP JUMPDEST PUSH1 0x0 PUSH1 0x60 PUSH2 0x95D DUP7 MLOAD PUSH2 0x78E PUSH2 0x146D JUMP JUMPDEST PUSH2 0x7A8 DUP10 DUP10 DUP10 DUP10 DUP10 DUP10 DUP10 PUSH2 0x1B71 PUSH2 0x1BC1 PUSH2 0x191D JUMP JUMPDEST PUSH32 0x0 SWAP1 JUMP JUMPDEST PUSH32 0x0 SWAP1 JUMP JUMPDEST PUSH1 0x4 DUP1 SLOAD PUSH1 0x40 DUP1 MLOAD PUSH1 0x20 PUSH1 0x1F PUSH1 0x2 PUSH1 0x0 NOT PUSH2 0x100 PUSH1 0x1 DUP9 AND ISZERO MUL ADD SWAP1 SWAP6 AND SWAP5 SWAP1 SWAP5 DIV SWAP4 DUP5 ADD DUP2 SWAP1 DIV DUP2 MUL DUP3 ADD DUP2 ADD SWAP1 SWAP3 MSTORE DUP3 DUP2 MSTORE PUSH1 0x60 SWAP4 SWAP1 SWAP3 SWAP1 SWAP2 DUP4 ADD DUP3 DUP3 DUP1 ISZERO PUSH2 0x562 JUMPI DUP1 PUSH1 0x1F LT PUSH2 0x537 JUMPI PUSH2 0x100 DUP1 DUP4 SLOAD DIV MUL DUP4 MSTORE SWAP2 PUSH1 0x20 ADD SWAP2 PUSH2 0x562 JUMP JUMPDEST PUSH1 0x9 SLOAD SWAP1 JUMP JUMPDEST PUSH1 0x0 DUP1 PUSH2 0xA31 DUP6 PUSH1 0x20 ADD MLOAD PUSH2 0x1C22 JUMP JUMPDEST SWAP1 POP PUSH1 0x0 PUSH2 0xA42 DUP7 PUSH1 0x40 ADD MLOAD PUSH2 0x1C22 JUMP JUMPDEST SWAP1 POP PUSH1 0x0 DUP7 MLOAD PUSH1 0x1 DUP2 GT ISZERO PUSH2 0xA53 JUMPI INVALID JUMPDEST EQ ISZERO PUSH2 0xAB9 JUMPI PUSH2 0xA66 DUP7 PUSH1 0x60 ADD MLOAD PUSH2 0x1DB3 JUMP JUMPDEST PUSH1 0x60 DUP8 ADD MSTORE PUSH2 0xA75 DUP6 DUP4 PUSH2 0x1DD4 JUMP JUMPDEST SWAP5 POP PUSH2 0xA81 DUP5 DUP3 PUSH2 0x1DD4 JUMP JUMPDEST SWAP4 POP PUSH2 0xA91 DUP7 PUSH1 0x60 ADD MLOAD DUP4 PUSH2 0x1DD4 JUMP JUMPDEST PUSH1 0x60 DUP8 ADD MSTORE PUSH1 0x0 PUSH2 0xAA3 DUP8 DUP8 DUP8 PUSH2 0x1DE0 JUMP JUMPDEST SWAP1 POP PUSH2 0xAAF DUP2 DUP4 PUSH2 0x1E08 JUMP JUMPDEST SWAP4 POP POP POP POP PUSH2 0x645 JUMP JUMPDEST PUSH2 0xAC3 DUP6 DUP4 PUSH2 0x1DD4 JUMP JUMPDEST SWAP5 POP PUSH2 0xACF DUP5 DUP3 PUSH2 0x1DD4 JUMP JUMPDEST SWAP4 POP PUSH2 0xADF DUP7 PUSH1 0x60 ADD MLOAD DUP3 PUSH2 0x1DD4 JUMP JUMPDEST PUSH1 0x60 DUP8 ADD MSTORE PUSH1 0x0 PUSH2 0xAF1 DUP8 DUP8 DUP8 PUSH2 0x1E14 JUMP JUMPDEST SWAP1 POP PUSH2 0xAFD DUP2 DUP5 PUSH2 0x1E2C JUMP JUMPDEST SWAP1 POP PUSH2 0xAAF DUP2 PUSH2 0x1E38 JUMP JUMPDEST PUSH1 0x0 DUP1 PUSH2 0xB15 CALLER DUP6 PUSH2 0xD7E JUMP JUMPDEST SWAP1 POP DUP1 DUP4 LT PUSH2 0xB2F JUMPI PUSH2 0xB2A CALLER DUP6 PUSH1 0x0 PUSH2 0xF60 JUMP JUMPDEST PUSH2 0xB3C JUMP JUMPDEST PUSH2 0xB3C CALLER DUP6 DUP6 DUP5 SUB PUSH2 0xF60 JUMP JUMPDEST POP PUSH1 0x1 SWAP4 SWAP3 POP POP POP JUMP JUMPDEST PUSH1 0x0 PUSH2 0x57A CALLER DUP5 DUP5 PUSH2 0x1257 JUMP JUMPDEST PUSH1 0x0 PUSH2 0x5D1 PUSH2 0x1E5E JUMP JUMPDEST PUSH1 0x0 PUSH1 0x60 PUSH2 0xB69 PUSH2 0x996 JUMP JUMPDEST PUSH1 0x1 PUSH1 0x1 PUSH1 0xA0 SHL SUB AND PUSH4 0xF94D4668 PUSH2 0xB7F PUSH2 0x678 JUMP JUMPDEST PUSH1 0x40 MLOAD DUP3 PUSH4 0xFFFFFFFF AND PUSH1 0xE0 SHL DUP2 MSTORE PUSH1 0x4 ADD PUSH2 0xB9B SWAP2 SWAP1 PUSH2 0x498A JUMP JUMPDEST PUSH1 0x0 PUSH1 0x40 MLOAD DUP1 DUP4 SUB DUP2 DUP7 DUP1 EXTCODESIZE ISZERO DUP1 ISZERO PUSH2 0xBB3 JUMPI PUSH1 0x0 DUP1 REVERT JUMPDEST POP GAS STATICCALL ISZERO DUP1 ISZERO PUSH2 0xBC7 JUMPI RETURNDATASIZE PUSH1 0x0 DUP1 RETURNDATACOPY RETURNDATASIZE PUSH1 0x0 REVERT JUMPDEST POP POP POP POP PUSH1 0x40 MLOAD RETURNDATASIZE PUSH1 0x0 DUP3 RETURNDATACOPY PUSH1 0x1F RETURNDATASIZE SWAP1 DUP2 ADD PUSH1 0x1F NOT AND DUP3 ADD PUSH1 0x40 MSTORE PUSH2 0xBEF SWAP2 SWAP1 DUP2 ADD SWAP1 PUSH2 0x4374 JUMP JUMPDEST POP SWAP2 POP POP PUSH2 0xC04 DUP2 PUSH2 0xBFF PUSH2 0x10D9 JUMP JUMPDEST PUSH2 0x1ED8 JUMP JUMPDEST PUSH1 0x60 PUSH2 0xC0E PUSH2 0x1F39 JUMP JUMPDEST POP SWAP1 POP PUSH2 0xC1B DUP2 DUP4 PUSH2 0x1FB7 JUMP JUMPDEST SWAP3 POP POP POP SWAP1 JUMP JUMPDEST PUSH2 0xC30 DUP5 TIMESTAMP GT ISZERO PUSH1 0xD1 PUSH2 0x1249 JUMP JUMPDEST PUSH1 0x1 PUSH1 0x1 PUSH1 0xA0 SHL SUB DUP8 AND PUSH1 0x0 SWAP1 DUP2 MSTORE PUSH1 0x6 PUSH1 0x20 SWAP1 DUP2 MSTORE PUSH1 0x40 DUP1 DUP4 KECCAK256 SLOAD SWAP1 MLOAD SWAP1 SWAP3 SWAP2 PUSH2 0xC87 SWAP2 PUSH32 0x0 SWAP2 DUP13 SWAP2 DUP13 SWAP2 DUP13 SWAP2 DUP9 SWAP2 DUP14 SWAP2 ADD PUSH2 0x49B2 JUMP JUMPDEST PUSH1 0x40 MLOAD PUSH1 0x20 DUP2 DUP4 SUB SUB DUP2 MSTORE SWAP1 PUSH1 0x40 MSTORE DUP1 MLOAD SWAP1 PUSH1 0x20 ADD KECCAK256 SWAP1 POP PUSH1 0x0 PUSH2 0xCAA DUP3 PUSH2 0x2029 JUMP JUMPDEST SWAP1 POP PUSH1 0x0 PUSH1 0x1 DUP3 DUP9 DUP9 DUP9 PUSH1 0x40 MLOAD PUSH1 0x0 DUP2 MSTORE PUSH1 0x20 ADD PUSH1 0x40 MSTORE PUSH1 0x40 MLOAD PUSH2 0xCD1 SWAP5 SWAP4 SWAP3 SWAP2 SWAP1 PUSH2 0x4A42 JUMP JUMPDEST PUSH1 0x20 PUSH1 0x40 MLOAD PUSH1 0x20 DUP2 SUB SWAP1 DUP1 DUP5 SUB SWAP1 DUP6 GAS STATICCALL ISZERO DUP1 ISZERO PUSH2 0xCF3 JUMPI RETURNDATASIZE PUSH1 0x0 DUP1 RETURNDATACOPY RETURNDATASIZE PUSH1 0x0 REVERT JUMPDEST POP POP PUSH1 0x40 MLOAD PUSH1 0x1F NOT ADD MLOAD SWAP2 POP PUSH2 0xD35 SWAP1 POP PUSH1 0x1 PUSH1 0x1 PUSH1 0xA0 SHL SUB DUP3 AND ISZERO DUP1 ISZERO SWAP1 PUSH2 0xD2D JUMPI POP DUP12 PUSH1 0x1 PUSH1 0x1 PUSH1 0xA0 SHL SUB AND DUP3 PUSH1 0x1 PUSH1 0x1 PUSH1 0xA0 SHL SUB AND EQ JUMPDEST PUSH2 0x1F8 PUSH2 0x1249 JUMP JUMPDEST PUSH1 0x1 PUSH1 0x1 PUSH1 0xA0 SHL SUB DUP12 AND PUSH1 0x0 SWAP1 DUP2 MSTORE PUSH1 0x6 PUSH1 0x20 MSTORE PUSH1 0x40 SWAP1 KECCAK256 PUSH1 0x1 DUP6 ADD SWAP1 SSTORE PUSH2 0xD5E DUP12 DUP12 DUP12 PUSH2 0xF60 JUMP JUMPDEST POP POP POP POP POP POP POP POP POP POP POP JUMP JUMPDEST PUSH1 0x60 DUP1 PUSH2 0x811 DUP10 DUP10 DUP10 DUP10 DUP10 PUSH1 0x0 DUP10 PUSH2 0x2045 JUMP JUMPDEST PUSH1 0x1 PUSH1 0x1 PUSH1 0xA0 SHL SUB SWAP2 DUP3 AND PUSH1 0x0 SWAP1 DUP2 MSTORE PUSH1 0x1 PUSH1 0x20 SWAP1 DUP2 MSTORE PUSH1 0x40 DUP1 DUP4 KECCAK256 SWAP4 SWAP1 SWAP5 AND DUP3 MSTORE SWAP2 SWAP1 SWAP2 MSTORE KECCAK256 SLOAD SWAP1 JUMP JUMPDEST PUSH2 0xDB1 PUSH2 0xFC8 JUMP JUMPDEST PUSH2 0xDB9 PUSH2 0x13D4 JUMP JUMPDEST PUSH2 0xDC1 PUSH2 0x1454 JUMP JUMPDEST PUSH2 0xDCA DUP2 PUSH2 0x2169 JUMP JUMPDEST PUSH2 0x595 PUSH2 0x16D0 JUMP JUMPDEST PUSH1 0x60 PUSH2 0x5D1 PUSH2 0x14A8 JUMP JUMPDEST DUP1 PUSH2 0x768 DUP2 PUSH2 0x21AB JUMP JUMPDEST PUSH2 0x768 DUP2 DUP4 EQ PUSH1 0x67 PUSH2 0x1249 JUMP JUMPDEST PUSH1 0x1 PUSH1 0x1 PUSH1 0x40 SHL SUB DUP2 SHL NOT SWAP3 SWAP1 SWAP3 AND SWAP2 SHL OR SWAP1 JUMP JUMPDEST PUSH1 0x0 PUSH2 0xE18 DUP4 DUP4 GT ISZERO PUSH1 0x1 PUSH2 0x1249 JUMP JUMPDEST POP SWAP1 SUB SWAP1 JUMP JUMPDEST PUSH1 0x0 PUSH2 0x57E PUSH8 0xDE0B6B3A7640000 PUSH2 0xE38 DUP5 PUSH2 0xFFFF PUSH2 0xEC7 JUMP JUMPDEST SWAP1 PUSH2 0xF15 JUMP JUMPDEST PUSH1 0x0 PUSH2 0x57E PUSH8 0xDE0B6B3A7640000 PUSH2 0xE38 DUP5 PUSH4 0x7FFFFFFF PUSH2 0xEC7 JUMP JUMPDEST PUSH4 0x7FFFFFFF DUP2 SHL NOT SWAP3 SWAP1 SWAP3 AND SWAP2 SHL OR SWAP1 JUMP JUMPDEST PUSH2 0xFFFF DUP2 SHL NOT SWAP3 SWAP1 SWAP3 AND SWAP2 SHL OR SWAP1 JUMP JUMPDEST PUSH1 0x0 DUP3 DUP3 ADD PUSH2 0x645 DUP5 DUP3 LT ISZERO DUP4 PUSH2 0x1249 JUMP JUMPDEST PUSH4 0xFFFFFFFF DUP2 SHL NOT SWAP3 SWAP1 SWAP3 AND SWAP2 SHL OR SWAP1 JUMP JUMPDEST PUSH1 0x0 PUSH1 0x1 DUP3 SHL NOT DUP5 AND DUP3 DUP5 PUSH2 0xEB6 JUMPI PUSH1 0x0 PUSH2 0xEB9 JUMP JUMPDEST PUSH1 0x1 JUMPDEST PUSH1 0xFF AND SWAP1 SHL OR SWAP5 SWAP4 POP POP POP POP JUMP JUMPDEST PUSH1 0x0 DUP3 DUP3 MUL PUSH2 0xEEB DUP5 ISZERO DUP1 PUSH2 0xEE4 JUMPI POP DUP4 DUP6 DUP4 DUP2 PUSH2 0xEE1 JUMPI INVALID JUMPDEST DIV EQ JUMPDEST PUSH1 0x3 PUSH2 0x1249 JUMP JUMPDEST DUP1 PUSH2 0xEFA JUMPI PUSH1 0x0 SWAP2 POP POP PUSH2 0x57E JUMP JUMPDEST PUSH8 0xDE0B6B3A7640000 PUSH1 0x0 NOT DUP3 ADD JUMPDEST DIV PUSH1 0x1 ADD SWAP2 POP POP PUSH2 0x57E JUMP JUMPDEST PUSH1 0x0 PUSH2 0xF24 DUP3 ISZERO ISZERO PUSH1 0x4 PUSH2 0x1249 JUMP JUMPDEST DUP3 PUSH2 0xF31 JUMPI POP PUSH1 0x0 PUSH2 0x57E JUMP JUMPDEST PUSH8 0xDE0B6B3A7640000 DUP4 DUP2 MUL SWAP1 PUSH2 0xF54 SWAP1 DUP6 DUP4 DUP2 PUSH2 0xF4B JUMPI INVALID JUMPDEST DIV EQ PUSH1 0x5 PUSH2 0x1249 JUMP JUMPDEST DUP3 PUSH1 0x1 DUP3 SUB DUP2 PUSH2 0xF09 JUMPI INVALID JUMPDEST PUSH1 0x1 PUSH1 0x1 PUSH1 0xA0 SHL SUB DUP1 DUP5 AND PUSH1 0x0 DUP2 DUP2 MSTORE PUSH1 0x1 PUSH1 0x20 SWAP1 DUP2 MSTORE PUSH1 0x40 DUP1 DUP4 KECCAK256 SWAP5 DUP8 AND DUP1 DUP5 MSTORE SWAP5 SWAP1 SWAP2 MSTORE SWAP1 DUP2 SWAP1 KECCAK256 DUP5 SWAP1 SSTORE MLOAD PUSH32 0x8C5BE1E5EBEC7D5BD14F71427D1E84F3DD0314C0F7B2291E5B200AC8C7C3B925 SWAP1 PUSH2 0xFBB SWAP1 DUP6 SWAP1 PUSH2 0x498A JUMP JUMPDEST PUSH1 0x40 MLOAD DUP1 SWAP2 SUB SWAP1 LOG3 POP POP POP JUMP JUMPDEST PUSH1 0x0 PUSH2 0xFDF PUSH1 0x0 CALLDATALOAD PUSH1 0x1 PUSH1 0x1 PUSH1 0xE0 SHL SUB NOT AND PUSH2 0x8FA JUMP JUMPDEST SWAP1 POP PUSH2 0x595 PUSH2 0xFEE DUP3 CALLER PUSH2 0x2224 JUMP JUMPDEST PUSH2 0x191 PUSH2 0x1249 JUMP JUMPDEST DUP1 ISZERO PUSH2 0x1016 JUMPI PUSH2 0x1011 PUSH2 0x1007 PUSH2 0x1091 JUMP JUMPDEST TIMESTAMP LT PUSH2 0x193 PUSH2 0x1249 JUMP JUMPDEST PUSH2 0x102B JUMP JUMPDEST PUSH2 0x102B PUSH2 0x1021 PUSH2 0x10B5 JUMP JUMPDEST TIMESTAMP LT PUSH2 0x1A9 PUSH2 0x1249 JUMP JUMPDEST PUSH1 0x7 DUP1 SLOAD PUSH1 0xFF NOT AND DUP3 ISZERO ISZERO OR SWAP1 SSTORE PUSH1 0x40 MLOAD PUSH32 0x9E3A5E37224532DEA67B89FACE185703738A228A6E8A23DEE546960180D3BE64 SWAP1 PUSH2 0x1069 SWAP1 DUP4 SWAP1 PUSH2 0x4967 JUMP JUMPDEST PUSH1 0x40 MLOAD DUP1 SWAP2 SUB SWAP1 LOG1 POP JUMP JUMPDEST PUSH1 0x0 PUSH2 0x107E PUSH2 0x10B5 JUMP JUMPDEST TIMESTAMP GT DUP1 PUSH2 0x5D1 JUMPI POP POP PUSH1 0x7 SLOAD PUSH1 0xFF AND ISZERO SWAP1 JUMP JUMPDEST PUSH32 0x0 SWAP1 JUMP JUMPDEST PUSH32 0x0 SWAP1 JUMP JUMPDEST PUSH1 0x60 PUSH1 0x0 PUSH2 0x10E5 PUSH2 0x146D JUMP JUMPDEST SWAP1 POP PUSH1 0x60 DUP2 PUSH1 0x1 PUSH1 0x1 PUSH1 0x40 SHL SUB DUP2 GT DUP1 ISZERO PUSH2 0x10FF JUMPI PUSH1 0x0 DUP1 REVERT JUMPDEST POP PUSH1 0x40 MLOAD SWAP1 DUP1 DUP3 MSTORE DUP1 PUSH1 0x20 MUL PUSH1 0x20 ADD DUP3 ADD PUSH1 0x40 MSTORE DUP1 ISZERO PUSH2 0x1129 JUMPI DUP2 PUSH1 0x20 ADD PUSH1 0x20 DUP3 MUL DUP1 CALLDATASIZE DUP4 CALLDATACOPY ADD SWAP1 POP JUMPDEST POP SWAP1 POP DUP2 ISZERO PUSH2 0x1171 JUMPI PUSH32 0x0 DUP2 PUSH1 0x0 DUP2 MLOAD DUP2 LT PUSH2 0x1160 JUMPI INVALID JUMPDEST PUSH1 0x20 MUL PUSH1 0x20 ADD ADD DUP2 DUP2 MSTORE POP POP PUSH2 0x117A JUMP JUMPDEST SWAP2 POP PUSH2 0x56A SWAP1 POP JUMP JUMPDEST PUSH1 0x1 DUP3 GT ISZERO PUSH2 0x1171 JUMPI PUSH32 0x0 DUP2 PUSH1 0x1 DUP2 MLOAD DUP2 LT PUSH2 0x11B1 JUMPI INVALID JUMPDEST PUSH1 0x20 MUL PUSH1 0x20 ADD ADD DUP2 DUP2 MSTORE POP POP PUSH1 0x2 DUP3 GT ISZERO PUSH2 0x1171 JUMPI PUSH32 0x0 DUP2 PUSH1 0x2 DUP2 MLOAD DUP2 LT PUSH2 0x11F4 JUMPI INVALID JUMPDEST PUSH1 0x20 MUL PUSH1 0x20 ADD ADD DUP2 DUP2 MSTORE POP POP PUSH1 0x3 DUP3 GT ISZERO PUSH2 0x1171 JUMPI PUSH32 0x0 DUP2 PUSH1 0x3 DUP2 MLOAD DUP2 LT PUSH2 0x1237 JUMPI INVALID JUMPDEST PUSH1 0x20 MUL PUSH1 0x20 ADD ADD DUP2 DUP2 MSTORE POP POP SWAP2 POP POP SWAP1 JUMP JUMPDEST DUP2 PUSH2 0x768 JUMPI PUSH2 0x768 DUP2 PUSH2 0x2314 JUMP JUMPDEST PUSH2 0x126E PUSH1 0x1 PUSH1 0x1 PUSH1 0xA0 SHL SUB DUP5 AND ISZERO ISZERO PUSH2 0x198 PUSH2 0x1249 JUMP JUMPDEST PUSH2 0x1285 PUSH1 0x1 PUSH1 0x1 PUSH1 0xA0 SHL SUB DUP4 AND ISZERO ISZERO PUSH2 0x199 PUSH2 0x1249 JUMP JUMPDEST PUSH2 0x1290 DUP4 DUP4 DUP4 PUSH2 0x739 JUMP JUMPDEST PUSH1 0x1 PUSH1 0x1 PUSH1 0xA0 SHL SUB DUP4 AND PUSH1 0x0 SWAP1 DUP2 MSTORE PUSH1 0x20 DUP2 SWAP1 MSTORE PUSH1 0x40 SWAP1 KECCAK256 SLOAD PUSH2 0x12B6 SWAP1 DUP3 PUSH2 0x1A0 PUSH2 0x2367 JUMP JUMPDEST PUSH1 0x1 PUSH1 0x1 PUSH1 0xA0 SHL SUB DUP1 DUP6 AND PUSH1 0x0 SWAP1 DUP2 MSTORE PUSH1 0x20 DUP2 SWAP1 MSTORE PUSH1 0x40 DUP1 DUP3 KECCAK256 SWAP4 SWAP1 SWAP4 SSTORE SWAP1 DUP5 AND DUP2 MSTORE KECCAK256 SLOAD PUSH2 0x12E5 SWAP1 DUP3 PUSH2 0xE7C JUMP JUMPDEST PUSH1 0x1 PUSH1 0x1 PUSH1 0xA0 SHL SUB DUP1 DUP5 AND PUSH1 0x0 DUP2 DUP2 MSTORE PUSH1 0x20 DUP2 SWAP1 MSTORE PUSH1 0x40 SWAP1 DUP2 SWAP1 KECCAK256 SWAP4 SWAP1 SWAP4 SSTORE SWAP2 MLOAD SWAP1 DUP6 AND SWAP1 PUSH32 0xDDF252AD1BE2C89B69C2B068FC378DAA952BA7F163C4A11628F55A4DF523B3EF SWAP1 PUSH2 0xFBB SWAP1 DUP6 SWAP1 PUSH2 0x498A JUMP JUMPDEST PUSH1 0x0 PUSH32 0x0 PUSH32 0x0 PUSH32 0x0 PUSH2 0x13A4 PUSH2 0x237D JUMP JUMPDEST ADDRESS PUSH1 0x40 MLOAD PUSH1 0x20 ADD PUSH2 0x13B9 SWAP6 SWAP5 SWAP4 SWAP3 SWAP2 SWAP1 PUSH2 0x49E6 JUMP JUMPDEST PUSH1 0x40 MLOAD PUSH1 0x20 DUP2 DUP4 SUB SUB DUP2 MSTORE SWAP1 PUSH1 0x40 MSTORE DUP1 MLOAD SWAP1 PUSH1 0x20 ADD KECCAK256 SWAP1 POP SWAP1 JUMP JUMPDEST PUSH2 0x13E7 PUSH2 0x13DF PUSH2 0x1074 JUMP JUMPDEST PUSH2 0x192 PUSH2 0x1249 JUMP JUMPDEST JUMP JUMPDEST PUSH2 0x13FC PUSH5 0xE8D4A51000 DUP3 LT ISZERO PUSH1 0xCB PUSH2 0x1249 JUMP JUMPDEST PUSH2 0x1412 PUSH8 0x16345785D8A0000 DUP3 GT ISZERO PUSH1 0xCA PUSH2 0x1249 JUMP JUMPDEST PUSH1 0x8 SLOAD PUSH2 0x1421 SWAP1 DUP3 PUSH1 0xC0 PUSH2 0xDF3 JUMP JUMPDEST PUSH1 0x8 SSTORE PUSH1 0x40 MLOAD PUSH32 0xA9BA3FFE0B6C366B81232CAAB38605A0699AD5398D6CCE76F91EE809E322DAFC SWAP1 PUSH2 0x1069 SWAP1 DUP4 SWAP1 PUSH2 0x498A JUMP JUMPDEST PUSH2 0x1466 PUSH1 0x2 PUSH1 0xA SLOAD EQ ISZERO PUSH2 0x190 PUSH2 0x1249 JUMP JUMPDEST PUSH1 0x2 PUSH1 0xA SSTORE JUMP JUMPDEST PUSH32 0x0 SWAP1 JUMP JUMPDEST PUSH1 0x0 DUP2 DUP4 LT ISZERO PUSH2 0x14A1 JUMPI DUP2 PUSH2 0x645 JUMP JUMPDEST POP SWAP1 SWAP2 SWAP1 POP JUMP JUMPDEST PUSH1 0x60 PUSH1 0x0 PUSH2 0x14B4 PUSH2 0x146D JUMP JUMPDEST SWAP1 POP PUSH1 0x60 DUP2 PUSH1 0x1 PUSH1 0x1 PUSH1 0x40 SHL SUB DUP2 GT DUP1 ISZERO PUSH2 0x14CE JUMPI PUSH1 0x0 DUP1 REVERT JUMPDEST POP PUSH1 0x40 MLOAD SWAP1 DUP1 DUP3 MSTORE DUP1 PUSH1 0x20 MUL PUSH1 0x20 ADD DUP3 ADD PUSH1 0x40 MSTORE DUP1 ISZERO PUSH2 0x14F8 JUMPI DUP2 PUSH1 0x20 ADD PUSH1 0x20 DUP3 MUL DUP1 CALLDATASIZE DUP4 CALLDATACOPY ADD SWAP1 POP JUMPDEST POP PUSH1 0xB SLOAD SWAP1 SWAP2 POP PUSH2 0x150A PUSH1 0x0 DUP3 PUSH2 0x2381 JUMP JUMPDEST DUP3 PUSH1 0x0 DUP2 MLOAD DUP2 LT PUSH2 0x1517 JUMPI INVALID JUMPDEST PUSH1 0x20 MUL PUSH1 0x20 ADD ADD DUP2 DUP2 MSTORE POP POP PUSH2 0x152E PUSH1 0x1 DUP3 PUSH2 0x2381 JUMP JUMPDEST DUP3 PUSH1 0x1 DUP2 MLOAD DUP2 LT PUSH2 0x153B JUMPI INVALID JUMPDEST PUSH1 0x20 MUL PUSH1 0x20 ADD ADD DUP2 DUP2 MSTORE POP POP DUP3 PUSH1 0x2 EQ ISZERO PUSH2 0x155A JUMPI POP SWAP2 POP PUSH2 0x56A SWAP1 POP JUMP JUMPDEST PUSH2 0x1565 PUSH1 0x2 DUP3 PUSH2 0x2381 JUMP JUMPDEST DUP3 PUSH1 0x2 DUP2 MLOAD DUP2 LT PUSH2 0x1572 JUMPI INVALID JUMPDEST PUSH1 0x20 MUL PUSH1 0x20 ADD ADD DUP2 DUP2 MSTORE POP POP DUP3 PUSH1 0x3 EQ ISZERO PUSH2 0x1591 JUMPI POP SWAP2 POP PUSH2 0x56A SWAP1 POP JUMP JUMPDEST PUSH2 0x159C PUSH1 0x3 DUP3 PUSH2 0x2381 JUMP JUMPDEST DUP3 PUSH1 0x3 DUP2 MLOAD DUP2 LT PUSH2 0x15A9 JUMPI INVALID JUMPDEST PUSH1 0x20 SWAP1 DUP2 MUL SWAP2 SWAP1 SWAP2 ADD ADD MSTORE POP SWAP2 POP POP SWAP1 JUMP JUMPDEST PUSH1 0xB SLOAD PUSH1 0x0 DUP1 JUMPDEST DUP4 MLOAD DUP2 LT ISZERO PUSH2 0x1657 JUMPI PUSH1 0x0 DUP5 DUP3 DUP2 MLOAD DUP2 LT PUSH2 0x15D9 JUMPI INVALID JUMPDEST PUSH1 0x20 MUL PUSH1 0x20 ADD ADD MLOAD SWAP1 POP PUSH2 0x15F9 PUSH7 0x2386F26FC10000 DUP3 LT ISZERO PUSH2 0x12E PUSH2 0x1249 JUMP JUMPDEST PUSH2 0x1640 PUSH2 0x1605 DUP3 PUSH2 0xE1E JUMP JUMPDEST DUP4 PUSH1 0x10 MUL PUSH1 0x80 ADD PUSH2 0x1639 PUSH2 0x162B DUP11 DUP8 DUP2 MLOAD DUP2 LT PUSH2 0x161E JUMPI INVALID JUMPDEST PUSH1 0x20 MUL PUSH1 0x20 ADD ADD MLOAD PUSH2 0xE3E JUMP JUMPDEST DUP9 SWAP1 PUSH1 0x4 PUSH1 0x1F DUP10 MUL ADD PUSH2 0xE5A JUMP JUMPDEST SWAP2 SWAP1 PUSH2 0xE6C JUMP JUMPDEST SWAP4 POP PUSH2 0x164C DUP4 DUP3 PUSH2 0xE7C JUMP JUMPDEST SWAP3 POP POP PUSH1 0x1 ADD PUSH2 0x15C2 JUMP JUMPDEST POP PUSH2 0x166E PUSH8 0xDE0B6B3A7640000 DUP3 EQ PUSH2 0x134 PUSH2 0x1249 JUMP JUMPDEST PUSH2 0x1687 DUP6 PUSH1 0xE0 PUSH2 0x1680 DUP6 DUP11 PUSH1 0xC0 PUSH2 0xE8E JUMP JUMPDEST SWAP2 SWAP1 PUSH2 0xE8E JUMP JUMPDEST PUSH1 0xB SSTORE PUSH1 0x40 MLOAD PUSH32 0xF3631F9DAB08169D1DB21C6DC5F32536FB2B0A6B9BB5330D71C52132F968BE0 SWAP1 PUSH2 0x16C0 SWAP1 DUP9 SWAP1 DUP9 SWAP1 DUP9 SWAP1 DUP9 SWAP1 PUSH2 0x4AAB JUMP JUMPDEST PUSH1 0x40 MLOAD DUP1 SWAP2 SUB SWAP1 LOG1 POP POP POP POP POP POP JUMP JUMPDEST PUSH1 0x1 PUSH1 0xA SSTORE JUMP JUMPDEST SHR PUSH1 0x1 SWAP1 DUP2 AND EQ SWAP1 JUMP JUMPDEST PUSH1 0x0 PUSH2 0x16EB PUSH2 0x678 JUMP JUMPDEST SWAP1 POP PUSH1 0x0 PUSH2 0x16F7 PUSH2 0x996 JUMP JUMPDEST PUSH1 0x1 PUSH1 0x1 PUSH1 0xA0 SHL SUB AND PUSH4 0xB05F8E48 DUP4 DUP7 PUSH1 0x40 MLOAD DUP4 PUSH4 0xFFFFFFFF AND PUSH1 0xE0 SHL DUP2 MSTORE PUSH1 0x4 ADD PUSH2 0x1724 SWAP3 SWAP2 SWAP1 PUSH2 0x4A2B JUMP JUMPDEST PUSH1 0x80 PUSH1 0x40 MLOAD DUP1 DUP4 SUB DUP2 DUP7 DUP1 EXTCODESIZE ISZERO DUP1 ISZERO PUSH2 0x173C JUMPI PUSH1 0x0 DUP1 REVERT JUMPDEST POP GAS STATICCALL ISZERO DUP1 ISZERO PUSH2 0x1750 JUMPI RETURNDATASIZE PUSH1 0x0 DUP1 RETURNDATACOPY RETURNDATASIZE PUSH1 0x0 REVERT JUMPDEST POP POP POP POP PUSH1 0x40 MLOAD RETURNDATASIZE PUSH1 0x1F NOT PUSH1 0x1F DUP3 ADD AND DUP3 ADD DUP1 PUSH1 0x40 MSTORE POP DUP2 ADD SWAP1 PUSH2 0x1774 SWAP2 SWAP1 PUSH2 0x4813 JUMP JUMPDEST PUSH1 0x40 MLOAD PUSH4 0x639CDB5 PUSH1 0xE2 SHL DUP2 MSTORE SWAP1 SWAP5 POP PUSH1 0x1 PUSH1 0x1 PUSH1 0xA0 SHL SUB DUP6 AND SWAP4 POP PUSH4 0x18E736D4 SWAP3 POP PUSH2 0x17A8 SWAP2 POP DUP6 SWAP1 DUP8 SWAP1 PUSH1 0x4 ADD PUSH2 0x4A12 JUMP JUMPDEST PUSH1 0x0 PUSH1 0x40 MLOAD DUP1 DUP4 SUB DUP2 PUSH1 0x0 DUP8 DUP1 EXTCODESIZE ISZERO DUP1 ISZERO PUSH2 0x17C2 JUMPI PUSH1 0x0 DUP1 REVERT JUMPDEST POP GAS CALL ISZERO DUP1 ISZERO PUSH2 0x17D6 JUMPI RETURNDATASIZE PUSH1 0x0 DUP1 RETURNDATACOPY RETURNDATASIZE PUSH1 0x0 REVERT JUMPDEST POP POP POP POP POP POP POP POP JUMP JUMPDEST SHR PUSH1 0x1 PUSH1 0x1 PUSH1 0x40 SHL SUB AND SWAP1 JUMP JUMPDEST PUSH1 0x0 PUSH1 0x60 DUP1 PUSH1 0x60 PUSH1 0x0 PUSH2 0x17FE PUSH2 0x1F39 JUMP JUMPDEST SWAP2 POP SWAP2 POP PUSH2 0x180A PUSH2 0x1074 JUMP JUMPDEST ISZERO PUSH2 0x1842 JUMPI PUSH1 0x0 PUSH2 0x181B DUP4 DUP13 PUSH2 0x1FB7 JUMP JUMPDEST SWAP1 POP PUSH2 0x182D DUP12 DUP5 DUP5 PUSH1 0x9 SLOAD DUP6 DUP15 PUSH2 0x23D7 JUMP JUMPDEST SWAP4 POP PUSH2 0x183C DUP12 DUP6 PUSH2 0xE08 PUSH2 0x2485 JUMP JUMPDEST POP PUSH2 0x188D JUMP JUMPDEST PUSH2 0x184A PUSH2 0x146D JUMP JUMPDEST PUSH1 0x1 PUSH1 0x1 PUSH1 0x40 SHL SUB DUP2 GT DUP1 ISZERO PUSH2 0x185F JUMPI PUSH1 0x0 DUP1 REVERT JUMPDEST POP PUSH1 0x40 MLOAD SWAP1 DUP1 DUP3 MSTORE DUP1 PUSH1 0x20 MUL PUSH1 0x20 ADD DUP3 ADD PUSH1 0x40 MSTORE DUP1 ISZERO PUSH2 0x1889 JUMPI DUP2 PUSH1 0x20 ADD PUSH1 0x20 DUP3 MUL DUP1 CALLDATASIZE DUP4 CALLDATACOPY ADD SWAP1 POP JUMPDEST POP SWAP3 POP JUMPDEST PUSH2 0x1899 DUP11 DUP4 DUP10 DUP10 PUSH2 0x24F0 JUMP JUMPDEST SWAP1 SWAP6 POP SWAP4 POP PUSH2 0x18A9 DUP11 DUP6 DUP5 PUSH2 0x255F JUMP JUMPDEST PUSH1 0x9 SSTORE POP POP SWAP9 POP SWAP9 POP SWAP9 SWAP6 POP POP POP POP POP POP JUMP JUMPDEST PUSH1 0x0 JUMPDEST PUSH2 0x18C7 PUSH2 0x146D JUMP JUMPDEST DUP2 LT ISZERO PUSH2 0x739 JUMPI PUSH2 0x18FE DUP4 DUP3 DUP2 MLOAD DUP2 LT PUSH2 0x18DD JUMPI INVALID JUMPDEST PUSH1 0x20 MUL PUSH1 0x20 ADD ADD MLOAD DUP4 DUP4 DUP2 MLOAD DUP2 LT PUSH2 0x18F1 JUMPI INVALID JUMPDEST PUSH1 0x20 MUL PUSH1 0x20 ADD ADD MLOAD PUSH2 0x1A5A JUMP JUMPDEST DUP4 DUP3 DUP2 MLOAD DUP2 LT PUSH2 0x190A JUMPI INVALID JUMPDEST PUSH1 0x20 SWAP1 DUP2 MUL SWAP2 SWAP1 SWAP2 ADD ADD MSTORE PUSH1 0x1 ADD PUSH2 0x18BF JUMP JUMPDEST CALLER ADDRESS EQ PUSH2 0x19DB JUMPI PUSH1 0x0 ADDRESS PUSH1 0x1 PUSH1 0x1 PUSH1 0xA0 SHL SUB AND PUSH1 0x0 CALLDATASIZE PUSH1 0x40 MLOAD PUSH2 0x1941 SWAP3 SWAP2 SWAP1 PUSH2 0x48F0 JUMP JUMPDEST PUSH1 0x0 PUSH1 0x40 MLOAD DUP1 DUP4 SUB DUP2 PUSH1 0x0 DUP7 GAS CALL SWAP2 POP POP RETURNDATASIZE DUP1 PUSH1 0x0 DUP2 EQ PUSH2 0x197E JUMPI PUSH1 0x40 MLOAD SWAP2 POP PUSH1 0x1F NOT PUSH1 0x3F RETURNDATASIZE ADD AND DUP3 ADD PUSH1 0x40 MSTORE RETURNDATASIZE DUP3 MSTORE RETURNDATASIZE PUSH1 0x0 PUSH1 0x20 DUP5 ADD RETURNDATACOPY PUSH2 0x1983 JUMP JUMPDEST PUSH1 0x60 SWAP2 POP JUMPDEST POP POP SWAP1 POP DUP1 PUSH1 0x0 DUP2 EQ PUSH2 0x1992 JUMPI INVALID JUMPDEST PUSH1 0x4 PUSH1 0x0 DUP1 RETURNDATACOPY PUSH1 0x0 MLOAD PUSH1 0x1 PUSH1 0x1 PUSH1 0xE0 SHL SUB NOT AND PUSH4 0x43ADBAFB PUSH1 0xE0 SHL DUP2 EQ PUSH2 0x19BD JUMPI RETURNDATASIZE PUSH1 0x0 DUP1 RETURNDATACOPY RETURNDATASIZE PUSH1 0x0 REVERT JUMPDEST POP PUSH1 0x20 PUSH1 0x4 PUSH1 0x0 RETURNDATACOPY PUSH1 0x40 PUSH1 0x20 MSTORE PUSH1 0x24 RETURNDATASIZE SUB PUSH1 0x24 PUSH1 0x40 RETURNDATACOPY PUSH1 0x1C RETURNDATASIZE ADD PUSH1 0x0 RETURN JUMPDEST PUSH1 0x60 PUSH2 0x19E5 PUSH2 0x10D9 JUMP JUMPDEST SWAP1 POP PUSH2 0x19F1 DUP8 DUP3 PUSH2 0x1ED8 JUMP JUMPDEST PUSH1 0x0 PUSH1 0x60 PUSH2 0x1A09 DUP13 DUP13 DUP13 DUP13 DUP13 DUP13 DUP10 DUP14 DUP14 PUSH4 0xFFFFFFFF AND JUMP JUMPDEST POP SWAP2 POP SWAP2 POP PUSH2 0x1A1C DUP2 DUP5 DUP7 PUSH4 0xFFFFFFFF AND JUMP JUMPDEST DUP1 MLOAD PUSH1 0x1F NOT DUP3 ADD DUP4 SWAP1 MSTORE PUSH4 0x43ADBAFB PUSH1 0x3F NOT DUP4 ADD MSTORE PUSH1 0x20 MUL PUSH1 0x23 NOT DUP3 ADD PUSH1 0x44 DUP3 ADD DUP2 REVERT JUMPDEST PUSH1 0x0 DUP3 DUP3 MUL PUSH2 0x645 DUP5 ISZERO DUP1 PUSH2 0xEE4 JUMPI POP DUP4 DUP6 DUP4 DUP2 PUSH2 0xEE1 JUMPI INVALID JUMPDEST PUSH1 0x0 PUSH2 0x1A69 DUP3 ISZERO ISZERO PUSH1 0x4 PUSH2 0x1249 JUMP JUMPDEST DUP3 PUSH2 0x1A76 JUMPI POP PUSH1 0x0 PUSH2 0x57E JUMP JUMPDEST PUSH8 0xDE0B6B3A7640000 DUP4 DUP2 MUL SWAP1 PUSH2 0x1A90 SWAP1 DUP6 DUP4 DUP2 PUSH2 0xF4B JUMPI INVALID JUMPDEST DUP3 DUP2 DUP2 PUSH2 0x1A99 JUMPI INVALID JUMPDEST DIV SWAP2 POP POP PUSH2 0x57E JUMP JUMPDEST PUSH1 0x60 DUP1 DUP9 PUSH2 0x1ACC PUSH2 0x1AB1 PUSH2 0x996 JUMP JUMPDEST PUSH1 0x1 PUSH1 0x1 PUSH1 0xA0 SHL SUB AND CALLER PUSH1 0x1 PUSH1 0x1 PUSH1 0xA0 SHL SUB AND EQ PUSH1 0xCD PUSH2 0x1249 JUMP JUMPDEST PUSH2 0x1AE1 PUSH2 0x1AD7 PUSH2 0x678 JUMP JUMPDEST DUP3 EQ PUSH2 0x1F4 PUSH2 0x1249 JUMP JUMPDEST PUSH1 0x60 PUSH2 0x1AEB PUSH2 0x10D9 JUMP JUMPDEST SWAP1 POP PUSH2 0x1AF7 DUP9 DUP3 PUSH2 0x1ED8 JUMP JUMPDEST PUSH1 0x0 PUSH1 0x60 DUP1 PUSH2 0x1B0C DUP15 DUP15 DUP15 DUP15 DUP15 DUP15 DUP11 DUP16 PUSH2 0x17ED JUMP JUMPDEST SWAP3 POP SWAP3 POP SWAP3 POP PUSH2 0x1B1C DUP14 DUP5 PUSH2 0x2578 JUMP JUMPDEST PUSH2 0x1B26 DUP3 DUP6 PUSH2 0x18BC JUMP JUMPDEST PUSH2 0x1B30 DUP2 DUP6 PUSH2 0x18BC JUMP JUMPDEST SWAP1 SWAP6 POP SWAP4 POP POP POP JUMPDEST POP SWAP8 POP SWAP8 SWAP6 POP POP POP POP POP POP JUMP JUMPDEST SHR PUSH4 0xFFFFFFFF AND SWAP1 JUMP JUMPDEST SHR PUSH2 0xFFFF AND SWAP1 JUMP JUMPDEST PUSH1 0x0 PUSH2 0x57E PUSH2 0xFFFF PUSH2 0xE38 DUP5 PUSH8 0xDE0B6B3A7640000 PUSH2 0xEC7 JUMP JUMPDEST PUSH1 0x0 PUSH1 0x60 DUP1 PUSH2 0x1B9D PUSH2 0x1B81 PUSH2 0x972 JUMP JUMPDEST PUSH1 0x1 PUSH1 0x1 PUSH1 0xA0 SHL SUB AND DUP12 PUSH1 0x1 PUSH1 0x1 PUSH1 0xA0 SHL SUB AND EQ PUSH2 0x148 PUSH2 0x1249 JUMP JUMPDEST PUSH2 0x1BAD DUP12 DUP12 DUP12 DUP12 DUP12 DUP12 DUP12 DUP12 PUSH2 0x2582 JUMP JUMPDEST SWAP3 POP SWAP3 POP SWAP3 POP SWAP9 POP SWAP9 POP SWAP9 SWAP6 POP POP POP POP POP POP JUMP JUMPDEST PUSH1 0x0 JUMPDEST PUSH2 0x1BCC PUSH2 0x146D JUMP JUMPDEST DUP2 LT ISZERO PUSH2 0x739 JUMPI PUSH2 0x1C03 DUP4 DUP3 DUP2 MLOAD DUP2 LT PUSH2 0x1BE2 JUMPI INVALID JUMPDEST PUSH1 0x20 MUL PUSH1 0x20 ADD ADD MLOAD DUP4 DUP4 DUP2 MLOAD DUP2 LT PUSH2 0x1BF6 JUMPI INVALID JUMPDEST PUSH1 0x20 MUL PUSH1 0x20 ADD ADD MLOAD PUSH2 0xF15 JUMP JUMPDEST DUP4 DUP3 DUP2 MLOAD DUP2 LT PUSH2 0x1C0F JUMPI INVALID JUMPDEST PUSH1 0x20 SWAP1 DUP2 MUL SWAP2 SWAP1 SWAP2 ADD ADD MSTORE PUSH1 0x1 ADD PUSH2 0x1BC4 JUMP JUMPDEST PUSH1 0x0 PUSH32 0x0 PUSH1 0x1 PUSH1 0x1 PUSH1 0xA0 SHL SUB AND DUP3 PUSH1 0x1 PUSH1 0x1 PUSH1 0xA0 SHL SUB AND EQ ISZERO PUSH2 0x1C85 JUMPI POP PUSH32 0x0 PUSH2 0x7F9 JUMP JUMPDEST PUSH32 0x0 PUSH1 0x1 PUSH1 0x1 PUSH1 0xA0 SHL SUB AND DUP3 PUSH1 0x1 PUSH1 0x1 PUSH1 0xA0 SHL SUB AND EQ ISZERO PUSH2 0x1CE6 JUMPI POP PUSH32 0x0 PUSH2 0x7F9 JUMP JUMPDEST PUSH32 0x0 PUSH1 0x1 PUSH1 0x1 PUSH1 0xA0 SHL SUB AND DUP3 PUSH1 0x1 PUSH1 0x1 PUSH1 0xA0 SHL SUB AND EQ ISZERO PUSH2 0x1D47 JUMPI POP PUSH32 0x0 PUSH2 0x7F9 JUMP JUMPDEST PUSH32 0x0 PUSH1 0x1 PUSH1 0x1 PUSH1 0xA0 SHL SUB AND DUP3 PUSH1 0x1 PUSH1 0x1 PUSH1 0xA0 SHL SUB AND EQ ISZERO PUSH2 0x1DA8 JUMPI POP PUSH32 0x0 PUSH2 0x7F9 JUMP JUMPDEST PUSH2 0x7F9 PUSH2 0x135 PUSH2 0x2314 JUMP JUMPDEST PUSH1 0x0 DUP1 PUSH2 0x1DC8 PUSH2 0x1DC1 PUSH2 0x76C JUMP JUMPDEST DUP5 SWAP1 PUSH2 0xEC7 JUMP JUMPDEST SWAP1 POP PUSH2 0x645 DUP4 DUP3 PUSH2 0xE08 JUMP JUMPDEST PUSH1 0x0 PUSH2 0x645 DUP4 DUP4 PUSH2 0x2608 JUMP JUMPDEST PUSH1 0x0 PUSH2 0x1DF5 PUSH2 0x1DED PUSH2 0x73E JUMP JUMPDEST PUSH2 0x147 PUSH2 0x1249 JUMP JUMPDEST PUSH2 0x1E00 DUP5 DUP5 DUP5 PUSH2 0x2634 JUMP JUMPDEST SWAP5 SWAP4 POP POP POP POP JUMP JUMPDEST PUSH1 0x0 PUSH2 0x645 DUP4 DUP4 PUSH2 0x1A5A JUMP JUMPDEST PUSH1 0x0 PUSH2 0x1E21 PUSH2 0x1DED PUSH2 0x73E JUMP JUMPDEST PUSH2 0x1E00 DUP5 DUP5 DUP5 PUSH2 0x2667 JUMP JUMPDEST PUSH1 0x0 PUSH2 0x645 DUP4 DUP4 PUSH2 0xF15 JUMP JUMPDEST PUSH1 0x0 PUSH2 0x57E PUSH2 0x1E57 PUSH2 0x1E48 PUSH2 0x76C JUMP JUMPDEST PUSH8 0xDE0B6B3A7640000 SWAP1 PUSH2 0xE08 JUMP JUMPDEST DUP4 SWAP1 PUSH2 0xF15 JUMP JUMPDEST PUSH1 0x0 PUSH2 0x1E68 PUSH2 0x996 JUMP JUMPDEST PUSH1 0x1 PUSH1 0x1 PUSH1 0xA0 SHL SUB AND PUSH4 0xAAABADC5 PUSH1 0x40 MLOAD DUP2 PUSH4 0xFFFFFFFF AND PUSH1 0xE0 SHL DUP2 MSTORE PUSH1 0x4 ADD PUSH1 0x20 PUSH1 0x40 MLOAD DUP1 DUP4 SUB DUP2 DUP7 DUP1 EXTCODESIZE ISZERO DUP1 ISZERO PUSH2 0x1EA0 JUMPI PUSH1 0x0 DUP1 REVERT JUMPDEST POP GAS STATICCALL ISZERO DUP1 ISZERO PUSH2 0x1EB4 JUMPI RETURNDATASIZE PUSH1 0x0 DUP1 RETURNDATACOPY RETURNDATASIZE PUSH1 0x0 REVERT JUMPDEST POP POP POP POP PUSH1 0x40 MLOAD RETURNDATASIZE PUSH1 0x1F NOT PUSH1 0x1F DUP3 ADD AND DUP3 ADD DUP1 PUSH1 0x40 MSTORE POP DUP2 ADD SWAP1 PUSH2 0x5D1 SWAP2 SWAP1 PUSH2 0x4541 JUMP JUMPDEST PUSH1 0x0 JUMPDEST PUSH2 0x1EE3 PUSH2 0x146D JUMP JUMPDEST DUP2 LT ISZERO PUSH2 0x739 JUMPI PUSH2 0x1F1A DUP4 DUP3 DUP2 MLOAD DUP2 LT PUSH2 0x1EF9 JUMPI INVALID JUMPDEST PUSH1 0x20 MUL PUSH1 0x20 ADD ADD MLOAD DUP4 DUP4 DUP2 MLOAD DUP2 LT PUSH2 0x1F0D JUMPI INVALID JUMPDEST PUSH1 0x20 MUL PUSH1 0x20 ADD ADD MLOAD PUSH2 0x2608 JUMP JUMPDEST DUP4 DUP3 DUP2 MLOAD DUP2 LT PUSH2 0x1F26 JUMPI INVALID JUMPDEST PUSH1 0x20 SWAP1 DUP2 MUL SWAP2 SWAP1 SWAP2 ADD ADD MSTORE PUSH1 0x1 ADD PUSH2 0x1EDB JUMP JUMPDEST PUSH1 0x60 PUSH1 0x0 PUSH2 0x1F45 PUSH2 0x14A8 JUMP JUMPDEST SWAP2 POP PUSH1 0x0 SWAP1 POP PUSH1 0x0 DUP3 PUSH1 0x0 DUP2 MLOAD DUP2 LT PUSH2 0x1F5A JUMPI INVALID JUMPDEST PUSH1 0x20 MUL PUSH1 0x20 ADD ADD MLOAD SWAP1 POP PUSH1 0x0 PUSH1 0x1 SWAP1 POP JUMPDEST DUP4 MLOAD DUP2 LT ISZERO PUSH2 0x1FB1 JUMPI DUP2 DUP5 DUP3 DUP2 MLOAD DUP2 LT PUSH2 0x1F81 JUMPI INVALID JUMPDEST PUSH1 0x20 MUL PUSH1 0x20 ADD ADD MLOAD GT ISZERO PUSH2 0x1FA9 JUMPI DUP1 SWAP3 POP DUP4 DUP2 DUP2 MLOAD DUP2 LT PUSH2 0x1F9E JUMPI INVALID JUMPDEST PUSH1 0x20 MUL PUSH1 0x20 ADD ADD MLOAD SWAP2 POP JUMPDEST PUSH1 0x1 ADD PUSH2 0x1F6B JUMP JUMPDEST POP POP SWAP1 SWAP2 JUMP JUMPDEST PUSH8 0xDE0B6B3A7640000 PUSH1 0x0 JUMPDEST DUP4 MLOAD DUP2 LT ISZERO PUSH2 0x2019 JUMPI PUSH2 0x200F PUSH2 0x2008 DUP6 DUP4 DUP2 MLOAD DUP2 LT PUSH2 0x1FDE JUMPI INVALID JUMPDEST PUSH1 0x20 MUL PUSH1 0x20 ADD ADD MLOAD DUP6 DUP5 DUP2 MLOAD DUP2 LT PUSH2 0x1FF2 JUMPI INVALID JUMPDEST PUSH1 0x20 MUL PUSH1 0x20 ADD ADD MLOAD PUSH2 0x269A SWAP1 SWAP2 SWAP1 PUSH4 0xFFFFFFFF AND JUMP JUMPDEST DUP4 SWAP1 PUSH2 0x2608 JUMP JUMPDEST SWAP2 POP PUSH1 0x1 ADD PUSH2 0x1FC3 JUMP JUMPDEST POP PUSH2 0x57E PUSH1 0x0 DUP3 GT PUSH2 0x137 PUSH2 0x1249 JUMP JUMPDEST PUSH1 0x0 PUSH2 0x2033 PUSH2 0x1337 JUMP JUMPDEST DUP3 PUSH1 0x40 MLOAD PUSH1 0x20 ADD PUSH2 0x92F SWAP3 SWAP2 SWAP1 PUSH2 0x4900 JUMP JUMPDEST PUSH1 0x60 DUP1 DUP9 PUSH2 0x2054 PUSH2 0x1AB1 PUSH2 0x996 JUMP JUMPDEST PUSH2 0x205F PUSH2 0x1AD7 PUSH2 0x678 JUMP JUMPDEST PUSH1 0x60 PUSH2 0x2069 PUSH2 0x10D9 JUMP JUMPDEST SWAP1 POP PUSH2 0x2073 PUSH2 0x598 JUMP JUMPDEST PUSH2 0x2119 JUMPI PUSH1 0x0 PUSH1 0x60 PUSH2 0x2088 DUP14 DUP14 DUP14 DUP7 DUP12 PUSH2 0x26E9 JUMP JUMPDEST SWAP2 POP SWAP2 POP PUSH2 0x209D PUSH3 0xF4240 DUP4 LT ISZERO PUSH1 0xCC PUSH2 0x1249 JUMP JUMPDEST PUSH2 0x20AB PUSH1 0x0 PUSH3 0xF4240 PUSH2 0x272F JUMP JUMPDEST PUSH2 0x20BA DUP12 PUSH3 0xF4240 DUP5 SUB PUSH2 0x272F JUMP JUMPDEST PUSH2 0x20C4 DUP2 DUP5 PUSH2 0x1BC1 JUMP JUMPDEST DUP1 PUSH2 0x20CD PUSH2 0x146D JUMP JUMPDEST PUSH1 0x1 PUSH1 0x1 PUSH1 0x40 SHL SUB DUP2 GT DUP1 ISZERO PUSH2 0x20E2 JUMPI PUSH1 0x0 DUP1 REVERT JUMPDEST POP PUSH1 0x40 MLOAD SWAP1 DUP1 DUP3 MSTORE DUP1 PUSH1 0x20 MUL PUSH1 0x20 ADD DUP3 ADD PUSH1 0x40 MSTORE DUP1 ISZERO PUSH2 0x210C JUMPI DUP2 PUSH1 0x20 ADD PUSH1 0x20 DUP3 MUL DUP1 CALLDATASIZE DUP4 CALLDATACOPY ADD SWAP1 POP JUMPDEST POP SWAP6 POP SWAP6 POP POP POP POP PUSH2 0x1B38 JUMP JUMPDEST PUSH2 0x2123 DUP9 DUP3 PUSH2 0x1ED8 JUMP JUMPDEST PUSH1 0x0 PUSH1 0x60 DUP1 PUSH2 0x2138 DUP15 DUP15 DUP15 DUP15 DUP15 DUP15 DUP11 DUP16 PUSH2 0x1B71 JUMP JUMPDEST SWAP3 POP SWAP3 POP SWAP3 POP PUSH2 0x2148 DUP13 DUP5 PUSH2 0x272F JUMP JUMPDEST PUSH2 0x2152 DUP3 DUP6 PUSH2 0x1BC1 JUMP JUMPDEST PUSH2 0x215C DUP2 DUP6 PUSH2 0x18BC JUMP JUMPDEST SWAP1 SWAP6 POP SWAP4 POP PUSH2 0x1B38 SWAP2 POP POP JUMP JUMPDEST PUSH1 0xB SLOAD PUSH2 0x2178 SWAP1 DUP3 PUSH1 0x0 PUSH2 0xEA0 JUMP JUMPDEST PUSH1 0xB SSTORE PUSH1 0x40 MLOAD PUSH32 0x5A9E84F78F7957CB4ED7478EB0FCAD35EE4ECBE2E0F298420B28A3955392573F SWAP1 PUSH2 0x1069 SWAP1 DUP4 SWAP1 PUSH2 0x4967 JUMP JUMPDEST PUSH1 0x2 DUP2 MLOAD LT ISZERO PUSH2 0x21BA JUMPI PUSH2 0x595 JUMP JUMPDEST PUSH1 0x0 DUP2 PUSH1 0x0 DUP2 MLOAD DUP2 LT PUSH2 0x21C9 JUMPI INVALID JUMPDEST PUSH1 0x20 MUL PUSH1 0x20 ADD ADD MLOAD SWAP1 POP PUSH1 0x0 PUSH1 0x1 SWAP1 POP JUMPDEST DUP3 MLOAD DUP2 LT ISZERO PUSH2 0x739 JUMPI PUSH1 0x0 DUP4 DUP3 DUP2 MLOAD DUP2 LT PUSH2 0x21F1 JUMPI INVALID JUMPDEST PUSH1 0x20 MUL PUSH1 0x20 ADD ADD MLOAD SWAP1 POP PUSH2 0x221A DUP2 PUSH1 0x1 PUSH1 0x1 PUSH1 0xA0 SHL SUB AND DUP5 PUSH1 0x1 PUSH1 0x1 PUSH1 0xA0 SHL SUB AND LT PUSH1 0x65 PUSH2 0x1249 JUMP JUMPDEST SWAP2 POP PUSH1 0x1 ADD PUSH2 0x21DA JUMP JUMPDEST PUSH1 0x0 PUSH20 0xBA1BA1BA1BA1BA1BA1BA1BA1BA1BA1BA1BA1BA1B PUSH2 0x2243 PUSH2 0x972 JUMP JUMPDEST PUSH1 0x1 PUSH1 0x1 PUSH1 0xA0 SHL SUB AND EQ ISZERO DUP1 ISZERO PUSH2 0x225E JUMPI POP PUSH2 0x225E DUP4 PUSH2 0x2739 JUMP JUMPDEST ISZERO PUSH2 0x2286 JUMPI PUSH2 0x226B PUSH2 0x972 JUMP JUMPDEST PUSH1 0x1 PUSH1 0x1 PUSH1 0xA0 SHL SUB AND CALLER PUSH1 0x1 PUSH1 0x1 PUSH1 0xA0 SHL SUB AND EQ SWAP1 POP PUSH2 0x57E JUMP JUMPDEST PUSH2 0x228E PUSH2 0x1E5E JUMP JUMPDEST PUSH1 0x1 PUSH1 0x1 PUSH1 0xA0 SHL SUB AND PUSH4 0x9BE2A884 DUP5 DUP5 ADDRESS PUSH1 0x40 MLOAD DUP5 PUSH4 0xFFFFFFFF AND PUSH1 0xE0 SHL DUP2 MSTORE PUSH1 0x4 ADD PUSH2 0x22BD SWAP4 SWAP3 SWAP2 SWAP1 PUSH2 0x4993 JUMP JUMPDEST PUSH1 0x20 PUSH1 0x40 MLOAD DUP1 DUP4 SUB DUP2 DUP7 DUP1 EXTCODESIZE ISZERO DUP1 ISZERO PUSH2 0x22D5 JUMPI PUSH1 0x0 DUP1 REVERT JUMPDEST POP GAS STATICCALL ISZERO DUP1 ISZERO PUSH2 0x22E9 JUMPI RETURNDATASIZE PUSH1 0x0 DUP1 RETURNDATACOPY RETURNDATASIZE PUSH1 0x0 REVERT JUMPDEST POP POP POP POP PUSH1 0x40 MLOAD RETURNDATASIZE PUSH1 0x1F NOT PUSH1 0x1F DUP3 ADD AND DUP3 ADD DUP1 PUSH1 0x40 MSTORE POP DUP2 ADD SWAP1 PUSH2 0x230D SWAP2 SWAP1 PUSH2 0x445B JUMP JUMPDEST SWAP1 POP PUSH2 0x57E JUMP JUMPDEST PUSH3 0x461BCD PUSH1 0xE5 SHL PUSH1 0x0 SWAP1 DUP2 MSTORE PUSH1 0x20 PUSH1 0x4 MSTORE PUSH1 0x7 PUSH1 0x24 MSTORE PUSH7 0x42414C23000030 PUSH1 0xA DUP1 DUP5 DIV DUP2 DUP2 MOD PUSH1 0x30 SWAP1 DUP2 ADD PUSH1 0x8 SHL SWAP6 DUP4 SWAP1 MOD SWAP6 SWAP1 SWAP6 ADD SWAP1 DUP3 SWAP1 DIV SWAP2 DUP3 MOD SWAP1 SWAP5 ADD PUSH1 0x10 SHL SWAP4 SWAP1 SWAP4 ADD ADD PUSH1 0xC8 SHL PUSH1 0x44 MSTORE PUSH1 0x64 SWAP1 REVERT JUMPDEST PUSH1 0x0 PUSH2 0x2376 DUP5 DUP5 GT ISZERO DUP4 PUSH2 0x1249 JUMP JUMPDEST POP POP SWAP1 SUB SWAP1 JUMP JUMPDEST CHAINID SWAP1 JUMP JUMPDEST PUSH1 0x0 DUP1 PUSH2 0x239C PUSH2 0x2397 DUP5 PUSH1 0x4 PUSH1 0x1F DUP9 MUL ADD PUSH2 0x2775 JUMP JUMPDEST PUSH2 0x277F JUMP JUMPDEST SWAP1 POP PUSH1 0x0 PUSH2 0x23B3 PUSH2 0x8B3 DUP6 PUSH1 0x80 PUSH1 0x10 DUP10 MUL ADD PUSH2 0x1B4F JUMP JUMPDEST SWAP1 POP PUSH1 0x0 PUSH2 0x23C0 DUP6 PUSH2 0x279B JUMP JUMPDEST SWAP1 POP PUSH2 0x23CD DUP4 DUP4 DUP4 PUSH2 0x281A JUMP JUMPDEST SWAP7 SWAP6 POP POP POP POP POP POP JUMP JUMPDEST PUSH1 0x60 DUP1 PUSH2 0x23E2 PUSH2 0x146D JUMP JUMPDEST PUSH1 0x1 PUSH1 0x1 PUSH1 0x40 SHL SUB DUP2 GT DUP1 ISZERO PUSH2 0x23F7 JUMPI PUSH1 0x0 DUP1 REVERT JUMPDEST POP PUSH1 0x40 MLOAD SWAP1 DUP1 DUP3 MSTORE DUP1 PUSH1 0x20 MUL PUSH1 0x20 ADD DUP3 ADD PUSH1 0x40 MSTORE DUP1 ISZERO PUSH2 0x2421 JUMPI DUP2 PUSH1 0x20 ADD PUSH1 0x20 DUP3 MUL DUP1 CALLDATASIZE DUP4 CALLDATACOPY ADD SWAP1 POP JUMPDEST POP SWAP1 POP DUP3 PUSH2 0x2430 JUMPI SWAP1 POP PUSH2 0x23CD JUMP JUMPDEST PUSH2 0x2463 DUP9 DUP8 DUP2 MLOAD DUP2 LT PUSH2 0x243F JUMPI INVALID JUMPDEST PUSH1 0x20 MUL PUSH1 0x20 ADD ADD MLOAD DUP9 DUP9 DUP2 MLOAD DUP2 LT PUSH2 0x2453 JUMPI INVALID JUMPDEST PUSH1 0x20 MUL PUSH1 0x20 ADD ADD MLOAD DUP8 DUP8 DUP8 PUSH2 0x288E JUMP JUMPDEST DUP2 DUP8 DUP2 MLOAD DUP2 LT PUSH2 0x246F JUMPI INVALID JUMPDEST PUSH1 0x20 SWAP1 DUP2 MUL SWAP2 SWAP1 SWAP2 ADD ADD MSTORE SWAP8 SWAP7 POP POP POP POP POP POP POP JUMP JUMPDEST PUSH1 0x0 JUMPDEST PUSH2 0x2490 PUSH2 0x146D JUMP JUMPDEST DUP2 LT ISZERO PUSH2 0x24EA JUMPI PUSH2 0x24CB DUP5 DUP3 DUP2 MLOAD DUP2 LT PUSH2 0x24A6 JUMPI INVALID JUMPDEST PUSH1 0x20 MUL PUSH1 0x20 ADD ADD MLOAD DUP5 DUP4 DUP2 MLOAD DUP2 LT PUSH2 0x24BA JUMPI INVALID JUMPDEST PUSH1 0x20 MUL PUSH1 0x20 ADD ADD MLOAD DUP5 PUSH4 0xFFFFFFFF AND JUMP JUMPDEST DUP5 DUP3 DUP2 MLOAD DUP2 LT PUSH2 0x24D7 JUMPI INVALID JUMPDEST PUSH1 0x20 SWAP1 DUP2 MUL SWAP2 SWAP1 SWAP2 ADD ADD MSTORE PUSH1 0x1 ADD PUSH2 0x2488 JUMP JUMPDEST POP POP POP POP JUMP JUMPDEST PUSH1 0x0 PUSH1 0x60 PUSH1 0x0 PUSH2 0x24FF DUP5 PUSH2 0x2916 JUMP JUMPDEST SWAP1 POP PUSH1 0x0 DUP2 PUSH1 0x2 DUP2 GT ISZERO PUSH2 0x250F JUMPI INVALID JUMPDEST EQ ISZERO PUSH2 0x252A JUMPI PUSH2 0x2520 DUP8 DUP8 DUP7 PUSH2 0x292C JUMP JUMPDEST SWAP3 POP SWAP3 POP POP PUSH2 0x2556 JUMP JUMPDEST PUSH1 0x1 DUP2 PUSH1 0x2 DUP2 GT ISZERO PUSH2 0x2538 JUMPI INVALID JUMPDEST EQ ISZERO PUSH2 0x2548 JUMPI PUSH2 0x2520 DUP8 DUP6 PUSH2 0x2A0E JUMP JUMPDEST PUSH2 0x2520 DUP8 DUP8 DUP8 DUP8 PUSH2 0x2A40 JUMP JUMPDEST POP JUMPDEST SWAP5 POP SWAP5 SWAP3 POP POP POP JUMP JUMPDEST PUSH1 0x0 PUSH2 0x256E DUP5 DUP5 PUSH2 0xE08 PUSH2 0x2485 JUMP JUMPDEST PUSH2 0x1E00 DUP3 DUP6 PUSH2 0x1FB7 JUMP JUMPDEST PUSH2 0x768 DUP3 DUP3 PUSH2 0x2AAF JUMP JUMPDEST PUSH1 0x0 PUSH1 0x60 DUP1 PUSH2 0x258F PUSH2 0x13D4 JUMP JUMPDEST PUSH1 0x60 PUSH1 0x0 PUSH2 0x259B PUSH2 0x1F39 JUMP JUMPDEST SWAP2 POP SWAP2 POP PUSH1 0x0 PUSH2 0x25AB DUP4 DUP13 PUSH2 0x1FB7 JUMP JUMPDEST SWAP1 POP PUSH1 0x60 PUSH2 0x25BF DUP13 DUP6 DUP6 PUSH1 0x9 SLOAD DUP7 DUP16 PUSH2 0x23D7 JUMP JUMPDEST SWAP1 POP PUSH2 0x25CE DUP13 DUP3 PUSH2 0xE08 PUSH2 0x2485 JUMP JUMPDEST PUSH1 0x0 PUSH1 0x60 PUSH2 0x25DE DUP15 DUP8 DUP14 DUP14 PUSH2 0x2B6B JUMP JUMPDEST SWAP2 POP SWAP2 POP PUSH2 0x25ED DUP15 DUP3 DUP9 PUSH2 0x2BC6 JUMP JUMPDEST PUSH1 0x9 SSTORE SWAP1 SWAP8 POP SWAP6 POP SWAP4 POP POP POP POP SWAP9 POP SWAP9 POP SWAP9 SWAP6 POP POP POP POP POP POP JUMP JUMPDEST PUSH1 0x0 DUP3 DUP3 MUL PUSH2 0x2622 DUP5 ISZERO DUP1 PUSH2 0xEE4 JUMPI POP DUP4 DUP6 DUP4 DUP2 PUSH2 0xEE1 JUMPI INVALID JUMPDEST PUSH8 0xDE0B6B3A7640000 SWAP1 DIV SWAP4 SWAP3 POP POP POP JUMP JUMPDEST PUSH1 0x0 PUSH2 0x263E PUSH2 0x13D4 JUMP JUMPDEST PUSH2 0x1E00 DUP4 PUSH2 0x264F DUP7 PUSH1 0x20 ADD MLOAD PUSH2 0x2BD5 JUMP JUMPDEST DUP5 PUSH2 0x265D DUP9 PUSH1 0x40 ADD MLOAD PUSH2 0x2BD5 JUMP JUMPDEST DUP9 PUSH1 0x60 ADD MLOAD PUSH2 0x2CF7 JUMP JUMPDEST PUSH1 0x0 PUSH2 0x2671 PUSH2 0x13D4 JUMP JUMPDEST PUSH2 0x1E00 DUP4 PUSH2 0x2682 DUP7 PUSH1 0x20 ADD MLOAD PUSH2 0x2BD5 JUMP JUMPDEST DUP5 PUSH2 0x2690 DUP9 PUSH1 0x40 ADD MLOAD PUSH2 0x2BD5 JUMP JUMPDEST DUP9 PUSH1 0x60 ADD MLOAD PUSH2 0x2D64 JUMP JUMPDEST PUSH1 0x0 DUP1 PUSH2 0x26A7 DUP5 DUP5 PUSH2 0x2DDA JUMP JUMPDEST SWAP1 POP PUSH1 0x0 PUSH2 0x26C1 PUSH2 0x26BA DUP4 PUSH2 0x2710 PUSH2 0xEC7 JUMP JUMPDEST PUSH1 0x1 PUSH2 0xE7C JUMP JUMPDEST SWAP1 POP DUP1 DUP3 LT ISZERO PUSH2 0x26D6 JUMPI PUSH1 0x0 SWAP3 POP POP POP PUSH2 0x57E JUMP JUMPDEST PUSH2 0x26E0 DUP3 DUP3 PUSH2 0xE08 JUMP JUMPDEST SWAP3 POP POP POP PUSH2 0x57E JUMP JUMPDEST PUSH1 0x0 PUSH1 0x60 PUSH2 0x2714 PUSH2 0x26F8 PUSH2 0x972 JUMP JUMPDEST PUSH1 0x1 PUSH1 0x1 PUSH1 0xA0 SHL SUB AND DUP8 PUSH1 0x1 PUSH1 0x1 PUSH1 0xA0 SHL SUB AND EQ PUSH2 0x148 PUSH2 0x1249 JUMP JUMPDEST PUSH2 0x2721 DUP8 DUP8 DUP8 DUP8 DUP8 PUSH2 0x2EDB JUMP JUMPDEST SWAP2 POP SWAP2 POP SWAP6 POP SWAP6 SWAP4 POP POP POP POP JUMP JUMPDEST PUSH2 0x768 DUP3 DUP3 PUSH2 0x2F6F JUMP JUMPDEST PUSH1 0x0 PUSH2 0x274B PUSH4 0x3806BE4B PUSH1 0xE2 SHL PUSH2 0x8FA JUMP JUMPDEST DUP3 EQ DUP1 PUSH2 0x2766 JUMPI POP PUSH2 0x2763 PUSH4 0x3E569205 PUSH1 0xE0 SHL PUSH2 0x8FA JUMP JUMPDEST DUP3 EQ JUMPDEST DUP1 PUSH2 0x57E JUMPI POP PUSH2 0x57E DUP3 PUSH2 0x2FFD JUMP JUMPDEST SHR PUSH4 0x7FFFFFFF AND SWAP1 JUMP JUMPDEST PUSH1 0x0 PUSH2 0x57E PUSH4 0x7FFFFFFF PUSH2 0xE38 DUP5 PUSH8 0xDE0B6B3A7640000 PUSH2 0xEC7 JUMP JUMPDEST PUSH1 0x0 TIMESTAMP DUP2 PUSH2 0x27AA DUP5 PUSH1 0xC0 PUSH2 0x1B45 JUMP JUMPDEST SWAP1 POP PUSH1 0x0 PUSH2 0x27B9 DUP6 PUSH1 0xE0 PUSH2 0x1B45 JUMP JUMPDEST SWAP1 POP DUP1 DUP4 GT ISZERO PUSH2 0x27D6 JUMPI PUSH8 0xDE0B6B3A7640000 SWAP4 POP POP POP POP PUSH2 0x7F9 JUMP JUMPDEST DUP2 DUP4 LT ISZERO PUSH2 0x27EA JUMPI PUSH1 0x0 SWAP4 POP POP POP POP PUSH2 0x7F9 JUMP JUMPDEST DUP2 DUP2 SUB DUP3 DUP5 SUB DUP2 ISZERO PUSH2 0x2805 JUMPI PUSH2 0x2800 DUP2 DUP4 PUSH2 0x1A5A JUMP JUMPDEST PUSH2 0x280F JUMP JUMPDEST PUSH8 0xDE0B6B3A7640000 JUMPDEST SWAP8 SWAP7 POP POP POP POP POP POP POP JUMP JUMPDEST PUSH1 0x0 DUP2 ISZERO DUP1 PUSH2 0x2828 JUMPI POP DUP3 DUP5 EQ JUMPDEST ISZERO PUSH2 0x2834 JUMPI POP DUP3 PUSH2 0x645 JUMP JUMPDEST PUSH8 0xDE0B6B3A7640000 DUP3 LT PUSH2 0x284A JUMPI POP DUP2 PUSH2 0x645 JUMP JUMPDEST DUP3 DUP5 GT ISZERO PUSH2 0x2874 JUMPI PUSH1 0x0 PUSH2 0x2860 DUP4 DUP6 DUP8 SUB PUSH2 0x2608 JUMP JUMPDEST SWAP1 POP PUSH2 0x286C DUP6 DUP3 PUSH2 0xE08 JUMP JUMPDEST SWAP2 POP POP PUSH2 0x645 JUMP JUMPDEST PUSH1 0x0 PUSH2 0x2882 DUP4 DUP7 DUP7 SUB PUSH2 0x2608 JUMP JUMPDEST SWAP1 POP PUSH2 0x286C DUP6 DUP3 PUSH2 0xE7C JUMP JUMPDEST PUSH1 0x0 DUP4 DUP4 GT PUSH2 0x289F JUMPI POP PUSH1 0x0 PUSH2 0x290D JUMP JUMPDEST PUSH1 0x0 PUSH2 0x28AB DUP6 DUP6 PUSH2 0xF15 JUMP JUMPDEST SWAP1 POP PUSH1 0x0 PUSH2 0x28C1 PUSH8 0xDE0B6B3A7640000 DUP9 PUSH2 0x1A5A JUMP JUMPDEST SWAP1 POP PUSH2 0x28D5 DUP3 PUSH8 0x9B6E64A8EC60000 PUSH2 0x1491 JUMP JUMPDEST SWAP2 POP PUSH1 0x0 PUSH2 0x28E3 DUP4 DUP4 PUSH2 0x302F JUMP JUMPDEST SWAP1 POP PUSH1 0x0 PUSH2 0x28FA PUSH2 0x28F3 DUP4 PUSH2 0x305B JUMP JUMPDEST DUP12 SWAP1 PUSH2 0x2608 JUMP JUMPDEST SWAP1 POP PUSH2 0x2906 DUP2 DUP8 PUSH2 0x2608 JUMP JUMPDEST SWAP5 POP POP POP POP POP JUMPDEST SWAP6 SWAP5 POP POP POP POP POP JUMP JUMPDEST PUSH1 0x0 DUP2 DUP1 PUSH1 0x20 ADD SWAP1 MLOAD DUP2 ADD SWAP1 PUSH2 0x57E SWAP2 SWAP1 PUSH2 0x45AA JUMP JUMPDEST PUSH1 0x0 PUSH1 0x60 PUSH2 0x2938 PUSH2 0x13D4 JUMP JUMPDEST PUSH1 0x0 DUP1 PUSH2 0x2944 DUP6 PUSH2 0x3081 JUMP JUMPDEST SWAP2 POP SWAP2 POP PUSH2 0x295C PUSH2 0x2953 PUSH2 0x146D JUMP JUMPDEST DUP3 LT PUSH1 0x64 PUSH2 0x1249 JUMP JUMPDEST PUSH1 0x60 PUSH2 0x2966 PUSH2 0x146D JUMP JUMPDEST PUSH1 0x1 PUSH1 0x1 PUSH1 0x40 SHL SUB DUP2 GT DUP1 ISZERO PUSH2 0x297B JUMPI PUSH1 0x0 DUP1 REVERT JUMPDEST POP PUSH1 0x40 MLOAD SWAP1 DUP1 DUP3 MSTORE DUP1 PUSH1 0x20 MUL PUSH1 0x20 ADD DUP3 ADD PUSH1 0x40 MSTORE DUP1 ISZERO PUSH2 0x29A5 JUMPI DUP2 PUSH1 0x20 ADD PUSH1 0x20 DUP3 MUL DUP1 CALLDATASIZE DUP4 CALLDATACOPY ADD SWAP1 POP JUMPDEST POP SWAP1 POP PUSH2 0x29E9 DUP9 DUP4 DUP2 MLOAD DUP2 LT PUSH2 0x29B7 JUMPI INVALID JUMPDEST PUSH1 0x20 MUL PUSH1 0x20 ADD ADD MLOAD DUP9 DUP5 DUP2 MLOAD DUP2 LT PUSH2 0x29CB JUMPI INVALID JUMPDEST PUSH1 0x20 MUL PUSH1 0x20 ADD ADD MLOAD DUP6 PUSH2 0x29DC PUSH2 0x598 JUMP JUMPDEST PUSH2 0x29E4 PUSH2 0x76C JUMP JUMPDEST PUSH2 0x30A3 JUMP JUMPDEST DUP2 DUP4 DUP2 MLOAD DUP2 LT PUSH2 0x29F5 JUMPI INVALID JUMPDEST PUSH1 0x20 SWAP1 DUP2 MUL SWAP2 SWAP1 SWAP2 ADD ADD MSTORE SWAP2 SWAP8 SWAP2 SWAP7 POP SWAP1 SWAP5 POP POP POP POP POP JUMP JUMPDEST PUSH1 0x0 PUSH1 0x60 PUSH1 0x0 PUSH2 0x2A1D DUP5 PUSH2 0x3163 JUMP JUMPDEST SWAP1 POP PUSH1 0x60 PUSH2 0x2A33 DUP7 DUP4 PUSH2 0x2A2E PUSH2 0x598 JUMP JUMPDEST PUSH2 0x3179 JUMP JUMPDEST SWAP2 SWAP7 SWAP2 SWAP6 POP SWAP1 SWAP4 POP POP POP POP JUMP JUMPDEST PUSH1 0x0 PUSH1 0x60 PUSH2 0x2A4C PUSH2 0x13D4 JUMP JUMPDEST PUSH1 0x60 PUSH1 0x0 PUSH2 0x2A59 DUP6 PUSH2 0x322A JUMP JUMPDEST SWAP2 POP SWAP2 POP PUSH2 0x2A6A DUP3 MLOAD PUSH2 0x78E PUSH2 0x146D JUMP JUMPDEST PUSH2 0x2A74 DUP3 DUP8 PUSH2 0x1ED8 JUMP JUMPDEST PUSH1 0x0 PUSH2 0x2A91 DUP10 DUP10 DUP6 PUSH2 0x2A84 PUSH2 0x598 JUMP JUMPDEST PUSH2 0x2A8C PUSH2 0x76C JUMP JUMPDEST PUSH2 0x3242 JUMP JUMPDEST SWAP1 POP PUSH2 0x2AA1 DUP3 DUP3 GT ISZERO PUSH1 0xCF PUSH2 0x1249 JUMP JUMPDEST SWAP9 SWAP2 SWAP8 POP SWAP1 SWAP6 POP POP POP POP POP POP JUMP JUMPDEST PUSH2 0x2AC6 PUSH1 0x1 PUSH1 0x1 PUSH1 0xA0 SHL SUB DUP4 AND ISZERO ISZERO PUSH2 0x19B PUSH2 0x1249 JUMP JUMPDEST PUSH2 0x2AD2 DUP3 PUSH1 0x0 DUP4 PUSH2 0x739 JUMP JUMPDEST PUSH1 0x1 PUSH1 0x1 PUSH1 0xA0 SHL SUB DUP3 AND PUSH1 0x0 SWAP1 DUP2 MSTORE PUSH1 0x20 DUP2 SWAP1 MSTORE PUSH1 0x40 SWAP1 KECCAK256 SLOAD PUSH2 0x2AF8 SWAP1 DUP3 PUSH2 0x1A1 PUSH2 0x2367 JUMP JUMPDEST PUSH1 0x1 PUSH1 0x1 PUSH1 0xA0 SHL SUB DUP4 AND PUSH1 0x0 SWAP1 DUP2 MSTORE PUSH1 0x20 DUP2 SWAP1 MSTORE PUSH1 0x40 SWAP1 KECCAK256 SSTORE PUSH1 0x2 SLOAD PUSH2 0x2B1E SWAP1 DUP3 PUSH2 0x346F JUMP JUMPDEST PUSH1 0x2 SSTORE PUSH1 0x40 MLOAD PUSH1 0x0 SWAP1 PUSH1 0x1 PUSH1 0x1 PUSH1 0xA0 SHL SUB DUP5 AND SWAP1 PUSH32 0xDDF252AD1BE2C89B69C2B068FC378DAA952BA7F163C4A11628F55A4DF523B3EF SWAP1 PUSH2 0x2B5F SWAP1 DUP6 SWAP1 PUSH2 0x498A JUMP JUMPDEST PUSH1 0x40 MLOAD DUP1 SWAP2 SUB SWAP1 LOG3 POP POP JUMP JUMPDEST PUSH1 0x0 PUSH1 0x60 PUSH1 0x0 PUSH2 0x2B7A DUP5 PUSH2 0x2916 JUMP JUMPDEST SWAP1 POP PUSH1 0x1 DUP2 PUSH1 0x2 DUP2 GT ISZERO PUSH2 0x2B8A JUMPI INVALID JUMPDEST EQ ISZERO PUSH2 0x2B9C JUMPI PUSH2 0x2520 DUP8 DUP8 DUP8 DUP8 PUSH2 0x347D JUMP JUMPDEST PUSH1 0x2 DUP2 PUSH1 0x2 DUP2 GT ISZERO PUSH2 0x2BAA JUMPI INVALID JUMPDEST EQ ISZERO PUSH2 0x2BBB JUMPI PUSH2 0x2520 DUP8 DUP8 DUP7 PUSH2 0x34DA JUMP JUMPDEST PUSH2 0x2554 PUSH2 0x136 PUSH2 0x2314 JUMP JUMPDEST PUSH1 0x0 PUSH2 0x256E DUP5 DUP5 PUSH2 0xE7C PUSH2 0x2485 JUMP JUMPDEST PUSH1 0x0 DUP1 PUSH32 0x0 PUSH1 0x1 PUSH1 0x1 PUSH1 0xA0 SHL SUB AND DUP4 PUSH1 0x1 PUSH1 0x1 PUSH1 0xA0 SHL SUB AND EQ ISZERO PUSH2 0x2C1A JUMPI POP PUSH1 0x0 PUSH2 0x2CEB JUMP JUMPDEST PUSH32 0x0 PUSH1 0x1 PUSH1 0x1 PUSH1 0xA0 SHL SUB AND DUP4 PUSH1 0x1 PUSH1 0x1 PUSH1 0xA0 SHL SUB AND EQ ISZERO PUSH2 0x2C5C JUMPI POP PUSH1 0x1 PUSH2 0x2CEB JUMP JUMPDEST PUSH32 0x0 PUSH1 0x1 PUSH1 0x1 PUSH1 0xA0 SHL SUB AND DUP4 PUSH1 0x1 PUSH1 0x1 PUSH1 0xA0 SHL SUB AND EQ ISZERO PUSH2 0x2C9E JUMPI POP PUSH1 0x2 PUSH2 0x2CEB JUMP JUMPDEST PUSH32 0x0 PUSH1 0x1 PUSH1 0x1 PUSH1 0xA0 SHL SUB AND DUP4 PUSH1 0x1 PUSH1 0x1 PUSH1 0xA0 SHL SUB AND EQ ISZERO PUSH2 0x2CE0 JUMPI POP PUSH1 0x3 PUSH2 0x2CEB JUMP JUMPDEST PUSH2 0x2CEB PUSH2 0x135 PUSH2 0x2314 JUMP JUMPDEST PUSH2 0x645 DUP2 PUSH1 0xB SLOAD PUSH2 0x2381 JUMP JUMPDEST PUSH1 0x0 PUSH2 0x2D19 PUSH2 0x2D0E DUP8 PUSH8 0x429D069189E0000 PUSH2 0x2608 JUMP JUMPDEST DUP4 GT ISZERO PUSH2 0x130 PUSH2 0x1249 JUMP JUMPDEST PUSH1 0x0 PUSH2 0x2D25 DUP8 DUP5 PUSH2 0xE7C JUMP JUMPDEST SWAP1 POP PUSH1 0x0 PUSH2 0x2D33 DUP9 DUP4 PUSH2 0xF15 JUMP JUMPDEST SWAP1 POP PUSH1 0x0 PUSH2 0x2D41 DUP9 DUP8 PUSH2 0x1A5A JUMP JUMPDEST SWAP1 POP PUSH1 0x0 PUSH2 0x2D4F DUP4 DUP4 PUSH2 0x302F JUMP JUMPDEST SWAP1 POP PUSH2 0x2906 PUSH2 0x2D5D DUP3 PUSH2 0x305B JUMP JUMPDEST DUP10 SWAP1 PUSH2 0x2608 JUMP JUMPDEST PUSH1 0x0 PUSH2 0x2D86 PUSH2 0x2D7B DUP6 PUSH8 0x429D069189E0000 PUSH2 0x2608 JUMP JUMPDEST DUP4 GT ISZERO PUSH2 0x131 PUSH2 0x1249 JUMP JUMPDEST PUSH1 0x0 PUSH2 0x2D9C PUSH2 0x2D95 DUP7 DUP6 PUSH2 0xE08 JUMP JUMPDEST DUP7 SWAP1 PUSH2 0xF15 JUMP JUMPDEST SWAP1 POP PUSH1 0x0 PUSH2 0x2DAA DUP6 DUP9 PUSH2 0xF15 JUMP JUMPDEST SWAP1 POP PUSH1 0x0 PUSH2 0x2DB8 DUP4 DUP4 PUSH2 0x302F JUMP JUMPDEST SWAP1 POP PUSH1 0x0 PUSH2 0x2DCE DUP3 PUSH8 0xDE0B6B3A7640000 PUSH2 0xE08 JUMP JUMPDEST SWAP1 POP PUSH2 0x2906 DUP11 DUP3 PUSH2 0xEC7 JUMP JUMPDEST PUSH1 0x0 DUP2 PUSH2 0x2DF0 JUMPI POP PUSH8 0xDE0B6B3A7640000 PUSH2 0x57E JUMP JUMPDEST DUP3 PUSH2 0x2DFD JUMPI POP PUSH1 0x0 PUSH2 0x57E JUMP JUMPDEST PUSH2 0x2E0E PUSH1 0x1 PUSH1 0xFF SHL DUP5 LT PUSH1 0x6 PUSH2 0x1249 JUMP JUMPDEST DUP3 PUSH2 0x2E34 PUSH24 0xBCE5086492111AEA88F4BB1CA6BCF584181EA8059F76532 DUP5 LT PUSH1 0x7 PUSH2 0x1249 JUMP JUMPDEST DUP3 PUSH1 0x0 PUSH8 0xC7D713B49DA0000 DUP4 SGT DUP1 ISZERO PUSH2 0x2E55 JUMPI POP PUSH8 0xF43FC2C04EE0000 DUP4 SLT JUMPDEST ISZERO PUSH2 0x2E8C JUMPI PUSH1 0x0 PUSH2 0x2E65 DUP5 PUSH2 0x3586 JUMP JUMPDEST SWAP1 POP PUSH8 0xDE0B6B3A7640000 DUP1 DUP3 SMOD DUP5 MUL SDIV DUP4 PUSH8 0xDE0B6B3A7640000 DUP4 SDIV MUL ADD SWAP2 POP POP PUSH2 0x2E9A JUMP JUMPDEST DUP2 PUSH2 0x2E96 DUP5 PUSH2 0x36A4 JUMP JUMPDEST MUL SWAP1 POP JUMPDEST PUSH8 0xDE0B6B3A7640000 SWAP1 SDIV PUSH2 0x2ED2 PUSH9 0x238FD42C5CF03FFFF NOT DUP3 SLT DUP1 ISZERO SWAP1 PUSH2 0x2ECB JUMPI POP PUSH9 0x70C1CC73B00C80000 DUP3 SGT ISZERO JUMPDEST PUSH1 0x8 PUSH2 0x1249 JUMP JUMPDEST PUSH2 0x23CD DUP2 PUSH2 0x3A43 JUMP JUMPDEST PUSH1 0x0 PUSH1 0x60 PUSH2 0x2EE7 PUSH2 0x13D4 JUMP JUMPDEST PUSH1 0x0 PUSH2 0x2EF2 DUP5 PUSH2 0x2916 JUMP JUMPDEST SWAP1 POP PUSH2 0x2F0D PUSH1 0x0 DUP3 PUSH1 0x2 DUP2 GT ISZERO PUSH2 0x2F05 JUMPI INVALID JUMPDEST EQ PUSH1 0xCE PUSH2 0x1249 JUMP JUMPDEST PUSH1 0x60 PUSH2 0x2F18 DUP6 PUSH2 0x3E20 JUMP JUMPDEST SWAP1 POP PUSH2 0x2F25 PUSH2 0x6FA PUSH2 0x146D JUMP JUMPDEST PUSH2 0x2F2F DUP2 DUP8 PUSH2 0x1ED8 JUMP JUMPDEST PUSH1 0x60 PUSH2 0x2F39 PUSH2 0x1F39 JUMP JUMPDEST POP SWAP1 POP PUSH1 0x0 PUSH2 0x2F48 DUP3 DUP5 PUSH2 0x1FB7 JUMP JUMPDEST SWAP1 POP PUSH1 0x0 PUSH2 0x2F58 DUP3 PUSH2 0x7D4 PUSH2 0x146D JUMP JUMPDEST PUSH1 0x9 SWAP3 SWAP1 SWAP3 SSTORE POP SWAP11 SWAP2 SWAP10 POP SWAP1 SWAP8 POP POP POP POP POP POP POP POP JUMP JUMPDEST PUSH2 0x2F7B PUSH1 0x0 DUP4 DUP4 PUSH2 0x739 JUMP JUMPDEST PUSH1 0x2 SLOAD PUSH2 0x2F88 SWAP1 DUP3 PUSH2 0xE7C JUMP JUMPDEST PUSH1 0x2 SSTORE PUSH1 0x1 PUSH1 0x1 PUSH1 0xA0 SHL SUB DUP3 AND PUSH1 0x0 SWAP1 DUP2 MSTORE PUSH1 0x20 DUP2 SWAP1 MSTORE PUSH1 0x40 SWAP1 KECCAK256 SLOAD PUSH2 0x2FAE SWAP1 DUP3 PUSH2 0xE7C JUMP JUMPDEST PUSH1 0x1 PUSH1 0x1 PUSH1 0xA0 SHL SUB DUP4 AND PUSH1 0x0 DUP2 DUP2 MSTORE PUSH1 0x20 DUP2 SWAP1 MSTORE PUSH1 0x40 DUP1 DUP3 KECCAK256 SWAP4 SWAP1 SWAP4 SSTORE SWAP2 MLOAD SWAP1 SWAP2 SWAP1 PUSH32 0xDDF252AD1BE2C89B69C2B068FC378DAA952BA7F163C4A11628F55A4DF523B3EF SWAP1 PUSH2 0x2B5F SWAP1 DUP6 SWAP1 PUSH2 0x498A JUMP JUMPDEST PUSH1 0x0 PUSH2 0x300F PUSH4 0x1C74C917 PUSH1 0xE1 SHL PUSH2 0x8FA JUMP JUMPDEST DUP3 EQ DUP1 PUSH2 0x57E JUMPI POP PUSH2 0x3027 PUSH4 0x50DD6ED9 PUSH1 0xE0 SHL PUSH2 0x8FA JUMP JUMPDEST SWAP1 SWAP2 EQ SWAP2 SWAP1 POP JUMP JUMPDEST PUSH1 0x0 DUP1 PUSH2 0x303C DUP5 DUP5 PUSH2 0x2DDA JUMP JUMPDEST SWAP1 POP PUSH1 0x0 PUSH2 0x304F PUSH2 0x26BA DUP4 PUSH2 0x2710 PUSH2 0xEC7 JUMP JUMPDEST SWAP1 POP PUSH2 0x290D DUP3 DUP3 PUSH2 0xE7C JUMP JUMPDEST PUSH1 0x0 PUSH8 0xDE0B6B3A7640000 DUP3 LT PUSH2 0x3073 JUMPI PUSH1 0x0 PUSH2 0x57E JUMP JUMPDEST POP PUSH8 0xDE0B6B3A7640000 SUB SWAP1 JUMP JUMPDEST PUSH1 0x0 DUP1 DUP3 DUP1 PUSH1 0x20 ADD SWAP1 MLOAD DUP2 ADD SWAP1 PUSH2 0x3098 SWAP2 SWAP1 PUSH2 0x4639 JUMP JUMPDEST SWAP1 SWAP6 SWAP1 SWAP5 POP SWAP3 POP POP POP JUMP JUMPDEST PUSH1 0x0 DUP1 PUSH2 0x30B4 DUP5 PUSH2 0xE38 DUP2 DUP9 PUSH2 0xE08 JUMP JUMPDEST SWAP1 POP PUSH2 0x30CD PUSH8 0x9B6E64A8EC60000 DUP3 LT ISZERO PUSH2 0x132 PUSH2 0x1249 JUMP JUMPDEST PUSH1 0x0 PUSH2 0x30EB PUSH2 0x30E4 PUSH8 0xDE0B6B3A7640000 DUP10 PUSH2 0x1A5A JUMP JUMPDEST DUP4 SWAP1 PUSH2 0x302F JUMP JUMPDEST SWAP1 POP PUSH1 0x0 PUSH2 0x3102 PUSH2 0x30FB DUP4 PUSH2 0x305B JUMP JUMPDEST DUP11 SWAP1 PUSH2 0x2608 JUMP JUMPDEST SWAP1 POP PUSH1 0x0 PUSH2 0x310F DUP10 PUSH2 0x305B JUMP JUMPDEST SWAP1 POP PUSH1 0x0 PUSH2 0x311D DUP4 DUP4 PUSH2 0xEC7 JUMP JUMPDEST SWAP1 POP PUSH1 0x0 PUSH2 0x312B DUP5 DUP4 PUSH2 0xE08 JUMP JUMPDEST SWAP1 POP PUSH2 0x3153 PUSH2 0x314C PUSH2 0x3145 PUSH8 0xDE0B6B3A7640000 DUP12 PUSH2 0xE08 JUMP JUMPDEST DUP5 SWAP1 PUSH2 0x2608 JUMP JUMPDEST DUP3 SWAP1 PUSH2 0xE7C JUMP JUMPDEST SWAP13 SWAP12 POP POP POP POP POP POP POP POP POP POP POP POP JUMP JUMPDEST PUSH1 0x0 DUP2 DUP1 PUSH1 0x20 ADD SWAP1 MLOAD DUP2 ADD SWAP1 PUSH2 0x645 SWAP2 SWAP1 PUSH2 0x460C JUMP JUMPDEST PUSH1 0x60 PUSH1 0x0 PUSH2 0x3187 DUP5 DUP5 PUSH2 0x1A5A JUMP JUMPDEST SWAP1 POP PUSH1 0x60 DUP6 MLOAD PUSH1 0x1 PUSH1 0x1 PUSH1 0x40 SHL SUB DUP2 GT DUP1 ISZERO PUSH2 0x31A2 JUMPI PUSH1 0x0 DUP1 REVERT JUMPDEST POP PUSH1 0x40 MLOAD SWAP1 DUP1 DUP3 MSTORE DUP1 PUSH1 0x20 MUL PUSH1 0x20 ADD DUP3 ADD PUSH1 0x40 MSTORE DUP1 ISZERO PUSH2 0x31CC JUMPI DUP2 PUSH1 0x20 ADD PUSH1 0x20 DUP3 MUL DUP1 CALLDATASIZE DUP4 CALLDATACOPY ADD SWAP1 POP JUMPDEST POP SWAP1 POP PUSH1 0x0 JUMPDEST DUP7 MLOAD DUP2 LT ISZERO PUSH2 0x3220 JUMPI PUSH2 0x3201 DUP4 DUP9 DUP4 DUP2 MLOAD DUP2 LT PUSH2 0x31EB JUMPI INVALID JUMPDEST PUSH1 0x20 MUL PUSH1 0x20 ADD ADD MLOAD PUSH2 0x2608 SWAP1 SWAP2 SWAP1 PUSH4 0xFFFFFFFF AND JUMP JUMPDEST DUP3 DUP3 DUP2 MLOAD DUP2 LT PUSH2 0x320D JUMPI INVALID JUMPDEST PUSH1 0x20 SWAP1 DUP2 MUL SWAP2 SWAP1 SWAP2 ADD ADD MSTORE PUSH1 0x1 ADD PUSH2 0x31D2 JUMP JUMPDEST POP SWAP6 SWAP5 POP POP POP POP POP JUMP JUMPDEST PUSH1 0x60 PUSH1 0x0 DUP3 DUP1 PUSH1 0x20 ADD SWAP1 MLOAD DUP2 ADD SWAP1 PUSH2 0x3098 SWAP2 SWAP1 PUSH2 0x45C6 JUMP JUMPDEST PUSH1 0x0 PUSH1 0x60 DUP5 MLOAD PUSH1 0x1 PUSH1 0x1 PUSH1 0x40 SHL SUB DUP2 GT DUP1 ISZERO PUSH2 0x325D JUMPI PUSH1 0x0 DUP1 REVERT JUMPDEST POP PUSH1 0x40 MLOAD SWAP1 DUP1 DUP3 MSTORE DUP1 PUSH1 0x20 MUL PUSH1 0x20 ADD DUP3 ADD PUSH1 0x40 MSTORE DUP1 ISZERO PUSH2 0x3287 JUMPI DUP2 PUSH1 0x20 ADD PUSH1 0x20 DUP3 MUL DUP1 CALLDATASIZE DUP4 CALLDATACOPY ADD SWAP1 POP JUMPDEST POP SWAP1 POP PUSH1 0x0 DUP1 JUMPDEST DUP9 MLOAD DUP2 LT ISZERO PUSH2 0x334C JUMPI PUSH2 0x32E7 DUP10 DUP3 DUP2 MLOAD DUP2 LT PUSH2 0x32A6 JUMPI INVALID JUMPDEST PUSH1 0x20 MUL PUSH1 0x20 ADD ADD MLOAD PUSH2 0xE38 DUP10 DUP5 DUP2 MLOAD DUP2 LT PUSH2 0x32BD JUMPI INVALID JUMPDEST PUSH1 0x20 MUL PUSH1 0x20 ADD ADD MLOAD DUP13 DUP6 DUP2 MLOAD DUP2 LT PUSH2 0x32D1 JUMPI INVALID JUMPDEST PUSH1 0x20 MUL PUSH1 0x20 ADD ADD MLOAD PUSH2 0xE08 SWAP1 SWAP2 SWAP1 PUSH4 0xFFFFFFFF AND JUMP JUMPDEST DUP4 DUP3 DUP2 MLOAD DUP2 LT PUSH2 0x32F3 JUMPI INVALID JUMPDEST PUSH1 0x20 MUL PUSH1 0x20 ADD ADD DUP2 DUP2 MSTORE POP POP PUSH2 0x3342 PUSH2 0x333B DUP10 DUP4 DUP2 MLOAD DUP2 LT PUSH2 0x3311 JUMPI INVALID JUMPDEST PUSH1 0x20 MUL PUSH1 0x20 ADD ADD MLOAD DUP6 DUP5 DUP2 MLOAD DUP2 LT PUSH2 0x3325 JUMPI INVALID JUMPDEST PUSH1 0x20 MUL PUSH1 0x20 ADD ADD MLOAD PUSH2 0xEC7 SWAP1 SWAP2 SWAP1 PUSH4 0xFFFFFFFF AND JUMP JUMPDEST DUP4 SWAP1 PUSH2 0xE7C JUMP JUMPDEST SWAP2 POP PUSH1 0x1 ADD PUSH2 0x328E JUMP JUMPDEST POP PUSH8 0xDE0B6B3A7640000 PUSH1 0x0 JUMPDEST DUP10 MLOAD DUP2 LT ISZERO PUSH2 0x344E JUMPI PUSH1 0x0 DUP5 DUP3 DUP2 MLOAD DUP2 LT PUSH2 0x3370 JUMPI INVALID JUMPDEST PUSH1 0x20 MUL PUSH1 0x20 ADD ADD MLOAD DUP5 GT ISZERO PUSH2 0x33D0 JUMPI PUSH1 0x0 PUSH2 0x3399 PUSH2 0x338D DUP7 PUSH2 0x305B JUMP JUMPDEST DUP14 DUP6 DUP2 MLOAD DUP2 LT PUSH2 0x31EB JUMPI INVALID JUMPDEST SWAP1 POP PUSH1 0x0 PUSH2 0x33AD DUP3 DUP13 DUP7 DUP2 MLOAD DUP2 LT PUSH2 0x32D1 JUMPI INVALID JUMPDEST SWAP1 POP PUSH2 0x33C7 PUSH2 0x333B PUSH2 0x1E57 PUSH8 0xDE0B6B3A7640000 DUP13 PUSH2 0xE08 JUMP JUMPDEST SWAP3 POP POP POP PUSH2 0x33E7 JUMP JUMPDEST DUP9 DUP3 DUP2 MLOAD DUP2 LT PUSH2 0x33DC JUMPI INVALID JUMPDEST PUSH1 0x20 MUL PUSH1 0x20 ADD ADD MLOAD SWAP1 POP JUMPDEST PUSH1 0x0 PUSH2 0x3410 DUP13 DUP5 DUP2 MLOAD DUP2 LT PUSH2 0x33F8 JUMPI INVALID JUMPDEST PUSH1 0x20 MUL PUSH1 0x20 ADD ADD MLOAD PUSH2 0x7D9 DUP5 DUP16 DUP8 DUP2 MLOAD DUP2 LT PUSH2 0x32D1 JUMPI INVALID JUMPDEST SWAP1 POP PUSH2 0x3442 PUSH2 0x343B DUP13 DUP6 DUP2 MLOAD DUP2 LT PUSH2 0x3424 JUMPI INVALID JUMPDEST PUSH1 0x20 MUL PUSH1 0x20 ADD ADD MLOAD DUP4 PUSH2 0x269A SWAP1 SWAP2 SWAP1 PUSH4 0xFFFFFFFF AND JUMP JUMPDEST DUP6 SWAP1 PUSH2 0x2608 JUMP JUMPDEST SWAP4 POP POP POP PUSH1 0x1 ADD PUSH2 0x3359 JUMP JUMPDEST POP PUSH2 0x3462 PUSH2 0x345B DUP3 PUSH2 0x305B JUMP JUMPDEST DUP8 SWAP1 PUSH2 0xEC7 JUMP JUMPDEST SWAP10 SWAP9 POP POP POP POP POP POP POP POP POP JUMP JUMPDEST PUSH1 0x0 PUSH2 0x645 DUP4 DUP4 PUSH1 0x1 PUSH2 0x2367 JUMP JUMPDEST PUSH1 0x0 PUSH1 0x60 DUP1 PUSH1 0x0 PUSH2 0x348D DUP6 PUSH2 0x322A JUMP JUMPDEST SWAP2 POP SWAP2 POP PUSH2 0x34A3 PUSH2 0x349C PUSH2 0x146D JUMP JUMPDEST DUP4 MLOAD PUSH2 0xDE6 JUMP JUMPDEST PUSH2 0x34AD DUP3 DUP8 PUSH2 0x1ED8 JUMP JUMPDEST PUSH1 0x0 PUSH2 0x34CA DUP10 DUP10 DUP6 PUSH2 0x34BD PUSH2 0x598 JUMP JUMPDEST PUSH2 0x34C5 PUSH2 0x76C JUMP JUMPDEST PUSH2 0x3E36 JUMP JUMPDEST SWAP1 POP PUSH2 0x2AA1 DUP3 DUP3 LT ISZERO PUSH1 0xD0 PUSH2 0x1249 JUMP JUMPDEST PUSH1 0x0 PUSH1 0x60 PUSH1 0x0 DUP1 PUSH2 0x34EA DUP6 PUSH2 0x3081 JUMP JUMPDEST SWAP2 POP SWAP2 POP PUSH2 0x34F9 PUSH2 0x2953 PUSH2 0x146D JUMP JUMPDEST PUSH1 0x60 PUSH2 0x3503 PUSH2 0x146D JUMP JUMPDEST PUSH1 0x1 PUSH1 0x1 PUSH1 0x40 SHL SUB DUP2 GT DUP1 ISZERO PUSH2 0x3518 JUMPI PUSH1 0x0 DUP1 REVERT JUMPDEST POP PUSH1 0x40 MLOAD SWAP1 DUP1 DUP3 MSTORE DUP1 PUSH1 0x20 MUL PUSH1 0x20 ADD DUP3 ADD PUSH1 0x40 MSTORE DUP1 ISZERO PUSH2 0x3542 JUMPI DUP2 PUSH1 0x20 ADD PUSH1 0x20 DUP3 MUL DUP1 CALLDATASIZE DUP4 CALLDATACOPY ADD SWAP1 POP JUMPDEST POP SWAP1 POP PUSH2 0x29E9 DUP9 DUP4 DUP2 MLOAD DUP2 LT PUSH2 0x3554 JUMPI INVALID JUMPDEST PUSH1 0x20 MUL PUSH1 0x20 ADD ADD MLOAD DUP9 DUP5 DUP2 MLOAD DUP2 LT PUSH2 0x3568 JUMPI INVALID JUMPDEST PUSH1 0x20 MUL PUSH1 0x20 ADD ADD MLOAD DUP6 PUSH2 0x3579 PUSH2 0x598 JUMP JUMPDEST PUSH2 0x3581 PUSH2 0x76C JUMP JUMPDEST PUSH2 0x4047 JUMP JUMPDEST PUSH8 0xDE0B6B3A7640000 MUL PUSH1 0x0 DUP1 PUSH11 0xC097CE7BC90715B34B9F1 PUSH1 0x24 SHL DUP1 DUP5 ADD SWAP1 PUSH15 0xC097CE7BC90715B34B9F0FFFFFFFFF NOT DUP6 ADD MUL DUP2 PUSH2 0x35C1 JUMPI INVALID JUMPDEST SDIV SWAP1 POP PUSH1 0x0 PUSH11 0xC097CE7BC90715B34B9F1 PUSH1 0x24 SHL DUP3 DUP1 MUL SDIV SWAP1 POP DUP2 DUP1 PUSH11 0xC097CE7BC90715B34B9F1 PUSH1 0x24 SHL DUP2 DUP5 MUL SDIV SWAP2 POP PUSH1 0x3 DUP3 SDIV ADD PUSH11 0xC097CE7BC90715B34B9F1 PUSH1 0x24 SHL DUP3 DUP5 MUL SDIV SWAP2 POP PUSH1 0x5 DUP3 SDIV ADD PUSH11 0xC097CE7BC90715B34B9F1 PUSH1 0x24 SHL DUP3 DUP5 MUL SDIV SWAP2 POP PUSH1 0x7 DUP3 SDIV ADD PUSH11 0xC097CE7BC90715B34B9F1 PUSH1 0x24 SHL DUP3 DUP5 MUL SDIV SWAP2 POP PUSH1 0x9 DUP3 SDIV ADD PUSH11 0xC097CE7BC90715B34B9F1 PUSH1 0x24 SHL DUP3 DUP5 MUL SDIV SWAP2 POP PUSH1 0xB DUP3 SDIV ADD PUSH11 0xC097CE7BC90715B34B9F1 PUSH1 0x24 SHL DUP3 DUP5 MUL SDIV SWAP2 POP PUSH1 0xD DUP3 SDIV ADD PUSH11 0xC097CE7BC90715B34B9F1 PUSH1 0x24 SHL DUP3 DUP5 MUL SDIV SWAP2 POP PUSH1 0xF DUP3 PUSH1 0x2 SWAP2 SWAP1 SDIV SWAP2 SWAP1 SWAP2 ADD MUL SWAP6 SWAP5 POP POP POP POP POP JUMP JUMPDEST PUSH1 0x0 PUSH8 0xDE0B6B3A7640000 DUP3 SLT ISZERO PUSH2 0x36E0 JUMPI PUSH2 0x36D6 DUP3 PUSH11 0xC097CE7BC90715B34B9F1 PUSH1 0x24 SHL DUP2 PUSH2 0x36D0 JUMPI INVALID JUMPDEST SDIV PUSH2 0x36A4 JUMP JUMPDEST PUSH1 0x0 SUB SWAP1 POP PUSH2 0x7F9 JUMP JUMPDEST PUSH1 0x0 PUSH31 0x1600EF3172E58D2E933EC884FDE10064C63B5372D805E203C0000000000000 DUP4 SLT PUSH2 0x3731 JUMPI PUSH24 0x195E54C5DD42177F53A27172FA9EC630262827000000000 DUP4 SDIV SWAP3 POP PUSH9 0x6F05B59D3B2000000 ADD JUMPDEST PUSH20 0x11798004D755D3C8BC8E03204CF44619E000000 DUP4 SLT PUSH2 0x3769 JUMPI PUSH12 0x1425982CF597CD205CEF7380 DUP4 SDIV SWAP3 POP PUSH9 0x3782DACE9D9000000 ADD JUMPDEST PUSH1 0x64 SWAP3 DUP4 MUL SWAP3 MUL PUSH15 0x1855144814A7FF805980FF0084000 DUP4 SLT PUSH2 0x37B1 JUMPI PUSH15 0x1855144814A7FF805980FF0084000 PUSH9 0x56BC75E2D63100000 DUP5 MUL SDIV SWAP3 POP PUSH9 0xAD78EBC5AC62000000 ADD JUMPDEST PUSH12 0x2DF0AB5A80A22C61AB5A700 DUP4 SLT PUSH2 0x37EC JUMPI PUSH12 0x2DF0AB5A80A22C61AB5A700 PUSH9 0x56BC75E2D63100000 DUP5 MUL SDIV SWAP3 POP PUSH9 0x56BC75E2D631000000 ADD JUMPDEST PUSH10 0x3F1FCE3DA636EA5CF850 DUP4 SLT PUSH2 0x3823 JUMPI PUSH10 0x3F1FCE3DA636EA5CF850 PUSH9 0x56BC75E2D63100000 DUP5 MUL SDIV SWAP3 POP PUSH9 0x2B5E3AF16B18800000 ADD JUMPDEST PUSH10 0x127FA27722CC06CC5E2 DUP4 SLT PUSH2 0x385A JUMPI PUSH10 0x127FA27722CC06CC5E2 PUSH9 0x56BC75E2D63100000 DUP5 MUL SDIV SWAP3 POP PUSH9 0x15AF1D78B58C400000 ADD JUMPDEST PUSH9 0x280E60114EDB805D03 DUP4 SLT PUSH2 0x388F JUMPI PUSH9 0x280E60114EDB805D03 PUSH9 0x56BC75E2D63100000 DUP5 MUL SDIV SWAP3 POP PUSH9 0xAD78EBC5AC6200000 ADD JUMPDEST PUSH9 0xEBC5FB41746121110 DUP4 SLT PUSH2 0x38BA JUMPI PUSH9 0xEBC5FB41746121110 PUSH9 0x56BC75E2D63100000 SWAP4 DUP5 MUL SDIV SWAP3 ADD JUMPDEST PUSH9 0x8F00F760A4B2DB55D DUP4 SLT PUSH2 0x38EF JUMPI PUSH9 0x8F00F760A4B2DB55D PUSH9 0x56BC75E2D63100000 DUP5 MUL SDIV SWAP3 POP PUSH9 0x2B5E3AF16B1880000 ADD JUMPDEST PUSH9 0x6F5F1775788937937 DUP4 SLT PUSH2 0x3924 JUMPI PUSH9 0x6F5F1775788937937 PUSH9 0x56BC75E2D63100000 DUP5 MUL SDIV SWAP3 POP PUSH9 0x15AF1D78B58C40000 ADD JUMPDEST PUSH9 0x6248F33704B286603 DUP4 SLT PUSH2 0x3958 JUMPI PUSH9 0x6248F33704B286603 PUSH9 0x56BC75E2D63100000 DUP5 MUL SDIV SWAP3 POP PUSH8 0xAD78EBC5AC620000 ADD JUMPDEST PUSH9 0x5C548670B9510E7AC DUP4 SLT PUSH2 0x398C JUMPI PUSH9 0x5C548670B9510E7AC PUSH9 0x56BC75E2D63100000 DUP5 MUL SDIV SWAP3 POP PUSH8 0x56BC75E2D6310000 ADD JUMPDEST PUSH1 0x0 PUSH9 0x56BC75E2D63100000 DUP5 ADD PUSH9 0x56BC75E2D63100000 DUP1 DUP7 SUB MUL DUP2 PUSH2 0x39AF JUMPI INVALID JUMPDEST SDIV SWAP1 POP PUSH1 0x0 PUSH9 0x56BC75E2D63100000 DUP3 DUP1 MUL SDIV SWAP1 POP DUP2 DUP1 PUSH9 0x56BC75E2D63100000 DUP2 DUP5 MUL SDIV SWAP2 POP PUSH1 0x3 DUP3 SDIV ADD PUSH9 0x56BC75E2D63100000 DUP3 DUP5 MUL SDIV SWAP2 POP PUSH1 0x5 DUP3 SDIV ADD PUSH9 0x56BC75E2D63100000 DUP3 DUP5 MUL SDIV SWAP2 POP PUSH1 0x7 DUP3 SDIV ADD PUSH9 0x56BC75E2D63100000 DUP3 DUP5 MUL SDIV SWAP2 POP PUSH1 0x9 DUP3 SDIV ADD PUSH9 0x56BC75E2D63100000 DUP3 DUP5 MUL SDIV SWAP2 POP PUSH1 0xB DUP3 SDIV ADD PUSH1 0x2 MUL PUSH1 0x64 DUP6 DUP3 ADD SDIV SWAP8 SWAP7 POP POP POP POP POP POP POP JUMP JUMPDEST PUSH1 0x0 PUSH2 0x3A72 PUSH9 0x238FD42C5CF03FFFF NOT DUP4 SLT ISZERO DUP1 ISZERO PUSH2 0x3A6B JUMPI POP PUSH9 0x70C1CC73B00C80000 DUP4 SGT ISZERO JUMPDEST PUSH1 0x9 PUSH2 0x1249 JUMP JUMPDEST PUSH1 0x0 DUP3 SLT ISZERO PUSH2 0x3AA5 JUMPI PUSH2 0x3A87 DUP3 PUSH1 0x0 SUB PUSH2 0x3A43 JUMP JUMPDEST PUSH11 0xC097CE7BC90715B34B9F1 PUSH1 0x24 SHL DUP2 PUSH2 0x3A9D JUMPI INVALID JUMPDEST SDIV SWAP1 POP PUSH2 0x7F9 JUMP JUMPDEST PUSH1 0x0 PUSH9 0x6F05B59D3B2000000 DUP4 SLT PUSH2 0x3AE5 JUMPI POP PUSH9 0x6F05B59D3B1FFFFFF NOT SWAP1 SWAP2 ADD SWAP1 PUSH24 0x195E54C5DD42177F53A27172FA9EC630262827000000000 PUSH2 0x3B1B JUMP JUMPDEST PUSH9 0x3782DACE9D9000000 DUP4 SLT PUSH2 0x3B17 JUMPI POP PUSH9 0x3782DACE9D8FFFFFF NOT SWAP1 SWAP2 ADD SWAP1 PUSH12 0x1425982CF597CD205CEF7380 PUSH2 0x3B1B JUMP JUMPDEST POP PUSH1 0x1 JUMPDEST PUSH1 0x64 SWAP3 SWAP1 SWAP3 MUL SWAP2 PUSH9 0x56BC75E2D63100000 PUSH9 0xAD78EBC5AC62000000 DUP5 SLT PUSH2 0x3B6B JUMPI PUSH9 0xAD78EBC5AC61FFFFFF NOT SWAP1 SWAP4 ADD SWAP3 PUSH9 0x56BC75E2D63100000 PUSH15 0x1855144814A7FF805980FF0084000 DUP3 MUL SDIV SWAP1 POP JUMPDEST PUSH9 0x56BC75E2D631000000 DUP5 SLT PUSH2 0x3BA7 JUMPI PUSH9 0x56BC75E2D630FFFFFF NOT SWAP1 SWAP4 ADD SWAP3 PUSH9 0x56BC75E2D63100000 PUSH12 0x2DF0AB5A80A22C61AB5A700 DUP3 MUL SDIV SWAP1 POP JUMPDEST PUSH9 0x2B5E3AF16B18800000 DUP5 SLT PUSH2 0x3BE1 JUMPI PUSH9 0x2B5E3AF16B187FFFFF NOT SWAP1 SWAP4 ADD SWAP3 PUSH9 0x56BC75E2D63100000 PUSH10 0x3F1FCE3DA636EA5CF850 DUP3 MUL SDIV SWAP1 POP JUMPDEST PUSH9 0x15AF1D78B58C400000 DUP5 SLT PUSH2 0x3C1B JUMPI PUSH9 0x15AF1D78B58C3FFFFF NOT SWAP1 SWAP4 ADD SWAP3 PUSH9 0x56BC75E2D63100000 PUSH10 0x127FA27722CC06CC5E2 DUP3 MUL SDIV SWAP1 POP JUMPDEST PUSH9 0xAD78EBC5AC6200000 DUP5 SLT PUSH2 0x3C54 JUMPI PUSH9 0xAD78EBC5AC61FFFFF NOT SWAP1 SWAP4 ADD SWAP3 PUSH9 0x56BC75E2D63100000 PUSH9 0x280E60114EDB805D03 DUP3 MUL SDIV SWAP1 POP JUMPDEST PUSH9 0x56BC75E2D63100000 DUP5 SLT PUSH2 0x3C8D JUMPI PUSH9 0x56BC75E2D630FFFFF NOT SWAP1 SWAP4 ADD SWAP3 PUSH9 0x56BC75E2D63100000 PUSH9 0xEBC5FB41746121110 DUP3 MUL SDIV SWAP1 POP JUMPDEST PUSH9 0x2B5E3AF16B1880000 DUP5 SLT PUSH2 0x3CC6 JUMPI PUSH9 0x2B5E3AF16B187FFFF NOT SWAP1 SWAP4 ADD SWAP3 PUSH9 0x56BC75E2D63100000 PUSH9 0x8F00F760A4B2DB55D DUP3 MUL SDIV SWAP1 POP JUMPDEST PUSH9 0x15AF1D78B58C40000 DUP5 SLT PUSH2 0x3CFF JUMPI PUSH9 0x15AF1D78B58C3FFFF NOT SWAP1 SWAP4 ADD SWAP3 PUSH9 0x56BC75E2D63100000 PUSH9 0x6F5F1775788937937 DUP3 MUL SDIV SWAP1 POP JUMPDEST PUSH9 0x56BC75E2D63100000 DUP5 DUP2 ADD SWAP1 DUP6 SWAP1 PUSH1 0x2 SWAP1 DUP3 DUP1 MUL SDIV SDIV SWAP2 DUP3 ADD SWAP2 SWAP1 POP PUSH1 0x3 PUSH9 0x56BC75E2D63100000 DUP8 DUP4 MUL SDIV SDIV SWAP2 DUP3 ADD SWAP2 SWAP1 POP PUSH1 0x4 PUSH9 0x56BC75E2D63100000 DUP8 DUP4 MUL SDIV SDIV SWAP2 DUP3 ADD SWAP2 SWAP1 POP PUSH1 0x5 PUSH9 0x56BC75E2D63100000 DUP8 DUP4 MUL SDIV SDIV SWAP2 DUP3 ADD SWAP2 SWAP1 POP PUSH1 0x6 PUSH9 0x56BC75E2D63100000 DUP8 DUP4 MUL SDIV SDIV SWAP2 DUP3 ADD SWAP2 SWAP1 POP PUSH1 0x7 PUSH9 0x56BC75E2D63100000 DUP8 DUP4 MUL SDIV SDIV SWAP2 DUP3 ADD SWAP2 SWAP1 POP PUSH1 0x8 PUSH9 0x56BC75E2D63100000 DUP8 DUP4 MUL SDIV SDIV SWAP2 DUP3 ADD SWAP2 SWAP1 POP PUSH1 0x9 PUSH9 0x56BC75E2D63100000 DUP8 DUP4 MUL SDIV SDIV SWAP2 DUP3 ADD SWAP2 SWAP1 POP PUSH1 0xA PUSH9 0x56BC75E2D63100000 DUP8 DUP4 MUL SDIV SDIV SWAP2 DUP3 ADD SWAP2 SWAP1 POP PUSH1 0xB PUSH9 0x56BC75E2D63100000 DUP8 DUP4 MUL SDIV SDIV SWAP2 DUP3 ADD SWAP2 SWAP1 POP PUSH1 0xC PUSH9 0x56BC75E2D63100000 DUP8 DUP4 MUL SDIV SDIV SWAP2 DUP3 ADD SWAP2 SWAP1 POP PUSH1 0x64 PUSH9 0x56BC75E2D63100000 DUP5 DUP5 MUL SDIV DUP6 MUL SDIV SWAP7 SWAP6 POP POP POP POP POP POP JUMP JUMPDEST PUSH1 0x60 DUP2 DUP1 PUSH1 0x20 ADD SWAP1 MLOAD DUP2 ADD SWAP1 PUSH2 0x645 SWAP2 SWAP1 PUSH2 0x466F JUMP JUMPDEST PUSH1 0x0 PUSH1 0x60 DUP5 MLOAD PUSH1 0x1 PUSH1 0x1 PUSH1 0x40 SHL SUB DUP2 GT DUP1 ISZERO PUSH2 0x3E51 JUMPI PUSH1 0x0 DUP1 REVERT JUMPDEST POP PUSH1 0x40 MLOAD SWAP1 DUP1 DUP3 MSTORE DUP1 PUSH1 0x20 MUL PUSH1 0x20 ADD DUP3 ADD PUSH1 0x40 MSTORE DUP1 ISZERO PUSH2 0x3E7B JUMPI DUP2 PUSH1 0x20 ADD PUSH1 0x20 DUP3 MUL DUP1 CALLDATASIZE DUP4 CALLDATACOPY ADD SWAP1 POP JUMPDEST POP SWAP1 POP PUSH1 0x0 DUP1 JUMPDEST DUP9 MLOAD DUP2 LT ISZERO PUSH2 0x3F23 JUMPI PUSH2 0x3EDB DUP10 DUP3 DUP2 MLOAD DUP2 LT PUSH2 0x3E9A JUMPI INVALID JUMPDEST PUSH1 0x20 MUL PUSH1 0x20 ADD ADD MLOAD PUSH2 0x7D9 DUP10 DUP5 DUP2 MLOAD DUP2 LT PUSH2 0x3EB1 JUMPI INVALID JUMPDEST PUSH1 0x20 MUL PUSH1 0x20 ADD ADD MLOAD DUP13 DUP6 DUP2 MLOAD DUP2 LT PUSH2 0x3EC5 JUMPI INVALID JUMPDEST PUSH1 0x20 MUL PUSH1 0x20 ADD ADD MLOAD PUSH2 0xE7C SWAP1 SWAP2 SWAP1 PUSH4 0xFFFFFFFF AND JUMP JUMPDEST DUP4 DUP3 DUP2 MLOAD DUP2 LT PUSH2 0x3EE7 JUMPI INVALID JUMPDEST PUSH1 0x20 MUL PUSH1 0x20 ADD ADD DUP2 DUP2 MSTORE POP POP PUSH2 0x3F19 PUSH2 0x333B DUP10 DUP4 DUP2 MLOAD DUP2 LT PUSH2 0x3F05 JUMPI INVALID JUMPDEST PUSH1 0x20 MUL PUSH1 0x20 ADD ADD MLOAD DUP6 DUP5 DUP2 MLOAD DUP2 LT PUSH2 0x31EB JUMPI INVALID JUMPDEST SWAP2 POP PUSH1 0x1 ADD PUSH2 0x3E82 JUMP JUMPDEST POP PUSH8 0xDE0B6B3A7640000 PUSH1 0x0 JUMPDEST DUP10 MLOAD DUP2 LT ISZERO PUSH2 0x4004 JUMPI PUSH1 0x0 DUP4 DUP6 DUP4 DUP2 MLOAD DUP2 LT PUSH2 0x3F48 JUMPI INVALID JUMPDEST PUSH1 0x20 MUL PUSH1 0x20 ADD ADD MLOAD GT ISZERO PUSH2 0x3FA4 JUMPI PUSH1 0x0 PUSH2 0x3F6D PUSH2 0x338D DUP7 PUSH8 0xDE0B6B3A7640000 PUSH2 0xE08 JUMP JUMPDEST SWAP1 POP PUSH1 0x0 PUSH2 0x3F81 DUP3 DUP13 DUP7 DUP2 MLOAD DUP2 LT PUSH2 0x32D1 JUMPI INVALID JUMPDEST SWAP1 POP PUSH2 0x3F9B PUSH2 0x333B PUSH2 0x2008 PUSH8 0xDE0B6B3A7640000 DUP13 PUSH2 0xE08 JUMP JUMPDEST SWAP3 POP POP POP PUSH2 0x3FBB JUMP JUMPDEST DUP9 DUP3 DUP2 MLOAD DUP2 LT PUSH2 0x3FB0 JUMPI INVALID JUMPDEST PUSH1 0x20 MUL PUSH1 0x20 ADD ADD MLOAD SWAP1 POP JUMPDEST PUSH1 0x0 PUSH2 0x3FE4 DUP13 DUP5 DUP2 MLOAD DUP2 LT PUSH2 0x3FCC JUMPI INVALID JUMPDEST PUSH1 0x20 MUL PUSH1 0x20 ADD ADD MLOAD PUSH2 0x7D9 DUP5 DUP16 DUP8 DUP2 MLOAD DUP2 LT PUSH2 0x3EC5 JUMPI INVALID JUMPDEST SWAP1 POP PUSH2 0x3FF8 PUSH2 0x343B DUP13 DUP6 DUP2 MLOAD DUP2 LT PUSH2 0x3424 JUMPI INVALID JUMPDEST SWAP4 POP POP POP PUSH1 0x1 ADD PUSH2 0x3F30 JUMP JUMPDEST POP PUSH8 0xDE0B6B3A7640000 DUP2 GT ISZERO PUSH2 0x403B JUMPI PUSH2 0x4031 PUSH2 0x402A DUP3 PUSH8 0xDE0B6B3A7640000 PUSH2 0xE08 JUMP JUMPDEST DUP8 SWAP1 PUSH2 0x2608 JUMP JUMPDEST SWAP4 POP POP POP POP PUSH2 0x290D JUMP JUMPDEST PUSH1 0x0 SWAP4 POP POP POP POP PUSH2 0x290D JUMP JUMPDEST PUSH1 0x0 DUP1 PUSH2 0x4058 DUP5 PUSH2 0xE38 DUP2 DUP9 PUSH2 0xE7C JUMP JUMPDEST SWAP1 POP PUSH2 0x4071 PUSH8 0x29A2241AF62C0000 DUP3 GT ISZERO PUSH2 0x133 PUSH2 0x1249 JUMP JUMPDEST PUSH1 0x0 PUSH2 0x4088 PUSH2 0x30E4 PUSH8 0xDE0B6B3A7640000 DUP10 PUSH2 0xF15 JUMP JUMPDEST SWAP1 POP PUSH1 0x0 PUSH2 0x40A8 PUSH2 0x40A1 DUP4 PUSH8 0xDE0B6B3A7640000 PUSH2 0xE08 JUMP JUMPDEST DUP11 SWAP1 PUSH2 0xEC7 JUMP JUMPDEST SWAP1 POP PUSH1 0x0 PUSH2 0x40B5 DUP10 PUSH2 0x305B JUMP JUMPDEST SWAP1 POP PUSH1 0x0 PUSH2 0x40C3 DUP4 DUP4 PUSH2 0xEC7 JUMP JUMPDEST SWAP1 POP PUSH1 0x0 PUSH2 0x40D1 DUP5 DUP4 PUSH2 0xE08 JUMP JUMPDEST SWAP1 POP PUSH2 0x3153 PUSH2 0x314C PUSH2 0x40EB PUSH8 0xDE0B6B3A7640000 DUP12 PUSH2 0xE08 JUMP JUMPDEST DUP5 SWAP1 PUSH2 0xF15 JUMP JUMPDEST DUP1 CALLDATALOAD PUSH2 0x57E DUP2 PUSH2 0x4B2F JUMP JUMPDEST PUSH1 0x0 DUP3 PUSH1 0x1F DUP4 ADD SLT PUSH2 0x410D JUMPI DUP1 DUP2 REVERT JUMPDEST DUP2 CALLDATALOAD PUSH2 0x4120 PUSH2 0x411B DUP3 PUSH2 0x4B10 JUMP JUMPDEST PUSH2 0x4AEA JUMP JUMPDEST DUP2 DUP2 MSTORE SWAP2 POP PUSH1 0x20 DUP1 DUP4 ADD SWAP1 DUP5 DUP2 ADD DUP2 DUP5 MUL DUP7 ADD DUP3 ADD DUP8 LT ISZERO PUSH2 0x4141 JUMPI PUSH1 0x0 DUP1 REVERT JUMPDEST PUSH1 0x0 JUMPDEST DUP5 DUP2 LT ISZERO PUSH2 0x4160 JUMPI DUP2 CALLDATALOAD DUP5 MSTORE SWAP3 DUP3 ADD SWAP3 SWAP1 DUP3 ADD SWAP1 PUSH1 0x1 ADD PUSH2 0x4144 JUMP JUMPDEST POP POP POP POP POP SWAP3 SWAP2 POP POP JUMP JUMPDEST PUSH1 0x0 DUP3 PUSH1 0x1F DUP4 ADD SLT PUSH2 0x417B JUMPI DUP1 DUP2 REVERT JUMPDEST DUP2 MLOAD PUSH2 0x4189 PUSH2 0x411B DUP3 PUSH2 0x4B10 JUMP JUMPDEST DUP2 DUP2 MSTORE SWAP2 POP PUSH1 0x20 DUP1 DUP4 ADD SWAP1 DUP5 DUP2 ADD DUP2 DUP5 MUL DUP7 ADD DUP3 ADD DUP8 LT ISZERO PUSH2 0x41AA JUMPI PUSH1 0x0 DUP1 REVERT JUMPDEST PUSH1 0x0 JUMPDEST DUP5 DUP2 LT ISZERO PUSH2 0x4160 JUMPI DUP2 MLOAD DUP5 MSTORE SWAP3 DUP3 ADD SWAP3 SWAP1 DUP3 ADD SWAP1 PUSH1 0x1 ADD PUSH2 0x41AD JUMP JUMPDEST PUSH1 0x0 DUP3 PUSH1 0x1F DUP4 ADD SLT PUSH2 0x41D9 JUMPI DUP1 DUP2 REVERT JUMPDEST DUP2 CALLDATALOAD PUSH1 0x1 PUSH1 0x1 PUSH1 0x40 SHL SUB DUP2 GT ISZERO PUSH2 0x41EE JUMPI DUP2 DUP3 REVERT JUMPDEST PUSH2 0x4201 PUSH1 0x1F DUP3 ADD PUSH1 0x1F NOT AND PUSH1 0x20 ADD PUSH2 0x4AEA JUMP JUMPDEST SWAP2 POP DUP1 DUP3 MSTORE DUP4 PUSH1 0x20 DUP3 DUP6 ADD ADD GT ISZERO PUSH2 0x4218 JUMPI PUSH1 0x0 DUP1 REVERT JUMPDEST DUP1 PUSH1 0x20 DUP5 ADD PUSH1 0x20 DUP5 ADD CALLDATACOPY PUSH1 0x0 SWAP1 DUP3 ADD PUSH1 0x20 ADD MSTORE SWAP3 SWAP2 POP POP JUMP JUMPDEST DUP1 CALLDATALOAD PUSH1 0x2 DUP2 LT PUSH2 0x57E JUMPI PUSH1 0x0 DUP1 REVERT JUMPDEST PUSH1 0x0 PUSH1 0x20 DUP3 DUP5 SUB SLT ISZERO PUSH2 0x4251 JUMPI DUP1 DUP2 REVERT JUMPDEST DUP2 CALLDATALOAD PUSH2 0x645 DUP2 PUSH2 0x4B2F JUMP JUMPDEST PUSH1 0x0 DUP1 PUSH1 0x40 DUP4 DUP6 SUB SLT ISZERO PUSH2 0x426E JUMPI DUP1 DUP2 REVERT JUMPDEST DUP3 CALLDATALOAD PUSH2 0x4279 DUP2 PUSH2 0x4B2F JUMP JUMPDEST SWAP2 POP PUSH1 0x20 DUP4 ADD CALLDATALOAD PUSH2 0x4289 DUP2 PUSH2 0x4B2F JUMP JUMPDEST DUP1 SWAP2 POP POP SWAP3 POP SWAP3 SWAP1 POP JUMP JUMPDEST PUSH1 0x0 DUP1 PUSH1 0x0 PUSH1 0x60 DUP5 DUP7 SUB SLT ISZERO PUSH2 0x42A8 JUMPI DUP1 DUP2 REVERT JUMPDEST DUP4 CALLDATALOAD PUSH2 0x42B3 DUP2 PUSH2 0x4B2F JUMP JUMPDEST SWAP3 POP PUSH1 0x20 DUP5 ADD CALLDATALOAD PUSH2 0x42C3 DUP2 PUSH2 0x4B2F JUMP JUMPDEST SWAP3 SWAP6 SWAP3 SWAP5 POP POP POP PUSH1 0x40 SWAP2 SWAP1 SWAP2 ADD CALLDATALOAD SWAP1 JUMP JUMPDEST PUSH1 0x0 DUP1 PUSH1 0x0 DUP1 PUSH1 0x0 DUP1 PUSH1 0x0 PUSH1 0xE0 DUP9 DUP11 SUB SLT ISZERO PUSH2 0x42EE JUMPI DUP3 DUP4 REVERT JUMPDEST DUP8 CALLDATALOAD PUSH2 0x42F9 DUP2 PUSH2 0x4B2F JUMP JUMPDEST SWAP7 POP PUSH1 0x20 DUP9 ADD CALLDATALOAD PUSH2 0x4309 DUP2 PUSH2 0x4B2F JUMP JUMPDEST SWAP6 POP PUSH1 0x40 DUP9 ADD CALLDATALOAD SWAP5 POP PUSH1 0x60 DUP9 ADD CALLDATALOAD SWAP4 POP PUSH1 0x80 DUP9 ADD CALLDATALOAD PUSH1 0xFF DUP2 AND DUP2 EQ PUSH2 0x432C JUMPI DUP4 DUP5 REVERT JUMPDEST SWAP7 SWAP10 SWAP6 SWAP9 POP SWAP4 SWAP7 SWAP3 SWAP6 SWAP5 PUSH1 0xA0 DUP5 ADD CALLDATALOAD SWAP5 POP PUSH1 0xC0 SWAP1 SWAP4 ADD CALLDATALOAD SWAP3 SWAP2 POP POP JUMP JUMPDEST PUSH1 0x0 DUP1 PUSH1 0x40 DUP4 DUP6 SUB SLT ISZERO PUSH2 0x435B JUMPI DUP2 DUP3 REVERT JUMPDEST DUP3 CALLDATALOAD PUSH2 0x4366 DUP2 PUSH2 0x4B2F JUMP JUMPDEST SWAP5 PUSH1 0x20 SWAP4 SWAP1 SWAP4 ADD CALLDATALOAD SWAP4 POP POP POP JUMP JUMPDEST PUSH1 0x0 DUP1 PUSH1 0x0 PUSH1 0x60 DUP5 DUP7 SUB SLT ISZERO PUSH2 0x4388 JUMPI DUP1 DUP2 REVERT JUMPDEST DUP4 MLOAD PUSH1 0x1 PUSH1 0x1 PUSH1 0x40 SHL SUB DUP1 DUP3 GT ISZERO PUSH2 0x439E JUMPI DUP3 DUP4 REVERT JUMPDEST DUP2 DUP7 ADD SWAP2 POP DUP7 PUSH1 0x1F DUP4 ADD SLT PUSH2 0x43B1 JUMPI DUP3 DUP4 REVERT JUMPDEST DUP2 MLOAD PUSH2 0x43BF PUSH2 0x411B DUP3 PUSH2 0x4B10 JUMP JUMPDEST DUP1 DUP3 DUP3 MSTORE PUSH1 0x20 DUP1 DUP4 ADD SWAP3 POP DUP1 DUP7 ADD DUP12 DUP3 DUP4 DUP8 MUL DUP10 ADD ADD GT ISZERO PUSH2 0x43DF JUMPI DUP8 DUP9 REVERT JUMPDEST DUP8 SWAP7 POP JUMPDEST DUP5 DUP8 LT ISZERO PUSH2 0x440A JUMPI DUP1 MLOAD PUSH2 0x43F6 DUP2 PUSH2 0x4B2F JUMP JUMPDEST DUP5 MSTORE PUSH1 0x1 SWAP7 SWAP1 SWAP7 ADD SWAP6 SWAP3 DUP2 ADD SWAP3 DUP2 ADD PUSH2 0x43E3 JUMP JUMPDEST POP DUP10 ADD MLOAD SWAP1 SWAP8 POP SWAP4 POP POP POP DUP1 DUP3 GT ISZERO PUSH2 0x4421 JUMPI DUP3 DUP4 REVERT JUMPDEST POP PUSH2 0x442E DUP7 DUP3 DUP8 ADD PUSH2 0x416B JUMP JUMPDEST SWAP3 POP POP PUSH1 0x40 DUP5 ADD MLOAD SWAP1 POP SWAP3 POP SWAP3 POP SWAP3 JUMP JUMPDEST PUSH1 0x0 PUSH1 0x20 DUP3 DUP5 SUB SLT ISZERO PUSH2 0x4450 JUMPI DUP1 DUP2 REVERT JUMPDEST DUP2 CALLDATALOAD PUSH2 0x645 DUP2 PUSH2 0x4B44 JUMP JUMPDEST PUSH1 0x0 PUSH1 0x20 DUP3 DUP5 SUB SLT ISZERO PUSH2 0x446C JUMPI DUP1 DUP2 REVERT JUMPDEST DUP2 MLOAD PUSH2 0x645 DUP2 PUSH2 0x4B44 JUMP JUMPDEST PUSH1 0x0 DUP1 PUSH1 0x0 DUP1 PUSH1 0x0 DUP1 PUSH1 0x0 PUSH1 0xE0 DUP9 DUP11 SUB SLT ISZERO PUSH2 0x4491 JUMPI DUP1 DUP2 REVERT JUMPDEST DUP8 CALLDATALOAD SWAP7 POP PUSH1 0x20 DUP9 ADD CALLDATALOAD PUSH2 0x44A3 DUP2 PUSH2 0x4B2F JUMP JUMPDEST SWAP6 POP PUSH1 0x40 DUP9 ADD CALLDATALOAD PUSH2 0x44B3 DUP2 PUSH2 0x4B2F JUMP JUMPDEST SWAP5 POP PUSH1 0x60 DUP9 ADD CALLDATALOAD PUSH1 0x1 PUSH1 0x1 PUSH1 0x40 SHL SUB DUP1 DUP3 GT ISZERO PUSH2 0x44CE JUMPI DUP3 DUP4 REVERT JUMPDEST PUSH2 0x44DA DUP12 DUP4 DUP13 ADD PUSH2 0x40FD JUMP JUMPDEST SWAP6 POP PUSH1 0x80 DUP11 ADD CALLDATALOAD SWAP5 POP PUSH1 0xA0 DUP11 ADD CALLDATALOAD SWAP4 POP PUSH1 0xC0 DUP11 ADD CALLDATALOAD SWAP2 POP DUP1 DUP3 GT ISZERO PUSH2 0x44FD JUMPI DUP3 DUP4 REVERT JUMPDEST POP PUSH2 0x450A DUP11 DUP3 DUP12 ADD PUSH2 0x41C9 JUMP JUMPDEST SWAP2 POP POP SWAP3 SWAP6 SWAP9 SWAP2 SWAP5 SWAP8 POP SWAP3 SWAP6 POP JUMP JUMPDEST PUSH1 0x0 PUSH1 0x20 DUP3 DUP5 SUB SLT ISZERO PUSH2 0x452A JUMPI DUP1 DUP2 REVERT JUMPDEST DUP2 CALLDATALOAD PUSH1 0x1 PUSH1 0x1 PUSH1 0xE0 SHL SUB NOT DUP2 AND DUP2 EQ PUSH2 0x645 JUMPI DUP2 DUP3 REVERT JUMPDEST PUSH1 0x0 PUSH1 0x20 DUP3 DUP5 SUB SLT ISZERO PUSH2 0x4552 JUMPI DUP1 DUP2 REVERT JUMPDEST DUP2 MLOAD PUSH2 0x645 DUP2 PUSH2 0x4B2F JUMP JUMPDEST PUSH1 0x0 DUP1 PUSH1 0x40 DUP4 DUP6 SUB SLT ISZERO PUSH2 0x456F JUMPI DUP2 DUP3 REVERT JUMPDEST DUP3 CALLDATALOAD PUSH2 0x457A DUP2 PUSH2 0x4B2F JUMP JUMPDEST SWAP2 POP PUSH1 0x20 DUP4 ADD CALLDATALOAD PUSH1 0x1 PUSH1 0x1 PUSH1 0x40 SHL SUB DUP2 GT ISZERO PUSH2 0x4594 JUMPI DUP2 DUP3 REVERT JUMPDEST PUSH2 0x45A0 DUP6 DUP3 DUP7 ADD PUSH2 0x41C9 JUMP JUMPDEST SWAP2 POP POP SWAP3 POP SWAP3 SWAP1 POP JUMP JUMPDEST PUSH1 0x0 PUSH1 0x20 DUP3 DUP5 SUB SLT ISZERO PUSH2 0x45BB JUMPI DUP1 DUP2 REVERT JUMPDEST DUP2 MLOAD PUSH2 0x645 DUP2 PUSH2 0x4B52 JUMP JUMPDEST PUSH1 0x0 DUP1 PUSH1 0x0 PUSH1 0x60 DUP5 DUP7 SUB SLT ISZERO PUSH2 0x45DA JUMPI DUP1 DUP2 REVERT JUMPDEST DUP4 MLOAD PUSH2 0x45E5 DUP2 PUSH2 0x4B52 JUMP JUMPDEST PUSH1 0x20 DUP6 ADD MLOAD SWAP1 SWAP4 POP PUSH1 0x1 PUSH1 0x1 PUSH1 0x40 SHL SUB DUP2 GT ISZERO PUSH2 0x4600 JUMPI DUP2 DUP3 REVERT JUMPDEST PUSH2 0x442E DUP7 DUP3 DUP8 ADD PUSH2 0x416B JUMP JUMPDEST PUSH1 0x0 DUP1 PUSH1 0x40 DUP4 DUP6 SUB SLT ISZERO PUSH2 0x461E JUMPI DUP2 DUP3 REVERT JUMPDEST DUP3 MLOAD PUSH2 0x4629 DUP2 PUSH2 0x4B52 JUMP JUMPDEST PUSH1 0x20 SWAP4 SWAP1 SWAP4 ADD MLOAD SWAP3 SWAP5 SWAP3 SWAP4 POP POP POP JUMP JUMPDEST PUSH1 0x0 DUP1 PUSH1 0x0 PUSH1 0x60 DUP5 DUP7 SUB SLT ISZERO PUSH2 0x464D JUMPI DUP1 DUP2 REVERT JUMPDEST DUP4 MLOAD PUSH2 0x4658 DUP2 PUSH2 0x4B52 JUMP JUMPDEST PUSH1 0x20 DUP6 ADD MLOAD PUSH1 0x40 SWAP1 SWAP6 ADD MLOAD SWAP1 SWAP7 SWAP5 SWAP6 POP SWAP4 SWAP3 POP POP POP JUMP JUMPDEST PUSH1 0x0 DUP1 PUSH1 0x40 DUP4 DUP6 SUB SLT ISZERO PUSH2 0x4681 JUMPI DUP2 DUP3 REVERT JUMPDEST DUP3 MLOAD PUSH2 0x468C DUP2 PUSH2 0x4B52 JUMP JUMPDEST PUSH1 0x20 DUP5 ADD MLOAD SWAP1 SWAP3 POP PUSH1 0x1 PUSH1 0x1 PUSH1 0x40 SHL SUB DUP2 GT ISZERO PUSH2 0x46A7 JUMPI DUP2 DUP3 REVERT JUMPDEST PUSH2 0x45A0 DUP6 DUP3 DUP7 ADD PUSH2 0x416B JUMP JUMPDEST PUSH1 0x0 DUP1 PUSH1 0x0 PUSH1 0x60 DUP5 DUP7 SUB SLT ISZERO PUSH2 0x46C7 JUMPI DUP1 DUP2 REVERT JUMPDEST DUP4 CALLDATALOAD PUSH1 0x1 PUSH1 0x1 PUSH1 0x40 SHL SUB DUP1 DUP3 GT ISZERO PUSH2 0x46DD JUMPI DUP3 DUP4 REVERT JUMPDEST DUP2 DUP7 ADD SWAP2 POP PUSH2 0x120 DUP1 DUP4 DUP10 SUB SLT ISZERO PUSH2 0x46F3 JUMPI DUP4 DUP5 REVERT JUMPDEST PUSH2 0x46FC DUP2 PUSH2 0x4AEA JUMP JUMPDEST SWAP1 POP PUSH2 0x4708 DUP9 DUP5 PUSH2 0x4231 JUMP JUMPDEST DUP2 MSTORE PUSH2 0x4717 DUP9 PUSH1 0x20 DUP6 ADD PUSH2 0x40F2 JUMP JUMPDEST PUSH1 0x20 DUP3 ADD MSTORE PUSH2 0x4729 DUP9 PUSH1 0x40 DUP6 ADD PUSH2 0x40F2 JUMP JUMPDEST PUSH1 0x40 DUP3 ADD MSTORE PUSH1 0x60 DUP4 ADD CALLDATALOAD PUSH1 0x60 DUP3 ADD MSTORE PUSH1 0x80 DUP4 ADD CALLDATALOAD PUSH1 0x80 DUP3 ADD MSTORE PUSH1 0xA0 DUP4 ADD CALLDATALOAD PUSH1 0xA0 DUP3 ADD MSTORE PUSH2 0x4759 DUP9 PUSH1 0xC0 DUP6 ADD PUSH2 0x40F2 JUMP JUMPDEST PUSH1 0xC0 DUP3 ADD MSTORE PUSH2 0x476B DUP9 PUSH1 0xE0 DUP6 ADD PUSH2 0x40F2 JUMP JUMPDEST PUSH1 0xE0 DUP3 ADD MSTORE PUSH2 0x100 DUP1 DUP5 ADD CALLDATALOAD DUP4 DUP2 GT ISZERO PUSH2 0x4783 JUMPI DUP6 DUP7 REVERT JUMPDEST PUSH2 0x478F DUP11 DUP3 DUP8 ADD PUSH2 0x41C9 JUMP JUMPDEST SWAP2 DUP4 ADD SWAP2 SWAP1 SWAP2 MSTORE POP SWAP8 PUSH1 0x20 DUP8 ADD CALLDATALOAD SWAP8 POP PUSH1 0x40 SWAP1 SWAP7 ADD CALLDATALOAD SWAP6 SWAP5 POP POP POP POP POP JUMP JUMPDEST PUSH1 0x0 PUSH1 0x20 DUP3 DUP5 SUB SLT ISZERO PUSH2 0x47BF JUMPI DUP1 DUP2 REVERT JUMPDEST POP CALLDATALOAD SWAP2 SWAP1 POP JUMP JUMPDEST PUSH1 0x0 DUP1 PUSH1 0x0 PUSH1 0x60 DUP5 DUP7 SUB SLT ISZERO PUSH2 0x47DA JUMPI DUP1 DUP2 REVERT JUMPDEST DUP4 CALLDATALOAD SWAP3 POP PUSH1 0x20 DUP5 ADD CALLDATALOAD SWAP2 POP PUSH1 0x40 DUP5 ADD CALLDATALOAD PUSH1 0x1 PUSH1 0x1 PUSH1 0x40 SHL SUB DUP2 GT ISZERO PUSH2 0x47FD JUMPI DUP2 DUP3 REVERT JUMPDEST PUSH2 0x4809 DUP7 DUP3 DUP8 ADD PUSH2 0x40FD JUMP JUMPDEST SWAP2 POP POP SWAP3 POP SWAP3 POP SWAP3 JUMP JUMPDEST PUSH1 0x0 DUP1 PUSH1 0x0 DUP1 PUSH1 0x80 DUP6 DUP8 SUB SLT ISZERO PUSH2 0x4828 JUMPI DUP2 DUP3 REVERT JUMPDEST DUP5 MLOAD SWAP4 POP PUSH1 0x20 DUP6 ADD MLOAD SWAP3 POP PUSH1 0x40 DUP6 ADD MLOAD SWAP2 POP PUSH1 0x60 DUP6 ADD MLOAD PUSH2 0x4848 DUP2 PUSH2 0x4B2F JUMP JUMPDEST SWAP4 SWAP7 SWAP3 SWAP6 POP SWAP1 SWAP4 POP POP JUMP JUMPDEST PUSH1 0x0 DUP2 MLOAD DUP1 DUP5 MSTORE PUSH1 0x20 DUP1 DUP6 ADD SWAP5 POP DUP1 DUP5 ADD DUP4 JUMPDEST DUP4 DUP2 LT ISZERO PUSH2 0x4882 JUMPI DUP2 MLOAD DUP8 MSTORE SWAP6 DUP3 ADD SWAP6 SWAP1 DUP3 ADD SWAP1 PUSH1 0x1 ADD PUSH2 0x4866 JUMP JUMPDEST POP SWAP5 SWAP6 SWAP5 POP POP POP POP POP JUMP JUMPDEST PUSH1 0x0 DUP2 MLOAD DUP1 DUP5 MSTORE DUP2 JUMPDEST DUP2 DUP2 LT ISZERO PUSH2 0x48B2 JUMPI PUSH1 0x20 DUP2 DUP6 ADD DUP2 ADD MLOAD DUP7 DUP4 ADD DUP3 ADD MSTORE ADD PUSH2 0x4896 JUMP JUMPDEST DUP2 DUP2 GT ISZERO PUSH2 0x48C3 JUMPI DUP3 PUSH1 0x20 DUP4 DUP8 ADD ADD MSTORE JUMPDEST POP PUSH1 0x1F ADD PUSH1 0x1F NOT AND SWAP3 SWAP1 SWAP3 ADD PUSH1 0x20 ADD SWAP3 SWAP2 POP POP JUMP JUMPDEST SWAP2 DUP3 MSTORE PUSH1 0x1 PUSH1 0x1 PUSH1 0xE0 SHL SUB NOT AND PUSH1 0x20 DUP3 ADD MSTORE PUSH1 0x24 ADD SWAP1 JUMP JUMPDEST PUSH1 0x0 DUP3 DUP5 DUP4 CALLDATACOPY SWAP2 ADD SWAP1 DUP2 MSTORE SWAP2 SWAP1 POP JUMP JUMPDEST PUSH2 0x1901 PUSH1 0xF0 SHL DUP2 MSTORE PUSH1 0x2 DUP2 ADD SWAP3 SWAP1 SWAP3 MSTORE PUSH1 0x22 DUP3 ADD MSTORE PUSH1 0x42 ADD SWAP1 JUMP JUMPDEST PUSH1 0x1 PUSH1 0x1 PUSH1 0xA0 SHL SUB SWAP2 SWAP1 SWAP2 AND DUP2 MSTORE PUSH1 0x20 ADD SWAP1 JUMP JUMPDEST PUSH1 0x0 PUSH1 0x20 DUP3 MSTORE PUSH2 0x645 PUSH1 0x20 DUP4 ADD DUP5 PUSH2 0x4853 JUMP JUMPDEST PUSH1 0x0 PUSH1 0x40 DUP3 MSTORE PUSH2 0x4955 PUSH1 0x40 DUP4 ADD DUP6 PUSH2 0x4853 JUMP JUMPDEST DUP3 DUP2 SUB PUSH1 0x20 DUP5 ADD MSTORE PUSH2 0x290D DUP2 DUP6 PUSH2 0x4853 JUMP JUMPDEST SWAP1 ISZERO ISZERO DUP2 MSTORE PUSH1 0x20 ADD SWAP1 JUMP JUMPDEST SWAP3 ISZERO ISZERO DUP4 MSTORE PUSH1 0x20 DUP4 ADD SWAP2 SWAP1 SWAP2 MSTORE PUSH1 0x40 DUP3 ADD MSTORE PUSH1 0x60 ADD SWAP1 JUMP JUMPDEST SWAP1 DUP2 MSTORE PUSH1 0x20 ADD SWAP1 JUMP JUMPDEST SWAP3 DUP4 MSTORE PUSH1 0x1 PUSH1 0x1 PUSH1 0xA0 SHL SUB SWAP2 DUP3 AND PUSH1 0x20 DUP5 ADD MSTORE AND PUSH1 0x40 DUP3 ADD MSTORE PUSH1 0x60 ADD SWAP1 JUMP JUMPDEST SWAP6 DUP7 MSTORE PUSH1 0x1 PUSH1 0x1 PUSH1 0xA0 SHL SUB SWAP5 DUP6 AND PUSH1 0x20 DUP8 ADD MSTORE SWAP3 SWAP1 SWAP4 AND PUSH1 0x40 DUP6 ADD MSTORE PUSH1 0x60 DUP5 ADD MSTORE PUSH1 0x80 DUP4 ADD SWAP2 SWAP1 SWAP2 MSTORE PUSH1 0xA0 DUP3 ADD MSTORE PUSH1 0xC0 ADD SWAP1 JUMP JUMPDEST SWAP5 DUP6 MSTORE PUSH1 0x20 DUP6 ADD SWAP4 SWAP1 SWAP4 MSTORE PUSH1 0x40 DUP5 ADD SWAP2 SWAP1 SWAP2 MSTORE PUSH1 0x60 DUP4 ADD MSTORE PUSH1 0x1 PUSH1 0x1 PUSH1 0xA0 SHL SUB AND PUSH1 0x80 DUP3 ADD MSTORE PUSH1 0xA0 ADD SWAP1 JUMP JUMPDEST PUSH1 0x0 DUP4 DUP3 MSTORE PUSH1 0x40 PUSH1 0x20 DUP4 ADD MSTORE PUSH2 0x1E00 PUSH1 0x40 DUP4 ADD DUP5 PUSH2 0x488D JUMP JUMPDEST SWAP2 DUP3 MSTORE PUSH1 0x1 PUSH1 0x1 PUSH1 0xA0 SHL SUB AND PUSH1 0x20 DUP3 ADD MSTORE PUSH1 0x40 ADD SWAP1 JUMP JUMPDEST SWAP4 DUP5 MSTORE PUSH1 0xFF SWAP3 SWAP1 SWAP3 AND PUSH1 0x20 DUP5 ADD MSTORE PUSH1 0x40 DUP4 ADD MSTORE PUSH1 0x60 DUP3 ADD MSTORE PUSH1 0x80 ADD SWAP1 JUMP JUMPDEST PUSH1 0x0 PUSH1 0x20 DUP3 MSTORE PUSH2 0x645 PUSH1 0x20 DUP4 ADD DUP5 PUSH2 0x488D JUMP JUMPDEST PUSH1 0x0 DUP4 DUP3 MSTORE PUSH1 0x40 PUSH1 0x20 DUP4 ADD MSTORE PUSH2 0x1E00 PUSH1 0x40 DUP4 ADD DUP5 PUSH2 0x4853 JUMP JUMPDEST PUSH1 0x0 DUP5 DUP3 MSTORE DUP4 PUSH1 0x20 DUP4 ADD MSTORE PUSH1 0x60 PUSH1 0x40 DUP4 ADD MSTORE PUSH2 0x290D PUSH1 0x60 DUP4 ADD DUP5 PUSH2 0x4853 JUMP JUMPDEST PUSH1 0x0 DUP6 DUP3 MSTORE DUP5 PUSH1 0x20 DUP4 ADD MSTORE PUSH1 0x80 PUSH1 0x40 DUP4 ADD MSTORE PUSH2 0x4ACA PUSH1 0x80 DUP4 ADD DUP6 PUSH2 0x4853 JUMP JUMPDEST DUP3 DUP2 SUB PUSH1 0x60 DUP5 ADD MSTORE PUSH2 0x280F DUP2 DUP6 PUSH2 0x4853 JUMP JUMPDEST PUSH1 0xFF SWAP2 SWAP1 SWAP2 AND DUP2 MSTORE PUSH1 0x20 ADD SWAP1 JUMP JUMPDEST PUSH1 0x40 MLOAD DUP2 DUP2 ADD PUSH1 0x1 PUSH1 0x1 PUSH1 0x40 SHL SUB DUP2 GT DUP3 DUP3 LT OR ISZERO PUSH2 0x4B08 JUMPI PUSH1 0x0 DUP1 REVERT JUMPDEST PUSH1 0x40 MSTORE SWAP2 SWAP1 POP JUMP JUMPDEST PUSH1 0x0 PUSH1 0x1 PUSH1 0x1 PUSH1 0x40 SHL SUB DUP3 GT ISZERO PUSH2 0x4B25 JUMPI DUP1 DUP2 REVERT JUMPDEST POP PUSH1 0x20 SWAP1 DUP2 MUL ADD SWAP1 JUMP JUMPDEST PUSH1 0x1 PUSH1 0x1 PUSH1 0xA0 SHL SUB DUP2 AND DUP2 EQ PUSH2 0x595 JUMPI PUSH1 0x0 DUP1 REVERT JUMPDEST DUP1 ISZERO ISZERO DUP2 EQ PUSH2 0x595 JUMPI PUSH1 0x0 DUP1 REVERT JUMPDEST PUSH1 0x3 DUP2 LT PUSH2 0x595 JUMPI PUSH1 0x0 DUP1 REVERT INVALID LOG2 PUSH5 0x6970667358 0x22 SLT KECCAK256 BYTE 0xA6 0xBD 0xDA CODESIZE BALANCE DUP3 GASPRICE 0xB5 0xE4 0x24 0xC5 0x48 MSTORE8 0xCF 0xE9 0x23 SWAP14 DUP6 0xD4 0xD2 0xF7 MOD SWAP13 SIGNEXTEND SWAP5 DUP10 DUP1 0x2D SWAP14 ISZERO KECCAK256 PUSH5 0x736F6C6343 STOP SMOD ADD STOP CALLER "
		},
		"gasEstimates": {
			"creation": {
				"codeDepositCost": "3869800",
				"executionCost": "infinite",
				"totalCost": "infinite"
			},
			"external": {
				"DOMAIN_SEPARATOR()": "infinite",
				"allowance(address,address)": "infinite",
				"approve(address,uint256)": "22550",
				"balanceOf(address)": "1409",
				"decimals()": "1158",
				"decreaseAllowance(address,uint256)": "23592",
				"getActionId(bytes4)": "infinite",
				"getAuthorizer()": "infinite",
				"getGradualWeightUpdateParams()": "infinite",
				"getInvariant()": "infinite",
				"getLastInvariant()": "1161",
				"getNormalizedWeights()": "infinite",
				"getOwner()": "infinite",
				"getPausedState()": "infinite",
				"getPoolId()": "infinite",
				"getRate()": "infinite",
				"getScalingFactors()": "infinite",
				"getSwapEnabled()": "1230",
				"getSwapFeePercentage()": "1160",
				"getVault()": "infinite",
				"increaseAllowance(address,uint256)": "23650",
				"name()": "infinite",
				"nonces(address)": "1354",
				"onExitPool(bytes32,address,address,uint256[],uint256,uint256,bytes)": "infinite",
				"onJoinPool(bytes32,address,address,uint256[],uint256,uint256,bytes)": "infinite",
				"onSwap((uint8,address,address,uint256,bytes32,uint256,address,address,bytes),uint256,uint256)": "infinite",
				"permit(address,address,uint256,uint256,uint8,bytes32,bytes32)": "infinite",
				"queryExit(bytes32,address,address,uint256[],uint256,uint256,bytes)": "infinite",
				"queryJoin(bytes32,address,address,uint256[],uint256,uint256,bytes)": "infinite",
				"setAssetManagerPoolConfig(address,bytes)": "infinite",
				"setPaused(bool)": "infinite",
				"setSwapEnabled(bool)": "infinite",
				"setSwapFeePercentage(uint256)": "infinite",
				"symbol()": "infinite",
				"totalSupply()": "1141",
				"transfer(address,uint256)": "infinite",
				"transferFrom(address,address,uint256)": "infinite",
				"updateWeightsGradually(uint256,uint256,uint256[])": "infinite"
			}
		},
		"methodIdentifiers": {
			"DOMAIN_SEPARATOR()": "3644e515",
			"allowance(address,address)": "dd62ed3e",
			"approve(address,uint256)": "095ea7b3",
			"balanceOf(address)": "70a08231",
			"decimals()": "313ce567",
			"decreaseAllowance(address,uint256)": "a457c2d7",
			"getActionId(bytes4)": "851c1bb3",
			"getAuthorizer()": "aaabadc5",
			"getGradualWeightUpdateParams()": "7beed220",
			"getInvariant()": "c0ff1a15",
			"getLastInvariant()": "9b02cdde",
			"getNormalizedWeights()": "f89f27ed",
			"getOwner()": "893d20e8",
			"getPausedState()": "1c0de051",
			"getPoolId()": "38fff2d0",
			"getRate()": "679aefce",
			"getScalingFactors()": "1dd746ea",
			"getSwapEnabled()": "47bc4d92",
			"getSwapFeePercentage()": "55c67628",
			"getVault()": "8d928af8",
			"increaseAllowance(address,uint256)": "39509351",
			"name()": "06fdde03",
			"nonces(address)": "7ecebe00",
			"onExitPool(bytes32,address,address,uint256[],uint256,uint256,bytes)": "74f3b009",
			"onJoinPool(bytes32,address,address,uint256[],uint256,uint256,bytes)": "d5c096c4",
			"onSwap((uint8,address,address,uint256,bytes32,uint256,address,address,bytes),uint256,uint256)": "9d2c110c",
			"permit(address,address,uint256,uint256,uint8,bytes32,bytes32)": "d505accf",
			"queryExit(bytes32,address,address,uint256[],uint256,uint256,bytes)": "6028bfd4",
			"queryJoin(bytes32,address,address,uint256[],uint256,uint256,bytes)": "87ec6817",
			"setAssetManagerPoolConfig(address,bytes)": "50dd6ed9",
			"setPaused(bool)": "16c38b3c",
			"setSwapEnabled(bool)": "e01af92c",
			"setSwapFeePercentage(uint256)": "38e9922e",
			"symbol()": "95d89b41",
			"totalSupply()": "18160ddd",
			"transfer(address,uint256)": "a9059cbb",
			"transferFrom(address,address,uint256)": "23b872dd",
			"updateWeightsGradually(uint256,uint256,uint256[])": "3e569205"
		}
	},
	"abi": [
		{
			"inputs": [
				{
					"internalType": "contract IVault",
					"name": "vault",
					"type": "address"
				},
				{
					"internalType": "string",
					"name": "name",
					"type": "string"
				},
				{
					"internalType": "string",
					"name": "symbol",
					"type": "string"
				},
				{
					"internalType": "contract IERC20[]",
					"name": "tokens",
					"type": "address[]"
				},
				{
					"internalType": "uint256[]",
					"name": "normalizedWeights",
					"type": "uint256[]"
				},
				{
					"internalType": "uint256",
					"name": "swapFeePercentage",
					"type": "uint256"
				},
				{
					"internalType": "uint256",
					"name": "pauseWindowDuration",
					"type": "uint256"
				},
				{
					"internalType": "uint256",
					"name": "bufferPeriodDuration",
					"type": "uint256"
				},
				{
					"internalType": "address",
					"name": "owner",
					"type": "address"
				},
				{
					"internalType": "bool",
					"name": "swapEnabledOnStart",
					"type": "bool"
				}
			],
			"stateMutability": "nonpayable",
			"type": "constructor"
		},
		{
			"anonymous": false,
			"inputs": [
				{
					"indexed": true,
					"internalType": "address",
					"name": "owner",
					"type": "address"
				},
				{
					"indexed": true,
					"internalType": "address",
					"name": "spender",
					"type": "address"
				},
				{
					"indexed": false,
					"internalType": "uint256",
					"name": "value",
					"type": "uint256"
				}
			],
			"name": "Approval",
			"type": "event"
		},
		{
			"anonymous": false,
			"inputs": [
				{
					"indexed": false,
					"internalType": "uint256",
					"name": "startTime",
					"type": "uint256"
				},
				{
					"indexed": false,
					"internalType": "uint256",
					"name": "endTime",
					"type": "uint256"
				},
				{
					"indexed": false,
					"internalType": "uint256[]",
					"name": "startWeights",
					"type": "uint256[]"
				},
				{
					"indexed": false,
					"internalType": "uint256[]",
					"name": "endWeights",
					"type": "uint256[]"
				}
			],
			"name": "GradualWeightUpdateScheduled",
			"type": "event"
		},
		{
			"anonymous": false,
			"inputs": [
				{
					"indexed": false,
					"internalType": "bool",
					"name": "paused",
					"type": "bool"
				}
			],
			"name": "PausedStateChanged",
			"type": "event"
		},
		{
			"anonymous": false,
			"inputs": [
				{
					"indexed": false,
					"internalType": "bool",
					"name": "swapEnabled",
					"type": "bool"
				}
			],
			"name": "SwapEnabledSet",
			"type": "event"
		},
		{
			"anonymous": false,
			"inputs": [
				{
					"indexed": false,
					"internalType": "uint256",
					"name": "swapFeePercentage",
					"type": "uint256"
				}
			],
			"name": "SwapFeePercentageChanged",
			"type": "event"
		},
		{
			"anonymous": false,
			"inputs": [
				{
					"indexed": true,
					"internalType": "address",
					"name": "from",
					"type": "address"
				},
				{
					"indexed": true,
					"internalType": "address",
					"name": "to",
					"type": "address"
				},
				{
					"indexed": false,
					"internalType": "uint256",
					"name": "value",
					"type": "uint256"
				}
			],
			"name": "Transfer",
			"type": "event"
		},
		{
			"inputs": [],
			"name": "DOMAIN_SEPARATOR",
			"outputs": [
				{
					"internalType": "bytes32",
					"name": "",
					"type": "bytes32"
				}
			],
			"stateMutability": "view",
			"type": "function"
		},
		{
			"inputs": [
				{
					"internalType": "address",
					"name": "owner",
					"type": "address"
				},
				{
					"internalType": "address",
					"name": "spender",
					"type": "address"
				}
			],
			"name": "allowance",
			"outputs": [
				{
					"internalType": "uint256",
					"name": "",
					"type": "uint256"
				}
			],
			"stateMutability": "view",
			"type": "function"
		},
		{
			"inputs": [
				{
					"internalType": "address",
					"name": "spender",
					"type": "address"
				},
				{
					"internalType": "uint256",
					"name": "amount",
					"type": "uint256"
				}
			],
			"name": "approve",
			"outputs": [
				{
					"internalType": "bool",
					"name": "",
					"type": "bool"
				}
			],
			"stateMutability": "nonpayable",
			"type": "function"
		},
		{
			"inputs": [
				{
					"internalType": "address",
					"name": "account",
					"type": "address"
				}
			],
			"name": "balanceOf",
			"outputs": [
				{
					"internalType": "uint256",
					"name": "",
					"type": "uint256"
				}
			],
			"stateMutability": "view",
			"type": "function"
		},
		{
			"inputs": [],
			"name": "decimals",
			"outputs": [
				{
					"internalType": "uint8",
					"name": "",
					"type": "uint8"
				}
			],
			"stateMutability": "view",
			"type": "function"
		},
		{
			"inputs": [
				{
					"internalType": "address",
					"name": "spender",
					"type": "address"
				},
				{
					"internalType": "uint256",
					"name": "amount",
					"type": "uint256"
				}
			],
			"name": "decreaseAllowance",
			"outputs": [
				{
					"internalType": "bool",
					"name": "",
					"type": "bool"
				}
			],
			"stateMutability": "nonpayable",
			"type": "function"
		},
		{
			"inputs": [
				{
					"internalType": "bytes4",
					"name": "selector",
					"type": "bytes4"
				}
			],
			"name": "getActionId",
			"outputs": [
				{
					"internalType": "bytes32",
					"name": "",
					"type": "bytes32"
				}
			],
			"stateMutability": "view",
			"type": "function"
		},
		{
			"inputs": [],
			"name": "getAuthorizer",
			"outputs": [
				{
					"internalType": "contract IAuthorizer",
					"name": "",
					"type": "address"
				}
			],
			"stateMutability": "view",
			"type": "function"
		},
		{
			"inputs": [],
			"name": "getGradualWeightUpdateParams",
			"outputs": [
				{
					"internalType": "uint256",
					"name": "startTime",
					"type": "uint256"
				},
				{
					"internalType": "uint256",
					"name": "endTime",
					"type": "uint256"
				},
				{
					"internalType": "uint256[]",
					"name": "endWeights",
					"type": "uint256[]"
				}
			],
			"stateMutability": "view",
			"type": "function"
		},
		{
			"inputs": [],
			"name": "getInvariant",
			"outputs": [
				{
					"internalType": "uint256",
					"name": "",
					"type": "uint256"
				}
			],
			"stateMutability": "view",
			"type": "function"
		},
		{
			"inputs": [],
			"name": "getLastInvariant",
			"outputs": [
				{
					"internalType": "uint256",
					"name": "",
					"type": "uint256"
				}
			],
			"stateMutability": "view",
			"type": "function"
		},
		{
			"inputs": [],
			"name": "getNormalizedWeights",
			"outputs": [
				{
					"internalType": "uint256[]",
					"name": "",
					"type": "uint256[]"
				}
			],
			"stateMutability": "view",
			"type": "function"
		},
		{
			"inputs": [],
			"name": "getOwner",
			"outputs": [
				{
					"internalType": "address",
					"name": "",
					"type": "address"
				}
			],
			"stateMutability": "view",
			"type": "function"
		},
		{
			"inputs": [],
			"name": "getPausedState",
			"outputs": [
				{
					"internalType": "bool",
					"name": "paused",
					"type": "bool"
				},
				{
					"internalType": "uint256",
					"name": "pauseWindowEndTime",
					"type": "uint256"
				},
				{
					"internalType": "uint256",
					"name": "bufferPeriodEndTime",
					"type": "uint256"
				}
			],
			"stateMutability": "view",
			"type": "function"
		},
		{
			"inputs": [],
			"name": "getPoolId",
			"outputs": [
				{
					"internalType": "bytes32",
					"name": "",
					"type": "bytes32"
				}
			],
			"stateMutability": "view",
			"type": "function"
		},
		{
			"inputs": [],
			"name": "getRate",
			"outputs": [
				{
					"internalType": "uint256",
					"name": "",
					"type": "uint256"
				}
			],
			"stateMutability": "view",
			"type": "function"
		},
		{
			"inputs": [],
			"name": "getScalingFactors",
			"outputs": [
				{
					"internalType": "uint256[]",
					"name": "",
					"type": "uint256[]"
				}
			],
			"stateMutability": "view",
			"type": "function"
		},
		{
			"inputs": [],
			"name": "getSwapEnabled",
			"outputs": [
				{
					"internalType": "bool",
					"name": "",
					"type": "bool"
				}
			],
			"stateMutability": "view",
			"type": "function"
		},
		{
			"inputs": [],
			"name": "getSwapFeePercentage",
			"outputs": [
				{
					"internalType": "uint256",
					"name": "",
					"type": "uint256"
				}
			],
			"stateMutability": "view",
			"type": "function"
		},
		{
			"inputs": [],
			"name": "getVault",
			"outputs": [
				{
					"internalType": "contract IVault",
					"name": "",
					"type": "address"
				}
			],
			"stateMutability": "view",
			"type": "function"
		},
		{
			"inputs": [
				{
					"internalType": "address",
					"name": "spender",
					"type": "address"
				},
				{
					"internalType": "uint256",
					"name": "addedValue",
					"type": "uint256"
				}
			],
			"name": "increaseAllowance",
			"outputs": [
				{
					"internalType": "bool",
					"name": "",
					"type": "bool"
				}
			],
			"stateMutability": "nonpayable",
			"type": "function"
		},
		{
			"inputs": [],
			"name": "name",
			"outputs": [
				{
					"internalType": "string",
					"name": "",
					"type": "string"
				}
			],
			"stateMutability": "view",
			"type": "function"
		},
		{
			"inputs": [
				{
					"internalType": "address",
					"name": "owner",
					"type": "address"
				}
			],
			"name": "nonces",
			"outputs": [
				{
					"internalType": "uint256",
					"name": "",
					"type": "uint256"
				}
			],
			"stateMutability": "view",
			"type": "function"
		},
		{
			"inputs": [
				{
					"internalType": "bytes32",
					"name": "poolId",
					"type": "bytes32"
				},
				{
					"internalType": "address",
					"name": "sender",
					"type": "address"
				},
				{
					"internalType": "address",
					"name": "recipient",
					"type": "address"
				},
				{
					"internalType": "uint256[]",
					"name": "balances",
					"type": "uint256[]"
				},
				{
					"internalType": "uint256",
					"name": "lastChangeBlock",
					"type": "uint256"
				},
				{
					"internalType": "uint256",
					"name": "",
					"type": "uint256"
				},
				{
					"internalType": "bytes",
					"name": "userData",
					"type": "bytes"
				}
			],
			"name": "onExitPool",
			"outputs": [
				{
					"internalType": "uint256[]",
					"name": "",
					"type": "uint256[]"
				},
				{
					"internalType": "uint256[]",
					"name": "",
					"type": "uint256[]"
				}
			],
			"stateMutability": "nonpayable",
			"type": "function"
		},
		{
			"inputs": [
				{
					"internalType": "bytes32",
					"name": "poolId",
					"type": "bytes32"
				},
				{
					"internalType": "address",
					"name": "sender",
					"type": "address"
				},
				{
					"internalType": "address",
					"name": "recipient",
					"type": "address"
				},
				{
					"internalType": "uint256[]",
					"name": "balances",
					"type": "uint256[]"
				},
				{
					"internalType": "uint256",
					"name": "lastChangeBlock",
					"type": "uint256"
				},
				{
					"internalType": "uint256",
					"name": "",
					"type": "uint256"
				},
				{
					"internalType": "bytes",
					"name": "userData",
					"type": "bytes"
				}
			],
			"name": "onJoinPool",
			"outputs": [
				{
					"internalType": "uint256[]",
					"name": "",
					"type": "uint256[]"
				},
				{
					"internalType": "uint256[]",
					"name": "",
					"type": "uint256[]"
				}
			],
			"stateMutability": "nonpayable",
			"type": "function"
		},
		{
			"inputs": [
				{
					"components": [
						{
							"internalType": "enum IVault.SwapKind",
							"name": "kind",
							"type": "uint8"
						},
						{
							"internalType": "contract IERC20",
							"name": "tokenIn",
							"type": "address"
						},
						{
							"internalType": "contract IERC20",
							"name": "tokenOut",
							"type": "address"
						},
						{
							"internalType": "uint256",
							"name": "amount",
							"type": "uint256"
						},
						{
							"internalType": "bytes32",
							"name": "poolId",
							"type": "bytes32"
						},
						{
							"internalType": "uint256",
							"name": "lastChangeBlock",
							"type": "uint256"
						},
						{
							"internalType": "address",
							"name": "from",
							"type": "address"
						},
						{
							"internalType": "address",
							"name": "to",
							"type": "address"
						},
						{
							"internalType": "bytes",
							"name": "userData",
							"type": "bytes"
						}
					],
					"internalType": "struct IPoolSwapStructs.SwapRequest",
					"name": "request",
					"type": "tuple"
				},
				{
					"internalType": "uint256",
					"name": "balanceTokenIn",
					"type": "uint256"
				},
				{
					"internalType": "uint256",
					"name": "balanceTokenOut",
					"type": "uint256"
				}
			],
			"name": "onSwap",
			"outputs": [
				{
					"internalType": "uint256",
					"name": "",
					"type": "uint256"
				}
			],
			"stateMutability": "nonpayable",
			"type": "function"
		},
		{
			"inputs": [
				{
					"internalType": "address",
					"name": "owner",
					"type": "address"
				},
				{
					"internalType": "address",
					"name": "spender",
					"type": "address"
				},
				{
					"internalType": "uint256",
					"name": "value",
					"type": "uint256"
				},
				{
					"internalType": "uint256",
					"name": "deadline",
					"type": "uint256"
				},
				{
					"internalType": "uint8",
					"name": "v",
					"type": "uint8"
				},
				{
					"internalType": "bytes32",
					"name": "r",
					"type": "bytes32"
				},
				{
					"internalType": "bytes32",
					"name": "s",
					"type": "bytes32"
				}
			],
			"name": "permit",
			"outputs": [],
			"stateMutability": "nonpayable",
			"type": "function"
		},
		{
			"inputs": [
				{
					"internalType": "bytes32",
					"name": "poolId",
					"type": "bytes32"
				},
				{
					"internalType": "address",
					"name": "sender",
					"type": "address"
				},
				{
					"internalType": "address",
					"name": "recipient",
					"type": "address"
				},
				{
					"internalType": "uint256[]",
					"name": "balances",
					"type": "uint256[]"
				},
				{
					"internalType": "uint256",
					"name": "lastChangeBlock",
					"type": "uint256"
				},
				{
					"internalType": "uint256",
					"name": "protocolSwapFeePercentage",
					"type": "uint256"
				},
				{
					"internalType": "bytes",
					"name": "userData",
					"type": "bytes"
				}
			],
			"name": "queryExit",
			"outputs": [
				{
					"internalType": "uint256",
					"name": "bptIn",
					"type": "uint256"
				},
				{
					"internalType": "uint256[]",
					"name": "amountsOut",
					"type": "uint256[]"
				}
			],
			"stateMutability": "nonpayable",
			"type": "function"
		},
		{
			"inputs": [
				{
					"internalType": "bytes32",
					"name": "poolId",
					"type": "bytes32"
				},
				{
					"internalType": "address",
					"name": "sender",
					"type": "address"
				},
				{
					"internalType": "address",
					"name": "recipient",
					"type": "address"
				},
				{
					"internalType": "uint256[]",
					"name": "balances",
					"type": "uint256[]"
				},
				{
					"internalType": "uint256",
					"name": "lastChangeBlock",
					"type": "uint256"
				},
				{
					"internalType": "uint256",
					"name": "protocolSwapFeePercentage",
					"type": "uint256"
				},
				{
					"internalType": "bytes",
					"name": "userData",
					"type": "bytes"
				}
			],
			"name": "queryJoin",
			"outputs": [
				{
					"internalType": "uint256",
					"name": "bptOut",
					"type": "uint256"
				},
				{
					"internalType": "uint256[]",
					"name": "amountsIn",
					"type": "uint256[]"
				}
			],
			"stateMutability": "nonpayable",
			"type": "function"
		},
		{
			"inputs": [
				{
					"internalType": "contract IERC20",
					"name": "token",
					"type": "address"
				},
				{
					"internalType": "bytes",
					"name": "poolConfig",
					"type": "bytes"
				}
			],
			"name": "setAssetManagerPoolConfig",
			"outputs": [],
			"stateMutability": "nonpayable",
			"type": "function"
		},
		{
			"inputs": [
				{
					"internalType": "bool",
					"name": "paused",
					"type": "bool"
				}
			],
			"name": "setPaused",
			"outputs": [],
			"stateMutability": "nonpayable",
			"type": "function"
		},
		{
			"inputs": [
				{
					"internalType": "bool",
					"name": "swapEnabled",
					"type": "bool"
				}
			],
			"name": "setSwapEnabled",
			"outputs": [],
			"stateMutability": "nonpayable",
			"type": "function"
		},
		{
			"inputs": [
				{
					"internalType": "uint256",
					"name": "swapFeePercentage",
					"type": "uint256"
				}
			],
			"name": "setSwapFeePercentage",
			"outputs": [],
			"stateMutability": "nonpayable",
			"type": "function"
		},
		{
			"inputs": [],
			"name": "symbol",
			"outputs": [
				{
					"internalType": "string",
					"name": "",
					"type": "string"
				}
			],
			"stateMutability": "view",
			"type": "function"
		},
		{
			"inputs": [],
			"name": "totalSupply",
			"outputs": [
				{
					"internalType": "uint256",
					"name": "",
					"type": "uint256"
				}
			],
			"stateMutability": "view",
			"type": "function"
		},
		{
			"inputs": [
				{
					"internalType": "address",
					"name": "recipient",
					"type": "address"
				},
				{
					"internalType": "uint256",
					"name": "amount",
					"type": "uint256"
				}
			],
			"name": "transfer",
			"outputs": [
				{
					"internalType": "bool",
					"name": "",
					"type": "bool"
				}
			],
			"stateMutability": "nonpayable",
			"type": "function"
		},
		{
			"inputs": [
				{
					"internalType": "address",
					"name": "sender",
					"type": "address"
				},
				{
					"internalType": "address",
					"name": "recipient",
					"type": "address"
				},
				{
					"internalType": "uint256",
					"name": "amount",
					"type": "uint256"
				}
			],
			"name": "transferFrom",
			"outputs": [
				{
					"internalType": "bool",
					"name": "",
					"type": "bool"
				}
			],
			"stateMutability": "nonpayable",
			"type": "function"
		},
		{
			"inputs": [
				{
					"internalType": "uint256",
					"name": "startTime",
					"type": "uint256"
				},
				{
					"internalType": "uint256",
					"name": "endTime",
					"type": "uint256"
				},
				{
					"internalType": "uint256[]",
					"name": "endWeights",
					"type": "uint256[]"
				}
			],
			"name": "updateWeightsGradually",
			"outputs": [],
			"stateMutability": "nonpayable",
			"type": "function"
		}
	]
}