{
	"data": {
		"bytecode": {
			"linkReferences": {},
			"object": "608060405234801561001057600080fd5b506102f6806100206000396000f3fe608060405234801561001057600080fd5b50600436106100365760003560e01c806360d1507c1461003b578063b48b5b401461006a575b600080fd5b61004e61004936600461026f565b61007f565b6040516100619796959493929190610287565b60405180910390f35b6100726100c8565b60405161006191906102b7565b600080600080600080600061009a610400891061013b6100ce565b60006100a5896100e0565b90506100b0816100f2565b959f949e50929c50909a509850965090945092505050565b61040090565b816100dc576100dc81610155565b5050565b60009081526020819052604090205490565b6000806000806000806000610106886101a8565b9650610111886101bb565b955061011c886101c8565b9450610127886101d5565b9350610132886101e2565b925061013d886101ef565b9150610148886101fc565b9050919395979092949650565b62461bcd60e51b6000908152602060045260076024526642414c23000030600a808404818106603090810160081b95839006959095019082900491820690940160101b939093010160c81b604452606490fd5b60006101b58260ea610208565b92915050565b60006101b58260b5610232565b60006101b582609f610208565b60006101b582606a610232565b60006101b5826054610208565b60006101b582601f610232565b60006101b58282610265565b600082821c623fffff16621fffff8113610222578061022a565b623fffff1981175b949350505050565b600082821c661fffffffffffff16660fffffffffffff8113610254578061022a565b661fffffffffffff19179392505050565b1c637fffffff1690565b600060208284031215610280578081fd5b5035919050565b968752602087019590955260408601939093526060850191909152608084015260a083015260c082015260e00190565b9081526020019056fea2646970667358221220abe8984647227eccbb608348bc924177a2abed6ef0d3c8bd6dba72cf31819cb564736f6c63430007010033",
			"opcodes": "PUSH1 0x80 PUSH1 0x40 MSTORE CALLVALUE DUP1 ISZERO PUSH2 0x10 JUMPI PUSH1 0x0 DUP1 REVERT JUMPDEST POP PUSH2 0x2F6 DUP1 PUSH2 0x20 PUSH1 0x0 CODECOPY PUSH1 0x0 RETURN INVALID PUSH1 0x80 PUSH1 0x40 MSTORE CALLVALUE DUP1 ISZERO PUSH2 0x10 JUMPI PUSH1 0x0 DUP1 REVERT JUMPDEST POP PUSH1 0x4 CALLDATASIZE LT PUSH2 0x36 JUMPI PUSH1 0x0 CALLDATALOAD PUSH1 0xE0 SHR DUP1 PUSH4 0x60D1507C EQ PUSH2 0x3B JUMPI DUP1 PUSH4 0xB48B5B40 EQ PUSH2 0x6A JUMPI JUMPDEST PUSH1 0x0 DUP1 REVERT JUMPDEST PUSH2 0x4E PUSH2 0x49 CALLDATASIZE PUSH1 0x4 PUSH2 0x26F JUMP JUMPDEST PUSH2 0x7F JUMP JUMPDEST PUSH1 0x40 MLOAD PUSH2 0x61 SWAP8 SWAP7 SWAP6 SWAP5 SWAP4 SWAP3 SWAP2 SWAP1 PUSH2 0x287 JUMP JUMPDEST PUSH1 0x40 MLOAD DUP1 SWAP2 SUB SWAP1 RETURN JUMPDEST PUSH2 0x72 PUSH2 0xC8 JUMP JUMPDEST PUSH1 0x40 MLOAD PUSH2 0x61 SWAP2 SWAP1 PUSH2 0x2B7 JUMP JUMPDEST PUSH1 0x0 DUP1 PUSH1 0x0 DUP1 PUSH1 0x0 DUP1 PUSH1 0x0 PUSH2 0x9A PUSH2 0x400 DUP10 LT PUSH2 0x13B PUSH2 0xCE JUMP JUMPDEST PUSH1 0x0 PUSH2 0xA5 DUP10 PUSH2 0xE0 JUMP JUMPDEST SWAP1 POP PUSH2 0xB0 DUP2 PUSH2 0xF2 JUMP JUMPDEST SWAP6 SWAP16 SWAP5 SWAP15 POP SWAP3 SWAP13 POP SWAP1 SWAP11 POP SWAP9 POP SWAP7 POP SWAP1 SWAP5 POP SWAP3 POP POP POP JUMP JUMPDEST PUSH2 0x400 SWAP1 JUMP JUMPDEST DUP2 PUSH2 0xDC JUMPI PUSH2 0xDC DUP2 PUSH2 0x155 JUMP JUMPDEST POP POP JUMP JUMPDEST PUSH1 0x0 SWAP1 DUP2 MSTORE PUSH1 0x20 DUP2 SWAP1 MSTORE PUSH1 0x40 SWAP1 KECCAK256 SLOAD SWAP1 JUMP JUMPDEST PUSH1 0x0 DUP1 PUSH1 0x0 DUP1 PUSH1 0x0 DUP1 PUSH1 0x0 PUSH2 0x106 DUP9 PUSH2 0x1A8 JUMP JUMPDEST SWAP7 POP PUSH2 0x111 DUP9 PUSH2 0x1BB JUMP JUMPDEST SWAP6 POP PUSH2 0x11C DUP9 PUSH2 0x1C8 JUMP JUMPDEST SWAP5 POP PUSH2 0x127 DUP9 PUSH2 0x1D5 JUMP JUMPDEST SWAP4 POP PUSH2 0x132 DUP9 PUSH2 0x1E2 JUMP JUMPDEST SWAP3 POP PUSH2 0x13D DUP9 PUSH2 0x1EF JUMP JUMPDEST SWAP2 POP PUSH2 0x148 DUP9 PUSH2 0x1FC JUMP JUMPDEST SWAP1 POP SWAP2 SWAP4 SWAP6 SWAP8 SWAP1 SWAP3 SWAP5 SWAP7 POP JUMP JUMPDEST PUSH3 0x461BCD PUSH1 0xE5 SHL PUSH1 0x0 SWAP1 DUP2 MSTORE PUSH1 0x20 PUSH1 0x4 MSTORE PUSH1 0x7 PUSH1 0x24 MSTORE PUSH7 0x42414C23000030 PUSH1 0xA DUP1 DUP5 DIV DUP2 DUP2 MOD PUSH1 0x30 SWAP1 DUP2 ADD PUSH1 0x8 SHL SWAP6 DUP4 SWAP1 MOD SWAP6 SWAP1 SWAP6 ADD SWAP1 DUP3 SWAP1 DIV SWAP2 DUP3 MOD SWAP1 SWAP5 ADD PUSH1 0x10 SHL SWAP4 SWAP1 SWAP4 ADD ADD PUSH1 0xC8 SHL PUSH1 0x44 MSTORE PUSH1 0x64 SWAP1 REVERT JUMPDEST PUSH1 0x0 PUSH2 0x1B5 DUP3 PUSH1 0xEA PUSH2 0x208 JUMP JUMPDEST SWAP3 SWAP2 POP POP JUMP JUMPDEST PUSH1 0x0 PUSH2 0x1B5 DUP3 PUSH1 0xB5 PUSH2 0x232 JUMP JUMPDEST PUSH1 0x0 PUSH2 0x1B5 DUP3 PUSH1 0x9F PUSH2 0x208 JUMP JUMPDEST PUSH1 0x0 PUSH2 0x1B5 DUP3 PUSH1 0x6A PUSH2 0x232 JUMP JUMPDEST PUSH1 0x0 PUSH2 0x1B5 DUP3 PUSH1 0x54 PUSH2 0x208 JUMP JUMPDEST PUSH1 0x0 PUSH2 0x1B5 DUP3 PUSH1 0x1F PUSH2 0x232 JUMP JUMPDEST PUSH1 0x0 PUSH2 0x1B5 DUP3 DUP3 PUSH2 0x265 JUMP JUMPDEST PUSH1 0x0 DUP3 DUP3 SHR PUSH3 0x3FFFFF AND PUSH3 0x1FFFFF DUP2 SGT PUSH2 0x222 JUMPI DUP1 PUSH2 0x22A JUMP JUMPDEST PUSH3 0x3FFFFF NOT DUP2 OR JUMPDEST SWAP5 SWAP4 POP POP POP POP JUMP JUMPDEST PUSH1 0x0 DUP3 DUP3 SHR PUSH7 0x1FFFFFFFFFFFFF AND PUSH7 0xFFFFFFFFFFFFF DUP2 SGT PUSH2 0x254 JUMPI DUP1 PUSH2 0x22A JUMP JUMPDEST PUSH7 0x1FFFFFFFFFFFFF NOT OR SWAP4 SWAP3 POP POP POP JUMP JUMPDEST SHR PUSH4 0x7FFFFFFF AND SWAP1 JUMP JUMPDEST PUSH1 0x0 PUSH1 0x20 DUP3 DUP5 SUB SLT ISZERO PUSH2 0x280 JUMPI DUP1 DUP2 REVERT JUMPDEST POP CALLDATALOAD SWAP2 SWAP1 POP JUMP JUMPDEST SWAP7 DUP8 MSTORE PUSH1 0x20 DUP8 ADD SWAP6 SWAP1 SWAP6 MSTORE PUSH1 0x40 DUP7 ADD SWAP4 SWAP1 SWAP4 MSTORE PUSH1 0x60 DUP6 ADD SWAP2 SWAP1 SWAP2 MSTORE PUSH1 0x80 DUP5 ADD MSTORE PUSH1 0xA0 DUP4 ADD MSTORE PUSH1 0xC0 DUP3 ADD MSTORE PUSH1 0xE0 ADD SWAP1 JUMP JUMPDEST SWAP1 DUP2 MSTORE PUSH1 0x20 ADD SWAP1 JUMP INVALID LOG2 PUSH5 0x6970667358 0x22 SLT KECCAK256 0xAB 0xE8 SWAP9 CHAINID SELFBALANCE 0x22 PUSH31 0xCCBB608348BC924177A2ABED6EF0D3C8BD6DBA72CF31819CB564736F6C6343 STOP SMOD ADD STOP CALLER "
		},
		"gasEstimates": {
			"creation": {
				"codeDepositCost": "151600",
				"executionCost": "196",
				"totalCost": "151796"
			},
			"external": {
				"getSample(uint256)": "infinite",
				"getTotalSamples()": "228"
			},
			"internal": {
				"_findNearestSample(uint256,uint256)": "infinite",
				"_getInstantValue(enum IPriceOracle.Variable,uint256)": "infinite",
				"_getPastAccumulator(enum IPriceOracle.Variable,uint256,uint256)": "infinite",
				"_getSample(uint256)": "890",
				"_processPriceData(uint256,uint256,int256,int256,int256)": "infinite"
			}
		},
		"methodIdentifiers": {
			"getSample(uint256)": "60d1507c",
			"getTotalSamples()": "b48b5b40"
		}
	},
	"abi": [
		{
			"inputs": [
				{
					"internalType": "uint256",
					"name": "index",
					"type": "uint256"
				}
			],
			"name": "getSample",
			"outputs": [
				{
					"internalType": "int256",
					"name": "logPairPrice",
					"type": "int256"
				},
				{
					"internalType": "int256",
					"name": "accLogPairPrice",
					"type": "int256"
				},
				{
					"internalType": "int256",
					"name": "logBptPrice",
					"type": "int256"
				},
				{
					"internalType": "int256",
					"name": "accLogBptPrice",
					"type": "int256"
				},
				{
					"internalType": "int256",
					"name": "logInvariant",
					"type": "int256"
				},
				{
					"internalType": "int256",
					"name": "accLogInvariant",
					"type": "int256"
				},
				{
					"internalType": "uint256",
					"name": "timestamp",
					"type": "uint256"
				}
			],
			"stateMutability": "view",
			"type": "function"
		},
		{
			"inputs": [],
			"name": "getTotalSamples",
			"outputs": [
				{
					"internalType": "uint256",
					"name": "",
					"type": "uint256"
				}
			],
			"stateMutability": "pure",
			"type": "function"
		}
	]
}