{
	"data": {
		"bytecode": {
			"linkReferences": {},
			"object": "6101406040523480156200001257600080fd5b5060405162007959380380620079598339810160408190526200003591620001c3565b80604051806020016200004890620001b5565b601f1982820381018352601f909101166040528051819060006002820460a081905280830360e0819052818552909150836200009081620000f9602090811b620002b517901c565b60601b6001600160601b0319166080528285018051838252620000bf82620000f9602090811b620002b517901c565b6001600160601b0319606091821b811660c0529690935290529590951b90911661010052505050426276a700016101205250620001f39050565b80517f602038038060206000396000f3fefefefefefefefefefefefefefefefefefefe808352600091602081018484f09084529150620001476001600160a01b03831615156101ac6200014d565b50919050565b816200015e576200015e8162000162565b5050565b62461bcd60e51b6000908152602060045260076024526642414c23000030600a808404818106603090810160081b95839006959095019082900491820690940160101b939093010160c81b604452606490fd5b616c718062000ce883390190565b600060208284031215620001d5578081fd5b81516001600160a01b0381168114620001ec578182fd5b9392505050565b60805160601c60a05160c05160601c60e0516101005160601c61012051610a936200025560003980610163528061018c52508061029352508061030f52508061013a528061038b52508061033052508061011952806103675250610a936000f3fe608060405234801561001057600080fd5b50600436106100615760003560e01c8062c194db14610066578063174481fa146100845780632da47c401461009a5780634555fb8d146100b05780636634b753146100d05780638d928af8146100f0575b600080fd5b61006e6100f8565b60405161007b91906108d0565b60405180910390f35b61008c610117565b60405161007b9291906108ab565b6100a261015d565b60405161007b9291906109f0565b6100c36100be3660046106f0565b6101c7565b60405161007b91906108e3565b6100e36100de3660046106d4565b610273565b60405161007b91906108c5565b6100c3610291565b606061011260405180602001604052806000815250610307565b905090565b7f00000000000000000000000000000000000000000000000000000000000000007f00000000000000000000000000000000000000000000000000000000000000009091565b600080427f00000000000000000000000000000000000000000000000000000000000000008110156101b957807f000000000000000000000000000000000000000000000000000000000000000003925062278d0091506101c2565b60009250600091505b509091565b60008060006101d461015d565b915091506102646040518061016001604052806101ef610291565b6001600160a01b031681526020018d81526020018c81526020018b81526020018981526020018881526020018a8152602001878152602001848152602001838152602001866001600160a01b031681525060405160200161025091906108f7565b6040516020818303038152906040526103e0565b9b9a5050505050505050505050565b6001600160a01b031660009081526020819052604090205460ff1690565b7f000000000000000000000000000000000000000000000000000000000000000090565b80517f602038038060206000396000f3fefefefefefefefefefefefefefefefefefefe808352600091602081018484f090845291506103016001600160a01b03831615156101ac610440565b50919050565b8051604080517f00000000000000000000000000000000000000000000000000000000000000007f0000000000000000000000000000000000000000000000000000000000000000818101858101848101602090810190965280855293957f00000000000000000000000000000000000000000000000000000000000000009592947f000000000000000000000000000000000000000000000000000000000000000094938801866000828a3c846000888301883c50602089810190898501016103d2818386610452565b505050505050505050919050565b6000806103ec83610490565b6001600160a01b038116600081815260208190526040808220805460ff191660011790555192935090917f83a48fbcfc991335314e74d0496aab6a1987e992ddc85dddbcc4d6dd6ef2e9fc9190a292915050565b8161044e5761044e816104cb565b5050565b5b60208110610472578151835260209283019290910190601f1901610453565b905182516020929092036101000a6000190180199091169116179052565b6000606061049d83610307565b905060008151602083016000f090506001600160a01b0381166104c4573d6000803e3d6000fd5b9392505050565b62461bcd60e51b6000908152602060045260076024526642414c23000030600a808404818106603090810160081b95839006959095019082900491820690940160101b939093010160c81b604452606490fd5b803561052981610a45565b92915050565b600082601f83011261053f578081fd5b813561055261054d82610a25565b6109fe565b81815291506020808301908481018184028601820187101561057357600080fd5b60005b8481101561059b57813561058981610a45565b84529282019290820190600101610576565b505050505092915050565b600082601f8301126105b6578081fd5b81356105c461054d82610a25565b8181529150602080830190848101818402860182018710156105e557600080fd5b60005b8481101561059b5781356105fb81610a45565b845292820192908201906001016105e8565b600082601f83011261061d578081fd5b813561062b61054d82610a25565b81815291506020808301908481018184028601820187101561064c57600080fd5b60005b8481101561059b5781358452928201929082019060010161064f565b600082601f83011261067b578081fd5b813567ffffffffffffffff811115610691578182fd5b6106a4601f8201601f19166020016109fe565b91508082528360208285010111156106bb57600080fd5b8060208401602084013760009082016020015292915050565b6000602082840312156106e5578081fd5b81356104c481610a45565b600080600080600080600080610100898b03121561070c578384fd5b883567ffffffffffffffff80821115610723578586fd5b61072f8c838d0161066b565b995060208b0135915080821115610744578586fd5b6107508c838d0161066b565b985060408b0135915080821115610765578586fd5b6107718c838d0161052f565b975060608b0135965060808b013591508082111561078d578586fd5b6107998c838d016105a6565b955060a08b01359150808211156107ae578485fd5b506107bb8b828c0161060d565b93505060c089013591506107d28a60e08b0161051e565b90509295985092959890939650565b6001600160a01b03169052565b6000815180845260208085019450808401835b838110156108265781516001600160a01b031687529582019590820190600101610801565b509495945050505050565b6000815180845260208085019450808401835b8381101561082657815187529582019590820190600101610844565b60008151808452815b8181101561088557602081850181015186830182015201610869565b818111156108965782602083870101525b50601f01601f19169290920160200192915050565b6001600160a01b0392831681529116602082015260400190565b901515815260200190565b6000602082526104c46020830184610860565b6001600160a01b0391909116815260200190565b60006020825261090b6020830184516107e1565b6020830151610160806040850152610927610180850183610860565b91506040850151601f19808685030160608701526109458483610860565b9350606087015191508086850301608087015261096284836107ee565b935060808701519150808685030160a087015261097f84836107ee565b935060a08701519150808685030160c08701525061099d8382610831565b60c087015160e08781019190915287015161010080880191909152870151610120808801919091528701516101408088019190915287015190935090506109e6828601826107e1565b5090949350505050565b918252602082015260400190565b60405181810167ffffffffffffffff81118282101715610a1d57600080fd5b604052919050565b600067ffffffffffffffff821115610a3b578081fd5b5060209081020190565b6001600160a01b0381168114610a5a57600080fd5b5056fea2646970667358221220fb6225a171262ea41165cf4788e0e7b3477a0bbd76c967aaf9e7e36501180ad364736f6c634300070100336103e06040527f6e71edae12b1b97f4d1f60370fef10105fa2faae0126114a169c64845d6126c9610120523480156200003757600080fd5b5060405162006c7138038062006c718339810160408190526200005a9162001485565b8051602082015160408301516060840151620000779030620009cc565b8460c001518560e00151866101000151876101200151886101400151888651600214620000a6576000620000a9565b60025b8989898a516001600160401b0381118015620000c457600080fd5b50604051908082528060200260200182016040528015620000ef578160200160208202803683370190505b5089898989828289898d8280604051806040016040528060018152602001603160f81b81525085858a336001600160a01b031660001b806080818152505050806001600160a01b031660a0816001600160a01b031660601b8152505050816003908051906020019062000164929190620011bf565b5080516200017a906004906020840190620011bf565b505060058054601260ff1990911617905550815160209283012060c052805191012060e052507f8b73c3c69bb8fe3d512ecc4cf759cc79239f7b179b0ffacaa9a75d522b39400f6101005260601b6001600160601b0319166101405250620001ed90506276a70083111561019462000b66565b6200020162278d0082111561019562000b66565b429091016101608190520161018052855162000223906002111560c862000b66565b6200023d6200023162000b7b565b8751111560c962000b66565b620002538662000b8060201b620014ea1760201c565b6200025e8462000b8c565b6040516309b2760f60e01b81526000906001600160a01b038c16906309b2760f906200028f908d90600401620016a9565b602060405180830381600087803b158015620002aa57600080fd5b505af1158015620002bf573d6000803e3d6000fd5b505050506040513d601f19601f82011682018060405250810190620002e591906200144d565b604051633354e3e960e11b81529091506001600160a01b038c16906366a9c7d2906200031a9084908b908b906004016200160d565b600060405180830381600087803b1580156200033557600080fd5b505af11580156200034a573d6000803e3d6000fd5b5050506101a09190915250620003759950505060018d1015965061012c95505062000b669350505050565b6200038861138886111561012d62000b66565b85516101c0819052865187906000906200039e57fe5b60200260200101516001600160a01b03166101e0816001600160a01b031660601b8152505086600181518110620003d157fe5b60200260200101516001600160a01b0316610200816001600160a01b031660601b8152505060028111620004075760006200041e565b866002815181106200041557fe5b60200260200101515b60601b6001600160601b03191661022052600381116200044057600062000457565b866003815181106200044e57fe5b60200260200101515b60601b6001600160601b03191661024052600481116200047957600062000490565b866004815181106200048757fe5b60200260200101515b6001600160a01b0316610260816001600160a01b031660601b81525050620004d387600081518110620004bf57fe5b602002602001015162000c1860201b60201c565b610280528651620004ec9088906001908110620004bf57fe5b6102a052600281116200050157600062000513565b6200051387600281518110620004bf57fe5b6102c05260038111620005285760006200053a565b6200053a87600381518110620004bf57fe5b6102e052600481116200054f57600062000561565b6200056187600481518110620004bf57fe5b6103008181525050600062000584876103e862000cec60201b620014f41760201c565b9050620005918162000d1b565b5050505050505050505050620005b86002826060015151101560c862000b6660201b60201c565b620005df8160600151518260800151518360a001515162000d5a60201b620015181760201c565b60005b8160600151518110156200071d5760006001600160a01b0316826080015182815181106200060c57fe5b60200260200101516001600160a01b03161462000714576200067e826060015182815181106200063857fe5b6020026020010151836080015183815181106200065157fe5b60200260200101518460a0015184815181106200066a57fe5b602002602001015162000d7a60201b60201c565b816080015181815181106200068f57fe5b60200260200101516001600160a01b031682606001518281518110620006b157fe5b60200260200101516001600160a01b03167ff00a2bf8c71db611a21183e0a96869752bcd9da29372fa76f865eed4fdd540d18460a001518481518110620006f457fe5b60200260200101516040516200070b9190620016be565b60405180910390a35b600101620005e2565b506060810151515b600081118015620007625750306001600160a01b0316826060015160018303815181106200074f57fe5b60200260200101516001600160a01b0316115b1562000772576000190162000725565b610320819052606082810151516001016001600160401b03811180156200079857600080fd5b50604051908082528060200260200182016040528015620007c3578160200160208202803683370190505b50905060005b8151811015620008935782811015620008285783608001518181518110620007ed57fe5b60200260200101518282815181106200080257fe5b60200260200101906001600160a01b031690816001600160a01b0316815250506200088a565b82811415620008405760008282815181106200080257fe5b836080015160018203815181106200085457fe5b60200260200101518282815181106200086957fe5b60200260200101906001600160a01b031690816001600160a01b0316815250505b600101620007c9565b506000815111620008a6576000620008bd565b80600081518110620008b457fe5b60200260200101515b60601b6001600160601b031916610340528051600110620008e0576000620008f7565b80600181518110620008ee57fe5b60200260200101515b60601b6001600160601b0319166103605280516002106200091a57600062000931565b806002815181106200092857fe5b60200260200101515b60601b6001600160601b031916610380528051600310620009545760006200096b565b806003815181106200096257fe5b60200260200101515b60601b6001600160601b0319166103a05280516004106200098e576000620009a5565b806004815181106200099c57fe5b60200260200101515b60601b6001600160601b0319166103c0528251620009c39062000e6c565b50505062001730565b606082516001016001600160401b0381118015620009e957600080fd5b5060405190808252806020026020018201604052801562000a14578160200160208202803683370190505b50905082516000141562000a5757818160008151811062000a3157fe5b60200260200101906001600160a01b031690816001600160a01b03168152505062000b60565b82515b60008111801562000a935750826001600160a01b031684600183038151811062000a8057fe5b60200260200101516001600160a01b0316115b1562000ae05783600182038151811062000aa957fe5b602002602001015182828151811062000abe57fe5b6001600160a01b03909216602092830291909101909101526000190162000a5a565b60005b8181101562000b2f5784818151811062000af957fe5b602002602001015183828151811062000b0e57fe5b6001600160a01b039092166020928302919091019091015260010162000ae3565b508282828151811062000b3e57fe5b60200260200101906001600160a01b031690816001600160a01b031681525050505b92915050565b8162000b775762000b778162000f9d565b5050565b600590565b8062000b778162000ff0565b62000ba164e8d4a5100082101560cb62000b66565b62000bb967016345785d8a000082111560ca62000b66565b62000bd88160c06008546200107a60201b62001530179092919060201c565b6008556040517fa9ba3ffe0b6c366b81232caab38605a0699ad5398d6cce76f91ee809e322dafc9062000c0d908390620016be565b60405180910390a150565b60006001600160a01b03821630141562000c3c5750670de0b6b3a764000062000ce7565b6000826001600160a01b031663313ce5676040518163ffffffff1660e01b815260040160206040518083038186803b15801562000c7857600080fd5b505afa15801562000c8d573d6000803e3d6000fd5b505050506040513d601f19601f8201168201806040525081019062000cb39190620015ea565b60ff169050600062000cd26012836200108f60201b620015451760201c565b905080600a0a670de0b6b3a764000002925050505b919050565b600082820262000d1484158062000d0c57508385838162000d0957fe5b04145b600362000b66565b9392505050565b62000d2981804280620010a7565b7fa0d01593e47e69d07e0ccd87bece09411e07dd1ed40ca8f2e7af2976542a02338160405162000c0d9190620016be565b62000d75828414801562000d6d57508183145b606762000b66565b505050565b6000826001600160a01b031663679aefce6040518163ffffffff1660e01b815260040160206040518083038186803b15801562000db657600080fd5b505afa15801562000dcb573d6000803e3d6000fd5b505050506040513d601f19601f8201168201806040525081019062000df191906200144d565b9050600062000e0c82846200113760201b6200155b1760201c565b6001600160a01b0386166000818152600e60205260409081902083905551919250907fcfed57d90913b5ee1895919dcccaff83a9f7a842d912ef137272e5fc6123aa869062000e5d908590620016be565b60405180910390a25050505050565b6000816001600160a01b031663d2946c2b6040518163ffffffff1660e01b815260040160206040518083038186803b15801562000ea857600080fd5b505afa15801562000ebd573d6000803e3d6000fd5b505050506040513d601f19601f8201168201806040525081019062000ee3919062001466565b6001600160a01b03166355c676286040518163ffffffff1660e01b815260040160206040518083038186803b15801562000f1c57600080fd5b505afa15801562000f31573d6000803e3d6000fd5b505050506040513d601f19601f8201168201806040525081019062000f5791906200144d565b905080600d819055507f6e4e298b4a98488a054248cfb63661894b93fb9fd398cc9eca58e39215954eb78160405162000f919190620016be565b60405180910390a15050565b62461bcd60e51b6000908152602060045260076024526642414c23000030600a808404818106603090810160081b95839006959095019082900491820690940160101b939093010160c81b604452606490fd5b600281511015620010015762001077565b6000816000815181106200101157fe5b602002602001015190506000600190505b825181101562000d755760008382815181106200103b57fe5b602002602001015190506200106c816001600160a01b0316846001600160a01b031610606562000b6660201b60201c565b915060010162001022565b50565b6001600160401b03811b1992909216911b1790565b6000620010a183831115600162000b66565b50900390565b620010c8816001600160401b031660c0620011bb60201b620015b61760201c565b620010e9836001600160401b03166080620011bb60201b620015b61760201c565b6200110a856001600160401b03166040620011bb60201b620015b61760201c565b6200112b876001600160401b03166000620011bb60201b620015b61760201c565b17171760095550505050565b60006200114d600160801b841061014962000b66565b620011708242016001600160401b031660c0620011bb60201b620015b61760201c565b62001191836001600160401b03166080620011bb60201b620015b61760201c565b620011b2856001600160801b03166000620011bb60201b620015b61760201c565b17179392505050565b1b90565b828054600181600116156101000203166002900490600052602060002090601f016020900481019282601f106200120257805160ff191683800117855562001232565b8280016001018555821562001232579182015b828111156200123257825182559160200191906001019062001215565b506200124092915062001244565b5090565b5b8082111562001240576000815560010162001245565b805162000b60816200171a565b600082601f83011262001279578081fd5b8151620012906200128a82620016ee565b620016c7565b818152915060208083019084810181840286018201871015620012b257600080fd5b60005b84811015620012de578151620012cb816200171a565b84529282019290820190600101620012b5565b505050505092915050565b600082601f830112620012fa578081fd5b81516200130b6200128a82620016ee565b8181529150602080830190848101818402860182018710156200132d57600080fd5b60005b84811015620012de57815162001346816200171a565b8452928201929082019060010162001330565b600082601f8301126200136a578081fd5b81516200137b6200128a82620016ee565b8181529150602080830190848101818402860182018710156200139d57600080fd5b60005b84811015620012de57815184529282019290820190600101620013a0565b600082601f830112620013cf578081fd5b81516001600160401b03811115620013e5578182fd5b6020620013fb601f8301601f19168201620016c7565b925081835284818386010111156200141257600080fd5b60005b828110156200143257848101820151848201830152810162001415565b82811115620014445760008284860101525b50505092915050565b6000602082840312156200145f578081fd5b5051919050565b60006020828403121562001478578081fd5b815162000d14816200171a565b60006020828403121562001497578081fd5b81516001600160401b0380821115620014ae578283fd5b8184019150610160808387031215620014c5578384fd5b620014d081620016c7565b9050620014de86846200125b565b8152602083015182811115620014f2578485fd5b6200150087828601620013be565b60208301525060408301518281111562001518578485fd5b6200152687828601620013be565b6040830152506060830151828111156200153e578485fd5b6200154c8782860162001268565b60608301525060808301518281111562001564578485fd5b6200157287828601620012e9565b60808301525060a0830151828111156200158a578485fd5b620015988782860162001359565b60a08301525060c0838101519082015260e08084015190820152610100808401519082015261012080840151908201526101409150620015db868385016200125b565b91810191909152949350505050565b600060208284031215620015fc578081fd5b815160ff8116811462000d14578182fd5b60006060820185835260206060818501528186518084526080860191508288019350845b8181101562001659576200164685516200170e565b8352938301939183019160010162001631565b505084810360408601528551808252908201925081860190845b818110156200169b576200168883516200170e565b8552938301939183019160010162001673565b509298975050505050505050565b6020810160038310620016b857fe5b91905290565b90815260200190565b6040518181016001600160401b0381118282101715620016e657600080fd5b604052919050565b60006001600160401b0382111562001704578081fd5b5060209081020190565b6001600160a01b031690565b6001600160a01b03811681146200107757600080fd5b60805160a05160601c60c05160e05161010051610120516101405160601c61016051610180516101a0516101c0516101e05160601c6102005160601c6102205160601c6102405160601c6102605160601c610280516102a0516102c0516102e05161030051610320516103405160601c6103605160601c6103805160601c6103a05160601c6103c05160601c615370620019016000398061095d5280611cef5250806109065280611c8e5250806108af5280611c2d5250806108585280611bcc5250806107f65280611b6b525080610ee252806113fb52806124055280612498528061277652806130a9528061354852806138465280613d5d5280613d8552508061370d5250806136e95250806136c55250806136a152508061367d5250806117b05280611cb452806131ff52806138195250806117545280611c5352806131bd52806137e75250806116f85280611bf2528061317b52806137b552508061169c5280611b9152806137835280613e2152508061162a5280611b3052806137465280613def5250806115ca525080610b8d525080611a2a525080611a06525080610fa85250806110cc525080611f04525080611f46525080611f25525080610f7e525080610f0852506153706000f3fe608060405234801561001057600080fd5b50600436106102a05760003560e01c806370a08231116101675780639b02cdde116100ce578063d5c096c411610087578063d5c096c4146105a4578063d60575ca146105b7578063dd62ed3e146105bf578063de82cd34146105d2578063eb0f24d6146105da578063f4b7964d146105e2576102a0565b80639b02cdde1461053a5780639d2c110c14610550578063a457c2d714610563578063a9059cbb14610576578063aaabadc514610589578063d505accf14610591576102a0565b8063851c1bb311610120578063851c1bb3146104e757806387ec6817146104fa578063893d20e81461050d5780638d2334e0146105225780638d928af81461052a57806395d89b4114610532576102a0565b806370a082311461046e57806374f3b009146104815780637520e049146104a25780637ecebe00146104aa5780637f1260d1146104bd57806382687a56146104df576102a0565b8063313ce5671161020b57806354dea00a116101c457806354dea00a1461040057806355c67628146104135780636028bfd41461041b5780636782f3641461043c578063679aefce1461044f5780636daccffa14610457576102a0565b8063313ce567146103a25780633644e515146103b757806338e9922e146103bf57806338fff2d0146103d257806339509351146103da57806350dd6ed9146103ed576102a0565b80631c0de0511161025d5780631c0de051146103285780631dd746ea1461033f578063238a2d591461035457806323b872dd146103695780632df2c7c01461037c5780632f1a0bc91461038f576102a0565b806301ec954a146102a557806304842d4c146102ce57806306fdde03146102d6578063095ea7b3146102eb57806316c38b3c1461030b57806318160ddd14610320575b600080fd5b6102b86102b3366004614e90565b6105f5565b6040516102c59190615160565b60405180910390f35b6102b8610693565b6102de6106a3565b6040516102c59190615236565b6102fe6102f9366004614b88565b610739565b6040516102c5919061513d565b61031e610319366004614c7e565b610750565b005b6102b8610764565b61033061076a565b6040516102c593929190615148565b610347610793565b6040516102c59190615105565b61035c61079d565b6040516102c591906150b8565b6102fe610377366004614ad3565b6109ae565b61031e61038a366004614a7f565b610a24565b61031e61039d366004614f7b565b610a7c565b6103aa610b5f565b6040516102c591906152b7565b6102b8610b68565b61031e6103cd366004614f4b565b610b72565b6102b8610b8b565b6102fe6103e8366004614b88565b610baf565b61031e6103fb366004614d9c565b610bea565b6102b861040e366004614a7f565b610c08565b6102b8610c6a565b61042e610429366004614cb6565b610c7b565b6040516102c5929190615249565b6102b861044a366004614a7f565b610cb2565b6102b8610cbd565b61045f610d96565b6040516102c593929190615262565b6102b861047c366004614a7f565b610db1565b61049461048f366004614cb6565b610dcc565b6040516102c5929190615118565b6102b8610e4a565b6102b86104b8366004614a7f565b610e50565b6104d06104cb366004614a7f565b610e6b565b6040516102c593929190615286565b6102b8610ee0565b6102b86104f5366004614d58565b610f04565b61042e610508366004614cb6565b610f56565b610515610f7c565b6040516102c591906150a4565b6102b8610fa0565b610515610fa6565b6102de610fca565b61054261102b565b6040516102c5929190615278565b6102b861055e366004614f00565b611035565b6102fe610571366004614b88565b611042565b6102fe610584366004614b88565b611080565b61051561108d565b61031e61059f366004614b13565b611097565b6104946105b2366004614cb6565b6111e0565b61031e611310565b6102b86105cd366004614a9b565b611322565b6102b861135f565b61031e611437565b61031e6105f0366004614b88565b611463565b60008460800151610622610607610fa6565b6001600160a01b0316336001600160a01b03161460cd6115ba565b61063761062d610b8b565b82146101f46115ba565b61064984846106446115c8565b6115ec565b6060610653611604565b905060008751600181111561066457fe5b1461067b5761067687878787856117fe565b610688565b6106888787878785611875565b979650505050505050565b600061069d6118d9565b90505b90565b60038054604080516020601f600260001961010060018816150201909516949094049384018190048102820181019092528281526060939092909183018282801561072f5780601f106107045761010080835404028352916020019161072f565b820191906000526020600020905b81548152906001019060200180831161071257829003601f168201915b5050505050905090565b60006107463384846118e0565b5060015b92915050565b61075861193b565b61076181611969565b50565b60025490565b60008060006107776119e7565b159250610782611a04565b915061078c611a28565b9050909192565b606061069d611604565b606060006107a96115c8565b9050806001600160401b03811180156107c157600080fd5b506040519080825280602002602001820160405280156107eb578160200160208202803683370190505b5091508015610847577f00000000000000000000000000000000000000000000000000000000000000008260008151811061082257fe5b60200260200101906001600160a01b031690816001600160a01b03168152505061084d565b506106a0565b6001811115610847577f00000000000000000000000000000000000000000000000000000000000000008260018151811061088457fe5b60200260200101906001600160a01b031690816001600160a01b0316815250506002811115610847577f0000000000000000000000000000000000000000000000000000000000000000826002815181106108db57fe5b60200260200101906001600160a01b031690816001600160a01b0316815250506003811115610847577f00000000000000000000000000000000000000000000000000000000000000008260038151811061093257fe5b60200260200101906001600160a01b031690816001600160a01b0316815250506004811115610847577f00000000000000000000000000000000000000000000000000000000000000008260048151811061098957fe5b60200260200101906001600160a01b031690816001600160a01b0316815250505b5090565b6000806109bb8533611322565b90506109df336001600160a01b03871614806109d75750838210155b61019e6115ba565b6109ea858585611a4c565b336001600160a01b03861614801590610a0557506000198114155b15610a1757610a1785338584036118e0565b60019150505b9392505050565b6000610a2f82611b2c565b9050610a486001600160a01b03821615156101556115ba565b6001600160a01b0382166000908152600e6020526040812054610a6a90611d1e565b9050610a77838383611d2b565b505050565b610a8461193b565b610a94600183101561012c6115ba565b610aa561138883111561012d6115ba565b6000610ab18242611545565b9050610ac56201518082101561013d6115ba565b600080610ad0611e0a565b91509150610ae1811561013e6115ba565b6000610aef866103e86114f4565b90506000838211610b1e57610b19610b0a62015180866114f4565b610b1484886114f4565b611e7e565b610b38565b610b38610b2e62015180846114f4565b610b1486886114f4565b9050610b4a600282111561013f6115ba565b610b5684834289611eb1565b50505050505050565b60055460ff1690565b600061069d611f00565b610b7a61193b565b610b82611f9d565b61076181611fb0565b7f000000000000000000000000000000000000000000000000000000000000000090565b3360008181526001602090815260408083206001600160a01b03871684529091528120549091610746918590610be5908661201b565b6118e0565b610bf261193b565b610bfa611f9d565b610c04828261202d565b5050565b60006001600160a01b038216301415610c2a5750670de0b6b3a7640000610c65565b6001600160a01b0382166000908152600e60205260409020548015610c5757610c528161212c565b610c61565b670de0b6b3a76400005b9150505b919050565b60085460009061069d9060c0612138565b60006060610c918651610c8c6115c8565b612145565b610ca6898989898989896121526121f5612256565b97509795505050505050565b600061074a82612379565b60006060610cc9610fa6565b6001600160a01b031663f94d4668610cdf610b8b565b6040518263ffffffff1660e01b8152600401610cfb9190615160565b60006040518083038186803b158015610d1357600080fd5b505afa158015610d27573d6000803e3d6000fd5b505050506040513d6000823e601f3d908101601f19168201604052610d4f9190810190614bb3565b50915050610d6481610d5f611604565b61239a565b60006060610d71836123fb565b915091506000610d7f611e0a565b509050610d8d8282856124ff565b94505050505090565b6000806000610da3611e0a565b90949093506103e892509050565b6001600160a01b031660009081526020819052604090205490565b60608088610ddb610607610fa6565b610de661062d610b8b565b6060610df0611604565b9050610dfc888261239a565b6000606080610e118e8e8e8e8e8e8a8f612152565b925092509250610e218d8461251a565b610e2b82856121f5565b610e3581856121f5565b909550935050505b5097509795505050505050565b600c5490565b6001600160a01b031660009081526006602052604090205490565b60008080610e8f81610e7c86611b2c565b6001600160a01b031614156101556115ba565b6001600160a01b0384166000908152600e6020526040902054610eb19061212c565b6001600160a01b0385166000908152600e6020526040902054909350610ed690612524565b9395909450915050565b7f000000000000000000000000000000000000000000000000000000000000000090565b60007f000000000000000000000000000000000000000000000000000000000000000082604051602001610f39929190615061565b604051602081830303815290604052805190602001209050919050565b60006060610f678651610c8c6115c8565b610ca689898989898989612544612587612256565b7f000000000000000000000000000000000000000000000000000000000000000090565b600d5490565b7f000000000000000000000000000000000000000000000000000000000000000090565b60048054604080516020601f600260001961010060018816150201909516949094049384018190048102820181019092528281526060939092909183018282801561072f5780601f106107045761010080835404028352916020019161072f565b600a54600b549091565b6000610a1d6101546125e8565b60008061104f3385611322565b905080831061106957611064338560006118e0565b611076565b61107633858584036118e0565b5060019392505050565b6000610746338484611a4c565b600061069d61263b565b6110a58442111560d16115ba565b6001600160a01b03871660009081526006602090815260408083205490519092916110fc917f0000000000000000000000000000000000000000000000000000000000000000918c918c918c9188918d9101615188565b604051602081830303815290604052805190602001209050600061111f826126b5565b90506000600182888888604051600081526020016040526040516111469493929190615218565b6020604051602081039080840390855afa158015611168573d6000803e3d6000fd5b5050604051601f19015191506111aa90506001600160a01b038216158015906111a257508b6001600160a01b0316826001600160a01b0316145b6101f86115ba565b6001600160a01b038b1660009081526006602052604090206001850190556111d38b8b8b6118e0565b5050505050505050505050565b606080886111ef610607610fa6565b6111fa61062d610b8b565b6060611204611604565b905061120e610764565b6112c057600060606112238d8d8d868b6126d1565b9150915061123c6112326118d9565b83101560cc6115ba565b61124e60006112496118d9565b6127bd565b6112618b61125a6118d9565b84036127bd565b61126b8184612587565b806112746115c8565b6001600160401b038111801561128957600080fd5b506040519080825280602002602001820160405280156112b3578160200160208202803683370190505b5095509550505050610e3d565b6112ca888261239a565b60006060806112df8e8e8e8e8e8e8a8f612544565b9250925092506112ef8c846127bd565b6112f98285612587565b61130381856121f5565b9095509350610e3d915050565b61132061131b610fa6565b6127c7565b565b600061132c610fa6565b6001600160a01b0316826001600160a01b0316141561134e575060001961074a565b61135883836128ee565b905061074a565b6000606061136b610fa6565b6001600160a01b031663f94d4668611381610b8b565b6040518263ffffffff1660e01b815260040161139d9190615160565b60006040518083038186803b1580156113b557600080fd5b505afa1580156113c9573d6000803e3d6000fd5b505050506040513d6000823e601f3d908101601f191682016040526113f19190810190614bb3565b50915050611431817f00000000000000000000000000000000000000000000000000000000000000008151811061142457fe5b6020026020010151612919565b91505090565b61143f61193b565b60008061144a611e0a565b9150915061145a816101406115ba565b610c0482612939565b61146b61193b565b600061147683611b2c565b905061148f6001600160a01b03821615156101556115ba565b61149a838284611d2b565b806001600160a01b0316836001600160a01b03167ff00a2bf8c71db611a21183e0a96869752bcd9da29372fa76f865eed4fdd540d1846040516114dd9190615160565b60405180910390a3505050565b80610c0481612974565b6000828202610a1d84158061151157508385838161150e57fe5b04145b60036115ba565b610a77828414801561152957508183145b60676115ba565b6001600160401b03811b1992909216911b1790565b60006115558383111560016115ba565b50900390565b600061156f600160801b84106101496115ba565b6115858242016001600160401b031660c06115b6565b611599836001600160401b031660806115b6565b6115ad856001600160801b031660006115b6565b17179392505050565b1b90565b81610c0457610c04816125e8565b7f000000000000000000000000000000000000000000000000000000000000000090565b610a7781841080156115fd57508183105b60646115ba565b606060006116106115c8565b905061161a6129ed565b9150801561168b5761167161164e7f0000000000000000000000000000000000000000000000000000000000000000610c08565b8360008151811061165b57fe5b6020026020010151612b1490919063ffffffff16565b8260008151811061167e57fe5b6020026020010181815250505b60018111156116e7576116cd6116c07f0000000000000000000000000000000000000000000000000000000000000000610c08565b8360018151811061165b57fe5b826001815181106116da57fe5b6020026020010181815250505b60028111156117435761172961171c7f0000000000000000000000000000000000000000000000000000000000000000610c08565b8360028151811061165b57fe5b8260028151811061173657fe5b6020026020010181815250505b600381111561179f576117856117787f0000000000000000000000000000000000000000000000000000000000000000610c08565b8360038151811061165b57fe5b8260038151811061179257fe5b6020026020010181815250505b60048111156109aa576117e16117d47f0000000000000000000000000000000000000000000000000000000000000000610c08565b8360048151811061165b57fe5b826004815181106117ee57fe5b6020026020010181815250505090565b600061180a858361239a565b61182b866060015183858151811061181e57fe5b6020026020010151612b40565b6060870152600061183e87878787612b4c565b905061185d8184878151811061185057fe5b6020026020010151612d07565b905061186881612d13565b9150505b95945050505050565b60006118848660600151612d39565b6060870152611893858361239a565b6118a7866060015183868151811061181e57fe5b606087015260006118ba87878787612d5a565b9050611868818486815181106118cc57fe5b6020026020010151612e85565b620f424090565b6001600160a01b0380841660008181526001602090815260408083209487168084529490915290819020849055517f8c5be1e5ebec7d5bd14f71427d1e84f3dd0314c0f7b2291e5b200ac8c7c3b925906114dd908590615160565b60006119526000356001600160e01b031916610f04565b90506107616119618233612e91565b6101916115ba565b80156119895761198461197a611a04565b42106101936115ba565b61199e565b61199e611994611a28565b42106101a96115ba565b6007805460ff19168215151790556040517f9e3a5e37224532dea67b89face185703738a228a6e8a23dee546960180d3be64906119dc90839061513d565b60405180910390a150565b60006119f1611a28565b42118061069d57505060075460ff161590565b7f000000000000000000000000000000000000000000000000000000000000000090565b7f000000000000000000000000000000000000000000000000000000000000000090565b611a636001600160a01b03841615156101986115ba565b611a7a6001600160a01b03831615156101996115ba565b611a85838383610a77565b6001600160a01b038316600090815260208190526040902054611aab90826101a0612f7a565b6001600160a01b038085166000908152602081905260408082209390935590841681522054611ada908261201b565b6001600160a01b0380841660008181526020819052604090819020939093559151908516907fddf252ad1be2c89b69c2b068fc378daa952ba7f163c4a11628f55a4df523b3ef906114dd908590615160565b60007f00000000000000000000000000000000000000000000000000000000000000006001600160a01b0316826001600160a01b03161415611b8f57507f0000000000000000000000000000000000000000000000000000000000000000610c65565b7f00000000000000000000000000000000000000000000000000000000000000006001600160a01b0316826001600160a01b03161415611bf057507f0000000000000000000000000000000000000000000000000000000000000000610c65565b7f00000000000000000000000000000000000000000000000000000000000000006001600160a01b0316826001600160a01b03161415611c5157507f0000000000000000000000000000000000000000000000000000000000000000610c65565b7f00000000000000000000000000000000000000000000000000000000000000006001600160a01b0316826001600160a01b03161415611cb257507f0000000000000000000000000000000000000000000000000000000000000000610c65565b7f00000000000000000000000000000000000000000000000000000000000000006001600160a01b0316826001600160a01b03161415611d1357507f0000000000000000000000000000000000000000000000000000000000000000610c65565b610c656101356125e8565b600061074a826080612138565b6000826001600160a01b031663679aefce6040518163ffffffff1660e01b815260040160206040518083038186803b158015611d6657600080fd5b505afa158015611d7a573d6000803e3d6000fd5b505050506040513d601f19601f82011682018060405250810190611d9e9190614f63565b90506000611dac828461155b565b6001600160a01b0386166000818152600e60205260409081902083905551919250907fcfed57d90913b5ee1895919dcccaff83a9f7a842d912ef137272e5fc6123aa8690611dfb908590615160565b60405180910390a25050505050565b600080600080600080611e1b612f90565b935093509350935080421015611e6e576001945083831115611e52578181038242038585030281611e4857fe5b0484019550611e69565b8181038242038486030281611e6357fe5b04840395505b611e76565b600094508295505b505050509091565b6000611e8d82151560046115ba565b82611e9a5750600061074a565b816001840381611ea657fe5b04600101905061074a565b611ebd84848484612fe7565b7f1835882ee7a34ac194f717a35e09bb1d24c82a3b9d854ab6c9749525b714cdf284848484604051611ef2949392919061529c565b60405180910390a150505050565b60007f00000000000000000000000000000000000000000000000000000000000000007f00000000000000000000000000000000000000000000000000000000000000007f0000000000000000000000000000000000000000000000000000000000000000611f6d613043565b30604051602001611f829594939291906151bc565b60405160208183030381529060405280519060200120905090565b611320611fa86119e7565b6101926115ba565b611fc364e8d4a5100082101560cb6115ba565b611fd967016345785d8a000082111560ca6115ba565b600854611fe8908260c0611530565b6008556040517fa9ba3ffe0b6c366b81232caab38605a0699ad5398d6cce76f91ee809e322dafc906119dc908390615160565b6000828201610a1d84821015836115ba565b6000612037610b8b565b90506000612043610fa6565b6001600160a01b031663b05f8e4883866040518363ffffffff1660e01b8152600401612070929190615201565b60806040518083038186803b15801561208857600080fd5b505afa15801561209c573d6000803e3d6000fd5b505050506040513d601f19601f820116820180604052508101906120c09190614f9c565b604051630639cdb560e21b81529094506001600160a01b03851693506318e736d492506120f49150859087906004016151e8565b600060405180830381600087803b15801561210e57600080fd5b505af1158015612122573d6000803e3d6000fd5b5050505050505050565b600061074a8282613047565b1c6001600160401b031690565b610c0481831460676115ba565b6000606080600061216285613054565b9050600081801561216f57fe5b14156121db5761217d61306a565b612187898661307e565b90945092506121946115c8565b6001600160401b03811180156121a957600080fd5b506040519080825280602002602001820160405280156121d3578160200160208202803683370190505b5091506121e6565b6121e66101546125e8565b50985098509895505050505050565b60005b6122006115c8565b811015610a775761223783828151811061221657fe5b602002602001015183838151811061222a57fe5b60200260200101516130f3565b83828151811061224357fe5b60209081029190910101526001016121f8565b333014612314576000306001600160a01b031660003660405161227a929190615079565b6000604051808303816000865af19150503d80600081146122b7576040519150601f19603f3d011682016040523d82523d6000602084013e6122bc565b606091505b5050905080600081146122cb57fe5b60046000803e6000516001600160e01b0319166343adbafb60e01b81146122f6573d6000803e3d6000fd5b506020600460003e604060205260243d03602460403e601c3d016000f35b606061231e611604565b905061232a878261239a565b600060606123428c8c8c8c8c8c898d8d63ffffffff16565b509150915061235581848663ffffffff16565b8051601f1982018390526343adbafb603f1983015260200260231982016044820181fd5b60008061238583613144565b9050610c6161239384610c08565b8290612b14565b60005b6123a56115c8565b811015610a77576123dc8382815181106123bb57fe5b60200260200101518383815181106123cf57fe5b6020026020010151612b14565b8382815181106123e857fe5b602090810291909101015260010161239d565b60006060600c54837f00000000000000000000000000000000000000000000000000000000000000008151811061242e57fe5b60200260200101516001600160701b030301915060018351036001600160401b038111801561245c57600080fd5b50604051908082528060200260200182016040528015612486578160200160208202803683370190505b50905060005b81518110156124f957837f000000000000000000000000000000000000000000000000000000000000000082106124c657816001016124c8565b815b815181106124d257fe5b60200260200101518282815181106124e657fe5b602090810291909101015260010161248c565b50915091565b60008061250e8486600061323f565b905061186c81846130f3565b610c0482826133d5565b60008061253083611d1e565b915061253d8360c0612138565b9050915091565b6000606080600061255485613491565b9050600181600181111561256457fe5b14156121db576125726134a7565b93509350935050985098509895505050505050565b60005b6125926115c8565b811015610a77576125c98382815181106125a857fe5b60200260200101518383815181106125bc57fe5b6020026020010151613589565b8382815181106125d557fe5b602090810291909101015260010161258a565b62461bcd60e51b6000908152602060045260076024526642414c23000030600a808404818106603090810160081b95839006959095019082900491820690940160101b939093010160c81b604452606490fd5b6000612645610fa6565b6001600160a01b031663aaabadc56040518163ffffffff1660e01b815260040160206040518083038186803b15801561267d57600080fd5b505afa158015612691573d6000803e3d6000fd5b505050506040513d601f19601f8201168201806040525081019061069d9190614d80565b60006126bf611f00565b82604051602001610f39929190615089565b600060606126dd611f9d565b60006126e884613491565b905061270360008260018111156126fb57fe5b1460ce6115ba565b606061270e856135d7565b905061271d8151610c8c6115c8565b612727818761239a565b6000612731611e0a565b509050606061273f836123fb565b91505060006127508383600161323f565b90508060006127666001600160701b0383611545565b90506127728d826127bd565b80867f00000000000000000000000000000000000000000000000000000000000000008151811061279f57fe5b6020908102919091010152509c939b50929950505050505050505050565b610c0482826135ed565b6000816001600160a01b031663d2946c2b6040518163ffffffff1660e01b815260040160206040518083038186803b15801561280257600080fd5b505afa158015612816573d6000803e3d6000fd5b505050506040513d601f19601f8201168201806040525081019061283a9190614d80565b6001600160a01b03166355c676286040518163ffffffff1660e01b815260040160206040518083038186803b15801561287257600080fd5b505afa158015612886573d6000803e3d6000fd5b505050506040513d601f19601f820116820180604052508101906128aa9190614f63565b905080600d819055507f6e4e298b4a98488a054248cfb63661894b93fb9fd398cc9eca58e39215954eb7816040516128e29190615160565b60405180910390a15050565b6001600160a01b03918216600090815260016020908152604080832093909416825291909152205490565b600061074a600c546129338461292d610764565b90611545565b9061201b565b61294581824242612fe7565b7fa0d01593e47e69d07e0ccd87bece09411e07dd1ed40ca8f2e7af2976542a0233816040516119dc9190615160565b60028151101561298357610761565b60008160008151811061299257fe5b602002602001015190506000600190505b8251811015610a775760008382815181106129ba57fe5b602002602001015190506129e3816001600160a01b0316846001600160a01b03161060656115ba565b91506001016129a3565b606060006129f96115c8565b90506060816001600160401b0381118015612a1357600080fd5b50604051908082528060200260200182016040528015612a3d578160200160208202803683370190505b509050612a4861367b565b81600081518110612a5557fe5b602002602001018181525050612a6961369f565b81600181518110612a7657fe5b6020026020010181815250506002821115612ab157612a936136c3565b81600281518110612aa057fe5b602002602001018181525050612aba565b91506106a09050565b6003821115612ab157612acb6136e7565b81600381518110612ad857fe5b6020026020010181815250506004821115612ab157612af561370b565b81600481518110612b0257fe5b60200260200101818152505091505090565b6000828202612b2e84158061151157508385838161150e57fe5b670de0b6b3a764000090049392505050565b6000610a1d8383612b14565b6000612b56611f9d565b612b5e61372f565b600d5460006060612b6e876123fb565b60208a015191935091506001600160a01b0316301415612bb757612ba08860600151612b9987613842565b848461387b565b93508215612bb257612bb284846138ff565b612cfc565b60408801516001600160a01b0316301415612bfa57612be48860600151612bdd88613842565b848461395f565b93508215612bb257612bb28860600151846138ff565b6000612c04611e0a565b5090506000612c158284600161323f565b9050612c398284612c258b613842565b612c2e8b613842565b8e6060015186613986565b95508415612cf9576000612c4c89613842565b90506000612c5989613842565b90506000612c6689612d13565b9050612c8e81878581518110612c7857fe5b602002602001015161201b90919063ffffffff16565b868481518110612c9a57fe5b602002602001018181525050612cd08d60600151878481518110612cba57fe5b602002602001015161154590919063ffffffff16565b868381518110612cdc57fe5b602002602001018181525050612cf58486888a8c613a25565b5050505b50505b505050949350505050565b6000610a1d8383613589565b600061074a612d32612d23610c6a565b670de0b6b3a764000090611545565b8390613589565b600080612d4e612d47610c6a565b8490613ad0565b9050610c618382611545565b6000612d64611f9d565b612d6c61372f565b600d5460006060612d7c876123fb565b60208a015191935091506001600160a01b0316301415612dae57612be48860600151612da787613842565b8484613b13565b60408801516001600160a01b0316301415612ddb57612ba08860600151612dd488613842565b8484613b30565b6000612de5611e0a565b5090506000612df68284600161323f565b9050612e1a8284612e068b613842565b612e0f8b613842565b8e6060015186613bb5565b95508415612cf9576000612e2d89613842565b90506000612e3a89613842565b90506000612e4b8d60600151612d13565b9050612e5d81878581518110612c7857fe5b868481518110612e6957fe5b602002602001018181525050612cd089878481518110612cba57fe5b6000610a1d83836130f3565b600073ba1ba1ba1ba1ba1ba1ba1ba1ba1ba1ba1ba1ba1b612eb0610f7c565b6001600160a01b031614158015612ecb5750612ecb83613c32565b15612ef357612ed8610f7c565b6001600160a01b0316336001600160a01b031614905061074a565b612efb61263b565b6001600160a01b0316639be2a8848484306040518463ffffffff1660e01b8152600401612f2a93929190615169565b60206040518083038186803b158015612f4257600080fd5b505afa158015612f56573d6000803e3d6000fd5b505050506040513d601f19601f820116820180604052508101906113589190614c9a565b6000612f8984841115836115ba565b5050900390565b600080600080612fac600060095461213890919063ffffffff16565b600954909450612fbd906040612138565b600954909350612fce906080612138565b600954909250612fdf9060c0612138565b905090919293565b612ffb816001600160401b031660c06115b6565b61300f836001600160401b031660806115b6565b613023856001600160401b031660406115b6565b613037876001600160401b031660006115b6565b17171760095550505050565b4690565b1c6001600160801b031690565b60008180602001905181019061074a9190614de9565b6113206130756119e7565b156101af6115ba565b600060608061308c856123fb565b915050600061309a85613c55565b905060606130d783836130d28a7f00000000000000000000000000000000000000000000000000000000000000008151811061142457fe5b613c6b565b9050816130e5826000613d06565b945094505050509250929050565b600061310282151560046115ba565b8261310f5750600061074a565b670de0b6b3a7640000838102906131329085838161312957fe5b041460056115ba565b82818161313b57fe5b0491505061074a565b600061314f82613ded565b156131635761315c61367b565b9050610c65565b61316c82613e1f565b156131795761315c61369f565b7f00000000000000000000000000000000000000000000000000000000000000006001600160a01b0316826001600160a01b031614156131bb5761315c6136c3565b7f00000000000000000000000000000000000000000000000000000000000000006001600160a01b0316826001600160a01b031614156131fd5761315c6136e7565b7f00000000000000000000000000000000000000000000000000000000000000006001600160a01b0316826001600160a01b03161415611d135761315c61370b565b81516000908190815b818110156132805761327686828151811061325f57fe5b60200260200101518461201b90919063ffffffff16565b9250600101613248565b508161329157600092505050610a1d565b600082878302825b60ff8110156133bd576000858a6000815181106132b257fe5b60200260200101510290506000600190505b86811015613306576132fc6132f56132ef848e85815181106132e257fe5b60200260200101516114f4565b896114f4565b868c613e51565b91506001016132c4565b5083945061337361334261332f613326613320878c6114f4565b856114f4565b6103e88d613e51565b61293361333c8a896114f4565b886114f4565b61336d6133606133566103e88803866114f4565b6103e88e15613e51565b6129338a600101896114f4565b8b613e51565b93508484111561339b576001858503116133965783975050505050505050610a1d565b6133b4565b6001848603116133b45783975050505050505050610a1d565b50600101613299565b506133c96101416125e8565b50505050509392505050565b6133ec6001600160a01b038316151561019b6115ba565b6133f882600083610a77565b6001600160a01b03821660009081526020819052604090205461341e90826101a1612f7a565b6001600160a01b0383166000908152602081905260409020556002546134449082613e79565b6002556040516000906001600160a01b038416907fddf252ad1be2c89b69c2b068fc378daa952ba7f163c4a11628f55a4df523b3ef90613485908590615160565b60405180910390a35050565b60008180602001905181019061074a9190614e30565b600060608060006134b66115c8565b905060009350806001600160401b03811180156134d257600080fd5b506040519080825280602002602001820160405280156134fc578160200160208202803683370190505b509250806001600160401b038111801561351557600080fd5b5060405190808252806020026020018201604052801561353f578160200160208202803683370190505b509150600c54827f00000000000000000000000000000000000000000000000000000000000000008151811061357157fe5b6020908102919091010152506000600c559192909190565b600061359882151560046115ba565b826135a55750600061074a565b670de0b6b3a7640000838102906135bf9085838161312957fe5b8260018203816135cb57fe5b0460010191505061074a565b606081806020019051810190610a1d9190614e4c565b6135f960008383610a77565b600254613606908261201b565b6002556001600160a01b03821660009081526020819052604090205461362c908261201b565b6001600160a01b0383166000818152602081905260408082209390935591519091907fddf252ad1be2c89b69c2b068fc378daa952ba7f163c4a11628f55a4df523b3ef90613485908590615160565b7f000000000000000000000000000000000000000000000000000000000000000090565b7f000000000000000000000000000000000000000000000000000000000000000090565b7f000000000000000000000000000000000000000000000000000000000000000090565b7f000000000000000000000000000000000000000000000000000000000000000090565b7f000000000000000000000000000000000000000000000000000000000000000090565b60006137396115c8565b9050801561376f5761376a7f0000000000000000000000000000000000000000000000000000000000000000613e87565b613775565b50611320565b600181111561376f576137a77f0000000000000000000000000000000000000000000000000000000000000000613e87565b600281111561376f576137d97f0000000000000000000000000000000000000000000000000000000000000000613e87565b600381111561376f5761380b7f0000000000000000000000000000000000000000000000000000000000000000613e87565b600481111561376f5761383d7f0000000000000000000000000000000000000000000000000000000000000000613e87565b610761565b60007f000000000000000000000000000000000000000000000000000000000000000082106109aa57613876826001611545565b61074a565b600080613886611e0a565b509050606060016138956115c8565b036001600160401b03811180156138ab57600080fd5b506040519080825280602002602001820160405280156138d5578160200160208202803683370190505b509050868187815181106138e557fe5b602002602001018181525050610688828583886000613f05565b600061390e8361292d85612d13565b9050600061391c8284612b14565b600c5490915061392c908261201b565b600c556040517f1d2422d87bc31f46211cfdfe158c5eccb86547546c7a4fff6be15a0a944c84b290611ef2908390615160565b60008061396a611e0a565b50905061397c818487898860006141b6565b9695505050505050565b600061399883878681518110612cba57fe5b8685815181106139a457fe5b60200260200101818152505060006139be888885896142cb565b9050838786815181106139cd57fe5b6020026020010151018786815181106139e257fe5b602002602001018181525050613a196001612933898981518110613a0257fe5b60200260200101518461154590919063ffffffff16565b98975050505050505050565b6000613a338585600061323f565b90506000613a4182886130f3565b9050670de0b6b3a7640000811115610b56576000613a7b613a7486613a6e85670de0b6b3a7640000611545565b90612b14565b8590612b14565b600c54909150613a8b908261201b565b600c556040517f1d2422d87bc31f46211cfdfe158c5eccb86547546c7a4fff6be15a0a944c84b290613abe908390615160565b60405180910390a15050505050505050565b6000828202613aea84158061151157508385838161150e57fe5b80613af957600091505061074a565b670de0b6b3a764000060001982016135cb565b5092915050565b600080613b1e611e0a565b50905061397c8184878988600061446b565b600060606001613b3e6115c8565b036001600160401b0381118015613b5457600080fd5b50604051908082528060200260200182016040528015613b7e578160200160208202803683370190505b50905085818681518110613b8e57fe5b6020026020010181815250506000613ba4611e0a565b509050610688818584886000614532565b6000613bc783878781518110612c7857fe5b868681518110613bd357fe5b6020026020010181815250506000613bed888885886142cb565b905083878781518110613bfc57fe5b602002602001015103878781518110613c1157fe5b602002602001018181525050613a19600161292d838a8981518110612cba57fe5b6000613c4463f4b7964d60e01b610f04565b82148061074a575061074a826147ae565b600081806020019051810190610a1d9190614e04565b60606000613c7984846130f3565b9050606085516001600160401b0381118015613c9457600080fd5b50604051908082528060200260200182016040528015613cbe578160200160208202803683370190505b50905060005b8651811015613cfc57613cdd8388838151811061165b57fe5b828281518110613ce957fe5b6020908102919091010152600101613cc4565b5095945050505050565b606082516001016001600160401b0381118015613d2257600080fd5b50604051908082528060200260200182016040528015613d4c578160200160208202803683370190505b50905060005b8151811015613b0c577f00000000000000000000000000000000000000000000000000000000000000008114613dcc57837f00000000000000000000000000000000000000000000000000000000000000008210613db35760018203613db5565b815b81518110613dbf57fe5b6020026020010151613dce565b825b828281518110613dda57fe5b6020908102919091010152600101613d52565b7f00000000000000000000000000000000000000000000000000000000000000006001600160a01b0390811691161490565b7f00000000000000000000000000000000000000000000000000000000000000006001600160a01b0390811691161490565b600081613e6757613e6284846147ea565b613e71565b613e718484611e7e565b949350505050565b6000610a1d83836001612f7a565b6001600160a01b038116301415613e9d57610761565b6001600160a01b0381166000908152600e60205260409020548015610c04576001600160a01b0382166000908152600e60205260408120548190613ee090612524565b9150915080421115613eff57613eff84613ef986611b2c565b84611d2b565b50505050565b600080805b8651811015613f4357613f39878281518110613f2257fe5b60200260200101518361201b90919063ffffffff16565b9150600101613f0a565b50606085516001600160401b0381118015613f5d57600080fd5b50604051908082528060200260200182016040528015613f87578160200160208202803683370190505b5090506000805b8851811015614054576000613fbf858b8481518110613fa957fe5b602002602001015161358990919063ffffffff16565b90506140018a8381518110613fd057fe5b6020026020010151613ffb8b8581518110613fe757fe5b60200260200101518d8681518110612cba57fe5b90613589565b84838151811061400d57fe5b6020026020010181815250506140496140428286858151811061402c57fe5b6020026020010151613ad090919063ffffffff16565b849061201b565b925050600101613f8e565b50606088516001600160401b038111801561406e57600080fd5b50604051908082528060200260200182016040528015614098578160200160208202803683370190505b50905060005b89518110156141635760008482815181106140b557fe5b602002602001015184111561411c5760006140de6140d28661480a565b8d858151811061165b57fe5b905060006140f2828d8681518110612cba57fe5b905061411361410c82670de0b6b3a76400008d9003613589565b839061201b565b92505050614133565b89828151811061412857fe5b602002602001015190505b614143818c8481518110612cba57fe5b83838151811061414f57fe5b60209081029190910101525060010161409e565b5060006141728b8b600161323f565b905060006141828c84600061323f565b9050600061419082846130f3565b90506141a561419e8261480a565b8b90613ad0565b9d9c50505050505050505050505050565b6000806141c58888600161323f565b905060006141e1826141db87613ffb818b61201b565b90613ad0565b905060006141f18a8a848b6142cb565b9050600061421b8a8a8151811061420457fe5b60200260200101518361154590919063ffffffff16565b90506000805b8b51811015614243576142398c8281518110613f2257fe5b9150600101614221565b50600061426c828d8d8151811061425657fe5b60200260200101516130f390919063ffffffff16565b905060006142798261480a565b905060006142878583613ad0565b905060006142958683611545565b90506142b66142af83670de0b6b3a76400008e9003613589565b829061201b565b99505050505050505050509695505050505050565b6000808451860290506000856000815181106142e357fe5b6020026020010151905060008651876000815181106142fe57fe5b60200260200101510290506000600190505b87518110156143575761433c61433661432f848b85815181106132e257fe5b8a516114f4565b886147ea565b915061434d88828151811061325f57fe5b9250600101614310565b5086858151811061436457fe5b602002602001015182039150600061437c87886114f4565b905060006143a861439c61439484610b1489886114f4565b6103e86114f4565b8a89815181106132e257fe5b905060006143c36143bc6143948b896147ea565b869061201b565b90506000806143df6143d5868661201b565b610b148d8661201b565b905060005b60ff81101561445f578192506144146144018661293385866114f4565b610b148e61292d886129338860026114f4565b91508282111561443d5760018383031161443857509750613e719650505050505050565b614457565b60018284031161445757509750613e719650505050505050565b6001016143e4565b50612cf56101426125e8565b60008061447a8888600161323f565b90506000614490826141db87613ffb818b611545565b905060006144a08a8a848b6142cb565b905060006144b4828b8b81518110612cba57fe5b90506000805b8b518110156144dc576144d28c8281518110613f2257fe5b91506001016144ba565b5060006144ef828d8d8151811061425657fe5b905060006144fc8261480a565b9050600061450a8583613ad0565b905060006145188683611545565b90506142b66142af83670de0b6b3a76400008e9003612b14565b600080805b86518110156145595761454f878281518110613f2257fe5b9150600101614537565b50606085516001600160401b038111801561457357600080fd5b5060405190808252806020026020018201604052801561459d578160200160208202803683370190505b5090506000805b88518110156146375760006145bf858b848151811061425657fe5b90506146018a83815181106145d057fe5b60200260200101516145fb8b85815181106145e757fe5b60200260200101518d8681518110612c7857fe5b906130f3565b84838151811061460d57fe5b60200260200101818152505061462c6140428286858151811061165b57fe5b9250506001016145a4565b50606088516001600160401b038111801561465157600080fd5b5060405190808252806020026020018201604052801561467b578160200160208202803683370190505b50905060005b895181101561473c5760008385838151811061469957fe5b602002602001015111156146f55760006146be6140d286670de0b6b3a7640000611545565b905060006146d2828d8681518110612cba57fe5b90506146ec61410c82670de0b6b3a76400008d9003612b14565b9250505061470c565b89828151811061470157fe5b602002602001015190505b61471c818c8481518110612c7857fe5b83838151811061472857fe5b602090810291909101015250600101614681565b50600061474b8b8b600161323f565b9050600061475b8c84600061323f565b9050600061476982846130f3565b9050670de0b6b3a764000081111561479e576147908a670de0b6b3a763ffff198301612b14565b97505050505050505061186c565b600097505050505050505061186c565b60006147c0632f1a0bc960e01b610f04565b8214806147db57506147d8637587926b60e11b610f04565b82145b8061074a575061074a82614830565b60006147f982151560046115ba565b81838161480257fe5b049392505050565b6000670de0b6b3a7640000821061482257600061074a565b50670de0b6b3a76400000390565b6000614842631c74c91760e11b610f04565b82148061074a575061485a6350dd6ed960e01b610f04565b909114919050565b803561074a8161530a565b600082601f83011261487d578081fd5b813561489061488b826152eb565b6152c5565b8181529150602080830190848101818402860182018710156148b157600080fd5b60005b848110156148d0578135845292820192908201906001016148b4565b505050505092915050565b600082601f8301126148eb578081fd5b81516148f961488b826152eb565b81815291506020808301908481018184028601820187101561491a57600080fd5b60005b848110156148d05781518452928201929082019060010161491d565b600082601f830112614949578081fd5b81356001600160401b0381111561495e578182fd5b614971601f8201601f19166020016152c5565b915080825283602082850101111561498857600080fd5b8060208401602084013760009082016020015292915050565b80516001811061074a57600080fd5b803561074a8161532d565b60006101208083850312156149ce578182fd5b6149d7816152c5565b9150506149e483836149b0565b81526149f38360208401614862565b6020820152614a058360408401614862565b6040820152606082013560608201526080820135608082015260a082013560a0820152614a358360c08401614862565b60c0820152614a478360e08401614862565b60e0820152610100808301356001600160401b03811115614a6757600080fd5b614a7385828601614939565b82840152505092915050565b600060208284031215614a90578081fd5b8135610a1d8161530a565b60008060408385031215614aad578081fd5b8235614ab88161530a565b91506020830135614ac88161530a565b809150509250929050565b600080600060608486031215614ae7578081fd5b8335614af28161530a565b92506020840135614b028161530a565b929592945050506040919091013590565b600080600080600080600060e0888a031215614b2d578283fd5b8735614b388161530a565b96506020880135614b488161530a565b95506040880135945060608801359350608088013560ff81168114614b6b578384fd5b9699959850939692959460a0840135945060c09093013592915050565b60008060408385031215614b9a578182fd5b8235614ba58161530a565b946020939093013593505050565b600080600060608486031215614bc7578081fd5b83516001600160401b0380821115614bdd578283fd5b818601915086601f830112614bf0578283fd5b8151614bfe61488b826152eb565b80828252602080830192508086018b828387028901011115614c1e578788fd5b8796505b84871015614c49578051614c358161530a565b845260019690960195928101928101614c22565b508901519097509350505080821115614c60578283fd5b50614c6d868287016148db565b925050604084015190509250925092565b600060208284031215614c8f578081fd5b8135610a1d8161531f565b600060208284031215614cab578081fd5b8151610a1d8161531f565b600080600080600080600060e0888a031215614cd0578081fd5b873596506020880135614ce28161530a565b95506040880135614cf28161530a565b945060608801356001600160401b0380821115614d0d578283fd5b614d198b838c0161486d565b955060808a0135945060a08a0135935060c08a0135915080821115614d3c578283fd5b50614d498a828b01614939565b91505092959891949750929550565b600060208284031215614d69578081fd5b81356001600160e01b031981168114610a1d578182fd5b600060208284031215614d91578081fd5b8151610a1d8161530a565b60008060408385031215614dae578182fd5b8235614db98161530a565b915060208301356001600160401b03811115614dd3578182fd5b614ddf85828601614939565b9150509250929050565b600060208284031215614dfa578081fd5b610a1d83836149a1565b60008060408385031215614e16578182fd5b614e2084846149a1565b9150602083015190509250929050565b600060208284031215614e41578081fd5b8151610a1d8161532d565b60008060408385031215614e5e578182fd5b8251614e698161532d565b60208401519092506001600160401b03811115614e84578182fd5b614ddf858286016148db565b60008060008060808587031215614ea5578182fd5b84356001600160401b0380821115614ebb578384fd5b614ec7888389016149bb565b95506020870135915080821115614edc578384fd5b50614ee98782880161486d565b949794965050505060408301359260600135919050565b600080600060608486031215614f14578081fd5b83356001600160401b03811115614f29578182fd5b614f35868287016149bb565b9660208601359650604090950135949350505050565b600060208284031215614f5c578081fd5b5035919050565b600060208284031215614f74578081fd5b5051919050565b60008060408385031215614f8d578182fd5b50508035926020909101359150565b60008060008060808587031215614fb1578182fd5b8451935060208501519250604085015191506060850151614fd18161530a565b939692955090935050565b6000815180845260208085019450808401835b8381101561500b57815187529582019590820190600101614fef565b509495945050505050565b60008151808452815b8181101561503b5760208185018101518683018201520161501f565b8181111561504c5782602083870101525b50601f01601f19169290920160200192915050565b9182526001600160e01b031916602082015260240190565b6000828483379101908152919050565b61190160f01b81526002810192909252602282015260420190565b6001600160a01b0391909116815260200190565b6020808252825182820181905260009190848201906040850190845b818110156150f95783516001600160a01b0316835292840192918401916001016150d4565b50909695505050505050565b600060208252610a1d6020830184614fdc565b60006040825261512b6040830185614fdc565b828103602084015261186c8185614fdc565b901515815260200190565b92151583526020830191909152604082015260600190565b90815260200190565b9283526001600160a01b03918216602084015216604082015260600190565b9586526001600160a01b0394851660208701529290931660408501526060840152608083019190915260a082015260c00190565b9485526020850193909352604084019190915260608301526001600160a01b0316608082015260a00190565b600083825260406020830152613e716040830184615016565b9182526001600160a01b0316602082015260400190565b93845260ff9290921660208401526040830152606082015260800190565b600060208252610a1d6020830184615016565b600083825260406020830152613e716040830184614fdc565b9283529015156020830152604082015260600190565b918252602082015260400190565b9283526020830191909152604082015260600190565b93845260208401929092526040830152606082015260800190565b60ff91909116815260200190565b6040518181016001600160401b03811182821017156152e357600080fd5b604052919050565b60006001600160401b03821115615300578081fd5b5060209081020190565b6001600160a01b038116811461076157600080fd5b801515811461076157600080fd5b6002811061076157600080fdfea26469706673582212208c1a8f934b9ffbacf759505cc9184c5589bebca82f01ddc44986db06f6aeefa164736f6c63430007010033",
			"opcodes": "PUSH2 0x140 PUSH1 0x40 MSTORE CALLVALUE DUP1 ISZERO PUSH3 0x12 JUMPI PUSH1 0x0 DUP1 REVERT JUMPDEST POP PUSH1 0x40 MLOAD PUSH3 0x7959 CODESIZE SUB DUP1 PUSH3 0x7959 DUP4 CODECOPY DUP2 ADD PUSH1 0x40 DUP2 SWAP1 MSTORE PUSH3 0x35 SWAP2 PUSH3 0x1C3 JUMP JUMPDEST DUP1 PUSH1 0x40 MLOAD DUP1 PUSH1 0x20 ADD PUSH3 0x48 SWAP1 PUSH3 0x1B5 JUMP JUMPDEST PUSH1 0x1F NOT DUP3 DUP3 SUB DUP2 ADD DUP4 MSTORE PUSH1 0x1F SWAP1 SWAP2 ADD AND PUSH1 0x40 MSTORE DUP1 MLOAD DUP2 SWAP1 PUSH1 0x0 PUSH1 0x2 DUP3 DIV PUSH1 0xA0 DUP2 SWAP1 MSTORE DUP1 DUP4 SUB PUSH1 0xE0 DUP2 SWAP1 MSTORE DUP2 DUP6 MSTORE SWAP1 SWAP2 POP DUP4 PUSH3 0x90 DUP2 PUSH3 0xF9 PUSH1 0x20 SWAP1 DUP2 SHL PUSH3 0x2B5 OR SWAP1 SHR JUMP JUMPDEST PUSH1 0x60 SHL PUSH1 0x1 PUSH1 0x1 PUSH1 0x60 SHL SUB NOT AND PUSH1 0x80 MSTORE DUP3 DUP6 ADD DUP1 MLOAD DUP4 DUP3 MSTORE PUSH3 0xBF DUP3 PUSH3 0xF9 PUSH1 0x20 SWAP1 DUP2 SHL PUSH3 0x2B5 OR SWAP1 SHR JUMP JUMPDEST PUSH1 0x1 PUSH1 0x1 PUSH1 0x60 SHL SUB NOT PUSH1 0x60 SWAP2 DUP3 SHL DUP2 AND PUSH1 0xC0 MSTORE SWAP7 SWAP1 SWAP4 MSTORE SWAP1 MSTORE SWAP6 SWAP1 SWAP6 SHL SWAP1 SWAP2 AND PUSH2 0x100 MSTORE POP POP POP TIMESTAMP PUSH3 0x76A700 ADD PUSH2 0x120 MSTORE POP PUSH3 0x1F3 SWAP1 POP JUMP JUMPDEST DUP1 MLOAD PUSH32 0x602038038060206000396000F3FEFEFEFEFEFEFEFEFEFEFEFEFEFEFEFEFEFEFE DUP1 DUP4 MSTORE PUSH1 0x0 SWAP2 PUSH1 0x20 DUP2 ADD DUP5 DUP5 CREATE SWAP1 DUP5 MSTORE SWAP2 POP PUSH3 0x147 PUSH1 0x1 PUSH1 0x1 PUSH1 0xA0 SHL SUB DUP4 AND ISZERO ISZERO PUSH2 0x1AC PUSH3 0x14D JUMP JUMPDEST POP SWAP2 SWAP1 POP JUMP JUMPDEST DUP2 PUSH3 0x15E JUMPI PUSH3 0x15E DUP2 PUSH3 0x162 JUMP JUMPDEST POP POP JUMP JUMPDEST PUSH3 0x461BCD PUSH1 0xE5 SHL PUSH1 0x0 SWAP1 DUP2 MSTORE PUSH1 0x20 PUSH1 0x4 MSTORE PUSH1 0x7 PUSH1 0x24 MSTORE PUSH7 0x42414C23000030 PUSH1 0xA DUP1 DUP5 DIV DUP2 DUP2 MOD PUSH1 0x30 SWAP1 DUP2 ADD PUSH1 0x8 SHL SWAP6 DUP4 SWAP1 MOD SWAP6 SWAP1 SWAP6 ADD SWAP1 DUP3 SWAP1 DIV SWAP2 DUP3 MOD SWAP1 SWAP5 ADD PUSH1 0x10 SHL SWAP4 SWAP1 SWAP4 ADD ADD PUSH1 0xC8 SHL PUSH1 0x44 MSTORE PUSH1 0x64 SWAP1 REVERT JUMPDEST PUSH2 0x6C71 DUP1 PUSH3 0xCE8 DUP4 CODECOPY ADD SWAP1 JUMP JUMPDEST PUSH1 0x0 PUSH1 0x20 DUP3 DUP5 SUB SLT ISZERO PUSH3 0x1D5 JUMPI DUP1 DUP2 REVERT JUMPDEST DUP2 MLOAD PUSH1 0x1 PUSH1 0x1 PUSH1 0xA0 SHL SUB DUP2 AND DUP2 EQ PUSH3 0x1EC JUMPI DUP2 DUP3 REVERT JUMPDEST SWAP4 SWAP3 POP POP POP JUMP JUMPDEST PUSH1 0x80 MLOAD PUSH1 0x60 SHR PUSH1 0xA0 MLOAD PUSH1 0xC0 MLOAD PUSH1 0x60 SHR PUSH1 0xE0 MLOAD PUSH2 0x100 MLOAD PUSH1 0x60 SHR PUSH2 0x120 MLOAD PUSH2 0xA93 PUSH3 0x255 PUSH1 0x0 CODECOPY DUP1 PUSH2 0x163 MSTORE DUP1 PUSH2 0x18C MSTORE POP DUP1 PUSH2 0x293 MSTORE POP DUP1 PUSH2 0x30F MSTORE POP DUP1 PUSH2 0x13A MSTORE DUP1 PUSH2 0x38B MSTORE POP DUP1 PUSH2 0x330 MSTORE POP DUP1 PUSH2 0x119 MSTORE DUP1 PUSH2 0x367 MSTORE POP PUSH2 0xA93 PUSH1 0x0 RETURN INVALID PUSH1 0x80 PUSH1 0x40 MSTORE CALLVALUE DUP1 ISZERO PUSH2 0x10 JUMPI PUSH1 0x0 DUP1 REVERT JUMPDEST POP PUSH1 0x4 CALLDATASIZE LT PUSH2 0x61 JUMPI PUSH1 0x0 CALLDATALOAD PUSH1 0xE0 SHR DUP1 PUSH3 0xC194DB EQ PUSH2 0x66 JUMPI DUP1 PUSH4 0x174481FA EQ PUSH2 0x84 JUMPI DUP1 PUSH4 0x2DA47C40 EQ PUSH2 0x9A JUMPI DUP1 PUSH4 0x4555FB8D EQ PUSH2 0xB0 JUMPI DUP1 PUSH4 0x6634B753 EQ PUSH2 0xD0 JUMPI DUP1 PUSH4 0x8D928AF8 EQ PUSH2 0xF0 JUMPI JUMPDEST PUSH1 0x0 DUP1 REVERT JUMPDEST PUSH2 0x6E PUSH2 0xF8 JUMP JUMPDEST PUSH1 0x40 MLOAD PUSH2 0x7B SWAP2 SWAP1 PUSH2 0x8D0 JUMP JUMPDEST PUSH1 0x40 MLOAD DUP1 SWAP2 SUB SWAP1 RETURN JUMPDEST PUSH2 0x8C PUSH2 0x117 JUMP JUMPDEST PUSH1 0x40 MLOAD PUSH2 0x7B SWAP3 SWAP2 SWAP1 PUSH2 0x8AB JUMP JUMPDEST PUSH2 0xA2 PUSH2 0x15D JUMP JUMPDEST PUSH1 0x40 MLOAD PUSH2 0x7B SWAP3 SWAP2 SWAP1 PUSH2 0x9F0 JUMP JUMPDEST PUSH2 0xC3 PUSH2 0xBE CALLDATASIZE PUSH1 0x4 PUSH2 0x6F0 JUMP JUMPDEST PUSH2 0x1C7 JUMP JUMPDEST PUSH1 0x40 MLOAD PUSH2 0x7B SWAP2 SWAP1 PUSH2 0x8E3 JUMP JUMPDEST PUSH2 0xE3 PUSH2 0xDE CALLDATASIZE PUSH1 0x4 PUSH2 0x6D4 JUMP JUMPDEST PUSH2 0x273 JUMP JUMPDEST PUSH1 0x40 MLOAD PUSH2 0x7B SWAP2 SWAP1 PUSH2 0x8C5 JUMP JUMPDEST PUSH2 0xC3 PUSH2 0x291 JUMP JUMPDEST PUSH1 0x60 PUSH2 0x112 PUSH1 0x40 MLOAD DUP1 PUSH1 0x20 ADD PUSH1 0x40 MSTORE DUP1 PUSH1 0x0 DUP2 MSTORE POP PUSH2 0x307 JUMP JUMPDEST SWAP1 POP SWAP1 JUMP JUMPDEST PUSH32 0x0 PUSH32 0x0 SWAP1 SWAP2 JUMP JUMPDEST PUSH1 0x0 DUP1 TIMESTAMP PUSH32 0x0 DUP2 LT ISZERO PUSH2 0x1B9 JUMPI DUP1 PUSH32 0x0 SUB SWAP3 POP PUSH3 0x278D00 SWAP2 POP PUSH2 0x1C2 JUMP JUMPDEST PUSH1 0x0 SWAP3 POP PUSH1 0x0 SWAP2 POP JUMPDEST POP SWAP1 SWAP2 JUMP JUMPDEST PUSH1 0x0 DUP1 PUSH1 0x0 PUSH2 0x1D4 PUSH2 0x15D JUMP JUMPDEST SWAP2 POP SWAP2 POP PUSH2 0x264 PUSH1 0x40 MLOAD DUP1 PUSH2 0x160 ADD PUSH1 0x40 MSTORE DUP1 PUSH2 0x1EF PUSH2 0x291 JUMP JUMPDEST PUSH1 0x1 PUSH1 0x1 PUSH1 0xA0 SHL SUB AND DUP2 MSTORE PUSH1 0x20 ADD DUP14 DUP2 MSTORE PUSH1 0x20 ADD DUP13 DUP2 MSTORE PUSH1 0x20 ADD DUP12 DUP2 MSTORE PUSH1 0x20 ADD DUP10 DUP2 MSTORE PUSH1 0x20 ADD DUP9 DUP2 MSTORE PUSH1 0x20 ADD DUP11 DUP2 MSTORE PUSH1 0x20 ADD DUP8 DUP2 MSTORE PUSH1 0x20 ADD DUP5 DUP2 MSTORE PUSH1 0x20 ADD DUP4 DUP2 MSTORE PUSH1 0x20 ADD DUP7 PUSH1 0x1 PUSH1 0x1 PUSH1 0xA0 SHL SUB AND DUP2 MSTORE POP PUSH1 0x40 MLOAD PUSH1 0x20 ADD PUSH2 0x250 SWAP2 SWAP1 PUSH2 0x8F7 JUMP JUMPDEST PUSH1 0x40 MLOAD PUSH1 0x20 DUP2 DUP4 SUB SUB DUP2 MSTORE SWAP1 PUSH1 0x40 MSTORE PUSH2 0x3E0 JUMP JUMPDEST SWAP12 SWAP11 POP POP POP POP POP POP POP POP POP POP POP JUMP JUMPDEST PUSH1 0x1 PUSH1 0x1 PUSH1 0xA0 SHL SUB AND PUSH1 0x0 SWAP1 DUP2 MSTORE PUSH1 0x20 DUP2 SWAP1 MSTORE PUSH1 0x40 SWAP1 KECCAK256 SLOAD PUSH1 0xFF AND SWAP1 JUMP JUMPDEST PUSH32 0x0 SWAP1 JUMP JUMPDEST DUP1 MLOAD PUSH32 0x602038038060206000396000F3FEFEFEFEFEFEFEFEFEFEFEFEFEFEFEFEFEFEFE DUP1 DUP4 MSTORE PUSH1 0x0 SWAP2 PUSH1 0x20 DUP2 ADD DUP5 DUP5 CREATE SWAP1 DUP5 MSTORE SWAP2 POP PUSH2 0x301 PUSH1 0x1 PUSH1 0x1 PUSH1 0xA0 SHL SUB DUP4 AND ISZERO ISZERO PUSH2 0x1AC PUSH2 0x440 JUMP JUMPDEST POP SWAP2 SWAP1 POP JUMP JUMPDEST DUP1 MLOAD PUSH1 0x40 DUP1 MLOAD PUSH32 0x0 PUSH32 0x0 DUP2 DUP2 ADD DUP6 DUP2 ADD DUP5 DUP2 ADD PUSH1 0x20 SWAP1 DUP2 ADD SWAP1 SWAP7 MSTORE DUP1 DUP6 MSTORE SWAP4 SWAP6 PUSH32 0x0 SWAP6 SWAP3 SWAP5 PUSH32 0x0 SWAP5 SWAP4 DUP9 ADD DUP7 PUSH1 0x0 DUP3 DUP11 EXTCODECOPY DUP5 PUSH1 0x0 DUP9 DUP4 ADD DUP9 EXTCODECOPY POP PUSH1 0x20 DUP10 DUP2 ADD SWAP1 DUP10 DUP6 ADD ADD PUSH2 0x3D2 DUP2 DUP4 DUP7 PUSH2 0x452 JUMP JUMPDEST POP POP POP POP POP POP POP POP POP SWAP2 SWAP1 POP JUMP JUMPDEST PUSH1 0x0 DUP1 PUSH2 0x3EC DUP4 PUSH2 0x490 JUMP JUMPDEST PUSH1 0x1 PUSH1 0x1 PUSH1 0xA0 SHL SUB DUP2 AND PUSH1 0x0 DUP2 DUP2 MSTORE PUSH1 0x20 DUP2 SWAP1 MSTORE PUSH1 0x40 DUP1 DUP3 KECCAK256 DUP1 SLOAD PUSH1 0xFF NOT AND PUSH1 0x1 OR SWAP1 SSTORE MLOAD SWAP3 SWAP4 POP SWAP1 SWAP2 PUSH32 0x83A48FBCFC991335314E74D0496AAB6A1987E992DDC85DDDBCC4D6DD6EF2E9FC SWAP2 SWAP1 LOG2 SWAP3 SWAP2 POP POP JUMP JUMPDEST DUP2 PUSH2 0x44E JUMPI PUSH2 0x44E DUP2 PUSH2 0x4CB JUMP JUMPDEST POP POP JUMP JUMPDEST JUMPDEST PUSH1 0x20 DUP2 LT PUSH2 0x472 JUMPI DUP2 MLOAD DUP4 MSTORE PUSH1 0x20 SWAP3 DUP4 ADD SWAP3 SWAP1 SWAP2 ADD SWAP1 PUSH1 0x1F NOT ADD PUSH2 0x453 JUMP JUMPDEST SWAP1 MLOAD DUP3 MLOAD PUSH1 0x20 SWAP3 SWAP1 SWAP3 SUB PUSH2 0x100 EXP PUSH1 0x0 NOT ADD DUP1 NOT SWAP1 SWAP2 AND SWAP2 AND OR SWAP1 MSTORE JUMP JUMPDEST PUSH1 0x0 PUSH1 0x60 PUSH2 0x49D DUP4 PUSH2 0x307 JUMP JUMPDEST SWAP1 POP PUSH1 0x0 DUP2 MLOAD PUSH1 0x20 DUP4 ADD PUSH1 0x0 CREATE SWAP1 POP PUSH1 0x1 PUSH1 0x1 PUSH1 0xA0 SHL SUB DUP2 AND PUSH2 0x4C4 JUMPI RETURNDATASIZE PUSH1 0x0 DUP1 RETURNDATACOPY RETURNDATASIZE PUSH1 0x0 REVERT JUMPDEST SWAP4 SWAP3 POP POP POP JUMP JUMPDEST PUSH3 0x461BCD PUSH1 0xE5 SHL PUSH1 0x0 SWAP1 DUP2 MSTORE PUSH1 0x20 PUSH1 0x4 MSTORE PUSH1 0x7 PUSH1 0x24 MSTORE PUSH7 0x42414C23000030 PUSH1 0xA DUP1 DUP5 DIV DUP2 DUP2 MOD PUSH1 0x30 SWAP1 DUP2 ADD PUSH1 0x8 SHL SWAP6 DUP4 SWAP1 MOD SWAP6 SWAP1 SWAP6 ADD SWAP1 DUP3 SWAP1 DIV SWAP2 DUP3 MOD SWAP1 SWAP5 ADD PUSH1 0x10 SHL SWAP4 SWAP1 SWAP4 ADD ADD PUSH1 0xC8 SHL PUSH1 0x44 MSTORE PUSH1 0x64 SWAP1 REVERT JUMPDEST DUP1 CALLDATALOAD PUSH2 0x529 DUP2 PUSH2 0xA45 JUMP JUMPDEST SWAP3 SWAP2 POP POP JUMP JUMPDEST PUSH1 0x0 DUP3 PUSH1 0x1F DUP4 ADD SLT PUSH2 0x53F JUMPI DUP1 DUP2 REVERT JUMPDEST DUP2 CALLDATALOAD PUSH2 0x552 PUSH2 0x54D DUP3 PUSH2 0xA25 JUMP JUMPDEST PUSH2 0x9FE JUMP JUMPDEST DUP2 DUP2 MSTORE SWAP2 POP PUSH1 0x20 DUP1 DUP4 ADD SWAP1 DUP5 DUP2 ADD DUP2 DUP5 MUL DUP7 ADD DUP3 ADD DUP8 LT ISZERO PUSH2 0x573 JUMPI PUSH1 0x0 DUP1 REVERT JUMPDEST PUSH1 0x0 JUMPDEST DUP5 DUP2 LT ISZERO PUSH2 0x59B JUMPI DUP2 CALLDATALOAD PUSH2 0x589 DUP2 PUSH2 0xA45 JUMP JUMPDEST DUP5 MSTORE SWAP3 DUP3 ADD SWAP3 SWAP1 DUP3 ADD SWAP1 PUSH1 0x1 ADD PUSH2 0x576 JUMP JUMPDEST POP POP POP POP POP SWAP3 SWAP2 POP POP JUMP JUMPDEST PUSH1 0x0 DUP3 PUSH1 0x1F DUP4 ADD SLT PUSH2 0x5B6 JUMPI DUP1 DUP2 REVERT JUMPDEST DUP2 CALLDATALOAD PUSH2 0x5C4 PUSH2 0x54D DUP3 PUSH2 0xA25 JUMP JUMPDEST DUP2 DUP2 MSTORE SWAP2 POP PUSH1 0x20 DUP1 DUP4 ADD SWAP1 DUP5 DUP2 ADD DUP2 DUP5 MUL DUP7 ADD DUP3 ADD DUP8 LT ISZERO PUSH2 0x5E5 JUMPI PUSH1 0x0 DUP1 REVERT JUMPDEST PUSH1 0x0 JUMPDEST DUP5 DUP2 LT ISZERO PUSH2 0x59B JUMPI DUP2 CALLDATALOAD PUSH2 0x5FB DUP2 PUSH2 0xA45 JUMP JUMPDEST DUP5 MSTORE SWAP3 DUP3 ADD SWAP3 SWAP1 DUP3 ADD SWAP1 PUSH1 0x1 ADD PUSH2 0x5E8 JUMP JUMPDEST PUSH1 0x0 DUP3 PUSH1 0x1F DUP4 ADD SLT PUSH2 0x61D JUMPI DUP1 DUP2 REVERT JUMPDEST DUP2 CALLDATALOAD PUSH2 0x62B PUSH2 0x54D DUP3 PUSH2 0xA25 JUMP JUMPDEST DUP2 DUP2 MSTORE SWAP2 POP PUSH1 0x20 DUP1 DUP4 ADD SWAP1 DUP5 DUP2 ADD DUP2 DUP5 MUL DUP7 ADD DUP3 ADD DUP8 LT ISZERO PUSH2 0x64C JUMPI PUSH1 0x0 DUP1 REVERT JUMPDEST PUSH1 0x0 JUMPDEST DUP5 DUP2 LT ISZERO PUSH2 0x59B JUMPI DUP2 CALLDATALOAD DUP5 MSTORE SWAP3 DUP3 ADD SWAP3 SWAP1 DUP3 ADD SWAP1 PUSH1 0x1 ADD PUSH2 0x64F JUMP JUMPDEST PUSH1 0x0 DUP3 PUSH1 0x1F DUP4 ADD SLT PUSH2 0x67B JUMPI DUP1 DUP2 REVERT JUMPDEST DUP2 CALLDATALOAD PUSH8 0xFFFFFFFFFFFFFFFF DUP2 GT ISZERO PUSH2 0x691 JUMPI DUP2 DUP3 REVERT JUMPDEST PUSH2 0x6A4 PUSH1 0x1F DUP3 ADD PUSH1 0x1F NOT AND PUSH1 0x20 ADD PUSH2 0x9FE JUMP JUMPDEST SWAP2 POP DUP1 DUP3 MSTORE DUP4 PUSH1 0x20 DUP3 DUP6 ADD ADD GT ISZERO PUSH2 0x6BB JUMPI PUSH1 0x0 DUP1 REVERT JUMPDEST DUP1 PUSH1 0x20 DUP5 ADD PUSH1 0x20 DUP5 ADD CALLDATACOPY PUSH1 0x0 SWAP1 DUP3 ADD PUSH1 0x20 ADD MSTORE SWAP3 SWAP2 POP POP JUMP JUMPDEST PUSH1 0x0 PUSH1 0x20 DUP3 DUP5 SUB SLT ISZERO PUSH2 0x6E5 JUMPI DUP1 DUP2 REVERT JUMPDEST DUP2 CALLDATALOAD PUSH2 0x4C4 DUP2 PUSH2 0xA45 JUMP JUMPDEST PUSH1 0x0 DUP1 PUSH1 0x0 DUP1 PUSH1 0x0 DUP1 PUSH1 0x0 DUP1 PUSH2 0x100 DUP10 DUP12 SUB SLT ISZERO PUSH2 0x70C JUMPI DUP4 DUP5 REVERT JUMPDEST DUP9 CALLDATALOAD PUSH8 0xFFFFFFFFFFFFFFFF DUP1 DUP3 GT ISZERO PUSH2 0x723 JUMPI DUP6 DUP7 REVERT JUMPDEST PUSH2 0x72F DUP13 DUP4 DUP14 ADD PUSH2 0x66B JUMP JUMPDEST SWAP10 POP PUSH1 0x20 DUP12 ADD CALLDATALOAD SWAP2 POP DUP1 DUP3 GT ISZERO PUSH2 0x744 JUMPI DUP6 DUP7 REVERT JUMPDEST PUSH2 0x750 DUP13 DUP4 DUP14 ADD PUSH2 0x66B JUMP JUMPDEST SWAP9 POP PUSH1 0x40 DUP12 ADD CALLDATALOAD SWAP2 POP DUP1 DUP3 GT ISZERO PUSH2 0x765 JUMPI DUP6 DUP7 REVERT JUMPDEST PUSH2 0x771 DUP13 DUP4 DUP14 ADD PUSH2 0x52F JUMP JUMPDEST SWAP8 POP PUSH1 0x60 DUP12 ADD CALLDATALOAD SWAP7 POP PUSH1 0x80 DUP12 ADD CALLDATALOAD SWAP2 POP DUP1 DUP3 GT ISZERO PUSH2 0x78D JUMPI DUP6 DUP7 REVERT JUMPDEST PUSH2 0x799 DUP13 DUP4 DUP14 ADD PUSH2 0x5A6 JUMP JUMPDEST SWAP6 POP PUSH1 0xA0 DUP12 ADD CALLDATALOAD SWAP2 POP DUP1 DUP3 GT ISZERO PUSH2 0x7AE JUMPI DUP5 DUP6 REVERT JUMPDEST POP PUSH2 0x7BB DUP12 DUP3 DUP13 ADD PUSH2 0x60D JUMP JUMPDEST SWAP4 POP POP PUSH1 0xC0 DUP10 ADD CALLDATALOAD SWAP2 POP PUSH2 0x7D2 DUP11 PUSH1 0xE0 DUP12 ADD PUSH2 0x51E JUMP JUMPDEST SWAP1 POP SWAP3 SWAP6 SWAP9 POP SWAP3 SWAP6 SWAP9 SWAP1 SWAP4 SWAP7 POP JUMP JUMPDEST PUSH1 0x1 PUSH1 0x1 PUSH1 0xA0 SHL SUB AND SWAP1 MSTORE JUMP JUMPDEST PUSH1 0x0 DUP2 MLOAD DUP1 DUP5 MSTORE PUSH1 0x20 DUP1 DUP6 ADD SWAP5 POP DUP1 DUP5 ADD DUP4 JUMPDEST DUP4 DUP2 LT ISZERO PUSH2 0x826 JUMPI DUP2 MLOAD PUSH1 0x1 PUSH1 0x1 PUSH1 0xA0 SHL SUB AND DUP8 MSTORE SWAP6 DUP3 ADD SWAP6 SWAP1 DUP3 ADD SWAP1 PUSH1 0x1 ADD PUSH2 0x801 JUMP JUMPDEST POP SWAP5 SWAP6 SWAP5 POP POP POP POP POP JUMP JUMPDEST PUSH1 0x0 DUP2 MLOAD DUP1 DUP5 MSTORE PUSH1 0x20 DUP1 DUP6 ADD SWAP5 POP DUP1 DUP5 ADD DUP4 JUMPDEST DUP4 DUP2 LT ISZERO PUSH2 0x826 JUMPI DUP2 MLOAD DUP8 MSTORE SWAP6 DUP3 ADD SWAP6 SWAP1 DUP3 ADD SWAP1 PUSH1 0x1 ADD PUSH2 0x844 JUMP JUMPDEST PUSH1 0x0 DUP2 MLOAD DUP1 DUP5 MSTORE DUP2 JUMPDEST DUP2 DUP2 LT ISZERO PUSH2 0x885 JUMPI PUSH1 0x20 DUP2 DUP6 ADD DUP2 ADD MLOAD DUP7 DUP4 ADD DUP3 ADD MSTORE ADD PUSH2 0x869 JUMP JUMPDEST DUP2 DUP2 GT ISZERO PUSH2 0x896 JUMPI DUP3 PUSH1 0x20 DUP4 DUP8 ADD ADD MSTORE JUMPDEST POP PUSH1 0x1F ADD PUSH1 0x1F NOT AND SWAP3 SWAP1 SWAP3 ADD PUSH1 0x20 ADD SWAP3 SWAP2 POP POP JUMP JUMPDEST PUSH1 0x1 PUSH1 0x1 PUSH1 0xA0 SHL SUB SWAP3 DUP4 AND DUP2 MSTORE SWAP2 AND PUSH1 0x20 DUP3 ADD MSTORE PUSH1 0x40 ADD SWAP1 JUMP JUMPDEST SWAP1 ISZERO ISZERO DUP2 MSTORE PUSH1 0x20 ADD SWAP1 JUMP JUMPDEST PUSH1 0x0 PUSH1 0x20 DUP3 MSTORE PUSH2 0x4C4 PUSH1 0x20 DUP4 ADD DUP5 PUSH2 0x860 JUMP JUMPDEST PUSH1 0x1 PUSH1 0x1 PUSH1 0xA0 SHL SUB SWAP2 SWAP1 SWAP2 AND DUP2 MSTORE PUSH1 0x20 ADD SWAP1 JUMP JUMPDEST PUSH1 0x0 PUSH1 0x20 DUP3 MSTORE PUSH2 0x90B PUSH1 0x20 DUP4 ADD DUP5 MLOAD PUSH2 0x7E1 JUMP JUMPDEST PUSH1 0x20 DUP4 ADD MLOAD PUSH2 0x160 DUP1 PUSH1 0x40 DUP6 ADD MSTORE PUSH2 0x927 PUSH2 0x180 DUP6 ADD DUP4 PUSH2 0x860 JUMP JUMPDEST SWAP2 POP PUSH1 0x40 DUP6 ADD MLOAD PUSH1 0x1F NOT DUP1 DUP7 DUP6 SUB ADD PUSH1 0x60 DUP8 ADD MSTORE PUSH2 0x945 DUP5 DUP4 PUSH2 0x860 JUMP JUMPDEST SWAP4 POP PUSH1 0x60 DUP8 ADD MLOAD SWAP2 POP DUP1 DUP7 DUP6 SUB ADD PUSH1 0x80 DUP8 ADD MSTORE PUSH2 0x962 DUP5 DUP4 PUSH2 0x7EE JUMP JUMPDEST SWAP4 POP PUSH1 0x80 DUP8 ADD MLOAD SWAP2 POP DUP1 DUP7 DUP6 SUB ADD PUSH1 0xA0 DUP8 ADD MSTORE PUSH2 0x97F DUP5 DUP4 PUSH2 0x7EE JUMP JUMPDEST SWAP4 POP PUSH1 0xA0 DUP8 ADD MLOAD SWAP2 POP DUP1 DUP7 DUP6 SUB ADD PUSH1 0xC0 DUP8 ADD MSTORE POP PUSH2 0x99D DUP4 DUP3 PUSH2 0x831 JUMP JUMPDEST PUSH1 0xC0 DUP8 ADD MLOAD PUSH1 0xE0 DUP8 DUP2 ADD SWAP2 SWAP1 SWAP2 MSTORE DUP8 ADD MLOAD PUSH2 0x100 DUP1 DUP9 ADD SWAP2 SWAP1 SWAP2 MSTORE DUP8 ADD MLOAD PUSH2 0x120 DUP1 DUP9 ADD SWAP2 SWAP1 SWAP2 MSTORE DUP8 ADD MLOAD PUSH2 0x140 DUP1 DUP9 ADD SWAP2 SWAP1 SWAP2 MSTORE DUP8 ADD MLOAD SWAP1 SWAP4 POP SWAP1 POP PUSH2 0x9E6 DUP3 DUP7 ADD DUP3 PUSH2 0x7E1 JUMP JUMPDEST POP SWAP1 SWAP5 SWAP4 POP POP POP POP JUMP JUMPDEST SWAP2 DUP3 MSTORE PUSH1 0x20 DUP3 ADD MSTORE PUSH1 0x40 ADD SWAP1 JUMP JUMPDEST PUSH1 0x40 MLOAD DUP2 DUP2 ADD PUSH8 0xFFFFFFFFFFFFFFFF DUP2 GT DUP3 DUP3 LT OR ISZERO PUSH2 0xA1D JUMPI PUSH1 0x0 DUP1 REVERT JUMPDEST PUSH1 0x40 MSTORE SWAP2 SWAP1 POP JUMP JUMPDEST PUSH1 0x0 PUSH8 0xFFFFFFFFFFFFFFFF DUP3 GT ISZERO PUSH2 0xA3B JUMPI DUP1 DUP2 REVERT JUMPDEST POP PUSH1 0x20 SWAP1 DUP2 MUL ADD SWAP1 JUMP JUMPDEST PUSH1 0x1 PUSH1 0x1 PUSH1 0xA0 SHL SUB DUP2 AND DUP2 EQ PUSH2 0xA5A JUMPI PUSH1 0x0 DUP1 REVERT JUMPDEST POP JUMP INVALID LOG2 PUSH5 0x6970667358 0x22 SLT KECCAK256 0xFB PUSH3 0x25A171 0x26 0x2E LOG4 GT PUSH6 0xCF4788E0E7B3 SELFBALANCE PUSH27 0xBBD76C967AAF9E7E36501180AD364736F6C634300070100336103 0xE0 PUSH1 0x40 MSTORE PUSH32 0x6E71EDAE12B1B97F4D1F60370FEF10105FA2FAAE0126114A169C64845D6126C9 PUSH2 0x120 MSTORE CALLVALUE DUP1 ISZERO PUSH3 0x37 JUMPI PUSH1 0x0 DUP1 REVERT JUMPDEST POP PUSH1 0x40 MLOAD PUSH3 0x6C71 CODESIZE SUB DUP1 PUSH3 0x6C71 DUP4 CODECOPY DUP2 ADD PUSH1 0x40 DUP2 SWAP1 MSTORE PUSH3 0x5A SWAP2 PUSH3 0x1485 JUMP JUMPDEST DUP1 MLOAD PUSH1 0x20 DUP3 ADD MLOAD PUSH1 0x40 DUP4 ADD MLOAD PUSH1 0x60 DUP5 ADD MLOAD PUSH3 0x77 SWAP1 ADDRESS PUSH3 0x9CC JUMP JUMPDEST DUP5 PUSH1 0xC0 ADD MLOAD DUP6 PUSH1 0xE0 ADD MLOAD DUP7 PUSH2 0x100 ADD MLOAD DUP8 PUSH2 0x120 ADD MLOAD DUP9 PUSH2 0x140 ADD MLOAD DUP9 DUP7 MLOAD PUSH1 0x2 EQ PUSH3 0xA6 JUMPI PUSH1 0x0 PUSH3 0xA9 JUMP JUMPDEST PUSH1 0x2 JUMPDEST DUP10 DUP10 DUP10 DUP11 MLOAD PUSH1 0x1 PUSH1 0x1 PUSH1 0x40 SHL SUB DUP2 GT DUP1 ISZERO PUSH3 0xC4 JUMPI PUSH1 0x0 DUP1 REVERT JUMPDEST POP PUSH1 0x40 MLOAD SWAP1 DUP1 DUP3 MSTORE DUP1 PUSH1 0x20 MUL PUSH1 0x20 ADD DUP3 ADD PUSH1 0x40 MSTORE DUP1 ISZERO PUSH3 0xEF JUMPI DUP2 PUSH1 0x20 ADD PUSH1 0x20 DUP3 MUL DUP1 CALLDATASIZE DUP4 CALLDATACOPY ADD SWAP1 POP JUMPDEST POP DUP10 DUP10 DUP10 DUP10 DUP3 DUP3 DUP10 DUP10 DUP14 DUP3 DUP1 PUSH1 0x40 MLOAD DUP1 PUSH1 0x40 ADD PUSH1 0x40 MSTORE DUP1 PUSH1 0x1 DUP2 MSTORE PUSH1 0x20 ADD PUSH1 0x31 PUSH1 0xF8 SHL DUP2 MSTORE POP DUP6 DUP6 DUP11 CALLER PUSH1 0x1 PUSH1 0x1 PUSH1 0xA0 SHL SUB AND PUSH1 0x0 SHL DUP1 PUSH1 0x80 DUP2 DUP2 MSTORE POP POP POP DUP1 PUSH1 0x1 PUSH1 0x1 PUSH1 0xA0 SHL SUB AND PUSH1 0xA0 DUP2 PUSH1 0x1 PUSH1 0x1 PUSH1 0xA0 SHL SUB AND PUSH1 0x60 SHL DUP2 MSTORE POP POP POP DUP2 PUSH1 0x3 SWAP1 DUP1 MLOAD SWAP1 PUSH1 0x20 ADD SWAP1 PUSH3 0x164 SWAP3 SWAP2 SWAP1 PUSH3 0x11BF JUMP JUMPDEST POP DUP1 MLOAD PUSH3 0x17A SWAP1 PUSH1 0x4 SWAP1 PUSH1 0x20 DUP5 ADD SWAP1 PUSH3 0x11BF JUMP JUMPDEST POP POP PUSH1 0x5 DUP1 SLOAD PUSH1 0x12 PUSH1 0xFF NOT SWAP1 SWAP2 AND OR SWAP1 SSTORE POP DUP2 MLOAD PUSH1 0x20 SWAP3 DUP4 ADD KECCAK256 PUSH1 0xC0 MSTORE DUP1 MLOAD SWAP2 ADD KECCAK256 PUSH1 0xE0 MSTORE POP PUSH32 0x8B73C3C69BB8FE3D512ECC4CF759CC79239F7B179B0FFACAA9A75D522B39400F PUSH2 0x100 MSTORE PUSH1 0x60 SHL PUSH1 0x1 PUSH1 0x1 PUSH1 0x60 SHL SUB NOT AND PUSH2 0x140 MSTORE POP PUSH3 0x1ED SWAP1 POP PUSH3 0x76A700 DUP4 GT ISZERO PUSH2 0x194 PUSH3 0xB66 JUMP JUMPDEST PUSH3 0x201 PUSH3 0x278D00 DUP3 GT ISZERO PUSH2 0x195 PUSH3 0xB66 JUMP JUMPDEST TIMESTAMP SWAP1 SWAP2 ADD PUSH2 0x160 DUP2 SWAP1 MSTORE ADD PUSH2 0x180 MSTORE DUP6 MLOAD PUSH3 0x223 SWAP1 PUSH1 0x2 GT ISZERO PUSH1 0xC8 PUSH3 0xB66 JUMP JUMPDEST PUSH3 0x23D PUSH3 0x231 PUSH3 0xB7B JUMP JUMPDEST DUP8 MLOAD GT ISZERO PUSH1 0xC9 PUSH3 0xB66 JUMP JUMPDEST PUSH3 0x253 DUP7 PUSH3 0xB80 PUSH1 0x20 SHL PUSH3 0x14EA OR PUSH1 0x20 SHR JUMP JUMPDEST PUSH3 0x25E DUP5 PUSH3 0xB8C JUMP JUMPDEST PUSH1 0x40 MLOAD PUSH4 0x9B2760F PUSH1 0xE0 SHL DUP2 MSTORE PUSH1 0x0 SWAP1 PUSH1 0x1 PUSH1 0x1 PUSH1 0xA0 SHL SUB DUP13 AND SWAP1 PUSH4 0x9B2760F SWAP1 PUSH3 0x28F SWAP1 DUP14 SWAP1 PUSH1 0x4 ADD PUSH3 0x16A9 JUMP JUMPDEST PUSH1 0x20 PUSH1 0x40 MLOAD DUP1 DUP4 SUB DUP2 PUSH1 0x0 DUP8 DUP1 EXTCODESIZE ISZERO DUP1 ISZERO PUSH3 0x2AA JUMPI PUSH1 0x0 DUP1 REVERT JUMPDEST POP GAS CALL ISZERO DUP1 ISZERO PUSH3 0x2BF JUMPI RETURNDATASIZE PUSH1 0x0 DUP1 RETURNDATACOPY RETURNDATASIZE PUSH1 0x0 REVERT JUMPDEST POP POP POP POP PUSH1 0x40 MLOAD RETURNDATASIZE PUSH1 0x1F NOT PUSH1 0x1F DUP3 ADD AND DUP3 ADD DUP1 PUSH1 0x40 MSTORE POP DUP2 ADD SWAP1 PUSH3 0x2E5 SWAP2 SWAP1 PUSH3 0x144D JUMP JUMPDEST PUSH1 0x40 MLOAD PUSH4 0x3354E3E9 PUSH1 0xE1 SHL DUP2 MSTORE SWAP1 SWAP2 POP PUSH1 0x1 PUSH1 0x1 PUSH1 0xA0 SHL SUB DUP13 AND SWAP1 PUSH4 0x66A9C7D2 SWAP1 PUSH3 0x31A SWAP1 DUP5 SWAP1 DUP12 SWAP1 DUP12 SWAP1 PUSH1 0x4 ADD PUSH3 0x160D JUMP JUMPDEST PUSH1 0x0 PUSH1 0x40 MLOAD DUP1 DUP4 SUB DUP2 PUSH1 0x0 DUP8 DUP1 EXTCODESIZE ISZERO DUP1 ISZERO PUSH3 0x335 JUMPI PUSH1 0x0 DUP1 REVERT JUMPDEST POP GAS CALL ISZERO DUP1 ISZERO PUSH3 0x34A JUMPI RETURNDATASIZE PUSH1 0x0 DUP1 RETURNDATACOPY RETURNDATASIZE PUSH1 0x0 REVERT JUMPDEST POP POP POP PUSH2 0x1A0 SWAP2 SWAP1 SWAP2 MSTORE POP PUSH3 0x375 SWAP10 POP POP POP PUSH1 0x1 DUP14 LT ISZERO SWAP7 POP PUSH2 0x12C SWAP6 POP POP PUSH3 0xB66 SWAP4 POP POP POP POP JUMP JUMPDEST PUSH3 0x388 PUSH2 0x1388 DUP7 GT ISZERO PUSH2 0x12D PUSH3 0xB66 JUMP JUMPDEST DUP6 MLOAD PUSH2 0x1C0 DUP2 SWAP1 MSTORE DUP7 MLOAD DUP8 SWAP1 PUSH1 0x0 SWAP1 PUSH3 0x39E JUMPI INVALID JUMPDEST PUSH1 0x20 MUL PUSH1 0x20 ADD ADD MLOAD PUSH1 0x1 PUSH1 0x1 PUSH1 0xA0 SHL SUB AND PUSH2 0x1E0 DUP2 PUSH1 0x1 PUSH1 0x1 PUSH1 0xA0 SHL SUB AND PUSH1 0x60 SHL DUP2 MSTORE POP POP DUP7 PUSH1 0x1 DUP2 MLOAD DUP2 LT PUSH3 0x3D1 JUMPI INVALID JUMPDEST PUSH1 0x20 MUL PUSH1 0x20 ADD ADD MLOAD PUSH1 0x1 PUSH1 0x1 PUSH1 0xA0 SHL SUB AND PUSH2 0x200 DUP2 PUSH1 0x1 PUSH1 0x1 PUSH1 0xA0 SHL SUB AND PUSH1 0x60 SHL DUP2 MSTORE POP POP PUSH1 0x2 DUP2 GT PUSH3 0x407 JUMPI PUSH1 0x0 PUSH3 0x41E JUMP JUMPDEST DUP7 PUSH1 0x2 DUP2 MLOAD DUP2 LT PUSH3 0x415 JUMPI INVALID JUMPDEST PUSH1 0x20 MUL PUSH1 0x20 ADD ADD MLOAD JUMPDEST PUSH1 0x60 SHL PUSH1 0x1 PUSH1 0x1 PUSH1 0x60 SHL SUB NOT AND PUSH2 0x220 MSTORE PUSH1 0x3 DUP2 GT PUSH3 0x440 JUMPI PUSH1 0x0 PUSH3 0x457 JUMP JUMPDEST DUP7 PUSH1 0x3 DUP2 MLOAD DUP2 LT PUSH3 0x44E JUMPI INVALID JUMPDEST PUSH1 0x20 MUL PUSH1 0x20 ADD ADD MLOAD JUMPDEST PUSH1 0x60 SHL PUSH1 0x1 PUSH1 0x1 PUSH1 0x60 SHL SUB NOT AND PUSH2 0x240 MSTORE PUSH1 0x4 DUP2 GT PUSH3 0x479 JUMPI PUSH1 0x0 PUSH3 0x490 JUMP JUMPDEST DUP7 PUSH1 0x4 DUP2 MLOAD DUP2 LT PUSH3 0x487 JUMPI INVALID JUMPDEST PUSH1 0x20 MUL PUSH1 0x20 ADD ADD MLOAD JUMPDEST PUSH1 0x1 PUSH1 0x1 PUSH1 0xA0 SHL SUB AND PUSH2 0x260 DUP2 PUSH1 0x1 PUSH1 0x1 PUSH1 0xA0 SHL SUB AND PUSH1 0x60 SHL DUP2 MSTORE POP POP PUSH3 0x4D3 DUP8 PUSH1 0x0 DUP2 MLOAD DUP2 LT PUSH3 0x4BF JUMPI INVALID JUMPDEST PUSH1 0x20 MUL PUSH1 0x20 ADD ADD MLOAD PUSH3 0xC18 PUSH1 0x20 SHL PUSH1 0x20 SHR JUMP JUMPDEST PUSH2 0x280 MSTORE DUP7 MLOAD PUSH3 0x4EC SWAP1 DUP9 SWAP1 PUSH1 0x1 SWAP1 DUP2 LT PUSH3 0x4BF JUMPI INVALID JUMPDEST PUSH2 0x2A0 MSTORE PUSH1 0x2 DUP2 GT PUSH3 0x501 JUMPI PUSH1 0x0 PUSH3 0x513 JUMP JUMPDEST PUSH3 0x513 DUP8 PUSH1 0x2 DUP2 MLOAD DUP2 LT PUSH3 0x4BF JUMPI INVALID JUMPDEST PUSH2 0x2C0 MSTORE PUSH1 0x3 DUP2 GT PUSH3 0x528 JUMPI PUSH1 0x0 PUSH3 0x53A JUMP JUMPDEST PUSH3 0x53A DUP8 PUSH1 0x3 DUP2 MLOAD DUP2 LT PUSH3 0x4BF JUMPI INVALID JUMPDEST PUSH2 0x2E0 MSTORE PUSH1 0x4 DUP2 GT PUSH3 0x54F JUMPI PUSH1 0x0 PUSH3 0x561 JUMP JUMPDEST PUSH3 0x561 DUP8 PUSH1 0x4 DUP2 MLOAD DUP2 LT PUSH3 0x4BF JUMPI INVALID JUMPDEST PUSH2 0x300 DUP2 DUP2 MSTORE POP POP PUSH1 0x0 PUSH3 0x584 DUP8 PUSH2 0x3E8 PUSH3 0xCEC PUSH1 0x20 SHL PUSH3 0x14F4 OR PUSH1 0x20 SHR JUMP JUMPDEST SWAP1 POP PUSH3 0x591 DUP2 PUSH3 0xD1B JUMP JUMPDEST POP POP POP POP POP POP POP POP POP POP POP PUSH3 0x5B8 PUSH1 0x2 DUP3 PUSH1 0x60 ADD MLOAD MLOAD LT ISZERO PUSH1 0xC8 PUSH3 0xB66 PUSH1 0x20 SHL PUSH1 0x20 SHR JUMP JUMPDEST PUSH3 0x5DF DUP2 PUSH1 0x60 ADD MLOAD MLOAD DUP3 PUSH1 0x80 ADD MLOAD MLOAD DUP4 PUSH1 0xA0 ADD MLOAD MLOAD PUSH3 0xD5A PUSH1 0x20 SHL PUSH3 0x1518 OR PUSH1 0x20 SHR JUMP JUMPDEST PUSH1 0x0 JUMPDEST DUP2 PUSH1 0x60 ADD MLOAD MLOAD DUP2 LT ISZERO PUSH3 0x71D JUMPI PUSH1 0x0 PUSH1 0x1 PUSH1 0x1 PUSH1 0xA0 SHL SUB AND DUP3 PUSH1 0x80 ADD MLOAD DUP3 DUP2 MLOAD DUP2 LT PUSH3 0x60C JUMPI INVALID JUMPDEST PUSH1 0x20 MUL PUSH1 0x20 ADD ADD MLOAD PUSH1 0x1 PUSH1 0x1 PUSH1 0xA0 SHL SUB AND EQ PUSH3 0x714 JUMPI PUSH3 0x67E DUP3 PUSH1 0x60 ADD MLOAD DUP3 DUP2 MLOAD DUP2 LT PUSH3 0x638 JUMPI INVALID JUMPDEST PUSH1 0x20 MUL PUSH1 0x20 ADD ADD MLOAD DUP4 PUSH1 0x80 ADD MLOAD DUP4 DUP2 MLOAD DUP2 LT PUSH3 0x651 JUMPI INVALID JUMPDEST PUSH1 0x20 MUL PUSH1 0x20 ADD ADD MLOAD DUP5 PUSH1 0xA0 ADD MLOAD DUP5 DUP2 MLOAD DUP2 LT PUSH3 0x66A JUMPI INVALID JUMPDEST PUSH1 0x20 MUL PUSH1 0x20 ADD ADD MLOAD PUSH3 0xD7A PUSH1 0x20 SHL PUSH1 0x20 SHR JUMP JUMPDEST DUP2 PUSH1 0x80 ADD MLOAD DUP2 DUP2 MLOAD DUP2 LT PUSH3 0x68F JUMPI INVALID JUMPDEST PUSH1 0x20 MUL PUSH1 0x20 ADD ADD MLOAD PUSH1 0x1 PUSH1 0x1 PUSH1 0xA0 SHL SUB AND DUP3 PUSH1 0x60 ADD MLOAD DUP3 DUP2 MLOAD DUP2 LT PUSH3 0x6B1 JUMPI INVALID JUMPDEST PUSH1 0x20 MUL PUSH1 0x20 ADD ADD MLOAD PUSH1 0x1 PUSH1 0x1 PUSH1 0xA0 SHL SUB AND PUSH32 0xF00A2BF8C71DB611A21183E0A96869752BCD9DA29372FA76F865EED4FDD540D1 DUP5 PUSH1 0xA0 ADD MLOAD DUP5 DUP2 MLOAD DUP2 LT PUSH3 0x6F4 JUMPI INVALID JUMPDEST PUSH1 0x20 MUL PUSH1 0x20 ADD ADD MLOAD PUSH1 0x40 MLOAD PUSH3 0x70B SWAP2 SWAP1 PUSH3 0x16BE JUMP JUMPDEST PUSH1 0x40 MLOAD DUP1 SWAP2 SUB SWAP1 LOG3 JUMPDEST PUSH1 0x1 ADD PUSH3 0x5E2 JUMP JUMPDEST POP PUSH1 0x60 DUP2 ADD MLOAD MLOAD JUMPDEST PUSH1 0x0 DUP2 GT DUP1 ISZERO PUSH3 0x762 JUMPI POP ADDRESS PUSH1 0x1 PUSH1 0x1 PUSH1 0xA0 SHL SUB AND DUP3 PUSH1 0x60 ADD MLOAD PUSH1 0x1 DUP4 SUB DUP2 MLOAD DUP2 LT PUSH3 0x74F JUMPI INVALID JUMPDEST PUSH1 0x20 MUL PUSH1 0x20 ADD ADD MLOAD PUSH1 0x1 PUSH1 0x1 PUSH1 0xA0 SHL SUB AND GT JUMPDEST ISZERO PUSH3 0x772 JUMPI PUSH1 0x0 NOT ADD PUSH3 0x725 JUMP JUMPDEST PUSH2 0x320 DUP2 SWAP1 MSTORE PUSH1 0x60 DUP3 DUP2 ADD MLOAD MLOAD PUSH1 0x1 ADD PUSH1 0x1 PUSH1 0x1 PUSH1 0x40 SHL SUB DUP2 GT DUP1 ISZERO PUSH3 0x798 JUMPI PUSH1 0x0 DUP1 REVERT JUMPDEST POP PUSH1 0x40 MLOAD SWAP1 DUP1 DUP3 MSTORE DUP1 PUSH1 0x20 MUL PUSH1 0x20 ADD DUP3 ADD PUSH1 0x40 MSTORE DUP1 ISZERO PUSH3 0x7C3 JUMPI DUP2 PUSH1 0x20 ADD PUSH1 0x20 DUP3 MUL DUP1 CALLDATASIZE DUP4 CALLDATACOPY ADD SWAP1 POP JUMPDEST POP SWAP1 POP PUSH1 0x0 JUMPDEST DUP2 MLOAD DUP2 LT ISZERO PUSH3 0x893 JUMPI DUP3 DUP2 LT ISZERO PUSH3 0x828 JUMPI DUP4 PUSH1 0x80 ADD MLOAD DUP2 DUP2 MLOAD DUP2 LT PUSH3 0x7ED JUMPI INVALID JUMPDEST PUSH1 0x20 MUL PUSH1 0x20 ADD ADD MLOAD DUP3 DUP3 DUP2 MLOAD DUP2 LT PUSH3 0x802 JUMPI INVALID JUMPDEST PUSH1 0x20 MUL PUSH1 0x20 ADD ADD SWAP1 PUSH1 0x1 PUSH1 0x1 PUSH1 0xA0 SHL SUB AND SWAP1 DUP2 PUSH1 0x1 PUSH1 0x1 PUSH1 0xA0 SHL SUB AND DUP2 MSTORE POP POP PUSH3 0x88A JUMP JUMPDEST DUP3 DUP2 EQ ISZERO PUSH3 0x840 JUMPI PUSH1 0x0 DUP3 DUP3 DUP2 MLOAD DUP2 LT PUSH3 0x802 JUMPI INVALID JUMPDEST DUP4 PUSH1 0x80 ADD MLOAD PUSH1 0x1 DUP3 SUB DUP2 MLOAD DUP2 LT PUSH3 0x854 JUMPI INVALID JUMPDEST PUSH1 0x20 MUL PUSH1 0x20 ADD ADD MLOAD DUP3 DUP3 DUP2 MLOAD DUP2 LT PUSH3 0x869 JUMPI INVALID JUMPDEST PUSH1 0x20 MUL PUSH1 0x20 ADD ADD SWAP1 PUSH1 0x1 PUSH1 0x1 PUSH1 0xA0 SHL SUB AND SWAP1 DUP2 PUSH1 0x1 PUSH1 0x1 PUSH1 0xA0 SHL SUB AND DUP2 MSTORE POP POP JUMPDEST PUSH1 0x1 ADD PUSH3 0x7C9 JUMP JUMPDEST POP PUSH1 0x0 DUP2 MLOAD GT PUSH3 0x8A6 JUMPI PUSH1 0x0 PUSH3 0x8BD JUMP JUMPDEST DUP1 PUSH1 0x0 DUP2 MLOAD DUP2 LT PUSH3 0x8B4 JUMPI INVALID JUMPDEST PUSH1 0x20 MUL PUSH1 0x20 ADD ADD MLOAD JUMPDEST PUSH1 0x60 SHL PUSH1 0x1 PUSH1 0x1 PUSH1 0x60 SHL SUB NOT AND PUSH2 0x340 MSTORE DUP1 MLOAD PUSH1 0x1 LT PUSH3 0x8E0 JUMPI PUSH1 0x0 PUSH3 0x8F7 JUMP JUMPDEST DUP1 PUSH1 0x1 DUP2 MLOAD DUP2 LT PUSH3 0x8EE JUMPI INVALID JUMPDEST PUSH1 0x20 MUL PUSH1 0x20 ADD ADD MLOAD JUMPDEST PUSH1 0x60 SHL PUSH1 0x1 PUSH1 0x1 PUSH1 0x60 SHL SUB NOT AND PUSH2 0x360 MSTORE DUP1 MLOAD PUSH1 0x2 LT PUSH3 0x91A JUMPI PUSH1 0x0 PUSH3 0x931 JUMP JUMPDEST DUP1 PUSH1 0x2 DUP2 MLOAD DUP2 LT PUSH3 0x928 JUMPI INVALID JUMPDEST PUSH1 0x20 MUL PUSH1 0x20 ADD ADD MLOAD JUMPDEST PUSH1 0x60 SHL PUSH1 0x1 PUSH1 0x1 PUSH1 0x60 SHL SUB NOT AND PUSH2 0x380 MSTORE DUP1 MLOAD PUSH1 0x3 LT PUSH3 0x954 JUMPI PUSH1 0x0 PUSH3 0x96B JUMP JUMPDEST DUP1 PUSH1 0x3 DUP2 MLOAD DUP2 LT PUSH3 0x962 JUMPI INVALID JUMPDEST PUSH1 0x20 MUL PUSH1 0x20 ADD ADD MLOAD JUMPDEST PUSH1 0x60 SHL PUSH1 0x1 PUSH1 0x1 PUSH1 0x60 SHL SUB NOT AND PUSH2 0x3A0 MSTORE DUP1 MLOAD PUSH1 0x4 LT PUSH3 0x98E JUMPI PUSH1 0x0 PUSH3 0x9A5 JUMP JUMPDEST DUP1 PUSH1 0x4 DUP2 MLOAD DUP2 LT PUSH3 0x99C JUMPI INVALID JUMPDEST PUSH1 0x20 MUL PUSH1 0x20 ADD ADD MLOAD JUMPDEST PUSH1 0x60 SHL PUSH1 0x1 PUSH1 0x1 PUSH1 0x60 SHL SUB NOT AND PUSH2 0x3C0 MSTORE DUP3 MLOAD PUSH3 0x9C3 SWAP1 PUSH3 0xE6C JUMP JUMPDEST POP POP POP PUSH3 0x1730 JUMP JUMPDEST PUSH1 0x60 DUP3 MLOAD PUSH1 0x1 ADD PUSH1 0x1 PUSH1 0x1 PUSH1 0x40 SHL SUB DUP2 GT DUP1 ISZERO PUSH3 0x9E9 JUMPI PUSH1 0x0 DUP1 REVERT JUMPDEST POP PUSH1 0x40 MLOAD SWAP1 DUP1 DUP3 MSTORE DUP1 PUSH1 0x20 MUL PUSH1 0x20 ADD DUP3 ADD PUSH1 0x40 MSTORE DUP1 ISZERO PUSH3 0xA14 JUMPI DUP2 PUSH1 0x20 ADD PUSH1 0x20 DUP3 MUL DUP1 CALLDATASIZE DUP4 CALLDATACOPY ADD SWAP1 POP JUMPDEST POP SWAP1 POP DUP3 MLOAD PUSH1 0x0 EQ ISZERO PUSH3 0xA57 JUMPI DUP2 DUP2 PUSH1 0x0 DUP2 MLOAD DUP2 LT PUSH3 0xA31 JUMPI INVALID JUMPDEST PUSH1 0x20 MUL PUSH1 0x20 ADD ADD SWAP1 PUSH1 0x1 PUSH1 0x1 PUSH1 0xA0 SHL SUB AND SWAP1 DUP2 PUSH1 0x1 PUSH1 0x1 PUSH1 0xA0 SHL SUB AND DUP2 MSTORE POP POP PUSH3 0xB60 JUMP JUMPDEST DUP3 MLOAD JUMPDEST PUSH1 0x0 DUP2 GT DUP1 ISZERO PUSH3 0xA93 JUMPI POP DUP3 PUSH1 0x1 PUSH1 0x1 PUSH1 0xA0 SHL SUB AND DUP5 PUSH1 0x1 DUP4 SUB DUP2 MLOAD DUP2 LT PUSH3 0xA80 JUMPI INVALID JUMPDEST PUSH1 0x20 MUL PUSH1 0x20 ADD ADD MLOAD PUSH1 0x1 PUSH1 0x1 PUSH1 0xA0 SHL SUB AND GT JUMPDEST ISZERO PUSH3 0xAE0 JUMPI DUP4 PUSH1 0x1 DUP3 SUB DUP2 MLOAD DUP2 LT PUSH3 0xAA9 JUMPI INVALID JUMPDEST PUSH1 0x20 MUL PUSH1 0x20 ADD ADD MLOAD DUP3 DUP3 DUP2 MLOAD DUP2 LT PUSH3 0xABE JUMPI INVALID JUMPDEST PUSH1 0x1 PUSH1 0x1 PUSH1 0xA0 SHL SUB SWAP1 SWAP3 AND PUSH1 0x20 SWAP3 DUP4 MUL SWAP2 SWAP1 SWAP2 ADD SWAP1 SWAP2 ADD MSTORE PUSH1 0x0 NOT ADD PUSH3 0xA5A JUMP JUMPDEST PUSH1 0x0 JUMPDEST DUP2 DUP2 LT ISZERO PUSH3 0xB2F JUMPI DUP5 DUP2 DUP2 MLOAD DUP2 LT PUSH3 0xAF9 JUMPI INVALID JUMPDEST PUSH1 0x20 MUL PUSH1 0x20 ADD ADD MLOAD DUP4 DUP3 DUP2 MLOAD DUP2 LT PUSH3 0xB0E JUMPI INVALID JUMPDEST PUSH1 0x1 PUSH1 0x1 PUSH1 0xA0 SHL SUB SWAP1 SWAP3 AND PUSH1 0x20 SWAP3 DUP4 MUL SWAP2 SWAP1 SWAP2 ADD SWAP1 SWAP2 ADD MSTORE PUSH1 0x1 ADD PUSH3 0xAE3 JUMP JUMPDEST POP DUP3 DUP3 DUP3 DUP2 MLOAD DUP2 LT PUSH3 0xB3E JUMPI INVALID JUMPDEST PUSH1 0x20 MUL PUSH1 0x20 ADD ADD SWAP1 PUSH1 0x1 PUSH1 0x1 PUSH1 0xA0 SHL SUB AND SWAP1 DUP2 PUSH1 0x1 PUSH1 0x1 PUSH1 0xA0 SHL SUB AND DUP2 MSTORE POP POP POP JUMPDEST SWAP3 SWAP2 POP POP JUMP JUMPDEST DUP2 PUSH3 0xB77 JUMPI PUSH3 0xB77 DUP2 PUSH3 0xF9D JUMP JUMPDEST POP POP JUMP JUMPDEST PUSH1 0x5 SWAP1 JUMP JUMPDEST DUP1 PUSH3 0xB77 DUP2 PUSH3 0xFF0 JUMP JUMPDEST PUSH3 0xBA1 PUSH5 0xE8D4A51000 DUP3 LT ISZERO PUSH1 0xCB PUSH3 0xB66 JUMP JUMPDEST PUSH3 0xBB9 PUSH8 0x16345785D8A0000 DUP3 GT ISZERO PUSH1 0xCA PUSH3 0xB66 JUMP JUMPDEST PUSH3 0xBD8 DUP2 PUSH1 0xC0 PUSH1 0x8 SLOAD PUSH3 0x107A PUSH1 0x20 SHL PUSH3 0x1530 OR SWAP1 SWAP3 SWAP2 SWAP1 PUSH1 0x20 SHR JUMP JUMPDEST PUSH1 0x8 SSTORE PUSH1 0x40 MLOAD PUSH32 0xA9BA3FFE0B6C366B81232CAAB38605A0699AD5398D6CCE76F91EE809E322DAFC SWAP1 PUSH3 0xC0D SWAP1 DUP4 SWAP1 PUSH3 0x16BE JUMP JUMPDEST PUSH1 0x40 MLOAD DUP1 SWAP2 SUB SWAP1 LOG1 POP JUMP JUMPDEST PUSH1 0x0 PUSH1 0x1 PUSH1 0x1 PUSH1 0xA0 SHL SUB DUP3 AND ADDRESS EQ ISZERO PUSH3 0xC3C JUMPI POP PUSH8 0xDE0B6B3A7640000 PUSH3 0xCE7 JUMP JUMPDEST PUSH1 0x0 DUP3 PUSH1 0x1 PUSH1 0x1 PUSH1 0xA0 SHL SUB AND PUSH4 0x313CE567 PUSH1 0x40 MLOAD DUP2 PUSH4 0xFFFFFFFF AND PUSH1 0xE0 SHL DUP2 MSTORE PUSH1 0x4 ADD PUSH1 0x20 PUSH1 0x40 MLOAD DUP1 DUP4 SUB DUP2 DUP7 DUP1 EXTCODESIZE ISZERO DUP1 ISZERO PUSH3 0xC78 JUMPI PUSH1 0x0 DUP1 REVERT JUMPDEST POP GAS STATICCALL ISZERO DUP1 ISZERO PUSH3 0xC8D JUMPI RETURNDATASIZE PUSH1 0x0 DUP1 RETURNDATACOPY RETURNDATASIZE PUSH1 0x0 REVERT JUMPDEST POP POP POP POP PUSH1 0x40 MLOAD RETURNDATASIZE PUSH1 0x1F NOT PUSH1 0x1F DUP3 ADD AND DUP3 ADD DUP1 PUSH1 0x40 MSTORE POP DUP2 ADD SWAP1 PUSH3 0xCB3 SWAP2 SWAP1 PUSH3 0x15EA JUMP JUMPDEST PUSH1 0xFF AND SWAP1 POP PUSH1 0x0 PUSH3 0xCD2 PUSH1 0x12 DUP4 PUSH3 0x108F PUSH1 0x20 SHL PUSH3 0x1545 OR PUSH1 0x20 SHR JUMP JUMPDEST SWAP1 POP DUP1 PUSH1 0xA EXP PUSH8 0xDE0B6B3A7640000 MUL SWAP3 POP POP POP JUMPDEST SWAP2 SWAP1 POP JUMP JUMPDEST PUSH1 0x0 DUP3 DUP3 MUL PUSH3 0xD14 DUP5 ISZERO DUP1 PUSH3 0xD0C JUMPI POP DUP4 DUP6 DUP4 DUP2 PUSH3 0xD09 JUMPI INVALID JUMPDEST DIV EQ JUMPDEST PUSH1 0x3 PUSH3 0xB66 JUMP JUMPDEST SWAP4 SWAP3 POP POP POP JUMP JUMPDEST PUSH3 0xD29 DUP2 DUP1 TIMESTAMP DUP1 PUSH3 0x10A7 JUMP JUMPDEST PUSH32 0xA0D01593E47E69D07E0CCD87BECE09411E07DD1ED40CA8F2E7AF2976542A0233 DUP2 PUSH1 0x40 MLOAD PUSH3 0xC0D SWAP2 SWAP1 PUSH3 0x16BE JUMP JUMPDEST PUSH3 0xD75 DUP3 DUP5 EQ DUP1 ISZERO PUSH3 0xD6D JUMPI POP DUP2 DUP4 EQ JUMPDEST PUSH1 0x67 PUSH3 0xB66 JUMP JUMPDEST POP POP POP JUMP JUMPDEST PUSH1 0x0 DUP3 PUSH1 0x1 PUSH1 0x1 PUSH1 0xA0 SHL SUB AND PUSH4 0x679AEFCE PUSH1 0x40 MLOAD DUP2 PUSH4 0xFFFFFFFF AND PUSH1 0xE0 SHL DUP2 MSTORE PUSH1 0x4 ADD PUSH1 0x20 PUSH1 0x40 MLOAD DUP1 DUP4 SUB DUP2 DUP7 DUP1 EXTCODESIZE ISZERO DUP1 ISZERO PUSH3 0xDB6 JUMPI PUSH1 0x0 DUP1 REVERT JUMPDEST POP GAS STATICCALL ISZERO DUP1 ISZERO PUSH3 0xDCB JUMPI RETURNDATASIZE PUSH1 0x0 DUP1 RETURNDATACOPY RETURNDATASIZE PUSH1 0x0 REVERT JUMPDEST POP POP POP POP PUSH1 0x40 MLOAD RETURNDATASIZE PUSH1 0x1F NOT PUSH1 0x1F DUP3 ADD AND DUP3 ADD DUP1 PUSH1 0x40 MSTORE POP DUP2 ADD SWAP1 PUSH3 0xDF1 SWAP2 SWAP1 PUSH3 0x144D JUMP JUMPDEST SWAP1 POP PUSH1 0x0 PUSH3 0xE0C DUP3 DUP5 PUSH3 0x1137 PUSH1 0x20 SHL PUSH3 0x155B OR PUSH1 0x20 SHR JUMP JUMPDEST PUSH1 0x1 PUSH1 0x1 PUSH1 0xA0 SHL SUB DUP7 AND PUSH1 0x0 DUP2 DUP2 MSTORE PUSH1 0xE PUSH1 0x20 MSTORE PUSH1 0x40 SWAP1 DUP2 SWAP1 KECCAK256 DUP4 SWAP1 SSTORE MLOAD SWAP2 SWAP3 POP SWAP1 PUSH32 0xCFED57D90913B5EE1895919DCCCAFF83A9F7A842D912EF137272E5FC6123AA86 SWAP1 PUSH3 0xE5D SWAP1 DUP6 SWAP1 PUSH3 0x16BE JUMP JUMPDEST PUSH1 0x40 MLOAD DUP1 SWAP2 SUB SWAP1 LOG2 POP POP POP POP POP JUMP JUMPDEST PUSH1 0x0 DUP2 PUSH1 0x1 PUSH1 0x1 PUSH1 0xA0 SHL SUB AND PUSH4 0xD2946C2B PUSH1 0x40 MLOAD DUP2 PUSH4 0xFFFFFFFF AND PUSH1 0xE0 SHL DUP2 MSTORE PUSH1 0x4 ADD PUSH1 0x20 PUSH1 0x40 MLOAD DUP1 DUP4 SUB DUP2 DUP7 DUP1 EXTCODESIZE ISZERO DUP1 ISZERO PUSH3 0xEA8 JUMPI PUSH1 0x0 DUP1 REVERT JUMPDEST POP GAS STATICCALL ISZERO DUP1 ISZERO PUSH3 0xEBD JUMPI RETURNDATASIZE PUSH1 0x0 DUP1 RETURNDATACOPY RETURNDATASIZE PUSH1 0x0 REVERT JUMPDEST POP POP POP POP PUSH1 0x40 MLOAD RETURNDATASIZE PUSH1 0x1F NOT PUSH1 0x1F DUP3 ADD AND DUP3 ADD DUP1 PUSH1 0x40 MSTORE POP DUP2 ADD SWAP1 PUSH3 0xEE3 SWAP2 SWAP1 PUSH3 0x1466 JUMP JUMPDEST PUSH1 0x1 PUSH1 0x1 PUSH1 0xA0 SHL SUB AND PUSH4 0x55C67628 PUSH1 0x40 MLOAD DUP2 PUSH4 0xFFFFFFFF AND PUSH1 0xE0 SHL DUP2 MSTORE PUSH1 0x4 ADD PUSH1 0x20 PUSH1 0x40 MLOAD DUP1 DUP4 SUB DUP2 DUP7 DUP1 EXTCODESIZE ISZERO DUP1 ISZERO PUSH3 0xF1C JUMPI PUSH1 0x0 DUP1 REVERT JUMPDEST POP GAS STATICCALL ISZERO DUP1 ISZERO PUSH3 0xF31 JUMPI RETURNDATASIZE PUSH1 0x0 DUP1 RETURNDATACOPY RETURNDATASIZE PUSH1 0x0 REVERT JUMPDEST POP POP POP POP PUSH1 0x40 MLOAD RETURNDATASIZE PUSH1 0x1F NOT PUSH1 0x1F DUP3 ADD AND DUP3 ADD DUP1 PUSH1 0x40 MSTORE POP DUP2 ADD SWAP1 PUSH3 0xF57 SWAP2 SWAP1 PUSH3 0x144D JUMP JUMPDEST SWAP1 POP DUP1 PUSH1 0xD DUP2 SWAP1 SSTORE POP PUSH32 0x6E4E298B4A98488A054248CFB63661894B93FB9FD398CC9ECA58E39215954EB7 DUP2 PUSH1 0x40 MLOAD PUSH3 0xF91 SWAP2 SWAP1 PUSH3 0x16BE JUMP JUMPDEST PUSH1 0x40 MLOAD DUP1 SWAP2 SUB SWAP1 LOG1 POP POP JUMP JUMPDEST PUSH3 0x461BCD PUSH1 0xE5 SHL PUSH1 0x0 SWAP1 DUP2 MSTORE PUSH1 0x20 PUSH1 0x4 MSTORE PUSH1 0x7 PUSH1 0x24 MSTORE PUSH7 0x42414C23000030 PUSH1 0xA DUP1 DUP5 DIV DUP2 DUP2 MOD PUSH1 0x30 SWAP1 DUP2 ADD PUSH1 0x8 SHL SWAP6 DUP4 SWAP1 MOD SWAP6 SWAP1 SWAP6 ADD SWAP1 DUP3 SWAP1 DIV SWAP2 DUP3 MOD SWAP1 SWAP5 ADD PUSH1 0x10 SHL SWAP4 SWAP1 SWAP4 ADD ADD PUSH1 0xC8 SHL PUSH1 0x44 MSTORE PUSH1 0x64 SWAP1 REVERT JUMPDEST PUSH1 0x2 DUP2 MLOAD LT ISZERO PUSH3 0x1001 JUMPI PUSH3 0x1077 JUMP JUMPDEST PUSH1 0x0 DUP2 PUSH1 0x0 DUP2 MLOAD DUP2 LT PUSH3 0x1011 JUMPI INVALID JUMPDEST PUSH1 0x20 MUL PUSH1 0x20 ADD ADD MLOAD SWAP1 POP PUSH1 0x0 PUSH1 0x1 SWAP1 POP JUMPDEST DUP3 MLOAD DUP2 LT ISZERO PUSH3 0xD75 JUMPI PUSH1 0x0 DUP4 DUP3 DUP2 MLOAD DUP2 LT PUSH3 0x103B JUMPI INVALID JUMPDEST PUSH1 0x20 MUL PUSH1 0x20 ADD ADD MLOAD SWAP1 POP PUSH3 0x106C DUP2 PUSH1 0x1 PUSH1 0x1 PUSH1 0xA0 SHL SUB AND DUP5 PUSH1 0x1 PUSH1 0x1 PUSH1 0xA0 SHL SUB AND LT PUSH1 0x65 PUSH3 0xB66 PUSH1 0x20 SHL PUSH1 0x20 SHR JUMP JUMPDEST SWAP2 POP PUSH1 0x1 ADD PUSH3 0x1022 JUMP JUMPDEST POP JUMP JUMPDEST PUSH1 0x1 PUSH1 0x1 PUSH1 0x40 SHL SUB DUP2 SHL NOT SWAP3 SWAP1 SWAP3 AND SWAP2 SHL OR SWAP1 JUMP JUMPDEST PUSH1 0x0 PUSH3 0x10A1 DUP4 DUP4 GT ISZERO PUSH1 0x1 PUSH3 0xB66 JUMP JUMPDEST POP SWAP1 SUB SWAP1 JUMP JUMPDEST PUSH3 0x10C8 DUP2 PUSH1 0x1 PUSH1 0x1 PUSH1 0x40 SHL SUB AND PUSH1 0xC0 PUSH3 0x11BB PUSH1 0x20 SHL PUSH3 0x15B6 OR PUSH1 0x20 SHR JUMP JUMPDEST PUSH3 0x10E9 DUP4 PUSH1 0x1 PUSH1 0x1 PUSH1 0x40 SHL SUB AND PUSH1 0x80 PUSH3 0x11BB PUSH1 0x20 SHL PUSH3 0x15B6 OR PUSH1 0x20 SHR JUMP JUMPDEST PUSH3 0x110A DUP6 PUSH1 0x1 PUSH1 0x1 PUSH1 0x40 SHL SUB AND PUSH1 0x40 PUSH3 0x11BB PUSH1 0x20 SHL PUSH3 0x15B6 OR PUSH1 0x20 SHR JUMP JUMPDEST PUSH3 0x112B DUP8 PUSH1 0x1 PUSH1 0x1 PUSH1 0x40 SHL SUB AND PUSH1 0x0 PUSH3 0x11BB PUSH1 0x20 SHL PUSH3 0x15B6 OR PUSH1 0x20 SHR JUMP JUMPDEST OR OR OR PUSH1 0x9 SSTORE POP POP POP POP JUMP JUMPDEST PUSH1 0x0 PUSH3 0x114D PUSH1 0x1 PUSH1 0x80 SHL DUP5 LT PUSH2 0x149 PUSH3 0xB66 JUMP JUMPDEST PUSH3 0x1170 DUP3 TIMESTAMP ADD PUSH1 0x1 PUSH1 0x1 PUSH1 0x40 SHL SUB AND PUSH1 0xC0 PUSH3 0x11BB PUSH1 0x20 SHL PUSH3 0x15B6 OR PUSH1 0x20 SHR JUMP JUMPDEST PUSH3 0x1191 DUP4 PUSH1 0x1 PUSH1 0x1 PUSH1 0x40 SHL SUB AND PUSH1 0x80 PUSH3 0x11BB PUSH1 0x20 SHL PUSH3 0x15B6 OR PUSH1 0x20 SHR JUMP JUMPDEST PUSH3 0x11B2 DUP6 PUSH1 0x1 PUSH1 0x1 PUSH1 0x80 SHL SUB AND PUSH1 0x0 PUSH3 0x11BB PUSH1 0x20 SHL PUSH3 0x15B6 OR PUSH1 0x20 SHR JUMP JUMPDEST OR OR SWAP4 SWAP3 POP POP POP JUMP JUMPDEST SHL SWAP1 JUMP JUMPDEST DUP3 DUP1 SLOAD PUSH1 0x1 DUP2 PUSH1 0x1 AND ISZERO PUSH2 0x100 MUL SUB AND PUSH1 0x2 SWAP1 DIV SWAP1 PUSH1 0x0 MSTORE PUSH1 0x20 PUSH1 0x0 KECCAK256 SWAP1 PUSH1 0x1F ADD PUSH1 0x20 SWAP1 DIV DUP2 ADD SWAP3 DUP3 PUSH1 0x1F LT PUSH3 0x1202 JUMPI DUP1 MLOAD PUSH1 0xFF NOT AND DUP4 DUP1 ADD OR DUP6 SSTORE PUSH3 0x1232 JUMP JUMPDEST DUP3 DUP1 ADD PUSH1 0x1 ADD DUP6 SSTORE DUP3 ISZERO PUSH3 0x1232 JUMPI SWAP2 DUP3 ADD JUMPDEST DUP3 DUP2 GT ISZERO PUSH3 0x1232 JUMPI DUP3 MLOAD DUP3 SSTORE SWAP2 PUSH1 0x20 ADD SWAP2 SWAP1 PUSH1 0x1 ADD SWAP1 PUSH3 0x1215 JUMP JUMPDEST POP PUSH3 0x1240 SWAP3 SWAP2 POP PUSH3 0x1244 JUMP JUMPDEST POP SWAP1 JUMP JUMPDEST JUMPDEST DUP1 DUP3 GT ISZERO PUSH3 0x1240 JUMPI PUSH1 0x0 DUP2 SSTORE PUSH1 0x1 ADD PUSH3 0x1245 JUMP JUMPDEST DUP1 MLOAD PUSH3 0xB60 DUP2 PUSH3 0x171A JUMP JUMPDEST PUSH1 0x0 DUP3 PUSH1 0x1F DUP4 ADD SLT PUSH3 0x1279 JUMPI DUP1 DUP2 REVERT JUMPDEST DUP2 MLOAD PUSH3 0x1290 PUSH3 0x128A DUP3 PUSH3 0x16EE JUMP JUMPDEST PUSH3 0x16C7 JUMP JUMPDEST DUP2 DUP2 MSTORE SWAP2 POP PUSH1 0x20 DUP1 DUP4 ADD SWAP1 DUP5 DUP2 ADD DUP2 DUP5 MUL DUP7 ADD DUP3 ADD DUP8 LT ISZERO PUSH3 0x12B2 JUMPI PUSH1 0x0 DUP1 REVERT JUMPDEST PUSH1 0x0 JUMPDEST DUP5 DUP2 LT ISZERO PUSH3 0x12DE JUMPI DUP2 MLOAD PUSH3 0x12CB DUP2 PUSH3 0x171A JUMP JUMPDEST DUP5 MSTORE SWAP3 DUP3 ADD SWAP3 SWAP1 DUP3 ADD SWAP1 PUSH1 0x1 ADD PUSH3 0x12B5 JUMP JUMPDEST POP POP POP POP POP SWAP3 SWAP2 POP POP JUMP JUMPDEST PUSH1 0x0 DUP3 PUSH1 0x1F DUP4 ADD SLT PUSH3 0x12FA JUMPI DUP1 DUP2 REVERT JUMPDEST DUP2 MLOAD PUSH3 0x130B PUSH3 0x128A DUP3 PUSH3 0x16EE JUMP JUMPDEST DUP2 DUP2 MSTORE SWAP2 POP PUSH1 0x20 DUP1 DUP4 ADD SWAP1 DUP5 DUP2 ADD DUP2 DUP5 MUL DUP7 ADD DUP3 ADD DUP8 LT ISZERO PUSH3 0x132D JUMPI PUSH1 0x0 DUP1 REVERT JUMPDEST PUSH1 0x0 JUMPDEST DUP5 DUP2 LT ISZERO PUSH3 0x12DE JUMPI DUP2 MLOAD PUSH3 0x1346 DUP2 PUSH3 0x171A JUMP JUMPDEST DUP5 MSTORE SWAP3 DUP3 ADD SWAP3 SWAP1 DUP3 ADD SWAP1 PUSH1 0x1 ADD PUSH3 0x1330 JUMP JUMPDEST PUSH1 0x0 DUP3 PUSH1 0x1F DUP4 ADD SLT PUSH3 0x136A JUMPI DUP1 DUP2 REVERT JUMPDEST DUP2 MLOAD PUSH3 0x137B PUSH3 0x128A DUP3 PUSH3 0x16EE JUMP JUMPDEST DUP2 DUP2 MSTORE SWAP2 POP PUSH1 0x20 DUP1 DUP4 ADD SWAP1 DUP5 DUP2 ADD DUP2 DUP5 MUL DUP7 ADD DUP3 ADD DUP8 LT ISZERO PUSH3 0x139D JUMPI PUSH1 0x0 DUP1 REVERT JUMPDEST PUSH1 0x0 JUMPDEST DUP5 DUP2 LT ISZERO PUSH3 0x12DE JUMPI DUP2 MLOAD DUP5 MSTORE SWAP3 DUP3 ADD SWAP3 SWAP1 DUP3 ADD SWAP1 PUSH1 0x1 ADD PUSH3 0x13A0 JUMP JUMPDEST PUSH1 0x0 DUP3 PUSH1 0x1F DUP4 ADD SLT PUSH3 0x13CF JUMPI DUP1 DUP2 REVERT JUMPDEST DUP2 MLOAD PUSH1 0x1 PUSH1 0x1 PUSH1 0x40 SHL SUB DUP2 GT ISZERO PUSH3 0x13E5 JUMPI DUP2 DUP3 REVERT JUMPDEST PUSH1 0x20 PUSH3 0x13FB PUSH1 0x1F DUP4 ADD PUSH1 0x1F NOT AND DUP3 ADD PUSH3 0x16C7 JUMP JUMPDEST SWAP3 POP DUP2 DUP4 MSTORE DUP5 DUP2 DUP4 DUP7 ADD ADD GT ISZERO PUSH3 0x1412 JUMPI PUSH1 0x0 DUP1 REVERT JUMPDEST PUSH1 0x0 JUMPDEST DUP3 DUP2 LT ISZERO PUSH3 0x1432 JUMPI DUP5 DUP2 ADD DUP3 ADD MLOAD DUP5 DUP3 ADD DUP4 ADD MSTORE DUP2 ADD PUSH3 0x1415 JUMP JUMPDEST DUP3 DUP2 GT ISZERO PUSH3 0x1444 JUMPI PUSH1 0x0 DUP3 DUP5 DUP7 ADD ADD MSTORE JUMPDEST POP POP POP SWAP3 SWAP2 POP POP JUMP JUMPDEST PUSH1 0x0 PUSH1 0x20 DUP3 DUP5 SUB SLT ISZERO PUSH3 0x145F JUMPI DUP1 DUP2 REVERT JUMPDEST POP MLOAD SWAP2 SWAP1 POP JUMP JUMPDEST PUSH1 0x0 PUSH1 0x20 DUP3 DUP5 SUB SLT ISZERO PUSH3 0x1478 JUMPI DUP1 DUP2 REVERT JUMPDEST DUP2 MLOAD PUSH3 0xD14 DUP2 PUSH3 0x171A JUMP JUMPDEST PUSH1 0x0 PUSH1 0x20 DUP3 DUP5 SUB SLT ISZERO PUSH3 0x1497 JUMPI DUP1 DUP2 REVERT JUMPDEST DUP2 MLOAD PUSH1 0x1 PUSH1 0x1 PUSH1 0x40 SHL SUB DUP1 DUP3 GT ISZERO PUSH3 0x14AE JUMPI DUP3 DUP4 REVERT JUMPDEST DUP2 DUP5 ADD SWAP2 POP PUSH2 0x160 DUP1 DUP4 DUP8 SUB SLT ISZERO PUSH3 0x14C5 JUMPI DUP4 DUP5 REVERT JUMPDEST PUSH3 0x14D0 DUP2 PUSH3 0x16C7 JUMP JUMPDEST SWAP1 POP PUSH3 0x14DE DUP7 DUP5 PUSH3 0x125B JUMP JUMPDEST DUP2 MSTORE PUSH1 0x20 DUP4 ADD MLOAD DUP3 DUP2 GT ISZERO PUSH3 0x14F2 JUMPI DUP5 DUP6 REVERT JUMPDEST PUSH3 0x1500 DUP8 DUP3 DUP7 ADD PUSH3 0x13BE JUMP JUMPDEST PUSH1 0x20 DUP4 ADD MSTORE POP PUSH1 0x40 DUP4 ADD MLOAD DUP3 DUP2 GT ISZERO PUSH3 0x1518 JUMPI DUP5 DUP6 REVERT JUMPDEST PUSH3 0x1526 DUP8 DUP3 DUP7 ADD PUSH3 0x13BE JUMP JUMPDEST PUSH1 0x40 DUP4 ADD MSTORE POP PUSH1 0x60 DUP4 ADD MLOAD DUP3 DUP2 GT ISZERO PUSH3 0x153E JUMPI DUP5 DUP6 REVERT JUMPDEST PUSH3 0x154C DUP8 DUP3 DUP7 ADD PUSH3 0x1268 JUMP JUMPDEST PUSH1 0x60 DUP4 ADD MSTORE POP PUSH1 0x80 DUP4 ADD MLOAD DUP3 DUP2 GT ISZERO PUSH3 0x1564 JUMPI DUP5 DUP6 REVERT JUMPDEST PUSH3 0x1572 DUP8 DUP3 DUP7 ADD PUSH3 0x12E9 JUMP JUMPDEST PUSH1 0x80 DUP4 ADD MSTORE POP PUSH1 0xA0 DUP4 ADD MLOAD DUP3 DUP2 GT ISZERO PUSH3 0x158A JUMPI DUP5 DUP6 REVERT JUMPDEST PUSH3 0x1598 DUP8 DUP3 DUP7 ADD PUSH3 0x1359 JUMP JUMPDEST PUSH1 0xA0 DUP4 ADD MSTORE POP PUSH1 0xC0 DUP4 DUP2 ADD MLOAD SWAP1 DUP3 ADD MSTORE PUSH1 0xE0 DUP1 DUP5 ADD MLOAD SWAP1 DUP3 ADD MSTORE PUSH2 0x100 DUP1 DUP5 ADD MLOAD SWAP1 DUP3 ADD MSTORE PUSH2 0x120 DUP1 DUP5 ADD MLOAD SWAP1 DUP3 ADD MSTORE PUSH2 0x140 SWAP2 POP PUSH3 0x15DB DUP7 DUP4 DUP6 ADD PUSH3 0x125B JUMP JUMPDEST SWAP2 DUP2 ADD SWAP2 SWAP1 SWAP2 MSTORE SWAP5 SWAP4 POP POP POP POP JUMP JUMPDEST PUSH1 0x0 PUSH1 0x20 DUP3 DUP5 SUB SLT ISZERO PUSH3 0x15FC JUMPI DUP1 DUP2 REVERT JUMPDEST DUP2 MLOAD PUSH1 0xFF DUP2 AND DUP2 EQ PUSH3 0xD14 JUMPI DUP2 DUP3 REVERT JUMPDEST PUSH1 0x0 PUSH1 0x60 DUP3 ADD DUP6 DUP4 MSTORE PUSH1 0x20 PUSH1 0x60 DUP2 DUP6 ADD MSTORE DUP2 DUP7 MLOAD DUP1 DUP5 MSTORE PUSH1 0x80 DUP7 ADD SWAP2 POP DUP3 DUP9 ADD SWAP4 POP DUP5 JUMPDEST DUP2 DUP2 LT ISZERO PUSH3 0x1659 JUMPI PUSH3 0x1646 DUP6 MLOAD PUSH3 0x170E JUMP JUMPDEST DUP4 MSTORE SWAP4 DUP4 ADD SWAP4 SWAP2 DUP4 ADD SWAP2 PUSH1 0x1 ADD PUSH3 0x1631 JUMP JUMPDEST POP POP DUP5 DUP2 SUB PUSH1 0x40 DUP7 ADD MSTORE DUP6 MLOAD DUP1 DUP3 MSTORE SWAP1 DUP3 ADD SWAP3 POP DUP2 DUP7 ADD SWAP1 DUP5 JUMPDEST DUP2 DUP2 LT ISZERO PUSH3 0x169B JUMPI PUSH3 0x1688 DUP4 MLOAD PUSH3 0x170E JUMP JUMPDEST DUP6 MSTORE SWAP4 DUP4 ADD SWAP4 SWAP2 DUP4 ADD SWAP2 PUSH1 0x1 ADD PUSH3 0x1673 JUMP JUMPDEST POP SWAP3 SWAP9 SWAP8 POP POP POP POP POP POP POP POP JUMP JUMPDEST PUSH1 0x20 DUP2 ADD PUSH1 0x3 DUP4 LT PUSH3 0x16B8 JUMPI INVALID JUMPDEST SWAP2 SWAP1 MSTORE SWAP1 JUMP JUMPDEST SWAP1 DUP2 MSTORE PUSH1 0x20 ADD SWAP1 JUMP JUMPDEST PUSH1 0x40 MLOAD DUP2 DUP2 ADD PUSH1 0x1 PUSH1 0x1 PUSH1 0x40 SHL SUB DUP2 GT DUP3 DUP3 LT OR ISZERO PUSH3 0x16E6 JUMPI PUSH1 0x0 DUP1 REVERT JUMPDEST PUSH1 0x40 MSTORE SWAP2 SWAP1 POP JUMP JUMPDEST PUSH1 0x0 PUSH1 0x1 PUSH1 0x1 PUSH1 0x40 SHL SUB DUP3 GT ISZERO PUSH3 0x1704 JUMPI DUP1 DUP2 REVERT JUMPDEST POP PUSH1 0x20 SWAP1 DUP2 MUL ADD SWAP1 JUMP JUMPDEST PUSH1 0x1 PUSH1 0x1 PUSH1 0xA0 SHL SUB AND SWAP1 JUMP JUMPDEST PUSH1 0x1 PUSH1 0x1 PUSH1 0xA0 SHL SUB DUP2 AND DUP2 EQ PUSH3 0x1077 JUMPI PUSH1 0x0 DUP1 REVERT JUMPDEST PUSH1 0x80 MLOAD PUSH1 0xA0 MLOAD PUSH1 0x60 SHR PUSH1 0xC0 MLOAD PUSH1 0xE0 MLOAD PUSH2 0x100 MLOAD PUSH2 0x120 MLOAD PUSH2 0x140 MLOAD PUSH1 0x60 SHR PUSH2 0x160 MLOAD PUSH2 0x180 MLOAD PUSH2 0x1A0 MLOAD PUSH2 0x1C0 MLOAD PUSH2 0x1E0 MLOAD PUSH1 0x60 SHR PUSH2 0x200 MLOAD PUSH1 0x60 SHR PUSH2 0x220 MLOAD PUSH1 0x60 SHR PUSH2 0x240 MLOAD PUSH1 0x60 SHR PUSH2 0x260 MLOAD PUSH1 0x60 SHR PUSH2 0x280 MLOAD PUSH2 0x2A0 MLOAD PUSH2 0x2C0 MLOAD PUSH2 0x2E0 MLOAD PUSH2 0x300 MLOAD PUSH2 0x320 MLOAD PUSH2 0x340 MLOAD PUSH1 0x60 SHR PUSH2 0x360 MLOAD PUSH1 0x60 SHR PUSH2 0x380 MLOAD PUSH1 0x60 SHR PUSH2 0x3A0 MLOAD PUSH1 0x60 SHR PUSH2 0x3C0 MLOAD PUSH1 0x60 SHR PUSH2 0x5370 PUSH3 0x1901 PUSH1 0x0 CODECOPY DUP1 PUSH2 0x95D MSTORE DUP1 PUSH2 0x1CEF MSTORE POP DUP1 PUSH2 0x906 MSTORE DUP1 PUSH2 0x1C8E MSTORE POP DUP1 PUSH2 0x8AF MSTORE DUP1 PUSH2 0x1C2D MSTORE POP DUP1 PUSH2 0x858 MSTORE DUP1 PUSH2 0x1BCC MSTORE POP DUP1 PUSH2 0x7F6 MSTORE DUP1 PUSH2 0x1B6B MSTORE POP DUP1 PUSH2 0xEE2 MSTORE DUP1 PUSH2 0x13FB MSTORE DUP1 PUSH2 0x2405 MSTORE DUP1 PUSH2 0x2498 MSTORE DUP1 PUSH2 0x2776 MSTORE DUP1 PUSH2 0x30A9 MSTORE DUP1 PUSH2 0x3548 MSTORE DUP1 PUSH2 0x3846 MSTORE DUP1 PUSH2 0x3D5D MSTORE DUP1 PUSH2 0x3D85 MSTORE POP DUP1 PUSH2 0x370D MSTORE POP DUP1 PUSH2 0x36E9 MSTORE POP DUP1 PUSH2 0x36C5 MSTORE POP DUP1 PUSH2 0x36A1 MSTORE POP DUP1 PUSH2 0x367D MSTORE POP DUP1 PUSH2 0x17B0 MSTORE DUP1 PUSH2 0x1CB4 MSTORE DUP1 PUSH2 0x31FF MSTORE DUP1 PUSH2 0x3819 MSTORE POP DUP1 PUSH2 0x1754 MSTORE DUP1 PUSH2 0x1C53 MSTORE DUP1 PUSH2 0x31BD MSTORE DUP1 PUSH2 0x37E7 MSTORE POP DUP1 PUSH2 0x16F8 MSTORE DUP1 PUSH2 0x1BF2 MSTORE DUP1 PUSH2 0x317B MSTORE DUP1 PUSH2 0x37B5 MSTORE POP DUP1 PUSH2 0x169C MSTORE DUP1 PUSH2 0x1B91 MSTORE DUP1 PUSH2 0x3783 MSTORE DUP1 PUSH2 0x3E21 MSTORE POP DUP1 PUSH2 0x162A MSTORE DUP1 PUSH2 0x1B30 MSTORE DUP1 PUSH2 0x3746 MSTORE DUP1 PUSH2 0x3DEF MSTORE POP DUP1 PUSH2 0x15CA MSTORE POP DUP1 PUSH2 0xB8D MSTORE POP DUP1 PUSH2 0x1A2A MSTORE POP DUP1 PUSH2 0x1A06 MSTORE POP DUP1 PUSH2 0xFA8 MSTORE POP DUP1 PUSH2 0x10CC MSTORE POP DUP1 PUSH2 0x1F04 MSTORE POP DUP1 PUSH2 0x1F46 MSTORE POP DUP1 PUSH2 0x1F25 MSTORE POP DUP1 PUSH2 0xF7E MSTORE POP DUP1 PUSH2 0xF08 MSTORE POP PUSH2 0x5370 PUSH1 0x0 RETURN INVALID PUSH1 0x80 PUSH1 0x40 MSTORE CALLVALUE DUP1 ISZERO PUSH2 0x10 JUMPI PUSH1 0x0 DUP1 REVERT JUMPDEST POP PUSH1 0x4 CALLDATASIZE LT PUSH2 0x2A0 JUMPI PUSH1 0x0 CALLDATALOAD PUSH1 0xE0 SHR DUP1 PUSH4 0x70A08231 GT PUSH2 0x167 JUMPI DUP1 PUSH4 0x9B02CDDE GT PUSH2 0xCE JUMPI DUP1 PUSH4 0xD5C096C4 GT PUSH2 0x87 JUMPI DUP1 PUSH4 0xD5C096C4 EQ PUSH2 0x5A4 JUMPI DUP1 PUSH4 0xD60575CA EQ PUSH2 0x5B7 JUMPI DUP1 PUSH4 0xDD62ED3E EQ PUSH2 0x5BF JUMPI DUP1 PUSH4 0xDE82CD34 EQ PUSH2 0x5D2 JUMPI DUP1 PUSH4 0xEB0F24D6 EQ PUSH2 0x5DA JUMPI DUP1 PUSH4 0xF4B7964D EQ PUSH2 0x5E2 JUMPI PUSH2 0x2A0 JUMP JUMPDEST DUP1 PUSH4 0x9B02CDDE EQ PUSH2 0x53A JUMPI DUP1 PUSH4 0x9D2C110C EQ PUSH2 0x550 JUMPI DUP1 PUSH4 0xA457C2D7 EQ PUSH2 0x563 JUMPI DUP1 PUSH4 0xA9059CBB EQ PUSH2 0x576 JUMPI DUP1 PUSH4 0xAAABADC5 EQ PUSH2 0x589 JUMPI DUP1 PUSH4 0xD505ACCF EQ PUSH2 0x591 JUMPI PUSH2 0x2A0 JUMP JUMPDEST DUP1 PUSH4 0x851C1BB3 GT PUSH2 0x120 JUMPI DUP1 PUSH4 0x851C1BB3 EQ PUSH2 0x4E7 JUMPI DUP1 PUSH4 0x87EC6817 EQ PUSH2 0x4FA JUMPI DUP1 PUSH4 0x893D20E8 EQ PUSH2 0x50D JUMPI DUP1 PUSH4 0x8D2334E0 EQ PUSH2 0x522 JUMPI DUP1 PUSH4 0x8D928AF8 EQ PUSH2 0x52A JUMPI DUP1 PUSH4 0x95D89B41 EQ PUSH2 0x532 JUMPI PUSH2 0x2A0 JUMP JUMPDEST DUP1 PUSH4 0x70A08231 EQ PUSH2 0x46E JUMPI DUP1 PUSH4 0x74F3B009 EQ PUSH2 0x481 JUMPI DUP1 PUSH4 0x7520E049 EQ PUSH2 0x4A2 JUMPI DUP1 PUSH4 0x7ECEBE00 EQ PUSH2 0x4AA JUMPI DUP1 PUSH4 0x7F1260D1 EQ PUSH2 0x4BD JUMPI DUP1 PUSH4 0x82687A56 EQ PUSH2 0x4DF JUMPI PUSH2 0x2A0 JUMP JUMPDEST DUP1 PUSH4 0x313CE567 GT PUSH2 0x20B JUMPI DUP1 PUSH4 0x54DEA00A GT PUSH2 0x1C4 JUMPI DUP1 PUSH4 0x54DEA00A EQ PUSH2 0x400 JUMPI DUP1 PUSH4 0x55C67628 EQ PUSH2 0x413 JUMPI DUP1 PUSH4 0x6028BFD4 EQ PUSH2 0x41B JUMPI DUP1 PUSH4 0x6782F364 EQ PUSH2 0x43C JUMPI DUP1 PUSH4 0x679AEFCE EQ PUSH2 0x44F JUMPI DUP1 PUSH4 0x6DACCFFA EQ PUSH2 0x457 JUMPI PUSH2 0x2A0 JUMP JUMPDEST DUP1 PUSH4 0x313CE567 EQ PUSH2 0x3A2 JUMPI DUP1 PUSH4 0x3644E515 EQ PUSH2 0x3B7 JUMPI DUP1 PUSH4 0x38E9922E EQ PUSH2 0x3BF JUMPI DUP1 PUSH4 0x38FFF2D0 EQ PUSH2 0x3D2 JUMPI DUP1 PUSH4 0x39509351 EQ PUSH2 0x3DA JUMPI DUP1 PUSH4 0x50DD6ED9 EQ PUSH2 0x3ED JUMPI PUSH2 0x2A0 JUMP JUMPDEST DUP1 PUSH4 0x1C0DE051 GT PUSH2 0x25D JUMPI DUP1 PUSH4 0x1C0DE051 EQ PUSH2 0x328 JUMPI DUP1 PUSH4 0x1DD746EA EQ PUSH2 0x33F JUMPI DUP1 PUSH4 0x238A2D59 EQ PUSH2 0x354 JUMPI DUP1 PUSH4 0x23B872DD EQ PUSH2 0x369 JUMPI DUP1 PUSH4 0x2DF2C7C0 EQ PUSH2 0x37C JUMPI DUP1 PUSH4 0x2F1A0BC9 EQ PUSH2 0x38F JUMPI PUSH2 0x2A0 JUMP JUMPDEST DUP1 PUSH4 0x1EC954A EQ PUSH2 0x2A5 JUMPI DUP1 PUSH4 0x4842D4C EQ PUSH2 0x2CE JUMPI DUP1 PUSH4 0x6FDDE03 EQ PUSH2 0x2D6 JUMPI DUP1 PUSH4 0x95EA7B3 EQ PUSH2 0x2EB JUMPI DUP1 PUSH4 0x16C38B3C EQ PUSH2 0x30B JUMPI DUP1 PUSH4 0x18160DDD EQ PUSH2 0x320 JUMPI JUMPDEST PUSH1 0x0 DUP1 REVERT JUMPDEST PUSH2 0x2B8 PUSH2 0x2B3 CALLDATASIZE PUSH1 0x4 PUSH2 0x4E90 JUMP JUMPDEST PUSH2 0x5F5 JUMP JUMPDEST PUSH1 0x40 MLOAD PUSH2 0x2C5 SWAP2 SWAP1 PUSH2 0x5160 JUMP JUMPDEST PUSH1 0x40 MLOAD DUP1 SWAP2 SUB SWAP1 RETURN JUMPDEST PUSH2 0x2B8 PUSH2 0x693 JUMP JUMPDEST PUSH2 0x2DE PUSH2 0x6A3 JUMP JUMPDEST PUSH1 0x40 MLOAD PUSH2 0x2C5 SWAP2 SWAP1 PUSH2 0x5236 JUMP JUMPDEST PUSH2 0x2FE PUSH2 0x2F9 CALLDATASIZE PUSH1 0x4 PUSH2 0x4B88 JUMP JUMPDEST PUSH2 0x739 JUMP JUMPDEST PUSH1 0x40 MLOAD PUSH2 0x2C5 SWAP2 SWAP1 PUSH2 0x513D JUMP JUMPDEST PUSH2 0x31E PUSH2 0x319 CALLDATASIZE PUSH1 0x4 PUSH2 0x4C7E JUMP JUMPDEST PUSH2 0x750 JUMP JUMPDEST STOP JUMPDEST PUSH2 0x2B8 PUSH2 0x764 JUMP JUMPDEST PUSH2 0x330 PUSH2 0x76A JUMP JUMPDEST PUSH1 0x40 MLOAD PUSH2 0x2C5 SWAP4 SWAP3 SWAP2 SWAP1 PUSH2 0x5148 JUMP JUMPDEST PUSH2 0x347 PUSH2 0x793 JUMP JUMPDEST PUSH1 0x40 MLOAD PUSH2 0x2C5 SWAP2 SWAP1 PUSH2 0x5105 JUMP JUMPDEST PUSH2 0x35C PUSH2 0x79D JUMP JUMPDEST PUSH1 0x40 MLOAD PUSH2 0x2C5 SWAP2 SWAP1 PUSH2 0x50B8 JUMP JUMPDEST PUSH2 0x2FE PUSH2 0x377 CALLDATASIZE PUSH1 0x4 PUSH2 0x4AD3 JUMP JUMPDEST PUSH2 0x9AE JUMP JUMPDEST PUSH2 0x31E PUSH2 0x38A CALLDATASIZE PUSH1 0x4 PUSH2 0x4A7F JUMP JUMPDEST PUSH2 0xA24 JUMP JUMPDEST PUSH2 0x31E PUSH2 0x39D CALLDATASIZE PUSH1 0x4 PUSH2 0x4F7B JUMP JUMPDEST PUSH2 0xA7C JUMP JUMPDEST PUSH2 0x3AA PUSH2 0xB5F JUMP JUMPDEST PUSH1 0x40 MLOAD PUSH2 0x2C5 SWAP2 SWAP1 PUSH2 0x52B7 JUMP JUMPDEST PUSH2 0x2B8 PUSH2 0xB68 JUMP JUMPDEST PUSH2 0x31E PUSH2 0x3CD CALLDATASIZE PUSH1 0x4 PUSH2 0x4F4B JUMP JUMPDEST PUSH2 0xB72 JUMP JUMPDEST PUSH2 0x2B8 PUSH2 0xB8B JUMP JUMPDEST PUSH2 0x2FE PUSH2 0x3E8 CALLDATASIZE PUSH1 0x4 PUSH2 0x4B88 JUMP JUMPDEST PUSH2 0xBAF JUMP JUMPDEST PUSH2 0x31E PUSH2 0x3FB CALLDATASIZE PUSH1 0x4 PUSH2 0x4D9C JUMP JUMPDEST PUSH2 0xBEA JUMP JUMPDEST PUSH2 0x2B8 PUSH2 0x40E CALLDATASIZE PUSH1 0x4 PUSH2 0x4A7F JUMP JUMPDEST PUSH2 0xC08 JUMP JUMPDEST PUSH2 0x2B8 PUSH2 0xC6A JUMP JUMPDEST PUSH2 0x42E PUSH2 0x429 CALLDATASIZE PUSH1 0x4 PUSH2 0x4CB6 JUMP JUMPDEST PUSH2 0xC7B JUMP JUMPDEST PUSH1 0x40 MLOAD PUSH2 0x2C5 SWAP3 SWAP2 SWAP1 PUSH2 0x5249 JUMP JUMPDEST PUSH2 0x2B8 PUSH2 0x44A CALLDATASIZE PUSH1 0x4 PUSH2 0x4A7F JUMP JUMPDEST PUSH2 0xCB2 JUMP JUMPDEST PUSH2 0x2B8 PUSH2 0xCBD JUMP JUMPDEST PUSH2 0x45F PUSH2 0xD96 JUMP JUMPDEST PUSH1 0x40 MLOAD PUSH2 0x2C5 SWAP4 SWAP3 SWAP2 SWAP1 PUSH2 0x5262 JUMP JUMPDEST PUSH2 0x2B8 PUSH2 0x47C CALLDATASIZE PUSH1 0x4 PUSH2 0x4A7F JUMP JUMPDEST PUSH2 0xDB1 JUMP JUMPDEST PUSH2 0x494 PUSH2 0x48F CALLDATASIZE PUSH1 0x4 PUSH2 0x4CB6 JUMP JUMPDEST PUSH2 0xDCC JUMP JUMPDEST PUSH1 0x40 MLOAD PUSH2 0x2C5 SWAP3 SWAP2 SWAP1 PUSH2 0x5118 JUMP JUMPDEST PUSH2 0x2B8 PUSH2 0xE4A JUMP JUMPDEST PUSH2 0x2B8 PUSH2 0x4B8 CALLDATASIZE PUSH1 0x4 PUSH2 0x4A7F JUMP JUMPDEST PUSH2 0xE50 JUMP JUMPDEST PUSH2 0x4D0 PUSH2 0x4CB CALLDATASIZE PUSH1 0x4 PUSH2 0x4A7F JUMP JUMPDEST PUSH2 0xE6B JUMP JUMPDEST PUSH1 0x40 MLOAD PUSH2 0x2C5 SWAP4 SWAP3 SWAP2 SWAP1 PUSH2 0x5286 JUMP JUMPDEST PUSH2 0x2B8 PUSH2 0xEE0 JUMP JUMPDEST PUSH2 0x2B8 PUSH2 0x4F5 CALLDATASIZE PUSH1 0x4 PUSH2 0x4D58 JUMP JUMPDEST PUSH2 0xF04 JUMP JUMPDEST PUSH2 0x42E PUSH2 0x508 CALLDATASIZE PUSH1 0x4 PUSH2 0x4CB6 JUMP JUMPDEST PUSH2 0xF56 JUMP JUMPDEST PUSH2 0x515 PUSH2 0xF7C JUMP JUMPDEST PUSH1 0x40 MLOAD PUSH2 0x2C5 SWAP2 SWAP1 PUSH2 0x50A4 JUMP JUMPDEST PUSH2 0x2B8 PUSH2 0xFA0 JUMP JUMPDEST PUSH2 0x515 PUSH2 0xFA6 JUMP JUMPDEST PUSH2 0x2DE PUSH2 0xFCA JUMP JUMPDEST PUSH2 0x542 PUSH2 0x102B JUMP JUMPDEST PUSH1 0x40 MLOAD PUSH2 0x2C5 SWAP3 SWAP2 SWAP1 PUSH2 0x5278 JUMP JUMPDEST PUSH2 0x2B8 PUSH2 0x55E CALLDATASIZE PUSH1 0x4 PUSH2 0x4F00 JUMP JUMPDEST PUSH2 0x1035 JUMP JUMPDEST PUSH2 0x2FE PUSH2 0x571 CALLDATASIZE PUSH1 0x4 PUSH2 0x4B88 JUMP JUMPDEST PUSH2 0x1042 JUMP JUMPDEST PUSH2 0x2FE PUSH2 0x584 CALLDATASIZE PUSH1 0x4 PUSH2 0x4B88 JUMP JUMPDEST PUSH2 0x1080 JUMP JUMPDEST PUSH2 0x515 PUSH2 0x108D JUMP JUMPDEST PUSH2 0x31E PUSH2 0x59F CALLDATASIZE PUSH1 0x4 PUSH2 0x4B13 JUMP JUMPDEST PUSH2 0x1097 JUMP JUMPDEST PUSH2 0x494 PUSH2 0x5B2 CALLDATASIZE PUSH1 0x4 PUSH2 0x4CB6 JUMP JUMPDEST PUSH2 0x11E0 JUMP JUMPDEST PUSH2 0x31E PUSH2 0x1310 JUMP JUMPDEST PUSH2 0x2B8 PUSH2 0x5CD CALLDATASIZE PUSH1 0x4 PUSH2 0x4A9B JUMP JUMPDEST PUSH2 0x1322 JUMP JUMPDEST PUSH2 0x2B8 PUSH2 0x135F JUMP JUMPDEST PUSH2 0x31E PUSH2 0x1437 JUMP JUMPDEST PUSH2 0x31E PUSH2 0x5F0 CALLDATASIZE PUSH1 0x4 PUSH2 0x4B88 JUMP JUMPDEST PUSH2 0x1463 JUMP JUMPDEST PUSH1 0x0 DUP5 PUSH1 0x80 ADD MLOAD PUSH2 0x622 PUSH2 0x607 PUSH2 0xFA6 JUMP JUMPDEST PUSH1 0x1 PUSH1 0x1 PUSH1 0xA0 SHL SUB AND CALLER PUSH1 0x1 PUSH1 0x1 PUSH1 0xA0 SHL SUB AND EQ PUSH1 0xCD PUSH2 0x15BA JUMP JUMPDEST PUSH2 0x637 PUSH2 0x62D PUSH2 0xB8B JUMP JUMPDEST DUP3 EQ PUSH2 0x1F4 PUSH2 0x15BA JUMP JUMPDEST PUSH2 0x649 DUP5 DUP5 PUSH2 0x644 PUSH2 0x15C8 JUMP JUMPDEST PUSH2 0x15EC JUMP JUMPDEST PUSH1 0x60 PUSH2 0x653 PUSH2 0x1604 JUMP JUMPDEST SWAP1 POP PUSH1 0x0 DUP8 MLOAD PUSH1 0x1 DUP2 GT ISZERO PUSH2 0x664 JUMPI INVALID JUMPDEST EQ PUSH2 0x67B JUMPI PUSH2 0x676 DUP8 DUP8 DUP8 DUP8 DUP6 PUSH2 0x17FE JUMP JUMPDEST PUSH2 0x688 JUMP JUMPDEST PUSH2 0x688 DUP8 DUP8 DUP8 DUP8 DUP6 PUSH2 0x1875 JUMP JUMPDEST SWAP8 SWAP7 POP POP POP POP POP POP POP JUMP JUMPDEST PUSH1 0x0 PUSH2 0x69D PUSH2 0x18D9 JUMP JUMPDEST SWAP1 POP JUMPDEST SWAP1 JUMP JUMPDEST PUSH1 0x3 DUP1 SLOAD PUSH1 0x40 DUP1 MLOAD PUSH1 0x20 PUSH1 0x1F PUSH1 0x2 PUSH1 0x0 NOT PUSH2 0x100 PUSH1 0x1 DUP9 AND ISZERO MUL ADD SWAP1 SWAP6 AND SWAP5 SWAP1 SWAP5 DIV SWAP4 DUP5 ADD DUP2 SWAP1 DIV DUP2 MUL DUP3 ADD DUP2 ADD SWAP1 SWAP3 MSTORE DUP3 DUP2 MSTORE PUSH1 0x60 SWAP4 SWAP1 SWAP3 SWAP1 SWAP2 DUP4 ADD DUP3 DUP3 DUP1 ISZERO PUSH2 0x72F JUMPI DUP1 PUSH1 0x1F LT PUSH2 0x704 JUMPI PUSH2 0x100 DUP1 DUP4 SLOAD DIV MUL DUP4 MSTORE SWAP2 PUSH1 0x20 ADD SWAP2 PUSH2 0x72F JUMP JUMPDEST DUP3 ADD SWAP2 SWAP1 PUSH1 0x0 MSTORE PUSH1 0x20 PUSH1 0x0 KECCAK256 SWAP1 JUMPDEST DUP2 SLOAD DUP2 MSTORE SWAP1 PUSH1 0x1 ADD SWAP1 PUSH1 0x20 ADD DUP1 DUP4 GT PUSH2 0x712 JUMPI DUP3 SWAP1 SUB PUSH1 0x1F AND DUP3 ADD SWAP2 JUMPDEST POP POP POP POP POP SWAP1 POP SWAP1 JUMP JUMPDEST PUSH1 0x0 PUSH2 0x746 CALLER DUP5 DUP5 PUSH2 0x18E0 JUMP JUMPDEST POP PUSH1 0x1 JUMPDEST SWAP3 SWAP2 POP POP JUMP JUMPDEST PUSH2 0x758 PUSH2 0x193B JUMP JUMPDEST PUSH2 0x761 DUP2 PUSH2 0x1969 JUMP JUMPDEST POP JUMP JUMPDEST PUSH1 0x2 SLOAD SWAP1 JUMP JUMPDEST PUSH1 0x0 DUP1 PUSH1 0x0 PUSH2 0x777 PUSH2 0x19E7 JUMP JUMPDEST ISZERO SWAP3 POP PUSH2 0x782 PUSH2 0x1A04 JUMP JUMPDEST SWAP2 POP PUSH2 0x78C PUSH2 0x1A28 JUMP JUMPDEST SWAP1 POP SWAP1 SWAP2 SWAP3 JUMP JUMPDEST PUSH1 0x60 PUSH2 0x69D PUSH2 0x1604 JUMP JUMPDEST PUSH1 0x60 PUSH1 0x0 PUSH2 0x7A9 PUSH2 0x15C8 JUMP JUMPDEST SWAP1 POP DUP1 PUSH1 0x1 PUSH1 0x1 PUSH1 0x40 SHL SUB DUP2 GT DUP1 ISZERO PUSH2 0x7C1 JUMPI PUSH1 0x0 DUP1 REVERT JUMPDEST POP PUSH1 0x40 MLOAD SWAP1 DUP1 DUP3 MSTORE DUP1 PUSH1 0x20 MUL PUSH1 0x20 ADD DUP3 ADD PUSH1 0x40 MSTORE DUP1 ISZERO PUSH2 0x7EB JUMPI DUP2 PUSH1 0x20 ADD PUSH1 0x20 DUP3 MUL DUP1 CALLDATASIZE DUP4 CALLDATACOPY ADD SWAP1 POP JUMPDEST POP SWAP2 POP DUP1 ISZERO PUSH2 0x847 JUMPI PUSH32 0x0 DUP3 PUSH1 0x0 DUP2 MLOAD DUP2 LT PUSH2 0x822 JUMPI INVALID JUMPDEST PUSH1 0x20 MUL PUSH1 0x20 ADD ADD SWAP1 PUSH1 0x1 PUSH1 0x1 PUSH1 0xA0 SHL SUB AND SWAP1 DUP2 PUSH1 0x1 PUSH1 0x1 PUSH1 0xA0 SHL SUB AND DUP2 MSTORE POP POP PUSH2 0x84D JUMP JUMPDEST POP PUSH2 0x6A0 JUMP JUMPDEST PUSH1 0x1 DUP2 GT ISZERO PUSH2 0x847 JUMPI PUSH32 0x0 DUP3 PUSH1 0x1 DUP2 MLOAD DUP2 LT PUSH2 0x884 JUMPI INVALID JUMPDEST PUSH1 0x20 MUL PUSH1 0x20 ADD ADD SWAP1 PUSH1 0x1 PUSH1 0x1 PUSH1 0xA0 SHL SUB AND SWAP1 DUP2 PUSH1 0x1 PUSH1 0x1 PUSH1 0xA0 SHL SUB AND DUP2 MSTORE POP POP PUSH1 0x2 DUP2 GT ISZERO PUSH2 0x847 JUMPI PUSH32 0x0 DUP3 PUSH1 0x2 DUP2 MLOAD DUP2 LT PUSH2 0x8DB JUMPI INVALID JUMPDEST PUSH1 0x20 MUL PUSH1 0x20 ADD ADD SWAP1 PUSH1 0x1 PUSH1 0x1 PUSH1 0xA0 SHL SUB AND SWAP1 DUP2 PUSH1 0x1 PUSH1 0x1 PUSH1 0xA0 SHL SUB AND DUP2 MSTORE POP POP PUSH1 0x3 DUP2 GT ISZERO PUSH2 0x847 JUMPI PUSH32 0x0 DUP3 PUSH1 0x3 DUP2 MLOAD DUP2 LT PUSH2 0x932 JUMPI INVALID JUMPDEST PUSH1 0x20 MUL PUSH1 0x20 ADD ADD SWAP1 PUSH1 0x1 PUSH1 0x1 PUSH1 0xA0 SHL SUB AND SWAP1 DUP2 PUSH1 0x1 PUSH1 0x1 PUSH1 0xA0 SHL SUB AND DUP2 MSTORE POP POP PUSH1 0x4 DUP2 GT ISZERO PUSH2 0x847 JUMPI PUSH32 0x0 DUP3 PUSH1 0x4 DUP2 MLOAD DUP2 LT PUSH2 0x989 JUMPI INVALID JUMPDEST PUSH1 0x20 MUL PUSH1 0x20 ADD ADD SWAP1 PUSH1 0x1 PUSH1 0x1 PUSH1 0xA0 SHL SUB AND SWAP1 DUP2 PUSH1 0x1 PUSH1 0x1 PUSH1 0xA0 SHL SUB AND DUP2 MSTORE POP POP JUMPDEST POP SWAP1 JUMP JUMPDEST PUSH1 0x0 DUP1 PUSH2 0x9BB DUP6 CALLER PUSH2 0x1322 JUMP JUMPDEST SWAP1 POP PUSH2 0x9DF CALLER PUSH1 0x1 PUSH1 0x1 PUSH1 0xA0 SHL SUB DUP8 AND EQ DUP1 PUSH2 0x9D7 JUMPI POP DUP4 DUP3 LT ISZERO JUMPDEST PUSH2 0x19E PUSH2 0x15BA JUMP JUMPDEST PUSH2 0x9EA DUP6 DUP6 DUP6 PUSH2 0x1A4C JUMP JUMPDEST CALLER PUSH1 0x1 PUSH1 0x1 PUSH1 0xA0 SHL SUB DUP7 AND EQ DUP1 ISZERO SWAP1 PUSH2 0xA05 JUMPI POP PUSH1 0x0 NOT DUP2 EQ ISZERO JUMPDEST ISZERO PUSH2 0xA17 JUMPI PUSH2 0xA17 DUP6 CALLER DUP6 DUP5 SUB PUSH2 0x18E0 JUMP JUMPDEST PUSH1 0x1 SWAP2 POP POP JUMPDEST SWAP4 SWAP3 POP POP POP JUMP JUMPDEST PUSH1 0x0 PUSH2 0xA2F DUP3 PUSH2 0x1B2C JUMP JUMPDEST SWAP1 POP PUSH2 0xA48 PUSH1 0x1 PUSH1 0x1 PUSH1 0xA0 SHL SUB DUP3 AND ISZERO ISZERO PUSH2 0x155 PUSH2 0x15BA JUMP JUMPDEST PUSH1 0x1 PUSH1 0x1 PUSH1 0xA0 SHL SUB DUP3 AND PUSH1 0x0 SWAP1 DUP2 MSTORE PUSH1 0xE PUSH1 0x20 MSTORE PUSH1 0x40 DUP2 KECCAK256 SLOAD PUSH2 0xA6A SWAP1 PUSH2 0x1D1E JUMP JUMPDEST SWAP1 POP PUSH2 0xA77 DUP4 DUP4 DUP4 PUSH2 0x1D2B JUMP JUMPDEST POP POP POP JUMP JUMPDEST PUSH2 0xA84 PUSH2 0x193B JUMP JUMPDEST PUSH2 0xA94 PUSH1 0x1 DUP4 LT ISZERO PUSH2 0x12C PUSH2 0x15BA JUMP JUMPDEST PUSH2 0xAA5 PUSH2 0x1388 DUP4 GT ISZERO PUSH2 0x12D PUSH2 0x15BA JUMP JUMPDEST PUSH1 0x0 PUSH2 0xAB1 DUP3 TIMESTAMP PUSH2 0x1545 JUMP JUMPDEST SWAP1 POP PUSH2 0xAC5 PUSH3 0x15180 DUP3 LT ISZERO PUSH2 0x13D PUSH2 0x15BA JUMP JUMPDEST PUSH1 0x0 DUP1 PUSH2 0xAD0 PUSH2 0x1E0A JUMP JUMPDEST SWAP2 POP SWAP2 POP PUSH2 0xAE1 DUP2 ISZERO PUSH2 0x13E PUSH2 0x15BA JUMP JUMPDEST PUSH1 0x0 PUSH2 0xAEF DUP7 PUSH2 0x3E8 PUSH2 0x14F4 JUMP JUMPDEST SWAP1 POP PUSH1 0x0 DUP4 DUP3 GT PUSH2 0xB1E JUMPI PUSH2 0xB19 PUSH2 0xB0A PUSH3 0x15180 DUP7 PUSH2 0x14F4 JUMP JUMPDEST PUSH2 0xB14 DUP5 DUP9 PUSH2 0x14F4 JUMP JUMPDEST PUSH2 0x1E7E JUMP JUMPDEST PUSH2 0xB38 JUMP JUMPDEST PUSH2 0xB38 PUSH2 0xB2E PUSH3 0x15180 DUP5 PUSH2 0x14F4 JUMP JUMPDEST PUSH2 0xB14 DUP7 DUP9 PUSH2 0x14F4 JUMP JUMPDEST SWAP1 POP PUSH2 0xB4A PUSH1 0x2 DUP3 GT ISZERO PUSH2 0x13F PUSH2 0x15BA JUMP JUMPDEST PUSH2 0xB56 DUP5 DUP4 TIMESTAMP DUP10 PUSH2 0x1EB1 JUMP JUMPDEST POP POP POP POP POP POP POP JUMP JUMPDEST PUSH1 0x5 SLOAD PUSH1 0xFF AND SWAP1 JUMP JUMPDEST PUSH1 0x0 PUSH2 0x69D PUSH2 0x1F00 JUMP JUMPDEST PUSH2 0xB7A PUSH2 0x193B JUMP JUMPDEST PUSH2 0xB82 PUSH2 0x1F9D JUMP JUMPDEST PUSH2 0x761 DUP2 PUSH2 0x1FB0 JUMP JUMPDEST PUSH32 0x0 SWAP1 JUMP JUMPDEST CALLER PUSH1 0x0 DUP2 DUP2 MSTORE PUSH1 0x1 PUSH1 0x20 SWAP1 DUP2 MSTORE PUSH1 0x40 DUP1 DUP4 KECCAK256 PUSH1 0x1 PUSH1 0x1 PUSH1 0xA0 SHL SUB DUP8 AND DUP5 MSTORE SWAP1 SWAP2 MSTORE DUP2 KECCAK256 SLOAD SWAP1 SWAP2 PUSH2 0x746 SWAP2 DUP6 SWAP1 PUSH2 0xBE5 SWAP1 DUP7 PUSH2 0x201B JUMP JUMPDEST PUSH2 0x18E0 JUMP JUMPDEST PUSH2 0xBF2 PUSH2 0x193B JUMP JUMPDEST PUSH2 0xBFA PUSH2 0x1F9D JUMP JUMPDEST PUSH2 0xC04 DUP3 DUP3 PUSH2 0x202D JUMP JUMPDEST POP POP JUMP JUMPDEST PUSH1 0x0 PUSH1 0x1 PUSH1 0x1 PUSH1 0xA0 SHL SUB DUP3 AND ADDRESS EQ ISZERO PUSH2 0xC2A JUMPI POP PUSH8 0xDE0B6B3A7640000 PUSH2 0xC65 JUMP JUMPDEST PUSH1 0x1 PUSH1 0x1 PUSH1 0xA0 SHL SUB DUP3 AND PUSH1 0x0 SWAP1 DUP2 MSTORE PUSH1 0xE PUSH1 0x20 MSTORE PUSH1 0x40 SWAP1 KECCAK256 SLOAD DUP1 ISZERO PUSH2 0xC57 JUMPI PUSH2 0xC52 DUP2 PUSH2 0x212C JUMP JUMPDEST PUSH2 0xC61 JUMP JUMPDEST PUSH8 0xDE0B6B3A7640000 JUMPDEST SWAP2 POP POP JUMPDEST SWAP2 SWAP1 POP JUMP JUMPDEST PUSH1 0x8 SLOAD PUSH1 0x0 SWAP1 PUSH2 0x69D SWAP1 PUSH1 0xC0 PUSH2 0x2138 JUMP JUMPDEST PUSH1 0x0 PUSH1 0x60 PUSH2 0xC91 DUP7 MLOAD PUSH2 0xC8C PUSH2 0x15C8 JUMP JUMPDEST PUSH2 0x2145 JUMP JUMPDEST PUSH2 0xCA6 DUP10 DUP10 DUP10 DUP10 DUP10 DUP10 DUP10 PUSH2 0x2152 PUSH2 0x21F5 PUSH2 0x2256 JUMP JUMPDEST SWAP8 POP SWAP8 SWAP6 POP POP POP POP POP POP JUMP JUMPDEST PUSH1 0x0 PUSH2 0x74A DUP3 PUSH2 0x2379 JUMP JUMPDEST PUSH1 0x0 PUSH1 0x60 PUSH2 0xCC9 PUSH2 0xFA6 JUMP JUMPDEST PUSH1 0x1 PUSH1 0x1 PUSH1 0xA0 SHL SUB AND PUSH4 0xF94D4668 PUSH2 0xCDF PUSH2 0xB8B JUMP JUMPDEST PUSH1 0x40 MLOAD DUP3 PUSH4 0xFFFFFFFF AND PUSH1 0xE0 SHL DUP2 MSTORE PUSH1 0x4 ADD PUSH2 0xCFB SWAP2 SWAP1 PUSH2 0x5160 JUMP JUMPDEST PUSH1 0x0 PUSH1 0x40 MLOAD DUP1 DUP4 SUB DUP2 DUP7 DUP1 EXTCODESIZE ISZERO DUP1 ISZERO PUSH2 0xD13 JUMPI PUSH1 0x0 DUP1 REVERT JUMPDEST POP GAS STATICCALL ISZERO DUP1 ISZERO PUSH2 0xD27 JUMPI RETURNDATASIZE PUSH1 0x0 DUP1 RETURNDATACOPY RETURNDATASIZE PUSH1 0x0 REVERT JUMPDEST POP POP POP POP PUSH1 0x40 MLOAD RETURNDATASIZE PUSH1 0x0 DUP3 RETURNDATACOPY PUSH1 0x1F RETURNDATASIZE SWAP1 DUP2 ADD PUSH1 0x1F NOT AND DUP3 ADD PUSH1 0x40 MSTORE PUSH2 0xD4F SWAP2 SWAP1 DUP2 ADD SWAP1 PUSH2 0x4BB3 JUMP JUMPDEST POP SWAP2 POP POP PUSH2 0xD64 DUP2 PUSH2 0xD5F PUSH2 0x1604 JUMP JUMPDEST PUSH2 0x239A JUMP JUMPDEST PUSH1 0x0 PUSH1 0x60 PUSH2 0xD71 DUP4 PUSH2 0x23FB JUMP JUMPDEST SWAP2 POP SWAP2 POP PUSH1 0x0 PUSH2 0xD7F PUSH2 0x1E0A JUMP JUMPDEST POP SWAP1 POP PUSH2 0xD8D DUP3 DUP3 DUP6 PUSH2 0x24FF JUMP JUMPDEST SWAP5 POP POP POP POP POP SWAP1 JUMP JUMPDEST PUSH1 0x0 DUP1 PUSH1 0x0 PUSH2 0xDA3 PUSH2 0x1E0A JUMP JUMPDEST SWAP1 SWAP5 SWAP1 SWAP4 POP PUSH2 0x3E8 SWAP3 POP SWAP1 POP JUMP JUMPDEST PUSH1 0x1 PUSH1 0x1 PUSH1 0xA0 SHL SUB AND PUSH1 0x0 SWAP1 DUP2 MSTORE PUSH1 0x20 DUP2 SWAP1 MSTORE PUSH1 0x40 SWAP1 KECCAK256 SLOAD SWAP1 JUMP JUMPDEST PUSH1 0x60 DUP1 DUP9 PUSH2 0xDDB PUSH2 0x607 PUSH2 0xFA6 JUMP JUMPDEST PUSH2 0xDE6 PUSH2 0x62D PUSH2 0xB8B JUMP JUMPDEST PUSH1 0x60 PUSH2 0xDF0 PUSH2 0x1604 JUMP JUMPDEST SWAP1 POP PUSH2 0xDFC DUP9 DUP3 PUSH2 0x239A JUMP JUMPDEST PUSH1 0x0 PUSH1 0x60 DUP1 PUSH2 0xE11 DUP15 DUP15 DUP15 DUP15 DUP15 DUP15 DUP11 DUP16 PUSH2 0x2152 JUMP JUMPDEST SWAP3 POP SWAP3 POP SWAP3 POP PUSH2 0xE21 DUP14 DUP5 PUSH2 0x251A JUMP JUMPDEST PUSH2 0xE2B DUP3 DUP6 PUSH2 0x21F5 JUMP JUMPDEST PUSH2 0xE35 DUP2 DUP6 PUSH2 0x21F5 JUMP JUMPDEST SWAP1 SWAP6 POP SWAP4 POP POP POP JUMPDEST POP SWAP8 POP SWAP8 SWAP6 POP POP POP POP POP POP JUMP JUMPDEST PUSH1 0xC SLOAD SWAP1 JUMP JUMPDEST PUSH1 0x1 PUSH1 0x1 PUSH1 0xA0 SHL SUB AND PUSH1 0x0 SWAP1 DUP2 MSTORE PUSH1 0x6 PUSH1 0x20 MSTORE PUSH1 0x40 SWAP1 KECCAK256 SLOAD SWAP1 JUMP JUMPDEST PUSH1 0x0 DUP1 DUP1 PUSH2 0xE8F DUP2 PUSH2 0xE7C DUP7 PUSH2 0x1B2C JUMP JUMPDEST PUSH1 0x1 PUSH1 0x1 PUSH1 0xA0 SHL SUB AND EQ ISZERO PUSH2 0x155 PUSH2 0x15BA JUMP JUMPDEST PUSH1 0x1 PUSH1 0x1 PUSH1 0xA0 SHL SUB DUP5 AND PUSH1 0x0 SWAP1 DUP2 MSTORE PUSH1 0xE PUSH1 0x20 MSTORE PUSH1 0x40 SWAP1 KECCAK256 SLOAD PUSH2 0xEB1 SWAP1 PUSH2 0x212C JUMP JUMPDEST PUSH1 0x1 PUSH1 0x1 PUSH1 0xA0 SHL SUB DUP6 AND PUSH1 0x0 SWAP1 DUP2 MSTORE PUSH1 0xE PUSH1 0x20 MSTORE PUSH1 0x40 SWAP1 KECCAK256 SLOAD SWAP1 SWAP4 POP PUSH2 0xED6 SWAP1 PUSH2 0x2524 JUMP JUMPDEST SWAP4 SWAP6 SWAP1 SWAP5 POP SWAP2 POP POP JUMP JUMPDEST PUSH32 0x0 SWAP1 JUMP JUMPDEST PUSH1 0x0 PUSH32 0x0 DUP3 PUSH1 0x40 MLOAD PUSH1 0x20 ADD PUSH2 0xF39 SWAP3 SWAP2 SWAP1 PUSH2 0x5061 JUMP JUMPDEST PUSH1 0x40 MLOAD PUSH1 0x20 DUP2 DUP4 SUB SUB DUP2 MSTORE SWAP1 PUSH1 0x40 MSTORE DUP1 MLOAD SWAP1 PUSH1 0x20 ADD KECCAK256 SWAP1 POP SWAP2 SWAP1 POP JUMP JUMPDEST PUSH1 0x0 PUSH1 0x60 PUSH2 0xF67 DUP7 MLOAD PUSH2 0xC8C PUSH2 0x15C8 JUMP JUMPDEST PUSH2 0xCA6 DUP10 DUP10 DUP10 DUP10 DUP10 DUP10 DUP10 PUSH2 0x2544 PUSH2 0x2587 PUSH2 0x2256 JUMP JUMPDEST PUSH32 0x0 SWAP1 JUMP JUMPDEST PUSH1 0xD SLOAD SWAP1 JUMP JUMPDEST PUSH32 0x0 SWAP1 JUMP JUMPDEST PUSH1 0x4 DUP1 SLOAD PUSH1 0x40 DUP1 MLOAD PUSH1 0x20 PUSH1 0x1F PUSH1 0x2 PUSH1 0x0 NOT PUSH2 0x100 PUSH1 0x1 DUP9 AND ISZERO MUL ADD SWAP1 SWAP6 AND SWAP5 SWAP1 SWAP5 DIV SWAP4 DUP5 ADD DUP2 SWAP1 DIV DUP2 MUL DUP3 ADD DUP2 ADD SWAP1 SWAP3 MSTORE DUP3 DUP2 MSTORE PUSH1 0x60 SWAP4 SWAP1 SWAP3 SWAP1 SWAP2 DUP4 ADD DUP3 DUP3 DUP1 ISZERO PUSH2 0x72F JUMPI DUP1 PUSH1 0x1F LT PUSH2 0x704 JUMPI PUSH2 0x100 DUP1 DUP4 SLOAD DIV MUL DUP4 MSTORE SWAP2 PUSH1 0x20 ADD SWAP2 PUSH2 0x72F JUMP JUMPDEST PUSH1 0xA SLOAD PUSH1 0xB SLOAD SWAP1 SWAP2 JUMP JUMPDEST PUSH1 0x0 PUSH2 0xA1D PUSH2 0x154 PUSH2 0x25E8 JUMP JUMPDEST PUSH1 0x0 DUP1 PUSH2 0x104F CALLER DUP6 PUSH2 0x1322 JUMP JUMPDEST SWAP1 POP DUP1 DUP4 LT PUSH2 0x1069 JUMPI PUSH2 0x1064 CALLER DUP6 PUSH1 0x0 PUSH2 0x18E0 JUMP JUMPDEST PUSH2 0x1076 JUMP JUMPDEST PUSH2 0x1076 CALLER DUP6 DUP6 DUP5 SUB PUSH2 0x18E0 JUMP JUMPDEST POP PUSH1 0x1 SWAP4 SWAP3 POP POP POP JUMP JUMPDEST PUSH1 0x0 PUSH2 0x746 CALLER DUP5 DUP5 PUSH2 0x1A4C JUMP JUMPDEST PUSH1 0x0 PUSH2 0x69D PUSH2 0x263B JUMP JUMPDEST PUSH2 0x10A5 DUP5 TIMESTAMP GT ISZERO PUSH1 0xD1 PUSH2 0x15BA JUMP JUMPDEST PUSH1 0x1 PUSH1 0x1 PUSH1 0xA0 SHL SUB DUP8 AND PUSH1 0x0 SWAP1 DUP2 MSTORE PUSH1 0x6 PUSH1 0x20 SWAP1 DUP2 MSTORE PUSH1 0x40 DUP1 DUP4 KECCAK256 SLOAD SWAP1 MLOAD SWAP1 SWAP3 SWAP2 PUSH2 0x10FC SWAP2 PUSH32 0x0 SWAP2 DUP13 SWAP2 DUP13 SWAP2 DUP13 SWAP2 DUP9 SWAP2 DUP14 SWAP2 ADD PUSH2 0x5188 JUMP JUMPDEST PUSH1 0x40 MLOAD PUSH1 0x20 DUP2 DUP4 SUB SUB DUP2 MSTORE SWAP1 PUSH1 0x40 MSTORE DUP1 MLOAD SWAP1 PUSH1 0x20 ADD KECCAK256 SWAP1 POP PUSH1 0x0 PUSH2 0x111F DUP3 PUSH2 0x26B5 JUMP JUMPDEST SWAP1 POP PUSH1 0x0 PUSH1 0x1 DUP3 DUP9 DUP9 DUP9 PUSH1 0x40 MLOAD PUSH1 0x0 DUP2 MSTORE PUSH1 0x20 ADD PUSH1 0x40 MSTORE PUSH1 0x40 MLOAD PUSH2 0x1146 SWAP5 SWAP4 SWAP3 SWAP2 SWAP1 PUSH2 0x5218 JUMP JUMPDEST PUSH1 0x20 PUSH1 0x40 MLOAD PUSH1 0x20 DUP2 SUB SWAP1 DUP1 DUP5 SUB SWAP1 DUP6 GAS STATICCALL ISZERO DUP1 ISZERO PUSH2 0x1168 JUMPI RETURNDATASIZE PUSH1 0x0 DUP1 RETURNDATACOPY RETURNDATASIZE PUSH1 0x0 REVERT JUMPDEST POP POP PUSH1 0x40 MLOAD PUSH1 0x1F NOT ADD MLOAD SWAP2 POP PUSH2 0x11AA SWAP1 POP PUSH1 0x1 PUSH1 0x1 PUSH1 0xA0 SHL SUB DUP3 AND ISZERO DUP1 ISZERO SWAP1 PUSH2 0x11A2 JUMPI POP DUP12 PUSH1 0x1 PUSH1 0x1 PUSH1 0xA0 SHL SUB AND DUP3 PUSH1 0x1 PUSH1 0x1 PUSH1 0xA0 SHL SUB AND EQ JUMPDEST PUSH2 0x1F8 PUSH2 0x15BA JUMP JUMPDEST PUSH1 0x1 PUSH1 0x1 PUSH1 0xA0 SHL SUB DUP12 AND PUSH1 0x0 SWAP1 DUP2 MSTORE PUSH1 0x6 PUSH1 0x20 MSTORE PUSH1 0x40 SWAP1 KECCAK256 PUSH1 0x1 DUP6 ADD SWAP1 SSTORE PUSH2 0x11D3 DUP12 DUP12 DUP12 PUSH2 0x18E0 JUMP JUMPDEST POP POP POP POP POP POP POP POP POP POP POP JUMP JUMPDEST PUSH1 0x60 DUP1 DUP9 PUSH2 0x11EF PUSH2 0x607 PUSH2 0xFA6 JUMP JUMPDEST PUSH2 0x11FA PUSH2 0x62D PUSH2 0xB8B JUMP JUMPDEST PUSH1 0x60 PUSH2 0x1204 PUSH2 0x1604 JUMP JUMPDEST SWAP1 POP PUSH2 0x120E PUSH2 0x764 JUMP JUMPDEST PUSH2 0x12C0 JUMPI PUSH1 0x0 PUSH1 0x60 PUSH2 0x1223 DUP14 DUP14 DUP14 DUP7 DUP12 PUSH2 0x26D1 JUMP JUMPDEST SWAP2 POP SWAP2 POP PUSH2 0x123C PUSH2 0x1232 PUSH2 0x18D9 JUMP JUMPDEST DUP4 LT ISZERO PUSH1 0xCC PUSH2 0x15BA JUMP JUMPDEST PUSH2 0x124E PUSH1 0x0 PUSH2 0x1249 PUSH2 0x18D9 JUMP JUMPDEST PUSH2 0x27BD JUMP JUMPDEST PUSH2 0x1261 DUP12 PUSH2 0x125A PUSH2 0x18D9 JUMP JUMPDEST DUP5 SUB PUSH2 0x27BD JUMP JUMPDEST PUSH2 0x126B DUP2 DUP5 PUSH2 0x2587 JUMP JUMPDEST DUP1 PUSH2 0x1274 PUSH2 0x15C8 JUMP JUMPDEST PUSH1 0x1 PUSH1 0x1 PUSH1 0x40 SHL SUB DUP2 GT DUP1 ISZERO PUSH2 0x1289 JUMPI PUSH1 0x0 DUP1 REVERT JUMPDEST POP PUSH1 0x40 MLOAD SWAP1 DUP1 DUP3 MSTORE DUP1 PUSH1 0x20 MUL PUSH1 0x20 ADD DUP3 ADD PUSH1 0x40 MSTORE DUP1 ISZERO PUSH2 0x12B3 JUMPI DUP2 PUSH1 0x20 ADD PUSH1 0x20 DUP3 MUL DUP1 CALLDATASIZE DUP4 CALLDATACOPY ADD SWAP1 POP JUMPDEST POP SWAP6 POP SWAP6 POP POP POP POP PUSH2 0xE3D JUMP JUMPDEST PUSH2 0x12CA DUP9 DUP3 PUSH2 0x239A JUMP JUMPDEST PUSH1 0x0 PUSH1 0x60 DUP1 PUSH2 0x12DF DUP15 DUP15 DUP15 DUP15 DUP15 DUP15 DUP11 DUP16 PUSH2 0x2544 JUMP JUMPDEST SWAP3 POP SWAP3 POP SWAP3 POP PUSH2 0x12EF DUP13 DUP5 PUSH2 0x27BD JUMP JUMPDEST PUSH2 0x12F9 DUP3 DUP6 PUSH2 0x2587 JUMP JUMPDEST PUSH2 0x1303 DUP2 DUP6 PUSH2 0x21F5 JUMP JUMPDEST SWAP1 SWAP6 POP SWAP4 POP PUSH2 0xE3D SWAP2 POP POP JUMP JUMPDEST PUSH2 0x1320 PUSH2 0x131B PUSH2 0xFA6 JUMP JUMPDEST PUSH2 0x27C7 JUMP JUMPDEST JUMP JUMPDEST PUSH1 0x0 PUSH2 0x132C PUSH2 0xFA6 JUMP JUMPDEST PUSH1 0x1 PUSH1 0x1 PUSH1 0xA0 SHL SUB AND DUP3 PUSH1 0x1 PUSH1 0x1 PUSH1 0xA0 SHL SUB AND EQ ISZERO PUSH2 0x134E JUMPI POP PUSH1 0x0 NOT PUSH2 0x74A JUMP JUMPDEST PUSH2 0x1358 DUP4 DUP4 PUSH2 0x28EE JUMP JUMPDEST SWAP1 POP PUSH2 0x74A JUMP JUMPDEST PUSH1 0x0 PUSH1 0x60 PUSH2 0x136B PUSH2 0xFA6 JUMP JUMPDEST PUSH1 0x1 PUSH1 0x1 PUSH1 0xA0 SHL SUB AND PUSH4 0xF94D4668 PUSH2 0x1381 PUSH2 0xB8B JUMP JUMPDEST PUSH1 0x40 MLOAD DUP3 PUSH4 0xFFFFFFFF AND PUSH1 0xE0 SHL DUP2 MSTORE PUSH1 0x4 ADD PUSH2 0x139D SWAP2 SWAP1 PUSH2 0x5160 JUMP JUMPDEST PUSH1 0x0 PUSH1 0x40 MLOAD DUP1 DUP4 SUB DUP2 DUP7 DUP1 EXTCODESIZE ISZERO DUP1 ISZERO PUSH2 0x13B5 JUMPI PUSH1 0x0 DUP1 REVERT JUMPDEST POP GAS STATICCALL ISZERO DUP1 ISZERO PUSH2 0x13C9 JUMPI RETURNDATASIZE PUSH1 0x0 DUP1 RETURNDATACOPY RETURNDATASIZE PUSH1 0x0 REVERT JUMPDEST POP POP POP POP PUSH1 0x40 MLOAD RETURNDATASIZE PUSH1 0x0 DUP3 RETURNDATACOPY PUSH1 0x1F RETURNDATASIZE SWAP1 DUP2 ADD PUSH1 0x1F NOT AND DUP3 ADD PUSH1 0x40 MSTORE PUSH2 0x13F1 SWAP2 SWAP1 DUP2 ADD SWAP1 PUSH2 0x4BB3 JUMP JUMPDEST POP SWAP2 POP POP PUSH2 0x1431 DUP2 PUSH32 0x0 DUP2 MLOAD DUP2 LT PUSH2 0x1424 JUMPI INVALID JUMPDEST PUSH1 0x20 MUL PUSH1 0x20 ADD ADD MLOAD PUSH2 0x2919 JUMP JUMPDEST SWAP2 POP POP SWAP1 JUMP JUMPDEST PUSH2 0x143F PUSH2 0x193B JUMP JUMPDEST PUSH1 0x0 DUP1 PUSH2 0x144A PUSH2 0x1E0A JUMP JUMPDEST SWAP2 POP SWAP2 POP PUSH2 0x145A DUP2 PUSH2 0x140 PUSH2 0x15BA JUMP JUMPDEST PUSH2 0xC04 DUP3 PUSH2 0x2939 JUMP JUMPDEST PUSH2 0x146B PUSH2 0x193B JUMP JUMPDEST PUSH1 0x0 PUSH2 0x1476 DUP4 PUSH2 0x1B2C JUMP JUMPDEST SWAP1 POP PUSH2 0x148F PUSH1 0x1 PUSH1 0x1 PUSH1 0xA0 SHL SUB DUP3 AND ISZERO ISZERO PUSH2 0x155 PUSH2 0x15BA JUMP JUMPDEST PUSH2 0x149A DUP4 DUP3 DUP5 PUSH2 0x1D2B JUMP JUMPDEST DUP1 PUSH1 0x1 PUSH1 0x1 PUSH1 0xA0 SHL SUB AND DUP4 PUSH1 0x1 PUSH1 0x1 PUSH1 0xA0 SHL SUB AND PUSH32 0xF00A2BF8C71DB611A21183E0A96869752BCD9DA29372FA76F865EED4FDD540D1 DUP5 PUSH1 0x40 MLOAD PUSH2 0x14DD SWAP2 SWAP1 PUSH2 0x5160 JUMP JUMPDEST PUSH1 0x40 MLOAD DUP1 SWAP2 SUB SWAP1 LOG3 POP POP POP JUMP JUMPDEST DUP1 PUSH2 0xC04 DUP2 PUSH2 0x2974 JUMP JUMPDEST PUSH1 0x0 DUP3 DUP3 MUL PUSH2 0xA1D DUP5 ISZERO DUP1 PUSH2 0x1511 JUMPI POP DUP4 DUP6 DUP4 DUP2 PUSH2 0x150E JUMPI INVALID JUMPDEST DIV EQ JUMPDEST PUSH1 0x3 PUSH2 0x15BA JUMP JUMPDEST PUSH2 0xA77 DUP3 DUP5 EQ DUP1 ISZERO PUSH2 0x1529 JUMPI POP DUP2 DUP4 EQ JUMPDEST PUSH1 0x67 PUSH2 0x15BA JUMP JUMPDEST PUSH1 0x1 PUSH1 0x1 PUSH1 0x40 SHL SUB DUP2 SHL NOT SWAP3 SWAP1 SWAP3 AND SWAP2 SHL OR SWAP1 JUMP JUMPDEST PUSH1 0x0 PUSH2 0x1555 DUP4 DUP4 GT ISZERO PUSH1 0x1 PUSH2 0x15BA JUMP JUMPDEST POP SWAP1 SUB SWAP1 JUMP JUMPDEST PUSH1 0x0 PUSH2 0x156F PUSH1 0x1 PUSH1 0x80 SHL DUP5 LT PUSH2 0x149 PUSH2 0x15BA JUMP JUMPDEST PUSH2 0x1585 DUP3 TIMESTAMP ADD PUSH1 0x1 PUSH1 0x1 PUSH1 0x40 SHL SUB AND PUSH1 0xC0 PUSH2 0x15B6 JUMP JUMPDEST PUSH2 0x1599 DUP4 PUSH1 0x1 PUSH1 0x1 PUSH1 0x40 SHL SUB AND PUSH1 0x80 PUSH2 0x15B6 JUMP JUMPDEST PUSH2 0x15AD DUP6 PUSH1 0x1 PUSH1 0x1 PUSH1 0x80 SHL SUB AND PUSH1 0x0 PUSH2 0x15B6 JUMP JUMPDEST OR OR SWAP4 SWAP3 POP POP POP JUMP JUMPDEST SHL SWAP1 JUMP JUMPDEST DUP2 PUSH2 0xC04 JUMPI PUSH2 0xC04 DUP2 PUSH2 0x25E8 JUMP JUMPDEST PUSH32 0x0 SWAP1 JUMP JUMPDEST PUSH2 0xA77 DUP2 DUP5 LT DUP1 ISZERO PUSH2 0x15FD JUMPI POP DUP2 DUP4 LT JUMPDEST PUSH1 0x64 PUSH2 0x15BA JUMP JUMPDEST PUSH1 0x60 PUSH1 0x0 PUSH2 0x1610 PUSH2 0x15C8 JUMP JUMPDEST SWAP1 POP PUSH2 0x161A PUSH2 0x29ED JUMP JUMPDEST SWAP2 POP DUP1 ISZERO PUSH2 0x168B JUMPI PUSH2 0x1671 PUSH2 0x164E PUSH32 0x0 PUSH2 0xC08 JUMP JUMPDEST DUP4 PUSH1 0x0 DUP2 MLOAD DUP2 LT PUSH2 0x165B JUMPI INVALID JUMPDEST PUSH1 0x20 MUL PUSH1 0x20 ADD ADD MLOAD PUSH2 0x2B14 SWAP1 SWAP2 SWAP1 PUSH4 0xFFFFFFFF AND JUMP JUMPDEST DUP3 PUSH1 0x0 DUP2 MLOAD DUP2 LT PUSH2 0x167E JUMPI INVALID JUMPDEST PUSH1 0x20 MUL PUSH1 0x20 ADD ADD DUP2 DUP2 MSTORE POP POP JUMPDEST PUSH1 0x1 DUP2 GT ISZERO PUSH2 0x16E7 JUMPI PUSH2 0x16CD PUSH2 0x16C0 PUSH32 0x0 PUSH2 0xC08 JUMP JUMPDEST DUP4 PUSH1 0x1 DUP2 MLOAD DUP2 LT PUSH2 0x165B JUMPI INVALID JUMPDEST DUP3 PUSH1 0x1 DUP2 MLOAD DUP2 LT PUSH2 0x16DA JUMPI INVALID JUMPDEST PUSH1 0x20 MUL PUSH1 0x20 ADD ADD DUP2 DUP2 MSTORE POP POP JUMPDEST PUSH1 0x2 DUP2 GT ISZERO PUSH2 0x1743 JUMPI PUSH2 0x1729 PUSH2 0x171C PUSH32 0x0 PUSH2 0xC08 JUMP JUMPDEST DUP4 PUSH1 0x2 DUP2 MLOAD DUP2 LT PUSH2 0x165B JUMPI INVALID JUMPDEST DUP3 PUSH1 0x2 DUP2 MLOAD DUP2 LT PUSH2 0x1736 JUMPI INVALID JUMPDEST PUSH1 0x20 MUL PUSH1 0x20 ADD ADD DUP2 DUP2 MSTORE POP POP JUMPDEST PUSH1 0x3 DUP2 GT ISZERO PUSH2 0x179F JUMPI PUSH2 0x1785 PUSH2 0x1778 PUSH32 0x0 PUSH2 0xC08 JUMP JUMPDEST DUP4 PUSH1 0x3 DUP2 MLOAD DUP2 LT PUSH2 0x165B JUMPI INVALID JUMPDEST DUP3 PUSH1 0x3 DUP2 MLOAD DUP2 LT PUSH2 0x1792 JUMPI INVALID JUMPDEST PUSH1 0x20 MUL PUSH1 0x20 ADD ADD DUP2 DUP2 MSTORE POP POP JUMPDEST PUSH1 0x4 DUP2 GT ISZERO PUSH2 0x9AA JUMPI PUSH2 0x17E1 PUSH2 0x17D4 PUSH32 0x0 PUSH2 0xC08 JUMP JUMPDEST DUP4 PUSH1 0x4 DUP2 MLOAD DUP2 LT PUSH2 0x165B JUMPI INVALID JUMPDEST DUP3 PUSH1 0x4 DUP2 MLOAD DUP2 LT PUSH2 0x17EE JUMPI INVALID JUMPDEST PUSH1 0x20 MUL PUSH1 0x20 ADD ADD DUP2 DUP2 MSTORE POP POP POP SWAP1 JUMP JUMPDEST PUSH1 0x0 PUSH2 0x180A DUP6 DUP4 PUSH2 0x239A JUMP JUMPDEST PUSH2 0x182B DUP7 PUSH1 0x60 ADD MLOAD DUP4 DUP6 DUP2 MLOAD DUP2 LT PUSH2 0x181E JUMPI INVALID JUMPDEST PUSH1 0x20 MUL PUSH1 0x20 ADD ADD MLOAD PUSH2 0x2B40 JUMP JUMPDEST PUSH1 0x60 DUP8 ADD MSTORE PUSH1 0x0 PUSH2 0x183E DUP8 DUP8 DUP8 DUP8 PUSH2 0x2B4C JUMP JUMPDEST SWAP1 POP PUSH2 0x185D DUP2 DUP5 DUP8 DUP2 MLOAD DUP2 LT PUSH2 0x1850 JUMPI INVALID JUMPDEST PUSH1 0x20 MUL PUSH1 0x20 ADD ADD MLOAD PUSH2 0x2D07 JUMP JUMPDEST SWAP1 POP PUSH2 0x1868 DUP2 PUSH2 0x2D13 JUMP JUMPDEST SWAP2 POP POP JUMPDEST SWAP6 SWAP5 POP POP POP POP POP JUMP JUMPDEST PUSH1 0x0 PUSH2 0x1884 DUP7 PUSH1 0x60 ADD MLOAD PUSH2 0x2D39 JUMP JUMPDEST PUSH1 0x60 DUP8 ADD MSTORE PUSH2 0x1893 DUP6 DUP4 PUSH2 0x239A JUMP JUMPDEST PUSH2 0x18A7 DUP7 PUSH1 0x60 ADD MLOAD DUP4 DUP7 DUP2 MLOAD DUP2 LT PUSH2 0x181E JUMPI INVALID JUMPDEST PUSH1 0x60 DUP8 ADD MSTORE PUSH1 0x0 PUSH2 0x18BA DUP8 DUP8 DUP8 DUP8 PUSH2 0x2D5A JUMP JUMPDEST SWAP1 POP PUSH2 0x1868 DUP2 DUP5 DUP7 DUP2 MLOAD DUP2 LT PUSH2 0x18CC JUMPI INVALID JUMPDEST PUSH1 0x20 MUL PUSH1 0x20 ADD ADD MLOAD PUSH2 0x2E85 JUMP JUMPDEST PUSH3 0xF4240 SWAP1 JUMP JUMPDEST PUSH1 0x1 PUSH1 0x1 PUSH1 0xA0 SHL SUB DUP1 DUP5 AND PUSH1 0x0 DUP2 DUP2 MSTORE PUSH1 0x1 PUSH1 0x20 SWAP1 DUP2 MSTORE PUSH1 0x40 DUP1 DUP4 KECCAK256 SWAP5 DUP8 AND DUP1 DUP5 MSTORE SWAP5 SWAP1 SWAP2 MSTORE SWAP1 DUP2 SWAP1 KECCAK256 DUP5 SWAP1 SSTORE MLOAD PUSH32 0x8C5BE1E5EBEC7D5BD14F71427D1E84F3DD0314C0F7B2291E5B200AC8C7C3B925 SWAP1 PUSH2 0x14DD SWAP1 DUP6 SWAP1 PUSH2 0x5160 JUMP JUMPDEST PUSH1 0x0 PUSH2 0x1952 PUSH1 0x0 CALLDATALOAD PUSH1 0x1 PUSH1 0x1 PUSH1 0xE0 SHL SUB NOT AND PUSH2 0xF04 JUMP JUMPDEST SWAP1 POP PUSH2 0x761 PUSH2 0x1961 DUP3 CALLER PUSH2 0x2E91 JUMP JUMPDEST PUSH2 0x191 PUSH2 0x15BA JUMP JUMPDEST DUP1 ISZERO PUSH2 0x1989 JUMPI PUSH2 0x1984 PUSH2 0x197A PUSH2 0x1A04 JUMP JUMPDEST TIMESTAMP LT PUSH2 0x193 PUSH2 0x15BA JUMP JUMPDEST PUSH2 0x199E JUMP JUMPDEST PUSH2 0x199E PUSH2 0x1994 PUSH2 0x1A28 JUMP JUMPDEST TIMESTAMP LT PUSH2 0x1A9 PUSH2 0x15BA JUMP JUMPDEST PUSH1 0x7 DUP1 SLOAD PUSH1 0xFF NOT AND DUP3 ISZERO ISZERO OR SWAP1 SSTORE PUSH1 0x40 MLOAD PUSH32 0x9E3A5E37224532DEA67B89FACE185703738A228A6E8A23DEE546960180D3BE64 SWAP1 PUSH2 0x19DC SWAP1 DUP4 SWAP1 PUSH2 0x513D JUMP JUMPDEST PUSH1 0x40 MLOAD DUP1 SWAP2 SUB SWAP1 LOG1 POP JUMP JUMPDEST PUSH1 0x0 PUSH2 0x19F1 PUSH2 0x1A28 JUMP JUMPDEST TIMESTAMP GT DUP1 PUSH2 0x69D JUMPI POP POP PUSH1 0x7 SLOAD PUSH1 0xFF AND ISZERO SWAP1 JUMP JUMPDEST PUSH32 0x0 SWAP1 JUMP JUMPDEST PUSH32 0x0 SWAP1 JUMP JUMPDEST PUSH2 0x1A63 PUSH1 0x1 PUSH1 0x1 PUSH1 0xA0 SHL SUB DUP5 AND ISZERO ISZERO PUSH2 0x198 PUSH2 0x15BA JUMP JUMPDEST PUSH2 0x1A7A PUSH1 0x1 PUSH1 0x1 PUSH1 0xA0 SHL SUB DUP4 AND ISZERO ISZERO PUSH2 0x199 PUSH2 0x15BA JUMP JUMPDEST PUSH2 0x1A85 DUP4 DUP4 DUP4 PUSH2 0xA77 JUMP JUMPDEST PUSH1 0x1 PUSH1 0x1 PUSH1 0xA0 SHL SUB DUP4 AND PUSH1 0x0 SWAP1 DUP2 MSTORE PUSH1 0x20 DUP2 SWAP1 MSTORE PUSH1 0x40 SWAP1 KECCAK256 SLOAD PUSH2 0x1AAB SWAP1 DUP3 PUSH2 0x1A0 PUSH2 0x2F7A JUMP JUMPDEST PUSH1 0x1 PUSH1 0x1 PUSH1 0xA0 SHL SUB DUP1 DUP6 AND PUSH1 0x0 SWAP1 DUP2 MSTORE PUSH1 0x20 DUP2 SWAP1 MSTORE PUSH1 0x40 DUP1 DUP3 KECCAK256 SWAP4 SWAP1 SWAP4 SSTORE SWAP1 DUP5 AND DUP2 MSTORE KECCAK256 SLOAD PUSH2 0x1ADA SWAP1 DUP3 PUSH2 0x201B JUMP JUMPDEST PUSH1 0x1 PUSH1 0x1 PUSH1 0xA0 SHL SUB DUP1 DUP5 AND PUSH1 0x0 DUP2 DUP2 MSTORE PUSH1 0x20 DUP2 SWAP1 MSTORE PUSH1 0x40 SWAP1 DUP2 SWAP1 KECCAK256 SWAP4 SWAP1 SWAP4 SSTORE SWAP2 MLOAD SWAP1 DUP6 AND SWAP1 PUSH32 0xDDF252AD1BE2C89B69C2B068FC378DAA952BA7F163C4A11628F55A4DF523B3EF SWAP1 PUSH2 0x14DD SWAP1 DUP6 SWAP1 PUSH2 0x5160 JUMP JUMPDEST PUSH1 0x0 PUSH32 0x0 PUSH1 0x1 PUSH1 0x1 PUSH1 0xA0 SHL SUB AND DUP3 PUSH1 0x1 PUSH1 0x1 PUSH1 0xA0 SHL SUB AND EQ ISZERO PUSH2 0x1B8F JUMPI POP PUSH32 0x0 PUSH2 0xC65 JUMP JUMPDEST PUSH32 0x0 PUSH1 0x1 PUSH1 0x1 PUSH1 0xA0 SHL SUB AND DUP3 PUSH1 0x1 PUSH1 0x1 PUSH1 0xA0 SHL SUB AND EQ ISZERO PUSH2 0x1BF0 JUMPI POP PUSH32 0x0 PUSH2 0xC65 JUMP JUMPDEST PUSH32 0x0 PUSH1 0x1 PUSH1 0x1 PUSH1 0xA0 SHL SUB AND DUP3 PUSH1 0x1 PUSH1 0x1 PUSH1 0xA0 SHL SUB AND EQ ISZERO PUSH2 0x1C51 JUMPI POP PUSH32 0x0 PUSH2 0xC65 JUMP JUMPDEST PUSH32 0x0 PUSH1 0x1 PUSH1 0x1 PUSH1 0xA0 SHL SUB AND DUP3 PUSH1 0x1 PUSH1 0x1 PUSH1 0xA0 SHL SUB AND EQ ISZERO PUSH2 0x1CB2 JUMPI POP PUSH32 0x0 PUSH2 0xC65 JUMP JUMPDEST PUSH32 0x0 PUSH1 0x1 PUSH1 0x1 PUSH1 0xA0 SHL SUB AND DUP3 PUSH1 0x1 PUSH1 0x1 PUSH1 0xA0 SHL SUB AND EQ ISZERO PUSH2 0x1D13 JUMPI POP PUSH32 0x0 PUSH2 0xC65 JUMP JUMPDEST PUSH2 0xC65 PUSH2 0x135 PUSH2 0x25E8 JUMP JUMPDEST PUSH1 0x0 PUSH2 0x74A DUP3 PUSH1 0x80 PUSH2 0x2138 JUMP JUMPDEST PUSH1 0x0 DUP3 PUSH1 0x1 PUSH1 0x1 PUSH1 0xA0 SHL SUB AND PUSH4 0x679AEFCE PUSH1 0x40 MLOAD DUP2 PUSH4 0xFFFFFFFF AND PUSH1 0xE0 SHL DUP2 MSTORE PUSH1 0x4 ADD PUSH1 0x20 PUSH1 0x40 MLOAD DUP1 DUP4 SUB DUP2 DUP7 DUP1 EXTCODESIZE ISZERO DUP1 ISZERO PUSH2 0x1D66 JUMPI PUSH1 0x0 DUP1 REVERT JUMPDEST POP GAS STATICCALL ISZERO DUP1 ISZERO PUSH2 0x1D7A JUMPI RETURNDATASIZE PUSH1 0x0 DUP1 RETURNDATACOPY RETURNDATASIZE PUSH1 0x0 REVERT JUMPDEST POP POP POP POP PUSH1 0x40 MLOAD RETURNDATASIZE PUSH1 0x1F NOT PUSH1 0x1F DUP3 ADD AND DUP3 ADD DUP1 PUSH1 0x40 MSTORE POP DUP2 ADD SWAP1 PUSH2 0x1D9E SWAP2 SWAP1 PUSH2 0x4F63 JUMP JUMPDEST SWAP1 POP PUSH1 0x0 PUSH2 0x1DAC DUP3 DUP5 PUSH2 0x155B JUMP JUMPDEST PUSH1 0x1 PUSH1 0x1 PUSH1 0xA0 SHL SUB DUP7 AND PUSH1 0x0 DUP2 DUP2 MSTORE PUSH1 0xE PUSH1 0x20 MSTORE PUSH1 0x40 SWAP1 DUP2 SWAP1 KECCAK256 DUP4 SWAP1 SSTORE MLOAD SWAP2 SWAP3 POP SWAP1 PUSH32 0xCFED57D90913B5EE1895919DCCCAFF83A9F7A842D912EF137272E5FC6123AA86 SWAP1 PUSH2 0x1DFB SWAP1 DUP6 SWAP1 PUSH2 0x5160 JUMP JUMPDEST PUSH1 0x40 MLOAD DUP1 SWAP2 SUB SWAP1 LOG2 POP POP POP POP POP JUMP JUMPDEST PUSH1 0x0 DUP1 PUSH1 0x0 DUP1 PUSH1 0x0 DUP1 PUSH2 0x1E1B PUSH2 0x2F90 JUMP JUMPDEST SWAP4 POP SWAP4 POP SWAP4 POP SWAP4 POP DUP1 TIMESTAMP LT ISZERO PUSH2 0x1E6E JUMPI PUSH1 0x1 SWAP5 POP DUP4 DUP4 GT ISZERO PUSH2 0x1E52 JUMPI DUP2 DUP2 SUB DUP3 TIMESTAMP SUB DUP6 DUP6 SUB MUL DUP2 PUSH2 0x1E48 JUMPI INVALID JUMPDEST DIV DUP5 ADD SWAP6 POP PUSH2 0x1E69 JUMP JUMPDEST DUP2 DUP2 SUB DUP3 TIMESTAMP SUB DUP5 DUP7 SUB MUL DUP2 PUSH2 0x1E63 JUMPI INVALID JUMPDEST DIV DUP5 SUB SWAP6 POP JUMPDEST PUSH2 0x1E76 JUMP JUMPDEST PUSH1 0x0 SWAP5 POP DUP3 SWAP6 POP JUMPDEST POP POP POP POP SWAP1 SWAP2 JUMP JUMPDEST PUSH1 0x0 PUSH2 0x1E8D DUP3 ISZERO ISZERO PUSH1 0x4 PUSH2 0x15BA JUMP JUMPDEST DUP3 PUSH2 0x1E9A JUMPI POP PUSH1 0x0 PUSH2 0x74A JUMP JUMPDEST DUP2 PUSH1 0x1 DUP5 SUB DUP2 PUSH2 0x1EA6 JUMPI INVALID JUMPDEST DIV PUSH1 0x1 ADD SWAP1 POP PUSH2 0x74A JUMP JUMPDEST PUSH2 0x1EBD DUP5 DUP5 DUP5 DUP5 PUSH2 0x2FE7 JUMP JUMPDEST PUSH32 0x1835882EE7A34AC194F717A35E09BB1D24C82A3B9D854AB6C9749525B714CDF2 DUP5 DUP5 DUP5 DUP5 PUSH1 0x40 MLOAD PUSH2 0x1EF2 SWAP5 SWAP4 SWAP3 SWAP2 SWAP1 PUSH2 0x529C JUMP JUMPDEST PUSH1 0x40 MLOAD DUP1 SWAP2 SUB SWAP1 LOG1 POP POP POP POP JUMP JUMPDEST PUSH1 0x0 PUSH32 0x0 PUSH32 0x0 PUSH32 0x0 PUSH2 0x1F6D PUSH2 0x3043 JUMP JUMPDEST ADDRESS PUSH1 0x40 MLOAD PUSH1 0x20 ADD PUSH2 0x1F82 SWAP6 SWAP5 SWAP4 SWAP3 SWAP2 SWAP1 PUSH2 0x51BC JUMP JUMPDEST PUSH1 0x40 MLOAD PUSH1 0x20 DUP2 DUP4 SUB SUB DUP2 MSTORE SWAP1 PUSH1 0x40 MSTORE DUP1 MLOAD SWAP1 PUSH1 0x20 ADD KECCAK256 SWAP1 POP SWAP1 JUMP JUMPDEST PUSH2 0x1320 PUSH2 0x1FA8 PUSH2 0x19E7 JUMP JUMPDEST PUSH2 0x192 PUSH2 0x15BA JUMP JUMPDEST PUSH2 0x1FC3 PUSH5 0xE8D4A51000 DUP3 LT ISZERO PUSH1 0xCB PUSH2 0x15BA JUMP JUMPDEST PUSH2 0x1FD9 PUSH8 0x16345785D8A0000 DUP3 GT ISZERO PUSH1 0xCA PUSH2 0x15BA JUMP JUMPDEST PUSH1 0x8 SLOAD PUSH2 0x1FE8 SWAP1 DUP3 PUSH1 0xC0 PUSH2 0x1530 JUMP JUMPDEST PUSH1 0x8 SSTORE PUSH1 0x40 MLOAD PUSH32 0xA9BA3FFE0B6C366B81232CAAB38605A0699AD5398D6CCE76F91EE809E322DAFC SWAP1 PUSH2 0x19DC SWAP1 DUP4 SWAP1 PUSH2 0x5160 JUMP JUMPDEST PUSH1 0x0 DUP3 DUP3 ADD PUSH2 0xA1D DUP5 DUP3 LT ISZERO DUP4 PUSH2 0x15BA JUMP JUMPDEST PUSH1 0x0 PUSH2 0x2037 PUSH2 0xB8B JUMP JUMPDEST SWAP1 POP PUSH1 0x0 PUSH2 0x2043 PUSH2 0xFA6 JUMP JUMPDEST PUSH1 0x1 PUSH1 0x1 PUSH1 0xA0 SHL SUB AND PUSH4 0xB05F8E48 DUP4 DUP7 PUSH1 0x40 MLOAD DUP4 PUSH4 0xFFFFFFFF AND PUSH1 0xE0 SHL DUP2 MSTORE PUSH1 0x4 ADD PUSH2 0x2070 SWAP3 SWAP2 SWAP1 PUSH2 0x5201 JUMP JUMPDEST PUSH1 0x80 PUSH1 0x40 MLOAD DUP1 DUP4 SUB DUP2 DUP7 DUP1 EXTCODESIZE ISZERO DUP1 ISZERO PUSH2 0x2088 JUMPI PUSH1 0x0 DUP1 REVERT JUMPDEST POP GAS STATICCALL ISZERO DUP1 ISZERO PUSH2 0x209C JUMPI RETURNDATASIZE PUSH1 0x0 DUP1 RETURNDATACOPY RETURNDATASIZE PUSH1 0x0 REVERT JUMPDEST POP POP POP POP PUSH1 0x40 MLOAD RETURNDATASIZE PUSH1 0x1F NOT PUSH1 0x1F DUP3 ADD AND DUP3 ADD DUP1 PUSH1 0x40 MSTORE POP DUP2 ADD SWAP1 PUSH2 0x20C0 SWAP2 SWAP1 PUSH2 0x4F9C JUMP JUMPDEST PUSH1 0x40 MLOAD PUSH4 0x639CDB5 PUSH1 0xE2 SHL DUP2 MSTORE SWAP1 SWAP5 POP PUSH1 0x1 PUSH1 0x1 PUSH1 0xA0 SHL SUB DUP6 AND SWAP4 POP PUSH4 0x18E736D4 SWAP3 POP PUSH2 0x20F4 SWAP2 POP DUP6 SWAP1 DUP8 SWAP1 PUSH1 0x4 ADD PUSH2 0x51E8 JUMP JUMPDEST PUSH1 0x0 PUSH1 0x40 MLOAD DUP1 DUP4 SUB DUP2 PUSH1 0x0 DUP8 DUP1 EXTCODESIZE ISZERO DUP1 ISZERO PUSH2 0x210E JUMPI PUSH1 0x0 DUP1 REVERT JUMPDEST POP GAS CALL ISZERO DUP1 ISZERO PUSH2 0x2122 JUMPI RETURNDATASIZE PUSH1 0x0 DUP1 RETURNDATACOPY RETURNDATASIZE PUSH1 0x0 REVERT JUMPDEST POP POP POP POP POP POP POP POP JUMP JUMPDEST PUSH1 0x0 PUSH2 0x74A DUP3 DUP3 PUSH2 0x3047 JUMP JUMPDEST SHR PUSH1 0x1 PUSH1 0x1 PUSH1 0x40 SHL SUB AND SWAP1 JUMP JUMPDEST PUSH2 0xC04 DUP2 DUP4 EQ PUSH1 0x67 PUSH2 0x15BA JUMP JUMPDEST PUSH1 0x0 PUSH1 0x60 DUP1 PUSH1 0x0 PUSH2 0x2162 DUP6 PUSH2 0x3054 JUMP JUMPDEST SWAP1 POP PUSH1 0x0 DUP2 DUP1 ISZERO PUSH2 0x216F JUMPI INVALID JUMPDEST EQ ISZERO PUSH2 0x21DB JUMPI PUSH2 0x217D PUSH2 0x306A JUMP JUMPDEST PUSH2 0x2187 DUP10 DUP7 PUSH2 0x307E JUMP JUMPDEST SWAP1 SWAP5 POP SWAP3 POP PUSH2 0x2194 PUSH2 0x15C8 JUMP JUMPDEST PUSH1 0x1 PUSH1 0x1 PUSH1 0x40 SHL SUB DUP2 GT DUP1 ISZERO PUSH2 0x21A9 JUMPI PUSH1 0x0 DUP1 REVERT JUMPDEST POP PUSH1 0x40 MLOAD SWAP1 DUP1 DUP3 MSTORE DUP1 PUSH1 0x20 MUL PUSH1 0x20 ADD DUP3 ADD PUSH1 0x40 MSTORE DUP1 ISZERO PUSH2 0x21D3 JUMPI DUP2 PUSH1 0x20 ADD PUSH1 0x20 DUP3 MUL DUP1 CALLDATASIZE DUP4 CALLDATACOPY ADD SWAP1 POP JUMPDEST POP SWAP2 POP PUSH2 0x21E6 JUMP JUMPDEST PUSH2 0x21E6 PUSH2 0x154 PUSH2 0x25E8 JUMP JUMPDEST POP SWAP9 POP SWAP9 POP SWAP9 SWAP6 POP POP POP POP POP POP JUMP JUMPDEST PUSH1 0x0 JUMPDEST PUSH2 0x2200 PUSH2 0x15C8 JUMP JUMPDEST DUP2 LT ISZERO PUSH2 0xA77 JUMPI PUSH2 0x2237 DUP4 DUP3 DUP2 MLOAD DUP2 LT PUSH2 0x2216 JUMPI INVALID JUMPDEST PUSH1 0x20 MUL PUSH1 0x20 ADD ADD MLOAD DUP4 DUP4 DUP2 MLOAD DUP2 LT PUSH2 0x222A JUMPI INVALID JUMPDEST PUSH1 0x20 MUL PUSH1 0x20 ADD ADD MLOAD PUSH2 0x30F3 JUMP JUMPDEST DUP4 DUP3 DUP2 MLOAD DUP2 LT PUSH2 0x2243 JUMPI INVALID JUMPDEST PUSH1 0x20 SWAP1 DUP2 MUL SWAP2 SWAP1 SWAP2 ADD ADD MSTORE PUSH1 0x1 ADD PUSH2 0x21F8 JUMP JUMPDEST CALLER ADDRESS EQ PUSH2 0x2314 JUMPI PUSH1 0x0 ADDRESS PUSH1 0x1 PUSH1 0x1 PUSH1 0xA0 SHL SUB AND PUSH1 0x0 CALLDATASIZE PUSH1 0x40 MLOAD PUSH2 0x227A SWAP3 SWAP2 SWAP1 PUSH2 0x5079 JUMP JUMPDEST PUSH1 0x0 PUSH1 0x40 MLOAD DUP1 DUP4 SUB DUP2 PUSH1 0x0 DUP7 GAS CALL SWAP2 POP POP RETURNDATASIZE DUP1 PUSH1 0x0 DUP2 EQ PUSH2 0x22B7 JUMPI PUSH1 0x40 MLOAD SWAP2 POP PUSH1 0x1F NOT PUSH1 0x3F RETURNDATASIZE ADD AND DUP3 ADD PUSH1 0x40 MSTORE RETURNDATASIZE DUP3 MSTORE RETURNDATASIZE PUSH1 0x0 PUSH1 0x20 DUP5 ADD RETURNDATACOPY PUSH2 0x22BC JUMP JUMPDEST PUSH1 0x60 SWAP2 POP JUMPDEST POP POP SWAP1 POP DUP1 PUSH1 0x0 DUP2 EQ PUSH2 0x22CB JUMPI INVALID JUMPDEST PUSH1 0x4 PUSH1 0x0 DUP1 RETURNDATACOPY PUSH1 0x0 MLOAD PUSH1 0x1 PUSH1 0x1 PUSH1 0xE0 SHL SUB NOT AND PUSH4 0x43ADBAFB PUSH1 0xE0 SHL DUP2 EQ PUSH2 0x22F6 JUMPI RETURNDATASIZE PUSH1 0x0 DUP1 RETURNDATACOPY RETURNDATASIZE PUSH1 0x0 REVERT JUMPDEST POP PUSH1 0x20 PUSH1 0x4 PUSH1 0x0 RETURNDATACOPY PUSH1 0x40 PUSH1 0x20 MSTORE PUSH1 0x24 RETURNDATASIZE SUB PUSH1 0x24 PUSH1 0x40 RETURNDATACOPY PUSH1 0x1C RETURNDATASIZE ADD PUSH1 0x0 RETURN JUMPDEST PUSH1 0x60 PUSH2 0x231E PUSH2 0x1604 JUMP JUMPDEST SWAP1 POP PUSH2 0x232A DUP8 DUP3 PUSH2 0x239A JUMP JUMPDEST PUSH1 0x0 PUSH1 0x60 PUSH2 0x2342 DUP13 DUP13 DUP13 DUP13 DUP13 DUP13 DUP10 DUP14 DUP14 PUSH4 0xFFFFFFFF AND JUMP JUMPDEST POP SWAP2 POP SWAP2 POP PUSH2 0x2355 DUP2 DUP5 DUP7 PUSH4 0xFFFFFFFF AND JUMP JUMPDEST DUP1 MLOAD PUSH1 0x1F NOT DUP3 ADD DUP4 SWAP1 MSTORE PUSH4 0x43ADBAFB PUSH1 0x3F NOT DUP4 ADD MSTORE PUSH1 0x20 MUL PUSH1 0x23 NOT DUP3 ADD PUSH1 0x44 DUP3 ADD DUP2 REVERT JUMPDEST PUSH1 0x0 DUP1 PUSH2 0x2385 DUP4 PUSH2 0x3144 JUMP JUMPDEST SWAP1 POP PUSH2 0xC61 PUSH2 0x2393 DUP5 PUSH2 0xC08 JUMP JUMPDEST DUP3 SWAP1 PUSH2 0x2B14 JUMP JUMPDEST PUSH1 0x0 JUMPDEST PUSH2 0x23A5 PUSH2 0x15C8 JUMP JUMPDEST DUP2 LT ISZERO PUSH2 0xA77 JUMPI PUSH2 0x23DC DUP4 DUP3 DUP2 MLOAD DUP2 LT PUSH2 0x23BB JUMPI INVALID JUMPDEST PUSH1 0x20 MUL PUSH1 0x20 ADD ADD MLOAD DUP4 DUP4 DUP2 MLOAD DUP2 LT PUSH2 0x23CF JUMPI INVALID JUMPDEST PUSH1 0x20 MUL PUSH1 0x20 ADD ADD MLOAD PUSH2 0x2B14 JUMP JUMPDEST DUP4 DUP3 DUP2 MLOAD DUP2 LT PUSH2 0x23E8 JUMPI INVALID JUMPDEST PUSH1 0x20 SWAP1 DUP2 MUL SWAP2 SWAP1 SWAP2 ADD ADD MSTORE PUSH1 0x1 ADD PUSH2 0x239D JUMP JUMPDEST PUSH1 0x0 PUSH1 0x60 PUSH1 0xC SLOAD DUP4 PUSH32 0x0 DUP2 MLOAD DUP2 LT PUSH2 0x242E JUMPI INVALID JUMPDEST PUSH1 0x20 MUL PUSH1 0x20 ADD ADD MLOAD PUSH1 0x1 PUSH1 0x1 PUSH1 0x70 SHL SUB SUB ADD SWAP2 POP PUSH1 0x1 DUP4 MLOAD SUB PUSH1 0x1 PUSH1 0x1 PUSH1 0x40 SHL SUB DUP2 GT DUP1 ISZERO PUSH2 0x245C JUMPI PUSH1 0x0 DUP1 REVERT JUMPDEST POP PUSH1 0x40 MLOAD SWAP1 DUP1 DUP3 MSTORE DUP1 PUSH1 0x20 MUL PUSH1 0x20 ADD DUP3 ADD PUSH1 0x40 MSTORE DUP1 ISZERO PUSH2 0x2486 JUMPI DUP2 PUSH1 0x20 ADD PUSH1 0x20 DUP3 MUL DUP1 CALLDATASIZE DUP4 CALLDATACOPY ADD SWAP1 POP JUMPDEST POP SWAP1 POP PUSH1 0x0 JUMPDEST DUP2 MLOAD DUP2 LT ISZERO PUSH2 0x24F9 JUMPI DUP4 PUSH32 0x0 DUP3 LT PUSH2 0x24C6 JUMPI DUP2 PUSH1 0x1 ADD PUSH2 0x24C8 JUMP JUMPDEST DUP2 JUMPDEST DUP2 MLOAD DUP2 LT PUSH2 0x24D2 JUMPI INVALID JUMPDEST PUSH1 0x20 MUL PUSH1 0x20 ADD ADD MLOAD DUP3 DUP3 DUP2 MLOAD DUP2 LT PUSH2 0x24E6 JUMPI INVALID JUMPDEST PUSH1 0x20 SWAP1 DUP2 MUL SWAP2 SWAP1 SWAP2 ADD ADD MSTORE PUSH1 0x1 ADD PUSH2 0x248C JUMP JUMPDEST POP SWAP2 POP SWAP2 JUMP JUMPDEST PUSH1 0x0 DUP1 PUSH2 0x250E DUP5 DUP7 PUSH1 0x0 PUSH2 0x323F JUMP JUMPDEST SWAP1 POP PUSH2 0x186C DUP2 DUP5 PUSH2 0x30F3 JUMP JUMPDEST PUSH2 0xC04 DUP3 DUP3 PUSH2 0x33D5 JUMP JUMPDEST PUSH1 0x0 DUP1 PUSH2 0x2530 DUP4 PUSH2 0x1D1E JUMP JUMPDEST SWAP2 POP PUSH2 0x253D DUP4 PUSH1 0xC0 PUSH2 0x2138 JUMP JUMPDEST SWAP1 POP SWAP2 POP SWAP2 JUMP JUMPDEST PUSH1 0x0 PUSH1 0x60 DUP1 PUSH1 0x0 PUSH2 0x2554 DUP6 PUSH2 0x3491 JUMP JUMPDEST SWAP1 POP PUSH1 0x1 DUP2 PUSH1 0x1 DUP2 GT ISZERO PUSH2 0x2564 JUMPI INVALID JUMPDEST EQ ISZERO PUSH2 0x21DB JUMPI PUSH2 0x2572 PUSH2 0x34A7 JUMP JUMPDEST SWAP4 POP SWAP4 POP SWAP4 POP POP SWAP9 POP SWAP9 POP SWAP9 SWAP6 POP POP POP POP POP POP JUMP JUMPDEST PUSH1 0x0 JUMPDEST PUSH2 0x2592 PUSH2 0x15C8 JUMP JUMPDEST DUP2 LT ISZERO PUSH2 0xA77 JUMPI PUSH2 0x25C9 DUP4 DUP3 DUP2 MLOAD DUP2 LT PUSH2 0x25A8 JUMPI INVALID JUMPDEST PUSH1 0x20 MUL PUSH1 0x20 ADD ADD MLOAD DUP4 DUP4 DUP2 MLOAD DUP2 LT PUSH2 0x25BC JUMPI INVALID JUMPDEST PUSH1 0x20 MUL PUSH1 0x20 ADD ADD MLOAD PUSH2 0x3589 JUMP JUMPDEST DUP4 DUP3 DUP2 MLOAD DUP2 LT PUSH2 0x25D5 JUMPI INVALID JUMPDEST PUSH1 0x20 SWAP1 DUP2 MUL SWAP2 SWAP1 SWAP2 ADD ADD MSTORE PUSH1 0x1 ADD PUSH2 0x258A JUMP JUMPDEST PUSH3 0x461BCD PUSH1 0xE5 SHL PUSH1 0x0 SWAP1 DUP2 MSTORE PUSH1 0x20 PUSH1 0x4 MSTORE PUSH1 0x7 PUSH1 0x24 MSTORE PUSH7 0x42414C23000030 PUSH1 0xA DUP1 DUP5 DIV DUP2 DUP2 MOD PUSH1 0x30 SWAP1 DUP2 ADD PUSH1 0x8 SHL SWAP6 DUP4 SWAP1 MOD SWAP6 SWAP1 SWAP6 ADD SWAP1 DUP3 SWAP1 DIV SWAP2 DUP3 MOD SWAP1 SWAP5 ADD PUSH1 0x10 SHL SWAP4 SWAP1 SWAP4 ADD ADD PUSH1 0xC8 SHL PUSH1 0x44 MSTORE PUSH1 0x64 SWAP1 REVERT JUMPDEST PUSH1 0x0 PUSH2 0x2645 PUSH2 0xFA6 JUMP JUMPDEST PUSH1 0x1 PUSH1 0x1 PUSH1 0xA0 SHL SUB AND PUSH4 0xAAABADC5 PUSH1 0x40 MLOAD DUP2 PUSH4 0xFFFFFFFF AND PUSH1 0xE0 SHL DUP2 MSTORE PUSH1 0x4 ADD PUSH1 0x20 PUSH1 0x40 MLOAD DUP1 DUP4 SUB DUP2 DUP7 DUP1 EXTCODESIZE ISZERO DUP1 ISZERO PUSH2 0x267D JUMPI PUSH1 0x0 DUP1 REVERT JUMPDEST POP GAS STATICCALL ISZERO DUP1 ISZERO PUSH2 0x2691 JUMPI RETURNDATASIZE PUSH1 0x0 DUP1 RETURNDATACOPY RETURNDATASIZE PUSH1 0x0 REVERT JUMPDEST POP POP POP POP PUSH1 0x40 MLOAD RETURNDATASIZE PUSH1 0x1F NOT PUSH1 0x1F DUP3 ADD AND DUP3 ADD DUP1 PUSH1 0x40 MSTORE POP DUP2 ADD SWAP1 PUSH2 0x69D SWAP2 SWAP1 PUSH2 0x4D80 JUMP JUMPDEST PUSH1 0x0 PUSH2 0x26BF PUSH2 0x1F00 JUMP JUMPDEST DUP3 PUSH1 0x40 MLOAD PUSH1 0x20 ADD PUSH2 0xF39 SWAP3 SWAP2 SWAP1 PUSH2 0x5089 JUMP JUMPDEST PUSH1 0x0 PUSH1 0x60 PUSH2 0x26DD PUSH2 0x1F9D JUMP JUMPDEST PUSH1 0x0 PUSH2 0x26E8 DUP5 PUSH2 0x3491 JUMP JUMPDEST SWAP1 POP PUSH2 0x2703 PUSH1 0x0 DUP3 PUSH1 0x1 DUP2 GT ISZERO PUSH2 0x26FB JUMPI INVALID JUMPDEST EQ PUSH1 0xCE PUSH2 0x15BA JUMP JUMPDEST PUSH1 0x60 PUSH2 0x270E DUP6 PUSH2 0x35D7 JUMP JUMPDEST SWAP1 POP PUSH2 0x271D DUP2 MLOAD PUSH2 0xC8C PUSH2 0x15C8 JUMP JUMPDEST PUSH2 0x2727 DUP2 DUP8 PUSH2 0x239A JUMP JUMPDEST PUSH1 0x0 PUSH2 0x2731 PUSH2 0x1E0A JUMP JUMPDEST POP SWAP1 POP PUSH1 0x60 PUSH2 0x273F DUP4 PUSH2 0x23FB JUMP JUMPDEST SWAP2 POP POP PUSH1 0x0 PUSH2 0x2750 DUP4 DUP4 PUSH1 0x1 PUSH2 0x323F JUMP JUMPDEST SWAP1 POP DUP1 PUSH1 0x0 PUSH2 0x2766 PUSH1 0x1 PUSH1 0x1 PUSH1 0x70 SHL SUB DUP4 PUSH2 0x1545 JUMP JUMPDEST SWAP1 POP PUSH2 0x2772 DUP14 DUP3 PUSH2 0x27BD JUMP JUMPDEST DUP1 DUP7 PUSH32 0x0 DUP2 MLOAD DUP2 LT PUSH2 0x279F JUMPI INVALID JUMPDEST PUSH1 0x20 SWAP1 DUP2 MUL SWAP2 SWAP1 SWAP2 ADD ADD MSTORE POP SWAP13 SWAP4 SWAP12 POP SWAP3 SWAP10 POP POP POP POP POP POP POP POP POP POP JUMP JUMPDEST PUSH2 0xC04 DUP3 DUP3 PUSH2 0x35ED JUMP JUMPDEST PUSH1 0x0 DUP2 PUSH1 0x1 PUSH1 0x1 PUSH1 0xA0 SHL SUB AND PUSH4 0xD2946C2B PUSH1 0x40 MLOAD DUP2 PUSH4 0xFFFFFFFF AND PUSH1 0xE0 SHL DUP2 MSTORE PUSH1 0x4 ADD PUSH1 0x20 PUSH1 0x40 MLOAD DUP1 DUP4 SUB DUP2 DUP7 DUP1 EXTCODESIZE ISZERO DUP1 ISZERO PUSH2 0x2802 JUMPI PUSH1 0x0 DUP1 REVERT JUMPDEST POP GAS STATICCALL ISZERO DUP1 ISZERO PUSH2 0x2816 JUMPI RETURNDATASIZE PUSH1 0x0 DUP1 RETURNDATACOPY RETURNDATASIZE PUSH1 0x0 REVERT JUMPDEST POP POP POP POP PUSH1 0x40 MLOAD RETURNDATASIZE PUSH1 0x1F NOT PUSH1 0x1F DUP3 ADD AND DUP3 ADD DUP1 PUSH1 0x40 MSTORE POP DUP2 ADD SWAP1 PUSH2 0x283A SWAP2 SWAP1 PUSH2 0x4D80 JUMP JUMPDEST PUSH1 0x1 PUSH1 0x1 PUSH1 0xA0 SHL SUB AND PUSH4 0x55C67628 PUSH1 0x40 MLOAD DUP2 PUSH4 0xFFFFFFFF AND PUSH1 0xE0 SHL DUP2 MSTORE PUSH1 0x4 ADD PUSH1 0x20 PUSH1 0x40 MLOAD DUP1 DUP4 SUB DUP2 DUP7 DUP1 EXTCODESIZE ISZERO DUP1 ISZERO PUSH2 0x2872 JUMPI PUSH1 0x0 DUP1 REVERT JUMPDEST POP GAS STATICCALL ISZERO DUP1 ISZERO PUSH2 0x2886 JUMPI RETURNDATASIZE PUSH1 0x0 DUP1 RETURNDATACOPY RETURNDATASIZE PUSH1 0x0 REVERT JUMPDEST POP POP POP POP PUSH1 0x40 MLOAD RETURNDATASIZE PUSH1 0x1F NOT PUSH1 0x1F DUP3 ADD AND DUP3 ADD DUP1 PUSH1 0x40 MSTORE POP DUP2 ADD SWAP1 PUSH2 0x28AA SWAP2 SWAP1 PUSH2 0x4F63 JUMP JUMPDEST SWAP1 POP DUP1 PUSH1 0xD DUP2 SWAP1 SSTORE POP PUSH32 0x6E4E298B4A98488A054248CFB63661894B93FB9FD398CC9ECA58E39215954EB7 DUP2 PUSH1 0x40 MLOAD PUSH2 0x28E2 SWAP2 SWAP1 PUSH2 0x5160 JUMP JUMPDEST PUSH1 0x40 MLOAD DUP1 SWAP2 SUB SWAP1 LOG1 POP POP JUMP JUMPDEST PUSH1 0x1 PUSH1 0x1 PUSH1 0xA0 SHL SUB SWAP2 DUP3 AND PUSH1 0x0 SWAP1 DUP2 MSTORE PUSH1 0x1 PUSH1 0x20 SWAP1 DUP2 MSTORE PUSH1 0x40 DUP1 DUP4 KECCAK256 SWAP4 SWAP1 SWAP5 AND DUP3 MSTORE SWAP2 SWAP1 SWAP2 MSTORE KECCAK256 SLOAD SWAP1 JUMP JUMPDEST PUSH1 0x0 PUSH2 0x74A PUSH1 0xC SLOAD PUSH2 0x2933 DUP5 PUSH2 0x292D PUSH2 0x764 JUMP JUMPDEST SWAP1 PUSH2 0x1545 JUMP JUMPDEST SWAP1 PUSH2 0x201B JUMP JUMPDEST PUSH2 0x2945 DUP2 DUP3 TIMESTAMP TIMESTAMP PUSH2 0x2FE7 JUMP JUMPDEST PUSH32 0xA0D01593E47E69D07E0CCD87BECE09411E07DD1ED40CA8F2E7AF2976542A0233 DUP2 PUSH1 0x40 MLOAD PUSH2 0x19DC SWAP2 SWAP1 PUSH2 0x5160 JUMP JUMPDEST PUSH1 0x2 DUP2 MLOAD LT ISZERO PUSH2 0x2983 JUMPI PUSH2 0x761 JUMP JUMPDEST PUSH1 0x0 DUP2 PUSH1 0x0 DUP2 MLOAD DUP2 LT PUSH2 0x2992 JUMPI INVALID JUMPDEST PUSH1 0x20 MUL PUSH1 0x20 ADD ADD MLOAD SWAP1 POP PUSH1 0x0 PUSH1 0x1 SWAP1 POP JUMPDEST DUP3 MLOAD DUP2 LT ISZERO PUSH2 0xA77 JUMPI PUSH1 0x0 DUP4 DUP3 DUP2 MLOAD DUP2 LT PUSH2 0x29BA JUMPI INVALID JUMPDEST PUSH1 0x20 MUL PUSH1 0x20 ADD ADD MLOAD SWAP1 POP PUSH2 0x29E3 DUP2 PUSH1 0x1 PUSH1 0x1 PUSH1 0xA0 SHL SUB AND DUP5 PUSH1 0x1 PUSH1 0x1 PUSH1 0xA0 SHL SUB AND LT PUSH1 0x65 PUSH2 0x15BA JUMP JUMPDEST SWAP2 POP PUSH1 0x1 ADD PUSH2 0x29A3 JUMP JUMPDEST PUSH1 0x60 PUSH1 0x0 PUSH2 0x29F9 PUSH2 0x15C8 JUMP JUMPDEST SWAP1 POP PUSH1 0x60 DUP2 PUSH1 0x1 PUSH1 0x1 PUSH1 0x40 SHL SUB DUP2 GT DUP1 ISZERO PUSH2 0x2A13 JUMPI PUSH1 0x0 DUP1 REVERT JUMPDEST POP PUSH1 0x40 MLOAD SWAP1 DUP1 DUP3 MSTORE DUP1 PUSH1 0x20 MUL PUSH1 0x20 ADD DUP3 ADD PUSH1 0x40 MSTORE DUP1 ISZERO PUSH2 0x2A3D JUMPI DUP2 PUSH1 0x20 ADD PUSH1 0x20 DUP3 MUL DUP1 CALLDATASIZE DUP4 CALLDATACOPY ADD SWAP1 POP JUMPDEST POP SWAP1 POP PUSH2 0x2A48 PUSH2 0x367B JUMP JUMPDEST DUP2 PUSH1 0x0 DUP2 MLOAD DUP2 LT PUSH2 0x2A55 JUMPI INVALID JUMPDEST PUSH1 0x20 MUL PUSH1 0x20 ADD ADD DUP2 DUP2 MSTORE POP POP PUSH2 0x2A69 PUSH2 0x369F JUMP JUMPDEST DUP2 PUSH1 0x1 DUP2 MLOAD DUP2 LT PUSH2 0x2A76 JUMPI INVALID JUMPDEST PUSH1 0x20 MUL PUSH1 0x20 ADD ADD DUP2 DUP2 MSTORE POP POP PUSH1 0x2 DUP3 GT ISZERO PUSH2 0x2AB1 JUMPI PUSH2 0x2A93 PUSH2 0x36C3 JUMP JUMPDEST DUP2 PUSH1 0x2 DUP2 MLOAD DUP2 LT PUSH2 0x2AA0 JUMPI INVALID JUMPDEST PUSH1 0x20 MUL PUSH1 0x20 ADD ADD DUP2 DUP2 MSTORE POP POP PUSH2 0x2ABA JUMP JUMPDEST SWAP2 POP PUSH2 0x6A0 SWAP1 POP JUMP JUMPDEST PUSH1 0x3 DUP3 GT ISZERO PUSH2 0x2AB1 JUMPI PUSH2 0x2ACB PUSH2 0x36E7 JUMP JUMPDEST DUP2 PUSH1 0x3 DUP2 MLOAD DUP2 LT PUSH2 0x2AD8 JUMPI INVALID JUMPDEST PUSH1 0x20 MUL PUSH1 0x20 ADD ADD DUP2 DUP2 MSTORE POP POP PUSH1 0x4 DUP3 GT ISZERO PUSH2 0x2AB1 JUMPI PUSH2 0x2AF5 PUSH2 0x370B JUMP JUMPDEST DUP2 PUSH1 0x4 DUP2 MLOAD DUP2 LT PUSH2 0x2B02 JUMPI INVALID JUMPDEST PUSH1 0x20 MUL PUSH1 0x20 ADD ADD DUP2 DUP2 MSTORE POP POP SWAP2 POP POP SWAP1 JUMP JUMPDEST PUSH1 0x0 DUP3 DUP3 MUL PUSH2 0x2B2E DUP5 ISZERO DUP1 PUSH2 0x1511 JUMPI POP DUP4 DUP6 DUP4 DUP2 PUSH2 0x150E JUMPI INVALID JUMPDEST PUSH8 0xDE0B6B3A7640000 SWAP1 DIV SWAP4 SWAP3 POP POP POP JUMP JUMPDEST PUSH1 0x0 PUSH2 0xA1D DUP4 DUP4 PUSH2 0x2B14 JUMP JUMPDEST PUSH1 0x0 PUSH2 0x2B56 PUSH2 0x1F9D JUMP JUMPDEST PUSH2 0x2B5E PUSH2 0x372F JUMP JUMPDEST PUSH1 0xD SLOAD PUSH1 0x0 PUSH1 0x60 PUSH2 0x2B6E DUP8 PUSH2 0x23FB JUMP JUMPDEST PUSH1 0x20 DUP11 ADD MLOAD SWAP2 SWAP4 POP SWAP2 POP PUSH1 0x1 PUSH1 0x1 PUSH1 0xA0 SHL SUB AND ADDRESS EQ ISZERO PUSH2 0x2BB7 JUMPI PUSH2 0x2BA0 DUP9 PUSH1 0x60 ADD MLOAD PUSH2 0x2B99 DUP8 PUSH2 0x3842 JUMP JUMPDEST DUP5 DUP5 PUSH2 0x387B JUMP JUMPDEST SWAP4 POP DUP3 ISZERO PUSH2 0x2BB2 JUMPI PUSH2 0x2BB2 DUP5 DUP5 PUSH2 0x38FF JUMP JUMPDEST PUSH2 0x2CFC JUMP JUMPDEST PUSH1 0x40 DUP9 ADD MLOAD PUSH1 0x1 PUSH1 0x1 PUSH1 0xA0 SHL SUB AND ADDRESS EQ ISZERO PUSH2 0x2BFA JUMPI PUSH2 0x2BE4 DUP9 PUSH1 0x60 ADD MLOAD PUSH2 0x2BDD DUP9 PUSH2 0x3842 JUMP JUMPDEST DUP5 DUP5 PUSH2 0x395F JUMP JUMPDEST SWAP4 POP DUP3 ISZERO PUSH2 0x2BB2 JUMPI PUSH2 0x2BB2 DUP9 PUSH1 0x60 ADD MLOAD DUP5 PUSH2 0x38FF JUMP JUMPDEST PUSH1 0x0 PUSH2 0x2C04 PUSH2 0x1E0A JUMP JUMPDEST POP SWAP1 POP PUSH1 0x0 PUSH2 0x2C15 DUP3 DUP5 PUSH1 0x1 PUSH2 0x323F JUMP JUMPDEST SWAP1 POP PUSH2 0x2C39 DUP3 DUP5 PUSH2 0x2C25 DUP12 PUSH2 0x3842 JUMP JUMPDEST PUSH2 0x2C2E DUP12 PUSH2 0x3842 JUMP JUMPDEST DUP15 PUSH1 0x60 ADD MLOAD DUP7 PUSH2 0x3986 JUMP JUMPDEST SWAP6 POP DUP5 ISZERO PUSH2 0x2CF9 JUMPI PUSH1 0x0 PUSH2 0x2C4C DUP10 PUSH2 0x3842 JUMP JUMPDEST SWAP1 POP PUSH1 0x0 PUSH2 0x2C59 DUP10 PUSH2 0x3842 JUMP JUMPDEST SWAP1 POP PUSH1 0x0 PUSH2 0x2C66 DUP10 PUSH2 0x2D13 JUMP JUMPDEST SWAP1 POP PUSH2 0x2C8E DUP2 DUP8 DUP6 DUP2 MLOAD DUP2 LT PUSH2 0x2C78 JUMPI INVALID JUMPDEST PUSH1 0x20 MUL PUSH1 0x20 ADD ADD MLOAD PUSH2 0x201B SWAP1 SWAP2 SWAP1 PUSH4 0xFFFFFFFF AND JUMP JUMPDEST DUP7 DUP5 DUP2 MLOAD DUP2 LT PUSH2 0x2C9A JUMPI INVALID JUMPDEST PUSH1 0x20 MUL PUSH1 0x20 ADD ADD DUP2 DUP2 MSTORE POP POP PUSH2 0x2CD0 DUP14 PUSH1 0x60 ADD MLOAD DUP8 DUP5 DUP2 MLOAD DUP2 LT PUSH2 0x2CBA JUMPI INVALID JUMPDEST PUSH1 0x20 MUL PUSH1 0x20 ADD ADD MLOAD PUSH2 0x1545 SWAP1 SWAP2 SWAP1 PUSH4 0xFFFFFFFF AND JUMP JUMPDEST DUP7 DUP4 DUP2 MLOAD DUP2 LT PUSH2 0x2CDC JUMPI INVALID JUMPDEST PUSH1 0x20 MUL PUSH1 0x20 ADD ADD DUP2 DUP2 MSTORE POP POP PUSH2 0x2CF5 DUP5 DUP7 DUP9 DUP11 DUP13 PUSH2 0x3A25 JUMP JUMPDEST POP POP POP JUMPDEST POP POP JUMPDEST POP POP POP SWAP5 SWAP4 POP POP POP POP JUMP JUMPDEST PUSH1 0x0 PUSH2 0xA1D DUP4 DUP4 PUSH2 0x3589 JUMP JUMPDEST PUSH1 0x0 PUSH2 0x74A PUSH2 0x2D32 PUSH2 0x2D23 PUSH2 0xC6A JUMP JUMPDEST PUSH8 0xDE0B6B3A7640000 SWAP1 PUSH2 0x1545 JUMP JUMPDEST DUP4 SWAP1 PUSH2 0x3589 JUMP JUMPDEST PUSH1 0x0 DUP1 PUSH2 0x2D4E PUSH2 0x2D47 PUSH2 0xC6A JUMP JUMPDEST DUP5 SWAP1 PUSH2 0x3AD0 JUMP JUMPDEST SWAP1 POP PUSH2 0xC61 DUP4 DUP3 PUSH2 0x1545 JUMP JUMPDEST PUSH1 0x0 PUSH2 0x2D64 PUSH2 0x1F9D JUMP JUMPDEST PUSH2 0x2D6C PUSH2 0x372F JUMP JUMPDEST PUSH1 0xD SLOAD PUSH1 0x0 PUSH1 0x60 PUSH2 0x2D7C DUP8 PUSH2 0x23FB JUMP JUMPDEST PUSH1 0x20 DUP11 ADD MLOAD SWAP2 SWAP4 POP SWAP2 POP PUSH1 0x1 PUSH1 0x1 PUSH1 0xA0 SHL SUB AND ADDRESS EQ ISZERO PUSH2 0x2DAE JUMPI PUSH2 0x2BE4 DUP9 PUSH1 0x60 ADD MLOAD PUSH2 0x2DA7 DUP8 PUSH2 0x3842 JUMP JUMPDEST DUP5 DUP5 PUSH2 0x3B13 JUMP JUMPDEST PUSH1 0x40 DUP9 ADD MLOAD PUSH1 0x1 PUSH1 0x1 PUSH1 0xA0 SHL SUB AND ADDRESS EQ ISZERO PUSH2 0x2DDB JUMPI PUSH2 0x2BA0 DUP9 PUSH1 0x60 ADD MLOAD PUSH2 0x2DD4 DUP9 PUSH2 0x3842 JUMP JUMPDEST DUP5 DUP5 PUSH2 0x3B30 JUMP JUMPDEST PUSH1 0x0 PUSH2 0x2DE5 PUSH2 0x1E0A JUMP JUMPDEST POP SWAP1 POP PUSH1 0x0 PUSH2 0x2DF6 DUP3 DUP5 PUSH1 0x1 PUSH2 0x323F JUMP JUMPDEST SWAP1 POP PUSH2 0x2E1A DUP3 DUP5 PUSH2 0x2E06 DUP12 PUSH2 0x3842 JUMP JUMPDEST PUSH2 0x2E0F DUP12 PUSH2 0x3842 JUMP JUMPDEST DUP15 PUSH1 0x60 ADD MLOAD DUP7 PUSH2 0x3BB5 JUMP JUMPDEST SWAP6 POP DUP5 ISZERO PUSH2 0x2CF9 JUMPI PUSH1 0x0 PUSH2 0x2E2D DUP10 PUSH2 0x3842 JUMP JUMPDEST SWAP1 POP PUSH1 0x0 PUSH2 0x2E3A DUP10 PUSH2 0x3842 JUMP JUMPDEST SWAP1 POP PUSH1 0x0 PUSH2 0x2E4B DUP14 PUSH1 0x60 ADD MLOAD PUSH2 0x2D13 JUMP JUMPDEST SWAP1 POP PUSH2 0x2E5D DUP2 DUP8 DUP6 DUP2 MLOAD DUP2 LT PUSH2 0x2C78 JUMPI INVALID JUMPDEST DUP7 DUP5 DUP2 MLOAD DUP2 LT PUSH2 0x2E69 JUMPI INVALID JUMPDEST PUSH1 0x20 MUL PUSH1 0x20 ADD ADD DUP2 DUP2 MSTORE POP POP PUSH2 0x2CD0 DUP10 DUP8 DUP5 DUP2 MLOAD DUP2 LT PUSH2 0x2CBA JUMPI INVALID JUMPDEST PUSH1 0x0 PUSH2 0xA1D DUP4 DUP4 PUSH2 0x30F3 JUMP JUMPDEST PUSH1 0x0 PUSH20 0xBA1BA1BA1BA1BA1BA1BA1BA1BA1BA1BA1BA1BA1B PUSH2 0x2EB0 PUSH2 0xF7C JUMP JUMPDEST PUSH1 0x1 PUSH1 0x1 PUSH1 0xA0 SHL SUB AND EQ ISZERO DUP1 ISZERO PUSH2 0x2ECB JUMPI POP PUSH2 0x2ECB DUP4 PUSH2 0x3C32 JUMP JUMPDEST ISZERO PUSH2 0x2EF3 JUMPI PUSH2 0x2ED8 PUSH2 0xF7C JUMP JUMPDEST PUSH1 0x1 PUSH1 0x1 PUSH1 0xA0 SHL SUB AND CALLER PUSH1 0x1 PUSH1 0x1 PUSH1 0xA0 SHL SUB AND EQ SWAP1 POP PUSH2 0x74A JUMP JUMPDEST PUSH2 0x2EFB PUSH2 0x263B JUMP JUMPDEST PUSH1 0x1 PUSH1 0x1 PUSH1 0xA0 SHL SUB AND PUSH4 0x9BE2A884 DUP5 DUP5 ADDRESS PUSH1 0x40 MLOAD DUP5 PUSH4 0xFFFFFFFF AND PUSH1 0xE0 SHL DUP2 MSTORE PUSH1 0x4 ADD PUSH2 0x2F2A SWAP4 SWAP3 SWAP2 SWAP1 PUSH2 0x5169 JUMP JUMPDEST PUSH1 0x20 PUSH1 0x40 MLOAD DUP1 DUP4 SUB DUP2 DUP7 DUP1 EXTCODESIZE ISZERO DUP1 ISZERO PUSH2 0x2F42 JUMPI PUSH1 0x0 DUP1 REVERT JUMPDEST POP GAS STATICCALL ISZERO DUP1 ISZERO PUSH2 0x2F56 JUMPI RETURNDATASIZE PUSH1 0x0 DUP1 RETURNDATACOPY RETURNDATASIZE PUSH1 0x0 REVERT JUMPDEST POP POP POP POP PUSH1 0x40 MLOAD RETURNDATASIZE PUSH1 0x1F NOT PUSH1 0x1F DUP3 ADD AND DUP3 ADD DUP1 PUSH1 0x40 MSTORE POP DUP2 ADD SWAP1 PUSH2 0x1358 SWAP2 SWAP1 PUSH2 0x4C9A JUMP JUMPDEST PUSH1 0x0 PUSH2 0x2F89 DUP5 DUP5 GT ISZERO DUP4 PUSH2 0x15BA JUMP JUMPDEST POP POP SWAP1 SUB SWAP1 JUMP JUMPDEST PUSH1 0x0 DUP1 PUSH1 0x0 DUP1 PUSH2 0x2FAC PUSH1 0x0 PUSH1 0x9 SLOAD PUSH2 0x2138 SWAP1 SWAP2 SWAP1 PUSH4 0xFFFFFFFF AND JUMP JUMPDEST PUSH1 0x9 SLOAD SWAP1 SWAP5 POP PUSH2 0x2FBD SWAP1 PUSH1 0x40 PUSH2 0x2138 JUMP JUMPDEST PUSH1 0x9 SLOAD SWAP1 SWAP4 POP PUSH2 0x2FCE SWAP1 PUSH1 0x80 PUSH2 0x2138 JUMP JUMPDEST PUSH1 0x9 SLOAD SWAP1 SWAP3 POP PUSH2 0x2FDF SWAP1 PUSH1 0xC0 PUSH2 0x2138 JUMP JUMPDEST SWAP1 POP SWAP1 SWAP2 SWAP3 SWAP4 JUMP JUMPDEST PUSH2 0x2FFB DUP2 PUSH1 0x1 PUSH1 0x1 PUSH1 0x40 SHL SUB AND PUSH1 0xC0 PUSH2 0x15B6 JUMP JUMPDEST PUSH2 0x300F DUP4 PUSH1 0x1 PUSH1 0x1 PUSH1 0x40 SHL SUB AND PUSH1 0x80 PUSH2 0x15B6 JUMP JUMPDEST PUSH2 0x3023 DUP6 PUSH1 0x1 PUSH1 0x1 PUSH1 0x40 SHL SUB AND PUSH1 0x40 PUSH2 0x15B6 JUMP JUMPDEST PUSH2 0x3037 DUP8 PUSH1 0x1 PUSH1 0x1 PUSH1 0x40 SHL SUB AND PUSH1 0x0 PUSH2 0x15B6 JUMP JUMPDEST OR OR OR PUSH1 0x9 SSTORE POP POP POP POP JUMP JUMPDEST CHAINID SWAP1 JUMP JUMPDEST SHR PUSH1 0x1 PUSH1 0x1 PUSH1 0x80 SHL SUB AND SWAP1 JUMP JUMPDEST PUSH1 0x0 DUP2 DUP1 PUSH1 0x20 ADD SWAP1 MLOAD DUP2 ADD SWAP1 PUSH2 0x74A SWAP2 SWAP1 PUSH2 0x4DE9 JUMP JUMPDEST PUSH2 0x1320 PUSH2 0x3075 PUSH2 0x19E7 JUMP JUMPDEST ISZERO PUSH2 0x1AF PUSH2 0x15BA JUMP JUMPDEST PUSH1 0x0 PUSH1 0x60 DUP1 PUSH2 0x308C DUP6 PUSH2 0x23FB JUMP JUMPDEST SWAP2 POP POP PUSH1 0x0 PUSH2 0x309A DUP6 PUSH2 0x3C55 JUMP JUMPDEST SWAP1 POP PUSH1 0x60 PUSH2 0x30D7 DUP4 DUP4 PUSH2 0x30D2 DUP11 PUSH32 0x0 DUP2 MLOAD DUP2 LT PUSH2 0x1424 JUMPI INVALID JUMPDEST PUSH2 0x3C6B JUMP JUMPDEST SWAP1 POP DUP2 PUSH2 0x30E5 DUP3 PUSH1 0x0 PUSH2 0x3D06 JUMP JUMPDEST SWAP5 POP SWAP5 POP POP POP POP SWAP3 POP SWAP3 SWAP1 POP JUMP JUMPDEST PUSH1 0x0 PUSH2 0x3102 DUP3 ISZERO ISZERO PUSH1 0x4 PUSH2 0x15BA JUMP JUMPDEST DUP3 PUSH2 0x310F JUMPI POP PUSH1 0x0 PUSH2 0x74A JUMP JUMPDEST PUSH8 0xDE0B6B3A7640000 DUP4 DUP2 MUL SWAP1 PUSH2 0x3132 SWAP1 DUP6 DUP4 DUP2 PUSH2 0x3129 JUMPI INVALID JUMPDEST DIV EQ PUSH1 0x5 PUSH2 0x15BA JUMP JUMPDEST DUP3 DUP2 DUP2 PUSH2 0x313B JUMPI INVALID JUMPDEST DIV SWAP2 POP POP PUSH2 0x74A JUMP JUMPDEST PUSH1 0x0 PUSH2 0x314F DUP3 PUSH2 0x3DED JUMP JUMPDEST ISZERO PUSH2 0x3163 JUMPI PUSH2 0x315C PUSH2 0x367B JUMP JUMPDEST SWAP1 POP PUSH2 0xC65 JUMP JUMPDEST PUSH2 0x316C DUP3 PUSH2 0x3E1F JUMP JUMPDEST ISZERO PUSH2 0x3179 JUMPI PUSH2 0x315C PUSH2 0x369F JUMP JUMPDEST PUSH32 0x0 PUSH1 0x1 PUSH1 0x1 PUSH1 0xA0 SHL SUB AND DUP3 PUSH1 0x1 PUSH1 0x1 PUSH1 0xA0 SHL SUB AND EQ ISZERO PUSH2 0x31BB JUMPI PUSH2 0x315C PUSH2 0x36C3 JUMP JUMPDEST PUSH32 0x0 PUSH1 0x1 PUSH1 0x1 PUSH1 0xA0 SHL SUB AND DUP3 PUSH1 0x1 PUSH1 0x1 PUSH1 0xA0 SHL SUB AND EQ ISZERO PUSH2 0x31FD JUMPI PUSH2 0x315C PUSH2 0x36E7 JUMP JUMPDEST PUSH32 0x0 PUSH1 0x1 PUSH1 0x1 PUSH1 0xA0 SHL SUB AND DUP3 PUSH1 0x1 PUSH1 0x1 PUSH1 0xA0 SHL SUB AND EQ ISZERO PUSH2 0x1D13 JUMPI PUSH2 0x315C PUSH2 0x370B JUMP JUMPDEST DUP2 MLOAD PUSH1 0x0 SWAP1 DUP2 SWAP1 DUP2 JUMPDEST DUP2 DUP2 LT ISZERO PUSH2 0x3280 JUMPI PUSH2 0x3276 DUP7 DUP3 DUP2 MLOAD DUP2 LT PUSH2 0x325F JUMPI INVALID JUMPDEST PUSH1 0x20 MUL PUSH1 0x20 ADD ADD MLOAD DUP5 PUSH2 0x201B SWAP1 SWAP2 SWAP1 PUSH4 0xFFFFFFFF AND JUMP JUMPDEST SWAP3 POP PUSH1 0x1 ADD PUSH2 0x3248 JUMP JUMPDEST POP DUP2 PUSH2 0x3291 JUMPI PUSH1 0x0 SWAP3 POP POP POP PUSH2 0xA1D JUMP JUMPDEST PUSH1 0x0 DUP3 DUP8 DUP4 MUL DUP3 JUMPDEST PUSH1 0xFF DUP2 LT ISZERO PUSH2 0x33BD JUMPI PUSH1 0x0 DUP6 DUP11 PUSH1 0x0 DUP2 MLOAD DUP2 LT PUSH2 0x32B2 JUMPI INVALID JUMPDEST PUSH1 0x20 MUL PUSH1 0x20 ADD ADD MLOAD MUL SWAP1 POP PUSH1 0x0 PUSH1 0x1 SWAP1 POP JUMPDEST DUP7 DUP2 LT ISZERO PUSH2 0x3306 JUMPI PUSH2 0x32FC PUSH2 0x32F5 PUSH2 0x32EF DUP5 DUP15 DUP6 DUP2 MLOAD DUP2 LT PUSH2 0x32E2 JUMPI INVALID JUMPDEST PUSH1 0x20 MUL PUSH1 0x20 ADD ADD MLOAD PUSH2 0x14F4 JUMP JUMPDEST DUP10 PUSH2 0x14F4 JUMP JUMPDEST DUP7 DUP13 PUSH2 0x3E51 JUMP JUMPDEST SWAP2 POP PUSH1 0x1 ADD PUSH2 0x32C4 JUMP JUMPDEST POP DUP4 SWAP5 POP PUSH2 0x3373 PUSH2 0x3342 PUSH2 0x332F PUSH2 0x3326 PUSH2 0x3320 DUP8 DUP13 PUSH2 0x14F4 JUMP JUMPDEST DUP6 PUSH2 0x14F4 JUMP JUMPDEST PUSH2 0x3E8 DUP14 PUSH2 0x3E51 JUMP JUMPDEST PUSH2 0x2933 PUSH2 0x333C DUP11 DUP10 PUSH2 0x14F4 JUMP JUMPDEST DUP9 PUSH2 0x14F4 JUMP JUMPDEST PUSH2 0x336D PUSH2 0x3360 PUSH2 0x3356 PUSH2 0x3E8 DUP9 SUB DUP7 PUSH2 0x14F4 JUMP JUMPDEST PUSH2 0x3E8 DUP15 ISZERO PUSH2 0x3E51 JUMP JUMPDEST PUSH2 0x2933 DUP11 PUSH1 0x1 ADD DUP10 PUSH2 0x14F4 JUMP JUMPDEST DUP12 PUSH2 0x3E51 JUMP JUMPDEST SWAP4 POP DUP5 DUP5 GT ISZERO PUSH2 0x339B JUMPI PUSH1 0x1 DUP6 DUP6 SUB GT PUSH2 0x3396 JUMPI DUP4 SWAP8 POP POP POP POP POP POP POP POP PUSH2 0xA1D JUMP JUMPDEST PUSH2 0x33B4 JUMP JUMPDEST PUSH1 0x1 DUP5 DUP7 SUB GT PUSH2 0x33B4 JUMPI DUP4 SWAP8 POP POP POP POP POP POP POP POP PUSH2 0xA1D JUMP JUMPDEST POP PUSH1 0x1 ADD PUSH2 0x3299 JUMP JUMPDEST POP PUSH2 0x33C9 PUSH2 0x141 PUSH2 0x25E8 JUMP JUMPDEST POP POP POP POP POP SWAP4 SWAP3 POP POP POP JUMP JUMPDEST PUSH2 0x33EC PUSH1 0x1 PUSH1 0x1 PUSH1 0xA0 SHL SUB DUP4 AND ISZERO ISZERO PUSH2 0x19B PUSH2 0x15BA JUMP JUMPDEST PUSH2 0x33F8 DUP3 PUSH1 0x0 DUP4 PUSH2 0xA77 JUMP JUMPDEST PUSH1 0x1 PUSH1 0x1 PUSH1 0xA0 SHL SUB DUP3 AND PUSH1 0x0 SWAP1 DUP2 MSTORE PUSH1 0x20 DUP2 SWAP1 MSTORE PUSH1 0x40 SWAP1 KECCAK256 SLOAD PUSH2 0x341E SWAP1 DUP3 PUSH2 0x1A1 PUSH2 0x2F7A JUMP JUMPDEST PUSH1 0x1 PUSH1 0x1 PUSH1 0xA0 SHL SUB DUP4 AND PUSH1 0x0 SWAP1 DUP2 MSTORE PUSH1 0x20 DUP2 SWAP1 MSTORE PUSH1 0x40 SWAP1 KECCAK256 SSTORE PUSH1 0x2 SLOAD PUSH2 0x3444 SWAP1 DUP3 PUSH2 0x3E79 JUMP JUMPDEST PUSH1 0x2 SSTORE PUSH1 0x40 MLOAD PUSH1 0x0 SWAP1 PUSH1 0x1 PUSH1 0x1 PUSH1 0xA0 SHL SUB DUP5 AND SWAP1 PUSH32 0xDDF252AD1BE2C89B69C2B068FC378DAA952BA7F163C4A11628F55A4DF523B3EF SWAP1 PUSH2 0x3485 SWAP1 DUP6 SWAP1 PUSH2 0x5160 JUMP JUMPDEST PUSH1 0x40 MLOAD DUP1 SWAP2 SUB SWAP1 LOG3 POP POP JUMP JUMPDEST PUSH1 0x0 DUP2 DUP1 PUSH1 0x20 ADD SWAP1 MLOAD DUP2 ADD SWAP1 PUSH2 0x74A SWAP2 SWAP1 PUSH2 0x4E30 JUMP JUMPDEST PUSH1 0x0 PUSH1 0x60 DUP1 PUSH1 0x0 PUSH2 0x34B6 PUSH2 0x15C8 JUMP JUMPDEST SWAP1 POP PUSH1 0x0 SWAP4 POP DUP1 PUSH1 0x1 PUSH1 0x1 PUSH1 0x40 SHL SUB DUP2 GT DUP1 ISZERO PUSH2 0x34D2 JUMPI PUSH1 0x0 DUP1 REVERT JUMPDEST POP PUSH1 0x40 MLOAD SWAP1 DUP1 DUP3 MSTORE DUP1 PUSH1 0x20 MUL PUSH1 0x20 ADD DUP3 ADD PUSH1 0x40 MSTORE DUP1 ISZERO PUSH2 0x34FC JUMPI DUP2 PUSH1 0x20 ADD PUSH1 0x20 DUP3 MUL DUP1 CALLDATASIZE DUP4 CALLDATACOPY ADD SWAP1 POP JUMPDEST POP SWAP3 POP DUP1 PUSH1 0x1 PUSH1 0x1 PUSH1 0x40 SHL SUB DUP2 GT DUP1 ISZERO PUSH2 0x3515 JUMPI PUSH1 0x0 DUP1 REVERT JUMPDEST POP PUSH1 0x40 MLOAD SWAP1 DUP1 DUP3 MSTORE DUP1 PUSH1 0x20 MUL PUSH1 0x20 ADD DUP3 ADD PUSH1 0x40 MSTORE DUP1 ISZERO PUSH2 0x353F JUMPI DUP2 PUSH1 0x20 ADD PUSH1 0x20 DUP3 MUL DUP1 CALLDATASIZE DUP4 CALLDATACOPY ADD SWAP1 POP JUMPDEST POP SWAP2 POP PUSH1 0xC SLOAD DUP3 PUSH32 0x0 DUP2 MLOAD DUP2 LT PUSH2 0x3571 JUMPI INVALID JUMPDEST PUSH1 0x20 SWAP1 DUP2 MUL SWAP2 SWAP1 SWAP2 ADD ADD MSTORE POP PUSH1 0x0 PUSH1 0xC SSTORE SWAP2 SWAP3 SWAP1 SWAP2 SWAP1 JUMP JUMPDEST PUSH1 0x0 PUSH2 0x3598 DUP3 ISZERO ISZERO PUSH1 0x4 PUSH2 0x15BA JUMP JUMPDEST DUP3 PUSH2 0x35A5 JUMPI POP PUSH1 0x0 PUSH2 0x74A JUMP JUMPDEST PUSH8 0xDE0B6B3A7640000 DUP4 DUP2 MUL SWAP1 PUSH2 0x35BF SWAP1 DUP6 DUP4 DUP2 PUSH2 0x3129 JUMPI INVALID JUMPDEST DUP3 PUSH1 0x1 DUP3 SUB DUP2 PUSH2 0x35CB JUMPI INVALID JUMPDEST DIV PUSH1 0x1 ADD SWAP2 POP POP PUSH2 0x74A JUMP JUMPDEST PUSH1 0x60 DUP2 DUP1 PUSH1 0x20 ADD SWAP1 MLOAD DUP2 ADD SWAP1 PUSH2 0xA1D SWAP2 SWAP1 PUSH2 0x4E4C JUMP JUMPDEST PUSH2 0x35F9 PUSH1 0x0 DUP4 DUP4 PUSH2 0xA77 JUMP JUMPDEST PUSH1 0x2 SLOAD PUSH2 0x3606 SWAP1 DUP3 PUSH2 0x201B JUMP JUMPDEST PUSH1 0x2 SSTORE PUSH1 0x1 PUSH1 0x1 PUSH1 0xA0 SHL SUB DUP3 AND PUSH1 0x0 SWAP1 DUP2 MSTORE PUSH1 0x20 DUP2 SWAP1 MSTORE PUSH1 0x40 SWAP1 KECCAK256 SLOAD PUSH2 0x362C SWAP1 DUP3 PUSH2 0x201B JUMP JUMPDEST PUSH1 0x1 PUSH1 0x1 PUSH1 0xA0 SHL SUB DUP4 AND PUSH1 0x0 DUP2 DUP2 MSTORE PUSH1 0x20 DUP2 SWAP1 MSTORE PUSH1 0x40 DUP1 DUP3 KECCAK256 SWAP4 SWAP1 SWAP4 SSTORE SWAP2 MLOAD SWAP1 SWAP2 SWAP1 PUSH32 0xDDF252AD1BE2C89B69C2B068FC378DAA952BA7F163C4A11628F55A4DF523B3EF SWAP1 PUSH2 0x3485 SWAP1 DUP6 SWAP1 PUSH2 0x5160 JUMP JUMPDEST PUSH32 0x0 SWAP1 JUMP JUMPDEST PUSH32 0x0 SWAP1 JUMP JUMPDEST PUSH32 0x0 SWAP1 JUMP JUMPDEST PUSH32 0x0 SWAP1 JUMP JUMPDEST PUSH32 0x0 SWAP1 JUMP JUMPDEST PUSH1 0x0 PUSH2 0x3739 PUSH2 0x15C8 JUMP JUMPDEST SWAP1 POP DUP1 ISZERO PUSH2 0x376F JUMPI PUSH2 0x376A PUSH32 0x0 PUSH2 0x3E87 JUMP JUMPDEST PUSH2 0x3775 JUMP JUMPDEST POP PUSH2 0x1320 JUMP JUMPDEST PUSH1 0x1 DUP2 GT ISZERO PUSH2 0x376F JUMPI PUSH2 0x37A7 PUSH32 0x0 PUSH2 0x3E87 JUMP JUMPDEST PUSH1 0x2 DUP2 GT ISZERO PUSH2 0x376F JUMPI PUSH2 0x37D9 PUSH32 0x0 PUSH2 0x3E87 JUMP JUMPDEST PUSH1 0x3 DUP2 GT ISZERO PUSH2 0x376F JUMPI PUSH2 0x380B PUSH32 0x0 PUSH2 0x3E87 JUMP JUMPDEST PUSH1 0x4 DUP2 GT ISZERO PUSH2 0x376F JUMPI PUSH2 0x383D PUSH32 0x0 PUSH2 0x3E87 JUMP JUMPDEST PUSH2 0x761 JUMP JUMPDEST PUSH1 0x0 PUSH32 0x0 DUP3 LT PUSH2 0x9AA JUMPI PUSH2 0x3876 DUP3 PUSH1 0x1 PUSH2 0x1545 JUMP JUMPDEST PUSH2 0x74A JUMP JUMPDEST PUSH1 0x0 DUP1 PUSH2 0x3886 PUSH2 0x1E0A JUMP JUMPDEST POP SWAP1 POP PUSH1 0x60 PUSH1 0x1 PUSH2 0x3895 PUSH2 0x15C8 JUMP JUMPDEST SUB PUSH1 0x1 PUSH1 0x1 PUSH1 0x40 SHL SUB DUP2 GT DUP1 ISZERO PUSH2 0x38AB JUMPI PUSH1 0x0 DUP1 REVERT JUMPDEST POP PUSH1 0x40 MLOAD SWAP1 DUP1 DUP3 MSTORE DUP1 PUSH1 0x20 MUL PUSH1 0x20 ADD DUP3 ADD PUSH1 0x40 MSTORE DUP1 ISZERO PUSH2 0x38D5 JUMPI DUP2 PUSH1 0x20 ADD PUSH1 0x20 DUP3 MUL DUP1 CALLDATASIZE DUP4 CALLDATACOPY ADD SWAP1 POP JUMPDEST POP SWAP1 POP DUP7 DUP2 DUP8 DUP2 MLOAD DUP2 LT PUSH2 0x38E5 JUMPI INVALID JUMPDEST PUSH1 0x20 MUL PUSH1 0x20 ADD ADD DUP2 DUP2 MSTORE POP POP PUSH2 0x688 DUP3 DUP6 DUP4 DUP9 PUSH1 0x0 PUSH2 0x3F05 JUMP JUMPDEST PUSH1 0x0 PUSH2 0x390E DUP4 PUSH2 0x292D DUP6 PUSH2 0x2D13 JUMP JUMPDEST SWAP1 POP PUSH1 0x0 PUSH2 0x391C DUP3 DUP5 PUSH2 0x2B14 JUMP JUMPDEST PUSH1 0xC SLOAD SWAP1 SWAP2 POP PUSH2 0x392C SWAP1 DUP3 PUSH2 0x201B JUMP JUMPDEST PUSH1 0xC SSTORE PUSH1 0x40 MLOAD PUSH32 0x1D2422D87BC31F46211CFDFE158C5ECCB86547546C7A4FFF6BE15A0A944C84B2 SWAP1 PUSH2 0x1EF2 SWAP1 DUP4 SWAP1 PUSH2 0x5160 JUMP JUMPDEST PUSH1 0x0 DUP1 PUSH2 0x396A PUSH2 0x1E0A JUMP JUMPDEST POP SWAP1 POP PUSH2 0x397C DUP2 DUP5 DUP8 DUP10 DUP9 PUSH1 0x0 PUSH2 0x41B6 JUMP JUMPDEST SWAP7 SWAP6 POP POP POP POP POP POP JUMP JUMPDEST PUSH1 0x0 PUSH2 0x3998 DUP4 DUP8 DUP7 DUP2 MLOAD DUP2 LT PUSH2 0x2CBA JUMPI INVALID JUMPDEST DUP7 DUP6 DUP2 MLOAD DUP2 LT PUSH2 0x39A4 JUMPI INVALID JUMPDEST PUSH1 0x20 MUL PUSH1 0x20 ADD ADD DUP2 DUP2 MSTORE POP POP PUSH1 0x0 PUSH2 0x39BE DUP9 DUP9 DUP6 DUP10 PUSH2 0x42CB JUMP JUMPDEST SWAP1 POP DUP4 DUP8 DUP7 DUP2 MLOAD DUP2 LT PUSH2 0x39CD JUMPI INVALID JUMPDEST PUSH1 0x20 MUL PUSH1 0x20 ADD ADD MLOAD ADD DUP8 DUP7 DUP2 MLOAD DUP2 LT PUSH2 0x39E2 JUMPI INVALID JUMPDEST PUSH1 0x20 MUL PUSH1 0x20 ADD ADD DUP2 DUP2 MSTORE POP POP PUSH2 0x3A19 PUSH1 0x1 PUSH2 0x2933 DUP10 DUP10 DUP2 MLOAD DUP2 LT PUSH2 0x3A02 JUMPI INVALID JUMPDEST PUSH1 0x20 MUL PUSH1 0x20 ADD ADD MLOAD DUP5 PUSH2 0x1545 SWAP1 SWAP2 SWAP1 PUSH4 0xFFFFFFFF AND JUMP JUMPDEST SWAP9 SWAP8 POP POP POP POP POP POP POP POP JUMP JUMPDEST PUSH1 0x0 PUSH2 0x3A33 DUP6 DUP6 PUSH1 0x0 PUSH2 0x323F JUMP JUMPDEST SWAP1 POP PUSH1 0x0 PUSH2 0x3A41 DUP3 DUP9 PUSH2 0x30F3 JUMP JUMPDEST SWAP1 POP PUSH8 0xDE0B6B3A7640000 DUP2 GT ISZERO PUSH2 0xB56 JUMPI PUSH1 0x0 PUSH2 0x3A7B PUSH2 0x3A74 DUP7 PUSH2 0x3A6E DUP6 PUSH8 0xDE0B6B3A7640000 PUSH2 0x1545 JUMP JUMPDEST SWAP1 PUSH2 0x2B14 JUMP JUMPDEST DUP6 SWAP1 PUSH2 0x2B14 JUMP JUMPDEST PUSH1 0xC SLOAD SWAP1 SWAP2 POP PUSH2 0x3A8B SWAP1 DUP3 PUSH2 0x201B JUMP JUMPDEST PUSH1 0xC SSTORE PUSH1 0x40 MLOAD PUSH32 0x1D2422D87BC31F46211CFDFE158C5ECCB86547546C7A4FFF6BE15A0A944C84B2 SWAP1 PUSH2 0x3ABE SWAP1 DUP4 SWAP1 PUSH2 0x5160 JUMP JUMPDEST PUSH1 0x40 MLOAD DUP1 SWAP2 SUB SWAP1 LOG1 POP POP POP POP POP POP POP POP JUMP JUMPDEST PUSH1 0x0 DUP3 DUP3 MUL PUSH2 0x3AEA DUP5 ISZERO DUP1 PUSH2 0x1511 JUMPI POP DUP4 DUP6 DUP4 DUP2 PUSH2 0x150E JUMPI INVALID JUMPDEST DUP1 PUSH2 0x3AF9 JUMPI PUSH1 0x0 SWAP2 POP POP PUSH2 0x74A JUMP JUMPDEST PUSH8 0xDE0B6B3A7640000 PUSH1 0x0 NOT DUP3 ADD PUSH2 0x35CB JUMP JUMPDEST POP SWAP3 SWAP2 POP POP JUMP JUMPDEST PUSH1 0x0 DUP1 PUSH2 0x3B1E PUSH2 0x1E0A JUMP JUMPDEST POP SWAP1 POP PUSH2 0x397C DUP2 DUP5 DUP8 DUP10 DUP9 PUSH1 0x0 PUSH2 0x446B JUMP JUMPDEST PUSH1 0x0 PUSH1 0x60 PUSH1 0x1 PUSH2 0x3B3E PUSH2 0x15C8 JUMP JUMPDEST SUB PUSH1 0x1 PUSH1 0x1 PUSH1 0x40 SHL SUB DUP2 GT DUP1 ISZERO PUSH2 0x3B54 JUMPI PUSH1 0x0 DUP1 REVERT JUMPDEST POP PUSH1 0x40 MLOAD SWAP1 DUP1 DUP3 MSTORE DUP1 PUSH1 0x20 MUL PUSH1 0x20 ADD DUP3 ADD PUSH1 0x40 MSTORE DUP1 ISZERO PUSH2 0x3B7E JUMPI DUP2 PUSH1 0x20 ADD PUSH1 0x20 DUP3 MUL DUP1 CALLDATASIZE DUP4 CALLDATACOPY ADD SWAP1 POP JUMPDEST POP SWAP1 POP DUP6 DUP2 DUP7 DUP2 MLOAD DUP2 LT PUSH2 0x3B8E JUMPI INVALID JUMPDEST PUSH1 0x20 MUL PUSH1 0x20 ADD ADD DUP2 DUP2 MSTORE POP POP PUSH1 0x0 PUSH2 0x3BA4 PUSH2 0x1E0A JUMP JUMPDEST POP SWAP1 POP PUSH2 0x688 DUP2 DUP6 DUP5 DUP9 PUSH1 0x0 PUSH2 0x4532 JUMP JUMPDEST PUSH1 0x0 PUSH2 0x3BC7 DUP4 DUP8 DUP8 DUP2 MLOAD DUP2 LT PUSH2 0x2C78 JUMPI INVALID JUMPDEST DUP7 DUP7 DUP2 MLOAD DUP2 LT PUSH2 0x3BD3 JUMPI INVALID JUMPDEST PUSH1 0x20 MUL PUSH1 0x20 ADD ADD DUP2 DUP2 MSTORE POP POP PUSH1 0x0 PUSH2 0x3BED DUP9 DUP9 DUP6 DUP9 PUSH2 0x42CB JUMP JUMPDEST SWAP1 POP DUP4 DUP8 DUP8 DUP2 MLOAD DUP2 LT PUSH2 0x3BFC JUMPI INVALID JUMPDEST PUSH1 0x20 MUL PUSH1 0x20 ADD ADD MLOAD SUB DUP8 DUP8 DUP2 MLOAD DUP2 LT PUSH2 0x3C11 JUMPI INVALID JUMPDEST PUSH1 0x20 MUL PUSH1 0x20 ADD ADD DUP2 DUP2 MSTORE POP POP PUSH2 0x3A19 PUSH1 0x1 PUSH2 0x292D DUP4 DUP11 DUP10 DUP2 MLOAD DUP2 LT PUSH2 0x2CBA JUMPI INVALID JUMPDEST PUSH1 0x0 PUSH2 0x3C44 PUSH4 0xF4B7964D PUSH1 0xE0 SHL PUSH2 0xF04 JUMP JUMPDEST DUP3 EQ DUP1 PUSH2 0x74A JUMPI POP PUSH2 0x74A DUP3 PUSH2 0x47AE JUMP JUMPDEST PUSH1 0x0 DUP2 DUP1 PUSH1 0x20 ADD SWAP1 MLOAD DUP2 ADD SWAP1 PUSH2 0xA1D SWAP2 SWAP1 PUSH2 0x4E04 JUMP JUMPDEST PUSH1 0x60 PUSH1 0x0 PUSH2 0x3C79 DUP5 DUP5 PUSH2 0x30F3 JUMP JUMPDEST SWAP1 POP PUSH1 0x60 DUP6 MLOAD PUSH1 0x1 PUSH1 0x1 PUSH1 0x40 SHL SUB DUP2 GT DUP1 ISZERO PUSH2 0x3C94 JUMPI PUSH1 0x0 DUP1 REVERT JUMPDEST POP PUSH1 0x40 MLOAD SWAP1 DUP1 DUP3 MSTORE DUP1 PUSH1 0x20 MUL PUSH1 0x20 ADD DUP3 ADD PUSH1 0x40 MSTORE DUP1 ISZERO PUSH2 0x3CBE JUMPI DUP2 PUSH1 0x20 ADD PUSH1 0x20 DUP3 MUL DUP1 CALLDATASIZE DUP4 CALLDATACOPY ADD SWAP1 POP JUMPDEST POP SWAP1 POP PUSH1 0x0 JUMPDEST DUP7 MLOAD DUP2 LT ISZERO PUSH2 0x3CFC JUMPI PUSH2 0x3CDD DUP4 DUP9 DUP4 DUP2 MLOAD DUP2 LT PUSH2 0x165B JUMPI INVALID JUMPDEST DUP3 DUP3 DUP2 MLOAD DUP2 LT PUSH2 0x3CE9 JUMPI INVALID JUMPDEST PUSH1 0x20 SWAP1 DUP2 MUL SWAP2 SWAP1 SWAP2 ADD ADD MSTORE PUSH1 0x1 ADD PUSH2 0x3CC4 JUMP JUMPDEST POP SWAP6 SWAP5 POP POP POP POP POP JUMP JUMPDEST PUSH1 0x60 DUP3 MLOAD PUSH1 0x1 ADD PUSH1 0x1 PUSH1 0x1 PUSH1 0x40 SHL SUB DUP2 GT DUP1 ISZERO PUSH2 0x3D22 JUMPI PUSH1 0x0 DUP1 REVERT JUMPDEST POP PUSH1 0x40 MLOAD SWAP1 DUP1 DUP3 MSTORE DUP1 PUSH1 0x20 MUL PUSH1 0x20 ADD DUP3 ADD PUSH1 0x40 MSTORE DUP1 ISZERO PUSH2 0x3D4C JUMPI DUP2 PUSH1 0x20 ADD PUSH1 0x20 DUP3 MUL DUP1 CALLDATASIZE DUP4 CALLDATACOPY ADD SWAP1 POP JUMPDEST POP SWAP1 POP PUSH1 0x0 JUMPDEST DUP2 MLOAD DUP2 LT ISZERO PUSH2 0x3B0C JUMPI PUSH32 0x0 DUP2 EQ PUSH2 0x3DCC JUMPI DUP4 PUSH32 0x0 DUP3 LT PUSH2 0x3DB3 JUMPI PUSH1 0x1 DUP3 SUB PUSH2 0x3DB5 JUMP JUMPDEST DUP2 JUMPDEST DUP2 MLOAD DUP2 LT PUSH2 0x3DBF JUMPI INVALID JUMPDEST PUSH1 0x20 MUL PUSH1 0x20 ADD ADD MLOAD PUSH2 0x3DCE JUMP JUMPDEST DUP3 JUMPDEST DUP3 DUP3 DUP2 MLOAD DUP2 LT PUSH2 0x3DDA JUMPI INVALID JUMPDEST PUSH1 0x20 SWAP1 DUP2 MUL SWAP2 SWAP1 SWAP2 ADD ADD MSTORE PUSH1 0x1 ADD PUSH2 0x3D52 JUMP JUMPDEST PUSH32 0x0 PUSH1 0x1 PUSH1 0x1 PUSH1 0xA0 SHL SUB SWAP1 DUP2 AND SWAP2 AND EQ SWAP1 JUMP JUMPDEST PUSH32 0x0 PUSH1 0x1 PUSH1 0x1 PUSH1 0xA0 SHL SUB SWAP1 DUP2 AND SWAP2 AND EQ SWAP1 JUMP JUMPDEST PUSH1 0x0 DUP2 PUSH2 0x3E67 JUMPI PUSH2 0x3E62 DUP5 DUP5 PUSH2 0x47EA JUMP JUMPDEST PUSH2 0x3E71 JUMP JUMPDEST PUSH2 0x3E71 DUP5 DUP5 PUSH2 0x1E7E JUMP JUMPDEST SWAP5 SWAP4 POP POP POP POP JUMP JUMPDEST PUSH1 0x0 PUSH2 0xA1D DUP4 DUP4 PUSH1 0x1 PUSH2 0x2F7A JUMP JUMPDEST PUSH1 0x1 PUSH1 0x1 PUSH1 0xA0 SHL SUB DUP2 AND ADDRESS EQ ISZERO PUSH2 0x3E9D JUMPI PUSH2 0x761 JUMP JUMPDEST PUSH1 0x1 PUSH1 0x1 PUSH1 0xA0 SHL SUB DUP2 AND PUSH1 0x0 SWAP1 DUP2 MSTORE PUSH1 0xE PUSH1 0x20 MSTORE PUSH1 0x40 SWAP1 KECCAK256 SLOAD DUP1 ISZERO PUSH2 0xC04 JUMPI PUSH1 0x1 PUSH1 0x1 PUSH1 0xA0 SHL SUB DUP3 AND PUSH1 0x0 SWAP1 DUP2 MSTORE PUSH1 0xE PUSH1 0x20 MSTORE PUSH1 0x40 DUP2 KECCAK256 SLOAD DUP2 SWAP1 PUSH2 0x3EE0 SWAP1 PUSH2 0x2524 JUMP JUMPDEST SWAP2 POP SWAP2 POP DUP1 TIMESTAMP GT ISZERO PUSH2 0x3EFF JUMPI PUSH2 0x3EFF DUP5 PUSH2 0x3EF9 DUP7 PUSH2 0x1B2C JUMP JUMPDEST DUP5 PUSH2 0x1D2B JUMP JUMPDEST POP POP POP POP JUMP JUMPDEST PUSH1 0x0 DUP1 DUP1 JUMPDEST DUP7 MLOAD DUP2 LT ISZERO PUSH2 0x3F43 JUMPI PUSH2 0x3F39 DUP8 DUP3 DUP2 MLOAD DUP2 LT PUSH2 0x3F22 JUMPI INVALID JUMPDEST PUSH1 0x20 MUL PUSH1 0x20 ADD ADD MLOAD DUP4 PUSH2 0x201B SWAP1 SWAP2 SWAP1 PUSH4 0xFFFFFFFF AND JUMP JUMPDEST SWAP2 POP PUSH1 0x1 ADD PUSH2 0x3F0A JUMP JUMPDEST POP PUSH1 0x60 DUP6 MLOAD PUSH1 0x1 PUSH1 0x1 PUSH1 0x40 SHL SUB DUP2 GT DUP1 ISZERO PUSH2 0x3F5D JUMPI PUSH1 0x0 DUP1 REVERT JUMPDEST POP PUSH1 0x40 MLOAD SWAP1 DUP1 DUP3 MSTORE DUP1 PUSH1 0x20 MUL PUSH1 0x20 ADD DUP3 ADD PUSH1 0x40 MSTORE DUP1 ISZERO PUSH2 0x3F87 JUMPI DUP2 PUSH1 0x20 ADD PUSH1 0x20 DUP3 MUL DUP1 CALLDATASIZE DUP4 CALLDATACOPY ADD SWAP1 POP JUMPDEST POP SWAP1 POP PUSH1 0x0 DUP1 JUMPDEST DUP9 MLOAD DUP2 LT ISZERO PUSH2 0x4054 JUMPI PUSH1 0x0 PUSH2 0x3FBF DUP6 DUP12 DUP5 DUP2 MLOAD DUP2 LT PUSH2 0x3FA9 JUMPI INVALID JUMPDEST PUSH1 0x20 MUL PUSH1 0x20 ADD ADD MLOAD PUSH2 0x3589 SWAP1 SWAP2 SWAP1 PUSH4 0xFFFFFFFF AND JUMP JUMPDEST SWAP1 POP PUSH2 0x4001 DUP11 DUP4 DUP2 MLOAD DUP2 LT PUSH2 0x3FD0 JUMPI INVALID JUMPDEST PUSH1 0x20 MUL PUSH1 0x20 ADD ADD MLOAD PUSH2 0x3FFB DUP12 DUP6 DUP2 MLOAD DUP2 LT PUSH2 0x3FE7 JUMPI INVALID JUMPDEST PUSH1 0x20 MUL PUSH1 0x20 ADD ADD MLOAD DUP14 DUP7 DUP2 MLOAD DUP2 LT PUSH2 0x2CBA JUMPI INVALID JUMPDEST SWAP1 PUSH2 0x3589 JUMP JUMPDEST DUP5 DUP4 DUP2 MLOAD DUP2 LT PUSH2 0x400D JUMPI INVALID JUMPDEST PUSH1 0x20 MUL PUSH1 0x20 ADD ADD DUP2 DUP2 MSTORE POP POP PUSH2 0x4049 PUSH2 0x4042 DUP3 DUP7 DUP6 DUP2 MLOAD DUP2 LT PUSH2 0x402C JUMPI INVALID JUMPDEST PUSH1 0x20 MUL PUSH1 0x20 ADD ADD MLOAD PUSH2 0x3AD0 SWAP1 SWAP2 SWAP1 PUSH4 0xFFFFFFFF AND JUMP JUMPDEST DUP5 SWAP1 PUSH2 0x201B JUMP JUMPDEST SWAP3 POP POP PUSH1 0x1 ADD PUSH2 0x3F8E JUMP JUMPDEST POP PUSH1 0x60 DUP9 MLOAD PUSH1 0x1 PUSH1 0x1 PUSH1 0x40 SHL SUB DUP2 GT DUP1 ISZERO PUSH2 0x406E JUMPI PUSH1 0x0 DUP1 REVERT JUMPDEST POP PUSH1 0x40 MLOAD SWAP1 DUP1 DUP3 MSTORE DUP1 PUSH1 0x20 MUL PUSH1 0x20 ADD DUP3 ADD PUSH1 0x40 MSTORE DUP1 ISZERO PUSH2 0x4098 JUMPI DUP2 PUSH1 0x20 ADD PUSH1 0x20 DUP3 MUL DUP1 CALLDATASIZE DUP4 CALLDATACOPY ADD SWAP1 POP JUMPDEST POP SWAP1 POP PUSH1 0x0 JUMPDEST DUP10 MLOAD DUP2 LT ISZERO PUSH2 0x4163 JUMPI PUSH1 0x0 DUP5 DUP3 DUP2 MLOAD DUP2 LT PUSH2 0x40B5 JUMPI INVALID JUMPDEST PUSH1 0x20 MUL PUSH1 0x20 ADD ADD MLOAD DUP5 GT ISZERO PUSH2 0x411C JUMPI PUSH1 0x0 PUSH2 0x40DE PUSH2 0x40D2 DUP7 PUSH2 0x480A JUMP JUMPDEST DUP14 DUP6 DUP2 MLOAD DUP2 LT PUSH2 0x165B JUMPI INVALID JUMPDEST SWAP1 POP PUSH1 0x0 PUSH2 0x40F2 DUP3 DUP14 DUP7 DUP2 MLOAD DUP2 LT PUSH2 0x2CBA JUMPI INVALID JUMPDEST SWAP1 POP PUSH2 0x4113 PUSH2 0x410C DUP3 PUSH8 0xDE0B6B3A7640000 DUP14 SWAP1 SUB PUSH2 0x3589 JUMP JUMPDEST DUP4 SWAP1 PUSH2 0x201B JUMP JUMPDEST SWAP3 POP POP POP PUSH2 0x4133 JUMP JUMPDEST DUP10 DUP3 DUP2 MLOAD DUP2 LT PUSH2 0x4128 JUMPI INVALID JUMPDEST PUSH1 0x20 MUL PUSH1 0x20 ADD ADD MLOAD SWAP1 POP JUMPDEST PUSH2 0x4143 DUP2 DUP13 DUP5 DUP2 MLOAD DUP2 LT PUSH2 0x2CBA JUMPI INVALID JUMPDEST DUP4 DUP4 DUP2 MLOAD DUP2 LT PUSH2 0x414F JUMPI INVALID JUMPDEST PUSH1 0x20 SWAP1 DUP2 MUL SWAP2 SWAP1 SWAP2 ADD ADD MSTORE POP PUSH1 0x1 ADD PUSH2 0x409E JUMP JUMPDEST POP PUSH1 0x0 PUSH2 0x4172 DUP12 DUP12 PUSH1 0x1 PUSH2 0x323F JUMP JUMPDEST SWAP1 POP PUSH1 0x0 PUSH2 0x4182 DUP13 DUP5 PUSH1 0x0 PUSH2 0x323F JUMP JUMPDEST SWAP1 POP PUSH1 0x0 PUSH2 0x4190 DUP3 DUP5 PUSH2 0x30F3 JUMP JUMPDEST SWAP1 POP PUSH2 0x41A5 PUSH2 0x419E DUP3 PUSH2 0x480A JUMP JUMPDEST DUP12 SWAP1 PUSH2 0x3AD0 JUMP JUMPDEST SWAP14 SWAP13 POP POP POP POP POP POP POP POP POP POP POP POP POP JUMP JUMPDEST PUSH1 0x0 DUP1 PUSH2 0x41C5 DUP9 DUP9 PUSH1 0x1 PUSH2 0x323F JUMP JUMPDEST SWAP1 POP PUSH1 0x0 PUSH2 0x41E1 DUP3 PUSH2 0x41DB DUP8 PUSH2 0x3FFB DUP2 DUP12 PUSH2 0x201B JUMP JUMPDEST SWAP1 PUSH2 0x3AD0 JUMP JUMPDEST SWAP1 POP PUSH1 0x0 PUSH2 0x41F1 DUP11 DUP11 DUP5 DUP12 PUSH2 0x42CB JUMP JUMPDEST SWAP1 POP PUSH1 0x0 PUSH2 0x421B DUP11 DUP11 DUP2 MLOAD DUP2 LT PUSH2 0x4204 JUMPI INVALID JUMPDEST PUSH1 0x20 MUL PUSH1 0x20 ADD ADD MLOAD DUP4 PUSH2 0x1545 SWAP1 SWAP2 SWAP1 PUSH4 0xFFFFFFFF AND JUMP JUMPDEST SWAP1 POP PUSH1 0x0 DUP1 JUMPDEST DUP12 MLOAD DUP2 LT ISZERO PUSH2 0x4243 JUMPI PUSH2 0x4239 DUP13 DUP3 DUP2 MLOAD DUP2 LT PUSH2 0x3F22 JUMPI INVALID JUMPDEST SWAP2 POP PUSH1 0x1 ADD PUSH2 0x4221 JUMP JUMPDEST POP PUSH1 0x0 PUSH2 0x426C DUP3 DUP14 DUP14 DUP2 MLOAD DUP2 LT PUSH2 0x4256 JUMPI INVALID JUMPDEST PUSH1 0x20 MUL PUSH1 0x20 ADD ADD MLOAD PUSH2 0x30F3 SWAP1 SWAP2 SWAP1 PUSH4 0xFFFFFFFF AND JUMP JUMPDEST SWAP1 POP PUSH1 0x0 PUSH2 0x4279 DUP3 PUSH2 0x480A JUMP JUMPDEST SWAP1 POP PUSH1 0x0 PUSH2 0x4287 DUP6 DUP4 PUSH2 0x3AD0 JUMP JUMPDEST SWAP1 POP PUSH1 0x0 PUSH2 0x4295 DUP7 DUP4 PUSH2 0x1545 JUMP JUMPDEST SWAP1 POP PUSH2 0x42B6 PUSH2 0x42AF DUP4 PUSH8 0xDE0B6B3A7640000 DUP15 SWAP1 SUB PUSH2 0x3589 JUMP JUMPDEST DUP3 SWAP1 PUSH2 0x201B JUMP JUMPDEST SWAP10 POP POP POP POP POP POP POP POP POP POP SWAP7 SWAP6 POP POP POP POP POP POP JUMP JUMPDEST PUSH1 0x0 DUP1 DUP5 MLOAD DUP7 MUL SWAP1 POP PUSH1 0x0 DUP6 PUSH1 0x0 DUP2 MLOAD DUP2 LT PUSH2 0x42E3 JUMPI INVALID JUMPDEST PUSH1 0x20 MUL PUSH1 0x20 ADD ADD MLOAD SWAP1 POP PUSH1 0x0 DUP7 MLOAD DUP8 PUSH1 0x0 DUP2 MLOAD DUP2 LT PUSH2 0x42FE JUMPI INVALID JUMPDEST PUSH1 0x20 MUL PUSH1 0x20 ADD ADD MLOAD MUL SWAP1 POP PUSH1 0x0 PUSH1 0x1 SWAP1 POP JUMPDEST DUP8 MLOAD DUP2 LT ISZERO PUSH2 0x4357 JUMPI PUSH2 0x433C PUSH2 0x4336 PUSH2 0x432F DUP5 DUP12 DUP6 DUP2 MLOAD DUP2 LT PUSH2 0x32E2 JUMPI INVALID JUMPDEST DUP11 MLOAD PUSH2 0x14F4 JUMP JUMPDEST DUP9 PUSH2 0x47EA JUMP JUMPDEST SWAP2 POP PUSH2 0x434D DUP9 DUP3 DUP2 MLOAD DUP2 LT PUSH2 0x325F JUMPI INVALID JUMPDEST SWAP3 POP PUSH1 0x1 ADD PUSH2 0x4310 JUMP JUMPDEST POP DUP7 DUP6 DUP2 MLOAD DUP2 LT PUSH2 0x4364 JUMPI INVALID JUMPDEST PUSH1 0x20 MUL PUSH1 0x20 ADD ADD MLOAD DUP3 SUB SWAP2 POP PUSH1 0x0 PUSH2 0x437C DUP8 DUP9 PUSH2 0x14F4 JUMP JUMPDEST SWAP1 POP PUSH1 0x0 PUSH2 0x43A8 PUSH2 0x439C PUSH2 0x4394 DUP5 PUSH2 0xB14 DUP10 DUP9 PUSH2 0x14F4 JUMP JUMPDEST PUSH2 0x3E8 PUSH2 0x14F4 JUMP JUMPDEST DUP11 DUP10 DUP2 MLOAD DUP2 LT PUSH2 0x32E2 JUMPI INVALID JUMPDEST SWAP1 POP PUSH1 0x0 PUSH2 0x43C3 PUSH2 0x43BC PUSH2 0x4394 DUP12 DUP10 PUSH2 0x47EA JUMP JUMPDEST DUP7 SWAP1 PUSH2 0x201B JUMP JUMPDEST SWAP1 POP PUSH1 0x0 DUP1 PUSH2 0x43DF PUSH2 0x43D5 DUP7 DUP7 PUSH2 0x201B JUMP JUMPDEST PUSH2 0xB14 DUP14 DUP7 PUSH2 0x201B JUMP JUMPDEST SWAP1 POP PUSH1 0x0 JUMPDEST PUSH1 0xFF DUP2 LT ISZERO PUSH2 0x445F JUMPI DUP2 SWAP3 POP PUSH2 0x4414 PUSH2 0x4401 DUP7 PUSH2 0x2933 DUP6 DUP7 PUSH2 0x14F4 JUMP JUMPDEST PUSH2 0xB14 DUP15 PUSH2 0x292D DUP9 PUSH2 0x2933 DUP9 PUSH1 0x2 PUSH2 0x14F4 JUMP JUMPDEST SWAP2 POP DUP3 DUP3 GT ISZERO PUSH2 0x443D JUMPI PUSH1 0x1 DUP4 DUP4 SUB GT PUSH2 0x4438 JUMPI POP SWAP8 POP PUSH2 0x3E71 SWAP7 POP POP POP POP POP POP POP JUMP JUMPDEST PUSH2 0x4457 JUMP JUMPDEST PUSH1 0x1 DUP3 DUP5 SUB GT PUSH2 0x4457 JUMPI POP SWAP8 POP PUSH2 0x3E71 SWAP7 POP POP POP POP POP POP POP JUMP JUMPDEST PUSH1 0x1 ADD PUSH2 0x43E4 JUMP JUMPDEST POP PUSH2 0x2CF5 PUSH2 0x142 PUSH2 0x25E8 JUMP JUMPDEST PUSH1 0x0 DUP1 PUSH2 0x447A DUP9 DUP9 PUSH1 0x1 PUSH2 0x323F JUMP JUMPDEST SWAP1 POP PUSH1 0x0 PUSH2 0x4490 DUP3 PUSH2 0x41DB DUP8 PUSH2 0x3FFB DUP2 DUP12 PUSH2 0x1545 JUMP JUMPDEST SWAP1 POP PUSH1 0x0 PUSH2 0x44A0 DUP11 DUP11 DUP5 DUP12 PUSH2 0x42CB JUMP JUMPDEST SWAP1 POP PUSH1 0x0 PUSH2 0x44B4 DUP3 DUP12 DUP12 DUP2 MLOAD DUP2 LT PUSH2 0x2CBA JUMPI INVALID JUMPDEST SWAP1 POP PUSH1 0x0 DUP1 JUMPDEST DUP12 MLOAD DUP2 LT ISZERO PUSH2 0x44DC JUMPI PUSH2 0x44D2 DUP13 DUP3 DUP2 MLOAD DUP2 LT PUSH2 0x3F22 JUMPI INVALID JUMPDEST SWAP2 POP PUSH1 0x1 ADD PUSH2 0x44BA JUMP JUMPDEST POP PUSH1 0x0 PUSH2 0x44EF DUP3 DUP14 DUP14 DUP2 MLOAD DUP2 LT PUSH2 0x4256 JUMPI INVALID JUMPDEST SWAP1 POP PUSH1 0x0 PUSH2 0x44FC DUP3 PUSH2 0x480A JUMP JUMPDEST SWAP1 POP PUSH1 0x0 PUSH2 0x450A DUP6 DUP4 PUSH2 0x3AD0 JUMP JUMPDEST SWAP1 POP PUSH1 0x0 PUSH2 0x4518 DUP7 DUP4 PUSH2 0x1545 JUMP JUMPDEST SWAP1 POP PUSH2 0x42B6 PUSH2 0x42AF DUP4 PUSH8 0xDE0B6B3A7640000 DUP15 SWAP1 SUB PUSH2 0x2B14 JUMP JUMPDEST PUSH1 0x0 DUP1 DUP1 JUMPDEST DUP7 MLOAD DUP2 LT ISZERO PUSH2 0x4559 JUMPI PUSH2 0x454F DUP8 DUP3 DUP2 MLOAD DUP2 LT PUSH2 0x3F22 JUMPI INVALID JUMPDEST SWAP2 POP PUSH1 0x1 ADD PUSH2 0x4537 JUMP JUMPDEST POP PUSH1 0x60 DUP6 MLOAD PUSH1 0x1 PUSH1 0x1 PUSH1 0x40 SHL SUB DUP2 GT DUP1 ISZERO PUSH2 0x4573 JUMPI PUSH1 0x0 DUP1 REVERT JUMPDEST POP PUSH1 0x40 MLOAD SWAP1 DUP1 DUP3 MSTORE DUP1 PUSH1 0x20 MUL PUSH1 0x20 ADD DUP3 ADD PUSH1 0x40 MSTORE DUP1 ISZERO PUSH2 0x459D JUMPI DUP2 PUSH1 0x20 ADD PUSH1 0x20 DUP3 MUL DUP1 CALLDATASIZE DUP4 CALLDATACOPY ADD SWAP1 POP JUMPDEST POP SWAP1 POP PUSH1 0x0 DUP1 JUMPDEST DUP9 MLOAD DUP2 LT ISZERO PUSH2 0x4637 JUMPI PUSH1 0x0 PUSH2 0x45BF DUP6 DUP12 DUP5 DUP2 MLOAD DUP2 LT PUSH2 0x4256 JUMPI INVALID JUMPDEST SWAP1 POP PUSH2 0x4601 DUP11 DUP4 DUP2 MLOAD DUP2 LT PUSH2 0x45D0 JUMPI INVALID JUMPDEST PUSH1 0x20 MUL PUSH1 0x20 ADD ADD MLOAD PUSH2 0x45FB DUP12 DUP6 DUP2 MLOAD DUP2 LT PUSH2 0x45E7 JUMPI INVALID JUMPDEST PUSH1 0x20 MUL PUSH1 0x20 ADD ADD MLOAD DUP14 DUP7 DUP2 MLOAD DUP2 LT PUSH2 0x2C78 JUMPI INVALID JUMPDEST SWAP1 PUSH2 0x30F3 JUMP JUMPDEST DUP5 DUP4 DUP2 MLOAD DUP2 LT PUSH2 0x460D JUMPI INVALID JUMPDEST PUSH1 0x20 MUL PUSH1 0x20 ADD ADD DUP2 DUP2 MSTORE POP POP PUSH2 0x462C PUSH2 0x4042 DUP3 DUP7 DUP6 DUP2 MLOAD DUP2 LT PUSH2 0x165B JUMPI INVALID JUMPDEST SWAP3 POP POP PUSH1 0x1 ADD PUSH2 0x45A4 JUMP JUMPDEST POP PUSH1 0x60 DUP9 MLOAD PUSH1 0x1 PUSH1 0x1 PUSH1 0x40 SHL SUB DUP2 GT DUP1 ISZERO PUSH2 0x4651 JUMPI PUSH1 0x0 DUP1 REVERT JUMPDEST POP PUSH1 0x40 MLOAD SWAP1 DUP1 DUP3 MSTORE DUP1 PUSH1 0x20 MUL PUSH1 0x20 ADD DUP3 ADD PUSH1 0x40 MSTORE DUP1 ISZERO PUSH2 0x467B JUMPI DUP2 PUSH1 0x20 ADD PUSH1 0x20 DUP3 MUL DUP1 CALLDATASIZE DUP4 CALLDATACOPY ADD SWAP1 POP JUMPDEST POP SWAP1 POP PUSH1 0x0 JUMPDEST DUP10 MLOAD DUP2 LT ISZERO PUSH2 0x473C JUMPI PUSH1 0x0 DUP4 DUP6 DUP4 DUP2 MLOAD DUP2 LT PUSH2 0x4699 JUMPI INVALID JUMPDEST PUSH1 0x20 MUL PUSH1 0x20 ADD ADD MLOAD GT ISZERO PUSH2 0x46F5 JUMPI PUSH1 0x0 PUSH2 0x46BE PUSH2 0x40D2 DUP7 PUSH8 0xDE0B6B3A7640000 PUSH2 0x1545 JUMP JUMPDEST SWAP1 POP PUSH1 0x0 PUSH2 0x46D2 DUP3 DUP14 DUP7 DUP2 MLOAD DUP2 LT PUSH2 0x2CBA JUMPI INVALID JUMPDEST SWAP1 POP PUSH2 0x46EC PUSH2 0x410C DUP3 PUSH8 0xDE0B6B3A7640000 DUP14 SWAP1 SUB PUSH2 0x2B14 JUMP JUMPDEST SWAP3 POP POP POP PUSH2 0x470C JUMP JUMPDEST DUP10 DUP3 DUP2 MLOAD DUP2 LT PUSH2 0x4701 JUMPI INVALID JUMPDEST PUSH1 0x20 MUL PUSH1 0x20 ADD ADD MLOAD SWAP1 POP JUMPDEST PUSH2 0x471C DUP2 DUP13 DUP5 DUP2 MLOAD DUP2 LT PUSH2 0x2C78 JUMPI INVALID JUMPDEST DUP4 DUP4 DUP2 MLOAD DUP2 LT PUSH2 0x4728 JUMPI INVALID JUMPDEST PUSH1 0x20 SWAP1 DUP2 MUL SWAP2 SWAP1 SWAP2 ADD ADD MSTORE POP PUSH1 0x1 ADD PUSH2 0x4681 JUMP JUMPDEST POP PUSH1 0x0 PUSH2 0x474B DUP12 DUP12 PUSH1 0x1 PUSH2 0x323F JUMP JUMPDEST SWAP1 POP PUSH1 0x0 PUSH2 0x475B DUP13 DUP5 PUSH1 0x0 PUSH2 0x323F JUMP JUMPDEST SWAP1 POP PUSH1 0x0 PUSH2 0x4769 DUP3 DUP5 PUSH2 0x30F3 JUMP JUMPDEST SWAP1 POP PUSH8 0xDE0B6B3A7640000 DUP2 GT ISZERO PUSH2 0x479E JUMPI PUSH2 0x4790 DUP11 PUSH8 0xDE0B6B3A763FFFF NOT DUP4 ADD PUSH2 0x2B14 JUMP JUMPDEST SWAP8 POP POP POP POP POP POP POP POP PUSH2 0x186C JUMP JUMPDEST PUSH1 0x0 SWAP8 POP POP POP POP POP POP POP POP PUSH2 0x186C JUMP JUMPDEST PUSH1 0x0 PUSH2 0x47C0 PUSH4 0x2F1A0BC9 PUSH1 0xE0 SHL PUSH2 0xF04 JUMP JUMPDEST DUP3 EQ DUP1 PUSH2 0x47DB JUMPI POP PUSH2 0x47D8 PUSH4 0x7587926B PUSH1 0xE1 SHL PUSH2 0xF04 JUMP JUMPDEST DUP3 EQ JUMPDEST DUP1 PUSH2 0x74A JUMPI POP PUSH2 0x74A DUP3 PUSH2 0x4830 JUMP JUMPDEST PUSH1 0x0 PUSH2 0x47F9 DUP3 ISZERO ISZERO PUSH1 0x4 PUSH2 0x15BA JUMP JUMPDEST DUP2 DUP4 DUP2 PUSH2 0x4802 JUMPI INVALID JUMPDEST DIV SWAP4 SWAP3 POP POP POP JUMP JUMPDEST PUSH1 0x0 PUSH8 0xDE0B6B3A7640000 DUP3 LT PUSH2 0x4822 JUMPI PUSH1 0x0 PUSH2 0x74A JUMP JUMPDEST POP PUSH8 0xDE0B6B3A7640000 SUB SWAP1 JUMP JUMPDEST PUSH1 0x0 PUSH2 0x4842 PUSH4 0x1C74C917 PUSH1 0xE1 SHL PUSH2 0xF04 JUMP JUMPDEST DUP3 EQ DUP1 PUSH2 0x74A JUMPI POP PUSH2 0x485A PUSH4 0x50DD6ED9 PUSH1 0xE0 SHL PUSH2 0xF04 JUMP JUMPDEST SWAP1 SWAP2 EQ SWAP2 SWAP1 POP JUMP JUMPDEST DUP1 CALLDATALOAD PUSH2 0x74A DUP2 PUSH2 0x530A JUMP JUMPDEST PUSH1 0x0 DUP3 PUSH1 0x1F DUP4 ADD SLT PUSH2 0x487D JUMPI DUP1 DUP2 REVERT JUMPDEST DUP2 CALLDATALOAD PUSH2 0x4890 PUSH2 0x488B DUP3 PUSH2 0x52EB JUMP JUMPDEST PUSH2 0x52C5 JUMP JUMPDEST DUP2 DUP2 MSTORE SWAP2 POP PUSH1 0x20 DUP1 DUP4 ADD SWAP1 DUP5 DUP2 ADD DUP2 DUP5 MUL DUP7 ADD DUP3 ADD DUP8 LT ISZERO PUSH2 0x48B1 JUMPI PUSH1 0x0 DUP1 REVERT JUMPDEST PUSH1 0x0 JUMPDEST DUP5 DUP2 LT ISZERO PUSH2 0x48D0 JUMPI DUP2 CALLDATALOAD DUP5 MSTORE SWAP3 DUP3 ADD SWAP3 SWAP1 DUP3 ADD SWAP1 PUSH1 0x1 ADD PUSH2 0x48B4 JUMP JUMPDEST POP POP POP POP POP SWAP3 SWAP2 POP POP JUMP JUMPDEST PUSH1 0x0 DUP3 PUSH1 0x1F DUP4 ADD SLT PUSH2 0x48EB JUMPI DUP1 DUP2 REVERT JUMPDEST DUP2 MLOAD PUSH2 0x48F9 PUSH2 0x488B DUP3 PUSH2 0x52EB JUMP JUMPDEST DUP2 DUP2 MSTORE SWAP2 POP PUSH1 0x20 DUP1 DUP4 ADD SWAP1 DUP5 DUP2 ADD DUP2 DUP5 MUL DUP7 ADD DUP3 ADD DUP8 LT ISZERO PUSH2 0x491A JUMPI PUSH1 0x0 DUP1 REVERT JUMPDEST PUSH1 0x0 JUMPDEST DUP5 DUP2 LT ISZERO PUSH2 0x48D0 JUMPI DUP2 MLOAD DUP5 MSTORE SWAP3 DUP3 ADD SWAP3 SWAP1 DUP3 ADD SWAP1 PUSH1 0x1 ADD PUSH2 0x491D JUMP JUMPDEST PUSH1 0x0 DUP3 PUSH1 0x1F DUP4 ADD SLT PUSH2 0x4949 JUMPI DUP1 DUP2 REVERT JUMPDEST DUP2 CALLDATALOAD PUSH1 0x1 PUSH1 0x1 PUSH1 0x40 SHL SUB DUP2 GT ISZERO PUSH2 0x495E JUMPI DUP2 DUP3 REVERT JUMPDEST PUSH2 0x4971 PUSH1 0x1F DUP3 ADD PUSH1 0x1F NOT AND PUSH1 0x20 ADD PUSH2 0x52C5 JUMP JUMPDEST SWAP2 POP DUP1 DUP3 MSTORE DUP4 PUSH1 0x20 DUP3 DUP6 ADD ADD GT ISZERO PUSH2 0x4988 JUMPI PUSH1 0x0 DUP1 REVERT JUMPDEST DUP1 PUSH1 0x20 DUP5 ADD PUSH1 0x20 DUP5 ADD CALLDATACOPY PUSH1 0x0 SWAP1 DUP3 ADD PUSH1 0x20 ADD MSTORE SWAP3 SWAP2 POP POP JUMP JUMPDEST DUP1 MLOAD PUSH1 0x1 DUP2 LT PUSH2 0x74A JUMPI PUSH1 0x0 DUP1 REVERT JUMPDEST DUP1 CALLDATALOAD PUSH2 0x74A DUP2 PUSH2 0x532D JUMP JUMPDEST PUSH1 0x0 PUSH2 0x120 DUP1 DUP4 DUP6 SUB SLT ISZERO PUSH2 0x49CE JUMPI DUP2 DUP3 REVERT JUMPDEST PUSH2 0x49D7 DUP2 PUSH2 0x52C5 JUMP JUMPDEST SWAP2 POP POP PUSH2 0x49E4 DUP4 DUP4 PUSH2 0x49B0 JUMP JUMPDEST DUP2 MSTORE PUSH2 0x49F3 DUP4 PUSH1 0x20 DUP5 ADD PUSH2 0x4862 JUMP JUMPDEST PUSH1 0x20 DUP3 ADD MSTORE PUSH2 0x4A05 DUP4 PUSH1 0x40 DUP5 ADD PUSH2 0x4862 JUMP JUMPDEST PUSH1 0x40 DUP3 ADD MSTORE PUSH1 0x60 DUP3 ADD CALLDATALOAD PUSH1 0x60 DUP3 ADD MSTORE PUSH1 0x80 DUP3 ADD CALLDATALOAD PUSH1 0x80 DUP3 ADD MSTORE PUSH1 0xA0 DUP3 ADD CALLDATALOAD PUSH1 0xA0 DUP3 ADD MSTORE PUSH2 0x4A35 DUP4 PUSH1 0xC0 DUP5 ADD PUSH2 0x4862 JUMP JUMPDEST PUSH1 0xC0 DUP3 ADD MSTORE PUSH2 0x4A47 DUP4 PUSH1 0xE0 DUP5 ADD PUSH2 0x4862 JUMP JUMPDEST PUSH1 0xE0 DUP3 ADD MSTORE PUSH2 0x100 DUP1 DUP4 ADD CALLDATALOAD PUSH1 0x1 PUSH1 0x1 PUSH1 0x40 SHL SUB DUP2 GT ISZERO PUSH2 0x4A67 JUMPI PUSH1 0x0 DUP1 REVERT JUMPDEST PUSH2 0x4A73 DUP6 DUP3 DUP7 ADD PUSH2 0x4939 JUMP JUMPDEST DUP3 DUP5 ADD MSTORE POP POP SWAP3 SWAP2 POP POP JUMP JUMPDEST PUSH1 0x0 PUSH1 0x20 DUP3 DUP5 SUB SLT ISZERO PUSH2 0x4A90 JUMPI DUP1 DUP2 REVERT JUMPDEST DUP2 CALLDATALOAD PUSH2 0xA1D DUP2 PUSH2 0x530A JUMP JUMPDEST PUSH1 0x0 DUP1 PUSH1 0x40 DUP4 DUP6 SUB SLT ISZERO PUSH2 0x4AAD JUMPI DUP1 DUP2 REVERT JUMPDEST DUP3 CALLDATALOAD PUSH2 0x4AB8 DUP2 PUSH2 0x530A JUMP JUMPDEST SWAP2 POP PUSH1 0x20 DUP4 ADD CALLDATALOAD PUSH2 0x4AC8 DUP2 PUSH2 0x530A JUMP JUMPDEST DUP1 SWAP2 POP POP SWAP3 POP SWAP3 SWAP1 POP JUMP JUMPDEST PUSH1 0x0 DUP1 PUSH1 0x0 PUSH1 0x60 DUP5 DUP7 SUB SLT ISZERO PUSH2 0x4AE7 JUMPI DUP1 DUP2 REVERT JUMPDEST DUP4 CALLDATALOAD PUSH2 0x4AF2 DUP2 PUSH2 0x530A JUMP JUMPDEST SWAP3 POP PUSH1 0x20 DUP5 ADD CALLDATALOAD PUSH2 0x4B02 DUP2 PUSH2 0x530A JUMP JUMPDEST SWAP3 SWAP6 SWAP3 SWAP5 POP POP POP PUSH1 0x40 SWAP2 SWAP1 SWAP2 ADD CALLDATALOAD SWAP1 JUMP JUMPDEST PUSH1 0x0 DUP1 PUSH1 0x0 DUP1 PUSH1 0x0 DUP1 PUSH1 0x0 PUSH1 0xE0 DUP9 DUP11 SUB SLT ISZERO PUSH2 0x4B2D JUMPI DUP3 DUP4 REVERT JUMPDEST DUP8 CALLDATALOAD PUSH2 0x4B38 DUP2 PUSH2 0x530A JUMP JUMPDEST SWAP7 POP PUSH1 0x20 DUP9 ADD CALLDATALOAD PUSH2 0x4B48 DUP2 PUSH2 0x530A JUMP JUMPDEST SWAP6 POP PUSH1 0x40 DUP9 ADD CALLDATALOAD SWAP5 POP PUSH1 0x60 DUP9 ADD CALLDATALOAD SWAP4 POP PUSH1 0x80 DUP9 ADD CALLDATALOAD PUSH1 0xFF DUP2 AND DUP2 EQ PUSH2 0x4B6B JUMPI DUP4 DUP5 REVERT JUMPDEST SWAP7 SWAP10 SWAP6 SWAP9 POP SWAP4 SWAP7 SWAP3 SWAP6 SWAP5 PUSH1 0xA0 DUP5 ADD CALLDATALOAD SWAP5 POP PUSH1 0xC0 SWAP1 SWAP4 ADD CALLDATALOAD SWAP3 SWAP2 POP POP JUMP JUMPDEST PUSH1 0x0 DUP1 PUSH1 0x40 DUP4 DUP6 SUB SLT ISZERO PUSH2 0x4B9A JUMPI DUP2 DUP3 REVERT JUMPDEST DUP3 CALLDATALOAD PUSH2 0x4BA5 DUP2 PUSH2 0x530A JUMP JUMPDEST SWAP5 PUSH1 0x20 SWAP4 SWAP1 SWAP4 ADD CALLDATALOAD SWAP4 POP POP POP JUMP JUMPDEST PUSH1 0x0 DUP1 PUSH1 0x0 PUSH1 0x60 DUP5 DUP7 SUB SLT ISZERO PUSH2 0x4BC7 JUMPI DUP1 DUP2 REVERT JUMPDEST DUP4 MLOAD PUSH1 0x1 PUSH1 0x1 PUSH1 0x40 SHL SUB DUP1 DUP3 GT ISZERO PUSH2 0x4BDD JUMPI DUP3 DUP4 REVERT JUMPDEST DUP2 DUP7 ADD SWAP2 POP DUP7 PUSH1 0x1F DUP4 ADD SLT PUSH2 0x4BF0 JUMPI DUP3 DUP4 REVERT JUMPDEST DUP2 MLOAD PUSH2 0x4BFE PUSH2 0x488B DUP3 PUSH2 0x52EB JUMP JUMPDEST DUP1 DUP3 DUP3 MSTORE PUSH1 0x20 DUP1 DUP4 ADD SWAP3 POP DUP1 DUP7 ADD DUP12 DUP3 DUP4 DUP8 MUL DUP10 ADD ADD GT ISZERO PUSH2 0x4C1E JUMPI DUP8 DUP9 REVERT JUMPDEST DUP8 SWAP7 POP JUMPDEST DUP5 DUP8 LT ISZERO PUSH2 0x4C49 JUMPI DUP1 MLOAD PUSH2 0x4C35 DUP2 PUSH2 0x530A JUMP JUMPDEST DUP5 MSTORE PUSH1 0x1 SWAP7 SWAP1 SWAP7 ADD SWAP6 SWAP3 DUP2 ADD SWAP3 DUP2 ADD PUSH2 0x4C22 JUMP JUMPDEST POP DUP10 ADD MLOAD SWAP1 SWAP8 POP SWAP4 POP POP POP DUP1 DUP3 GT ISZERO PUSH2 0x4C60 JUMPI DUP3 DUP4 REVERT JUMPDEST POP PUSH2 0x4C6D DUP7 DUP3 DUP8 ADD PUSH2 0x48DB JUMP JUMPDEST SWAP3 POP POP PUSH1 0x40 DUP5 ADD MLOAD SWAP1 POP SWAP3 POP SWAP3 POP SWAP3 JUMP JUMPDEST PUSH1 0x0 PUSH1 0x20 DUP3 DUP5 SUB SLT ISZERO PUSH2 0x4C8F JUMPI DUP1 DUP2 REVERT JUMPDEST DUP2 CALLDATALOAD PUSH2 0xA1D DUP2 PUSH2 0x531F JUMP JUMPDEST PUSH1 0x0 PUSH1 0x20 DUP3 DUP5 SUB SLT ISZERO PUSH2 0x4CAB JUMPI DUP1 DUP2 REVERT JUMPDEST DUP2 MLOAD PUSH2 0xA1D DUP2 PUSH2 0x531F JUMP JUMPDEST PUSH1 0x0 DUP1 PUSH1 0x0 DUP1 PUSH1 0x0 DUP1 PUSH1 0x0 PUSH1 0xE0 DUP9 DUP11 SUB SLT ISZERO PUSH2 0x4CD0 JUMPI DUP1 DUP2 REVERT JUMPDEST DUP8 CALLDATALOAD SWAP7 POP PUSH1 0x20 DUP9 ADD CALLDATALOAD PUSH2 0x4CE2 DUP2 PUSH2 0x530A JUMP JUMPDEST SWAP6 POP PUSH1 0x40 DUP9 ADD CALLDATALOAD PUSH2 0x4CF2 DUP2 PUSH2 0x530A JUMP JUMPDEST SWAP5 POP PUSH1 0x60 DUP9 ADD CALLDATALOAD PUSH1 0x1 PUSH1 0x1 PUSH1 0x40 SHL SUB DUP1 DUP3 GT ISZERO PUSH2 0x4D0D JUMPI DUP3 DUP4 REVERT JUMPDEST PUSH2 0x4D19 DUP12 DUP4 DUP13 ADD PUSH2 0x486D JUMP JUMPDEST SWAP6 POP PUSH1 0x80 DUP11 ADD CALLDATALOAD SWAP5 POP PUSH1 0xA0 DUP11 ADD CALLDATALOAD SWAP4 POP PUSH1 0xC0 DUP11 ADD CALLDATALOAD SWAP2 POP DUP1 DUP3 GT ISZERO PUSH2 0x4D3C JUMPI DUP3 DUP4 REVERT JUMPDEST POP PUSH2 0x4D49 DUP11 DUP3 DUP12 ADD PUSH2 0x4939 JUMP JUMPDEST SWAP2 POP POP SWAP3 SWAP6 SWAP9 SWAP2 SWAP5 SWAP8 POP SWAP3 SWAP6 POP JUMP JUMPDEST PUSH1 0x0 PUSH1 0x20 DUP3 DUP5 SUB SLT ISZERO PUSH2 0x4D69 JUMPI DUP1 DUP2 REVERT JUMPDEST DUP2 CALLDATALOAD PUSH1 0x1 PUSH1 0x1 PUSH1 0xE0 SHL SUB NOT DUP2 AND DUP2 EQ PUSH2 0xA1D JUMPI DUP2 DUP3 REVERT JUMPDEST PUSH1 0x0 PUSH1 0x20 DUP3 DUP5 SUB SLT ISZERO PUSH2 0x4D91 JUMPI DUP1 DUP2 REVERT JUMPDEST DUP2 MLOAD PUSH2 0xA1D DUP2 PUSH2 0x530A JUMP JUMPDEST PUSH1 0x0 DUP1 PUSH1 0x40 DUP4 DUP6 SUB SLT ISZERO PUSH2 0x4DAE JUMPI DUP2 DUP3 REVERT JUMPDEST DUP3 CALLDATALOAD PUSH2 0x4DB9 DUP2 PUSH2 0x530A JUMP JUMPDEST SWAP2 POP PUSH1 0x20 DUP4 ADD CALLDATALOAD PUSH1 0x1 PUSH1 0x1 PUSH1 0x40 SHL SUB DUP2 GT ISZERO PUSH2 0x4DD3 JUMPI DUP2 DUP3 REVERT JUMPDEST PUSH2 0x4DDF DUP6 DUP3 DUP7 ADD PUSH2 0x4939 JUMP JUMPDEST SWAP2 POP POP SWAP3 POP SWAP3 SWAP1 POP JUMP JUMPDEST PUSH1 0x0 PUSH1 0x20 DUP3 DUP5 SUB SLT ISZERO PUSH2 0x4DFA JUMPI DUP1 DUP2 REVERT JUMPDEST PUSH2 0xA1D DUP4 DUP4 PUSH2 0x49A1 JUMP JUMPDEST PUSH1 0x0 DUP1 PUSH1 0x40 DUP4 DUP6 SUB SLT ISZERO PUSH2 0x4E16 JUMPI DUP2 DUP3 REVERT JUMPDEST PUSH2 0x4E20 DUP5 DUP5 PUSH2 0x49A1 JUMP JUMPDEST SWAP2 POP PUSH1 0x20 DUP4 ADD MLOAD SWAP1 POP SWAP3 POP SWAP3 SWAP1 POP JUMP JUMPDEST PUSH1 0x0 PUSH1 0x20 DUP3 DUP5 SUB SLT ISZERO PUSH2 0x4E41 JUMPI DUP1 DUP2 REVERT JUMPDEST DUP2 MLOAD PUSH2 0xA1D DUP2 PUSH2 0x532D JUMP JUMPDEST PUSH1 0x0 DUP1 PUSH1 0x40 DUP4 DUP6 SUB SLT ISZERO PUSH2 0x4E5E JUMPI DUP2 DUP3 REVERT JUMPDEST DUP3 MLOAD PUSH2 0x4E69 DUP2 PUSH2 0x532D JUMP JUMPDEST PUSH1 0x20 DUP5 ADD MLOAD SWAP1 SWAP3 POP PUSH1 0x1 PUSH1 0x1 PUSH1 0x40 SHL SUB DUP2 GT ISZERO PUSH2 0x4E84 JUMPI DUP2 DUP3 REVERT JUMPDEST PUSH2 0x4DDF DUP6 DUP3 DUP7 ADD PUSH2 0x48DB JUMP JUMPDEST PUSH1 0x0 DUP1 PUSH1 0x0 DUP1 PUSH1 0x80 DUP6 DUP8 SUB SLT ISZERO PUSH2 0x4EA5 JUMPI DUP2 DUP3 REVERT JUMPDEST DUP5 CALLDATALOAD PUSH1 0x1 PUSH1 0x1 PUSH1 0x40 SHL SUB DUP1 DUP3 GT ISZERO PUSH2 0x4EBB JUMPI DUP4 DUP5 REVERT JUMPDEST PUSH2 0x4EC7 DUP9 DUP4 DUP10 ADD PUSH2 0x49BB JUMP JUMPDEST SWAP6 POP PUSH1 0x20 DUP8 ADD CALLDATALOAD SWAP2 POP DUP1 DUP3 GT ISZERO PUSH2 0x4EDC JUMPI DUP4 DUP5 REVERT JUMPDEST POP PUSH2 0x4EE9 DUP8 DUP3 DUP9 ADD PUSH2 0x486D JUMP JUMPDEST SWAP5 SWAP8 SWAP5 SWAP7 POP POP POP POP PUSH1 0x40 DUP4 ADD CALLDATALOAD SWAP3 PUSH1 0x60 ADD CALLDATALOAD SWAP2 SWAP1 POP JUMP JUMPDEST PUSH1 0x0 DUP1 PUSH1 0x0 PUSH1 0x60 DUP5 DUP7 SUB SLT ISZERO PUSH2 0x4F14 JUMPI DUP1 DUP2 REVERT JUMPDEST DUP4 CALLDATALOAD PUSH1 0x1 PUSH1 0x1 PUSH1 0x40 SHL SUB DUP2 GT ISZERO PUSH2 0x4F29 JUMPI DUP2 DUP3 REVERT JUMPDEST PUSH2 0x4F35 DUP7 DUP3 DUP8 ADD PUSH2 0x49BB JUMP JUMPDEST SWAP7 PUSH1 0x20 DUP7 ADD CALLDATALOAD SWAP7 POP PUSH1 0x40 SWAP1 SWAP6 ADD CALLDATALOAD SWAP5 SWAP4 POP POP POP POP JUMP JUMPDEST PUSH1 0x0 PUSH1 0x20 DUP3 DUP5 SUB SLT ISZERO PUSH2 0x4F5C JUMPI DUP1 DUP2 REVERT JUMPDEST POP CALLDATALOAD SWAP2 SWAP1 POP JUMP JUMPDEST PUSH1 0x0 PUSH1 0x20 DUP3 DUP5 SUB SLT ISZERO PUSH2 0x4F74 JUMPI DUP1 DUP2 REVERT JUMPDEST POP MLOAD SWAP2 SWAP1 POP JUMP JUMPDEST PUSH1 0x0 DUP1 PUSH1 0x40 DUP4 DUP6 SUB SLT ISZERO PUSH2 0x4F8D JUMPI DUP2 DUP3 REVERT JUMPDEST POP POP DUP1 CALLDATALOAD SWAP3 PUSH1 0x20 SWAP1 SWAP2 ADD CALLDATALOAD SWAP2 POP JUMP JUMPDEST PUSH1 0x0 DUP1 PUSH1 0x0 DUP1 PUSH1 0x80 DUP6 DUP8 SUB SLT ISZERO PUSH2 0x4FB1 JUMPI DUP2 DUP3 REVERT JUMPDEST DUP5 MLOAD SWAP4 POP PUSH1 0x20 DUP6 ADD MLOAD SWAP3 POP PUSH1 0x40 DUP6 ADD MLOAD SWAP2 POP PUSH1 0x60 DUP6 ADD MLOAD PUSH2 0x4FD1 DUP2 PUSH2 0x530A JUMP JUMPDEST SWAP4 SWAP7 SWAP3 SWAP6 POP SWAP1 SWAP4 POP POP JUMP JUMPDEST PUSH1 0x0 DUP2 MLOAD DUP1 DUP5 MSTORE PUSH1 0x20 DUP1 DUP6 ADD SWAP5 POP DUP1 DUP5 ADD DUP4 JUMPDEST DUP4 DUP2 LT ISZERO PUSH2 0x500B JUMPI DUP2 MLOAD DUP8 MSTORE SWAP6 DUP3 ADD SWAP6 SWAP1 DUP3 ADD SWAP1 PUSH1 0x1 ADD PUSH2 0x4FEF JUMP JUMPDEST POP SWAP5 SWAP6 SWAP5 POP POP POP POP POP JUMP JUMPDEST PUSH1 0x0 DUP2 MLOAD DUP1 DUP5 MSTORE DUP2 JUMPDEST DUP2 DUP2 LT ISZERO PUSH2 0x503B JUMPI PUSH1 0x20 DUP2 DUP6 ADD DUP2 ADD MLOAD DUP7 DUP4 ADD DUP3 ADD MSTORE ADD PUSH2 0x501F JUMP JUMPDEST DUP2 DUP2 GT ISZERO PUSH2 0x504C JUMPI DUP3 PUSH1 0x20 DUP4 DUP8 ADD ADD MSTORE JUMPDEST POP PUSH1 0x1F ADD PUSH1 0x1F NOT AND SWAP3 SWAP1 SWAP3 ADD PUSH1 0x20 ADD SWAP3 SWAP2 POP POP JUMP JUMPDEST SWAP2 DUP3 MSTORE PUSH1 0x1 PUSH1 0x1 PUSH1 0xE0 SHL SUB NOT AND PUSH1 0x20 DUP3 ADD MSTORE PUSH1 0x24 ADD SWAP1 JUMP JUMPDEST PUSH1 0x0 DUP3 DUP5 DUP4 CALLDATACOPY SWAP2 ADD SWAP1 DUP2 MSTORE SWAP2 SWAP1 POP JUMP JUMPDEST PUSH2 0x1901 PUSH1 0xF0 SHL DUP2 MSTORE PUSH1 0x2 DUP2 ADD SWAP3 SWAP1 SWAP3 MSTORE PUSH1 0x22 DUP3 ADD MSTORE PUSH1 0x42 ADD SWAP1 JUMP JUMPDEST PUSH1 0x1 PUSH1 0x1 PUSH1 0xA0 SHL SUB SWAP2 SWAP1 SWAP2 AND DUP2 MSTORE PUSH1 0x20 ADD SWAP1 JUMP JUMPDEST PUSH1 0x20 DUP1 DUP3 MSTORE DUP3 MLOAD DUP3 DUP3 ADD DUP2 SWAP1 MSTORE PUSH1 0x0 SWAP2 SWAP1 DUP5 DUP3 ADD SWAP1 PUSH1 0x40 DUP6 ADD SWAP1 DUP5 JUMPDEST DUP2 DUP2 LT ISZERO PUSH2 0x50F9 JUMPI DUP4 MLOAD PUSH1 0x1 PUSH1 0x1 PUSH1 0xA0 SHL SUB AND DUP4 MSTORE SWAP3 DUP5 ADD SWAP3 SWAP2 DUP5 ADD SWAP2 PUSH1 0x1 ADD PUSH2 0x50D4 JUMP JUMPDEST POP SWAP1 SWAP7 SWAP6 POP POP POP POP POP POP JUMP JUMPDEST PUSH1 0x0 PUSH1 0x20 DUP3 MSTORE PUSH2 0xA1D PUSH1 0x20 DUP4 ADD DUP5 PUSH2 0x4FDC JUMP JUMPDEST PUSH1 0x0 PUSH1 0x40 DUP3 MSTORE PUSH2 0x512B PUSH1 0x40 DUP4 ADD DUP6 PUSH2 0x4FDC JUMP JUMPDEST DUP3 DUP2 SUB PUSH1 0x20 DUP5 ADD MSTORE PUSH2 0x186C DUP2 DUP6 PUSH2 0x4FDC JUMP JUMPDEST SWAP1 ISZERO ISZERO DUP2 MSTORE PUSH1 0x20 ADD SWAP1 JUMP JUMPDEST SWAP3 ISZERO ISZERO DUP4 MSTORE PUSH1 0x20 DUP4 ADD SWAP2 SWAP1 SWAP2 MSTORE PUSH1 0x40 DUP3 ADD MSTORE PUSH1 0x60 ADD SWAP1 JUMP JUMPDEST SWAP1 DUP2 MSTORE PUSH1 0x20 ADD SWAP1 JUMP JUMPDEST SWAP3 DUP4 MSTORE PUSH1 0x1 PUSH1 0x1 PUSH1 0xA0 SHL SUB SWAP2 DUP3 AND PUSH1 0x20 DUP5 ADD MSTORE AND PUSH1 0x40 DUP3 ADD MSTORE PUSH1 0x60 ADD SWAP1 JUMP JUMPDEST SWAP6 DUP7 MSTORE PUSH1 0x1 PUSH1 0x1 PUSH1 0xA0 SHL SUB SWAP5 DUP6 AND PUSH1 0x20 DUP8 ADD MSTORE SWAP3 SWAP1 SWAP4 AND PUSH1 0x40 DUP6 ADD MSTORE PUSH1 0x60 DUP5 ADD MSTORE PUSH1 0x80 DUP4 ADD SWAP2 SWAP1 SWAP2 MSTORE PUSH1 0xA0 DUP3 ADD MSTORE PUSH1 0xC0 ADD SWAP1 JUMP JUMPDEST SWAP5 DUP6 MSTORE PUSH1 0x20 DUP6 ADD SWAP4 SWAP1 SWAP4 MSTORE PUSH1 0x40 DUP5 ADD SWAP2 SWAP1 SWAP2 MSTORE PUSH1 0x60 DUP4 ADD MSTORE PUSH1 0x1 PUSH1 0x1 PUSH1 0xA0 SHL SUB AND PUSH1 0x80 DUP3 ADD MSTORE PUSH1 0xA0 ADD SWAP1 JUMP JUMPDEST PUSH1 0x0 DUP4 DUP3 MSTORE PUSH1 0x40 PUSH1 0x20 DUP4 ADD MSTORE PUSH2 0x3E71 PUSH1 0x40 DUP4 ADD DUP5 PUSH2 0x5016 JUMP JUMPDEST SWAP2 DUP3 MSTORE PUSH1 0x1 PUSH1 0x1 PUSH1 0xA0 SHL SUB AND PUSH1 0x20 DUP3 ADD MSTORE PUSH1 0x40 ADD SWAP1 JUMP JUMPDEST SWAP4 DUP5 MSTORE PUSH1 0xFF SWAP3 SWAP1 SWAP3 AND PUSH1 0x20 DUP5 ADD MSTORE PUSH1 0x40 DUP4 ADD MSTORE PUSH1 0x60 DUP3 ADD MSTORE PUSH1 0x80 ADD SWAP1 JUMP JUMPDEST PUSH1 0x0 PUSH1 0x20 DUP3 MSTORE PUSH2 0xA1D PUSH1 0x20 DUP4 ADD DUP5 PUSH2 0x5016 JUMP JUMPDEST PUSH1 0x0 DUP4 DUP3 MSTORE PUSH1 0x40 PUSH1 0x20 DUP4 ADD MSTORE PUSH2 0x3E71 PUSH1 0x40 DUP4 ADD DUP5 PUSH2 0x4FDC JUMP JUMPDEST SWAP3 DUP4 MSTORE SWAP1 ISZERO ISZERO PUSH1 0x20 DUP4 ADD MSTORE PUSH1 0x40 DUP3 ADD MSTORE PUSH1 0x60 ADD SWAP1 JUMP JUMPDEST SWAP2 DUP3 MSTORE PUSH1 0x20 DUP3 ADD MSTORE PUSH1 0x40 ADD SWAP1 JUMP JUMPDEST SWAP3 DUP4 MSTORE PUSH1 0x20 DUP4 ADD SWAP2 SWAP1 SWAP2 MSTORE PUSH1 0x40 DUP3 ADD MSTORE PUSH1 0x60 ADD SWAP1 JUMP JUMPDEST SWAP4 DUP5 MSTORE PUSH1 0x20 DUP5 ADD SWAP3 SWAP1 SWAP3 MSTORE PUSH1 0x40 DUP4 ADD MSTORE PUSH1 0x60 DUP3 ADD MSTORE PUSH1 0x80 ADD SWAP1 JUMP JUMPDEST PUSH1 0xFF SWAP2 SWAP1 SWAP2 AND DUP2 MSTORE PUSH1 0x20 ADD SWAP1 JUMP JUMPDEST PUSH1 0x40 MLOAD DUP2 DUP2 ADD PUSH1 0x1 PUSH1 0x1 PUSH1 0x40 SHL SUB DUP2 GT DUP3 DUP3 LT OR ISZERO PUSH2 0x52E3 JUMPI PUSH1 0x0 DUP1 REVERT JUMPDEST PUSH1 0x40 MSTORE SWAP2 SWAP1 POP JUMP JUMPDEST PUSH1 0x0 PUSH1 0x1 PUSH1 0x1 PUSH1 0x40 SHL SUB DUP3 GT ISZERO PUSH2 0x5300 JUMPI DUP1 DUP2 REVERT JUMPDEST POP PUSH1 0x20 SWAP1 DUP2 MUL ADD SWAP1 JUMP JUMPDEST PUSH1 0x1 PUSH1 0x1 PUSH1 0xA0 SHL SUB DUP2 AND DUP2 EQ PUSH2 0x761 JUMPI PUSH1 0x0 DUP1 REVERT JUMPDEST DUP1 ISZERO ISZERO DUP2 EQ PUSH2 0x761 JUMPI PUSH1 0x0 DUP1 REVERT JUMPDEST PUSH1 0x2 DUP2 LT PUSH2 0x761 JUMPI PUSH1 0x0 DUP1 REVERT INVALID LOG2 PUSH5 0x6970667358 0x22 SLT KECCAK256 DUP13 BYTE DUP16 SWAP4 0x4B SWAP16 0xFB 0xAC 0xF7 MSIZE POP 0x5C 0xC9 XOR 0x4C SSTORE DUP10 0xBE 0xBC 0xA8 0x2F ADD 0xDD 0xC4 0x49 DUP7 0xDB MOD 0xF6 0xAE 0xEF LOG1 PUSH5 0x736F6C6343 STOP SMOD ADD STOP CALLER "
		},
		"gasEstimates": {
			"creation": {
				"codeDepositCost": "541400",
				"executionCost": "infinite",
				"totalCost": "infinite"
			},
			"external": {
				"create(string,string,address[],uint256,address[],uint256[],uint256,address)": "infinite",
				"getCreationCode()": "infinite",
				"getCreationCodeContracts()": "infinite",
				"getPauseConfiguration()": "infinite",
				"getVault()": "infinite",
				"isPoolFromFactory(address)": "1345"
			}
		},
		"methodIdentifiers": {
			"create(string,string,address[],uint256,address[],uint256[],uint256,address)": "4555fb8d",
			"getCreationCode()": "00c194db",
			"getCreationCodeContracts()": "174481fa",
			"getPauseConfiguration()": "2da47c40",
			"getVault()": "8d928af8",
			"isPoolFromFactory(address)": "6634b753"
		}
	},
	"abi": [
		{
			"inputs": [
				{
					"internalType": "contract IVault",
					"name": "vault",
					"type": "address"
				}
			],
			"stateMutability": "nonpayable",
			"type": "constructor"
		},
		{
			"anonymous": false,
			"inputs": [
				{
					"indexed": true,
					"internalType": "address",
					"name": "pool",
					"type": "address"
				}
			],
			"name": "PoolCreated",
			"type": "event"
		},
		{
			"inputs": [
				{
					"internalType": "string",
					"name": "name",
					"type": "string"
				},
				{
					"internalType": "string",
					"name": "symbol",
					"type": "string"
				},
				{
					"internalType": "contract IERC20[]",
					"name": "tokens",
					"type": "address[]"
				},
				{
					"internalType": "uint256",
					"name": "amplificationParameter",
					"type": "uint256"
				},
				{
					"internalType": "contract IRateProvider[]",
					"name": "rateProviders",
					"type": "address[]"
				},
				{
					"internalType": "uint256[]",
					"name": "tokenRateCacheDurations",
					"type": "uint256[]"
				},
				{
					"internalType": "uint256",
					"name": "swapFeePercentage",
					"type": "uint256"
				},
				{
					"internalType": "address",
					"name": "owner",
					"type": "address"
				}
			],
			"name": "create",
			"outputs": [
				{
					"internalType": "contract StablePhantomPool",
					"name": "",
					"type": "address"
				}
			],
			"stateMutability": "nonpayable",
			"type": "function"
		},
		{
			"inputs": [],
			"name": "getCreationCode",
			"outputs": [
				{
					"internalType": "bytes",
					"name": "",
					"type": "bytes"
				}
			],
			"stateMutability": "view",
			"type": "function"
		},
		{
			"inputs": [],
			"name": "getCreationCodeContracts",
			"outputs": [
				{
					"internalType": "address",
					"name": "contractA",
					"type": "address"
				},
				{
					"internalType": "address",
					"name": "contractB",
					"type": "address"
				}
			],
			"stateMutability": "view",
			"type": "function"
		},
		{
			"inputs": [],
			"name": "getPauseConfiguration",
			"outputs": [
				{
					"internalType": "uint256",
					"name": "pauseWindowDuration",
					"type": "uint256"
				},
				{
					"internalType": "uint256",
					"name": "bufferPeriodDuration",
					"type": "uint256"
				}
			],
			"stateMutability": "view",
			"type": "function"
		},
		{
			"inputs": [],
			"name": "getVault",
			"outputs": [
				{
					"internalType": "contract IVault",
					"name": "",
					"type": "address"
				}
			],
			"stateMutability": "view",
			"type": "function"
		},
		{
			"inputs": [
				{
					"internalType": "address",
					"name": "pool",
					"type": "address"
				}
			],
			"name": "isPoolFromFactory",
			"outputs": [
				{
					"internalType": "bool",
					"name": "",
					"type": "bool"
				}
			],
			"stateMutability": "view",
			"type": "function"
		}
	]
}