{
	"data": {
		"bytecode": {
			"linkReferences": {},
			"object": "60c060405234801561001057600080fd5b50604051615b0f380380615b0f83398101604081905261002f9161004d565b60601b6001600160601b0319166080526276a700420160a05261007b565b60006020828403121561005e578081fd5b81516001600160a01b0381168114610074578182fd5b9392505050565b60805160601c60a051615a6a6100a56000398060d652806101005250806101dd5250615a6a6000f3fe60806040523480156200001157600080fd5b5060043610620000525760003560e01c80632da47c4014620000575780636634b753146200007a5780637932c7f314620000a05780638d928af814620000c6575b600080fd5b62000061620000d0565b604051620000719291906200055c565b60405180910390f35b620000916200008b366004620002da565b6200013c565b60405162000071919062000494565b620000b7620000b136600462000300565b6200015a565b60405162000071919062000480565b620000b7620001db565b600080427f00000000000000000000000000000000000000000000000000000000000000008110156200012e57807f000000000000000000000000000000000000000000000000000000000000000003925062278d00915062000137565b60009250600091505b509091565b6001600160a01b031660009081526020819052604090205460ff1690565b600080600062000169620000d0565b91509150600062000179620001db565b8a8a8a8a8a88888c6040516200018f906200024b565b620001a3999897969594939291906200049f565b604051809103906000f080158015620001c0573d6000803e3d6000fd5b509050620001ce81620001ff565b9998505050505050505050565b7f000000000000000000000000000000000000000000000000000000000000000090565b6001600160a01b038116600081815260208190526040808220805460ff19166001179055517f83a48fbcfc991335314e74d0496aab6a1987e992ddc85dddbcc4d6dd6ef2e9fc9190a250565b61547d80620005b883390190565b803562000266816200059e565b92915050565b600082601f8301126200027d578081fd5b813567ffffffffffffffff81111562000294578182fd5b620002a9601f8201601f19166020016200056a565b9150808252836020828501011115620002c157600080fd5b8060208401602084013760009082016020015292915050565b600060208284031215620002ec578081fd5b8135620002f9816200059e565b9392505050565b60008060008060008060c0878903121562000319578182fd5b863567ffffffffffffffff8082111562000331578384fd5b6200033f8a838b016200026c565b975060209150818901358181111562000356578485fd5b620003648b828c016200026c565b97505060408901358181111562000379578485fd5b8901601f81018b136200038a578485fd5b80358281111562000399578586fd5b8381029250620003ab8484016200056a565b8181528481019083860185850187018f1015620003c6578889fd5b8895505b83861015620003f457620003df8f8262000259565b835260019590950194918601918601620003ca565b50985050505060608901359450505060808701359150620004198860a0890162000259565b90509295509295509295565b6001600160a01b03169052565b60008151808452815b8181101562000459576020818501810151868301820152016200043b565b818111156200046b5782602083870101525b50601f01601f19169290920160200192915050565b6001600160a01b0391909116815260200190565b901515815260200190565b6001600160a01b038a168152610120602080830182905260009190620004c88483018d62000432565b91508382036040850152620004de828c62000432565b84810360608601528a51808252828c01935090820190845b818110156200051e576200050b855162000592565b83529383019391830191600101620004f6565b50508093505050508660808301528560a08301528460c08301528360e08301526200054e61010083018462000425565b9a9950505050505050505050565b918252602082015260400190565b60405181810167ffffffffffffffff811182821017156200058a57600080fd5b604052919050565b6001600160a01b031690565b6001600160a01b0381168114620005b457600080fd5b5056fe6103e06040527f6e71edae12b1b97f4d1f60370fef10105fa2faae0126114a169c64845d6126c9610120523480156200003757600080fd5b506040516200547d3803806200547d8339810160408190526200005a9162000bf3565b8886516002146200006d57600062000070565b60025b8989898a516001600160401b03811180156200008b57600080fd5b50604051908082528060200260200182016040528015620000b6578160200160208202803683370190505b506040805180820190915260018152603160f81b602080830191909152336080526001600160601b031960608a901b1660a05285518c928c928c928c92859285928c928c92849283929183918691620001159160039185019062000a11565b5080516200012b90600490602084019062000a11565b50506005805460ff1916601217905550815160209283012060c052805191012060e05250507f8b73c3c69bb8fe3d512ecc4cf759cc79239f7b179b0ffacaa9a75d522b39400f61010052506200018a6276a70083111561019462000699565b6200019e62278d0082111561019562000699565b4290910161014081905201610160528551620001c0906002111560c862000699565b620001d860088751111560c96200069960201b60201c565b620001ee86620006ae60201b62000f081760201c565b620001f984620006ba565b6040516309b2760f60e01b81526000906001600160a01b038c16906309b2760f906200022a908d9060040162000d8f565b602060405180830381600087803b1580156200024557600080fd5b505af11580156200025a573d6000803e3d6000fd5b505050506040513d601f19601f8201168201806040525081019062000280919062000bda565b604051633354e3e960e11b81529091506001600160a01b038c16906366a9c7d290620002b59084908b908b9060040162000cf3565b600060405180830381600087803b158015620002d057600080fd5b505af1158015620002e5573d6000803e3d6000fd5b505088516001600160601b031960608f901b16610180526101a08490526101c0819052915050806200031957600062000330565b876000815181106200032757fe5b60200260200101515b60601b6001600160601b0319166101e052600181116200035257600062000369565b876001815181106200036057fe5b60200260200101515b60601b6001600160601b03191661020052600281116200038b576000620003a2565b876002815181106200039957fe5b60200260200101515b60601b6001600160601b0319166102205260038111620003c4576000620003db565b87600381518110620003d257fe5b60200260200101515b60601b6001600160601b0319166102405260048111620003fd57600062000414565b876004815181106200040b57fe5b60200260200101515b60601b6001600160601b0319166102605260058111620004365760006200044d565b876005815181106200044457fe5b60200260200101515b60601b6001600160601b03191661028052600681116200046f57600062000486565b876006815181106200047d57fe5b60200260200101515b60601b6001600160601b0319166102a05260078111620004a8576000620004bf565b87600781518110620004b657fe5b60200260200101515b60601b6001600160601b0319166102c05280620004de57600062000504565b6200050488600081518110620004f057fe5b60200260200101516200072960201b60201c565b6102e05260018111620005195760006200052b565b6200052b88600181518110620004f057fe5b61030052600281116200054057600062000552565b6200055288600281518110620004f057fe5b61032052600381116200056757600062000579565b6200057988600381518110620004f057fe5b61034052600481116200058e576000620005a0565b620005a088600481518110620004f057fe5b6103605260058111620005b5576000620005c7565b620005c788600581518110620004f057fe5b6103805260068111620005dc576000620005ee565b620005ee88600681518110620004f057fe5b6103a052600781116200060357600062000615565b6200061588600781518110620004f057fe5b6103c05250508f516200063c9a5060051015985061012f9750506200069995505050505050565b6200064e600186101561012c62000699565b6200066161138886111561012d62000699565b60006200067c866103e8620007d560201b62000f121760201c565b9050620006898162000806565b5050505050505050505062000e11565b81620006aa57620006aa8162000845565b5050565b80620006aa8162000898565b620006cf64e8d4a5100082101560cb62000699565b620006e767016345785d8a000082111560ca62000699565b60088190556040517fa9ba3ffe0b6c366b81232caab38605a0699ad5398d6cce76f91ee809e322dafc906200071e90839062000da4565b60405180910390a150565b600080826001600160a01b031663313ce5676040518163ffffffff1660e01b815260040160206040518083038186803b1580156200076657600080fd5b505afa1580156200077b573d6000803e3d6000fd5b505050506040513d601f19601f82011682018060405250810190620007a1919062000cd0565b60ff1690506000620007c06012836200092560201b62000f361760201c565b600a0a670de0b6b3a764000002949350505050565b6000828202620007fd841580620007f5575083858381620007f257fe5b04145b600362000699565b90505b92915050565b62000814818042806200093d565b7fa0d01593e47e69d07e0ccd87bece09411e07dd1ed40ca8f2e7af2976542a0233816040516200071e919062000da4565b62461bcd60e51b6000908152602060045260076024526642414c23000030600a808404818106603090810160081b95839006959095019082900491820690940160101b939093010160c81b604452606490fd5b600281511015620008a95762000922565b600081600081518110620008b957fe5b602002602001015190506000600190505b82518110156200091f576000838281518110620008e357fe5b6020026020010151905062000914816001600160a01b0316846001600160a01b03161060656200069960201b60201c565b9150600101620008ca565b50505b50565b60006200093783831115600162000699565b50900390565b6200095e816001600160401b031660c062000a0d60201b62000f4c1760201c565b6200097f836001600160401b0316608062000a0d60201b62000f4c1760201c565b620009a0856001600160401b0316604062000a0d60201b62000f4c1760201c565b620009c1876001600160401b0316600062000a0d60201b62000f4c1760201c565b1717176009556040517f1835882ee7a34ac194f717a35e09bb1d24c82a3b9d854ab6c9749525b714cdf290620009ff90869086908690869062000dad565b60405180910390a150505050565b1b90565b828054600181600116156101000203166002900490600052602060002090601f016020900481019282601f1062000a5457805160ff191683800117855562000a84565b8280016001018555821562000a84579182015b8281111562000a8457825182559160200191906001019062000a67565b5062000a9292915062000a96565b5090565b5b8082111562000a92576000815560010162000a97565b8051620008008162000dfb565b600082601f83011262000acb578081fd5b81516001600160401b0381111562000ae1578182fd5b602080820262000af382820162000dc8565b8381529350818401858301828701840188101562000b1057600080fd5b600092505b8483101562000b4057805162000b2b8162000dfb565b82526001929092019190830190830162000b15565b505050505092915050565b600082601f83011262000b5c578081fd5b81516001600160401b0381111562000b72578182fd5b602062000b88601f8301601f1916820162000dc8565b9250818352848183860101111562000b9f57600080fd5b60005b8281101562000bbf57848101820151848201830152810162000ba2565b8281111562000bd15760008284860101525b50505092915050565b60006020828403121562000bec578081fd5b5051919050565b60008060008060008060008060006101208a8c03121562000c12578485fd5b62000c1e8b8b62000aad565b60208b01519099506001600160401b038082111562000c3b578687fd5b62000c498d838e0162000b4b565b995060408c015191508082111562000c5f578687fd5b62000c6d8d838e0162000b4b565b985060608c015191508082111562000c83578687fd5b5062000c928c828d0162000aba565b96505060808a0151945060a08a0151935060c08a0151925060e08a0151915062000cc18b6101008c0162000aad565b90509295985092959850929598565b60006020828403121562000ce2578081fd5b815160ff81168114620007fd578182fd5b60006060820185835260206060818501528186518084526080860191508288019350845b8181101562000d3f5762000d2c855162000def565b8352938301939183019160010162000d17565b505084810360408601528551808252908201925081860190845b8181101562000d815762000d6e835162000def565b8552938301939183019160010162000d59565b509298975050505050505050565b602081016003831062000d9e57fe5b91905290565b90815260200190565b93845260208401929092526040830152606082015260800190565b6040518181016001600160401b038111828210171562000de757600080fd5b604052919050565b6001600160a01b031690565b6001600160a01b03811681146200092257600080fd5b60805160a05160601c60c05160e051610100516101205161014051610160516101805160601c6101a0516101c0516101e05160601c6102005160601c6102205160601c6102405160601c6102605160601c6102805160601c6102a05160601c6102c05160601c6102e05161030051610320516103405161036051610380516103a0516103c05161450562000f78600039806111cf52806120dd52508061118c528061207c525080611149528061201b5250806111065280611fba5250806110c35280611f595250806110805280611ef852508061103d5280611e97525080610fec5280611e365250806120a2525080612041525080611fe0525080611f7f525080611f1e525080611ebd525080611e5c525080611dfb52806129fd525080610f52525080610759525080610a8552508061143f52508061141b525080610c795250806116945250806116d65250806116b5525080610a615250806109eb52506145056000f3fe608060405234801561001057600080fd5b50600436106102065760003560e01c80636daccffa1161011a57806395d89b41116100ad578063aaabadc51161007c578063aaabadc514610434578063d505accf1461043c578063d5c096c41461044f578063dd62ed3e14610462578063eb0f24d61461047557610206565b806395d89b41146103f35780639d2c110c146103fb578063a457c2d71461040e578063a9059cbb1461042157610206565b8063851c1bb3116100e9578063851c1bb3146103b057806387ec6817146103c3578063893d20e8146103d65780638d928af8146103eb57610206565b80636daccffa1461035257806370a082311461036957806374f3b0091461037c5780637ecebe001461039d57610206565b8063313ce5671161019d578063395093511161016c57806339509351146102fb57806350dd6ed91461030e57806355c67628146103215780636028bfd414610329578063679aefce1461034a57610206565b8063313ce567146102c35780633644e515146102d857806338e9922e146102e057806338fff2d0146102f357610206565b806318160ddd116101d957806318160ddd1461027e5780631c0de0511461028657806323b872dd1461029d5780632f1a0bc9146102b057610206565b806301ec954a1461020b57806306fdde0314610234578063095ea7b31461024957806316c38b3c14610269575b600080fd5b61021e6102193660046140c1565b61047d565b60405161022b9190614319565b60405180910390f35b61023c6104dc565b60405161022b91906143ef565b61025c610257366004613d57565b610573565b60405161022b91906142f6565b61027c610277366004613e4d565b61058a565b005b61021e61059e565b61028e6105a4565b60405161022b93929190614301565b61025c6102ab366004613ca2565b6105cd565b61027c6102be366004614194565b610643565b6102cb610726565b60405161022b919061444c565b61021e61072f565b61027c6102ee36600461417c565b61073e565b61021e610757565b61025c610309366004613d57565b61077b565b61027c61031c366004613f6b565b6107b6565b61021e6107d4565b61033c610337366004613e85565b6107da565b60405161022b929190614402565b61021e610811565b61035a6108ef565b60405161022b9392919061441b565b61021e610377366004613c4e565b61090a565b61038f61038a366004613e85565b610929565b60405161022b9291906142d1565b61021e6103ab366004613c4e565b6109cc565b61021e6103be366004613f27565b6109e7565b61033c6103d1366004613e85565b610a39565b6103de610a5f565b60405161022b91906142bd565b6103de610a83565b61023c610aa7565b61021e610409366004614131565b610b08565b61025c61041c366004613d57565b610bef565b61025c61042f366004613d57565b610c2d565b6103de610c3a565b61027c61044a366004613ce2565b610c44565b61038f61045d366004613e85565b610d8d565b61021e610470366004613c6a565b610eb1565b61027c610edc565b6000610491838361048c610f50565b610f74565b606061049b610f91565b90506000865160018111156104ac57fe5b146104c3576104be868686868561120d565b6104d0565b6104d08686868685611284565b9150505b949350505050565b60038054604080516020601f60026000196101006001881615020190951694909404938401819004810282018101909252828152606093909290918301828280156105685780601f1061053d57610100808354040283529160200191610568565b820191906000526020600020905b81548152906001019060200180831161054b57829003601f168201915b505050505090505b90565b60006105803384846112e8565b5060015b92915050565b610592611350565b61059b8161137e565b50565b60025490565b60008060006105b16113fc565b1592506105bc611419565b91506105c661143d565b9050909192565b6000806105da8533610eb1565b90506105fe336001600160a01b03871614806105f65750838210155b61019e611461565b61060985858561146f565b336001600160a01b0386161480159061062457506000198114155b156106365761063685338584036112e8565b60019150505b9392505050565b61064b611350565b61065b600183101561012c611461565b61066c61138883111561012d611461565b60006106788242610f36565b905061068c6201518082101561013d611461565b60008061069761154f565b915091506106a8811561013e611461565b60006106b6866103e8610f12565b905060008382116106e5576106e06106d16201518086610f12565b6106db8488610f12565b6115c3565b6106ff565b6106ff6106f56201518084610f12565b6106db8688610f12565b9050610711600282111561013f611461565b61071d848342896115f6565b50505050505050565b60055460ff1690565b6000610739611690565b905090565b610746611350565b61074e61172d565b61059b81611742565b7f000000000000000000000000000000000000000000000000000000000000000090565b3360008181526001602090815260408083206001600160a01b038716845290915281205490916105809185906107b190866117a0565b6112e8565b6107be611350565b6107c661172d565b6107d082826117b2565b5050565b60085490565b600060606107f086516107eb610f50565b6118b1565b610805898989898989896118be6119616119c2565b97509795505050505050565b6000606061081d610a83565b6001600160a01b031663f94d4668610833610757565b6040518263ffffffff1660e01b815260040161084f9190614319565b60006040518083038186803b15801561086757600080fd5b505afa15801561087b573d6000803e3d6000fd5b505050506040513d6000823e601f3d908101601f191682016040526108a39190810190613d82565b5091505060006108b161154f565b5090506108c5826108c0610f91565b611ae5565b60006108d382846000611b46565b90506108e76108e061059e565b8290611ce2565b935050505090565b60008060006108fc61154f565b90949093506103e892509050565b6001600160a01b0381166000908152602081905260409020545b919050565b60608088610953610938610a83565b6001600160a01b0316336001600160a01b03161460cd611461565b61096861095e610757565b82146101f4611461565b6060610972610f91565b905061097e8882611ae5565b60006060806109938e8e8e8e8e8e8a8f6118be565b9250925092506109a38d84611d33565b6109ad8285611961565b6109b78185611961565b909550935050505b5097509795505050505050565b6001600160a01b031660009081526006602052604090205490565b60007f000000000000000000000000000000000000000000000000000000000000000082604051602001610a1c92919061427a565b604051602081830303815290604052805190602001209050919050565b60006060610a4a86516107eb610f50565b61080589898989898989611d3d611d966119c2565b7f000000000000000000000000000000000000000000000000000000000000000090565b7f000000000000000000000000000000000000000000000000000000000000000090565b60048054604080516020601f60026000196101006001881615020190951694909404938401819004810282018101909252828152606093909290918301828280156105685780601f1061053d57610100808354040283529160200191610568565b600080610b188560200151611df7565b90506000610b298660400151611df7565b9050600086516001811115610b3a57fe5b1415610ba057610b4d866060015161210c565b6060870152610b5c8583612130565b9450610b688482612130565b9350610b78866060015183612130565b60608701526000610b8a87878761213c565b9050610b968183612180565b935050505061063c565b610baa8583612130565b9450610bb68482612130565b9350610bc6866060015182612130565b60608701526000610bd887878761218c565b9050610be481846121bb565b9050610b96816121c7565b600080610bfc3385610eb1565b9050808310610c1657610c11338560006112e8565b610c23565b610c2333858584036112e8565b5060019392505050565b600061058033848461146f565b60006107396121f0565b610c528442111560d1611461565b6001600160a01b0387166000908152600660209081526040808320549051909291610ca9917f0000000000000000000000000000000000000000000000000000000000000000918c918c918c9188918d9101614341565b6040516020818303038152906040528051906020012090506000610ccc8261226a565b9050600060018288888860405160008152602001604052604051610cf394939291906143d1565b6020604051602081039080840390855afa158015610d15573d6000803e3d6000fd5b5050604051601f1901519150610d5790506001600160a01b03821615801590610d4f57508b6001600160a01b0316826001600160a01b0316145b6101f8611461565b6001600160a01b038b166000908152600660205260409020600185019055610d808b8b8b6112e8565b5050505050505050505050565b60608088610d9c610938610a83565b610da761095e610757565b6060610db1610f91565b9050610dbb61059e565b610e615760006060610dd08d8d8d868b612286565b91509150610de5620f424083101560cc611461565b610df36000620f4240612315565b610e028b620f42408403612315565b610e0c8184611d96565b80610e15610f50565b6001600160401b0381118015610e2a57600080fd5b50604051908082528060200260200182016040528015610e54578160200160208202803683370190505b50955095505050506109bf565b610e6b8882611ae5565b6000606080610e808e8e8e8e8e8e8a8f611d3d565b925092509250610e908c84612315565b610e9a8285611d96565b610ea48185611961565b90955093506109bf915050565b6001600160a01b03918216600090815260016020908152604080832093909416825291909152205490565b610ee4611350565b600080610eef61154f565b91509150610eff81610140611461565b6107d08261231f565b806107d08161235a565b600082820261063c841580610f2f575083858381610f2c57fe5b04145b6003611461565b6000610f46838311156001611461565b50900390565b1b90565b7f000000000000000000000000000000000000000000000000000000000000000090565b610f8c8184108015610f8557508183105b6064611461565b505050565b60606000610f9d610f50565b90506060816001600160401b0381118015610fb757600080fd5b50604051908082528060200260200182016040528015610fe1578160200160208202803683370190505b5090508115611029577f00000000000000000000000000000000000000000000000000000000000000008160008151811061101857fe5b602002602001018181525050611032565b91506105709050565b6001821115611029577f00000000000000000000000000000000000000000000000000000000000000008160018151811061106957fe5b6020026020010181815250506002821115611029577f0000000000000000000000000000000000000000000000000000000000000000816002815181106110ac57fe5b6020026020010181815250506003821115611029577f0000000000000000000000000000000000000000000000000000000000000000816003815181106110ef57fe5b6020026020010181815250506004821115611029577f00000000000000000000000000000000000000000000000000000000000000008160048151811061113257fe5b6020026020010181815250506005821115611029577f00000000000000000000000000000000000000000000000000000000000000008160058151811061117557fe5b6020026020010181815250506006821115611029577f0000000000000000000000000000000000000000000000000000000000000000816006815181106111b857fe5b6020026020010181815250506007821115611029577f0000000000000000000000000000000000000000000000000000000000000000816007815181106111fb57fe5b60200260200101818152505091505090565b60006112198583611ae5565b61123a866060015183858151811061122d57fe5b6020026020010151612130565b6060870152600061124d878787876123d3565b905061126c8184878151811061125f57fe5b60200260200101516121bb565b9050611277816121c7565b9150505b95945050505050565b6000611293866060015161210c565b60608701526112a28583611ae5565b6112b6866060015183868151811061122d57fe5b606087015260006112c9878787876123fd565b9050611277818486815181106112db57fe5b6020026020010151612180565b6001600160a01b0380841660008181526001602090815260408083209487168084529490915290819020849055517f8c5be1e5ebec7d5bd14f71427d1e84f3dd0314c0f7b2291e5b200ac8c7c3b92590611343908590614319565b60405180910390a3505050565b60006113676000356001600160e01b0319166109e7565b905061059b6113768233612427565b610191611461565b801561139e5761139961138f611419565b4210610193611461565b6113b3565b6113b36113a961143d565b42106101a9611461565b6007805460ff19168215151790556040517f9e3a5e37224532dea67b89face185703738a228a6e8a23dee546960180d3be64906113f19083906142f6565b60405180910390a150565b600061140661143d565b42118061073957505060075460ff161590565b7f000000000000000000000000000000000000000000000000000000000000000090565b7f000000000000000000000000000000000000000000000000000000000000000090565b816107d0576107d081612517565b6114866001600160a01b0384161515610198611461565b61149d6001600160a01b0383161515610199611461565b6114a8838383610f8c565b6001600160a01b0383166000908152602081905260409020546114ce90826101a061256a565b6001600160a01b0380851660009081526020819052604080822093909355908416815220546114fd90826117a0565b6001600160a01b0380841660008181526020819052604090819020939093559151908516907fddf252ad1be2c89b69c2b068fc378daa952ba7f163c4a11628f55a4df523b3ef90611343908590614319565b600080600080600080611560612580565b9350935093509350804210156115b357600194508383111561159757818103824203858503028161158d57fe5b04840195506115ae565b81810382420384860302816115a857fe5b04840395505b6115bb565b600094508295505b505050509091565b60006115d28215156004611461565b826115df57506000610584565b8160018403816115eb57fe5b046001019050610584565b61160a816001600160401b031660c0610f4c565b61161e836001600160401b03166080610f4c565b611632856001600160401b03166040610f4c565b611646876001600160401b03166000610f4c565b1717176009556040517f1835882ee7a34ac194f717a35e09bb1d24c82a3b9d854ab6c9749525b714cdf290611682908690869086908690614431565b60405180910390a150505050565b60007f00000000000000000000000000000000000000000000000000000000000000007f00000000000000000000000000000000000000000000000000000000000000007f00000000000000000000000000000000000000000000000000000000000000006116fd6125d7565b30604051602001611712959493929190614375565b60405160208183030381529060405280519060200120905090565b6117406117386113fc565b610192611461565b565b61175564e8d4a5100082101560cb611461565b61176b67016345785d8a000082111560ca611461565b60088190556040517fa9ba3ffe0b6c366b81232caab38605a0699ad5398d6cce76f91ee809e322dafc906113f1908390614319565b600082820161063c8482101583611461565b60006117bc610757565b905060006117c8610a83565b6001600160a01b031663b05f8e4883866040518363ffffffff1660e01b81526004016117f59291906143ba565b60806040518083038186803b15801561180d57600080fd5b505afa158015611821573d6000803e3d6000fd5b505050506040513d601f19601f8201168201806040525081019061184591906141b5565b604051630639cdb560e21b81529094506001600160a01b03851693506318e736d492506118799150859087906004016143a1565b600060405180830381600087803b15801561189357600080fd5b505af11580156118a7573d6000803e3d6000fd5b5050505050505050565b6107d08183146067611461565b60006060806118cb6113fc565b156118ee576118da88876125db565b90506118e98882610f366126c7565b611939565b6118f6610f50565b6001600160401b038111801561190b57600080fd5b50604051908082528060200260200182016040528015611935578160200160208202803683370190505b5090505b611944888686612732565b9093509150611953888361279e565b985098509895505050505050565b60005b61196c610f50565b811015610f8c576119a383828151811061198257fe5b602002602001015183838151811061199657fe5b6020026020010151611ce2565b8382815181106119af57fe5b6020908102919091010152600101611964565b333014611a80576000306001600160a01b03166000366040516119e6929190614292565b6000604051808303816000865af19150503d8060008114611a23576040519150601f19603f3d011682016040523d82523d6000602084013e611a28565b606091505b505090508060008114611a3757fe5b60046000803e6000516001600160e01b0319166343adbafb60e01b8114611a62573d6000803e3d6000fd5b506020600460003e604060205260243d03602460403e601c3d016000f35b6060611a8a610f91565b9050611a968782611ae5565b60006060611aae8c8c8c8c8c8c898d8d63ffffffff16565b5091509150611ac181848663ffffffff16565b8051601f1982018390526343adbafb603f1983015260200260231982016044820181fd5b60005b611af0610f50565b811015610f8c57611b27838281518110611b0657fe5b6020026020010151838381518110611b1a57fe5b60200260200101516127cd565b838281518110611b3357fe5b6020908102919091010152600101611ae8565b81516000908190815b81811015611b8757611b7d868281518110611b6657fe5b6020026020010151846117a090919063ffffffff16565b9250600101611b4f565b5081611b985760009250505061063c565b600082878302825b60ff811015611cca576000858a600081518110611bb957fe5b60200260200101510290506000600190505b86811015611c0d57611c03611bfc611bf6848e8581518110611be957fe5b6020026020010151610f12565b89610f12565b868c6127f9565b9150600101611bcb565b50839450611c80611c4f611c36611c2d611c27878c610f12565b85610f12565b6103e88d6127f9565b611c49611c438a89610f12565b88610f12565b906117a0565b611c7a611c6d611c636103e8880386610f12565b6103e88e156127f9565b611c498a60010189610f12565b8b6127f9565b935084841115611ca857600185850311611ca3578397505050505050505061063c565b611cc1565b600184860311611cc1578397505050505050505061063c565b50600101611ba0565b50611cd6610142612517565b50505050509392505050565b6000611cf18215156004611461565b82611cfe57506000610584565b670de0b6b3a764000083810290611d2190858381611d1857fe5b04146005611461565b828181611d2a57fe5b04915050610584565b6107d08282612819565b6000606080611d4a61172d565b6060611d5689886125db565b9050611d658982610f366126c7565b60006060611d748b89896128d5565b91509150611d828b8261292e565b909d909c50909a5098505050505050505050565b60005b611da1610f50565b811015610f8c57611dd8838281518110611db757fe5b6020026020010151838381518110611dcb57fe5b602002602001015161293b565b838281518110611de457fe5b6020908102919091010152600101611d99565b60007f00000000000000000000000000000000000000000000000000000000000000006001600160a01b0316826001600160a01b03161415611e5a57507f0000000000000000000000000000000000000000000000000000000000000000610924565b7f00000000000000000000000000000000000000000000000000000000000000006001600160a01b0316826001600160a01b03161415611ebb57507f0000000000000000000000000000000000000000000000000000000000000000610924565b7f00000000000000000000000000000000000000000000000000000000000000006001600160a01b0316826001600160a01b03161415611f1c57507f0000000000000000000000000000000000000000000000000000000000000000610924565b7f00000000000000000000000000000000000000000000000000000000000000006001600160a01b0316826001600160a01b03161415611f7d57507f0000000000000000000000000000000000000000000000000000000000000000610924565b7f00000000000000000000000000000000000000000000000000000000000000006001600160a01b0316826001600160a01b03161415611fde57507f0000000000000000000000000000000000000000000000000000000000000000610924565b7f00000000000000000000000000000000000000000000000000000000000000006001600160a01b0316826001600160a01b0316141561203f57507f0000000000000000000000000000000000000000000000000000000000000000610924565b7f00000000000000000000000000000000000000000000000000000000000000006001600160a01b0316826001600160a01b031614156120a057507f0000000000000000000000000000000000000000000000000000000000000000610924565b7f00000000000000000000000000000000000000000000000000000000000000006001600160a01b0316826001600160a01b0316141561210157507f0000000000000000000000000000000000000000000000000000000000000000610924565b610924610135612517565b6000806121246008548461298990919063ffffffff16565b905061063c8382610f36565b600061063c83836127cd565b6000612153612149610f50565b60021460d2611461565b60606000806121638787876129c5565b925092509250612175878484846123fd565b979650505050505050565b600061063c8383611ce2565b6000612199612149610f50565b60606000806121a98787876129c5565b925092509250612175878484846123d3565b600061063c838361293b565b60006105846121e9600854670de0b6b3a7640000610f3690919063ffffffff16565b839061293b565b60006121fa610a83565b6001600160a01b031663aaabadc56040518163ffffffff1660e01b815260040160206040518083038186803b15801561223257600080fd5b505afa158015612246573d6000803e3d6000fd5b505050506040513d601f19601f820116820180604052508101906107399190613f4f565b6000612274611690565b82604051602001610a1c9291906142a2565b6000606061229261172d565b600061229d84612ab2565b90506122b860008260028111156122b057fe5b1460ce611461565b60606122c385612ac8565b90506122d281516107eb610f50565b6122dc8187611ae5565b60006122e661154f565b50905060006122f782846001611b46565b9050806123048184612ade565b9b929a509198505050505050505050565b6107d08282612ae9565b61232b818242426115f6565b7fa0d01593e47e69d07e0ccd87bece09411e07dd1ed40ca8f2e7af2976542a0233816040516113f19190614319565b6002815110156123695761059b565b60008160008151811061237857fe5b602002602001015190506000600190505b8251811015610f8c5760008382815181106123a057fe5b602002602001015190506123c9816001600160a01b0316846001600160a01b0316106065611461565b9150600101612389565b60006123dd61172d565b60006123e761154f565b5090506000612175828787878b60600151612b77565b600061240761172d565b600061241161154f565b5090506000612175828787878b60600151612c3b565b600073ba1ba1ba1ba1ba1ba1ba1ba1ba1ba1ba1ba1ba1b612446610a5f565b6001600160a01b031614158015612461575061246183612ce3565b156124895761246e610a5f565b6001600160a01b0316336001600160a01b0316149050610584565b6124916121f0565b6001600160a01b0316639be2a8848484306040518463ffffffff1660e01b81526004016124c093929190614322565b60206040518083038186803b1580156124d857600080fd5b505afa1580156124ec573d6000803e3d6000fd5b505050506040513d601f19601f820116820180604052508101906125109190613e69565b9050610584565b62461bcd60e51b6000908152602060045260076024526642414c23000030600a808404818106603090810160081b95839006959095019082900491820690940160101b939093010160c81b604452606490fd5b60006125798484111583611461565b5050900390565b60008060008061259c6000600954612d1f90919063ffffffff16565b6009549094506125ad906040612d1f565b6009549093506125be906080612d1f565b6009549092506125cf9060c0612d1f565b905090919293565b4690565b6060806125e6610f50565b6001600160401b03811180156125fb57600080fd5b50604051908082528060200260200182016040528015612625578160200160208202803683370190505b50905082612634579050610584565b6000808560008151811061264457fe5b602002602001015190506000600190505b61265d610f50565b81101561269457600087828151811061267257fe5b602002602001015190508281111561268b578193508092505b50600101612655565b506126a6600b5487600a548589612d2c565b8383815181106126b257fe5b60209081029190910101525090949350505050565b60005b6126d2610f50565b81101561272c5761270d8482815181106126e857fe5b60200260200101518483815181106126fc57fe5b60200260200101518463ffffffff16565b84828151811061271957fe5b60209081029190910101526001016126ca565b50505050565b60006060600061274184612ab2565b9050600081600281111561275157fe5b141561276b576127618685612da0565b9250925050612796565b600181600281111561277957fe5b1415612789576127618685612e65565b612761868686612e97565b505b935093915050565b6127ab8282610f366126c7565b60006127b561154f565b509050610f8c6127c782856001611b46565b82612ade565b60008282026127e7841580610f2f575083858381610f2c57fe5b670de0b6b3a764000090049392505050565b60008161280f5761280a8484612f0e565b6104d4565b6104d484846115c3565b6128306001600160a01b038316151561019b611461565b61283c82600083610f8c565b6001600160a01b03821660009081526020819052604090205461286290826101a161256a565b6001600160a01b0383166000908152602081905260409020556002546128889082612f2e565b6002556040516000906001600160a01b038416907fddf252ad1be2c89b69c2b068fc378daa952ba7f163c4a11628f55a4df523b3ef906128c9908590614319565b60405180910390a35050565b6000606060006128e484612ab2565b905060018160028111156128f457fe5b141561290557612761868686612f3c565b600281600281111561291357fe5b1415612923576127618685612fa1565b612794610136612517565b6127ab82826117a06126c7565b600061294a8215156004611461565b8261295757506000610584565b670de0b6b3a76400008381029061297190858381611d1857fe5b82600182038161297d57fe5b04600101915050610584565b60008282026129a3841580610f2f575083858381610f2c57fe5b806129b2576000915050610584565b670de0b6b3a7640000600019820161297d565b6040805160028082526060828101909352600091829181602001602082028036833701905050925085602001516001600160a01b03167f00000000000000000000000000000000000000000000000000000000000000006001600160a01b03161415612a6c5760009150600190508483600081518110612a4157fe5b6020026020010181815250508383600181518110612a5b57fe5b602002602001018181525050612aa9565b60009050600191508383600081518110612a8257fe5b6020026020010181815250508483600181518110612a9c57fe5b6020026020010181815250505b93509350939050565b6000818060200190518101906105849190613fb8565b60608180602001905181019061063c919061407d565b600a91909155600b55565b612af560008383610f8c565b600254612b0290826117a0565b6002556001600160a01b038216600090815260208190526040902054612b2890826117a0565b6001600160a01b0383166000818152602081905260408082209390935591519091907fddf252ad1be2c89b69c2b068fc378daa952ba7f163c4a11628f55a4df523b3ef906128c9908590614319565b600080612b8687876001611b46565b9050612bae83878681518110612b9857fe5b6020026020010151610f3690919063ffffffff16565b868581518110612bba57fe5b6020026020010181815250506000612bd488888489613030565b905083878681518110612be357fe5b602002602001015101878681518110612bf857fe5b602002602001018181525050612c2f6001611c49898981518110612c1857fe5b602002602001015184610f3690919063ffffffff16565b98975050505050505050565b600080612c4a87876001611b46565b9050612c7283878781518110612c5c57fe5b60200260200101516117a090919063ffffffff16565b868681518110612c7e57fe5b6020026020010181815250506000612c9888888488613030565b905083878781518110612ca757fe5b602002602001015103878781518110612cbc57fe5b602002602001018181525050612c2f6001612cdd838a8981518110612b9857fe5b90610f36565b6000612cf5632f1a0bc960e01b6109e7565b821480612d105750612d0d637587926b60e11b6109e7565b82145b806105845750610584826131e0565b1c6001600160401b031690565b600080612d3b87878787613030565b905080868581518110612d4a57fe5b602002602001015111612d6157600091505061127b565b600081878681518110612d7057fe5b6020026020010151039050612c2f670de0b6b3a7640000612d9a86846127cd90919063ffffffff16565b90611ce2565b60006060612dac61172d565b600080612db885613212565b91509150612dd0612dc7610f50565b82106064611461565b6060612dda610f50565b6001600160401b0381118015612def57600080fd5b50604051908082528060200260200182016040528015612e19578160200160208202803683370190505b5090506000612e2661154f565b509050612e4081898587612e3861059e565b600854613234565b828481518110612e4c57fe5b6020908102919091010152509196919550909350505050565b600060606000612e7484613350565b90506060612e8a8683612e8561059e565b613366565b9196919550909350505050565b60006060612ea361172d565b60606000612eb085613417565b91509150612ec182516107eb610f50565b612ecb8287611ae5565b6000612ed561154f565b5090506000612ef0828a86612ee861059e565b60085461342f565b9050612f008382111560cf611461565b989297509195505050505050565b6000612f1d8215156004611461565b818381612f2657fe5b049392505050565b600061063c8383600161256a565b60006060806000612f4c85613417565b91509150612f62612f5b610f50565b83516118b1565b612f6c8287611ae5565b6000612f7661154f565b5090506000612f91828a86612f8961059e565b6008546136c3565b9050612f008382101560d0611461565b60006060600080612fb185613212565b91509150612fc0612dc7610f50565b6060612fca610f50565b6001600160401b0381118015612fdf57600080fd5b50604051908082528060200260200182016040528015613009578160200160208202803683370190505b509050600061301661154f565b509050612e408189858761302861059e565b600854613939565b60008084518602905060008560008151811061304857fe5b60200260200101519050600086518760008151811061306357fe5b60200260200101510290506000600190505b87518110156130bc576130a161309b613094848b8581518110611be957fe5b8a51610f12565b88612f0e565b91506130b2888281518110611b6657fe5b9250600101613075565b508685815181106130c957fe5b60200260200101518203915060006130e18788610f12565b9050600061310d6131016130f9846106db8988610f12565b6103e8610f12565b8a8981518110611be957fe5b905060006131286131216130f98b89612f0e565b86906117a0565b905060008061314461313a86866117a0565b6106db8d866117a0565b905060005b60ff8110156131c45781925061317961316686611c498586610f12565b6106db8e612cdd88611c49886002610f12565b9150828211156131a25760018383031161319d575097506104d49650505050505050565b6131bc565b6001828403116131bc575097506104d49650505050505050565b600101613149565b506131d0610142612517565b5050505050505050949350505050565b60006131f2631c74c91760e11b6109e7565b821480610584575061320a6350dd6ed960e01b6109e7565b909114919050565b600080828060200190518101906132299190614047565b909590945092505050565b60008061324388886001611b46565b905060006132658261325f87613259818b610f36565b9061293b565b90612989565b905060006132758a8a848b613030565b90506000613289828b8b81518110612b9857fe5b90506000805b8b518110156132c8576132be8c82815181106132a757fe5b6020026020010151836117a090919063ffffffff16565b915060010161328f565b5060006132f1828d8d815181106132db57fe5b6020026020010151611ce290919063ffffffff16565b905060006132fe82613a16565b9050600061330c8583612989565b9050600061331a8683610f36565b905061333b61333483670de0b6b3a76400008e90036127cd565b82906117a0565b99505050505050505050509695505050505050565b60008180602001905181019061063c919061401a565b606060006133748484611ce2565b9050606085516001600160401b038111801561338f57600080fd5b506040519080825280602002602001820160405280156133b9578160200160208202803683370190505b50905060005b865181101561340d576133ee838883815181106133d857fe5b60200260200101516127cd90919063ffffffff16565b8282815181106133fa57fe5b60209081029190910101526001016133bf565b5095945050505050565b60606000828060200190518101906132299190613fd4565b600080805b86518110156134565761344c8782815181106132a757fe5b9150600101613434565b50606085516001600160401b038111801561347057600080fd5b5060405190808252806020026020018201604052801561349a578160200160208202803683370190505b5090506000805b88518110156135615760006134d2858b84815181106134bc57fe5b602002602001015161293b90919063ffffffff16565b905061350e8a83815181106134e357fe5b60200260200101516132598b85815181106134fa57fe5b60200260200101518d8681518110612b9857fe5b84838151811061351a57fe5b60200260200101818152505061355661354f8286858151811061353957fe5b602002602001015161298990919063ffffffff16565b84906117a0565b9250506001016134a1565b50606088516001600160401b038111801561357b57600080fd5b506040519080825280602002602001820160405280156135a5578160200160208202803683370190505b50905060005b89518110156136705760008482815181106135c257fe5b60200260200101518411156136295760006135eb6135df86613a16565b8d85815181106133d857fe5b905060006135ff828d8681518110612b9857fe5b905061362061361982670de0b6b3a76400008d900361293b565b83906117a0565b92505050613640565b89828151811061363557fe5b602002602001015190505b613650818c8481518110612b9857fe5b83838151811061365c57fe5b6020908102919091010152506001016135ab565b50600061367f8b8b6001611b46565b9050600061368f8c846000611b46565b9050600061369d8284611ce2565b90506136b26136ab82613a16565b8b90612989565b9d9c50505050505050505050505050565b600080805b86518110156136ea576136e08782815181106132a757fe5b91506001016136c8565b50606085516001600160401b038111801561370457600080fd5b5060405190808252806020026020018201604052801561372e578160200160208202803683370190505b5090506000805b88518110156137c2576000613750858b84815181106132db57fe5b905061378c8a838151811061376157fe5b6020026020010151612d9a8b858151811061377857fe5b60200260200101518d8681518110612c5c57fe5b84838151811061379857fe5b6020026020010181815250506137b761354f828685815181106133d857fe5b925050600101613735565b50606088516001600160401b03811180156137dc57600080fd5b50604051908082528060200260200182016040528015613806578160200160208202803683370190505b50905060005b89518110156138c75760008385838151811061382457fe5b602002602001015111156138805760006138496135df86670de0b6b3a7640000610f36565b9050600061385d828d8681518110612b9857fe5b905061387761361982670de0b6b3a76400008d90036127cd565b92505050613897565b89828151811061388c57fe5b602002602001015190505b6138a7818c8481518110612c5c57fe5b8383815181106138b357fe5b60209081029190910101525060010161380c565b5060006138d68b8b6001611b46565b905060006138e68c846000611b46565b905060006138f48284611ce2565b9050670de0b6b3a76400008111156139295761391b8a670de0b6b3a763ffff1983016127cd565b97505050505050505061127b565b600097505050505050505061127b565b60008061394888886001611b46565b9050600061395e8261325f87613259818b6117a0565b9050600061396e8a8a848b613030565b905060006139988a8a8151811061398157fe5b602002602001015183610f3690919063ffffffff16565b90506000805b8b518110156139c0576139b68c82815181106132a757fe5b915060010161399e565b5060006139d3828d8d815181106132db57fe5b905060006139e082613a16565b905060006139ee8583612989565b905060006139fc8683610f36565b905061333b61333483670de0b6b3a76400008e900361293b565b6000670de0b6b3a76400008210613a2e576000610584565b50670de0b6b3a76400000390565b80356105848161449f565b600082601f830112613a57578081fd5b8135613a6a613a6582614480565b61445a565b818152915060208083019084810181840286018201871015613a8b57600080fd5b60005b84811015613aaa57813584529282019290820190600101613a8e565b505050505092915050565b600082601f830112613ac5578081fd5b8151613ad3613a6582614480565b818152915060208083019084810181840286018201871015613af457600080fd5b60005b84811015613aaa57815184529282019290820190600101613af7565b600082601f830112613b23578081fd5b81356001600160401b03811115613b38578182fd5b613b4b601f8201601f191660200161445a565b9150808252836020828501011115613b6257600080fd5b8060208401602084013760009082016020015292915050565b80356002811061058457600080fd5b6000610120808385031215613b9d578182fd5b613ba68161445a565b915050613bb38383613b7b565b8152613bc28360208401613a3c565b6020820152613bd48360408401613a3c565b6040820152606082013560608201526080820135608082015260a082013560a0820152613c048360c08401613a3c565b60c0820152613c168360e08401613a3c565b60e0820152610100808301356001600160401b03811115613c3657600080fd5b613c4285828601613b13565b82840152505092915050565b600060208284031215613c5f578081fd5b813561063c8161449f565b60008060408385031215613c7c578081fd5b8235613c878161449f565b91506020830135613c978161449f565b809150509250929050565b600080600060608486031215613cb6578081fd5b8335613cc18161449f565b92506020840135613cd18161449f565b929592945050506040919091013590565b600080600080600080600060e0888a031215613cfc578283fd5b8735613d078161449f565b96506020880135613d178161449f565b95506040880135945060608801359350608088013560ff81168114613d3a578384fd5b9699959850939692959460a0840135945060c09093013592915050565b60008060408385031215613d69578182fd5b8235613d748161449f565b946020939093013593505050565b600080600060608486031215613d96578081fd5b83516001600160401b0380821115613dac578283fd5b818601915086601f830112613dbf578283fd5b8151613dcd613a6582614480565b80828252602080830192508086018b828387028901011115613ded578788fd5b8796505b84871015613e18578051613e048161449f565b845260019690960195928101928101613df1565b508901519097509350505080821115613e2f578283fd5b50613e3c86828701613ab5565b925050604084015190509250925092565b600060208284031215613e5e578081fd5b813561063c816144b4565b600060208284031215613e7a578081fd5b815161063c816144b4565b600080600080600080600060e0888a031215613e9f578081fd5b873596506020880135613eb18161449f565b95506040880135613ec18161449f565b945060608801356001600160401b0380821115613edc578283fd5b613ee88b838c01613a47565b955060808a0135945060a08a0135935060c08a0135915080821115613f0b578283fd5b50613f188a828b01613b13565b91505092959891949750929550565b600060208284031215613f38578081fd5b81356001600160e01b03198116811461063c578182fd5b600060208284031215613f60578081fd5b815161063c8161449f565b60008060408385031215613f7d578182fd5b8235613f888161449f565b915060208301356001600160401b03811115613fa2578182fd5b613fae85828601613b13565b9150509250929050565b600060208284031215613fc9578081fd5b815161063c816144c2565b600080600060608486031215613fe8578081fd5b8351613ff3816144c2565b60208501519093506001600160401b0381111561400e578182fd5b613e3c86828701613ab5565b6000806040838503121561402c578182fd5b8251614037816144c2565b6020939093015192949293505050565b60008060006060848603121561405b578081fd5b8351614066816144c2565b602085015160409095015190969495509392505050565b6000806040838503121561408f578182fd5b825161409a816144c2565b60208401519092506001600160401b038111156140b5578182fd5b613fae85828601613ab5565b600080600080608085870312156140d6578182fd5b84356001600160401b03808211156140ec578384fd5b6140f888838901613b8a565b9550602087013591508082111561410d578384fd5b5061411a87828801613a47565b949794965050505060408301359260600135919050565b600080600060608486031215614145578081fd5b83356001600160401b0381111561415a578182fd5b61416686828701613b8a565b9660208601359650604090950135949350505050565b60006020828403121561418d578081fd5b5035919050565b600080604083850312156141a6578182fd5b50508035926020909101359150565b600080600080608085870312156141ca578182fd5b84519350602085015192506040850151915060608501516141ea8161449f565b939692955090935050565b6000815180845260208085019450808401835b8381101561422457815187529582019590820190600101614208565b509495945050505050565b60008151808452815b8181101561425457602081850181015186830182015201614238565b818111156142655782602083870101525b50601f01601f19169290920160200192915050565b9182526001600160e01b031916602082015260240190565b6000828483379101908152919050565b61190160f01b81526002810192909252602282015260420190565b6001600160a01b0391909116815260200190565b6000604082526142e460408301856141f5565b828103602084015261127b81856141f5565b901515815260200190565b92151583526020830191909152604082015260600190565b90815260200190565b9283526001600160a01b03918216602084015216604082015260600190565b9586526001600160a01b0394851660208701529290931660408501526060840152608083019190915260a082015260c00190565b9485526020850193909352604084019190915260608301526001600160a01b0316608082015260a00190565b6000838252604060208301526104d4604083018461422f565b9182526001600160a01b0316602082015260400190565b93845260ff9290921660208401526040830152606082015260800190565b60006020825261063c602083018461422f565b6000838252604060208301526104d460408301846141f5565b9283529015156020830152604082015260600190565b93845260208401929092526040830152606082015260800190565b60ff91909116815260200190565b6040518181016001600160401b038111828210171561447857600080fd5b604052919050565b60006001600160401b03821115614495578081fd5b5060209081020190565b6001600160a01b038116811461059b57600080fd5b801515811461059b57600080fd5b6003811061059b57600080fdfea2646970667358221220d8b97fa1ec7acf830b18c7aaf50c094231b93f23ecacfc0f6866a7ee8eb1dec664736f6c63430007010033a2646970667358221220f6a34833d5aa792b8d932ea90d00b218d40121837c7bcd403b98c512d5c024d564736f6c63430007010033",
			"opcodes": "PUSH1 0xC0 PUSH1 0x40 MSTORE CALLVALUE DUP1 ISZERO PUSH2 0x10 JUMPI PUSH1 0x0 DUP1 REVERT JUMPDEST POP PUSH1 0x40 MLOAD PUSH2 0x5B0F CODESIZE SUB DUP1 PUSH2 0x5B0F DUP4 CODECOPY DUP2 ADD PUSH1 0x40 DUP2 SWAP1 MSTORE PUSH2 0x2F SWAP2 PUSH2 0x4D JUMP JUMPDEST PUSH1 0x60 SHL PUSH1 0x1 PUSH1 0x1 PUSH1 0x60 SHL SUB NOT AND PUSH1 0x80 MSTORE PUSH3 0x76A700 TIMESTAMP ADD PUSH1 0xA0 MSTORE PUSH2 0x7B JUMP JUMPDEST PUSH1 0x0 PUSH1 0x20 DUP3 DUP5 SUB SLT ISZERO PUSH2 0x5E JUMPI DUP1 DUP2 REVERT JUMPDEST DUP2 MLOAD PUSH1 0x1 PUSH1 0x1 PUSH1 0xA0 SHL SUB DUP2 AND DUP2 EQ PUSH2 0x74 JUMPI DUP2 DUP3 REVERT JUMPDEST SWAP4 SWAP3 POP POP POP JUMP JUMPDEST PUSH1 0x80 MLOAD PUSH1 0x60 SHR PUSH1 0xA0 MLOAD PUSH2 0x5A6A PUSH2 0xA5 PUSH1 0x0 CODECOPY DUP1 PUSH1 0xD6 MSTORE DUP1 PUSH2 0x100 MSTORE POP DUP1 PUSH2 0x1DD MSTORE POP PUSH2 0x5A6A PUSH1 0x0 RETURN INVALID PUSH1 0x80 PUSH1 0x40 MSTORE CALLVALUE DUP1 ISZERO PUSH3 0x11 JUMPI PUSH1 0x0 DUP1 REVERT JUMPDEST POP PUSH1 0x4 CALLDATASIZE LT PUSH3 0x52 JUMPI PUSH1 0x0 CALLDATALOAD PUSH1 0xE0 SHR DUP1 PUSH4 0x2DA47C40 EQ PUSH3 0x57 JUMPI DUP1 PUSH4 0x6634B753 EQ PUSH3 0x7A JUMPI DUP1 PUSH4 0x7932C7F3 EQ PUSH3 0xA0 JUMPI DUP1 PUSH4 0x8D928AF8 EQ PUSH3 0xC6 JUMPI JUMPDEST PUSH1 0x0 DUP1 REVERT JUMPDEST PUSH3 0x61 PUSH3 0xD0 JUMP JUMPDEST PUSH1 0x40 MLOAD PUSH3 0x71 SWAP3 SWAP2 SWAP1 PUSH3 0x55C JUMP JUMPDEST PUSH1 0x40 MLOAD DUP1 SWAP2 SUB SWAP1 RETURN JUMPDEST PUSH3 0x91 PUSH3 0x8B CALLDATASIZE PUSH1 0x4 PUSH3 0x2DA JUMP JUMPDEST PUSH3 0x13C JUMP JUMPDEST PUSH1 0x40 MLOAD PUSH3 0x71 SWAP2 SWAP1 PUSH3 0x494 JUMP JUMPDEST PUSH3 0xB7 PUSH3 0xB1 CALLDATASIZE PUSH1 0x4 PUSH3 0x300 JUMP JUMPDEST PUSH3 0x15A JUMP JUMPDEST PUSH1 0x40 MLOAD PUSH3 0x71 SWAP2 SWAP1 PUSH3 0x480 JUMP JUMPDEST PUSH3 0xB7 PUSH3 0x1DB JUMP JUMPDEST PUSH1 0x0 DUP1 TIMESTAMP PUSH32 0x0 DUP2 LT ISZERO PUSH3 0x12E JUMPI DUP1 PUSH32 0x0 SUB SWAP3 POP PUSH3 0x278D00 SWAP2 POP PUSH3 0x137 JUMP JUMPDEST PUSH1 0x0 SWAP3 POP PUSH1 0x0 SWAP2 POP JUMPDEST POP SWAP1 SWAP2 JUMP JUMPDEST PUSH1 0x1 PUSH1 0x1 PUSH1 0xA0 SHL SUB AND PUSH1 0x0 SWAP1 DUP2 MSTORE PUSH1 0x20 DUP2 SWAP1 MSTORE PUSH1 0x40 SWAP1 KECCAK256 SLOAD PUSH1 0xFF AND SWAP1 JUMP JUMPDEST PUSH1 0x0 DUP1 PUSH1 0x0 PUSH3 0x169 PUSH3 0xD0 JUMP JUMPDEST SWAP2 POP SWAP2 POP PUSH1 0x0 PUSH3 0x179 PUSH3 0x1DB JUMP JUMPDEST DUP11 DUP11 DUP11 DUP11 DUP11 DUP9 DUP9 DUP13 PUSH1 0x40 MLOAD PUSH3 0x18F SWAP1 PUSH3 0x24B JUMP JUMPDEST PUSH3 0x1A3 SWAP10 SWAP9 SWAP8 SWAP7 SWAP6 SWAP5 SWAP4 SWAP3 SWAP2 SWAP1 PUSH3 0x49F JUMP JUMPDEST PUSH1 0x40 MLOAD DUP1 SWAP2 SUB SWAP1 PUSH1 0x0 CREATE DUP1 ISZERO DUP1 ISZERO PUSH3 0x1C0 JUMPI RETURNDATASIZE PUSH1 0x0 DUP1 RETURNDATACOPY RETURNDATASIZE PUSH1 0x0 REVERT JUMPDEST POP SWAP1 POP PUSH3 0x1CE DUP2 PUSH3 0x1FF JUMP JUMPDEST SWAP10 SWAP9 POP POP POP POP POP POP POP POP POP JUMP JUMPDEST PUSH32 0x0 SWAP1 JUMP JUMPDEST PUSH1 0x1 PUSH1 0x1 PUSH1 0xA0 SHL SUB DUP2 AND PUSH1 0x0 DUP2 DUP2 MSTORE PUSH1 0x20 DUP2 SWAP1 MSTORE PUSH1 0x40 DUP1 DUP3 KECCAK256 DUP1 SLOAD PUSH1 0xFF NOT AND PUSH1 0x1 OR SWAP1 SSTORE MLOAD PUSH32 0x83A48FBCFC991335314E74D0496AAB6A1987E992DDC85DDDBCC4D6DD6EF2E9FC SWAP2 SWAP1 LOG2 POP JUMP JUMPDEST PUSH2 0x547D DUP1 PUSH3 0x5B8 DUP4 CODECOPY ADD SWAP1 JUMP JUMPDEST DUP1 CALLDATALOAD PUSH3 0x266 DUP2 PUSH3 0x59E JUMP JUMPDEST SWAP3 SWAP2 POP POP JUMP JUMPDEST PUSH1 0x0 DUP3 PUSH1 0x1F DUP4 ADD SLT PUSH3 0x27D JUMPI DUP1 DUP2 REVERT JUMPDEST DUP2 CALLDATALOAD PUSH8 0xFFFFFFFFFFFFFFFF DUP2 GT ISZERO PUSH3 0x294 JUMPI DUP2 DUP3 REVERT JUMPDEST PUSH3 0x2A9 PUSH1 0x1F DUP3 ADD PUSH1 0x1F NOT AND PUSH1 0x20 ADD PUSH3 0x56A JUMP JUMPDEST SWAP2 POP DUP1 DUP3 MSTORE DUP4 PUSH1 0x20 DUP3 DUP6 ADD ADD GT ISZERO PUSH3 0x2C1 JUMPI PUSH1 0x0 DUP1 REVERT JUMPDEST DUP1 PUSH1 0x20 DUP5 ADD PUSH1 0x20 DUP5 ADD CALLDATACOPY PUSH1 0x0 SWAP1 DUP3 ADD PUSH1 0x20 ADD MSTORE SWAP3 SWAP2 POP POP JUMP JUMPDEST PUSH1 0x0 PUSH1 0x20 DUP3 DUP5 SUB SLT ISZERO PUSH3 0x2EC JUMPI DUP1 DUP2 REVERT JUMPDEST DUP2 CALLDATALOAD PUSH3 0x2F9 DUP2 PUSH3 0x59E JUMP JUMPDEST SWAP4 SWAP3 POP POP POP JUMP JUMPDEST PUSH1 0x0 DUP1 PUSH1 0x0 DUP1 PUSH1 0x0 DUP1 PUSH1 0xC0 DUP8 DUP10 SUB SLT ISZERO PUSH3 0x319 JUMPI DUP2 DUP3 REVERT JUMPDEST DUP7 CALLDATALOAD PUSH8 0xFFFFFFFFFFFFFFFF DUP1 DUP3 GT ISZERO PUSH3 0x331 JUMPI DUP4 DUP5 REVERT JUMPDEST PUSH3 0x33F DUP11 DUP4 DUP12 ADD PUSH3 0x26C JUMP JUMPDEST SWAP8 POP PUSH1 0x20 SWAP2 POP DUP2 DUP10 ADD CALLDATALOAD DUP2 DUP2 GT ISZERO PUSH3 0x356 JUMPI DUP5 DUP6 REVERT JUMPDEST PUSH3 0x364 DUP12 DUP3 DUP13 ADD PUSH3 0x26C JUMP JUMPDEST SWAP8 POP POP PUSH1 0x40 DUP10 ADD CALLDATALOAD DUP2 DUP2 GT ISZERO PUSH3 0x379 JUMPI DUP5 DUP6 REVERT JUMPDEST DUP10 ADD PUSH1 0x1F DUP2 ADD DUP12 SGT PUSH3 0x38A JUMPI DUP5 DUP6 REVERT JUMPDEST DUP1 CALLDATALOAD DUP3 DUP2 GT ISZERO PUSH3 0x399 JUMPI DUP6 DUP7 REVERT JUMPDEST DUP4 DUP2 MUL SWAP3 POP PUSH3 0x3AB DUP5 DUP5 ADD PUSH3 0x56A JUMP JUMPDEST DUP2 DUP2 MSTORE DUP5 DUP2 ADD SWAP1 DUP4 DUP7 ADD DUP6 DUP6 ADD DUP8 ADD DUP16 LT ISZERO PUSH3 0x3C6 JUMPI DUP9 DUP10 REVERT JUMPDEST DUP9 SWAP6 POP JUMPDEST DUP4 DUP7 LT ISZERO PUSH3 0x3F4 JUMPI PUSH3 0x3DF DUP16 DUP3 PUSH3 0x259 JUMP JUMPDEST DUP4 MSTORE PUSH1 0x1 SWAP6 SWAP1 SWAP6 ADD SWAP5 SWAP2 DUP7 ADD SWAP2 DUP7 ADD PUSH3 0x3CA JUMP JUMPDEST POP SWAP9 POP POP POP POP PUSH1 0x60 DUP10 ADD CALLDATALOAD SWAP5 POP POP POP PUSH1 0x80 DUP8 ADD CALLDATALOAD SWAP2 POP PUSH3 0x419 DUP9 PUSH1 0xA0 DUP10 ADD PUSH3 0x259 JUMP JUMPDEST SWAP1 POP SWAP3 SWAP6 POP SWAP3 SWAP6 POP SWAP3 SWAP6 JUMP JUMPDEST PUSH1 0x1 PUSH1 0x1 PUSH1 0xA0 SHL SUB AND SWAP1 MSTORE JUMP JUMPDEST PUSH1 0x0 DUP2 MLOAD DUP1 DUP5 MSTORE DUP2 JUMPDEST DUP2 DUP2 LT ISZERO PUSH3 0x459 JUMPI PUSH1 0x20 DUP2 DUP6 ADD DUP2 ADD MLOAD DUP7 DUP4 ADD DUP3 ADD MSTORE ADD PUSH3 0x43B JUMP JUMPDEST DUP2 DUP2 GT ISZERO PUSH3 0x46B JUMPI DUP3 PUSH1 0x20 DUP4 DUP8 ADD ADD MSTORE JUMPDEST POP PUSH1 0x1F ADD PUSH1 0x1F NOT AND SWAP3 SWAP1 SWAP3 ADD PUSH1 0x20 ADD SWAP3 SWAP2 POP POP JUMP JUMPDEST PUSH1 0x1 PUSH1 0x1 PUSH1 0xA0 SHL SUB SWAP2 SWAP1 SWAP2 AND DUP2 MSTORE PUSH1 0x20 ADD SWAP1 JUMP JUMPDEST SWAP1 ISZERO ISZERO DUP2 MSTORE PUSH1 0x20 ADD SWAP1 JUMP JUMPDEST PUSH1 0x1 PUSH1 0x1 PUSH1 0xA0 SHL SUB DUP11 AND DUP2 MSTORE PUSH2 0x120 PUSH1 0x20 DUP1 DUP4 ADD DUP3 SWAP1 MSTORE PUSH1 0x0 SWAP2 SWAP1 PUSH3 0x4C8 DUP5 DUP4 ADD DUP14 PUSH3 0x432 JUMP JUMPDEST SWAP2 POP DUP4 DUP3 SUB PUSH1 0x40 DUP6 ADD MSTORE PUSH3 0x4DE DUP3 DUP13 PUSH3 0x432 JUMP JUMPDEST DUP5 DUP2 SUB PUSH1 0x60 DUP7 ADD MSTORE DUP11 MLOAD DUP1 DUP3 MSTORE DUP3 DUP13 ADD SWAP4 POP SWAP1 DUP3 ADD SWAP1 DUP5 JUMPDEST DUP2 DUP2 LT ISZERO PUSH3 0x51E JUMPI PUSH3 0x50B DUP6 MLOAD PUSH3 0x592 JUMP JUMPDEST DUP4 MSTORE SWAP4 DUP4 ADD SWAP4 SWAP2 DUP4 ADD SWAP2 PUSH1 0x1 ADD PUSH3 0x4F6 JUMP JUMPDEST POP POP DUP1 SWAP4 POP POP POP POP DUP7 PUSH1 0x80 DUP4 ADD MSTORE DUP6 PUSH1 0xA0 DUP4 ADD MSTORE DUP5 PUSH1 0xC0 DUP4 ADD MSTORE DUP4 PUSH1 0xE0 DUP4 ADD MSTORE PUSH3 0x54E PUSH2 0x100 DUP4 ADD DUP5 PUSH3 0x425 JUMP JUMPDEST SWAP11 SWAP10 POP POP POP POP POP POP POP POP POP POP JUMP JUMPDEST SWAP2 DUP3 MSTORE PUSH1 0x20 DUP3 ADD MSTORE PUSH1 0x40 ADD SWAP1 JUMP JUMPDEST PUSH1 0x40 MLOAD DUP2 DUP2 ADD PUSH8 0xFFFFFFFFFFFFFFFF DUP2 GT DUP3 DUP3 LT OR ISZERO PUSH3 0x58A JUMPI PUSH1 0x0 DUP1 REVERT JUMPDEST PUSH1 0x40 MSTORE SWAP2 SWAP1 POP JUMP JUMPDEST PUSH1 0x1 PUSH1 0x1 PUSH1 0xA0 SHL SUB AND SWAP1 JUMP JUMPDEST PUSH1 0x1 PUSH1 0x1 PUSH1 0xA0 SHL SUB DUP2 AND DUP2 EQ PUSH3 0x5B4 JUMPI PUSH1 0x0 DUP1 REVERT JUMPDEST POP JUMP INVALID PUSH2 0x3E0 PUSH1 0x40 MSTORE PUSH32 0x6E71EDAE12B1B97F4D1F60370FEF10105FA2FAAE0126114A169C64845D6126C9 PUSH2 0x120 MSTORE CALLVALUE DUP1 ISZERO PUSH3 0x37 JUMPI PUSH1 0x0 DUP1 REVERT JUMPDEST POP PUSH1 0x40 MLOAD PUSH3 0x547D CODESIZE SUB DUP1 PUSH3 0x547D DUP4 CODECOPY DUP2 ADD PUSH1 0x40 DUP2 SWAP1 MSTORE PUSH3 0x5A SWAP2 PUSH3 0xBF3 JUMP JUMPDEST DUP9 DUP7 MLOAD PUSH1 0x2 EQ PUSH3 0x6D JUMPI PUSH1 0x0 PUSH3 0x70 JUMP JUMPDEST PUSH1 0x2 JUMPDEST DUP10 DUP10 DUP10 DUP11 MLOAD PUSH1 0x1 PUSH1 0x1 PUSH1 0x40 SHL SUB DUP2 GT DUP1 ISZERO PUSH3 0x8B JUMPI PUSH1 0x0 DUP1 REVERT JUMPDEST POP PUSH1 0x40 MLOAD SWAP1 DUP1 DUP3 MSTORE DUP1 PUSH1 0x20 MUL PUSH1 0x20 ADD DUP3 ADD PUSH1 0x40 MSTORE DUP1 ISZERO PUSH3 0xB6 JUMPI DUP2 PUSH1 0x20 ADD PUSH1 0x20 DUP3 MUL DUP1 CALLDATASIZE DUP4 CALLDATACOPY ADD SWAP1 POP JUMPDEST POP PUSH1 0x40 DUP1 MLOAD DUP1 DUP3 ADD SWAP1 SWAP2 MSTORE PUSH1 0x1 DUP2 MSTORE PUSH1 0x31 PUSH1 0xF8 SHL PUSH1 0x20 DUP1 DUP4 ADD SWAP2 SWAP1 SWAP2 MSTORE CALLER PUSH1 0x80 MSTORE PUSH1 0x1 PUSH1 0x1 PUSH1 0x60 SHL SUB NOT PUSH1 0x60 DUP11 SWAP1 SHL AND PUSH1 0xA0 MSTORE DUP6 MLOAD DUP13 SWAP3 DUP13 SWAP3 DUP13 SWAP3 DUP13 SWAP3 DUP6 SWAP3 DUP6 SWAP3 DUP13 SWAP3 DUP13 SWAP3 DUP5 SWAP3 DUP4 SWAP3 SWAP2 DUP4 SWAP2 DUP7 SWAP2 PUSH3 0x115 SWAP2 PUSH1 0x3 SWAP2 DUP6 ADD SWAP1 PUSH3 0xA11 JUMP JUMPDEST POP DUP1 MLOAD PUSH3 0x12B SWAP1 PUSH1 0x4 SWAP1 PUSH1 0x20 DUP5 ADD SWAP1 PUSH3 0xA11 JUMP JUMPDEST POP POP PUSH1 0x5 DUP1 SLOAD PUSH1 0xFF NOT AND PUSH1 0x12 OR SWAP1 SSTORE POP DUP2 MLOAD PUSH1 0x20 SWAP3 DUP4 ADD KECCAK256 PUSH1 0xC0 MSTORE DUP1 MLOAD SWAP2 ADD KECCAK256 PUSH1 0xE0 MSTORE POP POP PUSH32 0x8B73C3C69BB8FE3D512ECC4CF759CC79239F7B179B0FFACAA9A75D522B39400F PUSH2 0x100 MSTORE POP PUSH3 0x18A PUSH3 0x76A700 DUP4 GT ISZERO PUSH2 0x194 PUSH3 0x699 JUMP JUMPDEST PUSH3 0x19E PUSH3 0x278D00 DUP3 GT ISZERO PUSH2 0x195 PUSH3 0x699 JUMP JUMPDEST TIMESTAMP SWAP1 SWAP2 ADD PUSH2 0x140 DUP2 SWAP1 MSTORE ADD PUSH2 0x160 MSTORE DUP6 MLOAD PUSH3 0x1C0 SWAP1 PUSH1 0x2 GT ISZERO PUSH1 0xC8 PUSH3 0x699 JUMP JUMPDEST PUSH3 0x1D8 PUSH1 0x8 DUP8 MLOAD GT ISZERO PUSH1 0xC9 PUSH3 0x699 PUSH1 0x20 SHL PUSH1 0x20 SHR JUMP JUMPDEST PUSH3 0x1EE DUP7 PUSH3 0x6AE PUSH1 0x20 SHL PUSH3 0xF08 OR PUSH1 0x20 SHR JUMP JUMPDEST PUSH3 0x1F9 DUP5 PUSH3 0x6BA JUMP JUMPDEST PUSH1 0x40 MLOAD PUSH4 0x9B2760F PUSH1 0xE0 SHL DUP2 MSTORE PUSH1 0x0 SWAP1 PUSH1 0x1 PUSH1 0x1 PUSH1 0xA0 SHL SUB DUP13 AND SWAP1 PUSH4 0x9B2760F SWAP1 PUSH3 0x22A SWAP1 DUP14 SWAP1 PUSH1 0x4 ADD PUSH3 0xD8F JUMP JUMPDEST PUSH1 0x20 PUSH1 0x40 MLOAD DUP1 DUP4 SUB DUP2 PUSH1 0x0 DUP8 DUP1 EXTCODESIZE ISZERO DUP1 ISZERO PUSH3 0x245 JUMPI PUSH1 0x0 DUP1 REVERT JUMPDEST POP GAS CALL ISZERO DUP1 ISZERO PUSH3 0x25A JUMPI RETURNDATASIZE PUSH1 0x0 DUP1 RETURNDATACOPY RETURNDATASIZE PUSH1 0x0 REVERT JUMPDEST POP POP POP POP PUSH1 0x40 MLOAD RETURNDATASIZE PUSH1 0x1F NOT PUSH1 0x1F DUP3 ADD AND DUP3 ADD DUP1 PUSH1 0x40 MSTORE POP DUP2 ADD SWAP1 PUSH3 0x280 SWAP2 SWAP1 PUSH3 0xBDA JUMP JUMPDEST PUSH1 0x40 MLOAD PUSH4 0x3354E3E9 PUSH1 0xE1 SHL DUP2 MSTORE SWAP1 SWAP2 POP PUSH1 0x1 PUSH1 0x1 PUSH1 0xA0 SHL SUB DUP13 AND SWAP1 PUSH4 0x66A9C7D2 SWAP1 PUSH3 0x2B5 SWAP1 DUP5 SWAP1 DUP12 SWAP1 DUP12 SWAP1 PUSH1 0x4 ADD PUSH3 0xCF3 JUMP JUMPDEST PUSH1 0x0 PUSH1 0x40 MLOAD DUP1 DUP4 SUB DUP2 PUSH1 0x0 DUP8 DUP1 EXTCODESIZE ISZERO DUP1 ISZERO PUSH3 0x2D0 JUMPI PUSH1 0x0 DUP1 REVERT JUMPDEST POP GAS CALL ISZERO DUP1 ISZERO PUSH3 0x2E5 JUMPI RETURNDATASIZE PUSH1 0x0 DUP1 RETURNDATACOPY RETURNDATASIZE PUSH1 0x0 REVERT JUMPDEST POP POP DUP9 MLOAD PUSH1 0x1 PUSH1 0x1 PUSH1 0x60 SHL SUB NOT PUSH1 0x60 DUP16 SWAP1 SHL AND PUSH2 0x180 MSTORE PUSH2 0x1A0 DUP5 SWAP1 MSTORE PUSH2 0x1C0 DUP2 SWAP1 MSTORE SWAP2 POP POP DUP1 PUSH3 0x319 JUMPI PUSH1 0x0 PUSH3 0x330 JUMP JUMPDEST DUP8 PUSH1 0x0 DUP2 MLOAD DUP2 LT PUSH3 0x327 JUMPI INVALID JUMPDEST PUSH1 0x20 MUL PUSH1 0x20 ADD ADD MLOAD JUMPDEST PUSH1 0x60 SHL PUSH1 0x1 PUSH1 0x1 PUSH1 0x60 SHL SUB NOT AND PUSH2 0x1E0 MSTORE PUSH1 0x1 DUP2 GT PUSH3 0x352 JUMPI PUSH1 0x0 PUSH3 0x369 JUMP JUMPDEST DUP8 PUSH1 0x1 DUP2 MLOAD DUP2 LT PUSH3 0x360 JUMPI INVALID JUMPDEST PUSH1 0x20 MUL PUSH1 0x20 ADD ADD MLOAD JUMPDEST PUSH1 0x60 SHL PUSH1 0x1 PUSH1 0x1 PUSH1 0x60 SHL SUB NOT AND PUSH2 0x200 MSTORE PUSH1 0x2 DUP2 GT PUSH3 0x38B JUMPI PUSH1 0x0 PUSH3 0x3A2 JUMP JUMPDEST DUP8 PUSH1 0x2 DUP2 MLOAD DUP2 LT PUSH3 0x399 JUMPI INVALID JUMPDEST PUSH1 0x20 MUL PUSH1 0x20 ADD ADD MLOAD JUMPDEST PUSH1 0x60 SHL PUSH1 0x1 PUSH1 0x1 PUSH1 0x60 SHL SUB NOT AND PUSH2 0x220 MSTORE PUSH1 0x3 DUP2 GT PUSH3 0x3C4 JUMPI PUSH1 0x0 PUSH3 0x3DB JUMP JUMPDEST DUP8 PUSH1 0x3 DUP2 MLOAD DUP2 LT PUSH3 0x3D2 JUMPI INVALID JUMPDEST PUSH1 0x20 MUL PUSH1 0x20 ADD ADD MLOAD JUMPDEST PUSH1 0x60 SHL PUSH1 0x1 PUSH1 0x1 PUSH1 0x60 SHL SUB NOT AND PUSH2 0x240 MSTORE PUSH1 0x4 DUP2 GT PUSH3 0x3FD JUMPI PUSH1 0x0 PUSH3 0x414 JUMP JUMPDEST DUP8 PUSH1 0x4 DUP2 MLOAD DUP2 LT PUSH3 0x40B JUMPI INVALID JUMPDEST PUSH1 0x20 MUL PUSH1 0x20 ADD ADD MLOAD JUMPDEST PUSH1 0x60 SHL PUSH1 0x1 PUSH1 0x1 PUSH1 0x60 SHL SUB NOT AND PUSH2 0x260 MSTORE PUSH1 0x5 DUP2 GT PUSH3 0x436 JUMPI PUSH1 0x0 PUSH3 0x44D JUMP JUMPDEST DUP8 PUSH1 0x5 DUP2 MLOAD DUP2 LT PUSH3 0x444 JUMPI INVALID JUMPDEST PUSH1 0x20 MUL PUSH1 0x20 ADD ADD MLOAD JUMPDEST PUSH1 0x60 SHL PUSH1 0x1 PUSH1 0x1 PUSH1 0x60 SHL SUB NOT AND PUSH2 0x280 MSTORE PUSH1 0x6 DUP2 GT PUSH3 0x46F JUMPI PUSH1 0x0 PUSH3 0x486 JUMP JUMPDEST DUP8 PUSH1 0x6 DUP2 MLOAD DUP2 LT PUSH3 0x47D JUMPI INVALID JUMPDEST PUSH1 0x20 MUL PUSH1 0x20 ADD ADD MLOAD JUMPDEST PUSH1 0x60 SHL PUSH1 0x1 PUSH1 0x1 PUSH1 0x60 SHL SUB NOT AND PUSH2 0x2A0 MSTORE PUSH1 0x7 DUP2 GT PUSH3 0x4A8 JUMPI PUSH1 0x0 PUSH3 0x4BF JUMP JUMPDEST DUP8 PUSH1 0x7 DUP2 MLOAD DUP2 LT PUSH3 0x4B6 JUMPI INVALID JUMPDEST PUSH1 0x20 MUL PUSH1 0x20 ADD ADD MLOAD JUMPDEST PUSH1 0x60 SHL PUSH1 0x1 PUSH1 0x1 PUSH1 0x60 SHL SUB NOT AND PUSH2 0x2C0 MSTORE DUP1 PUSH3 0x4DE JUMPI PUSH1 0x0 PUSH3 0x504 JUMP JUMPDEST PUSH3 0x504 DUP9 PUSH1 0x0 DUP2 MLOAD DUP2 LT PUSH3 0x4F0 JUMPI INVALID JUMPDEST PUSH1 0x20 MUL PUSH1 0x20 ADD ADD MLOAD PUSH3 0x729 PUSH1 0x20 SHL PUSH1 0x20 SHR JUMP JUMPDEST PUSH2 0x2E0 MSTORE PUSH1 0x1 DUP2 GT PUSH3 0x519 JUMPI PUSH1 0x0 PUSH3 0x52B JUMP JUMPDEST PUSH3 0x52B DUP9 PUSH1 0x1 DUP2 MLOAD DUP2 LT PUSH3 0x4F0 JUMPI INVALID JUMPDEST PUSH2 0x300 MSTORE PUSH1 0x2 DUP2 GT PUSH3 0x540 JUMPI PUSH1 0x0 PUSH3 0x552 JUMP JUMPDEST PUSH3 0x552 DUP9 PUSH1 0x2 DUP2 MLOAD DUP2 LT PUSH3 0x4F0 JUMPI INVALID JUMPDEST PUSH2 0x320 MSTORE PUSH1 0x3 DUP2 GT PUSH3 0x567 JUMPI PUSH1 0x0 PUSH3 0x579 JUMP JUMPDEST PUSH3 0x579 DUP9 PUSH1 0x3 DUP2 MLOAD DUP2 LT PUSH3 0x4F0 JUMPI INVALID JUMPDEST PUSH2 0x340 MSTORE PUSH1 0x4 DUP2 GT PUSH3 0x58E JUMPI PUSH1 0x0 PUSH3 0x5A0 JUMP JUMPDEST PUSH3 0x5A0 DUP9 PUSH1 0x4 DUP2 MLOAD DUP2 LT PUSH3 0x4F0 JUMPI INVALID JUMPDEST PUSH2 0x360 MSTORE PUSH1 0x5 DUP2 GT PUSH3 0x5B5 JUMPI PUSH1 0x0 PUSH3 0x5C7 JUMP JUMPDEST PUSH3 0x5C7 DUP9 PUSH1 0x5 DUP2 MLOAD DUP2 LT PUSH3 0x4F0 JUMPI INVALID JUMPDEST PUSH2 0x380 MSTORE PUSH1 0x6 DUP2 GT PUSH3 0x5DC JUMPI PUSH1 0x0 PUSH3 0x5EE JUMP JUMPDEST PUSH3 0x5EE DUP9 PUSH1 0x6 DUP2 MLOAD DUP2 LT PUSH3 0x4F0 JUMPI INVALID JUMPDEST PUSH2 0x3A0 MSTORE PUSH1 0x7 DUP2 GT PUSH3 0x603 JUMPI PUSH1 0x0 PUSH3 0x615 JUMP JUMPDEST PUSH3 0x615 DUP9 PUSH1 0x7 DUP2 MLOAD DUP2 LT PUSH3 0x4F0 JUMPI INVALID JUMPDEST PUSH2 0x3C0 MSTORE POP POP DUP16 MLOAD PUSH3 0x63C SWAP11 POP PUSH1 0x5 LT ISZERO SWAP9 POP PUSH2 0x12F SWAP8 POP POP PUSH3 0x699 SWAP6 POP POP POP POP POP POP JUMP JUMPDEST PUSH3 0x64E PUSH1 0x1 DUP7 LT ISZERO PUSH2 0x12C PUSH3 0x699 JUMP JUMPDEST PUSH3 0x661 PUSH2 0x1388 DUP7 GT ISZERO PUSH2 0x12D PUSH3 0x699 JUMP JUMPDEST PUSH1 0x0 PUSH3 0x67C DUP7 PUSH2 0x3E8 PUSH3 0x7D5 PUSH1 0x20 SHL PUSH3 0xF12 OR PUSH1 0x20 SHR JUMP JUMPDEST SWAP1 POP PUSH3 0x689 DUP2 PUSH3 0x806 JUMP JUMPDEST POP POP POP POP POP POP POP POP POP POP PUSH3 0xE11 JUMP JUMPDEST DUP2 PUSH3 0x6AA JUMPI PUSH3 0x6AA DUP2 PUSH3 0x845 JUMP JUMPDEST POP POP JUMP JUMPDEST DUP1 PUSH3 0x6AA DUP2 PUSH3 0x898 JUMP JUMPDEST PUSH3 0x6CF PUSH5 0xE8D4A51000 DUP3 LT ISZERO PUSH1 0xCB PUSH3 0x699 JUMP JUMPDEST PUSH3 0x6E7 PUSH8 0x16345785D8A0000 DUP3 GT ISZERO PUSH1 0xCA PUSH3 0x699 JUMP JUMPDEST PUSH1 0x8 DUP2 SWAP1 SSTORE PUSH1 0x40 MLOAD PUSH32 0xA9BA3FFE0B6C366B81232CAAB38605A0699AD5398D6CCE76F91EE809E322DAFC SWAP1 PUSH3 0x71E SWAP1 DUP4 SWAP1 PUSH3 0xDA4 JUMP JUMPDEST PUSH1 0x40 MLOAD DUP1 SWAP2 SUB SWAP1 LOG1 POP JUMP JUMPDEST PUSH1 0x0 DUP1 DUP3 PUSH1 0x1 PUSH1 0x1 PUSH1 0xA0 SHL SUB AND PUSH4 0x313CE567 PUSH1 0x40 MLOAD DUP2 PUSH4 0xFFFFFFFF AND PUSH1 0xE0 SHL DUP2 MSTORE PUSH1 0x4 ADD PUSH1 0x20 PUSH1 0x40 MLOAD DUP1 DUP4 SUB DUP2 DUP7 DUP1 EXTCODESIZE ISZERO DUP1 ISZERO PUSH3 0x766 JUMPI PUSH1 0x0 DUP1 REVERT JUMPDEST POP GAS STATICCALL ISZERO DUP1 ISZERO PUSH3 0x77B JUMPI RETURNDATASIZE PUSH1 0x0 DUP1 RETURNDATACOPY RETURNDATASIZE PUSH1 0x0 REVERT JUMPDEST POP POP POP POP PUSH1 0x40 MLOAD RETURNDATASIZE PUSH1 0x1F NOT PUSH1 0x1F DUP3 ADD AND DUP3 ADD DUP1 PUSH1 0x40 MSTORE POP DUP2 ADD SWAP1 PUSH3 0x7A1 SWAP2 SWAP1 PUSH3 0xCD0 JUMP JUMPDEST PUSH1 0xFF AND SWAP1 POP PUSH1 0x0 PUSH3 0x7C0 PUSH1 0x12 DUP4 PUSH3 0x925 PUSH1 0x20 SHL PUSH3 0xF36 OR PUSH1 0x20 SHR JUMP JUMPDEST PUSH1 0xA EXP PUSH8 0xDE0B6B3A7640000 MUL SWAP5 SWAP4 POP POP POP POP JUMP JUMPDEST PUSH1 0x0 DUP3 DUP3 MUL PUSH3 0x7FD DUP5 ISZERO DUP1 PUSH3 0x7F5 JUMPI POP DUP4 DUP6 DUP4 DUP2 PUSH3 0x7F2 JUMPI INVALID JUMPDEST DIV EQ JUMPDEST PUSH1 0x3 PUSH3 0x699 JUMP JUMPDEST SWAP1 POP JUMPDEST SWAP3 SWAP2 POP POP JUMP JUMPDEST PUSH3 0x814 DUP2 DUP1 TIMESTAMP DUP1 PUSH3 0x93D JUMP JUMPDEST PUSH32 0xA0D01593E47E69D07E0CCD87BECE09411E07DD1ED40CA8F2E7AF2976542A0233 DUP2 PUSH1 0x40 MLOAD PUSH3 0x71E SWAP2 SWAP1 PUSH3 0xDA4 JUMP JUMPDEST PUSH3 0x461BCD PUSH1 0xE5 SHL PUSH1 0x0 SWAP1 DUP2 MSTORE PUSH1 0x20 PUSH1 0x4 MSTORE PUSH1 0x7 PUSH1 0x24 MSTORE PUSH7 0x42414C23000030 PUSH1 0xA DUP1 DUP5 DIV DUP2 DUP2 MOD PUSH1 0x30 SWAP1 DUP2 ADD PUSH1 0x8 SHL SWAP6 DUP4 SWAP1 MOD SWAP6 SWAP1 SWAP6 ADD SWAP1 DUP3 SWAP1 DIV SWAP2 DUP3 MOD SWAP1 SWAP5 ADD PUSH1 0x10 SHL SWAP4 SWAP1 SWAP4 ADD ADD PUSH1 0xC8 SHL PUSH1 0x44 MSTORE PUSH1 0x64 SWAP1 REVERT JUMPDEST PUSH1 0x2 DUP2 MLOAD LT ISZERO PUSH3 0x8A9 JUMPI PUSH3 0x922 JUMP JUMPDEST PUSH1 0x0 DUP2 PUSH1 0x0 DUP2 MLOAD DUP2 LT PUSH3 0x8B9 JUMPI INVALID JUMPDEST PUSH1 0x20 MUL PUSH1 0x20 ADD ADD MLOAD SWAP1 POP PUSH1 0x0 PUSH1 0x1 SWAP1 POP JUMPDEST DUP3 MLOAD DUP2 LT ISZERO PUSH3 0x91F JUMPI PUSH1 0x0 DUP4 DUP3 DUP2 MLOAD DUP2 LT PUSH3 0x8E3 JUMPI INVALID JUMPDEST PUSH1 0x20 MUL PUSH1 0x20 ADD ADD MLOAD SWAP1 POP PUSH3 0x914 DUP2 PUSH1 0x1 PUSH1 0x1 PUSH1 0xA0 SHL SUB AND DUP5 PUSH1 0x1 PUSH1 0x1 PUSH1 0xA0 SHL SUB AND LT PUSH1 0x65 PUSH3 0x699 PUSH1 0x20 SHL PUSH1 0x20 SHR JUMP JUMPDEST SWAP2 POP PUSH1 0x1 ADD PUSH3 0x8CA JUMP JUMPDEST POP POP JUMPDEST POP JUMP JUMPDEST PUSH1 0x0 PUSH3 0x937 DUP4 DUP4 GT ISZERO PUSH1 0x1 PUSH3 0x699 JUMP JUMPDEST POP SWAP1 SUB SWAP1 JUMP JUMPDEST PUSH3 0x95E DUP2 PUSH1 0x1 PUSH1 0x1 PUSH1 0x40 SHL SUB AND PUSH1 0xC0 PUSH3 0xA0D PUSH1 0x20 SHL PUSH3 0xF4C OR PUSH1 0x20 SHR JUMP JUMPDEST PUSH3 0x97F DUP4 PUSH1 0x1 PUSH1 0x1 PUSH1 0x40 SHL SUB AND PUSH1 0x80 PUSH3 0xA0D PUSH1 0x20 SHL PUSH3 0xF4C OR PUSH1 0x20 SHR JUMP JUMPDEST PUSH3 0x9A0 DUP6 PUSH1 0x1 PUSH1 0x1 PUSH1 0x40 SHL SUB AND PUSH1 0x40 PUSH3 0xA0D PUSH1 0x20 SHL PUSH3 0xF4C OR PUSH1 0x20 SHR JUMP JUMPDEST PUSH3 0x9C1 DUP8 PUSH1 0x1 PUSH1 0x1 PUSH1 0x40 SHL SUB AND PUSH1 0x0 PUSH3 0xA0D PUSH1 0x20 SHL PUSH3 0xF4C OR PUSH1 0x20 SHR JUMP JUMPDEST OR OR OR PUSH1 0x9 SSTORE PUSH1 0x40 MLOAD PUSH32 0x1835882EE7A34AC194F717A35E09BB1D24C82A3B9D854AB6C9749525B714CDF2 SWAP1 PUSH3 0x9FF SWAP1 DUP7 SWAP1 DUP7 SWAP1 DUP7 SWAP1 DUP7 SWAP1 PUSH3 0xDAD JUMP JUMPDEST PUSH1 0x40 MLOAD DUP1 SWAP2 SUB SWAP1 LOG1 POP POP POP POP JUMP JUMPDEST SHL SWAP1 JUMP JUMPDEST DUP3 DUP1 SLOAD PUSH1 0x1 DUP2 PUSH1 0x1 AND ISZERO PUSH2 0x100 MUL SUB AND PUSH1 0x2 SWAP1 DIV SWAP1 PUSH1 0x0 MSTORE PUSH1 0x20 PUSH1 0x0 KECCAK256 SWAP1 PUSH1 0x1F ADD PUSH1 0x20 SWAP1 DIV DUP2 ADD SWAP3 DUP3 PUSH1 0x1F LT PUSH3 0xA54 JUMPI DUP1 MLOAD PUSH1 0xFF NOT AND DUP4 DUP1 ADD OR DUP6 SSTORE PUSH3 0xA84 JUMP JUMPDEST DUP3 DUP1 ADD PUSH1 0x1 ADD DUP6 SSTORE DUP3 ISZERO PUSH3 0xA84 JUMPI SWAP2 DUP3 ADD JUMPDEST DUP3 DUP2 GT ISZERO PUSH3 0xA84 JUMPI DUP3 MLOAD DUP3 SSTORE SWAP2 PUSH1 0x20 ADD SWAP2 SWAP1 PUSH1 0x1 ADD SWAP1 PUSH3 0xA67 JUMP JUMPDEST POP PUSH3 0xA92 SWAP3 SWAP2 POP PUSH3 0xA96 JUMP JUMPDEST POP SWAP1 JUMP JUMPDEST JUMPDEST DUP1 DUP3 GT ISZERO PUSH3 0xA92 JUMPI PUSH1 0x0 DUP2 SSTORE PUSH1 0x1 ADD PUSH3 0xA97 JUMP JUMPDEST DUP1 MLOAD PUSH3 0x800 DUP2 PUSH3 0xDFB JUMP JUMPDEST PUSH1 0x0 DUP3 PUSH1 0x1F DUP4 ADD SLT PUSH3 0xACB JUMPI DUP1 DUP2 REVERT JUMPDEST DUP2 MLOAD PUSH1 0x1 PUSH1 0x1 PUSH1 0x40 SHL SUB DUP2 GT ISZERO PUSH3 0xAE1 JUMPI DUP2 DUP3 REVERT JUMPDEST PUSH1 0x20 DUP1 DUP3 MUL PUSH3 0xAF3 DUP3 DUP3 ADD PUSH3 0xDC8 JUMP JUMPDEST DUP4 DUP2 MSTORE SWAP4 POP DUP2 DUP5 ADD DUP6 DUP4 ADD DUP3 DUP8 ADD DUP5 ADD DUP9 LT ISZERO PUSH3 0xB10 JUMPI PUSH1 0x0 DUP1 REVERT JUMPDEST PUSH1 0x0 SWAP3 POP JUMPDEST DUP5 DUP4 LT ISZERO PUSH3 0xB40 JUMPI DUP1 MLOAD PUSH3 0xB2B DUP2 PUSH3 0xDFB JUMP JUMPDEST DUP3 MSTORE PUSH1 0x1 SWAP3 SWAP1 SWAP3 ADD SWAP2 SWAP1 DUP4 ADD SWAP1 DUP4 ADD PUSH3 0xB15 JUMP JUMPDEST POP POP POP POP POP SWAP3 SWAP2 POP POP JUMP JUMPDEST PUSH1 0x0 DUP3 PUSH1 0x1F DUP4 ADD SLT PUSH3 0xB5C JUMPI DUP1 DUP2 REVERT JUMPDEST DUP2 MLOAD PUSH1 0x1 PUSH1 0x1 PUSH1 0x40 SHL SUB DUP2 GT ISZERO PUSH3 0xB72 JUMPI DUP2 DUP3 REVERT JUMPDEST PUSH1 0x20 PUSH3 0xB88 PUSH1 0x1F DUP4 ADD PUSH1 0x1F NOT AND DUP3 ADD PUSH3 0xDC8 JUMP JUMPDEST SWAP3 POP DUP2 DUP4 MSTORE DUP5 DUP2 DUP4 DUP7 ADD ADD GT ISZERO PUSH3 0xB9F JUMPI PUSH1 0x0 DUP1 REVERT JUMPDEST PUSH1 0x0 JUMPDEST DUP3 DUP2 LT ISZERO PUSH3 0xBBF JUMPI DUP5 DUP2 ADD DUP3 ADD MLOAD DUP5 DUP3 ADD DUP4 ADD MSTORE DUP2 ADD PUSH3 0xBA2 JUMP JUMPDEST DUP3 DUP2 GT ISZERO PUSH3 0xBD1 JUMPI PUSH1 0x0 DUP3 DUP5 DUP7 ADD ADD MSTORE JUMPDEST POP POP POP SWAP3 SWAP2 POP POP JUMP JUMPDEST PUSH1 0x0 PUSH1 0x20 DUP3 DUP5 SUB SLT ISZERO PUSH3 0xBEC JUMPI DUP1 DUP2 REVERT JUMPDEST POP MLOAD SWAP2 SWAP1 POP JUMP JUMPDEST PUSH1 0x0 DUP1 PUSH1 0x0 DUP1 PUSH1 0x0 DUP1 PUSH1 0x0 DUP1 PUSH1 0x0 PUSH2 0x120 DUP11 DUP13 SUB SLT ISZERO PUSH3 0xC12 JUMPI DUP5 DUP6 REVERT JUMPDEST PUSH3 0xC1E DUP12 DUP12 PUSH3 0xAAD JUMP JUMPDEST PUSH1 0x20 DUP12 ADD MLOAD SWAP1 SWAP10 POP PUSH1 0x1 PUSH1 0x1 PUSH1 0x40 SHL SUB DUP1 DUP3 GT ISZERO PUSH3 0xC3B JUMPI DUP7 DUP8 REVERT JUMPDEST PUSH3 0xC49 DUP14 DUP4 DUP15 ADD PUSH3 0xB4B JUMP JUMPDEST SWAP10 POP PUSH1 0x40 DUP13 ADD MLOAD SWAP2 POP DUP1 DUP3 GT ISZERO PUSH3 0xC5F JUMPI DUP7 DUP8 REVERT JUMPDEST PUSH3 0xC6D DUP14 DUP4 DUP15 ADD PUSH3 0xB4B JUMP JUMPDEST SWAP9 POP PUSH1 0x60 DUP13 ADD MLOAD SWAP2 POP DUP1 DUP3 GT ISZERO PUSH3 0xC83 JUMPI DUP7 DUP8 REVERT JUMPDEST POP PUSH3 0xC92 DUP13 DUP3 DUP14 ADD PUSH3 0xABA JUMP JUMPDEST SWAP7 POP POP PUSH1 0x80 DUP11 ADD MLOAD SWAP5 POP PUSH1 0xA0 DUP11 ADD MLOAD SWAP4 POP PUSH1 0xC0 DUP11 ADD MLOAD SWAP3 POP PUSH1 0xE0 DUP11 ADD MLOAD SWAP2 POP PUSH3 0xCC1 DUP12 PUSH2 0x100 DUP13 ADD PUSH3 0xAAD JUMP JUMPDEST SWAP1 POP SWAP3 SWAP6 SWAP9 POP SWAP3 SWAP6 SWAP9 POP SWAP3 SWAP6 SWAP9 JUMP JUMPDEST PUSH1 0x0 PUSH1 0x20 DUP3 DUP5 SUB SLT ISZERO PUSH3 0xCE2 JUMPI DUP1 DUP2 REVERT JUMPDEST DUP2 MLOAD PUSH1 0xFF DUP2 AND DUP2 EQ PUSH3 0x7FD JUMPI DUP2 DUP3 REVERT JUMPDEST PUSH1 0x0 PUSH1 0x60 DUP3 ADD DUP6 DUP4 MSTORE PUSH1 0x20 PUSH1 0x60 DUP2 DUP6 ADD MSTORE DUP2 DUP7 MLOAD DUP1 DUP5 MSTORE PUSH1 0x80 DUP7 ADD SWAP2 POP DUP3 DUP9 ADD SWAP4 POP DUP5 JUMPDEST DUP2 DUP2 LT ISZERO PUSH3 0xD3F JUMPI PUSH3 0xD2C DUP6 MLOAD PUSH3 0xDEF JUMP JUMPDEST DUP4 MSTORE SWAP4 DUP4 ADD SWAP4 SWAP2 DUP4 ADD SWAP2 PUSH1 0x1 ADD PUSH3 0xD17 JUMP JUMPDEST POP POP DUP5 DUP2 SUB PUSH1 0x40 DUP7 ADD MSTORE DUP6 MLOAD DUP1 DUP3 MSTORE SWAP1 DUP3 ADD SWAP3 POP DUP2 DUP7 ADD SWAP1 DUP5 JUMPDEST DUP2 DUP2 LT ISZERO PUSH3 0xD81 JUMPI PUSH3 0xD6E DUP4 MLOAD PUSH3 0xDEF JUMP JUMPDEST DUP6 MSTORE SWAP4 DUP4 ADD SWAP4 SWAP2 DUP4 ADD SWAP2 PUSH1 0x1 ADD PUSH3 0xD59 JUMP JUMPDEST POP SWAP3 SWAP9 SWAP8 POP POP POP POP POP POP POP POP JUMP JUMPDEST PUSH1 0x20 DUP2 ADD PUSH1 0x3 DUP4 LT PUSH3 0xD9E JUMPI INVALID JUMPDEST SWAP2 SWAP1 MSTORE SWAP1 JUMP JUMPDEST SWAP1 DUP2 MSTORE PUSH1 0x20 ADD SWAP1 JUMP JUMPDEST SWAP4 DUP5 MSTORE PUSH1 0x20 DUP5 ADD SWAP3 SWAP1 SWAP3 MSTORE PUSH1 0x40 DUP4 ADD MSTORE PUSH1 0x60 DUP3 ADD MSTORE PUSH1 0x80 ADD SWAP1 JUMP JUMPDEST PUSH1 0x40 MLOAD DUP2 DUP2 ADD PUSH1 0x1 PUSH1 0x1 PUSH1 0x40 SHL SUB DUP2 GT DUP3 DUP3 LT OR ISZERO PUSH3 0xDE7 JUMPI PUSH1 0x0 DUP1 REVERT JUMPDEST PUSH1 0x40 MSTORE SWAP2 SWAP1 POP JUMP JUMPDEST PUSH1 0x1 PUSH1 0x1 PUSH1 0xA0 SHL SUB AND SWAP1 JUMP JUMPDEST PUSH1 0x1 PUSH1 0x1 PUSH1 0xA0 SHL SUB DUP2 AND DUP2 EQ PUSH3 0x922 JUMPI PUSH1 0x0 DUP1 REVERT JUMPDEST PUSH1 0x80 MLOAD PUSH1 0xA0 MLOAD PUSH1 0x60 SHR PUSH1 0xC0 MLOAD PUSH1 0xE0 MLOAD PUSH2 0x100 MLOAD PUSH2 0x120 MLOAD PUSH2 0x140 MLOAD PUSH2 0x160 MLOAD PUSH2 0x180 MLOAD PUSH1 0x60 SHR PUSH2 0x1A0 MLOAD PUSH2 0x1C0 MLOAD PUSH2 0x1E0 MLOAD PUSH1 0x60 SHR PUSH2 0x200 MLOAD PUSH1 0x60 SHR PUSH2 0x220 MLOAD PUSH1 0x60 SHR PUSH2 0x240 MLOAD PUSH1 0x60 SHR PUSH2 0x260 MLOAD PUSH1 0x60 SHR PUSH2 0x280 MLOAD PUSH1 0x60 SHR PUSH2 0x2A0 MLOAD PUSH1 0x60 SHR PUSH2 0x2C0 MLOAD PUSH1 0x60 SHR PUSH2 0x2E0 MLOAD PUSH2 0x300 MLOAD PUSH2 0x320 MLOAD PUSH2 0x340 MLOAD PUSH2 0x360 MLOAD PUSH2 0x380 MLOAD PUSH2 0x3A0 MLOAD PUSH2 0x3C0 MLOAD PUSH2 0x4505 PUSH3 0xF78 PUSH1 0x0 CODECOPY DUP1 PUSH2 0x11CF MSTORE DUP1 PUSH2 0x20DD MSTORE POP DUP1 PUSH2 0x118C MSTORE DUP1 PUSH2 0x207C MSTORE POP DUP1 PUSH2 0x1149 MSTORE DUP1 PUSH2 0x201B MSTORE POP DUP1 PUSH2 0x1106 MSTORE DUP1 PUSH2 0x1FBA MSTORE POP DUP1 PUSH2 0x10C3 MSTORE DUP1 PUSH2 0x1F59 MSTORE POP DUP1 PUSH2 0x1080 MSTORE DUP1 PUSH2 0x1EF8 MSTORE POP DUP1 PUSH2 0x103D MSTORE DUP1 PUSH2 0x1E97 MSTORE POP DUP1 PUSH2 0xFEC MSTORE DUP1 PUSH2 0x1E36 MSTORE POP DUP1 PUSH2 0x20A2 MSTORE POP DUP1 PUSH2 0x2041 MSTORE POP DUP1 PUSH2 0x1FE0 MSTORE POP DUP1 PUSH2 0x1F7F MSTORE POP DUP1 PUSH2 0x1F1E MSTORE POP DUP1 PUSH2 0x1EBD MSTORE POP DUP1 PUSH2 0x1E5C MSTORE POP DUP1 PUSH2 0x1DFB MSTORE DUP1 PUSH2 0x29FD MSTORE POP DUP1 PUSH2 0xF52 MSTORE POP DUP1 PUSH2 0x759 MSTORE POP DUP1 PUSH2 0xA85 MSTORE POP DUP1 PUSH2 0x143F MSTORE POP DUP1 PUSH2 0x141B MSTORE POP DUP1 PUSH2 0xC79 MSTORE POP DUP1 PUSH2 0x1694 MSTORE POP DUP1 PUSH2 0x16D6 MSTORE POP DUP1 PUSH2 0x16B5 MSTORE POP DUP1 PUSH2 0xA61 MSTORE POP DUP1 PUSH2 0x9EB MSTORE POP PUSH2 0x4505 PUSH1 0x0 RETURN INVALID PUSH1 0x80 PUSH1 0x40 MSTORE CALLVALUE DUP1 ISZERO PUSH2 0x10 JUMPI PUSH1 0x0 DUP1 REVERT JUMPDEST POP PUSH1 0x4 CALLDATASIZE LT PUSH2 0x206 JUMPI PUSH1 0x0 CALLDATALOAD PUSH1 0xE0 SHR DUP1 PUSH4 0x6DACCFFA GT PUSH2 0x11A JUMPI DUP1 PUSH4 0x95D89B41 GT PUSH2 0xAD JUMPI DUP1 PUSH4 0xAAABADC5 GT PUSH2 0x7C JUMPI DUP1 PUSH4 0xAAABADC5 EQ PUSH2 0x434 JUMPI DUP1 PUSH4 0xD505ACCF EQ PUSH2 0x43C JUMPI DUP1 PUSH4 0xD5C096C4 EQ PUSH2 0x44F JUMPI DUP1 PUSH4 0xDD62ED3E EQ PUSH2 0x462 JUMPI DUP1 PUSH4 0xEB0F24D6 EQ PUSH2 0x475 JUMPI PUSH2 0x206 JUMP JUMPDEST DUP1 PUSH4 0x95D89B41 EQ PUSH2 0x3F3 JUMPI DUP1 PUSH4 0x9D2C110C EQ PUSH2 0x3FB JUMPI DUP1 PUSH4 0xA457C2D7 EQ PUSH2 0x40E JUMPI DUP1 PUSH4 0xA9059CBB EQ PUSH2 0x421 JUMPI PUSH2 0x206 JUMP JUMPDEST DUP1 PUSH4 0x851C1BB3 GT PUSH2 0xE9 JUMPI DUP1 PUSH4 0x851C1BB3 EQ PUSH2 0x3B0 JUMPI DUP1 PUSH4 0x87EC6817 EQ PUSH2 0x3C3 JUMPI DUP1 PUSH4 0x893D20E8 EQ PUSH2 0x3D6 JUMPI DUP1 PUSH4 0x8D928AF8 EQ PUSH2 0x3EB JUMPI PUSH2 0x206 JUMP JUMPDEST DUP1 PUSH4 0x6DACCFFA EQ PUSH2 0x352 JUMPI DUP1 PUSH4 0x70A08231 EQ PUSH2 0x369 JUMPI DUP1 PUSH4 0x74F3B009 EQ PUSH2 0x37C JUMPI DUP1 PUSH4 0x7ECEBE00 EQ PUSH2 0x39D JUMPI PUSH2 0x206 JUMP JUMPDEST DUP1 PUSH4 0x313CE567 GT PUSH2 0x19D JUMPI DUP1 PUSH4 0x39509351 GT PUSH2 0x16C JUMPI DUP1 PUSH4 0x39509351 EQ PUSH2 0x2FB JUMPI DUP1 PUSH4 0x50DD6ED9 EQ PUSH2 0x30E JUMPI DUP1 PUSH4 0x55C67628 EQ PUSH2 0x321 JUMPI DUP1 PUSH4 0x6028BFD4 EQ PUSH2 0x329 JUMPI DUP1 PUSH4 0x679AEFCE EQ PUSH2 0x34A JUMPI PUSH2 0x206 JUMP JUMPDEST DUP1 PUSH4 0x313CE567 EQ PUSH2 0x2C3 JUMPI DUP1 PUSH4 0x3644E515 EQ PUSH2 0x2D8 JUMPI DUP1 PUSH4 0x38E9922E EQ PUSH2 0x2E0 JUMPI DUP1 PUSH4 0x38FFF2D0 EQ PUSH2 0x2F3 JUMPI PUSH2 0x206 JUMP JUMPDEST DUP1 PUSH4 0x18160DDD GT PUSH2 0x1D9 JUMPI DUP1 PUSH4 0x18160DDD EQ PUSH2 0x27E JUMPI DUP1 PUSH4 0x1C0DE051 EQ PUSH2 0x286 JUMPI DUP1 PUSH4 0x23B872DD EQ PUSH2 0x29D JUMPI DUP1 PUSH4 0x2F1A0BC9 EQ PUSH2 0x2B0 JUMPI PUSH2 0x206 JUMP JUMPDEST DUP1 PUSH4 0x1EC954A EQ PUSH2 0x20B JUMPI DUP1 PUSH4 0x6FDDE03 EQ PUSH2 0x234 JUMPI DUP1 PUSH4 0x95EA7B3 EQ PUSH2 0x249 JUMPI DUP1 PUSH4 0x16C38B3C EQ PUSH2 0x269 JUMPI JUMPDEST PUSH1 0x0 DUP1 REVERT JUMPDEST PUSH2 0x21E PUSH2 0x219 CALLDATASIZE PUSH1 0x4 PUSH2 0x40C1 JUMP JUMPDEST PUSH2 0x47D JUMP JUMPDEST PUSH1 0x40 MLOAD PUSH2 0x22B SWAP2 SWAP1 PUSH2 0x4319 JUMP JUMPDEST PUSH1 0x40 MLOAD DUP1 SWAP2 SUB SWAP1 RETURN JUMPDEST PUSH2 0x23C PUSH2 0x4DC JUMP JUMPDEST PUSH1 0x40 MLOAD PUSH2 0x22B SWAP2 SWAP1 PUSH2 0x43EF JUMP JUMPDEST PUSH2 0x25C PUSH2 0x257 CALLDATASIZE PUSH1 0x4 PUSH2 0x3D57 JUMP JUMPDEST PUSH2 0x573 JUMP JUMPDEST PUSH1 0x40 MLOAD PUSH2 0x22B SWAP2 SWAP1 PUSH2 0x42F6 JUMP JUMPDEST PUSH2 0x27C PUSH2 0x277 CALLDATASIZE PUSH1 0x4 PUSH2 0x3E4D JUMP JUMPDEST PUSH2 0x58A JUMP JUMPDEST STOP JUMPDEST PUSH2 0x21E PUSH2 0x59E JUMP JUMPDEST PUSH2 0x28E PUSH2 0x5A4 JUMP JUMPDEST PUSH1 0x40 MLOAD PUSH2 0x22B SWAP4 SWAP3 SWAP2 SWAP1 PUSH2 0x4301 JUMP JUMPDEST PUSH2 0x25C PUSH2 0x2AB CALLDATASIZE PUSH1 0x4 PUSH2 0x3CA2 JUMP JUMPDEST PUSH2 0x5CD JUMP JUMPDEST PUSH2 0x27C PUSH2 0x2BE CALLDATASIZE PUSH1 0x4 PUSH2 0x4194 JUMP JUMPDEST PUSH2 0x643 JUMP JUMPDEST PUSH2 0x2CB PUSH2 0x726 JUMP JUMPDEST PUSH1 0x40 MLOAD PUSH2 0x22B SWAP2 SWAP1 PUSH2 0x444C JUMP JUMPDEST PUSH2 0x21E PUSH2 0x72F JUMP JUMPDEST PUSH2 0x27C PUSH2 0x2EE CALLDATASIZE PUSH1 0x4 PUSH2 0x417C JUMP JUMPDEST PUSH2 0x73E JUMP JUMPDEST PUSH2 0x21E PUSH2 0x757 JUMP JUMPDEST PUSH2 0x25C PUSH2 0x309 CALLDATASIZE PUSH1 0x4 PUSH2 0x3D57 JUMP JUMPDEST PUSH2 0x77B JUMP JUMPDEST PUSH2 0x27C PUSH2 0x31C CALLDATASIZE PUSH1 0x4 PUSH2 0x3F6B JUMP JUMPDEST PUSH2 0x7B6 JUMP JUMPDEST PUSH2 0x21E PUSH2 0x7D4 JUMP JUMPDEST PUSH2 0x33C PUSH2 0x337 CALLDATASIZE PUSH1 0x4 PUSH2 0x3E85 JUMP JUMPDEST PUSH2 0x7DA JUMP JUMPDEST PUSH1 0x40 MLOAD PUSH2 0x22B SWAP3 SWAP2 SWAP1 PUSH2 0x4402 JUMP JUMPDEST PUSH2 0x21E PUSH2 0x811 JUMP JUMPDEST PUSH2 0x35A PUSH2 0x8EF JUMP JUMPDEST PUSH1 0x40 MLOAD PUSH2 0x22B SWAP4 SWAP3 SWAP2 SWAP1 PUSH2 0x441B JUMP JUMPDEST PUSH2 0x21E PUSH2 0x377 CALLDATASIZE PUSH1 0x4 PUSH2 0x3C4E JUMP JUMPDEST PUSH2 0x90A JUMP JUMPDEST PUSH2 0x38F PUSH2 0x38A CALLDATASIZE PUSH1 0x4 PUSH2 0x3E85 JUMP JUMPDEST PUSH2 0x929 JUMP JUMPDEST PUSH1 0x40 MLOAD PUSH2 0x22B SWAP3 SWAP2 SWAP1 PUSH2 0x42D1 JUMP JUMPDEST PUSH2 0x21E PUSH2 0x3AB CALLDATASIZE PUSH1 0x4 PUSH2 0x3C4E JUMP JUMPDEST PUSH2 0x9CC JUMP JUMPDEST PUSH2 0x21E PUSH2 0x3BE CALLDATASIZE PUSH1 0x4 PUSH2 0x3F27 JUMP JUMPDEST PUSH2 0x9E7 JUMP JUMPDEST PUSH2 0x33C PUSH2 0x3D1 CALLDATASIZE PUSH1 0x4 PUSH2 0x3E85 JUMP JUMPDEST PUSH2 0xA39 JUMP JUMPDEST PUSH2 0x3DE PUSH2 0xA5F JUMP JUMPDEST PUSH1 0x40 MLOAD PUSH2 0x22B SWAP2 SWAP1 PUSH2 0x42BD JUMP JUMPDEST PUSH2 0x3DE PUSH2 0xA83 JUMP JUMPDEST PUSH2 0x23C PUSH2 0xAA7 JUMP JUMPDEST PUSH2 0x21E PUSH2 0x409 CALLDATASIZE PUSH1 0x4 PUSH2 0x4131 JUMP JUMPDEST PUSH2 0xB08 JUMP JUMPDEST PUSH2 0x25C PUSH2 0x41C CALLDATASIZE PUSH1 0x4 PUSH2 0x3D57 JUMP JUMPDEST PUSH2 0xBEF JUMP JUMPDEST PUSH2 0x25C PUSH2 0x42F CALLDATASIZE PUSH1 0x4 PUSH2 0x3D57 JUMP JUMPDEST PUSH2 0xC2D JUMP JUMPDEST PUSH2 0x3DE PUSH2 0xC3A JUMP JUMPDEST PUSH2 0x27C PUSH2 0x44A CALLDATASIZE PUSH1 0x4 PUSH2 0x3CE2 JUMP JUMPDEST PUSH2 0xC44 JUMP JUMPDEST PUSH2 0x38F PUSH2 0x45D CALLDATASIZE PUSH1 0x4 PUSH2 0x3E85 JUMP JUMPDEST PUSH2 0xD8D JUMP JUMPDEST PUSH2 0x21E PUSH2 0x470 CALLDATASIZE PUSH1 0x4 PUSH2 0x3C6A JUMP JUMPDEST PUSH2 0xEB1 JUMP JUMPDEST PUSH2 0x27C PUSH2 0xEDC JUMP JUMPDEST PUSH1 0x0 PUSH2 0x491 DUP4 DUP4 PUSH2 0x48C PUSH2 0xF50 JUMP JUMPDEST PUSH2 0xF74 JUMP JUMPDEST PUSH1 0x60 PUSH2 0x49B PUSH2 0xF91 JUMP JUMPDEST SWAP1 POP PUSH1 0x0 DUP7 MLOAD PUSH1 0x1 DUP2 GT ISZERO PUSH2 0x4AC JUMPI INVALID JUMPDEST EQ PUSH2 0x4C3 JUMPI PUSH2 0x4BE DUP7 DUP7 DUP7 DUP7 DUP6 PUSH2 0x120D JUMP JUMPDEST PUSH2 0x4D0 JUMP JUMPDEST PUSH2 0x4D0 DUP7 DUP7 DUP7 DUP7 DUP6 PUSH2 0x1284 JUMP JUMPDEST SWAP2 POP POP JUMPDEST SWAP5 SWAP4 POP POP POP POP JUMP JUMPDEST PUSH1 0x3 DUP1 SLOAD PUSH1 0x40 DUP1 MLOAD PUSH1 0x20 PUSH1 0x1F PUSH1 0x2 PUSH1 0x0 NOT PUSH2 0x100 PUSH1 0x1 DUP9 AND ISZERO MUL ADD SWAP1 SWAP6 AND SWAP5 SWAP1 SWAP5 DIV SWAP4 DUP5 ADD DUP2 SWAP1 DIV DUP2 MUL DUP3 ADD DUP2 ADD SWAP1 SWAP3 MSTORE DUP3 DUP2 MSTORE PUSH1 0x60 SWAP4 SWAP1 SWAP3 SWAP1 SWAP2 DUP4 ADD DUP3 DUP3 DUP1 ISZERO PUSH2 0x568 JUMPI DUP1 PUSH1 0x1F LT PUSH2 0x53D JUMPI PUSH2 0x100 DUP1 DUP4 SLOAD DIV MUL DUP4 MSTORE SWAP2 PUSH1 0x20 ADD SWAP2 PUSH2 0x568 JUMP JUMPDEST DUP3 ADD SWAP2 SWAP1 PUSH1 0x0 MSTORE PUSH1 0x20 PUSH1 0x0 KECCAK256 SWAP1 JUMPDEST DUP2 SLOAD DUP2 MSTORE SWAP1 PUSH1 0x1 ADD SWAP1 PUSH1 0x20 ADD DUP1 DUP4 GT PUSH2 0x54B JUMPI DUP3 SWAP1 SUB PUSH1 0x1F AND DUP3 ADD SWAP2 JUMPDEST POP POP POP POP POP SWAP1 POP JUMPDEST SWAP1 JUMP JUMPDEST PUSH1 0x0 PUSH2 0x580 CALLER DUP5 DUP5 PUSH2 0x12E8 JUMP JUMPDEST POP PUSH1 0x1 JUMPDEST SWAP3 SWAP2 POP POP JUMP JUMPDEST PUSH2 0x592 PUSH2 0x1350 JUMP JUMPDEST PUSH2 0x59B DUP2 PUSH2 0x137E JUMP JUMPDEST POP JUMP JUMPDEST PUSH1 0x2 SLOAD SWAP1 JUMP JUMPDEST PUSH1 0x0 DUP1 PUSH1 0x0 PUSH2 0x5B1 PUSH2 0x13FC JUMP JUMPDEST ISZERO SWAP3 POP PUSH2 0x5BC PUSH2 0x1419 JUMP JUMPDEST SWAP2 POP PUSH2 0x5C6 PUSH2 0x143D JUMP JUMPDEST SWAP1 POP SWAP1 SWAP2 SWAP3 JUMP JUMPDEST PUSH1 0x0 DUP1 PUSH2 0x5DA DUP6 CALLER PUSH2 0xEB1 JUMP JUMPDEST SWAP1 POP PUSH2 0x5FE CALLER PUSH1 0x1 PUSH1 0x1 PUSH1 0xA0 SHL SUB DUP8 AND EQ DUP1 PUSH2 0x5F6 JUMPI POP DUP4 DUP3 LT ISZERO JUMPDEST PUSH2 0x19E PUSH2 0x1461 JUMP JUMPDEST PUSH2 0x609 DUP6 DUP6 DUP6 PUSH2 0x146F JUMP JUMPDEST CALLER PUSH1 0x1 PUSH1 0x1 PUSH1 0xA0 SHL SUB DUP7 AND EQ DUP1 ISZERO SWAP1 PUSH2 0x624 JUMPI POP PUSH1 0x0 NOT DUP2 EQ ISZERO JUMPDEST ISZERO PUSH2 0x636 JUMPI PUSH2 0x636 DUP6 CALLER DUP6 DUP5 SUB PUSH2 0x12E8 JUMP JUMPDEST PUSH1 0x1 SWAP2 POP POP JUMPDEST SWAP4 SWAP3 POP POP POP JUMP JUMPDEST PUSH2 0x64B PUSH2 0x1350 JUMP JUMPDEST PUSH2 0x65B PUSH1 0x1 DUP4 LT ISZERO PUSH2 0x12C PUSH2 0x1461 JUMP JUMPDEST PUSH2 0x66C PUSH2 0x1388 DUP4 GT ISZERO PUSH2 0x12D PUSH2 0x1461 JUMP JUMPDEST PUSH1 0x0 PUSH2 0x678 DUP3 TIMESTAMP PUSH2 0xF36 JUMP JUMPDEST SWAP1 POP PUSH2 0x68C PUSH3 0x15180 DUP3 LT ISZERO PUSH2 0x13D PUSH2 0x1461 JUMP JUMPDEST PUSH1 0x0 DUP1 PUSH2 0x697 PUSH2 0x154F JUMP JUMPDEST SWAP2 POP SWAP2 POP PUSH2 0x6A8 DUP2 ISZERO PUSH2 0x13E PUSH2 0x1461 JUMP JUMPDEST PUSH1 0x0 PUSH2 0x6B6 DUP7 PUSH2 0x3E8 PUSH2 0xF12 JUMP JUMPDEST SWAP1 POP PUSH1 0x0 DUP4 DUP3 GT PUSH2 0x6E5 JUMPI PUSH2 0x6E0 PUSH2 0x6D1 PUSH3 0x15180 DUP7 PUSH2 0xF12 JUMP JUMPDEST PUSH2 0x6DB DUP5 DUP9 PUSH2 0xF12 JUMP JUMPDEST PUSH2 0x15C3 JUMP JUMPDEST PUSH2 0x6FF JUMP JUMPDEST PUSH2 0x6FF PUSH2 0x6F5 PUSH3 0x15180 DUP5 PUSH2 0xF12 JUMP JUMPDEST PUSH2 0x6DB DUP7 DUP9 PUSH2 0xF12 JUMP JUMPDEST SWAP1 POP PUSH2 0x711 PUSH1 0x2 DUP3 GT ISZERO PUSH2 0x13F PUSH2 0x1461 JUMP JUMPDEST PUSH2 0x71D DUP5 DUP4 TIMESTAMP DUP10 PUSH2 0x15F6 JUMP JUMPDEST POP POP POP POP POP POP POP JUMP JUMPDEST PUSH1 0x5 SLOAD PUSH1 0xFF AND SWAP1 JUMP JUMPDEST PUSH1 0x0 PUSH2 0x739 PUSH2 0x1690 JUMP JUMPDEST SWAP1 POP SWAP1 JUMP JUMPDEST PUSH2 0x746 PUSH2 0x1350 JUMP JUMPDEST PUSH2 0x74E PUSH2 0x172D JUMP JUMPDEST PUSH2 0x59B DUP2 PUSH2 0x1742 JUMP JUMPDEST PUSH32 0x0 SWAP1 JUMP JUMPDEST CALLER PUSH1 0x0 DUP2 DUP2 MSTORE PUSH1 0x1 PUSH1 0x20 SWAP1 DUP2 MSTORE PUSH1 0x40 DUP1 DUP4 KECCAK256 PUSH1 0x1 PUSH1 0x1 PUSH1 0xA0 SHL SUB DUP8 AND DUP5 MSTORE SWAP1 SWAP2 MSTORE DUP2 KECCAK256 SLOAD SWAP1 SWAP2 PUSH2 0x580 SWAP2 DUP6 SWAP1 PUSH2 0x7B1 SWAP1 DUP7 PUSH2 0x17A0 JUMP JUMPDEST PUSH2 0x12E8 JUMP JUMPDEST PUSH2 0x7BE PUSH2 0x1350 JUMP JUMPDEST PUSH2 0x7C6 PUSH2 0x172D JUMP JUMPDEST PUSH2 0x7D0 DUP3 DUP3 PUSH2 0x17B2 JUMP JUMPDEST POP POP JUMP JUMPDEST PUSH1 0x8 SLOAD SWAP1 JUMP JUMPDEST PUSH1 0x0 PUSH1 0x60 PUSH2 0x7F0 DUP7 MLOAD PUSH2 0x7EB PUSH2 0xF50 JUMP JUMPDEST PUSH2 0x18B1 JUMP JUMPDEST PUSH2 0x805 DUP10 DUP10 DUP10 DUP10 DUP10 DUP10 DUP10 PUSH2 0x18BE PUSH2 0x1961 PUSH2 0x19C2 JUMP JUMPDEST SWAP8 POP SWAP8 SWAP6 POP POP POP POP POP POP JUMP JUMPDEST PUSH1 0x0 PUSH1 0x60 PUSH2 0x81D PUSH2 0xA83 JUMP JUMPDEST PUSH1 0x1 PUSH1 0x1 PUSH1 0xA0 SHL SUB AND PUSH4 0xF94D4668 PUSH2 0x833 PUSH2 0x757 JUMP JUMPDEST PUSH1 0x40 MLOAD DUP3 PUSH4 0xFFFFFFFF AND PUSH1 0xE0 SHL DUP2 MSTORE PUSH1 0x4 ADD PUSH2 0x84F SWAP2 SWAP1 PUSH2 0x4319 JUMP JUMPDEST PUSH1 0x0 PUSH1 0x40 MLOAD DUP1 DUP4 SUB DUP2 DUP7 DUP1 EXTCODESIZE ISZERO DUP1 ISZERO PUSH2 0x867 JUMPI PUSH1 0x0 DUP1 REVERT JUMPDEST POP GAS STATICCALL ISZERO DUP1 ISZERO PUSH2 0x87B JUMPI RETURNDATASIZE PUSH1 0x0 DUP1 RETURNDATACOPY RETURNDATASIZE PUSH1 0x0 REVERT JUMPDEST POP POP POP POP PUSH1 0x40 MLOAD RETURNDATASIZE PUSH1 0x0 DUP3 RETURNDATACOPY PUSH1 0x1F RETURNDATASIZE SWAP1 DUP2 ADD PUSH1 0x1F NOT AND DUP3 ADD PUSH1 0x40 MSTORE PUSH2 0x8A3 SWAP2 SWAP1 DUP2 ADD SWAP1 PUSH2 0x3D82 JUMP JUMPDEST POP SWAP2 POP POP PUSH1 0x0 PUSH2 0x8B1 PUSH2 0x154F JUMP JUMPDEST POP SWAP1 POP PUSH2 0x8C5 DUP3 PUSH2 0x8C0 PUSH2 0xF91 JUMP JUMPDEST PUSH2 0x1AE5 JUMP JUMPDEST PUSH1 0x0 PUSH2 0x8D3 DUP3 DUP5 PUSH1 0x0 PUSH2 0x1B46 JUMP JUMPDEST SWAP1 POP PUSH2 0x8E7 PUSH2 0x8E0 PUSH2 0x59E JUMP JUMPDEST DUP3 SWAP1 PUSH2 0x1CE2 JUMP JUMPDEST SWAP4 POP POP POP POP SWAP1 JUMP JUMPDEST PUSH1 0x0 DUP1 PUSH1 0x0 PUSH2 0x8FC PUSH2 0x154F JUMP JUMPDEST SWAP1 SWAP5 SWAP1 SWAP4 POP PUSH2 0x3E8 SWAP3 POP SWAP1 POP JUMP JUMPDEST PUSH1 0x1 PUSH1 0x1 PUSH1 0xA0 SHL SUB DUP2 AND PUSH1 0x0 SWAP1 DUP2 MSTORE PUSH1 0x20 DUP2 SWAP1 MSTORE PUSH1 0x40 SWAP1 KECCAK256 SLOAD JUMPDEST SWAP2 SWAP1 POP JUMP JUMPDEST PUSH1 0x60 DUP1 DUP9 PUSH2 0x953 PUSH2 0x938 PUSH2 0xA83 JUMP JUMPDEST PUSH1 0x1 PUSH1 0x1 PUSH1 0xA0 SHL SUB AND CALLER PUSH1 0x1 PUSH1 0x1 PUSH1 0xA0 SHL SUB AND EQ PUSH1 0xCD PUSH2 0x1461 JUMP JUMPDEST PUSH2 0x968 PUSH2 0x95E PUSH2 0x757 JUMP JUMPDEST DUP3 EQ PUSH2 0x1F4 PUSH2 0x1461 JUMP JUMPDEST PUSH1 0x60 PUSH2 0x972 PUSH2 0xF91 JUMP JUMPDEST SWAP1 POP PUSH2 0x97E DUP9 DUP3 PUSH2 0x1AE5 JUMP JUMPDEST PUSH1 0x0 PUSH1 0x60 DUP1 PUSH2 0x993 DUP15 DUP15 DUP15 DUP15 DUP15 DUP15 DUP11 DUP16 PUSH2 0x18BE JUMP JUMPDEST SWAP3 POP SWAP3 POP SWAP3 POP PUSH2 0x9A3 DUP14 DUP5 PUSH2 0x1D33 JUMP JUMPDEST PUSH2 0x9AD DUP3 DUP6 PUSH2 0x1961 JUMP JUMPDEST PUSH2 0x9B7 DUP2 DUP6 PUSH2 0x1961 JUMP JUMPDEST SWAP1 SWAP6 POP SWAP4 POP POP POP JUMPDEST POP SWAP8 POP SWAP8 SWAP6 POP POP POP POP POP POP JUMP JUMPDEST PUSH1 0x1 PUSH1 0x1 PUSH1 0xA0 SHL SUB AND PUSH1 0x0 SWAP1 DUP2 MSTORE PUSH1 0x6 PUSH1 0x20 MSTORE PUSH1 0x40 SWAP1 KECCAK256 SLOAD SWAP1 JUMP JUMPDEST PUSH1 0x0 PUSH32 0x0 DUP3 PUSH1 0x40 MLOAD PUSH1 0x20 ADD PUSH2 0xA1C SWAP3 SWAP2 SWAP1 PUSH2 0x427A JUMP JUMPDEST PUSH1 0x40 MLOAD PUSH1 0x20 DUP2 DUP4 SUB SUB DUP2 MSTORE SWAP1 PUSH1 0x40 MSTORE DUP1 MLOAD SWAP1 PUSH1 0x20 ADD KECCAK256 SWAP1 POP SWAP2 SWAP1 POP JUMP JUMPDEST PUSH1 0x0 PUSH1 0x60 PUSH2 0xA4A DUP7 MLOAD PUSH2 0x7EB PUSH2 0xF50 JUMP JUMPDEST PUSH2 0x805 DUP10 DUP10 DUP10 DUP10 DUP10 DUP10 DUP10 PUSH2 0x1D3D PUSH2 0x1D96 PUSH2 0x19C2 JUMP JUMPDEST PUSH32 0x0 SWAP1 JUMP JUMPDEST PUSH32 0x0 SWAP1 JUMP JUMPDEST PUSH1 0x4 DUP1 SLOAD PUSH1 0x40 DUP1 MLOAD PUSH1 0x20 PUSH1 0x1F PUSH1 0x2 PUSH1 0x0 NOT PUSH2 0x100 PUSH1 0x1 DUP9 AND ISZERO MUL ADD SWAP1 SWAP6 AND SWAP5 SWAP1 SWAP5 DIV SWAP4 DUP5 ADD DUP2 SWAP1 DIV DUP2 MUL DUP3 ADD DUP2 ADD SWAP1 SWAP3 MSTORE DUP3 DUP2 MSTORE PUSH1 0x60 SWAP4 SWAP1 SWAP3 SWAP1 SWAP2 DUP4 ADD DUP3 DUP3 DUP1 ISZERO PUSH2 0x568 JUMPI DUP1 PUSH1 0x1F LT PUSH2 0x53D JUMPI PUSH2 0x100 DUP1 DUP4 SLOAD DIV MUL DUP4 MSTORE SWAP2 PUSH1 0x20 ADD SWAP2 PUSH2 0x568 JUMP JUMPDEST PUSH1 0x0 DUP1 PUSH2 0xB18 DUP6 PUSH1 0x20 ADD MLOAD PUSH2 0x1DF7 JUMP JUMPDEST SWAP1 POP PUSH1 0x0 PUSH2 0xB29 DUP7 PUSH1 0x40 ADD MLOAD PUSH2 0x1DF7 JUMP JUMPDEST SWAP1 POP PUSH1 0x0 DUP7 MLOAD PUSH1 0x1 DUP2 GT ISZERO PUSH2 0xB3A JUMPI INVALID JUMPDEST EQ ISZERO PUSH2 0xBA0 JUMPI PUSH2 0xB4D DUP7 PUSH1 0x60 ADD MLOAD PUSH2 0x210C JUMP JUMPDEST PUSH1 0x60 DUP8 ADD MSTORE PUSH2 0xB5C DUP6 DUP4 PUSH2 0x2130 JUMP JUMPDEST SWAP5 POP PUSH2 0xB68 DUP5 DUP3 PUSH2 0x2130 JUMP JUMPDEST SWAP4 POP PUSH2 0xB78 DUP7 PUSH1 0x60 ADD MLOAD DUP4 PUSH2 0x2130 JUMP JUMPDEST PUSH1 0x60 DUP8 ADD MSTORE PUSH1 0x0 PUSH2 0xB8A DUP8 DUP8 DUP8 PUSH2 0x213C JUMP JUMPDEST SWAP1 POP PUSH2 0xB96 DUP2 DUP4 PUSH2 0x2180 JUMP JUMPDEST SWAP4 POP POP POP POP PUSH2 0x63C JUMP JUMPDEST PUSH2 0xBAA DUP6 DUP4 PUSH2 0x2130 JUMP JUMPDEST SWAP5 POP PUSH2 0xBB6 DUP5 DUP3 PUSH2 0x2130 JUMP JUMPDEST SWAP4 POP PUSH2 0xBC6 DUP7 PUSH1 0x60 ADD MLOAD DUP3 PUSH2 0x2130 JUMP JUMPDEST PUSH1 0x60 DUP8 ADD MSTORE PUSH1 0x0 PUSH2 0xBD8 DUP8 DUP8 DUP8 PUSH2 0x218C JUMP JUMPDEST SWAP1 POP PUSH2 0xBE4 DUP2 DUP5 PUSH2 0x21BB JUMP JUMPDEST SWAP1 POP PUSH2 0xB96 DUP2 PUSH2 0x21C7 JUMP JUMPDEST PUSH1 0x0 DUP1 PUSH2 0xBFC CALLER DUP6 PUSH2 0xEB1 JUMP JUMPDEST SWAP1 POP DUP1 DUP4 LT PUSH2 0xC16 JUMPI PUSH2 0xC11 CALLER DUP6 PUSH1 0x0 PUSH2 0x12E8 JUMP JUMPDEST PUSH2 0xC23 JUMP JUMPDEST PUSH2 0xC23 CALLER DUP6 DUP6 DUP5 SUB PUSH2 0x12E8 JUMP JUMPDEST POP PUSH1 0x1 SWAP4 SWAP3 POP POP POP JUMP JUMPDEST PUSH1 0x0 PUSH2 0x580 CALLER DUP5 DUP5 PUSH2 0x146F JUMP JUMPDEST PUSH1 0x0 PUSH2 0x739 PUSH2 0x21F0 JUMP JUMPDEST PUSH2 0xC52 DUP5 TIMESTAMP GT ISZERO PUSH1 0xD1 PUSH2 0x1461 JUMP JUMPDEST PUSH1 0x1 PUSH1 0x1 PUSH1 0xA0 SHL SUB DUP8 AND PUSH1 0x0 SWAP1 DUP2 MSTORE PUSH1 0x6 PUSH1 0x20 SWAP1 DUP2 MSTORE PUSH1 0x40 DUP1 DUP4 KECCAK256 SLOAD SWAP1 MLOAD SWAP1 SWAP3 SWAP2 PUSH2 0xCA9 SWAP2 PUSH32 0x0 SWAP2 DUP13 SWAP2 DUP13 SWAP2 DUP13 SWAP2 DUP9 SWAP2 DUP14 SWAP2 ADD PUSH2 0x4341 JUMP JUMPDEST PUSH1 0x40 MLOAD PUSH1 0x20 DUP2 DUP4 SUB SUB DUP2 MSTORE SWAP1 PUSH1 0x40 MSTORE DUP1 MLOAD SWAP1 PUSH1 0x20 ADD KECCAK256 SWAP1 POP PUSH1 0x0 PUSH2 0xCCC DUP3 PUSH2 0x226A JUMP JUMPDEST SWAP1 POP PUSH1 0x0 PUSH1 0x1 DUP3 DUP9 DUP9 DUP9 PUSH1 0x40 MLOAD PUSH1 0x0 DUP2 MSTORE PUSH1 0x20 ADD PUSH1 0x40 MSTORE PUSH1 0x40 MLOAD PUSH2 0xCF3 SWAP5 SWAP4 SWAP3 SWAP2 SWAP1 PUSH2 0x43D1 JUMP JUMPDEST PUSH1 0x20 PUSH1 0x40 MLOAD PUSH1 0x20 DUP2 SUB SWAP1 DUP1 DUP5 SUB SWAP1 DUP6 GAS STATICCALL ISZERO DUP1 ISZERO PUSH2 0xD15 JUMPI RETURNDATASIZE PUSH1 0x0 DUP1 RETURNDATACOPY RETURNDATASIZE PUSH1 0x0 REVERT JUMPDEST POP POP PUSH1 0x40 MLOAD PUSH1 0x1F NOT ADD MLOAD SWAP2 POP PUSH2 0xD57 SWAP1 POP PUSH1 0x1 PUSH1 0x1 PUSH1 0xA0 SHL SUB DUP3 AND ISZERO DUP1 ISZERO SWAP1 PUSH2 0xD4F JUMPI POP DUP12 PUSH1 0x1 PUSH1 0x1 PUSH1 0xA0 SHL SUB AND DUP3 PUSH1 0x1 PUSH1 0x1 PUSH1 0xA0 SHL SUB AND EQ JUMPDEST PUSH2 0x1F8 PUSH2 0x1461 JUMP JUMPDEST PUSH1 0x1 PUSH1 0x1 PUSH1 0xA0 SHL SUB DUP12 AND PUSH1 0x0 SWAP1 DUP2 MSTORE PUSH1 0x6 PUSH1 0x20 MSTORE PUSH1 0x40 SWAP1 KECCAK256 PUSH1 0x1 DUP6 ADD SWAP1 SSTORE PUSH2 0xD80 DUP12 DUP12 DUP12 PUSH2 0x12E8 JUMP JUMPDEST POP POP POP POP POP POP POP POP POP POP POP JUMP JUMPDEST PUSH1 0x60 DUP1 DUP9 PUSH2 0xD9C PUSH2 0x938 PUSH2 0xA83 JUMP JUMPDEST PUSH2 0xDA7 PUSH2 0x95E PUSH2 0x757 JUMP JUMPDEST PUSH1 0x60 PUSH2 0xDB1 PUSH2 0xF91 JUMP JUMPDEST SWAP1 POP PUSH2 0xDBB PUSH2 0x59E JUMP JUMPDEST PUSH2 0xE61 JUMPI PUSH1 0x0 PUSH1 0x60 PUSH2 0xDD0 DUP14 DUP14 DUP14 DUP7 DUP12 PUSH2 0x2286 JUMP JUMPDEST SWAP2 POP SWAP2 POP PUSH2 0xDE5 PUSH3 0xF4240 DUP4 LT ISZERO PUSH1 0xCC PUSH2 0x1461 JUMP JUMPDEST PUSH2 0xDF3 PUSH1 0x0 PUSH3 0xF4240 PUSH2 0x2315 JUMP JUMPDEST PUSH2 0xE02 DUP12 PUSH3 0xF4240 DUP5 SUB PUSH2 0x2315 JUMP JUMPDEST PUSH2 0xE0C DUP2 DUP5 PUSH2 0x1D96 JUMP JUMPDEST DUP1 PUSH2 0xE15 PUSH2 0xF50 JUMP JUMPDEST PUSH1 0x1 PUSH1 0x1 PUSH1 0x40 SHL SUB DUP2 GT DUP1 ISZERO PUSH2 0xE2A JUMPI PUSH1 0x0 DUP1 REVERT JUMPDEST POP PUSH1 0x40 MLOAD SWAP1 DUP1 DUP3 MSTORE DUP1 PUSH1 0x20 MUL PUSH1 0x20 ADD DUP3 ADD PUSH1 0x40 MSTORE DUP1 ISZERO PUSH2 0xE54 JUMPI DUP2 PUSH1 0x20 ADD PUSH1 0x20 DUP3 MUL DUP1 CALLDATASIZE DUP4 CALLDATACOPY ADD SWAP1 POP JUMPDEST POP SWAP6 POP SWAP6 POP POP POP POP PUSH2 0x9BF JUMP JUMPDEST PUSH2 0xE6B DUP9 DUP3 PUSH2 0x1AE5 JUMP JUMPDEST PUSH1 0x0 PUSH1 0x60 DUP1 PUSH2 0xE80 DUP15 DUP15 DUP15 DUP15 DUP15 DUP15 DUP11 DUP16 PUSH2 0x1D3D JUMP JUMPDEST SWAP3 POP SWAP3 POP SWAP3 POP PUSH2 0xE90 DUP13 DUP5 PUSH2 0x2315 JUMP JUMPDEST PUSH2 0xE9A DUP3 DUP6 PUSH2 0x1D96 JUMP JUMPDEST PUSH2 0xEA4 DUP2 DUP6 PUSH2 0x1961 JUMP JUMPDEST SWAP1 SWAP6 POP SWAP4 POP PUSH2 0x9BF SWAP2 POP POP JUMP JUMPDEST PUSH1 0x1 PUSH1 0x1 PUSH1 0xA0 SHL SUB SWAP2 DUP3 AND PUSH1 0x0 SWAP1 DUP2 MSTORE PUSH1 0x1 PUSH1 0x20 SWAP1 DUP2 MSTORE PUSH1 0x40 DUP1 DUP4 KECCAK256 SWAP4 SWAP1 SWAP5 AND DUP3 MSTORE SWAP2 SWAP1 SWAP2 MSTORE KECCAK256 SLOAD SWAP1 JUMP JUMPDEST PUSH2 0xEE4 PUSH2 0x1350 JUMP JUMPDEST PUSH1 0x0 DUP1 PUSH2 0xEEF PUSH2 0x154F JUMP JUMPDEST SWAP2 POP SWAP2 POP PUSH2 0xEFF DUP2 PUSH2 0x140 PUSH2 0x1461 JUMP JUMPDEST PUSH2 0x7D0 DUP3 PUSH2 0x231F JUMP JUMPDEST DUP1 PUSH2 0x7D0 DUP2 PUSH2 0x235A JUMP JUMPDEST PUSH1 0x0 DUP3 DUP3 MUL PUSH2 0x63C DUP5 ISZERO DUP1 PUSH2 0xF2F JUMPI POP DUP4 DUP6 DUP4 DUP2 PUSH2 0xF2C JUMPI INVALID JUMPDEST DIV EQ JUMPDEST PUSH1 0x3 PUSH2 0x1461 JUMP JUMPDEST PUSH1 0x0 PUSH2 0xF46 DUP4 DUP4 GT ISZERO PUSH1 0x1 PUSH2 0x1461 JUMP JUMPDEST POP SWAP1 SUB SWAP1 JUMP JUMPDEST SHL SWAP1 JUMP JUMPDEST PUSH32 0x0 SWAP1 JUMP JUMPDEST PUSH2 0xF8C DUP2 DUP5 LT DUP1 ISZERO PUSH2 0xF85 JUMPI POP DUP2 DUP4 LT JUMPDEST PUSH1 0x64 PUSH2 0x1461 JUMP JUMPDEST POP POP POP JUMP JUMPDEST PUSH1 0x60 PUSH1 0x0 PUSH2 0xF9D PUSH2 0xF50 JUMP JUMPDEST SWAP1 POP PUSH1 0x60 DUP2 PUSH1 0x1 PUSH1 0x1 PUSH1 0x40 SHL SUB DUP2 GT DUP1 ISZERO PUSH2 0xFB7 JUMPI PUSH1 0x0 DUP1 REVERT JUMPDEST POP PUSH1 0x40 MLOAD SWAP1 DUP1 DUP3 MSTORE DUP1 PUSH1 0x20 MUL PUSH1 0x20 ADD DUP3 ADD PUSH1 0x40 MSTORE DUP1 ISZERO PUSH2 0xFE1 JUMPI DUP2 PUSH1 0x20 ADD PUSH1 0x20 DUP3 MUL DUP1 CALLDATASIZE DUP4 CALLDATACOPY ADD SWAP1 POP JUMPDEST POP SWAP1 POP DUP2 ISZERO PUSH2 0x1029 JUMPI PUSH32 0x0 DUP2 PUSH1 0x0 DUP2 MLOAD DUP2 LT PUSH2 0x1018 JUMPI INVALID JUMPDEST PUSH1 0x20 MUL PUSH1 0x20 ADD ADD DUP2 DUP2 MSTORE POP POP PUSH2 0x1032 JUMP JUMPDEST SWAP2 POP PUSH2 0x570 SWAP1 POP JUMP JUMPDEST PUSH1 0x1 DUP3 GT ISZERO PUSH2 0x1029 JUMPI PUSH32 0x0 DUP2 PUSH1 0x1 DUP2 MLOAD DUP2 LT PUSH2 0x1069 JUMPI INVALID JUMPDEST PUSH1 0x20 MUL PUSH1 0x20 ADD ADD DUP2 DUP2 MSTORE POP POP PUSH1 0x2 DUP3 GT ISZERO PUSH2 0x1029 JUMPI PUSH32 0x0 DUP2 PUSH1 0x2 DUP2 MLOAD DUP2 LT PUSH2 0x10AC JUMPI INVALID JUMPDEST PUSH1 0x20 MUL PUSH1 0x20 ADD ADD DUP2 DUP2 MSTORE POP POP PUSH1 0x3 DUP3 GT ISZERO PUSH2 0x1029 JUMPI PUSH32 0x0 DUP2 PUSH1 0x3 DUP2 MLOAD DUP2 LT PUSH2 0x10EF JUMPI INVALID JUMPDEST PUSH1 0x20 MUL PUSH1 0x20 ADD ADD DUP2 DUP2 MSTORE POP POP PUSH1 0x4 DUP3 GT ISZERO PUSH2 0x1029 JUMPI PUSH32 0x0 DUP2 PUSH1 0x4 DUP2 MLOAD DUP2 LT PUSH2 0x1132 JUMPI INVALID JUMPDEST PUSH1 0x20 MUL PUSH1 0x20 ADD ADD DUP2 DUP2 MSTORE POP POP PUSH1 0x5 DUP3 GT ISZERO PUSH2 0x1029 JUMPI PUSH32 0x0 DUP2 PUSH1 0x5 DUP2 MLOAD DUP2 LT PUSH2 0x1175 JUMPI INVALID JUMPDEST PUSH1 0x20 MUL PUSH1 0x20 ADD ADD DUP2 DUP2 MSTORE POP POP PUSH1 0x6 DUP3 GT ISZERO PUSH2 0x1029 JUMPI PUSH32 0x0 DUP2 PUSH1 0x6 DUP2 MLOAD DUP2 LT PUSH2 0x11B8 JUMPI INVALID JUMPDEST PUSH1 0x20 MUL PUSH1 0x20 ADD ADD DUP2 DUP2 MSTORE POP POP PUSH1 0x7 DUP3 GT ISZERO PUSH2 0x1029 JUMPI PUSH32 0x0 DUP2 PUSH1 0x7 DUP2 MLOAD DUP2 LT PUSH2 0x11FB JUMPI INVALID JUMPDEST PUSH1 0x20 MUL PUSH1 0x20 ADD ADD DUP2 DUP2 MSTORE POP POP SWAP2 POP POP SWAP1 JUMP JUMPDEST PUSH1 0x0 PUSH2 0x1219 DUP6 DUP4 PUSH2 0x1AE5 JUMP JUMPDEST PUSH2 0x123A DUP7 PUSH1 0x60 ADD MLOAD DUP4 DUP6 DUP2 MLOAD DUP2 LT PUSH2 0x122D JUMPI INVALID JUMPDEST PUSH1 0x20 MUL PUSH1 0x20 ADD ADD MLOAD PUSH2 0x2130 JUMP JUMPDEST PUSH1 0x60 DUP8 ADD MSTORE PUSH1 0x0 PUSH2 0x124D DUP8 DUP8 DUP8 DUP8 PUSH2 0x23D3 JUMP JUMPDEST SWAP1 POP PUSH2 0x126C DUP2 DUP5 DUP8 DUP2 MLOAD DUP2 LT PUSH2 0x125F JUMPI INVALID JUMPDEST PUSH1 0x20 MUL PUSH1 0x20 ADD ADD MLOAD PUSH2 0x21BB JUMP JUMPDEST SWAP1 POP PUSH2 0x1277 DUP2 PUSH2 0x21C7 JUMP JUMPDEST SWAP2 POP POP JUMPDEST SWAP6 SWAP5 POP POP POP POP POP JUMP JUMPDEST PUSH1 0x0 PUSH2 0x1293 DUP7 PUSH1 0x60 ADD MLOAD PUSH2 0x210C JUMP JUMPDEST PUSH1 0x60 DUP8 ADD MSTORE PUSH2 0x12A2 DUP6 DUP4 PUSH2 0x1AE5 JUMP JUMPDEST PUSH2 0x12B6 DUP7 PUSH1 0x60 ADD MLOAD DUP4 DUP7 DUP2 MLOAD DUP2 LT PUSH2 0x122D JUMPI INVALID JUMPDEST PUSH1 0x60 DUP8 ADD MSTORE PUSH1 0x0 PUSH2 0x12C9 DUP8 DUP8 DUP8 DUP8 PUSH2 0x23FD JUMP JUMPDEST SWAP1 POP PUSH2 0x1277 DUP2 DUP5 DUP7 DUP2 MLOAD DUP2 LT PUSH2 0x12DB JUMPI INVALID JUMPDEST PUSH1 0x20 MUL PUSH1 0x20 ADD ADD MLOAD PUSH2 0x2180 JUMP JUMPDEST PUSH1 0x1 PUSH1 0x1 PUSH1 0xA0 SHL SUB DUP1 DUP5 AND PUSH1 0x0 DUP2 DUP2 MSTORE PUSH1 0x1 PUSH1 0x20 SWAP1 DUP2 MSTORE PUSH1 0x40 DUP1 DUP4 KECCAK256 SWAP5 DUP8 AND DUP1 DUP5 MSTORE SWAP5 SWAP1 SWAP2 MSTORE SWAP1 DUP2 SWAP1 KECCAK256 DUP5 SWAP1 SSTORE MLOAD PUSH32 0x8C5BE1E5EBEC7D5BD14F71427D1E84F3DD0314C0F7B2291E5B200AC8C7C3B925 SWAP1 PUSH2 0x1343 SWAP1 DUP6 SWAP1 PUSH2 0x4319 JUMP JUMPDEST PUSH1 0x40 MLOAD DUP1 SWAP2 SUB SWAP1 LOG3 POP POP POP JUMP JUMPDEST PUSH1 0x0 PUSH2 0x1367 PUSH1 0x0 CALLDATALOAD PUSH1 0x1 PUSH1 0x1 PUSH1 0xE0 SHL SUB NOT AND PUSH2 0x9E7 JUMP JUMPDEST SWAP1 POP PUSH2 0x59B PUSH2 0x1376 DUP3 CALLER PUSH2 0x2427 JUMP JUMPDEST PUSH2 0x191 PUSH2 0x1461 JUMP JUMPDEST DUP1 ISZERO PUSH2 0x139E JUMPI PUSH2 0x1399 PUSH2 0x138F PUSH2 0x1419 JUMP JUMPDEST TIMESTAMP LT PUSH2 0x193 PUSH2 0x1461 JUMP JUMPDEST PUSH2 0x13B3 JUMP JUMPDEST PUSH2 0x13B3 PUSH2 0x13A9 PUSH2 0x143D JUMP JUMPDEST TIMESTAMP LT PUSH2 0x1A9 PUSH2 0x1461 JUMP JUMPDEST PUSH1 0x7 DUP1 SLOAD PUSH1 0xFF NOT AND DUP3 ISZERO ISZERO OR SWAP1 SSTORE PUSH1 0x40 MLOAD PUSH32 0x9E3A5E37224532DEA67B89FACE185703738A228A6E8A23DEE546960180D3BE64 SWAP1 PUSH2 0x13F1 SWAP1 DUP4 SWAP1 PUSH2 0x42F6 JUMP JUMPDEST PUSH1 0x40 MLOAD DUP1 SWAP2 SUB SWAP1 LOG1 POP JUMP JUMPDEST PUSH1 0x0 PUSH2 0x1406 PUSH2 0x143D JUMP JUMPDEST TIMESTAMP GT DUP1 PUSH2 0x739 JUMPI POP POP PUSH1 0x7 SLOAD PUSH1 0xFF AND ISZERO SWAP1 JUMP JUMPDEST PUSH32 0x0 SWAP1 JUMP JUMPDEST PUSH32 0x0 SWAP1 JUMP JUMPDEST DUP2 PUSH2 0x7D0 JUMPI PUSH2 0x7D0 DUP2 PUSH2 0x2517 JUMP JUMPDEST PUSH2 0x1486 PUSH1 0x1 PUSH1 0x1 PUSH1 0xA0 SHL SUB DUP5 AND ISZERO ISZERO PUSH2 0x198 PUSH2 0x1461 JUMP JUMPDEST PUSH2 0x149D PUSH1 0x1 PUSH1 0x1 PUSH1 0xA0 SHL SUB DUP4 AND ISZERO ISZERO PUSH2 0x199 PUSH2 0x1461 JUMP JUMPDEST PUSH2 0x14A8 DUP4 DUP4 DUP4 PUSH2 0xF8C JUMP JUMPDEST PUSH1 0x1 PUSH1 0x1 PUSH1 0xA0 SHL SUB DUP4 AND PUSH1 0x0 SWAP1 DUP2 MSTORE PUSH1 0x20 DUP2 SWAP1 MSTORE PUSH1 0x40 SWAP1 KECCAK256 SLOAD PUSH2 0x14CE SWAP1 DUP3 PUSH2 0x1A0 PUSH2 0x256A JUMP JUMPDEST PUSH1 0x1 PUSH1 0x1 PUSH1 0xA0 SHL SUB DUP1 DUP6 AND PUSH1 0x0 SWAP1 DUP2 MSTORE PUSH1 0x20 DUP2 SWAP1 MSTORE PUSH1 0x40 DUP1 DUP3 KECCAK256 SWAP4 SWAP1 SWAP4 SSTORE SWAP1 DUP5 AND DUP2 MSTORE KECCAK256 SLOAD PUSH2 0x14FD SWAP1 DUP3 PUSH2 0x17A0 JUMP JUMPDEST PUSH1 0x1 PUSH1 0x1 PUSH1 0xA0 SHL SUB DUP1 DUP5 AND PUSH1 0x0 DUP2 DUP2 MSTORE PUSH1 0x20 DUP2 SWAP1 MSTORE PUSH1 0x40 SWAP1 DUP2 SWAP1 KECCAK256 SWAP4 SWAP1 SWAP4 SSTORE SWAP2 MLOAD SWAP1 DUP6 AND SWAP1 PUSH32 0xDDF252AD1BE2C89B69C2B068FC378DAA952BA7F163C4A11628F55A4DF523B3EF SWAP1 PUSH2 0x1343 SWAP1 DUP6 SWAP1 PUSH2 0x4319 JUMP JUMPDEST PUSH1 0x0 DUP1 PUSH1 0x0 DUP1 PUSH1 0x0 DUP1 PUSH2 0x1560 PUSH2 0x2580 JUMP JUMPDEST SWAP4 POP SWAP4 POP SWAP4 POP SWAP4 POP DUP1 TIMESTAMP LT ISZERO PUSH2 0x15B3 JUMPI PUSH1 0x1 SWAP5 POP DUP4 DUP4 GT ISZERO PUSH2 0x1597 JUMPI DUP2 DUP2 SUB DUP3 TIMESTAMP SUB DUP6 DUP6 SUB MUL DUP2 PUSH2 0x158D JUMPI INVALID JUMPDEST DIV DUP5 ADD SWAP6 POP PUSH2 0x15AE JUMP JUMPDEST DUP2 DUP2 SUB DUP3 TIMESTAMP SUB DUP5 DUP7 SUB MUL DUP2 PUSH2 0x15A8 JUMPI INVALID JUMPDEST DIV DUP5 SUB SWAP6 POP JUMPDEST PUSH2 0x15BB JUMP JUMPDEST PUSH1 0x0 SWAP5 POP DUP3 SWAP6 POP JUMPDEST POP POP POP POP SWAP1 SWAP2 JUMP JUMPDEST PUSH1 0x0 PUSH2 0x15D2 DUP3 ISZERO ISZERO PUSH1 0x4 PUSH2 0x1461 JUMP JUMPDEST DUP3 PUSH2 0x15DF JUMPI POP PUSH1 0x0 PUSH2 0x584 JUMP JUMPDEST DUP2 PUSH1 0x1 DUP5 SUB DUP2 PUSH2 0x15EB JUMPI INVALID JUMPDEST DIV PUSH1 0x1 ADD SWAP1 POP PUSH2 0x584 JUMP JUMPDEST PUSH2 0x160A DUP2 PUSH1 0x1 PUSH1 0x1 PUSH1 0x40 SHL SUB AND PUSH1 0xC0 PUSH2 0xF4C JUMP JUMPDEST PUSH2 0x161E DUP4 PUSH1 0x1 PUSH1 0x1 PUSH1 0x40 SHL SUB AND PUSH1 0x80 PUSH2 0xF4C JUMP JUMPDEST PUSH2 0x1632 DUP6 PUSH1 0x1 PUSH1 0x1 PUSH1 0x40 SHL SUB AND PUSH1 0x40 PUSH2 0xF4C JUMP JUMPDEST PUSH2 0x1646 DUP8 PUSH1 0x1 PUSH1 0x1 PUSH1 0x40 SHL SUB AND PUSH1 0x0 PUSH2 0xF4C JUMP JUMPDEST OR OR OR PUSH1 0x9 SSTORE PUSH1 0x40 MLOAD PUSH32 0x1835882EE7A34AC194F717A35E09BB1D24C82A3B9D854AB6C9749525B714CDF2 SWAP1 PUSH2 0x1682 SWAP1 DUP7 SWAP1 DUP7 SWAP1 DUP7 SWAP1 DUP7 SWAP1 PUSH2 0x4431 JUMP JUMPDEST PUSH1 0x40 MLOAD DUP1 SWAP2 SUB SWAP1 LOG1 POP POP POP POP JUMP JUMPDEST PUSH1 0x0 PUSH32 0x0 PUSH32 0x0 PUSH32 0x0 PUSH2 0x16FD PUSH2 0x25D7 JUMP JUMPDEST ADDRESS PUSH1 0x40 MLOAD PUSH1 0x20 ADD PUSH2 0x1712 SWAP6 SWAP5 SWAP4 SWAP3 SWAP2 SWAP1 PUSH2 0x4375 JUMP JUMPDEST PUSH1 0x40 MLOAD PUSH1 0x20 DUP2 DUP4 SUB SUB DUP2 MSTORE SWAP1 PUSH1 0x40 MSTORE DUP1 MLOAD SWAP1 PUSH1 0x20 ADD KECCAK256 SWAP1 POP SWAP1 JUMP JUMPDEST PUSH2 0x1740 PUSH2 0x1738 PUSH2 0x13FC JUMP JUMPDEST PUSH2 0x192 PUSH2 0x1461 JUMP JUMPDEST JUMP JUMPDEST PUSH2 0x1755 PUSH5 0xE8D4A51000 DUP3 LT ISZERO PUSH1 0xCB PUSH2 0x1461 JUMP JUMPDEST PUSH2 0x176B PUSH8 0x16345785D8A0000 DUP3 GT ISZERO PUSH1 0xCA PUSH2 0x1461 JUMP JUMPDEST PUSH1 0x8 DUP2 SWAP1 SSTORE PUSH1 0x40 MLOAD PUSH32 0xA9BA3FFE0B6C366B81232CAAB38605A0699AD5398D6CCE76F91EE809E322DAFC SWAP1 PUSH2 0x13F1 SWAP1 DUP4 SWAP1 PUSH2 0x4319 JUMP JUMPDEST PUSH1 0x0 DUP3 DUP3 ADD PUSH2 0x63C DUP5 DUP3 LT ISZERO DUP4 PUSH2 0x1461 JUMP JUMPDEST PUSH1 0x0 PUSH2 0x17BC PUSH2 0x757 JUMP JUMPDEST SWAP1 POP PUSH1 0x0 PUSH2 0x17C8 PUSH2 0xA83 JUMP JUMPDEST PUSH1 0x1 PUSH1 0x1 PUSH1 0xA0 SHL SUB AND PUSH4 0xB05F8E48 DUP4 DUP7 PUSH1 0x40 MLOAD DUP4 PUSH4 0xFFFFFFFF AND PUSH1 0xE0 SHL DUP2 MSTORE PUSH1 0x4 ADD PUSH2 0x17F5 SWAP3 SWAP2 SWAP1 PUSH2 0x43BA JUMP JUMPDEST PUSH1 0x80 PUSH1 0x40 MLOAD DUP1 DUP4 SUB DUP2 DUP7 DUP1 EXTCODESIZE ISZERO DUP1 ISZERO PUSH2 0x180D JUMPI PUSH1 0x0 DUP1 REVERT JUMPDEST POP GAS STATICCALL ISZERO DUP1 ISZERO PUSH2 0x1821 JUMPI RETURNDATASIZE PUSH1 0x0 DUP1 RETURNDATACOPY RETURNDATASIZE PUSH1 0x0 REVERT JUMPDEST POP POP POP POP PUSH1 0x40 MLOAD RETURNDATASIZE PUSH1 0x1F NOT PUSH1 0x1F DUP3 ADD AND DUP3 ADD DUP1 PUSH1 0x40 MSTORE POP DUP2 ADD SWAP1 PUSH2 0x1845 SWAP2 SWAP1 PUSH2 0x41B5 JUMP JUMPDEST PUSH1 0x40 MLOAD PUSH4 0x639CDB5 PUSH1 0xE2 SHL DUP2 MSTORE SWAP1 SWAP5 POP PUSH1 0x1 PUSH1 0x1 PUSH1 0xA0 SHL SUB DUP6 AND SWAP4 POP PUSH4 0x18E736D4 SWAP3 POP PUSH2 0x1879 SWAP2 POP DUP6 SWAP1 DUP8 SWAP1 PUSH1 0x4 ADD PUSH2 0x43A1 JUMP JUMPDEST PUSH1 0x0 PUSH1 0x40 MLOAD DUP1 DUP4 SUB DUP2 PUSH1 0x0 DUP8 DUP1 EXTCODESIZE ISZERO DUP1 ISZERO PUSH2 0x1893 JUMPI PUSH1 0x0 DUP1 REVERT JUMPDEST POP GAS CALL ISZERO DUP1 ISZERO PUSH2 0x18A7 JUMPI RETURNDATASIZE PUSH1 0x0 DUP1 RETURNDATACOPY RETURNDATASIZE PUSH1 0x0 REVERT JUMPDEST POP POP POP POP POP POP POP POP JUMP JUMPDEST PUSH2 0x7D0 DUP2 DUP4 EQ PUSH1 0x67 PUSH2 0x1461 JUMP JUMPDEST PUSH1 0x0 PUSH1 0x60 DUP1 PUSH2 0x18CB PUSH2 0x13FC JUMP JUMPDEST ISZERO PUSH2 0x18EE JUMPI PUSH2 0x18DA DUP9 DUP8 PUSH2 0x25DB JUMP JUMPDEST SWAP1 POP PUSH2 0x18E9 DUP9 DUP3 PUSH2 0xF36 PUSH2 0x26C7 JUMP JUMPDEST PUSH2 0x1939 JUMP JUMPDEST PUSH2 0x18F6 PUSH2 0xF50 JUMP JUMPDEST PUSH1 0x1 PUSH1 0x1 PUSH1 0x40 SHL SUB DUP2 GT DUP1 ISZERO PUSH2 0x190B JUMPI PUSH1 0x0 DUP1 REVERT JUMPDEST POP PUSH1 0x40 MLOAD SWAP1 DUP1 DUP3 MSTORE DUP1 PUSH1 0x20 MUL PUSH1 0x20 ADD DUP3 ADD PUSH1 0x40 MSTORE DUP1 ISZERO PUSH2 0x1935 JUMPI DUP2 PUSH1 0x20 ADD PUSH1 0x20 DUP3 MUL DUP1 CALLDATASIZE DUP4 CALLDATACOPY ADD SWAP1 POP JUMPDEST POP SWAP1 POP JUMPDEST PUSH2 0x1944 DUP9 DUP7 DUP7 PUSH2 0x2732 JUMP JUMPDEST SWAP1 SWAP4 POP SWAP2 POP PUSH2 0x1953 DUP9 DUP4 PUSH2 0x279E JUMP JUMPDEST SWAP9 POP SWAP9 POP SWAP9 SWAP6 POP POP POP POP POP POP JUMP JUMPDEST PUSH1 0x0 JUMPDEST PUSH2 0x196C PUSH2 0xF50 JUMP JUMPDEST DUP2 LT ISZERO PUSH2 0xF8C JUMPI PUSH2 0x19A3 DUP4 DUP3 DUP2 MLOAD DUP2 LT PUSH2 0x1982 JUMPI INVALID JUMPDEST PUSH1 0x20 MUL PUSH1 0x20 ADD ADD MLOAD DUP4 DUP4 DUP2 MLOAD DUP2 LT PUSH2 0x1996 JUMPI INVALID JUMPDEST PUSH1 0x20 MUL PUSH1 0x20 ADD ADD MLOAD PUSH2 0x1CE2 JUMP JUMPDEST DUP4 DUP3 DUP2 MLOAD DUP2 LT PUSH2 0x19AF JUMPI INVALID JUMPDEST PUSH1 0x20 SWAP1 DUP2 MUL SWAP2 SWAP1 SWAP2 ADD ADD MSTORE PUSH1 0x1 ADD PUSH2 0x1964 JUMP JUMPDEST CALLER ADDRESS EQ PUSH2 0x1A80 JUMPI PUSH1 0x0 ADDRESS PUSH1 0x1 PUSH1 0x1 PUSH1 0xA0 SHL SUB AND PUSH1 0x0 CALLDATASIZE PUSH1 0x40 MLOAD PUSH2 0x19E6 SWAP3 SWAP2 SWAP1 PUSH2 0x4292 JUMP JUMPDEST PUSH1 0x0 PUSH1 0x40 MLOAD DUP1 DUP4 SUB DUP2 PUSH1 0x0 DUP7 GAS CALL SWAP2 POP POP RETURNDATASIZE DUP1 PUSH1 0x0 DUP2 EQ PUSH2 0x1A23 JUMPI PUSH1 0x40 MLOAD SWAP2 POP PUSH1 0x1F NOT PUSH1 0x3F RETURNDATASIZE ADD AND DUP3 ADD PUSH1 0x40 MSTORE RETURNDATASIZE DUP3 MSTORE RETURNDATASIZE PUSH1 0x0 PUSH1 0x20 DUP5 ADD RETURNDATACOPY PUSH2 0x1A28 JUMP JUMPDEST PUSH1 0x60 SWAP2 POP JUMPDEST POP POP SWAP1 POP DUP1 PUSH1 0x0 DUP2 EQ PUSH2 0x1A37 JUMPI INVALID JUMPDEST PUSH1 0x4 PUSH1 0x0 DUP1 RETURNDATACOPY PUSH1 0x0 MLOAD PUSH1 0x1 PUSH1 0x1 PUSH1 0xE0 SHL SUB NOT AND PUSH4 0x43ADBAFB PUSH1 0xE0 SHL DUP2 EQ PUSH2 0x1A62 JUMPI RETURNDATASIZE PUSH1 0x0 DUP1 RETURNDATACOPY RETURNDATASIZE PUSH1 0x0 REVERT JUMPDEST POP PUSH1 0x20 PUSH1 0x4 PUSH1 0x0 RETURNDATACOPY PUSH1 0x40 PUSH1 0x20 MSTORE PUSH1 0x24 RETURNDATASIZE SUB PUSH1 0x24 PUSH1 0x40 RETURNDATACOPY PUSH1 0x1C RETURNDATASIZE ADD PUSH1 0x0 RETURN JUMPDEST PUSH1 0x60 PUSH2 0x1A8A PUSH2 0xF91 JUMP JUMPDEST SWAP1 POP PUSH2 0x1A96 DUP8 DUP3 PUSH2 0x1AE5 JUMP JUMPDEST PUSH1 0x0 PUSH1 0x60 PUSH2 0x1AAE DUP13 DUP13 DUP13 DUP13 DUP13 DUP13 DUP10 DUP14 DUP14 PUSH4 0xFFFFFFFF AND JUMP JUMPDEST POP SWAP2 POP SWAP2 POP PUSH2 0x1AC1 DUP2 DUP5 DUP7 PUSH4 0xFFFFFFFF AND JUMP JUMPDEST DUP1 MLOAD PUSH1 0x1F NOT DUP3 ADD DUP4 SWAP1 MSTORE PUSH4 0x43ADBAFB PUSH1 0x3F NOT DUP4 ADD MSTORE PUSH1 0x20 MUL PUSH1 0x23 NOT DUP3 ADD PUSH1 0x44 DUP3 ADD DUP2 REVERT JUMPDEST PUSH1 0x0 JUMPDEST PUSH2 0x1AF0 PUSH2 0xF50 JUMP JUMPDEST DUP2 LT ISZERO PUSH2 0xF8C JUMPI PUSH2 0x1B27 DUP4 DUP3 DUP2 MLOAD DUP2 LT PUSH2 0x1B06 JUMPI INVALID JUMPDEST PUSH1 0x20 MUL PUSH1 0x20 ADD ADD MLOAD DUP4 DUP4 DUP2 MLOAD DUP2 LT PUSH2 0x1B1A JUMPI INVALID JUMPDEST PUSH1 0x20 MUL PUSH1 0x20 ADD ADD MLOAD PUSH2 0x27CD JUMP JUMPDEST DUP4 DUP3 DUP2 MLOAD DUP2 LT PUSH2 0x1B33 JUMPI INVALID JUMPDEST PUSH1 0x20 SWAP1 DUP2 MUL SWAP2 SWAP1 SWAP2 ADD ADD MSTORE PUSH1 0x1 ADD PUSH2 0x1AE8 JUMP JUMPDEST DUP2 MLOAD PUSH1 0x0 SWAP1 DUP2 SWAP1 DUP2 JUMPDEST DUP2 DUP2 LT ISZERO PUSH2 0x1B87 JUMPI PUSH2 0x1B7D DUP7 DUP3 DUP2 MLOAD DUP2 LT PUSH2 0x1B66 JUMPI INVALID JUMPDEST PUSH1 0x20 MUL PUSH1 0x20 ADD ADD MLOAD DUP5 PUSH2 0x17A0 SWAP1 SWAP2 SWAP1 PUSH4 0xFFFFFFFF AND JUMP JUMPDEST SWAP3 POP PUSH1 0x1 ADD PUSH2 0x1B4F JUMP JUMPDEST POP DUP2 PUSH2 0x1B98 JUMPI PUSH1 0x0 SWAP3 POP POP POP PUSH2 0x63C JUMP JUMPDEST PUSH1 0x0 DUP3 DUP8 DUP4 MUL DUP3 JUMPDEST PUSH1 0xFF DUP2 LT ISZERO PUSH2 0x1CCA JUMPI PUSH1 0x0 DUP6 DUP11 PUSH1 0x0 DUP2 MLOAD DUP2 LT PUSH2 0x1BB9 JUMPI INVALID JUMPDEST PUSH1 0x20 MUL PUSH1 0x20 ADD ADD MLOAD MUL SWAP1 POP PUSH1 0x0 PUSH1 0x1 SWAP1 POP JUMPDEST DUP7 DUP2 LT ISZERO PUSH2 0x1C0D JUMPI PUSH2 0x1C03 PUSH2 0x1BFC PUSH2 0x1BF6 DUP5 DUP15 DUP6 DUP2 MLOAD DUP2 LT PUSH2 0x1BE9 JUMPI INVALID JUMPDEST PUSH1 0x20 MUL PUSH1 0x20 ADD ADD MLOAD PUSH2 0xF12 JUMP JUMPDEST DUP10 PUSH2 0xF12 JUMP JUMPDEST DUP7 DUP13 PUSH2 0x27F9 JUMP JUMPDEST SWAP2 POP PUSH1 0x1 ADD PUSH2 0x1BCB JUMP JUMPDEST POP DUP4 SWAP5 POP PUSH2 0x1C80 PUSH2 0x1C4F PUSH2 0x1C36 PUSH2 0x1C2D PUSH2 0x1C27 DUP8 DUP13 PUSH2 0xF12 JUMP JUMPDEST DUP6 PUSH2 0xF12 JUMP JUMPDEST PUSH2 0x3E8 DUP14 PUSH2 0x27F9 JUMP JUMPDEST PUSH2 0x1C49 PUSH2 0x1C43 DUP11 DUP10 PUSH2 0xF12 JUMP JUMPDEST DUP9 PUSH2 0xF12 JUMP JUMPDEST SWAP1 PUSH2 0x17A0 JUMP JUMPDEST PUSH2 0x1C7A PUSH2 0x1C6D PUSH2 0x1C63 PUSH2 0x3E8 DUP9 SUB DUP7 PUSH2 0xF12 JUMP JUMPDEST PUSH2 0x3E8 DUP15 ISZERO PUSH2 0x27F9 JUMP JUMPDEST PUSH2 0x1C49 DUP11 PUSH1 0x1 ADD DUP10 PUSH2 0xF12 JUMP JUMPDEST DUP12 PUSH2 0x27F9 JUMP JUMPDEST SWAP4 POP DUP5 DUP5 GT ISZERO PUSH2 0x1CA8 JUMPI PUSH1 0x1 DUP6 DUP6 SUB GT PUSH2 0x1CA3 JUMPI DUP4 SWAP8 POP POP POP POP POP POP POP POP PUSH2 0x63C JUMP JUMPDEST PUSH2 0x1CC1 JUMP JUMPDEST PUSH1 0x1 DUP5 DUP7 SUB GT PUSH2 0x1CC1 JUMPI DUP4 SWAP8 POP POP POP POP POP POP POP POP PUSH2 0x63C JUMP JUMPDEST POP PUSH1 0x1 ADD PUSH2 0x1BA0 JUMP JUMPDEST POP PUSH2 0x1CD6 PUSH2 0x142 PUSH2 0x2517 JUMP JUMPDEST POP POP POP POP POP SWAP4 SWAP3 POP POP POP JUMP JUMPDEST PUSH1 0x0 PUSH2 0x1CF1 DUP3 ISZERO ISZERO PUSH1 0x4 PUSH2 0x1461 JUMP JUMPDEST DUP3 PUSH2 0x1CFE JUMPI POP PUSH1 0x0 PUSH2 0x584 JUMP JUMPDEST PUSH8 0xDE0B6B3A7640000 DUP4 DUP2 MUL SWAP1 PUSH2 0x1D21 SWAP1 DUP6 DUP4 DUP2 PUSH2 0x1D18 JUMPI INVALID JUMPDEST DIV EQ PUSH1 0x5 PUSH2 0x1461 JUMP JUMPDEST DUP3 DUP2 DUP2 PUSH2 0x1D2A JUMPI INVALID JUMPDEST DIV SWAP2 POP POP PUSH2 0x584 JUMP JUMPDEST PUSH2 0x7D0 DUP3 DUP3 PUSH2 0x2819 JUMP JUMPDEST PUSH1 0x0 PUSH1 0x60 DUP1 PUSH2 0x1D4A PUSH2 0x172D JUMP JUMPDEST PUSH1 0x60 PUSH2 0x1D56 DUP10 DUP9 PUSH2 0x25DB JUMP JUMPDEST SWAP1 POP PUSH2 0x1D65 DUP10 DUP3 PUSH2 0xF36 PUSH2 0x26C7 JUMP JUMPDEST PUSH1 0x0 PUSH1 0x60 PUSH2 0x1D74 DUP12 DUP10 DUP10 PUSH2 0x28D5 JUMP JUMPDEST SWAP2 POP SWAP2 POP PUSH2 0x1D82 DUP12 DUP3 PUSH2 0x292E JUMP JUMPDEST SWAP1 SWAP14 SWAP1 SWAP13 POP SWAP1 SWAP11 POP SWAP9 POP POP POP POP POP POP POP POP POP JUMP JUMPDEST PUSH1 0x0 JUMPDEST PUSH2 0x1DA1 PUSH2 0xF50 JUMP JUMPDEST DUP2 LT ISZERO PUSH2 0xF8C JUMPI PUSH2 0x1DD8 DUP4 DUP3 DUP2 MLOAD DUP2 LT PUSH2 0x1DB7 JUMPI INVALID JUMPDEST PUSH1 0x20 MUL PUSH1 0x20 ADD ADD MLOAD DUP4 DUP4 DUP2 MLOAD DUP2 LT PUSH2 0x1DCB JUMPI INVALID JUMPDEST PUSH1 0x20 MUL PUSH1 0x20 ADD ADD MLOAD PUSH2 0x293B JUMP JUMPDEST DUP4 DUP3 DUP2 MLOAD DUP2 LT PUSH2 0x1DE4 JUMPI INVALID JUMPDEST PUSH1 0x20 SWAP1 DUP2 MUL SWAP2 SWAP1 SWAP2 ADD ADD MSTORE PUSH1 0x1 ADD PUSH2 0x1D99 JUMP JUMPDEST PUSH1 0x0 PUSH32 0x0 PUSH1 0x1 PUSH1 0x1 PUSH1 0xA0 SHL SUB AND DUP3 PUSH1 0x1 PUSH1 0x1 PUSH1 0xA0 SHL SUB AND EQ ISZERO PUSH2 0x1E5A JUMPI POP PUSH32 0x0 PUSH2 0x924 JUMP JUMPDEST PUSH32 0x0 PUSH1 0x1 PUSH1 0x1 PUSH1 0xA0 SHL SUB AND DUP3 PUSH1 0x1 PUSH1 0x1 PUSH1 0xA0 SHL SUB AND EQ ISZERO PUSH2 0x1EBB JUMPI POP PUSH32 0x0 PUSH2 0x924 JUMP JUMPDEST PUSH32 0x0 PUSH1 0x1 PUSH1 0x1 PUSH1 0xA0 SHL SUB AND DUP3 PUSH1 0x1 PUSH1 0x1 PUSH1 0xA0 SHL SUB AND EQ ISZERO PUSH2 0x1F1C JUMPI POP PUSH32 0x0 PUSH2 0x924 JUMP JUMPDEST PUSH32 0x0 PUSH1 0x1 PUSH1 0x1 PUSH1 0xA0 SHL SUB AND DUP3 PUSH1 0x1 PUSH1 0x1 PUSH1 0xA0 SHL SUB AND EQ ISZERO PUSH2 0x1F7D JUMPI POP PUSH32 0x0 PUSH2 0x924 JUMP JUMPDEST PUSH32 0x0 PUSH1 0x1 PUSH1 0x1 PUSH1 0xA0 SHL SUB AND DUP3 PUSH1 0x1 PUSH1 0x1 PUSH1 0xA0 SHL SUB AND EQ ISZERO PUSH2 0x1FDE JUMPI POP PUSH32 0x0 PUSH2 0x924 JUMP JUMPDEST PUSH32 0x0 PUSH1 0x1 PUSH1 0x1 PUSH1 0xA0 SHL SUB AND DUP3 PUSH1 0x1 PUSH1 0x1 PUSH1 0xA0 SHL SUB AND EQ ISZERO PUSH2 0x203F JUMPI POP PUSH32 0x0 PUSH2 0x924 JUMP JUMPDEST PUSH32 0x0 PUSH1 0x1 PUSH1 0x1 PUSH1 0xA0 SHL SUB AND DUP3 PUSH1 0x1 PUSH1 0x1 PUSH1 0xA0 SHL SUB AND EQ ISZERO PUSH2 0x20A0 JUMPI POP PUSH32 0x0 PUSH2 0x924 JUMP JUMPDEST PUSH32 0x0 PUSH1 0x1 PUSH1 0x1 PUSH1 0xA0 SHL SUB AND DUP3 PUSH1 0x1 PUSH1 0x1 PUSH1 0xA0 SHL SUB AND EQ ISZERO PUSH2 0x2101 JUMPI POP PUSH32 0x0 PUSH2 0x924 JUMP JUMPDEST PUSH2 0x924 PUSH2 0x135 PUSH2 0x2517 JUMP JUMPDEST PUSH1 0x0 DUP1 PUSH2 0x2124 PUSH1 0x8 SLOAD DUP5 PUSH2 0x2989 SWAP1 SWAP2 SWAP1 PUSH4 0xFFFFFFFF AND JUMP JUMPDEST SWAP1 POP PUSH2 0x63C DUP4 DUP3 PUSH2 0xF36 JUMP JUMPDEST PUSH1 0x0 PUSH2 0x63C DUP4 DUP4 PUSH2 0x27CD JUMP JUMPDEST PUSH1 0x0 PUSH2 0x2153 PUSH2 0x2149 PUSH2 0xF50 JUMP JUMPDEST PUSH1 0x2 EQ PUSH1 0xD2 PUSH2 0x1461 JUMP JUMPDEST PUSH1 0x60 PUSH1 0x0 DUP1 PUSH2 0x2163 DUP8 DUP8 DUP8 PUSH2 0x29C5 JUMP JUMPDEST SWAP3 POP SWAP3 POP SWAP3 POP PUSH2 0x2175 DUP8 DUP5 DUP5 DUP5 PUSH2 0x23FD JUMP JUMPDEST SWAP8 SWAP7 POP POP POP POP POP POP POP JUMP JUMPDEST PUSH1 0x0 PUSH2 0x63C DUP4 DUP4 PUSH2 0x1CE2 JUMP JUMPDEST PUSH1 0x0 PUSH2 0x2199 PUSH2 0x2149 PUSH2 0xF50 JUMP JUMPDEST PUSH1 0x60 PUSH1 0x0 DUP1 PUSH2 0x21A9 DUP8 DUP8 DUP8 PUSH2 0x29C5 JUMP JUMPDEST SWAP3 POP SWAP3 POP SWAP3 POP PUSH2 0x2175 DUP8 DUP5 DUP5 DUP5 PUSH2 0x23D3 JUMP JUMPDEST PUSH1 0x0 PUSH2 0x63C DUP4 DUP4 PUSH2 0x293B JUMP JUMPDEST PUSH1 0x0 PUSH2 0x584 PUSH2 0x21E9 PUSH1 0x8 SLOAD PUSH8 0xDE0B6B3A7640000 PUSH2 0xF36 SWAP1 SWAP2 SWAP1 PUSH4 0xFFFFFFFF AND JUMP JUMPDEST DUP4 SWAP1 PUSH2 0x293B JUMP JUMPDEST PUSH1 0x0 PUSH2 0x21FA PUSH2 0xA83 JUMP JUMPDEST PUSH1 0x1 PUSH1 0x1 PUSH1 0xA0 SHL SUB AND PUSH4 0xAAABADC5 PUSH1 0x40 MLOAD DUP2 PUSH4 0xFFFFFFFF AND PUSH1 0xE0 SHL DUP2 MSTORE PUSH1 0x4 ADD PUSH1 0x20 PUSH1 0x40 MLOAD DUP1 DUP4 SUB DUP2 DUP7 DUP1 EXTCODESIZE ISZERO DUP1 ISZERO PUSH2 0x2232 JUMPI PUSH1 0x0 DUP1 REVERT JUMPDEST POP GAS STATICCALL ISZERO DUP1 ISZERO PUSH2 0x2246 JUMPI RETURNDATASIZE PUSH1 0x0 DUP1 RETURNDATACOPY RETURNDATASIZE PUSH1 0x0 REVERT JUMPDEST POP POP POP POP PUSH1 0x40 MLOAD RETURNDATASIZE PUSH1 0x1F NOT PUSH1 0x1F DUP3 ADD AND DUP3 ADD DUP1 PUSH1 0x40 MSTORE POP DUP2 ADD SWAP1 PUSH2 0x739 SWAP2 SWAP1 PUSH2 0x3F4F JUMP JUMPDEST PUSH1 0x0 PUSH2 0x2274 PUSH2 0x1690 JUMP JUMPDEST DUP3 PUSH1 0x40 MLOAD PUSH1 0x20 ADD PUSH2 0xA1C SWAP3 SWAP2 SWAP1 PUSH2 0x42A2 JUMP JUMPDEST PUSH1 0x0 PUSH1 0x60 PUSH2 0x2292 PUSH2 0x172D JUMP JUMPDEST PUSH1 0x0 PUSH2 0x229D DUP5 PUSH2 0x2AB2 JUMP JUMPDEST SWAP1 POP PUSH2 0x22B8 PUSH1 0x0 DUP3 PUSH1 0x2 DUP2 GT ISZERO PUSH2 0x22B0 JUMPI INVALID JUMPDEST EQ PUSH1 0xCE PUSH2 0x1461 JUMP JUMPDEST PUSH1 0x60 PUSH2 0x22C3 DUP6 PUSH2 0x2AC8 JUMP JUMPDEST SWAP1 POP PUSH2 0x22D2 DUP2 MLOAD PUSH2 0x7EB PUSH2 0xF50 JUMP JUMPDEST PUSH2 0x22DC DUP2 DUP8 PUSH2 0x1AE5 JUMP JUMPDEST PUSH1 0x0 PUSH2 0x22E6 PUSH2 0x154F JUMP JUMPDEST POP SWAP1 POP PUSH1 0x0 PUSH2 0x22F7 DUP3 DUP5 PUSH1 0x1 PUSH2 0x1B46 JUMP JUMPDEST SWAP1 POP DUP1 PUSH2 0x2304 DUP2 DUP5 PUSH2 0x2ADE JUMP JUMPDEST SWAP12 SWAP3 SWAP11 POP SWAP2 SWAP9 POP POP POP POP POP POP POP POP POP JUMP JUMPDEST PUSH2 0x7D0 DUP3 DUP3 PUSH2 0x2AE9 JUMP JUMPDEST PUSH2 0x232B DUP2 DUP3 TIMESTAMP TIMESTAMP PUSH2 0x15F6 JUMP JUMPDEST PUSH32 0xA0D01593E47E69D07E0CCD87BECE09411E07DD1ED40CA8F2E7AF2976542A0233 DUP2 PUSH1 0x40 MLOAD PUSH2 0x13F1 SWAP2 SWAP1 PUSH2 0x4319 JUMP JUMPDEST PUSH1 0x2 DUP2 MLOAD LT ISZERO PUSH2 0x2369 JUMPI PUSH2 0x59B JUMP JUMPDEST PUSH1 0x0 DUP2 PUSH1 0x0 DUP2 MLOAD DUP2 LT PUSH2 0x2378 JUMPI INVALID JUMPDEST PUSH1 0x20 MUL PUSH1 0x20 ADD ADD MLOAD SWAP1 POP PUSH1 0x0 PUSH1 0x1 SWAP1 POP JUMPDEST DUP3 MLOAD DUP2 LT ISZERO PUSH2 0xF8C JUMPI PUSH1 0x0 DUP4 DUP3 DUP2 MLOAD DUP2 LT PUSH2 0x23A0 JUMPI INVALID JUMPDEST PUSH1 0x20 MUL PUSH1 0x20 ADD ADD MLOAD SWAP1 POP PUSH2 0x23C9 DUP2 PUSH1 0x1 PUSH1 0x1 PUSH1 0xA0 SHL SUB AND DUP5 PUSH1 0x1 PUSH1 0x1 PUSH1 0xA0 SHL SUB AND LT PUSH1 0x65 PUSH2 0x1461 JUMP JUMPDEST SWAP2 POP PUSH1 0x1 ADD PUSH2 0x2389 JUMP JUMPDEST PUSH1 0x0 PUSH2 0x23DD PUSH2 0x172D JUMP JUMPDEST PUSH1 0x0 PUSH2 0x23E7 PUSH2 0x154F JUMP JUMPDEST POP SWAP1 POP PUSH1 0x0 PUSH2 0x2175 DUP3 DUP8 DUP8 DUP8 DUP12 PUSH1 0x60 ADD MLOAD PUSH2 0x2B77 JUMP JUMPDEST PUSH1 0x0 PUSH2 0x2407 PUSH2 0x172D JUMP JUMPDEST PUSH1 0x0 PUSH2 0x2411 PUSH2 0x154F JUMP JUMPDEST POP SWAP1 POP PUSH1 0x0 PUSH2 0x2175 DUP3 DUP8 DUP8 DUP8 DUP12 PUSH1 0x60 ADD MLOAD PUSH2 0x2C3B JUMP JUMPDEST PUSH1 0x0 PUSH20 0xBA1BA1BA1BA1BA1BA1BA1BA1BA1BA1BA1BA1BA1B PUSH2 0x2446 PUSH2 0xA5F JUMP JUMPDEST PUSH1 0x1 PUSH1 0x1 PUSH1 0xA0 SHL SUB AND EQ ISZERO DUP1 ISZERO PUSH2 0x2461 JUMPI POP PUSH2 0x2461 DUP4 PUSH2 0x2CE3 JUMP JUMPDEST ISZERO PUSH2 0x2489 JUMPI PUSH2 0x246E PUSH2 0xA5F JUMP JUMPDEST PUSH1 0x1 PUSH1 0x1 PUSH1 0xA0 SHL SUB AND CALLER PUSH1 0x1 PUSH1 0x1 PUSH1 0xA0 SHL SUB AND EQ SWAP1 POP PUSH2 0x584 JUMP JUMPDEST PUSH2 0x2491 PUSH2 0x21F0 JUMP JUMPDEST PUSH1 0x1 PUSH1 0x1 PUSH1 0xA0 SHL SUB AND PUSH4 0x9BE2A884 DUP5 DUP5 ADDRESS PUSH1 0x40 MLOAD DUP5 PUSH4 0xFFFFFFFF AND PUSH1 0xE0 SHL DUP2 MSTORE PUSH1 0x4 ADD PUSH2 0x24C0 SWAP4 SWAP3 SWAP2 SWAP1 PUSH2 0x4322 JUMP JUMPDEST PUSH1 0x20 PUSH1 0x40 MLOAD DUP1 DUP4 SUB DUP2 DUP7 DUP1 EXTCODESIZE ISZERO DUP1 ISZERO PUSH2 0x24D8 JUMPI PUSH1 0x0 DUP1 REVERT JUMPDEST POP GAS STATICCALL ISZERO DUP1 ISZERO PUSH2 0x24EC JUMPI RETURNDATASIZE PUSH1 0x0 DUP1 RETURNDATACOPY RETURNDATASIZE PUSH1 0x0 REVERT JUMPDEST POP POP POP POP PUSH1 0x40 MLOAD RETURNDATASIZE PUSH1 0x1F NOT PUSH1 0x1F DUP3 ADD AND DUP3 ADD DUP1 PUSH1 0x40 MSTORE POP DUP2 ADD SWAP1 PUSH2 0x2510 SWAP2 SWAP1 PUSH2 0x3E69 JUMP JUMPDEST SWAP1 POP PUSH2 0x584 JUMP JUMPDEST PUSH3 0x461BCD PUSH1 0xE5 SHL PUSH1 0x0 SWAP1 DUP2 MSTORE PUSH1 0x20 PUSH1 0x4 MSTORE PUSH1 0x7 PUSH1 0x24 MSTORE PUSH7 0x42414C23000030 PUSH1 0xA DUP1 DUP5 DIV DUP2 DUP2 MOD PUSH1 0x30 SWAP1 DUP2 ADD PUSH1 0x8 SHL SWAP6 DUP4 SWAP1 MOD SWAP6 SWAP1 SWAP6 ADD SWAP1 DUP3 SWAP1 DIV SWAP2 DUP3 MOD SWAP1 SWAP5 ADD PUSH1 0x10 SHL SWAP4 SWAP1 SWAP4 ADD ADD PUSH1 0xC8 SHL PUSH1 0x44 MSTORE PUSH1 0x64 SWAP1 REVERT JUMPDEST PUSH1 0x0 PUSH2 0x2579 DUP5 DUP5 GT ISZERO DUP4 PUSH2 0x1461 JUMP JUMPDEST POP POP SWAP1 SUB SWAP1 JUMP JUMPDEST PUSH1 0x0 DUP1 PUSH1 0x0 DUP1 PUSH2 0x259C PUSH1 0x0 PUSH1 0x9 SLOAD PUSH2 0x2D1F SWAP1 SWAP2 SWAP1 PUSH4 0xFFFFFFFF AND JUMP JUMPDEST PUSH1 0x9 SLOAD SWAP1 SWAP5 POP PUSH2 0x25AD SWAP1 PUSH1 0x40 PUSH2 0x2D1F JUMP JUMPDEST PUSH1 0x9 SLOAD SWAP1 SWAP4 POP PUSH2 0x25BE SWAP1 PUSH1 0x80 PUSH2 0x2D1F JUMP JUMPDEST PUSH1 0x9 SLOAD SWAP1 SWAP3 POP PUSH2 0x25CF SWAP1 PUSH1 0xC0 PUSH2 0x2D1F JUMP JUMPDEST SWAP1 POP SWAP1 SWAP2 SWAP3 SWAP4 JUMP JUMPDEST CHAINID SWAP1 JUMP JUMPDEST PUSH1 0x60 DUP1 PUSH2 0x25E6 PUSH2 0xF50 JUMP JUMPDEST PUSH1 0x1 PUSH1 0x1 PUSH1 0x40 SHL SUB DUP2 GT DUP1 ISZERO PUSH2 0x25FB JUMPI PUSH1 0x0 DUP1 REVERT JUMPDEST POP PUSH1 0x40 MLOAD SWAP1 DUP1 DUP3 MSTORE DUP1 PUSH1 0x20 MUL PUSH1 0x20 ADD DUP3 ADD PUSH1 0x40 MSTORE DUP1 ISZERO PUSH2 0x2625 JUMPI DUP2 PUSH1 0x20 ADD PUSH1 0x20 DUP3 MUL DUP1 CALLDATASIZE DUP4 CALLDATACOPY ADD SWAP1 POP JUMPDEST POP SWAP1 POP DUP3 PUSH2 0x2634 JUMPI SWAP1 POP PUSH2 0x584 JUMP JUMPDEST PUSH1 0x0 DUP1 DUP6 PUSH1 0x0 DUP2 MLOAD DUP2 LT PUSH2 0x2644 JUMPI INVALID JUMPDEST PUSH1 0x20 MUL PUSH1 0x20 ADD ADD MLOAD SWAP1 POP PUSH1 0x0 PUSH1 0x1 SWAP1 POP JUMPDEST PUSH2 0x265D PUSH2 0xF50 JUMP JUMPDEST DUP2 LT ISZERO PUSH2 0x2694 JUMPI PUSH1 0x0 DUP8 DUP3 DUP2 MLOAD DUP2 LT PUSH2 0x2672 JUMPI INVALID JUMPDEST PUSH1 0x20 MUL PUSH1 0x20 ADD ADD MLOAD SWAP1 POP DUP3 DUP2 GT ISZERO PUSH2 0x268B JUMPI DUP2 SWAP4 POP DUP1 SWAP3 POP JUMPDEST POP PUSH1 0x1 ADD PUSH2 0x2655 JUMP JUMPDEST POP PUSH2 0x26A6 PUSH1 0xB SLOAD DUP8 PUSH1 0xA SLOAD DUP6 DUP10 PUSH2 0x2D2C JUMP JUMPDEST DUP4 DUP4 DUP2 MLOAD DUP2 LT PUSH2 0x26B2 JUMPI INVALID JUMPDEST PUSH1 0x20 SWAP1 DUP2 MUL SWAP2 SWAP1 SWAP2 ADD ADD MSTORE POP SWAP1 SWAP5 SWAP4 POP POP POP POP JUMP JUMPDEST PUSH1 0x0 JUMPDEST PUSH2 0x26D2 PUSH2 0xF50 JUMP JUMPDEST DUP2 LT ISZERO PUSH2 0x272C JUMPI PUSH2 0x270D DUP5 DUP3 DUP2 MLOAD DUP2 LT PUSH2 0x26E8 JUMPI INVALID JUMPDEST PUSH1 0x20 MUL PUSH1 0x20 ADD ADD MLOAD DUP5 DUP4 DUP2 MLOAD DUP2 LT PUSH2 0x26FC JUMPI INVALID JUMPDEST PUSH1 0x20 MUL PUSH1 0x20 ADD ADD MLOAD DUP5 PUSH4 0xFFFFFFFF AND JUMP JUMPDEST DUP5 DUP3 DUP2 MLOAD DUP2 LT PUSH2 0x2719 JUMPI INVALID JUMPDEST PUSH1 0x20 SWAP1 DUP2 MUL SWAP2 SWAP1 SWAP2 ADD ADD MSTORE PUSH1 0x1 ADD PUSH2 0x26CA JUMP JUMPDEST POP POP POP POP JUMP JUMPDEST PUSH1 0x0 PUSH1 0x60 PUSH1 0x0 PUSH2 0x2741 DUP5 PUSH2 0x2AB2 JUMP JUMPDEST SWAP1 POP PUSH1 0x0 DUP2 PUSH1 0x2 DUP2 GT ISZERO PUSH2 0x2751 JUMPI INVALID JUMPDEST EQ ISZERO PUSH2 0x276B JUMPI PUSH2 0x2761 DUP7 DUP6 PUSH2 0x2DA0 JUMP JUMPDEST SWAP3 POP SWAP3 POP POP PUSH2 0x2796 JUMP JUMPDEST PUSH1 0x1 DUP2 PUSH1 0x2 DUP2 GT ISZERO PUSH2 0x2779 JUMPI INVALID JUMPDEST EQ ISZERO PUSH2 0x2789 JUMPI PUSH2 0x2761 DUP7 DUP6 PUSH2 0x2E65 JUMP JUMPDEST PUSH2 0x2761 DUP7 DUP7 DUP7 PUSH2 0x2E97 JUMP JUMPDEST POP JUMPDEST SWAP4 POP SWAP4 SWAP2 POP POP JUMP JUMPDEST PUSH2 0x27AB DUP3 DUP3 PUSH2 0xF36 PUSH2 0x26C7 JUMP JUMPDEST PUSH1 0x0 PUSH2 0x27B5 PUSH2 0x154F JUMP JUMPDEST POP SWAP1 POP PUSH2 0xF8C PUSH2 0x27C7 DUP3 DUP6 PUSH1 0x1 PUSH2 0x1B46 JUMP JUMPDEST DUP3 PUSH2 0x2ADE JUMP JUMPDEST PUSH1 0x0 DUP3 DUP3 MUL PUSH2 0x27E7 DUP5 ISZERO DUP1 PUSH2 0xF2F JUMPI POP DUP4 DUP6 DUP4 DUP2 PUSH2 0xF2C JUMPI INVALID JUMPDEST PUSH8 0xDE0B6B3A7640000 SWAP1 DIV SWAP4 SWAP3 POP POP POP JUMP JUMPDEST PUSH1 0x0 DUP2 PUSH2 0x280F JUMPI PUSH2 0x280A DUP5 DUP5 PUSH2 0x2F0E JUMP JUMPDEST PUSH2 0x4D4 JUMP JUMPDEST PUSH2 0x4D4 DUP5 DUP5 PUSH2 0x15C3 JUMP JUMPDEST PUSH2 0x2830 PUSH1 0x1 PUSH1 0x1 PUSH1 0xA0 SHL SUB DUP4 AND ISZERO ISZERO PUSH2 0x19B PUSH2 0x1461 JUMP JUMPDEST PUSH2 0x283C DUP3 PUSH1 0x0 DUP4 PUSH2 0xF8C JUMP JUMPDEST PUSH1 0x1 PUSH1 0x1 PUSH1 0xA0 SHL SUB DUP3 AND PUSH1 0x0 SWAP1 DUP2 MSTORE PUSH1 0x20 DUP2 SWAP1 MSTORE PUSH1 0x40 SWAP1 KECCAK256 SLOAD PUSH2 0x2862 SWAP1 DUP3 PUSH2 0x1A1 PUSH2 0x256A JUMP JUMPDEST PUSH1 0x1 PUSH1 0x1 PUSH1 0xA0 SHL SUB DUP4 AND PUSH1 0x0 SWAP1 DUP2 MSTORE PUSH1 0x20 DUP2 SWAP1 MSTORE PUSH1 0x40 SWAP1 KECCAK256 SSTORE PUSH1 0x2 SLOAD PUSH2 0x2888 SWAP1 DUP3 PUSH2 0x2F2E JUMP JUMPDEST PUSH1 0x2 SSTORE PUSH1 0x40 MLOAD PUSH1 0x0 SWAP1 PUSH1 0x1 PUSH1 0x1 PUSH1 0xA0 SHL SUB DUP5 AND SWAP1 PUSH32 0xDDF252AD1BE2C89B69C2B068FC378DAA952BA7F163C4A11628F55A4DF523B3EF SWAP1 PUSH2 0x28C9 SWAP1 DUP6 SWAP1 PUSH2 0x4319 JUMP JUMPDEST PUSH1 0x40 MLOAD DUP1 SWAP2 SUB SWAP1 LOG3 POP POP JUMP JUMPDEST PUSH1 0x0 PUSH1 0x60 PUSH1 0x0 PUSH2 0x28E4 DUP5 PUSH2 0x2AB2 JUMP JUMPDEST SWAP1 POP PUSH1 0x1 DUP2 PUSH1 0x2 DUP2 GT ISZERO PUSH2 0x28F4 JUMPI INVALID JUMPDEST EQ ISZERO PUSH2 0x2905 JUMPI PUSH2 0x2761 DUP7 DUP7 DUP7 PUSH2 0x2F3C JUMP JUMPDEST PUSH1 0x2 DUP2 PUSH1 0x2 DUP2 GT ISZERO PUSH2 0x2913 JUMPI INVALID JUMPDEST EQ ISZERO PUSH2 0x2923 JUMPI PUSH2 0x2761 DUP7 DUP6 PUSH2 0x2FA1 JUMP JUMPDEST PUSH2 0x2794 PUSH2 0x136 PUSH2 0x2517 JUMP JUMPDEST PUSH2 0x27AB DUP3 DUP3 PUSH2 0x17A0 PUSH2 0x26C7 JUMP JUMPDEST PUSH1 0x0 PUSH2 0x294A DUP3 ISZERO ISZERO PUSH1 0x4 PUSH2 0x1461 JUMP JUMPDEST DUP3 PUSH2 0x2957 JUMPI POP PUSH1 0x0 PUSH2 0x584 JUMP JUMPDEST PUSH8 0xDE0B6B3A7640000 DUP4 DUP2 MUL SWAP1 PUSH2 0x2971 SWAP1 DUP6 DUP4 DUP2 PUSH2 0x1D18 JUMPI INVALID JUMPDEST DUP3 PUSH1 0x1 DUP3 SUB DUP2 PUSH2 0x297D JUMPI INVALID JUMPDEST DIV PUSH1 0x1 ADD SWAP2 POP POP PUSH2 0x584 JUMP JUMPDEST PUSH1 0x0 DUP3 DUP3 MUL PUSH2 0x29A3 DUP5 ISZERO DUP1 PUSH2 0xF2F JUMPI POP DUP4 DUP6 DUP4 DUP2 PUSH2 0xF2C JUMPI INVALID JUMPDEST DUP1 PUSH2 0x29B2 JUMPI PUSH1 0x0 SWAP2 POP POP PUSH2 0x584 JUMP JUMPDEST PUSH8 0xDE0B6B3A7640000 PUSH1 0x0 NOT DUP3 ADD PUSH2 0x297D JUMP JUMPDEST PUSH1 0x40 DUP1 MLOAD PUSH1 0x2 DUP1 DUP3 MSTORE PUSH1 0x60 DUP3 DUP2 ADD SWAP1 SWAP4 MSTORE PUSH1 0x0 SWAP2 DUP3 SWAP2 DUP2 PUSH1 0x20 ADD PUSH1 0x20 DUP3 MUL DUP1 CALLDATASIZE DUP4 CALLDATACOPY ADD SWAP1 POP POP SWAP3 POP DUP6 PUSH1 0x20 ADD MLOAD PUSH1 0x1 PUSH1 0x1 PUSH1 0xA0 SHL SUB AND PUSH32 0x0 PUSH1 0x1 PUSH1 0x1 PUSH1 0xA0 SHL SUB AND EQ ISZERO PUSH2 0x2A6C JUMPI PUSH1 0x0 SWAP2 POP PUSH1 0x1 SWAP1 POP DUP5 DUP4 PUSH1 0x0 DUP2 MLOAD DUP2 LT PUSH2 0x2A41 JUMPI INVALID JUMPDEST PUSH1 0x20 MUL PUSH1 0x20 ADD ADD DUP2 DUP2 MSTORE POP POP DUP4 DUP4 PUSH1 0x1 DUP2 MLOAD DUP2 LT PUSH2 0x2A5B JUMPI INVALID JUMPDEST PUSH1 0x20 MUL PUSH1 0x20 ADD ADD DUP2 DUP2 MSTORE POP POP PUSH2 0x2AA9 JUMP JUMPDEST PUSH1 0x0 SWAP1 POP PUSH1 0x1 SWAP2 POP DUP4 DUP4 PUSH1 0x0 DUP2 MLOAD DUP2 LT PUSH2 0x2A82 JUMPI INVALID JUMPDEST PUSH1 0x20 MUL PUSH1 0x20 ADD ADD DUP2 DUP2 MSTORE POP POP DUP5 DUP4 PUSH1 0x1 DUP2 MLOAD DUP2 LT PUSH2 0x2A9C JUMPI INVALID JUMPDEST PUSH1 0x20 MUL PUSH1 0x20 ADD ADD DUP2 DUP2 MSTORE POP POP JUMPDEST SWAP4 POP SWAP4 POP SWAP4 SWAP1 POP JUMP JUMPDEST PUSH1 0x0 DUP2 DUP1 PUSH1 0x20 ADD SWAP1 MLOAD DUP2 ADD SWAP1 PUSH2 0x584 SWAP2 SWAP1 PUSH2 0x3FB8 JUMP JUMPDEST PUSH1 0x60 DUP2 DUP1 PUSH1 0x20 ADD SWAP1 MLOAD DUP2 ADD SWAP1 PUSH2 0x63C SWAP2 SWAP1 PUSH2 0x407D JUMP JUMPDEST PUSH1 0xA SWAP2 SWAP1 SWAP2 SSTORE PUSH1 0xB SSTORE JUMP JUMPDEST PUSH2 0x2AF5 PUSH1 0x0 DUP4 DUP4 PUSH2 0xF8C JUMP JUMPDEST PUSH1 0x2 SLOAD PUSH2 0x2B02 SWAP1 DUP3 PUSH2 0x17A0 JUMP JUMPDEST PUSH1 0x2 SSTORE PUSH1 0x1 PUSH1 0x1 PUSH1 0xA0 SHL SUB DUP3 AND PUSH1 0x0 SWAP1 DUP2 MSTORE PUSH1 0x20 DUP2 SWAP1 MSTORE PUSH1 0x40 SWAP1 KECCAK256 SLOAD PUSH2 0x2B28 SWAP1 DUP3 PUSH2 0x17A0 JUMP JUMPDEST PUSH1 0x1 PUSH1 0x1 PUSH1 0xA0 SHL SUB DUP4 AND PUSH1 0x0 DUP2 DUP2 MSTORE PUSH1 0x20 DUP2 SWAP1 MSTORE PUSH1 0x40 DUP1 DUP3 KECCAK256 SWAP4 SWAP1 SWAP4 SSTORE SWAP2 MLOAD SWAP1 SWAP2 SWAP1 PUSH32 0xDDF252AD1BE2C89B69C2B068FC378DAA952BA7F163C4A11628F55A4DF523B3EF SWAP1 PUSH2 0x28C9 SWAP1 DUP6 SWAP1 PUSH2 0x4319 JUMP JUMPDEST PUSH1 0x0 DUP1 PUSH2 0x2B86 DUP8 DUP8 PUSH1 0x1 PUSH2 0x1B46 JUMP JUMPDEST SWAP1 POP PUSH2 0x2BAE DUP4 DUP8 DUP7 DUP2 MLOAD DUP2 LT PUSH2 0x2B98 JUMPI INVALID JUMPDEST PUSH1 0x20 MUL PUSH1 0x20 ADD ADD MLOAD PUSH2 0xF36 SWAP1 SWAP2 SWAP1 PUSH4 0xFFFFFFFF AND JUMP JUMPDEST DUP7 DUP6 DUP2 MLOAD DUP2 LT PUSH2 0x2BBA JUMPI INVALID JUMPDEST PUSH1 0x20 MUL PUSH1 0x20 ADD ADD DUP2 DUP2 MSTORE POP POP PUSH1 0x0 PUSH2 0x2BD4 DUP9 DUP9 DUP5 DUP10 PUSH2 0x3030 JUMP JUMPDEST SWAP1 POP DUP4 DUP8 DUP7 DUP2 MLOAD DUP2 LT PUSH2 0x2BE3 JUMPI INVALID JUMPDEST PUSH1 0x20 MUL PUSH1 0x20 ADD ADD MLOAD ADD DUP8 DUP7 DUP2 MLOAD DUP2 LT PUSH2 0x2BF8 JUMPI INVALID JUMPDEST PUSH1 0x20 MUL PUSH1 0x20 ADD ADD DUP2 DUP2 MSTORE POP POP PUSH2 0x2C2F PUSH1 0x1 PUSH2 0x1C49 DUP10 DUP10 DUP2 MLOAD DUP2 LT PUSH2 0x2C18 JUMPI INVALID JUMPDEST PUSH1 0x20 MUL PUSH1 0x20 ADD ADD MLOAD DUP5 PUSH2 0xF36 SWAP1 SWAP2 SWAP1 PUSH4 0xFFFFFFFF AND JUMP JUMPDEST SWAP9 SWAP8 POP POP POP POP POP POP POP POP JUMP JUMPDEST PUSH1 0x0 DUP1 PUSH2 0x2C4A DUP8 DUP8 PUSH1 0x1 PUSH2 0x1B46 JUMP JUMPDEST SWAP1 POP PUSH2 0x2C72 DUP4 DUP8 DUP8 DUP2 MLOAD DUP2 LT PUSH2 0x2C5C JUMPI INVALID JUMPDEST PUSH1 0x20 MUL PUSH1 0x20 ADD ADD MLOAD PUSH2 0x17A0 SWAP1 SWAP2 SWAP1 PUSH4 0xFFFFFFFF AND JUMP JUMPDEST DUP7 DUP7 DUP2 MLOAD DUP2 LT PUSH2 0x2C7E JUMPI INVALID JUMPDEST PUSH1 0x20 MUL PUSH1 0x20 ADD ADD DUP2 DUP2 MSTORE POP POP PUSH1 0x0 PUSH2 0x2C98 DUP9 DUP9 DUP5 DUP9 PUSH2 0x3030 JUMP JUMPDEST SWAP1 POP DUP4 DUP8 DUP8 DUP2 MLOAD DUP2 LT PUSH2 0x2CA7 JUMPI INVALID JUMPDEST PUSH1 0x20 MUL PUSH1 0x20 ADD ADD MLOAD SUB DUP8 DUP8 DUP2 MLOAD DUP2 LT PUSH2 0x2CBC JUMPI INVALID JUMPDEST PUSH1 0x20 MUL PUSH1 0x20 ADD ADD DUP2 DUP2 MSTORE POP POP PUSH2 0x2C2F PUSH1 0x1 PUSH2 0x2CDD DUP4 DUP11 DUP10 DUP2 MLOAD DUP2 LT PUSH2 0x2B98 JUMPI INVALID JUMPDEST SWAP1 PUSH2 0xF36 JUMP JUMPDEST PUSH1 0x0 PUSH2 0x2CF5 PUSH4 0x2F1A0BC9 PUSH1 0xE0 SHL PUSH2 0x9E7 JUMP JUMPDEST DUP3 EQ DUP1 PUSH2 0x2D10 JUMPI POP PUSH2 0x2D0D PUSH4 0x7587926B PUSH1 0xE1 SHL PUSH2 0x9E7 JUMP JUMPDEST DUP3 EQ JUMPDEST DUP1 PUSH2 0x584 JUMPI POP PUSH2 0x584 DUP3 PUSH2 0x31E0 JUMP JUMPDEST SHR PUSH1 0x1 PUSH1 0x1 PUSH1 0x40 SHL SUB AND SWAP1 JUMP JUMPDEST PUSH1 0x0 DUP1 PUSH2 0x2D3B DUP8 DUP8 DUP8 DUP8 PUSH2 0x3030 JUMP JUMPDEST SWAP1 POP DUP1 DUP7 DUP6 DUP2 MLOAD DUP2 LT PUSH2 0x2D4A JUMPI INVALID JUMPDEST PUSH1 0x20 MUL PUSH1 0x20 ADD ADD MLOAD GT PUSH2 0x2D61 JUMPI PUSH1 0x0 SWAP2 POP POP PUSH2 0x127B JUMP JUMPDEST PUSH1 0x0 DUP2 DUP8 DUP7 DUP2 MLOAD DUP2 LT PUSH2 0x2D70 JUMPI INVALID JUMPDEST PUSH1 0x20 MUL PUSH1 0x20 ADD ADD MLOAD SUB SWAP1 POP PUSH2 0x2C2F PUSH8 0xDE0B6B3A7640000 PUSH2 0x2D9A DUP7 DUP5 PUSH2 0x27CD SWAP1 SWAP2 SWAP1 PUSH4 0xFFFFFFFF AND JUMP JUMPDEST SWAP1 PUSH2 0x1CE2 JUMP JUMPDEST PUSH1 0x0 PUSH1 0x60 PUSH2 0x2DAC PUSH2 0x172D JUMP JUMPDEST PUSH1 0x0 DUP1 PUSH2 0x2DB8 DUP6 PUSH2 0x3212 JUMP JUMPDEST SWAP2 POP SWAP2 POP PUSH2 0x2DD0 PUSH2 0x2DC7 PUSH2 0xF50 JUMP JUMPDEST DUP3 LT PUSH1 0x64 PUSH2 0x1461 JUMP JUMPDEST PUSH1 0x60 PUSH2 0x2DDA PUSH2 0xF50 JUMP JUMPDEST PUSH1 0x1 PUSH1 0x1 PUSH1 0x40 SHL SUB DUP2 GT DUP1 ISZERO PUSH2 0x2DEF JUMPI PUSH1 0x0 DUP1 REVERT JUMPDEST POP PUSH1 0x40 MLOAD SWAP1 DUP1 DUP3 MSTORE DUP1 PUSH1 0x20 MUL PUSH1 0x20 ADD DUP3 ADD PUSH1 0x40 MSTORE DUP1 ISZERO PUSH2 0x2E19 JUMPI DUP2 PUSH1 0x20 ADD PUSH1 0x20 DUP3 MUL DUP1 CALLDATASIZE DUP4 CALLDATACOPY ADD SWAP1 POP JUMPDEST POP SWAP1 POP PUSH1 0x0 PUSH2 0x2E26 PUSH2 0x154F JUMP JUMPDEST POP SWAP1 POP PUSH2 0x2E40 DUP2 DUP10 DUP6 DUP8 PUSH2 0x2E38 PUSH2 0x59E JUMP JUMPDEST PUSH1 0x8 SLOAD PUSH2 0x3234 JUMP JUMPDEST DUP3 DUP5 DUP2 MLOAD DUP2 LT PUSH2 0x2E4C JUMPI INVALID JUMPDEST PUSH1 0x20 SWAP1 DUP2 MUL SWAP2 SWAP1 SWAP2 ADD ADD MSTORE POP SWAP2 SWAP7 SWAP2 SWAP6 POP SWAP1 SWAP4 POP POP POP POP JUMP JUMPDEST PUSH1 0x0 PUSH1 0x60 PUSH1 0x0 PUSH2 0x2E74 DUP5 PUSH2 0x3350 JUMP JUMPDEST SWAP1 POP PUSH1 0x60 PUSH2 0x2E8A DUP7 DUP4 PUSH2 0x2E85 PUSH2 0x59E JUMP JUMPDEST PUSH2 0x3366 JUMP JUMPDEST SWAP2 SWAP7 SWAP2 SWAP6 POP SWAP1 SWAP4 POP POP POP POP JUMP JUMPDEST PUSH1 0x0 PUSH1 0x60 PUSH2 0x2EA3 PUSH2 0x172D JUMP JUMPDEST PUSH1 0x60 PUSH1 0x0 PUSH2 0x2EB0 DUP6 PUSH2 0x3417 JUMP JUMPDEST SWAP2 POP SWAP2 POP PUSH2 0x2EC1 DUP3 MLOAD PUSH2 0x7EB PUSH2 0xF50 JUMP JUMPDEST PUSH2 0x2ECB DUP3 DUP8 PUSH2 0x1AE5 JUMP JUMPDEST PUSH1 0x0 PUSH2 0x2ED5 PUSH2 0x154F JUMP JUMPDEST POP SWAP1 POP PUSH1 0x0 PUSH2 0x2EF0 DUP3 DUP11 DUP7 PUSH2 0x2EE8 PUSH2 0x59E JUMP JUMPDEST PUSH1 0x8 SLOAD PUSH2 0x342F JUMP JUMPDEST SWAP1 POP PUSH2 0x2F00 DUP4 DUP3 GT ISZERO PUSH1 0xCF PUSH2 0x1461 JUMP JUMPDEST SWAP9 SWAP3 SWAP8 POP SWAP2 SWAP6 POP POP POP POP POP POP JUMP JUMPDEST PUSH1 0x0 PUSH2 0x2F1D DUP3 ISZERO ISZERO PUSH1 0x4 PUSH2 0x1461 JUMP JUMPDEST DUP2 DUP4 DUP2 PUSH2 0x2F26 JUMPI INVALID JUMPDEST DIV SWAP4 SWAP3 POP POP POP JUMP JUMPDEST PUSH1 0x0 PUSH2 0x63C DUP4 DUP4 PUSH1 0x1 PUSH2 0x256A JUMP JUMPDEST PUSH1 0x0 PUSH1 0x60 DUP1 PUSH1 0x0 PUSH2 0x2F4C DUP6 PUSH2 0x3417 JUMP JUMPDEST SWAP2 POP SWAP2 POP PUSH2 0x2F62 PUSH2 0x2F5B PUSH2 0xF50 JUMP JUMPDEST DUP4 MLOAD PUSH2 0x18B1 JUMP JUMPDEST PUSH2 0x2F6C DUP3 DUP8 PUSH2 0x1AE5 JUMP JUMPDEST PUSH1 0x0 PUSH2 0x2F76 PUSH2 0x154F JUMP JUMPDEST POP SWAP1 POP PUSH1 0x0 PUSH2 0x2F91 DUP3 DUP11 DUP7 PUSH2 0x2F89 PUSH2 0x59E JUMP JUMPDEST PUSH1 0x8 SLOAD PUSH2 0x36C3 JUMP JUMPDEST SWAP1 POP PUSH2 0x2F00 DUP4 DUP3 LT ISZERO PUSH1 0xD0 PUSH2 0x1461 JUMP JUMPDEST PUSH1 0x0 PUSH1 0x60 PUSH1 0x0 DUP1 PUSH2 0x2FB1 DUP6 PUSH2 0x3212 JUMP JUMPDEST SWAP2 POP SWAP2 POP PUSH2 0x2FC0 PUSH2 0x2DC7 PUSH2 0xF50 JUMP JUMPDEST PUSH1 0x60 PUSH2 0x2FCA PUSH2 0xF50 JUMP JUMPDEST PUSH1 0x1 PUSH1 0x1 PUSH1 0x40 SHL SUB DUP2 GT DUP1 ISZERO PUSH2 0x2FDF JUMPI PUSH1 0x0 DUP1 REVERT JUMPDEST POP PUSH1 0x40 MLOAD SWAP1 DUP1 DUP3 MSTORE DUP1 PUSH1 0x20 MUL PUSH1 0x20 ADD DUP3 ADD PUSH1 0x40 MSTORE DUP1 ISZERO PUSH2 0x3009 JUMPI DUP2 PUSH1 0x20 ADD PUSH1 0x20 DUP3 MUL DUP1 CALLDATASIZE DUP4 CALLDATACOPY ADD SWAP1 POP JUMPDEST POP SWAP1 POP PUSH1 0x0 PUSH2 0x3016 PUSH2 0x154F JUMP JUMPDEST POP SWAP1 POP PUSH2 0x2E40 DUP2 DUP10 DUP6 DUP8 PUSH2 0x3028 PUSH2 0x59E JUMP JUMPDEST PUSH1 0x8 SLOAD PUSH2 0x3939 JUMP JUMPDEST PUSH1 0x0 DUP1 DUP5 MLOAD DUP7 MUL SWAP1 POP PUSH1 0x0 DUP6 PUSH1 0x0 DUP2 MLOAD DUP2 LT PUSH2 0x3048 JUMPI INVALID JUMPDEST PUSH1 0x20 MUL PUSH1 0x20 ADD ADD MLOAD SWAP1 POP PUSH1 0x0 DUP7 MLOAD DUP8 PUSH1 0x0 DUP2 MLOAD DUP2 LT PUSH2 0x3063 JUMPI INVALID JUMPDEST PUSH1 0x20 MUL PUSH1 0x20 ADD ADD MLOAD MUL SWAP1 POP PUSH1 0x0 PUSH1 0x1 SWAP1 POP JUMPDEST DUP8 MLOAD DUP2 LT ISZERO PUSH2 0x30BC JUMPI PUSH2 0x30A1 PUSH2 0x309B PUSH2 0x3094 DUP5 DUP12 DUP6 DUP2 MLOAD DUP2 LT PUSH2 0x1BE9 JUMPI INVALID JUMPDEST DUP11 MLOAD PUSH2 0xF12 JUMP JUMPDEST DUP9 PUSH2 0x2F0E JUMP JUMPDEST SWAP2 POP PUSH2 0x30B2 DUP9 DUP3 DUP2 MLOAD DUP2 LT PUSH2 0x1B66 JUMPI INVALID JUMPDEST SWAP3 POP PUSH1 0x1 ADD PUSH2 0x3075 JUMP JUMPDEST POP DUP7 DUP6 DUP2 MLOAD DUP2 LT PUSH2 0x30C9 JUMPI INVALID JUMPDEST PUSH1 0x20 MUL PUSH1 0x20 ADD ADD MLOAD DUP3 SUB SWAP2 POP PUSH1 0x0 PUSH2 0x30E1 DUP8 DUP9 PUSH2 0xF12 JUMP JUMPDEST SWAP1 POP PUSH1 0x0 PUSH2 0x310D PUSH2 0x3101 PUSH2 0x30F9 DUP5 PUSH2 0x6DB DUP10 DUP9 PUSH2 0xF12 JUMP JUMPDEST PUSH2 0x3E8 PUSH2 0xF12 JUMP JUMPDEST DUP11 DUP10 DUP2 MLOAD DUP2 LT PUSH2 0x1BE9 JUMPI INVALID JUMPDEST SWAP1 POP PUSH1 0x0 PUSH2 0x3128 PUSH2 0x3121 PUSH2 0x30F9 DUP12 DUP10 PUSH2 0x2F0E JUMP JUMPDEST DUP7 SWAP1 PUSH2 0x17A0 JUMP JUMPDEST SWAP1 POP PUSH1 0x0 DUP1 PUSH2 0x3144 PUSH2 0x313A DUP7 DUP7 PUSH2 0x17A0 JUMP JUMPDEST PUSH2 0x6DB DUP14 DUP7 PUSH2 0x17A0 JUMP JUMPDEST SWAP1 POP PUSH1 0x0 JUMPDEST PUSH1 0xFF DUP2 LT ISZERO PUSH2 0x31C4 JUMPI DUP2 SWAP3 POP PUSH2 0x3179 PUSH2 0x3166 DUP7 PUSH2 0x1C49 DUP6 DUP7 PUSH2 0xF12 JUMP JUMPDEST PUSH2 0x6DB DUP15 PUSH2 0x2CDD DUP9 PUSH2 0x1C49 DUP9 PUSH1 0x2 PUSH2 0xF12 JUMP JUMPDEST SWAP2 POP DUP3 DUP3 GT ISZERO PUSH2 0x31A2 JUMPI PUSH1 0x1 DUP4 DUP4 SUB GT PUSH2 0x319D JUMPI POP SWAP8 POP PUSH2 0x4D4 SWAP7 POP POP POP POP POP POP POP JUMP JUMPDEST PUSH2 0x31BC JUMP JUMPDEST PUSH1 0x1 DUP3 DUP5 SUB GT PUSH2 0x31BC JUMPI POP SWAP8 POP PUSH2 0x4D4 SWAP7 POP POP POP POP POP POP POP JUMP JUMPDEST PUSH1 0x1 ADD PUSH2 0x3149 JUMP JUMPDEST POP PUSH2 0x31D0 PUSH2 0x142 PUSH2 0x2517 JUMP JUMPDEST POP POP POP POP POP POP POP POP SWAP5 SWAP4 POP POP POP POP JUMP JUMPDEST PUSH1 0x0 PUSH2 0x31F2 PUSH4 0x1C74C917 PUSH1 0xE1 SHL PUSH2 0x9E7 JUMP JUMPDEST DUP3 EQ DUP1 PUSH2 0x584 JUMPI POP PUSH2 0x320A PUSH4 0x50DD6ED9 PUSH1 0xE0 SHL PUSH2 0x9E7 JUMP JUMPDEST SWAP1 SWAP2 EQ SWAP2 SWAP1 POP JUMP JUMPDEST PUSH1 0x0 DUP1 DUP3 DUP1 PUSH1 0x20 ADD SWAP1 MLOAD DUP2 ADD SWAP1 PUSH2 0x3229 SWAP2 SWAP1 PUSH2 0x4047 JUMP JUMPDEST SWAP1 SWAP6 SWAP1 SWAP5 POP SWAP3 POP POP POP JUMP JUMPDEST PUSH1 0x0 DUP1 PUSH2 0x3243 DUP9 DUP9 PUSH1 0x1 PUSH2 0x1B46 JUMP JUMPDEST SWAP1 POP PUSH1 0x0 PUSH2 0x3265 DUP3 PUSH2 0x325F DUP8 PUSH2 0x3259 DUP2 DUP12 PUSH2 0xF36 JUMP JUMPDEST SWAP1 PUSH2 0x293B JUMP JUMPDEST SWAP1 PUSH2 0x2989 JUMP JUMPDEST SWAP1 POP PUSH1 0x0 PUSH2 0x3275 DUP11 DUP11 DUP5 DUP12 PUSH2 0x3030 JUMP JUMPDEST SWAP1 POP PUSH1 0x0 PUSH2 0x3289 DUP3 DUP12 DUP12 DUP2 MLOAD DUP2 LT PUSH2 0x2B98 JUMPI INVALID JUMPDEST SWAP1 POP PUSH1 0x0 DUP1 JUMPDEST DUP12 MLOAD DUP2 LT ISZERO PUSH2 0x32C8 JUMPI PUSH2 0x32BE DUP13 DUP3 DUP2 MLOAD DUP2 LT PUSH2 0x32A7 JUMPI INVALID JUMPDEST PUSH1 0x20 MUL PUSH1 0x20 ADD ADD MLOAD DUP4 PUSH2 0x17A0 SWAP1 SWAP2 SWAP1 PUSH4 0xFFFFFFFF AND JUMP JUMPDEST SWAP2 POP PUSH1 0x1 ADD PUSH2 0x328F JUMP JUMPDEST POP PUSH1 0x0 PUSH2 0x32F1 DUP3 DUP14 DUP14 DUP2 MLOAD DUP2 LT PUSH2 0x32DB JUMPI INVALID JUMPDEST PUSH1 0x20 MUL PUSH1 0x20 ADD ADD MLOAD PUSH2 0x1CE2 SWAP1 SWAP2 SWAP1 PUSH4 0xFFFFFFFF AND JUMP JUMPDEST SWAP1 POP PUSH1 0x0 PUSH2 0x32FE DUP3 PUSH2 0x3A16 JUMP JUMPDEST SWAP1 POP PUSH1 0x0 PUSH2 0x330C DUP6 DUP4 PUSH2 0x2989 JUMP JUMPDEST SWAP1 POP PUSH1 0x0 PUSH2 0x331A DUP7 DUP4 PUSH2 0xF36 JUMP JUMPDEST SWAP1 POP PUSH2 0x333B PUSH2 0x3334 DUP4 PUSH8 0xDE0B6B3A7640000 DUP15 SWAP1 SUB PUSH2 0x27CD JUMP JUMPDEST DUP3 SWAP1 PUSH2 0x17A0 JUMP JUMPDEST SWAP10 POP POP POP POP POP POP POP POP POP POP SWAP7 SWAP6 POP POP POP POP POP POP JUMP JUMPDEST PUSH1 0x0 DUP2 DUP1 PUSH1 0x20 ADD SWAP1 MLOAD DUP2 ADD SWAP1 PUSH2 0x63C SWAP2 SWAP1 PUSH2 0x401A JUMP JUMPDEST PUSH1 0x60 PUSH1 0x0 PUSH2 0x3374 DUP5 DUP5 PUSH2 0x1CE2 JUMP JUMPDEST SWAP1 POP PUSH1 0x60 DUP6 MLOAD PUSH1 0x1 PUSH1 0x1 PUSH1 0x40 SHL SUB DUP2 GT DUP1 ISZERO PUSH2 0x338F JUMPI PUSH1 0x0 DUP1 REVERT JUMPDEST POP PUSH1 0x40 MLOAD SWAP1 DUP1 DUP3 MSTORE DUP1 PUSH1 0x20 MUL PUSH1 0x20 ADD DUP3 ADD PUSH1 0x40 MSTORE DUP1 ISZERO PUSH2 0x33B9 JUMPI DUP2 PUSH1 0x20 ADD PUSH1 0x20 DUP3 MUL DUP1 CALLDATASIZE DUP4 CALLDATACOPY ADD SWAP1 POP JUMPDEST POP SWAP1 POP PUSH1 0x0 JUMPDEST DUP7 MLOAD DUP2 LT ISZERO PUSH2 0x340D JUMPI PUSH2 0x33EE DUP4 DUP9 DUP4 DUP2 MLOAD DUP2 LT PUSH2 0x33D8 JUMPI INVALID JUMPDEST PUSH1 0x20 MUL PUSH1 0x20 ADD ADD MLOAD PUSH2 0x27CD SWAP1 SWAP2 SWAP1 PUSH4 0xFFFFFFFF AND JUMP JUMPDEST DUP3 DUP3 DUP2 MLOAD DUP2 LT PUSH2 0x33FA JUMPI INVALID JUMPDEST PUSH1 0x20 SWAP1 DUP2 MUL SWAP2 SWAP1 SWAP2 ADD ADD MSTORE PUSH1 0x1 ADD PUSH2 0x33BF JUMP JUMPDEST POP SWAP6 SWAP5 POP POP POP POP POP JUMP JUMPDEST PUSH1 0x60 PUSH1 0x0 DUP3 DUP1 PUSH1 0x20 ADD SWAP1 MLOAD DUP2 ADD SWAP1 PUSH2 0x3229 SWAP2 SWAP1 PUSH2 0x3FD4 JUMP JUMPDEST PUSH1 0x0 DUP1 DUP1 JUMPDEST DUP7 MLOAD DUP2 LT ISZERO PUSH2 0x3456 JUMPI PUSH2 0x344C DUP8 DUP3 DUP2 MLOAD DUP2 LT PUSH2 0x32A7 JUMPI INVALID JUMPDEST SWAP2 POP PUSH1 0x1 ADD PUSH2 0x3434 JUMP JUMPDEST POP PUSH1 0x60 DUP6 MLOAD PUSH1 0x1 PUSH1 0x1 PUSH1 0x40 SHL SUB DUP2 GT DUP1 ISZERO PUSH2 0x3470 JUMPI PUSH1 0x0 DUP1 REVERT JUMPDEST POP PUSH1 0x40 MLOAD SWAP1 DUP1 DUP3 MSTORE DUP1 PUSH1 0x20 MUL PUSH1 0x20 ADD DUP3 ADD PUSH1 0x40 MSTORE DUP1 ISZERO PUSH2 0x349A JUMPI DUP2 PUSH1 0x20 ADD PUSH1 0x20 DUP3 MUL DUP1 CALLDATASIZE DUP4 CALLDATACOPY ADD SWAP1 POP JUMPDEST POP SWAP1 POP PUSH1 0x0 DUP1 JUMPDEST DUP9 MLOAD DUP2 LT ISZERO PUSH2 0x3561 JUMPI PUSH1 0x0 PUSH2 0x34D2 DUP6 DUP12 DUP5 DUP2 MLOAD DUP2 LT PUSH2 0x34BC JUMPI INVALID JUMPDEST PUSH1 0x20 MUL PUSH1 0x20 ADD ADD MLOAD PUSH2 0x293B SWAP1 SWAP2 SWAP1 PUSH4 0xFFFFFFFF AND JUMP JUMPDEST SWAP1 POP PUSH2 0x350E DUP11 DUP4 DUP2 MLOAD DUP2 LT PUSH2 0x34E3 JUMPI INVALID JUMPDEST PUSH1 0x20 MUL PUSH1 0x20 ADD ADD MLOAD PUSH2 0x3259 DUP12 DUP6 DUP2 MLOAD DUP2 LT PUSH2 0x34FA JUMPI INVALID JUMPDEST PUSH1 0x20 MUL PUSH1 0x20 ADD ADD MLOAD DUP14 DUP7 DUP2 MLOAD DUP2 LT PUSH2 0x2B98 JUMPI INVALID JUMPDEST DUP5 DUP4 DUP2 MLOAD DUP2 LT PUSH2 0x351A JUMPI INVALID JUMPDEST PUSH1 0x20 MUL PUSH1 0x20 ADD ADD DUP2 DUP2 MSTORE POP POP PUSH2 0x3556 PUSH2 0x354F DUP3 DUP7 DUP6 DUP2 MLOAD DUP2 LT PUSH2 0x3539 JUMPI INVALID JUMPDEST PUSH1 0x20 MUL PUSH1 0x20 ADD ADD MLOAD PUSH2 0x2989 SWAP1 SWAP2 SWAP1 PUSH4 0xFFFFFFFF AND JUMP JUMPDEST DUP5 SWAP1 PUSH2 0x17A0 JUMP JUMPDEST SWAP3 POP POP PUSH1 0x1 ADD PUSH2 0x34A1 JUMP JUMPDEST POP PUSH1 0x60 DUP9 MLOAD PUSH1 0x1 PUSH1 0x1 PUSH1 0x40 SHL SUB DUP2 GT DUP1 ISZERO PUSH2 0x357B JUMPI PUSH1 0x0 DUP1 REVERT JUMPDEST POP PUSH1 0x40 MLOAD SWAP1 DUP1 DUP3 MSTORE DUP1 PUSH1 0x20 MUL PUSH1 0x20 ADD DUP3 ADD PUSH1 0x40 MSTORE DUP1 ISZERO PUSH2 0x35A5 JUMPI DUP2 PUSH1 0x20 ADD PUSH1 0x20 DUP3 MUL DUP1 CALLDATASIZE DUP4 CALLDATACOPY ADD SWAP1 POP JUMPDEST POP SWAP1 POP PUSH1 0x0 JUMPDEST DUP10 MLOAD DUP2 LT ISZERO PUSH2 0x3670 JUMPI PUSH1 0x0 DUP5 DUP3 DUP2 MLOAD DUP2 LT PUSH2 0x35C2 JUMPI INVALID JUMPDEST PUSH1 0x20 MUL PUSH1 0x20 ADD ADD MLOAD DUP5 GT ISZERO PUSH2 0x3629 JUMPI PUSH1 0x0 PUSH2 0x35EB PUSH2 0x35DF DUP7 PUSH2 0x3A16 JUMP JUMPDEST DUP14 DUP6 DUP2 MLOAD DUP2 LT PUSH2 0x33D8 JUMPI INVALID JUMPDEST SWAP1 POP PUSH1 0x0 PUSH2 0x35FF DUP3 DUP14 DUP7 DUP2 MLOAD DUP2 LT PUSH2 0x2B98 JUMPI INVALID JUMPDEST SWAP1 POP PUSH2 0x3620 PUSH2 0x3619 DUP3 PUSH8 0xDE0B6B3A7640000 DUP14 SWAP1 SUB PUSH2 0x293B JUMP JUMPDEST DUP4 SWAP1 PUSH2 0x17A0 JUMP JUMPDEST SWAP3 POP POP POP PUSH2 0x3640 JUMP JUMPDEST DUP10 DUP3 DUP2 MLOAD DUP2 LT PUSH2 0x3635 JUMPI INVALID JUMPDEST PUSH1 0x20 MUL PUSH1 0x20 ADD ADD MLOAD SWAP1 POP JUMPDEST PUSH2 0x3650 DUP2 DUP13 DUP5 DUP2 MLOAD DUP2 LT PUSH2 0x2B98 JUMPI INVALID JUMPDEST DUP4 DUP4 DUP2 MLOAD DUP2 LT PUSH2 0x365C JUMPI INVALID JUMPDEST PUSH1 0x20 SWAP1 DUP2 MUL SWAP2 SWAP1 SWAP2 ADD ADD MSTORE POP PUSH1 0x1 ADD PUSH2 0x35AB JUMP JUMPDEST POP PUSH1 0x0 PUSH2 0x367F DUP12 DUP12 PUSH1 0x1 PUSH2 0x1B46 JUMP JUMPDEST SWAP1 POP PUSH1 0x0 PUSH2 0x368F DUP13 DUP5 PUSH1 0x0 PUSH2 0x1B46 JUMP JUMPDEST SWAP1 POP PUSH1 0x0 PUSH2 0x369D DUP3 DUP5 PUSH2 0x1CE2 JUMP JUMPDEST SWAP1 POP PUSH2 0x36B2 PUSH2 0x36AB DUP3 PUSH2 0x3A16 JUMP JUMPDEST DUP12 SWAP1 PUSH2 0x2989 JUMP JUMPDEST SWAP14 SWAP13 POP POP POP POP POP POP POP POP POP POP POP POP POP JUMP JUMPDEST PUSH1 0x0 DUP1 DUP1 JUMPDEST DUP7 MLOAD DUP2 LT ISZERO PUSH2 0x36EA JUMPI PUSH2 0x36E0 DUP8 DUP3 DUP2 MLOAD DUP2 LT PUSH2 0x32A7 JUMPI INVALID JUMPDEST SWAP2 POP PUSH1 0x1 ADD PUSH2 0x36C8 JUMP JUMPDEST POP PUSH1 0x60 DUP6 MLOAD PUSH1 0x1 PUSH1 0x1 PUSH1 0x40 SHL SUB DUP2 GT DUP1 ISZERO PUSH2 0x3704 JUMPI PUSH1 0x0 DUP1 REVERT JUMPDEST POP PUSH1 0x40 MLOAD SWAP1 DUP1 DUP3 MSTORE DUP1 PUSH1 0x20 MUL PUSH1 0x20 ADD DUP3 ADD PUSH1 0x40 MSTORE DUP1 ISZERO PUSH2 0x372E JUMPI DUP2 PUSH1 0x20 ADD PUSH1 0x20 DUP3 MUL DUP1 CALLDATASIZE DUP4 CALLDATACOPY ADD SWAP1 POP JUMPDEST POP SWAP1 POP PUSH1 0x0 DUP1 JUMPDEST DUP9 MLOAD DUP2 LT ISZERO PUSH2 0x37C2 JUMPI PUSH1 0x0 PUSH2 0x3750 DUP6 DUP12 DUP5 DUP2 MLOAD DUP2 LT PUSH2 0x32DB JUMPI INVALID JUMPDEST SWAP1 POP PUSH2 0x378C DUP11 DUP4 DUP2 MLOAD DUP2 LT PUSH2 0x3761 JUMPI INVALID JUMPDEST PUSH1 0x20 MUL PUSH1 0x20 ADD ADD MLOAD PUSH2 0x2D9A DUP12 DUP6 DUP2 MLOAD DUP2 LT PUSH2 0x3778 JUMPI INVALID JUMPDEST PUSH1 0x20 MUL PUSH1 0x20 ADD ADD MLOAD DUP14 DUP7 DUP2 MLOAD DUP2 LT PUSH2 0x2C5C JUMPI INVALID JUMPDEST DUP5 DUP4 DUP2 MLOAD DUP2 LT PUSH2 0x3798 JUMPI INVALID JUMPDEST PUSH1 0x20 MUL PUSH1 0x20 ADD ADD DUP2 DUP2 MSTORE POP POP PUSH2 0x37B7 PUSH2 0x354F DUP3 DUP7 DUP6 DUP2 MLOAD DUP2 LT PUSH2 0x33D8 JUMPI INVALID JUMPDEST SWAP3 POP POP PUSH1 0x1 ADD PUSH2 0x3735 JUMP JUMPDEST POP PUSH1 0x60 DUP9 MLOAD PUSH1 0x1 PUSH1 0x1 PUSH1 0x40 SHL SUB DUP2 GT DUP1 ISZERO PUSH2 0x37DC JUMPI PUSH1 0x0 DUP1 REVERT JUMPDEST POP PUSH1 0x40 MLOAD SWAP1 DUP1 DUP3 MSTORE DUP1 PUSH1 0x20 MUL PUSH1 0x20 ADD DUP3 ADD PUSH1 0x40 MSTORE DUP1 ISZERO PUSH2 0x3806 JUMPI DUP2 PUSH1 0x20 ADD PUSH1 0x20 DUP3 MUL DUP1 CALLDATASIZE DUP4 CALLDATACOPY ADD SWAP1 POP JUMPDEST POP SWAP1 POP PUSH1 0x0 JUMPDEST DUP10 MLOAD DUP2 LT ISZERO PUSH2 0x38C7 JUMPI PUSH1 0x0 DUP4 DUP6 DUP4 DUP2 MLOAD DUP2 LT PUSH2 0x3824 JUMPI INVALID JUMPDEST PUSH1 0x20 MUL PUSH1 0x20 ADD ADD MLOAD GT ISZERO PUSH2 0x3880 JUMPI PUSH1 0x0 PUSH2 0x3849 PUSH2 0x35DF DUP7 PUSH8 0xDE0B6B3A7640000 PUSH2 0xF36 JUMP JUMPDEST SWAP1 POP PUSH1 0x0 PUSH2 0x385D DUP3 DUP14 DUP7 DUP2 MLOAD DUP2 LT PUSH2 0x2B98 JUMPI INVALID JUMPDEST SWAP1 POP PUSH2 0x3877 PUSH2 0x3619 DUP3 PUSH8 0xDE0B6B3A7640000 DUP14 SWAP1 SUB PUSH2 0x27CD JUMP JUMPDEST SWAP3 POP POP POP PUSH2 0x3897 JUMP JUMPDEST DUP10 DUP3 DUP2 MLOAD DUP2 LT PUSH2 0x388C JUMPI INVALID JUMPDEST PUSH1 0x20 MUL PUSH1 0x20 ADD ADD MLOAD SWAP1 POP JUMPDEST PUSH2 0x38A7 DUP2 DUP13 DUP5 DUP2 MLOAD DUP2 LT PUSH2 0x2C5C JUMPI INVALID JUMPDEST DUP4 DUP4 DUP2 MLOAD DUP2 LT PUSH2 0x38B3 JUMPI INVALID JUMPDEST PUSH1 0x20 SWAP1 DUP2 MUL SWAP2 SWAP1 SWAP2 ADD ADD MSTORE POP PUSH1 0x1 ADD PUSH2 0x380C JUMP JUMPDEST POP PUSH1 0x0 PUSH2 0x38D6 DUP12 DUP12 PUSH1 0x1 PUSH2 0x1B46 JUMP JUMPDEST SWAP1 POP PUSH1 0x0 PUSH2 0x38E6 DUP13 DUP5 PUSH1 0x0 PUSH2 0x1B46 JUMP JUMPDEST SWAP1 POP PUSH1 0x0 PUSH2 0x38F4 DUP3 DUP5 PUSH2 0x1CE2 JUMP JUMPDEST SWAP1 POP PUSH8 0xDE0B6B3A7640000 DUP2 GT ISZERO PUSH2 0x3929 JUMPI PUSH2 0x391B DUP11 PUSH8 0xDE0B6B3A763FFFF NOT DUP4 ADD PUSH2 0x27CD JUMP JUMPDEST SWAP8 POP POP POP POP POP POP POP POP PUSH2 0x127B JUMP JUMPDEST PUSH1 0x0 SWAP8 POP POP POP POP POP POP POP POP PUSH2 0x127B JUMP JUMPDEST PUSH1 0x0 DUP1 PUSH2 0x3948 DUP9 DUP9 PUSH1 0x1 PUSH2 0x1B46 JUMP JUMPDEST SWAP1 POP PUSH1 0x0 PUSH2 0x395E DUP3 PUSH2 0x325F DUP8 PUSH2 0x3259 DUP2 DUP12 PUSH2 0x17A0 JUMP JUMPDEST SWAP1 POP PUSH1 0x0 PUSH2 0x396E DUP11 DUP11 DUP5 DUP12 PUSH2 0x3030 JUMP JUMPDEST SWAP1 POP PUSH1 0x0 PUSH2 0x3998 DUP11 DUP11 DUP2 MLOAD DUP2 LT PUSH2 0x3981 JUMPI INVALID JUMPDEST PUSH1 0x20 MUL PUSH1 0x20 ADD ADD MLOAD DUP4 PUSH2 0xF36 SWAP1 SWAP2 SWAP1 PUSH4 0xFFFFFFFF AND JUMP JUMPDEST SWAP1 POP PUSH1 0x0 DUP1 JUMPDEST DUP12 MLOAD DUP2 LT ISZERO PUSH2 0x39C0 JUMPI PUSH2 0x39B6 DUP13 DUP3 DUP2 MLOAD DUP2 LT PUSH2 0x32A7 JUMPI INVALID JUMPDEST SWAP2 POP PUSH1 0x1 ADD PUSH2 0x399E JUMP JUMPDEST POP PUSH1 0x0 PUSH2 0x39D3 DUP3 DUP14 DUP14 DUP2 MLOAD DUP2 LT PUSH2 0x32DB JUMPI INVALID JUMPDEST SWAP1 POP PUSH1 0x0 PUSH2 0x39E0 DUP3 PUSH2 0x3A16 JUMP JUMPDEST SWAP1 POP PUSH1 0x0 PUSH2 0x39EE DUP6 DUP4 PUSH2 0x2989 JUMP JUMPDEST SWAP1 POP PUSH1 0x0 PUSH2 0x39FC DUP7 DUP4 PUSH2 0xF36 JUMP JUMPDEST SWAP1 POP PUSH2 0x333B PUSH2 0x3334 DUP4 PUSH8 0xDE0B6B3A7640000 DUP15 SWAP1 SUB PUSH2 0x293B JUMP JUMPDEST PUSH1 0x0 PUSH8 0xDE0B6B3A7640000 DUP3 LT PUSH2 0x3A2E JUMPI PUSH1 0x0 PUSH2 0x584 JUMP JUMPDEST POP PUSH8 0xDE0B6B3A7640000 SUB SWAP1 JUMP JUMPDEST DUP1 CALLDATALOAD PUSH2 0x584 DUP2 PUSH2 0x449F JUMP JUMPDEST PUSH1 0x0 DUP3 PUSH1 0x1F DUP4 ADD SLT PUSH2 0x3A57 JUMPI DUP1 DUP2 REVERT JUMPDEST DUP2 CALLDATALOAD PUSH2 0x3A6A PUSH2 0x3A65 DUP3 PUSH2 0x4480 JUMP JUMPDEST PUSH2 0x445A JUMP JUMPDEST DUP2 DUP2 MSTORE SWAP2 POP PUSH1 0x20 DUP1 DUP4 ADD SWAP1 DUP5 DUP2 ADD DUP2 DUP5 MUL DUP7 ADD DUP3 ADD DUP8 LT ISZERO PUSH2 0x3A8B JUMPI PUSH1 0x0 DUP1 REVERT JUMPDEST PUSH1 0x0 JUMPDEST DUP5 DUP2 LT ISZERO PUSH2 0x3AAA JUMPI DUP2 CALLDATALOAD DUP5 MSTORE SWAP3 DUP3 ADD SWAP3 SWAP1 DUP3 ADD SWAP1 PUSH1 0x1 ADD PUSH2 0x3A8E JUMP JUMPDEST POP POP POP POP POP SWAP3 SWAP2 POP POP JUMP JUMPDEST PUSH1 0x0 DUP3 PUSH1 0x1F DUP4 ADD SLT PUSH2 0x3AC5 JUMPI DUP1 DUP2 REVERT JUMPDEST DUP2 MLOAD PUSH2 0x3AD3 PUSH2 0x3A65 DUP3 PUSH2 0x4480 JUMP JUMPDEST DUP2 DUP2 MSTORE SWAP2 POP PUSH1 0x20 DUP1 DUP4 ADD SWAP1 DUP5 DUP2 ADD DUP2 DUP5 MUL DUP7 ADD DUP3 ADD DUP8 LT ISZERO PUSH2 0x3AF4 JUMPI PUSH1 0x0 DUP1 REVERT JUMPDEST PUSH1 0x0 JUMPDEST DUP5 DUP2 LT ISZERO PUSH2 0x3AAA JUMPI DUP2 MLOAD DUP5 MSTORE SWAP3 DUP3 ADD SWAP3 SWAP1 DUP3 ADD SWAP1 PUSH1 0x1 ADD PUSH2 0x3AF7 JUMP JUMPDEST PUSH1 0x0 DUP3 PUSH1 0x1F DUP4 ADD SLT PUSH2 0x3B23 JUMPI DUP1 DUP2 REVERT JUMPDEST DUP2 CALLDATALOAD PUSH1 0x1 PUSH1 0x1 PUSH1 0x40 SHL SUB DUP2 GT ISZERO PUSH2 0x3B38 JUMPI DUP2 DUP3 REVERT JUMPDEST PUSH2 0x3B4B PUSH1 0x1F DUP3 ADD PUSH1 0x1F NOT AND PUSH1 0x20 ADD PUSH2 0x445A JUMP JUMPDEST SWAP2 POP DUP1 DUP3 MSTORE DUP4 PUSH1 0x20 DUP3 DUP6 ADD ADD GT ISZERO PUSH2 0x3B62 JUMPI PUSH1 0x0 DUP1 REVERT JUMPDEST DUP1 PUSH1 0x20 DUP5 ADD PUSH1 0x20 DUP5 ADD CALLDATACOPY PUSH1 0x0 SWAP1 DUP3 ADD PUSH1 0x20 ADD MSTORE SWAP3 SWAP2 POP POP JUMP JUMPDEST DUP1 CALLDATALOAD PUSH1 0x2 DUP2 LT PUSH2 0x584 JUMPI PUSH1 0x0 DUP1 REVERT JUMPDEST PUSH1 0x0 PUSH2 0x120 DUP1 DUP4 DUP6 SUB SLT ISZERO PUSH2 0x3B9D JUMPI DUP2 DUP3 REVERT JUMPDEST PUSH2 0x3BA6 DUP2 PUSH2 0x445A JUMP JUMPDEST SWAP2 POP POP PUSH2 0x3BB3 DUP4 DUP4 PUSH2 0x3B7B JUMP JUMPDEST DUP2 MSTORE PUSH2 0x3BC2 DUP4 PUSH1 0x20 DUP5 ADD PUSH2 0x3A3C JUMP JUMPDEST PUSH1 0x20 DUP3 ADD MSTORE PUSH2 0x3BD4 DUP4 PUSH1 0x40 DUP5 ADD PUSH2 0x3A3C JUMP JUMPDEST PUSH1 0x40 DUP3 ADD MSTORE PUSH1 0x60 DUP3 ADD CALLDATALOAD PUSH1 0x60 DUP3 ADD MSTORE PUSH1 0x80 DUP3 ADD CALLDATALOAD PUSH1 0x80 DUP3 ADD MSTORE PUSH1 0xA0 DUP3 ADD CALLDATALOAD PUSH1 0xA0 DUP3 ADD MSTORE PUSH2 0x3C04 DUP4 PUSH1 0xC0 DUP5 ADD PUSH2 0x3A3C JUMP JUMPDEST PUSH1 0xC0 DUP3 ADD MSTORE PUSH2 0x3C16 DUP4 PUSH1 0xE0 DUP5 ADD PUSH2 0x3A3C JUMP JUMPDEST PUSH1 0xE0 DUP3 ADD MSTORE PUSH2 0x100 DUP1 DUP4 ADD CALLDATALOAD PUSH1 0x1 PUSH1 0x1 PUSH1 0x40 SHL SUB DUP2 GT ISZERO PUSH2 0x3C36 JUMPI PUSH1 0x0 DUP1 REVERT JUMPDEST PUSH2 0x3C42 DUP6 DUP3 DUP7 ADD PUSH2 0x3B13 JUMP JUMPDEST DUP3 DUP5 ADD MSTORE POP POP SWAP3 SWAP2 POP POP JUMP JUMPDEST PUSH1 0x0 PUSH1 0x20 DUP3 DUP5 SUB SLT ISZERO PUSH2 0x3C5F JUMPI DUP1 DUP2 REVERT JUMPDEST DUP2 CALLDATALOAD PUSH2 0x63C DUP2 PUSH2 0x449F JUMP JUMPDEST PUSH1 0x0 DUP1 PUSH1 0x40 DUP4 DUP6 SUB SLT ISZERO PUSH2 0x3C7C JUMPI DUP1 DUP2 REVERT JUMPDEST DUP3 CALLDATALOAD PUSH2 0x3C87 DUP2 PUSH2 0x449F JUMP JUMPDEST SWAP2 POP PUSH1 0x20 DUP4 ADD CALLDATALOAD PUSH2 0x3C97 DUP2 PUSH2 0x449F JUMP JUMPDEST DUP1 SWAP2 POP POP SWAP3 POP SWAP3 SWAP1 POP JUMP JUMPDEST PUSH1 0x0 DUP1 PUSH1 0x0 PUSH1 0x60 DUP5 DUP7 SUB SLT ISZERO PUSH2 0x3CB6 JUMPI DUP1 DUP2 REVERT JUMPDEST DUP4 CALLDATALOAD PUSH2 0x3CC1 DUP2 PUSH2 0x449F JUMP JUMPDEST SWAP3 POP PUSH1 0x20 DUP5 ADD CALLDATALOAD PUSH2 0x3CD1 DUP2 PUSH2 0x449F JUMP JUMPDEST SWAP3 SWAP6 SWAP3 SWAP5 POP POP POP PUSH1 0x40 SWAP2 SWAP1 SWAP2 ADD CALLDATALOAD SWAP1 JUMP JUMPDEST PUSH1 0x0 DUP1 PUSH1 0x0 DUP1 PUSH1 0x0 DUP1 PUSH1 0x0 PUSH1 0xE0 DUP9 DUP11 SUB SLT ISZERO PUSH2 0x3CFC JUMPI DUP3 DUP4 REVERT JUMPDEST DUP8 CALLDATALOAD PUSH2 0x3D07 DUP2 PUSH2 0x449F JUMP JUMPDEST SWAP7 POP PUSH1 0x20 DUP9 ADD CALLDATALOAD PUSH2 0x3D17 DUP2 PUSH2 0x449F JUMP JUMPDEST SWAP6 POP PUSH1 0x40 DUP9 ADD CALLDATALOAD SWAP5 POP PUSH1 0x60 DUP9 ADD CALLDATALOAD SWAP4 POP PUSH1 0x80 DUP9 ADD CALLDATALOAD PUSH1 0xFF DUP2 AND DUP2 EQ PUSH2 0x3D3A JUMPI DUP4 DUP5 REVERT JUMPDEST SWAP7 SWAP10 SWAP6 SWAP9 POP SWAP4 SWAP7 SWAP3 SWAP6 SWAP5 PUSH1 0xA0 DUP5 ADD CALLDATALOAD SWAP5 POP PUSH1 0xC0 SWAP1 SWAP4 ADD CALLDATALOAD SWAP3 SWAP2 POP POP JUMP JUMPDEST PUSH1 0x0 DUP1 PUSH1 0x40 DUP4 DUP6 SUB SLT ISZERO PUSH2 0x3D69 JUMPI DUP2 DUP3 REVERT JUMPDEST DUP3 CALLDATALOAD PUSH2 0x3D74 DUP2 PUSH2 0x449F JUMP JUMPDEST SWAP5 PUSH1 0x20 SWAP4 SWAP1 SWAP4 ADD CALLDATALOAD SWAP4 POP POP POP JUMP JUMPDEST PUSH1 0x0 DUP1 PUSH1 0x0 PUSH1 0x60 DUP5 DUP7 SUB SLT ISZERO PUSH2 0x3D96 JUMPI DUP1 DUP2 REVERT JUMPDEST DUP4 MLOAD PUSH1 0x1 PUSH1 0x1 PUSH1 0x40 SHL SUB DUP1 DUP3 GT ISZERO PUSH2 0x3DAC JUMPI DUP3 DUP4 REVERT JUMPDEST DUP2 DUP7 ADD SWAP2 POP DUP7 PUSH1 0x1F DUP4 ADD SLT PUSH2 0x3DBF JUMPI DUP3 DUP4 REVERT JUMPDEST DUP2 MLOAD PUSH2 0x3DCD PUSH2 0x3A65 DUP3 PUSH2 0x4480 JUMP JUMPDEST DUP1 DUP3 DUP3 MSTORE PUSH1 0x20 DUP1 DUP4 ADD SWAP3 POP DUP1 DUP7 ADD DUP12 DUP3 DUP4 DUP8 MUL DUP10 ADD ADD GT ISZERO PUSH2 0x3DED JUMPI DUP8 DUP9 REVERT JUMPDEST DUP8 SWAP7 POP JUMPDEST DUP5 DUP8 LT ISZERO PUSH2 0x3E18 JUMPI DUP1 MLOAD PUSH2 0x3E04 DUP2 PUSH2 0x449F JUMP JUMPDEST DUP5 MSTORE PUSH1 0x1 SWAP7 SWAP1 SWAP7 ADD SWAP6 SWAP3 DUP2 ADD SWAP3 DUP2 ADD PUSH2 0x3DF1 JUMP JUMPDEST POP DUP10 ADD MLOAD SWAP1 SWAP8 POP SWAP4 POP POP POP DUP1 DUP3 GT ISZERO PUSH2 0x3E2F JUMPI DUP3 DUP4 REVERT JUMPDEST POP PUSH2 0x3E3C DUP7 DUP3 DUP8 ADD PUSH2 0x3AB5 JUMP JUMPDEST SWAP3 POP POP PUSH1 0x40 DUP5 ADD MLOAD SWAP1 POP SWAP3 POP SWAP3 POP SWAP3 JUMP JUMPDEST PUSH1 0x0 PUSH1 0x20 DUP3 DUP5 SUB SLT ISZERO PUSH2 0x3E5E JUMPI DUP1 DUP2 REVERT JUMPDEST DUP2 CALLDATALOAD PUSH2 0x63C DUP2 PUSH2 0x44B4 JUMP JUMPDEST PUSH1 0x0 PUSH1 0x20 DUP3 DUP5 SUB SLT ISZERO PUSH2 0x3E7A JUMPI DUP1 DUP2 REVERT JUMPDEST DUP2 MLOAD PUSH2 0x63C DUP2 PUSH2 0x44B4 JUMP JUMPDEST PUSH1 0x0 DUP1 PUSH1 0x0 DUP1 PUSH1 0x0 DUP1 PUSH1 0x0 PUSH1 0xE0 DUP9 DUP11 SUB SLT ISZERO PUSH2 0x3E9F JUMPI DUP1 DUP2 REVERT JUMPDEST DUP8 CALLDATALOAD SWAP7 POP PUSH1 0x20 DUP9 ADD CALLDATALOAD PUSH2 0x3EB1 DUP2 PUSH2 0x449F JUMP JUMPDEST SWAP6 POP PUSH1 0x40 DUP9 ADD CALLDATALOAD PUSH2 0x3EC1 DUP2 PUSH2 0x449F JUMP JUMPDEST SWAP5 POP PUSH1 0x60 DUP9 ADD CALLDATALOAD PUSH1 0x1 PUSH1 0x1 PUSH1 0x40 SHL SUB DUP1 DUP3 GT ISZERO PUSH2 0x3EDC JUMPI DUP3 DUP4 REVERT JUMPDEST PUSH2 0x3EE8 DUP12 DUP4 DUP13 ADD PUSH2 0x3A47 JUMP JUMPDEST SWAP6 POP PUSH1 0x80 DUP11 ADD CALLDATALOAD SWAP5 POP PUSH1 0xA0 DUP11 ADD CALLDATALOAD SWAP4 POP PUSH1 0xC0 DUP11 ADD CALLDATALOAD SWAP2 POP DUP1 DUP3 GT ISZERO PUSH2 0x3F0B JUMPI DUP3 DUP4 REVERT JUMPDEST POP PUSH2 0x3F18 DUP11 DUP3 DUP12 ADD PUSH2 0x3B13 JUMP JUMPDEST SWAP2 POP POP SWAP3 SWAP6 SWAP9 SWAP2 SWAP5 SWAP8 POP SWAP3 SWAP6 POP JUMP JUMPDEST PUSH1 0x0 PUSH1 0x20 DUP3 DUP5 SUB SLT ISZERO PUSH2 0x3F38 JUMPI DUP1 DUP2 REVERT JUMPDEST DUP2 CALLDATALOAD PUSH1 0x1 PUSH1 0x1 PUSH1 0xE0 SHL SUB NOT DUP2 AND DUP2 EQ PUSH2 0x63C JUMPI DUP2 DUP3 REVERT JUMPDEST PUSH1 0x0 PUSH1 0x20 DUP3 DUP5 SUB SLT ISZERO PUSH2 0x3F60 JUMPI DUP1 DUP2 REVERT JUMPDEST DUP2 MLOAD PUSH2 0x63C DUP2 PUSH2 0x449F JUMP JUMPDEST PUSH1 0x0 DUP1 PUSH1 0x40 DUP4 DUP6 SUB SLT ISZERO PUSH2 0x3F7D JUMPI DUP2 DUP3 REVERT JUMPDEST DUP3 CALLDATALOAD PUSH2 0x3F88 DUP2 PUSH2 0x449F JUMP JUMPDEST SWAP2 POP PUSH1 0x20 DUP4 ADD CALLDATALOAD PUSH1 0x1 PUSH1 0x1 PUSH1 0x40 SHL SUB DUP2 GT ISZERO PUSH2 0x3FA2 JUMPI DUP2 DUP3 REVERT JUMPDEST PUSH2 0x3FAE DUP6 DUP3 DUP7 ADD PUSH2 0x3B13 JUMP JUMPDEST SWAP2 POP POP SWAP3 POP SWAP3 SWAP1 POP JUMP JUMPDEST PUSH1 0x0 PUSH1 0x20 DUP3 DUP5 SUB SLT ISZERO PUSH2 0x3FC9 JUMPI DUP1 DUP2 REVERT JUMPDEST DUP2 MLOAD PUSH2 0x63C DUP2 PUSH2 0x44C2 JUMP JUMPDEST PUSH1 0x0 DUP1 PUSH1 0x0 PUSH1 0x60 DUP5 DUP7 SUB SLT ISZERO PUSH2 0x3FE8 JUMPI DUP1 DUP2 REVERT JUMPDEST DUP4 MLOAD PUSH2 0x3FF3 DUP2 PUSH2 0x44C2 JUMP JUMPDEST PUSH1 0x20 DUP6 ADD MLOAD SWAP1 SWAP4 POP PUSH1 0x1 PUSH1 0x1 PUSH1 0x40 SHL SUB DUP2 GT ISZERO PUSH2 0x400E JUMPI DUP2 DUP3 REVERT JUMPDEST PUSH2 0x3E3C DUP7 DUP3 DUP8 ADD PUSH2 0x3AB5 JUMP JUMPDEST PUSH1 0x0 DUP1 PUSH1 0x40 DUP4 DUP6 SUB SLT ISZERO PUSH2 0x402C JUMPI DUP2 DUP3 REVERT JUMPDEST DUP3 MLOAD PUSH2 0x4037 DUP2 PUSH2 0x44C2 JUMP JUMPDEST PUSH1 0x20 SWAP4 SWAP1 SWAP4 ADD MLOAD SWAP3 SWAP5 SWAP3 SWAP4 POP POP POP JUMP JUMPDEST PUSH1 0x0 DUP1 PUSH1 0x0 PUSH1 0x60 DUP5 DUP7 SUB SLT ISZERO PUSH2 0x405B JUMPI DUP1 DUP2 REVERT JUMPDEST DUP4 MLOAD PUSH2 0x4066 DUP2 PUSH2 0x44C2 JUMP JUMPDEST PUSH1 0x20 DUP6 ADD MLOAD PUSH1 0x40 SWAP1 SWAP6 ADD MLOAD SWAP1 SWAP7 SWAP5 SWAP6 POP SWAP4 SWAP3 POP POP POP JUMP JUMPDEST PUSH1 0x0 DUP1 PUSH1 0x40 DUP4 DUP6 SUB SLT ISZERO PUSH2 0x408F JUMPI DUP2 DUP3 REVERT JUMPDEST DUP3 MLOAD PUSH2 0x409A DUP2 PUSH2 0x44C2 JUMP JUMPDEST PUSH1 0x20 DUP5 ADD MLOAD SWAP1 SWAP3 POP PUSH1 0x1 PUSH1 0x1 PUSH1 0x40 SHL SUB DUP2 GT ISZERO PUSH2 0x40B5 JUMPI DUP2 DUP3 REVERT JUMPDEST PUSH2 0x3FAE DUP6 DUP3 DUP7 ADD PUSH2 0x3AB5 JUMP JUMPDEST PUSH1 0x0 DUP1 PUSH1 0x0 DUP1 PUSH1 0x80 DUP6 DUP8 SUB SLT ISZERO PUSH2 0x40D6 JUMPI DUP2 DUP3 REVERT JUMPDEST DUP5 CALLDATALOAD PUSH1 0x1 PUSH1 0x1 PUSH1 0x40 SHL SUB DUP1 DUP3 GT ISZERO PUSH2 0x40EC JUMPI DUP4 DUP5 REVERT JUMPDEST PUSH2 0x40F8 DUP9 DUP4 DUP10 ADD PUSH2 0x3B8A JUMP JUMPDEST SWAP6 POP PUSH1 0x20 DUP8 ADD CALLDATALOAD SWAP2 POP DUP1 DUP3 GT ISZERO PUSH2 0x410D JUMPI DUP4 DUP5 REVERT JUMPDEST POP PUSH2 0x411A DUP8 DUP3 DUP9 ADD PUSH2 0x3A47 JUMP JUMPDEST SWAP5 SWAP8 SWAP5 SWAP7 POP POP POP POP PUSH1 0x40 DUP4 ADD CALLDATALOAD SWAP3 PUSH1 0x60 ADD CALLDATALOAD SWAP2 SWAP1 POP JUMP JUMPDEST PUSH1 0x0 DUP1 PUSH1 0x0 PUSH1 0x60 DUP5 DUP7 SUB SLT ISZERO PUSH2 0x4145 JUMPI DUP1 DUP2 REVERT JUMPDEST DUP4 CALLDATALOAD PUSH1 0x1 PUSH1 0x1 PUSH1 0x40 SHL SUB DUP2 GT ISZERO PUSH2 0x415A JUMPI DUP2 DUP3 REVERT JUMPDEST PUSH2 0x4166 DUP7 DUP3 DUP8 ADD PUSH2 0x3B8A JUMP JUMPDEST SWAP7 PUSH1 0x20 DUP7 ADD CALLDATALOAD SWAP7 POP PUSH1 0x40 SWAP1 SWAP6 ADD CALLDATALOAD SWAP5 SWAP4 POP POP POP POP JUMP JUMPDEST PUSH1 0x0 PUSH1 0x20 DUP3 DUP5 SUB SLT ISZERO PUSH2 0x418D JUMPI DUP1 DUP2 REVERT JUMPDEST POP CALLDATALOAD SWAP2 SWAP1 POP JUMP JUMPDEST PUSH1 0x0 DUP1 PUSH1 0x40 DUP4 DUP6 SUB SLT ISZERO PUSH2 0x41A6 JUMPI DUP2 DUP3 REVERT JUMPDEST POP POP DUP1 CALLDATALOAD SWAP3 PUSH1 0x20 SWAP1 SWAP2 ADD CALLDATALOAD SWAP2 POP JUMP JUMPDEST PUSH1 0x0 DUP1 PUSH1 0x0 DUP1 PUSH1 0x80 DUP6 DUP8 SUB SLT ISZERO PUSH2 0x41CA JUMPI DUP2 DUP3 REVERT JUMPDEST DUP5 MLOAD SWAP4 POP PUSH1 0x20 DUP6 ADD MLOAD SWAP3 POP PUSH1 0x40 DUP6 ADD MLOAD SWAP2 POP PUSH1 0x60 DUP6 ADD MLOAD PUSH2 0x41EA DUP2 PUSH2 0x449F JUMP JUMPDEST SWAP4 SWAP7 SWAP3 SWAP6 POP SWAP1 SWAP4 POP POP JUMP JUMPDEST PUSH1 0x0 DUP2 MLOAD DUP1 DUP5 MSTORE PUSH1 0x20 DUP1 DUP6 ADD SWAP5 POP DUP1 DUP5 ADD DUP4 JUMPDEST DUP4 DUP2 LT ISZERO PUSH2 0x4224 JUMPI DUP2 MLOAD DUP8 MSTORE SWAP6 DUP3 ADD SWAP6 SWAP1 DUP3 ADD SWAP1 PUSH1 0x1 ADD PUSH2 0x4208 JUMP JUMPDEST POP SWAP5 SWAP6 SWAP5 POP POP POP POP POP JUMP JUMPDEST PUSH1 0x0 DUP2 MLOAD DUP1 DUP5 MSTORE DUP2 JUMPDEST DUP2 DUP2 LT ISZERO PUSH2 0x4254 JUMPI PUSH1 0x20 DUP2 DUP6 ADD DUP2 ADD MLOAD DUP7 DUP4 ADD DUP3 ADD MSTORE ADD PUSH2 0x4238 JUMP JUMPDEST DUP2 DUP2 GT ISZERO PUSH2 0x4265 JUMPI DUP3 PUSH1 0x20 DUP4 DUP8 ADD ADD MSTORE JUMPDEST POP PUSH1 0x1F ADD PUSH1 0x1F NOT AND SWAP3 SWAP1 SWAP3 ADD PUSH1 0x20 ADD SWAP3 SWAP2 POP POP JUMP JUMPDEST SWAP2 DUP3 MSTORE PUSH1 0x1 PUSH1 0x1 PUSH1 0xE0 SHL SUB NOT AND PUSH1 0x20 DUP3 ADD MSTORE PUSH1 0x24 ADD SWAP1 JUMP JUMPDEST PUSH1 0x0 DUP3 DUP5 DUP4 CALLDATACOPY SWAP2 ADD SWAP1 DUP2 MSTORE SWAP2 SWAP1 POP JUMP JUMPDEST PUSH2 0x1901 PUSH1 0xF0 SHL DUP2 MSTORE PUSH1 0x2 DUP2 ADD SWAP3 SWAP1 SWAP3 MSTORE PUSH1 0x22 DUP3 ADD MSTORE PUSH1 0x42 ADD SWAP1 JUMP JUMPDEST PUSH1 0x1 PUSH1 0x1 PUSH1 0xA0 SHL SUB SWAP2 SWAP1 SWAP2 AND DUP2 MSTORE PUSH1 0x20 ADD SWAP1 JUMP JUMPDEST PUSH1 0x0 PUSH1 0x40 DUP3 MSTORE PUSH2 0x42E4 PUSH1 0x40 DUP4 ADD DUP6 PUSH2 0x41F5 JUMP JUMPDEST DUP3 DUP2 SUB PUSH1 0x20 DUP5 ADD MSTORE PUSH2 0x127B DUP2 DUP6 PUSH2 0x41F5 JUMP JUMPDEST SWAP1 ISZERO ISZERO DUP2 MSTORE PUSH1 0x20 ADD SWAP1 JUMP JUMPDEST SWAP3 ISZERO ISZERO DUP4 MSTORE PUSH1 0x20 DUP4 ADD SWAP2 SWAP1 SWAP2 MSTORE PUSH1 0x40 DUP3 ADD MSTORE PUSH1 0x60 ADD SWAP1 JUMP JUMPDEST SWAP1 DUP2 MSTORE PUSH1 0x20 ADD SWAP1 JUMP JUMPDEST SWAP3 DUP4 MSTORE PUSH1 0x1 PUSH1 0x1 PUSH1 0xA0 SHL SUB SWAP2 DUP3 AND PUSH1 0x20 DUP5 ADD MSTORE AND PUSH1 0x40 DUP3 ADD MSTORE PUSH1 0x60 ADD SWAP1 JUMP JUMPDEST SWAP6 DUP7 MSTORE PUSH1 0x1 PUSH1 0x1 PUSH1 0xA0 SHL SUB SWAP5 DUP6 AND PUSH1 0x20 DUP8 ADD MSTORE SWAP3 SWAP1 SWAP4 AND PUSH1 0x40 DUP6 ADD MSTORE PUSH1 0x60 DUP5 ADD MSTORE PUSH1 0x80 DUP4 ADD SWAP2 SWAP1 SWAP2 MSTORE PUSH1 0xA0 DUP3 ADD MSTORE PUSH1 0xC0 ADD SWAP1 JUMP JUMPDEST SWAP5 DUP6 MSTORE PUSH1 0x20 DUP6 ADD SWAP4 SWAP1 SWAP4 MSTORE PUSH1 0x40 DUP5 ADD SWAP2 SWAP1 SWAP2 MSTORE PUSH1 0x60 DUP4 ADD MSTORE PUSH1 0x1 PUSH1 0x1 PUSH1 0xA0 SHL SUB AND PUSH1 0x80 DUP3 ADD MSTORE PUSH1 0xA0 ADD SWAP1 JUMP JUMPDEST PUSH1 0x0 DUP4 DUP3 MSTORE PUSH1 0x40 PUSH1 0x20 DUP4 ADD MSTORE PUSH2 0x4D4 PUSH1 0x40 DUP4 ADD DUP5 PUSH2 0x422F JUMP JUMPDEST SWAP2 DUP3 MSTORE PUSH1 0x1 PUSH1 0x1 PUSH1 0xA0 SHL SUB AND PUSH1 0x20 DUP3 ADD MSTORE PUSH1 0x40 ADD SWAP1 JUMP JUMPDEST SWAP4 DUP5 MSTORE PUSH1 0xFF SWAP3 SWAP1 SWAP3 AND PUSH1 0x20 DUP5 ADD MSTORE PUSH1 0x40 DUP4 ADD MSTORE PUSH1 0x60 DUP3 ADD MSTORE PUSH1 0x80 ADD SWAP1 JUMP JUMPDEST PUSH1 0x0 PUSH1 0x20 DUP3 MSTORE PUSH2 0x63C PUSH1 0x20 DUP4 ADD DUP5 PUSH2 0x422F JUMP JUMPDEST PUSH1 0x0 DUP4 DUP3 MSTORE PUSH1 0x40 PUSH1 0x20 DUP4 ADD MSTORE PUSH2 0x4D4 PUSH1 0x40 DUP4 ADD DUP5 PUSH2 0x41F5 JUMP JUMPDEST SWAP3 DUP4 MSTORE SWAP1 ISZERO ISZERO PUSH1 0x20 DUP4 ADD MSTORE PUSH1 0x40 DUP3 ADD MSTORE PUSH1 0x60 ADD SWAP1 JUMP JUMPDEST SWAP4 DUP5 MSTORE PUSH1 0x20 DUP5 ADD SWAP3 SWAP1 SWAP3 MSTORE PUSH1 0x40 DUP4 ADD MSTORE PUSH1 0x60 DUP3 ADD MSTORE PUSH1 0x80 ADD SWAP1 JUMP JUMPDEST PUSH1 0xFF SWAP2 SWAP1 SWAP2 AND DUP2 MSTORE PUSH1 0x20 ADD SWAP1 JUMP JUMPDEST PUSH1 0x40 MLOAD DUP2 DUP2 ADD PUSH1 0x1 PUSH1 0x1 PUSH1 0x40 SHL SUB DUP2 GT DUP3 DUP3 LT OR ISZERO PUSH2 0x4478 JUMPI PUSH1 0x0 DUP1 REVERT JUMPDEST PUSH1 0x40 MSTORE SWAP2 SWAP1 POP JUMP JUMPDEST PUSH1 0x0 PUSH1 0x1 PUSH1 0x1 PUSH1 0x40 SHL SUB DUP3 GT ISZERO PUSH2 0x4495 JUMPI DUP1 DUP2 REVERT JUMPDEST POP PUSH1 0x20 SWAP1 DUP2 MUL ADD SWAP1 JUMP JUMPDEST PUSH1 0x1 PUSH1 0x1 PUSH1 0xA0 SHL SUB DUP2 AND DUP2 EQ PUSH2 0x59B JUMPI PUSH1 0x0 DUP1 REVERT JUMPDEST DUP1 ISZERO ISZERO DUP2 EQ PUSH2 0x59B JUMPI PUSH1 0x0 DUP1 REVERT JUMPDEST PUSH1 0x3 DUP2 LT PUSH2 0x59B JUMPI PUSH1 0x0 DUP1 REVERT INVALID LOG2 PUSH5 0x6970667358 0x22 SLT KECCAK256 0xD8 0xB9 PUSH32 0xA1EC7ACF830B18C7AAF50C094231B93F23ECACFC0F6866A7EE8EB1DEC664736F PUSH13 0x63430007010033A26469706673 PC 0x22 SLT KECCAK256 0xF6 LOG3 0x48 CALLER 0xD5 0xAA PUSH26 0x2B8D932EA90D00B218D40121837C7BCD403B98C512D5C024D564 PUSH20 0x6F6C634300070100330000000000000000000000 "
		},
		"gasEstimates": {
			"creation": {
				"codeDepositCost": "4629200",
				"executionCost": "infinite",
				"totalCost": "infinite"
			},
			"external": {
				"create(string,string,address[],uint256,uint256,address)": "infinite",
				"getPauseConfiguration()": "infinite",
				"getVault()": "infinite",
				"isPoolFromFactory(address)": "1279"
			}
		},
		"methodIdentifiers": {
			"create(string,string,address[],uint256,uint256,address)": "7932c7f3",
			"getPauseConfiguration()": "2da47c40",
			"getVault()": "8d928af8",
			"isPoolFromFactory(address)": "6634b753"
		}
	},
	"abi": [
		{
			"inputs": [
				{
					"internalType": "contract IVault",
					"name": "vault",
					"type": "address"
				}
			],
			"stateMutability": "nonpayable",
			"type": "constructor"
		},
		{
			"anonymous": false,
			"inputs": [
				{
					"indexed": true,
					"internalType": "address",
					"name": "pool",
					"type": "address"
				}
			],
			"name": "PoolCreated",
			"type": "event"
		},
		{
			"inputs": [
				{
					"internalType": "string",
					"name": "name",
					"type": "string"
				},
				{
					"internalType": "string",
					"name": "symbol",
					"type": "string"
				},
				{
					"internalType": "contract IERC20[]",
					"name": "tokens",
					"type": "address[]"
				},
				{
					"internalType": "uint256",
					"name": "amplificationParameter",
					"type": "uint256"
				},
				{
					"internalType": "uint256",
					"name": "swapFeePercentage",
					"type": "uint256"
				},
				{
					"internalType": "address",
					"name": "owner",
					"type": "address"
				}
			],
			"name": "create",
			"outputs": [
				{
					"internalType": "address",
					"name": "",
					"type": "address"
				}
			],
			"stateMutability": "nonpayable",
			"type": "function"
		},
		{
			"inputs": [],
			"name": "getPauseConfiguration",
			"outputs": [
				{
					"internalType": "uint256",
					"name": "pauseWindowDuration",
					"type": "uint256"
				},
				{
					"internalType": "uint256",
					"name": "bufferPeriodDuration",
					"type": "uint256"
				}
			],
			"stateMutability": "view",
			"type": "function"
		},
		{
			"inputs": [],
			"name": "getVault",
			"outputs": [
				{
					"internalType": "contract IVault",
					"name": "",
					"type": "address"
				}
			],
			"stateMutability": "view",
			"type": "function"
		},
		{
			"inputs": [
				{
					"internalType": "address",
					"name": "pool",
					"type": "address"
				}
			],
			"name": "isPoolFromFactory",
			"outputs": [
				{
					"internalType": "bool",
					"name": "",
					"type": "bool"
				}
			],
			"stateMutability": "view",
			"type": "function"
		}
	]
}