{
	"data": {
		"bytecode": {
			"linkReferences": {},
			"object": "6101406040523480156200001257600080fd5b5060405162008033380380620080338339810160408190526200003591620001c3565b80604051806020016200004890620001b5565b601f1982820381018352601f909101166040528051819060006002820460a081905280830360e0819052818552909150836200009081620000f9602090811b6200026917901c565b60601b6001600160601b0319166080528285018051838252620000bf82620000f9602090811b6200026917901c565b6001600160601b0319606091821b811660c0529690935290529590951b90911661010052505050426276a700016101205250620001f39050565b80517f602038038060206000396000f3fefefefefefefefefefefefefefefefefefefe808352600091602081018484f09084529150620001476001600160a01b03831615156101ac6200014d565b50919050565b816200015e576200015e8162000162565b5050565b62461bcd60e51b6000908152602060045260076024526642414c23000030600a808404818106603090810160081b95839006959095019082900491820690940160101b939093010160c81b604452606490fd5b6173ba8062000c7983390190565b600060208284031215620001d5578081fd5b81516001600160a01b0381168114620001ec578182fd5b9392505050565b60805160601c60a05160c05160601c60e0516101005160601c61012051610a246200025560003980610163528061018c5250806102475250806102c352508061013a528061033f5250806102e4525080610119528061031b5250610a246000f3fe608060405234801561001057600080fd5b50600436106100615760003560e01c8062c194db14610066578063174481fa146100845780632da47c401461009a5780636634b753146100b057806380773a93146100d05780638d928af8146100f0575b600080fd5b61006e6100f8565b60405161007b919061088e565b60405180910390f35b61008c610117565b60405161007b929190610869565b6100a261015d565b60405161007b929190610975565b6100c36100be366004610688565b6101c7565b60405161007b9190610883565b6100e36100de3660046106a4565b6101e5565b60405161007b9190610855565b6100e3610245565b6060610112604051806020016040528060008152506102bb565b905090565b7f00000000000000000000000000000000000000000000000000000000000000007f00000000000000000000000000000000000000000000000000000000000000009091565b600080427f00000000000000000000000000000000000000000000000000000000000000008110156101b957807f000000000000000000000000000000000000000000000000000000000000000003925062278d0091506101c2565b60009250600091505b509091565b6001600160a01b031660009081526020819052604090205460ff1690565b60008060006101f261015d565b91509150610237610201610245565b8b8b8b8b8b8b89898d6040516020016102239a999897969594939291906108a1565b604051602081830303815290604052610394565b9a9950505050505050505050565b7f000000000000000000000000000000000000000000000000000000000000000090565b80517f602038038060206000396000f3fefefefefefefefefefefefefefefefefefefe808352600091602081018484f090845291506102b56001600160a01b03831615156101ac6103f4565b50919050565b8051604080517f00000000000000000000000000000000000000000000000000000000000000007f0000000000000000000000000000000000000000000000000000000000000000818101858101848101602090810190965280855293957f00000000000000000000000000000000000000000000000000000000000000009592947f000000000000000000000000000000000000000000000000000000000000000094938801866000828a3c846000888301883c5060208981019089850101610386818386610406565b505050505050505050919050565b6000806103a083610444565b6001600160a01b038116600081815260208190526040808220805460ff191660011790555192935090917f83a48fbcfc991335314e74d0496aab6a1987e992ddc85dddbcc4d6dd6ef2e9fc9190a292915050565b81610402576104028161047f565b5050565b5b60208110610426578151835260209283019290910190601f1901610407565b905182516020929092036101000a6000190180199091169116179052565b60006060610451836102bb565b905060008151602083016000f090506001600160a01b038116610478573d6000803e3d6000fd5b9392505050565b62461bcd60e51b6000908152602060045260076024526642414c23000030600a808404818106603090810160081b95839006959095019082900491820690940160101b939093010160c81b604452606490fd5b80356104dd816109d6565b92915050565b600082601f8301126104f3578081fd5b8135610506610501826109aa565b610983565b81815291506020808301908481018184028601820187101561052757600080fd5b60005b8481101561054f57813561053d816109d6565b8452928201929082019060010161052a565b505050505092915050565b600082601f83011261056a578081fd5b8135610578610501826109aa565b81815291506020808301908481018184028601820187101561059957600080fd5b60005b8481101561054f5781356105af816109d6565b8452928201929082019060010161059c565b600082601f8301126105d1578081fd5b81356105df610501826109aa565b81815291506020808301908481018184028601820187101561060057600080fd5b60005b8481101561054f57813584529282019290820190600101610603565b600082601f83011261062f578081fd5b813567ffffffffffffffff811115610645578182fd5b610658601f8201601f1916602001610983565b915080825283602082850101111561066f57600080fd5b8060208401602084013760009082016020015292915050565b600060208284031215610699578081fd5b8135610478816109d6565b600080600080600080600060e0888a0312156106be578283fd5b873567ffffffffffffffff808211156106d5578485fd5b6106e18b838c0161061f565b985060208a01359150808211156106f6578485fd5b6107028b838c0161061f565b975060408a0135915080821115610717578485fd5b6107238b838c0161055a565b965060608a0135915080821115610738578485fd5b6107448b838c016105c1565b955060808a0135915080821115610759578485fd5b506107668a828b016104e3565b93505060a0880135915061077d8960c08a016104d2565b905092959891949750929550565b6001600160a01b03169052565b6000815180845260208085019450808401835b838110156107d05781516001600160a01b0316875295820195908201906001016107ab565b509495945050505050565b6000815180845260208085019450808401835b838110156107d0578151875295820195908201906001016107ee565b60008151808452815b8181101561082f57602081850181015186830182015201610813565b818111156108405782602083870101525b50601f01601f19169290920160200192915050565b6001600160a01b0391909116815260200190565b6001600160a01b0392831681529116602082015260400190565b901515815260200190565b600060208252610478602083018461080a565b6001600160a01b038b1681526101406020808301829052600091906108c88483018e61080a565b915083820360408501526108dc828d61080a565b84810360608601528b51808252828d01935090820190845b818110156109185761090685516109ca565b835293830193918301916001016108f4565b5050848103608086015261092c818c6107db565b9250505082810360a08401526109428189610798565b9150508560c08301528460e08301528361010083015261096661012083018461078b565b9b9a5050505050505050505050565b918252602082015260400190565b60405181810167ffffffffffffffff811182821017156109a257600080fd5b604052919050565b600067ffffffffffffffff8211156109c0578081fd5b5060209081020190565b6001600160a01b031690565b6001600160a01b03811681146109eb57600080fd5b5056fea264697066735822122025ef8736fdec74793a46c5921d144b72aa6f53cfc45fe76f14d4d7e21b59419164736f6c634300070100336109806040527f6e71edae12b1b97f4d1f60370fef10105fa2faae0126114a169c64845d6126c9610120523480156200003757600080fd5b50604051620073ba380380620073ba8339810160408190526200005a91620013e5565b8989898988888888888886516002146200007657600162000079565b60025b8989898989898989828289898180604051806040016040528060018152602001603160f81b815250848489336001600160a01b031660001b806080818152505050806001600160a01b031660a0816001600160a01b031660601b81525050508160039080519060200190620000f09291906200113e565b508051620001069060049060208401906200113e565b50506005805460ff1916601217905550815160209283012060c052805191012060e05250507f8b73c3c69bb8fe3d512ecc4cf759cc79239f7b179b0ffacaa9a75d522b39400f6101005250620001656276a70083111561019462000ea7565b6200017962278d0082111561019562000ea7565b42909101610140819052016101605285516200019b906002111560c862000ea7565b620001b5620001a962000ebc565b8751111560c962000ea7565b620001cb8662000ec160201b62000d9e1760201c565b620001d68462000ecd565b6040516309b2760f60e01b81526000906001600160a01b038c16906309b2760f9062000207908d90600401620015c6565b602060405180830381600087803b1580156200022257600080fd5b505af115801562000237573d6000803e3d6000fd5b505050506040513d601f19601f820116820180604052508101906200025d9190620013cc565b604051633354e3e960e11b81529091506001600160a01b038c16906366a9c7d290620002929084908b908b906004016200152a565b600060405180830381600087803b158015620002ad57600080fd5b505af1158015620002c2573d6000803e3d6000fd5b505050508a6001600160a01b0316610180816001600160a01b031660601b81525050806101a0818152505050505050505050505050505050505050505050506000875190506200031f81885162000f5960201b62000da81760201c565b6101c081905260008080805b848160ff161015620003aa5760008b8260ff16815181106200034957fe5b6020026020010151905062000371662386f26fc1000082101561012e62000ea760201b60201c565b6200038b818662000f6860201b62000db51790919060201c565b945082811115620003a0578160ff1693508092505b506001016200032b565b50620003c3670de0b6b3a7640000841461013462000ea7565b6106e082905289518a90600090620003d757fe5b6020026020010151610700818152505089600181518110620003f557fe5b6020026020010151610720818152505060028411620004165760006200042d565b896002815181106200042457fe5b60200260200101515b61074052600384116200044257600062000459565b896003815181106200045057fe5b60200260200101515b61076052600484116200046e57600062000485565b896004815181106200047c57fe5b60200260200101515b61078052600584116200049a576000620004b1565b89600581518110620004a857fe5b60200260200101515b6107a05260068411620004c6576000620004dd565b89600681518110620004d457fe5b60200260200101515b6107c05260078411620004f257600062000509565b896007815181106200050057fe5b60200260200101515b6107e052600884116200051e57600062000535565b896008815181106200052c57fe5b60200260200101515b61080052600984116200054a57600062000561565b896009815181106200055857fe5b60200260200101515b61082052600a8411620005765760006200058d565b89600a815181106200058457fe5b60200260200101515b61084052600b8411620005a2576000620005b9565b89600b81518110620005b057fe5b60200260200101515b61086052600c8411620005ce576000620005e5565b89600c81518110620005dc57fe5b60200260200101515b61088052600d8411620005fa57600062000611565b89600d815181106200060857fe5b60200260200101515b6108a052600e8411620006265760006200063d565b89600e815181106200063457fe5b60200260200101515b6108c052600f84116200065257600062000669565b89600f815181106200066057fe5b60200260200101515b6108e052601084116200067e57600062000695565b896010815181106200068c57fe5b60200260200101515b6109005260118411620006aa576000620006c1565b89601181518110620006b857fe5b60200260200101515b6109205260128411620006d6576000620006ed565b89601281518110620006e457fe5b60200260200101515b61094052601384116200070257600062000719565b896013815181106200071057fe5b60200260200101515b610960528a518b906000906200072b57fe5b60200260200101516001600160a01b03166101e0816001600160a01b031660601b815250508a6001815181106200075e57fe5b60200260200101516001600160a01b0316610200816001600160a01b031660601b815250506002841162000794576000620007ab565b8a600281518110620007a257fe5b60200260200101515b60601b6001600160601b0319166102205260038411620007cd576000620007e4565b8a600381518110620007db57fe5b60200260200101515b60601b6001600160601b0319166102405260048411620008065760006200081d565b8a6004815181106200081457fe5b60200260200101515b60601b6001600160601b03191661026052600584116200083f57600062000856565b8a6005815181106200084d57fe5b60200260200101515b60601b6001600160601b0319166102805260068411620008785760006200088f565b8a6006815181106200088657fe5b60200260200101515b60601b6001600160601b0319166102a05260078411620008b1576000620008c8565b8a600781518110620008bf57fe5b60200260200101515b60601b6001600160601b0319166102c05260088411620008ea57600062000901565b8a600881518110620008f857fe5b60200260200101515b60601b6001600160601b0319166102e05260098411620009235760006200093a565b8a6009815181106200093157fe5b60200260200101515b60601b6001600160601b03191661030052600a84116200095c57600062000973565b8a600a815181106200096a57fe5b60200260200101515b60601b6001600160601b03191661032052600b841162000995576000620009ac565b8a600b81518110620009a357fe5b60200260200101515b60601b6001600160601b03191661034052600c8411620009ce576000620009e5565b8a600c81518110620009dc57fe5b60200260200101515b60601b6001600160601b03191661036052600d841162000a0757600062000a1e565b8a600d8151811062000a1557fe5b60200260200101515b60601b6001600160601b03191661038052600e841162000a4057600062000a57565b8a600e8151811062000a4e57fe5b60200260200101515b60601b6001600160601b0319166103a052600f841162000a7957600062000a90565b8a600f8151811062000a8757fe5b60200260200101515b60601b6001600160601b0319166103c0526010841162000ab257600062000ac9565b8a60108151811062000ac057fe5b60200260200101515b60601b6001600160601b0319166103e0526011841162000aeb57600062000b02565b8a60118151811062000af957fe5b60200260200101515b60601b6001600160601b031916610400526012841162000b2457600062000b3b565b8a60128151811062000b3257fe5b60200260200101515b60601b6001600160601b031916610420526013841162000b5d57600062000b74565b8a60138151811062000b6b57fe5b60200260200101515b6001600160a01b0316610440816001600160a01b031660601b8152505062000bb78b60008151811062000ba357fe5b602002602001015162000f8560201b60201c565b610460528a5162000bd0908c90600190811062000ba357fe5b610480526002841162000be557600062000bf7565b62000bf78b60028151811062000ba357fe5b6104a0526003841162000c0c57600062000c1e565b62000c1e8b60038151811062000ba357fe5b6104c0526004841162000c3357600062000c45565b62000c458b60048151811062000ba357fe5b6104e0526005841162000c5a57600062000c6c565b62000c6c8b60058151811062000ba357fe5b610500526006841162000c8157600062000c93565b62000c938b60068151811062000ba357fe5b610520526007841162000ca857600062000cba565b62000cba8b60078151811062000ba357fe5b610540526008841162000ccf57600062000ce1565b62000ce18b60088151811062000ba357fe5b610560526009841162000cf657600062000d08565b62000d088b60098151811062000ba357fe5b61058052600a841162000d1d57600062000d2f565b62000d2f8b600a8151811062000ba357fe5b6105a052600b841162000d4457600062000d56565b62000d568b600b8151811062000ba357fe5b6105c052600c841162000d6b57600062000d7d565b62000d7d8b600c8151811062000ba357fe5b6105e052600d841162000d9257600062000da4565b62000da48b600d8151811062000ba357fe5b61060052600e841162000db957600062000dcb565b62000dcb8b600e8151811062000ba357fe5b61062052600f841162000de057600062000df2565b62000df28b600f8151811062000ba357fe5b610640526010841162000e0757600062000e19565b62000e198b60108151811062000ba357fe5b610660526011841162000e2e57600062000e40565b62000e408b60118151811062000ba357fe5b610680526012841162000e5557600062000e67565b62000e678b60128151811062000ba357fe5b6106a0526013841162000e7c57600062000e8e565b62000e8e8b60138151811062000ba357fe5b6106c052506200164d9c50505050505050505050505050565b8162000eb85762000eb88162001031565b5050565b601490565b8062000eb88162001084565b62000ee264e8d4a5100082101560cb62000ea7565b62000efa67016345785d8a000082111560ca62000ea7565b62000f198160c06008546200111160201b62000dc7179092919060201c565b6008556040517fa9ba3ffe0b6c366b81232caab38605a0699ad5398d6cce76f91ee809e322dafc9062000f4e908390620015db565b60405180910390a150565b62000eb8828214606762000ea7565b600082820162000f7c848210158362000ea7565b90505b92915050565b600080826001600160a01b031663313ce5676040518163ffffffff1660e01b815260040160206040518083038186803b15801562000fc257600080fd5b505afa15801562000fd7573d6000803e3d6000fd5b505050506040513d601f19601f8201168201806040525081019062000ffd919062001507565b60ff16905060006200101c6012836200112660201b62000ddc1760201c565b600a0a670de0b6b3a764000002949350505050565b62461bcd60e51b6000908152602060045260076024526642414c23000030600a808404818106603090810160081b95839006959095019082900491820690940160101b939093010160c81b604452606490fd5b60028151101562001095576200110e565b600081600081518110620010a557fe5b602002602001015190506000600190505b82518110156200110b576000838281518110620010cf57fe5b6020026020010151905062001100816001600160a01b0316846001600160a01b031610606562000ea760201b60201c565b9150600101620010b6565b50505b50565b6001600160401b03811b1992909216911b1790565b60006200113883831115600162000ea7565b50900390565b828054600181600116156101000203166002900490600052602060002090601f016020900481019282601f106200118157805160ff1916838001178555620011b1565b82800160010185558215620011b1579182015b82811115620011b157825182559160200191906001019062001194565b50620011bf929150620011c3565b5090565b5b80821115620011bf5760008155600101620011c4565b805162000f7f8162001637565b600082601f830112620011f8578081fd5b81516200120f62001209826200160b565b620015e4565b8181529150602080830190848101818402860182018710156200123157600080fd5b60005b848110156200125d5781516200124a8162001637565b8452928201929082019060010162001234565b505050505092915050565b600082601f83011262001279578081fd5b81516200128a62001209826200160b565b818152915060208083019084810181840286018201871015620012ac57600080fd5b60005b848110156200125d578151620012c58162001637565b84529282019290820190600101620012af565b600082601f830112620012e9578081fd5b8151620012fa62001209826200160b565b8181529150602080830190848101818402860182018710156200131c57600080fd5b60005b848110156200125d578151845292820192908201906001016200131f565b600082601f8301126200134e578081fd5b81516001600160401b0381111562001364578182fd5b60206200137a601f8301601f19168201620015e4565b925081835284818386010111156200139157600080fd5b60005b82811015620013b157848101820151848201830152810162001394565b82811115620013c35760008284860101525b50505092915050565b600060208284031215620013de578081fd5b5051919050565b6000806000806000806000806000806101408b8d03121562001405578586fd5b620014118c8c620011da565b60208c0151909a506001600160401b03808211156200142e578788fd5b6200143c8e838f016200133d565b9a5060408d015191508082111562001452578788fd5b620014608e838f016200133d565b995060608d015191508082111562001476578788fd5b620014848e838f0162001268565b985060808d01519150808211156200149a578788fd5b620014a88e838f01620012d8565b975060a08d0151915080821115620014be578687fd5b50620014cd8d828e01620011e7565b95505060c08b0151935060e08b015192506101008b01519150620014f68c6101208d01620011da565b90509295989b9194979a5092959850565b60006020828403121562001519578081fd5b815160ff8116811462000f7c578182fd5b60006060820185835260206060818501528186518084526080860191508288019350845b8181101562001576576200156385516200162b565b835293830193918301916001016200154e565b505084810360408601528551808252908201925081860190845b81811015620015b857620015a583516200162b565b8552938301939183019160010162001590565b509298975050505050505050565b6020810160038310620015d557fe5b91905290565b90815260200190565b6040518181016001600160401b03811182821017156200160357600080fd5b604052919050565b60006001600160401b0382111562001621578081fd5b5060209081020190565b6001600160a01b031690565b6001600160a01b03811681146200110e57600080fd5b60805160a05160601c60c05160e051610100516101205161014051610160516101805160601c6101a0516101c0516101e05160601c6102005160601c6102205160601c6102405160601c6102605160601c6102805160601c6102a05160601c6102c05160601c6102e05160601c6103005160601c6103205160601c6103405160601c6103605160601c6103805160601c6103a05160601c6103c05160601c6103e05160601c6104005160601c6104205160601c6104405160601c61046051610480516104a0516104c0516104e05161050051610520516105405161056051610580516105a0516105c0516105e05161060051610620516106405161066051610680516106a0516106c0516106e05161070051610720516107405161076051610780516107a0516107c0516107e05161080051610820516108405161086051610880516108a0516108c0516108e0516109005161092051610940516109605161592162001a9960003980612c145280613907525080612bd152806138a6525080612b8e5280613845525080612b4b52806137e4525080612b085280613783525080612ac55280613722525080612a8252806136c1525080612a3f52806136605250806129fc52806135ff5250806129b9528061359e525080612976528061353d52508061293352806134dc5250806128f0528061347b5250806128ad528061341a52508061286a52806133b952508061282752806133585250806127e452806132f75250806127a1528061329652508061275e528061323552508061271b52806131d45250806125685250806114cd52806123d752508061148a5280612376525080611447528061231552508061140452806122b45250806113c1528061225352508061137e52806121f252508061133b52806121915250806112f852806121305250806112b552806120cf525080611272528061206e52508061122f528061200d5250806111ec5280611fac5250806111a95280611f4b5250806111665280611eea5250806111235280611e895250806110e05280611e2852508061109d5280611dc752508061105a5280611d665250806110175280611d05525080610fc65280611ca452508061239c52806138cc52508061233b528061386b5250806122da528061380a52508061227952806137a952508061221852806137485250806121b752806136e752508061215652806136865250806120f5528061362552508061209452806135c45250806120335280613563525080611fd25280613502525080611f7152806134a1525080611f105280613440525080611eaf52806133df525080611e4e528061337e525080611ded528061331d525080611d8c52806132bc525080611d2b528061325b525080611cca52806131fa525080611c695280613199525080611824525080610609525080610872525080610f49525080610f25525080610b315250806115fd52508061163f52508061161e52508061084e5250806107d852506159216000f3fe608060405234801561001057600080fd5b50600436106102065760003560e01c806374f3b0091161011a5780639d2c110c116100ad578063c0ff1a151161007c578063c0ff1a151461041c578063d505accf14610424578063d5c096c414610437578063dd62ed3e1461044a578063f89f27ed1461045d57610206565b80639d2c110c146103db578063a457c2d7146103ee578063a9059cbb14610401578063aaabadc51461041457610206565b8063893d20e8116100e9578063893d20e8146103ae5780638d928af8146103c357806395d89b41146103cb5780639b02cdde146103d357610206565b806374f3b009146103545780637ecebe0014610375578063851c1bb31461038857806387ec68171461039b57610206565b80633644e5151161019d57806350dd6ed91161016c57806350dd6ed9146102fd57806355c67628146103105780636028bfd414610318578063679aefce1461033957806370a082311461034157610206565b80633644e515146102c757806338e9922e146102cf57806338fff2d0146102e257806339509351146102ea57610206565b80631c0de051116101d95780631c0de051146102735780631dd746ea1461028a57806323b872dd1461029f578063313ce567146102b257610206565b806306fdde031461020b578063095ea7b31461022957806316c38b3c1461024957806318160ddd1461025e575b600080fd5b610213610465565b604051610220919061583c565b60405180910390f35b61023c610237366004615118565b6104fc565b6040516102209190615743565b61025c61025736600461520e565b610513565b005b610266610527565b6040516102209190615766565b61027b61052d565b6040516102209392919061574e565b610292610556565b604051610220919061570b565b61023c6102ad366004615063565b610565565b6102ba6105db565b6040516102209190615868565b6102666105e4565b61025c6102dd3660046155d7565b6105ee565b610266610607565b61023c6102f8366004615118565b61062b565b61025c61030b366004615386565b610666565b610266610684565b61032b610326366004615246565b610695565b60405161022092919061584f565b6102666106cc565b61026661034f36600461500f565b6106f7565b610367610362366004615246565b610716565b60405161022092919061571e565b61026661038336600461500f565b6107b9565b610266610396366004615342565b6107d4565b61032b6103a9366004615246565b610826565b6103b661084c565b60405161022091906156f7565b6103b6610870565b610213610894565b6102666108f5565b6102666103e93660046154dc565b6108fb565b61023c6103fc366004615118565b6109e2565b61023c61040f366004615118565b610a20565b6103b6610a2d565b610266610a37565b61025c6104323660046150a3565b610afc565b610367610445366004615246565b610c45565b61026661045836600461502b565b610d69565b610292610d94565b60038054604080516020601f60026000196101006001881615020190951694909404938401819004810282018101909252828152606093909290918301828280156104f15780601f106104c6576101008083540402835291602001916104f1565b820191906000526020600020905b8154815290600101906020018083116104d457829003601f168201915b505050505090505b90565b6000610509338484610df2565b5060015b92915050565b61051b610e5a565b61052481610e88565b50565b60025490565b600080600061053a610f06565b159250610545610f23565b915061054f610f47565b9050909192565b6060610560610f6b565b905090565b6000806105728533610d69565b9050610596336001600160a01b038716148061058e5750838210155b61019e61150b565b6105a1858585611519565b336001600160a01b038616148015906105bc57506000198114155b156105ce576105ce8533858403610df2565b60019150505b9392505050565b60055460ff1690565b60006105606115f9565b6105f6610e5a565b6105fe611696565b610524816116ab565b7f000000000000000000000000000000000000000000000000000000000000000090565b3360008181526001602090815260408083206001600160a01b038716845290915281205490916105099185906106619086610db5565b610df2565b61066e610e5a565b610676611696565b6106808282611716565b5050565b6008546000906105609060c0611815565b600060606106ab86516106a6611822565b610da8565b6106c08989898989898961184661191561197b565b97509795505050505050565b60006105606106d9610527565b6106f16106e4610a37565b6106ec611822565b611a9e565b90611ac2565b6001600160a01b0381166000908152602081905260409020545b919050565b60608088610740610725610870565b6001600160a01b0316336001600160a01b03161460cd61150b565b61075561074b610607565b82146101f461150b565b606061075f610f6b565b905061076b8882611b13565b60006060806107808e8e8e8e8e8e8a8f611846565b9250925092506107908d84611b74565b61079a8285611915565b6107a48185611915565b909550935050505b5097509795505050505050565b6001600160a01b031660009081526006602052604090205490565b60007f0000000000000000000000000000000000000000000000000000000000000000826040516020016108099291906156b4565b604051602081830303815290604052805190602001209050919050565b6000606061083786516106a6611822565b6106c089898989898989611b7e611c0461197b565b7f000000000000000000000000000000000000000000000000000000000000000090565b7f000000000000000000000000000000000000000000000000000000000000000090565b60048054604080516020601f60026000196101006001881615020190951694909404938401819004810282018101909252828152606093909290918301828280156104f15780601f106104c6576101008083540402835291602001916104f1565b60095490565b60008061090b8560200151611c65565b9050600061091c8660400151611c65565b905060008651600181111561092d57fe5b1415610993576109408660600151612406565b606087015261094f8583612427565b945061095b8482612427565b935061096b866060015183612427565b6060870152600061097d878787612433565b9050610989818361246e565b93505050506105d4565b61099d8583612427565b94506109a98482612427565b93506109b9866060015182612427565b606087015260006109cb87878761247a565b90506109d781846124ad565b9050610989816124b9565b6000806109ef3385610d69565b9050808310610a0957610a0433856000610df2565b610a16565b610a163385858403610df2565b5060019392505050565b6000610509338484611519565b60006105606124df565b60006060610a43610870565b6001600160a01b031663f94d4668610a59610607565b6040518263ffffffff1660e01b8152600401610a759190615766565b60006040518083038186803b158015610a8d57600080fd5b505afa158015610aa1573d6000803e3d6000fd5b505050506040513d6000823e601f3d908101601f19168201604052610ac99190810190615143565b50915050610ade81610ad9610f6b565b611b13565b6060610ae8612559565b509050610af5818361258d565b9250505090565b610b0a8442111560d161150b565b6001600160a01b0387166000908152600660209081526040808320549051909291610b61917f0000000000000000000000000000000000000000000000000000000000000000918c918c918c9188918d910161578e565b6040516020818303038152906040528051906020012090506000610b84826125ff565b9050600060018288888860405160008152602001604052604051610bab949392919061581e565b6020604051602081039080840390855afa158015610bcd573d6000803e3d6000fd5b5050604051601f1901519150610c0f90506001600160a01b03821615801590610c0757508b6001600160a01b0316826001600160a01b0316145b6101f861150b565b6001600160a01b038b166000908152600660205260409020600185019055610c388b8b8b610df2565b5050505050505050505050565b60608088610c54610725610870565b610c5f61074b610607565b6060610c69610f6b565b9050610c73610527565b610d195760006060610c888d8d8d868b61261b565b91509150610c9d620f424083101560cc61150b565b610cab6000620f42406126b6565b610cba8b620f424084036126b6565b610cc48184611c04565b80610ccd611822565b6001600160401b0381118015610ce257600080fd5b50604051908082528060200260200182016040528015610d0c578160200160208202803683370190505b50955095505050506107ac565b610d238882611b13565b6000606080610d388e8e8e8e8e8e8a8f611b7e565b925092509250610d488c846126b6565b610d528285611c04565b610d5c8185611915565b90955093506107ac915050565b6001600160a01b03918216600090815260016020908152604080832093909416825291909152205490565b60606105606126c0565b8061068081612c40565b610680818314606761150b565b60008282016105d4848210158361150b565b6001600160401b03811b1992909216911b1790565b6000610dec83831115600161150b565b50900390565b6001600160a01b0380841660008181526001602090815260408083209487168084529490915290819020849055517f8c5be1e5ebec7d5bd14f71427d1e84f3dd0314c0f7b2291e5b200ac8c7c3b92590610e4d908590615766565b60405180910390a3505050565b6000610e716000356001600160e01b0319166107d4565b9050610524610e808233612cb9565b61019161150b565b8015610ea857610ea3610e99610f23565b421061019361150b565b610ebd565b610ebd610eb3610f47565b42106101a961150b565b6007805460ff19168215151790556040517f9e3a5e37224532dea67b89face185703738a228a6e8a23dee546960180d3be6490610efb908390615743565b60405180910390a150565b6000610f10610f47565b42118061056057505060075460ff161590565b7f000000000000000000000000000000000000000000000000000000000000000090565b7f000000000000000000000000000000000000000000000000000000000000000090565b60606000610f77611822565b90506060816001600160401b0381118015610f9157600080fd5b50604051908082528060200260200182016040528015610fbb578160200160208202803683370190505b5090508115611003577f000000000000000000000000000000000000000000000000000000000000000081600081518110610ff257fe5b60200260200101818152505061100c565b91506104f99050565b6001821115611003577f00000000000000000000000000000000000000000000000000000000000000008160018151811061104357fe5b6020026020010181815250506002821115611003577f00000000000000000000000000000000000000000000000000000000000000008160028151811061108657fe5b6020026020010181815250506003821115611003577f0000000000000000000000000000000000000000000000000000000000000000816003815181106110c957fe5b6020026020010181815250506004821115611003577f00000000000000000000000000000000000000000000000000000000000000008160048151811061110c57fe5b6020026020010181815250506005821115611003577f00000000000000000000000000000000000000000000000000000000000000008160058151811061114f57fe5b6020026020010181815250506006821115611003577f00000000000000000000000000000000000000000000000000000000000000008160068151811061119257fe5b6020026020010181815250506007821115611003577f0000000000000000000000000000000000000000000000000000000000000000816007815181106111d557fe5b6020026020010181815250506008821115611003577f00000000000000000000000000000000000000000000000000000000000000008160088151811061121857fe5b6020026020010181815250506009821115611003577f00000000000000000000000000000000000000000000000000000000000000008160098151811061125b57fe5b602002602001018181525050600a821115611003577f000000000000000000000000000000000000000000000000000000000000000081600a8151811061129e57fe5b602002602001018181525050600b821115611003577f000000000000000000000000000000000000000000000000000000000000000081600b815181106112e157fe5b602002602001018181525050600c821115611003577f000000000000000000000000000000000000000000000000000000000000000081600c8151811061132457fe5b602002602001018181525050600d821115611003577f000000000000000000000000000000000000000000000000000000000000000081600d8151811061136757fe5b602002602001018181525050600e821115611003577f000000000000000000000000000000000000000000000000000000000000000081600e815181106113aa57fe5b602002602001018181525050600f821115611003577f000000000000000000000000000000000000000000000000000000000000000081600f815181106113ed57fe5b6020026020010181815250506010821115611003577f00000000000000000000000000000000000000000000000000000000000000008160108151811061143057fe5b6020026020010181815250506011821115611003577f00000000000000000000000000000000000000000000000000000000000000008160118151811061147357fe5b6020026020010181815250506012821115611003577f0000000000000000000000000000000000000000000000000000000000000000816012815181106114b657fe5b6020026020010181815250506013821115611003577f0000000000000000000000000000000000000000000000000000000000000000816013815181106114f957fe5b60200260200101818152505091505090565b816106805761068081612da9565b6115306001600160a01b038416151561019861150b565b6115476001600160a01b038316151561019961150b565b611552838383611976565b6001600160a01b03831660009081526020819052604090205461157890826101a0612dfc565b6001600160a01b0380851660009081526020819052604080822093909355908416815220546115a79082610db5565b6001600160a01b0380841660008181526020819052604090819020939093559151908516907fddf252ad1be2c89b69c2b068fc378daa952ba7f163c4a11628f55a4df523b3ef90610e4d908590615766565b60007f00000000000000000000000000000000000000000000000000000000000000007f00000000000000000000000000000000000000000000000000000000000000007f0000000000000000000000000000000000000000000000000000000000000000611666612e12565b3060405160200161167b9594939291906157c2565b60405160208183030381529060405280519060200120905090565b6116a96116a1610f06565b61019261150b565b565b6116be64e8d4a5100082101560cb61150b565b6116d467016345785d8a000082111560ca61150b565b6008546116e3908260c0610dc7565b6008556040517fa9ba3ffe0b6c366b81232caab38605a0699ad5398d6cce76f91ee809e322dafc90610efb908390615766565b6000611720610607565b9050600061172c610870565b6001600160a01b031663b05f8e4883866040518363ffffffff1660e01b8152600401611759929190615807565b60806040518083038186803b15801561177157600080fd5b505afa158015611785573d6000803e3d6000fd5b505050506040513d601f19601f820116820180604052508101906117a991906155ef565b604051630639cdb560e21b81529094506001600160a01b03851693506318e736d492506117dd9150859087906004016157ee565b600060405180830381600087803b1580156117f757600080fd5b505af115801561180b573d6000803e3d6000fd5b5050505050505050565b1c6001600160401b031690565b7f000000000000000000000000000000000000000000000000000000000000000090565b600060608060606000611857612559565b91509150611863610f06565b1561189b576000611874838c61258d565b90506118868b8484600954858e612e16565b93506118958b85610ddc612ec6565b506118e6565b6118a3611822565b6001600160401b03811180156118b857600080fd5b506040519080825280602002602001820160405280156118e2578160200160208202803683370190505b5092505b6118f28a838989612f31565b90955093506119028a8584612fa0565b6009555050985098509895505050505050565b60005b611920611822565b8110156119765761195783828151811061193657fe5b602002602001015183838151811061194a57fe5b6020026020010151611ac2565b83828151811061196357fe5b6020908102919091010152600101611918565b505050565b333014611a39576000306001600160a01b031660003660405161199f9291906156cc565b6000604051808303816000865af19150503d80600081146119dc576040519150601f19603f3d011682016040523d82523d6000602084013e6119e1565b606091505b5050905080600081146119f057fe5b60046000803e6000516001600160e01b0319166343adbafb60e01b8114611a1b573d6000803e3d6000fd5b506020600460003e604060205260243d03602460403e601c3d016000f35b6060611a43610f6b565b9050611a4f8782611b13565b60006060611a678c8c8c8c8c8c898d8d63ffffffff16565b5091509150611a7a81848663ffffffff16565b8051601f1982018390526343adbafb603f1983015260200260231982016044820181fd5b60008282026105d4841580611abb575083858381611ab857fe5b04145b600361150b565b6000611ad1821515600461150b565b82611ade5750600061050d565b670de0b6b3a764000083810290611b0190858381611af857fe5b0414600561150b565b828181611b0a57fe5b0491505061050d565b60005b611b1e611822565b81101561197657611b55838281518110611b3457fe5b6020026020010151838381518110611b4857fe5b6020026020010151612fb9565b838281518110611b6157fe5b6020908102919091010152600101611b16565b6106808282612fe5565b6000606080611b8b611696565b60606000611b97612559565b915091506000611ba7838c61258d565b90506060611bbb8c8585600954868f612e16565b9050611bca8c82610ddc612ec6565b60006060611bda8e878d8d6130a1565b91509150611be98e82886130fc565b60095590975095509350505050985098509895505050505050565b60005b611c0f611822565b81101561197657611c46838281518110611c2557fe5b6020026020010151838381518110611c3957fe5b602002602001015161310b565b838281518110611c5257fe5b6020908102919091010152600101611c07565b60007f00000000000000000000000000000000000000000000000000000000000000006001600160a01b0316826001600160a01b03161415611cc857507f0000000000000000000000000000000000000000000000000000000000000000610711565b7f00000000000000000000000000000000000000000000000000000000000000006001600160a01b0316826001600160a01b03161415611d2957507f0000000000000000000000000000000000000000000000000000000000000000610711565b7f00000000000000000000000000000000000000000000000000000000000000006001600160a01b0316826001600160a01b03161415611d8a57507f0000000000000000000000000000000000000000000000000000000000000000610711565b7f00000000000000000000000000000000000000000000000000000000000000006001600160a01b0316826001600160a01b03161415611deb57507f0000000000000000000000000000000000000000000000000000000000000000610711565b7f00000000000000000000000000000000000000000000000000000000000000006001600160a01b0316826001600160a01b03161415611e4c57507f0000000000000000000000000000000000000000000000000000000000000000610711565b7f00000000000000000000000000000000000000000000000000000000000000006001600160a01b0316826001600160a01b03161415611ead57507f0000000000000000000000000000000000000000000000000000000000000000610711565b7f00000000000000000000000000000000000000000000000000000000000000006001600160a01b0316826001600160a01b03161415611f0e57507f0000000000000000000000000000000000000000000000000000000000000000610711565b7f00000000000000000000000000000000000000000000000000000000000000006001600160a01b0316826001600160a01b03161415611f6f57507f0000000000000000000000000000000000000000000000000000000000000000610711565b7f00000000000000000000000000000000000000000000000000000000000000006001600160a01b0316826001600160a01b03161415611fd057507f0000000000000000000000000000000000000000000000000000000000000000610711565b7f00000000000000000000000000000000000000000000000000000000000000006001600160a01b0316826001600160a01b0316141561203157507f0000000000000000000000000000000000000000000000000000000000000000610711565b7f00000000000000000000000000000000000000000000000000000000000000006001600160a01b0316826001600160a01b0316141561209257507f0000000000000000000000000000000000000000000000000000000000000000610711565b7f00000000000000000000000000000000000000000000000000000000000000006001600160a01b0316826001600160a01b031614156120f357507f0000000000000000000000000000000000000000000000000000000000000000610711565b7f00000000000000000000000000000000000000000000000000000000000000006001600160a01b0316826001600160a01b0316141561215457507f0000000000000000000000000000000000000000000000000000000000000000610711565b7f00000000000000000000000000000000000000000000000000000000000000006001600160a01b0316826001600160a01b031614156121b557507f0000000000000000000000000000000000000000000000000000000000000000610711565b7f00000000000000000000000000000000000000000000000000000000000000006001600160a01b0316826001600160a01b0316141561221657507f0000000000000000000000000000000000000000000000000000000000000000610711565b7f00000000000000000000000000000000000000000000000000000000000000006001600160a01b0316826001600160a01b0316141561227757507f0000000000000000000000000000000000000000000000000000000000000000610711565b7f00000000000000000000000000000000000000000000000000000000000000006001600160a01b0316826001600160a01b031614156122d857507f0000000000000000000000000000000000000000000000000000000000000000610711565b7f00000000000000000000000000000000000000000000000000000000000000006001600160a01b0316826001600160a01b0316141561233957507f0000000000000000000000000000000000000000000000000000000000000000610711565b7f00000000000000000000000000000000000000000000000000000000000000006001600160a01b0316826001600160a01b0316141561239a57507f0000000000000000000000000000000000000000000000000000000000000000610711565b7f00000000000000000000000000000000000000000000000000000000000000006001600160a01b0316826001600160a01b031614156123fb57507f0000000000000000000000000000000000000000000000000000000000000000610711565b610711610135612da9565b60008061241b612414610684565b8490613159565b90506105d48382610ddc565b60006105d48383612fb9565b600061243d611696565b6124668361244e8660200151613195565b8461245c8860400151613195565b886060015161392b565b949350505050565b60006105d48383611ac2565b6000612484611696565b612466836124958660200151613195565b846124a38860400151613195565b88606001516139a8565b60006105d4838361310b565b600061050d6124d86124c9610684565b670de0b6b3a764000090610ddc565b839061310b565b60006124e9610870565b6001600160a01b031663aaabadc56040518163ffffffff1660e01b815260040160206040518083038186803b15801561252157600080fd5b505afa158015612535573d6000803e3d6000fd5b505050506040513d601f19601f82011682018060405250810190610560919061536a565b606060006125656126c0565b927f000000000000000000000000000000000000000000000000000000000000000092509050565b670de0b6b3a764000060005b83518110156125ef576125e56125de8583815181106125b457fe5b60200260200101518584815181106125c857fe5b6020026020010151613a1e90919063ffffffff16565b8390612fb9565b9150600101612599565b5061050d6000821161013761150b565b60006126096115f9565b826040516020016108099291906156dc565b60006060612627611696565b600061263284613a6d565b905061264d600082600281111561264557fe5b1460ce61150b565b606061265885613a83565b905061266c612665611822565b8251610da8565b6126768187611b13565b6060612680612559565b509050600061268f828461258d565b9050600061269f826106ec611822565b600992909255509a91995090975050505050505050565b6106808282613a99565b606060006126cc611822565b90506060816001600160401b03811180156126e657600080fd5b50604051908082528060200260200182016040528015612710578160200160208202803683370190505b5090508115611003577f00000000000000000000000000000000000000000000000000000000000000008160008151811061274757fe5b6020026020010181815250506001821115611003577f00000000000000000000000000000000000000000000000000000000000000008160018151811061278a57fe5b6020026020010181815250506002821115611003577f0000000000000000000000000000000000000000000000000000000000000000816002815181106127cd57fe5b6020026020010181815250506003821115611003577f00000000000000000000000000000000000000000000000000000000000000008160038151811061281057fe5b6020026020010181815250506004821115611003577f00000000000000000000000000000000000000000000000000000000000000008160048151811061285357fe5b6020026020010181815250506005821115611003577f00000000000000000000000000000000000000000000000000000000000000008160058151811061289657fe5b6020026020010181815250506006821115611003577f0000000000000000000000000000000000000000000000000000000000000000816006815181106128d957fe5b6020026020010181815250506007821115611003577f00000000000000000000000000000000000000000000000000000000000000008160078151811061291c57fe5b6020026020010181815250506008821115611003577f00000000000000000000000000000000000000000000000000000000000000008160088151811061295f57fe5b6020026020010181815250506009821115611003577f0000000000000000000000000000000000000000000000000000000000000000816009815181106129a257fe5b602002602001018181525050600a821115611003577f000000000000000000000000000000000000000000000000000000000000000081600a815181106129e557fe5b602002602001018181525050600b821115611003577f000000000000000000000000000000000000000000000000000000000000000081600b81518110612a2857fe5b602002602001018181525050600c821115611003577f000000000000000000000000000000000000000000000000000000000000000081600c81518110612a6b57fe5b602002602001018181525050600d821115611003577f000000000000000000000000000000000000000000000000000000000000000081600d81518110612aae57fe5b602002602001018181525050600e821115611003577f000000000000000000000000000000000000000000000000000000000000000081600e81518110612af157fe5b602002602001018181525050600f821115611003577f000000000000000000000000000000000000000000000000000000000000000081600f81518110612b3457fe5b6020026020010181815250506010821115611003577f000000000000000000000000000000000000000000000000000000000000000081601081518110612b7757fe5b6020026020010181815250506011821115611003577f000000000000000000000000000000000000000000000000000000000000000081601181518110612bba57fe5b6020026020010181815250506012821115611003577f000000000000000000000000000000000000000000000000000000000000000081601281518110612bfd57fe5b6020026020010181815250506013821115611003577f0000000000000000000000000000000000000000000000000000000000000000816013815181106114f957fe5b600281511015612c4f57610524565b600081600081518110612c5e57fe5b602002602001015190506000600190505b8251811015611976576000838281518110612c8657fe5b60200260200101519050612caf816001600160a01b0316846001600160a01b031610606561150b565b9150600101612c6f565b600073ba1ba1ba1ba1ba1ba1ba1ba1ba1ba1ba1ba1ba1b612cd861084c565b6001600160a01b031614158015612cf35750612cf383613b27565b15612d1b57612d0061084c565b6001600160a01b0316336001600160a01b031614905061050d565b612d236124df565b6001600160a01b0316639be2a8848484306040518463ffffffff1660e01b8152600401612d529392919061576f565b60206040518083038186803b158015612d6a57600080fd5b505afa158015612d7e573d6000803e3d6000fd5b505050506040513d601f19601f82011682018060405250810190612da2919061522a565b905061050d565b62461bcd60e51b6000908152602060045260076024526642414c23000030600a808404818106603090810160081b95839006959095019082900491820690940160101b939093010160c81b604452606490fd5b6000612e0b848411158361150b565b5050900390565b4690565b606080612e21611822565b6001600160401b0381118015612e3657600080fd5b50604051908082528060200260200182016040528015612e60578160200160208202803683370190505b50905082612e6f579050612ebc565b612ea2888781518110612e7e57fe5b6020026020010151888881518110612e9257fe5b6020026020010151878787613b59565b818781518110612eae57fe5b602090810291909101015290505b9695505050505050565b60005b612ed1611822565b811015612f2b57612f0c848281518110612ee757fe5b6020026020010151848381518110612efb57fe5b60200260200101518463ffffffff16565b848281518110612f1857fe5b6020908102919091010152600101612ec9565b50505050565b600060606000612f4084613a6d565b90506000816002811115612f5057fe5b1415612f6b57612f61878786613bd1565b9250925050612f97565b6001816002811115612f7957fe5b1415612f8957612f618785613cb3565b612f6187878787613ce5565b505b94509492505050565b6000612faf8484610ddc612ec6565b612466828561258d565b6000828202612fd3841580611abb575083858381611ab857fe5b670de0b6b3a764000090049392505050565b612ffc6001600160a01b038316151561019b61150b565b61300882600083611976565b6001600160a01b03821660009081526020819052604090205461302e90826101a1612dfc565b6001600160a01b0383166000908152602081905260409020556002546130549082613d54565b6002556040516000906001600160a01b038416907fddf252ad1be2c89b69c2b068fc378daa952ba7f163c4a11628f55a4df523b3ef90613095908590615766565b60405180910390a35050565b6000606060006130b084613a6d565b905060018160028111156130c057fe5b14156130d257612f6187878787613d62565b60028160028111156130e057fe5b14156130f157612f61878786613dbf565b612f95610136612da9565b6000612faf8484610db5612ec6565b600061311a821515600461150b565b826131275750600061050d565b670de0b6b3a76400008381029061314190858381611af857fe5b82600182038161314d57fe5b0460010191505061050d565b6000828202613173841580611abb575083858381611ab857fe5b8061318257600091505061050d565b670de0b6b3a7640000600019820161314d565b60007f00000000000000000000000000000000000000000000000000000000000000006001600160a01b0316826001600160a01b031614156131f857507f0000000000000000000000000000000000000000000000000000000000000000610711565b7f00000000000000000000000000000000000000000000000000000000000000006001600160a01b0316826001600160a01b0316141561325957507f0000000000000000000000000000000000000000000000000000000000000000610711565b7f00000000000000000000000000000000000000000000000000000000000000006001600160a01b0316826001600160a01b031614156132ba57507f0000000000000000000000000000000000000000000000000000000000000000610711565b7f00000000000000000000000000000000000000000000000000000000000000006001600160a01b0316826001600160a01b0316141561331b57507f0000000000000000000000000000000000000000000000000000000000000000610711565b7f00000000000000000000000000000000000000000000000000000000000000006001600160a01b0316826001600160a01b0316141561337c57507f0000000000000000000000000000000000000000000000000000000000000000610711565b7f00000000000000000000000000000000000000000000000000000000000000006001600160a01b0316826001600160a01b031614156133dd57507f0000000000000000000000000000000000000000000000000000000000000000610711565b7f00000000000000000000000000000000000000000000000000000000000000006001600160a01b0316826001600160a01b0316141561343e57507f0000000000000000000000000000000000000000000000000000000000000000610711565b7f00000000000000000000000000000000000000000000000000000000000000006001600160a01b0316826001600160a01b0316141561349f57507f0000000000000000000000000000000000000000000000000000000000000000610711565b7f00000000000000000000000000000000000000000000000000000000000000006001600160a01b0316826001600160a01b0316141561350057507f0000000000000000000000000000000000000000000000000000000000000000610711565b7f00000000000000000000000000000000000000000000000000000000000000006001600160a01b0316826001600160a01b0316141561356157507f0000000000000000000000000000000000000000000000000000000000000000610711565b7f00000000000000000000000000000000000000000000000000000000000000006001600160a01b0316826001600160a01b031614156135c257507f0000000000000000000000000000000000000000000000000000000000000000610711565b7f00000000000000000000000000000000000000000000000000000000000000006001600160a01b0316826001600160a01b0316141561362357507f0000000000000000000000000000000000000000000000000000000000000000610711565b7f00000000000000000000000000000000000000000000000000000000000000006001600160a01b0316826001600160a01b0316141561368457507f0000000000000000000000000000000000000000000000000000000000000000610711565b7f00000000000000000000000000000000000000000000000000000000000000006001600160a01b0316826001600160a01b031614156136e557507f0000000000000000000000000000000000000000000000000000000000000000610711565b7f00000000000000000000000000000000000000000000000000000000000000006001600160a01b0316826001600160a01b0316141561374657507f0000000000000000000000000000000000000000000000000000000000000000610711565b7f00000000000000000000000000000000000000000000000000000000000000006001600160a01b0316826001600160a01b031614156137a757507f0000000000000000000000000000000000000000000000000000000000000000610711565b7f00000000000000000000000000000000000000000000000000000000000000006001600160a01b0316826001600160a01b0316141561380857507f0000000000000000000000000000000000000000000000000000000000000000610711565b7f00000000000000000000000000000000000000000000000000000000000000006001600160a01b0316826001600160a01b0316141561386957507f0000000000000000000000000000000000000000000000000000000000000000610711565b7f00000000000000000000000000000000000000000000000000000000000000006001600160a01b0316826001600160a01b031614156138ca57507f0000000000000000000000000000000000000000000000000000000000000000610711565b7f00000000000000000000000000000000000000000000000000000000000000006001600160a01b0316826001600160a01b031614156123fb57507f0000000000000000000000000000000000000000000000000000000000000000610711565b600061394d61394287670429d069189e0000612fb9565b83111561013061150b565b60006139598784610db5565b90506000613967888361310b565b905060006139758887611ac2565b905060006139838383613e6b565b905061399861399182613e97565b8990612fb9565b9450505050505b95945050505050565b60006139ca6139bf85670429d069189e0000612fb9565b83111561013161150b565b60006139e06139d98685610ddc565b869061310b565b905060006139ee858861310b565b905060006139fc8383613e6b565b90506000613a1282670de0b6b3a7640000610ddc565b90506139988a82613159565b600080613a2b8484613ebd565b90506000613a45613a3e83612710613159565b6001610db5565b905080821015613a5a5760009250505061050d565b613a648282610ddc565b9250505061050d565b60008180602001905181019061050d91906153d3565b6060818060200190518101906105d49190615498565b613aa560008383611976565b600254613ab29082610db5565b6002556001600160a01b038216600090815260208190526040902054613ad89082610db5565b6001600160a01b0383166000818152602081905260408082209390935591519091907fddf252ad1be2c89b69c2b068fc378daa952ba7f163c4a11628f55a4df523b3ef90613095908590615766565b6000613b39631c74c91760e11b6107d4565b82148061050d5750613b516350dd6ed960e01b6107d4565b909114919050565b6000838311613b6a5750600061399f565b6000613b76858561310b565b90506000613b8c670de0b6b3a764000088611ac2565b9050613ba0826709b6e64a8ec60000613fbe565b91506000613bae8383613e6b565b90506000613bc5613bbe83613e97565b8b90612fb9565b90506139988187612fb9565b60006060613bdd611696565b600080613be985613fd5565b91509150613c01613bf8611822565b8210606461150b565b6060613c0b611822565b6001600160401b0381118015613c2057600080fd5b50604051908082528060200260200182016040528015613c4a578160200160208202803683370190505b509050613c8e888381518110613c5c57fe5b6020026020010151888481518110613c7057fe5b602002602001015185613c81610527565b613c89610684565b613ff7565b818381518110613c9a57fe5b6020908102919091010152919791965090945050505050565b600060606000613cc2846140bd565b90506060613cd88683613cd3610527565b6140d3565b9196919550909350505050565b60006060613cf1611696565b60606000613cfe85614184565b91509150613d0f82516106a6611822565b613d198287611b13565b6000613d36898985613d29610527565b613d31610684565b61419c565b9050613d468282111560cf61150b565b989197509095505050505050565b60006105d483836001612dfc565b60006060806000613d7285614184565b91509150613d88613d81611822565b8351610da8565b613d928287611b13565b6000613daf898985613da2610527565b613daa610684565b6143c9565b9050613d468282101560d061150b565b60006060600080613dcf85613fd5565b91509150613dde613bf8611822565b6060613de8611822565b6001600160401b0381118015613dfd57600080fd5b50604051908082528060200260200182016040528015613e27578160200160208202803683370190505b509050613c8e888381518110613e3957fe5b6020026020010151888481518110613e4d57fe5b602002602001015185613e5e610527565b613e66610684565b6145da565b600080613e788484613ebd565b90506000613e8b613a3e83612710613159565b905061399f8282610db5565b6000670de0b6b3a76400008210613eaf57600061050d565b50670de0b6b3a76400000390565b600081613ed35750670de0b6b3a764000061050d565b82613ee05750600061050d565b613ef1600160ff1b8410600661150b565b82613f17770bce5086492111aea88f4bb1ca6bcf584181ea8059f765328410600761150b565b826000670c7d713b49da000083138015613f385750670f43fc2c04ee000083125b15613f6f576000613f4884614685565b9050670de0b6b3a764000080820784020583670de0b6b3a764000083050201915050613f7d565b81613f79846147a3565b0290505b670de0b6b3a76400009005613fb5680238fd42c5cf03ffff198212801590613fae575068070c1cc73b00c800008213155b600861150b565b612ebc81614b42565b600081831015613fce57816105d4565b5090919050565b60008082806020019051810190613fec9190615462565b909590945092505050565b60008061400e846140088188610ddc565b9061310b565b90506140276709b6e64a8ec6000082101561013261150b565b600061404561403e670de0b6b3a764000089611ac2565b8390613e6b565b9050600061405c61405583613e97565b8a90612fb9565b9050600061406989613e97565b905060006140778383613159565b905060006140858483610ddc565b90506140ad6140a661409f670de0b6b3a76400008b610ddc565b8490612fb9565b8290610db5565b9c9b505050505050505050505050565b6000818060200190518101906105d49190615435565b606060006140e18484611ac2565b9050606085516001600160401b03811180156140fc57600080fd5b50604051908082528060200260200182016040528015614126578160200160208202803683370190505b50905060005b865181101561417a5761415b8388838151811061414557fe5b6020026020010151612fb990919063ffffffff16565b82828151811061416757fe5b602090810291909101015260010161412c565b5095945050505050565b6060600082806020019051810190613fec91906153ef565b6000606084516001600160401b03811180156141b757600080fd5b506040519080825280602002602001820160405280156141e1578160200160208202803683370190505b5090506000805b88518110156142a65761424189828151811061420057fe5b602002602001015161400889848151811061421757fe5b60200260200101518c858151811061422b57fe5b6020026020010151610ddc90919063ffffffff16565b83828151811061424d57fe5b60200260200101818152505061429c61429589838151811061426b57fe5b602002602001015185848151811061427f57fe5b602002602001015161315990919063ffffffff16565b8390610db5565b91506001016141e8565b50670de0b6b3a764000060005b89518110156143a85760008482815181106142ca57fe5b602002602001015184111561432a5760006142f36142e786613e97565b8d858151811061414557fe5b90506000614307828c868151811061422b57fe5b90506143216142956124d8670de0b6b3a76400008c610ddc565b92505050614341565b88828151811061433657fe5b602002602001015190505b600061436a8c848151811061435257fe5b60200260200101516106f1848f878151811061422b57fe5b905061439c6143958c858151811061437e57fe5b602002602001015183613a1e90919063ffffffff16565b8590612fb9565b935050506001016142b3565b506143bc6143b582613e97565b8790613159565b9998505050505050505050565b6000606084516001600160401b03811180156143e457600080fd5b5060405190808252806020026020018201604052801561440e578160200160208202803683370190505b5090506000805b88518110156144b65761446e89828151811061442d57fe5b60200260200101516106f189848151811061444457fe5b60200260200101518c858151811061445857fe5b6020026020010151610db590919063ffffffff16565b83828151811061447a57fe5b6020026020010181815250506144ac61429589838151811061449857fe5b602002602001015185848151811061414557fe5b9150600101614415565b50670de0b6b3a764000060005b8951811015614597576000838583815181106144db57fe5b602002602001015111156145375760006145006142e786670de0b6b3a7640000610ddc565b90506000614514828c868151811061422b57fe5b905061452e6142956125de670de0b6b3a76400008c610ddc565b9250505061454e565b88828151811061454357fe5b602002602001015190505b60006145778c848151811061455f57fe5b60200260200101516106f1848f878151811061445857fe5b905061458b6143958c858151811061437e57fe5b935050506001016144c3565b50670de0b6b3a76400008111156145ce576145c46145bd82670de0b6b3a7640000610ddc565b8790612fb9565b935050505061399f565b6000935050505061399f565b6000806145eb846140088188610db5565b90506146046729a2241af62c000082111561013361150b565b600061461b61403e670de0b6b3a76400008961310b565b9050600061463b61463483670de0b6b3a7640000610ddc565b8a90613159565b9050600061464889613e97565b905060006146568383613159565b905060006146648483610ddc565b90506140ad6140a661467e670de0b6b3a76400008b610ddc565b849061310b565b670de0b6b3a7640000026000806a0c097ce7bc90715b34b9f160241b808401906ec097ce7bc90715b34b9f0fffffffff19850102816146c057fe5b05905060006a0c097ce7bc90715b34b9f160241b82800205905081806a0c097ce7bc90715b34b9f160241b81840205915060038205016a0c097ce7bc90715b34b9f160241b82840205915060058205016a0c097ce7bc90715b34b9f160241b82840205915060078205016a0c097ce7bc90715b34b9f160241b82840205915060098205016a0c097ce7bc90715b34b9f160241b828402059150600b8205016a0c097ce7bc90715b34b9f160241b828402059150600d8205016a0c097ce7bc90715b34b9f160241b828402059150600f826002919005919091010295945050505050565b6000670de0b6b3a76400008212156147df576147d5826a0c097ce7bc90715b34b9f160241b816147cf57fe5b056147a3565b6000039050610711565b60007e1600ef3172e58d2e933ec884fde10064c63b5372d805e203c0000000000000831261483057770195e54c5dd42177f53a27172fa9ec630262827000000000830592506806f05b59d3b2000000015b73011798004d755d3c8bc8e03204cf44619e0000008312614868576b1425982cf597cd205cef7380830592506803782dace9d9000000015b606492830292026e01855144814a7ff805980ff008400083126148b0576e01855144814a7ff805980ff008400068056bc75e2d63100000840205925068ad78ebc5ac62000000015b6b02df0ab5a80a22c61ab5a70083126148eb576b02df0ab5a80a22c61ab5a70068056bc75e2d6310000084020592506856bc75e2d631000000015b693f1fce3da636ea5cf850831261492257693f1fce3da636ea5cf85068056bc75e2d631000008402059250682b5e3af16b18800000015b690127fa27722cc06cc5e2831261495957690127fa27722cc06cc5e268056bc75e2d6310000084020592506815af1d78b58c400000015b68280e60114edb805d03831261498e5768280e60114edb805d0368056bc75e2d631000008402059250680ad78ebc5ac6200000015b680ebc5fb4174612111083126149b957680ebc5fb4174612111068056bc75e2d631000009384020592015b6808f00f760a4b2db55d83126149ee576808f00f760a4b2db55d68056bc75e2d6310000084020592506802b5e3af16b1880000015b6806f5f17757889379378312614a23576806f5f177578893793768056bc75e2d63100000840205925068015af1d78b58c40000015b6806248f33704b2866038312614a57576806248f33704b28660368056bc75e2d63100000840205925067ad78ebc5ac620000015b6805c548670b9510e7ac8312614a8b576805c548670b9510e7ac68056bc75e2d6310000084020592506756bc75e2d6310000015b600068056bc75e2d63100000840168056bc75e2d631000008086030281614aae57fe5b059050600068056bc75e2d63100000828002059050818068056bc75e2d63100000818402059150600382050168056bc75e2d63100000828402059150600582050168056bc75e2d63100000828402059150600782050168056bc75e2d63100000828402059150600982050168056bc75e2d63100000828402059150600b820501600202606485820105979650505050505050565b6000614b71680238fd42c5cf03ffff198312158015614b6a575068070c1cc73b00c800008313155b600961150b565b6000821215614ba457614b8682600003614b42565b6a0c097ce7bc90715b34b9f160241b81614b9c57fe5b059050610711565b60006806f05b59d3b20000008312614be457506806f05b59d3b1ffffff1990910190770195e54c5dd42177f53a27172fa9ec630262827000000000614c1a565b6803782dace9d90000008312614c1657506803782dace9d8ffffff19909101906b1425982cf597cd205cef7380614c1a565b5060015b6064929092029168056bc75e2d6310000068ad78ebc5ac620000008412614c6a5768ad78ebc5ac61ffffff199093019268056bc75e2d631000006e01855144814a7ff805980ff008400082020590505b6856bc75e2d6310000008412614ca6576856bc75e2d630ffffff199093019268056bc75e2d631000006b02df0ab5a80a22c61ab5a70082020590505b682b5e3af16b188000008412614ce057682b5e3af16b187fffff199093019268056bc75e2d63100000693f1fce3da636ea5cf85082020590505b6815af1d78b58c4000008412614d1a576815af1d78b58c3fffff199093019268056bc75e2d63100000690127fa27722cc06cc5e282020590505b680ad78ebc5ac62000008412614d5357680ad78ebc5ac61fffff199093019268056bc75e2d6310000068280e60114edb805d0382020590505b68056bc75e2d631000008412614d8c5768056bc75e2d630fffff199093019268056bc75e2d63100000680ebc5fb4174612111082020590505b6802b5e3af16b18800008412614dc5576802b5e3af16b187ffff199093019268056bc75e2d631000006808f00f760a4b2db55d82020590505b68015af1d78b58c400008412614dfe5768015af1d78b58c3ffff199093019268056bc75e2d631000006806f5f177578893793782020590505b68056bc75e2d631000008481019085906002908280020505918201919050600368056bc75e2d631000008783020505918201919050600468056bc75e2d631000008783020505918201919050600568056bc75e2d631000008783020505918201919050600668056bc75e2d631000008783020505918201919050600768056bc75e2d631000008783020505918201919050600868056bc75e2d631000008783020505918201919050600968056bc75e2d631000008783020505918201919050600a68056bc75e2d631000008783020505918201919050600b68056bc75e2d631000008783020505918201919050600c68056bc75e2d631000008783020505918201919050606468056bc75e2d63100000848402058502059695505050505050565b803561050d816158bb565b600082601f830112614f3a578081fd5b8151614f4d614f488261589c565b615876565b818152915060208083019084810181840286018201871015614f6e57600080fd5b60005b84811015614f8d57815184529282019290820190600101614f71565b505050505092915050565b600082601f830112614fa8578081fd5b81356001600160401b03811115614fbd578182fd5b614fd0601f8201601f1916602001615876565b9150808252836020828501011115614fe757600080fd5b8060208401602084013760009082016020015292915050565b80356002811061050d57600080fd5b600060208284031215615020578081fd5b81356105d4816158bb565b6000806040838503121561503d578081fd5b8235615048816158bb565b91506020830135615058816158bb565b809150509250929050565b600080600060608486031215615077578081fd5b8335615082816158bb565b92506020840135615092816158bb565b929592945050506040919091013590565b600080600080600080600060e0888a0312156150bd578283fd5b87356150c8816158bb565b965060208801356150d8816158bb565b95506040880135945060608801359350608088013560ff811681146150fb578384fd5b9699959850939692959460a0840135945060c09093013592915050565b6000806040838503121561512a578182fd5b8235615135816158bb565b946020939093013593505050565b600080600060608486031215615157578081fd5b83516001600160401b038082111561516d578283fd5b818601915086601f830112615180578283fd5b815161518e614f488261589c565b80828252602080830192508086018b8283870289010111156151ae578788fd5b8796505b848710156151d95780516151c5816158bb565b8452600196909601959281019281016151b2565b5089015190975093505050808211156151f0578283fd5b506151fd86828701614f2a565b925050604084015190509250925092565b60006020828403121561521f578081fd5b81356105d4816158d0565b60006020828403121561523b578081fd5b81516105d4816158d0565b600080600080600080600060e0888a031215615260578081fd5b87359650602080890135615273816158bb565b96506040890135615283816158bb565b955060608901356001600160401b038082111561529e578384fd5b818b0191508b601f8301126152b1578384fd5b81356152bf614f488261589c565b8082825285820191508585018f8788860288010111156152dd578788fd5b8795505b838610156152ff5780358352600195909501949186019186016152e1565b509850505060808b0135955060a08b0135945060c08b0135925080831115615325578384fd5b50506153338a828b01614f98565b91505092959891949750929550565b600060208284031215615353578081fd5b81356001600160e01b0319811681146105d4578182fd5b60006020828403121561537b578081fd5b81516105d4816158bb565b60008060408385031215615398578182fd5b82356153a3816158bb565b915060208301356001600160401b038111156153bd578182fd5b6153c985828601614f98565b9150509250929050565b6000602082840312156153e4578081fd5b81516105d4816158de565b600080600060608486031215615403578081fd5b835161540e816158de565b60208501519093506001600160401b03811115615429578182fd5b6151fd86828701614f2a565b60008060408385031215615447578182fd5b8251615452816158de565b6020939093015192949293505050565b600080600060608486031215615476578081fd5b8351615481816158de565b602085015160409095015190969495509392505050565b600080604083850312156154aa578182fd5b82516154b5816158de565b60208401519092506001600160401b038111156154d0578182fd5b6153c985828601614f2a565b6000806000606084860312156154f0578081fd5b83356001600160401b0380821115615506578283fd5b818601915061012080838903121561551c578384fd5b61552581615876565b90506155318884615000565b81526155408860208501614f1f565b60208201526155528860408501614f1f565b6040820152606083013560608201526080830135608082015260a083013560a08201526155828860c08501614f1f565b60c08201526155948860e08501614f1f565b60e082015261010080840135838111156155ac578586fd5b6155b88a828701614f98565b9183019190915250976020870135975060409096013595945050505050565b6000602082840312156155e8578081fd5b5035919050565b60008060008060808587031215615604578182fd5b8451935060208501519250604085015191506060850151615624816158bb565b939692955090935050565b6000815180845260208085019450808401835b8381101561565e57815187529582019590820190600101615642565b509495945050505050565b60008151808452815b8181101561568e57602081850181015186830182015201615672565b8181111561569f5782602083870101525b50601f01601f19169290920160200192915050565b9182526001600160e01b031916602082015260240190565b6000828483379101908152919050565b61190160f01b81526002810192909252602282015260420190565b6001600160a01b0391909116815260200190565b6000602082526105d4602083018461562f565b600060408252615731604083018561562f565b828103602084015261399f818561562f565b901515815260200190565b92151583526020830191909152604082015260600190565b90815260200190565b9283526001600160a01b03918216602084015216604082015260600190565b9586526001600160a01b0394851660208701529290931660408501526060840152608083019190915260a082015260c00190565b9485526020850193909352604084019190915260608301526001600160a01b0316608082015260a00190565b6000838252604060208301526124666040830184615669565b9182526001600160a01b0316602082015260400190565b93845260ff9290921660208401526040830152606082015260800190565b6000602082526105d46020830184615669565b600083825260406020830152612466604083018461562f565b60ff91909116815260200190565b6040518181016001600160401b038111828210171561589457600080fd5b604052919050565b60006001600160401b038211156158b1578081fd5b5060209081020190565b6001600160a01b038116811461052457600080fd5b801515811461052457600080fd5b6003811061052457600080fdfea2646970667358221220ad89a676e08223eacb720f3460e182cc3ce4485a62120bd1fe64f8928e5e8a5f64736f6c63430007010033",
			"opcodes": "PUSH2 0x140 PUSH1 0x40 MSTORE CALLVALUE DUP1 ISZERO PUSH3 0x12 JUMPI PUSH1 0x0 DUP1 REVERT JUMPDEST POP PUSH1 0x40 MLOAD PUSH3 0x8033 CODESIZE SUB DUP1 PUSH3 0x8033 DUP4 CODECOPY DUP2 ADD PUSH1 0x40 DUP2 SWAP1 MSTORE PUSH3 0x35 SWAP2 PUSH3 0x1C3 JUMP JUMPDEST DUP1 PUSH1 0x40 MLOAD DUP1 PUSH1 0x20 ADD PUSH3 0x48 SWAP1 PUSH3 0x1B5 JUMP JUMPDEST PUSH1 0x1F NOT DUP3 DUP3 SUB DUP2 ADD DUP4 MSTORE PUSH1 0x1F SWAP1 SWAP2 ADD AND PUSH1 0x40 MSTORE DUP1 MLOAD DUP2 SWAP1 PUSH1 0x0 PUSH1 0x2 DUP3 DIV PUSH1 0xA0 DUP2 SWAP1 MSTORE DUP1 DUP4 SUB PUSH1 0xE0 DUP2 SWAP1 MSTORE DUP2 DUP6 MSTORE SWAP1 SWAP2 POP DUP4 PUSH3 0x90 DUP2 PUSH3 0xF9 PUSH1 0x20 SWAP1 DUP2 SHL PUSH3 0x269 OR SWAP1 SHR JUMP JUMPDEST PUSH1 0x60 SHL PUSH1 0x1 PUSH1 0x1 PUSH1 0x60 SHL SUB NOT AND PUSH1 0x80 MSTORE DUP3 DUP6 ADD DUP1 MLOAD DUP4 DUP3 MSTORE PUSH3 0xBF DUP3 PUSH3 0xF9 PUSH1 0x20 SWAP1 DUP2 SHL PUSH3 0x269 OR SWAP1 SHR JUMP JUMPDEST PUSH1 0x1 PUSH1 0x1 PUSH1 0x60 SHL SUB NOT PUSH1 0x60 SWAP2 DUP3 SHL DUP2 AND PUSH1 0xC0 MSTORE SWAP7 SWAP1 SWAP4 MSTORE SWAP1 MSTORE SWAP6 SWAP1 SWAP6 SHL SWAP1 SWAP2 AND PUSH2 0x100 MSTORE POP POP POP TIMESTAMP PUSH3 0x76A700 ADD PUSH2 0x120 MSTORE POP PUSH3 0x1F3 SWAP1 POP JUMP JUMPDEST DUP1 MLOAD PUSH32 0x602038038060206000396000F3FEFEFEFEFEFEFEFEFEFEFEFEFEFEFEFEFEFEFE DUP1 DUP4 MSTORE PUSH1 0x0 SWAP2 PUSH1 0x20 DUP2 ADD DUP5 DUP5 CREATE SWAP1 DUP5 MSTORE SWAP2 POP PUSH3 0x147 PUSH1 0x1 PUSH1 0x1 PUSH1 0xA0 SHL SUB DUP4 AND ISZERO ISZERO PUSH2 0x1AC PUSH3 0x14D JUMP JUMPDEST POP SWAP2 SWAP1 POP JUMP JUMPDEST DUP2 PUSH3 0x15E JUMPI PUSH3 0x15E DUP2 PUSH3 0x162 JUMP JUMPDEST POP POP JUMP JUMPDEST PUSH3 0x461BCD PUSH1 0xE5 SHL PUSH1 0x0 SWAP1 DUP2 MSTORE PUSH1 0x20 PUSH1 0x4 MSTORE PUSH1 0x7 PUSH1 0x24 MSTORE PUSH7 0x42414C23000030 PUSH1 0xA DUP1 DUP5 DIV DUP2 DUP2 MOD PUSH1 0x30 SWAP1 DUP2 ADD PUSH1 0x8 SHL SWAP6 DUP4 SWAP1 MOD SWAP6 SWAP1 SWAP6 ADD SWAP1 DUP3 SWAP1 DIV SWAP2 DUP3 MOD SWAP1 SWAP5 ADD PUSH1 0x10 SHL SWAP4 SWAP1 SWAP4 ADD ADD PUSH1 0xC8 SHL PUSH1 0x44 MSTORE PUSH1 0x64 SWAP1 REVERT JUMPDEST PUSH2 0x73BA DUP1 PUSH3 0xC79 DUP4 CODECOPY ADD SWAP1 JUMP JUMPDEST PUSH1 0x0 PUSH1 0x20 DUP3 DUP5 SUB SLT ISZERO PUSH3 0x1D5 JUMPI DUP1 DUP2 REVERT JUMPDEST DUP2 MLOAD PUSH1 0x1 PUSH1 0x1 PUSH1 0xA0 SHL SUB DUP2 AND DUP2 EQ PUSH3 0x1EC JUMPI DUP2 DUP3 REVERT JUMPDEST SWAP4 SWAP3 POP POP POP JUMP JUMPDEST PUSH1 0x80 MLOAD PUSH1 0x60 SHR PUSH1 0xA0 MLOAD PUSH1 0xC0 MLOAD PUSH1 0x60 SHR PUSH1 0xE0 MLOAD PUSH2 0x100 MLOAD PUSH1 0x60 SHR PUSH2 0x120 MLOAD PUSH2 0xA24 PUSH3 0x255 PUSH1 0x0 CODECOPY DUP1 PUSH2 0x163 MSTORE DUP1 PUSH2 0x18C MSTORE POP DUP1 PUSH2 0x247 MSTORE POP DUP1 PUSH2 0x2C3 MSTORE POP DUP1 PUSH2 0x13A MSTORE DUP1 PUSH2 0x33F MSTORE POP DUP1 PUSH2 0x2E4 MSTORE POP DUP1 PUSH2 0x119 MSTORE DUP1 PUSH2 0x31B MSTORE POP PUSH2 0xA24 PUSH1 0x0 RETURN INVALID PUSH1 0x80 PUSH1 0x40 MSTORE CALLVALUE DUP1 ISZERO PUSH2 0x10 JUMPI PUSH1 0x0 DUP1 REVERT JUMPDEST POP PUSH1 0x4 CALLDATASIZE LT PUSH2 0x61 JUMPI PUSH1 0x0 CALLDATALOAD PUSH1 0xE0 SHR DUP1 PUSH3 0xC194DB EQ PUSH2 0x66 JUMPI DUP1 PUSH4 0x174481FA EQ PUSH2 0x84 JUMPI DUP1 PUSH4 0x2DA47C40 EQ PUSH2 0x9A JUMPI DUP1 PUSH4 0x6634B753 EQ PUSH2 0xB0 JUMPI DUP1 PUSH4 0x80773A93 EQ PUSH2 0xD0 JUMPI DUP1 PUSH4 0x8D928AF8 EQ PUSH2 0xF0 JUMPI JUMPDEST PUSH1 0x0 DUP1 REVERT JUMPDEST PUSH2 0x6E PUSH2 0xF8 JUMP JUMPDEST PUSH1 0x40 MLOAD PUSH2 0x7B SWAP2 SWAP1 PUSH2 0x88E JUMP JUMPDEST PUSH1 0x40 MLOAD DUP1 SWAP2 SUB SWAP1 RETURN JUMPDEST PUSH2 0x8C PUSH2 0x117 JUMP JUMPDEST PUSH1 0x40 MLOAD PUSH2 0x7B SWAP3 SWAP2 SWAP1 PUSH2 0x869 JUMP JUMPDEST PUSH2 0xA2 PUSH2 0x15D JUMP JUMPDEST PUSH1 0x40 MLOAD PUSH2 0x7B SWAP3 SWAP2 SWAP1 PUSH2 0x975 JUMP JUMPDEST PUSH2 0xC3 PUSH2 0xBE CALLDATASIZE PUSH1 0x4 PUSH2 0x688 JUMP JUMPDEST PUSH2 0x1C7 JUMP JUMPDEST PUSH1 0x40 MLOAD PUSH2 0x7B SWAP2 SWAP1 PUSH2 0x883 JUMP JUMPDEST PUSH2 0xE3 PUSH2 0xDE CALLDATASIZE PUSH1 0x4 PUSH2 0x6A4 JUMP JUMPDEST PUSH2 0x1E5 JUMP JUMPDEST PUSH1 0x40 MLOAD PUSH2 0x7B SWAP2 SWAP1 PUSH2 0x855 JUMP JUMPDEST PUSH2 0xE3 PUSH2 0x245 JUMP JUMPDEST PUSH1 0x60 PUSH2 0x112 PUSH1 0x40 MLOAD DUP1 PUSH1 0x20 ADD PUSH1 0x40 MSTORE DUP1 PUSH1 0x0 DUP2 MSTORE POP PUSH2 0x2BB JUMP JUMPDEST SWAP1 POP SWAP1 JUMP JUMPDEST PUSH32 0x0 PUSH32 0x0 SWAP1 SWAP2 JUMP JUMPDEST PUSH1 0x0 DUP1 TIMESTAMP PUSH32 0x0 DUP2 LT ISZERO PUSH2 0x1B9 JUMPI DUP1 PUSH32 0x0 SUB SWAP3 POP PUSH3 0x278D00 SWAP2 POP PUSH2 0x1C2 JUMP JUMPDEST PUSH1 0x0 SWAP3 POP PUSH1 0x0 SWAP2 POP JUMPDEST POP SWAP1 SWAP2 JUMP JUMPDEST PUSH1 0x1 PUSH1 0x1 PUSH1 0xA0 SHL SUB AND PUSH1 0x0 SWAP1 DUP2 MSTORE PUSH1 0x20 DUP2 SWAP1 MSTORE PUSH1 0x40 SWAP1 KECCAK256 SLOAD PUSH1 0xFF AND SWAP1 JUMP JUMPDEST PUSH1 0x0 DUP1 PUSH1 0x0 PUSH2 0x1F2 PUSH2 0x15D JUMP JUMPDEST SWAP2 POP SWAP2 POP PUSH2 0x237 PUSH2 0x201 PUSH2 0x245 JUMP JUMPDEST DUP12 DUP12 DUP12 DUP12 DUP12 DUP12 DUP10 DUP10 DUP14 PUSH1 0x40 MLOAD PUSH1 0x20 ADD PUSH2 0x223 SWAP11 SWAP10 SWAP9 SWAP8 SWAP7 SWAP6 SWAP5 SWAP4 SWAP3 SWAP2 SWAP1 PUSH2 0x8A1 JUMP JUMPDEST PUSH1 0x40 MLOAD PUSH1 0x20 DUP2 DUP4 SUB SUB DUP2 MSTORE SWAP1 PUSH1 0x40 MSTORE PUSH2 0x394 JUMP JUMPDEST SWAP11 SWAP10 POP POP POP POP POP POP POP POP POP POP JUMP JUMPDEST PUSH32 0x0 SWAP1 JUMP JUMPDEST DUP1 MLOAD PUSH32 0x602038038060206000396000F3FEFEFEFEFEFEFEFEFEFEFEFEFEFEFEFEFEFEFE DUP1 DUP4 MSTORE PUSH1 0x0 SWAP2 PUSH1 0x20 DUP2 ADD DUP5 DUP5 CREATE SWAP1 DUP5 MSTORE SWAP2 POP PUSH2 0x2B5 PUSH1 0x1 PUSH1 0x1 PUSH1 0xA0 SHL SUB DUP4 AND ISZERO ISZERO PUSH2 0x1AC PUSH2 0x3F4 JUMP JUMPDEST POP SWAP2 SWAP1 POP JUMP JUMPDEST DUP1 MLOAD PUSH1 0x40 DUP1 MLOAD PUSH32 0x0 PUSH32 0x0 DUP2 DUP2 ADD DUP6 DUP2 ADD DUP5 DUP2 ADD PUSH1 0x20 SWAP1 DUP2 ADD SWAP1 SWAP7 MSTORE DUP1 DUP6 MSTORE SWAP4 SWAP6 PUSH32 0x0 SWAP6 SWAP3 SWAP5 PUSH32 0x0 SWAP5 SWAP4 DUP9 ADD DUP7 PUSH1 0x0 DUP3 DUP11 EXTCODECOPY DUP5 PUSH1 0x0 DUP9 DUP4 ADD DUP9 EXTCODECOPY POP PUSH1 0x20 DUP10 DUP2 ADD SWAP1 DUP10 DUP6 ADD ADD PUSH2 0x386 DUP2 DUP4 DUP7 PUSH2 0x406 JUMP JUMPDEST POP POP POP POP POP POP POP POP POP SWAP2 SWAP1 POP JUMP JUMPDEST PUSH1 0x0 DUP1 PUSH2 0x3A0 DUP4 PUSH2 0x444 JUMP JUMPDEST PUSH1 0x1 PUSH1 0x1 PUSH1 0xA0 SHL SUB DUP2 AND PUSH1 0x0 DUP2 DUP2 MSTORE PUSH1 0x20 DUP2 SWAP1 MSTORE PUSH1 0x40 DUP1 DUP3 KECCAK256 DUP1 SLOAD PUSH1 0xFF NOT AND PUSH1 0x1 OR SWAP1 SSTORE MLOAD SWAP3 SWAP4 POP SWAP1 SWAP2 PUSH32 0x83A48FBCFC991335314E74D0496AAB6A1987E992DDC85DDDBCC4D6DD6EF2E9FC SWAP2 SWAP1 LOG2 SWAP3 SWAP2 POP POP JUMP JUMPDEST DUP2 PUSH2 0x402 JUMPI PUSH2 0x402 DUP2 PUSH2 0x47F JUMP JUMPDEST POP POP JUMP JUMPDEST JUMPDEST PUSH1 0x20 DUP2 LT PUSH2 0x426 JUMPI DUP2 MLOAD DUP4 MSTORE PUSH1 0x20 SWAP3 DUP4 ADD SWAP3 SWAP1 SWAP2 ADD SWAP1 PUSH1 0x1F NOT ADD PUSH2 0x407 JUMP JUMPDEST SWAP1 MLOAD DUP3 MLOAD PUSH1 0x20 SWAP3 SWAP1 SWAP3 SUB PUSH2 0x100 EXP PUSH1 0x0 NOT ADD DUP1 NOT SWAP1 SWAP2 AND SWAP2 AND OR SWAP1 MSTORE JUMP JUMPDEST PUSH1 0x0 PUSH1 0x60 PUSH2 0x451 DUP4 PUSH2 0x2BB JUMP JUMPDEST SWAP1 POP PUSH1 0x0 DUP2 MLOAD PUSH1 0x20 DUP4 ADD PUSH1 0x0 CREATE SWAP1 POP PUSH1 0x1 PUSH1 0x1 PUSH1 0xA0 SHL SUB DUP2 AND PUSH2 0x478 JUMPI RETURNDATASIZE PUSH1 0x0 DUP1 RETURNDATACOPY RETURNDATASIZE PUSH1 0x0 REVERT JUMPDEST SWAP4 SWAP3 POP POP POP JUMP JUMPDEST PUSH3 0x461BCD PUSH1 0xE5 SHL PUSH1 0x0 SWAP1 DUP2 MSTORE PUSH1 0x20 PUSH1 0x4 MSTORE PUSH1 0x7 PUSH1 0x24 MSTORE PUSH7 0x42414C23000030 PUSH1 0xA DUP1 DUP5 DIV DUP2 DUP2 MOD PUSH1 0x30 SWAP1 DUP2 ADD PUSH1 0x8 SHL SWAP6 DUP4 SWAP1 MOD SWAP6 SWAP1 SWAP6 ADD SWAP1 DUP3 SWAP1 DIV SWAP2 DUP3 MOD SWAP1 SWAP5 ADD PUSH1 0x10 SHL SWAP4 SWAP1 SWAP4 ADD ADD PUSH1 0xC8 SHL PUSH1 0x44 MSTORE PUSH1 0x64 SWAP1 REVERT JUMPDEST DUP1 CALLDATALOAD PUSH2 0x4DD DUP2 PUSH2 0x9D6 JUMP JUMPDEST SWAP3 SWAP2 POP POP JUMP JUMPDEST PUSH1 0x0 DUP3 PUSH1 0x1F DUP4 ADD SLT PUSH2 0x4F3 JUMPI DUP1 DUP2 REVERT JUMPDEST DUP2 CALLDATALOAD PUSH2 0x506 PUSH2 0x501 DUP3 PUSH2 0x9AA JUMP JUMPDEST PUSH2 0x983 JUMP JUMPDEST DUP2 DUP2 MSTORE SWAP2 POP PUSH1 0x20 DUP1 DUP4 ADD SWAP1 DUP5 DUP2 ADD DUP2 DUP5 MUL DUP7 ADD DUP3 ADD DUP8 LT ISZERO PUSH2 0x527 JUMPI PUSH1 0x0 DUP1 REVERT JUMPDEST PUSH1 0x0 JUMPDEST DUP5 DUP2 LT ISZERO PUSH2 0x54F JUMPI DUP2 CALLDATALOAD PUSH2 0x53D DUP2 PUSH2 0x9D6 JUMP JUMPDEST DUP5 MSTORE SWAP3 DUP3 ADD SWAP3 SWAP1 DUP3 ADD SWAP1 PUSH1 0x1 ADD PUSH2 0x52A JUMP JUMPDEST POP POP POP POP POP SWAP3 SWAP2 POP POP JUMP JUMPDEST PUSH1 0x0 DUP3 PUSH1 0x1F DUP4 ADD SLT PUSH2 0x56A JUMPI DUP1 DUP2 REVERT JUMPDEST DUP2 CALLDATALOAD PUSH2 0x578 PUSH2 0x501 DUP3 PUSH2 0x9AA JUMP JUMPDEST DUP2 DUP2 MSTORE SWAP2 POP PUSH1 0x20 DUP1 DUP4 ADD SWAP1 DUP5 DUP2 ADD DUP2 DUP5 MUL DUP7 ADD DUP3 ADD DUP8 LT ISZERO PUSH2 0x599 JUMPI PUSH1 0x0 DUP1 REVERT JUMPDEST PUSH1 0x0 JUMPDEST DUP5 DUP2 LT ISZERO PUSH2 0x54F JUMPI DUP2 CALLDATALOAD PUSH2 0x5AF DUP2 PUSH2 0x9D6 JUMP JUMPDEST DUP5 MSTORE SWAP3 DUP3 ADD SWAP3 SWAP1 DUP3 ADD SWAP1 PUSH1 0x1 ADD PUSH2 0x59C JUMP JUMPDEST PUSH1 0x0 DUP3 PUSH1 0x1F DUP4 ADD SLT PUSH2 0x5D1 JUMPI DUP1 DUP2 REVERT JUMPDEST DUP2 CALLDATALOAD PUSH2 0x5DF PUSH2 0x501 DUP3 PUSH2 0x9AA JUMP JUMPDEST DUP2 DUP2 MSTORE SWAP2 POP PUSH1 0x20 DUP1 DUP4 ADD SWAP1 DUP5 DUP2 ADD DUP2 DUP5 MUL DUP7 ADD DUP3 ADD DUP8 LT ISZERO PUSH2 0x600 JUMPI PUSH1 0x0 DUP1 REVERT JUMPDEST PUSH1 0x0 JUMPDEST DUP5 DUP2 LT ISZERO PUSH2 0x54F JUMPI DUP2 CALLDATALOAD DUP5 MSTORE SWAP3 DUP3 ADD SWAP3 SWAP1 DUP3 ADD SWAP1 PUSH1 0x1 ADD PUSH2 0x603 JUMP JUMPDEST PUSH1 0x0 DUP3 PUSH1 0x1F DUP4 ADD SLT PUSH2 0x62F JUMPI DUP1 DUP2 REVERT JUMPDEST DUP2 CALLDATALOAD PUSH8 0xFFFFFFFFFFFFFFFF DUP2 GT ISZERO PUSH2 0x645 JUMPI DUP2 DUP3 REVERT JUMPDEST PUSH2 0x658 PUSH1 0x1F DUP3 ADD PUSH1 0x1F NOT AND PUSH1 0x20 ADD PUSH2 0x983 JUMP JUMPDEST SWAP2 POP DUP1 DUP3 MSTORE DUP4 PUSH1 0x20 DUP3 DUP6 ADD ADD GT ISZERO PUSH2 0x66F JUMPI PUSH1 0x0 DUP1 REVERT JUMPDEST DUP1 PUSH1 0x20 DUP5 ADD PUSH1 0x20 DUP5 ADD CALLDATACOPY PUSH1 0x0 SWAP1 DUP3 ADD PUSH1 0x20 ADD MSTORE SWAP3 SWAP2 POP POP JUMP JUMPDEST PUSH1 0x0 PUSH1 0x20 DUP3 DUP5 SUB SLT ISZERO PUSH2 0x699 JUMPI DUP1 DUP2 REVERT JUMPDEST DUP2 CALLDATALOAD PUSH2 0x478 DUP2 PUSH2 0x9D6 JUMP JUMPDEST PUSH1 0x0 DUP1 PUSH1 0x0 DUP1 PUSH1 0x0 DUP1 PUSH1 0x0 PUSH1 0xE0 DUP9 DUP11 SUB SLT ISZERO PUSH2 0x6BE JUMPI DUP3 DUP4 REVERT JUMPDEST DUP8 CALLDATALOAD PUSH8 0xFFFFFFFFFFFFFFFF DUP1 DUP3 GT ISZERO PUSH2 0x6D5 JUMPI DUP5 DUP6 REVERT JUMPDEST PUSH2 0x6E1 DUP12 DUP4 DUP13 ADD PUSH2 0x61F JUMP JUMPDEST SWAP9 POP PUSH1 0x20 DUP11 ADD CALLDATALOAD SWAP2 POP DUP1 DUP3 GT ISZERO PUSH2 0x6F6 JUMPI DUP5 DUP6 REVERT JUMPDEST PUSH2 0x702 DUP12 DUP4 DUP13 ADD PUSH2 0x61F JUMP JUMPDEST SWAP8 POP PUSH1 0x40 DUP11 ADD CALLDATALOAD SWAP2 POP DUP1 DUP3 GT ISZERO PUSH2 0x717 JUMPI DUP5 DUP6 REVERT JUMPDEST PUSH2 0x723 DUP12 DUP4 DUP13 ADD PUSH2 0x55A JUMP JUMPDEST SWAP7 POP PUSH1 0x60 DUP11 ADD CALLDATALOAD SWAP2 POP DUP1 DUP3 GT ISZERO PUSH2 0x738 JUMPI DUP5 DUP6 REVERT JUMPDEST PUSH2 0x744 DUP12 DUP4 DUP13 ADD PUSH2 0x5C1 JUMP JUMPDEST SWAP6 POP PUSH1 0x80 DUP11 ADD CALLDATALOAD SWAP2 POP DUP1 DUP3 GT ISZERO PUSH2 0x759 JUMPI DUP5 DUP6 REVERT JUMPDEST POP PUSH2 0x766 DUP11 DUP3 DUP12 ADD PUSH2 0x4E3 JUMP JUMPDEST SWAP4 POP POP PUSH1 0xA0 DUP9 ADD CALLDATALOAD SWAP2 POP PUSH2 0x77D DUP10 PUSH1 0xC0 DUP11 ADD PUSH2 0x4D2 JUMP JUMPDEST SWAP1 POP SWAP3 SWAP6 SWAP9 SWAP2 SWAP5 SWAP8 POP SWAP3 SWAP6 POP JUMP JUMPDEST PUSH1 0x1 PUSH1 0x1 PUSH1 0xA0 SHL SUB AND SWAP1 MSTORE JUMP JUMPDEST PUSH1 0x0 DUP2 MLOAD DUP1 DUP5 MSTORE PUSH1 0x20 DUP1 DUP6 ADD SWAP5 POP DUP1 DUP5 ADD DUP4 JUMPDEST DUP4 DUP2 LT ISZERO PUSH2 0x7D0 JUMPI DUP2 MLOAD PUSH1 0x1 PUSH1 0x1 PUSH1 0xA0 SHL SUB AND DUP8 MSTORE SWAP6 DUP3 ADD SWAP6 SWAP1 DUP3 ADD SWAP1 PUSH1 0x1 ADD PUSH2 0x7AB JUMP JUMPDEST POP SWAP5 SWAP6 SWAP5 POP POP POP POP POP JUMP JUMPDEST PUSH1 0x0 DUP2 MLOAD DUP1 DUP5 MSTORE PUSH1 0x20 DUP1 DUP6 ADD SWAP5 POP DUP1 DUP5 ADD DUP4 JUMPDEST DUP4 DUP2 LT ISZERO PUSH2 0x7D0 JUMPI DUP2 MLOAD DUP8 MSTORE SWAP6 DUP3 ADD SWAP6 SWAP1 DUP3 ADD SWAP1 PUSH1 0x1 ADD PUSH2 0x7EE JUMP JUMPDEST PUSH1 0x0 DUP2 MLOAD DUP1 DUP5 MSTORE DUP2 JUMPDEST DUP2 DUP2 LT ISZERO PUSH2 0x82F JUMPI PUSH1 0x20 DUP2 DUP6 ADD DUP2 ADD MLOAD DUP7 DUP4 ADD DUP3 ADD MSTORE ADD PUSH2 0x813 JUMP JUMPDEST DUP2 DUP2 GT ISZERO PUSH2 0x840 JUMPI DUP3 PUSH1 0x20 DUP4 DUP8 ADD ADD MSTORE JUMPDEST POP PUSH1 0x1F ADD PUSH1 0x1F NOT AND SWAP3 SWAP1 SWAP3 ADD PUSH1 0x20 ADD SWAP3 SWAP2 POP POP JUMP JUMPDEST PUSH1 0x1 PUSH1 0x1 PUSH1 0xA0 SHL SUB SWAP2 SWAP1 SWAP2 AND DUP2 MSTORE PUSH1 0x20 ADD SWAP1 JUMP JUMPDEST PUSH1 0x1 PUSH1 0x1 PUSH1 0xA0 SHL SUB SWAP3 DUP4 AND DUP2 MSTORE SWAP2 AND PUSH1 0x20 DUP3 ADD MSTORE PUSH1 0x40 ADD SWAP1 JUMP JUMPDEST SWAP1 ISZERO ISZERO DUP2 MSTORE PUSH1 0x20 ADD SWAP1 JUMP JUMPDEST PUSH1 0x0 PUSH1 0x20 DUP3 MSTORE PUSH2 0x478 PUSH1 0x20 DUP4 ADD DUP5 PUSH2 0x80A JUMP JUMPDEST PUSH1 0x1 PUSH1 0x1 PUSH1 0xA0 SHL SUB DUP12 AND DUP2 MSTORE PUSH2 0x140 PUSH1 0x20 DUP1 DUP4 ADD DUP3 SWAP1 MSTORE PUSH1 0x0 SWAP2 SWAP1 PUSH2 0x8C8 DUP5 DUP4 ADD DUP15 PUSH2 0x80A JUMP JUMPDEST SWAP2 POP DUP4 DUP3 SUB PUSH1 0x40 DUP6 ADD MSTORE PUSH2 0x8DC DUP3 DUP14 PUSH2 0x80A JUMP JUMPDEST DUP5 DUP2 SUB PUSH1 0x60 DUP7 ADD MSTORE DUP12 MLOAD DUP1 DUP3 MSTORE DUP3 DUP14 ADD SWAP4 POP SWAP1 DUP3 ADD SWAP1 DUP5 JUMPDEST DUP2 DUP2 LT ISZERO PUSH2 0x918 JUMPI PUSH2 0x906 DUP6 MLOAD PUSH2 0x9CA JUMP JUMPDEST DUP4 MSTORE SWAP4 DUP4 ADD SWAP4 SWAP2 DUP4 ADD SWAP2 PUSH1 0x1 ADD PUSH2 0x8F4 JUMP JUMPDEST POP POP DUP5 DUP2 SUB PUSH1 0x80 DUP7 ADD MSTORE PUSH2 0x92C DUP2 DUP13 PUSH2 0x7DB JUMP JUMPDEST SWAP3 POP POP POP DUP3 DUP2 SUB PUSH1 0xA0 DUP5 ADD MSTORE PUSH2 0x942 DUP2 DUP10 PUSH2 0x798 JUMP JUMPDEST SWAP2 POP POP DUP6 PUSH1 0xC0 DUP4 ADD MSTORE DUP5 PUSH1 0xE0 DUP4 ADD MSTORE DUP4 PUSH2 0x100 DUP4 ADD MSTORE PUSH2 0x966 PUSH2 0x120 DUP4 ADD DUP5 PUSH2 0x78B JUMP JUMPDEST SWAP12 SWAP11 POP POP POP POP POP POP POP POP POP POP POP JUMP JUMPDEST SWAP2 DUP3 MSTORE PUSH1 0x20 DUP3 ADD MSTORE PUSH1 0x40 ADD SWAP1 JUMP JUMPDEST PUSH1 0x40 MLOAD DUP2 DUP2 ADD PUSH8 0xFFFFFFFFFFFFFFFF DUP2 GT DUP3 DUP3 LT OR ISZERO PUSH2 0x9A2 JUMPI PUSH1 0x0 DUP1 REVERT JUMPDEST PUSH1 0x40 MSTORE SWAP2 SWAP1 POP JUMP JUMPDEST PUSH1 0x0 PUSH8 0xFFFFFFFFFFFFFFFF DUP3 GT ISZERO PUSH2 0x9C0 JUMPI DUP1 DUP2 REVERT JUMPDEST POP PUSH1 0x20 SWAP1 DUP2 MUL ADD SWAP1 JUMP JUMPDEST PUSH1 0x1 PUSH1 0x1 PUSH1 0xA0 SHL SUB AND SWAP1 JUMP JUMPDEST PUSH1 0x1 PUSH1 0x1 PUSH1 0xA0 SHL SUB DUP2 AND DUP2 EQ PUSH2 0x9EB JUMPI PUSH1 0x0 DUP1 REVERT JUMPDEST POP JUMP INVALID LOG2 PUSH5 0x6970667358 0x22 SLT KECCAK256 0x25 0xEF DUP8 CALLDATASIZE REVERT 0xEC PUSH21 0x793A46C5921D144B72AA6F53CFC45FE76F14D4D7E2 SHL MSIZE COINBASE SWAP2 PUSH5 0x736F6C6343 STOP SMOD ADD STOP CALLER PUSH2 0x980 PUSH1 0x40 MSTORE PUSH32 0x6E71EDAE12B1B97F4D1F60370FEF10105FA2FAAE0126114A169C64845D6126C9 PUSH2 0x120 MSTORE CALLVALUE DUP1 ISZERO PUSH3 0x37 JUMPI PUSH1 0x0 DUP1 REVERT JUMPDEST POP PUSH1 0x40 MLOAD PUSH3 0x73BA CODESIZE SUB DUP1 PUSH3 0x73BA DUP4 CODECOPY DUP2 ADD PUSH1 0x40 DUP2 SWAP1 MSTORE PUSH3 0x5A SWAP2 PUSH3 0x13E5 JUMP JUMPDEST DUP10 DUP10 DUP10 DUP10 DUP9 DUP9 DUP9 DUP9 DUP9 DUP9 DUP7 MLOAD PUSH1 0x2 EQ PUSH3 0x76 JUMPI PUSH1 0x1 PUSH3 0x79 JUMP JUMPDEST PUSH1 0x2 JUMPDEST DUP10 DUP10 DUP10 DUP10 DUP10 DUP10 DUP10 DUP10 DUP3 DUP3 DUP10 DUP10 DUP2 DUP1 PUSH1 0x40 MLOAD DUP1 PUSH1 0x40 ADD PUSH1 0x40 MSTORE DUP1 PUSH1 0x1 DUP2 MSTORE PUSH1 0x20 ADD PUSH1 0x31 PUSH1 0xF8 SHL DUP2 MSTORE POP DUP5 DUP5 DUP10 CALLER PUSH1 0x1 PUSH1 0x1 PUSH1 0xA0 SHL SUB AND PUSH1 0x0 SHL DUP1 PUSH1 0x80 DUP2 DUP2 MSTORE POP POP POP DUP1 PUSH1 0x1 PUSH1 0x1 PUSH1 0xA0 SHL SUB AND PUSH1 0xA0 DUP2 PUSH1 0x1 PUSH1 0x1 PUSH1 0xA0 SHL SUB AND PUSH1 0x60 SHL DUP2 MSTORE POP POP POP DUP2 PUSH1 0x3 SWAP1 DUP1 MLOAD SWAP1 PUSH1 0x20 ADD SWAP1 PUSH3 0xF0 SWAP3 SWAP2 SWAP1 PUSH3 0x113E JUMP JUMPDEST POP DUP1 MLOAD PUSH3 0x106 SWAP1 PUSH1 0x4 SWAP1 PUSH1 0x20 DUP5 ADD SWAP1 PUSH3 0x113E JUMP JUMPDEST POP POP PUSH1 0x5 DUP1 SLOAD PUSH1 0xFF NOT AND PUSH1 0x12 OR SWAP1 SSTORE POP DUP2 MLOAD PUSH1 0x20 SWAP3 DUP4 ADD KECCAK256 PUSH1 0xC0 MSTORE DUP1 MLOAD SWAP2 ADD KECCAK256 PUSH1 0xE0 MSTORE POP POP PUSH32 0x8B73C3C69BB8FE3D512ECC4CF759CC79239F7B179B0FFACAA9A75D522B39400F PUSH2 0x100 MSTORE POP PUSH3 0x165 PUSH3 0x76A700 DUP4 GT ISZERO PUSH2 0x194 PUSH3 0xEA7 JUMP JUMPDEST PUSH3 0x179 PUSH3 0x278D00 DUP3 GT ISZERO PUSH2 0x195 PUSH3 0xEA7 JUMP JUMPDEST TIMESTAMP SWAP1 SWAP2 ADD PUSH2 0x140 DUP2 SWAP1 MSTORE ADD PUSH2 0x160 MSTORE DUP6 MLOAD PUSH3 0x19B SWAP1 PUSH1 0x2 GT ISZERO PUSH1 0xC8 PUSH3 0xEA7 JUMP JUMPDEST PUSH3 0x1B5 PUSH3 0x1A9 PUSH3 0xEBC JUMP JUMPDEST DUP8 MLOAD GT ISZERO PUSH1 0xC9 PUSH3 0xEA7 JUMP JUMPDEST PUSH3 0x1CB DUP7 PUSH3 0xEC1 PUSH1 0x20 SHL PUSH3 0xD9E OR PUSH1 0x20 SHR JUMP JUMPDEST PUSH3 0x1D6 DUP5 PUSH3 0xECD JUMP JUMPDEST PUSH1 0x40 MLOAD PUSH4 0x9B2760F PUSH1 0xE0 SHL DUP2 MSTORE PUSH1 0x0 SWAP1 PUSH1 0x1 PUSH1 0x1 PUSH1 0xA0 SHL SUB DUP13 AND SWAP1 PUSH4 0x9B2760F SWAP1 PUSH3 0x207 SWAP1 DUP14 SWAP1 PUSH1 0x4 ADD PUSH3 0x15C6 JUMP JUMPDEST PUSH1 0x20 PUSH1 0x40 MLOAD DUP1 DUP4 SUB DUP2 PUSH1 0x0 DUP8 DUP1 EXTCODESIZE ISZERO DUP1 ISZERO PUSH3 0x222 JUMPI PUSH1 0x0 DUP1 REVERT JUMPDEST POP GAS CALL ISZERO DUP1 ISZERO PUSH3 0x237 JUMPI RETURNDATASIZE PUSH1 0x0 DUP1 RETURNDATACOPY RETURNDATASIZE PUSH1 0x0 REVERT JUMPDEST POP POP POP POP PUSH1 0x40 MLOAD RETURNDATASIZE PUSH1 0x1F NOT PUSH1 0x1F DUP3 ADD AND DUP3 ADD DUP1 PUSH1 0x40 MSTORE POP DUP2 ADD SWAP1 PUSH3 0x25D SWAP2 SWAP1 PUSH3 0x13CC JUMP JUMPDEST PUSH1 0x40 MLOAD PUSH4 0x3354E3E9 PUSH1 0xE1 SHL DUP2 MSTORE SWAP1 SWAP2 POP PUSH1 0x1 PUSH1 0x1 PUSH1 0xA0 SHL SUB DUP13 AND SWAP1 PUSH4 0x66A9C7D2 SWAP1 PUSH3 0x292 SWAP1 DUP5 SWAP1 DUP12 SWAP1 DUP12 SWAP1 PUSH1 0x4 ADD PUSH3 0x152A JUMP JUMPDEST PUSH1 0x0 PUSH1 0x40 MLOAD DUP1 DUP4 SUB DUP2 PUSH1 0x0 DUP8 DUP1 EXTCODESIZE ISZERO DUP1 ISZERO PUSH3 0x2AD JUMPI PUSH1 0x0 DUP1 REVERT JUMPDEST POP GAS CALL ISZERO DUP1 ISZERO PUSH3 0x2C2 JUMPI RETURNDATASIZE PUSH1 0x0 DUP1 RETURNDATACOPY RETURNDATASIZE PUSH1 0x0 REVERT JUMPDEST POP POP POP POP DUP11 PUSH1 0x1 PUSH1 0x1 PUSH1 0xA0 SHL SUB AND PUSH2 0x180 DUP2 PUSH1 0x1 PUSH1 0x1 PUSH1 0xA0 SHL SUB AND PUSH1 0x60 SHL DUP2 MSTORE POP POP DUP1 PUSH2 0x1A0 DUP2 DUP2 MSTORE POP POP POP POP POP POP POP POP POP POP POP POP POP POP POP POP POP POP POP POP POP POP PUSH1 0x0 DUP8 MLOAD SWAP1 POP PUSH3 0x31F DUP2 DUP9 MLOAD PUSH3 0xF59 PUSH1 0x20 SHL PUSH3 0xDA8 OR PUSH1 0x20 SHR JUMP JUMPDEST PUSH2 0x1C0 DUP2 SWAP1 MSTORE PUSH1 0x0 DUP1 DUP1 DUP1 JUMPDEST DUP5 DUP2 PUSH1 0xFF AND LT ISZERO PUSH3 0x3AA JUMPI PUSH1 0x0 DUP12 DUP3 PUSH1 0xFF AND DUP2 MLOAD DUP2 LT PUSH3 0x349 JUMPI INVALID JUMPDEST PUSH1 0x20 MUL PUSH1 0x20 ADD ADD MLOAD SWAP1 POP PUSH3 0x371 PUSH7 0x2386F26FC10000 DUP3 LT ISZERO PUSH2 0x12E PUSH3 0xEA7 PUSH1 0x20 SHL PUSH1 0x20 SHR JUMP JUMPDEST PUSH3 0x38B DUP2 DUP7 PUSH3 0xF68 PUSH1 0x20 SHL PUSH3 0xDB5 OR SWAP1 SWAP2 SWAP1 PUSH1 0x20 SHR JUMP JUMPDEST SWAP5 POP DUP3 DUP2 GT ISZERO PUSH3 0x3A0 JUMPI DUP2 PUSH1 0xFF AND SWAP4 POP DUP1 SWAP3 POP JUMPDEST POP PUSH1 0x1 ADD PUSH3 0x32B JUMP JUMPDEST POP PUSH3 0x3C3 PUSH8 0xDE0B6B3A7640000 DUP5 EQ PUSH2 0x134 PUSH3 0xEA7 JUMP JUMPDEST PUSH2 0x6E0 DUP3 SWAP1 MSTORE DUP10 MLOAD DUP11 SWAP1 PUSH1 0x0 SWAP1 PUSH3 0x3D7 JUMPI INVALID JUMPDEST PUSH1 0x20 MUL PUSH1 0x20 ADD ADD MLOAD PUSH2 0x700 DUP2 DUP2 MSTORE POP POP DUP10 PUSH1 0x1 DUP2 MLOAD DUP2 LT PUSH3 0x3F5 JUMPI INVALID JUMPDEST PUSH1 0x20 MUL PUSH1 0x20 ADD ADD MLOAD PUSH2 0x720 DUP2 DUP2 MSTORE POP POP PUSH1 0x2 DUP5 GT PUSH3 0x416 JUMPI PUSH1 0x0 PUSH3 0x42D JUMP JUMPDEST DUP10 PUSH1 0x2 DUP2 MLOAD DUP2 LT PUSH3 0x424 JUMPI INVALID JUMPDEST PUSH1 0x20 MUL PUSH1 0x20 ADD ADD MLOAD JUMPDEST PUSH2 0x740 MSTORE PUSH1 0x3 DUP5 GT PUSH3 0x442 JUMPI PUSH1 0x0 PUSH3 0x459 JUMP JUMPDEST DUP10 PUSH1 0x3 DUP2 MLOAD DUP2 LT PUSH3 0x450 JUMPI INVALID JUMPDEST PUSH1 0x20 MUL PUSH1 0x20 ADD ADD MLOAD JUMPDEST PUSH2 0x760 MSTORE PUSH1 0x4 DUP5 GT PUSH3 0x46E JUMPI PUSH1 0x0 PUSH3 0x485 JUMP JUMPDEST DUP10 PUSH1 0x4 DUP2 MLOAD DUP2 LT PUSH3 0x47C JUMPI INVALID JUMPDEST PUSH1 0x20 MUL PUSH1 0x20 ADD ADD MLOAD JUMPDEST PUSH2 0x780 MSTORE PUSH1 0x5 DUP5 GT PUSH3 0x49A JUMPI PUSH1 0x0 PUSH3 0x4B1 JUMP JUMPDEST DUP10 PUSH1 0x5 DUP2 MLOAD DUP2 LT PUSH3 0x4A8 JUMPI INVALID JUMPDEST PUSH1 0x20 MUL PUSH1 0x20 ADD ADD MLOAD JUMPDEST PUSH2 0x7A0 MSTORE PUSH1 0x6 DUP5 GT PUSH3 0x4C6 JUMPI PUSH1 0x0 PUSH3 0x4DD JUMP JUMPDEST DUP10 PUSH1 0x6 DUP2 MLOAD DUP2 LT PUSH3 0x4D4 JUMPI INVALID JUMPDEST PUSH1 0x20 MUL PUSH1 0x20 ADD ADD MLOAD JUMPDEST PUSH2 0x7C0 MSTORE PUSH1 0x7 DUP5 GT PUSH3 0x4F2 JUMPI PUSH1 0x0 PUSH3 0x509 JUMP JUMPDEST DUP10 PUSH1 0x7 DUP2 MLOAD DUP2 LT PUSH3 0x500 JUMPI INVALID JUMPDEST PUSH1 0x20 MUL PUSH1 0x20 ADD ADD MLOAD JUMPDEST PUSH2 0x7E0 MSTORE PUSH1 0x8 DUP5 GT PUSH3 0x51E JUMPI PUSH1 0x0 PUSH3 0x535 JUMP JUMPDEST DUP10 PUSH1 0x8 DUP2 MLOAD DUP2 LT PUSH3 0x52C JUMPI INVALID JUMPDEST PUSH1 0x20 MUL PUSH1 0x20 ADD ADD MLOAD JUMPDEST PUSH2 0x800 MSTORE PUSH1 0x9 DUP5 GT PUSH3 0x54A JUMPI PUSH1 0x0 PUSH3 0x561 JUMP JUMPDEST DUP10 PUSH1 0x9 DUP2 MLOAD DUP2 LT PUSH3 0x558 JUMPI INVALID JUMPDEST PUSH1 0x20 MUL PUSH1 0x20 ADD ADD MLOAD JUMPDEST PUSH2 0x820 MSTORE PUSH1 0xA DUP5 GT PUSH3 0x576 JUMPI PUSH1 0x0 PUSH3 0x58D JUMP JUMPDEST DUP10 PUSH1 0xA DUP2 MLOAD DUP2 LT PUSH3 0x584 JUMPI INVALID JUMPDEST PUSH1 0x20 MUL PUSH1 0x20 ADD ADD MLOAD JUMPDEST PUSH2 0x840 MSTORE PUSH1 0xB DUP5 GT PUSH3 0x5A2 JUMPI PUSH1 0x0 PUSH3 0x5B9 JUMP JUMPDEST DUP10 PUSH1 0xB DUP2 MLOAD DUP2 LT PUSH3 0x5B0 JUMPI INVALID JUMPDEST PUSH1 0x20 MUL PUSH1 0x20 ADD ADD MLOAD JUMPDEST PUSH2 0x860 MSTORE PUSH1 0xC DUP5 GT PUSH3 0x5CE JUMPI PUSH1 0x0 PUSH3 0x5E5 JUMP JUMPDEST DUP10 PUSH1 0xC DUP2 MLOAD DUP2 LT PUSH3 0x5DC JUMPI INVALID JUMPDEST PUSH1 0x20 MUL PUSH1 0x20 ADD ADD MLOAD JUMPDEST PUSH2 0x880 MSTORE PUSH1 0xD DUP5 GT PUSH3 0x5FA JUMPI PUSH1 0x0 PUSH3 0x611 JUMP JUMPDEST DUP10 PUSH1 0xD DUP2 MLOAD DUP2 LT PUSH3 0x608 JUMPI INVALID JUMPDEST PUSH1 0x20 MUL PUSH1 0x20 ADD ADD MLOAD JUMPDEST PUSH2 0x8A0 MSTORE PUSH1 0xE DUP5 GT PUSH3 0x626 JUMPI PUSH1 0x0 PUSH3 0x63D JUMP JUMPDEST DUP10 PUSH1 0xE DUP2 MLOAD DUP2 LT PUSH3 0x634 JUMPI INVALID JUMPDEST PUSH1 0x20 MUL PUSH1 0x20 ADD ADD MLOAD JUMPDEST PUSH2 0x8C0 MSTORE PUSH1 0xF DUP5 GT PUSH3 0x652 JUMPI PUSH1 0x0 PUSH3 0x669 JUMP JUMPDEST DUP10 PUSH1 0xF DUP2 MLOAD DUP2 LT PUSH3 0x660 JUMPI INVALID JUMPDEST PUSH1 0x20 MUL PUSH1 0x20 ADD ADD MLOAD JUMPDEST PUSH2 0x8E0 MSTORE PUSH1 0x10 DUP5 GT PUSH3 0x67E JUMPI PUSH1 0x0 PUSH3 0x695 JUMP JUMPDEST DUP10 PUSH1 0x10 DUP2 MLOAD DUP2 LT PUSH3 0x68C JUMPI INVALID JUMPDEST PUSH1 0x20 MUL PUSH1 0x20 ADD ADD MLOAD JUMPDEST PUSH2 0x900 MSTORE PUSH1 0x11 DUP5 GT PUSH3 0x6AA JUMPI PUSH1 0x0 PUSH3 0x6C1 JUMP JUMPDEST DUP10 PUSH1 0x11 DUP2 MLOAD DUP2 LT PUSH3 0x6B8 JUMPI INVALID JUMPDEST PUSH1 0x20 MUL PUSH1 0x20 ADD ADD MLOAD JUMPDEST PUSH2 0x920 MSTORE PUSH1 0x12 DUP5 GT PUSH3 0x6D6 JUMPI PUSH1 0x0 PUSH3 0x6ED JUMP JUMPDEST DUP10 PUSH1 0x12 DUP2 MLOAD DUP2 LT PUSH3 0x6E4 JUMPI INVALID JUMPDEST PUSH1 0x20 MUL PUSH1 0x20 ADD ADD MLOAD JUMPDEST PUSH2 0x940 MSTORE PUSH1 0x13 DUP5 GT PUSH3 0x702 JUMPI PUSH1 0x0 PUSH3 0x719 JUMP JUMPDEST DUP10 PUSH1 0x13 DUP2 MLOAD DUP2 LT PUSH3 0x710 JUMPI INVALID JUMPDEST PUSH1 0x20 MUL PUSH1 0x20 ADD ADD MLOAD JUMPDEST PUSH2 0x960 MSTORE DUP11 MLOAD DUP12 SWAP1 PUSH1 0x0 SWAP1 PUSH3 0x72B JUMPI INVALID JUMPDEST PUSH1 0x20 MUL PUSH1 0x20 ADD ADD MLOAD PUSH1 0x1 PUSH1 0x1 PUSH1 0xA0 SHL SUB AND PUSH2 0x1E0 DUP2 PUSH1 0x1 PUSH1 0x1 PUSH1 0xA0 SHL SUB AND PUSH1 0x60 SHL DUP2 MSTORE POP POP DUP11 PUSH1 0x1 DUP2 MLOAD DUP2 LT PUSH3 0x75E JUMPI INVALID JUMPDEST PUSH1 0x20 MUL PUSH1 0x20 ADD ADD MLOAD PUSH1 0x1 PUSH1 0x1 PUSH1 0xA0 SHL SUB AND PUSH2 0x200 DUP2 PUSH1 0x1 PUSH1 0x1 PUSH1 0xA0 SHL SUB AND PUSH1 0x60 SHL DUP2 MSTORE POP POP PUSH1 0x2 DUP5 GT PUSH3 0x794 JUMPI PUSH1 0x0 PUSH3 0x7AB JUMP JUMPDEST DUP11 PUSH1 0x2 DUP2 MLOAD DUP2 LT PUSH3 0x7A2 JUMPI INVALID JUMPDEST PUSH1 0x20 MUL PUSH1 0x20 ADD ADD MLOAD JUMPDEST PUSH1 0x60 SHL PUSH1 0x1 PUSH1 0x1 PUSH1 0x60 SHL SUB NOT AND PUSH2 0x220 MSTORE PUSH1 0x3 DUP5 GT PUSH3 0x7CD JUMPI PUSH1 0x0 PUSH3 0x7E4 JUMP JUMPDEST DUP11 PUSH1 0x3 DUP2 MLOAD DUP2 LT PUSH3 0x7DB JUMPI INVALID JUMPDEST PUSH1 0x20 MUL PUSH1 0x20 ADD ADD MLOAD JUMPDEST PUSH1 0x60 SHL PUSH1 0x1 PUSH1 0x1 PUSH1 0x60 SHL SUB NOT AND PUSH2 0x240 MSTORE PUSH1 0x4 DUP5 GT PUSH3 0x806 JUMPI PUSH1 0x0 PUSH3 0x81D JUMP JUMPDEST DUP11 PUSH1 0x4 DUP2 MLOAD DUP2 LT PUSH3 0x814 JUMPI INVALID JUMPDEST PUSH1 0x20 MUL PUSH1 0x20 ADD ADD MLOAD JUMPDEST PUSH1 0x60 SHL PUSH1 0x1 PUSH1 0x1 PUSH1 0x60 SHL SUB NOT AND PUSH2 0x260 MSTORE PUSH1 0x5 DUP5 GT PUSH3 0x83F JUMPI PUSH1 0x0 PUSH3 0x856 JUMP JUMPDEST DUP11 PUSH1 0x5 DUP2 MLOAD DUP2 LT PUSH3 0x84D JUMPI INVALID JUMPDEST PUSH1 0x20 MUL PUSH1 0x20 ADD ADD MLOAD JUMPDEST PUSH1 0x60 SHL PUSH1 0x1 PUSH1 0x1 PUSH1 0x60 SHL SUB NOT AND PUSH2 0x280 MSTORE PUSH1 0x6 DUP5 GT PUSH3 0x878 JUMPI PUSH1 0x0 PUSH3 0x88F JUMP JUMPDEST DUP11 PUSH1 0x6 DUP2 MLOAD DUP2 LT PUSH3 0x886 JUMPI INVALID JUMPDEST PUSH1 0x20 MUL PUSH1 0x20 ADD ADD MLOAD JUMPDEST PUSH1 0x60 SHL PUSH1 0x1 PUSH1 0x1 PUSH1 0x60 SHL SUB NOT AND PUSH2 0x2A0 MSTORE PUSH1 0x7 DUP5 GT PUSH3 0x8B1 JUMPI PUSH1 0x0 PUSH3 0x8C8 JUMP JUMPDEST DUP11 PUSH1 0x7 DUP2 MLOAD DUP2 LT PUSH3 0x8BF JUMPI INVALID JUMPDEST PUSH1 0x20 MUL PUSH1 0x20 ADD ADD MLOAD JUMPDEST PUSH1 0x60 SHL PUSH1 0x1 PUSH1 0x1 PUSH1 0x60 SHL SUB NOT AND PUSH2 0x2C0 MSTORE PUSH1 0x8 DUP5 GT PUSH3 0x8EA JUMPI PUSH1 0x0 PUSH3 0x901 JUMP JUMPDEST DUP11 PUSH1 0x8 DUP2 MLOAD DUP2 LT PUSH3 0x8F8 JUMPI INVALID JUMPDEST PUSH1 0x20 MUL PUSH1 0x20 ADD ADD MLOAD JUMPDEST PUSH1 0x60 SHL PUSH1 0x1 PUSH1 0x1 PUSH1 0x60 SHL SUB NOT AND PUSH2 0x2E0 MSTORE PUSH1 0x9 DUP5 GT PUSH3 0x923 JUMPI PUSH1 0x0 PUSH3 0x93A JUMP JUMPDEST DUP11 PUSH1 0x9 DUP2 MLOAD DUP2 LT PUSH3 0x931 JUMPI INVALID JUMPDEST PUSH1 0x20 MUL PUSH1 0x20 ADD ADD MLOAD JUMPDEST PUSH1 0x60 SHL PUSH1 0x1 PUSH1 0x1 PUSH1 0x60 SHL SUB NOT AND PUSH2 0x300 MSTORE PUSH1 0xA DUP5 GT PUSH3 0x95C JUMPI PUSH1 0x0 PUSH3 0x973 JUMP JUMPDEST DUP11 PUSH1 0xA DUP2 MLOAD DUP2 LT PUSH3 0x96A JUMPI INVALID JUMPDEST PUSH1 0x20 MUL PUSH1 0x20 ADD ADD MLOAD JUMPDEST PUSH1 0x60 SHL PUSH1 0x1 PUSH1 0x1 PUSH1 0x60 SHL SUB NOT AND PUSH2 0x320 MSTORE PUSH1 0xB DUP5 GT PUSH3 0x995 JUMPI PUSH1 0x0 PUSH3 0x9AC JUMP JUMPDEST DUP11 PUSH1 0xB DUP2 MLOAD DUP2 LT PUSH3 0x9A3 JUMPI INVALID JUMPDEST PUSH1 0x20 MUL PUSH1 0x20 ADD ADD MLOAD JUMPDEST PUSH1 0x60 SHL PUSH1 0x1 PUSH1 0x1 PUSH1 0x60 SHL SUB NOT AND PUSH2 0x340 MSTORE PUSH1 0xC DUP5 GT PUSH3 0x9CE JUMPI PUSH1 0x0 PUSH3 0x9E5 JUMP JUMPDEST DUP11 PUSH1 0xC DUP2 MLOAD DUP2 LT PUSH3 0x9DC JUMPI INVALID JUMPDEST PUSH1 0x20 MUL PUSH1 0x20 ADD ADD MLOAD JUMPDEST PUSH1 0x60 SHL PUSH1 0x1 PUSH1 0x1 PUSH1 0x60 SHL SUB NOT AND PUSH2 0x360 MSTORE PUSH1 0xD DUP5 GT PUSH3 0xA07 JUMPI PUSH1 0x0 PUSH3 0xA1E JUMP JUMPDEST DUP11 PUSH1 0xD DUP2 MLOAD DUP2 LT PUSH3 0xA15 JUMPI INVALID JUMPDEST PUSH1 0x20 MUL PUSH1 0x20 ADD ADD MLOAD JUMPDEST PUSH1 0x60 SHL PUSH1 0x1 PUSH1 0x1 PUSH1 0x60 SHL SUB NOT AND PUSH2 0x380 MSTORE PUSH1 0xE DUP5 GT PUSH3 0xA40 JUMPI PUSH1 0x0 PUSH3 0xA57 JUMP JUMPDEST DUP11 PUSH1 0xE DUP2 MLOAD DUP2 LT PUSH3 0xA4E JUMPI INVALID JUMPDEST PUSH1 0x20 MUL PUSH1 0x20 ADD ADD MLOAD JUMPDEST PUSH1 0x60 SHL PUSH1 0x1 PUSH1 0x1 PUSH1 0x60 SHL SUB NOT AND PUSH2 0x3A0 MSTORE PUSH1 0xF DUP5 GT PUSH3 0xA79 JUMPI PUSH1 0x0 PUSH3 0xA90 JUMP JUMPDEST DUP11 PUSH1 0xF DUP2 MLOAD DUP2 LT PUSH3 0xA87 JUMPI INVALID JUMPDEST PUSH1 0x20 MUL PUSH1 0x20 ADD ADD MLOAD JUMPDEST PUSH1 0x60 SHL PUSH1 0x1 PUSH1 0x1 PUSH1 0x60 SHL SUB NOT AND PUSH2 0x3C0 MSTORE PUSH1 0x10 DUP5 GT PUSH3 0xAB2 JUMPI PUSH1 0x0 PUSH3 0xAC9 JUMP JUMPDEST DUP11 PUSH1 0x10 DUP2 MLOAD DUP2 LT PUSH3 0xAC0 JUMPI INVALID JUMPDEST PUSH1 0x20 MUL PUSH1 0x20 ADD ADD MLOAD JUMPDEST PUSH1 0x60 SHL PUSH1 0x1 PUSH1 0x1 PUSH1 0x60 SHL SUB NOT AND PUSH2 0x3E0 MSTORE PUSH1 0x11 DUP5 GT PUSH3 0xAEB JUMPI PUSH1 0x0 PUSH3 0xB02 JUMP JUMPDEST DUP11 PUSH1 0x11 DUP2 MLOAD DUP2 LT PUSH3 0xAF9 JUMPI INVALID JUMPDEST PUSH1 0x20 MUL PUSH1 0x20 ADD ADD MLOAD JUMPDEST PUSH1 0x60 SHL PUSH1 0x1 PUSH1 0x1 PUSH1 0x60 SHL SUB NOT AND PUSH2 0x400 MSTORE PUSH1 0x12 DUP5 GT PUSH3 0xB24 JUMPI PUSH1 0x0 PUSH3 0xB3B JUMP JUMPDEST DUP11 PUSH1 0x12 DUP2 MLOAD DUP2 LT PUSH3 0xB32 JUMPI INVALID JUMPDEST PUSH1 0x20 MUL PUSH1 0x20 ADD ADD MLOAD JUMPDEST PUSH1 0x60 SHL PUSH1 0x1 PUSH1 0x1 PUSH1 0x60 SHL SUB NOT AND PUSH2 0x420 MSTORE PUSH1 0x13 DUP5 GT PUSH3 0xB5D JUMPI PUSH1 0x0 PUSH3 0xB74 JUMP JUMPDEST DUP11 PUSH1 0x13 DUP2 MLOAD DUP2 LT PUSH3 0xB6B JUMPI INVALID JUMPDEST PUSH1 0x20 MUL PUSH1 0x20 ADD ADD MLOAD JUMPDEST PUSH1 0x1 PUSH1 0x1 PUSH1 0xA0 SHL SUB AND PUSH2 0x440 DUP2 PUSH1 0x1 PUSH1 0x1 PUSH1 0xA0 SHL SUB AND PUSH1 0x60 SHL DUP2 MSTORE POP POP PUSH3 0xBB7 DUP12 PUSH1 0x0 DUP2 MLOAD DUP2 LT PUSH3 0xBA3 JUMPI INVALID JUMPDEST PUSH1 0x20 MUL PUSH1 0x20 ADD ADD MLOAD PUSH3 0xF85 PUSH1 0x20 SHL PUSH1 0x20 SHR JUMP JUMPDEST PUSH2 0x460 MSTORE DUP11 MLOAD PUSH3 0xBD0 SWAP1 DUP13 SWAP1 PUSH1 0x1 SWAP1 DUP2 LT PUSH3 0xBA3 JUMPI INVALID JUMPDEST PUSH2 0x480 MSTORE PUSH1 0x2 DUP5 GT PUSH3 0xBE5 JUMPI PUSH1 0x0 PUSH3 0xBF7 JUMP JUMPDEST PUSH3 0xBF7 DUP12 PUSH1 0x2 DUP2 MLOAD DUP2 LT PUSH3 0xBA3 JUMPI INVALID JUMPDEST PUSH2 0x4A0 MSTORE PUSH1 0x3 DUP5 GT PUSH3 0xC0C JUMPI PUSH1 0x0 PUSH3 0xC1E JUMP JUMPDEST PUSH3 0xC1E DUP12 PUSH1 0x3 DUP2 MLOAD DUP2 LT PUSH3 0xBA3 JUMPI INVALID JUMPDEST PUSH2 0x4C0 MSTORE PUSH1 0x4 DUP5 GT PUSH3 0xC33 JUMPI PUSH1 0x0 PUSH3 0xC45 JUMP JUMPDEST PUSH3 0xC45 DUP12 PUSH1 0x4 DUP2 MLOAD DUP2 LT PUSH3 0xBA3 JUMPI INVALID JUMPDEST PUSH2 0x4E0 MSTORE PUSH1 0x5 DUP5 GT PUSH3 0xC5A JUMPI PUSH1 0x0 PUSH3 0xC6C JUMP JUMPDEST PUSH3 0xC6C DUP12 PUSH1 0x5 DUP2 MLOAD DUP2 LT PUSH3 0xBA3 JUMPI INVALID JUMPDEST PUSH2 0x500 MSTORE PUSH1 0x6 DUP5 GT PUSH3 0xC81 JUMPI PUSH1 0x0 PUSH3 0xC93 JUMP JUMPDEST PUSH3 0xC93 DUP12 PUSH1 0x6 DUP2 MLOAD DUP2 LT PUSH3 0xBA3 JUMPI INVALID JUMPDEST PUSH2 0x520 MSTORE PUSH1 0x7 DUP5 GT PUSH3 0xCA8 JUMPI PUSH1 0x0 PUSH3 0xCBA JUMP JUMPDEST PUSH3 0xCBA DUP12 PUSH1 0x7 DUP2 MLOAD DUP2 LT PUSH3 0xBA3 JUMPI INVALID JUMPDEST PUSH2 0x540 MSTORE PUSH1 0x8 DUP5 GT PUSH3 0xCCF JUMPI PUSH1 0x0 PUSH3 0xCE1 JUMP JUMPDEST PUSH3 0xCE1 DUP12 PUSH1 0x8 DUP2 MLOAD DUP2 LT PUSH3 0xBA3 JUMPI INVALID JUMPDEST PUSH2 0x560 MSTORE PUSH1 0x9 DUP5 GT PUSH3 0xCF6 JUMPI PUSH1 0x0 PUSH3 0xD08 JUMP JUMPDEST PUSH3 0xD08 DUP12 PUSH1 0x9 DUP2 MLOAD DUP2 LT PUSH3 0xBA3 JUMPI INVALID JUMPDEST PUSH2 0x580 MSTORE PUSH1 0xA DUP5 GT PUSH3 0xD1D JUMPI PUSH1 0x0 PUSH3 0xD2F JUMP JUMPDEST PUSH3 0xD2F DUP12 PUSH1 0xA DUP2 MLOAD DUP2 LT PUSH3 0xBA3 JUMPI INVALID JUMPDEST PUSH2 0x5A0 MSTORE PUSH1 0xB DUP5 GT PUSH3 0xD44 JUMPI PUSH1 0x0 PUSH3 0xD56 JUMP JUMPDEST PUSH3 0xD56 DUP12 PUSH1 0xB DUP2 MLOAD DUP2 LT PUSH3 0xBA3 JUMPI INVALID JUMPDEST PUSH2 0x5C0 MSTORE PUSH1 0xC DUP5 GT PUSH3 0xD6B JUMPI PUSH1 0x0 PUSH3 0xD7D JUMP JUMPDEST PUSH3 0xD7D DUP12 PUSH1 0xC DUP2 MLOAD DUP2 LT PUSH3 0xBA3 JUMPI INVALID JUMPDEST PUSH2 0x5E0 MSTORE PUSH1 0xD DUP5 GT PUSH3 0xD92 JUMPI PUSH1 0x0 PUSH3 0xDA4 JUMP JUMPDEST PUSH3 0xDA4 DUP12 PUSH1 0xD DUP2 MLOAD DUP2 LT PUSH3 0xBA3 JUMPI INVALID JUMPDEST PUSH2 0x600 MSTORE PUSH1 0xE DUP5 GT PUSH3 0xDB9 JUMPI PUSH1 0x0 PUSH3 0xDCB JUMP JUMPDEST PUSH3 0xDCB DUP12 PUSH1 0xE DUP2 MLOAD DUP2 LT PUSH3 0xBA3 JUMPI INVALID JUMPDEST PUSH2 0x620 MSTORE PUSH1 0xF DUP5 GT PUSH3 0xDE0 JUMPI PUSH1 0x0 PUSH3 0xDF2 JUMP JUMPDEST PUSH3 0xDF2 DUP12 PUSH1 0xF DUP2 MLOAD DUP2 LT PUSH3 0xBA3 JUMPI INVALID JUMPDEST PUSH2 0x640 MSTORE PUSH1 0x10 DUP5 GT PUSH3 0xE07 JUMPI PUSH1 0x0 PUSH3 0xE19 JUMP JUMPDEST PUSH3 0xE19 DUP12 PUSH1 0x10 DUP2 MLOAD DUP2 LT PUSH3 0xBA3 JUMPI INVALID JUMPDEST PUSH2 0x660 MSTORE PUSH1 0x11 DUP5 GT PUSH3 0xE2E JUMPI PUSH1 0x0 PUSH3 0xE40 JUMP JUMPDEST PUSH3 0xE40 DUP12 PUSH1 0x11 DUP2 MLOAD DUP2 LT PUSH3 0xBA3 JUMPI INVALID JUMPDEST PUSH2 0x680 MSTORE PUSH1 0x12 DUP5 GT PUSH3 0xE55 JUMPI PUSH1 0x0 PUSH3 0xE67 JUMP JUMPDEST PUSH3 0xE67 DUP12 PUSH1 0x12 DUP2 MLOAD DUP2 LT PUSH3 0xBA3 JUMPI INVALID JUMPDEST PUSH2 0x6A0 MSTORE PUSH1 0x13 DUP5 GT PUSH3 0xE7C JUMPI PUSH1 0x0 PUSH3 0xE8E JUMP JUMPDEST PUSH3 0xE8E DUP12 PUSH1 0x13 DUP2 MLOAD DUP2 LT PUSH3 0xBA3 JUMPI INVALID JUMPDEST PUSH2 0x6C0 MSTORE POP PUSH3 0x164D SWAP13 POP POP POP POP POP POP POP POP POP POP POP POP POP JUMP JUMPDEST DUP2 PUSH3 0xEB8 JUMPI PUSH3 0xEB8 DUP2 PUSH3 0x1031 JUMP JUMPDEST POP POP JUMP JUMPDEST PUSH1 0x14 SWAP1 JUMP JUMPDEST DUP1 PUSH3 0xEB8 DUP2 PUSH3 0x1084 JUMP JUMPDEST PUSH3 0xEE2 PUSH5 0xE8D4A51000 DUP3 LT ISZERO PUSH1 0xCB PUSH3 0xEA7 JUMP JUMPDEST PUSH3 0xEFA PUSH8 0x16345785D8A0000 DUP3 GT ISZERO PUSH1 0xCA PUSH3 0xEA7 JUMP JUMPDEST PUSH3 0xF19 DUP2 PUSH1 0xC0 PUSH1 0x8 SLOAD PUSH3 0x1111 PUSH1 0x20 SHL PUSH3 0xDC7 OR SWAP1 SWAP3 SWAP2 SWAP1 PUSH1 0x20 SHR JUMP JUMPDEST PUSH1 0x8 SSTORE PUSH1 0x40 MLOAD PUSH32 0xA9BA3FFE0B6C366B81232CAAB38605A0699AD5398D6CCE76F91EE809E322DAFC SWAP1 PUSH3 0xF4E SWAP1 DUP4 SWAP1 PUSH3 0x15DB JUMP JUMPDEST PUSH1 0x40 MLOAD DUP1 SWAP2 SUB SWAP1 LOG1 POP JUMP JUMPDEST PUSH3 0xEB8 DUP3 DUP3 EQ PUSH1 0x67 PUSH3 0xEA7 JUMP JUMPDEST PUSH1 0x0 DUP3 DUP3 ADD PUSH3 0xF7C DUP5 DUP3 LT ISZERO DUP4 PUSH3 0xEA7 JUMP JUMPDEST SWAP1 POP JUMPDEST SWAP3 SWAP2 POP POP JUMP JUMPDEST PUSH1 0x0 DUP1 DUP3 PUSH1 0x1 PUSH1 0x1 PUSH1 0xA0 SHL SUB AND PUSH4 0x313CE567 PUSH1 0x40 MLOAD DUP2 PUSH4 0xFFFFFFFF AND PUSH1 0xE0 SHL DUP2 MSTORE PUSH1 0x4 ADD PUSH1 0x20 PUSH1 0x40 MLOAD DUP1 DUP4 SUB DUP2 DUP7 DUP1 EXTCODESIZE ISZERO DUP1 ISZERO PUSH3 0xFC2 JUMPI PUSH1 0x0 DUP1 REVERT JUMPDEST POP GAS STATICCALL ISZERO DUP1 ISZERO PUSH3 0xFD7 JUMPI RETURNDATASIZE PUSH1 0x0 DUP1 RETURNDATACOPY RETURNDATASIZE PUSH1 0x0 REVERT JUMPDEST POP POP POP POP PUSH1 0x40 MLOAD RETURNDATASIZE PUSH1 0x1F NOT PUSH1 0x1F DUP3 ADD AND DUP3 ADD DUP1 PUSH1 0x40 MSTORE POP DUP2 ADD SWAP1 PUSH3 0xFFD SWAP2 SWAP1 PUSH3 0x1507 JUMP JUMPDEST PUSH1 0xFF AND SWAP1 POP PUSH1 0x0 PUSH3 0x101C PUSH1 0x12 DUP4 PUSH3 0x1126 PUSH1 0x20 SHL PUSH3 0xDDC OR PUSH1 0x20 SHR JUMP JUMPDEST PUSH1 0xA EXP PUSH8 0xDE0B6B3A7640000 MUL SWAP5 SWAP4 POP POP POP POP JUMP JUMPDEST PUSH3 0x461BCD PUSH1 0xE5 SHL PUSH1 0x0 SWAP1 DUP2 MSTORE PUSH1 0x20 PUSH1 0x4 MSTORE PUSH1 0x7 PUSH1 0x24 MSTORE PUSH7 0x42414C23000030 PUSH1 0xA DUP1 DUP5 DIV DUP2 DUP2 MOD PUSH1 0x30 SWAP1 DUP2 ADD PUSH1 0x8 SHL SWAP6 DUP4 SWAP1 MOD SWAP6 SWAP1 SWAP6 ADD SWAP1 DUP3 SWAP1 DIV SWAP2 DUP3 MOD SWAP1 SWAP5 ADD PUSH1 0x10 SHL SWAP4 SWAP1 SWAP4 ADD ADD PUSH1 0xC8 SHL PUSH1 0x44 MSTORE PUSH1 0x64 SWAP1 REVERT JUMPDEST PUSH1 0x2 DUP2 MLOAD LT ISZERO PUSH3 0x1095 JUMPI PUSH3 0x110E JUMP JUMPDEST PUSH1 0x0 DUP2 PUSH1 0x0 DUP2 MLOAD DUP2 LT PUSH3 0x10A5 JUMPI INVALID JUMPDEST PUSH1 0x20 MUL PUSH1 0x20 ADD ADD MLOAD SWAP1 POP PUSH1 0x0 PUSH1 0x1 SWAP1 POP JUMPDEST DUP3 MLOAD DUP2 LT ISZERO PUSH3 0x110B JUMPI PUSH1 0x0 DUP4 DUP3 DUP2 MLOAD DUP2 LT PUSH3 0x10CF JUMPI INVALID JUMPDEST PUSH1 0x20 MUL PUSH1 0x20 ADD ADD MLOAD SWAP1 POP PUSH3 0x1100 DUP2 PUSH1 0x1 PUSH1 0x1 PUSH1 0xA0 SHL SUB AND DUP5 PUSH1 0x1 PUSH1 0x1 PUSH1 0xA0 SHL SUB AND LT PUSH1 0x65 PUSH3 0xEA7 PUSH1 0x20 SHL PUSH1 0x20 SHR JUMP JUMPDEST SWAP2 POP PUSH1 0x1 ADD PUSH3 0x10B6 JUMP JUMPDEST POP POP JUMPDEST POP JUMP JUMPDEST PUSH1 0x1 PUSH1 0x1 PUSH1 0x40 SHL SUB DUP2 SHL NOT SWAP3 SWAP1 SWAP3 AND SWAP2 SHL OR SWAP1 JUMP JUMPDEST PUSH1 0x0 PUSH3 0x1138 DUP4 DUP4 GT ISZERO PUSH1 0x1 PUSH3 0xEA7 JUMP JUMPDEST POP SWAP1 SUB SWAP1 JUMP JUMPDEST DUP3 DUP1 SLOAD PUSH1 0x1 DUP2 PUSH1 0x1 AND ISZERO PUSH2 0x100 MUL SUB AND PUSH1 0x2 SWAP1 DIV SWAP1 PUSH1 0x0 MSTORE PUSH1 0x20 PUSH1 0x0 KECCAK256 SWAP1 PUSH1 0x1F ADD PUSH1 0x20 SWAP1 DIV DUP2 ADD SWAP3 DUP3 PUSH1 0x1F LT PUSH3 0x1181 JUMPI DUP1 MLOAD PUSH1 0xFF NOT AND DUP4 DUP1 ADD OR DUP6 SSTORE PUSH3 0x11B1 JUMP JUMPDEST DUP3 DUP1 ADD PUSH1 0x1 ADD DUP6 SSTORE DUP3 ISZERO PUSH3 0x11B1 JUMPI SWAP2 DUP3 ADD JUMPDEST DUP3 DUP2 GT ISZERO PUSH3 0x11B1 JUMPI DUP3 MLOAD DUP3 SSTORE SWAP2 PUSH1 0x20 ADD SWAP2 SWAP1 PUSH1 0x1 ADD SWAP1 PUSH3 0x1194 JUMP JUMPDEST POP PUSH3 0x11BF SWAP3 SWAP2 POP PUSH3 0x11C3 JUMP JUMPDEST POP SWAP1 JUMP JUMPDEST JUMPDEST DUP1 DUP3 GT ISZERO PUSH3 0x11BF JUMPI PUSH1 0x0 DUP2 SSTORE PUSH1 0x1 ADD PUSH3 0x11C4 JUMP JUMPDEST DUP1 MLOAD PUSH3 0xF7F DUP2 PUSH3 0x1637 JUMP JUMPDEST PUSH1 0x0 DUP3 PUSH1 0x1F DUP4 ADD SLT PUSH3 0x11F8 JUMPI DUP1 DUP2 REVERT JUMPDEST DUP2 MLOAD PUSH3 0x120F PUSH3 0x1209 DUP3 PUSH3 0x160B JUMP JUMPDEST PUSH3 0x15E4 JUMP JUMPDEST DUP2 DUP2 MSTORE SWAP2 POP PUSH1 0x20 DUP1 DUP4 ADD SWAP1 DUP5 DUP2 ADD DUP2 DUP5 MUL DUP7 ADD DUP3 ADD DUP8 LT ISZERO PUSH3 0x1231 JUMPI PUSH1 0x0 DUP1 REVERT JUMPDEST PUSH1 0x0 JUMPDEST DUP5 DUP2 LT ISZERO PUSH3 0x125D JUMPI DUP2 MLOAD PUSH3 0x124A DUP2 PUSH3 0x1637 JUMP JUMPDEST DUP5 MSTORE SWAP3 DUP3 ADD SWAP3 SWAP1 DUP3 ADD SWAP1 PUSH1 0x1 ADD PUSH3 0x1234 JUMP JUMPDEST POP POP POP POP POP SWAP3 SWAP2 POP POP JUMP JUMPDEST PUSH1 0x0 DUP3 PUSH1 0x1F DUP4 ADD SLT PUSH3 0x1279 JUMPI DUP1 DUP2 REVERT JUMPDEST DUP2 MLOAD PUSH3 0x128A PUSH3 0x1209 DUP3 PUSH3 0x160B JUMP JUMPDEST DUP2 DUP2 MSTORE SWAP2 POP PUSH1 0x20 DUP1 DUP4 ADD SWAP1 DUP5 DUP2 ADD DUP2 DUP5 MUL DUP7 ADD DUP3 ADD DUP8 LT ISZERO PUSH3 0x12AC JUMPI PUSH1 0x0 DUP1 REVERT JUMPDEST PUSH1 0x0 JUMPDEST DUP5 DUP2 LT ISZERO PUSH3 0x125D JUMPI DUP2 MLOAD PUSH3 0x12C5 DUP2 PUSH3 0x1637 JUMP JUMPDEST DUP5 MSTORE SWAP3 DUP3 ADD SWAP3 SWAP1 DUP3 ADD SWAP1 PUSH1 0x1 ADD PUSH3 0x12AF JUMP JUMPDEST PUSH1 0x0 DUP3 PUSH1 0x1F DUP4 ADD SLT PUSH3 0x12E9 JUMPI DUP1 DUP2 REVERT JUMPDEST DUP2 MLOAD PUSH3 0x12FA PUSH3 0x1209 DUP3 PUSH3 0x160B JUMP JUMPDEST DUP2 DUP2 MSTORE SWAP2 POP PUSH1 0x20 DUP1 DUP4 ADD SWAP1 DUP5 DUP2 ADD DUP2 DUP5 MUL DUP7 ADD DUP3 ADD DUP8 LT ISZERO PUSH3 0x131C JUMPI PUSH1 0x0 DUP1 REVERT JUMPDEST PUSH1 0x0 JUMPDEST DUP5 DUP2 LT ISZERO PUSH3 0x125D JUMPI DUP2 MLOAD DUP5 MSTORE SWAP3 DUP3 ADD SWAP3 SWAP1 DUP3 ADD SWAP1 PUSH1 0x1 ADD PUSH3 0x131F JUMP JUMPDEST PUSH1 0x0 DUP3 PUSH1 0x1F DUP4 ADD SLT PUSH3 0x134E JUMPI DUP1 DUP2 REVERT JUMPDEST DUP2 MLOAD PUSH1 0x1 PUSH1 0x1 PUSH1 0x40 SHL SUB DUP2 GT ISZERO PUSH3 0x1364 JUMPI DUP2 DUP3 REVERT JUMPDEST PUSH1 0x20 PUSH3 0x137A PUSH1 0x1F DUP4 ADD PUSH1 0x1F NOT AND DUP3 ADD PUSH3 0x15E4 JUMP JUMPDEST SWAP3 POP DUP2 DUP4 MSTORE DUP5 DUP2 DUP4 DUP7 ADD ADD GT ISZERO PUSH3 0x1391 JUMPI PUSH1 0x0 DUP1 REVERT JUMPDEST PUSH1 0x0 JUMPDEST DUP3 DUP2 LT ISZERO PUSH3 0x13B1 JUMPI DUP5 DUP2 ADD DUP3 ADD MLOAD DUP5 DUP3 ADD DUP4 ADD MSTORE DUP2 ADD PUSH3 0x1394 JUMP JUMPDEST DUP3 DUP2 GT ISZERO PUSH3 0x13C3 JUMPI PUSH1 0x0 DUP3 DUP5 DUP7 ADD ADD MSTORE JUMPDEST POP POP POP SWAP3 SWAP2 POP POP JUMP JUMPDEST PUSH1 0x0 PUSH1 0x20 DUP3 DUP5 SUB SLT ISZERO PUSH3 0x13DE JUMPI DUP1 DUP2 REVERT JUMPDEST POP MLOAD SWAP2 SWAP1 POP JUMP JUMPDEST PUSH1 0x0 DUP1 PUSH1 0x0 DUP1 PUSH1 0x0 DUP1 PUSH1 0x0 DUP1 PUSH1 0x0 DUP1 PUSH2 0x140 DUP12 DUP14 SUB SLT ISZERO PUSH3 0x1405 JUMPI DUP6 DUP7 REVERT JUMPDEST PUSH3 0x1411 DUP13 DUP13 PUSH3 0x11DA JUMP JUMPDEST PUSH1 0x20 DUP13 ADD MLOAD SWAP1 SWAP11 POP PUSH1 0x1 PUSH1 0x1 PUSH1 0x40 SHL SUB DUP1 DUP3 GT ISZERO PUSH3 0x142E JUMPI DUP8 DUP9 REVERT JUMPDEST PUSH3 0x143C DUP15 DUP4 DUP16 ADD PUSH3 0x133D JUMP JUMPDEST SWAP11 POP PUSH1 0x40 DUP14 ADD MLOAD SWAP2 POP DUP1 DUP3 GT ISZERO PUSH3 0x1452 JUMPI DUP8 DUP9 REVERT JUMPDEST PUSH3 0x1460 DUP15 DUP4 DUP16 ADD PUSH3 0x133D JUMP JUMPDEST SWAP10 POP PUSH1 0x60 DUP14 ADD MLOAD SWAP2 POP DUP1 DUP3 GT ISZERO PUSH3 0x1476 JUMPI DUP8 DUP9 REVERT JUMPDEST PUSH3 0x1484 DUP15 DUP4 DUP16 ADD PUSH3 0x1268 JUMP JUMPDEST SWAP9 POP PUSH1 0x80 DUP14 ADD MLOAD SWAP2 POP DUP1 DUP3 GT ISZERO PUSH3 0x149A JUMPI DUP8 DUP9 REVERT JUMPDEST PUSH3 0x14A8 DUP15 DUP4 DUP16 ADD PUSH3 0x12D8 JUMP JUMPDEST SWAP8 POP PUSH1 0xA0 DUP14 ADD MLOAD SWAP2 POP DUP1 DUP3 GT ISZERO PUSH3 0x14BE JUMPI DUP7 DUP8 REVERT JUMPDEST POP PUSH3 0x14CD DUP14 DUP3 DUP15 ADD PUSH3 0x11E7 JUMP JUMPDEST SWAP6 POP POP PUSH1 0xC0 DUP12 ADD MLOAD SWAP4 POP PUSH1 0xE0 DUP12 ADD MLOAD SWAP3 POP PUSH2 0x100 DUP12 ADD MLOAD SWAP2 POP PUSH3 0x14F6 DUP13 PUSH2 0x120 DUP14 ADD PUSH3 0x11DA JUMP JUMPDEST SWAP1 POP SWAP3 SWAP6 SWAP9 SWAP12 SWAP2 SWAP5 SWAP8 SWAP11 POP SWAP3 SWAP6 SWAP9 POP JUMP JUMPDEST PUSH1 0x0 PUSH1 0x20 DUP3 DUP5 SUB SLT ISZERO PUSH3 0x1519 JUMPI DUP1 DUP2 REVERT JUMPDEST DUP2 MLOAD PUSH1 0xFF DUP2 AND DUP2 EQ PUSH3 0xF7C JUMPI DUP2 DUP3 REVERT JUMPDEST PUSH1 0x0 PUSH1 0x60 DUP3 ADD DUP6 DUP4 MSTORE PUSH1 0x20 PUSH1 0x60 DUP2 DUP6 ADD MSTORE DUP2 DUP7 MLOAD DUP1 DUP5 MSTORE PUSH1 0x80 DUP7 ADD SWAP2 POP DUP3 DUP9 ADD SWAP4 POP DUP5 JUMPDEST DUP2 DUP2 LT ISZERO PUSH3 0x1576 JUMPI PUSH3 0x1563 DUP6 MLOAD PUSH3 0x162B JUMP JUMPDEST DUP4 MSTORE SWAP4 DUP4 ADD SWAP4 SWAP2 DUP4 ADD SWAP2 PUSH1 0x1 ADD PUSH3 0x154E JUMP JUMPDEST POP POP DUP5 DUP2 SUB PUSH1 0x40 DUP7 ADD MSTORE DUP6 MLOAD DUP1 DUP3 MSTORE SWAP1 DUP3 ADD SWAP3 POP DUP2 DUP7 ADD SWAP1 DUP5 JUMPDEST DUP2 DUP2 LT ISZERO PUSH3 0x15B8 JUMPI PUSH3 0x15A5 DUP4 MLOAD PUSH3 0x162B JUMP JUMPDEST DUP6 MSTORE SWAP4 DUP4 ADD SWAP4 SWAP2 DUP4 ADD SWAP2 PUSH1 0x1 ADD PUSH3 0x1590 JUMP JUMPDEST POP SWAP3 SWAP9 SWAP8 POP POP POP POP POP POP POP POP JUMP JUMPDEST PUSH1 0x20 DUP2 ADD PUSH1 0x3 DUP4 LT PUSH3 0x15D5 JUMPI INVALID JUMPDEST SWAP2 SWAP1 MSTORE SWAP1 JUMP JUMPDEST SWAP1 DUP2 MSTORE PUSH1 0x20 ADD SWAP1 JUMP JUMPDEST PUSH1 0x40 MLOAD DUP2 DUP2 ADD PUSH1 0x1 PUSH1 0x1 PUSH1 0x40 SHL SUB DUP2 GT DUP3 DUP3 LT OR ISZERO PUSH3 0x1603 JUMPI PUSH1 0x0 DUP1 REVERT JUMPDEST PUSH1 0x40 MSTORE SWAP2 SWAP1 POP JUMP JUMPDEST PUSH1 0x0 PUSH1 0x1 PUSH1 0x1 PUSH1 0x40 SHL SUB DUP3 GT ISZERO PUSH3 0x1621 JUMPI DUP1 DUP2 REVERT JUMPDEST POP PUSH1 0x20 SWAP1 DUP2 MUL ADD SWAP1 JUMP JUMPDEST PUSH1 0x1 PUSH1 0x1 PUSH1 0xA0 SHL SUB AND SWAP1 JUMP JUMPDEST PUSH1 0x1 PUSH1 0x1 PUSH1 0xA0 SHL SUB DUP2 AND DUP2 EQ PUSH3 0x110E JUMPI PUSH1 0x0 DUP1 REVERT JUMPDEST PUSH1 0x80 MLOAD PUSH1 0xA0 MLOAD PUSH1 0x60 SHR PUSH1 0xC0 MLOAD PUSH1 0xE0 MLOAD PUSH2 0x100 MLOAD PUSH2 0x120 MLOAD PUSH2 0x140 MLOAD PUSH2 0x160 MLOAD PUSH2 0x180 MLOAD PUSH1 0x60 SHR PUSH2 0x1A0 MLOAD PUSH2 0x1C0 MLOAD PUSH2 0x1E0 MLOAD PUSH1 0x60 SHR PUSH2 0x200 MLOAD PUSH1 0x60 SHR PUSH2 0x220 MLOAD PUSH1 0x60 SHR PUSH2 0x240 MLOAD PUSH1 0x60 SHR PUSH2 0x260 MLOAD PUSH1 0x60 SHR PUSH2 0x280 MLOAD PUSH1 0x60 SHR PUSH2 0x2A0 MLOAD PUSH1 0x60 SHR PUSH2 0x2C0 MLOAD PUSH1 0x60 SHR PUSH2 0x2E0 MLOAD PUSH1 0x60 SHR PUSH2 0x300 MLOAD PUSH1 0x60 SHR PUSH2 0x320 MLOAD PUSH1 0x60 SHR PUSH2 0x340 MLOAD PUSH1 0x60 SHR PUSH2 0x360 MLOAD PUSH1 0x60 SHR PUSH2 0x380 MLOAD PUSH1 0x60 SHR PUSH2 0x3A0 MLOAD PUSH1 0x60 SHR PUSH2 0x3C0 MLOAD PUSH1 0x60 SHR PUSH2 0x3E0 MLOAD PUSH1 0x60 SHR PUSH2 0x400 MLOAD PUSH1 0x60 SHR PUSH2 0x420 MLOAD PUSH1 0x60 SHR PUSH2 0x440 MLOAD PUSH1 0x60 SHR PUSH2 0x460 MLOAD PUSH2 0x480 MLOAD PUSH2 0x4A0 MLOAD PUSH2 0x4C0 MLOAD PUSH2 0x4E0 MLOAD PUSH2 0x500 MLOAD PUSH2 0x520 MLOAD PUSH2 0x540 MLOAD PUSH2 0x560 MLOAD PUSH2 0x580 MLOAD PUSH2 0x5A0 MLOAD PUSH2 0x5C0 MLOAD PUSH2 0x5E0 MLOAD PUSH2 0x600 MLOAD PUSH2 0x620 MLOAD PUSH2 0x640 MLOAD PUSH2 0x660 MLOAD PUSH2 0x680 MLOAD PUSH2 0x6A0 MLOAD PUSH2 0x6C0 MLOAD PUSH2 0x6E0 MLOAD PUSH2 0x700 MLOAD PUSH2 0x720 MLOAD PUSH2 0x740 MLOAD PUSH2 0x760 MLOAD PUSH2 0x780 MLOAD PUSH2 0x7A0 MLOAD PUSH2 0x7C0 MLOAD PUSH2 0x7E0 MLOAD PUSH2 0x800 MLOAD PUSH2 0x820 MLOAD PUSH2 0x840 MLOAD PUSH2 0x860 MLOAD PUSH2 0x880 MLOAD PUSH2 0x8A0 MLOAD PUSH2 0x8C0 MLOAD PUSH2 0x8E0 MLOAD PUSH2 0x900 MLOAD PUSH2 0x920 MLOAD PUSH2 0x940 MLOAD PUSH2 0x960 MLOAD PUSH2 0x5921 PUSH3 0x1A99 PUSH1 0x0 CODECOPY DUP1 PUSH2 0x2C14 MSTORE DUP1 PUSH2 0x3907 MSTORE POP DUP1 PUSH2 0x2BD1 MSTORE DUP1 PUSH2 0x38A6 MSTORE POP DUP1 PUSH2 0x2B8E MSTORE DUP1 PUSH2 0x3845 MSTORE POP DUP1 PUSH2 0x2B4B MSTORE DUP1 PUSH2 0x37E4 MSTORE POP DUP1 PUSH2 0x2B08 MSTORE DUP1 PUSH2 0x3783 MSTORE POP DUP1 PUSH2 0x2AC5 MSTORE DUP1 PUSH2 0x3722 MSTORE POP DUP1 PUSH2 0x2A82 MSTORE DUP1 PUSH2 0x36C1 MSTORE POP DUP1 PUSH2 0x2A3F MSTORE DUP1 PUSH2 0x3660 MSTORE POP DUP1 PUSH2 0x29FC MSTORE DUP1 PUSH2 0x35FF MSTORE POP DUP1 PUSH2 0x29B9 MSTORE DUP1 PUSH2 0x359E MSTORE POP DUP1 PUSH2 0x2976 MSTORE DUP1 PUSH2 0x353D MSTORE POP DUP1 PUSH2 0x2933 MSTORE DUP1 PUSH2 0x34DC MSTORE POP DUP1 PUSH2 0x28F0 MSTORE DUP1 PUSH2 0x347B MSTORE POP DUP1 PUSH2 0x28AD MSTORE DUP1 PUSH2 0x341A MSTORE POP DUP1 PUSH2 0x286A MSTORE DUP1 PUSH2 0x33B9 MSTORE POP DUP1 PUSH2 0x2827 MSTORE DUP1 PUSH2 0x3358 MSTORE POP DUP1 PUSH2 0x27E4 MSTORE DUP1 PUSH2 0x32F7 MSTORE POP DUP1 PUSH2 0x27A1 MSTORE DUP1 PUSH2 0x3296 MSTORE POP DUP1 PUSH2 0x275E MSTORE DUP1 PUSH2 0x3235 MSTORE POP DUP1 PUSH2 0x271B MSTORE DUP1 PUSH2 0x31D4 MSTORE POP DUP1 PUSH2 0x2568 MSTORE POP DUP1 PUSH2 0x14CD MSTORE DUP1 PUSH2 0x23D7 MSTORE POP DUP1 PUSH2 0x148A MSTORE DUP1 PUSH2 0x2376 MSTORE POP DUP1 PUSH2 0x1447 MSTORE DUP1 PUSH2 0x2315 MSTORE POP DUP1 PUSH2 0x1404 MSTORE DUP1 PUSH2 0x22B4 MSTORE POP DUP1 PUSH2 0x13C1 MSTORE DUP1 PUSH2 0x2253 MSTORE POP DUP1 PUSH2 0x137E MSTORE DUP1 PUSH2 0x21F2 MSTORE POP DUP1 PUSH2 0x133B MSTORE DUP1 PUSH2 0x2191 MSTORE POP DUP1 PUSH2 0x12F8 MSTORE DUP1 PUSH2 0x2130 MSTORE POP DUP1 PUSH2 0x12B5 MSTORE DUP1 PUSH2 0x20CF MSTORE POP DUP1 PUSH2 0x1272 MSTORE DUP1 PUSH2 0x206E MSTORE POP DUP1 PUSH2 0x122F MSTORE DUP1 PUSH2 0x200D MSTORE POP DUP1 PUSH2 0x11EC MSTORE DUP1 PUSH2 0x1FAC MSTORE POP DUP1 PUSH2 0x11A9 MSTORE DUP1 PUSH2 0x1F4B MSTORE POP DUP1 PUSH2 0x1166 MSTORE DUP1 PUSH2 0x1EEA MSTORE POP DUP1 PUSH2 0x1123 MSTORE DUP1 PUSH2 0x1E89 MSTORE POP DUP1 PUSH2 0x10E0 MSTORE DUP1 PUSH2 0x1E28 MSTORE POP DUP1 PUSH2 0x109D MSTORE DUP1 PUSH2 0x1DC7 MSTORE POP DUP1 PUSH2 0x105A MSTORE DUP1 PUSH2 0x1D66 MSTORE POP DUP1 PUSH2 0x1017 MSTORE DUP1 PUSH2 0x1D05 MSTORE POP DUP1 PUSH2 0xFC6 MSTORE DUP1 PUSH2 0x1CA4 MSTORE POP DUP1 PUSH2 0x239C MSTORE DUP1 PUSH2 0x38CC MSTORE POP DUP1 PUSH2 0x233B MSTORE DUP1 PUSH2 0x386B MSTORE POP DUP1 PUSH2 0x22DA MSTORE DUP1 PUSH2 0x380A MSTORE POP DUP1 PUSH2 0x2279 MSTORE DUP1 PUSH2 0x37A9 MSTORE POP DUP1 PUSH2 0x2218 MSTORE DUP1 PUSH2 0x3748 MSTORE POP DUP1 PUSH2 0x21B7 MSTORE DUP1 PUSH2 0x36E7 MSTORE POP DUP1 PUSH2 0x2156 MSTORE DUP1 PUSH2 0x3686 MSTORE POP DUP1 PUSH2 0x20F5 MSTORE DUP1 PUSH2 0x3625 MSTORE POP DUP1 PUSH2 0x2094 MSTORE DUP1 PUSH2 0x35C4 MSTORE POP DUP1 PUSH2 0x2033 MSTORE DUP1 PUSH2 0x3563 MSTORE POP DUP1 PUSH2 0x1FD2 MSTORE DUP1 PUSH2 0x3502 MSTORE POP DUP1 PUSH2 0x1F71 MSTORE DUP1 PUSH2 0x34A1 MSTORE POP DUP1 PUSH2 0x1F10 MSTORE DUP1 PUSH2 0x3440 MSTORE POP DUP1 PUSH2 0x1EAF MSTORE DUP1 PUSH2 0x33DF MSTORE POP DUP1 PUSH2 0x1E4E MSTORE DUP1 PUSH2 0x337E MSTORE POP DUP1 PUSH2 0x1DED MSTORE DUP1 PUSH2 0x331D MSTORE POP DUP1 PUSH2 0x1D8C MSTORE DUP1 PUSH2 0x32BC MSTORE POP DUP1 PUSH2 0x1D2B MSTORE DUP1 PUSH2 0x325B MSTORE POP DUP1 PUSH2 0x1CCA MSTORE DUP1 PUSH2 0x31FA MSTORE POP DUP1 PUSH2 0x1C69 MSTORE DUP1 PUSH2 0x3199 MSTORE POP DUP1 PUSH2 0x1824 MSTORE POP DUP1 PUSH2 0x609 MSTORE POP DUP1 PUSH2 0x872 MSTORE POP DUP1 PUSH2 0xF49 MSTORE POP DUP1 PUSH2 0xF25 MSTORE POP DUP1 PUSH2 0xB31 MSTORE POP DUP1 PUSH2 0x15FD MSTORE POP DUP1 PUSH2 0x163F MSTORE POP DUP1 PUSH2 0x161E MSTORE POP DUP1 PUSH2 0x84E MSTORE POP DUP1 PUSH2 0x7D8 MSTORE POP PUSH2 0x5921 PUSH1 0x0 RETURN INVALID PUSH1 0x80 PUSH1 0x40 MSTORE CALLVALUE DUP1 ISZERO PUSH2 0x10 JUMPI PUSH1 0x0 DUP1 REVERT JUMPDEST POP PUSH1 0x4 CALLDATASIZE LT PUSH2 0x206 JUMPI PUSH1 0x0 CALLDATALOAD PUSH1 0xE0 SHR DUP1 PUSH4 0x74F3B009 GT PUSH2 0x11A JUMPI DUP1 PUSH4 0x9D2C110C GT PUSH2 0xAD JUMPI DUP1 PUSH4 0xC0FF1A15 GT PUSH2 0x7C JUMPI DUP1 PUSH4 0xC0FF1A15 EQ PUSH2 0x41C JUMPI DUP1 PUSH4 0xD505ACCF EQ PUSH2 0x424 JUMPI DUP1 PUSH4 0xD5C096C4 EQ PUSH2 0x437 JUMPI DUP1 PUSH4 0xDD62ED3E EQ PUSH2 0x44A JUMPI DUP1 PUSH4 0xF89F27ED EQ PUSH2 0x45D JUMPI PUSH2 0x206 JUMP JUMPDEST DUP1 PUSH4 0x9D2C110C EQ PUSH2 0x3DB JUMPI DUP1 PUSH4 0xA457C2D7 EQ PUSH2 0x3EE JUMPI DUP1 PUSH4 0xA9059CBB EQ PUSH2 0x401 JUMPI DUP1 PUSH4 0xAAABADC5 EQ PUSH2 0x414 JUMPI PUSH2 0x206 JUMP JUMPDEST DUP1 PUSH4 0x893D20E8 GT PUSH2 0xE9 JUMPI DUP1 PUSH4 0x893D20E8 EQ PUSH2 0x3AE JUMPI DUP1 PUSH4 0x8D928AF8 EQ PUSH2 0x3C3 JUMPI DUP1 PUSH4 0x95D89B41 EQ PUSH2 0x3CB JUMPI DUP1 PUSH4 0x9B02CDDE EQ PUSH2 0x3D3 JUMPI PUSH2 0x206 JUMP JUMPDEST DUP1 PUSH4 0x74F3B009 EQ PUSH2 0x354 JUMPI DUP1 PUSH4 0x7ECEBE00 EQ PUSH2 0x375 JUMPI DUP1 PUSH4 0x851C1BB3 EQ PUSH2 0x388 JUMPI DUP1 PUSH4 0x87EC6817 EQ PUSH2 0x39B JUMPI PUSH2 0x206 JUMP JUMPDEST DUP1 PUSH4 0x3644E515 GT PUSH2 0x19D JUMPI DUP1 PUSH4 0x50DD6ED9 GT PUSH2 0x16C JUMPI DUP1 PUSH4 0x50DD6ED9 EQ PUSH2 0x2FD JUMPI DUP1 PUSH4 0x55C67628 EQ PUSH2 0x310 JUMPI DUP1 PUSH4 0x6028BFD4 EQ PUSH2 0x318 JUMPI DUP1 PUSH4 0x679AEFCE EQ PUSH2 0x339 JUMPI DUP1 PUSH4 0x70A08231 EQ PUSH2 0x341 JUMPI PUSH2 0x206 JUMP JUMPDEST DUP1 PUSH4 0x3644E515 EQ PUSH2 0x2C7 JUMPI DUP1 PUSH4 0x38E9922E EQ PUSH2 0x2CF JUMPI DUP1 PUSH4 0x38FFF2D0 EQ PUSH2 0x2E2 JUMPI DUP1 PUSH4 0x39509351 EQ PUSH2 0x2EA JUMPI PUSH2 0x206 JUMP JUMPDEST DUP1 PUSH4 0x1C0DE051 GT PUSH2 0x1D9 JUMPI DUP1 PUSH4 0x1C0DE051 EQ PUSH2 0x273 JUMPI DUP1 PUSH4 0x1DD746EA EQ PUSH2 0x28A JUMPI DUP1 PUSH4 0x23B872DD EQ PUSH2 0x29F JUMPI DUP1 PUSH4 0x313CE567 EQ PUSH2 0x2B2 JUMPI PUSH2 0x206 JUMP JUMPDEST DUP1 PUSH4 0x6FDDE03 EQ PUSH2 0x20B JUMPI DUP1 PUSH4 0x95EA7B3 EQ PUSH2 0x229 JUMPI DUP1 PUSH4 0x16C38B3C EQ PUSH2 0x249 JUMPI DUP1 PUSH4 0x18160DDD EQ PUSH2 0x25E JUMPI JUMPDEST PUSH1 0x0 DUP1 REVERT JUMPDEST PUSH2 0x213 PUSH2 0x465 JUMP JUMPDEST PUSH1 0x40 MLOAD PUSH2 0x220 SWAP2 SWAP1 PUSH2 0x583C JUMP JUMPDEST PUSH1 0x40 MLOAD DUP1 SWAP2 SUB SWAP1 RETURN JUMPDEST PUSH2 0x23C PUSH2 0x237 CALLDATASIZE PUSH1 0x4 PUSH2 0x5118 JUMP JUMPDEST PUSH2 0x4FC JUMP JUMPDEST PUSH1 0x40 MLOAD PUSH2 0x220 SWAP2 SWAP1 PUSH2 0x5743 JUMP JUMPDEST PUSH2 0x25C PUSH2 0x257 CALLDATASIZE PUSH1 0x4 PUSH2 0x520E JUMP JUMPDEST PUSH2 0x513 JUMP JUMPDEST STOP JUMPDEST PUSH2 0x266 PUSH2 0x527 JUMP JUMPDEST PUSH1 0x40 MLOAD PUSH2 0x220 SWAP2 SWAP1 PUSH2 0x5766 JUMP JUMPDEST PUSH2 0x27B PUSH2 0x52D JUMP JUMPDEST PUSH1 0x40 MLOAD PUSH2 0x220 SWAP4 SWAP3 SWAP2 SWAP1 PUSH2 0x574E JUMP JUMPDEST PUSH2 0x292 PUSH2 0x556 JUMP JUMPDEST PUSH1 0x40 MLOAD PUSH2 0x220 SWAP2 SWAP1 PUSH2 0x570B JUMP JUMPDEST PUSH2 0x23C PUSH2 0x2AD CALLDATASIZE PUSH1 0x4 PUSH2 0x5063 JUMP JUMPDEST PUSH2 0x565 JUMP JUMPDEST PUSH2 0x2BA PUSH2 0x5DB JUMP JUMPDEST PUSH1 0x40 MLOAD PUSH2 0x220 SWAP2 SWAP1 PUSH2 0x5868 JUMP JUMPDEST PUSH2 0x266 PUSH2 0x5E4 JUMP JUMPDEST PUSH2 0x25C PUSH2 0x2DD CALLDATASIZE PUSH1 0x4 PUSH2 0x55D7 JUMP JUMPDEST PUSH2 0x5EE JUMP JUMPDEST PUSH2 0x266 PUSH2 0x607 JUMP JUMPDEST PUSH2 0x23C PUSH2 0x2F8 CALLDATASIZE PUSH1 0x4 PUSH2 0x5118 JUMP JUMPDEST PUSH2 0x62B JUMP JUMPDEST PUSH2 0x25C PUSH2 0x30B CALLDATASIZE PUSH1 0x4 PUSH2 0x5386 JUMP JUMPDEST PUSH2 0x666 JUMP JUMPDEST PUSH2 0x266 PUSH2 0x684 JUMP JUMPDEST PUSH2 0x32B PUSH2 0x326 CALLDATASIZE PUSH1 0x4 PUSH2 0x5246 JUMP JUMPDEST PUSH2 0x695 JUMP JUMPDEST PUSH1 0x40 MLOAD PUSH2 0x220 SWAP3 SWAP2 SWAP1 PUSH2 0x584F JUMP JUMPDEST PUSH2 0x266 PUSH2 0x6CC JUMP JUMPDEST PUSH2 0x266 PUSH2 0x34F CALLDATASIZE PUSH1 0x4 PUSH2 0x500F JUMP JUMPDEST PUSH2 0x6F7 JUMP JUMPDEST PUSH2 0x367 PUSH2 0x362 CALLDATASIZE PUSH1 0x4 PUSH2 0x5246 JUMP JUMPDEST PUSH2 0x716 JUMP JUMPDEST PUSH1 0x40 MLOAD PUSH2 0x220 SWAP3 SWAP2 SWAP1 PUSH2 0x571E JUMP JUMPDEST PUSH2 0x266 PUSH2 0x383 CALLDATASIZE PUSH1 0x4 PUSH2 0x500F JUMP JUMPDEST PUSH2 0x7B9 JUMP JUMPDEST PUSH2 0x266 PUSH2 0x396 CALLDATASIZE PUSH1 0x4 PUSH2 0x5342 JUMP JUMPDEST PUSH2 0x7D4 JUMP JUMPDEST PUSH2 0x32B PUSH2 0x3A9 CALLDATASIZE PUSH1 0x4 PUSH2 0x5246 JUMP JUMPDEST PUSH2 0x826 JUMP JUMPDEST PUSH2 0x3B6 PUSH2 0x84C JUMP JUMPDEST PUSH1 0x40 MLOAD PUSH2 0x220 SWAP2 SWAP1 PUSH2 0x56F7 JUMP JUMPDEST PUSH2 0x3B6 PUSH2 0x870 JUMP JUMPDEST PUSH2 0x213 PUSH2 0x894 JUMP JUMPDEST PUSH2 0x266 PUSH2 0x8F5 JUMP JUMPDEST PUSH2 0x266 PUSH2 0x3E9 CALLDATASIZE PUSH1 0x4 PUSH2 0x54DC JUMP JUMPDEST PUSH2 0x8FB JUMP JUMPDEST PUSH2 0x23C PUSH2 0x3FC CALLDATASIZE PUSH1 0x4 PUSH2 0x5118 JUMP JUMPDEST PUSH2 0x9E2 JUMP JUMPDEST PUSH2 0x23C PUSH2 0x40F CALLDATASIZE PUSH1 0x4 PUSH2 0x5118 JUMP JUMPDEST PUSH2 0xA20 JUMP JUMPDEST PUSH2 0x3B6 PUSH2 0xA2D JUMP JUMPDEST PUSH2 0x266 PUSH2 0xA37 JUMP JUMPDEST PUSH2 0x25C PUSH2 0x432 CALLDATASIZE PUSH1 0x4 PUSH2 0x50A3 JUMP JUMPDEST PUSH2 0xAFC JUMP JUMPDEST PUSH2 0x367 PUSH2 0x445 CALLDATASIZE PUSH1 0x4 PUSH2 0x5246 JUMP JUMPDEST PUSH2 0xC45 JUMP JUMPDEST PUSH2 0x266 PUSH2 0x458 CALLDATASIZE PUSH1 0x4 PUSH2 0x502B JUMP JUMPDEST PUSH2 0xD69 JUMP JUMPDEST PUSH2 0x292 PUSH2 0xD94 JUMP JUMPDEST PUSH1 0x3 DUP1 SLOAD PUSH1 0x40 DUP1 MLOAD PUSH1 0x20 PUSH1 0x1F PUSH1 0x2 PUSH1 0x0 NOT PUSH2 0x100 PUSH1 0x1 DUP9 AND ISZERO MUL ADD SWAP1 SWAP6 AND SWAP5 SWAP1 SWAP5 DIV SWAP4 DUP5 ADD DUP2 SWAP1 DIV DUP2 MUL DUP3 ADD DUP2 ADD SWAP1 SWAP3 MSTORE DUP3 DUP2 MSTORE PUSH1 0x60 SWAP4 SWAP1 SWAP3 SWAP1 SWAP2 DUP4 ADD DUP3 DUP3 DUP1 ISZERO PUSH2 0x4F1 JUMPI DUP1 PUSH1 0x1F LT PUSH2 0x4C6 JUMPI PUSH2 0x100 DUP1 DUP4 SLOAD DIV MUL DUP4 MSTORE SWAP2 PUSH1 0x20 ADD SWAP2 PUSH2 0x4F1 JUMP JUMPDEST DUP3 ADD SWAP2 SWAP1 PUSH1 0x0 MSTORE PUSH1 0x20 PUSH1 0x0 KECCAK256 SWAP1 JUMPDEST DUP2 SLOAD DUP2 MSTORE SWAP1 PUSH1 0x1 ADD SWAP1 PUSH1 0x20 ADD DUP1 DUP4 GT PUSH2 0x4D4 JUMPI DUP3 SWAP1 SUB PUSH1 0x1F AND DUP3 ADD SWAP2 JUMPDEST POP POP POP POP POP SWAP1 POP JUMPDEST SWAP1 JUMP JUMPDEST PUSH1 0x0 PUSH2 0x509 CALLER DUP5 DUP5 PUSH2 0xDF2 JUMP JUMPDEST POP PUSH1 0x1 JUMPDEST SWAP3 SWAP2 POP POP JUMP JUMPDEST PUSH2 0x51B PUSH2 0xE5A JUMP JUMPDEST PUSH2 0x524 DUP2 PUSH2 0xE88 JUMP JUMPDEST POP JUMP JUMPDEST PUSH1 0x2 SLOAD SWAP1 JUMP JUMPDEST PUSH1 0x0 DUP1 PUSH1 0x0 PUSH2 0x53A PUSH2 0xF06 JUMP JUMPDEST ISZERO SWAP3 POP PUSH2 0x545 PUSH2 0xF23 JUMP JUMPDEST SWAP2 POP PUSH2 0x54F PUSH2 0xF47 JUMP JUMPDEST SWAP1 POP SWAP1 SWAP2 SWAP3 JUMP JUMPDEST PUSH1 0x60 PUSH2 0x560 PUSH2 0xF6B JUMP JUMPDEST SWAP1 POP SWAP1 JUMP JUMPDEST PUSH1 0x0 DUP1 PUSH2 0x572 DUP6 CALLER PUSH2 0xD69 JUMP JUMPDEST SWAP1 POP PUSH2 0x596 CALLER PUSH1 0x1 PUSH1 0x1 PUSH1 0xA0 SHL SUB DUP8 AND EQ DUP1 PUSH2 0x58E JUMPI POP DUP4 DUP3 LT ISZERO JUMPDEST PUSH2 0x19E PUSH2 0x150B JUMP JUMPDEST PUSH2 0x5A1 DUP6 DUP6 DUP6 PUSH2 0x1519 JUMP JUMPDEST CALLER PUSH1 0x1 PUSH1 0x1 PUSH1 0xA0 SHL SUB DUP7 AND EQ DUP1 ISZERO SWAP1 PUSH2 0x5BC JUMPI POP PUSH1 0x0 NOT DUP2 EQ ISZERO JUMPDEST ISZERO PUSH2 0x5CE JUMPI PUSH2 0x5CE DUP6 CALLER DUP6 DUP5 SUB PUSH2 0xDF2 JUMP JUMPDEST PUSH1 0x1 SWAP2 POP POP JUMPDEST SWAP4 SWAP3 POP POP POP JUMP JUMPDEST PUSH1 0x5 SLOAD PUSH1 0xFF AND SWAP1 JUMP JUMPDEST PUSH1 0x0 PUSH2 0x560 PUSH2 0x15F9 JUMP JUMPDEST PUSH2 0x5F6 PUSH2 0xE5A JUMP JUMPDEST PUSH2 0x5FE PUSH2 0x1696 JUMP JUMPDEST PUSH2 0x524 DUP2 PUSH2 0x16AB JUMP JUMPDEST PUSH32 0x0 SWAP1 JUMP JUMPDEST CALLER PUSH1 0x0 DUP2 DUP2 MSTORE PUSH1 0x1 PUSH1 0x20 SWAP1 DUP2 MSTORE PUSH1 0x40 DUP1 DUP4 KECCAK256 PUSH1 0x1 PUSH1 0x1 PUSH1 0xA0 SHL SUB DUP8 AND DUP5 MSTORE SWAP1 SWAP2 MSTORE DUP2 KECCAK256 SLOAD SWAP1 SWAP2 PUSH2 0x509 SWAP2 DUP6 SWAP1 PUSH2 0x661 SWAP1 DUP7 PUSH2 0xDB5 JUMP JUMPDEST PUSH2 0xDF2 JUMP JUMPDEST PUSH2 0x66E PUSH2 0xE5A JUMP JUMPDEST PUSH2 0x676 PUSH2 0x1696 JUMP JUMPDEST PUSH2 0x680 DUP3 DUP3 PUSH2 0x1716 JUMP JUMPDEST POP POP JUMP JUMPDEST PUSH1 0x8 SLOAD PUSH1 0x0 SWAP1 PUSH2 0x560 SWAP1 PUSH1 0xC0 PUSH2 0x1815 JUMP JUMPDEST PUSH1 0x0 PUSH1 0x60 PUSH2 0x6AB DUP7 MLOAD PUSH2 0x6A6 PUSH2 0x1822 JUMP JUMPDEST PUSH2 0xDA8 JUMP JUMPDEST PUSH2 0x6C0 DUP10 DUP10 DUP10 DUP10 DUP10 DUP10 DUP10 PUSH2 0x1846 PUSH2 0x1915 PUSH2 0x197B JUMP JUMPDEST SWAP8 POP SWAP8 SWAP6 POP POP POP POP POP POP JUMP JUMPDEST PUSH1 0x0 PUSH2 0x560 PUSH2 0x6D9 PUSH2 0x527 JUMP JUMPDEST PUSH2 0x6F1 PUSH2 0x6E4 PUSH2 0xA37 JUMP JUMPDEST PUSH2 0x6EC PUSH2 0x1822 JUMP JUMPDEST PUSH2 0x1A9E JUMP JUMPDEST SWAP1 PUSH2 0x1AC2 JUMP JUMPDEST PUSH1 0x1 PUSH1 0x1 PUSH1 0xA0 SHL SUB DUP2 AND PUSH1 0x0 SWAP1 DUP2 MSTORE PUSH1 0x20 DUP2 SWAP1 MSTORE PUSH1 0x40 SWAP1 KECCAK256 SLOAD JUMPDEST SWAP2 SWAP1 POP JUMP JUMPDEST PUSH1 0x60 DUP1 DUP9 PUSH2 0x740 PUSH2 0x725 PUSH2 0x870 JUMP JUMPDEST PUSH1 0x1 PUSH1 0x1 PUSH1 0xA0 SHL SUB AND CALLER PUSH1 0x1 PUSH1 0x1 PUSH1 0xA0 SHL SUB AND EQ PUSH1 0xCD PUSH2 0x150B JUMP JUMPDEST PUSH2 0x755 PUSH2 0x74B PUSH2 0x607 JUMP JUMPDEST DUP3 EQ PUSH2 0x1F4 PUSH2 0x150B JUMP JUMPDEST PUSH1 0x60 PUSH2 0x75F PUSH2 0xF6B JUMP JUMPDEST SWAP1 POP PUSH2 0x76B DUP9 DUP3 PUSH2 0x1B13 JUMP JUMPDEST PUSH1 0x0 PUSH1 0x60 DUP1 PUSH2 0x780 DUP15 DUP15 DUP15 DUP15 DUP15 DUP15 DUP11 DUP16 PUSH2 0x1846 JUMP JUMPDEST SWAP3 POP SWAP3 POP SWAP3 POP PUSH2 0x790 DUP14 DUP5 PUSH2 0x1B74 JUMP JUMPDEST PUSH2 0x79A DUP3 DUP6 PUSH2 0x1915 JUMP JUMPDEST PUSH2 0x7A4 DUP2 DUP6 PUSH2 0x1915 JUMP JUMPDEST SWAP1 SWAP6 POP SWAP4 POP POP POP JUMPDEST POP SWAP8 POP SWAP8 SWAP6 POP POP POP POP POP POP JUMP JUMPDEST PUSH1 0x1 PUSH1 0x1 PUSH1 0xA0 SHL SUB AND PUSH1 0x0 SWAP1 DUP2 MSTORE PUSH1 0x6 PUSH1 0x20 MSTORE PUSH1 0x40 SWAP1 KECCAK256 SLOAD SWAP1 JUMP JUMPDEST PUSH1 0x0 PUSH32 0x0 DUP3 PUSH1 0x40 MLOAD PUSH1 0x20 ADD PUSH2 0x809 SWAP3 SWAP2 SWAP1 PUSH2 0x56B4 JUMP JUMPDEST PUSH1 0x40 MLOAD PUSH1 0x20 DUP2 DUP4 SUB SUB DUP2 MSTORE SWAP1 PUSH1 0x40 MSTORE DUP1 MLOAD SWAP1 PUSH1 0x20 ADD KECCAK256 SWAP1 POP SWAP2 SWAP1 POP JUMP JUMPDEST PUSH1 0x0 PUSH1 0x60 PUSH2 0x837 DUP7 MLOAD PUSH2 0x6A6 PUSH2 0x1822 JUMP JUMPDEST PUSH2 0x6C0 DUP10 DUP10 DUP10 DUP10 DUP10 DUP10 DUP10 PUSH2 0x1B7E PUSH2 0x1C04 PUSH2 0x197B JUMP JUMPDEST PUSH32 0x0 SWAP1 JUMP JUMPDEST PUSH32 0x0 SWAP1 JUMP JUMPDEST PUSH1 0x4 DUP1 SLOAD PUSH1 0x40 DUP1 MLOAD PUSH1 0x20 PUSH1 0x1F PUSH1 0x2 PUSH1 0x0 NOT PUSH2 0x100 PUSH1 0x1 DUP9 AND ISZERO MUL ADD SWAP1 SWAP6 AND SWAP5 SWAP1 SWAP5 DIV SWAP4 DUP5 ADD DUP2 SWAP1 DIV DUP2 MUL DUP3 ADD DUP2 ADD SWAP1 SWAP3 MSTORE DUP3 DUP2 MSTORE PUSH1 0x60 SWAP4 SWAP1 SWAP3 SWAP1 SWAP2 DUP4 ADD DUP3 DUP3 DUP1 ISZERO PUSH2 0x4F1 JUMPI DUP1 PUSH1 0x1F LT PUSH2 0x4C6 JUMPI PUSH2 0x100 DUP1 DUP4 SLOAD DIV MUL DUP4 MSTORE SWAP2 PUSH1 0x20 ADD SWAP2 PUSH2 0x4F1 JUMP JUMPDEST PUSH1 0x9 SLOAD SWAP1 JUMP JUMPDEST PUSH1 0x0 DUP1 PUSH2 0x90B DUP6 PUSH1 0x20 ADD MLOAD PUSH2 0x1C65 JUMP JUMPDEST SWAP1 POP PUSH1 0x0 PUSH2 0x91C DUP7 PUSH1 0x40 ADD MLOAD PUSH2 0x1C65 JUMP JUMPDEST SWAP1 POP PUSH1 0x0 DUP7 MLOAD PUSH1 0x1 DUP2 GT ISZERO PUSH2 0x92D JUMPI INVALID JUMPDEST EQ ISZERO PUSH2 0x993 JUMPI PUSH2 0x940 DUP7 PUSH1 0x60 ADD MLOAD PUSH2 0x2406 JUMP JUMPDEST PUSH1 0x60 DUP8 ADD MSTORE PUSH2 0x94F DUP6 DUP4 PUSH2 0x2427 JUMP JUMPDEST SWAP5 POP PUSH2 0x95B DUP5 DUP3 PUSH2 0x2427 JUMP JUMPDEST SWAP4 POP PUSH2 0x96B DUP7 PUSH1 0x60 ADD MLOAD DUP4 PUSH2 0x2427 JUMP JUMPDEST PUSH1 0x60 DUP8 ADD MSTORE PUSH1 0x0 PUSH2 0x97D DUP8 DUP8 DUP8 PUSH2 0x2433 JUMP JUMPDEST SWAP1 POP PUSH2 0x989 DUP2 DUP4 PUSH2 0x246E JUMP JUMPDEST SWAP4 POP POP POP POP PUSH2 0x5D4 JUMP JUMPDEST PUSH2 0x99D DUP6 DUP4 PUSH2 0x2427 JUMP JUMPDEST SWAP5 POP PUSH2 0x9A9 DUP5 DUP3 PUSH2 0x2427 JUMP JUMPDEST SWAP4 POP PUSH2 0x9B9 DUP7 PUSH1 0x60 ADD MLOAD DUP3 PUSH2 0x2427 JUMP JUMPDEST PUSH1 0x60 DUP8 ADD MSTORE PUSH1 0x0 PUSH2 0x9CB DUP8 DUP8 DUP8 PUSH2 0x247A JUMP JUMPDEST SWAP1 POP PUSH2 0x9D7 DUP2 DUP5 PUSH2 0x24AD JUMP JUMPDEST SWAP1 POP PUSH2 0x989 DUP2 PUSH2 0x24B9 JUMP JUMPDEST PUSH1 0x0 DUP1 PUSH2 0x9EF CALLER DUP6 PUSH2 0xD69 JUMP JUMPDEST SWAP1 POP DUP1 DUP4 LT PUSH2 0xA09 JUMPI PUSH2 0xA04 CALLER DUP6 PUSH1 0x0 PUSH2 0xDF2 JUMP JUMPDEST PUSH2 0xA16 JUMP JUMPDEST PUSH2 0xA16 CALLER DUP6 DUP6 DUP5 SUB PUSH2 0xDF2 JUMP JUMPDEST POP PUSH1 0x1 SWAP4 SWAP3 POP POP POP JUMP JUMPDEST PUSH1 0x0 PUSH2 0x509 CALLER DUP5 DUP5 PUSH2 0x1519 JUMP JUMPDEST PUSH1 0x0 PUSH2 0x560 PUSH2 0x24DF JUMP JUMPDEST PUSH1 0x0 PUSH1 0x60 PUSH2 0xA43 PUSH2 0x870 JUMP JUMPDEST PUSH1 0x1 PUSH1 0x1 PUSH1 0xA0 SHL SUB AND PUSH4 0xF94D4668 PUSH2 0xA59 PUSH2 0x607 JUMP JUMPDEST PUSH1 0x40 MLOAD DUP3 PUSH4 0xFFFFFFFF AND PUSH1 0xE0 SHL DUP2 MSTORE PUSH1 0x4 ADD PUSH2 0xA75 SWAP2 SWAP1 PUSH2 0x5766 JUMP JUMPDEST PUSH1 0x0 PUSH1 0x40 MLOAD DUP1 DUP4 SUB DUP2 DUP7 DUP1 EXTCODESIZE ISZERO DUP1 ISZERO PUSH2 0xA8D JUMPI PUSH1 0x0 DUP1 REVERT JUMPDEST POP GAS STATICCALL ISZERO DUP1 ISZERO PUSH2 0xAA1 JUMPI RETURNDATASIZE PUSH1 0x0 DUP1 RETURNDATACOPY RETURNDATASIZE PUSH1 0x0 REVERT JUMPDEST POP POP POP POP PUSH1 0x40 MLOAD RETURNDATASIZE PUSH1 0x0 DUP3 RETURNDATACOPY PUSH1 0x1F RETURNDATASIZE SWAP1 DUP2 ADD PUSH1 0x1F NOT AND DUP3 ADD PUSH1 0x40 MSTORE PUSH2 0xAC9 SWAP2 SWAP1 DUP2 ADD SWAP1 PUSH2 0x5143 JUMP JUMPDEST POP SWAP2 POP POP PUSH2 0xADE DUP2 PUSH2 0xAD9 PUSH2 0xF6B JUMP JUMPDEST PUSH2 0x1B13 JUMP JUMPDEST PUSH1 0x60 PUSH2 0xAE8 PUSH2 0x2559 JUMP JUMPDEST POP SWAP1 POP PUSH2 0xAF5 DUP2 DUP4 PUSH2 0x258D JUMP JUMPDEST SWAP3 POP POP POP SWAP1 JUMP JUMPDEST PUSH2 0xB0A DUP5 TIMESTAMP GT ISZERO PUSH1 0xD1 PUSH2 0x150B JUMP JUMPDEST PUSH1 0x1 PUSH1 0x1 PUSH1 0xA0 SHL SUB DUP8 AND PUSH1 0x0 SWAP1 DUP2 MSTORE PUSH1 0x6 PUSH1 0x20 SWAP1 DUP2 MSTORE PUSH1 0x40 DUP1 DUP4 KECCAK256 SLOAD SWAP1 MLOAD SWAP1 SWAP3 SWAP2 PUSH2 0xB61 SWAP2 PUSH32 0x0 SWAP2 DUP13 SWAP2 DUP13 SWAP2 DUP13 SWAP2 DUP9 SWAP2 DUP14 SWAP2 ADD PUSH2 0x578E JUMP JUMPDEST PUSH1 0x40 MLOAD PUSH1 0x20 DUP2 DUP4 SUB SUB DUP2 MSTORE SWAP1 PUSH1 0x40 MSTORE DUP1 MLOAD SWAP1 PUSH1 0x20 ADD KECCAK256 SWAP1 POP PUSH1 0x0 PUSH2 0xB84 DUP3 PUSH2 0x25FF JUMP JUMPDEST SWAP1 POP PUSH1 0x0 PUSH1 0x1 DUP3 DUP9 DUP9 DUP9 PUSH1 0x40 MLOAD PUSH1 0x0 DUP2 MSTORE PUSH1 0x20 ADD PUSH1 0x40 MSTORE PUSH1 0x40 MLOAD PUSH2 0xBAB SWAP5 SWAP4 SWAP3 SWAP2 SWAP1 PUSH2 0x581E JUMP JUMPDEST PUSH1 0x20 PUSH1 0x40 MLOAD PUSH1 0x20 DUP2 SUB SWAP1 DUP1 DUP5 SUB SWAP1 DUP6 GAS STATICCALL ISZERO DUP1 ISZERO PUSH2 0xBCD JUMPI RETURNDATASIZE PUSH1 0x0 DUP1 RETURNDATACOPY RETURNDATASIZE PUSH1 0x0 REVERT JUMPDEST POP POP PUSH1 0x40 MLOAD PUSH1 0x1F NOT ADD MLOAD SWAP2 POP PUSH2 0xC0F SWAP1 POP PUSH1 0x1 PUSH1 0x1 PUSH1 0xA0 SHL SUB DUP3 AND ISZERO DUP1 ISZERO SWAP1 PUSH2 0xC07 JUMPI POP DUP12 PUSH1 0x1 PUSH1 0x1 PUSH1 0xA0 SHL SUB AND DUP3 PUSH1 0x1 PUSH1 0x1 PUSH1 0xA0 SHL SUB AND EQ JUMPDEST PUSH2 0x1F8 PUSH2 0x150B JUMP JUMPDEST PUSH1 0x1 PUSH1 0x1 PUSH1 0xA0 SHL SUB DUP12 AND PUSH1 0x0 SWAP1 DUP2 MSTORE PUSH1 0x6 PUSH1 0x20 MSTORE PUSH1 0x40 SWAP1 KECCAK256 PUSH1 0x1 DUP6 ADD SWAP1 SSTORE PUSH2 0xC38 DUP12 DUP12 DUP12 PUSH2 0xDF2 JUMP JUMPDEST POP POP POP POP POP POP POP POP POP POP POP JUMP JUMPDEST PUSH1 0x60 DUP1 DUP9 PUSH2 0xC54 PUSH2 0x725 PUSH2 0x870 JUMP JUMPDEST PUSH2 0xC5F PUSH2 0x74B PUSH2 0x607 JUMP JUMPDEST PUSH1 0x60 PUSH2 0xC69 PUSH2 0xF6B JUMP JUMPDEST SWAP1 POP PUSH2 0xC73 PUSH2 0x527 JUMP JUMPDEST PUSH2 0xD19 JUMPI PUSH1 0x0 PUSH1 0x60 PUSH2 0xC88 DUP14 DUP14 DUP14 DUP7 DUP12 PUSH2 0x261B JUMP JUMPDEST SWAP2 POP SWAP2 POP PUSH2 0xC9D PUSH3 0xF4240 DUP4 LT ISZERO PUSH1 0xCC PUSH2 0x150B JUMP JUMPDEST PUSH2 0xCAB PUSH1 0x0 PUSH3 0xF4240 PUSH2 0x26B6 JUMP JUMPDEST PUSH2 0xCBA DUP12 PUSH3 0xF4240 DUP5 SUB PUSH2 0x26B6 JUMP JUMPDEST PUSH2 0xCC4 DUP2 DUP5 PUSH2 0x1C04 JUMP JUMPDEST DUP1 PUSH2 0xCCD PUSH2 0x1822 JUMP JUMPDEST PUSH1 0x1 PUSH1 0x1 PUSH1 0x40 SHL SUB DUP2 GT DUP1 ISZERO PUSH2 0xCE2 JUMPI PUSH1 0x0 DUP1 REVERT JUMPDEST POP PUSH1 0x40 MLOAD SWAP1 DUP1 DUP3 MSTORE DUP1 PUSH1 0x20 MUL PUSH1 0x20 ADD DUP3 ADD PUSH1 0x40 MSTORE DUP1 ISZERO PUSH2 0xD0C JUMPI DUP2 PUSH1 0x20 ADD PUSH1 0x20 DUP3 MUL DUP1 CALLDATASIZE DUP4 CALLDATACOPY ADD SWAP1 POP JUMPDEST POP SWAP6 POP SWAP6 POP POP POP POP PUSH2 0x7AC JUMP JUMPDEST PUSH2 0xD23 DUP9 DUP3 PUSH2 0x1B13 JUMP JUMPDEST PUSH1 0x0 PUSH1 0x60 DUP1 PUSH2 0xD38 DUP15 DUP15 DUP15 DUP15 DUP15 DUP15 DUP11 DUP16 PUSH2 0x1B7E JUMP JUMPDEST SWAP3 POP SWAP3 POP SWAP3 POP PUSH2 0xD48 DUP13 DUP5 PUSH2 0x26B6 JUMP JUMPDEST PUSH2 0xD52 DUP3 DUP6 PUSH2 0x1C04 JUMP JUMPDEST PUSH2 0xD5C DUP2 DUP6 PUSH2 0x1915 JUMP JUMPDEST SWAP1 SWAP6 POP SWAP4 POP PUSH2 0x7AC SWAP2 POP POP JUMP JUMPDEST PUSH1 0x1 PUSH1 0x1 PUSH1 0xA0 SHL SUB SWAP2 DUP3 AND PUSH1 0x0 SWAP1 DUP2 MSTORE PUSH1 0x1 PUSH1 0x20 SWAP1 DUP2 MSTORE PUSH1 0x40 DUP1 DUP4 KECCAK256 SWAP4 SWAP1 SWAP5 AND DUP3 MSTORE SWAP2 SWAP1 SWAP2 MSTORE KECCAK256 SLOAD SWAP1 JUMP JUMPDEST PUSH1 0x60 PUSH2 0x560 PUSH2 0x26C0 JUMP JUMPDEST DUP1 PUSH2 0x680 DUP2 PUSH2 0x2C40 JUMP JUMPDEST PUSH2 0x680 DUP2 DUP4 EQ PUSH1 0x67 PUSH2 0x150B JUMP JUMPDEST PUSH1 0x0 DUP3 DUP3 ADD PUSH2 0x5D4 DUP5 DUP3 LT ISZERO DUP4 PUSH2 0x150B JUMP JUMPDEST PUSH1 0x1 PUSH1 0x1 PUSH1 0x40 SHL SUB DUP2 SHL NOT SWAP3 SWAP1 SWAP3 AND SWAP2 SHL OR SWAP1 JUMP JUMPDEST PUSH1 0x0 PUSH2 0xDEC DUP4 DUP4 GT ISZERO PUSH1 0x1 PUSH2 0x150B JUMP JUMPDEST POP SWAP1 SUB SWAP1 JUMP JUMPDEST PUSH1 0x1 PUSH1 0x1 PUSH1 0xA0 SHL SUB DUP1 DUP5 AND PUSH1 0x0 DUP2 DUP2 MSTORE PUSH1 0x1 PUSH1 0x20 SWAP1 DUP2 MSTORE PUSH1 0x40 DUP1 DUP4 KECCAK256 SWAP5 DUP8 AND DUP1 DUP5 MSTORE SWAP5 SWAP1 SWAP2 MSTORE SWAP1 DUP2 SWAP1 KECCAK256 DUP5 SWAP1 SSTORE MLOAD PUSH32 0x8C5BE1E5EBEC7D5BD14F71427D1E84F3DD0314C0F7B2291E5B200AC8C7C3B925 SWAP1 PUSH2 0xE4D SWAP1 DUP6 SWAP1 PUSH2 0x5766 JUMP JUMPDEST PUSH1 0x40 MLOAD DUP1 SWAP2 SUB SWAP1 LOG3 POP POP POP JUMP JUMPDEST PUSH1 0x0 PUSH2 0xE71 PUSH1 0x0 CALLDATALOAD PUSH1 0x1 PUSH1 0x1 PUSH1 0xE0 SHL SUB NOT AND PUSH2 0x7D4 JUMP JUMPDEST SWAP1 POP PUSH2 0x524 PUSH2 0xE80 DUP3 CALLER PUSH2 0x2CB9 JUMP JUMPDEST PUSH2 0x191 PUSH2 0x150B JUMP JUMPDEST DUP1 ISZERO PUSH2 0xEA8 JUMPI PUSH2 0xEA3 PUSH2 0xE99 PUSH2 0xF23 JUMP JUMPDEST TIMESTAMP LT PUSH2 0x193 PUSH2 0x150B JUMP JUMPDEST PUSH2 0xEBD JUMP JUMPDEST PUSH2 0xEBD PUSH2 0xEB3 PUSH2 0xF47 JUMP JUMPDEST TIMESTAMP LT PUSH2 0x1A9 PUSH2 0x150B JUMP JUMPDEST PUSH1 0x7 DUP1 SLOAD PUSH1 0xFF NOT AND DUP3 ISZERO ISZERO OR SWAP1 SSTORE PUSH1 0x40 MLOAD PUSH32 0x9E3A5E37224532DEA67B89FACE185703738A228A6E8A23DEE546960180D3BE64 SWAP1 PUSH2 0xEFB SWAP1 DUP4 SWAP1 PUSH2 0x5743 JUMP JUMPDEST PUSH1 0x40 MLOAD DUP1 SWAP2 SUB SWAP1 LOG1 POP JUMP JUMPDEST PUSH1 0x0 PUSH2 0xF10 PUSH2 0xF47 JUMP JUMPDEST TIMESTAMP GT DUP1 PUSH2 0x560 JUMPI POP POP PUSH1 0x7 SLOAD PUSH1 0xFF AND ISZERO SWAP1 JUMP JUMPDEST PUSH32 0x0 SWAP1 JUMP JUMPDEST PUSH32 0x0 SWAP1 JUMP JUMPDEST PUSH1 0x60 PUSH1 0x0 PUSH2 0xF77 PUSH2 0x1822 JUMP JUMPDEST SWAP1 POP PUSH1 0x60 DUP2 PUSH1 0x1 PUSH1 0x1 PUSH1 0x40 SHL SUB DUP2 GT DUP1 ISZERO PUSH2 0xF91 JUMPI PUSH1 0x0 DUP1 REVERT JUMPDEST POP PUSH1 0x40 MLOAD SWAP1 DUP1 DUP3 MSTORE DUP1 PUSH1 0x20 MUL PUSH1 0x20 ADD DUP3 ADD PUSH1 0x40 MSTORE DUP1 ISZERO PUSH2 0xFBB JUMPI DUP2 PUSH1 0x20 ADD PUSH1 0x20 DUP3 MUL DUP1 CALLDATASIZE DUP4 CALLDATACOPY ADD SWAP1 POP JUMPDEST POP SWAP1 POP DUP2 ISZERO PUSH2 0x1003 JUMPI PUSH32 0x0 DUP2 PUSH1 0x0 DUP2 MLOAD DUP2 LT PUSH2 0xFF2 JUMPI INVALID JUMPDEST PUSH1 0x20 MUL PUSH1 0x20 ADD ADD DUP2 DUP2 MSTORE POP POP PUSH2 0x100C JUMP JUMPDEST SWAP2 POP PUSH2 0x4F9 SWAP1 POP JUMP JUMPDEST PUSH1 0x1 DUP3 GT ISZERO PUSH2 0x1003 JUMPI PUSH32 0x0 DUP2 PUSH1 0x1 DUP2 MLOAD DUP2 LT PUSH2 0x1043 JUMPI INVALID JUMPDEST PUSH1 0x20 MUL PUSH1 0x20 ADD ADD DUP2 DUP2 MSTORE POP POP PUSH1 0x2 DUP3 GT ISZERO PUSH2 0x1003 JUMPI PUSH32 0x0 DUP2 PUSH1 0x2 DUP2 MLOAD DUP2 LT PUSH2 0x1086 JUMPI INVALID JUMPDEST PUSH1 0x20 MUL PUSH1 0x20 ADD ADD DUP2 DUP2 MSTORE POP POP PUSH1 0x3 DUP3 GT ISZERO PUSH2 0x1003 JUMPI PUSH32 0x0 DUP2 PUSH1 0x3 DUP2 MLOAD DUP2 LT PUSH2 0x10C9 JUMPI INVALID JUMPDEST PUSH1 0x20 MUL PUSH1 0x20 ADD ADD DUP2 DUP2 MSTORE POP POP PUSH1 0x4 DUP3 GT ISZERO PUSH2 0x1003 JUMPI PUSH32 0x0 DUP2 PUSH1 0x4 DUP2 MLOAD DUP2 LT PUSH2 0x110C JUMPI INVALID JUMPDEST PUSH1 0x20 MUL PUSH1 0x20 ADD ADD DUP2 DUP2 MSTORE POP POP PUSH1 0x5 DUP3 GT ISZERO PUSH2 0x1003 JUMPI PUSH32 0x0 DUP2 PUSH1 0x5 DUP2 MLOAD DUP2 LT PUSH2 0x114F JUMPI INVALID JUMPDEST PUSH1 0x20 MUL PUSH1 0x20 ADD ADD DUP2 DUP2 MSTORE POP POP PUSH1 0x6 DUP3 GT ISZERO PUSH2 0x1003 JUMPI PUSH32 0x0 DUP2 PUSH1 0x6 DUP2 MLOAD DUP2 LT PUSH2 0x1192 JUMPI INVALID JUMPDEST PUSH1 0x20 MUL PUSH1 0x20 ADD ADD DUP2 DUP2 MSTORE POP POP PUSH1 0x7 DUP3 GT ISZERO PUSH2 0x1003 JUMPI PUSH32 0x0 DUP2 PUSH1 0x7 DUP2 MLOAD DUP2 LT PUSH2 0x11D5 JUMPI INVALID JUMPDEST PUSH1 0x20 MUL PUSH1 0x20 ADD ADD DUP2 DUP2 MSTORE POP POP PUSH1 0x8 DUP3 GT ISZERO PUSH2 0x1003 JUMPI PUSH32 0x0 DUP2 PUSH1 0x8 DUP2 MLOAD DUP2 LT PUSH2 0x1218 JUMPI INVALID JUMPDEST PUSH1 0x20 MUL PUSH1 0x20 ADD ADD DUP2 DUP2 MSTORE POP POP PUSH1 0x9 DUP3 GT ISZERO PUSH2 0x1003 JUMPI PUSH32 0x0 DUP2 PUSH1 0x9 DUP2 MLOAD DUP2 LT PUSH2 0x125B JUMPI INVALID JUMPDEST PUSH1 0x20 MUL PUSH1 0x20 ADD ADD DUP2 DUP2 MSTORE POP POP PUSH1 0xA DUP3 GT ISZERO PUSH2 0x1003 JUMPI PUSH32 0x0 DUP2 PUSH1 0xA DUP2 MLOAD DUP2 LT PUSH2 0x129E JUMPI INVALID JUMPDEST PUSH1 0x20 MUL PUSH1 0x20 ADD ADD DUP2 DUP2 MSTORE POP POP PUSH1 0xB DUP3 GT ISZERO PUSH2 0x1003 JUMPI PUSH32 0x0 DUP2 PUSH1 0xB DUP2 MLOAD DUP2 LT PUSH2 0x12E1 JUMPI INVALID JUMPDEST PUSH1 0x20 MUL PUSH1 0x20 ADD ADD DUP2 DUP2 MSTORE POP POP PUSH1 0xC DUP3 GT ISZERO PUSH2 0x1003 JUMPI PUSH32 0x0 DUP2 PUSH1 0xC DUP2 MLOAD DUP2 LT PUSH2 0x1324 JUMPI INVALID JUMPDEST PUSH1 0x20 MUL PUSH1 0x20 ADD ADD DUP2 DUP2 MSTORE POP POP PUSH1 0xD DUP3 GT ISZERO PUSH2 0x1003 JUMPI PUSH32 0x0 DUP2 PUSH1 0xD DUP2 MLOAD DUP2 LT PUSH2 0x1367 JUMPI INVALID JUMPDEST PUSH1 0x20 MUL PUSH1 0x20 ADD ADD DUP2 DUP2 MSTORE POP POP PUSH1 0xE DUP3 GT ISZERO PUSH2 0x1003 JUMPI PUSH32 0x0 DUP2 PUSH1 0xE DUP2 MLOAD DUP2 LT PUSH2 0x13AA JUMPI INVALID JUMPDEST PUSH1 0x20 MUL PUSH1 0x20 ADD ADD DUP2 DUP2 MSTORE POP POP PUSH1 0xF DUP3 GT ISZERO PUSH2 0x1003 JUMPI PUSH32 0x0 DUP2 PUSH1 0xF DUP2 MLOAD DUP2 LT PUSH2 0x13ED JUMPI INVALID JUMPDEST PUSH1 0x20 MUL PUSH1 0x20 ADD ADD DUP2 DUP2 MSTORE POP POP PUSH1 0x10 DUP3 GT ISZERO PUSH2 0x1003 JUMPI PUSH32 0x0 DUP2 PUSH1 0x10 DUP2 MLOAD DUP2 LT PUSH2 0x1430 JUMPI INVALID JUMPDEST PUSH1 0x20 MUL PUSH1 0x20 ADD ADD DUP2 DUP2 MSTORE POP POP PUSH1 0x11 DUP3 GT ISZERO PUSH2 0x1003 JUMPI PUSH32 0x0 DUP2 PUSH1 0x11 DUP2 MLOAD DUP2 LT PUSH2 0x1473 JUMPI INVALID JUMPDEST PUSH1 0x20 MUL PUSH1 0x20 ADD ADD DUP2 DUP2 MSTORE POP POP PUSH1 0x12 DUP3 GT ISZERO PUSH2 0x1003 JUMPI PUSH32 0x0 DUP2 PUSH1 0x12 DUP2 MLOAD DUP2 LT PUSH2 0x14B6 JUMPI INVALID JUMPDEST PUSH1 0x20 MUL PUSH1 0x20 ADD ADD DUP2 DUP2 MSTORE POP POP PUSH1 0x13 DUP3 GT ISZERO PUSH2 0x1003 JUMPI PUSH32 0x0 DUP2 PUSH1 0x13 DUP2 MLOAD DUP2 LT PUSH2 0x14F9 JUMPI INVALID JUMPDEST PUSH1 0x20 MUL PUSH1 0x20 ADD ADD DUP2 DUP2 MSTORE POP POP SWAP2 POP POP SWAP1 JUMP JUMPDEST DUP2 PUSH2 0x680 JUMPI PUSH2 0x680 DUP2 PUSH2 0x2DA9 JUMP JUMPDEST PUSH2 0x1530 PUSH1 0x1 PUSH1 0x1 PUSH1 0xA0 SHL SUB DUP5 AND ISZERO ISZERO PUSH2 0x198 PUSH2 0x150B JUMP JUMPDEST PUSH2 0x1547 PUSH1 0x1 PUSH1 0x1 PUSH1 0xA0 SHL SUB DUP4 AND ISZERO ISZERO PUSH2 0x199 PUSH2 0x150B JUMP JUMPDEST PUSH2 0x1552 DUP4 DUP4 DUP4 PUSH2 0x1976 JUMP JUMPDEST PUSH1 0x1 PUSH1 0x1 PUSH1 0xA0 SHL SUB DUP4 AND PUSH1 0x0 SWAP1 DUP2 MSTORE PUSH1 0x20 DUP2 SWAP1 MSTORE PUSH1 0x40 SWAP1 KECCAK256 SLOAD PUSH2 0x1578 SWAP1 DUP3 PUSH2 0x1A0 PUSH2 0x2DFC JUMP JUMPDEST PUSH1 0x1 PUSH1 0x1 PUSH1 0xA0 SHL SUB DUP1 DUP6 AND PUSH1 0x0 SWAP1 DUP2 MSTORE PUSH1 0x20 DUP2 SWAP1 MSTORE PUSH1 0x40 DUP1 DUP3 KECCAK256 SWAP4 SWAP1 SWAP4 SSTORE SWAP1 DUP5 AND DUP2 MSTORE KECCAK256 SLOAD PUSH2 0x15A7 SWAP1 DUP3 PUSH2 0xDB5 JUMP JUMPDEST PUSH1 0x1 PUSH1 0x1 PUSH1 0xA0 SHL SUB DUP1 DUP5 AND PUSH1 0x0 DUP2 DUP2 MSTORE PUSH1 0x20 DUP2 SWAP1 MSTORE PUSH1 0x40 SWAP1 DUP2 SWAP1 KECCAK256 SWAP4 SWAP1 SWAP4 SSTORE SWAP2 MLOAD SWAP1 DUP6 AND SWAP1 PUSH32 0xDDF252AD1BE2C89B69C2B068FC378DAA952BA7F163C4A11628F55A4DF523B3EF SWAP1 PUSH2 0xE4D SWAP1 DUP6 SWAP1 PUSH2 0x5766 JUMP JUMPDEST PUSH1 0x0 PUSH32 0x0 PUSH32 0x0 PUSH32 0x0 PUSH2 0x1666 PUSH2 0x2E12 JUMP JUMPDEST ADDRESS PUSH1 0x40 MLOAD PUSH1 0x20 ADD PUSH2 0x167B SWAP6 SWAP5 SWAP4 SWAP3 SWAP2 SWAP1 PUSH2 0x57C2 JUMP JUMPDEST PUSH1 0x40 MLOAD PUSH1 0x20 DUP2 DUP4 SUB SUB DUP2 MSTORE SWAP1 PUSH1 0x40 MSTORE DUP1 MLOAD SWAP1 PUSH1 0x20 ADD KECCAK256 SWAP1 POP SWAP1 JUMP JUMPDEST PUSH2 0x16A9 PUSH2 0x16A1 PUSH2 0xF06 JUMP JUMPDEST PUSH2 0x192 PUSH2 0x150B JUMP JUMPDEST JUMP JUMPDEST PUSH2 0x16BE PUSH5 0xE8D4A51000 DUP3 LT ISZERO PUSH1 0xCB PUSH2 0x150B JUMP JUMPDEST PUSH2 0x16D4 PUSH8 0x16345785D8A0000 DUP3 GT ISZERO PUSH1 0xCA PUSH2 0x150B JUMP JUMPDEST PUSH1 0x8 SLOAD PUSH2 0x16E3 SWAP1 DUP3 PUSH1 0xC0 PUSH2 0xDC7 JUMP JUMPDEST PUSH1 0x8 SSTORE PUSH1 0x40 MLOAD PUSH32 0xA9BA3FFE0B6C366B81232CAAB38605A0699AD5398D6CCE76F91EE809E322DAFC SWAP1 PUSH2 0xEFB SWAP1 DUP4 SWAP1 PUSH2 0x5766 JUMP JUMPDEST PUSH1 0x0 PUSH2 0x1720 PUSH2 0x607 JUMP JUMPDEST SWAP1 POP PUSH1 0x0 PUSH2 0x172C PUSH2 0x870 JUMP JUMPDEST PUSH1 0x1 PUSH1 0x1 PUSH1 0xA0 SHL SUB AND PUSH4 0xB05F8E48 DUP4 DUP7 PUSH1 0x40 MLOAD DUP4 PUSH4 0xFFFFFFFF AND PUSH1 0xE0 SHL DUP2 MSTORE PUSH1 0x4 ADD PUSH2 0x1759 SWAP3 SWAP2 SWAP1 PUSH2 0x5807 JUMP JUMPDEST PUSH1 0x80 PUSH1 0x40 MLOAD DUP1 DUP4 SUB DUP2 DUP7 DUP1 EXTCODESIZE ISZERO DUP1 ISZERO PUSH2 0x1771 JUMPI PUSH1 0x0 DUP1 REVERT JUMPDEST POP GAS STATICCALL ISZERO DUP1 ISZERO PUSH2 0x1785 JUMPI RETURNDATASIZE PUSH1 0x0 DUP1 RETURNDATACOPY RETURNDATASIZE PUSH1 0x0 REVERT JUMPDEST POP POP POP POP PUSH1 0x40 MLOAD RETURNDATASIZE PUSH1 0x1F NOT PUSH1 0x1F DUP3 ADD AND DUP3 ADD DUP1 PUSH1 0x40 MSTORE POP DUP2 ADD SWAP1 PUSH2 0x17A9 SWAP2 SWAP1 PUSH2 0x55EF JUMP JUMPDEST PUSH1 0x40 MLOAD PUSH4 0x639CDB5 PUSH1 0xE2 SHL DUP2 MSTORE SWAP1 SWAP5 POP PUSH1 0x1 PUSH1 0x1 PUSH1 0xA0 SHL SUB DUP6 AND SWAP4 POP PUSH4 0x18E736D4 SWAP3 POP PUSH2 0x17DD SWAP2 POP DUP6 SWAP1 DUP8 SWAP1 PUSH1 0x4 ADD PUSH2 0x57EE JUMP JUMPDEST PUSH1 0x0 PUSH1 0x40 MLOAD DUP1 DUP4 SUB DUP2 PUSH1 0x0 DUP8 DUP1 EXTCODESIZE ISZERO DUP1 ISZERO PUSH2 0x17F7 JUMPI PUSH1 0x0 DUP1 REVERT JUMPDEST POP GAS CALL ISZERO DUP1 ISZERO PUSH2 0x180B JUMPI RETURNDATASIZE PUSH1 0x0 DUP1 RETURNDATACOPY RETURNDATASIZE PUSH1 0x0 REVERT JUMPDEST POP POP POP POP POP POP POP POP JUMP JUMPDEST SHR PUSH1 0x1 PUSH1 0x1 PUSH1 0x40 SHL SUB AND SWAP1 JUMP JUMPDEST PUSH32 0x0 SWAP1 JUMP JUMPDEST PUSH1 0x0 PUSH1 0x60 DUP1 PUSH1 0x60 PUSH1 0x0 PUSH2 0x1857 PUSH2 0x2559 JUMP JUMPDEST SWAP2 POP SWAP2 POP PUSH2 0x1863 PUSH2 0xF06 JUMP JUMPDEST ISZERO PUSH2 0x189B JUMPI PUSH1 0x0 PUSH2 0x1874 DUP4 DUP13 PUSH2 0x258D JUMP JUMPDEST SWAP1 POP PUSH2 0x1886 DUP12 DUP5 DUP5 PUSH1 0x9 SLOAD DUP6 DUP15 PUSH2 0x2E16 JUMP JUMPDEST SWAP4 POP PUSH2 0x1895 DUP12 DUP6 PUSH2 0xDDC PUSH2 0x2EC6 JUMP JUMPDEST POP PUSH2 0x18E6 JUMP JUMPDEST PUSH2 0x18A3 PUSH2 0x1822 JUMP JUMPDEST PUSH1 0x1 PUSH1 0x1 PUSH1 0x40 SHL SUB DUP2 GT DUP1 ISZERO PUSH2 0x18B8 JUMPI PUSH1 0x0 DUP1 REVERT JUMPDEST POP PUSH1 0x40 MLOAD SWAP1 DUP1 DUP3 MSTORE DUP1 PUSH1 0x20 MUL PUSH1 0x20 ADD DUP3 ADD PUSH1 0x40 MSTORE DUP1 ISZERO PUSH2 0x18E2 JUMPI DUP2 PUSH1 0x20 ADD PUSH1 0x20 DUP3 MUL DUP1 CALLDATASIZE DUP4 CALLDATACOPY ADD SWAP1 POP JUMPDEST POP SWAP3 POP JUMPDEST PUSH2 0x18F2 DUP11 DUP4 DUP10 DUP10 PUSH2 0x2F31 JUMP JUMPDEST SWAP1 SWAP6 POP SWAP4 POP PUSH2 0x1902 DUP11 DUP6 DUP5 PUSH2 0x2FA0 JUMP JUMPDEST PUSH1 0x9 SSTORE POP POP SWAP9 POP SWAP9 POP SWAP9 SWAP6 POP POP POP POP POP POP JUMP JUMPDEST PUSH1 0x0 JUMPDEST PUSH2 0x1920 PUSH2 0x1822 JUMP JUMPDEST DUP2 LT ISZERO PUSH2 0x1976 JUMPI PUSH2 0x1957 DUP4 DUP3 DUP2 MLOAD DUP2 LT PUSH2 0x1936 JUMPI INVALID JUMPDEST PUSH1 0x20 MUL PUSH1 0x20 ADD ADD MLOAD DUP4 DUP4 DUP2 MLOAD DUP2 LT PUSH2 0x194A JUMPI INVALID JUMPDEST PUSH1 0x20 MUL PUSH1 0x20 ADD ADD MLOAD PUSH2 0x1AC2 JUMP JUMPDEST DUP4 DUP3 DUP2 MLOAD DUP2 LT PUSH2 0x1963 JUMPI INVALID JUMPDEST PUSH1 0x20 SWAP1 DUP2 MUL SWAP2 SWAP1 SWAP2 ADD ADD MSTORE PUSH1 0x1 ADD PUSH2 0x1918 JUMP JUMPDEST POP POP POP JUMP JUMPDEST CALLER ADDRESS EQ PUSH2 0x1A39 JUMPI PUSH1 0x0 ADDRESS PUSH1 0x1 PUSH1 0x1 PUSH1 0xA0 SHL SUB AND PUSH1 0x0 CALLDATASIZE PUSH1 0x40 MLOAD PUSH2 0x199F SWAP3 SWAP2 SWAP1 PUSH2 0x56CC JUMP JUMPDEST PUSH1 0x0 PUSH1 0x40 MLOAD DUP1 DUP4 SUB DUP2 PUSH1 0x0 DUP7 GAS CALL SWAP2 POP POP RETURNDATASIZE DUP1 PUSH1 0x0 DUP2 EQ PUSH2 0x19DC JUMPI PUSH1 0x40 MLOAD SWAP2 POP PUSH1 0x1F NOT PUSH1 0x3F RETURNDATASIZE ADD AND DUP3 ADD PUSH1 0x40 MSTORE RETURNDATASIZE DUP3 MSTORE RETURNDATASIZE PUSH1 0x0 PUSH1 0x20 DUP5 ADD RETURNDATACOPY PUSH2 0x19E1 JUMP JUMPDEST PUSH1 0x60 SWAP2 POP JUMPDEST POP POP SWAP1 POP DUP1 PUSH1 0x0 DUP2 EQ PUSH2 0x19F0 JUMPI INVALID JUMPDEST PUSH1 0x4 PUSH1 0x0 DUP1 RETURNDATACOPY PUSH1 0x0 MLOAD PUSH1 0x1 PUSH1 0x1 PUSH1 0xE0 SHL SUB NOT AND PUSH4 0x43ADBAFB PUSH1 0xE0 SHL DUP2 EQ PUSH2 0x1A1B JUMPI RETURNDATASIZE PUSH1 0x0 DUP1 RETURNDATACOPY RETURNDATASIZE PUSH1 0x0 REVERT JUMPDEST POP PUSH1 0x20 PUSH1 0x4 PUSH1 0x0 RETURNDATACOPY PUSH1 0x40 PUSH1 0x20 MSTORE PUSH1 0x24 RETURNDATASIZE SUB PUSH1 0x24 PUSH1 0x40 RETURNDATACOPY PUSH1 0x1C RETURNDATASIZE ADD PUSH1 0x0 RETURN JUMPDEST PUSH1 0x60 PUSH2 0x1A43 PUSH2 0xF6B JUMP JUMPDEST SWAP1 POP PUSH2 0x1A4F DUP8 DUP3 PUSH2 0x1B13 JUMP JUMPDEST PUSH1 0x0 PUSH1 0x60 PUSH2 0x1A67 DUP13 DUP13 DUP13 DUP13 DUP13 DUP13 DUP10 DUP14 DUP14 PUSH4 0xFFFFFFFF AND JUMP JUMPDEST POP SWAP2 POP SWAP2 POP PUSH2 0x1A7A DUP2 DUP5 DUP7 PUSH4 0xFFFFFFFF AND JUMP JUMPDEST DUP1 MLOAD PUSH1 0x1F NOT DUP3 ADD DUP4 SWAP1 MSTORE PUSH4 0x43ADBAFB PUSH1 0x3F NOT DUP4 ADD MSTORE PUSH1 0x20 MUL PUSH1 0x23 NOT DUP3 ADD PUSH1 0x44 DUP3 ADD DUP2 REVERT JUMPDEST PUSH1 0x0 DUP3 DUP3 MUL PUSH2 0x5D4 DUP5 ISZERO DUP1 PUSH2 0x1ABB JUMPI POP DUP4 DUP6 DUP4 DUP2 PUSH2 0x1AB8 JUMPI INVALID JUMPDEST DIV EQ JUMPDEST PUSH1 0x3 PUSH2 0x150B JUMP JUMPDEST PUSH1 0x0 PUSH2 0x1AD1 DUP3 ISZERO ISZERO PUSH1 0x4 PUSH2 0x150B JUMP JUMPDEST DUP3 PUSH2 0x1ADE JUMPI POP PUSH1 0x0 PUSH2 0x50D JUMP JUMPDEST PUSH8 0xDE0B6B3A7640000 DUP4 DUP2 MUL SWAP1 PUSH2 0x1B01 SWAP1 DUP6 DUP4 DUP2 PUSH2 0x1AF8 JUMPI INVALID JUMPDEST DIV EQ PUSH1 0x5 PUSH2 0x150B JUMP JUMPDEST DUP3 DUP2 DUP2 PUSH2 0x1B0A JUMPI INVALID JUMPDEST DIV SWAP2 POP POP PUSH2 0x50D JUMP JUMPDEST PUSH1 0x0 JUMPDEST PUSH2 0x1B1E PUSH2 0x1822 JUMP JUMPDEST DUP2 LT ISZERO PUSH2 0x1976 JUMPI PUSH2 0x1B55 DUP4 DUP3 DUP2 MLOAD DUP2 LT PUSH2 0x1B34 JUMPI INVALID JUMPDEST PUSH1 0x20 MUL PUSH1 0x20 ADD ADD MLOAD DUP4 DUP4 DUP2 MLOAD DUP2 LT PUSH2 0x1B48 JUMPI INVALID JUMPDEST PUSH1 0x20 MUL PUSH1 0x20 ADD ADD MLOAD PUSH2 0x2FB9 JUMP JUMPDEST DUP4 DUP3 DUP2 MLOAD DUP2 LT PUSH2 0x1B61 JUMPI INVALID JUMPDEST PUSH1 0x20 SWAP1 DUP2 MUL SWAP2 SWAP1 SWAP2 ADD ADD MSTORE PUSH1 0x1 ADD PUSH2 0x1B16 JUMP JUMPDEST PUSH2 0x680 DUP3 DUP3 PUSH2 0x2FE5 JUMP JUMPDEST PUSH1 0x0 PUSH1 0x60 DUP1 PUSH2 0x1B8B PUSH2 0x1696 JUMP JUMPDEST PUSH1 0x60 PUSH1 0x0 PUSH2 0x1B97 PUSH2 0x2559 JUMP JUMPDEST SWAP2 POP SWAP2 POP PUSH1 0x0 PUSH2 0x1BA7 DUP4 DUP13 PUSH2 0x258D JUMP JUMPDEST SWAP1 POP PUSH1 0x60 PUSH2 0x1BBB DUP13 DUP6 DUP6 PUSH1 0x9 SLOAD DUP7 DUP16 PUSH2 0x2E16 JUMP JUMPDEST SWAP1 POP PUSH2 0x1BCA DUP13 DUP3 PUSH2 0xDDC PUSH2 0x2EC6 JUMP JUMPDEST PUSH1 0x0 PUSH1 0x60 PUSH2 0x1BDA DUP15 DUP8 DUP14 DUP14 PUSH2 0x30A1 JUMP JUMPDEST SWAP2 POP SWAP2 POP PUSH2 0x1BE9 DUP15 DUP3 DUP9 PUSH2 0x30FC JUMP JUMPDEST PUSH1 0x9 SSTORE SWAP1 SWAP8 POP SWAP6 POP SWAP4 POP POP POP POP SWAP9 POP SWAP9 POP SWAP9 SWAP6 POP POP POP POP POP POP JUMP JUMPDEST PUSH1 0x0 JUMPDEST PUSH2 0x1C0F PUSH2 0x1822 JUMP JUMPDEST DUP2 LT ISZERO PUSH2 0x1976 JUMPI PUSH2 0x1C46 DUP4 DUP3 DUP2 MLOAD DUP2 LT PUSH2 0x1C25 JUMPI INVALID JUMPDEST PUSH1 0x20 MUL PUSH1 0x20 ADD ADD MLOAD DUP4 DUP4 DUP2 MLOAD DUP2 LT PUSH2 0x1C39 JUMPI INVALID JUMPDEST PUSH1 0x20 MUL PUSH1 0x20 ADD ADD MLOAD PUSH2 0x310B JUMP JUMPDEST DUP4 DUP3 DUP2 MLOAD DUP2 LT PUSH2 0x1C52 JUMPI INVALID JUMPDEST PUSH1 0x20 SWAP1 DUP2 MUL SWAP2 SWAP1 SWAP2 ADD ADD MSTORE PUSH1 0x1 ADD PUSH2 0x1C07 JUMP JUMPDEST PUSH1 0x0 PUSH32 0x0 PUSH1 0x1 PUSH1 0x1 PUSH1 0xA0 SHL SUB AND DUP3 PUSH1 0x1 PUSH1 0x1 PUSH1 0xA0 SHL SUB AND EQ ISZERO PUSH2 0x1CC8 JUMPI POP PUSH32 0x0 PUSH2 0x711 JUMP JUMPDEST PUSH32 0x0 PUSH1 0x1 PUSH1 0x1 PUSH1 0xA0 SHL SUB AND DUP3 PUSH1 0x1 PUSH1 0x1 PUSH1 0xA0 SHL SUB AND EQ ISZERO PUSH2 0x1D29 JUMPI POP PUSH32 0x0 PUSH2 0x711 JUMP JUMPDEST PUSH32 0x0 PUSH1 0x1 PUSH1 0x1 PUSH1 0xA0 SHL SUB AND DUP3 PUSH1 0x1 PUSH1 0x1 PUSH1 0xA0 SHL SUB AND EQ ISZERO PUSH2 0x1D8A JUMPI POP PUSH32 0x0 PUSH2 0x711 JUMP JUMPDEST PUSH32 0x0 PUSH1 0x1 PUSH1 0x1 PUSH1 0xA0 SHL SUB AND DUP3 PUSH1 0x1 PUSH1 0x1 PUSH1 0xA0 SHL SUB AND EQ ISZERO PUSH2 0x1DEB JUMPI POP PUSH32 0x0 PUSH2 0x711 JUMP JUMPDEST PUSH32 0x0 PUSH1 0x1 PUSH1 0x1 PUSH1 0xA0 SHL SUB AND DUP3 PUSH1 0x1 PUSH1 0x1 PUSH1 0xA0 SHL SUB AND EQ ISZERO PUSH2 0x1E4C JUMPI POP PUSH32 0x0 PUSH2 0x711 JUMP JUMPDEST PUSH32 0x0 PUSH1 0x1 PUSH1 0x1 PUSH1 0xA0 SHL SUB AND DUP3 PUSH1 0x1 PUSH1 0x1 PUSH1 0xA0 SHL SUB AND EQ ISZERO PUSH2 0x1EAD JUMPI POP PUSH32 0x0 PUSH2 0x711 JUMP JUMPDEST PUSH32 0x0 PUSH1 0x1 PUSH1 0x1 PUSH1 0xA0 SHL SUB AND DUP3 PUSH1 0x1 PUSH1 0x1 PUSH1 0xA0 SHL SUB AND EQ ISZERO PUSH2 0x1F0E JUMPI POP PUSH32 0x0 PUSH2 0x711 JUMP JUMPDEST PUSH32 0x0 PUSH1 0x1 PUSH1 0x1 PUSH1 0xA0 SHL SUB AND DUP3 PUSH1 0x1 PUSH1 0x1 PUSH1 0xA0 SHL SUB AND EQ ISZERO PUSH2 0x1F6F JUMPI POP PUSH32 0x0 PUSH2 0x711 JUMP JUMPDEST PUSH32 0x0 PUSH1 0x1 PUSH1 0x1 PUSH1 0xA0 SHL SUB AND DUP3 PUSH1 0x1 PUSH1 0x1 PUSH1 0xA0 SHL SUB AND EQ ISZERO PUSH2 0x1FD0 JUMPI POP PUSH32 0x0 PUSH2 0x711 JUMP JUMPDEST PUSH32 0x0 PUSH1 0x1 PUSH1 0x1 PUSH1 0xA0 SHL SUB AND DUP3 PUSH1 0x1 PUSH1 0x1 PUSH1 0xA0 SHL SUB AND EQ ISZERO PUSH2 0x2031 JUMPI POP PUSH32 0x0 PUSH2 0x711 JUMP JUMPDEST PUSH32 0x0 PUSH1 0x1 PUSH1 0x1 PUSH1 0xA0 SHL SUB AND DUP3 PUSH1 0x1 PUSH1 0x1 PUSH1 0xA0 SHL SUB AND EQ ISZERO PUSH2 0x2092 JUMPI POP PUSH32 0x0 PUSH2 0x711 JUMP JUMPDEST PUSH32 0x0 PUSH1 0x1 PUSH1 0x1 PUSH1 0xA0 SHL SUB AND DUP3 PUSH1 0x1 PUSH1 0x1 PUSH1 0xA0 SHL SUB AND EQ ISZERO PUSH2 0x20F3 JUMPI POP PUSH32 0x0 PUSH2 0x711 JUMP JUMPDEST PUSH32 0x0 PUSH1 0x1 PUSH1 0x1 PUSH1 0xA0 SHL SUB AND DUP3 PUSH1 0x1 PUSH1 0x1 PUSH1 0xA0 SHL SUB AND EQ ISZERO PUSH2 0x2154 JUMPI POP PUSH32 0x0 PUSH2 0x711 JUMP JUMPDEST PUSH32 0x0 PUSH1 0x1 PUSH1 0x1 PUSH1 0xA0 SHL SUB AND DUP3 PUSH1 0x1 PUSH1 0x1 PUSH1 0xA0 SHL SUB AND EQ ISZERO PUSH2 0x21B5 JUMPI POP PUSH32 0x0 PUSH2 0x711 JUMP JUMPDEST PUSH32 0x0 PUSH1 0x1 PUSH1 0x1 PUSH1 0xA0 SHL SUB AND DUP3 PUSH1 0x1 PUSH1 0x1 PUSH1 0xA0 SHL SUB AND EQ ISZERO PUSH2 0x2216 JUMPI POP PUSH32 0x0 PUSH2 0x711 JUMP JUMPDEST PUSH32 0x0 PUSH1 0x1 PUSH1 0x1 PUSH1 0xA0 SHL SUB AND DUP3 PUSH1 0x1 PUSH1 0x1 PUSH1 0xA0 SHL SUB AND EQ ISZERO PUSH2 0x2277 JUMPI POP PUSH32 0x0 PUSH2 0x711 JUMP JUMPDEST PUSH32 0x0 PUSH1 0x1 PUSH1 0x1 PUSH1 0xA0 SHL SUB AND DUP3 PUSH1 0x1 PUSH1 0x1 PUSH1 0xA0 SHL SUB AND EQ ISZERO PUSH2 0x22D8 JUMPI POP PUSH32 0x0 PUSH2 0x711 JUMP JUMPDEST PUSH32 0x0 PUSH1 0x1 PUSH1 0x1 PUSH1 0xA0 SHL SUB AND DUP3 PUSH1 0x1 PUSH1 0x1 PUSH1 0xA0 SHL SUB AND EQ ISZERO PUSH2 0x2339 JUMPI POP PUSH32 0x0 PUSH2 0x711 JUMP JUMPDEST PUSH32 0x0 PUSH1 0x1 PUSH1 0x1 PUSH1 0xA0 SHL SUB AND DUP3 PUSH1 0x1 PUSH1 0x1 PUSH1 0xA0 SHL SUB AND EQ ISZERO PUSH2 0x239A JUMPI POP PUSH32 0x0 PUSH2 0x711 JUMP JUMPDEST PUSH32 0x0 PUSH1 0x1 PUSH1 0x1 PUSH1 0xA0 SHL SUB AND DUP3 PUSH1 0x1 PUSH1 0x1 PUSH1 0xA0 SHL SUB AND EQ ISZERO PUSH2 0x23FB JUMPI POP PUSH32 0x0 PUSH2 0x711 JUMP JUMPDEST PUSH2 0x711 PUSH2 0x135 PUSH2 0x2DA9 JUMP JUMPDEST PUSH1 0x0 DUP1 PUSH2 0x241B PUSH2 0x2414 PUSH2 0x684 JUMP JUMPDEST DUP5 SWAP1 PUSH2 0x3159 JUMP JUMPDEST SWAP1 POP PUSH2 0x5D4 DUP4 DUP3 PUSH2 0xDDC JUMP JUMPDEST PUSH1 0x0 PUSH2 0x5D4 DUP4 DUP4 PUSH2 0x2FB9 JUMP JUMPDEST PUSH1 0x0 PUSH2 0x243D PUSH2 0x1696 JUMP JUMPDEST PUSH2 0x2466 DUP4 PUSH2 0x244E DUP7 PUSH1 0x20 ADD MLOAD PUSH2 0x3195 JUMP JUMPDEST DUP5 PUSH2 0x245C DUP9 PUSH1 0x40 ADD MLOAD PUSH2 0x3195 JUMP JUMPDEST DUP9 PUSH1 0x60 ADD MLOAD PUSH2 0x392B JUMP JUMPDEST SWAP5 SWAP4 POP POP POP POP JUMP JUMPDEST PUSH1 0x0 PUSH2 0x5D4 DUP4 DUP4 PUSH2 0x1AC2 JUMP JUMPDEST PUSH1 0x0 PUSH2 0x2484 PUSH2 0x1696 JUMP JUMPDEST PUSH2 0x2466 DUP4 PUSH2 0x2495 DUP7 PUSH1 0x20 ADD MLOAD PUSH2 0x3195 JUMP JUMPDEST DUP5 PUSH2 0x24A3 DUP9 PUSH1 0x40 ADD MLOAD PUSH2 0x3195 JUMP JUMPDEST DUP9 PUSH1 0x60 ADD MLOAD PUSH2 0x39A8 JUMP JUMPDEST PUSH1 0x0 PUSH2 0x5D4 DUP4 DUP4 PUSH2 0x310B JUMP JUMPDEST PUSH1 0x0 PUSH2 0x50D PUSH2 0x24D8 PUSH2 0x24C9 PUSH2 0x684 JUMP JUMPDEST PUSH8 0xDE0B6B3A7640000 SWAP1 PUSH2 0xDDC JUMP JUMPDEST DUP4 SWAP1 PUSH2 0x310B JUMP JUMPDEST PUSH1 0x0 PUSH2 0x24E9 PUSH2 0x870 JUMP JUMPDEST PUSH1 0x1 PUSH1 0x1 PUSH1 0xA0 SHL SUB AND PUSH4 0xAAABADC5 PUSH1 0x40 MLOAD DUP2 PUSH4 0xFFFFFFFF AND PUSH1 0xE0 SHL DUP2 MSTORE PUSH1 0x4 ADD PUSH1 0x20 PUSH1 0x40 MLOAD DUP1 DUP4 SUB DUP2 DUP7 DUP1 EXTCODESIZE ISZERO DUP1 ISZERO PUSH2 0x2521 JUMPI PUSH1 0x0 DUP1 REVERT JUMPDEST POP GAS STATICCALL ISZERO DUP1 ISZERO PUSH2 0x2535 JUMPI RETURNDATASIZE PUSH1 0x0 DUP1 RETURNDATACOPY RETURNDATASIZE PUSH1 0x0 REVERT JUMPDEST POP POP POP POP PUSH1 0x40 MLOAD RETURNDATASIZE PUSH1 0x1F NOT PUSH1 0x1F DUP3 ADD AND DUP3 ADD DUP1 PUSH1 0x40 MSTORE POP DUP2 ADD SWAP1 PUSH2 0x560 SWAP2 SWAP1 PUSH2 0x536A JUMP JUMPDEST PUSH1 0x60 PUSH1 0x0 PUSH2 0x2565 PUSH2 0x26C0 JUMP JUMPDEST SWAP3 PUSH32 0x0 SWAP3 POP SWAP1 POP JUMP JUMPDEST PUSH8 0xDE0B6B3A7640000 PUSH1 0x0 JUMPDEST DUP4 MLOAD DUP2 LT ISZERO PUSH2 0x25EF JUMPI PUSH2 0x25E5 PUSH2 0x25DE DUP6 DUP4 DUP2 MLOAD DUP2 LT PUSH2 0x25B4 JUMPI INVALID JUMPDEST PUSH1 0x20 MUL PUSH1 0x20 ADD ADD MLOAD DUP6 DUP5 DUP2 MLOAD DUP2 LT PUSH2 0x25C8 JUMPI INVALID JUMPDEST PUSH1 0x20 MUL PUSH1 0x20 ADD ADD MLOAD PUSH2 0x3A1E SWAP1 SWAP2 SWAP1 PUSH4 0xFFFFFFFF AND JUMP JUMPDEST DUP4 SWAP1 PUSH2 0x2FB9 JUMP JUMPDEST SWAP2 POP PUSH1 0x1 ADD PUSH2 0x2599 JUMP JUMPDEST POP PUSH2 0x50D PUSH1 0x0 DUP3 GT PUSH2 0x137 PUSH2 0x150B JUMP JUMPDEST PUSH1 0x0 PUSH2 0x2609 PUSH2 0x15F9 JUMP JUMPDEST DUP3 PUSH1 0x40 MLOAD PUSH1 0x20 ADD PUSH2 0x809 SWAP3 SWAP2 SWAP1 PUSH2 0x56DC JUMP JUMPDEST PUSH1 0x0 PUSH1 0x60 PUSH2 0x2627 PUSH2 0x1696 JUMP JUMPDEST PUSH1 0x0 PUSH2 0x2632 DUP5 PUSH2 0x3A6D JUMP JUMPDEST SWAP1 POP PUSH2 0x264D PUSH1 0x0 DUP3 PUSH1 0x2 DUP2 GT ISZERO PUSH2 0x2645 JUMPI INVALID JUMPDEST EQ PUSH1 0xCE PUSH2 0x150B JUMP JUMPDEST PUSH1 0x60 PUSH2 0x2658 DUP6 PUSH2 0x3A83 JUMP JUMPDEST SWAP1 POP PUSH2 0x266C PUSH2 0x2665 PUSH2 0x1822 JUMP JUMPDEST DUP3 MLOAD PUSH2 0xDA8 JUMP JUMPDEST PUSH2 0x2676 DUP2 DUP8 PUSH2 0x1B13 JUMP JUMPDEST PUSH1 0x60 PUSH2 0x2680 PUSH2 0x2559 JUMP JUMPDEST POP SWAP1 POP PUSH1 0x0 PUSH2 0x268F DUP3 DUP5 PUSH2 0x258D JUMP JUMPDEST SWAP1 POP PUSH1 0x0 PUSH2 0x269F DUP3 PUSH2 0x6EC PUSH2 0x1822 JUMP JUMPDEST PUSH1 0x9 SWAP3 SWAP1 SWAP3 SSTORE POP SWAP11 SWAP2 SWAP10 POP SWAP1 SWAP8 POP POP POP POP POP POP POP POP JUMP JUMPDEST PUSH2 0x680 DUP3 DUP3 PUSH2 0x3A99 JUMP JUMPDEST PUSH1 0x60 PUSH1 0x0 PUSH2 0x26CC PUSH2 0x1822 JUMP JUMPDEST SWAP1 POP PUSH1 0x60 DUP2 PUSH1 0x1 PUSH1 0x1 PUSH1 0x40 SHL SUB DUP2 GT DUP1 ISZERO PUSH2 0x26E6 JUMPI PUSH1 0x0 DUP1 REVERT JUMPDEST POP PUSH1 0x40 MLOAD SWAP1 DUP1 DUP3 MSTORE DUP1 PUSH1 0x20 MUL PUSH1 0x20 ADD DUP3 ADD PUSH1 0x40 MSTORE DUP1 ISZERO PUSH2 0x2710 JUMPI DUP2 PUSH1 0x20 ADD PUSH1 0x20 DUP3 MUL DUP1 CALLDATASIZE DUP4 CALLDATACOPY ADD SWAP1 POP JUMPDEST POP SWAP1 POP DUP2 ISZERO PUSH2 0x1003 JUMPI PUSH32 0x0 DUP2 PUSH1 0x0 DUP2 MLOAD DUP2 LT PUSH2 0x2747 JUMPI INVALID JUMPDEST PUSH1 0x20 MUL PUSH1 0x20 ADD ADD DUP2 DUP2 MSTORE POP POP PUSH1 0x1 DUP3 GT ISZERO PUSH2 0x1003 JUMPI PUSH32 0x0 DUP2 PUSH1 0x1 DUP2 MLOAD DUP2 LT PUSH2 0x278A JUMPI INVALID JUMPDEST PUSH1 0x20 MUL PUSH1 0x20 ADD ADD DUP2 DUP2 MSTORE POP POP PUSH1 0x2 DUP3 GT ISZERO PUSH2 0x1003 JUMPI PUSH32 0x0 DUP2 PUSH1 0x2 DUP2 MLOAD DUP2 LT PUSH2 0x27CD JUMPI INVALID JUMPDEST PUSH1 0x20 MUL PUSH1 0x20 ADD ADD DUP2 DUP2 MSTORE POP POP PUSH1 0x3 DUP3 GT ISZERO PUSH2 0x1003 JUMPI PUSH32 0x0 DUP2 PUSH1 0x3 DUP2 MLOAD DUP2 LT PUSH2 0x2810 JUMPI INVALID JUMPDEST PUSH1 0x20 MUL PUSH1 0x20 ADD ADD DUP2 DUP2 MSTORE POP POP PUSH1 0x4 DUP3 GT ISZERO PUSH2 0x1003 JUMPI PUSH32 0x0 DUP2 PUSH1 0x4 DUP2 MLOAD DUP2 LT PUSH2 0x2853 JUMPI INVALID JUMPDEST PUSH1 0x20 MUL PUSH1 0x20 ADD ADD DUP2 DUP2 MSTORE POP POP PUSH1 0x5 DUP3 GT ISZERO PUSH2 0x1003 JUMPI PUSH32 0x0 DUP2 PUSH1 0x5 DUP2 MLOAD DUP2 LT PUSH2 0x2896 JUMPI INVALID JUMPDEST PUSH1 0x20 MUL PUSH1 0x20 ADD ADD DUP2 DUP2 MSTORE POP POP PUSH1 0x6 DUP3 GT ISZERO PUSH2 0x1003 JUMPI PUSH32 0x0 DUP2 PUSH1 0x6 DUP2 MLOAD DUP2 LT PUSH2 0x28D9 JUMPI INVALID JUMPDEST PUSH1 0x20 MUL PUSH1 0x20 ADD ADD DUP2 DUP2 MSTORE POP POP PUSH1 0x7 DUP3 GT ISZERO PUSH2 0x1003 JUMPI PUSH32 0x0 DUP2 PUSH1 0x7 DUP2 MLOAD DUP2 LT PUSH2 0x291C JUMPI INVALID JUMPDEST PUSH1 0x20 MUL PUSH1 0x20 ADD ADD DUP2 DUP2 MSTORE POP POP PUSH1 0x8 DUP3 GT ISZERO PUSH2 0x1003 JUMPI PUSH32 0x0 DUP2 PUSH1 0x8 DUP2 MLOAD DUP2 LT PUSH2 0x295F JUMPI INVALID JUMPDEST PUSH1 0x20 MUL PUSH1 0x20 ADD ADD DUP2 DUP2 MSTORE POP POP PUSH1 0x9 DUP3 GT ISZERO PUSH2 0x1003 JUMPI PUSH32 0x0 DUP2 PUSH1 0x9 DUP2 MLOAD DUP2 LT PUSH2 0x29A2 JUMPI INVALID JUMPDEST PUSH1 0x20 MUL PUSH1 0x20 ADD ADD DUP2 DUP2 MSTORE POP POP PUSH1 0xA DUP3 GT ISZERO PUSH2 0x1003 JUMPI PUSH32 0x0 DUP2 PUSH1 0xA DUP2 MLOAD DUP2 LT PUSH2 0x29E5 JUMPI INVALID JUMPDEST PUSH1 0x20 MUL PUSH1 0x20 ADD ADD DUP2 DUP2 MSTORE POP POP PUSH1 0xB DUP3 GT ISZERO PUSH2 0x1003 JUMPI PUSH32 0x0 DUP2 PUSH1 0xB DUP2 MLOAD DUP2 LT PUSH2 0x2A28 JUMPI INVALID JUMPDEST PUSH1 0x20 MUL PUSH1 0x20 ADD ADD DUP2 DUP2 MSTORE POP POP PUSH1 0xC DUP3 GT ISZERO PUSH2 0x1003 JUMPI PUSH32 0x0 DUP2 PUSH1 0xC DUP2 MLOAD DUP2 LT PUSH2 0x2A6B JUMPI INVALID JUMPDEST PUSH1 0x20 MUL PUSH1 0x20 ADD ADD DUP2 DUP2 MSTORE POP POP PUSH1 0xD DUP3 GT ISZERO PUSH2 0x1003 JUMPI PUSH32 0x0 DUP2 PUSH1 0xD DUP2 MLOAD DUP2 LT PUSH2 0x2AAE JUMPI INVALID JUMPDEST PUSH1 0x20 MUL PUSH1 0x20 ADD ADD DUP2 DUP2 MSTORE POP POP PUSH1 0xE DUP3 GT ISZERO PUSH2 0x1003 JUMPI PUSH32 0x0 DUP2 PUSH1 0xE DUP2 MLOAD DUP2 LT PUSH2 0x2AF1 JUMPI INVALID JUMPDEST PUSH1 0x20 MUL PUSH1 0x20 ADD ADD DUP2 DUP2 MSTORE POP POP PUSH1 0xF DUP3 GT ISZERO PUSH2 0x1003 JUMPI PUSH32 0x0 DUP2 PUSH1 0xF DUP2 MLOAD DUP2 LT PUSH2 0x2B34 JUMPI INVALID JUMPDEST PUSH1 0x20 MUL PUSH1 0x20 ADD ADD DUP2 DUP2 MSTORE POP POP PUSH1 0x10 DUP3 GT ISZERO PUSH2 0x1003 JUMPI PUSH32 0x0 DUP2 PUSH1 0x10 DUP2 MLOAD DUP2 LT PUSH2 0x2B77 JUMPI INVALID JUMPDEST PUSH1 0x20 MUL PUSH1 0x20 ADD ADD DUP2 DUP2 MSTORE POP POP PUSH1 0x11 DUP3 GT ISZERO PUSH2 0x1003 JUMPI PUSH32 0x0 DUP2 PUSH1 0x11 DUP2 MLOAD DUP2 LT PUSH2 0x2BBA JUMPI INVALID JUMPDEST PUSH1 0x20 MUL PUSH1 0x20 ADD ADD DUP2 DUP2 MSTORE POP POP PUSH1 0x12 DUP3 GT ISZERO PUSH2 0x1003 JUMPI PUSH32 0x0 DUP2 PUSH1 0x12 DUP2 MLOAD DUP2 LT PUSH2 0x2BFD JUMPI INVALID JUMPDEST PUSH1 0x20 MUL PUSH1 0x20 ADD ADD DUP2 DUP2 MSTORE POP POP PUSH1 0x13 DUP3 GT ISZERO PUSH2 0x1003 JUMPI PUSH32 0x0 DUP2 PUSH1 0x13 DUP2 MLOAD DUP2 LT PUSH2 0x14F9 JUMPI INVALID JUMPDEST PUSH1 0x2 DUP2 MLOAD LT ISZERO PUSH2 0x2C4F JUMPI PUSH2 0x524 JUMP JUMPDEST PUSH1 0x0 DUP2 PUSH1 0x0 DUP2 MLOAD DUP2 LT PUSH2 0x2C5E JUMPI INVALID JUMPDEST PUSH1 0x20 MUL PUSH1 0x20 ADD ADD MLOAD SWAP1 POP PUSH1 0x0 PUSH1 0x1 SWAP1 POP JUMPDEST DUP3 MLOAD DUP2 LT ISZERO PUSH2 0x1976 JUMPI PUSH1 0x0 DUP4 DUP3 DUP2 MLOAD DUP2 LT PUSH2 0x2C86 JUMPI INVALID JUMPDEST PUSH1 0x20 MUL PUSH1 0x20 ADD ADD MLOAD SWAP1 POP PUSH2 0x2CAF DUP2 PUSH1 0x1 PUSH1 0x1 PUSH1 0xA0 SHL SUB AND DUP5 PUSH1 0x1 PUSH1 0x1 PUSH1 0xA0 SHL SUB AND LT PUSH1 0x65 PUSH2 0x150B JUMP JUMPDEST SWAP2 POP PUSH1 0x1 ADD PUSH2 0x2C6F JUMP JUMPDEST PUSH1 0x0 PUSH20 0xBA1BA1BA1BA1BA1BA1BA1BA1BA1BA1BA1BA1BA1B PUSH2 0x2CD8 PUSH2 0x84C JUMP JUMPDEST PUSH1 0x1 PUSH1 0x1 PUSH1 0xA0 SHL SUB AND EQ ISZERO DUP1 ISZERO PUSH2 0x2CF3 JUMPI POP PUSH2 0x2CF3 DUP4 PUSH2 0x3B27 JUMP JUMPDEST ISZERO PUSH2 0x2D1B JUMPI PUSH2 0x2D00 PUSH2 0x84C JUMP JUMPDEST PUSH1 0x1 PUSH1 0x1 PUSH1 0xA0 SHL SUB AND CALLER PUSH1 0x1 PUSH1 0x1 PUSH1 0xA0 SHL SUB AND EQ SWAP1 POP PUSH2 0x50D JUMP JUMPDEST PUSH2 0x2D23 PUSH2 0x24DF JUMP JUMPDEST PUSH1 0x1 PUSH1 0x1 PUSH1 0xA0 SHL SUB AND PUSH4 0x9BE2A884 DUP5 DUP5 ADDRESS PUSH1 0x40 MLOAD DUP5 PUSH4 0xFFFFFFFF AND PUSH1 0xE0 SHL DUP2 MSTORE PUSH1 0x4 ADD PUSH2 0x2D52 SWAP4 SWAP3 SWAP2 SWAP1 PUSH2 0x576F JUMP JUMPDEST PUSH1 0x20 PUSH1 0x40 MLOAD DUP1 DUP4 SUB DUP2 DUP7 DUP1 EXTCODESIZE ISZERO DUP1 ISZERO PUSH2 0x2D6A JUMPI PUSH1 0x0 DUP1 REVERT JUMPDEST POP GAS STATICCALL ISZERO DUP1 ISZERO PUSH2 0x2D7E JUMPI RETURNDATASIZE PUSH1 0x0 DUP1 RETURNDATACOPY RETURNDATASIZE PUSH1 0x0 REVERT JUMPDEST POP POP POP POP PUSH1 0x40 MLOAD RETURNDATASIZE PUSH1 0x1F NOT PUSH1 0x1F DUP3 ADD AND DUP3 ADD DUP1 PUSH1 0x40 MSTORE POP DUP2 ADD SWAP1 PUSH2 0x2DA2 SWAP2 SWAP1 PUSH2 0x522A JUMP JUMPDEST SWAP1 POP PUSH2 0x50D JUMP JUMPDEST PUSH3 0x461BCD PUSH1 0xE5 SHL PUSH1 0x0 SWAP1 DUP2 MSTORE PUSH1 0x20 PUSH1 0x4 MSTORE PUSH1 0x7 PUSH1 0x24 MSTORE PUSH7 0x42414C23000030 PUSH1 0xA DUP1 DUP5 DIV DUP2 DUP2 MOD PUSH1 0x30 SWAP1 DUP2 ADD PUSH1 0x8 SHL SWAP6 DUP4 SWAP1 MOD SWAP6 SWAP1 SWAP6 ADD SWAP1 DUP3 SWAP1 DIV SWAP2 DUP3 MOD SWAP1 SWAP5 ADD PUSH1 0x10 SHL SWAP4 SWAP1 SWAP4 ADD ADD PUSH1 0xC8 SHL PUSH1 0x44 MSTORE PUSH1 0x64 SWAP1 REVERT JUMPDEST PUSH1 0x0 PUSH2 0x2E0B DUP5 DUP5 GT ISZERO DUP4 PUSH2 0x150B JUMP JUMPDEST POP POP SWAP1 SUB SWAP1 JUMP JUMPDEST CHAINID SWAP1 JUMP JUMPDEST PUSH1 0x60 DUP1 PUSH2 0x2E21 PUSH2 0x1822 JUMP JUMPDEST PUSH1 0x1 PUSH1 0x1 PUSH1 0x40 SHL SUB DUP2 GT DUP1 ISZERO PUSH2 0x2E36 JUMPI PUSH1 0x0 DUP1 REVERT JUMPDEST POP PUSH1 0x40 MLOAD SWAP1 DUP1 DUP3 MSTORE DUP1 PUSH1 0x20 MUL PUSH1 0x20 ADD DUP3 ADD PUSH1 0x40 MSTORE DUP1 ISZERO PUSH2 0x2E60 JUMPI DUP2 PUSH1 0x20 ADD PUSH1 0x20 DUP3 MUL DUP1 CALLDATASIZE DUP4 CALLDATACOPY ADD SWAP1 POP JUMPDEST POP SWAP1 POP DUP3 PUSH2 0x2E6F JUMPI SWAP1 POP PUSH2 0x2EBC JUMP JUMPDEST PUSH2 0x2EA2 DUP9 DUP8 DUP2 MLOAD DUP2 LT PUSH2 0x2E7E JUMPI INVALID JUMPDEST PUSH1 0x20 MUL PUSH1 0x20 ADD ADD MLOAD DUP9 DUP9 DUP2 MLOAD DUP2 LT PUSH2 0x2E92 JUMPI INVALID JUMPDEST PUSH1 0x20 MUL PUSH1 0x20 ADD ADD MLOAD DUP8 DUP8 DUP8 PUSH2 0x3B59 JUMP JUMPDEST DUP2 DUP8 DUP2 MLOAD DUP2 LT PUSH2 0x2EAE JUMPI INVALID JUMPDEST PUSH1 0x20 SWAP1 DUP2 MUL SWAP2 SWAP1 SWAP2 ADD ADD MSTORE SWAP1 POP JUMPDEST SWAP7 SWAP6 POP POP POP POP POP POP JUMP JUMPDEST PUSH1 0x0 JUMPDEST PUSH2 0x2ED1 PUSH2 0x1822 JUMP JUMPDEST DUP2 LT ISZERO PUSH2 0x2F2B JUMPI PUSH2 0x2F0C DUP5 DUP3 DUP2 MLOAD DUP2 LT PUSH2 0x2EE7 JUMPI INVALID JUMPDEST PUSH1 0x20 MUL PUSH1 0x20 ADD ADD MLOAD DUP5 DUP4 DUP2 MLOAD DUP2 LT PUSH2 0x2EFB JUMPI INVALID JUMPDEST PUSH1 0x20 MUL PUSH1 0x20 ADD ADD MLOAD DUP5 PUSH4 0xFFFFFFFF AND JUMP JUMPDEST DUP5 DUP3 DUP2 MLOAD DUP2 LT PUSH2 0x2F18 JUMPI INVALID JUMPDEST PUSH1 0x20 SWAP1 DUP2 MUL SWAP2 SWAP1 SWAP2 ADD ADD MSTORE PUSH1 0x1 ADD PUSH2 0x2EC9 JUMP JUMPDEST POP POP POP POP JUMP JUMPDEST PUSH1 0x0 PUSH1 0x60 PUSH1 0x0 PUSH2 0x2F40 DUP5 PUSH2 0x3A6D JUMP JUMPDEST SWAP1 POP PUSH1 0x0 DUP2 PUSH1 0x2 DUP2 GT ISZERO PUSH2 0x2F50 JUMPI INVALID JUMPDEST EQ ISZERO PUSH2 0x2F6B JUMPI PUSH2 0x2F61 DUP8 DUP8 DUP7 PUSH2 0x3BD1 JUMP JUMPDEST SWAP3 POP SWAP3 POP POP PUSH2 0x2F97 JUMP JUMPDEST PUSH1 0x1 DUP2 PUSH1 0x2 DUP2 GT ISZERO PUSH2 0x2F79 JUMPI INVALID JUMPDEST EQ ISZERO PUSH2 0x2F89 JUMPI PUSH2 0x2F61 DUP8 DUP6 PUSH2 0x3CB3 JUMP JUMPDEST PUSH2 0x2F61 DUP8 DUP8 DUP8 DUP8 PUSH2 0x3CE5 JUMP JUMPDEST POP JUMPDEST SWAP5 POP SWAP5 SWAP3 POP POP POP JUMP JUMPDEST PUSH1 0x0 PUSH2 0x2FAF DUP5 DUP5 PUSH2 0xDDC PUSH2 0x2EC6 JUMP JUMPDEST PUSH2 0x2466 DUP3 DUP6 PUSH2 0x258D JUMP JUMPDEST PUSH1 0x0 DUP3 DUP3 MUL PUSH2 0x2FD3 DUP5 ISZERO DUP1 PUSH2 0x1ABB JUMPI POP DUP4 DUP6 DUP4 DUP2 PUSH2 0x1AB8 JUMPI INVALID JUMPDEST PUSH8 0xDE0B6B3A7640000 SWAP1 DIV SWAP4 SWAP3 POP POP POP JUMP JUMPDEST PUSH2 0x2FFC PUSH1 0x1 PUSH1 0x1 PUSH1 0xA0 SHL SUB DUP4 AND ISZERO ISZERO PUSH2 0x19B PUSH2 0x150B JUMP JUMPDEST PUSH2 0x3008 DUP3 PUSH1 0x0 DUP4 PUSH2 0x1976 JUMP JUMPDEST PUSH1 0x1 PUSH1 0x1 PUSH1 0xA0 SHL SUB DUP3 AND PUSH1 0x0 SWAP1 DUP2 MSTORE PUSH1 0x20 DUP2 SWAP1 MSTORE PUSH1 0x40 SWAP1 KECCAK256 SLOAD PUSH2 0x302E SWAP1 DUP3 PUSH2 0x1A1 PUSH2 0x2DFC JUMP JUMPDEST PUSH1 0x1 PUSH1 0x1 PUSH1 0xA0 SHL SUB DUP4 AND PUSH1 0x0 SWAP1 DUP2 MSTORE PUSH1 0x20 DUP2 SWAP1 MSTORE PUSH1 0x40 SWAP1 KECCAK256 SSTORE PUSH1 0x2 SLOAD PUSH2 0x3054 SWAP1 DUP3 PUSH2 0x3D54 JUMP JUMPDEST PUSH1 0x2 SSTORE PUSH1 0x40 MLOAD PUSH1 0x0 SWAP1 PUSH1 0x1 PUSH1 0x1 PUSH1 0xA0 SHL SUB DUP5 AND SWAP1 PUSH32 0xDDF252AD1BE2C89B69C2B068FC378DAA952BA7F163C4A11628F55A4DF523B3EF SWAP1 PUSH2 0x3095 SWAP1 DUP6 SWAP1 PUSH2 0x5766 JUMP JUMPDEST PUSH1 0x40 MLOAD DUP1 SWAP2 SUB SWAP1 LOG3 POP POP JUMP JUMPDEST PUSH1 0x0 PUSH1 0x60 PUSH1 0x0 PUSH2 0x30B0 DUP5 PUSH2 0x3A6D JUMP JUMPDEST SWAP1 POP PUSH1 0x1 DUP2 PUSH1 0x2 DUP2 GT ISZERO PUSH2 0x30C0 JUMPI INVALID JUMPDEST EQ ISZERO PUSH2 0x30D2 JUMPI PUSH2 0x2F61 DUP8 DUP8 DUP8 DUP8 PUSH2 0x3D62 JUMP JUMPDEST PUSH1 0x2 DUP2 PUSH1 0x2 DUP2 GT ISZERO PUSH2 0x30E0 JUMPI INVALID JUMPDEST EQ ISZERO PUSH2 0x30F1 JUMPI PUSH2 0x2F61 DUP8 DUP8 DUP7 PUSH2 0x3DBF JUMP JUMPDEST PUSH2 0x2F95 PUSH2 0x136 PUSH2 0x2DA9 JUMP JUMPDEST PUSH1 0x0 PUSH2 0x2FAF DUP5 DUP5 PUSH2 0xDB5 PUSH2 0x2EC6 JUMP JUMPDEST PUSH1 0x0 PUSH2 0x311A DUP3 ISZERO ISZERO PUSH1 0x4 PUSH2 0x150B JUMP JUMPDEST DUP3 PUSH2 0x3127 JUMPI POP PUSH1 0x0 PUSH2 0x50D JUMP JUMPDEST PUSH8 0xDE0B6B3A7640000 DUP4 DUP2 MUL SWAP1 PUSH2 0x3141 SWAP1 DUP6 DUP4 DUP2 PUSH2 0x1AF8 JUMPI INVALID JUMPDEST DUP3 PUSH1 0x1 DUP3 SUB DUP2 PUSH2 0x314D JUMPI INVALID JUMPDEST DIV PUSH1 0x1 ADD SWAP2 POP POP PUSH2 0x50D JUMP JUMPDEST PUSH1 0x0 DUP3 DUP3 MUL PUSH2 0x3173 DUP5 ISZERO DUP1 PUSH2 0x1ABB JUMPI POP DUP4 DUP6 DUP4 DUP2 PUSH2 0x1AB8 JUMPI INVALID JUMPDEST DUP1 PUSH2 0x3182 JUMPI PUSH1 0x0 SWAP2 POP POP PUSH2 0x50D JUMP JUMPDEST PUSH8 0xDE0B6B3A7640000 PUSH1 0x0 NOT DUP3 ADD PUSH2 0x314D JUMP JUMPDEST PUSH1 0x0 PUSH32 0x0 PUSH1 0x1 PUSH1 0x1 PUSH1 0xA0 SHL SUB AND DUP3 PUSH1 0x1 PUSH1 0x1 PUSH1 0xA0 SHL SUB AND EQ ISZERO PUSH2 0x31F8 JUMPI POP PUSH32 0x0 PUSH2 0x711 JUMP JUMPDEST PUSH32 0x0 PUSH1 0x1 PUSH1 0x1 PUSH1 0xA0 SHL SUB AND DUP3 PUSH1 0x1 PUSH1 0x1 PUSH1 0xA0 SHL SUB AND EQ ISZERO PUSH2 0x3259 JUMPI POP PUSH32 0x0 PUSH2 0x711 JUMP JUMPDEST PUSH32 0x0 PUSH1 0x1 PUSH1 0x1 PUSH1 0xA0 SHL SUB AND DUP3 PUSH1 0x1 PUSH1 0x1 PUSH1 0xA0 SHL SUB AND EQ ISZERO PUSH2 0x32BA JUMPI POP PUSH32 0x0 PUSH2 0x711 JUMP JUMPDEST PUSH32 0x0 PUSH1 0x1 PUSH1 0x1 PUSH1 0xA0 SHL SUB AND DUP3 PUSH1 0x1 PUSH1 0x1 PUSH1 0xA0 SHL SUB AND EQ ISZERO PUSH2 0x331B JUMPI POP PUSH32 0x0 PUSH2 0x711 JUMP JUMPDEST PUSH32 0x0 PUSH1 0x1 PUSH1 0x1 PUSH1 0xA0 SHL SUB AND DUP3 PUSH1 0x1 PUSH1 0x1 PUSH1 0xA0 SHL SUB AND EQ ISZERO PUSH2 0x337C JUMPI POP PUSH32 0x0 PUSH2 0x711 JUMP JUMPDEST PUSH32 0x0 PUSH1 0x1 PUSH1 0x1 PUSH1 0xA0 SHL SUB AND DUP3 PUSH1 0x1 PUSH1 0x1 PUSH1 0xA0 SHL SUB AND EQ ISZERO PUSH2 0x33DD JUMPI POP PUSH32 0x0 PUSH2 0x711 JUMP JUMPDEST PUSH32 0x0 PUSH1 0x1 PUSH1 0x1 PUSH1 0xA0 SHL SUB AND DUP3 PUSH1 0x1 PUSH1 0x1 PUSH1 0xA0 SHL SUB AND EQ ISZERO PUSH2 0x343E JUMPI POP PUSH32 0x0 PUSH2 0x711 JUMP JUMPDEST PUSH32 0x0 PUSH1 0x1 PUSH1 0x1 PUSH1 0xA0 SHL SUB AND DUP3 PUSH1 0x1 PUSH1 0x1 PUSH1 0xA0 SHL SUB AND EQ ISZERO PUSH2 0x349F JUMPI POP PUSH32 0x0 PUSH2 0x711 JUMP JUMPDEST PUSH32 0x0 PUSH1 0x1 PUSH1 0x1 PUSH1 0xA0 SHL SUB AND DUP3 PUSH1 0x1 PUSH1 0x1 PUSH1 0xA0 SHL SUB AND EQ ISZERO PUSH2 0x3500 JUMPI POP PUSH32 0x0 PUSH2 0x711 JUMP JUMPDEST PUSH32 0x0 PUSH1 0x1 PUSH1 0x1 PUSH1 0xA0 SHL SUB AND DUP3 PUSH1 0x1 PUSH1 0x1 PUSH1 0xA0 SHL SUB AND EQ ISZERO PUSH2 0x3561 JUMPI POP PUSH32 0x0 PUSH2 0x711 JUMP JUMPDEST PUSH32 0x0 PUSH1 0x1 PUSH1 0x1 PUSH1 0xA0 SHL SUB AND DUP3 PUSH1 0x1 PUSH1 0x1 PUSH1 0xA0 SHL SUB AND EQ ISZERO PUSH2 0x35C2 JUMPI POP PUSH32 0x0 PUSH2 0x711 JUMP JUMPDEST PUSH32 0x0 PUSH1 0x1 PUSH1 0x1 PUSH1 0xA0 SHL SUB AND DUP3 PUSH1 0x1 PUSH1 0x1 PUSH1 0xA0 SHL SUB AND EQ ISZERO PUSH2 0x3623 JUMPI POP PUSH32 0x0 PUSH2 0x711 JUMP JUMPDEST PUSH32 0x0 PUSH1 0x1 PUSH1 0x1 PUSH1 0xA0 SHL SUB AND DUP3 PUSH1 0x1 PUSH1 0x1 PUSH1 0xA0 SHL SUB AND EQ ISZERO PUSH2 0x3684 JUMPI POP PUSH32 0x0 PUSH2 0x711 JUMP JUMPDEST PUSH32 0x0 PUSH1 0x1 PUSH1 0x1 PUSH1 0xA0 SHL SUB AND DUP3 PUSH1 0x1 PUSH1 0x1 PUSH1 0xA0 SHL SUB AND EQ ISZERO PUSH2 0x36E5 JUMPI POP PUSH32 0x0 PUSH2 0x711 JUMP JUMPDEST PUSH32 0x0 PUSH1 0x1 PUSH1 0x1 PUSH1 0xA0 SHL SUB AND DUP3 PUSH1 0x1 PUSH1 0x1 PUSH1 0xA0 SHL SUB AND EQ ISZERO PUSH2 0x3746 JUMPI POP PUSH32 0x0 PUSH2 0x711 JUMP JUMPDEST PUSH32 0x0 PUSH1 0x1 PUSH1 0x1 PUSH1 0xA0 SHL SUB AND DUP3 PUSH1 0x1 PUSH1 0x1 PUSH1 0xA0 SHL SUB AND EQ ISZERO PUSH2 0x37A7 JUMPI POP PUSH32 0x0 PUSH2 0x711 JUMP JUMPDEST PUSH32 0x0 PUSH1 0x1 PUSH1 0x1 PUSH1 0xA0 SHL SUB AND DUP3 PUSH1 0x1 PUSH1 0x1 PUSH1 0xA0 SHL SUB AND EQ ISZERO PUSH2 0x3808 JUMPI POP PUSH32 0x0 PUSH2 0x711 JUMP JUMPDEST PUSH32 0x0 PUSH1 0x1 PUSH1 0x1 PUSH1 0xA0 SHL SUB AND DUP3 PUSH1 0x1 PUSH1 0x1 PUSH1 0xA0 SHL SUB AND EQ ISZERO PUSH2 0x3869 JUMPI POP PUSH32 0x0 PUSH2 0x711 JUMP JUMPDEST PUSH32 0x0 PUSH1 0x1 PUSH1 0x1 PUSH1 0xA0 SHL SUB AND DUP3 PUSH1 0x1 PUSH1 0x1 PUSH1 0xA0 SHL SUB AND EQ ISZERO PUSH2 0x38CA JUMPI POP PUSH32 0x0 PUSH2 0x711 JUMP JUMPDEST PUSH32 0x0 PUSH1 0x1 PUSH1 0x1 PUSH1 0xA0 SHL SUB AND DUP3 PUSH1 0x1 PUSH1 0x1 PUSH1 0xA0 SHL SUB AND EQ ISZERO PUSH2 0x23FB JUMPI POP PUSH32 0x0 PUSH2 0x711 JUMP JUMPDEST PUSH1 0x0 PUSH2 0x394D PUSH2 0x3942 DUP8 PUSH8 0x429D069189E0000 PUSH2 0x2FB9 JUMP JUMPDEST DUP4 GT ISZERO PUSH2 0x130 PUSH2 0x150B JUMP JUMPDEST PUSH1 0x0 PUSH2 0x3959 DUP8 DUP5 PUSH2 0xDB5 JUMP JUMPDEST SWAP1 POP PUSH1 0x0 PUSH2 0x3967 DUP9 DUP4 PUSH2 0x310B JUMP JUMPDEST SWAP1 POP PUSH1 0x0 PUSH2 0x3975 DUP9 DUP8 PUSH2 0x1AC2 JUMP JUMPDEST SWAP1 POP PUSH1 0x0 PUSH2 0x3983 DUP4 DUP4 PUSH2 0x3E6B JUMP JUMPDEST SWAP1 POP PUSH2 0x3998 PUSH2 0x3991 DUP3 PUSH2 0x3E97 JUMP JUMPDEST DUP10 SWAP1 PUSH2 0x2FB9 JUMP JUMPDEST SWAP5 POP POP POP POP POP JUMPDEST SWAP6 SWAP5 POP POP POP POP POP JUMP JUMPDEST PUSH1 0x0 PUSH2 0x39CA PUSH2 0x39BF DUP6 PUSH8 0x429D069189E0000 PUSH2 0x2FB9 JUMP JUMPDEST DUP4 GT ISZERO PUSH2 0x131 PUSH2 0x150B JUMP JUMPDEST PUSH1 0x0 PUSH2 0x39E0 PUSH2 0x39D9 DUP7 DUP6 PUSH2 0xDDC JUMP JUMPDEST DUP7 SWAP1 PUSH2 0x310B JUMP JUMPDEST SWAP1 POP PUSH1 0x0 PUSH2 0x39EE DUP6 DUP9 PUSH2 0x310B JUMP JUMPDEST SWAP1 POP PUSH1 0x0 PUSH2 0x39FC DUP4 DUP4 PUSH2 0x3E6B JUMP JUMPDEST SWAP1 POP PUSH1 0x0 PUSH2 0x3A12 DUP3 PUSH8 0xDE0B6B3A7640000 PUSH2 0xDDC JUMP JUMPDEST SWAP1 POP PUSH2 0x3998 DUP11 DUP3 PUSH2 0x3159 JUMP JUMPDEST PUSH1 0x0 DUP1 PUSH2 0x3A2B DUP5 DUP5 PUSH2 0x3EBD JUMP JUMPDEST SWAP1 POP PUSH1 0x0 PUSH2 0x3A45 PUSH2 0x3A3E DUP4 PUSH2 0x2710 PUSH2 0x3159 JUMP JUMPDEST PUSH1 0x1 PUSH2 0xDB5 JUMP JUMPDEST SWAP1 POP DUP1 DUP3 LT ISZERO PUSH2 0x3A5A JUMPI PUSH1 0x0 SWAP3 POP POP POP PUSH2 0x50D JUMP JUMPDEST PUSH2 0x3A64 DUP3 DUP3 PUSH2 0xDDC JUMP JUMPDEST SWAP3 POP POP POP PUSH2 0x50D JUMP JUMPDEST PUSH1 0x0 DUP2 DUP1 PUSH1 0x20 ADD SWAP1 MLOAD DUP2 ADD SWAP1 PUSH2 0x50D SWAP2 SWAP1 PUSH2 0x53D3 JUMP JUMPDEST PUSH1 0x60 DUP2 DUP1 PUSH1 0x20 ADD SWAP1 MLOAD DUP2 ADD SWAP1 PUSH2 0x5D4 SWAP2 SWAP1 PUSH2 0x5498 JUMP JUMPDEST PUSH2 0x3AA5 PUSH1 0x0 DUP4 DUP4 PUSH2 0x1976 JUMP JUMPDEST PUSH1 0x2 SLOAD PUSH2 0x3AB2 SWAP1 DUP3 PUSH2 0xDB5 JUMP JUMPDEST PUSH1 0x2 SSTORE PUSH1 0x1 PUSH1 0x1 PUSH1 0xA0 SHL SUB DUP3 AND PUSH1 0x0 SWAP1 DUP2 MSTORE PUSH1 0x20 DUP2 SWAP1 MSTORE PUSH1 0x40 SWAP1 KECCAK256 SLOAD PUSH2 0x3AD8 SWAP1 DUP3 PUSH2 0xDB5 JUMP JUMPDEST PUSH1 0x1 PUSH1 0x1 PUSH1 0xA0 SHL SUB DUP4 AND PUSH1 0x0 DUP2 DUP2 MSTORE PUSH1 0x20 DUP2 SWAP1 MSTORE PUSH1 0x40 DUP1 DUP3 KECCAK256 SWAP4 SWAP1 SWAP4 SSTORE SWAP2 MLOAD SWAP1 SWAP2 SWAP1 PUSH32 0xDDF252AD1BE2C89B69C2B068FC378DAA952BA7F163C4A11628F55A4DF523B3EF SWAP1 PUSH2 0x3095 SWAP1 DUP6 SWAP1 PUSH2 0x5766 JUMP JUMPDEST PUSH1 0x0 PUSH2 0x3B39 PUSH4 0x1C74C917 PUSH1 0xE1 SHL PUSH2 0x7D4 JUMP JUMPDEST DUP3 EQ DUP1 PUSH2 0x50D JUMPI POP PUSH2 0x3B51 PUSH4 0x50DD6ED9 PUSH1 0xE0 SHL PUSH2 0x7D4 JUMP JUMPDEST SWAP1 SWAP2 EQ SWAP2 SWAP1 POP JUMP JUMPDEST PUSH1 0x0 DUP4 DUP4 GT PUSH2 0x3B6A JUMPI POP PUSH1 0x0 PUSH2 0x399F JUMP JUMPDEST PUSH1 0x0 PUSH2 0x3B76 DUP6 DUP6 PUSH2 0x310B JUMP JUMPDEST SWAP1 POP PUSH1 0x0 PUSH2 0x3B8C PUSH8 0xDE0B6B3A7640000 DUP9 PUSH2 0x1AC2 JUMP JUMPDEST SWAP1 POP PUSH2 0x3BA0 DUP3 PUSH8 0x9B6E64A8EC60000 PUSH2 0x3FBE JUMP JUMPDEST SWAP2 POP PUSH1 0x0 PUSH2 0x3BAE DUP4 DUP4 PUSH2 0x3E6B JUMP JUMPDEST SWAP1 POP PUSH1 0x0 PUSH2 0x3BC5 PUSH2 0x3BBE DUP4 PUSH2 0x3E97 JUMP JUMPDEST DUP12 SWAP1 PUSH2 0x2FB9 JUMP JUMPDEST SWAP1 POP PUSH2 0x3998 DUP2 DUP8 PUSH2 0x2FB9 JUMP JUMPDEST PUSH1 0x0 PUSH1 0x60 PUSH2 0x3BDD PUSH2 0x1696 JUMP JUMPDEST PUSH1 0x0 DUP1 PUSH2 0x3BE9 DUP6 PUSH2 0x3FD5 JUMP JUMPDEST SWAP2 POP SWAP2 POP PUSH2 0x3C01 PUSH2 0x3BF8 PUSH2 0x1822 JUMP JUMPDEST DUP3 LT PUSH1 0x64 PUSH2 0x150B JUMP JUMPDEST PUSH1 0x60 PUSH2 0x3C0B PUSH2 0x1822 JUMP JUMPDEST PUSH1 0x1 PUSH1 0x1 PUSH1 0x40 SHL SUB DUP2 GT DUP1 ISZERO PUSH2 0x3C20 JUMPI PUSH1 0x0 DUP1 REVERT JUMPDEST POP PUSH1 0x40 MLOAD SWAP1 DUP1 DUP3 MSTORE DUP1 PUSH1 0x20 MUL PUSH1 0x20 ADD DUP3 ADD PUSH1 0x40 MSTORE DUP1 ISZERO PUSH2 0x3C4A JUMPI DUP2 PUSH1 0x20 ADD PUSH1 0x20 DUP3 MUL DUP1 CALLDATASIZE DUP4 CALLDATACOPY ADD SWAP1 POP JUMPDEST POP SWAP1 POP PUSH2 0x3C8E DUP9 DUP4 DUP2 MLOAD DUP2 LT PUSH2 0x3C5C JUMPI INVALID JUMPDEST PUSH1 0x20 MUL PUSH1 0x20 ADD ADD MLOAD DUP9 DUP5 DUP2 MLOAD DUP2 LT PUSH2 0x3C70 JUMPI INVALID JUMPDEST PUSH1 0x20 MUL PUSH1 0x20 ADD ADD MLOAD DUP6 PUSH2 0x3C81 PUSH2 0x527 JUMP JUMPDEST PUSH2 0x3C89 PUSH2 0x684 JUMP JUMPDEST PUSH2 0x3FF7 JUMP JUMPDEST DUP2 DUP4 DUP2 MLOAD DUP2 LT PUSH2 0x3C9A JUMPI INVALID JUMPDEST PUSH1 0x20 SWAP1 DUP2 MUL SWAP2 SWAP1 SWAP2 ADD ADD MSTORE SWAP2 SWAP8 SWAP2 SWAP7 POP SWAP1 SWAP5 POP POP POP POP POP JUMP JUMPDEST PUSH1 0x0 PUSH1 0x60 PUSH1 0x0 PUSH2 0x3CC2 DUP5 PUSH2 0x40BD JUMP JUMPDEST SWAP1 POP PUSH1 0x60 PUSH2 0x3CD8 DUP7 DUP4 PUSH2 0x3CD3 PUSH2 0x527 JUMP JUMPDEST PUSH2 0x40D3 JUMP JUMPDEST SWAP2 SWAP7 SWAP2 SWAP6 POP SWAP1 SWAP4 POP POP POP POP JUMP JUMPDEST PUSH1 0x0 PUSH1 0x60 PUSH2 0x3CF1 PUSH2 0x1696 JUMP JUMPDEST PUSH1 0x60 PUSH1 0x0 PUSH2 0x3CFE DUP6 PUSH2 0x4184 JUMP JUMPDEST SWAP2 POP SWAP2 POP PUSH2 0x3D0F DUP3 MLOAD PUSH2 0x6A6 PUSH2 0x1822 JUMP JUMPDEST PUSH2 0x3D19 DUP3 DUP8 PUSH2 0x1B13 JUMP JUMPDEST PUSH1 0x0 PUSH2 0x3D36 DUP10 DUP10 DUP6 PUSH2 0x3D29 PUSH2 0x527 JUMP JUMPDEST PUSH2 0x3D31 PUSH2 0x684 JUMP JUMPDEST PUSH2 0x419C JUMP JUMPDEST SWAP1 POP PUSH2 0x3D46 DUP3 DUP3 GT ISZERO PUSH1 0xCF PUSH2 0x150B JUMP JUMPDEST SWAP9 SWAP2 SWAP8 POP SWAP1 SWAP6 POP POP POP POP POP POP JUMP JUMPDEST PUSH1 0x0 PUSH2 0x5D4 DUP4 DUP4 PUSH1 0x1 PUSH2 0x2DFC JUMP JUMPDEST PUSH1 0x0 PUSH1 0x60 DUP1 PUSH1 0x0 PUSH2 0x3D72 DUP6 PUSH2 0x4184 JUMP JUMPDEST SWAP2 POP SWAP2 POP PUSH2 0x3D88 PUSH2 0x3D81 PUSH2 0x1822 JUMP JUMPDEST DUP4 MLOAD PUSH2 0xDA8 JUMP JUMPDEST PUSH2 0x3D92 DUP3 DUP8 PUSH2 0x1B13 JUMP JUMPDEST PUSH1 0x0 PUSH2 0x3DAF DUP10 DUP10 DUP6 PUSH2 0x3DA2 PUSH2 0x527 JUMP JUMPDEST PUSH2 0x3DAA PUSH2 0x684 JUMP JUMPDEST PUSH2 0x43C9 JUMP JUMPDEST SWAP1 POP PUSH2 0x3D46 DUP3 DUP3 LT ISZERO PUSH1 0xD0 PUSH2 0x150B JUMP JUMPDEST PUSH1 0x0 PUSH1 0x60 PUSH1 0x0 DUP1 PUSH2 0x3DCF DUP6 PUSH2 0x3FD5 JUMP JUMPDEST SWAP2 POP SWAP2 POP PUSH2 0x3DDE PUSH2 0x3BF8 PUSH2 0x1822 JUMP JUMPDEST PUSH1 0x60 PUSH2 0x3DE8 PUSH2 0x1822 JUMP JUMPDEST PUSH1 0x1 PUSH1 0x1 PUSH1 0x40 SHL SUB DUP2 GT DUP1 ISZERO PUSH2 0x3DFD JUMPI PUSH1 0x0 DUP1 REVERT JUMPDEST POP PUSH1 0x40 MLOAD SWAP1 DUP1 DUP3 MSTORE DUP1 PUSH1 0x20 MUL PUSH1 0x20 ADD DUP3 ADD PUSH1 0x40 MSTORE DUP1 ISZERO PUSH2 0x3E27 JUMPI DUP2 PUSH1 0x20 ADD PUSH1 0x20 DUP3 MUL DUP1 CALLDATASIZE DUP4 CALLDATACOPY ADD SWAP1 POP JUMPDEST POP SWAP1 POP PUSH2 0x3C8E DUP9 DUP4 DUP2 MLOAD DUP2 LT PUSH2 0x3E39 JUMPI INVALID JUMPDEST PUSH1 0x20 MUL PUSH1 0x20 ADD ADD MLOAD DUP9 DUP5 DUP2 MLOAD DUP2 LT PUSH2 0x3E4D JUMPI INVALID JUMPDEST PUSH1 0x20 MUL PUSH1 0x20 ADD ADD MLOAD DUP6 PUSH2 0x3E5E PUSH2 0x527 JUMP JUMPDEST PUSH2 0x3E66 PUSH2 0x684 JUMP JUMPDEST PUSH2 0x45DA JUMP JUMPDEST PUSH1 0x0 DUP1 PUSH2 0x3E78 DUP5 DUP5 PUSH2 0x3EBD JUMP JUMPDEST SWAP1 POP PUSH1 0x0 PUSH2 0x3E8B PUSH2 0x3A3E DUP4 PUSH2 0x2710 PUSH2 0x3159 JUMP JUMPDEST SWAP1 POP PUSH2 0x399F DUP3 DUP3 PUSH2 0xDB5 JUMP JUMPDEST PUSH1 0x0 PUSH8 0xDE0B6B3A7640000 DUP3 LT PUSH2 0x3EAF JUMPI PUSH1 0x0 PUSH2 0x50D JUMP JUMPDEST POP PUSH8 0xDE0B6B3A7640000 SUB SWAP1 JUMP JUMPDEST PUSH1 0x0 DUP2 PUSH2 0x3ED3 JUMPI POP PUSH8 0xDE0B6B3A7640000 PUSH2 0x50D JUMP JUMPDEST DUP3 PUSH2 0x3EE0 JUMPI POP PUSH1 0x0 PUSH2 0x50D JUMP JUMPDEST PUSH2 0x3EF1 PUSH1 0x1 PUSH1 0xFF SHL DUP5 LT PUSH1 0x6 PUSH2 0x150B JUMP JUMPDEST DUP3 PUSH2 0x3F17 PUSH24 0xBCE5086492111AEA88F4BB1CA6BCF584181EA8059F76532 DUP5 LT PUSH1 0x7 PUSH2 0x150B JUMP JUMPDEST DUP3 PUSH1 0x0 PUSH8 0xC7D713B49DA0000 DUP4 SGT DUP1 ISZERO PUSH2 0x3F38 JUMPI POP PUSH8 0xF43FC2C04EE0000 DUP4 SLT JUMPDEST ISZERO PUSH2 0x3F6F JUMPI PUSH1 0x0 PUSH2 0x3F48 DUP5 PUSH2 0x4685 JUMP JUMPDEST SWAP1 POP PUSH8 0xDE0B6B3A7640000 DUP1 DUP3 SMOD DUP5 MUL SDIV DUP4 PUSH8 0xDE0B6B3A7640000 DUP4 SDIV MUL ADD SWAP2 POP POP PUSH2 0x3F7D JUMP JUMPDEST DUP2 PUSH2 0x3F79 DUP5 PUSH2 0x47A3 JUMP JUMPDEST MUL SWAP1 POP JUMPDEST PUSH8 0xDE0B6B3A7640000 SWAP1 SDIV PUSH2 0x3FB5 PUSH9 0x238FD42C5CF03FFFF NOT DUP3 SLT DUP1 ISZERO SWAP1 PUSH2 0x3FAE JUMPI POP PUSH9 0x70C1CC73B00C80000 DUP3 SGT ISZERO JUMPDEST PUSH1 0x8 PUSH2 0x150B JUMP JUMPDEST PUSH2 0x2EBC DUP2 PUSH2 0x4B42 JUMP JUMPDEST PUSH1 0x0 DUP2 DUP4 LT ISZERO PUSH2 0x3FCE JUMPI DUP2 PUSH2 0x5D4 JUMP JUMPDEST POP SWAP1 SWAP2 SWAP1 POP JUMP JUMPDEST PUSH1 0x0 DUP1 DUP3 DUP1 PUSH1 0x20 ADD SWAP1 MLOAD DUP2 ADD SWAP1 PUSH2 0x3FEC SWAP2 SWAP1 PUSH2 0x5462 JUMP JUMPDEST SWAP1 SWAP6 SWAP1 SWAP5 POP SWAP3 POP POP POP JUMP JUMPDEST PUSH1 0x0 DUP1 PUSH2 0x400E DUP5 PUSH2 0x4008 DUP2 DUP9 PUSH2 0xDDC JUMP JUMPDEST SWAP1 PUSH2 0x310B JUMP JUMPDEST SWAP1 POP PUSH2 0x4027 PUSH8 0x9B6E64A8EC60000 DUP3 LT ISZERO PUSH2 0x132 PUSH2 0x150B JUMP JUMPDEST PUSH1 0x0 PUSH2 0x4045 PUSH2 0x403E PUSH8 0xDE0B6B3A7640000 DUP10 PUSH2 0x1AC2 JUMP JUMPDEST DUP4 SWAP1 PUSH2 0x3E6B JUMP JUMPDEST SWAP1 POP PUSH1 0x0 PUSH2 0x405C PUSH2 0x4055 DUP4 PUSH2 0x3E97 JUMP JUMPDEST DUP11 SWAP1 PUSH2 0x2FB9 JUMP JUMPDEST SWAP1 POP PUSH1 0x0 PUSH2 0x4069 DUP10 PUSH2 0x3E97 JUMP JUMPDEST SWAP1 POP PUSH1 0x0 PUSH2 0x4077 DUP4 DUP4 PUSH2 0x3159 JUMP JUMPDEST SWAP1 POP PUSH1 0x0 PUSH2 0x4085 DUP5 DUP4 PUSH2 0xDDC JUMP JUMPDEST SWAP1 POP PUSH2 0x40AD PUSH2 0x40A6 PUSH2 0x409F PUSH8 0xDE0B6B3A7640000 DUP12 PUSH2 0xDDC JUMP JUMPDEST DUP5 SWAP1 PUSH2 0x2FB9 JUMP JUMPDEST DUP3 SWAP1 PUSH2 0xDB5 JUMP JUMPDEST SWAP13 SWAP12 POP POP POP POP POP POP POP POP POP POP POP POP JUMP JUMPDEST PUSH1 0x0 DUP2 DUP1 PUSH1 0x20 ADD SWAP1 MLOAD DUP2 ADD SWAP1 PUSH2 0x5D4 SWAP2 SWAP1 PUSH2 0x5435 JUMP JUMPDEST PUSH1 0x60 PUSH1 0x0 PUSH2 0x40E1 DUP5 DUP5 PUSH2 0x1AC2 JUMP JUMPDEST SWAP1 POP PUSH1 0x60 DUP6 MLOAD PUSH1 0x1 PUSH1 0x1 PUSH1 0x40 SHL SUB DUP2 GT DUP1 ISZERO PUSH2 0x40FC JUMPI PUSH1 0x0 DUP1 REVERT JUMPDEST POP PUSH1 0x40 MLOAD SWAP1 DUP1 DUP3 MSTORE DUP1 PUSH1 0x20 MUL PUSH1 0x20 ADD DUP3 ADD PUSH1 0x40 MSTORE DUP1 ISZERO PUSH2 0x4126 JUMPI DUP2 PUSH1 0x20 ADD PUSH1 0x20 DUP3 MUL DUP1 CALLDATASIZE DUP4 CALLDATACOPY ADD SWAP1 POP JUMPDEST POP SWAP1 POP PUSH1 0x0 JUMPDEST DUP7 MLOAD DUP2 LT ISZERO PUSH2 0x417A JUMPI PUSH2 0x415B DUP4 DUP9 DUP4 DUP2 MLOAD DUP2 LT PUSH2 0x4145 JUMPI INVALID JUMPDEST PUSH1 0x20 MUL PUSH1 0x20 ADD ADD MLOAD PUSH2 0x2FB9 SWAP1 SWAP2 SWAP1 PUSH4 0xFFFFFFFF AND JUMP JUMPDEST DUP3 DUP3 DUP2 MLOAD DUP2 LT PUSH2 0x4167 JUMPI INVALID JUMPDEST PUSH1 0x20 SWAP1 DUP2 MUL SWAP2 SWAP1 SWAP2 ADD ADD MSTORE PUSH1 0x1 ADD PUSH2 0x412C JUMP JUMPDEST POP SWAP6 SWAP5 POP POP POP POP POP JUMP JUMPDEST PUSH1 0x60 PUSH1 0x0 DUP3 DUP1 PUSH1 0x20 ADD SWAP1 MLOAD DUP2 ADD SWAP1 PUSH2 0x3FEC SWAP2 SWAP1 PUSH2 0x53EF JUMP JUMPDEST PUSH1 0x0 PUSH1 0x60 DUP5 MLOAD PUSH1 0x1 PUSH1 0x1 PUSH1 0x40 SHL SUB DUP2 GT DUP1 ISZERO PUSH2 0x41B7 JUMPI PUSH1 0x0 DUP1 REVERT JUMPDEST POP PUSH1 0x40 MLOAD SWAP1 DUP1 DUP3 MSTORE DUP1 PUSH1 0x20 MUL PUSH1 0x20 ADD DUP3 ADD PUSH1 0x40 MSTORE DUP1 ISZERO PUSH2 0x41E1 JUMPI DUP2 PUSH1 0x20 ADD PUSH1 0x20 DUP3 MUL DUP1 CALLDATASIZE DUP4 CALLDATACOPY ADD SWAP1 POP JUMPDEST POP SWAP1 POP PUSH1 0x0 DUP1 JUMPDEST DUP9 MLOAD DUP2 LT ISZERO PUSH2 0x42A6 JUMPI PUSH2 0x4241 DUP10 DUP3 DUP2 MLOAD DUP2 LT PUSH2 0x4200 JUMPI INVALID JUMPDEST PUSH1 0x20 MUL PUSH1 0x20 ADD ADD MLOAD PUSH2 0x4008 DUP10 DUP5 DUP2 MLOAD DUP2 LT PUSH2 0x4217 JUMPI INVALID JUMPDEST PUSH1 0x20 MUL PUSH1 0x20 ADD ADD MLOAD DUP13 DUP6 DUP2 MLOAD DUP2 LT PUSH2 0x422B JUMPI INVALID JUMPDEST PUSH1 0x20 MUL PUSH1 0x20 ADD ADD MLOAD PUSH2 0xDDC SWAP1 SWAP2 SWAP1 PUSH4 0xFFFFFFFF AND JUMP JUMPDEST DUP4 DUP3 DUP2 MLOAD DUP2 LT PUSH2 0x424D JUMPI INVALID JUMPDEST PUSH1 0x20 MUL PUSH1 0x20 ADD ADD DUP2 DUP2 MSTORE POP POP PUSH2 0x429C PUSH2 0x4295 DUP10 DUP4 DUP2 MLOAD DUP2 LT PUSH2 0x426B JUMPI INVALID JUMPDEST PUSH1 0x20 MUL PUSH1 0x20 ADD ADD MLOAD DUP6 DUP5 DUP2 MLOAD DUP2 LT PUSH2 0x427F JUMPI INVALID JUMPDEST PUSH1 0x20 MUL PUSH1 0x20 ADD ADD MLOAD PUSH2 0x3159 SWAP1 SWAP2 SWAP1 PUSH4 0xFFFFFFFF AND JUMP JUMPDEST DUP4 SWAP1 PUSH2 0xDB5 JUMP JUMPDEST SWAP2 POP PUSH1 0x1 ADD PUSH2 0x41E8 JUMP JUMPDEST POP PUSH8 0xDE0B6B3A7640000 PUSH1 0x0 JUMPDEST DUP10 MLOAD DUP2 LT ISZERO PUSH2 0x43A8 JUMPI PUSH1 0x0 DUP5 DUP3 DUP2 MLOAD DUP2 LT PUSH2 0x42CA JUMPI INVALID JUMPDEST PUSH1 0x20 MUL PUSH1 0x20 ADD ADD MLOAD DUP5 GT ISZERO PUSH2 0x432A JUMPI PUSH1 0x0 PUSH2 0x42F3 PUSH2 0x42E7 DUP7 PUSH2 0x3E97 JUMP JUMPDEST DUP14 DUP6 DUP2 MLOAD DUP2 LT PUSH2 0x4145 JUMPI INVALID JUMPDEST SWAP1 POP PUSH1 0x0 PUSH2 0x4307 DUP3 DUP13 DUP7 DUP2 MLOAD DUP2 LT PUSH2 0x422B JUMPI INVALID JUMPDEST SWAP1 POP PUSH2 0x4321 PUSH2 0x4295 PUSH2 0x24D8 PUSH8 0xDE0B6B3A7640000 DUP13 PUSH2 0xDDC JUMP JUMPDEST SWAP3 POP POP POP PUSH2 0x4341 JUMP JUMPDEST DUP9 DUP3 DUP2 MLOAD DUP2 LT PUSH2 0x4336 JUMPI INVALID JUMPDEST PUSH1 0x20 MUL PUSH1 0x20 ADD ADD MLOAD SWAP1 POP JUMPDEST PUSH1 0x0 PUSH2 0x436A DUP13 DUP5 DUP2 MLOAD DUP2 LT PUSH2 0x4352 JUMPI INVALID JUMPDEST PUSH1 0x20 MUL PUSH1 0x20 ADD ADD MLOAD PUSH2 0x6F1 DUP5 DUP16 DUP8 DUP2 MLOAD DUP2 LT PUSH2 0x422B JUMPI INVALID JUMPDEST SWAP1 POP PUSH2 0x439C PUSH2 0x4395 DUP13 DUP6 DUP2 MLOAD DUP2 LT PUSH2 0x437E JUMPI INVALID JUMPDEST PUSH1 0x20 MUL PUSH1 0x20 ADD ADD MLOAD DUP4 PUSH2 0x3A1E SWAP1 SWAP2 SWAP1 PUSH4 0xFFFFFFFF AND JUMP JUMPDEST DUP6 SWAP1 PUSH2 0x2FB9 JUMP JUMPDEST SWAP4 POP POP POP PUSH1 0x1 ADD PUSH2 0x42B3 JUMP JUMPDEST POP PUSH2 0x43BC PUSH2 0x43B5 DUP3 PUSH2 0x3E97 JUMP JUMPDEST DUP8 SWAP1 PUSH2 0x3159 JUMP JUMPDEST SWAP10 SWAP9 POP POP POP POP POP POP POP POP POP JUMP JUMPDEST PUSH1 0x0 PUSH1 0x60 DUP5 MLOAD PUSH1 0x1 PUSH1 0x1 PUSH1 0x40 SHL SUB DUP2 GT DUP1 ISZERO PUSH2 0x43E4 JUMPI PUSH1 0x0 DUP1 REVERT JUMPDEST POP PUSH1 0x40 MLOAD SWAP1 DUP1 DUP3 MSTORE DUP1 PUSH1 0x20 MUL PUSH1 0x20 ADD DUP3 ADD PUSH1 0x40 MSTORE DUP1 ISZERO PUSH2 0x440E JUMPI DUP2 PUSH1 0x20 ADD PUSH1 0x20 DUP3 MUL DUP1 CALLDATASIZE DUP4 CALLDATACOPY ADD SWAP1 POP JUMPDEST POP SWAP1 POP PUSH1 0x0 DUP1 JUMPDEST DUP9 MLOAD DUP2 LT ISZERO PUSH2 0x44B6 JUMPI PUSH2 0x446E DUP10 DUP3 DUP2 MLOAD DUP2 LT PUSH2 0x442D JUMPI INVALID JUMPDEST PUSH1 0x20 MUL PUSH1 0x20 ADD ADD MLOAD PUSH2 0x6F1 DUP10 DUP5 DUP2 MLOAD DUP2 LT PUSH2 0x4444 JUMPI INVALID JUMPDEST PUSH1 0x20 MUL PUSH1 0x20 ADD ADD MLOAD DUP13 DUP6 DUP2 MLOAD DUP2 LT PUSH2 0x4458 JUMPI INVALID JUMPDEST PUSH1 0x20 MUL PUSH1 0x20 ADD ADD MLOAD PUSH2 0xDB5 SWAP1 SWAP2 SWAP1 PUSH4 0xFFFFFFFF AND JUMP JUMPDEST DUP4 DUP3 DUP2 MLOAD DUP2 LT PUSH2 0x447A JUMPI INVALID JUMPDEST PUSH1 0x20 MUL PUSH1 0x20 ADD ADD DUP2 DUP2 MSTORE POP POP PUSH2 0x44AC PUSH2 0x4295 DUP10 DUP4 DUP2 MLOAD DUP2 LT PUSH2 0x4498 JUMPI INVALID JUMPDEST PUSH1 0x20 MUL PUSH1 0x20 ADD ADD MLOAD DUP6 DUP5 DUP2 MLOAD DUP2 LT PUSH2 0x4145 JUMPI INVALID JUMPDEST SWAP2 POP PUSH1 0x1 ADD PUSH2 0x4415 JUMP JUMPDEST POP PUSH8 0xDE0B6B3A7640000 PUSH1 0x0 JUMPDEST DUP10 MLOAD DUP2 LT ISZERO PUSH2 0x4597 JUMPI PUSH1 0x0 DUP4 DUP6 DUP4 DUP2 MLOAD DUP2 LT PUSH2 0x44DB JUMPI INVALID JUMPDEST PUSH1 0x20 MUL PUSH1 0x20 ADD ADD MLOAD GT ISZERO PUSH2 0x4537 JUMPI PUSH1 0x0 PUSH2 0x4500 PUSH2 0x42E7 DUP7 PUSH8 0xDE0B6B3A7640000 PUSH2 0xDDC JUMP JUMPDEST SWAP1 POP PUSH1 0x0 PUSH2 0x4514 DUP3 DUP13 DUP7 DUP2 MLOAD DUP2 LT PUSH2 0x422B JUMPI INVALID JUMPDEST SWAP1 POP PUSH2 0x452E PUSH2 0x4295 PUSH2 0x25DE PUSH8 0xDE0B6B3A7640000 DUP13 PUSH2 0xDDC JUMP JUMPDEST SWAP3 POP POP POP PUSH2 0x454E JUMP JUMPDEST DUP9 DUP3 DUP2 MLOAD DUP2 LT PUSH2 0x4543 JUMPI INVALID JUMPDEST PUSH1 0x20 MUL PUSH1 0x20 ADD ADD MLOAD SWAP1 POP JUMPDEST PUSH1 0x0 PUSH2 0x4577 DUP13 DUP5 DUP2 MLOAD DUP2 LT PUSH2 0x455F JUMPI INVALID JUMPDEST PUSH1 0x20 MUL PUSH1 0x20 ADD ADD MLOAD PUSH2 0x6F1 DUP5 DUP16 DUP8 DUP2 MLOAD DUP2 LT PUSH2 0x4458 JUMPI INVALID JUMPDEST SWAP1 POP PUSH2 0x458B PUSH2 0x4395 DUP13 DUP6 DUP2 MLOAD DUP2 LT PUSH2 0x437E JUMPI INVALID JUMPDEST SWAP4 POP POP POP PUSH1 0x1 ADD PUSH2 0x44C3 JUMP JUMPDEST POP PUSH8 0xDE0B6B3A7640000 DUP2 GT ISZERO PUSH2 0x45CE JUMPI PUSH2 0x45C4 PUSH2 0x45BD DUP3 PUSH8 0xDE0B6B3A7640000 PUSH2 0xDDC JUMP JUMPDEST DUP8 SWAP1 PUSH2 0x2FB9 JUMP JUMPDEST SWAP4 POP POP POP POP PUSH2 0x399F JUMP JUMPDEST PUSH1 0x0 SWAP4 POP POP POP POP PUSH2 0x399F JUMP JUMPDEST PUSH1 0x0 DUP1 PUSH2 0x45EB DUP5 PUSH2 0x4008 DUP2 DUP9 PUSH2 0xDB5 JUMP JUMPDEST SWAP1 POP PUSH2 0x4604 PUSH8 0x29A2241AF62C0000 DUP3 GT ISZERO PUSH2 0x133 PUSH2 0x150B JUMP JUMPDEST PUSH1 0x0 PUSH2 0x461B PUSH2 0x403E PUSH8 0xDE0B6B3A7640000 DUP10 PUSH2 0x310B JUMP JUMPDEST SWAP1 POP PUSH1 0x0 PUSH2 0x463B PUSH2 0x4634 DUP4 PUSH8 0xDE0B6B3A7640000 PUSH2 0xDDC JUMP JUMPDEST DUP11 SWAP1 PUSH2 0x3159 JUMP JUMPDEST SWAP1 POP PUSH1 0x0 PUSH2 0x4648 DUP10 PUSH2 0x3E97 JUMP JUMPDEST SWAP1 POP PUSH1 0x0 PUSH2 0x4656 DUP4 DUP4 PUSH2 0x3159 JUMP JUMPDEST SWAP1 POP PUSH1 0x0 PUSH2 0x4664 DUP5 DUP4 PUSH2 0xDDC JUMP JUMPDEST SWAP1 POP PUSH2 0x40AD PUSH2 0x40A6 PUSH2 0x467E PUSH8 0xDE0B6B3A7640000 DUP12 PUSH2 0xDDC JUMP JUMPDEST DUP5 SWAP1 PUSH2 0x310B JUMP JUMPDEST PUSH8 0xDE0B6B3A7640000 MUL PUSH1 0x0 DUP1 PUSH11 0xC097CE7BC90715B34B9F1 PUSH1 0x24 SHL DUP1 DUP5 ADD SWAP1 PUSH15 0xC097CE7BC90715B34B9F0FFFFFFFFF NOT DUP6 ADD MUL DUP2 PUSH2 0x46C0 JUMPI INVALID JUMPDEST SDIV SWAP1 POP PUSH1 0x0 PUSH11 0xC097CE7BC90715B34B9F1 PUSH1 0x24 SHL DUP3 DUP1 MUL SDIV SWAP1 POP DUP2 DUP1 PUSH11 0xC097CE7BC90715B34B9F1 PUSH1 0x24 SHL DUP2 DUP5 MUL SDIV SWAP2 POP PUSH1 0x3 DUP3 SDIV ADD PUSH11 0xC097CE7BC90715B34B9F1 PUSH1 0x24 SHL DUP3 DUP5 MUL SDIV SWAP2 POP PUSH1 0x5 DUP3 SDIV ADD PUSH11 0xC097CE7BC90715B34B9F1 PUSH1 0x24 SHL DUP3 DUP5 MUL SDIV SWAP2 POP PUSH1 0x7 DUP3 SDIV ADD PUSH11 0xC097CE7BC90715B34B9F1 PUSH1 0x24 SHL DUP3 DUP5 MUL SDIV SWAP2 POP PUSH1 0x9 DUP3 SDIV ADD PUSH11 0xC097CE7BC90715B34B9F1 PUSH1 0x24 SHL DUP3 DUP5 MUL SDIV SWAP2 POP PUSH1 0xB DUP3 SDIV ADD PUSH11 0xC097CE7BC90715B34B9F1 PUSH1 0x24 SHL DUP3 DUP5 MUL SDIV SWAP2 POP PUSH1 0xD DUP3 SDIV ADD PUSH11 0xC097CE7BC90715B34B9F1 PUSH1 0x24 SHL DUP3 DUP5 MUL SDIV SWAP2 POP PUSH1 0xF DUP3 PUSH1 0x2 SWAP2 SWAP1 SDIV SWAP2 SWAP1 SWAP2 ADD MUL SWAP6 SWAP5 POP POP POP POP POP JUMP JUMPDEST PUSH1 0x0 PUSH8 0xDE0B6B3A7640000 DUP3 SLT ISZERO PUSH2 0x47DF JUMPI PUSH2 0x47D5 DUP3 PUSH11 0xC097CE7BC90715B34B9F1 PUSH1 0x24 SHL DUP2 PUSH2 0x47CF JUMPI INVALID JUMPDEST SDIV PUSH2 0x47A3 JUMP JUMPDEST PUSH1 0x0 SUB SWAP1 POP PUSH2 0x711 JUMP JUMPDEST PUSH1 0x0 PUSH31 0x1600EF3172E58D2E933EC884FDE10064C63B5372D805E203C0000000000000 DUP4 SLT PUSH2 0x4830 JUMPI PUSH24 0x195E54C5DD42177F53A27172FA9EC630262827000000000 DUP4 SDIV SWAP3 POP PUSH9 0x6F05B59D3B2000000 ADD JUMPDEST PUSH20 0x11798004D755D3C8BC8E03204CF44619E000000 DUP4 SLT PUSH2 0x4868 JUMPI PUSH12 0x1425982CF597CD205CEF7380 DUP4 SDIV SWAP3 POP PUSH9 0x3782DACE9D9000000 ADD JUMPDEST PUSH1 0x64 SWAP3 DUP4 MUL SWAP3 MUL PUSH15 0x1855144814A7FF805980FF0084000 DUP4 SLT PUSH2 0x48B0 JUMPI PUSH15 0x1855144814A7FF805980FF0084000 PUSH9 0x56BC75E2D63100000 DUP5 MUL SDIV SWAP3 POP PUSH9 0xAD78EBC5AC62000000 ADD JUMPDEST PUSH12 0x2DF0AB5A80A22C61AB5A700 DUP4 SLT PUSH2 0x48EB JUMPI PUSH12 0x2DF0AB5A80A22C61AB5A700 PUSH9 0x56BC75E2D63100000 DUP5 MUL SDIV SWAP3 POP PUSH9 0x56BC75E2D631000000 ADD JUMPDEST PUSH10 0x3F1FCE3DA636EA5CF850 DUP4 SLT PUSH2 0x4922 JUMPI PUSH10 0x3F1FCE3DA636EA5CF850 PUSH9 0x56BC75E2D63100000 DUP5 MUL SDIV SWAP3 POP PUSH9 0x2B5E3AF16B18800000 ADD JUMPDEST PUSH10 0x127FA27722CC06CC5E2 DUP4 SLT PUSH2 0x4959 JUMPI PUSH10 0x127FA27722CC06CC5E2 PUSH9 0x56BC75E2D63100000 DUP5 MUL SDIV SWAP3 POP PUSH9 0x15AF1D78B58C400000 ADD JUMPDEST PUSH9 0x280E60114EDB805D03 DUP4 SLT PUSH2 0x498E JUMPI PUSH9 0x280E60114EDB805D03 PUSH9 0x56BC75E2D63100000 DUP5 MUL SDIV SWAP3 POP PUSH9 0xAD78EBC5AC6200000 ADD JUMPDEST PUSH9 0xEBC5FB41746121110 DUP4 SLT PUSH2 0x49B9 JUMPI PUSH9 0xEBC5FB41746121110 PUSH9 0x56BC75E2D63100000 SWAP4 DUP5 MUL SDIV SWAP3 ADD JUMPDEST PUSH9 0x8F00F760A4B2DB55D DUP4 SLT PUSH2 0x49EE JUMPI PUSH9 0x8F00F760A4B2DB55D PUSH9 0x56BC75E2D63100000 DUP5 MUL SDIV SWAP3 POP PUSH9 0x2B5E3AF16B1880000 ADD JUMPDEST PUSH9 0x6F5F1775788937937 DUP4 SLT PUSH2 0x4A23 JUMPI PUSH9 0x6F5F1775788937937 PUSH9 0x56BC75E2D63100000 DUP5 MUL SDIV SWAP3 POP PUSH9 0x15AF1D78B58C40000 ADD JUMPDEST PUSH9 0x6248F33704B286603 DUP4 SLT PUSH2 0x4A57 JUMPI PUSH9 0x6248F33704B286603 PUSH9 0x56BC75E2D63100000 DUP5 MUL SDIV SWAP3 POP PUSH8 0xAD78EBC5AC620000 ADD JUMPDEST PUSH9 0x5C548670B9510E7AC DUP4 SLT PUSH2 0x4A8B JUMPI PUSH9 0x5C548670B9510E7AC PUSH9 0x56BC75E2D63100000 DUP5 MUL SDIV SWAP3 POP PUSH8 0x56BC75E2D6310000 ADD JUMPDEST PUSH1 0x0 PUSH9 0x56BC75E2D63100000 DUP5 ADD PUSH9 0x56BC75E2D63100000 DUP1 DUP7 SUB MUL DUP2 PUSH2 0x4AAE JUMPI INVALID JUMPDEST SDIV SWAP1 POP PUSH1 0x0 PUSH9 0x56BC75E2D63100000 DUP3 DUP1 MUL SDIV SWAP1 POP DUP2 DUP1 PUSH9 0x56BC75E2D63100000 DUP2 DUP5 MUL SDIV SWAP2 POP PUSH1 0x3 DUP3 SDIV ADD PUSH9 0x56BC75E2D63100000 DUP3 DUP5 MUL SDIV SWAP2 POP PUSH1 0x5 DUP3 SDIV ADD PUSH9 0x56BC75E2D63100000 DUP3 DUP5 MUL SDIV SWAP2 POP PUSH1 0x7 DUP3 SDIV ADD PUSH9 0x56BC75E2D63100000 DUP3 DUP5 MUL SDIV SWAP2 POP PUSH1 0x9 DUP3 SDIV ADD PUSH9 0x56BC75E2D63100000 DUP3 DUP5 MUL SDIV SWAP2 POP PUSH1 0xB DUP3 SDIV ADD PUSH1 0x2 MUL PUSH1 0x64 DUP6 DUP3 ADD SDIV SWAP8 SWAP7 POP POP POP POP POP POP POP JUMP JUMPDEST PUSH1 0x0 PUSH2 0x4B71 PUSH9 0x238FD42C5CF03FFFF NOT DUP4 SLT ISZERO DUP1 ISZERO PUSH2 0x4B6A JUMPI POP PUSH9 0x70C1CC73B00C80000 DUP4 SGT ISZERO JUMPDEST PUSH1 0x9 PUSH2 0x150B JUMP JUMPDEST PUSH1 0x0 DUP3 SLT ISZERO PUSH2 0x4BA4 JUMPI PUSH2 0x4B86 DUP3 PUSH1 0x0 SUB PUSH2 0x4B42 JUMP JUMPDEST PUSH11 0xC097CE7BC90715B34B9F1 PUSH1 0x24 SHL DUP2 PUSH2 0x4B9C JUMPI INVALID JUMPDEST SDIV SWAP1 POP PUSH2 0x711 JUMP JUMPDEST PUSH1 0x0 PUSH9 0x6F05B59D3B2000000 DUP4 SLT PUSH2 0x4BE4 JUMPI POP PUSH9 0x6F05B59D3B1FFFFFF NOT SWAP1 SWAP2 ADD SWAP1 PUSH24 0x195E54C5DD42177F53A27172FA9EC630262827000000000 PUSH2 0x4C1A JUMP JUMPDEST PUSH9 0x3782DACE9D9000000 DUP4 SLT PUSH2 0x4C16 JUMPI POP PUSH9 0x3782DACE9D8FFFFFF NOT SWAP1 SWAP2 ADD SWAP1 PUSH12 0x1425982CF597CD205CEF7380 PUSH2 0x4C1A JUMP JUMPDEST POP PUSH1 0x1 JUMPDEST PUSH1 0x64 SWAP3 SWAP1 SWAP3 MUL SWAP2 PUSH9 0x56BC75E2D63100000 PUSH9 0xAD78EBC5AC62000000 DUP5 SLT PUSH2 0x4C6A JUMPI PUSH9 0xAD78EBC5AC61FFFFFF NOT SWAP1 SWAP4 ADD SWAP3 PUSH9 0x56BC75E2D63100000 PUSH15 0x1855144814A7FF805980FF0084000 DUP3 MUL SDIV SWAP1 POP JUMPDEST PUSH9 0x56BC75E2D631000000 DUP5 SLT PUSH2 0x4CA6 JUMPI PUSH9 0x56BC75E2D630FFFFFF NOT SWAP1 SWAP4 ADD SWAP3 PUSH9 0x56BC75E2D63100000 PUSH12 0x2DF0AB5A80A22C61AB5A700 DUP3 MUL SDIV SWAP1 POP JUMPDEST PUSH9 0x2B5E3AF16B18800000 DUP5 SLT PUSH2 0x4CE0 JUMPI PUSH9 0x2B5E3AF16B187FFFFF NOT SWAP1 SWAP4 ADD SWAP3 PUSH9 0x56BC75E2D63100000 PUSH10 0x3F1FCE3DA636EA5CF850 DUP3 MUL SDIV SWAP1 POP JUMPDEST PUSH9 0x15AF1D78B58C400000 DUP5 SLT PUSH2 0x4D1A JUMPI PUSH9 0x15AF1D78B58C3FFFFF NOT SWAP1 SWAP4 ADD SWAP3 PUSH9 0x56BC75E2D63100000 PUSH10 0x127FA27722CC06CC5E2 DUP3 MUL SDIV SWAP1 POP JUMPDEST PUSH9 0xAD78EBC5AC6200000 DUP5 SLT PUSH2 0x4D53 JUMPI PUSH9 0xAD78EBC5AC61FFFFF NOT SWAP1 SWAP4 ADD SWAP3 PUSH9 0x56BC75E2D63100000 PUSH9 0x280E60114EDB805D03 DUP3 MUL SDIV SWAP1 POP JUMPDEST PUSH9 0x56BC75E2D63100000 DUP5 SLT PUSH2 0x4D8C JUMPI PUSH9 0x56BC75E2D630FFFFF NOT SWAP1 SWAP4 ADD SWAP3 PUSH9 0x56BC75E2D63100000 PUSH9 0xEBC5FB41746121110 DUP3 MUL SDIV SWAP1 POP JUMPDEST PUSH9 0x2B5E3AF16B1880000 DUP5 SLT PUSH2 0x4DC5 JUMPI PUSH9 0x2B5E3AF16B187FFFF NOT SWAP1 SWAP4 ADD SWAP3 PUSH9 0x56BC75E2D63100000 PUSH9 0x8F00F760A4B2DB55D DUP3 MUL SDIV SWAP1 POP JUMPDEST PUSH9 0x15AF1D78B58C40000 DUP5 SLT PUSH2 0x4DFE JUMPI PUSH9 0x15AF1D78B58C3FFFF NOT SWAP1 SWAP4 ADD SWAP3 PUSH9 0x56BC75E2D63100000 PUSH9 0x6F5F1775788937937 DUP3 MUL SDIV SWAP1 POP JUMPDEST PUSH9 0x56BC75E2D63100000 DUP5 DUP2 ADD SWAP1 DUP6 SWAP1 PUSH1 0x2 SWAP1 DUP3 DUP1 MUL SDIV SDIV SWAP2 DUP3 ADD SWAP2 SWAP1 POP PUSH1 0x3 PUSH9 0x56BC75E2D63100000 DUP8 DUP4 MUL SDIV SDIV SWAP2 DUP3 ADD SWAP2 SWAP1 POP PUSH1 0x4 PUSH9 0x56BC75E2D63100000 DUP8 DUP4 MUL SDIV SDIV SWAP2 DUP3 ADD SWAP2 SWAP1 POP PUSH1 0x5 PUSH9 0x56BC75E2D63100000 DUP8 DUP4 MUL SDIV SDIV SWAP2 DUP3 ADD SWAP2 SWAP1 POP PUSH1 0x6 PUSH9 0x56BC75E2D63100000 DUP8 DUP4 MUL SDIV SDIV SWAP2 DUP3 ADD SWAP2 SWAP1 POP PUSH1 0x7 PUSH9 0x56BC75E2D63100000 DUP8 DUP4 MUL SDIV SDIV SWAP2 DUP3 ADD SWAP2 SWAP1 POP PUSH1 0x8 PUSH9 0x56BC75E2D63100000 DUP8 DUP4 MUL SDIV SDIV SWAP2 DUP3 ADD SWAP2 SWAP1 POP PUSH1 0x9 PUSH9 0x56BC75E2D63100000 DUP8 DUP4 MUL SDIV SDIV SWAP2 DUP3 ADD SWAP2 SWAP1 POP PUSH1 0xA PUSH9 0x56BC75E2D63100000 DUP8 DUP4 MUL SDIV SDIV SWAP2 DUP3 ADD SWAP2 SWAP1 POP PUSH1 0xB PUSH9 0x56BC75E2D63100000 DUP8 DUP4 MUL SDIV SDIV SWAP2 DUP3 ADD SWAP2 SWAP1 POP PUSH1 0xC PUSH9 0x56BC75E2D63100000 DUP8 DUP4 MUL SDIV SDIV SWAP2 DUP3 ADD SWAP2 SWAP1 POP PUSH1 0x64 PUSH9 0x56BC75E2D63100000 DUP5 DUP5 MUL SDIV DUP6 MUL SDIV SWAP7 SWAP6 POP POP POP POP POP POP JUMP JUMPDEST DUP1 CALLDATALOAD PUSH2 0x50D DUP2 PUSH2 0x58BB JUMP JUMPDEST PUSH1 0x0 DUP3 PUSH1 0x1F DUP4 ADD SLT PUSH2 0x4F3A JUMPI DUP1 DUP2 REVERT JUMPDEST DUP2 MLOAD PUSH2 0x4F4D PUSH2 0x4F48 DUP3 PUSH2 0x589C JUMP JUMPDEST PUSH2 0x5876 JUMP JUMPDEST DUP2 DUP2 MSTORE SWAP2 POP PUSH1 0x20 DUP1 DUP4 ADD SWAP1 DUP5 DUP2 ADD DUP2 DUP5 MUL DUP7 ADD DUP3 ADD DUP8 LT ISZERO PUSH2 0x4F6E JUMPI PUSH1 0x0 DUP1 REVERT JUMPDEST PUSH1 0x0 JUMPDEST DUP5 DUP2 LT ISZERO PUSH2 0x4F8D JUMPI DUP2 MLOAD DUP5 MSTORE SWAP3 DUP3 ADD SWAP3 SWAP1 DUP3 ADD SWAP1 PUSH1 0x1 ADD PUSH2 0x4F71 JUMP JUMPDEST POP POP POP POP POP SWAP3 SWAP2 POP POP JUMP JUMPDEST PUSH1 0x0 DUP3 PUSH1 0x1F DUP4 ADD SLT PUSH2 0x4FA8 JUMPI DUP1 DUP2 REVERT JUMPDEST DUP2 CALLDATALOAD PUSH1 0x1 PUSH1 0x1 PUSH1 0x40 SHL SUB DUP2 GT ISZERO PUSH2 0x4FBD JUMPI DUP2 DUP3 REVERT JUMPDEST PUSH2 0x4FD0 PUSH1 0x1F DUP3 ADD PUSH1 0x1F NOT AND PUSH1 0x20 ADD PUSH2 0x5876 JUMP JUMPDEST SWAP2 POP DUP1 DUP3 MSTORE DUP4 PUSH1 0x20 DUP3 DUP6 ADD ADD GT ISZERO PUSH2 0x4FE7 JUMPI PUSH1 0x0 DUP1 REVERT JUMPDEST DUP1 PUSH1 0x20 DUP5 ADD PUSH1 0x20 DUP5 ADD CALLDATACOPY PUSH1 0x0 SWAP1 DUP3 ADD PUSH1 0x20 ADD MSTORE SWAP3 SWAP2 POP POP JUMP JUMPDEST DUP1 CALLDATALOAD PUSH1 0x2 DUP2 LT PUSH2 0x50D JUMPI PUSH1 0x0 DUP1 REVERT JUMPDEST PUSH1 0x0 PUSH1 0x20 DUP3 DUP5 SUB SLT ISZERO PUSH2 0x5020 JUMPI DUP1 DUP2 REVERT JUMPDEST DUP2 CALLDATALOAD PUSH2 0x5D4 DUP2 PUSH2 0x58BB JUMP JUMPDEST PUSH1 0x0 DUP1 PUSH1 0x40 DUP4 DUP6 SUB SLT ISZERO PUSH2 0x503D JUMPI DUP1 DUP2 REVERT JUMPDEST DUP3 CALLDATALOAD PUSH2 0x5048 DUP2 PUSH2 0x58BB JUMP JUMPDEST SWAP2 POP PUSH1 0x20 DUP4 ADD CALLDATALOAD PUSH2 0x5058 DUP2 PUSH2 0x58BB JUMP JUMPDEST DUP1 SWAP2 POP POP SWAP3 POP SWAP3 SWAP1 POP JUMP JUMPDEST PUSH1 0x0 DUP1 PUSH1 0x0 PUSH1 0x60 DUP5 DUP7 SUB SLT ISZERO PUSH2 0x5077 JUMPI DUP1 DUP2 REVERT JUMPDEST DUP4 CALLDATALOAD PUSH2 0x5082 DUP2 PUSH2 0x58BB JUMP JUMPDEST SWAP3 POP PUSH1 0x20 DUP5 ADD CALLDATALOAD PUSH2 0x5092 DUP2 PUSH2 0x58BB JUMP JUMPDEST SWAP3 SWAP6 SWAP3 SWAP5 POP POP POP PUSH1 0x40 SWAP2 SWAP1 SWAP2 ADD CALLDATALOAD SWAP1 JUMP JUMPDEST PUSH1 0x0 DUP1 PUSH1 0x0 DUP1 PUSH1 0x0 DUP1 PUSH1 0x0 PUSH1 0xE0 DUP9 DUP11 SUB SLT ISZERO PUSH2 0x50BD JUMPI DUP3 DUP4 REVERT JUMPDEST DUP8 CALLDATALOAD PUSH2 0x50C8 DUP2 PUSH2 0x58BB JUMP JUMPDEST SWAP7 POP PUSH1 0x20 DUP9 ADD CALLDATALOAD PUSH2 0x50D8 DUP2 PUSH2 0x58BB JUMP JUMPDEST SWAP6 POP PUSH1 0x40 DUP9 ADD CALLDATALOAD SWAP5 POP PUSH1 0x60 DUP9 ADD CALLDATALOAD SWAP4 POP PUSH1 0x80 DUP9 ADD CALLDATALOAD PUSH1 0xFF DUP2 AND DUP2 EQ PUSH2 0x50FB JUMPI DUP4 DUP5 REVERT JUMPDEST SWAP7 SWAP10 SWAP6 SWAP9 POP SWAP4 SWAP7 SWAP3 SWAP6 SWAP5 PUSH1 0xA0 DUP5 ADD CALLDATALOAD SWAP5 POP PUSH1 0xC0 SWAP1 SWAP4 ADD CALLDATALOAD SWAP3 SWAP2 POP POP JUMP JUMPDEST PUSH1 0x0 DUP1 PUSH1 0x40 DUP4 DUP6 SUB SLT ISZERO PUSH2 0x512A JUMPI DUP2 DUP3 REVERT JUMPDEST DUP3 CALLDATALOAD PUSH2 0x5135 DUP2 PUSH2 0x58BB JUMP JUMPDEST SWAP5 PUSH1 0x20 SWAP4 SWAP1 SWAP4 ADD CALLDATALOAD SWAP4 POP POP POP JUMP JUMPDEST PUSH1 0x0 DUP1 PUSH1 0x0 PUSH1 0x60 DUP5 DUP7 SUB SLT ISZERO PUSH2 0x5157 JUMPI DUP1 DUP2 REVERT JUMPDEST DUP4 MLOAD PUSH1 0x1 PUSH1 0x1 PUSH1 0x40 SHL SUB DUP1 DUP3 GT ISZERO PUSH2 0x516D JUMPI DUP3 DUP4 REVERT JUMPDEST DUP2 DUP7 ADD SWAP2 POP DUP7 PUSH1 0x1F DUP4 ADD SLT PUSH2 0x5180 JUMPI DUP3 DUP4 REVERT JUMPDEST DUP2 MLOAD PUSH2 0x518E PUSH2 0x4F48 DUP3 PUSH2 0x589C JUMP JUMPDEST DUP1 DUP3 DUP3 MSTORE PUSH1 0x20 DUP1 DUP4 ADD SWAP3 POP DUP1 DUP7 ADD DUP12 DUP3 DUP4 DUP8 MUL DUP10 ADD ADD GT ISZERO PUSH2 0x51AE JUMPI DUP8 DUP9 REVERT JUMPDEST DUP8 SWAP7 POP JUMPDEST DUP5 DUP8 LT ISZERO PUSH2 0x51D9 JUMPI DUP1 MLOAD PUSH2 0x51C5 DUP2 PUSH2 0x58BB JUMP JUMPDEST DUP5 MSTORE PUSH1 0x1 SWAP7 SWAP1 SWAP7 ADD SWAP6 SWAP3 DUP2 ADD SWAP3 DUP2 ADD PUSH2 0x51B2 JUMP JUMPDEST POP DUP10 ADD MLOAD SWAP1 SWAP8 POP SWAP4 POP POP POP DUP1 DUP3 GT ISZERO PUSH2 0x51F0 JUMPI DUP3 DUP4 REVERT JUMPDEST POP PUSH2 0x51FD DUP7 DUP3 DUP8 ADD PUSH2 0x4F2A JUMP JUMPDEST SWAP3 POP POP PUSH1 0x40 DUP5 ADD MLOAD SWAP1 POP SWAP3 POP SWAP3 POP SWAP3 JUMP JUMPDEST PUSH1 0x0 PUSH1 0x20 DUP3 DUP5 SUB SLT ISZERO PUSH2 0x521F JUMPI DUP1 DUP2 REVERT JUMPDEST DUP2 CALLDATALOAD PUSH2 0x5D4 DUP2 PUSH2 0x58D0 JUMP JUMPDEST PUSH1 0x0 PUSH1 0x20 DUP3 DUP5 SUB SLT ISZERO PUSH2 0x523B JUMPI DUP1 DUP2 REVERT JUMPDEST DUP2 MLOAD PUSH2 0x5D4 DUP2 PUSH2 0x58D0 JUMP JUMPDEST PUSH1 0x0 DUP1 PUSH1 0x0 DUP1 PUSH1 0x0 DUP1 PUSH1 0x0 PUSH1 0xE0 DUP9 DUP11 SUB SLT ISZERO PUSH2 0x5260 JUMPI DUP1 DUP2 REVERT JUMPDEST DUP8 CALLDATALOAD SWAP7 POP PUSH1 0x20 DUP1 DUP10 ADD CALLDATALOAD PUSH2 0x5273 DUP2 PUSH2 0x58BB JUMP JUMPDEST SWAP7 POP PUSH1 0x40 DUP10 ADD CALLDATALOAD PUSH2 0x5283 DUP2 PUSH2 0x58BB JUMP JUMPDEST SWAP6 POP PUSH1 0x60 DUP10 ADD CALLDATALOAD PUSH1 0x1 PUSH1 0x1 PUSH1 0x40 SHL SUB DUP1 DUP3 GT ISZERO PUSH2 0x529E JUMPI DUP4 DUP5 REVERT JUMPDEST DUP2 DUP12 ADD SWAP2 POP DUP12 PUSH1 0x1F DUP4 ADD SLT PUSH2 0x52B1 JUMPI DUP4 DUP5 REVERT JUMPDEST DUP2 CALLDATALOAD PUSH2 0x52BF PUSH2 0x4F48 DUP3 PUSH2 0x589C JUMP JUMPDEST DUP1 DUP3 DUP3 MSTORE DUP6 DUP3 ADD SWAP2 POP DUP6 DUP6 ADD DUP16 DUP8 DUP9 DUP7 MUL DUP9 ADD ADD GT ISZERO PUSH2 0x52DD JUMPI DUP8 DUP9 REVERT JUMPDEST DUP8 SWAP6 POP JUMPDEST DUP4 DUP7 LT ISZERO PUSH2 0x52FF JUMPI DUP1 CALLDATALOAD DUP4 MSTORE PUSH1 0x1 SWAP6 SWAP1 SWAP6 ADD SWAP5 SWAP2 DUP7 ADD SWAP2 DUP7 ADD PUSH2 0x52E1 JUMP JUMPDEST POP SWAP9 POP POP POP PUSH1 0x80 DUP12 ADD CALLDATALOAD SWAP6 POP PUSH1 0xA0 DUP12 ADD CALLDATALOAD SWAP5 POP PUSH1 0xC0 DUP12 ADD CALLDATALOAD SWAP3 POP DUP1 DUP4 GT ISZERO PUSH2 0x5325 JUMPI DUP4 DUP5 REVERT JUMPDEST POP POP PUSH2 0x5333 DUP11 DUP3 DUP12 ADD PUSH2 0x4F98 JUMP JUMPDEST SWAP2 POP POP SWAP3 SWAP6 SWAP9 SWAP2 SWAP5 SWAP8 POP SWAP3 SWAP6 POP JUMP JUMPDEST PUSH1 0x0 PUSH1 0x20 DUP3 DUP5 SUB SLT ISZERO PUSH2 0x5353 JUMPI DUP1 DUP2 REVERT JUMPDEST DUP2 CALLDATALOAD PUSH1 0x1 PUSH1 0x1 PUSH1 0xE0 SHL SUB NOT DUP2 AND DUP2 EQ PUSH2 0x5D4 JUMPI DUP2 DUP3 REVERT JUMPDEST PUSH1 0x0 PUSH1 0x20 DUP3 DUP5 SUB SLT ISZERO PUSH2 0x537B JUMPI DUP1 DUP2 REVERT JUMPDEST DUP2 MLOAD PUSH2 0x5D4 DUP2 PUSH2 0x58BB JUMP JUMPDEST PUSH1 0x0 DUP1 PUSH1 0x40 DUP4 DUP6 SUB SLT ISZERO PUSH2 0x5398 JUMPI DUP2 DUP3 REVERT JUMPDEST DUP3 CALLDATALOAD PUSH2 0x53A3 DUP2 PUSH2 0x58BB JUMP JUMPDEST SWAP2 POP PUSH1 0x20 DUP4 ADD CALLDATALOAD PUSH1 0x1 PUSH1 0x1 PUSH1 0x40 SHL SUB DUP2 GT ISZERO PUSH2 0x53BD JUMPI DUP2 DUP3 REVERT JUMPDEST PUSH2 0x53C9 DUP6 DUP3 DUP7 ADD PUSH2 0x4F98 JUMP JUMPDEST SWAP2 POP POP SWAP3 POP SWAP3 SWAP1 POP JUMP JUMPDEST PUSH1 0x0 PUSH1 0x20 DUP3 DUP5 SUB SLT ISZERO PUSH2 0x53E4 JUMPI DUP1 DUP2 REVERT JUMPDEST DUP2 MLOAD PUSH2 0x5D4 DUP2 PUSH2 0x58DE JUMP JUMPDEST PUSH1 0x0 DUP1 PUSH1 0x0 PUSH1 0x60 DUP5 DUP7 SUB SLT ISZERO PUSH2 0x5403 JUMPI DUP1 DUP2 REVERT JUMPDEST DUP4 MLOAD PUSH2 0x540E DUP2 PUSH2 0x58DE JUMP JUMPDEST PUSH1 0x20 DUP6 ADD MLOAD SWAP1 SWAP4 POP PUSH1 0x1 PUSH1 0x1 PUSH1 0x40 SHL SUB DUP2 GT ISZERO PUSH2 0x5429 JUMPI DUP2 DUP3 REVERT JUMPDEST PUSH2 0x51FD DUP7 DUP3 DUP8 ADD PUSH2 0x4F2A JUMP JUMPDEST PUSH1 0x0 DUP1 PUSH1 0x40 DUP4 DUP6 SUB SLT ISZERO PUSH2 0x5447 JUMPI DUP2 DUP3 REVERT JUMPDEST DUP3 MLOAD PUSH2 0x5452 DUP2 PUSH2 0x58DE JUMP JUMPDEST PUSH1 0x20 SWAP4 SWAP1 SWAP4 ADD MLOAD SWAP3 SWAP5 SWAP3 SWAP4 POP POP POP JUMP JUMPDEST PUSH1 0x0 DUP1 PUSH1 0x0 PUSH1 0x60 DUP5 DUP7 SUB SLT ISZERO PUSH2 0x5476 JUMPI DUP1 DUP2 REVERT JUMPDEST DUP4 MLOAD PUSH2 0x5481 DUP2 PUSH2 0x58DE JUMP JUMPDEST PUSH1 0x20 DUP6 ADD MLOAD PUSH1 0x40 SWAP1 SWAP6 ADD MLOAD SWAP1 SWAP7 SWAP5 SWAP6 POP SWAP4 SWAP3 POP POP POP JUMP JUMPDEST PUSH1 0x0 DUP1 PUSH1 0x40 DUP4 DUP6 SUB SLT ISZERO PUSH2 0x54AA JUMPI DUP2 DUP3 REVERT JUMPDEST DUP3 MLOAD PUSH2 0x54B5 DUP2 PUSH2 0x58DE JUMP JUMPDEST PUSH1 0x20 DUP5 ADD MLOAD SWAP1 SWAP3 POP PUSH1 0x1 PUSH1 0x1 PUSH1 0x40 SHL SUB DUP2 GT ISZERO PUSH2 0x54D0 JUMPI DUP2 DUP3 REVERT JUMPDEST PUSH2 0x53C9 DUP6 DUP3 DUP7 ADD PUSH2 0x4F2A JUMP JUMPDEST PUSH1 0x0 DUP1 PUSH1 0x0 PUSH1 0x60 DUP5 DUP7 SUB SLT ISZERO PUSH2 0x54F0 JUMPI DUP1 DUP2 REVERT JUMPDEST DUP4 CALLDATALOAD PUSH1 0x1 PUSH1 0x1 PUSH1 0x40 SHL SUB DUP1 DUP3 GT ISZERO PUSH2 0x5506 JUMPI DUP3 DUP4 REVERT JUMPDEST DUP2 DUP7 ADD SWAP2 POP PUSH2 0x120 DUP1 DUP4 DUP10 SUB SLT ISZERO PUSH2 0x551C JUMPI DUP4 DUP5 REVERT JUMPDEST PUSH2 0x5525 DUP2 PUSH2 0x5876 JUMP JUMPDEST SWAP1 POP PUSH2 0x5531 DUP9 DUP5 PUSH2 0x5000 JUMP JUMPDEST DUP2 MSTORE PUSH2 0x5540 DUP9 PUSH1 0x20 DUP6 ADD PUSH2 0x4F1F JUMP JUMPDEST PUSH1 0x20 DUP3 ADD MSTORE PUSH2 0x5552 DUP9 PUSH1 0x40 DUP6 ADD PUSH2 0x4F1F JUMP JUMPDEST PUSH1 0x40 DUP3 ADD MSTORE PUSH1 0x60 DUP4 ADD CALLDATALOAD PUSH1 0x60 DUP3 ADD MSTORE PUSH1 0x80 DUP4 ADD CALLDATALOAD PUSH1 0x80 DUP3 ADD MSTORE PUSH1 0xA0 DUP4 ADD CALLDATALOAD PUSH1 0xA0 DUP3 ADD MSTORE PUSH2 0x5582 DUP9 PUSH1 0xC0 DUP6 ADD PUSH2 0x4F1F JUMP JUMPDEST PUSH1 0xC0 DUP3 ADD MSTORE PUSH2 0x5594 DUP9 PUSH1 0xE0 DUP6 ADD PUSH2 0x4F1F JUMP JUMPDEST PUSH1 0xE0 DUP3 ADD MSTORE PUSH2 0x100 DUP1 DUP5 ADD CALLDATALOAD DUP4 DUP2 GT ISZERO PUSH2 0x55AC JUMPI DUP6 DUP7 REVERT JUMPDEST PUSH2 0x55B8 DUP11 DUP3 DUP8 ADD PUSH2 0x4F98 JUMP JUMPDEST SWAP2 DUP4 ADD SWAP2 SWAP1 SWAP2 MSTORE POP SWAP8 PUSH1 0x20 DUP8 ADD CALLDATALOAD SWAP8 POP PUSH1 0x40 SWAP1 SWAP7 ADD CALLDATALOAD SWAP6 SWAP5 POP POP POP POP POP JUMP JUMPDEST PUSH1 0x0 PUSH1 0x20 DUP3 DUP5 SUB SLT ISZERO PUSH2 0x55E8 JUMPI DUP1 DUP2 REVERT JUMPDEST POP CALLDATALOAD SWAP2 SWAP1 POP JUMP JUMPDEST PUSH1 0x0 DUP1 PUSH1 0x0 DUP1 PUSH1 0x80 DUP6 DUP8 SUB SLT ISZERO PUSH2 0x5604 JUMPI DUP2 DUP3 REVERT JUMPDEST DUP5 MLOAD SWAP4 POP PUSH1 0x20 DUP6 ADD MLOAD SWAP3 POP PUSH1 0x40 DUP6 ADD MLOAD SWAP2 POP PUSH1 0x60 DUP6 ADD MLOAD PUSH2 0x5624 DUP2 PUSH2 0x58BB JUMP JUMPDEST SWAP4 SWAP7 SWAP3 SWAP6 POP SWAP1 SWAP4 POP POP JUMP JUMPDEST PUSH1 0x0 DUP2 MLOAD DUP1 DUP5 MSTORE PUSH1 0x20 DUP1 DUP6 ADD SWAP5 POP DUP1 DUP5 ADD DUP4 JUMPDEST DUP4 DUP2 LT ISZERO PUSH2 0x565E JUMPI DUP2 MLOAD DUP8 MSTORE SWAP6 DUP3 ADD SWAP6 SWAP1 DUP3 ADD SWAP1 PUSH1 0x1 ADD PUSH2 0x5642 JUMP JUMPDEST POP SWAP5 SWAP6 SWAP5 POP POP POP POP POP JUMP JUMPDEST PUSH1 0x0 DUP2 MLOAD DUP1 DUP5 MSTORE DUP2 JUMPDEST DUP2 DUP2 LT ISZERO PUSH2 0x568E JUMPI PUSH1 0x20 DUP2 DUP6 ADD DUP2 ADD MLOAD DUP7 DUP4 ADD DUP3 ADD MSTORE ADD PUSH2 0x5672 JUMP JUMPDEST DUP2 DUP2 GT ISZERO PUSH2 0x569F JUMPI DUP3 PUSH1 0x20 DUP4 DUP8 ADD ADD MSTORE JUMPDEST POP PUSH1 0x1F ADD PUSH1 0x1F NOT AND SWAP3 SWAP1 SWAP3 ADD PUSH1 0x20 ADD SWAP3 SWAP2 POP POP JUMP JUMPDEST SWAP2 DUP3 MSTORE PUSH1 0x1 PUSH1 0x1 PUSH1 0xE0 SHL SUB NOT AND PUSH1 0x20 DUP3 ADD MSTORE PUSH1 0x24 ADD SWAP1 JUMP JUMPDEST PUSH1 0x0 DUP3 DUP5 DUP4 CALLDATACOPY SWAP2 ADD SWAP1 DUP2 MSTORE SWAP2 SWAP1 POP JUMP JUMPDEST PUSH2 0x1901 PUSH1 0xF0 SHL DUP2 MSTORE PUSH1 0x2 DUP2 ADD SWAP3 SWAP1 SWAP3 MSTORE PUSH1 0x22 DUP3 ADD MSTORE PUSH1 0x42 ADD SWAP1 JUMP JUMPDEST PUSH1 0x1 PUSH1 0x1 PUSH1 0xA0 SHL SUB SWAP2 SWAP1 SWAP2 AND DUP2 MSTORE PUSH1 0x20 ADD SWAP1 JUMP JUMPDEST PUSH1 0x0 PUSH1 0x20 DUP3 MSTORE PUSH2 0x5D4 PUSH1 0x20 DUP4 ADD DUP5 PUSH2 0x562F JUMP JUMPDEST PUSH1 0x0 PUSH1 0x40 DUP3 MSTORE PUSH2 0x5731 PUSH1 0x40 DUP4 ADD DUP6 PUSH2 0x562F JUMP JUMPDEST DUP3 DUP2 SUB PUSH1 0x20 DUP5 ADD MSTORE PUSH2 0x399F DUP2 DUP6 PUSH2 0x562F JUMP JUMPDEST SWAP1 ISZERO ISZERO DUP2 MSTORE PUSH1 0x20 ADD SWAP1 JUMP JUMPDEST SWAP3 ISZERO ISZERO DUP4 MSTORE PUSH1 0x20 DUP4 ADD SWAP2 SWAP1 SWAP2 MSTORE PUSH1 0x40 DUP3 ADD MSTORE PUSH1 0x60 ADD SWAP1 JUMP JUMPDEST SWAP1 DUP2 MSTORE PUSH1 0x20 ADD SWAP1 JUMP JUMPDEST SWAP3 DUP4 MSTORE PUSH1 0x1 PUSH1 0x1 PUSH1 0xA0 SHL SUB SWAP2 DUP3 AND PUSH1 0x20 DUP5 ADD MSTORE AND PUSH1 0x40 DUP3 ADD MSTORE PUSH1 0x60 ADD SWAP1 JUMP JUMPDEST SWAP6 DUP7 MSTORE PUSH1 0x1 PUSH1 0x1 PUSH1 0xA0 SHL SUB SWAP5 DUP6 AND PUSH1 0x20 DUP8 ADD MSTORE SWAP3 SWAP1 SWAP4 AND PUSH1 0x40 DUP6 ADD MSTORE PUSH1 0x60 DUP5 ADD MSTORE PUSH1 0x80 DUP4 ADD SWAP2 SWAP1 SWAP2 MSTORE PUSH1 0xA0 DUP3 ADD MSTORE PUSH1 0xC0 ADD SWAP1 JUMP JUMPDEST SWAP5 DUP6 MSTORE PUSH1 0x20 DUP6 ADD SWAP4 SWAP1 SWAP4 MSTORE PUSH1 0x40 DUP5 ADD SWAP2 SWAP1 SWAP2 MSTORE PUSH1 0x60 DUP4 ADD MSTORE PUSH1 0x1 PUSH1 0x1 PUSH1 0xA0 SHL SUB AND PUSH1 0x80 DUP3 ADD MSTORE PUSH1 0xA0 ADD SWAP1 JUMP JUMPDEST PUSH1 0x0 DUP4 DUP3 MSTORE PUSH1 0x40 PUSH1 0x20 DUP4 ADD MSTORE PUSH2 0x2466 PUSH1 0x40 DUP4 ADD DUP5 PUSH2 0x5669 JUMP JUMPDEST SWAP2 DUP3 MSTORE PUSH1 0x1 PUSH1 0x1 PUSH1 0xA0 SHL SUB AND PUSH1 0x20 DUP3 ADD MSTORE PUSH1 0x40 ADD SWAP1 JUMP JUMPDEST SWAP4 DUP5 MSTORE PUSH1 0xFF SWAP3 SWAP1 SWAP3 AND PUSH1 0x20 DUP5 ADD MSTORE PUSH1 0x40 DUP4 ADD MSTORE PUSH1 0x60 DUP3 ADD MSTORE PUSH1 0x80 ADD SWAP1 JUMP JUMPDEST PUSH1 0x0 PUSH1 0x20 DUP3 MSTORE PUSH2 0x5D4 PUSH1 0x20 DUP4 ADD DUP5 PUSH2 0x5669 JUMP JUMPDEST PUSH1 0x0 DUP4 DUP3 MSTORE PUSH1 0x40 PUSH1 0x20 DUP4 ADD MSTORE PUSH2 0x2466 PUSH1 0x40 DUP4 ADD DUP5 PUSH2 0x562F JUMP JUMPDEST PUSH1 0xFF SWAP2 SWAP1 SWAP2 AND DUP2 MSTORE PUSH1 0x20 ADD SWAP1 JUMP JUMPDEST PUSH1 0x40 MLOAD DUP2 DUP2 ADD PUSH1 0x1 PUSH1 0x1 PUSH1 0x40 SHL SUB DUP2 GT DUP3 DUP3 LT OR ISZERO PUSH2 0x5894 JUMPI PUSH1 0x0 DUP1 REVERT JUMPDEST PUSH1 0x40 MSTORE SWAP2 SWAP1 POP JUMP JUMPDEST PUSH1 0x0 PUSH1 0x1 PUSH1 0x1 PUSH1 0x40 SHL SUB DUP3 GT ISZERO PUSH2 0x58B1 JUMPI DUP1 DUP2 REVERT JUMPDEST POP PUSH1 0x20 SWAP1 DUP2 MUL ADD SWAP1 JUMP JUMPDEST PUSH1 0x1 PUSH1 0x1 PUSH1 0xA0 SHL SUB DUP2 AND DUP2 EQ PUSH2 0x524 JUMPI PUSH1 0x0 DUP1 REVERT JUMPDEST DUP1 ISZERO ISZERO DUP2 EQ PUSH2 0x524 JUMPI PUSH1 0x0 DUP1 REVERT JUMPDEST PUSH1 0x3 DUP2 LT PUSH2 0x524 JUMPI PUSH1 0x0 DUP1 REVERT INVALID LOG2 PUSH5 0x6970667358 0x22 SLT KECCAK256 0xAD DUP10 0xA6 PUSH23 0xE08223EACB720F3460E182CC3CE4485A62120BD1FE64F8 SWAP3 DUP15 0x5E DUP11 0x5F PUSH5 0x736F6C6343 STOP SMOD ADD STOP CALLER "
		},
		"gasEstimates": {
			"creation": {
				"codeDepositCost": "519200",
				"executionCost": "infinite",
				"totalCost": "infinite"
			},
			"external": {
				"create(string,string,address[],uint256[],address[],uint256,address)": "infinite",
				"getCreationCode()": "infinite",
				"getCreationCodeContracts()": "infinite",
				"getPauseConfiguration()": "infinite",
				"getVault()": "infinite",
				"isPoolFromFactory(address)": "1323"
			}
		},
		"methodIdentifiers": {
			"create(string,string,address[],uint256[],address[],uint256,address)": "80773a93",
			"getCreationCode()": "00c194db",
			"getCreationCodeContracts()": "174481fa",
			"getPauseConfiguration()": "2da47c40",
			"getVault()": "8d928af8",
			"isPoolFromFactory(address)": "6634b753"
		}
	},
	"abi": [
		{
			"inputs": [
				{
					"internalType": "contract IVault",
					"name": "vault",
					"type": "address"
				}
			],
			"stateMutability": "nonpayable",
			"type": "constructor"
		},
		{
			"anonymous": false,
			"inputs": [
				{
					"indexed": true,
					"internalType": "address",
					"name": "pool",
					"type": "address"
				}
			],
			"name": "PoolCreated",
			"type": "event"
		},
		{
			"inputs": [
				{
					"internalType": "string",
					"name": "name",
					"type": "string"
				},
				{
					"internalType": "string",
					"name": "symbol",
					"type": "string"
				},
				{
					"internalType": "contract IERC20[]",
					"name": "tokens",
					"type": "address[]"
				},
				{
					"internalType": "uint256[]",
					"name": "weights",
					"type": "uint256[]"
				},
				{
					"internalType": "address[]",
					"name": "assetManagers",
					"type": "address[]"
				},
				{
					"internalType": "uint256",
					"name": "swapFeePercentage",
					"type": "uint256"
				},
				{
					"internalType": "address",
					"name": "owner",
					"type": "address"
				}
			],
			"name": "create",
			"outputs": [
				{
					"internalType": "address",
					"name": "",
					"type": "address"
				}
			],
			"stateMutability": "nonpayable",
			"type": "function"
		},
		{
			"inputs": [],
			"name": "getCreationCode",
			"outputs": [
				{
					"internalType": "bytes",
					"name": "",
					"type": "bytes"
				}
			],
			"stateMutability": "view",
			"type": "function"
		},
		{
			"inputs": [],
			"name": "getCreationCodeContracts",
			"outputs": [
				{
					"internalType": "address",
					"name": "contractA",
					"type": "address"
				},
				{
					"internalType": "address",
					"name": "contractB",
					"type": "address"
				}
			],
			"stateMutability": "view",
			"type": "function"
		},
		{
			"inputs": [],
			"name": "getPauseConfiguration",
			"outputs": [
				{
					"internalType": "uint256",
					"name": "pauseWindowDuration",
					"type": "uint256"
				},
				{
					"internalType": "uint256",
					"name": "bufferPeriodDuration",
					"type": "uint256"
				}
			],
			"stateMutability": "view",
			"type": "function"
		},
		{
			"inputs": [],
			"name": "getVault",
			"outputs": [
				{
					"internalType": "contract IVault",
					"name": "",
					"type": "address"
				}
			],
			"stateMutability": "view",
			"type": "function"
		},
		{
			"inputs": [
				{
					"internalType": "address",
					"name": "pool",
					"type": "address"
				}
			],
			"name": "isPoolFromFactory",
			"outputs": [
				{
					"internalType": "bool",
					"name": "",
					"type": "bool"
				}
			],
			"stateMutability": "view",
			"type": "function"
		}
	]
}