{
	"data": {
		"bytecode": {
			"linkReferences": {},
			"object": "6105006040527f6e71edae12b1b97f4d1f60370fef10105fa2faae0126114a169c64845d6126c9610120523480156200003757600080fd5b506040516200588b3803806200588b8339810160408190526200005a9162000cf2565b88888888878787878785516002146200007557600162000078565b60025b6040805180820190915260018152603160f81b6020808301918252336080526001600160601b0319606087901b1660a0528b51908c0190812060c0529151902060e0527f8b73c3c69bb8fe3d512ecc4cf759cc79239f7b179b0ffacaa9a75d522b39400f6101005289518a918a918a918a918a918a918a91849184918a918a9162000107916003919062000abb565b5080516200011d90600490602084019062000abb565b50620001359150506276a70083111561019462000865565b6200014962278d0082111561019562000865565b42909101610140819052016101605284516200016b906002111560c862000865565b6200018360088651111560c96200086560201b60201c565b62000199856200087a60201b62000d561760201c565b620001a48462000886565b6040516309b2760f60e01b81526000906001600160a01b038b16906309b2760f90620001d5908c9060040162000eab565b602060405180830381600087803b158015620001f057600080fd5b505af115801562000205573d6000803e3d6000fd5b505050506040513d601f19601f820116820180604052508101906200022b919062000cd9565b9050896001600160a01b03166366a9c7d2828889516001600160401b03811180156200025657600080fd5b5060405190808252806020026020018201604052801562000281578160200160208202803683370190505b506040518463ffffffff1660e01b8152600401620002a29392919062000e0f565b600060405180830381600087803b158015620002bd57600080fd5b505af1158015620002d2573d6000803e3d6000fd5b5050506001600160601b031960608c901b1661018052506101a081905285516101c0528551620003045760006200031b565b856000815181106200031257fe5b60200260200101515b60601b6001600160601b0319166101e05285516001106200033e57600062000355565b856001815181106200034c57fe5b60200260200101515b60601b6001600160601b031916610200528551600210620003785760006200038f565b856002815181106200038657fe5b60200260200101515b60601b6001600160601b031916610220528551600310620003b2576000620003c9565b85600381518110620003c057fe5b60200260200101515b60601b6001600160601b031916610240528551600410620003ec57600062000403565b85600481518110620003fa57fe5b60200260200101515b60601b6001600160601b031916610260528551600510620004265760006200043d565b856005815181106200043457fe5b60200260200101515b60601b6001600160601b0319166102805285516006106200046057600062000477565b856006815181106200046e57fe5b60200260200101515b60601b6001600160601b0319166102a05285516007106200049a576000620004b1565b85600781518110620004a857fe5b60200260200101515b60601b6001600160601b0319166102c0528551620004d1576000620004f7565b620004f786600081518110620004e357fe5b6020026020010151620008f560201b60201c565b6102e05285516001106200050d5760006200051f565b6200051f86600181518110620004e357fe5b6103005285516002106200053557600062000547565b6200054786600281518110620004e357fe5b6103205285516003106200055d5760006200056f565b6200056f86600381518110620004e357fe5b6103405285516004106200058557600062000597565b6200059786600481518110620004e357fe5b610360528551600510620005ad576000620005bf565b620005bf86600581518110620004e357fe5b610380528551600610620005d5576000620005e7565b620005e786600681518110620004e357fe5b6103a0528551600710620005fd5760006200060f565b6200060f86600781518110620004e357fe5b6103c08181525050505050505050505050505050505050505050600086519050620006478187516200099760201b62000d641760201c565b6000806000805b848160ff161015620006cd5760008a8260ff16815181106200066c57fe5b6020026020010151905062000694662386f26fc1000082101561012e6200086560201b60201c565b620006ae8186620009a660201b62000d711790919060201c565b945082811115620006c3578160ff1693508092505b506001016200064e565b50620006e6670de0b6b3a7640000841461013462000865565b6103e08290528851620006fb57600062000712565b886000815181106200070957fe5b60200260200101515b610400528851600110620007285760006200073f565b886001815181106200073657fe5b60200260200101515b610420528851600210620007555760006200076c565b886002815181106200076357fe5b60200260200101515b6104405288516003106200078257600062000799565b886003815181106200079057fe5b60200260200101515b610460528851600410620007af576000620007c6565b88600481518110620007bd57fe5b60200260200101515b610480528851600510620007dc576000620007f3565b88600581518110620007ea57fe5b60200260200101515b6104a05288516006106200080957600062000820565b886006815181106200081757fe5b60200260200101515b6104c0528851600710620008365760006200084d565b886007815181106200084457fe5b60200260200101515b6104e0525062000f329b505050505050505050505050565b8162000876576200087681620009c3565b5050565b80620008768162000a16565b6200089b64e8d4a5100082101560cb62000865565b620008b367016345785d8a000082111560ca62000865565b60078190556040517fa9ba3ffe0b6c366b81232caab38605a0699ad5398d6cce76f91ee809e322dafc90620008ea90839062000ec0565b60405180910390a150565b600080826001600160a01b031663313ce5676040518163ffffffff1660e01b815260040160206040518083038186803b1580156200093257600080fd5b505afa15801562000947573d6000803e3d6000fd5b505050506040513d601f19601f820116820180604052508101906200096d919062000dec565b60ff16905060006200098c60128362000aa360201b62000d831760201c565b600a0a949350505050565b62000876828214606762000865565b6000828201620009ba848210158362000865565b90505b92915050565b62461bcd60e51b6000908152602060045260076024526642414c23000030600a808404818106603090810160081b95839006959095019082900491820690940160101b939093010160c81b604452606490fd5b60028151101562000a275762000aa0565b60008160008151811062000a3757fe5b602002602001015190506000600190505b825181101562000a9d57600083828151811062000a6157fe5b6020026020010151905062000a92816001600160a01b0316846001600160a01b03161060656200086560201b60201c565b915060010162000a48565b50505b50565b600062000ab583831115600162000865565b50900390565b828054600181600116156101000203166002900490600052602060002090601f016020900481019282601f1062000afe57805160ff191683800117855562000b2e565b8280016001018555821562000b2e579182015b8281111562000b2e57825182559160200191906001019062000b11565b5062000b3c92915062000b40565b5090565b5b8082111562000b3c576000815560010162000b41565b8051620009bd8162000f1c565b600082601f83011262000b75578081fd5b815162000b8c62000b868262000ef0565b62000ec9565b81815291506020808301908481018184028601820187101562000bae57600080fd5b60005b8481101562000bda57815162000bc78162000f1c565b8452928201929082019060010162000bb1565b505050505092915050565b600082601f83011262000bf6578081fd5b815162000c0762000b868262000ef0565b81815291506020808301908481018184028601820187101562000c2957600080fd5b60005b8481101562000bda5781518452928201929082019060010162000c2c565b600082601f83011262000c5b578081fd5b81516001600160401b0381111562000c71578182fd5b602062000c87601f8301601f1916820162000ec9565b9250818352848183860101111562000c9e57600080fd5b60005b8281101562000cbe57848101820151848201830152810162000ca1565b8281111562000cd05760008284860101525b50505092915050565b60006020828403121562000ceb578081fd5b5051919050565b60008060008060008060008060006101208a8c03121562000d11578485fd5b62000d1d8b8b62000b57565b60208b01519099506001600160401b038082111562000d3a578687fd5b62000d488d838e0162000c4a565b995060408c015191508082111562000d5e578687fd5b62000d6c8d838e0162000c4a565b985060608c015191508082111562000d82578687fd5b62000d908d838e0162000b64565b975060808c015191508082111562000da6578687fd5b5062000db58c828d0162000be5565b95505060a08a0151935060c08a0151925060e08a0151915062000ddd8b6101008c0162000b57565b90509295985092959850929598565b60006020828403121562000dfe578081fd5b815160ff81168114620009ba578182fd5b60006060820185835260206060818501528186518084526080860191508288019350845b8181101562000e5b5762000e48855162000f10565b8352938301939183019160010162000e33565b505084810360408601528551808252908201925081860190845b8181101562000e9d5762000e8a835162000f10565b8552938301939183019160010162000e75565b509298975050505050505050565b602081016003831062000eba57fe5b91905290565b90815260200190565b6040518181016001600160401b038111828210171562000ee857600080fd5b604052919050565b60006001600160401b0382111562000f06578081fd5b5060209081020190565b6001600160a01b031690565b6001600160a01b038116811462000aa057600080fd5b60805160a05160601c60c05160e051610100516101205161014051610160516101805160601c6101a0516101c0516101e05160601c6102005160601c6102205160601c6102405160601c6102605160601c6102805160601c6102a05160601c6102c05160601c6102e05161030051610320516103405161036051610380516103a0516103c0516103e05161040051610420516104405161046051610480516104a0516104c0516104e0516147436200114860003980611ec15280612852525080611e7e52806127f1525080611e3b5280612790525080611df8528061272f525080611db552806126ce525080611d72528061266d525080611d2f528061260c525080611cec52806125ab5250806122cb52806122ff528061233b5250806116255280611b1b5250806115e25280611aba52508061159f5280611a5952508061155c52806119f852508061151952806119975250806114d6528061193652508061149352806118d55250806114425280611874525080611ae05280612817525080611a7f52806127b6525080611a1e52806127555250806119bd52806126f452508061195c52806126935250806118fb528061263252508061189a52806125d152508061183952806125705250806111015250806105d7525080610835525080610ef0525080610ecc525080610ab5525080610ff352508061103552508061101452508061081152508061079b52506147436000f3fe608060405234801561001057600080fd5b50600436106101f05760003560e01c80637ecebe001161010f578063a9059cbb116100a2578063d5c096c411610071578063d5c096c4146103e6578063d73dd623146103f9578063dd62ed3e1461040c578063f89f27ed1461041f576101f0565b8063a9059cbb146103b0578063aaabadc5146103c3578063c0ff1a15146103cb578063d505accf146103d3576101f0565b80638d928af8116100de5780638d928af81461038557806395d89b411461038d5780639b02cdde146103955780639d2c110c1461039d576101f0565b80637ecebe0014610337578063851c1bb31461034a57806387ec68171461035d578063893d20e814610370576101f0565b806338e9922e11610187578063661884631161015657806366188463146102e8578063679aefce146102fb57806370a082311461030357806374f3b00914610316576101f0565b806338e9922e146102a457806338fff2d0146102b757806355c67628146102bf5780636028bfd4146102c7576101f0565b80631c0de051116101c35780631c0de0511461025d57806323b872dd14610274578063313ce567146102875780633644e5151461029c576101f0565b806306fdde03146101f5578063095ea7b31461021357806316c38b3c1461023357806318160ddd14610248575b600080fd5b6101fd610434565b60405161020a919061461e565b60405180910390f35b610226610221366004613ff8565b6104cb565b60405161020a9190614555565b6102466102413660046140ee565b6104e2565b005b6102506104f6565b60405161020a9190614578565b6102656104fc565b60405161020a93929190614560565b610226610282366004613f43565b610525565b61028f6105a8565b60405161020a919061468a565b6102506105ad565b6102466102b2366004614474565b6105bc565b6102506105d5565b6102506105f9565b6102da6102d5366004614126565b6105ff565b60405161020a929190614671565b6102266102f6366004613ff8565b610636565b610250610690565b610250610311366004613eef565b6106bb565b610329610324366004614126565b6106da565b60405161020a929190614530565b610250610345366004613eef565b61077c565b610250610358366004614222565b610797565b6102da61036b366004614126565b6107e9565b61037861080f565b60405161020a9190614509565b610378610833565b6101fd610857565b6102506108b8565b6102506103ab366004614379565b6108be565b6102266103be366004613ff8565b6109a5565b6103786109b2565b6102506109bc565b6102466103e1366004613f83565b610a80565b6103296103f4366004614126565b610bc9565b610226610407366004613ff8565b610ceb565b61025061041a366004613f0b565b610d21565b610427610d4c565b60405161020a919061451d565b60038054604080516020601f60026000196101006001881615020190951694909404938401819004810282018101909252828152606093909290918301828280156104c05780601f10610495576101008083540402835291602001916104c0565b820191906000526020600020905b8154815290600101906020018083116104a357829003601f168201915b505050505090505b90565b60006104d8338484610d99565b5060015b92915050565b6104ea610e01565b6104f381610e2f565b50565b60025490565b6000806000610509610ead565b159250610514610eca565b915061051e610eee565b9050909192565b6001600160a01b0383166000818152600160209081526040808320338085529252822054919261056391148061055b5750838210155b610197610f12565b61056e858585610f20565b336001600160a01b0386161480159061058957506000198114155b1561059b5761059b8533858403610d99565b60019150505b9392505050565b601290565b60006105b7610fef565b905090565b6105c4610e01565b6105cc61108c565b6104f3816110a1565b7f000000000000000000000000000000000000000000000000000000000000000090565b60075490565b6000606061061586516106106110ff565b610d64565b61062a898989898989896111236111ea611250565b97509795505050505050565b3360009081526001602090815260408083206001600160a01b03861684529091528120548083106106725761066d33856000610d99565b610686565b61068633856106818487610d83565b610d99565b5060019392505050565b60006105b761069d6104f6565b6106b56106a86109bc565b6106b06110ff565b611372565b90611396565b6001600160a01b0381166000908152602081905260409020545b919050565b606080886107046106e9610833565b6001600160a01b0316336001600160a01b03161460cd610f12565b61071961070f6105d5565b82146101f4610f12565b60606107236113e7565b905061072f8882611663565b60006060806107438e8e8e8e8e8e8e611123565b9250925092506107538d846116c4565b61075d82856111ea565b61076781856111ea565b909550935050505b5097509795505050505050565b6001600160a01b031660009081526005602052604090205490565b60007f0000000000000000000000000000000000000000000000000000000000000000826040516020016107cc9291906144c6565b604051602081830303815290604052805190602001209050919050565b600060606107fa86516106106110ff565b61062a898989898989896117576117d4611250565b7f000000000000000000000000000000000000000000000000000000000000000090565b7f000000000000000000000000000000000000000000000000000000000000000090565b60048054604080516020601f60026000196101006001881615020190951694909404938401819004810282018101909252828152606093909290918301828280156104c05780601f10610495576101008083540402835291602001916104c0565b60085490565b6000806108ce8560200151611835565b905060006108df8660400151611835565b90506000865160018111156108f057fe5b1415610956576109038660600151611b4a565b60608701526109128583611b6e565b945061091e8482611b6e565b935061092e866060015183611b6e565b60608701526000610940878787611b7a565b905061094c8183611bb5565b93505050506105a1565b6109608583611b6e565b945061096c8482611b6e565b935061097c866060015182611b6e565b6060870152600061098e878787611bc1565b905061099a8184611bf4565b905061094c81611c00565b60006104d8338484610f20565b60006105b7611c17565b600060606109c8610833565b6001600160a01b031663f94d46686109de6105d5565b6040518263ffffffff1660e01b81526004016109fa9190614578565b60006040518083038186803b158015610a1257600080fd5b505afa158015610a26573d6000803e3d6000fd5b505050506040513d6000823e601f3d908101601f19168201604052610a4e9190810190614023565b50915050610a6381610a5e6113e7565b611663565b6060610a6d611c91565b9050610a798183611eed565b9250505090565b610a8e8442111560d1610f12565b6001600160a01b0387166000908152600560209081526040808320549051909291610ae5917f0000000000000000000000000000000000000000000000000000000000000000918c918c918c9188918d91016145a0565b6040516020818303038152906040528051906020012090506000610b0882611f5f565b9050600060018288888860405160008152602001604052604051610b2f9493929190614600565b6020604051602081039080840390855afa158015610b51573d6000803e3d6000fd5b5050604051601f1901519150610b9390506001600160a01b03821615801590610b8b57508b6001600160a01b0316826001600160a01b0316145b6101f8610f12565b6001600160a01b038b166000908152600560205260409020600185019055610bbc8b8b8b610d99565b5050505050505050505050565b60608088610bd86106e9610833565b610be361070f6105d5565b6060610bed6113e7565b9050610bf76104f6565b610c9c5760006060610c0b8d8d8d8a611f7b565b91509150610c20620f424083101560cc610f12565b610c2e6000620f4240612016565b610c3d8b620f42408403612016565b610c4781846117d4565b80610c506110ff565b6001600160401b0381118015610c6557600080fd5b50604051908082528060200260200182016040528015610c8f578160200160208202803683370190505b509550955050505061076f565b610ca68882611663565b6000606080610cba8e8e8e8e8e8e8e611757565b925092509250610cca8c84612016565b610cd482856117d4565b610cde81856111ea565b909550935061076f915050565b3360008181526001602090815260408083206001600160a01b038716845290915281205490916104d89185906106819086610d71565b6001600160a01b03918216600090815260016020908152604080832093909416825291909152205490565b60606105b7611c91565b80610d60816120ac565b5050565b610d608183146067610f12565b60008282016105a18482101583610f12565b6000610d93838311156001610f12565b50900390565b6001600160a01b0380841660008181526001602090815260408083209487168084529490915290819020849055517f8c5be1e5ebec7d5bd14f71427d1e84f3dd0314c0f7b2291e5b200ac8c7c3b92590610df4908590614578565b60405180910390a3505050565b6000610e186000356001600160e01b031916610797565b90506104f3610e278233612125565b610191610f12565b8015610e4f57610e4a610e40610eca565b4210610193610f12565b610e64565b610e64610e5a610eee565b42106101a9610f12565b6006805460ff19168215151790556040517f9e3a5e37224532dea67b89face185703738a228a6e8a23dee546960180d3be6490610ea2908390614555565b60405180910390a150565b6000610eb7610eee565b4211806105b757505060065460ff161590565b7f000000000000000000000000000000000000000000000000000000000000000090565b7f000000000000000000000000000000000000000000000000000000000000000090565b81610d6057610d6081612215565b6001600160a01b038316600090815260208190526040902054610f4882821015610196610f12565b610f5f6001600160a01b0384161515610199610f12565b6001600160a01b03808516600090815260208190526040808220858503905591851681522054610f8f9083610d71565b6001600160a01b0380851660008181526020819052604090819020939093559151908616907fddf252ad1be2c89b69c2b068fc378daa952ba7f163c4a11628f55a4df523b3ef90610fe1908690614578565b60405180910390a350505050565b60007f00000000000000000000000000000000000000000000000000000000000000007f00000000000000000000000000000000000000000000000000000000000000007f000000000000000000000000000000000000000000000000000000000000000061105c612268565b306040516020016110719594939291906145d4565b60405160208183030381529060405280519060200120905090565b61109f611097610ead565b610192610f12565b565b6110b464e8d4a5100082101560cb610f12565b6110ca67016345785d8a000082111560ca610f12565b60078190556040517fa9ba3ffe0b6c366b81232caab38605a0699ad5398d6cce76f91ee809e322dafc90610ea2908390614578565b7f000000000000000000000000000000000000000000000000000000000000000090565b60006060806060611132611c91565b905061113c610ead565b1561117357600061114d828a611eed565b905061115e8983600854848b61226c565b925061116d8984610d8361237b565b506111be565b61117b6110ff565b6001600160401b038111801561119057600080fd5b506040519080825280602002602001820160405280156111ba578160200160208202803683370190505b5091505b6111c98882876123e6565b90945092506111d9888483612453565b600855509750975097945050505050565b60005b6111f56110ff565b81101561124b5761122c83828151811061120b57fe5b602002602001015183838151811061121f57fe5b602002602001015161246c565b83828151811061123857fe5b60209081029190910101526001016111ed565b505050565b33301461130e576000306001600160a01b03166000366040516112749291906144de565b6000604051808303816000865af19150503d80600081146112b1576040519150601f19603f3d011682016040523d82523d6000602084013e6112b6565b606091505b5050905080600081146112c557fe5b60046000803e6000516001600160e01b0319166343adbafb60e01b81146112f0573d6000803e3d6000fd5b506020600460003e604060205260243d03602460403e601c3d016000f35b60606113186113e7565b90506113248782611663565b6000606061133b8c8c8c8c8c8c8c8c63ffffffff16565b509150915061134e81848663ffffffff16565b8051601f1982018390526343adbafb603f1983015260200260231982016044820181fd5b60008282026105a184158061138f57508385838161138c57fe5b04145b6003610f12565b60006113a58215156004610f12565b826113b2575060006104dc565b670de0b6b3a7640000838102906113d5908583816113cc57fe5b04146005610f12565b8281816113de57fe5b049150506104dc565b606060006113f36110ff565b90506060816001600160401b038111801561140d57600080fd5b50604051908082528060200260200182016040528015611437578160200160208202803683370190505b509050811561147f577f00000000000000000000000000000000000000000000000000000000000000008160008151811061146e57fe5b602002602001018181525050611488565b91506104c89050565b600182111561147f577f0000000000000000000000000000000000000000000000000000000000000000816001815181106114bf57fe5b602002602001018181525050600282111561147f577f00000000000000000000000000000000000000000000000000000000000000008160028151811061150257fe5b602002602001018181525050600382111561147f577f00000000000000000000000000000000000000000000000000000000000000008160038151811061154557fe5b602002602001018181525050600482111561147f577f00000000000000000000000000000000000000000000000000000000000000008160048151811061158857fe5b602002602001018181525050600582111561147f577f0000000000000000000000000000000000000000000000000000000000000000816005815181106115cb57fe5b602002602001018181525050600682111561147f577f00000000000000000000000000000000000000000000000000000000000000008160068151811061160e57fe5b602002602001018181525050600782111561147f577f00000000000000000000000000000000000000000000000000000000000000008160078151811061165157fe5b60200260200101818152505091505090565b60005b61166e6110ff565b81101561124b576116a583828151811061168457fe5b602002602001015183838151811061169857fe5b6020026020010151611372565b8382815181106116b157fe5b6020908102919091010152600101611666565b6001600160a01b0382166000908152602081905260409020546116ec82821015610196610f12565b6001600160a01b038316600090815260208190526040902082820390556002546117169083610d83565b6002556040516000906001600160a01b038516907fddf252ad1be2c89b69c2b068fc378daa952ba7f163c4a11628f55a4df523b3ef90610df4908690614578565b600060608061176461108c565b606061176e611c91565b9050600061177c828a611eed565b9050606061178f8a84600854858c61226c565b905061179e8a82610d8361237b565b600060606117ad8c868b61248c565b915091506117bc8c82876124e6565b600855909e909d50909b509950505050505050505050565b60005b6117df6110ff565b81101561124b576118168382815181106117f557fe5b602002602001015183838151811061180957fe5b60200260200101516124f5565b83828151811061182257fe5b60209081029190910101526001016117d7565b60007f00000000000000000000000000000000000000000000000000000000000000006001600160a01b0316826001600160a01b0316141561189857507f00000000000000000000000000000000000000000000000000000000000000006106d5565b7f00000000000000000000000000000000000000000000000000000000000000006001600160a01b0316826001600160a01b031614156118f957507f00000000000000000000000000000000000000000000000000000000000000006106d5565b7f00000000000000000000000000000000000000000000000000000000000000006001600160a01b0316826001600160a01b0316141561195a57507f00000000000000000000000000000000000000000000000000000000000000006106d5565b7f00000000000000000000000000000000000000000000000000000000000000006001600160a01b0316826001600160a01b031614156119bb57507f00000000000000000000000000000000000000000000000000000000000000006106d5565b7f00000000000000000000000000000000000000000000000000000000000000006001600160a01b0316826001600160a01b03161415611a1c57507f00000000000000000000000000000000000000000000000000000000000000006106d5565b7f00000000000000000000000000000000000000000000000000000000000000006001600160a01b0316826001600160a01b03161415611a7d57507f00000000000000000000000000000000000000000000000000000000000000006106d5565b7f00000000000000000000000000000000000000000000000000000000000000006001600160a01b0316826001600160a01b03161415611ade57507f00000000000000000000000000000000000000000000000000000000000000006106d5565b7f00000000000000000000000000000000000000000000000000000000000000006001600160a01b0316826001600160a01b03161415611b3f57507f00000000000000000000000000000000000000000000000000000000000000006106d5565b6106d5610135612215565b600080611b626007548461252890919063ffffffff16565b90506105a18382610d83565b60006105a18383611372565b6000611b8461108c565b611bad83611b95866020015161256c565b84611ba3886040015161256c565b8860600151612876565b949350505050565b60006105a1838361246c565b6000611bcb61108c565b611bad83611bdc866020015161256c565b84611bea886040015161256c565b88606001516128f1565b60006105a183836124f5565b60006104dc611c10600754612967565b839061298d565b6000611c21610833565b6001600160a01b031663aaabadc56040518163ffffffff1660e01b815260040160206040518083038186803b158015611c5957600080fd5b505afa158015611c6d573d6000803e3d6000fd5b505050506040513d601f19601f820116820180604052508101906105b7919061424a565b60606000611c9d6110ff565b90506060816001600160401b0381118015611cb757600080fd5b50604051908082528060200260200182016040528015611ce1578160200160208202803683370190505b509050811561147f577f000000000000000000000000000000000000000000000000000000000000000081600081518110611d1857fe5b602002602001018181525050600182111561147f577f000000000000000000000000000000000000000000000000000000000000000081600181518110611d5b57fe5b602002602001018181525050600282111561147f577f000000000000000000000000000000000000000000000000000000000000000081600281518110611d9e57fe5b602002602001018181525050600382111561147f577f000000000000000000000000000000000000000000000000000000000000000081600381518110611de157fe5b602002602001018181525050600482111561147f577f000000000000000000000000000000000000000000000000000000000000000081600481518110611e2457fe5b602002602001018181525050600582111561147f577f000000000000000000000000000000000000000000000000000000000000000081600581518110611e6757fe5b602002602001018181525050600682111561147f577f000000000000000000000000000000000000000000000000000000000000000081600681518110611eaa57fe5b602002602001018181525050600782111561147f577f00000000000000000000000000000000000000000000000000000000000000008160078151811061165157fe5b670de0b6b3a764000060005b8351811015611f4f57611f45611f3e858381518110611f1457fe5b6020026020010151858481518110611f2857fe5b60200260200101516129cf90919063ffffffff16565b8390612a1e565b9150600101611ef9565b506104dc60008211610137610f12565b6000611f69610fef565b826040516020016107cc9291906144ee565b60006060611f8761108c565b6000611f9284612a4a565b9050611fad6000826002811115611fa557fe5b1460ce610f12565b6060611fb885612a60565b9050611fcc611fc56110ff565b8251610d64565b611fd881610a5e6113e7565b6060611fe2611c91565b90506000611ff08284611eed565b90506000612000826106b06110ff565b6008929092555099919850909650505050505050565b6001600160a01b0382166000908152602081905260409020546120399082610d71565b6001600160a01b03831660009081526020819052604090205560025461205f9082610d71565b6002556040516001600160a01b038316906000907fddf252ad1be2c89b69c2b068fc378daa952ba7f163c4a11628f55a4df523b3ef906120a0908590614578565b60405180910390a35050565b6002815110156120bb576104f3565b6000816000815181106120ca57fe5b602002602001015190506000600190505b825181101561124b5760008382815181106120f257fe5b6020026020010151905061211b816001600160a01b0316846001600160a01b0316106065610f12565b91506001016120db565b600073ba1ba1ba1ba1ba1ba1ba1ba1ba1ba1ba1ba1ba1b61214461080f565b6001600160a01b03161415801561215f575061215f83612a76565b156121875761216c61080f565b6001600160a01b0316336001600160a01b03161490506104dc565b61218f611c17565b6001600160a01b0316639be2a8848484306040518463ffffffff1660e01b81526004016121be93929190614581565b60206040518083038186803b1580156121d657600080fd5b505afa1580156121ea573d6000803e3d6000fd5b505050506040513d601f19601f8201168201806040525081019061220e919061410a565b90506104dc565b62461bcd60e51b6000908152602060045260076024526642414c23000030600a808404818106603090810160081b95839006959095019082900491820690940160101b939093010160c81b604452606490fd5b4690565b6060806122776110ff565b6001600160401b038111801561228c57600080fd5b506040519080825280602002602001820160405280156122b6578160200160208202803683370190505b509050826122c5579050612372565b612338877f0000000000000000000000000000000000000000000000000000000000000000815181106122f457fe5b6020026020010151877f00000000000000000000000000000000000000000000000000000000000000008151811061232857fe5b6020026020010151878787612a90565b817f00000000000000000000000000000000000000000000000000000000000000008151811061236457fe5b602090810291909101015290505b95945050505050565b60005b6123866110ff565b8110156123e0576123c184828151811061239c57fe5b60200260200101518483815181106123b057fe5b60200260200101518463ffffffff16565b8482815181106123cd57fe5b602090810291909101015260010161237e565b50505050565b6000606060006123f584612a4a565b9050600081600281111561240557fe5b141561242057612416868686612b08565b925092505061244b565b600181600281111561242e57fe5b141561243e576124168685612be5565b612416868686612c17565b505b935093915050565b60006124628484610d8361237b565b611bad8285611eed565b600061247b8215156004610f12565b81838161248457fe5b049392505050565b60006060600061249b84612a4a565b905060018160028111156124ab57fe5b14156124bc57612416868686612c82565b60028160028111156124ca57fe5b14156124db57612416868686612cdc565b612449610136612215565b60006124628484610d7161237b565b60006125048215156004610f12565b82612511575060006104dc565b81600184038161251d57fe5b0460010190506104dc565b600082820261254284158061138f57508385838161138c57fe5b806125515760009150506104dc565b670de0b6b3a764000060001982015b046001019150506104dc565b60007f00000000000000000000000000000000000000000000000000000000000000006001600160a01b0316826001600160a01b031614156125cf57507f00000000000000000000000000000000000000000000000000000000000000006106d5565b7f00000000000000000000000000000000000000000000000000000000000000006001600160a01b0316826001600160a01b0316141561263057507f00000000000000000000000000000000000000000000000000000000000000006106d5565b7f00000000000000000000000000000000000000000000000000000000000000006001600160a01b0316826001600160a01b0316141561269157507f00000000000000000000000000000000000000000000000000000000000000006106d5565b7f00000000000000000000000000000000000000000000000000000000000000006001600160a01b0316826001600160a01b031614156126f257507f00000000000000000000000000000000000000000000000000000000000000006106d5565b7f00000000000000000000000000000000000000000000000000000000000000006001600160a01b0316826001600160a01b0316141561275357507f00000000000000000000000000000000000000000000000000000000000000006106d5565b7f00000000000000000000000000000000000000000000000000000000000000006001600160a01b0316826001600160a01b031614156127b457507f00000000000000000000000000000000000000000000000000000000000000006106d5565b7f00000000000000000000000000000000000000000000000000000000000000006001600160a01b0316826001600160a01b0316141561281557507f00000000000000000000000000000000000000000000000000000000000000006106d5565b7f00000000000000000000000000000000000000000000000000000000000000006001600160a01b0316826001600160a01b03161415611b3f57507f00000000000000000000000000000000000000000000000000000000000000006106d5565b600061289861288d87670429d069189e0000612a1e565b831115610130610f12565b60006128a48784610d71565b905060006128b2888361298d565b905060006128c08887611396565b905060006128ce8383612d83565b90506128e36128dc82612967565b8990612a1e565b9a9950505050505050505050565b600061291361290885670429d069189e0000612a1e565b831115610131610f12565b60006129296129228685610d83565b869061298d565b90506000612937858861298d565b905060006129458383612d83565b9050600061295b82670de0b6b3a7640000610d83565b90506128e38a82612528565b6000670de0b6b3a7640000821061297f5760006104dc565b50670de0b6b3a76400000390565b600061299c8215156004610f12565b826129a9575060006104dc565b670de0b6b3a7640000838102906129c3908583816113cc57fe5b82600182038161256057fe5b6000806129dc8484612daf565b905060006129f66129ef83612710612528565b6001610d71565b905080821015612a0b576000925050506104dc565b612a158282610d83565b925050506104dc565b6000828202612a3884158061138f57508385838161138c57fe5b670de0b6b3a764000090049392505050565b6000818060200190518101906104dc9190614266565b6060818060200190518101906105a1919061432b565b6000612a88631c74c91760e11b610797565b909114919050565b6000838311612aa157506000612372565b6000612aad858561298d565b90506000612ac3670de0b6b3a764000088611396565b9050612ad7826709b6e64a8ec60000612eba565b91506000612ae58383612d83565b90506000612afc612af583612967565b8b90612a1e565b90506128e38187612a1e565b60006060612b1461108c565b600080612b2085612ed1565b91509150612b38612b2f6110ff565b82106064610f12565b6060612b426110ff565b6001600160401b0381118015612b5757600080fd5b50604051908082528060200260200182016040528015612b81578160200160208202803683370190505b509050612bc0888381518110612b9357fe5b6020026020010151888481518110612ba757fe5b602002602001015185612bb86104f6565b600754612ef3565b818381518110612bcc57fe5b6020908102919091010152919791965090945050505050565b600060606000612bf484612fb0565b90506060612c0a8683612c056104f6565b612fc6565b9196919550909350505050565b60006060612c2361108c565b60606000612c3085613077565b91509150612c4182516106106110ff565b612c4d82610a5e6113e7565b6000612c65888885612c5d6104f6565b60075461308f565b9050612c758282111560cf610f12565b9791965090945050505050565b60006060806000612c9285613077565b91509150612ca8612ca16110ff565b8351610d64565b612cb482610a5e6113e7565b6000612ccc888885612cc46104f6565b6007546132b3565b9050612c758282101560d0610f12565b60006060600080612cec85612ed1565b91509150612cfb612b2f6110ff565b6060612d056110ff565b6001600160401b0381118015612d1a57600080fd5b50604051908082528060200260200182016040528015612d44578160200160208202803683370190505b509050612bc0888381518110612d5657fe5b6020026020010151888481518110612d6a57fe5b602002602001015185612d7b6104f6565b6007546134c3565b600080612d908484612daf565b90506000612da36129ef83612710612528565b90506123728282610d71565b600081612dc55750670de0b6b3a76400006104dc565b82612dd2575060006104dc565b612de3600160ff1b84106006610f12565b82612e09770bce5086492111aea88f4bb1ca6bcf584181ea8059f7653284106007610f12565b826000670c7d713b49da000083138015612e2a5750670f43fc2c04ee000083125b15612e61576000612e3a84613565565b9050670de0b6b3a764000080820784020583670de0b6b3a764000083050201915050612e6f565b81612e6b84613683565b0290505b670de0b6b3a76400009005612ea7680238fd42c5cf03ffff198212801590612ea0575068070c1cc73b00c800008213155b6008610f12565b612eb081613a22565b9695505050505050565b600081831015612eca57816105a1565b5090919050565b60008082806020019051810190612ee891906142f5565b909590945092505050565b600080612f0a84612f048188610d83565b9061298d565b9050612f236709b6e64a8ec60000821015610132610f12565b6000612f41612f3a670de0b6b3a764000089611396565b8390612d83565b90506000612f58612f5183612967565b8a90612a1e565b90506000612f6589612967565b90506000612f738383612528565b90506000612f818483610d83565b9050612fa0612f99612f928a612967565b8490612a1e565b8290610d71565b9c9b505050505050505050505050565b6000818060200190518101906105a191906142c8565b60606000612fd48484611396565b9050606085516001600160401b0381118015612fef57600080fd5b50604051908082528060200260200182016040528015613019578160200160208202803683370190505b50905060005b865181101561306d5761304e8388838151811061303857fe5b6020026020010151612a1e90919063ffffffff16565b82828151811061305a57fe5b602090810291909101015260010161301f565b5095945050505050565b6060600082806020019051810190612ee89190614282565b6000606084516001600160401b03811180156130aa57600080fd5b506040519080825280602002602001820160405280156130d4578160200160208202803683370190505b5090506000805b8851811015613199576131348982815181106130f357fe5b6020026020010151612f0489848151811061310a57fe5b60200260200101518c858151811061311e57fe5b6020026020010151610d8390919063ffffffff16565b83828151811061314057fe5b60200260200101818152505061318f61318889838151811061315e57fe5b602002602001015185848151811061317257fe5b602002602001015161252890919063ffffffff16565b8390610d71565b91506001016130db565b50670de0b6b3a764000060005b89518110156132925760008482815181106131bd57fe5b60200260200101518411156132145760006131e66131da86612967565b8d858151811061303857fe5b905060006131fa828c868151811061311e57fe5b905061320b613188611c108b612967565b9250505061322b565b88828151811061322057fe5b602002602001015190505b60006132548c848151811061323c57fe5b60200260200101516106b5848f878151811061311e57fe5b905061328661327f8c858151811061326857fe5b6020026020010151836129cf90919063ffffffff16565b8590612a1e565b935050506001016131a6565b506132a661329f82612967565b8790612528565b9998505050505050505050565b6000606084516001600160401b03811180156132ce57600080fd5b506040519080825280602002602001820160405280156132f8578160200160208202803683370190505b5090506000805b88518110156133a05761335889828151811061331757fe5b60200260200101516106b589848151811061332e57fe5b60200260200101518c858151811061334257fe5b6020026020010151610d7190919063ffffffff16565b83828151811061336457fe5b60200260200101818152505061339661318889838151811061338257fe5b602002602001015185848151811061303857fe5b91506001016132ff565b50670de0b6b3a764000060005b8951811015613481576000838583815181106133c557fe5b602002602001015111156134215760006133ea6131da86670de0b6b3a7640000610d83565b905060006133fe828c868151811061311e57fe5b9050613418613188611f3e670de0b6b3a76400008c610d83565b92505050613438565b88828151811061342d57fe5b602002602001015190505b60006134618c848151811061344957fe5b60200260200101516106b5848f878151811061334257fe5b905061347561327f8c858151811061326857fe5b935050506001016133ad565b50670de0b6b3a764000081106134b7576134ad6134a682670de0b6b3a7640000610d83565b8790612a1e565b9350505050612372565b60009350505050612372565b6000806134d484612f048188610d71565b90506134ed6729a2241af62c0000821115610133610f12565b6000613504612f3a670de0b6b3a76400008961298d565b9050600061352461351d83670de0b6b3a7640000610d83565b8a90612528565b9050600061353189612967565b9050600061353f8383612528565b9050600061354d8483610d83565b9050612fa0612f9961355e8a612967565b849061298d565b670de0b6b3a7640000026000806a0c097ce7bc90715b34b9f160241b808401906ec097ce7bc90715b34b9f0fffffffff19850102816135a057fe5b05905060006a0c097ce7bc90715b34b9f160241b82800205905081806a0c097ce7bc90715b34b9f160241b81840205915060038205016a0c097ce7bc90715b34b9f160241b82840205915060058205016a0c097ce7bc90715b34b9f160241b82840205915060078205016a0c097ce7bc90715b34b9f160241b82840205915060098205016a0c097ce7bc90715b34b9f160241b828402059150600b8205016a0c097ce7bc90715b34b9f160241b828402059150600d8205016a0c097ce7bc90715b34b9f160241b828402059150600f826002919005919091010295945050505050565b6000670de0b6b3a76400008212156136bf576136b5826a0c097ce7bc90715b34b9f160241b816136af57fe5b05613683565b60000390506106d5565b60007e1600ef3172e58d2e933ec884fde10064c63b5372d805e203c0000000000000831261371057770195e54c5dd42177f53a27172fa9ec630262827000000000830592506806f05b59d3b2000000015b73011798004d755d3c8bc8e03204cf44619e0000008312613748576b1425982cf597cd205cef7380830592506803782dace9d9000000015b606492830292026e01855144814a7ff805980ff00840008312613790576e01855144814a7ff805980ff008400068056bc75e2d63100000840205925068ad78ebc5ac62000000015b6b02df0ab5a80a22c61ab5a70083126137cb576b02df0ab5a80a22c61ab5a70068056bc75e2d6310000084020592506856bc75e2d631000000015b693f1fce3da636ea5cf850831261380257693f1fce3da636ea5cf85068056bc75e2d631000008402059250682b5e3af16b18800000015b690127fa27722cc06cc5e2831261383957690127fa27722cc06cc5e268056bc75e2d6310000084020592506815af1d78b58c400000015b68280e60114edb805d03831261386e5768280e60114edb805d0368056bc75e2d631000008402059250680ad78ebc5ac6200000015b680ebc5fb41746121110831261389957680ebc5fb4174612111068056bc75e2d631000009384020592015b6808f00f760a4b2db55d83126138ce576808f00f760a4b2db55d68056bc75e2d6310000084020592506802b5e3af16b1880000015b6806f5f17757889379378312613903576806f5f177578893793768056bc75e2d63100000840205925068015af1d78b58c40000015b6806248f33704b2866038312613937576806248f33704b28660368056bc75e2d63100000840205925067ad78ebc5ac620000015b6805c548670b9510e7ac831261396b576805c548670b9510e7ac68056bc75e2d6310000084020592506756bc75e2d6310000015b600068056bc75e2d63100000840168056bc75e2d63100000808603028161398e57fe5b059050600068056bc75e2d63100000828002059050818068056bc75e2d63100000818402059150600382050168056bc75e2d63100000828402059150600582050168056bc75e2d63100000828402059150600782050168056bc75e2d63100000828402059150600982050168056bc75e2d63100000828402059150600b820501600202606485820105979650505050505050565b6000613a51680238fd42c5cf03ffff198312158015613a4a575068070c1cc73b00c800008313155b6009610f12565b6000821215613a8457613a6682600003613a22565b6a0c097ce7bc90715b34b9f160241b81613a7c57fe5b0590506106d5565b60006806f05b59d3b20000008312613ac457506806f05b59d3b1ffffff1990910190770195e54c5dd42177f53a27172fa9ec630262827000000000613afa565b6803782dace9d90000008312613af657506803782dace9d8ffffff19909101906b1425982cf597cd205cef7380613afa565b5060015b6064929092029168056bc75e2d6310000068ad78ebc5ac620000008412613b4a5768ad78ebc5ac61ffffff199093019268056bc75e2d631000006e01855144814a7ff805980ff008400082020590505b6856bc75e2d6310000008412613b86576856bc75e2d630ffffff199093019268056bc75e2d631000006b02df0ab5a80a22c61ab5a70082020590505b682b5e3af16b188000008412613bc057682b5e3af16b187fffff199093019268056bc75e2d63100000693f1fce3da636ea5cf85082020590505b6815af1d78b58c4000008412613bfa576815af1d78b58c3fffff199093019268056bc75e2d63100000690127fa27722cc06cc5e282020590505b680ad78ebc5ac62000008412613c3357680ad78ebc5ac61fffff199093019268056bc75e2d6310000068280e60114edb805d0382020590505b68056bc75e2d631000008412613c6c5768056bc75e2d630fffff199093019268056bc75e2d63100000680ebc5fb4174612111082020590505b6802b5e3af16b18800008412613ca5576802b5e3af16b187ffff199093019268056bc75e2d631000006808f00f760a4b2db55d82020590505b68015af1d78b58c400008412613cde5768015af1d78b58c3ffff199093019268056bc75e2d631000006806f5f177578893793782020590505b68056bc75e2d631000008481019085906002908280020505918201919050600368056bc75e2d631000008783020505918201919050600468056bc75e2d631000008783020505918201919050600568056bc75e2d631000008783020505918201919050600668056bc75e2d631000008783020505918201919050600768056bc75e2d631000008783020505918201919050600868056bc75e2d631000008783020505918201919050600968056bc75e2d631000008783020505918201919050600a68056bc75e2d631000008783020505918201919050600b68056bc75e2d631000008783020505918201919050600c68056bc75e2d631000008783020505918201919050606468056bc75e2d63100000848402058502059695505050505050565b80356104dc816146dd565b600082601f830112613e1a578081fd5b8151613e2d613e28826146be565b614698565b818152915060208083019084810181840286018201871015613e4e57600080fd5b60005b84811015613e6d57815184529282019290820190600101613e51565b505050505092915050565b600082601f830112613e88578081fd5b81356001600160401b03811115613e9d578182fd5b613eb0601f8201601f1916602001614698565b9150808252836020828501011115613ec757600080fd5b8060208401602084013760009082016020015292915050565b8035600281106104dc57600080fd5b600060208284031215613f00578081fd5b81356105a1816146dd565b60008060408385031215613f1d578081fd5b8235613f28816146dd565b91506020830135613f38816146dd565b809150509250929050565b600080600060608486031215613f57578081fd5b8335613f62816146dd565b92506020840135613f72816146dd565b929592945050506040919091013590565b600080600080600080600060e0888a031215613f9d578283fd5b8735613fa8816146dd565b96506020880135613fb8816146dd565b95506040880135945060608801359350608088013560ff81168114613fdb578384fd5b9699959850939692959460a0840135945060c09093013592915050565b6000806040838503121561400a578182fd5b8235614015816146dd565b946020939093013593505050565b600080600060608486031215614037578081fd5b83516001600160401b038082111561404d578283fd5b818601915086601f830112614060578283fd5b815161406e613e28826146be565b80828252602080830192508086018b82838702890101111561408e578788fd5b8796505b848710156140b95780516140a5816146dd565b845260019690960195928101928101614092565b5089015190975093505050808211156140d0578283fd5b506140dd86828701613e0a565b925050604084015190509250925092565b6000602082840312156140ff578081fd5b81356105a1816146f2565b60006020828403121561411b578081fd5b81516105a1816146f2565b600080600080600080600060e0888a031215614140578081fd5b87359650602080890135614153816146dd565b96506040890135614163816146dd565b955060608901356001600160401b038082111561417e578384fd5b818b0191508b601f830112614191578384fd5b813561419f613e28826146be565b8082825285820191508585018f8788860288010111156141bd578788fd5b8795505b838610156141df5780358352600195909501949186019186016141c1565b509850505060808b0135955060a08b0135945060c08b0135925080831115614205578384fd5b50506142138a828b01613e78565b91505092959891949750929550565b600060208284031215614233578081fd5b81356001600160e01b0319811681146105a1578182fd5b60006020828403121561425b578081fd5b81516105a1816146dd565b600060208284031215614277578081fd5b81516105a181614700565b600080600060608486031215614296578081fd5b83516142a181614700565b60208501519093506001600160401b038111156142bc578182fd5b6140dd86828701613e0a565b600080604083850312156142da578182fd5b82516142e581614700565b6020939093015192949293505050565b600080600060608486031215614309578081fd5b835161431481614700565b602085015160409095015190969495509392505050565b6000806040838503121561433d578182fd5b825161434881614700565b60208401519092506001600160401b03811115614363578182fd5b61436f85828601613e0a565b9150509250929050565b60008060006060848603121561438d578081fd5b83356001600160401b03808211156143a3578283fd5b81860191506101208083890312156143b9578384fd5b6143c281614698565b90506143ce8884613ee0565b81526143dd8860208501613dff565b60208201526143ef8860408501613dff565b6040820152606083013560608201526080830135608082015260a083013560a082015261441f8860c08501613dff565b60c08201526144318860e08501613dff565b60e08201526101008084013583811115614449578586fd5b6144558a828701613e78565b9183019190915250976020870135975060409096013595945050505050565b600060208284031215614485578081fd5b5035919050565b6000815180845260208085019450808401835b838110156144bb5781518752958201959082019060010161449f565b509495945050505050565b9182526001600160e01b031916602082015260240190565b6000828483379101908152919050565b61190160f01b81526002810192909252602282015260420190565b6001600160a01b0391909116815260200190565b6000602082526105a1602083018461448c565b600060408252614543604083018561448c565b8281036020840152612372818561448c565b901515815260200190565b92151583526020830191909152604082015260600190565b90815260200190565b9283526001600160a01b03918216602084015216604082015260600190565b9586526001600160a01b0394851660208701529290931660408501526060840152608083019190915260a082015260c00190565b9485526020850193909352604084019190915260608301526001600160a01b0316608082015260a00190565b93845260ff9290921660208401526040830152606082015260800190565b6000602080835283518082850152825b8181101561464a5785810183015185820160400152820161462e565b8181111561465b5783604083870101525b50601f01601f1916929092016040019392505050565b600083825260406020830152611bad604083018461448c565b60ff91909116815260200190565b6040518181016001600160401b03811182821017156146b657600080fd5b604052919050565b60006001600160401b038211156146d3578081fd5b5060209081020190565b6001600160a01b03811681146104f357600080fd5b80151581146104f357600080fd5b600381106104f357600080fdfea264697066735822122031507a2be28a0c5724bf75e4e04aea90e035622406370e02c5ed9d40a7b432ed64736f6c63430007010033",
			"opcodes": "PUSH2 0x500 PUSH1 0x40 MSTORE PUSH32 0x6E71EDAE12B1B97F4D1F60370FEF10105FA2FAAE0126114A169C64845D6126C9 PUSH2 0x120 MSTORE CALLVALUE DUP1 ISZERO PUSH3 0x37 JUMPI PUSH1 0x0 DUP1 REVERT JUMPDEST POP PUSH1 0x40 MLOAD PUSH3 0x588B CODESIZE SUB DUP1 PUSH3 0x588B DUP4 CODECOPY DUP2 ADD PUSH1 0x40 DUP2 SWAP1 MSTORE PUSH3 0x5A SWAP2 PUSH3 0xCF2 JUMP JUMPDEST DUP9 DUP9 DUP9 DUP9 DUP8 DUP8 DUP8 DUP8 DUP8 DUP6 MLOAD PUSH1 0x2 EQ PUSH3 0x75 JUMPI PUSH1 0x1 PUSH3 0x78 JUMP JUMPDEST PUSH1 0x2 JUMPDEST PUSH1 0x40 DUP1 MLOAD DUP1 DUP3 ADD SWAP1 SWAP2 MSTORE PUSH1 0x1 DUP2 MSTORE PUSH1 0x31 PUSH1 0xF8 SHL PUSH1 0x20 DUP1 DUP4 ADD SWAP2 DUP3 MSTORE CALLER PUSH1 0x80 MSTORE PUSH1 0x1 PUSH1 0x1 PUSH1 0x60 SHL SUB NOT PUSH1 0x60 DUP8 SWAP1 SHL AND PUSH1 0xA0 MSTORE DUP12 MLOAD SWAP1 DUP13 ADD SWAP1 DUP2 KECCAK256 PUSH1 0xC0 MSTORE SWAP2 MLOAD SWAP1 KECCAK256 PUSH1 0xE0 MSTORE PUSH32 0x8B73C3C69BB8FE3D512ECC4CF759CC79239F7B179B0FFACAA9A75D522B39400F PUSH2 0x100 MSTORE DUP10 MLOAD DUP11 SWAP2 DUP11 SWAP2 DUP11 SWAP2 DUP11 SWAP2 DUP11 SWAP2 DUP11 SWAP2 DUP11 SWAP2 DUP5 SWAP2 DUP5 SWAP2 DUP11 SWAP2 DUP11 SWAP2 PUSH3 0x107 SWAP2 PUSH1 0x3 SWAP2 SWAP1 PUSH3 0xABB JUMP JUMPDEST POP DUP1 MLOAD PUSH3 0x11D SWAP1 PUSH1 0x4 SWAP1 PUSH1 0x20 DUP5 ADD SWAP1 PUSH3 0xABB JUMP JUMPDEST POP PUSH3 0x135 SWAP2 POP POP PUSH3 0x76A700 DUP4 GT ISZERO PUSH2 0x194 PUSH3 0x865 JUMP JUMPDEST PUSH3 0x149 PUSH3 0x278D00 DUP3 GT ISZERO PUSH2 0x195 PUSH3 0x865 JUMP JUMPDEST TIMESTAMP SWAP1 SWAP2 ADD PUSH2 0x140 DUP2 SWAP1 MSTORE ADD PUSH2 0x160 MSTORE DUP5 MLOAD PUSH3 0x16B SWAP1 PUSH1 0x2 GT ISZERO PUSH1 0xC8 PUSH3 0x865 JUMP JUMPDEST PUSH3 0x183 PUSH1 0x8 DUP7 MLOAD GT ISZERO PUSH1 0xC9 PUSH3 0x865 PUSH1 0x20 SHL PUSH1 0x20 SHR JUMP JUMPDEST PUSH3 0x199 DUP6 PUSH3 0x87A PUSH1 0x20 SHL PUSH3 0xD56 OR PUSH1 0x20 SHR JUMP JUMPDEST PUSH3 0x1A4 DUP5 PUSH3 0x886 JUMP JUMPDEST PUSH1 0x40 MLOAD PUSH4 0x9B2760F PUSH1 0xE0 SHL DUP2 MSTORE PUSH1 0x0 SWAP1 PUSH1 0x1 PUSH1 0x1 PUSH1 0xA0 SHL SUB DUP12 AND SWAP1 PUSH4 0x9B2760F SWAP1 PUSH3 0x1D5 SWAP1 DUP13 SWAP1 PUSH1 0x4 ADD PUSH3 0xEAB JUMP JUMPDEST PUSH1 0x20 PUSH1 0x40 MLOAD DUP1 DUP4 SUB DUP2 PUSH1 0x0 DUP8 DUP1 EXTCODESIZE ISZERO DUP1 ISZERO PUSH3 0x1F0 JUMPI PUSH1 0x0 DUP1 REVERT JUMPDEST POP GAS CALL ISZERO DUP1 ISZERO PUSH3 0x205 JUMPI RETURNDATASIZE PUSH1 0x0 DUP1 RETURNDATACOPY RETURNDATASIZE PUSH1 0x0 REVERT JUMPDEST POP POP POP POP PUSH1 0x40 MLOAD RETURNDATASIZE PUSH1 0x1F NOT PUSH1 0x1F DUP3 ADD AND DUP3 ADD DUP1 PUSH1 0x40 MSTORE POP DUP2 ADD SWAP1 PUSH3 0x22B SWAP2 SWAP1 PUSH3 0xCD9 JUMP JUMPDEST SWAP1 POP DUP10 PUSH1 0x1 PUSH1 0x1 PUSH1 0xA0 SHL SUB AND PUSH4 0x66A9C7D2 DUP3 DUP9 DUP10 MLOAD PUSH1 0x1 PUSH1 0x1 PUSH1 0x40 SHL SUB DUP2 GT DUP1 ISZERO PUSH3 0x256 JUMPI PUSH1 0x0 DUP1 REVERT JUMPDEST POP PUSH1 0x40 MLOAD SWAP1 DUP1 DUP3 MSTORE DUP1 PUSH1 0x20 MUL PUSH1 0x20 ADD DUP3 ADD PUSH1 0x40 MSTORE DUP1 ISZERO PUSH3 0x281 JUMPI DUP2 PUSH1 0x20 ADD PUSH1 0x20 DUP3 MUL DUP1 CALLDATASIZE DUP4 CALLDATACOPY ADD SWAP1 POP JUMPDEST POP PUSH1 0x40 MLOAD DUP5 PUSH4 0xFFFFFFFF AND PUSH1 0xE0 SHL DUP2 MSTORE PUSH1 0x4 ADD PUSH3 0x2A2 SWAP4 SWAP3 SWAP2 SWAP1 PUSH3 0xE0F JUMP JUMPDEST PUSH1 0x0 PUSH1 0x40 MLOAD DUP1 DUP4 SUB DUP2 PUSH1 0x0 DUP8 DUP1 EXTCODESIZE ISZERO DUP1 ISZERO PUSH3 0x2BD JUMPI PUSH1 0x0 DUP1 REVERT JUMPDEST POP GAS CALL ISZERO DUP1 ISZERO PUSH3 0x2D2 JUMPI RETURNDATASIZE PUSH1 0x0 DUP1 RETURNDATACOPY RETURNDATASIZE PUSH1 0x0 REVERT JUMPDEST POP POP POP PUSH1 0x1 PUSH1 0x1 PUSH1 0x60 SHL SUB NOT PUSH1 0x60 DUP13 SWAP1 SHL AND PUSH2 0x180 MSTORE POP PUSH2 0x1A0 DUP2 SWAP1 MSTORE DUP6 MLOAD PUSH2 0x1C0 MSTORE DUP6 MLOAD PUSH3 0x304 JUMPI PUSH1 0x0 PUSH3 0x31B JUMP JUMPDEST DUP6 PUSH1 0x0 DUP2 MLOAD DUP2 LT PUSH3 0x312 JUMPI INVALID JUMPDEST PUSH1 0x20 MUL PUSH1 0x20 ADD ADD MLOAD JUMPDEST PUSH1 0x60 SHL PUSH1 0x1 PUSH1 0x1 PUSH1 0x60 SHL SUB NOT AND PUSH2 0x1E0 MSTORE DUP6 MLOAD PUSH1 0x1 LT PUSH3 0x33E JUMPI PUSH1 0x0 PUSH3 0x355 JUMP JUMPDEST DUP6 PUSH1 0x1 DUP2 MLOAD DUP2 LT PUSH3 0x34C JUMPI INVALID JUMPDEST PUSH1 0x20 MUL PUSH1 0x20 ADD ADD MLOAD JUMPDEST PUSH1 0x60 SHL PUSH1 0x1 PUSH1 0x1 PUSH1 0x60 SHL SUB NOT AND PUSH2 0x200 MSTORE DUP6 MLOAD PUSH1 0x2 LT PUSH3 0x378 JUMPI PUSH1 0x0 PUSH3 0x38F JUMP JUMPDEST DUP6 PUSH1 0x2 DUP2 MLOAD DUP2 LT PUSH3 0x386 JUMPI INVALID JUMPDEST PUSH1 0x20 MUL PUSH1 0x20 ADD ADD MLOAD JUMPDEST PUSH1 0x60 SHL PUSH1 0x1 PUSH1 0x1 PUSH1 0x60 SHL SUB NOT AND PUSH2 0x220 MSTORE DUP6 MLOAD PUSH1 0x3 LT PUSH3 0x3B2 JUMPI PUSH1 0x0 PUSH3 0x3C9 JUMP JUMPDEST DUP6 PUSH1 0x3 DUP2 MLOAD DUP2 LT PUSH3 0x3C0 JUMPI INVALID JUMPDEST PUSH1 0x20 MUL PUSH1 0x20 ADD ADD MLOAD JUMPDEST PUSH1 0x60 SHL PUSH1 0x1 PUSH1 0x1 PUSH1 0x60 SHL SUB NOT AND PUSH2 0x240 MSTORE DUP6 MLOAD PUSH1 0x4 LT PUSH3 0x3EC JUMPI PUSH1 0x0 PUSH3 0x403 JUMP JUMPDEST DUP6 PUSH1 0x4 DUP2 MLOAD DUP2 LT PUSH3 0x3FA JUMPI INVALID JUMPDEST PUSH1 0x20 MUL PUSH1 0x20 ADD ADD MLOAD JUMPDEST PUSH1 0x60 SHL PUSH1 0x1 PUSH1 0x1 PUSH1 0x60 SHL SUB NOT AND PUSH2 0x260 MSTORE DUP6 MLOAD PUSH1 0x5 LT PUSH3 0x426 JUMPI PUSH1 0x0 PUSH3 0x43D JUMP JUMPDEST DUP6 PUSH1 0x5 DUP2 MLOAD DUP2 LT PUSH3 0x434 JUMPI INVALID JUMPDEST PUSH1 0x20 MUL PUSH1 0x20 ADD ADD MLOAD JUMPDEST PUSH1 0x60 SHL PUSH1 0x1 PUSH1 0x1 PUSH1 0x60 SHL SUB NOT AND PUSH2 0x280 MSTORE DUP6 MLOAD PUSH1 0x6 LT PUSH3 0x460 JUMPI PUSH1 0x0 PUSH3 0x477 JUMP JUMPDEST DUP6 PUSH1 0x6 DUP2 MLOAD DUP2 LT PUSH3 0x46E JUMPI INVALID JUMPDEST PUSH1 0x20 MUL PUSH1 0x20 ADD ADD MLOAD JUMPDEST PUSH1 0x60 SHL PUSH1 0x1 PUSH1 0x1 PUSH1 0x60 SHL SUB NOT AND PUSH2 0x2A0 MSTORE DUP6 MLOAD PUSH1 0x7 LT PUSH3 0x49A JUMPI PUSH1 0x0 PUSH3 0x4B1 JUMP JUMPDEST DUP6 PUSH1 0x7 DUP2 MLOAD DUP2 LT PUSH3 0x4A8 JUMPI INVALID JUMPDEST PUSH1 0x20 MUL PUSH1 0x20 ADD ADD MLOAD JUMPDEST PUSH1 0x60 SHL PUSH1 0x1 PUSH1 0x1 PUSH1 0x60 SHL SUB NOT AND PUSH2 0x2C0 MSTORE DUP6 MLOAD PUSH3 0x4D1 JUMPI PUSH1 0x0 PUSH3 0x4F7 JUMP JUMPDEST PUSH3 0x4F7 DUP7 PUSH1 0x0 DUP2 MLOAD DUP2 LT PUSH3 0x4E3 JUMPI INVALID JUMPDEST PUSH1 0x20 MUL PUSH1 0x20 ADD ADD MLOAD PUSH3 0x8F5 PUSH1 0x20 SHL PUSH1 0x20 SHR JUMP JUMPDEST PUSH2 0x2E0 MSTORE DUP6 MLOAD PUSH1 0x1 LT PUSH3 0x50D JUMPI PUSH1 0x0 PUSH3 0x51F JUMP JUMPDEST PUSH3 0x51F DUP7 PUSH1 0x1 DUP2 MLOAD DUP2 LT PUSH3 0x4E3 JUMPI INVALID JUMPDEST PUSH2 0x300 MSTORE DUP6 MLOAD PUSH1 0x2 LT PUSH3 0x535 JUMPI PUSH1 0x0 PUSH3 0x547 JUMP JUMPDEST PUSH3 0x547 DUP7 PUSH1 0x2 DUP2 MLOAD DUP2 LT PUSH3 0x4E3 JUMPI INVALID JUMPDEST PUSH2 0x320 MSTORE DUP6 MLOAD PUSH1 0x3 LT PUSH3 0x55D JUMPI PUSH1 0x0 PUSH3 0x56F JUMP JUMPDEST PUSH3 0x56F DUP7 PUSH1 0x3 DUP2 MLOAD DUP2 LT PUSH3 0x4E3 JUMPI INVALID JUMPDEST PUSH2 0x340 MSTORE DUP6 MLOAD PUSH1 0x4 LT PUSH3 0x585 JUMPI PUSH1 0x0 PUSH3 0x597 JUMP JUMPDEST PUSH3 0x597 DUP7 PUSH1 0x4 DUP2 MLOAD DUP2 LT PUSH3 0x4E3 JUMPI INVALID JUMPDEST PUSH2 0x360 MSTORE DUP6 MLOAD PUSH1 0x5 LT PUSH3 0x5AD JUMPI PUSH1 0x0 PUSH3 0x5BF JUMP JUMPDEST PUSH3 0x5BF DUP7 PUSH1 0x5 DUP2 MLOAD DUP2 LT PUSH3 0x4E3 JUMPI INVALID JUMPDEST PUSH2 0x380 MSTORE DUP6 MLOAD PUSH1 0x6 LT PUSH3 0x5D5 JUMPI PUSH1 0x0 PUSH3 0x5E7 JUMP JUMPDEST PUSH3 0x5E7 DUP7 PUSH1 0x6 DUP2 MLOAD DUP2 LT PUSH3 0x4E3 JUMPI INVALID JUMPDEST PUSH2 0x3A0 MSTORE DUP6 MLOAD PUSH1 0x7 LT PUSH3 0x5FD JUMPI PUSH1 0x0 PUSH3 0x60F JUMP JUMPDEST PUSH3 0x60F DUP7 PUSH1 0x7 DUP2 MLOAD DUP2 LT PUSH3 0x4E3 JUMPI INVALID JUMPDEST PUSH2 0x3C0 DUP2 DUP2 MSTORE POP POP POP POP POP POP POP POP POP POP POP POP POP POP POP POP POP POP POP POP PUSH1 0x0 DUP7 MLOAD SWAP1 POP PUSH3 0x647 DUP2 DUP8 MLOAD PUSH3 0x997 PUSH1 0x20 SHL PUSH3 0xD64 OR PUSH1 0x20 SHR JUMP JUMPDEST PUSH1 0x0 DUP1 PUSH1 0x0 DUP1 JUMPDEST DUP5 DUP2 PUSH1 0xFF AND LT ISZERO PUSH3 0x6CD JUMPI PUSH1 0x0 DUP11 DUP3 PUSH1 0xFF AND DUP2 MLOAD DUP2 LT PUSH3 0x66C JUMPI INVALID JUMPDEST PUSH1 0x20 MUL PUSH1 0x20 ADD ADD MLOAD SWAP1 POP PUSH3 0x694 PUSH7 0x2386F26FC10000 DUP3 LT ISZERO PUSH2 0x12E PUSH3 0x865 PUSH1 0x20 SHL PUSH1 0x20 SHR JUMP JUMPDEST PUSH3 0x6AE DUP2 DUP7 PUSH3 0x9A6 PUSH1 0x20 SHL PUSH3 0xD71 OR SWAP1 SWAP2 SWAP1 PUSH1 0x20 SHR JUMP JUMPDEST SWAP5 POP DUP3 DUP2 GT ISZERO PUSH3 0x6C3 JUMPI DUP2 PUSH1 0xFF AND SWAP4 POP DUP1 SWAP3 POP JUMPDEST POP PUSH1 0x1 ADD PUSH3 0x64E JUMP JUMPDEST POP PUSH3 0x6E6 PUSH8 0xDE0B6B3A7640000 DUP5 EQ PUSH2 0x134 PUSH3 0x865 JUMP JUMPDEST PUSH2 0x3E0 DUP3 SWAP1 MSTORE DUP9 MLOAD PUSH3 0x6FB JUMPI PUSH1 0x0 PUSH3 0x712 JUMP JUMPDEST DUP9 PUSH1 0x0 DUP2 MLOAD DUP2 LT PUSH3 0x709 JUMPI INVALID JUMPDEST PUSH1 0x20 MUL PUSH1 0x20 ADD ADD MLOAD JUMPDEST PUSH2 0x400 MSTORE DUP9 MLOAD PUSH1 0x1 LT PUSH3 0x728 JUMPI PUSH1 0x0 PUSH3 0x73F JUMP JUMPDEST DUP9 PUSH1 0x1 DUP2 MLOAD DUP2 LT PUSH3 0x736 JUMPI INVALID JUMPDEST PUSH1 0x20 MUL PUSH1 0x20 ADD ADD MLOAD JUMPDEST PUSH2 0x420 MSTORE DUP9 MLOAD PUSH1 0x2 LT PUSH3 0x755 JUMPI PUSH1 0x0 PUSH3 0x76C JUMP JUMPDEST DUP9 PUSH1 0x2 DUP2 MLOAD DUP2 LT PUSH3 0x763 JUMPI INVALID JUMPDEST PUSH1 0x20 MUL PUSH1 0x20 ADD ADD MLOAD JUMPDEST PUSH2 0x440 MSTORE DUP9 MLOAD PUSH1 0x3 LT PUSH3 0x782 JUMPI PUSH1 0x0 PUSH3 0x799 JUMP JUMPDEST DUP9 PUSH1 0x3 DUP2 MLOAD DUP2 LT PUSH3 0x790 JUMPI INVALID JUMPDEST PUSH1 0x20 MUL PUSH1 0x20 ADD ADD MLOAD JUMPDEST PUSH2 0x460 MSTORE DUP9 MLOAD PUSH1 0x4 LT PUSH3 0x7AF JUMPI PUSH1 0x0 PUSH3 0x7C6 JUMP JUMPDEST DUP9 PUSH1 0x4 DUP2 MLOAD DUP2 LT PUSH3 0x7BD JUMPI INVALID JUMPDEST PUSH1 0x20 MUL PUSH1 0x20 ADD ADD MLOAD JUMPDEST PUSH2 0x480 MSTORE DUP9 MLOAD PUSH1 0x5 LT PUSH3 0x7DC JUMPI PUSH1 0x0 PUSH3 0x7F3 JUMP JUMPDEST DUP9 PUSH1 0x5 DUP2 MLOAD DUP2 LT PUSH3 0x7EA JUMPI INVALID JUMPDEST PUSH1 0x20 MUL PUSH1 0x20 ADD ADD MLOAD JUMPDEST PUSH2 0x4A0 MSTORE DUP9 MLOAD PUSH1 0x6 LT PUSH3 0x809 JUMPI PUSH1 0x0 PUSH3 0x820 JUMP JUMPDEST DUP9 PUSH1 0x6 DUP2 MLOAD DUP2 LT PUSH3 0x817 JUMPI INVALID JUMPDEST PUSH1 0x20 MUL PUSH1 0x20 ADD ADD MLOAD JUMPDEST PUSH2 0x4C0 MSTORE DUP9 MLOAD PUSH1 0x7 LT PUSH3 0x836 JUMPI PUSH1 0x0 PUSH3 0x84D JUMP JUMPDEST DUP9 PUSH1 0x7 DUP2 MLOAD DUP2 LT PUSH3 0x844 JUMPI INVALID JUMPDEST PUSH1 0x20 MUL PUSH1 0x20 ADD ADD MLOAD JUMPDEST PUSH2 0x4E0 MSTORE POP PUSH3 0xF32 SWAP12 POP POP POP POP POP POP POP POP POP POP POP POP JUMP JUMPDEST DUP2 PUSH3 0x876 JUMPI PUSH3 0x876 DUP2 PUSH3 0x9C3 JUMP JUMPDEST POP POP JUMP JUMPDEST DUP1 PUSH3 0x876 DUP2 PUSH3 0xA16 JUMP JUMPDEST PUSH3 0x89B PUSH5 0xE8D4A51000 DUP3 LT ISZERO PUSH1 0xCB PUSH3 0x865 JUMP JUMPDEST PUSH3 0x8B3 PUSH8 0x16345785D8A0000 DUP3 GT ISZERO PUSH1 0xCA PUSH3 0x865 JUMP JUMPDEST PUSH1 0x7 DUP2 SWAP1 SSTORE PUSH1 0x40 MLOAD PUSH32 0xA9BA3FFE0B6C366B81232CAAB38605A0699AD5398D6CCE76F91EE809E322DAFC SWAP1 PUSH3 0x8EA SWAP1 DUP4 SWAP1 PUSH3 0xEC0 JUMP JUMPDEST PUSH1 0x40 MLOAD DUP1 SWAP2 SUB SWAP1 LOG1 POP JUMP JUMPDEST PUSH1 0x0 DUP1 DUP3 PUSH1 0x1 PUSH1 0x1 PUSH1 0xA0 SHL SUB AND PUSH4 0x313CE567 PUSH1 0x40 MLOAD DUP2 PUSH4 0xFFFFFFFF AND PUSH1 0xE0 SHL DUP2 MSTORE PUSH1 0x4 ADD PUSH1 0x20 PUSH1 0x40 MLOAD DUP1 DUP4 SUB DUP2 DUP7 DUP1 EXTCODESIZE ISZERO DUP1 ISZERO PUSH3 0x932 JUMPI PUSH1 0x0 DUP1 REVERT JUMPDEST POP GAS STATICCALL ISZERO DUP1 ISZERO PUSH3 0x947 JUMPI RETURNDATASIZE PUSH1 0x0 DUP1 RETURNDATACOPY RETURNDATASIZE PUSH1 0x0 REVERT JUMPDEST POP POP POP POP PUSH1 0x40 MLOAD RETURNDATASIZE PUSH1 0x1F NOT PUSH1 0x1F DUP3 ADD AND DUP3 ADD DUP1 PUSH1 0x40 MSTORE POP DUP2 ADD SWAP1 PUSH3 0x96D SWAP2 SWAP1 PUSH3 0xDEC JUMP JUMPDEST PUSH1 0xFF AND SWAP1 POP PUSH1 0x0 PUSH3 0x98C PUSH1 0x12 DUP4 PUSH3 0xAA3 PUSH1 0x20 SHL PUSH3 0xD83 OR PUSH1 0x20 SHR JUMP JUMPDEST PUSH1 0xA EXP SWAP5 SWAP4 POP POP POP POP JUMP JUMPDEST PUSH3 0x876 DUP3 DUP3 EQ PUSH1 0x67 PUSH3 0x865 JUMP JUMPDEST PUSH1 0x0 DUP3 DUP3 ADD PUSH3 0x9BA DUP5 DUP3 LT ISZERO DUP4 PUSH3 0x865 JUMP JUMPDEST SWAP1 POP JUMPDEST SWAP3 SWAP2 POP POP JUMP JUMPDEST PUSH3 0x461BCD PUSH1 0xE5 SHL PUSH1 0x0 SWAP1 DUP2 MSTORE PUSH1 0x20 PUSH1 0x4 MSTORE PUSH1 0x7 PUSH1 0x24 MSTORE PUSH7 0x42414C23000030 PUSH1 0xA DUP1 DUP5 DIV DUP2 DUP2 MOD PUSH1 0x30 SWAP1 DUP2 ADD PUSH1 0x8 SHL SWAP6 DUP4 SWAP1 MOD SWAP6 SWAP1 SWAP6 ADD SWAP1 DUP3 SWAP1 DIV SWAP2 DUP3 MOD SWAP1 SWAP5 ADD PUSH1 0x10 SHL SWAP4 SWAP1 SWAP4 ADD ADD PUSH1 0xC8 SHL PUSH1 0x44 MSTORE PUSH1 0x64 SWAP1 REVERT JUMPDEST PUSH1 0x2 DUP2 MLOAD LT ISZERO PUSH3 0xA27 JUMPI PUSH3 0xAA0 JUMP JUMPDEST PUSH1 0x0 DUP2 PUSH1 0x0 DUP2 MLOAD DUP2 LT PUSH3 0xA37 JUMPI INVALID JUMPDEST PUSH1 0x20 MUL PUSH1 0x20 ADD ADD MLOAD SWAP1 POP PUSH1 0x0 PUSH1 0x1 SWAP1 POP JUMPDEST DUP3 MLOAD DUP2 LT ISZERO PUSH3 0xA9D JUMPI PUSH1 0x0 DUP4 DUP3 DUP2 MLOAD DUP2 LT PUSH3 0xA61 JUMPI INVALID JUMPDEST PUSH1 0x20 MUL PUSH1 0x20 ADD ADD MLOAD SWAP1 POP PUSH3 0xA92 DUP2 PUSH1 0x1 PUSH1 0x1 PUSH1 0xA0 SHL SUB AND DUP5 PUSH1 0x1 PUSH1 0x1 PUSH1 0xA0 SHL SUB AND LT PUSH1 0x65 PUSH3 0x865 PUSH1 0x20 SHL PUSH1 0x20 SHR JUMP JUMPDEST SWAP2 POP PUSH1 0x1 ADD PUSH3 0xA48 JUMP JUMPDEST POP POP JUMPDEST POP JUMP JUMPDEST PUSH1 0x0 PUSH3 0xAB5 DUP4 DUP4 GT ISZERO PUSH1 0x1 PUSH3 0x865 JUMP JUMPDEST POP SWAP1 SUB SWAP1 JUMP JUMPDEST DUP3 DUP1 SLOAD PUSH1 0x1 DUP2 PUSH1 0x1 AND ISZERO PUSH2 0x100 MUL SUB AND PUSH1 0x2 SWAP1 DIV SWAP1 PUSH1 0x0 MSTORE PUSH1 0x20 PUSH1 0x0 KECCAK256 SWAP1 PUSH1 0x1F ADD PUSH1 0x20 SWAP1 DIV DUP2 ADD SWAP3 DUP3 PUSH1 0x1F LT PUSH3 0xAFE JUMPI DUP1 MLOAD PUSH1 0xFF NOT AND DUP4 DUP1 ADD OR DUP6 SSTORE PUSH3 0xB2E JUMP JUMPDEST DUP3 DUP1 ADD PUSH1 0x1 ADD DUP6 SSTORE DUP3 ISZERO PUSH3 0xB2E JUMPI SWAP2 DUP3 ADD JUMPDEST DUP3 DUP2 GT ISZERO PUSH3 0xB2E JUMPI DUP3 MLOAD DUP3 SSTORE SWAP2 PUSH1 0x20 ADD SWAP2 SWAP1 PUSH1 0x1 ADD SWAP1 PUSH3 0xB11 JUMP JUMPDEST POP PUSH3 0xB3C SWAP3 SWAP2 POP PUSH3 0xB40 JUMP JUMPDEST POP SWAP1 JUMP JUMPDEST JUMPDEST DUP1 DUP3 GT ISZERO PUSH3 0xB3C JUMPI PUSH1 0x0 DUP2 SSTORE PUSH1 0x1 ADD PUSH3 0xB41 JUMP JUMPDEST DUP1 MLOAD PUSH3 0x9BD DUP2 PUSH3 0xF1C JUMP JUMPDEST PUSH1 0x0 DUP3 PUSH1 0x1F DUP4 ADD SLT PUSH3 0xB75 JUMPI DUP1 DUP2 REVERT JUMPDEST DUP2 MLOAD PUSH3 0xB8C PUSH3 0xB86 DUP3 PUSH3 0xEF0 JUMP JUMPDEST PUSH3 0xEC9 JUMP JUMPDEST DUP2 DUP2 MSTORE SWAP2 POP PUSH1 0x20 DUP1 DUP4 ADD SWAP1 DUP5 DUP2 ADD DUP2 DUP5 MUL DUP7 ADD DUP3 ADD DUP8 LT ISZERO PUSH3 0xBAE JUMPI PUSH1 0x0 DUP1 REVERT JUMPDEST PUSH1 0x0 JUMPDEST DUP5 DUP2 LT ISZERO PUSH3 0xBDA JUMPI DUP2 MLOAD PUSH3 0xBC7 DUP2 PUSH3 0xF1C JUMP JUMPDEST DUP5 MSTORE SWAP3 DUP3 ADD SWAP3 SWAP1 DUP3 ADD SWAP1 PUSH1 0x1 ADD PUSH3 0xBB1 JUMP JUMPDEST POP POP POP POP POP SWAP3 SWAP2 POP POP JUMP JUMPDEST PUSH1 0x0 DUP3 PUSH1 0x1F DUP4 ADD SLT PUSH3 0xBF6 JUMPI DUP1 DUP2 REVERT JUMPDEST DUP2 MLOAD PUSH3 0xC07 PUSH3 0xB86 DUP3 PUSH3 0xEF0 JUMP JUMPDEST DUP2 DUP2 MSTORE SWAP2 POP PUSH1 0x20 DUP1 DUP4 ADD SWAP1 DUP5 DUP2 ADD DUP2 DUP5 MUL DUP7 ADD DUP3 ADD DUP8 LT ISZERO PUSH3 0xC29 JUMPI PUSH1 0x0 DUP1 REVERT JUMPDEST PUSH1 0x0 JUMPDEST DUP5 DUP2 LT ISZERO PUSH3 0xBDA JUMPI DUP2 MLOAD DUP5 MSTORE SWAP3 DUP3 ADD SWAP3 SWAP1 DUP3 ADD SWAP1 PUSH1 0x1 ADD PUSH3 0xC2C JUMP JUMPDEST PUSH1 0x0 DUP3 PUSH1 0x1F DUP4 ADD SLT PUSH3 0xC5B JUMPI DUP1 DUP2 REVERT JUMPDEST DUP2 MLOAD PUSH1 0x1 PUSH1 0x1 PUSH1 0x40 SHL SUB DUP2 GT ISZERO PUSH3 0xC71 JUMPI DUP2 DUP3 REVERT JUMPDEST PUSH1 0x20 PUSH3 0xC87 PUSH1 0x1F DUP4 ADD PUSH1 0x1F NOT AND DUP3 ADD PUSH3 0xEC9 JUMP JUMPDEST SWAP3 POP DUP2 DUP4 MSTORE DUP5 DUP2 DUP4 DUP7 ADD ADD GT ISZERO PUSH3 0xC9E JUMPI PUSH1 0x0 DUP1 REVERT JUMPDEST PUSH1 0x0 JUMPDEST DUP3 DUP2 LT ISZERO PUSH3 0xCBE JUMPI DUP5 DUP2 ADD DUP3 ADD MLOAD DUP5 DUP3 ADD DUP4 ADD MSTORE DUP2 ADD PUSH3 0xCA1 JUMP JUMPDEST DUP3 DUP2 GT ISZERO PUSH3 0xCD0 JUMPI PUSH1 0x0 DUP3 DUP5 DUP7 ADD ADD MSTORE JUMPDEST POP POP POP SWAP3 SWAP2 POP POP JUMP JUMPDEST PUSH1 0x0 PUSH1 0x20 DUP3 DUP5 SUB SLT ISZERO PUSH3 0xCEB JUMPI DUP1 DUP2 REVERT JUMPDEST POP MLOAD SWAP2 SWAP1 POP JUMP JUMPDEST PUSH1 0x0 DUP1 PUSH1 0x0 DUP1 PUSH1 0x0 DUP1 PUSH1 0x0 DUP1 PUSH1 0x0 PUSH2 0x120 DUP11 DUP13 SUB SLT ISZERO PUSH3 0xD11 JUMPI DUP5 DUP6 REVERT JUMPDEST PUSH3 0xD1D DUP12 DUP12 PUSH3 0xB57 JUMP JUMPDEST PUSH1 0x20 DUP12 ADD MLOAD SWAP1 SWAP10 POP PUSH1 0x1 PUSH1 0x1 PUSH1 0x40 SHL SUB DUP1 DUP3 GT ISZERO PUSH3 0xD3A JUMPI DUP7 DUP8 REVERT JUMPDEST PUSH3 0xD48 DUP14 DUP4 DUP15 ADD PUSH3 0xC4A JUMP JUMPDEST SWAP10 POP PUSH1 0x40 DUP13 ADD MLOAD SWAP2 POP DUP1 DUP3 GT ISZERO PUSH3 0xD5E JUMPI DUP7 DUP8 REVERT JUMPDEST PUSH3 0xD6C DUP14 DUP4 DUP15 ADD PUSH3 0xC4A JUMP JUMPDEST SWAP9 POP PUSH1 0x60 DUP13 ADD MLOAD SWAP2 POP DUP1 DUP3 GT ISZERO PUSH3 0xD82 JUMPI DUP7 DUP8 REVERT JUMPDEST PUSH3 0xD90 DUP14 DUP4 DUP15 ADD PUSH3 0xB64 JUMP JUMPDEST SWAP8 POP PUSH1 0x80 DUP13 ADD MLOAD SWAP2 POP DUP1 DUP3 GT ISZERO PUSH3 0xDA6 JUMPI DUP7 DUP8 REVERT JUMPDEST POP PUSH3 0xDB5 DUP13 DUP3 DUP14 ADD PUSH3 0xBE5 JUMP JUMPDEST SWAP6 POP POP PUSH1 0xA0 DUP11 ADD MLOAD SWAP4 POP PUSH1 0xC0 DUP11 ADD MLOAD SWAP3 POP PUSH1 0xE0 DUP11 ADD MLOAD SWAP2 POP PUSH3 0xDDD DUP12 PUSH2 0x100 DUP13 ADD PUSH3 0xB57 JUMP JUMPDEST SWAP1 POP SWAP3 SWAP6 SWAP9 POP SWAP3 SWAP6 SWAP9 POP SWAP3 SWAP6 SWAP9 JUMP JUMPDEST PUSH1 0x0 PUSH1 0x20 DUP3 DUP5 SUB SLT ISZERO PUSH3 0xDFE JUMPI DUP1 DUP2 REVERT JUMPDEST DUP2 MLOAD PUSH1 0xFF DUP2 AND DUP2 EQ PUSH3 0x9BA JUMPI DUP2 DUP3 REVERT JUMPDEST PUSH1 0x0 PUSH1 0x60 DUP3 ADD DUP6 DUP4 MSTORE PUSH1 0x20 PUSH1 0x60 DUP2 DUP6 ADD MSTORE DUP2 DUP7 MLOAD DUP1 DUP5 MSTORE PUSH1 0x80 DUP7 ADD SWAP2 POP DUP3 DUP9 ADD SWAP4 POP DUP5 JUMPDEST DUP2 DUP2 LT ISZERO PUSH3 0xE5B JUMPI PUSH3 0xE48 DUP6 MLOAD PUSH3 0xF10 JUMP JUMPDEST DUP4 MSTORE SWAP4 DUP4 ADD SWAP4 SWAP2 DUP4 ADD SWAP2 PUSH1 0x1 ADD PUSH3 0xE33 JUMP JUMPDEST POP POP DUP5 DUP2 SUB PUSH1 0x40 DUP7 ADD MSTORE DUP6 MLOAD DUP1 DUP3 MSTORE SWAP1 DUP3 ADD SWAP3 POP DUP2 DUP7 ADD SWAP1 DUP5 JUMPDEST DUP2 DUP2 LT ISZERO PUSH3 0xE9D JUMPI PUSH3 0xE8A DUP4 MLOAD PUSH3 0xF10 JUMP JUMPDEST DUP6 MSTORE SWAP4 DUP4 ADD SWAP4 SWAP2 DUP4 ADD SWAP2 PUSH1 0x1 ADD PUSH3 0xE75 JUMP JUMPDEST POP SWAP3 SWAP9 SWAP8 POP POP POP POP POP POP POP POP JUMP JUMPDEST PUSH1 0x20 DUP2 ADD PUSH1 0x3 DUP4 LT PUSH3 0xEBA JUMPI INVALID JUMPDEST SWAP2 SWAP1 MSTORE SWAP1 JUMP JUMPDEST SWAP1 DUP2 MSTORE PUSH1 0x20 ADD SWAP1 JUMP JUMPDEST PUSH1 0x40 MLOAD DUP2 DUP2 ADD PUSH1 0x1 PUSH1 0x1 PUSH1 0x40 SHL SUB DUP2 GT DUP3 DUP3 LT OR ISZERO PUSH3 0xEE8 JUMPI PUSH1 0x0 DUP1 REVERT JUMPDEST PUSH1 0x40 MSTORE SWAP2 SWAP1 POP JUMP JUMPDEST PUSH1 0x0 PUSH1 0x1 PUSH1 0x1 PUSH1 0x40 SHL SUB DUP3 GT ISZERO PUSH3 0xF06 JUMPI DUP1 DUP2 REVERT JUMPDEST POP PUSH1 0x20 SWAP1 DUP2 MUL ADD SWAP1 JUMP JUMPDEST PUSH1 0x1 PUSH1 0x1 PUSH1 0xA0 SHL SUB AND SWAP1 JUMP JUMPDEST PUSH1 0x1 PUSH1 0x1 PUSH1 0xA0 SHL SUB DUP2 AND DUP2 EQ PUSH3 0xAA0 JUMPI PUSH1 0x0 DUP1 REVERT JUMPDEST PUSH1 0x80 MLOAD PUSH1 0xA0 MLOAD PUSH1 0x60 SHR PUSH1 0xC0 MLOAD PUSH1 0xE0 MLOAD PUSH2 0x100 MLOAD PUSH2 0x120 MLOAD PUSH2 0x140 MLOAD PUSH2 0x160 MLOAD PUSH2 0x180 MLOAD PUSH1 0x60 SHR PUSH2 0x1A0 MLOAD PUSH2 0x1C0 MLOAD PUSH2 0x1E0 MLOAD PUSH1 0x60 SHR PUSH2 0x200 MLOAD PUSH1 0x60 SHR PUSH2 0x220 MLOAD PUSH1 0x60 SHR PUSH2 0x240 MLOAD PUSH1 0x60 SHR PUSH2 0x260 MLOAD PUSH1 0x60 SHR PUSH2 0x280 MLOAD PUSH1 0x60 SHR PUSH2 0x2A0 MLOAD PUSH1 0x60 SHR PUSH2 0x2C0 MLOAD PUSH1 0x60 SHR PUSH2 0x2E0 MLOAD PUSH2 0x300 MLOAD PUSH2 0x320 MLOAD PUSH2 0x340 MLOAD PUSH2 0x360 MLOAD PUSH2 0x380 MLOAD PUSH2 0x3A0 MLOAD PUSH2 0x3C0 MLOAD PUSH2 0x3E0 MLOAD PUSH2 0x400 MLOAD PUSH2 0x420 MLOAD PUSH2 0x440 MLOAD PUSH2 0x460 MLOAD PUSH2 0x480 MLOAD PUSH2 0x4A0 MLOAD PUSH2 0x4C0 MLOAD PUSH2 0x4E0 MLOAD PUSH2 0x4743 PUSH3 0x1148 PUSH1 0x0 CODECOPY DUP1 PUSH2 0x1EC1 MSTORE DUP1 PUSH2 0x2852 MSTORE POP DUP1 PUSH2 0x1E7E MSTORE DUP1 PUSH2 0x27F1 MSTORE POP DUP1 PUSH2 0x1E3B MSTORE DUP1 PUSH2 0x2790 MSTORE POP DUP1 PUSH2 0x1DF8 MSTORE DUP1 PUSH2 0x272F MSTORE POP DUP1 PUSH2 0x1DB5 MSTORE DUP1 PUSH2 0x26CE MSTORE POP DUP1 PUSH2 0x1D72 MSTORE DUP1 PUSH2 0x266D MSTORE POP DUP1 PUSH2 0x1D2F MSTORE DUP1 PUSH2 0x260C MSTORE POP DUP1 PUSH2 0x1CEC MSTORE DUP1 PUSH2 0x25AB MSTORE POP DUP1 PUSH2 0x22CB MSTORE DUP1 PUSH2 0x22FF MSTORE DUP1 PUSH2 0x233B MSTORE POP DUP1 PUSH2 0x1625 MSTORE DUP1 PUSH2 0x1B1B MSTORE POP DUP1 PUSH2 0x15E2 MSTORE DUP1 PUSH2 0x1ABA MSTORE POP DUP1 PUSH2 0x159F MSTORE DUP1 PUSH2 0x1A59 MSTORE POP DUP1 PUSH2 0x155C MSTORE DUP1 PUSH2 0x19F8 MSTORE POP DUP1 PUSH2 0x1519 MSTORE DUP1 PUSH2 0x1997 MSTORE POP DUP1 PUSH2 0x14D6 MSTORE DUP1 PUSH2 0x1936 MSTORE POP DUP1 PUSH2 0x1493 MSTORE DUP1 PUSH2 0x18D5 MSTORE POP DUP1 PUSH2 0x1442 MSTORE DUP1 PUSH2 0x1874 MSTORE POP DUP1 PUSH2 0x1AE0 MSTORE DUP1 PUSH2 0x2817 MSTORE POP DUP1 PUSH2 0x1A7F MSTORE DUP1 PUSH2 0x27B6 MSTORE POP DUP1 PUSH2 0x1A1E MSTORE DUP1 PUSH2 0x2755 MSTORE POP DUP1 PUSH2 0x19BD MSTORE DUP1 PUSH2 0x26F4 MSTORE POP DUP1 PUSH2 0x195C MSTORE DUP1 PUSH2 0x2693 MSTORE POP DUP1 PUSH2 0x18FB MSTORE DUP1 PUSH2 0x2632 MSTORE POP DUP1 PUSH2 0x189A MSTORE DUP1 PUSH2 0x25D1 MSTORE POP DUP1 PUSH2 0x1839 MSTORE DUP1 PUSH2 0x2570 MSTORE POP DUP1 PUSH2 0x1101 MSTORE POP DUP1 PUSH2 0x5D7 MSTORE POP DUP1 PUSH2 0x835 MSTORE POP DUP1 PUSH2 0xEF0 MSTORE POP DUP1 PUSH2 0xECC MSTORE POP DUP1 PUSH2 0xAB5 MSTORE POP DUP1 PUSH2 0xFF3 MSTORE POP DUP1 PUSH2 0x1035 MSTORE POP DUP1 PUSH2 0x1014 MSTORE POP DUP1 PUSH2 0x811 MSTORE POP DUP1 PUSH2 0x79B MSTORE POP PUSH2 0x4743 PUSH1 0x0 RETURN INVALID PUSH1 0x80 PUSH1 0x40 MSTORE CALLVALUE DUP1 ISZERO PUSH2 0x10 JUMPI PUSH1 0x0 DUP1 REVERT JUMPDEST POP PUSH1 0x4 CALLDATASIZE LT PUSH2 0x1F0 JUMPI PUSH1 0x0 CALLDATALOAD PUSH1 0xE0 SHR DUP1 PUSH4 0x7ECEBE00 GT PUSH2 0x10F JUMPI DUP1 PUSH4 0xA9059CBB GT PUSH2 0xA2 JUMPI DUP1 PUSH4 0xD5C096C4 GT PUSH2 0x71 JUMPI DUP1 PUSH4 0xD5C096C4 EQ PUSH2 0x3E6 JUMPI DUP1 PUSH4 0xD73DD623 EQ PUSH2 0x3F9 JUMPI DUP1 PUSH4 0xDD62ED3E EQ PUSH2 0x40C JUMPI DUP1 PUSH4 0xF89F27ED EQ PUSH2 0x41F JUMPI PUSH2 0x1F0 JUMP JUMPDEST DUP1 PUSH4 0xA9059CBB EQ PUSH2 0x3B0 JUMPI DUP1 PUSH4 0xAAABADC5 EQ PUSH2 0x3C3 JUMPI DUP1 PUSH4 0xC0FF1A15 EQ PUSH2 0x3CB JUMPI DUP1 PUSH4 0xD505ACCF EQ PUSH2 0x3D3 JUMPI PUSH2 0x1F0 JUMP JUMPDEST DUP1 PUSH4 0x8D928AF8 GT PUSH2 0xDE JUMPI DUP1 PUSH4 0x8D928AF8 EQ PUSH2 0x385 JUMPI DUP1 PUSH4 0x95D89B41 EQ PUSH2 0x38D JUMPI DUP1 PUSH4 0x9B02CDDE EQ PUSH2 0x395 JUMPI DUP1 PUSH4 0x9D2C110C EQ PUSH2 0x39D JUMPI PUSH2 0x1F0 JUMP JUMPDEST DUP1 PUSH4 0x7ECEBE00 EQ PUSH2 0x337 JUMPI DUP1 PUSH4 0x851C1BB3 EQ PUSH2 0x34A JUMPI DUP1 PUSH4 0x87EC6817 EQ PUSH2 0x35D JUMPI DUP1 PUSH4 0x893D20E8 EQ PUSH2 0x370 JUMPI PUSH2 0x1F0 JUMP JUMPDEST DUP1 PUSH4 0x38E9922E GT PUSH2 0x187 JUMPI DUP1 PUSH4 0x66188463 GT PUSH2 0x156 JUMPI DUP1 PUSH4 0x66188463 EQ PUSH2 0x2E8 JUMPI DUP1 PUSH4 0x679AEFCE EQ PUSH2 0x2FB JUMPI DUP1 PUSH4 0x70A08231 EQ PUSH2 0x303 JUMPI DUP1 PUSH4 0x74F3B009 EQ PUSH2 0x316 JUMPI PUSH2 0x1F0 JUMP JUMPDEST DUP1 PUSH4 0x38E9922E EQ PUSH2 0x2A4 JUMPI DUP1 PUSH4 0x38FFF2D0 EQ PUSH2 0x2B7 JUMPI DUP1 PUSH4 0x55C67628 EQ PUSH2 0x2BF JUMPI DUP1 PUSH4 0x6028BFD4 EQ PUSH2 0x2C7 JUMPI PUSH2 0x1F0 JUMP JUMPDEST DUP1 PUSH4 0x1C0DE051 GT PUSH2 0x1C3 JUMPI DUP1 PUSH4 0x1C0DE051 EQ PUSH2 0x25D JUMPI DUP1 PUSH4 0x23B872DD EQ PUSH2 0x274 JUMPI DUP1 PUSH4 0x313CE567 EQ PUSH2 0x287 JUMPI DUP1 PUSH4 0x3644E515 EQ PUSH2 0x29C JUMPI PUSH2 0x1F0 JUMP JUMPDEST DUP1 PUSH4 0x6FDDE03 EQ PUSH2 0x1F5 JUMPI DUP1 PUSH4 0x95EA7B3 EQ PUSH2 0x213 JUMPI DUP1 PUSH4 0x16C38B3C EQ PUSH2 0x233 JUMPI DUP1 PUSH4 0x18160DDD EQ PUSH2 0x248 JUMPI JUMPDEST PUSH1 0x0 DUP1 REVERT JUMPDEST PUSH2 0x1FD PUSH2 0x434 JUMP JUMPDEST PUSH1 0x40 MLOAD PUSH2 0x20A SWAP2 SWAP1 PUSH2 0x461E JUMP JUMPDEST PUSH1 0x40 MLOAD DUP1 SWAP2 SUB SWAP1 RETURN JUMPDEST PUSH2 0x226 PUSH2 0x221 CALLDATASIZE PUSH1 0x4 PUSH2 0x3FF8 JUMP JUMPDEST PUSH2 0x4CB JUMP JUMPDEST PUSH1 0x40 MLOAD PUSH2 0x20A SWAP2 SWAP1 PUSH2 0x4555 JUMP JUMPDEST PUSH2 0x246 PUSH2 0x241 CALLDATASIZE PUSH1 0x4 PUSH2 0x40EE JUMP JUMPDEST PUSH2 0x4E2 JUMP JUMPDEST STOP JUMPDEST PUSH2 0x250 PUSH2 0x4F6 JUMP JUMPDEST PUSH1 0x40 MLOAD PUSH2 0x20A SWAP2 SWAP1 PUSH2 0x4578 JUMP JUMPDEST PUSH2 0x265 PUSH2 0x4FC JUMP JUMPDEST PUSH1 0x40 MLOAD PUSH2 0x20A SWAP4 SWAP3 SWAP2 SWAP1 PUSH2 0x4560 JUMP JUMPDEST PUSH2 0x226 PUSH2 0x282 CALLDATASIZE PUSH1 0x4 PUSH2 0x3F43 JUMP JUMPDEST PUSH2 0x525 JUMP JUMPDEST PUSH2 0x28F PUSH2 0x5A8 JUMP JUMPDEST PUSH1 0x40 MLOAD PUSH2 0x20A SWAP2 SWAP1 PUSH2 0x468A JUMP JUMPDEST PUSH2 0x250 PUSH2 0x5AD JUMP JUMPDEST PUSH2 0x246 PUSH2 0x2B2 CALLDATASIZE PUSH1 0x4 PUSH2 0x4474 JUMP JUMPDEST PUSH2 0x5BC JUMP JUMPDEST PUSH2 0x250 PUSH2 0x5D5 JUMP JUMPDEST PUSH2 0x250 PUSH2 0x5F9 JUMP JUMPDEST PUSH2 0x2DA PUSH2 0x2D5 CALLDATASIZE PUSH1 0x4 PUSH2 0x4126 JUMP JUMPDEST PUSH2 0x5FF JUMP JUMPDEST PUSH1 0x40 MLOAD PUSH2 0x20A SWAP3 SWAP2 SWAP1 PUSH2 0x4671 JUMP JUMPDEST PUSH2 0x226 PUSH2 0x2F6 CALLDATASIZE PUSH1 0x4 PUSH2 0x3FF8 JUMP JUMPDEST PUSH2 0x636 JUMP JUMPDEST PUSH2 0x250 PUSH2 0x690 JUMP JUMPDEST PUSH2 0x250 PUSH2 0x311 CALLDATASIZE PUSH1 0x4 PUSH2 0x3EEF JUMP JUMPDEST PUSH2 0x6BB JUMP JUMPDEST PUSH2 0x329 PUSH2 0x324 CALLDATASIZE PUSH1 0x4 PUSH2 0x4126 JUMP JUMPDEST PUSH2 0x6DA JUMP JUMPDEST PUSH1 0x40 MLOAD PUSH2 0x20A SWAP3 SWAP2 SWAP1 PUSH2 0x4530 JUMP JUMPDEST PUSH2 0x250 PUSH2 0x345 CALLDATASIZE PUSH1 0x4 PUSH2 0x3EEF JUMP JUMPDEST PUSH2 0x77C JUMP JUMPDEST PUSH2 0x250 PUSH2 0x358 CALLDATASIZE PUSH1 0x4 PUSH2 0x4222 JUMP JUMPDEST PUSH2 0x797 JUMP JUMPDEST PUSH2 0x2DA PUSH2 0x36B CALLDATASIZE PUSH1 0x4 PUSH2 0x4126 JUMP JUMPDEST PUSH2 0x7E9 JUMP JUMPDEST PUSH2 0x378 PUSH2 0x80F JUMP JUMPDEST PUSH1 0x40 MLOAD PUSH2 0x20A SWAP2 SWAP1 PUSH2 0x4509 JUMP JUMPDEST PUSH2 0x378 PUSH2 0x833 JUMP JUMPDEST PUSH2 0x1FD PUSH2 0x857 JUMP JUMPDEST PUSH2 0x250 PUSH2 0x8B8 JUMP JUMPDEST PUSH2 0x250 PUSH2 0x3AB CALLDATASIZE PUSH1 0x4 PUSH2 0x4379 JUMP JUMPDEST PUSH2 0x8BE JUMP JUMPDEST PUSH2 0x226 PUSH2 0x3BE CALLDATASIZE PUSH1 0x4 PUSH2 0x3FF8 JUMP JUMPDEST PUSH2 0x9A5 JUMP JUMPDEST PUSH2 0x378 PUSH2 0x9B2 JUMP JUMPDEST PUSH2 0x250 PUSH2 0x9BC JUMP JUMPDEST PUSH2 0x246 PUSH2 0x3E1 CALLDATASIZE PUSH1 0x4 PUSH2 0x3F83 JUMP JUMPDEST PUSH2 0xA80 JUMP JUMPDEST PUSH2 0x329 PUSH2 0x3F4 CALLDATASIZE PUSH1 0x4 PUSH2 0x4126 JUMP JUMPDEST PUSH2 0xBC9 JUMP JUMPDEST PUSH2 0x226 PUSH2 0x407 CALLDATASIZE PUSH1 0x4 PUSH2 0x3FF8 JUMP JUMPDEST PUSH2 0xCEB JUMP JUMPDEST PUSH2 0x250 PUSH2 0x41A CALLDATASIZE PUSH1 0x4 PUSH2 0x3F0B JUMP JUMPDEST PUSH2 0xD21 JUMP JUMPDEST PUSH2 0x427 PUSH2 0xD4C JUMP JUMPDEST PUSH1 0x40 MLOAD PUSH2 0x20A SWAP2 SWAP1 PUSH2 0x451D JUMP JUMPDEST PUSH1 0x3 DUP1 SLOAD PUSH1 0x40 DUP1 MLOAD PUSH1 0x20 PUSH1 0x1F PUSH1 0x2 PUSH1 0x0 NOT PUSH2 0x100 PUSH1 0x1 DUP9 AND ISZERO MUL ADD SWAP1 SWAP6 AND SWAP5 SWAP1 SWAP5 DIV SWAP4 DUP5 ADD DUP2 SWAP1 DIV DUP2 MUL DUP3 ADD DUP2 ADD SWAP1 SWAP3 MSTORE DUP3 DUP2 MSTORE PUSH1 0x60 SWAP4 SWAP1 SWAP3 SWAP1 SWAP2 DUP4 ADD DUP3 DUP3 DUP1 ISZERO PUSH2 0x4C0 JUMPI DUP1 PUSH1 0x1F LT PUSH2 0x495 JUMPI PUSH2 0x100 DUP1 DUP4 SLOAD DIV MUL DUP4 MSTORE SWAP2 PUSH1 0x20 ADD SWAP2 PUSH2 0x4C0 JUMP JUMPDEST DUP3 ADD SWAP2 SWAP1 PUSH1 0x0 MSTORE PUSH1 0x20 PUSH1 0x0 KECCAK256 SWAP1 JUMPDEST DUP2 SLOAD DUP2 MSTORE SWAP1 PUSH1 0x1 ADD SWAP1 PUSH1 0x20 ADD DUP1 DUP4 GT PUSH2 0x4A3 JUMPI DUP3 SWAP1 SUB PUSH1 0x1F AND DUP3 ADD SWAP2 JUMPDEST POP POP POP POP POP SWAP1 POP JUMPDEST SWAP1 JUMP JUMPDEST PUSH1 0x0 PUSH2 0x4D8 CALLER DUP5 DUP5 PUSH2 0xD99 JUMP JUMPDEST POP PUSH1 0x1 JUMPDEST SWAP3 SWAP2 POP POP JUMP JUMPDEST PUSH2 0x4EA PUSH2 0xE01 JUMP JUMPDEST PUSH2 0x4F3 DUP2 PUSH2 0xE2F JUMP JUMPDEST POP JUMP JUMPDEST PUSH1 0x2 SLOAD SWAP1 JUMP JUMPDEST PUSH1 0x0 DUP1 PUSH1 0x0 PUSH2 0x509 PUSH2 0xEAD JUMP JUMPDEST ISZERO SWAP3 POP PUSH2 0x514 PUSH2 0xECA JUMP JUMPDEST SWAP2 POP PUSH2 0x51E PUSH2 0xEEE JUMP JUMPDEST SWAP1 POP SWAP1 SWAP2 SWAP3 JUMP JUMPDEST PUSH1 0x1 PUSH1 0x1 PUSH1 0xA0 SHL SUB DUP4 AND PUSH1 0x0 DUP2 DUP2 MSTORE PUSH1 0x1 PUSH1 0x20 SWAP1 DUP2 MSTORE PUSH1 0x40 DUP1 DUP4 KECCAK256 CALLER DUP1 DUP6 MSTORE SWAP3 MSTORE DUP3 KECCAK256 SLOAD SWAP2 SWAP3 PUSH2 0x563 SWAP2 EQ DUP1 PUSH2 0x55B JUMPI POP DUP4 DUP3 LT ISZERO JUMPDEST PUSH2 0x197 PUSH2 0xF12 JUMP JUMPDEST PUSH2 0x56E DUP6 DUP6 DUP6 PUSH2 0xF20 JUMP JUMPDEST CALLER PUSH1 0x1 PUSH1 0x1 PUSH1 0xA0 SHL SUB DUP7 AND EQ DUP1 ISZERO SWAP1 PUSH2 0x589 JUMPI POP PUSH1 0x0 NOT DUP2 EQ ISZERO JUMPDEST ISZERO PUSH2 0x59B JUMPI PUSH2 0x59B DUP6 CALLER DUP6 DUP5 SUB PUSH2 0xD99 JUMP JUMPDEST PUSH1 0x1 SWAP2 POP POP JUMPDEST SWAP4 SWAP3 POP POP POP JUMP JUMPDEST PUSH1 0x12 SWAP1 JUMP JUMPDEST PUSH1 0x0 PUSH2 0x5B7 PUSH2 0xFEF JUMP JUMPDEST SWAP1 POP SWAP1 JUMP JUMPDEST PUSH2 0x5C4 PUSH2 0xE01 JUMP JUMPDEST PUSH2 0x5CC PUSH2 0x108C JUMP JUMPDEST PUSH2 0x4F3 DUP2 PUSH2 0x10A1 JUMP JUMPDEST PUSH32 0x0 SWAP1 JUMP JUMPDEST PUSH1 0x7 SLOAD SWAP1 JUMP JUMPDEST PUSH1 0x0 PUSH1 0x60 PUSH2 0x615 DUP7 MLOAD PUSH2 0x610 PUSH2 0x10FF JUMP JUMPDEST PUSH2 0xD64 JUMP JUMPDEST PUSH2 0x62A DUP10 DUP10 DUP10 DUP10 DUP10 DUP10 DUP10 PUSH2 0x1123 PUSH2 0x11EA PUSH2 0x1250 JUMP JUMPDEST SWAP8 POP SWAP8 SWAP6 POP POP POP POP POP POP JUMP JUMPDEST CALLER PUSH1 0x0 SWAP1 DUP2 MSTORE PUSH1 0x1 PUSH1 0x20 SWAP1 DUP2 MSTORE PUSH1 0x40 DUP1 DUP4 KECCAK256 PUSH1 0x1 PUSH1 0x1 PUSH1 0xA0 SHL SUB DUP7 AND DUP5 MSTORE SWAP1 SWAP2 MSTORE DUP2 KECCAK256 SLOAD DUP1 DUP4 LT PUSH2 0x672 JUMPI PUSH2 0x66D CALLER DUP6 PUSH1 0x0 PUSH2 0xD99 JUMP JUMPDEST PUSH2 0x686 JUMP JUMPDEST PUSH2 0x686 CALLER DUP6 PUSH2 0x681 DUP5 DUP8 PUSH2 0xD83 JUMP JUMPDEST PUSH2 0xD99 JUMP JUMPDEST POP PUSH1 0x1 SWAP4 SWAP3 POP POP POP JUMP JUMPDEST PUSH1 0x0 PUSH2 0x5B7 PUSH2 0x69D PUSH2 0x4F6 JUMP JUMPDEST PUSH2 0x6B5 PUSH2 0x6A8 PUSH2 0x9BC JUMP JUMPDEST PUSH2 0x6B0 PUSH2 0x10FF JUMP JUMPDEST PUSH2 0x1372 JUMP JUMPDEST SWAP1 PUSH2 0x1396 JUMP JUMPDEST PUSH1 0x1 PUSH1 0x1 PUSH1 0xA0 SHL SUB DUP2 AND PUSH1 0x0 SWAP1 DUP2 MSTORE PUSH1 0x20 DUP2 SWAP1 MSTORE PUSH1 0x40 SWAP1 KECCAK256 SLOAD JUMPDEST SWAP2 SWAP1 POP JUMP JUMPDEST PUSH1 0x60 DUP1 DUP9 PUSH2 0x704 PUSH2 0x6E9 PUSH2 0x833 JUMP JUMPDEST PUSH1 0x1 PUSH1 0x1 PUSH1 0xA0 SHL SUB AND CALLER PUSH1 0x1 PUSH1 0x1 PUSH1 0xA0 SHL SUB AND EQ PUSH1 0xCD PUSH2 0xF12 JUMP JUMPDEST PUSH2 0x719 PUSH2 0x70F PUSH2 0x5D5 JUMP JUMPDEST DUP3 EQ PUSH2 0x1F4 PUSH2 0xF12 JUMP JUMPDEST PUSH1 0x60 PUSH2 0x723 PUSH2 0x13E7 JUMP JUMPDEST SWAP1 POP PUSH2 0x72F DUP9 DUP3 PUSH2 0x1663 JUMP JUMPDEST PUSH1 0x0 PUSH1 0x60 DUP1 PUSH2 0x743 DUP15 DUP15 DUP15 DUP15 DUP15 DUP15 DUP15 PUSH2 0x1123 JUMP JUMPDEST SWAP3 POP SWAP3 POP SWAP3 POP PUSH2 0x753 DUP14 DUP5 PUSH2 0x16C4 JUMP JUMPDEST PUSH2 0x75D DUP3 DUP6 PUSH2 0x11EA JUMP JUMPDEST PUSH2 0x767 DUP2 DUP6 PUSH2 0x11EA JUMP JUMPDEST SWAP1 SWAP6 POP SWAP4 POP POP POP JUMPDEST POP SWAP8 POP SWAP8 SWAP6 POP POP POP POP POP POP JUMP JUMPDEST PUSH1 0x1 PUSH1 0x1 PUSH1 0xA0 SHL SUB AND PUSH1 0x0 SWAP1 DUP2 MSTORE PUSH1 0x5 PUSH1 0x20 MSTORE PUSH1 0x40 SWAP1 KECCAK256 SLOAD SWAP1 JUMP JUMPDEST PUSH1 0x0 PUSH32 0x0 DUP3 PUSH1 0x40 MLOAD PUSH1 0x20 ADD PUSH2 0x7CC SWAP3 SWAP2 SWAP1 PUSH2 0x44C6 JUMP JUMPDEST PUSH1 0x40 MLOAD PUSH1 0x20 DUP2 DUP4 SUB SUB DUP2 MSTORE SWAP1 PUSH1 0x40 MSTORE DUP1 MLOAD SWAP1 PUSH1 0x20 ADD KECCAK256 SWAP1 POP SWAP2 SWAP1 POP JUMP JUMPDEST PUSH1 0x0 PUSH1 0x60 PUSH2 0x7FA DUP7 MLOAD PUSH2 0x610 PUSH2 0x10FF JUMP JUMPDEST PUSH2 0x62A DUP10 DUP10 DUP10 DUP10 DUP10 DUP10 DUP10 PUSH2 0x1757 PUSH2 0x17D4 PUSH2 0x1250 JUMP JUMPDEST PUSH32 0x0 SWAP1 JUMP JUMPDEST PUSH32 0x0 SWAP1 JUMP JUMPDEST PUSH1 0x4 DUP1 SLOAD PUSH1 0x40 DUP1 MLOAD PUSH1 0x20 PUSH1 0x1F PUSH1 0x2 PUSH1 0x0 NOT PUSH2 0x100 PUSH1 0x1 DUP9 AND ISZERO MUL ADD SWAP1 SWAP6 AND SWAP5 SWAP1 SWAP5 DIV SWAP4 DUP5 ADD DUP2 SWAP1 DIV DUP2 MUL DUP3 ADD DUP2 ADD SWAP1 SWAP3 MSTORE DUP3 DUP2 MSTORE PUSH1 0x60 SWAP4 SWAP1 SWAP3 SWAP1 SWAP2 DUP4 ADD DUP3 DUP3 DUP1 ISZERO PUSH2 0x4C0 JUMPI DUP1 PUSH1 0x1F LT PUSH2 0x495 JUMPI PUSH2 0x100 DUP1 DUP4 SLOAD DIV MUL DUP4 MSTORE SWAP2 PUSH1 0x20 ADD SWAP2 PUSH2 0x4C0 JUMP JUMPDEST PUSH1 0x8 SLOAD SWAP1 JUMP JUMPDEST PUSH1 0x0 DUP1 PUSH2 0x8CE DUP6 PUSH1 0x20 ADD MLOAD PUSH2 0x1835 JUMP JUMPDEST SWAP1 POP PUSH1 0x0 PUSH2 0x8DF DUP7 PUSH1 0x40 ADD MLOAD PUSH2 0x1835 JUMP JUMPDEST SWAP1 POP PUSH1 0x0 DUP7 MLOAD PUSH1 0x1 DUP2 GT ISZERO PUSH2 0x8F0 JUMPI INVALID JUMPDEST EQ ISZERO PUSH2 0x956 JUMPI PUSH2 0x903 DUP7 PUSH1 0x60 ADD MLOAD PUSH2 0x1B4A JUMP JUMPDEST PUSH1 0x60 DUP8 ADD MSTORE PUSH2 0x912 DUP6 DUP4 PUSH2 0x1B6E JUMP JUMPDEST SWAP5 POP PUSH2 0x91E DUP5 DUP3 PUSH2 0x1B6E JUMP JUMPDEST SWAP4 POP PUSH2 0x92E DUP7 PUSH1 0x60 ADD MLOAD DUP4 PUSH2 0x1B6E JUMP JUMPDEST PUSH1 0x60 DUP8 ADD MSTORE PUSH1 0x0 PUSH2 0x940 DUP8 DUP8 DUP8 PUSH2 0x1B7A JUMP JUMPDEST SWAP1 POP PUSH2 0x94C DUP2 DUP4 PUSH2 0x1BB5 JUMP JUMPDEST SWAP4 POP POP POP POP PUSH2 0x5A1 JUMP JUMPDEST PUSH2 0x960 DUP6 DUP4 PUSH2 0x1B6E JUMP JUMPDEST SWAP5 POP PUSH2 0x96C DUP5 DUP3 PUSH2 0x1B6E JUMP JUMPDEST SWAP4 POP PUSH2 0x97C DUP7 PUSH1 0x60 ADD MLOAD DUP3 PUSH2 0x1B6E JUMP JUMPDEST PUSH1 0x60 DUP8 ADD MSTORE PUSH1 0x0 PUSH2 0x98E DUP8 DUP8 DUP8 PUSH2 0x1BC1 JUMP JUMPDEST SWAP1 POP PUSH2 0x99A DUP2 DUP5 PUSH2 0x1BF4 JUMP JUMPDEST SWAP1 POP PUSH2 0x94C DUP2 PUSH2 0x1C00 JUMP JUMPDEST PUSH1 0x0 PUSH2 0x4D8 CALLER DUP5 DUP5 PUSH2 0xF20 JUMP JUMPDEST PUSH1 0x0 PUSH2 0x5B7 PUSH2 0x1C17 JUMP JUMPDEST PUSH1 0x0 PUSH1 0x60 PUSH2 0x9C8 PUSH2 0x833 JUMP JUMPDEST PUSH1 0x1 PUSH1 0x1 PUSH1 0xA0 SHL SUB AND PUSH4 0xF94D4668 PUSH2 0x9DE PUSH2 0x5D5 JUMP JUMPDEST PUSH1 0x40 MLOAD DUP3 PUSH4 0xFFFFFFFF AND PUSH1 0xE0 SHL DUP2 MSTORE PUSH1 0x4 ADD PUSH2 0x9FA SWAP2 SWAP1 PUSH2 0x4578 JUMP JUMPDEST PUSH1 0x0 PUSH1 0x40 MLOAD DUP1 DUP4 SUB DUP2 DUP7 DUP1 EXTCODESIZE ISZERO DUP1 ISZERO PUSH2 0xA12 JUMPI PUSH1 0x0 DUP1 REVERT JUMPDEST POP GAS STATICCALL ISZERO DUP1 ISZERO PUSH2 0xA26 JUMPI RETURNDATASIZE PUSH1 0x0 DUP1 RETURNDATACOPY RETURNDATASIZE PUSH1 0x0 REVERT JUMPDEST POP POP POP POP PUSH1 0x40 MLOAD RETURNDATASIZE PUSH1 0x0 DUP3 RETURNDATACOPY PUSH1 0x1F RETURNDATASIZE SWAP1 DUP2 ADD PUSH1 0x1F NOT AND DUP3 ADD PUSH1 0x40 MSTORE PUSH2 0xA4E SWAP2 SWAP1 DUP2 ADD SWAP1 PUSH2 0x4023 JUMP JUMPDEST POP SWAP2 POP POP PUSH2 0xA63 DUP2 PUSH2 0xA5E PUSH2 0x13E7 JUMP JUMPDEST PUSH2 0x1663 JUMP JUMPDEST PUSH1 0x60 PUSH2 0xA6D PUSH2 0x1C91 JUMP JUMPDEST SWAP1 POP PUSH2 0xA79 DUP2 DUP4 PUSH2 0x1EED JUMP JUMPDEST SWAP3 POP POP POP SWAP1 JUMP JUMPDEST PUSH2 0xA8E DUP5 TIMESTAMP GT ISZERO PUSH1 0xD1 PUSH2 0xF12 JUMP JUMPDEST PUSH1 0x1 PUSH1 0x1 PUSH1 0xA0 SHL SUB DUP8 AND PUSH1 0x0 SWAP1 DUP2 MSTORE PUSH1 0x5 PUSH1 0x20 SWAP1 DUP2 MSTORE PUSH1 0x40 DUP1 DUP4 KECCAK256 SLOAD SWAP1 MLOAD SWAP1 SWAP3 SWAP2 PUSH2 0xAE5 SWAP2 PUSH32 0x0 SWAP2 DUP13 SWAP2 DUP13 SWAP2 DUP13 SWAP2 DUP9 SWAP2 DUP14 SWAP2 ADD PUSH2 0x45A0 JUMP JUMPDEST PUSH1 0x40 MLOAD PUSH1 0x20 DUP2 DUP4 SUB SUB DUP2 MSTORE SWAP1 PUSH1 0x40 MSTORE DUP1 MLOAD SWAP1 PUSH1 0x20 ADD KECCAK256 SWAP1 POP PUSH1 0x0 PUSH2 0xB08 DUP3 PUSH2 0x1F5F JUMP JUMPDEST SWAP1 POP PUSH1 0x0 PUSH1 0x1 DUP3 DUP9 DUP9 DUP9 PUSH1 0x40 MLOAD PUSH1 0x0 DUP2 MSTORE PUSH1 0x20 ADD PUSH1 0x40 MSTORE PUSH1 0x40 MLOAD PUSH2 0xB2F SWAP5 SWAP4 SWAP3 SWAP2 SWAP1 PUSH2 0x4600 JUMP JUMPDEST PUSH1 0x20 PUSH1 0x40 MLOAD PUSH1 0x20 DUP2 SUB SWAP1 DUP1 DUP5 SUB SWAP1 DUP6 GAS STATICCALL ISZERO DUP1 ISZERO PUSH2 0xB51 JUMPI RETURNDATASIZE PUSH1 0x0 DUP1 RETURNDATACOPY RETURNDATASIZE PUSH1 0x0 REVERT JUMPDEST POP POP PUSH1 0x40 MLOAD PUSH1 0x1F NOT ADD MLOAD SWAP2 POP PUSH2 0xB93 SWAP1 POP PUSH1 0x1 PUSH1 0x1 PUSH1 0xA0 SHL SUB DUP3 AND ISZERO DUP1 ISZERO SWAP1 PUSH2 0xB8B JUMPI POP DUP12 PUSH1 0x1 PUSH1 0x1 PUSH1 0xA0 SHL SUB AND DUP3 PUSH1 0x1 PUSH1 0x1 PUSH1 0xA0 SHL SUB AND EQ JUMPDEST PUSH2 0x1F8 PUSH2 0xF12 JUMP JUMPDEST PUSH1 0x1 PUSH1 0x1 PUSH1 0xA0 SHL SUB DUP12 AND PUSH1 0x0 SWAP1 DUP2 MSTORE PUSH1 0x5 PUSH1 0x20 MSTORE PUSH1 0x40 SWAP1 KECCAK256 PUSH1 0x1 DUP6 ADD SWAP1 SSTORE PUSH2 0xBBC DUP12 DUP12 DUP12 PUSH2 0xD99 JUMP JUMPDEST POP POP POP POP POP POP POP POP POP POP POP JUMP JUMPDEST PUSH1 0x60 DUP1 DUP9 PUSH2 0xBD8 PUSH2 0x6E9 PUSH2 0x833 JUMP JUMPDEST PUSH2 0xBE3 PUSH2 0x70F PUSH2 0x5D5 JUMP JUMPDEST PUSH1 0x60 PUSH2 0xBED PUSH2 0x13E7 JUMP JUMPDEST SWAP1 POP PUSH2 0xBF7 PUSH2 0x4F6 JUMP JUMPDEST PUSH2 0xC9C JUMPI PUSH1 0x0 PUSH1 0x60 PUSH2 0xC0B DUP14 DUP14 DUP14 DUP11 PUSH2 0x1F7B JUMP JUMPDEST SWAP2 POP SWAP2 POP PUSH2 0xC20 PUSH3 0xF4240 DUP4 LT ISZERO PUSH1 0xCC PUSH2 0xF12 JUMP JUMPDEST PUSH2 0xC2E PUSH1 0x0 PUSH3 0xF4240 PUSH2 0x2016 JUMP JUMPDEST PUSH2 0xC3D DUP12 PUSH3 0xF4240 DUP5 SUB PUSH2 0x2016 JUMP JUMPDEST PUSH2 0xC47 DUP2 DUP5 PUSH2 0x17D4 JUMP JUMPDEST DUP1 PUSH2 0xC50 PUSH2 0x10FF JUMP JUMPDEST PUSH1 0x1 PUSH1 0x1 PUSH1 0x40 SHL SUB DUP2 GT DUP1 ISZERO PUSH2 0xC65 JUMPI PUSH1 0x0 DUP1 REVERT JUMPDEST POP PUSH1 0x40 MLOAD SWAP1 DUP1 DUP3 MSTORE DUP1 PUSH1 0x20 MUL PUSH1 0x20 ADD DUP3 ADD PUSH1 0x40 MSTORE DUP1 ISZERO PUSH2 0xC8F JUMPI DUP2 PUSH1 0x20 ADD PUSH1 0x20 DUP3 MUL DUP1 CALLDATASIZE DUP4 CALLDATACOPY ADD SWAP1 POP JUMPDEST POP SWAP6 POP SWAP6 POP POP POP POP PUSH2 0x76F JUMP JUMPDEST PUSH2 0xCA6 DUP9 DUP3 PUSH2 0x1663 JUMP JUMPDEST PUSH1 0x0 PUSH1 0x60 DUP1 PUSH2 0xCBA DUP15 DUP15 DUP15 DUP15 DUP15 DUP15 DUP15 PUSH2 0x1757 JUMP JUMPDEST SWAP3 POP SWAP3 POP SWAP3 POP PUSH2 0xCCA DUP13 DUP5 PUSH2 0x2016 JUMP JUMPDEST PUSH2 0xCD4 DUP3 DUP6 PUSH2 0x17D4 JUMP JUMPDEST PUSH2 0xCDE DUP2 DUP6 PUSH2 0x11EA JUMP JUMPDEST SWAP1 SWAP6 POP SWAP4 POP PUSH2 0x76F SWAP2 POP POP JUMP JUMPDEST CALLER PUSH1 0x0 DUP2 DUP2 MSTORE PUSH1 0x1 PUSH1 0x20 SWAP1 DUP2 MSTORE PUSH1 0x40 DUP1 DUP4 KECCAK256 PUSH1 0x1 PUSH1 0x1 PUSH1 0xA0 SHL SUB DUP8 AND DUP5 MSTORE SWAP1 SWAP2 MSTORE DUP2 KECCAK256 SLOAD SWAP1 SWAP2 PUSH2 0x4D8 SWAP2 DUP6 SWAP1 PUSH2 0x681 SWAP1 DUP7 PUSH2 0xD71 JUMP JUMPDEST PUSH1 0x1 PUSH1 0x1 PUSH1 0xA0 SHL SUB SWAP2 DUP3 AND PUSH1 0x0 SWAP1 DUP2 MSTORE PUSH1 0x1 PUSH1 0x20 SWAP1 DUP2 MSTORE PUSH1 0x40 DUP1 DUP4 KECCAK256 SWAP4 SWAP1 SWAP5 AND DUP3 MSTORE SWAP2 SWAP1 SWAP2 MSTORE KECCAK256 SLOAD SWAP1 JUMP JUMPDEST PUSH1 0x60 PUSH2 0x5B7 PUSH2 0x1C91 JUMP JUMPDEST DUP1 PUSH2 0xD60 DUP2 PUSH2 0x20AC JUMP JUMPDEST POP POP JUMP JUMPDEST PUSH2 0xD60 DUP2 DUP4 EQ PUSH1 0x67 PUSH2 0xF12 JUMP JUMPDEST PUSH1 0x0 DUP3 DUP3 ADD PUSH2 0x5A1 DUP5 DUP3 LT ISZERO DUP4 PUSH2 0xF12 JUMP JUMPDEST PUSH1 0x0 PUSH2 0xD93 DUP4 DUP4 GT ISZERO PUSH1 0x1 PUSH2 0xF12 JUMP JUMPDEST POP SWAP1 SUB SWAP1 JUMP JUMPDEST PUSH1 0x1 PUSH1 0x1 PUSH1 0xA0 SHL SUB DUP1 DUP5 AND PUSH1 0x0 DUP2 DUP2 MSTORE PUSH1 0x1 PUSH1 0x20 SWAP1 DUP2 MSTORE PUSH1 0x40 DUP1 DUP4 KECCAK256 SWAP5 DUP8 AND DUP1 DUP5 MSTORE SWAP5 SWAP1 SWAP2 MSTORE SWAP1 DUP2 SWAP1 KECCAK256 DUP5 SWAP1 SSTORE MLOAD PUSH32 0x8C5BE1E5EBEC7D5BD14F71427D1E84F3DD0314C0F7B2291E5B200AC8C7C3B925 SWAP1 PUSH2 0xDF4 SWAP1 DUP6 SWAP1 PUSH2 0x4578 JUMP JUMPDEST PUSH1 0x40 MLOAD DUP1 SWAP2 SUB SWAP1 LOG3 POP POP POP JUMP JUMPDEST PUSH1 0x0 PUSH2 0xE18 PUSH1 0x0 CALLDATALOAD PUSH1 0x1 PUSH1 0x1 PUSH1 0xE0 SHL SUB NOT AND PUSH2 0x797 JUMP JUMPDEST SWAP1 POP PUSH2 0x4F3 PUSH2 0xE27 DUP3 CALLER PUSH2 0x2125 JUMP JUMPDEST PUSH2 0x191 PUSH2 0xF12 JUMP JUMPDEST DUP1 ISZERO PUSH2 0xE4F JUMPI PUSH2 0xE4A PUSH2 0xE40 PUSH2 0xECA JUMP JUMPDEST TIMESTAMP LT PUSH2 0x193 PUSH2 0xF12 JUMP JUMPDEST PUSH2 0xE64 JUMP JUMPDEST PUSH2 0xE64 PUSH2 0xE5A PUSH2 0xEEE JUMP JUMPDEST TIMESTAMP LT PUSH2 0x1A9 PUSH2 0xF12 JUMP JUMPDEST PUSH1 0x6 DUP1 SLOAD PUSH1 0xFF NOT AND DUP3 ISZERO ISZERO OR SWAP1 SSTORE PUSH1 0x40 MLOAD PUSH32 0x9E3A5E37224532DEA67B89FACE185703738A228A6E8A23DEE546960180D3BE64 SWAP1 PUSH2 0xEA2 SWAP1 DUP4 SWAP1 PUSH2 0x4555 JUMP JUMPDEST PUSH1 0x40 MLOAD DUP1 SWAP2 SUB SWAP1 LOG1 POP JUMP JUMPDEST PUSH1 0x0 PUSH2 0xEB7 PUSH2 0xEEE JUMP JUMPDEST TIMESTAMP GT DUP1 PUSH2 0x5B7 JUMPI POP POP PUSH1 0x6 SLOAD PUSH1 0xFF AND ISZERO SWAP1 JUMP JUMPDEST PUSH32 0x0 SWAP1 JUMP JUMPDEST PUSH32 0x0 SWAP1 JUMP JUMPDEST DUP2 PUSH2 0xD60 JUMPI PUSH2 0xD60 DUP2 PUSH2 0x2215 JUMP JUMPDEST PUSH1 0x1 PUSH1 0x1 PUSH1 0xA0 SHL SUB DUP4 AND PUSH1 0x0 SWAP1 DUP2 MSTORE PUSH1 0x20 DUP2 SWAP1 MSTORE PUSH1 0x40 SWAP1 KECCAK256 SLOAD PUSH2 0xF48 DUP3 DUP3 LT ISZERO PUSH2 0x196 PUSH2 0xF12 JUMP JUMPDEST PUSH2 0xF5F PUSH1 0x1 PUSH1 0x1 PUSH1 0xA0 SHL SUB DUP5 AND ISZERO ISZERO PUSH2 0x199 PUSH2 0xF12 JUMP JUMPDEST PUSH1 0x1 PUSH1 0x1 PUSH1 0xA0 SHL SUB DUP1 DUP6 AND PUSH1 0x0 SWAP1 DUP2 MSTORE PUSH1 0x20 DUP2 SWAP1 MSTORE PUSH1 0x40 DUP1 DUP3 KECCAK256 DUP6 DUP6 SUB SWAP1 SSTORE SWAP2 DUP6 AND DUP2 MSTORE KECCAK256 SLOAD PUSH2 0xF8F SWAP1 DUP4 PUSH2 0xD71 JUMP JUMPDEST PUSH1 0x1 PUSH1 0x1 PUSH1 0xA0 SHL SUB DUP1 DUP6 AND PUSH1 0x0 DUP2 DUP2 MSTORE PUSH1 0x20 DUP2 SWAP1 MSTORE PUSH1 0x40 SWAP1 DUP2 SWAP1 KECCAK256 SWAP4 SWAP1 SWAP4 SSTORE SWAP2 MLOAD SWAP1 DUP7 AND SWAP1 PUSH32 0xDDF252AD1BE2C89B69C2B068FC378DAA952BA7F163C4A11628F55A4DF523B3EF SWAP1 PUSH2 0xFE1 SWAP1 DUP7 SWAP1 PUSH2 0x4578 JUMP JUMPDEST PUSH1 0x40 MLOAD DUP1 SWAP2 SUB SWAP1 LOG3 POP POP POP POP JUMP JUMPDEST PUSH1 0x0 PUSH32 0x0 PUSH32 0x0 PUSH32 0x0 PUSH2 0x105C PUSH2 0x2268 JUMP JUMPDEST ADDRESS PUSH1 0x40 MLOAD PUSH1 0x20 ADD PUSH2 0x1071 SWAP6 SWAP5 SWAP4 SWAP3 SWAP2 SWAP1 PUSH2 0x45D4 JUMP JUMPDEST PUSH1 0x40 MLOAD PUSH1 0x20 DUP2 DUP4 SUB SUB DUP2 MSTORE SWAP1 PUSH1 0x40 MSTORE DUP1 MLOAD SWAP1 PUSH1 0x20 ADD KECCAK256 SWAP1 POP SWAP1 JUMP JUMPDEST PUSH2 0x109F PUSH2 0x1097 PUSH2 0xEAD JUMP JUMPDEST PUSH2 0x192 PUSH2 0xF12 JUMP JUMPDEST JUMP JUMPDEST PUSH2 0x10B4 PUSH5 0xE8D4A51000 DUP3 LT ISZERO PUSH1 0xCB PUSH2 0xF12 JUMP JUMPDEST PUSH2 0x10CA PUSH8 0x16345785D8A0000 DUP3 GT ISZERO PUSH1 0xCA PUSH2 0xF12 JUMP JUMPDEST PUSH1 0x7 DUP2 SWAP1 SSTORE PUSH1 0x40 MLOAD PUSH32 0xA9BA3FFE0B6C366B81232CAAB38605A0699AD5398D6CCE76F91EE809E322DAFC SWAP1 PUSH2 0xEA2 SWAP1 DUP4 SWAP1 PUSH2 0x4578 JUMP JUMPDEST PUSH32 0x0 SWAP1 JUMP JUMPDEST PUSH1 0x0 PUSH1 0x60 DUP1 PUSH1 0x60 PUSH2 0x1132 PUSH2 0x1C91 JUMP JUMPDEST SWAP1 POP PUSH2 0x113C PUSH2 0xEAD JUMP JUMPDEST ISZERO PUSH2 0x1173 JUMPI PUSH1 0x0 PUSH2 0x114D DUP3 DUP11 PUSH2 0x1EED JUMP JUMPDEST SWAP1 POP PUSH2 0x115E DUP10 DUP4 PUSH1 0x8 SLOAD DUP5 DUP12 PUSH2 0x226C JUMP JUMPDEST SWAP3 POP PUSH2 0x116D DUP10 DUP5 PUSH2 0xD83 PUSH2 0x237B JUMP JUMPDEST POP PUSH2 0x11BE JUMP JUMPDEST PUSH2 0x117B PUSH2 0x10FF JUMP JUMPDEST PUSH1 0x1 PUSH1 0x1 PUSH1 0x40 SHL SUB DUP2 GT DUP1 ISZERO PUSH2 0x1190 JUMPI PUSH1 0x0 DUP1 REVERT JUMPDEST POP PUSH1 0x40 MLOAD SWAP1 DUP1 DUP3 MSTORE DUP1 PUSH1 0x20 MUL PUSH1 0x20 ADD DUP3 ADD PUSH1 0x40 MSTORE DUP1 ISZERO PUSH2 0x11BA JUMPI DUP2 PUSH1 0x20 ADD PUSH1 0x20 DUP3 MUL DUP1 CALLDATASIZE DUP4 CALLDATACOPY ADD SWAP1 POP JUMPDEST POP SWAP2 POP JUMPDEST PUSH2 0x11C9 DUP9 DUP3 DUP8 PUSH2 0x23E6 JUMP JUMPDEST SWAP1 SWAP5 POP SWAP3 POP PUSH2 0x11D9 DUP9 DUP5 DUP4 PUSH2 0x2453 JUMP JUMPDEST PUSH1 0x8 SSTORE POP SWAP8 POP SWAP8 POP SWAP8 SWAP5 POP POP POP POP POP JUMP JUMPDEST PUSH1 0x0 JUMPDEST PUSH2 0x11F5 PUSH2 0x10FF JUMP JUMPDEST DUP2 LT ISZERO PUSH2 0x124B JUMPI PUSH2 0x122C DUP4 DUP3 DUP2 MLOAD DUP2 LT PUSH2 0x120B JUMPI INVALID JUMPDEST PUSH1 0x20 MUL PUSH1 0x20 ADD ADD MLOAD DUP4 DUP4 DUP2 MLOAD DUP2 LT PUSH2 0x121F JUMPI INVALID JUMPDEST PUSH1 0x20 MUL PUSH1 0x20 ADD ADD MLOAD PUSH2 0x246C JUMP JUMPDEST DUP4 DUP3 DUP2 MLOAD DUP2 LT PUSH2 0x1238 JUMPI INVALID JUMPDEST PUSH1 0x20 SWAP1 DUP2 MUL SWAP2 SWAP1 SWAP2 ADD ADD MSTORE PUSH1 0x1 ADD PUSH2 0x11ED JUMP JUMPDEST POP POP POP JUMP JUMPDEST CALLER ADDRESS EQ PUSH2 0x130E JUMPI PUSH1 0x0 ADDRESS PUSH1 0x1 PUSH1 0x1 PUSH1 0xA0 SHL SUB AND PUSH1 0x0 CALLDATASIZE PUSH1 0x40 MLOAD PUSH2 0x1274 SWAP3 SWAP2 SWAP1 PUSH2 0x44DE JUMP JUMPDEST PUSH1 0x0 PUSH1 0x40 MLOAD DUP1 DUP4 SUB DUP2 PUSH1 0x0 DUP7 GAS CALL SWAP2 POP POP RETURNDATASIZE DUP1 PUSH1 0x0 DUP2 EQ PUSH2 0x12B1 JUMPI PUSH1 0x40 MLOAD SWAP2 POP PUSH1 0x1F NOT PUSH1 0x3F RETURNDATASIZE ADD AND DUP3 ADD PUSH1 0x40 MSTORE RETURNDATASIZE DUP3 MSTORE RETURNDATASIZE PUSH1 0x0 PUSH1 0x20 DUP5 ADD RETURNDATACOPY PUSH2 0x12B6 JUMP JUMPDEST PUSH1 0x60 SWAP2 POP JUMPDEST POP POP SWAP1 POP DUP1 PUSH1 0x0 DUP2 EQ PUSH2 0x12C5 JUMPI INVALID JUMPDEST PUSH1 0x4 PUSH1 0x0 DUP1 RETURNDATACOPY PUSH1 0x0 MLOAD PUSH1 0x1 PUSH1 0x1 PUSH1 0xE0 SHL SUB NOT AND PUSH4 0x43ADBAFB PUSH1 0xE0 SHL DUP2 EQ PUSH2 0x12F0 JUMPI RETURNDATASIZE PUSH1 0x0 DUP1 RETURNDATACOPY RETURNDATASIZE PUSH1 0x0 REVERT JUMPDEST POP PUSH1 0x20 PUSH1 0x4 PUSH1 0x0 RETURNDATACOPY PUSH1 0x40 PUSH1 0x20 MSTORE PUSH1 0x24 RETURNDATASIZE SUB PUSH1 0x24 PUSH1 0x40 RETURNDATACOPY PUSH1 0x1C RETURNDATASIZE ADD PUSH1 0x0 RETURN JUMPDEST PUSH1 0x60 PUSH2 0x1318 PUSH2 0x13E7 JUMP JUMPDEST SWAP1 POP PUSH2 0x1324 DUP8 DUP3 PUSH2 0x1663 JUMP JUMPDEST PUSH1 0x0 PUSH1 0x60 PUSH2 0x133B DUP13 DUP13 DUP13 DUP13 DUP13 DUP13 DUP13 DUP13 PUSH4 0xFFFFFFFF AND JUMP JUMPDEST POP SWAP2 POP SWAP2 POP PUSH2 0x134E DUP2 DUP5 DUP7 PUSH4 0xFFFFFFFF AND JUMP JUMPDEST DUP1 MLOAD PUSH1 0x1F NOT DUP3 ADD DUP4 SWAP1 MSTORE PUSH4 0x43ADBAFB PUSH1 0x3F NOT DUP4 ADD MSTORE PUSH1 0x20 MUL PUSH1 0x23 NOT DUP3 ADD PUSH1 0x44 DUP3 ADD DUP2 REVERT JUMPDEST PUSH1 0x0 DUP3 DUP3 MUL PUSH2 0x5A1 DUP5 ISZERO DUP1 PUSH2 0x138F JUMPI POP DUP4 DUP6 DUP4 DUP2 PUSH2 0x138C JUMPI INVALID JUMPDEST DIV EQ JUMPDEST PUSH1 0x3 PUSH2 0xF12 JUMP JUMPDEST PUSH1 0x0 PUSH2 0x13A5 DUP3 ISZERO ISZERO PUSH1 0x4 PUSH2 0xF12 JUMP JUMPDEST DUP3 PUSH2 0x13B2 JUMPI POP PUSH1 0x0 PUSH2 0x4DC JUMP JUMPDEST PUSH8 0xDE0B6B3A7640000 DUP4 DUP2 MUL SWAP1 PUSH2 0x13D5 SWAP1 DUP6 DUP4 DUP2 PUSH2 0x13CC JUMPI INVALID JUMPDEST DIV EQ PUSH1 0x5 PUSH2 0xF12 JUMP JUMPDEST DUP3 DUP2 DUP2 PUSH2 0x13DE JUMPI INVALID JUMPDEST DIV SWAP2 POP POP PUSH2 0x4DC JUMP JUMPDEST PUSH1 0x60 PUSH1 0x0 PUSH2 0x13F3 PUSH2 0x10FF JUMP JUMPDEST SWAP1 POP PUSH1 0x60 DUP2 PUSH1 0x1 PUSH1 0x1 PUSH1 0x40 SHL SUB DUP2 GT DUP1 ISZERO PUSH2 0x140D JUMPI PUSH1 0x0 DUP1 REVERT JUMPDEST POP PUSH1 0x40 MLOAD SWAP1 DUP1 DUP3 MSTORE DUP1 PUSH1 0x20 MUL PUSH1 0x20 ADD DUP3 ADD PUSH1 0x40 MSTORE DUP1 ISZERO PUSH2 0x1437 JUMPI DUP2 PUSH1 0x20 ADD PUSH1 0x20 DUP3 MUL DUP1 CALLDATASIZE DUP4 CALLDATACOPY ADD SWAP1 POP JUMPDEST POP SWAP1 POP DUP2 ISZERO PUSH2 0x147F JUMPI PUSH32 0x0 DUP2 PUSH1 0x0 DUP2 MLOAD DUP2 LT PUSH2 0x146E JUMPI INVALID JUMPDEST PUSH1 0x20 MUL PUSH1 0x20 ADD ADD DUP2 DUP2 MSTORE POP POP PUSH2 0x1488 JUMP JUMPDEST SWAP2 POP PUSH2 0x4C8 SWAP1 POP JUMP JUMPDEST PUSH1 0x1 DUP3 GT ISZERO PUSH2 0x147F JUMPI PUSH32 0x0 DUP2 PUSH1 0x1 DUP2 MLOAD DUP2 LT PUSH2 0x14BF JUMPI INVALID JUMPDEST PUSH1 0x20 MUL PUSH1 0x20 ADD ADD DUP2 DUP2 MSTORE POP POP PUSH1 0x2 DUP3 GT ISZERO PUSH2 0x147F JUMPI PUSH32 0x0 DUP2 PUSH1 0x2 DUP2 MLOAD DUP2 LT PUSH2 0x1502 JUMPI INVALID JUMPDEST PUSH1 0x20 MUL PUSH1 0x20 ADD ADD DUP2 DUP2 MSTORE POP POP PUSH1 0x3 DUP3 GT ISZERO PUSH2 0x147F JUMPI PUSH32 0x0 DUP2 PUSH1 0x3 DUP2 MLOAD DUP2 LT PUSH2 0x1545 JUMPI INVALID JUMPDEST PUSH1 0x20 MUL PUSH1 0x20 ADD ADD DUP2 DUP2 MSTORE POP POP PUSH1 0x4 DUP3 GT ISZERO PUSH2 0x147F JUMPI PUSH32 0x0 DUP2 PUSH1 0x4 DUP2 MLOAD DUP2 LT PUSH2 0x1588 JUMPI INVALID JUMPDEST PUSH1 0x20 MUL PUSH1 0x20 ADD ADD DUP2 DUP2 MSTORE POP POP PUSH1 0x5 DUP3 GT ISZERO PUSH2 0x147F JUMPI PUSH32 0x0 DUP2 PUSH1 0x5 DUP2 MLOAD DUP2 LT PUSH2 0x15CB JUMPI INVALID JUMPDEST PUSH1 0x20 MUL PUSH1 0x20 ADD ADD DUP2 DUP2 MSTORE POP POP PUSH1 0x6 DUP3 GT ISZERO PUSH2 0x147F JUMPI PUSH32 0x0 DUP2 PUSH1 0x6 DUP2 MLOAD DUP2 LT PUSH2 0x160E JUMPI INVALID JUMPDEST PUSH1 0x20 MUL PUSH1 0x20 ADD ADD DUP2 DUP2 MSTORE POP POP PUSH1 0x7 DUP3 GT ISZERO PUSH2 0x147F JUMPI PUSH32 0x0 DUP2 PUSH1 0x7 DUP2 MLOAD DUP2 LT PUSH2 0x1651 JUMPI INVALID JUMPDEST PUSH1 0x20 MUL PUSH1 0x20 ADD ADD DUP2 DUP2 MSTORE POP POP SWAP2 POP POP SWAP1 JUMP JUMPDEST PUSH1 0x0 JUMPDEST PUSH2 0x166E PUSH2 0x10FF JUMP JUMPDEST DUP2 LT ISZERO PUSH2 0x124B JUMPI PUSH2 0x16A5 DUP4 DUP3 DUP2 MLOAD DUP2 LT PUSH2 0x1684 JUMPI INVALID JUMPDEST PUSH1 0x20 MUL PUSH1 0x20 ADD ADD MLOAD DUP4 DUP4 DUP2 MLOAD DUP2 LT PUSH2 0x1698 JUMPI INVALID JUMPDEST PUSH1 0x20 MUL PUSH1 0x20 ADD ADD MLOAD PUSH2 0x1372 JUMP JUMPDEST DUP4 DUP3 DUP2 MLOAD DUP2 LT PUSH2 0x16B1 JUMPI INVALID JUMPDEST PUSH1 0x20 SWAP1 DUP2 MUL SWAP2 SWAP1 SWAP2 ADD ADD MSTORE PUSH1 0x1 ADD PUSH2 0x1666 JUMP JUMPDEST PUSH1 0x1 PUSH1 0x1 PUSH1 0xA0 SHL SUB DUP3 AND PUSH1 0x0 SWAP1 DUP2 MSTORE PUSH1 0x20 DUP2 SWAP1 MSTORE PUSH1 0x40 SWAP1 KECCAK256 SLOAD PUSH2 0x16EC DUP3 DUP3 LT ISZERO PUSH2 0x196 PUSH2 0xF12 JUMP JUMPDEST PUSH1 0x1 PUSH1 0x1 PUSH1 0xA0 SHL SUB DUP4 AND PUSH1 0x0 SWAP1 DUP2 MSTORE PUSH1 0x20 DUP2 SWAP1 MSTORE PUSH1 0x40 SWAP1 KECCAK256 DUP3 DUP3 SUB SWAP1 SSTORE PUSH1 0x2 SLOAD PUSH2 0x1716 SWAP1 DUP4 PUSH2 0xD83 JUMP JUMPDEST PUSH1 0x2 SSTORE PUSH1 0x40 MLOAD PUSH1 0x0 SWAP1 PUSH1 0x1 PUSH1 0x1 PUSH1 0xA0 SHL SUB DUP6 AND SWAP1 PUSH32 0xDDF252AD1BE2C89B69C2B068FC378DAA952BA7F163C4A11628F55A4DF523B3EF SWAP1 PUSH2 0xDF4 SWAP1 DUP7 SWAP1 PUSH2 0x4578 JUMP JUMPDEST PUSH1 0x0 PUSH1 0x60 DUP1 PUSH2 0x1764 PUSH2 0x108C JUMP JUMPDEST PUSH1 0x60 PUSH2 0x176E PUSH2 0x1C91 JUMP JUMPDEST SWAP1 POP PUSH1 0x0 PUSH2 0x177C DUP3 DUP11 PUSH2 0x1EED JUMP JUMPDEST SWAP1 POP PUSH1 0x60 PUSH2 0x178F DUP11 DUP5 PUSH1 0x8 SLOAD DUP6 DUP13 PUSH2 0x226C JUMP JUMPDEST SWAP1 POP PUSH2 0x179E DUP11 DUP3 PUSH2 0xD83 PUSH2 0x237B JUMP JUMPDEST PUSH1 0x0 PUSH1 0x60 PUSH2 0x17AD DUP13 DUP7 DUP12 PUSH2 0x248C JUMP JUMPDEST SWAP2 POP SWAP2 POP PUSH2 0x17BC DUP13 DUP3 DUP8 PUSH2 0x24E6 JUMP JUMPDEST PUSH1 0x8 SSTORE SWAP1 SWAP15 SWAP1 SWAP14 POP SWAP1 SWAP12 POP SWAP10 POP POP POP POP POP POP POP POP POP POP JUMP JUMPDEST PUSH1 0x0 JUMPDEST PUSH2 0x17DF PUSH2 0x10FF JUMP JUMPDEST DUP2 LT ISZERO PUSH2 0x124B JUMPI PUSH2 0x1816 DUP4 DUP3 DUP2 MLOAD DUP2 LT PUSH2 0x17F5 JUMPI INVALID JUMPDEST PUSH1 0x20 MUL PUSH1 0x20 ADD ADD MLOAD DUP4 DUP4 DUP2 MLOAD DUP2 LT PUSH2 0x1809 JUMPI INVALID JUMPDEST PUSH1 0x20 MUL PUSH1 0x20 ADD ADD MLOAD PUSH2 0x24F5 JUMP JUMPDEST DUP4 DUP3 DUP2 MLOAD DUP2 LT PUSH2 0x1822 JUMPI INVALID JUMPDEST PUSH1 0x20 SWAP1 DUP2 MUL SWAP2 SWAP1 SWAP2 ADD ADD MSTORE PUSH1 0x1 ADD PUSH2 0x17D7 JUMP JUMPDEST PUSH1 0x0 PUSH32 0x0 PUSH1 0x1 PUSH1 0x1 PUSH1 0xA0 SHL SUB AND DUP3 PUSH1 0x1 PUSH1 0x1 PUSH1 0xA0 SHL SUB AND EQ ISZERO PUSH2 0x1898 JUMPI POP PUSH32 0x0 PUSH2 0x6D5 JUMP JUMPDEST PUSH32 0x0 PUSH1 0x1 PUSH1 0x1 PUSH1 0xA0 SHL SUB AND DUP3 PUSH1 0x1 PUSH1 0x1 PUSH1 0xA0 SHL SUB AND EQ ISZERO PUSH2 0x18F9 JUMPI POP PUSH32 0x0 PUSH2 0x6D5 JUMP JUMPDEST PUSH32 0x0 PUSH1 0x1 PUSH1 0x1 PUSH1 0xA0 SHL SUB AND DUP3 PUSH1 0x1 PUSH1 0x1 PUSH1 0xA0 SHL SUB AND EQ ISZERO PUSH2 0x195A JUMPI POP PUSH32 0x0 PUSH2 0x6D5 JUMP JUMPDEST PUSH32 0x0 PUSH1 0x1 PUSH1 0x1 PUSH1 0xA0 SHL SUB AND DUP3 PUSH1 0x1 PUSH1 0x1 PUSH1 0xA0 SHL SUB AND EQ ISZERO PUSH2 0x19BB JUMPI POP PUSH32 0x0 PUSH2 0x6D5 JUMP JUMPDEST PUSH32 0x0 PUSH1 0x1 PUSH1 0x1 PUSH1 0xA0 SHL SUB AND DUP3 PUSH1 0x1 PUSH1 0x1 PUSH1 0xA0 SHL SUB AND EQ ISZERO PUSH2 0x1A1C JUMPI POP PUSH32 0x0 PUSH2 0x6D5 JUMP JUMPDEST PUSH32 0x0 PUSH1 0x1 PUSH1 0x1 PUSH1 0xA0 SHL SUB AND DUP3 PUSH1 0x1 PUSH1 0x1 PUSH1 0xA0 SHL SUB AND EQ ISZERO PUSH2 0x1A7D JUMPI POP PUSH32 0x0 PUSH2 0x6D5 JUMP JUMPDEST PUSH32 0x0 PUSH1 0x1 PUSH1 0x1 PUSH1 0xA0 SHL SUB AND DUP3 PUSH1 0x1 PUSH1 0x1 PUSH1 0xA0 SHL SUB AND EQ ISZERO PUSH2 0x1ADE JUMPI POP PUSH32 0x0 PUSH2 0x6D5 JUMP JUMPDEST PUSH32 0x0 PUSH1 0x1 PUSH1 0x1 PUSH1 0xA0 SHL SUB AND DUP3 PUSH1 0x1 PUSH1 0x1 PUSH1 0xA0 SHL SUB AND EQ ISZERO PUSH2 0x1B3F JUMPI POP PUSH32 0x0 PUSH2 0x6D5 JUMP JUMPDEST PUSH2 0x6D5 PUSH2 0x135 PUSH2 0x2215 JUMP JUMPDEST PUSH1 0x0 DUP1 PUSH2 0x1B62 PUSH1 0x7 SLOAD DUP5 PUSH2 0x2528 SWAP1 SWAP2 SWAP1 PUSH4 0xFFFFFFFF AND JUMP JUMPDEST SWAP1 POP PUSH2 0x5A1 DUP4 DUP3 PUSH2 0xD83 JUMP JUMPDEST PUSH1 0x0 PUSH2 0x5A1 DUP4 DUP4 PUSH2 0x1372 JUMP JUMPDEST PUSH1 0x0 PUSH2 0x1B84 PUSH2 0x108C JUMP JUMPDEST PUSH2 0x1BAD DUP4 PUSH2 0x1B95 DUP7 PUSH1 0x20 ADD MLOAD PUSH2 0x256C JUMP JUMPDEST DUP5 PUSH2 0x1BA3 DUP9 PUSH1 0x40 ADD MLOAD PUSH2 0x256C JUMP JUMPDEST DUP9 PUSH1 0x60 ADD MLOAD PUSH2 0x2876 JUMP JUMPDEST SWAP5 SWAP4 POP POP POP POP JUMP JUMPDEST PUSH1 0x0 PUSH2 0x5A1 DUP4 DUP4 PUSH2 0x246C JUMP JUMPDEST PUSH1 0x0 PUSH2 0x1BCB PUSH2 0x108C JUMP JUMPDEST PUSH2 0x1BAD DUP4 PUSH2 0x1BDC DUP7 PUSH1 0x20 ADD MLOAD PUSH2 0x256C JUMP JUMPDEST DUP5 PUSH2 0x1BEA DUP9 PUSH1 0x40 ADD MLOAD PUSH2 0x256C JUMP JUMPDEST DUP9 PUSH1 0x60 ADD MLOAD PUSH2 0x28F1 JUMP JUMPDEST PUSH1 0x0 PUSH2 0x5A1 DUP4 DUP4 PUSH2 0x24F5 JUMP JUMPDEST PUSH1 0x0 PUSH2 0x4DC PUSH2 0x1C10 PUSH1 0x7 SLOAD PUSH2 0x2967 JUMP JUMPDEST DUP4 SWAP1 PUSH2 0x298D JUMP JUMPDEST PUSH1 0x0 PUSH2 0x1C21 PUSH2 0x833 JUMP JUMPDEST PUSH1 0x1 PUSH1 0x1 PUSH1 0xA0 SHL SUB AND PUSH4 0xAAABADC5 PUSH1 0x40 MLOAD DUP2 PUSH4 0xFFFFFFFF AND PUSH1 0xE0 SHL DUP2 MSTORE PUSH1 0x4 ADD PUSH1 0x20 PUSH1 0x40 MLOAD DUP1 DUP4 SUB DUP2 DUP7 DUP1 EXTCODESIZE ISZERO DUP1 ISZERO PUSH2 0x1C59 JUMPI PUSH1 0x0 DUP1 REVERT JUMPDEST POP GAS STATICCALL ISZERO DUP1 ISZERO PUSH2 0x1C6D JUMPI RETURNDATASIZE PUSH1 0x0 DUP1 RETURNDATACOPY RETURNDATASIZE PUSH1 0x0 REVERT JUMPDEST POP POP POP POP PUSH1 0x40 MLOAD RETURNDATASIZE PUSH1 0x1F NOT PUSH1 0x1F DUP3 ADD AND DUP3 ADD DUP1 PUSH1 0x40 MSTORE POP DUP2 ADD SWAP1 PUSH2 0x5B7 SWAP2 SWAP1 PUSH2 0x424A JUMP JUMPDEST PUSH1 0x60 PUSH1 0x0 PUSH2 0x1C9D PUSH2 0x10FF JUMP JUMPDEST SWAP1 POP PUSH1 0x60 DUP2 PUSH1 0x1 PUSH1 0x1 PUSH1 0x40 SHL SUB DUP2 GT DUP1 ISZERO PUSH2 0x1CB7 JUMPI PUSH1 0x0 DUP1 REVERT JUMPDEST POP PUSH1 0x40 MLOAD SWAP1 DUP1 DUP3 MSTORE DUP1 PUSH1 0x20 MUL PUSH1 0x20 ADD DUP3 ADD PUSH1 0x40 MSTORE DUP1 ISZERO PUSH2 0x1CE1 JUMPI DUP2 PUSH1 0x20 ADD PUSH1 0x20 DUP3 MUL DUP1 CALLDATASIZE DUP4 CALLDATACOPY ADD SWAP1 POP JUMPDEST POP SWAP1 POP DUP2 ISZERO PUSH2 0x147F JUMPI PUSH32 0x0 DUP2 PUSH1 0x0 DUP2 MLOAD DUP2 LT PUSH2 0x1D18 JUMPI INVALID JUMPDEST PUSH1 0x20 MUL PUSH1 0x20 ADD ADD DUP2 DUP2 MSTORE POP POP PUSH1 0x1 DUP3 GT ISZERO PUSH2 0x147F JUMPI PUSH32 0x0 DUP2 PUSH1 0x1 DUP2 MLOAD DUP2 LT PUSH2 0x1D5B JUMPI INVALID JUMPDEST PUSH1 0x20 MUL PUSH1 0x20 ADD ADD DUP2 DUP2 MSTORE POP POP PUSH1 0x2 DUP3 GT ISZERO PUSH2 0x147F JUMPI PUSH32 0x0 DUP2 PUSH1 0x2 DUP2 MLOAD DUP2 LT PUSH2 0x1D9E JUMPI INVALID JUMPDEST PUSH1 0x20 MUL PUSH1 0x20 ADD ADD DUP2 DUP2 MSTORE POP POP PUSH1 0x3 DUP3 GT ISZERO PUSH2 0x147F JUMPI PUSH32 0x0 DUP2 PUSH1 0x3 DUP2 MLOAD DUP2 LT PUSH2 0x1DE1 JUMPI INVALID JUMPDEST PUSH1 0x20 MUL PUSH1 0x20 ADD ADD DUP2 DUP2 MSTORE POP POP PUSH1 0x4 DUP3 GT ISZERO PUSH2 0x147F JUMPI PUSH32 0x0 DUP2 PUSH1 0x4 DUP2 MLOAD DUP2 LT PUSH2 0x1E24 JUMPI INVALID JUMPDEST PUSH1 0x20 MUL PUSH1 0x20 ADD ADD DUP2 DUP2 MSTORE POP POP PUSH1 0x5 DUP3 GT ISZERO PUSH2 0x147F JUMPI PUSH32 0x0 DUP2 PUSH1 0x5 DUP2 MLOAD DUP2 LT PUSH2 0x1E67 JUMPI INVALID JUMPDEST PUSH1 0x20 MUL PUSH1 0x20 ADD ADD DUP2 DUP2 MSTORE POP POP PUSH1 0x6 DUP3 GT ISZERO PUSH2 0x147F JUMPI PUSH32 0x0 DUP2 PUSH1 0x6 DUP2 MLOAD DUP2 LT PUSH2 0x1EAA JUMPI INVALID JUMPDEST PUSH1 0x20 MUL PUSH1 0x20 ADD ADD DUP2 DUP2 MSTORE POP POP PUSH1 0x7 DUP3 GT ISZERO PUSH2 0x147F JUMPI PUSH32 0x0 DUP2 PUSH1 0x7 DUP2 MLOAD DUP2 LT PUSH2 0x1651 JUMPI INVALID JUMPDEST PUSH8 0xDE0B6B3A7640000 PUSH1 0x0 JUMPDEST DUP4 MLOAD DUP2 LT ISZERO PUSH2 0x1F4F JUMPI PUSH2 0x1F45 PUSH2 0x1F3E DUP6 DUP4 DUP2 MLOAD DUP2 LT PUSH2 0x1F14 JUMPI INVALID JUMPDEST PUSH1 0x20 MUL PUSH1 0x20 ADD ADD MLOAD DUP6 DUP5 DUP2 MLOAD DUP2 LT PUSH2 0x1F28 JUMPI INVALID JUMPDEST PUSH1 0x20 MUL PUSH1 0x20 ADD ADD MLOAD PUSH2 0x29CF SWAP1 SWAP2 SWAP1 PUSH4 0xFFFFFFFF AND JUMP JUMPDEST DUP4 SWAP1 PUSH2 0x2A1E JUMP JUMPDEST SWAP2 POP PUSH1 0x1 ADD PUSH2 0x1EF9 JUMP JUMPDEST POP PUSH2 0x4DC PUSH1 0x0 DUP3 GT PUSH2 0x137 PUSH2 0xF12 JUMP JUMPDEST PUSH1 0x0 PUSH2 0x1F69 PUSH2 0xFEF JUMP JUMPDEST DUP3 PUSH1 0x40 MLOAD PUSH1 0x20 ADD PUSH2 0x7CC SWAP3 SWAP2 SWAP1 PUSH2 0x44EE JUMP JUMPDEST PUSH1 0x0 PUSH1 0x60 PUSH2 0x1F87 PUSH2 0x108C JUMP JUMPDEST PUSH1 0x0 PUSH2 0x1F92 DUP5 PUSH2 0x2A4A JUMP JUMPDEST SWAP1 POP PUSH2 0x1FAD PUSH1 0x0 DUP3 PUSH1 0x2 DUP2 GT ISZERO PUSH2 0x1FA5 JUMPI INVALID JUMPDEST EQ PUSH1 0xCE PUSH2 0xF12 JUMP JUMPDEST PUSH1 0x60 PUSH2 0x1FB8 DUP6 PUSH2 0x2A60 JUMP JUMPDEST SWAP1 POP PUSH2 0x1FCC PUSH2 0x1FC5 PUSH2 0x10FF JUMP JUMPDEST DUP3 MLOAD PUSH2 0xD64 JUMP JUMPDEST PUSH2 0x1FD8 DUP2 PUSH2 0xA5E PUSH2 0x13E7 JUMP JUMPDEST PUSH1 0x60 PUSH2 0x1FE2 PUSH2 0x1C91 JUMP JUMPDEST SWAP1 POP PUSH1 0x0 PUSH2 0x1FF0 DUP3 DUP5 PUSH2 0x1EED JUMP JUMPDEST SWAP1 POP PUSH1 0x0 PUSH2 0x2000 DUP3 PUSH2 0x6B0 PUSH2 0x10FF JUMP JUMPDEST PUSH1 0x8 SWAP3 SWAP1 SWAP3 SSTORE POP SWAP10 SWAP2 SWAP9 POP SWAP1 SWAP7 POP POP POP POP POP POP POP JUMP JUMPDEST PUSH1 0x1 PUSH1 0x1 PUSH1 0xA0 SHL SUB DUP3 AND PUSH1 0x0 SWAP1 DUP2 MSTORE PUSH1 0x20 DUP2 SWAP1 MSTORE PUSH1 0x40 SWAP1 KECCAK256 SLOAD PUSH2 0x2039 SWAP1 DUP3 PUSH2 0xD71 JUMP JUMPDEST PUSH1 0x1 PUSH1 0x1 PUSH1 0xA0 SHL SUB DUP4 AND PUSH1 0x0 SWAP1 DUP2 MSTORE PUSH1 0x20 DUP2 SWAP1 MSTORE PUSH1 0x40 SWAP1 KECCAK256 SSTORE PUSH1 0x2 SLOAD PUSH2 0x205F SWAP1 DUP3 PUSH2 0xD71 JUMP JUMPDEST PUSH1 0x2 SSTORE PUSH1 0x40 MLOAD PUSH1 0x1 PUSH1 0x1 PUSH1 0xA0 SHL SUB DUP4 AND SWAP1 PUSH1 0x0 SWAP1 PUSH32 0xDDF252AD1BE2C89B69C2B068FC378DAA952BA7F163C4A11628F55A4DF523B3EF SWAP1 PUSH2 0x20A0 SWAP1 DUP6 SWAP1 PUSH2 0x4578 JUMP JUMPDEST PUSH1 0x40 MLOAD DUP1 SWAP2 SUB SWAP1 LOG3 POP POP JUMP JUMPDEST PUSH1 0x2 DUP2 MLOAD LT ISZERO PUSH2 0x20BB JUMPI PUSH2 0x4F3 JUMP JUMPDEST PUSH1 0x0 DUP2 PUSH1 0x0 DUP2 MLOAD DUP2 LT PUSH2 0x20CA JUMPI INVALID JUMPDEST PUSH1 0x20 MUL PUSH1 0x20 ADD ADD MLOAD SWAP1 POP PUSH1 0x0 PUSH1 0x1 SWAP1 POP JUMPDEST DUP3 MLOAD DUP2 LT ISZERO PUSH2 0x124B JUMPI PUSH1 0x0 DUP4 DUP3 DUP2 MLOAD DUP2 LT PUSH2 0x20F2 JUMPI INVALID JUMPDEST PUSH1 0x20 MUL PUSH1 0x20 ADD ADD MLOAD SWAP1 POP PUSH2 0x211B DUP2 PUSH1 0x1 PUSH1 0x1 PUSH1 0xA0 SHL SUB AND DUP5 PUSH1 0x1 PUSH1 0x1 PUSH1 0xA0 SHL SUB AND LT PUSH1 0x65 PUSH2 0xF12 JUMP JUMPDEST SWAP2 POP PUSH1 0x1 ADD PUSH2 0x20DB JUMP JUMPDEST PUSH1 0x0 PUSH20 0xBA1BA1BA1BA1BA1BA1BA1BA1BA1BA1BA1BA1BA1B PUSH2 0x2144 PUSH2 0x80F JUMP JUMPDEST PUSH1 0x1 PUSH1 0x1 PUSH1 0xA0 SHL SUB AND EQ ISZERO DUP1 ISZERO PUSH2 0x215F JUMPI POP PUSH2 0x215F DUP4 PUSH2 0x2A76 JUMP JUMPDEST ISZERO PUSH2 0x2187 JUMPI PUSH2 0x216C PUSH2 0x80F JUMP JUMPDEST PUSH1 0x1 PUSH1 0x1 PUSH1 0xA0 SHL SUB AND CALLER PUSH1 0x1 PUSH1 0x1 PUSH1 0xA0 SHL SUB AND EQ SWAP1 POP PUSH2 0x4DC JUMP JUMPDEST PUSH2 0x218F PUSH2 0x1C17 JUMP JUMPDEST PUSH1 0x1 PUSH1 0x1 PUSH1 0xA0 SHL SUB AND PUSH4 0x9BE2A884 DUP5 DUP5 ADDRESS PUSH1 0x40 MLOAD DUP5 PUSH4 0xFFFFFFFF AND PUSH1 0xE0 SHL DUP2 MSTORE PUSH1 0x4 ADD PUSH2 0x21BE SWAP4 SWAP3 SWAP2 SWAP1 PUSH2 0x4581 JUMP JUMPDEST PUSH1 0x20 PUSH1 0x40 MLOAD DUP1 DUP4 SUB DUP2 DUP7 DUP1 EXTCODESIZE ISZERO DUP1 ISZERO PUSH2 0x21D6 JUMPI PUSH1 0x0 DUP1 REVERT JUMPDEST POP GAS STATICCALL ISZERO DUP1 ISZERO PUSH2 0x21EA JUMPI RETURNDATASIZE PUSH1 0x0 DUP1 RETURNDATACOPY RETURNDATASIZE PUSH1 0x0 REVERT JUMPDEST POP POP POP POP PUSH1 0x40 MLOAD RETURNDATASIZE PUSH1 0x1F NOT PUSH1 0x1F DUP3 ADD AND DUP3 ADD DUP1 PUSH1 0x40 MSTORE POP DUP2 ADD SWAP1 PUSH2 0x220E SWAP2 SWAP1 PUSH2 0x410A JUMP JUMPDEST SWAP1 POP PUSH2 0x4DC JUMP JUMPDEST PUSH3 0x461BCD PUSH1 0xE5 SHL PUSH1 0x0 SWAP1 DUP2 MSTORE PUSH1 0x20 PUSH1 0x4 MSTORE PUSH1 0x7 PUSH1 0x24 MSTORE PUSH7 0x42414C23000030 PUSH1 0xA DUP1 DUP5 DIV DUP2 DUP2 MOD PUSH1 0x30 SWAP1 DUP2 ADD PUSH1 0x8 SHL SWAP6 DUP4 SWAP1 MOD SWAP6 SWAP1 SWAP6 ADD SWAP1 DUP3 SWAP1 DIV SWAP2 DUP3 MOD SWAP1 SWAP5 ADD PUSH1 0x10 SHL SWAP4 SWAP1 SWAP4 ADD ADD PUSH1 0xC8 SHL PUSH1 0x44 MSTORE PUSH1 0x64 SWAP1 REVERT JUMPDEST CHAINID SWAP1 JUMP JUMPDEST PUSH1 0x60 DUP1 PUSH2 0x2277 PUSH2 0x10FF JUMP JUMPDEST PUSH1 0x1 PUSH1 0x1 PUSH1 0x40 SHL SUB DUP2 GT DUP1 ISZERO PUSH2 0x228C JUMPI PUSH1 0x0 DUP1 REVERT JUMPDEST POP PUSH1 0x40 MLOAD SWAP1 DUP1 DUP3 MSTORE DUP1 PUSH1 0x20 MUL PUSH1 0x20 ADD DUP3 ADD PUSH1 0x40 MSTORE DUP1 ISZERO PUSH2 0x22B6 JUMPI DUP2 PUSH1 0x20 ADD PUSH1 0x20 DUP3 MUL DUP1 CALLDATASIZE DUP4 CALLDATACOPY ADD SWAP1 POP JUMPDEST POP SWAP1 POP DUP3 PUSH2 0x22C5 JUMPI SWAP1 POP PUSH2 0x2372 JUMP JUMPDEST PUSH2 0x2338 DUP8 PUSH32 0x0 DUP2 MLOAD DUP2 LT PUSH2 0x22F4 JUMPI INVALID JUMPDEST PUSH1 0x20 MUL PUSH1 0x20 ADD ADD MLOAD DUP8 PUSH32 0x0 DUP2 MLOAD DUP2 LT PUSH2 0x2328 JUMPI INVALID JUMPDEST PUSH1 0x20 MUL PUSH1 0x20 ADD ADD MLOAD DUP8 DUP8 DUP8 PUSH2 0x2A90 JUMP JUMPDEST DUP2 PUSH32 0x0 DUP2 MLOAD DUP2 LT PUSH2 0x2364 JUMPI INVALID JUMPDEST PUSH1 0x20 SWAP1 DUP2 MUL SWAP2 SWAP1 SWAP2 ADD ADD MSTORE SWAP1 POP JUMPDEST SWAP6 SWAP5 POP POP POP POP POP JUMP JUMPDEST PUSH1 0x0 JUMPDEST PUSH2 0x2386 PUSH2 0x10FF JUMP JUMPDEST DUP2 LT ISZERO PUSH2 0x23E0 JUMPI PUSH2 0x23C1 DUP5 DUP3 DUP2 MLOAD DUP2 LT PUSH2 0x239C JUMPI INVALID JUMPDEST PUSH1 0x20 MUL PUSH1 0x20 ADD ADD MLOAD DUP5 DUP4 DUP2 MLOAD DUP2 LT PUSH2 0x23B0 JUMPI INVALID JUMPDEST PUSH1 0x20 MUL PUSH1 0x20 ADD ADD MLOAD DUP5 PUSH4 0xFFFFFFFF AND JUMP JUMPDEST DUP5 DUP3 DUP2 MLOAD DUP2 LT PUSH2 0x23CD JUMPI INVALID JUMPDEST PUSH1 0x20 SWAP1 DUP2 MUL SWAP2 SWAP1 SWAP2 ADD ADD MSTORE PUSH1 0x1 ADD PUSH2 0x237E JUMP JUMPDEST POP POP POP POP JUMP JUMPDEST PUSH1 0x0 PUSH1 0x60 PUSH1 0x0 PUSH2 0x23F5 DUP5 PUSH2 0x2A4A JUMP JUMPDEST SWAP1 POP PUSH1 0x0 DUP2 PUSH1 0x2 DUP2 GT ISZERO PUSH2 0x2405 JUMPI INVALID JUMPDEST EQ ISZERO PUSH2 0x2420 JUMPI PUSH2 0x2416 DUP7 DUP7 DUP7 PUSH2 0x2B08 JUMP JUMPDEST SWAP3 POP SWAP3 POP POP PUSH2 0x244B JUMP JUMPDEST PUSH1 0x1 DUP2 PUSH1 0x2 DUP2 GT ISZERO PUSH2 0x242E JUMPI INVALID JUMPDEST EQ ISZERO PUSH2 0x243E JUMPI PUSH2 0x2416 DUP7 DUP6 PUSH2 0x2BE5 JUMP JUMPDEST PUSH2 0x2416 DUP7 DUP7 DUP7 PUSH2 0x2C17 JUMP JUMPDEST POP JUMPDEST SWAP4 POP SWAP4 SWAP2 POP POP JUMP JUMPDEST PUSH1 0x0 PUSH2 0x2462 DUP5 DUP5 PUSH2 0xD83 PUSH2 0x237B JUMP JUMPDEST PUSH2 0x1BAD DUP3 DUP6 PUSH2 0x1EED JUMP JUMPDEST PUSH1 0x0 PUSH2 0x247B DUP3 ISZERO ISZERO PUSH1 0x4 PUSH2 0xF12 JUMP JUMPDEST DUP2 DUP4 DUP2 PUSH2 0x2484 JUMPI INVALID JUMPDEST DIV SWAP4 SWAP3 POP POP POP JUMP JUMPDEST PUSH1 0x0 PUSH1 0x60 PUSH1 0x0 PUSH2 0x249B DUP5 PUSH2 0x2A4A JUMP JUMPDEST SWAP1 POP PUSH1 0x1 DUP2 PUSH1 0x2 DUP2 GT ISZERO PUSH2 0x24AB JUMPI INVALID JUMPDEST EQ ISZERO PUSH2 0x24BC JUMPI PUSH2 0x2416 DUP7 DUP7 DUP7 PUSH2 0x2C82 JUMP JUMPDEST PUSH1 0x2 DUP2 PUSH1 0x2 DUP2 GT ISZERO PUSH2 0x24CA JUMPI INVALID JUMPDEST EQ ISZERO PUSH2 0x24DB JUMPI PUSH2 0x2416 DUP7 DUP7 DUP7 PUSH2 0x2CDC JUMP JUMPDEST PUSH2 0x2449 PUSH2 0x136 PUSH2 0x2215 JUMP JUMPDEST PUSH1 0x0 PUSH2 0x2462 DUP5 DUP5 PUSH2 0xD71 PUSH2 0x237B JUMP JUMPDEST PUSH1 0x0 PUSH2 0x2504 DUP3 ISZERO ISZERO PUSH1 0x4 PUSH2 0xF12 JUMP JUMPDEST DUP3 PUSH2 0x2511 JUMPI POP PUSH1 0x0 PUSH2 0x4DC JUMP JUMPDEST DUP2 PUSH1 0x1 DUP5 SUB DUP2 PUSH2 0x251D JUMPI INVALID JUMPDEST DIV PUSH1 0x1 ADD SWAP1 POP PUSH2 0x4DC JUMP JUMPDEST PUSH1 0x0 DUP3 DUP3 MUL PUSH2 0x2542 DUP5 ISZERO DUP1 PUSH2 0x138F JUMPI POP DUP4 DUP6 DUP4 DUP2 PUSH2 0x138C JUMPI INVALID JUMPDEST DUP1 PUSH2 0x2551 JUMPI PUSH1 0x0 SWAP2 POP POP PUSH2 0x4DC JUMP JUMPDEST PUSH8 0xDE0B6B3A7640000 PUSH1 0x0 NOT DUP3 ADD JUMPDEST DIV PUSH1 0x1 ADD SWAP2 POP POP PUSH2 0x4DC JUMP JUMPDEST PUSH1 0x0 PUSH32 0x0 PUSH1 0x1 PUSH1 0x1 PUSH1 0xA0 SHL SUB AND DUP3 PUSH1 0x1 PUSH1 0x1 PUSH1 0xA0 SHL SUB AND EQ ISZERO PUSH2 0x25CF JUMPI POP PUSH32 0x0 PUSH2 0x6D5 JUMP JUMPDEST PUSH32 0x0 PUSH1 0x1 PUSH1 0x1 PUSH1 0xA0 SHL SUB AND DUP3 PUSH1 0x1 PUSH1 0x1 PUSH1 0xA0 SHL SUB AND EQ ISZERO PUSH2 0x2630 JUMPI POP PUSH32 0x0 PUSH2 0x6D5 JUMP JUMPDEST PUSH32 0x0 PUSH1 0x1 PUSH1 0x1 PUSH1 0xA0 SHL SUB AND DUP3 PUSH1 0x1 PUSH1 0x1 PUSH1 0xA0 SHL SUB AND EQ ISZERO PUSH2 0x2691 JUMPI POP PUSH32 0x0 PUSH2 0x6D5 JUMP JUMPDEST PUSH32 0x0 PUSH1 0x1 PUSH1 0x1 PUSH1 0xA0 SHL SUB AND DUP3 PUSH1 0x1 PUSH1 0x1 PUSH1 0xA0 SHL SUB AND EQ ISZERO PUSH2 0x26F2 JUMPI POP PUSH32 0x0 PUSH2 0x6D5 JUMP JUMPDEST PUSH32 0x0 PUSH1 0x1 PUSH1 0x1 PUSH1 0xA0 SHL SUB AND DUP3 PUSH1 0x1 PUSH1 0x1 PUSH1 0xA0 SHL SUB AND EQ ISZERO PUSH2 0x2753 JUMPI POP PUSH32 0x0 PUSH2 0x6D5 JUMP JUMPDEST PUSH32 0x0 PUSH1 0x1 PUSH1 0x1 PUSH1 0xA0 SHL SUB AND DUP3 PUSH1 0x1 PUSH1 0x1 PUSH1 0xA0 SHL SUB AND EQ ISZERO PUSH2 0x27B4 JUMPI POP PUSH32 0x0 PUSH2 0x6D5 JUMP JUMPDEST PUSH32 0x0 PUSH1 0x1 PUSH1 0x1 PUSH1 0xA0 SHL SUB AND DUP3 PUSH1 0x1 PUSH1 0x1 PUSH1 0xA0 SHL SUB AND EQ ISZERO PUSH2 0x2815 JUMPI POP PUSH32 0x0 PUSH2 0x6D5 JUMP JUMPDEST PUSH32 0x0 PUSH1 0x1 PUSH1 0x1 PUSH1 0xA0 SHL SUB AND DUP3 PUSH1 0x1 PUSH1 0x1 PUSH1 0xA0 SHL SUB AND EQ ISZERO PUSH2 0x1B3F JUMPI POP PUSH32 0x0 PUSH2 0x6D5 JUMP JUMPDEST PUSH1 0x0 PUSH2 0x2898 PUSH2 0x288D DUP8 PUSH8 0x429D069189E0000 PUSH2 0x2A1E JUMP JUMPDEST DUP4 GT ISZERO PUSH2 0x130 PUSH2 0xF12 JUMP JUMPDEST PUSH1 0x0 PUSH2 0x28A4 DUP8 DUP5 PUSH2 0xD71 JUMP JUMPDEST SWAP1 POP PUSH1 0x0 PUSH2 0x28B2 DUP9 DUP4 PUSH2 0x298D JUMP JUMPDEST SWAP1 POP PUSH1 0x0 PUSH2 0x28C0 DUP9 DUP8 PUSH2 0x1396 JUMP JUMPDEST SWAP1 POP PUSH1 0x0 PUSH2 0x28CE DUP4 DUP4 PUSH2 0x2D83 JUMP JUMPDEST SWAP1 POP PUSH2 0x28E3 PUSH2 0x28DC DUP3 PUSH2 0x2967 JUMP JUMPDEST DUP10 SWAP1 PUSH2 0x2A1E JUMP JUMPDEST SWAP11 SWAP10 POP POP POP POP POP POP POP POP POP POP JUMP JUMPDEST PUSH1 0x0 PUSH2 0x2913 PUSH2 0x2908 DUP6 PUSH8 0x429D069189E0000 PUSH2 0x2A1E JUMP JUMPDEST DUP4 GT ISZERO PUSH2 0x131 PUSH2 0xF12 JUMP JUMPDEST PUSH1 0x0 PUSH2 0x2929 PUSH2 0x2922 DUP7 DUP6 PUSH2 0xD83 JUMP JUMPDEST DUP7 SWAP1 PUSH2 0x298D JUMP JUMPDEST SWAP1 POP PUSH1 0x0 PUSH2 0x2937 DUP6 DUP9 PUSH2 0x298D JUMP JUMPDEST SWAP1 POP PUSH1 0x0 PUSH2 0x2945 DUP4 DUP4 PUSH2 0x2D83 JUMP JUMPDEST SWAP1 POP PUSH1 0x0 PUSH2 0x295B DUP3 PUSH8 0xDE0B6B3A7640000 PUSH2 0xD83 JUMP JUMPDEST SWAP1 POP PUSH2 0x28E3 DUP11 DUP3 PUSH2 0x2528 JUMP JUMPDEST PUSH1 0x0 PUSH8 0xDE0B6B3A7640000 DUP3 LT PUSH2 0x297F JUMPI PUSH1 0x0 PUSH2 0x4DC JUMP JUMPDEST POP PUSH8 0xDE0B6B3A7640000 SUB SWAP1 JUMP JUMPDEST PUSH1 0x0 PUSH2 0x299C DUP3 ISZERO ISZERO PUSH1 0x4 PUSH2 0xF12 JUMP JUMPDEST DUP3 PUSH2 0x29A9 JUMPI POP PUSH1 0x0 PUSH2 0x4DC JUMP JUMPDEST PUSH8 0xDE0B6B3A7640000 DUP4 DUP2 MUL SWAP1 PUSH2 0x29C3 SWAP1 DUP6 DUP4 DUP2 PUSH2 0x13CC JUMPI INVALID JUMPDEST DUP3 PUSH1 0x1 DUP3 SUB DUP2 PUSH2 0x2560 JUMPI INVALID JUMPDEST PUSH1 0x0 DUP1 PUSH2 0x29DC DUP5 DUP5 PUSH2 0x2DAF JUMP JUMPDEST SWAP1 POP PUSH1 0x0 PUSH2 0x29F6 PUSH2 0x29EF DUP4 PUSH2 0x2710 PUSH2 0x2528 JUMP JUMPDEST PUSH1 0x1 PUSH2 0xD71 JUMP JUMPDEST SWAP1 POP DUP1 DUP3 LT ISZERO PUSH2 0x2A0B JUMPI PUSH1 0x0 SWAP3 POP POP POP PUSH2 0x4DC JUMP JUMPDEST PUSH2 0x2A15 DUP3 DUP3 PUSH2 0xD83 JUMP JUMPDEST SWAP3 POP POP POP PUSH2 0x4DC JUMP JUMPDEST PUSH1 0x0 DUP3 DUP3 MUL PUSH2 0x2A38 DUP5 ISZERO DUP1 PUSH2 0x138F JUMPI POP DUP4 DUP6 DUP4 DUP2 PUSH2 0x138C JUMPI INVALID JUMPDEST PUSH8 0xDE0B6B3A7640000 SWAP1 DIV SWAP4 SWAP3 POP POP POP JUMP JUMPDEST PUSH1 0x0 DUP2 DUP1 PUSH1 0x20 ADD SWAP1 MLOAD DUP2 ADD SWAP1 PUSH2 0x4DC SWAP2 SWAP1 PUSH2 0x4266 JUMP JUMPDEST PUSH1 0x60 DUP2 DUP1 PUSH1 0x20 ADD SWAP1 MLOAD DUP2 ADD SWAP1 PUSH2 0x5A1 SWAP2 SWAP1 PUSH2 0x432B JUMP JUMPDEST PUSH1 0x0 PUSH2 0x2A88 PUSH4 0x1C74C917 PUSH1 0xE1 SHL PUSH2 0x797 JUMP JUMPDEST SWAP1 SWAP2 EQ SWAP2 SWAP1 POP JUMP JUMPDEST PUSH1 0x0 DUP4 DUP4 GT PUSH2 0x2AA1 JUMPI POP PUSH1 0x0 PUSH2 0x2372 JUMP JUMPDEST PUSH1 0x0 PUSH2 0x2AAD DUP6 DUP6 PUSH2 0x298D JUMP JUMPDEST SWAP1 POP PUSH1 0x0 PUSH2 0x2AC3 PUSH8 0xDE0B6B3A7640000 DUP9 PUSH2 0x1396 JUMP JUMPDEST SWAP1 POP PUSH2 0x2AD7 DUP3 PUSH8 0x9B6E64A8EC60000 PUSH2 0x2EBA JUMP JUMPDEST SWAP2 POP PUSH1 0x0 PUSH2 0x2AE5 DUP4 DUP4 PUSH2 0x2D83 JUMP JUMPDEST SWAP1 POP PUSH1 0x0 PUSH2 0x2AFC PUSH2 0x2AF5 DUP4 PUSH2 0x2967 JUMP JUMPDEST DUP12 SWAP1 PUSH2 0x2A1E JUMP JUMPDEST SWAP1 POP PUSH2 0x28E3 DUP2 DUP8 PUSH2 0x2A1E JUMP JUMPDEST PUSH1 0x0 PUSH1 0x60 PUSH2 0x2B14 PUSH2 0x108C JUMP JUMPDEST PUSH1 0x0 DUP1 PUSH2 0x2B20 DUP6 PUSH2 0x2ED1 JUMP JUMPDEST SWAP2 POP SWAP2 POP PUSH2 0x2B38 PUSH2 0x2B2F PUSH2 0x10FF JUMP JUMPDEST DUP3 LT PUSH1 0x64 PUSH2 0xF12 JUMP JUMPDEST PUSH1 0x60 PUSH2 0x2B42 PUSH2 0x10FF JUMP JUMPDEST PUSH1 0x1 PUSH1 0x1 PUSH1 0x40 SHL SUB DUP2 GT DUP1 ISZERO PUSH2 0x2B57 JUMPI PUSH1 0x0 DUP1 REVERT JUMPDEST POP PUSH1 0x40 MLOAD SWAP1 DUP1 DUP3 MSTORE DUP1 PUSH1 0x20 MUL PUSH1 0x20 ADD DUP3 ADD PUSH1 0x40 MSTORE DUP1 ISZERO PUSH2 0x2B81 JUMPI DUP2 PUSH1 0x20 ADD PUSH1 0x20 DUP3 MUL DUP1 CALLDATASIZE DUP4 CALLDATACOPY ADD SWAP1 POP JUMPDEST POP SWAP1 POP PUSH2 0x2BC0 DUP9 DUP4 DUP2 MLOAD DUP2 LT PUSH2 0x2B93 JUMPI INVALID JUMPDEST PUSH1 0x20 MUL PUSH1 0x20 ADD ADD MLOAD DUP9 DUP5 DUP2 MLOAD DUP2 LT PUSH2 0x2BA7 JUMPI INVALID JUMPDEST PUSH1 0x20 MUL PUSH1 0x20 ADD ADD MLOAD DUP6 PUSH2 0x2BB8 PUSH2 0x4F6 JUMP JUMPDEST PUSH1 0x7 SLOAD PUSH2 0x2EF3 JUMP JUMPDEST DUP2 DUP4 DUP2 MLOAD DUP2 LT PUSH2 0x2BCC JUMPI INVALID JUMPDEST PUSH1 0x20 SWAP1 DUP2 MUL SWAP2 SWAP1 SWAP2 ADD ADD MSTORE SWAP2 SWAP8 SWAP2 SWAP7 POP SWAP1 SWAP5 POP POP POP POP POP JUMP JUMPDEST PUSH1 0x0 PUSH1 0x60 PUSH1 0x0 PUSH2 0x2BF4 DUP5 PUSH2 0x2FB0 JUMP JUMPDEST SWAP1 POP PUSH1 0x60 PUSH2 0x2C0A DUP7 DUP4 PUSH2 0x2C05 PUSH2 0x4F6 JUMP JUMPDEST PUSH2 0x2FC6 JUMP JUMPDEST SWAP2 SWAP7 SWAP2 SWAP6 POP SWAP1 SWAP4 POP POP POP POP JUMP JUMPDEST PUSH1 0x0 PUSH1 0x60 PUSH2 0x2C23 PUSH2 0x108C JUMP JUMPDEST PUSH1 0x60 PUSH1 0x0 PUSH2 0x2C30 DUP6 PUSH2 0x3077 JUMP JUMPDEST SWAP2 POP SWAP2 POP PUSH2 0x2C41 DUP3 MLOAD PUSH2 0x610 PUSH2 0x10FF JUMP JUMPDEST PUSH2 0x2C4D DUP3 PUSH2 0xA5E PUSH2 0x13E7 JUMP JUMPDEST PUSH1 0x0 PUSH2 0x2C65 DUP9 DUP9 DUP6 PUSH2 0x2C5D PUSH2 0x4F6 JUMP JUMPDEST PUSH1 0x7 SLOAD PUSH2 0x308F JUMP JUMPDEST SWAP1 POP PUSH2 0x2C75 DUP3 DUP3 GT ISZERO PUSH1 0xCF PUSH2 0xF12 JUMP JUMPDEST SWAP8 SWAP2 SWAP7 POP SWAP1 SWAP5 POP POP POP POP POP JUMP JUMPDEST PUSH1 0x0 PUSH1 0x60 DUP1 PUSH1 0x0 PUSH2 0x2C92 DUP6 PUSH2 0x3077 JUMP JUMPDEST SWAP2 POP SWAP2 POP PUSH2 0x2CA8 PUSH2 0x2CA1 PUSH2 0x10FF JUMP JUMPDEST DUP4 MLOAD PUSH2 0xD64 JUMP JUMPDEST PUSH2 0x2CB4 DUP3 PUSH2 0xA5E PUSH2 0x13E7 JUMP JUMPDEST PUSH1 0x0 PUSH2 0x2CCC DUP9 DUP9 DUP6 PUSH2 0x2CC4 PUSH2 0x4F6 JUMP JUMPDEST PUSH1 0x7 SLOAD PUSH2 0x32B3 JUMP JUMPDEST SWAP1 POP PUSH2 0x2C75 DUP3 DUP3 LT ISZERO PUSH1 0xD0 PUSH2 0xF12 JUMP JUMPDEST PUSH1 0x0 PUSH1 0x60 PUSH1 0x0 DUP1 PUSH2 0x2CEC DUP6 PUSH2 0x2ED1 JUMP JUMPDEST SWAP2 POP SWAP2 POP PUSH2 0x2CFB PUSH2 0x2B2F PUSH2 0x10FF JUMP JUMPDEST PUSH1 0x60 PUSH2 0x2D05 PUSH2 0x10FF JUMP JUMPDEST PUSH1 0x1 PUSH1 0x1 PUSH1 0x40 SHL SUB DUP2 GT DUP1 ISZERO PUSH2 0x2D1A JUMPI PUSH1 0x0 DUP1 REVERT JUMPDEST POP PUSH1 0x40 MLOAD SWAP1 DUP1 DUP3 MSTORE DUP1 PUSH1 0x20 MUL PUSH1 0x20 ADD DUP3 ADD PUSH1 0x40 MSTORE DUP1 ISZERO PUSH2 0x2D44 JUMPI DUP2 PUSH1 0x20 ADD PUSH1 0x20 DUP3 MUL DUP1 CALLDATASIZE DUP4 CALLDATACOPY ADD SWAP1 POP JUMPDEST POP SWAP1 POP PUSH2 0x2BC0 DUP9 DUP4 DUP2 MLOAD DUP2 LT PUSH2 0x2D56 JUMPI INVALID JUMPDEST PUSH1 0x20 MUL PUSH1 0x20 ADD ADD MLOAD DUP9 DUP5 DUP2 MLOAD DUP2 LT PUSH2 0x2D6A JUMPI INVALID JUMPDEST PUSH1 0x20 MUL PUSH1 0x20 ADD ADD MLOAD DUP6 PUSH2 0x2D7B PUSH2 0x4F6 JUMP JUMPDEST PUSH1 0x7 SLOAD PUSH2 0x34C3 JUMP JUMPDEST PUSH1 0x0 DUP1 PUSH2 0x2D90 DUP5 DUP5 PUSH2 0x2DAF JUMP JUMPDEST SWAP1 POP PUSH1 0x0 PUSH2 0x2DA3 PUSH2 0x29EF DUP4 PUSH2 0x2710 PUSH2 0x2528 JUMP JUMPDEST SWAP1 POP PUSH2 0x2372 DUP3 DUP3 PUSH2 0xD71 JUMP JUMPDEST PUSH1 0x0 DUP2 PUSH2 0x2DC5 JUMPI POP PUSH8 0xDE0B6B3A7640000 PUSH2 0x4DC JUMP JUMPDEST DUP3 PUSH2 0x2DD2 JUMPI POP PUSH1 0x0 PUSH2 0x4DC JUMP JUMPDEST PUSH2 0x2DE3 PUSH1 0x1 PUSH1 0xFF SHL DUP5 LT PUSH1 0x6 PUSH2 0xF12 JUMP JUMPDEST DUP3 PUSH2 0x2E09 PUSH24 0xBCE5086492111AEA88F4BB1CA6BCF584181EA8059F76532 DUP5 LT PUSH1 0x7 PUSH2 0xF12 JUMP JUMPDEST DUP3 PUSH1 0x0 PUSH8 0xC7D713B49DA0000 DUP4 SGT DUP1 ISZERO PUSH2 0x2E2A JUMPI POP PUSH8 0xF43FC2C04EE0000 DUP4 SLT JUMPDEST ISZERO PUSH2 0x2E61 JUMPI PUSH1 0x0 PUSH2 0x2E3A DUP5 PUSH2 0x3565 JUMP JUMPDEST SWAP1 POP PUSH8 0xDE0B6B3A7640000 DUP1 DUP3 SMOD DUP5 MUL SDIV DUP4 PUSH8 0xDE0B6B3A7640000 DUP4 SDIV MUL ADD SWAP2 POP POP PUSH2 0x2E6F JUMP JUMPDEST DUP2 PUSH2 0x2E6B DUP5 PUSH2 0x3683 JUMP JUMPDEST MUL SWAP1 POP JUMPDEST PUSH8 0xDE0B6B3A7640000 SWAP1 SDIV PUSH2 0x2EA7 PUSH9 0x238FD42C5CF03FFFF NOT DUP3 SLT DUP1 ISZERO SWAP1 PUSH2 0x2EA0 JUMPI POP PUSH9 0x70C1CC73B00C80000 DUP3 SGT ISZERO JUMPDEST PUSH1 0x8 PUSH2 0xF12 JUMP JUMPDEST PUSH2 0x2EB0 DUP2 PUSH2 0x3A22 JUMP JUMPDEST SWAP7 SWAP6 POP POP POP POP POP POP JUMP JUMPDEST PUSH1 0x0 DUP2 DUP4 LT ISZERO PUSH2 0x2ECA JUMPI DUP2 PUSH2 0x5A1 JUMP JUMPDEST POP SWAP1 SWAP2 SWAP1 POP JUMP JUMPDEST PUSH1 0x0 DUP1 DUP3 DUP1 PUSH1 0x20 ADD SWAP1 MLOAD DUP2 ADD SWAP1 PUSH2 0x2EE8 SWAP2 SWAP1 PUSH2 0x42F5 JUMP JUMPDEST SWAP1 SWAP6 SWAP1 SWAP5 POP SWAP3 POP POP POP JUMP JUMPDEST PUSH1 0x0 DUP1 PUSH2 0x2F0A DUP5 PUSH2 0x2F04 DUP2 DUP9 PUSH2 0xD83 JUMP JUMPDEST SWAP1 PUSH2 0x298D JUMP JUMPDEST SWAP1 POP PUSH2 0x2F23 PUSH8 0x9B6E64A8EC60000 DUP3 LT ISZERO PUSH2 0x132 PUSH2 0xF12 JUMP JUMPDEST PUSH1 0x0 PUSH2 0x2F41 PUSH2 0x2F3A PUSH8 0xDE0B6B3A7640000 DUP10 PUSH2 0x1396 JUMP JUMPDEST DUP4 SWAP1 PUSH2 0x2D83 JUMP JUMPDEST SWAP1 POP PUSH1 0x0 PUSH2 0x2F58 PUSH2 0x2F51 DUP4 PUSH2 0x2967 JUMP JUMPDEST DUP11 SWAP1 PUSH2 0x2A1E JUMP JUMPDEST SWAP1 POP PUSH1 0x0 PUSH2 0x2F65 DUP10 PUSH2 0x2967 JUMP JUMPDEST SWAP1 POP PUSH1 0x0 PUSH2 0x2F73 DUP4 DUP4 PUSH2 0x2528 JUMP JUMPDEST SWAP1 POP PUSH1 0x0 PUSH2 0x2F81 DUP5 DUP4 PUSH2 0xD83 JUMP JUMPDEST SWAP1 POP PUSH2 0x2FA0 PUSH2 0x2F99 PUSH2 0x2F92 DUP11 PUSH2 0x2967 JUMP JUMPDEST DUP5 SWAP1 PUSH2 0x2A1E JUMP JUMPDEST DUP3 SWAP1 PUSH2 0xD71 JUMP JUMPDEST SWAP13 SWAP12 POP POP POP POP POP POP POP POP POP POP POP POP JUMP JUMPDEST PUSH1 0x0 DUP2 DUP1 PUSH1 0x20 ADD SWAP1 MLOAD DUP2 ADD SWAP1 PUSH2 0x5A1 SWAP2 SWAP1 PUSH2 0x42C8 JUMP JUMPDEST PUSH1 0x60 PUSH1 0x0 PUSH2 0x2FD4 DUP5 DUP5 PUSH2 0x1396 JUMP JUMPDEST SWAP1 POP PUSH1 0x60 DUP6 MLOAD PUSH1 0x1 PUSH1 0x1 PUSH1 0x40 SHL SUB DUP2 GT DUP1 ISZERO PUSH2 0x2FEF JUMPI PUSH1 0x0 DUP1 REVERT JUMPDEST POP PUSH1 0x40 MLOAD SWAP1 DUP1 DUP3 MSTORE DUP1 PUSH1 0x20 MUL PUSH1 0x20 ADD DUP3 ADD PUSH1 0x40 MSTORE DUP1 ISZERO PUSH2 0x3019 JUMPI DUP2 PUSH1 0x20 ADD PUSH1 0x20 DUP3 MUL DUP1 CALLDATASIZE DUP4 CALLDATACOPY ADD SWAP1 POP JUMPDEST POP SWAP1 POP PUSH1 0x0 JUMPDEST DUP7 MLOAD DUP2 LT ISZERO PUSH2 0x306D JUMPI PUSH2 0x304E DUP4 DUP9 DUP4 DUP2 MLOAD DUP2 LT PUSH2 0x3038 JUMPI INVALID JUMPDEST PUSH1 0x20 MUL PUSH1 0x20 ADD ADD MLOAD PUSH2 0x2A1E SWAP1 SWAP2 SWAP1 PUSH4 0xFFFFFFFF AND JUMP JUMPDEST DUP3 DUP3 DUP2 MLOAD DUP2 LT PUSH2 0x305A JUMPI INVALID JUMPDEST PUSH1 0x20 SWAP1 DUP2 MUL SWAP2 SWAP1 SWAP2 ADD ADD MSTORE PUSH1 0x1 ADD PUSH2 0x301F JUMP JUMPDEST POP SWAP6 SWAP5 POP POP POP POP POP JUMP JUMPDEST PUSH1 0x60 PUSH1 0x0 DUP3 DUP1 PUSH1 0x20 ADD SWAP1 MLOAD DUP2 ADD SWAP1 PUSH2 0x2EE8 SWAP2 SWAP1 PUSH2 0x4282 JUMP JUMPDEST PUSH1 0x0 PUSH1 0x60 DUP5 MLOAD PUSH1 0x1 PUSH1 0x1 PUSH1 0x40 SHL SUB DUP2 GT DUP1 ISZERO PUSH2 0x30AA JUMPI PUSH1 0x0 DUP1 REVERT JUMPDEST POP PUSH1 0x40 MLOAD SWAP1 DUP1 DUP3 MSTORE DUP1 PUSH1 0x20 MUL PUSH1 0x20 ADD DUP3 ADD PUSH1 0x40 MSTORE DUP1 ISZERO PUSH2 0x30D4 JUMPI DUP2 PUSH1 0x20 ADD PUSH1 0x20 DUP3 MUL DUP1 CALLDATASIZE DUP4 CALLDATACOPY ADD SWAP1 POP JUMPDEST POP SWAP1 POP PUSH1 0x0 DUP1 JUMPDEST DUP9 MLOAD DUP2 LT ISZERO PUSH2 0x3199 JUMPI PUSH2 0x3134 DUP10 DUP3 DUP2 MLOAD DUP2 LT PUSH2 0x30F3 JUMPI INVALID JUMPDEST PUSH1 0x20 MUL PUSH1 0x20 ADD ADD MLOAD PUSH2 0x2F04 DUP10 DUP5 DUP2 MLOAD DUP2 LT PUSH2 0x310A JUMPI INVALID JUMPDEST PUSH1 0x20 MUL PUSH1 0x20 ADD ADD MLOAD DUP13 DUP6 DUP2 MLOAD DUP2 LT PUSH2 0x311E JUMPI INVALID JUMPDEST PUSH1 0x20 MUL PUSH1 0x20 ADD ADD MLOAD PUSH2 0xD83 SWAP1 SWAP2 SWAP1 PUSH4 0xFFFFFFFF AND JUMP JUMPDEST DUP4 DUP3 DUP2 MLOAD DUP2 LT PUSH2 0x3140 JUMPI INVALID JUMPDEST PUSH1 0x20 MUL PUSH1 0x20 ADD ADD DUP2 DUP2 MSTORE POP POP PUSH2 0x318F PUSH2 0x3188 DUP10 DUP4 DUP2 MLOAD DUP2 LT PUSH2 0x315E JUMPI INVALID JUMPDEST PUSH1 0x20 MUL PUSH1 0x20 ADD ADD MLOAD DUP6 DUP5 DUP2 MLOAD DUP2 LT PUSH2 0x3172 JUMPI INVALID JUMPDEST PUSH1 0x20 MUL PUSH1 0x20 ADD ADD MLOAD PUSH2 0x2528 SWAP1 SWAP2 SWAP1 PUSH4 0xFFFFFFFF AND JUMP JUMPDEST DUP4 SWAP1 PUSH2 0xD71 JUMP JUMPDEST SWAP2 POP PUSH1 0x1 ADD PUSH2 0x30DB JUMP JUMPDEST POP PUSH8 0xDE0B6B3A7640000 PUSH1 0x0 JUMPDEST DUP10 MLOAD DUP2 LT ISZERO PUSH2 0x3292 JUMPI PUSH1 0x0 DUP5 DUP3 DUP2 MLOAD DUP2 LT PUSH2 0x31BD JUMPI INVALID JUMPDEST PUSH1 0x20 MUL PUSH1 0x20 ADD ADD MLOAD DUP5 GT ISZERO PUSH2 0x3214 JUMPI PUSH1 0x0 PUSH2 0x31E6 PUSH2 0x31DA DUP7 PUSH2 0x2967 JUMP JUMPDEST DUP14 DUP6 DUP2 MLOAD DUP2 LT PUSH2 0x3038 JUMPI INVALID JUMPDEST SWAP1 POP PUSH1 0x0 PUSH2 0x31FA DUP3 DUP13 DUP7 DUP2 MLOAD DUP2 LT PUSH2 0x311E JUMPI INVALID JUMPDEST SWAP1 POP PUSH2 0x320B PUSH2 0x3188 PUSH2 0x1C10 DUP12 PUSH2 0x2967 JUMP JUMPDEST SWAP3 POP POP POP PUSH2 0x322B JUMP JUMPDEST DUP9 DUP3 DUP2 MLOAD DUP2 LT PUSH2 0x3220 JUMPI INVALID JUMPDEST PUSH1 0x20 MUL PUSH1 0x20 ADD ADD MLOAD SWAP1 POP JUMPDEST PUSH1 0x0 PUSH2 0x3254 DUP13 DUP5 DUP2 MLOAD DUP2 LT PUSH2 0x323C JUMPI INVALID JUMPDEST PUSH1 0x20 MUL PUSH1 0x20 ADD ADD MLOAD PUSH2 0x6B5 DUP5 DUP16 DUP8 DUP2 MLOAD DUP2 LT PUSH2 0x311E JUMPI INVALID JUMPDEST SWAP1 POP PUSH2 0x3286 PUSH2 0x327F DUP13 DUP6 DUP2 MLOAD DUP2 LT PUSH2 0x3268 JUMPI INVALID JUMPDEST PUSH1 0x20 MUL PUSH1 0x20 ADD ADD MLOAD DUP4 PUSH2 0x29CF SWAP1 SWAP2 SWAP1 PUSH4 0xFFFFFFFF AND JUMP JUMPDEST DUP6 SWAP1 PUSH2 0x2A1E JUMP JUMPDEST SWAP4 POP POP POP PUSH1 0x1 ADD PUSH2 0x31A6 JUMP JUMPDEST POP PUSH2 0x32A6 PUSH2 0x329F DUP3 PUSH2 0x2967 JUMP JUMPDEST DUP8 SWAP1 PUSH2 0x2528 JUMP JUMPDEST SWAP10 SWAP9 POP POP POP POP POP POP POP POP POP JUMP JUMPDEST PUSH1 0x0 PUSH1 0x60 DUP5 MLOAD PUSH1 0x1 PUSH1 0x1 PUSH1 0x40 SHL SUB DUP2 GT DUP1 ISZERO PUSH2 0x32CE JUMPI PUSH1 0x0 DUP1 REVERT JUMPDEST POP PUSH1 0x40 MLOAD SWAP1 DUP1 DUP3 MSTORE DUP1 PUSH1 0x20 MUL PUSH1 0x20 ADD DUP3 ADD PUSH1 0x40 MSTORE DUP1 ISZERO PUSH2 0x32F8 JUMPI DUP2 PUSH1 0x20 ADD PUSH1 0x20 DUP3 MUL DUP1 CALLDATASIZE DUP4 CALLDATACOPY ADD SWAP1 POP JUMPDEST POP SWAP1 POP PUSH1 0x0 DUP1 JUMPDEST DUP9 MLOAD DUP2 LT ISZERO PUSH2 0x33A0 JUMPI PUSH2 0x3358 DUP10 DUP3 DUP2 MLOAD DUP2 LT PUSH2 0x3317 JUMPI INVALID JUMPDEST PUSH1 0x20 MUL PUSH1 0x20 ADD ADD MLOAD PUSH2 0x6B5 DUP10 DUP5 DUP2 MLOAD DUP2 LT PUSH2 0x332E JUMPI INVALID JUMPDEST PUSH1 0x20 MUL PUSH1 0x20 ADD ADD MLOAD DUP13 DUP6 DUP2 MLOAD DUP2 LT PUSH2 0x3342 JUMPI INVALID JUMPDEST PUSH1 0x20 MUL PUSH1 0x20 ADD ADD MLOAD PUSH2 0xD71 SWAP1 SWAP2 SWAP1 PUSH4 0xFFFFFFFF AND JUMP JUMPDEST DUP4 DUP3 DUP2 MLOAD DUP2 LT PUSH2 0x3364 JUMPI INVALID JUMPDEST PUSH1 0x20 MUL PUSH1 0x20 ADD ADD DUP2 DUP2 MSTORE POP POP PUSH2 0x3396 PUSH2 0x3188 DUP10 DUP4 DUP2 MLOAD DUP2 LT PUSH2 0x3382 JUMPI INVALID JUMPDEST PUSH1 0x20 MUL PUSH1 0x20 ADD ADD MLOAD DUP6 DUP5 DUP2 MLOAD DUP2 LT PUSH2 0x3038 JUMPI INVALID JUMPDEST SWAP2 POP PUSH1 0x1 ADD PUSH2 0x32FF JUMP JUMPDEST POP PUSH8 0xDE0B6B3A7640000 PUSH1 0x0 JUMPDEST DUP10 MLOAD DUP2 LT ISZERO PUSH2 0x3481 JUMPI PUSH1 0x0 DUP4 DUP6 DUP4 DUP2 MLOAD DUP2 LT PUSH2 0x33C5 JUMPI INVALID JUMPDEST PUSH1 0x20 MUL PUSH1 0x20 ADD ADD MLOAD GT ISZERO PUSH2 0x3421 JUMPI PUSH1 0x0 PUSH2 0x33EA PUSH2 0x31DA DUP7 PUSH8 0xDE0B6B3A7640000 PUSH2 0xD83 JUMP JUMPDEST SWAP1 POP PUSH1 0x0 PUSH2 0x33FE DUP3 DUP13 DUP7 DUP2 MLOAD DUP2 LT PUSH2 0x311E JUMPI INVALID JUMPDEST SWAP1 POP PUSH2 0x3418 PUSH2 0x3188 PUSH2 0x1F3E PUSH8 0xDE0B6B3A7640000 DUP13 PUSH2 0xD83 JUMP JUMPDEST SWAP3 POP POP POP PUSH2 0x3438 JUMP JUMPDEST DUP9 DUP3 DUP2 MLOAD DUP2 LT PUSH2 0x342D JUMPI INVALID JUMPDEST PUSH1 0x20 MUL PUSH1 0x20 ADD ADD MLOAD SWAP1 POP JUMPDEST PUSH1 0x0 PUSH2 0x3461 DUP13 DUP5 DUP2 MLOAD DUP2 LT PUSH2 0x3449 JUMPI INVALID JUMPDEST PUSH1 0x20 MUL PUSH1 0x20 ADD ADD MLOAD PUSH2 0x6B5 DUP5 DUP16 DUP8 DUP2 MLOAD DUP2 LT PUSH2 0x3342 JUMPI INVALID JUMPDEST SWAP1 POP PUSH2 0x3475 PUSH2 0x327F DUP13 DUP6 DUP2 MLOAD DUP2 LT PUSH2 0x3268 JUMPI INVALID JUMPDEST SWAP4 POP POP POP PUSH1 0x1 ADD PUSH2 0x33AD JUMP JUMPDEST POP PUSH8 0xDE0B6B3A7640000 DUP2 LT PUSH2 0x34B7 JUMPI PUSH2 0x34AD PUSH2 0x34A6 DUP3 PUSH8 0xDE0B6B3A7640000 PUSH2 0xD83 JUMP JUMPDEST DUP8 SWAP1 PUSH2 0x2A1E JUMP JUMPDEST SWAP4 POP POP POP POP PUSH2 0x2372 JUMP JUMPDEST PUSH1 0x0 SWAP4 POP POP POP POP PUSH2 0x2372 JUMP JUMPDEST PUSH1 0x0 DUP1 PUSH2 0x34D4 DUP5 PUSH2 0x2F04 DUP2 DUP9 PUSH2 0xD71 JUMP JUMPDEST SWAP1 POP PUSH2 0x34ED PUSH8 0x29A2241AF62C0000 DUP3 GT ISZERO PUSH2 0x133 PUSH2 0xF12 JUMP JUMPDEST PUSH1 0x0 PUSH2 0x3504 PUSH2 0x2F3A PUSH8 0xDE0B6B3A7640000 DUP10 PUSH2 0x298D JUMP JUMPDEST SWAP1 POP PUSH1 0x0 PUSH2 0x3524 PUSH2 0x351D DUP4 PUSH8 0xDE0B6B3A7640000 PUSH2 0xD83 JUMP JUMPDEST DUP11 SWAP1 PUSH2 0x2528 JUMP JUMPDEST SWAP1 POP PUSH1 0x0 PUSH2 0x3531 DUP10 PUSH2 0x2967 JUMP JUMPDEST SWAP1 POP PUSH1 0x0 PUSH2 0x353F DUP4 DUP4 PUSH2 0x2528 JUMP JUMPDEST SWAP1 POP PUSH1 0x0 PUSH2 0x354D DUP5 DUP4 PUSH2 0xD83 JUMP JUMPDEST SWAP1 POP PUSH2 0x2FA0 PUSH2 0x2F99 PUSH2 0x355E DUP11 PUSH2 0x2967 JUMP JUMPDEST DUP5 SWAP1 PUSH2 0x298D JUMP JUMPDEST PUSH8 0xDE0B6B3A7640000 MUL PUSH1 0x0 DUP1 PUSH11 0xC097CE7BC90715B34B9F1 PUSH1 0x24 SHL DUP1 DUP5 ADD SWAP1 PUSH15 0xC097CE7BC90715B34B9F0FFFFFFFFF NOT DUP6 ADD MUL DUP2 PUSH2 0x35A0 JUMPI INVALID JUMPDEST SDIV SWAP1 POP PUSH1 0x0 PUSH11 0xC097CE7BC90715B34B9F1 PUSH1 0x24 SHL DUP3 DUP1 MUL SDIV SWAP1 POP DUP2 DUP1 PUSH11 0xC097CE7BC90715B34B9F1 PUSH1 0x24 SHL DUP2 DUP5 MUL SDIV SWAP2 POP PUSH1 0x3 DUP3 SDIV ADD PUSH11 0xC097CE7BC90715B34B9F1 PUSH1 0x24 SHL DUP3 DUP5 MUL SDIV SWAP2 POP PUSH1 0x5 DUP3 SDIV ADD PUSH11 0xC097CE7BC90715B34B9F1 PUSH1 0x24 SHL DUP3 DUP5 MUL SDIV SWAP2 POP PUSH1 0x7 DUP3 SDIV ADD PUSH11 0xC097CE7BC90715B34B9F1 PUSH1 0x24 SHL DUP3 DUP5 MUL SDIV SWAP2 POP PUSH1 0x9 DUP3 SDIV ADD PUSH11 0xC097CE7BC90715B34B9F1 PUSH1 0x24 SHL DUP3 DUP5 MUL SDIV SWAP2 POP PUSH1 0xB DUP3 SDIV ADD PUSH11 0xC097CE7BC90715B34B9F1 PUSH1 0x24 SHL DUP3 DUP5 MUL SDIV SWAP2 POP PUSH1 0xD DUP3 SDIV ADD PUSH11 0xC097CE7BC90715B34B9F1 PUSH1 0x24 SHL DUP3 DUP5 MUL SDIV SWAP2 POP PUSH1 0xF DUP3 PUSH1 0x2 SWAP2 SWAP1 SDIV SWAP2 SWAP1 SWAP2 ADD MUL SWAP6 SWAP5 POP POP POP POP POP JUMP JUMPDEST PUSH1 0x0 PUSH8 0xDE0B6B3A7640000 DUP3 SLT ISZERO PUSH2 0x36BF JUMPI PUSH2 0x36B5 DUP3 PUSH11 0xC097CE7BC90715B34B9F1 PUSH1 0x24 SHL DUP2 PUSH2 0x36AF JUMPI INVALID JUMPDEST SDIV PUSH2 0x3683 JUMP JUMPDEST PUSH1 0x0 SUB SWAP1 POP PUSH2 0x6D5 JUMP JUMPDEST PUSH1 0x0 PUSH31 0x1600EF3172E58D2E933EC884FDE10064C63B5372D805E203C0000000000000 DUP4 SLT PUSH2 0x3710 JUMPI PUSH24 0x195E54C5DD42177F53A27172FA9EC630262827000000000 DUP4 SDIV SWAP3 POP PUSH9 0x6F05B59D3B2000000 ADD JUMPDEST PUSH20 0x11798004D755D3C8BC8E03204CF44619E000000 DUP4 SLT PUSH2 0x3748 JUMPI PUSH12 0x1425982CF597CD205CEF7380 DUP4 SDIV SWAP3 POP PUSH9 0x3782DACE9D9000000 ADD JUMPDEST PUSH1 0x64 SWAP3 DUP4 MUL SWAP3 MUL PUSH15 0x1855144814A7FF805980FF0084000 DUP4 SLT PUSH2 0x3790 JUMPI PUSH15 0x1855144814A7FF805980FF0084000 PUSH9 0x56BC75E2D63100000 DUP5 MUL SDIV SWAP3 POP PUSH9 0xAD78EBC5AC62000000 ADD JUMPDEST PUSH12 0x2DF0AB5A80A22C61AB5A700 DUP4 SLT PUSH2 0x37CB JUMPI PUSH12 0x2DF0AB5A80A22C61AB5A700 PUSH9 0x56BC75E2D63100000 DUP5 MUL SDIV SWAP3 POP PUSH9 0x56BC75E2D631000000 ADD JUMPDEST PUSH10 0x3F1FCE3DA636EA5CF850 DUP4 SLT PUSH2 0x3802 JUMPI PUSH10 0x3F1FCE3DA636EA5CF850 PUSH9 0x56BC75E2D63100000 DUP5 MUL SDIV SWAP3 POP PUSH9 0x2B5E3AF16B18800000 ADD JUMPDEST PUSH10 0x127FA27722CC06CC5E2 DUP4 SLT PUSH2 0x3839 JUMPI PUSH10 0x127FA27722CC06CC5E2 PUSH9 0x56BC75E2D63100000 DUP5 MUL SDIV SWAP3 POP PUSH9 0x15AF1D78B58C400000 ADD JUMPDEST PUSH9 0x280E60114EDB805D03 DUP4 SLT PUSH2 0x386E JUMPI PUSH9 0x280E60114EDB805D03 PUSH9 0x56BC75E2D63100000 DUP5 MUL SDIV SWAP3 POP PUSH9 0xAD78EBC5AC6200000 ADD JUMPDEST PUSH9 0xEBC5FB41746121110 DUP4 SLT PUSH2 0x3899 JUMPI PUSH9 0xEBC5FB41746121110 PUSH9 0x56BC75E2D63100000 SWAP4 DUP5 MUL SDIV SWAP3 ADD JUMPDEST PUSH9 0x8F00F760A4B2DB55D DUP4 SLT PUSH2 0x38CE JUMPI PUSH9 0x8F00F760A4B2DB55D PUSH9 0x56BC75E2D63100000 DUP5 MUL SDIV SWAP3 POP PUSH9 0x2B5E3AF16B1880000 ADD JUMPDEST PUSH9 0x6F5F1775788937937 DUP4 SLT PUSH2 0x3903 JUMPI PUSH9 0x6F5F1775788937937 PUSH9 0x56BC75E2D63100000 DUP5 MUL SDIV SWAP3 POP PUSH9 0x15AF1D78B58C40000 ADD JUMPDEST PUSH9 0x6248F33704B286603 DUP4 SLT PUSH2 0x3937 JUMPI PUSH9 0x6248F33704B286603 PUSH9 0x56BC75E2D63100000 DUP5 MUL SDIV SWAP3 POP PUSH8 0xAD78EBC5AC620000 ADD JUMPDEST PUSH9 0x5C548670B9510E7AC DUP4 SLT PUSH2 0x396B JUMPI PUSH9 0x5C548670B9510E7AC PUSH9 0x56BC75E2D63100000 DUP5 MUL SDIV SWAP3 POP PUSH8 0x56BC75E2D6310000 ADD JUMPDEST PUSH1 0x0 PUSH9 0x56BC75E2D63100000 DUP5 ADD PUSH9 0x56BC75E2D63100000 DUP1 DUP7 SUB MUL DUP2 PUSH2 0x398E JUMPI INVALID JUMPDEST SDIV SWAP1 POP PUSH1 0x0 PUSH9 0x56BC75E2D63100000 DUP3 DUP1 MUL SDIV SWAP1 POP DUP2 DUP1 PUSH9 0x56BC75E2D63100000 DUP2 DUP5 MUL SDIV SWAP2 POP PUSH1 0x3 DUP3 SDIV ADD PUSH9 0x56BC75E2D63100000 DUP3 DUP5 MUL SDIV SWAP2 POP PUSH1 0x5 DUP3 SDIV ADD PUSH9 0x56BC75E2D63100000 DUP3 DUP5 MUL SDIV SWAP2 POP PUSH1 0x7 DUP3 SDIV ADD PUSH9 0x56BC75E2D63100000 DUP3 DUP5 MUL SDIV SWAP2 POP PUSH1 0x9 DUP3 SDIV ADD PUSH9 0x56BC75E2D63100000 DUP3 DUP5 MUL SDIV SWAP2 POP PUSH1 0xB DUP3 SDIV ADD PUSH1 0x2 MUL PUSH1 0x64 DUP6 DUP3 ADD SDIV SWAP8 SWAP7 POP POP POP POP POP POP POP JUMP JUMPDEST PUSH1 0x0 PUSH2 0x3A51 PUSH9 0x238FD42C5CF03FFFF NOT DUP4 SLT ISZERO DUP1 ISZERO PUSH2 0x3A4A JUMPI POP PUSH9 0x70C1CC73B00C80000 DUP4 SGT ISZERO JUMPDEST PUSH1 0x9 PUSH2 0xF12 JUMP JUMPDEST PUSH1 0x0 DUP3 SLT ISZERO PUSH2 0x3A84 JUMPI PUSH2 0x3A66 DUP3 PUSH1 0x0 SUB PUSH2 0x3A22 JUMP JUMPDEST PUSH11 0xC097CE7BC90715B34B9F1 PUSH1 0x24 SHL DUP2 PUSH2 0x3A7C JUMPI INVALID JUMPDEST SDIV SWAP1 POP PUSH2 0x6D5 JUMP JUMPDEST PUSH1 0x0 PUSH9 0x6F05B59D3B2000000 DUP4 SLT PUSH2 0x3AC4 JUMPI POP PUSH9 0x6F05B59D3B1FFFFFF NOT SWAP1 SWAP2 ADD SWAP1 PUSH24 0x195E54C5DD42177F53A27172FA9EC630262827000000000 PUSH2 0x3AFA JUMP JUMPDEST PUSH9 0x3782DACE9D9000000 DUP4 SLT PUSH2 0x3AF6 JUMPI POP PUSH9 0x3782DACE9D8FFFFFF NOT SWAP1 SWAP2 ADD SWAP1 PUSH12 0x1425982CF597CD205CEF7380 PUSH2 0x3AFA JUMP JUMPDEST POP PUSH1 0x1 JUMPDEST PUSH1 0x64 SWAP3 SWAP1 SWAP3 MUL SWAP2 PUSH9 0x56BC75E2D63100000 PUSH9 0xAD78EBC5AC62000000 DUP5 SLT PUSH2 0x3B4A JUMPI PUSH9 0xAD78EBC5AC61FFFFFF NOT SWAP1 SWAP4 ADD SWAP3 PUSH9 0x56BC75E2D63100000 PUSH15 0x1855144814A7FF805980FF0084000 DUP3 MUL SDIV SWAP1 POP JUMPDEST PUSH9 0x56BC75E2D631000000 DUP5 SLT PUSH2 0x3B86 JUMPI PUSH9 0x56BC75E2D630FFFFFF NOT SWAP1 SWAP4 ADD SWAP3 PUSH9 0x56BC75E2D63100000 PUSH12 0x2DF0AB5A80A22C61AB5A700 DUP3 MUL SDIV SWAP1 POP JUMPDEST PUSH9 0x2B5E3AF16B18800000 DUP5 SLT PUSH2 0x3BC0 JUMPI PUSH9 0x2B5E3AF16B187FFFFF NOT SWAP1 SWAP4 ADD SWAP3 PUSH9 0x56BC75E2D63100000 PUSH10 0x3F1FCE3DA636EA5CF850 DUP3 MUL SDIV SWAP1 POP JUMPDEST PUSH9 0x15AF1D78B58C400000 DUP5 SLT PUSH2 0x3BFA JUMPI PUSH9 0x15AF1D78B58C3FFFFF NOT SWAP1 SWAP4 ADD SWAP3 PUSH9 0x56BC75E2D63100000 PUSH10 0x127FA27722CC06CC5E2 DUP3 MUL SDIV SWAP1 POP JUMPDEST PUSH9 0xAD78EBC5AC6200000 DUP5 SLT PUSH2 0x3C33 JUMPI PUSH9 0xAD78EBC5AC61FFFFF NOT SWAP1 SWAP4 ADD SWAP3 PUSH9 0x56BC75E2D63100000 PUSH9 0x280E60114EDB805D03 DUP3 MUL SDIV SWAP1 POP JUMPDEST PUSH9 0x56BC75E2D63100000 DUP5 SLT PUSH2 0x3C6C JUMPI PUSH9 0x56BC75E2D630FFFFF NOT SWAP1 SWAP4 ADD SWAP3 PUSH9 0x56BC75E2D63100000 PUSH9 0xEBC5FB41746121110 DUP3 MUL SDIV SWAP1 POP JUMPDEST PUSH9 0x2B5E3AF16B1880000 DUP5 SLT PUSH2 0x3CA5 JUMPI PUSH9 0x2B5E3AF16B187FFFF NOT SWAP1 SWAP4 ADD SWAP3 PUSH9 0x56BC75E2D63100000 PUSH9 0x8F00F760A4B2DB55D DUP3 MUL SDIV SWAP1 POP JUMPDEST PUSH9 0x15AF1D78B58C40000 DUP5 SLT PUSH2 0x3CDE JUMPI PUSH9 0x15AF1D78B58C3FFFF NOT SWAP1 SWAP4 ADD SWAP3 PUSH9 0x56BC75E2D63100000 PUSH9 0x6F5F1775788937937 DUP3 MUL SDIV SWAP1 POP JUMPDEST PUSH9 0x56BC75E2D63100000 DUP5 DUP2 ADD SWAP1 DUP6 SWAP1 PUSH1 0x2 SWAP1 DUP3 DUP1 MUL SDIV SDIV SWAP2 DUP3 ADD SWAP2 SWAP1 POP PUSH1 0x3 PUSH9 0x56BC75E2D63100000 DUP8 DUP4 MUL SDIV SDIV SWAP2 DUP3 ADD SWAP2 SWAP1 POP PUSH1 0x4 PUSH9 0x56BC75E2D63100000 DUP8 DUP4 MUL SDIV SDIV SWAP2 DUP3 ADD SWAP2 SWAP1 POP PUSH1 0x5 PUSH9 0x56BC75E2D63100000 DUP8 DUP4 MUL SDIV SDIV SWAP2 DUP3 ADD SWAP2 SWAP1 POP PUSH1 0x6 PUSH9 0x56BC75E2D63100000 DUP8 DUP4 MUL SDIV SDIV SWAP2 DUP3 ADD SWAP2 SWAP1 POP PUSH1 0x7 PUSH9 0x56BC75E2D63100000 DUP8 DUP4 MUL SDIV SDIV SWAP2 DUP3 ADD SWAP2 SWAP1 POP PUSH1 0x8 PUSH9 0x56BC75E2D63100000 DUP8 DUP4 MUL SDIV SDIV SWAP2 DUP3 ADD SWAP2 SWAP1 POP PUSH1 0x9 PUSH9 0x56BC75E2D63100000 DUP8 DUP4 MUL SDIV SDIV SWAP2 DUP3 ADD SWAP2 SWAP1 POP PUSH1 0xA PUSH9 0x56BC75E2D63100000 DUP8 DUP4 MUL SDIV SDIV SWAP2 DUP3 ADD SWAP2 SWAP1 POP PUSH1 0xB PUSH9 0x56BC75E2D63100000 DUP8 DUP4 MUL SDIV SDIV SWAP2 DUP3 ADD SWAP2 SWAP1 POP PUSH1 0xC PUSH9 0x56BC75E2D63100000 DUP8 DUP4 MUL SDIV SDIV SWAP2 DUP3 ADD SWAP2 SWAP1 POP PUSH1 0x64 PUSH9 0x56BC75E2D63100000 DUP5 DUP5 MUL SDIV DUP6 MUL SDIV SWAP7 SWAP6 POP POP POP POP POP POP JUMP JUMPDEST DUP1 CALLDATALOAD PUSH2 0x4DC DUP2 PUSH2 0x46DD JUMP JUMPDEST PUSH1 0x0 DUP3 PUSH1 0x1F DUP4 ADD SLT PUSH2 0x3E1A JUMPI DUP1 DUP2 REVERT JUMPDEST DUP2 MLOAD PUSH2 0x3E2D PUSH2 0x3E28 DUP3 PUSH2 0x46BE JUMP JUMPDEST PUSH2 0x4698 JUMP JUMPDEST DUP2 DUP2 MSTORE SWAP2 POP PUSH1 0x20 DUP1 DUP4 ADD SWAP1 DUP5 DUP2 ADD DUP2 DUP5 MUL DUP7 ADD DUP3 ADD DUP8 LT ISZERO PUSH2 0x3E4E JUMPI PUSH1 0x0 DUP1 REVERT JUMPDEST PUSH1 0x0 JUMPDEST DUP5 DUP2 LT ISZERO PUSH2 0x3E6D JUMPI DUP2 MLOAD DUP5 MSTORE SWAP3 DUP3 ADD SWAP3 SWAP1 DUP3 ADD SWAP1 PUSH1 0x1 ADD PUSH2 0x3E51 JUMP JUMPDEST POP POP POP POP POP SWAP3 SWAP2 POP POP JUMP JUMPDEST PUSH1 0x0 DUP3 PUSH1 0x1F DUP4 ADD SLT PUSH2 0x3E88 JUMPI DUP1 DUP2 REVERT JUMPDEST DUP2 CALLDATALOAD PUSH1 0x1 PUSH1 0x1 PUSH1 0x40 SHL SUB DUP2 GT ISZERO PUSH2 0x3E9D JUMPI DUP2 DUP3 REVERT JUMPDEST PUSH2 0x3EB0 PUSH1 0x1F DUP3 ADD PUSH1 0x1F NOT AND PUSH1 0x20 ADD PUSH2 0x4698 JUMP JUMPDEST SWAP2 POP DUP1 DUP3 MSTORE DUP4 PUSH1 0x20 DUP3 DUP6 ADD ADD GT ISZERO PUSH2 0x3EC7 JUMPI PUSH1 0x0 DUP1 REVERT JUMPDEST DUP1 PUSH1 0x20 DUP5 ADD PUSH1 0x20 DUP5 ADD CALLDATACOPY PUSH1 0x0 SWAP1 DUP3 ADD PUSH1 0x20 ADD MSTORE SWAP3 SWAP2 POP POP JUMP JUMPDEST DUP1 CALLDATALOAD PUSH1 0x2 DUP2 LT PUSH2 0x4DC JUMPI PUSH1 0x0 DUP1 REVERT JUMPDEST PUSH1 0x0 PUSH1 0x20 DUP3 DUP5 SUB SLT ISZERO PUSH2 0x3F00 JUMPI DUP1 DUP2 REVERT JUMPDEST DUP2 CALLDATALOAD PUSH2 0x5A1 DUP2 PUSH2 0x46DD JUMP JUMPDEST PUSH1 0x0 DUP1 PUSH1 0x40 DUP4 DUP6 SUB SLT ISZERO PUSH2 0x3F1D JUMPI DUP1 DUP2 REVERT JUMPDEST DUP3 CALLDATALOAD PUSH2 0x3F28 DUP2 PUSH2 0x46DD JUMP JUMPDEST SWAP2 POP PUSH1 0x20 DUP4 ADD CALLDATALOAD PUSH2 0x3F38 DUP2 PUSH2 0x46DD JUMP JUMPDEST DUP1 SWAP2 POP POP SWAP3 POP SWAP3 SWAP1 POP JUMP JUMPDEST PUSH1 0x0 DUP1 PUSH1 0x0 PUSH1 0x60 DUP5 DUP7 SUB SLT ISZERO PUSH2 0x3F57 JUMPI DUP1 DUP2 REVERT JUMPDEST DUP4 CALLDATALOAD PUSH2 0x3F62 DUP2 PUSH2 0x46DD JUMP JUMPDEST SWAP3 POP PUSH1 0x20 DUP5 ADD CALLDATALOAD PUSH2 0x3F72 DUP2 PUSH2 0x46DD JUMP JUMPDEST SWAP3 SWAP6 SWAP3 SWAP5 POP POP POP PUSH1 0x40 SWAP2 SWAP1 SWAP2 ADD CALLDATALOAD SWAP1 JUMP JUMPDEST PUSH1 0x0 DUP1 PUSH1 0x0 DUP1 PUSH1 0x0 DUP1 PUSH1 0x0 PUSH1 0xE0 DUP9 DUP11 SUB SLT ISZERO PUSH2 0x3F9D JUMPI DUP3 DUP4 REVERT JUMPDEST DUP8 CALLDATALOAD PUSH2 0x3FA8 DUP2 PUSH2 0x46DD JUMP JUMPDEST SWAP7 POP PUSH1 0x20 DUP9 ADD CALLDATALOAD PUSH2 0x3FB8 DUP2 PUSH2 0x46DD JUMP JUMPDEST SWAP6 POP PUSH1 0x40 DUP9 ADD CALLDATALOAD SWAP5 POP PUSH1 0x60 DUP9 ADD CALLDATALOAD SWAP4 POP PUSH1 0x80 DUP9 ADD CALLDATALOAD PUSH1 0xFF DUP2 AND DUP2 EQ PUSH2 0x3FDB JUMPI DUP4 DUP5 REVERT JUMPDEST SWAP7 SWAP10 SWAP6 SWAP9 POP SWAP4 SWAP7 SWAP3 SWAP6 SWAP5 PUSH1 0xA0 DUP5 ADD CALLDATALOAD SWAP5 POP PUSH1 0xC0 SWAP1 SWAP4 ADD CALLDATALOAD SWAP3 SWAP2 POP POP JUMP JUMPDEST PUSH1 0x0 DUP1 PUSH1 0x40 DUP4 DUP6 SUB SLT ISZERO PUSH2 0x400A JUMPI DUP2 DUP3 REVERT JUMPDEST DUP3 CALLDATALOAD PUSH2 0x4015 DUP2 PUSH2 0x46DD JUMP JUMPDEST SWAP5 PUSH1 0x20 SWAP4 SWAP1 SWAP4 ADD CALLDATALOAD SWAP4 POP POP POP JUMP JUMPDEST PUSH1 0x0 DUP1 PUSH1 0x0 PUSH1 0x60 DUP5 DUP7 SUB SLT ISZERO PUSH2 0x4037 JUMPI DUP1 DUP2 REVERT JUMPDEST DUP4 MLOAD PUSH1 0x1 PUSH1 0x1 PUSH1 0x40 SHL SUB DUP1 DUP3 GT ISZERO PUSH2 0x404D JUMPI DUP3 DUP4 REVERT JUMPDEST DUP2 DUP7 ADD SWAP2 POP DUP7 PUSH1 0x1F DUP4 ADD SLT PUSH2 0x4060 JUMPI DUP3 DUP4 REVERT JUMPDEST DUP2 MLOAD PUSH2 0x406E PUSH2 0x3E28 DUP3 PUSH2 0x46BE JUMP JUMPDEST DUP1 DUP3 DUP3 MSTORE PUSH1 0x20 DUP1 DUP4 ADD SWAP3 POP DUP1 DUP7 ADD DUP12 DUP3 DUP4 DUP8 MUL DUP10 ADD ADD GT ISZERO PUSH2 0x408E JUMPI DUP8 DUP9 REVERT JUMPDEST DUP8 SWAP7 POP JUMPDEST DUP5 DUP8 LT ISZERO PUSH2 0x40B9 JUMPI DUP1 MLOAD PUSH2 0x40A5 DUP2 PUSH2 0x46DD JUMP JUMPDEST DUP5 MSTORE PUSH1 0x1 SWAP7 SWAP1 SWAP7 ADD SWAP6 SWAP3 DUP2 ADD SWAP3 DUP2 ADD PUSH2 0x4092 JUMP JUMPDEST POP DUP10 ADD MLOAD SWAP1 SWAP8 POP SWAP4 POP POP POP DUP1 DUP3 GT ISZERO PUSH2 0x40D0 JUMPI DUP3 DUP4 REVERT JUMPDEST POP PUSH2 0x40DD DUP7 DUP3 DUP8 ADD PUSH2 0x3E0A JUMP JUMPDEST SWAP3 POP POP PUSH1 0x40 DUP5 ADD MLOAD SWAP1 POP SWAP3 POP SWAP3 POP SWAP3 JUMP JUMPDEST PUSH1 0x0 PUSH1 0x20 DUP3 DUP5 SUB SLT ISZERO PUSH2 0x40FF JUMPI DUP1 DUP2 REVERT JUMPDEST DUP2 CALLDATALOAD PUSH2 0x5A1 DUP2 PUSH2 0x46F2 JUMP JUMPDEST PUSH1 0x0 PUSH1 0x20 DUP3 DUP5 SUB SLT ISZERO PUSH2 0x411B JUMPI DUP1 DUP2 REVERT JUMPDEST DUP2 MLOAD PUSH2 0x5A1 DUP2 PUSH2 0x46F2 JUMP JUMPDEST PUSH1 0x0 DUP1 PUSH1 0x0 DUP1 PUSH1 0x0 DUP1 PUSH1 0x0 PUSH1 0xE0 DUP9 DUP11 SUB SLT ISZERO PUSH2 0x4140 JUMPI DUP1 DUP2 REVERT JUMPDEST DUP8 CALLDATALOAD SWAP7 POP PUSH1 0x20 DUP1 DUP10 ADD CALLDATALOAD PUSH2 0x4153 DUP2 PUSH2 0x46DD JUMP JUMPDEST SWAP7 POP PUSH1 0x40 DUP10 ADD CALLDATALOAD PUSH2 0x4163 DUP2 PUSH2 0x46DD JUMP JUMPDEST SWAP6 POP PUSH1 0x60 DUP10 ADD CALLDATALOAD PUSH1 0x1 PUSH1 0x1 PUSH1 0x40 SHL SUB DUP1 DUP3 GT ISZERO PUSH2 0x417E JUMPI DUP4 DUP5 REVERT JUMPDEST DUP2 DUP12 ADD SWAP2 POP DUP12 PUSH1 0x1F DUP4 ADD SLT PUSH2 0x4191 JUMPI DUP4 DUP5 REVERT JUMPDEST DUP2 CALLDATALOAD PUSH2 0x419F PUSH2 0x3E28 DUP3 PUSH2 0x46BE JUMP JUMPDEST DUP1 DUP3 DUP3 MSTORE DUP6 DUP3 ADD SWAP2 POP DUP6 DUP6 ADD DUP16 DUP8 DUP9 DUP7 MUL DUP9 ADD ADD GT ISZERO PUSH2 0x41BD JUMPI DUP8 DUP9 REVERT JUMPDEST DUP8 SWAP6 POP JUMPDEST DUP4 DUP7 LT ISZERO PUSH2 0x41DF JUMPI DUP1 CALLDATALOAD DUP4 MSTORE PUSH1 0x1 SWAP6 SWAP1 SWAP6 ADD SWAP5 SWAP2 DUP7 ADD SWAP2 DUP7 ADD PUSH2 0x41C1 JUMP JUMPDEST POP SWAP9 POP POP POP PUSH1 0x80 DUP12 ADD CALLDATALOAD SWAP6 POP PUSH1 0xA0 DUP12 ADD CALLDATALOAD SWAP5 POP PUSH1 0xC0 DUP12 ADD CALLDATALOAD SWAP3 POP DUP1 DUP4 GT ISZERO PUSH2 0x4205 JUMPI DUP4 DUP5 REVERT JUMPDEST POP POP PUSH2 0x4213 DUP11 DUP3 DUP12 ADD PUSH2 0x3E78 JUMP JUMPDEST SWAP2 POP POP SWAP3 SWAP6 SWAP9 SWAP2 SWAP5 SWAP8 POP SWAP3 SWAP6 POP JUMP JUMPDEST PUSH1 0x0 PUSH1 0x20 DUP3 DUP5 SUB SLT ISZERO PUSH2 0x4233 JUMPI DUP1 DUP2 REVERT JUMPDEST DUP2 CALLDATALOAD PUSH1 0x1 PUSH1 0x1 PUSH1 0xE0 SHL SUB NOT DUP2 AND DUP2 EQ PUSH2 0x5A1 JUMPI DUP2 DUP3 REVERT JUMPDEST PUSH1 0x0 PUSH1 0x20 DUP3 DUP5 SUB SLT ISZERO PUSH2 0x425B JUMPI DUP1 DUP2 REVERT JUMPDEST DUP2 MLOAD PUSH2 0x5A1 DUP2 PUSH2 0x46DD JUMP JUMPDEST PUSH1 0x0 PUSH1 0x20 DUP3 DUP5 SUB SLT ISZERO PUSH2 0x4277 JUMPI DUP1 DUP2 REVERT JUMPDEST DUP2 MLOAD PUSH2 0x5A1 DUP2 PUSH2 0x4700 JUMP JUMPDEST PUSH1 0x0 DUP1 PUSH1 0x0 PUSH1 0x60 DUP5 DUP7 SUB SLT ISZERO PUSH2 0x4296 JUMPI DUP1 DUP2 REVERT JUMPDEST DUP4 MLOAD PUSH2 0x42A1 DUP2 PUSH2 0x4700 JUMP JUMPDEST PUSH1 0x20 DUP6 ADD MLOAD SWAP1 SWAP4 POP PUSH1 0x1 PUSH1 0x1 PUSH1 0x40 SHL SUB DUP2 GT ISZERO PUSH2 0x42BC JUMPI DUP2 DUP3 REVERT JUMPDEST PUSH2 0x40DD DUP7 DUP3 DUP8 ADD PUSH2 0x3E0A JUMP JUMPDEST PUSH1 0x0 DUP1 PUSH1 0x40 DUP4 DUP6 SUB SLT ISZERO PUSH2 0x42DA JUMPI DUP2 DUP3 REVERT JUMPDEST DUP3 MLOAD PUSH2 0x42E5 DUP2 PUSH2 0x4700 JUMP JUMPDEST PUSH1 0x20 SWAP4 SWAP1 SWAP4 ADD MLOAD SWAP3 SWAP5 SWAP3 SWAP4 POP POP POP JUMP JUMPDEST PUSH1 0x0 DUP1 PUSH1 0x0 PUSH1 0x60 DUP5 DUP7 SUB SLT ISZERO PUSH2 0x4309 JUMPI DUP1 DUP2 REVERT JUMPDEST DUP4 MLOAD PUSH2 0x4314 DUP2 PUSH2 0x4700 JUMP JUMPDEST PUSH1 0x20 DUP6 ADD MLOAD PUSH1 0x40 SWAP1 SWAP6 ADD MLOAD SWAP1 SWAP7 SWAP5 SWAP6 POP SWAP4 SWAP3 POP POP POP JUMP JUMPDEST PUSH1 0x0 DUP1 PUSH1 0x40 DUP4 DUP6 SUB SLT ISZERO PUSH2 0x433D JUMPI DUP2 DUP3 REVERT JUMPDEST DUP3 MLOAD PUSH2 0x4348 DUP2 PUSH2 0x4700 JUMP JUMPDEST PUSH1 0x20 DUP5 ADD MLOAD SWAP1 SWAP3 POP PUSH1 0x1 PUSH1 0x1 PUSH1 0x40 SHL SUB DUP2 GT ISZERO PUSH2 0x4363 JUMPI DUP2 DUP3 REVERT JUMPDEST PUSH2 0x436F DUP6 DUP3 DUP7 ADD PUSH2 0x3E0A JUMP JUMPDEST SWAP2 POP POP SWAP3 POP SWAP3 SWAP1 POP JUMP JUMPDEST PUSH1 0x0 DUP1 PUSH1 0x0 PUSH1 0x60 DUP5 DUP7 SUB SLT ISZERO PUSH2 0x438D JUMPI DUP1 DUP2 REVERT JUMPDEST DUP4 CALLDATALOAD PUSH1 0x1 PUSH1 0x1 PUSH1 0x40 SHL SUB DUP1 DUP3 GT ISZERO PUSH2 0x43A3 JUMPI DUP3 DUP4 REVERT JUMPDEST DUP2 DUP7 ADD SWAP2 POP PUSH2 0x120 DUP1 DUP4 DUP10 SUB SLT ISZERO PUSH2 0x43B9 JUMPI DUP4 DUP5 REVERT JUMPDEST PUSH2 0x43C2 DUP2 PUSH2 0x4698 JUMP JUMPDEST SWAP1 POP PUSH2 0x43CE DUP9 DUP5 PUSH2 0x3EE0 JUMP JUMPDEST DUP2 MSTORE PUSH2 0x43DD DUP9 PUSH1 0x20 DUP6 ADD PUSH2 0x3DFF JUMP JUMPDEST PUSH1 0x20 DUP3 ADD MSTORE PUSH2 0x43EF DUP9 PUSH1 0x40 DUP6 ADD PUSH2 0x3DFF JUMP JUMPDEST PUSH1 0x40 DUP3 ADD MSTORE PUSH1 0x60 DUP4 ADD CALLDATALOAD PUSH1 0x60 DUP3 ADD MSTORE PUSH1 0x80 DUP4 ADD CALLDATALOAD PUSH1 0x80 DUP3 ADD MSTORE PUSH1 0xA0 DUP4 ADD CALLDATALOAD PUSH1 0xA0 DUP3 ADD MSTORE PUSH2 0x441F DUP9 PUSH1 0xC0 DUP6 ADD PUSH2 0x3DFF JUMP JUMPDEST PUSH1 0xC0 DUP3 ADD MSTORE PUSH2 0x4431 DUP9 PUSH1 0xE0 DUP6 ADD PUSH2 0x3DFF JUMP JUMPDEST PUSH1 0xE0 DUP3 ADD MSTORE PUSH2 0x100 DUP1 DUP5 ADD CALLDATALOAD DUP4 DUP2 GT ISZERO PUSH2 0x4449 JUMPI DUP6 DUP7 REVERT JUMPDEST PUSH2 0x4455 DUP11 DUP3 DUP8 ADD PUSH2 0x3E78 JUMP JUMPDEST SWAP2 DUP4 ADD SWAP2 SWAP1 SWAP2 MSTORE POP SWAP8 PUSH1 0x20 DUP8 ADD CALLDATALOAD SWAP8 POP PUSH1 0x40 SWAP1 SWAP7 ADD CALLDATALOAD SWAP6 SWAP5 POP POP POP POP POP JUMP JUMPDEST PUSH1 0x0 PUSH1 0x20 DUP3 DUP5 SUB SLT ISZERO PUSH2 0x4485 JUMPI DUP1 DUP2 REVERT JUMPDEST POP CALLDATALOAD SWAP2 SWAP1 POP JUMP JUMPDEST PUSH1 0x0 DUP2 MLOAD DUP1 DUP5 MSTORE PUSH1 0x20 DUP1 DUP6 ADD SWAP5 POP DUP1 DUP5 ADD DUP4 JUMPDEST DUP4 DUP2 LT ISZERO PUSH2 0x44BB JUMPI DUP2 MLOAD DUP8 MSTORE SWAP6 DUP3 ADD SWAP6 SWAP1 DUP3 ADD SWAP1 PUSH1 0x1 ADD PUSH2 0x449F JUMP JUMPDEST POP SWAP5 SWAP6 SWAP5 POP POP POP POP POP JUMP JUMPDEST SWAP2 DUP3 MSTORE PUSH1 0x1 PUSH1 0x1 PUSH1 0xE0 SHL SUB NOT AND PUSH1 0x20 DUP3 ADD MSTORE PUSH1 0x24 ADD SWAP1 JUMP JUMPDEST PUSH1 0x0 DUP3 DUP5 DUP4 CALLDATACOPY SWAP2 ADD SWAP1 DUP2 MSTORE SWAP2 SWAP1 POP JUMP JUMPDEST PUSH2 0x1901 PUSH1 0xF0 SHL DUP2 MSTORE PUSH1 0x2 DUP2 ADD SWAP3 SWAP1 SWAP3 MSTORE PUSH1 0x22 DUP3 ADD MSTORE PUSH1 0x42 ADD SWAP1 JUMP JUMPDEST PUSH1 0x1 PUSH1 0x1 PUSH1 0xA0 SHL SUB SWAP2 SWAP1 SWAP2 AND DUP2 MSTORE PUSH1 0x20 ADD SWAP1 JUMP JUMPDEST PUSH1 0x0 PUSH1 0x20 DUP3 MSTORE PUSH2 0x5A1 PUSH1 0x20 DUP4 ADD DUP5 PUSH2 0x448C JUMP JUMPDEST PUSH1 0x0 PUSH1 0x40 DUP3 MSTORE PUSH2 0x4543 PUSH1 0x40 DUP4 ADD DUP6 PUSH2 0x448C JUMP JUMPDEST DUP3 DUP2 SUB PUSH1 0x20 DUP5 ADD MSTORE PUSH2 0x2372 DUP2 DUP6 PUSH2 0x448C JUMP JUMPDEST SWAP1 ISZERO ISZERO DUP2 MSTORE PUSH1 0x20 ADD SWAP1 JUMP JUMPDEST SWAP3 ISZERO ISZERO DUP4 MSTORE PUSH1 0x20 DUP4 ADD SWAP2 SWAP1 SWAP2 MSTORE PUSH1 0x40 DUP3 ADD MSTORE PUSH1 0x60 ADD SWAP1 JUMP JUMPDEST SWAP1 DUP2 MSTORE PUSH1 0x20 ADD SWAP1 JUMP JUMPDEST SWAP3 DUP4 MSTORE PUSH1 0x1 PUSH1 0x1 PUSH1 0xA0 SHL SUB SWAP2 DUP3 AND PUSH1 0x20 DUP5 ADD MSTORE AND PUSH1 0x40 DUP3 ADD MSTORE PUSH1 0x60 ADD SWAP1 JUMP JUMPDEST SWAP6 DUP7 MSTORE PUSH1 0x1 PUSH1 0x1 PUSH1 0xA0 SHL SUB SWAP5 DUP6 AND PUSH1 0x20 DUP8 ADD MSTORE SWAP3 SWAP1 SWAP4 AND PUSH1 0x40 DUP6 ADD MSTORE PUSH1 0x60 DUP5 ADD MSTORE PUSH1 0x80 DUP4 ADD SWAP2 SWAP1 SWAP2 MSTORE PUSH1 0xA0 DUP3 ADD MSTORE PUSH1 0xC0 ADD SWAP1 JUMP JUMPDEST SWAP5 DUP6 MSTORE PUSH1 0x20 DUP6 ADD SWAP4 SWAP1 SWAP4 MSTORE PUSH1 0x40 DUP5 ADD SWAP2 SWAP1 SWAP2 MSTORE PUSH1 0x60 DUP4 ADD MSTORE PUSH1 0x1 PUSH1 0x1 PUSH1 0xA0 SHL SUB AND PUSH1 0x80 DUP3 ADD MSTORE PUSH1 0xA0 ADD SWAP1 JUMP JUMPDEST SWAP4 DUP5 MSTORE PUSH1 0xFF SWAP3 SWAP1 SWAP3 AND PUSH1 0x20 DUP5 ADD MSTORE PUSH1 0x40 DUP4 ADD MSTORE PUSH1 0x60 DUP3 ADD MSTORE PUSH1 0x80 ADD SWAP1 JUMP JUMPDEST PUSH1 0x0 PUSH1 0x20 DUP1 DUP4 MSTORE DUP4 MLOAD DUP1 DUP3 DUP6 ADD MSTORE DUP3 JUMPDEST DUP2 DUP2 LT ISZERO PUSH2 0x464A JUMPI DUP6 DUP2 ADD DUP4 ADD MLOAD DUP6 DUP3 ADD PUSH1 0x40 ADD MSTORE DUP3 ADD PUSH2 0x462E JUMP JUMPDEST DUP2 DUP2 GT ISZERO PUSH2 0x465B JUMPI DUP4 PUSH1 0x40 DUP4 DUP8 ADD ADD MSTORE JUMPDEST POP PUSH1 0x1F ADD PUSH1 0x1F NOT AND SWAP3 SWAP1 SWAP3 ADD PUSH1 0x40 ADD SWAP4 SWAP3 POP POP POP JUMP JUMPDEST PUSH1 0x0 DUP4 DUP3 MSTORE PUSH1 0x40 PUSH1 0x20 DUP4 ADD MSTORE PUSH2 0x1BAD PUSH1 0x40 DUP4 ADD DUP5 PUSH2 0x448C JUMP JUMPDEST PUSH1 0xFF SWAP2 SWAP1 SWAP2 AND DUP2 MSTORE PUSH1 0x20 ADD SWAP1 JUMP JUMPDEST PUSH1 0x40 MLOAD DUP2 DUP2 ADD PUSH1 0x1 PUSH1 0x1 PUSH1 0x40 SHL SUB DUP2 GT DUP3 DUP3 LT OR ISZERO PUSH2 0x46B6 JUMPI PUSH1 0x0 DUP1 REVERT JUMPDEST PUSH1 0x40 MSTORE SWAP2 SWAP1 POP JUMP JUMPDEST PUSH1 0x0 PUSH1 0x1 PUSH1 0x1 PUSH1 0x40 SHL SUB DUP3 GT ISZERO PUSH2 0x46D3 JUMPI DUP1 DUP2 REVERT JUMPDEST POP PUSH1 0x20 SWAP1 DUP2 MUL ADD SWAP1 JUMP JUMPDEST PUSH1 0x1 PUSH1 0x1 PUSH1 0xA0 SHL SUB DUP2 AND DUP2 EQ PUSH2 0x4F3 JUMPI PUSH1 0x0 DUP1 REVERT JUMPDEST DUP1 ISZERO ISZERO DUP2 EQ PUSH2 0x4F3 JUMPI PUSH1 0x0 DUP1 REVERT JUMPDEST PUSH1 0x3 DUP2 LT PUSH2 0x4F3 JUMPI PUSH1 0x0 DUP1 REVERT INVALID LOG2 PUSH5 0x6970667358 0x22 SLT KECCAK256 BALANCE POP PUSH27 0x2BE28A0C5724BF75E4E04AEA90E035622406370E02C5ED9D40A7B4 ORIGIN 0xED PUSH5 0x736F6C6343 STOP SMOD ADD STOP CALLER "
		},
		"gasEstimates": {
			"creation": {
				"codeDepositCost": "3648600",
				"executionCost": "infinite",
				"totalCost": "infinite"
			},
			"external": {
				"DOMAIN_SEPARATOR()": "infinite",
				"allowance(address,address)": "infinite",
				"approve(address,uint256)": "22550",
				"balanceOf(address)": "1365",
				"decimals()": "330",
				"decreaseApproval(address,uint256)": "23609",
				"getActionId(bytes4)": "infinite",
				"getAuthorizer()": "infinite",
				"getInvariant()": "infinite",
				"getLastInvariant()": "1117",
				"getNormalizedWeights()": "infinite",
				"getOwner()": "infinite",
				"getPausedState()": "infinite",
				"getPoolId()": "infinite",
				"getRate()": "infinite",
				"getSwapFeePercentage()": "1118",
				"getVault()": "infinite",
				"increaseApproval(address,uint256)": "23626",
				"name()": "infinite",
				"nonces(address)": "1310",
				"onExitPool(bytes32,address,address,uint256[],uint256,uint256,bytes)": "infinite",
				"onJoinPool(bytes32,address,address,uint256[],uint256,uint256,bytes)": "infinite",
				"onSwap((uint8,address,address,uint256,bytes32,uint256,address,address,bytes),uint256,uint256)": "infinite",
				"permit(address,address,uint256,uint256,uint8,bytes32,bytes32)": "infinite",
				"queryExit(bytes32,address,address,uint256[],uint256,uint256,bytes)": "infinite",
				"queryJoin(bytes32,address,address,uint256[],uint256,uint256,bytes)": "infinite",
				"setPaused(bool)": "infinite",
				"setSwapFeePercentage(uint256)": "infinite",
				"symbol()": "infinite",
				"totalSupply()": "1141",
				"transfer(address,uint256)": "infinite",
				"transferFrom(address,address,uint256)": "infinite"
			},
			"internal": {
				"_doExit(uint256[] memory,uint256[] memory,bytes memory)": "infinite",
				"_doJoin(uint256[] memory,uint256[] memory,bytes memory)": "infinite",
				"_exitBPTInForExactTokensOut(uint256[] memory,uint256[] memory,bytes memory)": "infinite",
				"_exitExactBPTInForTokenOut(uint256[] memory,uint256[] memory,bytes memory)": "infinite",
				"_exitExactBPTInForTokensOut(uint256[] memory,bytes memory)": "infinite",
				"_getDueProtocolFeeAmounts(uint256[] memory,uint256[] memory,uint256,uint256,uint256)": "infinite",
				"_invariantAfterExit(uint256[] memory,uint256[] memory,uint256[] memory)": "infinite",
				"_invariantAfterJoin(uint256[] memory,uint256[] memory,uint256[] memory)": "infinite",
				"_joinExactTokensInForBPTOut(uint256[] memory,uint256[] memory,bytes memory)": "infinite",
				"_joinTokenInForExactBPTOut(uint256[] memory,uint256[] memory,bytes memory)": "infinite",
				"_mutateAmounts(uint256[] memory,uint256[] memory,function (uint256,uint256) pure returns (uint256))": "infinite",
				"_normalizedWeight(contract IERC20)": "infinite",
				"_normalizedWeights()": "infinite",
				"_onExitPool(bytes32,address,address,uint256[] memory,uint256,uint256,bytes memory)": "infinite",
				"_onInitializePool(bytes32,address,address,bytes memory)": "infinite",
				"_onJoinPool(bytes32,address,address,uint256[] memory,uint256,uint256,bytes memory)": "infinite",
				"_onSwapGivenIn(struct IPoolSwapStructs.SwapRequest memory,uint256,uint256)": "infinite",
				"_onSwapGivenOut(struct IPoolSwapStructs.SwapRequest memory,uint256,uint256)": "infinite"
			}
		},
		"methodIdentifiers": {
			"DOMAIN_SEPARATOR()": "3644e515",
			"allowance(address,address)": "dd62ed3e",
			"approve(address,uint256)": "095ea7b3",
			"balanceOf(address)": "70a08231",
			"decimals()": "313ce567",
			"decreaseApproval(address,uint256)": "66188463",
			"getActionId(bytes4)": "851c1bb3",
			"getAuthorizer()": "aaabadc5",
			"getInvariant()": "c0ff1a15",
			"getLastInvariant()": "9b02cdde",
			"getNormalizedWeights()": "f89f27ed",
			"getOwner()": "893d20e8",
			"getPausedState()": "1c0de051",
			"getPoolId()": "38fff2d0",
			"getRate()": "679aefce",
			"getSwapFeePercentage()": "55c67628",
			"getVault()": "8d928af8",
			"increaseApproval(address,uint256)": "d73dd623",
			"name()": "06fdde03",
			"nonces(address)": "7ecebe00",
			"onExitPool(bytes32,address,address,uint256[],uint256,uint256,bytes)": "74f3b009",
			"onJoinPool(bytes32,address,address,uint256[],uint256,uint256,bytes)": "d5c096c4",
			"onSwap((uint8,address,address,uint256,bytes32,uint256,address,address,bytes),uint256,uint256)": "9d2c110c",
			"permit(address,address,uint256,uint256,uint8,bytes32,bytes32)": "d505accf",
			"queryExit(bytes32,address,address,uint256[],uint256,uint256,bytes)": "6028bfd4",
			"queryJoin(bytes32,address,address,uint256[],uint256,uint256,bytes)": "87ec6817",
			"setPaused(bool)": "16c38b3c",
			"setSwapFeePercentage(uint256)": "38e9922e",
			"symbol()": "95d89b41",
			"totalSupply()": "18160ddd",
			"transfer(address,uint256)": "a9059cbb",
			"transferFrom(address,address,uint256)": "23b872dd"
		}
	},
	"abi": [
		{
			"inputs": [
				{
					"internalType": "contract IVault",
					"name": "vault",
					"type": "address"
				},
				{
					"internalType": "string",
					"name": "name",
					"type": "string"
				},
				{
					"internalType": "string",
					"name": "symbol",
					"type": "string"
				},
				{
					"internalType": "contract IERC20[]",
					"name": "tokens",
					"type": "address[]"
				},
				{
					"internalType": "uint256[]",
					"name": "normalizedWeights",
					"type": "uint256[]"
				},
				{
					"internalType": "uint256",
					"name": "swapFeePercentage",
					"type": "uint256"
				},
				{
					"internalType": "uint256",
					"name": "pauseWindowDuration",
					"type": "uint256"
				},
				{
					"internalType": "uint256",
					"name": "bufferPeriodDuration",
					"type": "uint256"
				},
				{
					"internalType": "address",
					"name": "owner",
					"type": "address"
				}
			],
			"stateMutability": "nonpayable",
			"type": "constructor"
		},
		{
			"anonymous": false,
			"inputs": [
				{
					"indexed": true,
					"internalType": "address",
					"name": "owner",
					"type": "address"
				},
				{
					"indexed": true,
					"internalType": "address",
					"name": "spender",
					"type": "address"
				},
				{
					"indexed": false,
					"internalType": "uint256",
					"name": "value",
					"type": "uint256"
				}
			],
			"name": "Approval",
			"type": "event"
		},
		{
			"anonymous": false,
			"inputs": [
				{
					"indexed": false,
					"internalType": "bool",
					"name": "paused",
					"type": "bool"
				}
			],
			"name": "PausedStateChanged",
			"type": "event"
		},
		{
			"anonymous": false,
			"inputs": [
				{
					"indexed": false,
					"internalType": "uint256",
					"name": "swapFeePercentage",
					"type": "uint256"
				}
			],
			"name": "SwapFeePercentageChanged",
			"type": "event"
		},
		{
			"anonymous": false,
			"inputs": [
				{
					"indexed": true,
					"internalType": "address",
					"name": "from",
					"type": "address"
				},
				{
					"indexed": true,
					"internalType": "address",
					"name": "to",
					"type": "address"
				},
				{
					"indexed": false,
					"internalType": "uint256",
					"name": "value",
					"type": "uint256"
				}
			],
			"name": "Transfer",
			"type": "event"
		},
		{
			"inputs": [],
			"name": "DOMAIN_SEPARATOR",
			"outputs": [
				{
					"internalType": "bytes32",
					"name": "",
					"type": "bytes32"
				}
			],
			"stateMutability": "view",
			"type": "function"
		},
		{
			"inputs": [
				{
					"internalType": "address",
					"name": "owner",
					"type": "address"
				},
				{
					"internalType": "address",
					"name": "spender",
					"type": "address"
				}
			],
			"name": "allowance",
			"outputs": [
				{
					"internalType": "uint256",
					"name": "",
					"type": "uint256"
				}
			],
			"stateMutability": "view",
			"type": "function"
		},
		{
			"inputs": [
				{
					"internalType": "address",
					"name": "spender",
					"type": "address"
				},
				{
					"internalType": "uint256",
					"name": "amount",
					"type": "uint256"
				}
			],
			"name": "approve",
			"outputs": [
				{
					"internalType": "bool",
					"name": "",
					"type": "bool"
				}
			],
			"stateMutability": "nonpayable",
			"type": "function"
		},
		{
			"inputs": [
				{
					"internalType": "address",
					"name": "account",
					"type": "address"
				}
			],
			"name": "balanceOf",
			"outputs": [
				{
					"internalType": "uint256",
					"name": "",
					"type": "uint256"
				}
			],
			"stateMutability": "view",
			"type": "function"
		},
		{
			"inputs": [],
			"name": "decimals",
			"outputs": [
				{
					"internalType": "uint8",
					"name": "",
					"type": "uint8"
				}
			],
			"stateMutability": "pure",
			"type": "function"
		},
		{
			"inputs": [
				{
					"internalType": "address",
					"name": "spender",
					"type": "address"
				},
				{
					"internalType": "uint256",
					"name": "amount",
					"type": "uint256"
				}
			],
			"name": "decreaseApproval",
			"outputs": [
				{
					"internalType": "bool",
					"name": "",
					"type": "bool"
				}
			],
			"stateMutability": "nonpayable",
			"type": "function"
		},
		{
			"inputs": [
				{
					"internalType": "bytes4",
					"name": "selector",
					"type": "bytes4"
				}
			],
			"name": "getActionId",
			"outputs": [
				{
					"internalType": "bytes32",
					"name": "",
					"type": "bytes32"
				}
			],
			"stateMutability": "view",
			"type": "function"
		},
		{
			"inputs": [],
			"name": "getAuthorizer",
			"outputs": [
				{
					"internalType": "contract IAuthorizer",
					"name": "",
					"type": "address"
				}
			],
			"stateMutability": "view",
			"type": "function"
		},
		{
			"inputs": [],
			"name": "getInvariant",
			"outputs": [
				{
					"internalType": "uint256",
					"name": "",
					"type": "uint256"
				}
			],
			"stateMutability": "view",
			"type": "function"
		},
		{
			"inputs": [],
			"name": "getLastInvariant",
			"outputs": [
				{
					"internalType": "uint256",
					"name": "",
					"type": "uint256"
				}
			],
			"stateMutability": "view",
			"type": "function"
		},
		{
			"inputs": [],
			"name": "getNormalizedWeights",
			"outputs": [
				{
					"internalType": "uint256[]",
					"name": "",
					"type": "uint256[]"
				}
			],
			"stateMutability": "view",
			"type": "function"
		},
		{
			"inputs": [],
			"name": "getOwner",
			"outputs": [
				{
					"internalType": "address",
					"name": "",
					"type": "address"
				}
			],
			"stateMutability": "view",
			"type": "function"
		},
		{
			"inputs": [],
			"name": "getPausedState",
			"outputs": [
				{
					"internalType": "bool",
					"name": "paused",
					"type": "bool"
				},
				{
					"internalType": "uint256",
					"name": "pauseWindowEndTime",
					"type": "uint256"
				},
				{
					"internalType": "uint256",
					"name": "bufferPeriodEndTime",
					"type": "uint256"
				}
			],
			"stateMutability": "view",
			"type": "function"
		},
		{
			"inputs": [],
			"name": "getPoolId",
			"outputs": [
				{
					"internalType": "bytes32",
					"name": "",
					"type": "bytes32"
				}
			],
			"stateMutability": "view",
			"type": "function"
		},
		{
			"inputs": [],
			"name": "getRate",
			"outputs": [
				{
					"internalType": "uint256",
					"name": "",
					"type": "uint256"
				}
			],
			"stateMutability": "view",
			"type": "function"
		},
		{
			"inputs": [],
			"name": "getSwapFeePercentage",
			"outputs": [
				{
					"internalType": "uint256",
					"name": "",
					"type": "uint256"
				}
			],
			"stateMutability": "view",
			"type": "function"
		},
		{
			"inputs": [],
			"name": "getVault",
			"outputs": [
				{
					"internalType": "contract IVault",
					"name": "",
					"type": "address"
				}
			],
			"stateMutability": "view",
			"type": "function"
		},
		{
			"inputs": [
				{
					"internalType": "address",
					"name": "spender",
					"type": "address"
				},
				{
					"internalType": "uint256",
					"name": "amount",
					"type": "uint256"
				}
			],
			"name": "increaseApproval",
			"outputs": [
				{
					"internalType": "bool",
					"name": "",
					"type": "bool"
				}
			],
			"stateMutability": "nonpayable",
			"type": "function"
		},
		{
			"inputs": [],
			"name": "name",
			"outputs": [
				{
					"internalType": "string",
					"name": "",
					"type": "string"
				}
			],
			"stateMutability": "view",
			"type": "function"
		},
		{
			"inputs": [
				{
					"internalType": "address",
					"name": "owner",
					"type": "address"
				}
			],
			"name": "nonces",
			"outputs": [
				{
					"internalType": "uint256",
					"name": "",
					"type": "uint256"
				}
			],
			"stateMutability": "view",
			"type": "function"
		},
		{
			"inputs": [
				{
					"internalType": "bytes32",
					"name": "poolId",
					"type": "bytes32"
				},
				{
					"internalType": "address",
					"name": "sender",
					"type": "address"
				},
				{
					"internalType": "address",
					"name": "recipient",
					"type": "address"
				},
				{
					"internalType": "uint256[]",
					"name": "balances",
					"type": "uint256[]"
				},
				{
					"internalType": "uint256",
					"name": "lastChangeBlock",
					"type": "uint256"
				},
				{
					"internalType": "uint256",
					"name": "protocolSwapFeePercentage",
					"type": "uint256"
				},
				{
					"internalType": "bytes",
					"name": "userData",
					"type": "bytes"
				}
			],
			"name": "onExitPool",
			"outputs": [
				{
					"internalType": "uint256[]",
					"name": "",
					"type": "uint256[]"
				},
				{
					"internalType": "uint256[]",
					"name": "",
					"type": "uint256[]"
				}
			],
			"stateMutability": "nonpayable",
			"type": "function"
		},
		{
			"inputs": [
				{
					"internalType": "bytes32",
					"name": "poolId",
					"type": "bytes32"
				},
				{
					"internalType": "address",
					"name": "sender",
					"type": "address"
				},
				{
					"internalType": "address",
					"name": "recipient",
					"type": "address"
				},
				{
					"internalType": "uint256[]",
					"name": "balances",
					"type": "uint256[]"
				},
				{
					"internalType": "uint256",
					"name": "lastChangeBlock",
					"type": "uint256"
				},
				{
					"internalType": "uint256",
					"name": "protocolSwapFeePercentage",
					"type": "uint256"
				},
				{
					"internalType": "bytes",
					"name": "userData",
					"type": "bytes"
				}
			],
			"name": "onJoinPool",
			"outputs": [
				{
					"internalType": "uint256[]",
					"name": "",
					"type": "uint256[]"
				},
				{
					"internalType": "uint256[]",
					"name": "",
					"type": "uint256[]"
				}
			],
			"stateMutability": "nonpayable",
			"type": "function"
		},
		{
			"inputs": [
				{
					"components": [
						{
							"internalType": "enum IVault.SwapKind",
							"name": "kind",
							"type": "uint8"
						},
						{
							"internalType": "contract IERC20",
							"name": "tokenIn",
							"type": "address"
						},
						{
							"internalType": "contract IERC20",
							"name": "tokenOut",
							"type": "address"
						},
						{
							"internalType": "uint256",
							"name": "amount",
							"type": "uint256"
						},
						{
							"internalType": "bytes32",
							"name": "poolId",
							"type": "bytes32"
						},
						{
							"internalType": "uint256",
							"name": "lastChangeBlock",
							"type": "uint256"
						},
						{
							"internalType": "address",
							"name": "from",
							"type": "address"
						},
						{
							"internalType": "address",
							"name": "to",
							"type": "address"
						},
						{
							"internalType": "bytes",
							"name": "userData",
							"type": "bytes"
						}
					],
					"internalType": "struct IPoolSwapStructs.SwapRequest",
					"name": "request",
					"type": "tuple"
				},
				{
					"internalType": "uint256",
					"name": "balanceTokenIn",
					"type": "uint256"
				},
				{
					"internalType": "uint256",
					"name": "balanceTokenOut",
					"type": "uint256"
				}
			],
			"name": "onSwap",
			"outputs": [
				{
					"internalType": "uint256",
					"name": "",
					"type": "uint256"
				}
			],
			"stateMutability": "view",
			"type": "function"
		},
		{
			"inputs": [
				{
					"internalType": "address",
					"name": "owner",
					"type": "address"
				},
				{
					"internalType": "address",
					"name": "spender",
					"type": "address"
				},
				{
					"internalType": "uint256",
					"name": "value",
					"type": "uint256"
				},
				{
					"internalType": "uint256",
					"name": "deadline",
					"type": "uint256"
				},
				{
					"internalType": "uint8",
					"name": "v",
					"type": "uint8"
				},
				{
					"internalType": "bytes32",
					"name": "r",
					"type": "bytes32"
				},
				{
					"internalType": "bytes32",
					"name": "s",
					"type": "bytes32"
				}
			],
			"name": "permit",
			"outputs": [],
			"stateMutability": "nonpayable",
			"type": "function"
		},
		{
			"inputs": [
				{
					"internalType": "bytes32",
					"name": "poolId",
					"type": "bytes32"
				},
				{
					"internalType": "address",
					"name": "sender",
					"type": "address"
				},
				{
					"internalType": "address",
					"name": "recipient",
					"type": "address"
				},
				{
					"internalType": "uint256[]",
					"name": "balances",
					"type": "uint256[]"
				},
				{
					"internalType": "uint256",
					"name": "lastChangeBlock",
					"type": "uint256"
				},
				{
					"internalType": "uint256",
					"name": "protocolSwapFeePercentage",
					"type": "uint256"
				},
				{
					"internalType": "bytes",
					"name": "userData",
					"type": "bytes"
				}
			],
			"name": "queryExit",
			"outputs": [
				{
					"internalType": "uint256",
					"name": "bptIn",
					"type": "uint256"
				},
				{
					"internalType": "uint256[]",
					"name": "amountsOut",
					"type": "uint256[]"
				}
			],
			"stateMutability": "nonpayable",
			"type": "function"
		},
		{
			"inputs": [
				{
					"internalType": "bytes32",
					"name": "poolId",
					"type": "bytes32"
				},
				{
					"internalType": "address",
					"name": "sender",
					"type": "address"
				},
				{
					"internalType": "address",
					"name": "recipient",
					"type": "address"
				},
				{
					"internalType": "uint256[]",
					"name": "balances",
					"type": "uint256[]"
				},
				{
					"internalType": "uint256",
					"name": "lastChangeBlock",
					"type": "uint256"
				},
				{
					"internalType": "uint256",
					"name": "protocolSwapFeePercentage",
					"type": "uint256"
				},
				{
					"internalType": "bytes",
					"name": "userData",
					"type": "bytes"
				}
			],
			"name": "queryJoin",
			"outputs": [
				{
					"internalType": "uint256",
					"name": "bptOut",
					"type": "uint256"
				},
				{
					"internalType": "uint256[]",
					"name": "amountsIn",
					"type": "uint256[]"
				}
			],
			"stateMutability": "nonpayable",
			"type": "function"
		},
		{
			"inputs": [
				{
					"internalType": "bool",
					"name": "paused",
					"type": "bool"
				}
			],
			"name": "setPaused",
			"outputs": [],
			"stateMutability": "nonpayable",
			"type": "function"
		},
		{
			"inputs": [
				{
					"internalType": "uint256",
					"name": "swapFeePercentage",
					"type": "uint256"
				}
			],
			"name": "setSwapFeePercentage",
			"outputs": [],
			"stateMutability": "nonpayable",
			"type": "function"
		},
		{
			"inputs": [],
			"name": "symbol",
			"outputs": [
				{
					"internalType": "string",
					"name": "",
					"type": "string"
				}
			],
			"stateMutability": "view",
			"type": "function"
		},
		{
			"inputs": [],
			"name": "totalSupply",
			"outputs": [
				{
					"internalType": "uint256",
					"name": "",
					"type": "uint256"
				}
			],
			"stateMutability": "view",
			"type": "function"
		},
		{
			"inputs": [
				{
					"internalType": "address",
					"name": "recipient",
					"type": "address"
				},
				{
					"internalType": "uint256",
					"name": "amount",
					"type": "uint256"
				}
			],
			"name": "transfer",
			"outputs": [
				{
					"internalType": "bool",
					"name": "",
					"type": "bool"
				}
			],
			"stateMutability": "nonpayable",
			"type": "function"
		},
		{
			"inputs": [
				{
					"internalType": "address",
					"name": "sender",
					"type": "address"
				},
				{
					"internalType": "address",
					"name": "recipient",
					"type": "address"
				},
				{
					"internalType": "uint256",
					"name": "amount",
					"type": "uint256"
				}
			],
			"name": "transferFrom",
			"outputs": [
				{
					"internalType": "bool",
					"name": "",
					"type": "bool"
				}
			],
			"stateMutability": "nonpayable",
			"type": "function"
		}
	]
}