{
	"data": {
		"bytecode": {
			"linkReferences": {},
			"object": "6102a06040527f6e71edae12b1b97f4d1f60370fef10105fa2faae0126114a169c64845d6126c9610120523480156200003757600080fd5b50604051620056f3380380620056f38339810160408190526200005a916200080c565b61010081810151610120830151602080850151604080870151815180830190925260018252603160f81b8285019081526101608901513360805260601b6001600160601b03191660a052835194840194852060c052915190912060e0527f8b73c3c69bb8fe3d512ecc4cf759cc79239f7b179b0ffacaa9a75d522b39400f909552805193949293909291620000f391600391906200069f565b508051620001099060049060208401906200069f565b50620001219150506276a7008311156101946200040a565b6200013562278d008211156101956200040a565b4290910161014081815291016101605281015162000153906200041f565b60e081015162000163906200047b565b80516040516309b2760f60e01b81526000916001600160a01b0316906309b2760f90620001969060029060040162000a12565b602060405180830381600087803b158015620001b157600080fd5b505af1158015620001c6573d6000803e3d6000fd5b505050506040513d601f19601f82011682018060405250810190620001ec9190620007f3565b6040805160028082526060808301845293945090916020830190803683370190505090508260600151816000815181106200022357fe5b60200260200101906001600160a01b031690816001600160a01b0316815250508260800151816001815181106200025657fe5b6001600160a01b0392831660209182029290920101528351166366a9c7d283836002604051908082528060200260200182016040528015620002a2578160200160208202803683370190505b506040518463ffffffff1660e01b8152600401620002c39392919062000976565b600060405180830381600087803b158015620002de57600080fd5b505af1158015620002f3573d6000803e3d6000fd5b505084516001600160601b0319606091821b8116610180526101a08690528187018051831b82166101c052608088015190921b166101e052516200033a92509050620004f9565b6102605260808301516200034e90620004f9565b6102805260a08301516200036f90662386f26fc10000111561012e6200040a565b62000391662386f26fc100008460c00151101561012e6200040a60201b60201c565b6000620003b58460c001518560a001516200059b60201b620011c61790919060201c565b9050620003cf670de0b6b3a764000082146101346200040a565b60a0840180516102005260c085018051610220525190511015620003f5576001620003f8565b60005b60ff16610240525062000a6392505050565b816200041b576200041b81620005b8565b5050565b6200043b816008546200060b60201b620011d81790919060201c565b6008556040517f3e350b41e86a8e10f804ade6d35340d620be35569cc75ac943e8bb14ab80ead190620004709083906200096b565b60405180910390a150565b6200049064e8d4a5100082101560cb6200040a565b620004a867016345785d8a000082111560ca6200040a565b620004c4816008546200062a60201b620011e61790919060201c565b6008556040517fa9ba3ffe0b6c366b81232caab38605a0699ad5398d6cce76f91ee809e322dafc906200047090839062000a27565b600080826001600160a01b031663313ce5676040518163ffffffff1660e01b815260040160206040518083038186803b1580156200053657600080fd5b505afa1580156200054b573d6000803e3d6000fd5b505050506040513d601f19601f8201168201806040525081019062000571919062000948565b60ff1690506000620005906012836200064960201b620011f41760201c565b600a0a949350505050565b6000828201620005af84821015836200040a565b90505b92915050565b62461bcd60e51b6000908152602060045260076024526642414c23000030600a808404818106603090810160081b95839006959095019082900491820690940160101b939093010160c81b604452606490fd5b6000620005af826055856200066160201b6200120a179092919060201c565b6000620005af826056856200068a60201b62001231179092919060201c565b60006200065b8383111560016200040a565b50900390565b60006001821b1984168284620006795760006200067c565b60015b60ff16901b17949350505050565b6001600160401b03811b1992909216911b1790565b828054600181600116156101000203166002900490600052602060002090601f016020900481019282601f10620006e257805160ff191683800117855562000712565b8280016001018555821562000712579182015b8281111562000712578251825591602001919060010190620006f5565b506200072092915062000724565b5090565b5b8082111562000720576000815560010162000725565b80516001600160a01b0381168114620005b257600080fd5b80518015158114620005b257600080fd5b600082601f83011262000775578081fd5b81516001600160401b038111156200078b578182fd5b6020620007a1601f8301601f1916820162000a30565b92508183528481838601011115620007b857600080fd5b60005b82811015620007d8578481018201518482018301528101620007bb565b82811115620007ea5760008284860101525b50505092915050565b60006020828403121562000805578081fd5b5051919050565b6000602082840312156200081e578081fd5b81516001600160401b038082111562000835578283fd5b81840191506101808083870312156200084c578384fd5b620008578162000a30565b90506200086586846200073b565b815260208301518281111562000879578485fd5b620008878782860162000764565b6020830152506040830151828111156200089f578485fd5b620008ad8782860162000764565b604083015250620008c286606085016200073b565b6060820152620008d686608085016200073b565b608082015260a0838101519082015260c0808401519082015260e08084015190820152610100808401519082015261012080840151908201526101409150620009228683850162000753565b82820152610160915062000939868385016200073b565b91810191909152949350505050565b6000602082840312156200095a578081fd5b815160ff81168114620005af578182fd5b901515815260200190565b60006060820185835260206060818501528186518084526080860191508288019350845b81811015620009c257620009af855162000a57565b835293830193918301916001016200099a565b505084810360408601528551808252908201925081860190845b8181101562000a0457620009f1835162000a57565b85529383019391830191600101620009dc565b509298975050505050505050565b602081016003831062000a2157fe5b91905290565b90815260200190565b6040518181016001600160401b038111828210171562000a4f57600080fd5b604052919050565b6001600160a01b031690565b60805160a05160601c60c05160e051610100516101205161014051610160516101805160601c6101a0516101c05160601c6101e05160601c6102005161022051610240516102605161028051614bb862000b3b60003980611d12525080611d395250806129e25280612a165280612a52525080611d665280611e02525080611d8d5280611de05280611e3052505080610c6a525080610808525080610bb852508061139d525080611379525080610f205250806116a55250806116e75250806116c6525080610b94525080610b1f5250614bb86000f3fe608060405234801561001057600080fd5b50600436106102485760003560e01c806374f3b0091161013b578063aaabadc5116100b8578063d5c096c41161007c578063d5c096c4146104e1578063d73dd623146104f4578063dd62ed3e14610507578063f89f27ed1461051a578063ffd088eb1461052257610248565b8063aaabadc5146104a3578063b10be739146104ab578063b48b5b40146104be578063c0ff1a15146104c6578063d505accf146104ce57610248565b80638d928af8116100ff5780638d928af81461046557806395d89b411461046d5780639b02cdde146104755780639d2c110c1461047d578063a9059cbb1461049057610248565b806374f3b009146103f65780637ecebe0014610417578063851c1bb31461042a57806387ec68171461043d578063893d20e81461045057610248565b806338e9922e116101c957806360d1507c1161018d57806360d1507c1461038257806366188463146103a8578063679aefce146103bb5780636b843239146103c357806370a08231146103e357610248565b806338e9922e1461032457806338fff2d0146103375780634a6b0b151461033f57806355c67628146103595780636028bfd41461036157610248565b80631dccd830116102105780631dccd830146102cc57806323b872dd146102ec578063292c914a146102ff578063313ce567146103075780633644e5151461031c57610248565b806306fdde031461024d578063095ea7b31461026b57806316c38b3c1461028b57806318160ddd146102a05780631c0de051146102b5575b600080fd5b61025561052a565b6040516102629190614a93565b60405180910390f35b61027e61027936600461423b565b6105c0565b6040516102629190614970565b61029e6102993660046144a9565b6105d7565b005b6102a86105eb565b6040516102629190614993565b6102bd6105f1565b6040516102629392919061497b565b6102df6102da3660046143ef565b61061a565b6040516102629190614938565b61027e6102fa366004614186565b610722565b61029e6107a5565b61030f6107d9565b6040516102629190614aff565b6102a86107de565b61029e61033236600461484b565b6107ed565b6102a8610806565b61034761082a565b60405161026296959493929190614a69565b6102a8610885565b61037461036f3660046144e1565b610892565b604051610262929190614ae6565b61039561039036600461484b565b6108c3565b6040516102629796959493929190614a39565b61027e6103b636600461423b565b61090c565b6102a8610966565b6103d66103d1366004614331565b61098b565b60405161026291906148f4565b6102a86103f1366004614132565b610a3c565b6104096104043660046144e1565b610a5b565b60405161026292919061494b565b6102a8610425366004614132565b610b00565b6102a86104383660046145dd565b610b1b565b61037461044b3660046144e1565b610b6d565b610458610b92565b60405161026291906148e0565b610458610bb6565b610255610bda565b6102a8610c3b565b6102a861048b366004614750565b610c41565b61027e61049e36600461423b565b610df0565b610458610dfd565b6102a86104b9366004614734565b610e07565b6102a8610e29565b6102a8610e2f565b61029e6104dc3660046141c6565b610eeb565b6104096104ef3660046144e1565b611034565b61027e61050236600461423b565b611154565b6102a861051536600461414e565b61118a565b6102df6111b5565b6102a86111bf565b60038054604080516020601f60026000196101006001881615020190951694909404938401819004810282018101909252828152606093909290918301828280156105b65780601f1061058b576101008083540402835291602001916105b6565b820191906000526020600020905b81548152906001019060200180831161059957829003601f168201915b5050505050905090565b60006105cd338484611246565b5060015b92915050565b6105df6112ae565b6105e8816112dc565b50565b60025490565b60008060006105fe61135a565b159250610609611377565b915061061361139b565b9050909192565b606081516001600160401b038111801561063357600080fd5b5060405190808252806020026020018201604052801561065d578160200160208202803683370190505b509050600061066d6008546113bf565b9050610677613ffe565b60005b845181101561071a5784818151811061068f57fe5b602002602001015191506106ad82602001516000141561013c6113cc565b60006106c883600001518585602001518660400151016113de565b905060006106df84600001518686604001516113de565b90506106f98460200151838303816106f357fe5b05611524565b86848151811061070557fe5b6020908102919091010152505060010161067a565b505050919050565b6001600160a01b038316600081815260016020908152604080832033808552925282205491926107609114806107585750838210155b6101976113cc565b61076b858585611537565b336001600160a01b0386161480159061078657506000198114155b15610798576107988533858403611246565b60019150505b9392505050565b6107ad611606565b6107b56112ae565b6107bf6001611619565b60006107c96105eb565b11156107d7576107d7611659565b565b601290565b60006107e86116a1565b905090565b6107f56112ae565b6107fd611606565b6105e88161173e565b7f000000000000000000000000000000000000000000000000000000000000000090565b60008060008060008060006008549050610843816117a7565b965061084e816117b3565b9550610859816117c0565b9450610864816113bf565b935061086f816117cd565b925061087a816117da565b915050909192939495565b60006107e86008546117da565b600060606108a2865160026117e7565b6108b7898989898989896117f46118ae61192c565b97509795505050505050565b60008060008060008060006108de610400891061013b6113cc565b60006108e989611a4b565b90506108f481611a5d565b959f949e50929c50909a509850965090945092505050565b3360009081526001602090815260408083206001600160a01b03861684529091528120548083106109485761094333856000611246565b61095c565b61095c338561095784876111f4565b611246565b5060019392505050565b60006107e86109736105eb565b61098561097e610e2f565b6002611ac0565b90611ae4565b606081516001600160401b03811180156109a457600080fd5b506040519080825280602002602001820160405280156109ce578160200160208202803683370190505b50905060006109de6008546113bf565b90506109e8614020565b60005b845181101561071a57848181518110610a0057fe5b60200260200101519150610a1d82600001518484602001516113de565b848281518110610a2957fe5b60209081029190910101526001016109eb565b6001600160a01b0381166000908152602081905260409020545b919050565b60608088610a85610a6a610bb6565b6001600160a01b0316336001600160a01b03161460cd6113cc565b610a9a610a90610806565b82146101f46113cc565b610aa387611b35565b6000606080610ab78d8d8d8d8d8d8d6117f4565b925092509250610ac78c84611b97565b610ad0826118ae565b610ad9816118ae565b610ae161135a565b15610aee57610aee611659565b909c909b509950505050505050505050565b6001600160a01b031660009081526005602052604090205490565b60007f000000000000000000000000000000000000000000000000000000000000000082604051602001610b5092919061489d565b604051602081830303815290604052805190602001209050919050565b60006060610b7d865160026117e7565b6108b789898989898989611c2a611cab61192c565b7f000000000000000000000000000000000000000000000000000000000000000090565b7f000000000000000000000000000000000000000000000000000000000000000090565b60048054604080516020601f60026000196101006001881615020190951694909404938401819004810282018101909252828152606093909290918301828280156105b65780601f1061058b576101008083540402835291602001916105b6565b60095490565b6000610c4b611606565b8360800151610c5b610a6a610bb6565b610c66610a90610806565b60007f00000000000000000000000000000000000000000000000000000000000000006001600160a01b031686602001516001600160a01b03161490506000610cae82611d09565b90506000610cbc8315611d09565b90506000610cc984611d5d565b90506000610cd78515611d5d565b9050610ce38985611db1565b9850610cef8884611db1565b9750610d188a60a0015186610d045789610d06565b8a5b87610d11578b610d13565b8a5b611dbd565b60008a516001811115610d2757fe5b1415610d95576000610d45610d3a610885565b60608d015190611ec3565b9050610d67610d61828d606001516111f490919063ffffffff16565b86611db1565b60608c01526000610d7b8c8c8c8787611f07565b9050610d878186611f26565b985050505050505050610de8565b610da38a6060015184611db1565b60608b01526000610db78b8b8b8686611f32565b9050610dc38186611f45565b9050610ddf610dd8610dd3610885565b611f51565b8290611f77565b97505050505050505b509392505050565b60006105cd338484611537565b60006107e8611fb9565b600080610e1e83610e196008546113bf565b612033565b905061079e81611524565b61040090565b60006060610e3b610bb6565b6001600160a01b031663f94d4668610e51610806565b6040518263ffffffff1660e01b8152600401610e6d9190614993565b60006040518083038186803b158015610e8557600080fd5b505afa158015610e99573d6000803e3d6000fd5b505050506040513d6000823e601f3d908101601f19168201604052610ec19190810190614266565b50915050610ece81611b35565b6060610ed861206a565b9050610ee481836120d8565b9250505090565b610ef98442111560d16113cc565b6001600160a01b0387166000908152600560209081526040808320549051909291610f50917f0000000000000000000000000000000000000000000000000000000000000000918c918c918c9188918d91016149bb565b6040516020818303038152906040528051906020012090506000610f738261214a565b9050600060018288888860405160008152602001604052604051610f9a9493929190614a1b565b6020604051602081039080840390855afa158015610fbc573d6000803e3d6000fd5b5050604051601f1901519150610ffe90506001600160a01b03821615801590610ff657508b6001600160a01b0316826001600160a01b0316145b6101f86113cc565b6001600160a01b038b1660009081526005602052604090206001850190556110278b8b8b611246565b5050505050505050505050565b60608088611043610a6a610bb6565b61104e610a90610806565b611056611606565b60006110606105eb565b6110d0576110708b8b8b88612166565b94509050611085620f424082101560cc6113cc565b6110936000620f42406121ef565b6110a289620f424083036121ef565b6110ab84611cab565b604080516002808252606082018352909160208301908036833701905050925061113e565b6110d988611b35565b61110c87896000815181106110ea57fe5b60200260200101518a6001815181106110ff57fe5b6020026020010151611dbd565b61111b8b8b8b8b8b8b8b611c2a565b9095509350905061112c89826121ef565b61113584611cab565b61113e836118ae565b611146611659565b505097509795505050505050565b3360008181526001602090815260408083206001600160a01b038716845290915281205490916105cd91859061095790866111c6565b6001600160a01b03918216600090815260016020908152604080832093909416825291909152205490565b60606107e861206a565b6201de2090565b600082820161079e84821015836113cc565b600061079e8383605561120a565b600061079e83836056611231565b60006112048383111560016113cc565b50900390565b60006001821b1984168284611220576000611223565b60015b60ff16901b17949350505050565b6001600160401b03811b1992909216911b1790565b6001600160a01b0380841660008181526001602090815260408083209487168084529490915290819020849055517f8c5be1e5ebec7d5bd14f71427d1e84f3dd0314c0f7b2291e5b200ac8c7c3b925906112a1908590614993565b60405180910390a3505050565b60006112c56000356001600160e01b031916610b1b565b90506105e86112d48233612285565b6101916113cc565b80156112fc576112f76112ed611377565b42106101936113cc565b611311565b61131161130761139b565b42106101a96113cc565b6006805460ff19168215151790556040517f9e3a5e37224532dea67b89face185703738a228a6e8a23dee546960180d3be649061134f908390614970565b60405180910390a150565b600061136461139b565b4211806107e857505060065460ff161590565b7f000000000000000000000000000000000000000000000000000000000000000090565b7f000000000000000000000000000000000000000000000000000000000000000090565b60006105d182604b612375565b816113da576113da8161237d565b5050565b60006113ef824210156101386113cc565b4282900360006113fe85611a4b565b9050600061140b826123d0565b905061141c600082116101396113cc565b8281116114485780830380611431848a6123dc565b0261143c848a612420565b0194505050505061079e565b600061145387612464565b9050600061146082611a4b565b9050600061146d826123d0565b905061147e600082116101396113cc565b61148d8682111561013a6113cc565b505060008061149c8684612471565b9150915060006114ab836123d0565b6114b4836123d0565b039050801561150c5760006114c9848d612420565b6114d3848e612420565b03905060006114e1856123d0565b8903905082818302816114f057fe5b056114fb868f612420565b01995050505050505050505061079e565b611516838c612420565b97505050505050505061079e565b60006105d1655af3107a40008302612524565b6001600160a01b03831660009081526020819052604090205461155f828210156101966113cc565b6115766001600160a01b03841615156101996113cc565b6001600160a01b038085166000908152602081905260408082208585039055918516815220546115a690836111c6565b6001600160a01b0380851660008181526020819052604090819020939093559151908616907fddf252ad1be2c89b69c2b068fc378daa952ba7f163c4a11628f55a4df523b3ef906115f8908690614993565b60405180910390a350505050565b6107d761161161135a565b6101926113cc565b60085461162690826111d8565b6008556040517f3e350b41e86a8e10f804ade6d35340d620be35569cc75ac943e8bb14ab80ead19061134f908390614970565b600854611665816117cd565b156105e85761167f611678600954612901565b8290612945565b905061169b61169461168f6105eb565b612901565b8290612952565b60085550565b60007f00000000000000000000000000000000000000000000000000000000000000007f00000000000000000000000000000000000000000000000000000000000000007f000000000000000000000000000000000000000000000000000000000000000061170e612960565b306040516020016117239594939291906149ef565b60405160208183030381529060405280519060200120905090565b61175164e8d4a5100082101560cb6113cc565b61176767016345785d8a000082111560ca6113cc565b60085461177490826111e6565b6008556040517fa9ba3ffe0b6c366b81232caab38605a0699ad5398d6cce76f91ee809e322dafc9061134f908390614993565b60006105d18282612964565b60006105d1826016612964565b60006105d182602c61298b565b60006105d1826055612995565b60006105d182605661299f565b6113da81831460676113cc565b6000606080606061180361206a565b905061180d61135a565b156118555761182387896000815181106110ea57fe5b600061182f828a6120d8565b90506118408983600954848b6129ac565b925061184f89846111f4612a90565b50611876565b60408051600280825260608201835290916020830190803683370190505091505b611881888287612b22565b909450925061189388846111f4612a90565b61189d81896120d8565b600955509750975097945050505050565b6118d5816000815181106118be57fe5b60200260200101516118d06001611d09565b612b8f565b816000815181106118e257fe5b602002602001018181525050611910816001815181106118fe57fe5b60200260200101516118d06000611d09565b8160018151811061191d57fe5b60200260200101818152505050565b3330146119ea576000306001600160a01b03166000366040516119509291906148b5565b6000604051808303816000865af19150503d806000811461198d576040519150601f19603f3d011682016040523d82523d6000602084013e611992565b606091505b5050905080600081146119a157fe5b60046000803e6000516001600160e01b0319166343adbafb60e01b81146119cc573d6000803e3d6000fd5b506020600460003e604060205260243d03602460403e601c3d016000f35b6119f386611b35565b60006060611a0a8b8b8b8b8b8b8b8b63ffffffff16565b5091509150611a1c818463ffffffff16565b8051601f1982018390526343adbafb603f1983015260200260231982016044820181fd5b505050505050505050565b60009081526007602052604090205490565b6000806000806000806000611a7188612baf565b9650611a7c88612bbc565b9550611a8788612bc9565b9450611a9288612bd6565b9350611a9d88612be3565b9250611aa888612bf0565b9150611ab3886123d0565b9050919395979092949650565b600082820261079e841580611add575083858381611ada57fe5b04145b60036113cc565b6000611af382151560046113cc565b82611b00575060006105d1565b670de0b6b3a764000083810290611b2390858381611b1a57fe5b041460056113cc565b828181611b2c57fe5b049150506105d1565b611b5c81600081518110611b4557fe5b6020026020010151611b576001611d09565b611ac0565b81600081518110611b6957fe5b60200260200101818152505061191081600181518110611b8557fe5b6020026020010151611b576000611d09565b6001600160a01b038216600090815260208190526040902054611bbf828210156101966113cc565b6001600160a01b03831660009081526020819052604090208282039055600254611be990836111f4565b6002556040516000906001600160a01b038516907fddf252ad1be2c89b69c2b068fc378daa952ba7f163c4a11628f55a4df523b3ef906112a1908690614993565b60006060806060611c3961206a565b90506000611c47828a6120d8565b90506060611c5a8a84600954858c6129ac565b9050611c698a826111f4612a90565b60006060611c788c868b612bfd565b91509150611c898c826111c6612a90565b611c93858d6120d8565b600955909e909d50909b509950505050505050505050565b611cd281600081518110611cbb57fe5b6020026020010151611ccd6001611d09565b612c57565b81600081518110611cdf57fe5b60200260200101818152505061191081600181518110611cfb57fe5b6020026020010151611ccd60005b600081611d36577f00000000000000000000000000000000000000000000000000000000000000006105d1565b507f0000000000000000000000000000000000000000000000000000000000000000919050565b600081611d8a577f00000000000000000000000000000000000000000000000000000000000000006105d1565b507f0000000000000000000000000000000000000000000000000000000000000000919050565b600061079e8383611ac0565b600854611dc9816117cd565b8015611dd457508343115b15611ebd576000611e277f0000000000000000000000000000000000000000000000000000000000000000857f000000000000000000000000000000000000000000000000000000000000000086612c8a565b90506000611e5e7f000000000000000000000000000000000000000000000000000000000000000086611e59866117b3565b612cbf565b90506000611e6b846113bf565b90506000611e78856117c0565b90506000611e9182848787611e8c8b6117a7565b612cdb565b9050808314611a4057611ea48682612d32565b9550611eb08642612d40565b6008819055955050505050505b50505050565b6000828202611edd841580611add575083858381611ada57fe5b80611eec5760009150506105d1565b670de0b6b3a764000060001982015b046001019150506105d1565b6000611f1a858486858a60600151612d4e565b90505b95945050505050565b600061079e8383612b8f565b6000611f1a858486858a60600151612dc9565b600061079e8383612c57565b6000670de0b6b3a76400008210611f695760006105d1565b50670de0b6b3a76400000390565b6000611f8682151560046113cc565b82611f93575060006105d1565b670de0b6b3a764000083810290611fad90858381611b1a57fe5b826001820381611efb57fe5b6000611fc3610bb6565b6001600160a01b031663aaabadc56040518163ffffffff1660e01b815260040160206040518083038186803b158015611ffb57600080fd5b505afa15801561200f573d6000803e3d6000fd5b505050506040513d601f19601f820116820180604052508101906107e89190614605565b60008061203f83611a4b565b9050612058600061204f836123d0565b116101396113cc565b61206281856123dc565b949350505050565b6040805160028082526060808301845292839291906020830190803683370190505090506120986001611d5d565b816000815181106120a557fe5b6020026020010181815250506120bb6000611d5d565b816001815181106120c857fe5b6020908102919091010152905090565b670de0b6b3a764000060005b835181101561213a576121306121298583815181106120ff57fe5b602002602001015185848151811061211357fe5b6020026020010151612e3f90919063ffffffff16565b8390612e8e565b91506001016120e4565b506105d1600082116101376113cc565b60006121546116a1565b82604051602001610b509291906148c5565b60006060600061217584612eba565b9050612190600082600281111561218857fe5b1460ce6113cc565b606061219b85612ed0565b90506121a9815160026117e7565b6121b281611b35565b60606121bc61206a565b905060006121ca82846120d8565b905060006121d9826002611ac0565b6009929092555099919850909650505050505050565b6001600160a01b03821660009081526020819052604090205461221290826111c6565b6001600160a01b03831660009081526020819052604090205560025461223890826111c6565b6002556040516001600160a01b038316906000907fddf252ad1be2c89b69c2b068fc378daa952ba7f163c4a11628f55a4df523b3ef90612279908590614993565b60405180910390a35050565b600073ba1ba1ba1ba1ba1ba1ba1ba1ba1ba1ba1ba1ba1b6122a4610b92565b6001600160a01b0316141580156122bf57506122bf83612ee6565b156122e7576122cc610b92565b6001600160a01b0316336001600160a01b03161490506105d1565b6122ef611fb9565b6001600160a01b0316639be2a8848484306040518463ffffffff1660e01b815260040161231e9392919061499c565b60206040518083038186803b15801561233657600080fd5b505afa15801561234a573d6000803e3d6000fd5b505050506040513d601f19601f8201168201806040525081019061236e91906144c5565b90506105d1565b1c6103ff1690565b62461bcd60e51b6000908152602060045260076024526642414c23000030600a808404818106603090810160081b95839006959095019082900491820690940160101b939093010160c81b604452606490fd5b60006105d1828261298b565b6000808260028111156123eb57fe5b14156123fa5761236e83612baf565b600182600281111561240857fe5b14156124175761236e83612bc9565b61236e83612be3565b60008082600281111561242f57fe5b141561243e5761236e83612bbc565b600182600281111561244c57fe5b141561245b5761236e83612bd6565b61236e83612bf0565b60006105d1826001612f00565b600080806103ff8180805b8385116124e857600285850104612493818a612f00565b935061249e84611a4b565b92506124a9836123d0565b9150898210156124be578060010195506124e2565b898211156124d1576001810394506124e2565b82839750975050505050505061251d565b5061247c565b888110612506576125006124fb84612f11565b611a4b565b82612513565b816125136124fb85612464565b9650965050505050505b9250929050565b6000612553680238fd42c5cf03ffff19831215801561254c575068070c1cc73b00c800008313155b60096113cc565b60008212156125865761256882600003612524565b6a0c097ce7bc90715b34b9f160241b8161257e57fe5b059050610a56565b60006806f05b59d3b200000083126125c657506806f05b59d3b1ffffff1990910190770195e54c5dd42177f53a27172fa9ec6302628270000000006125fc565b6803782dace9d900000083126125f857506803782dace9d8ffffff19909101906b1425982cf597cd205cef73806125fc565b5060015b6064929092029168056bc75e2d6310000068ad78ebc5ac62000000841261264c5768ad78ebc5ac61ffffff199093019268056bc75e2d631000006e01855144814a7ff805980ff008400082020590505b6856bc75e2d6310000008412612688576856bc75e2d630ffffff199093019268056bc75e2d631000006b02df0ab5a80a22c61ab5a70082020590505b682b5e3af16b1880000084126126c257682b5e3af16b187fffff199093019268056bc75e2d63100000693f1fce3da636ea5cf85082020590505b6815af1d78b58c40000084126126fc576815af1d78b58c3fffff199093019268056bc75e2d63100000690127fa27722cc06cc5e282020590505b680ad78ebc5ac6200000841261273557680ad78ebc5ac61fffff199093019268056bc75e2d6310000068280e60114edb805d0382020590505b68056bc75e2d63100000841261276e5768056bc75e2d630fffff199093019268056bc75e2d63100000680ebc5fb4174612111082020590505b6802b5e3af16b188000084126127a7576802b5e3af16b187ffff199093019268056bc75e2d631000006808f00f760a4b2db55d82020590505b68015af1d78b58c4000084126127e05768015af1d78b58c3ffff199093019268056bc75e2d631000006806f5f177578893793782020590505b68056bc75e2d631000008481019085906002908280020505918201919050600368056bc75e2d631000008783020505918201919050600468056bc75e2d631000008783020505918201919050600568056bc75e2d631000008783020505918201919050600668056bc75e2d631000008783020505918201919050600768056bc75e2d631000008783020505918201919050600868056bc75e2d631000008783020505918201919050600968056bc75e2d631000008783020505918201919050600a68056bc75e2d631000008783020505918201919050600b68056bc75e2d631000008783020505918201919050600c68056bc75e2d631000008783020505918201919050606468056bc75e2d63100000848402058502059695505050505050565b60008061290d83612f1e565b9050655af3107a40006000821361292c57652d79883d20008203612936565b652d79883d200082015b8161293d57fe5b059392505050565b600061079e838383612f7a565b600061079e83836016612f7a565b4690565b600082821c623fffff16621fffff811361297e5780612062565b623fffff19179392505050565b1c637fffffff1690565b1c60019081161490565b1c6001600160401b031690565b604080516002808252606080830184529283929190602083019080368337019050509050826129dc579050611f1d565b612a4f877f000000000000000000000000000000000000000000000000000000000000000081518110612a0b57fe5b6020026020010151877f000000000000000000000000000000000000000000000000000000000000000081518110612a3f57fe5b6020026020010151878787612f91565b817f000000000000000000000000000000000000000000000000000000000000000081518110612a7b57fe5b60209081029190910101529695505050505050565b612ac683600081518110612aa057fe5b602002602001015183600081518110612ab557fe5b60200260200101518363ffffffff16565b83600081518110612ad357fe5b602002602001018181525050612b0483600181518110612aef57fe5b602002602001015183600181518110612ab557fe5b83600181518110612b1157fe5b602002602001018181525050505050565b600060606000612b3184612eba565b90506000816002811115612b4157fe5b1415612b5c57612b52868686613009565b9250925050612b87565b6001816002811115612b6a57fe5b1415612b7a57612b5286856130b9565b612b528686866130eb565b505b935093915050565b6000612b9e82151560046113cc565b818381612ba757fe5b049392505050565b60006105d18260ea612964565b60006105d18260b5613157565b60006105d182609f612964565b60006105d182606a613157565b60006105d1826054612964565b60006105d182601f613157565b600060606000612c0c84612eba565b90506001816002811115612c1c57fe5b1415612c2d57612b5286868661318a565b6002816002811115612c3b57fe5b1415612c4c57612b528686866131e0565b612b8561013661237d565b6000612c6682151560046113cc565b82612c73575060006105d1565b816001840381612c7f57fe5b0460010190506105d1565b600080612caa612c9a8486611f77565b612ca48789611f77565b90611f77565b9050612cb581612901565b9695505050505050565b600080612ccf61168f8587611f77565b92909203949350505050565b600080612cf785858542612cee8b611a4b565b93929190613263565b9050607842889003101580612d0c5786612d15565b612d1587612464565b600081815260076020526040902092909255509695505050505050565b600061079e8383604b6132b5565b600061079e8383602c6132c5565b6000612d70612d6587670429d069189e0000612e8e565b8311156101306113cc565b6000612d7c87846111c6565b90506000612d8a8883611f77565b90506000612d988887611ae4565b90506000612da683836132d7565b9050612dbb612db482611f51565b8990612e8e565b9a9950505050505050505050565b6000612deb612de085670429d069189e0000612e8e565b8311156101316113cc565b6000612e01612dfa86856111f4565b8690611f77565b90506000612e0f8588611f77565b90506000612e1d83836132d7565b90506000612e3382670de0b6b3a76400006111f4565b9050612dbb8a82611ec3565b600080612e4c8484613303565b90506000612e66612e5f83612710611ec3565b60016111c6565b905080821015612e7b576000925050506105d1565b612e8582826111f4565b925050506105d1565b6000828202612ea8841580611add575083858381611ada57fe5b670de0b6b3a764000090049392505050565b6000818060200190518101906105d19190614621565b60608180602001905181019061079e91906146e6565b6000612ef8631c74c91760e11b610b1b565b909114919050565b60006104008383015b069392505050565b60006105d1826001613404565b6000612f2e6000831360646113cc565b670c7d713b49da000082138015612f4c5750670f43fc2c04ee000082125b15612f6a57670de0b6b3a7640000612f6383613413565b8161257e57fe5b612f7382613531565b9050610a56565b623fffff828116821b90821b198416179392505050565b6000838311612fa257506000611f1d565b6000612fae8585611f77565b90506000612fc4670de0b6b3a764000088611ae4565b9050612fd8826709b6e64a8ec600006138d0565b91506000612fe683836132d7565b90506000612ffd612ff683611f51565b8b90612e8e565b9050612dbb8187612e8e565b60006060613015611606565b600080613021856138e7565b915091506130336002821060646113cc565b604080516002808252606080830184529260208301908036833701905050905061309488838151811061306257fe5b602002602001015188848151811061307657fe5b6020026020010151856130876105eb565b61308f610885565b613909565b8183815181106130a057fe5b6020908102919091010152919791965090945050505050565b6000606060006130c8846139c0565b905060606130de86836130d96105eb565b6139d6565b9196919550909350505050565b600060606130f7611606565b6060600061310485613a87565b91509150613114825160026117e7565b61311d82611b35565b600061313a88888561312d6105eb565b613135610885565b613a9f565b905061314a8282111560cf6113cc565b9791965090945050505050565b600082821c661fffffffffffff16660fffffffffffff81136131795780612062565b661fffffffffffff19179392505050565b6000606080600061319a85613a87565b915091506131aa825160026117e7565b6131b382611b35565b60006131d08888856131c36105eb565b6131cb610885565b613cca565b905061314a8282101560d06113cc565b600060606000806131f0856138e7565b915091506132026002821060646113cc565b604080516002808252606080830184529260208301908036833701905050905061309488838151811061323157fe5b602002602001015188848151811061324557fe5b6020026020010151856132566105eb565b61325e610885565b613eda565b60008061326f876123d0565b83039050600081870261328189612bbc565b01905060008287026132928a612bd6565b01905060008387026132a38b612bf0565b019050612dbb89848a858b868c613f7c565b6103ff811b1992909216911b1790565b637fffffff811b1992909216911b1790565b6000806132e48484613303565b905060006132f7612e5f83612710611ec3565b9050611f1d82826111c6565b6000816133195750670de0b6b3a76400006105d1565b82613326575060006105d1565b613337600160ff1b841060066113cc565b8261335d770bce5086492111aea88f4bb1ca6bcf584181ea8059f76532841060076113cc565b826000670c7d713b49da00008313801561337e5750670f43fc2c04ee000083125b156133b557600061338e84613413565b9050670de0b6b3a764000080820784020583670de0b6b3a7640000830502019150506133c3565b816133bf84613531565b0290505b670de0b6b3a764000090056133fb680238fd42c5cf03ffff1982128015906133f4575068070c1cc73b00c800008213155b60086113cc565b612cb581612524565b60006104008284038101612f09565b670de0b6b3a7640000026000806a0c097ce7bc90715b34b9f160241b808401906ec097ce7bc90715b34b9f0fffffffff198501028161344e57fe5b05905060006a0c097ce7bc90715b34b9f160241b82800205905081806a0c097ce7bc90715b34b9f160241b81840205915060038205016a0c097ce7bc90715b34b9f160241b82840205915060058205016a0c097ce7bc90715b34b9f160241b82840205915060078205016a0c097ce7bc90715b34b9f160241b82840205915060098205016a0c097ce7bc90715b34b9f160241b828402059150600b8205016a0c097ce7bc90715b34b9f160241b828402059150600d8205016a0c097ce7bc90715b34b9f160241b828402059150600f826002919005919091010295945050505050565b6000670de0b6b3a764000082121561356d57613563826a0c097ce7bc90715b34b9f160241b8161355d57fe5b05613531565b6000039050610a56565b60007e1600ef3172e58d2e933ec884fde10064c63b5372d805e203c000000000000083126135be57770195e54c5dd42177f53a27172fa9ec630262827000000000830592506806f05b59d3b2000000015b73011798004d755d3c8bc8e03204cf44619e00000083126135f6576b1425982cf597cd205cef7380830592506803782dace9d9000000015b606492830292026e01855144814a7ff805980ff0084000831261363e576e01855144814a7ff805980ff008400068056bc75e2d63100000840205925068ad78ebc5ac62000000015b6b02df0ab5a80a22c61ab5a7008312613679576b02df0ab5a80a22c61ab5a70068056bc75e2d6310000084020592506856bc75e2d631000000015b693f1fce3da636ea5cf85083126136b057693f1fce3da636ea5cf85068056bc75e2d631000008402059250682b5e3af16b18800000015b690127fa27722cc06cc5e283126136e757690127fa27722cc06cc5e268056bc75e2d6310000084020592506815af1d78b58c400000015b68280e60114edb805d03831261371c5768280e60114edb805d0368056bc75e2d631000008402059250680ad78ebc5ac6200000015b680ebc5fb41746121110831261374757680ebc5fb4174612111068056bc75e2d631000009384020592015b6808f00f760a4b2db55d831261377c576808f00f760a4b2db55d68056bc75e2d6310000084020592506802b5e3af16b1880000015b6806f5f177578893793783126137b1576806f5f177578893793768056bc75e2d63100000840205925068015af1d78b58c40000015b6806248f33704b28660383126137e5576806248f33704b28660368056bc75e2d63100000840205925067ad78ebc5ac620000015b6805c548670b9510e7ac8312613819576805c548670b9510e7ac68056bc75e2d6310000084020592506756bc75e2d6310000015b600068056bc75e2d63100000840168056bc75e2d63100000808603028161383c57fe5b059050600068056bc75e2d63100000828002059050818068056bc75e2d63100000818402059150600382050168056bc75e2d63100000828402059150600582050168056bc75e2d63100000828402059150600782050168056bc75e2d63100000828402059150600982050168056bc75e2d63100000828402059150600b820501600202606485820105979650505050505050565b6000818310156138e0578161079e565b5090919050565b600080828060200190518101906138fe91906146b0565b909590945092505050565b60008061391a84612ca481886111f4565b90506139336709b6e64a8ec600008210156101326113cc565b600061395161394a670de0b6b3a764000089611ae4565b83906132d7565b9050600061396861396183611f51565b8a90612e8e565b9050600061397589611f51565b905060006139838383611ec3565b9050600061399184836111f4565b90506139b06139a96139a28a611f51565b8490612e8e565b82906111c6565b9c9b505050505050505050505050565b60008180602001905181019061079e9190614683565b606060006139e48484611ae4565b9050606085516001600160401b03811180156139ff57600080fd5b50604051908082528060200260200182016040528015613a29578160200160208202803683370190505b50905060005b8651811015613a7d57613a5e83888381518110613a4857fe5b6020026020010151612e8e90919063ffffffff16565b828281518110613a6a57fe5b6020908102919091010152600101613a2f565b5095945050505050565b60606000828060200190518101906138fe919061463d565b6000606084516001600160401b0381118015613aba57600080fd5b50604051908082528060200260200182016040528015613ae4578160200160208202803683370190505b5090506000805b8851811015613ba957613b44898281518110613b0357fe5b6020026020010151612ca4898481518110613b1a57fe5b60200260200101518c8581518110613b2e57fe5b60200260200101516111f490919063ffffffff16565b838281518110613b5057fe5b602002602001018181525050613b9f613b98898381518110613b6e57fe5b6020026020010151858481518110613b8257fe5b6020026020010151611ec390919063ffffffff16565b83906111c6565b9150600101613aeb565b50670de0b6b3a764000060005b8951811015613ca9576000848281518110613bcd57fe5b6020026020010151841115613c2b576000613bf6613bea86611f51565b8d8581518110613a4857fe5b90506000613c0a828c8681518110613b2e57fe5b9050613c22613b98613c1b8b611f51565b8390611f77565b92505050613c42565b888281518110613c3757fe5b602002602001015190505b6000613c6b8c8481518110613c5357fe5b6020026020010151610985848f8781518110613b2e57fe5b9050613c9d613c968c8581518110613c7f57fe5b602002602001015183612e3f90919063ffffffff16565b8590612e8e565b93505050600101613bb6565b50613cbd613cb682611f51565b8790611ec3565b9998505050505050505050565b6000606084516001600160401b0381118015613ce557600080fd5b50604051908082528060200260200182016040528015613d0f578160200160208202803683370190505b5090506000805b8851811015613db757613d6f898281518110613d2e57fe5b6020026020010151610985898481518110613d4557fe5b60200260200101518c8581518110613d5957fe5b60200260200101516111c690919063ffffffff16565b838281518110613d7b57fe5b602002602001018181525050613dad613b98898381518110613d9957fe5b6020026020010151858481518110613a4857fe5b9150600101613d16565b50670de0b6b3a764000060005b8951811015613e9857600083858381518110613ddc57fe5b60200260200101511115613e38576000613e01613bea86670de0b6b3a76400006111f4565b90506000613e15828c8681518110613b2e57fe5b9050613e2f613b98612129670de0b6b3a76400008c6111f4565b92505050613e4f565b888281518110613e4457fe5b602002602001015190505b6000613e788c8481518110613e6057fe5b6020026020010151610985848f8781518110613d5957fe5b9050613e8c613c968c8581518110613c7f57fe5b93505050600101613dc4565b50670de0b6b3a76400008110613ece57613ec4613ebd82670de0b6b3a76400006111f4565b8790612e8e565b9350505050611f1d565b60009350505050611f1d565b600080613eeb84612ca481886111c6565b9050613f046729a2241af62c00008211156101336113cc565b6000613f1b61394a670de0b6b3a764000089611f77565b90506000613f3b613f3483670de0b6b3a76400006111f4565b8a90611ec3565b90506000613f4889611f51565b90506000613f568383611ec3565b90506000613f6484836111f4565b90506139b06139a9613f758a611f51565b8490611f77565b6000613f888282613fdc565b613f9384601f613fe0565b613f9e866054613ff1565b613fa988606a613fe0565b613fb48a609f613ff1565b613fbf8c60b5613fe0565b613fca8e60ea613ff1565b17171717171798975050505050505050565b1b90565b661fffffffffffff91909116901b90565b623fffff91909116901b90565b6040805160608101909152806000815260200160008152602001600081525090565b604080518082019091526000808252602082015290565b80356105d181614b52565b600082601f830112614052578081fd5b815161406561406082614b33565b614b0d565b81815291506020808301908481018184028601820187101561408657600080fd5b60005b848110156140a557815184529282019290820190600101614089565b505050505092915050565b600082601f8301126140c0578081fd5b81356001600160401b038111156140d5578182fd5b6140e8601f8201601f1916602001614b0d565b91508082528360208285010111156140ff57600080fd5b8060208401602084013760009082016020015292915050565b8035600281106105d157600080fd5b80356105d181614b75565b600060208284031215614143578081fd5b813561079e81614b52565b60008060408385031215614160578081fd5b823561416b81614b52565b9150602083013561417b81614b52565b809150509250929050565b60008060006060848603121561419a578081fd5b83356141a581614b52565b925060208401356141b581614b52565b929592945050506040919091013590565b600080600080600080600060e0888a0312156141e0578485fd5b87356141eb81614b52565b965060208801356141fb81614b52565b95506040880135945060608801359350608088013560ff8116811461421e578384fd5b9699959850939692959460a0840135945060c09093013592915050565b6000806040838503121561424d578182fd5b823561425881614b52565b946020939093013593505050565b60008060006060848603121561427a578081fd5b83516001600160401b0380821115614290578283fd5b818601915086601f8301126142a3578283fd5b81516142b161406082614b33565b80828252602080830192508086018b8283870289010111156142d1578788fd5b8796505b848710156142fc5780516142e881614b52565b8452600196909601959281019281016142d5565b508901519097509350505080821115614313578283fd5b5061432086828701614042565b925050604084015190509250925092565b60006020808385031215614343578182fd5b82356001600160401b03811115614358578283fd5b8301601f81018513614368578283fd5b803561437661406082614b33565b818152838101908385016040808502860187018a1015614394578788fd5b8795505b848610156143e15780828b0312156143ae578788fd5b6143b781614b0d565b6143c18b84614127565b815282880135888201528452600195909501949286019290810190614398565b509098975050505050505050565b60006020808385031215614401578182fd5b82356001600160401b03811115614416578283fd5b8301601f81018513614426578283fd5b803561443461406082614b33565b818152838101908385016060808502860187018a1015614452578788fd5b8795505b848610156143e15780828b03121561446c578788fd5b61447581614b0d565b61447f8b84614127565b81528288013588820152604080840135908201528452600195909501949286019290810190614456565b6000602082840312156144ba578081fd5b813561079e81614b67565b6000602082840312156144d6578081fd5b815161079e81614b67565b600080600080600080600060e0888a0312156144fb578081fd5b8735965060208089013561450e81614b52565b9650604089013561451e81614b52565b955060608901356001600160401b0380821115614539578384fd5b818b0191508b601f83011261454c578384fd5b813561455a61406082614b33565b8082825285820191508585018f878886028801011115614578578788fd5b8795505b8386101561459a57803583526001959095019491860191860161457c565b509850505060808b0135955060a08b0135945060c08b01359250808311156145c0578384fd5b50506145ce8a828b016140b0565b91505092959891949750929550565b6000602082840312156145ee578081fd5b81356001600160e01b03198116811461079e578182fd5b600060208284031215614616578081fd5b815161079e81614b52565b600060208284031215614632578081fd5b815161079e81614b75565b600080600060608486031215614651578081fd5b835161465c81614b75565b60208501519093506001600160401b03811115614677578182fd5b61432086828701614042565b60008060408385031215614695578182fd5b82516146a081614b75565b6020939093015192949293505050565b6000806000606084860312156146c4578081fd5b83516146cf81614b75565b602085015160409095015190969495509392505050565b600080604083850312156146f8578182fd5b825161470381614b75565b60208401519092506001600160401b0381111561471e578182fd5b61472a85828601614042565b9150509250929050565b600060208284031215614745578081fd5b813561079e81614b75565b600080600060608486031215614764578081fd5b83356001600160401b038082111561477a578283fd5b8186019150610120808389031215614790578384fd5b61479981614b0d565b90506147a58884614118565b81526147b48860208501614037565b60208201526147c68860408501614037565b6040820152606083013560608201526080830135608082015260a083013560a08201526147f68860c08501614037565b60c08201526148088860e08501614037565b60e08201526101008084013583811115614820578586fd5b61482c8a8287016140b0565b9183019190915250976020870135975060409096013595945050505050565b60006020828403121561485c578081fd5b5035919050565b6000815180845260208085019450808401835b8381101561489257815187529582019590820190600101614876565b509495945050505050565b9182526001600160e01b031916602082015260240190565b6000828483379101908152919050565b61190160f01b81526002810192909252602282015260420190565b6001600160a01b0391909116815260200190565b6020808252825182820181905260009190848201906040850190845b8181101561492c57835183529284019291840191600101614910565b50909695505050505050565b60006020825261079e6020830184614863565b60006040825261495e6040830185614863565b8281036020840152611f1d8185614863565b901515815260200190565b92151583526020830191909152604082015260600190565b90815260200190565b9283526001600160a01b03918216602084015216604082015260600190565b9586526001600160a01b0394851660208701529290931660408501526060840152608083019190915260a082015260c00190565b9485526020850193909352604084019190915260608301526001600160a01b0316608082015260a00190565b93845260ff9290921660208401526040830152606082015260800190565b968752602087019590955260408601939093526060850191909152608084015260a083015260c082015260e00190565b9586526020860194909452604085019290925260608401521515608083015260a082015260c00190565b6000602080835283518082850152825b81811015614abf57858101830151858201604001528201614aa3565b81811115614ad05783604083870101525b50601f01601f1916929092016040019392505050565b6000838252604060208301526120626040830184614863565b60ff91909116815260200190565b6040518181016001600160401b0381118282101715614b2b57600080fd5b604052919050565b60006001600160401b03821115614b48578081fd5b5060209081020190565b6001600160a01b03811681146105e857600080fd5b80151581146105e857600080fd5b600381106105e857600080fdfea26469706673582212204daee1400aefd966355b280c1fef8abdc5ab4bc2d00cb9938eb5f4265c31390464736f6c63430007010033",
			"opcodes": "PUSH2 0x2A0 PUSH1 0x40 MSTORE PUSH32 0x6E71EDAE12B1B97F4D1F60370FEF10105FA2FAAE0126114A169C64845D6126C9 PUSH2 0x120 MSTORE CALLVALUE DUP1 ISZERO PUSH3 0x37 JUMPI PUSH1 0x0 DUP1 REVERT JUMPDEST POP PUSH1 0x40 MLOAD PUSH3 0x56F3 CODESIZE SUB DUP1 PUSH3 0x56F3 DUP4 CODECOPY DUP2 ADD PUSH1 0x40 DUP2 SWAP1 MSTORE PUSH3 0x5A SWAP2 PUSH3 0x80C JUMP JUMPDEST PUSH2 0x100 DUP2 DUP2 ADD MLOAD PUSH2 0x120 DUP4 ADD MLOAD PUSH1 0x20 DUP1 DUP6 ADD MLOAD PUSH1 0x40 DUP1 DUP8 ADD MLOAD DUP2 MLOAD DUP1 DUP4 ADD SWAP1 SWAP3 MSTORE PUSH1 0x1 DUP3 MSTORE PUSH1 0x31 PUSH1 0xF8 SHL DUP3 DUP6 ADD SWAP1 DUP2 MSTORE PUSH2 0x160 DUP10 ADD MLOAD CALLER PUSH1 0x80 MSTORE PUSH1 0x60 SHL PUSH1 0x1 PUSH1 0x1 PUSH1 0x60 SHL SUB NOT AND PUSH1 0xA0 MSTORE DUP4 MLOAD SWAP5 DUP5 ADD SWAP5 DUP6 KECCAK256 PUSH1 0xC0 MSTORE SWAP2 MLOAD SWAP1 SWAP2 KECCAK256 PUSH1 0xE0 MSTORE PUSH32 0x8B73C3C69BB8FE3D512ECC4CF759CC79239F7B179B0FFACAA9A75D522B39400F SWAP1 SWAP6 MSTORE DUP1 MLOAD SWAP4 SWAP5 SWAP3 SWAP4 SWAP1 SWAP3 SWAP2 PUSH3 0xF3 SWAP2 PUSH1 0x3 SWAP2 SWAP1 PUSH3 0x69F JUMP JUMPDEST POP DUP1 MLOAD PUSH3 0x109 SWAP1 PUSH1 0x4 SWAP1 PUSH1 0x20 DUP5 ADD SWAP1 PUSH3 0x69F JUMP JUMPDEST POP PUSH3 0x121 SWAP2 POP POP PUSH3 0x76A700 DUP4 GT ISZERO PUSH2 0x194 PUSH3 0x40A JUMP JUMPDEST PUSH3 0x135 PUSH3 0x278D00 DUP3 GT ISZERO PUSH2 0x195 PUSH3 0x40A JUMP JUMPDEST TIMESTAMP SWAP1 SWAP2 ADD PUSH2 0x140 DUP2 DUP2 MSTORE SWAP2 ADD PUSH2 0x160 MSTORE DUP2 ADD MLOAD PUSH3 0x153 SWAP1 PUSH3 0x41F JUMP JUMPDEST PUSH1 0xE0 DUP2 ADD MLOAD PUSH3 0x163 SWAP1 PUSH3 0x47B JUMP JUMPDEST DUP1 MLOAD PUSH1 0x40 MLOAD PUSH4 0x9B2760F PUSH1 0xE0 SHL DUP2 MSTORE PUSH1 0x0 SWAP2 PUSH1 0x1 PUSH1 0x1 PUSH1 0xA0 SHL SUB AND SWAP1 PUSH4 0x9B2760F SWAP1 PUSH3 0x196 SWAP1 PUSH1 0x2 SWAP1 PUSH1 0x4 ADD PUSH3 0xA12 JUMP JUMPDEST PUSH1 0x20 PUSH1 0x40 MLOAD DUP1 DUP4 SUB DUP2 PUSH1 0x0 DUP8 DUP1 EXTCODESIZE ISZERO DUP1 ISZERO PUSH3 0x1B1 JUMPI PUSH1 0x0 DUP1 REVERT JUMPDEST POP GAS CALL ISZERO DUP1 ISZERO PUSH3 0x1C6 JUMPI RETURNDATASIZE PUSH1 0x0 DUP1 RETURNDATACOPY RETURNDATASIZE PUSH1 0x0 REVERT JUMPDEST POP POP POP POP PUSH1 0x40 MLOAD RETURNDATASIZE PUSH1 0x1F NOT PUSH1 0x1F DUP3 ADD AND DUP3 ADD DUP1 PUSH1 0x40 MSTORE POP DUP2 ADD SWAP1 PUSH3 0x1EC SWAP2 SWAP1 PUSH3 0x7F3 JUMP JUMPDEST PUSH1 0x40 DUP1 MLOAD PUSH1 0x2 DUP1 DUP3 MSTORE PUSH1 0x60 DUP1 DUP4 ADD DUP5 MSTORE SWAP4 SWAP5 POP SWAP1 SWAP2 PUSH1 0x20 DUP4 ADD SWAP1 DUP1 CALLDATASIZE DUP4 CALLDATACOPY ADD SWAP1 POP POP SWAP1 POP DUP3 PUSH1 0x60 ADD MLOAD DUP2 PUSH1 0x0 DUP2 MLOAD DUP2 LT PUSH3 0x223 JUMPI INVALID JUMPDEST PUSH1 0x20 MUL PUSH1 0x20 ADD ADD SWAP1 PUSH1 0x1 PUSH1 0x1 PUSH1 0xA0 SHL SUB AND SWAP1 DUP2 PUSH1 0x1 PUSH1 0x1 PUSH1 0xA0 SHL SUB AND DUP2 MSTORE POP POP DUP3 PUSH1 0x80 ADD MLOAD DUP2 PUSH1 0x1 DUP2 MLOAD DUP2 LT PUSH3 0x256 JUMPI INVALID JUMPDEST PUSH1 0x1 PUSH1 0x1 PUSH1 0xA0 SHL SUB SWAP3 DUP4 AND PUSH1 0x20 SWAP2 DUP3 MUL SWAP3 SWAP1 SWAP3 ADD ADD MSTORE DUP4 MLOAD AND PUSH4 0x66A9C7D2 DUP4 DUP4 PUSH1 0x2 PUSH1 0x40 MLOAD SWAP1 DUP1 DUP3 MSTORE DUP1 PUSH1 0x20 MUL PUSH1 0x20 ADD DUP3 ADD PUSH1 0x40 MSTORE DUP1 ISZERO PUSH3 0x2A2 JUMPI DUP2 PUSH1 0x20 ADD PUSH1 0x20 DUP3 MUL DUP1 CALLDATASIZE DUP4 CALLDATACOPY ADD SWAP1 POP JUMPDEST POP PUSH1 0x40 MLOAD DUP5 PUSH4 0xFFFFFFFF AND PUSH1 0xE0 SHL DUP2 MSTORE PUSH1 0x4 ADD PUSH3 0x2C3 SWAP4 SWAP3 SWAP2 SWAP1 PUSH3 0x976 JUMP JUMPDEST PUSH1 0x0 PUSH1 0x40 MLOAD DUP1 DUP4 SUB DUP2 PUSH1 0x0 DUP8 DUP1 EXTCODESIZE ISZERO DUP1 ISZERO PUSH3 0x2DE JUMPI PUSH1 0x0 DUP1 REVERT JUMPDEST POP GAS CALL ISZERO DUP1 ISZERO PUSH3 0x2F3 JUMPI RETURNDATASIZE PUSH1 0x0 DUP1 RETURNDATACOPY RETURNDATASIZE PUSH1 0x0 REVERT JUMPDEST POP POP DUP5 MLOAD PUSH1 0x1 PUSH1 0x1 PUSH1 0x60 SHL SUB NOT PUSH1 0x60 SWAP2 DUP3 SHL DUP2 AND PUSH2 0x180 MSTORE PUSH2 0x1A0 DUP7 SWAP1 MSTORE DUP2 DUP8 ADD DUP1 MLOAD DUP4 SHL DUP3 AND PUSH2 0x1C0 MSTORE PUSH1 0x80 DUP9 ADD MLOAD SWAP1 SWAP3 SHL AND PUSH2 0x1E0 MSTORE MLOAD PUSH3 0x33A SWAP3 POP SWAP1 POP PUSH3 0x4F9 JUMP JUMPDEST PUSH2 0x260 MSTORE PUSH1 0x80 DUP4 ADD MLOAD PUSH3 0x34E SWAP1 PUSH3 0x4F9 JUMP JUMPDEST PUSH2 0x280 MSTORE PUSH1 0xA0 DUP4 ADD MLOAD PUSH3 0x36F SWAP1 PUSH7 0x2386F26FC10000 GT ISZERO PUSH2 0x12E PUSH3 0x40A JUMP JUMPDEST PUSH3 0x391 PUSH7 0x2386F26FC10000 DUP5 PUSH1 0xC0 ADD MLOAD LT ISZERO PUSH2 0x12E PUSH3 0x40A PUSH1 0x20 SHL PUSH1 0x20 SHR JUMP JUMPDEST PUSH1 0x0 PUSH3 0x3B5 DUP5 PUSH1 0xC0 ADD MLOAD DUP6 PUSH1 0xA0 ADD MLOAD PUSH3 0x59B PUSH1 0x20 SHL PUSH3 0x11C6 OR SWAP1 SWAP2 SWAP1 PUSH1 0x20 SHR JUMP JUMPDEST SWAP1 POP PUSH3 0x3CF PUSH8 0xDE0B6B3A7640000 DUP3 EQ PUSH2 0x134 PUSH3 0x40A JUMP JUMPDEST PUSH1 0xA0 DUP5 ADD DUP1 MLOAD PUSH2 0x200 MSTORE PUSH1 0xC0 DUP6 ADD DUP1 MLOAD PUSH2 0x220 MSTORE MLOAD SWAP1 MLOAD LT ISZERO PUSH3 0x3F5 JUMPI PUSH1 0x1 PUSH3 0x3F8 JUMP JUMPDEST PUSH1 0x0 JUMPDEST PUSH1 0xFF AND PUSH2 0x240 MSTORE POP PUSH3 0xA63 SWAP3 POP POP POP JUMP JUMPDEST DUP2 PUSH3 0x41B JUMPI PUSH3 0x41B DUP2 PUSH3 0x5B8 JUMP JUMPDEST POP POP JUMP JUMPDEST PUSH3 0x43B DUP2 PUSH1 0x8 SLOAD PUSH3 0x60B PUSH1 0x20 SHL PUSH3 0x11D8 OR SWAP1 SWAP2 SWAP1 PUSH1 0x20 SHR JUMP JUMPDEST PUSH1 0x8 SSTORE PUSH1 0x40 MLOAD PUSH32 0x3E350B41E86A8E10F804ADE6D35340D620BE35569CC75AC943E8BB14AB80EAD1 SWAP1 PUSH3 0x470 SWAP1 DUP4 SWAP1 PUSH3 0x96B JUMP JUMPDEST PUSH1 0x40 MLOAD DUP1 SWAP2 SUB SWAP1 LOG1 POP JUMP JUMPDEST PUSH3 0x490 PUSH5 0xE8D4A51000 DUP3 LT ISZERO PUSH1 0xCB PUSH3 0x40A JUMP JUMPDEST PUSH3 0x4A8 PUSH8 0x16345785D8A0000 DUP3 GT ISZERO PUSH1 0xCA PUSH3 0x40A JUMP JUMPDEST PUSH3 0x4C4 DUP2 PUSH1 0x8 SLOAD PUSH3 0x62A PUSH1 0x20 SHL PUSH3 0x11E6 OR SWAP1 SWAP2 SWAP1 PUSH1 0x20 SHR JUMP JUMPDEST PUSH1 0x8 SSTORE PUSH1 0x40 MLOAD PUSH32 0xA9BA3FFE0B6C366B81232CAAB38605A0699AD5398D6CCE76F91EE809E322DAFC SWAP1 PUSH3 0x470 SWAP1 DUP4 SWAP1 PUSH3 0xA27 JUMP JUMPDEST PUSH1 0x0 DUP1 DUP3 PUSH1 0x1 PUSH1 0x1 PUSH1 0xA0 SHL SUB AND PUSH4 0x313CE567 PUSH1 0x40 MLOAD DUP2 PUSH4 0xFFFFFFFF AND PUSH1 0xE0 SHL DUP2 MSTORE PUSH1 0x4 ADD PUSH1 0x20 PUSH1 0x40 MLOAD DUP1 DUP4 SUB DUP2 DUP7 DUP1 EXTCODESIZE ISZERO DUP1 ISZERO PUSH3 0x536 JUMPI PUSH1 0x0 DUP1 REVERT JUMPDEST POP GAS STATICCALL ISZERO DUP1 ISZERO PUSH3 0x54B JUMPI RETURNDATASIZE PUSH1 0x0 DUP1 RETURNDATACOPY RETURNDATASIZE PUSH1 0x0 REVERT JUMPDEST POP POP POP POP PUSH1 0x40 MLOAD RETURNDATASIZE PUSH1 0x1F NOT PUSH1 0x1F DUP3 ADD AND DUP3 ADD DUP1 PUSH1 0x40 MSTORE POP DUP2 ADD SWAP1 PUSH3 0x571 SWAP2 SWAP1 PUSH3 0x948 JUMP JUMPDEST PUSH1 0xFF AND SWAP1 POP PUSH1 0x0 PUSH3 0x590 PUSH1 0x12 DUP4 PUSH3 0x649 PUSH1 0x20 SHL PUSH3 0x11F4 OR PUSH1 0x20 SHR JUMP JUMPDEST PUSH1 0xA EXP SWAP5 SWAP4 POP POP POP POP JUMP JUMPDEST PUSH1 0x0 DUP3 DUP3 ADD PUSH3 0x5AF DUP5 DUP3 LT ISZERO DUP4 PUSH3 0x40A JUMP JUMPDEST SWAP1 POP JUMPDEST SWAP3 SWAP2 POP POP JUMP JUMPDEST PUSH3 0x461BCD PUSH1 0xE5 SHL PUSH1 0x0 SWAP1 DUP2 MSTORE PUSH1 0x20 PUSH1 0x4 MSTORE PUSH1 0x7 PUSH1 0x24 MSTORE PUSH7 0x42414C23000030 PUSH1 0xA DUP1 DUP5 DIV DUP2 DUP2 MOD PUSH1 0x30 SWAP1 DUP2 ADD PUSH1 0x8 SHL SWAP6 DUP4 SWAP1 MOD SWAP6 SWAP1 SWAP6 ADD SWAP1 DUP3 SWAP1 DIV SWAP2 DUP3 MOD SWAP1 SWAP5 ADD PUSH1 0x10 SHL SWAP4 SWAP1 SWAP4 ADD ADD PUSH1 0xC8 SHL PUSH1 0x44 MSTORE PUSH1 0x64 SWAP1 REVERT JUMPDEST PUSH1 0x0 PUSH3 0x5AF DUP3 PUSH1 0x55 DUP6 PUSH3 0x661 PUSH1 0x20 SHL PUSH3 0x120A OR SWAP1 SWAP3 SWAP2 SWAP1 PUSH1 0x20 SHR JUMP JUMPDEST PUSH1 0x0 PUSH3 0x5AF DUP3 PUSH1 0x56 DUP6 PUSH3 0x68A PUSH1 0x20 SHL PUSH3 0x1231 OR SWAP1 SWAP3 SWAP2 SWAP1 PUSH1 0x20 SHR JUMP JUMPDEST PUSH1 0x0 PUSH3 0x65B DUP4 DUP4 GT ISZERO PUSH1 0x1 PUSH3 0x40A JUMP JUMPDEST POP SWAP1 SUB SWAP1 JUMP JUMPDEST PUSH1 0x0 PUSH1 0x1 DUP3 SHL NOT DUP5 AND DUP3 DUP5 PUSH3 0x679 JUMPI PUSH1 0x0 PUSH3 0x67C JUMP JUMPDEST PUSH1 0x1 JUMPDEST PUSH1 0xFF AND SWAP1 SHL OR SWAP5 SWAP4 POP POP POP POP JUMP JUMPDEST PUSH1 0x1 PUSH1 0x1 PUSH1 0x40 SHL SUB DUP2 SHL NOT SWAP3 SWAP1 SWAP3 AND SWAP2 SHL OR SWAP1 JUMP JUMPDEST DUP3 DUP1 SLOAD PUSH1 0x1 DUP2 PUSH1 0x1 AND ISZERO PUSH2 0x100 MUL SUB AND PUSH1 0x2 SWAP1 DIV SWAP1 PUSH1 0x0 MSTORE PUSH1 0x20 PUSH1 0x0 KECCAK256 SWAP1 PUSH1 0x1F ADD PUSH1 0x20 SWAP1 DIV DUP2 ADD SWAP3 DUP3 PUSH1 0x1F LT PUSH3 0x6E2 JUMPI DUP1 MLOAD PUSH1 0xFF NOT AND DUP4 DUP1 ADD OR DUP6 SSTORE PUSH3 0x712 JUMP JUMPDEST DUP3 DUP1 ADD PUSH1 0x1 ADD DUP6 SSTORE DUP3 ISZERO PUSH3 0x712 JUMPI SWAP2 DUP3 ADD JUMPDEST DUP3 DUP2 GT ISZERO PUSH3 0x712 JUMPI DUP3 MLOAD DUP3 SSTORE SWAP2 PUSH1 0x20 ADD SWAP2 SWAP1 PUSH1 0x1 ADD SWAP1 PUSH3 0x6F5 JUMP JUMPDEST POP PUSH3 0x720 SWAP3 SWAP2 POP PUSH3 0x724 JUMP JUMPDEST POP SWAP1 JUMP JUMPDEST JUMPDEST DUP1 DUP3 GT ISZERO PUSH3 0x720 JUMPI PUSH1 0x0 DUP2 SSTORE PUSH1 0x1 ADD PUSH3 0x725 JUMP JUMPDEST DUP1 MLOAD PUSH1 0x1 PUSH1 0x1 PUSH1 0xA0 SHL SUB DUP2 AND DUP2 EQ PUSH3 0x5B2 JUMPI PUSH1 0x0 DUP1 REVERT JUMPDEST DUP1 MLOAD DUP1 ISZERO ISZERO DUP2 EQ PUSH3 0x5B2 JUMPI PUSH1 0x0 DUP1 REVERT JUMPDEST PUSH1 0x0 DUP3 PUSH1 0x1F DUP4 ADD SLT PUSH3 0x775 JUMPI DUP1 DUP2 REVERT JUMPDEST DUP2 MLOAD PUSH1 0x1 PUSH1 0x1 PUSH1 0x40 SHL SUB DUP2 GT ISZERO PUSH3 0x78B JUMPI DUP2 DUP3 REVERT JUMPDEST PUSH1 0x20 PUSH3 0x7A1 PUSH1 0x1F DUP4 ADD PUSH1 0x1F NOT AND DUP3 ADD PUSH3 0xA30 JUMP JUMPDEST SWAP3 POP DUP2 DUP4 MSTORE DUP5 DUP2 DUP4 DUP7 ADD ADD GT ISZERO PUSH3 0x7B8 JUMPI PUSH1 0x0 DUP1 REVERT JUMPDEST PUSH1 0x0 JUMPDEST DUP3 DUP2 LT ISZERO PUSH3 0x7D8 JUMPI DUP5 DUP2 ADD DUP3 ADD MLOAD DUP5 DUP3 ADD DUP4 ADD MSTORE DUP2 ADD PUSH3 0x7BB JUMP JUMPDEST DUP3 DUP2 GT ISZERO PUSH3 0x7EA JUMPI PUSH1 0x0 DUP3 DUP5 DUP7 ADD ADD MSTORE JUMPDEST POP POP POP SWAP3 SWAP2 POP POP JUMP JUMPDEST PUSH1 0x0 PUSH1 0x20 DUP3 DUP5 SUB SLT ISZERO PUSH3 0x805 JUMPI DUP1 DUP2 REVERT JUMPDEST POP MLOAD SWAP2 SWAP1 POP JUMP JUMPDEST PUSH1 0x0 PUSH1 0x20 DUP3 DUP5 SUB SLT ISZERO PUSH3 0x81E JUMPI DUP1 DUP2 REVERT JUMPDEST DUP2 MLOAD PUSH1 0x1 PUSH1 0x1 PUSH1 0x40 SHL SUB DUP1 DUP3 GT ISZERO PUSH3 0x835 JUMPI DUP3 DUP4 REVERT JUMPDEST DUP2 DUP5 ADD SWAP2 POP PUSH2 0x180 DUP1 DUP4 DUP8 SUB SLT ISZERO PUSH3 0x84C JUMPI DUP4 DUP5 REVERT JUMPDEST PUSH3 0x857 DUP2 PUSH3 0xA30 JUMP JUMPDEST SWAP1 POP PUSH3 0x865 DUP7 DUP5 PUSH3 0x73B JUMP JUMPDEST DUP2 MSTORE PUSH1 0x20 DUP4 ADD MLOAD DUP3 DUP2 GT ISZERO PUSH3 0x879 JUMPI DUP5 DUP6 REVERT JUMPDEST PUSH3 0x887 DUP8 DUP3 DUP7 ADD PUSH3 0x764 JUMP JUMPDEST PUSH1 0x20 DUP4 ADD MSTORE POP PUSH1 0x40 DUP4 ADD MLOAD DUP3 DUP2 GT ISZERO PUSH3 0x89F JUMPI DUP5 DUP6 REVERT JUMPDEST PUSH3 0x8AD DUP8 DUP3 DUP7 ADD PUSH3 0x764 JUMP JUMPDEST PUSH1 0x40 DUP4 ADD MSTORE POP PUSH3 0x8C2 DUP7 PUSH1 0x60 DUP6 ADD PUSH3 0x73B JUMP JUMPDEST PUSH1 0x60 DUP3 ADD MSTORE PUSH3 0x8D6 DUP7 PUSH1 0x80 DUP6 ADD PUSH3 0x73B JUMP JUMPDEST PUSH1 0x80 DUP3 ADD MSTORE PUSH1 0xA0 DUP4 DUP2 ADD MLOAD SWAP1 DUP3 ADD MSTORE PUSH1 0xC0 DUP1 DUP5 ADD MLOAD SWAP1 DUP3 ADD MSTORE PUSH1 0xE0 DUP1 DUP5 ADD MLOAD SWAP1 DUP3 ADD MSTORE PUSH2 0x100 DUP1 DUP5 ADD MLOAD SWAP1 DUP3 ADD MSTORE PUSH2 0x120 DUP1 DUP5 ADD MLOAD SWAP1 DUP3 ADD MSTORE PUSH2 0x140 SWAP2 POP PUSH3 0x922 DUP7 DUP4 DUP6 ADD PUSH3 0x753 JUMP JUMPDEST DUP3 DUP3 ADD MSTORE PUSH2 0x160 SWAP2 POP PUSH3 0x939 DUP7 DUP4 DUP6 ADD PUSH3 0x73B JUMP JUMPDEST SWAP2 DUP2 ADD SWAP2 SWAP1 SWAP2 MSTORE SWAP5 SWAP4 POP POP POP POP JUMP JUMPDEST PUSH1 0x0 PUSH1 0x20 DUP3 DUP5 SUB SLT ISZERO PUSH3 0x95A JUMPI DUP1 DUP2 REVERT JUMPDEST DUP2 MLOAD PUSH1 0xFF DUP2 AND DUP2 EQ PUSH3 0x5AF JUMPI DUP2 DUP3 REVERT JUMPDEST SWAP1 ISZERO ISZERO DUP2 MSTORE PUSH1 0x20 ADD SWAP1 JUMP JUMPDEST PUSH1 0x0 PUSH1 0x60 DUP3 ADD DUP6 DUP4 MSTORE PUSH1 0x20 PUSH1 0x60 DUP2 DUP6 ADD MSTORE DUP2 DUP7 MLOAD DUP1 DUP5 MSTORE PUSH1 0x80 DUP7 ADD SWAP2 POP DUP3 DUP9 ADD SWAP4 POP DUP5 JUMPDEST DUP2 DUP2 LT ISZERO PUSH3 0x9C2 JUMPI PUSH3 0x9AF DUP6 MLOAD PUSH3 0xA57 JUMP JUMPDEST DUP4 MSTORE SWAP4 DUP4 ADD SWAP4 SWAP2 DUP4 ADD SWAP2 PUSH1 0x1 ADD PUSH3 0x99A JUMP JUMPDEST POP POP DUP5 DUP2 SUB PUSH1 0x40 DUP7 ADD MSTORE DUP6 MLOAD DUP1 DUP3 MSTORE SWAP1 DUP3 ADD SWAP3 POP DUP2 DUP7 ADD SWAP1 DUP5 JUMPDEST DUP2 DUP2 LT ISZERO PUSH3 0xA04 JUMPI PUSH3 0x9F1 DUP4 MLOAD PUSH3 0xA57 JUMP JUMPDEST DUP6 MSTORE SWAP4 DUP4 ADD SWAP4 SWAP2 DUP4 ADD SWAP2 PUSH1 0x1 ADD PUSH3 0x9DC JUMP JUMPDEST POP SWAP3 SWAP9 SWAP8 POP POP POP POP POP POP POP POP JUMP JUMPDEST PUSH1 0x20 DUP2 ADD PUSH1 0x3 DUP4 LT PUSH3 0xA21 JUMPI INVALID JUMPDEST SWAP2 SWAP1 MSTORE SWAP1 JUMP JUMPDEST SWAP1 DUP2 MSTORE PUSH1 0x20 ADD SWAP1 JUMP JUMPDEST PUSH1 0x40 MLOAD DUP2 DUP2 ADD PUSH1 0x1 PUSH1 0x1 PUSH1 0x40 SHL SUB DUP2 GT DUP3 DUP3 LT OR ISZERO PUSH3 0xA4F JUMPI PUSH1 0x0 DUP1 REVERT JUMPDEST PUSH1 0x40 MSTORE SWAP2 SWAP1 POP JUMP JUMPDEST PUSH1 0x1 PUSH1 0x1 PUSH1 0xA0 SHL SUB AND SWAP1 JUMP JUMPDEST PUSH1 0x80 MLOAD PUSH1 0xA0 MLOAD PUSH1 0x60 SHR PUSH1 0xC0 MLOAD PUSH1 0xE0 MLOAD PUSH2 0x100 MLOAD PUSH2 0x120 MLOAD PUSH2 0x140 MLOAD PUSH2 0x160 MLOAD PUSH2 0x180 MLOAD PUSH1 0x60 SHR PUSH2 0x1A0 MLOAD PUSH2 0x1C0 MLOAD PUSH1 0x60 SHR PUSH2 0x1E0 MLOAD PUSH1 0x60 SHR PUSH2 0x200 MLOAD PUSH2 0x220 MLOAD PUSH2 0x240 MLOAD PUSH2 0x260 MLOAD PUSH2 0x280 MLOAD PUSH2 0x4BB8 PUSH3 0xB3B PUSH1 0x0 CODECOPY DUP1 PUSH2 0x1D12 MSTORE POP DUP1 PUSH2 0x1D39 MSTORE POP DUP1 PUSH2 0x29E2 MSTORE DUP1 PUSH2 0x2A16 MSTORE DUP1 PUSH2 0x2A52 MSTORE POP DUP1 PUSH2 0x1D66 MSTORE DUP1 PUSH2 0x1E02 MSTORE POP DUP1 PUSH2 0x1D8D MSTORE DUP1 PUSH2 0x1DE0 MSTORE DUP1 PUSH2 0x1E30 MSTORE POP POP DUP1 PUSH2 0xC6A MSTORE POP DUP1 PUSH2 0x808 MSTORE POP DUP1 PUSH2 0xBB8 MSTORE POP DUP1 PUSH2 0x139D MSTORE POP DUP1 PUSH2 0x1379 MSTORE POP DUP1 PUSH2 0xF20 MSTORE POP DUP1 PUSH2 0x16A5 MSTORE POP DUP1 PUSH2 0x16E7 MSTORE POP DUP1 PUSH2 0x16C6 MSTORE POP DUP1 PUSH2 0xB94 MSTORE POP DUP1 PUSH2 0xB1F MSTORE POP PUSH2 0x4BB8 PUSH1 0x0 RETURN INVALID PUSH1 0x80 PUSH1 0x40 MSTORE CALLVALUE DUP1 ISZERO PUSH2 0x10 JUMPI PUSH1 0x0 DUP1 REVERT JUMPDEST POP PUSH1 0x4 CALLDATASIZE LT PUSH2 0x248 JUMPI PUSH1 0x0 CALLDATALOAD PUSH1 0xE0 SHR DUP1 PUSH4 0x74F3B009 GT PUSH2 0x13B JUMPI DUP1 PUSH4 0xAAABADC5 GT PUSH2 0xB8 JUMPI DUP1 PUSH4 0xD5C096C4 GT PUSH2 0x7C JUMPI DUP1 PUSH4 0xD5C096C4 EQ PUSH2 0x4E1 JUMPI DUP1 PUSH4 0xD73DD623 EQ PUSH2 0x4F4 JUMPI DUP1 PUSH4 0xDD62ED3E EQ PUSH2 0x507 JUMPI DUP1 PUSH4 0xF89F27ED EQ PUSH2 0x51A JUMPI DUP1 PUSH4 0xFFD088EB EQ PUSH2 0x522 JUMPI PUSH2 0x248 JUMP JUMPDEST DUP1 PUSH4 0xAAABADC5 EQ PUSH2 0x4A3 JUMPI DUP1 PUSH4 0xB10BE739 EQ PUSH2 0x4AB JUMPI DUP1 PUSH4 0xB48B5B40 EQ PUSH2 0x4BE JUMPI DUP1 PUSH4 0xC0FF1A15 EQ PUSH2 0x4C6 JUMPI DUP1 PUSH4 0xD505ACCF EQ PUSH2 0x4CE JUMPI PUSH2 0x248 JUMP JUMPDEST DUP1 PUSH4 0x8D928AF8 GT PUSH2 0xFF JUMPI DUP1 PUSH4 0x8D928AF8 EQ PUSH2 0x465 JUMPI DUP1 PUSH4 0x95D89B41 EQ PUSH2 0x46D JUMPI DUP1 PUSH4 0x9B02CDDE EQ PUSH2 0x475 JUMPI DUP1 PUSH4 0x9D2C110C EQ PUSH2 0x47D JUMPI DUP1 PUSH4 0xA9059CBB EQ PUSH2 0x490 JUMPI PUSH2 0x248 JUMP JUMPDEST DUP1 PUSH4 0x74F3B009 EQ PUSH2 0x3F6 JUMPI DUP1 PUSH4 0x7ECEBE00 EQ PUSH2 0x417 JUMPI DUP1 PUSH4 0x851C1BB3 EQ PUSH2 0x42A JUMPI DUP1 PUSH4 0x87EC6817 EQ PUSH2 0x43D JUMPI DUP1 PUSH4 0x893D20E8 EQ PUSH2 0x450 JUMPI PUSH2 0x248 JUMP JUMPDEST DUP1 PUSH4 0x38E9922E GT PUSH2 0x1C9 JUMPI DUP1 PUSH4 0x60D1507C GT PUSH2 0x18D JUMPI DUP1 PUSH4 0x60D1507C EQ PUSH2 0x382 JUMPI DUP1 PUSH4 0x66188463 EQ PUSH2 0x3A8 JUMPI DUP1 PUSH4 0x679AEFCE EQ PUSH2 0x3BB JUMPI DUP1 PUSH4 0x6B843239 EQ PUSH2 0x3C3 JUMPI DUP1 PUSH4 0x70A08231 EQ PUSH2 0x3E3 JUMPI PUSH2 0x248 JUMP JUMPDEST DUP1 PUSH4 0x38E9922E EQ PUSH2 0x324 JUMPI DUP1 PUSH4 0x38FFF2D0 EQ PUSH2 0x337 JUMPI DUP1 PUSH4 0x4A6B0B15 EQ PUSH2 0x33F JUMPI DUP1 PUSH4 0x55C67628 EQ PUSH2 0x359 JUMPI DUP1 PUSH4 0x6028BFD4 EQ PUSH2 0x361 JUMPI PUSH2 0x248 JUMP JUMPDEST DUP1 PUSH4 0x1DCCD830 GT PUSH2 0x210 JUMPI DUP1 PUSH4 0x1DCCD830 EQ PUSH2 0x2CC JUMPI DUP1 PUSH4 0x23B872DD EQ PUSH2 0x2EC JUMPI DUP1 PUSH4 0x292C914A EQ PUSH2 0x2FF JUMPI DUP1 PUSH4 0x313CE567 EQ PUSH2 0x307 JUMPI DUP1 PUSH4 0x3644E515 EQ PUSH2 0x31C JUMPI PUSH2 0x248 JUMP JUMPDEST DUP1 PUSH4 0x6FDDE03 EQ PUSH2 0x24D JUMPI DUP1 PUSH4 0x95EA7B3 EQ PUSH2 0x26B JUMPI DUP1 PUSH4 0x16C38B3C EQ PUSH2 0x28B JUMPI DUP1 PUSH4 0x18160DDD EQ PUSH2 0x2A0 JUMPI DUP1 PUSH4 0x1C0DE051 EQ PUSH2 0x2B5 JUMPI JUMPDEST PUSH1 0x0 DUP1 REVERT JUMPDEST PUSH2 0x255 PUSH2 0x52A JUMP JUMPDEST PUSH1 0x40 MLOAD PUSH2 0x262 SWAP2 SWAP1 PUSH2 0x4A93 JUMP JUMPDEST PUSH1 0x40 MLOAD DUP1 SWAP2 SUB SWAP1 RETURN JUMPDEST PUSH2 0x27E PUSH2 0x279 CALLDATASIZE PUSH1 0x4 PUSH2 0x423B JUMP JUMPDEST PUSH2 0x5C0 JUMP JUMPDEST PUSH1 0x40 MLOAD PUSH2 0x262 SWAP2 SWAP1 PUSH2 0x4970 JUMP JUMPDEST PUSH2 0x29E PUSH2 0x299 CALLDATASIZE PUSH1 0x4 PUSH2 0x44A9 JUMP JUMPDEST PUSH2 0x5D7 JUMP JUMPDEST STOP JUMPDEST PUSH2 0x2A8 PUSH2 0x5EB JUMP JUMPDEST PUSH1 0x40 MLOAD PUSH2 0x262 SWAP2 SWAP1 PUSH2 0x4993 JUMP JUMPDEST PUSH2 0x2BD PUSH2 0x5F1 JUMP JUMPDEST PUSH1 0x40 MLOAD PUSH2 0x262 SWAP4 SWAP3 SWAP2 SWAP1 PUSH2 0x497B JUMP JUMPDEST PUSH2 0x2DF PUSH2 0x2DA CALLDATASIZE PUSH1 0x4 PUSH2 0x43EF JUMP JUMPDEST PUSH2 0x61A JUMP JUMPDEST PUSH1 0x40 MLOAD PUSH2 0x262 SWAP2 SWAP1 PUSH2 0x4938 JUMP JUMPDEST PUSH2 0x27E PUSH2 0x2FA CALLDATASIZE PUSH1 0x4 PUSH2 0x4186 JUMP JUMPDEST PUSH2 0x722 JUMP JUMPDEST PUSH2 0x29E PUSH2 0x7A5 JUMP JUMPDEST PUSH2 0x30F PUSH2 0x7D9 JUMP JUMPDEST PUSH1 0x40 MLOAD PUSH2 0x262 SWAP2 SWAP1 PUSH2 0x4AFF JUMP JUMPDEST PUSH2 0x2A8 PUSH2 0x7DE JUMP JUMPDEST PUSH2 0x29E PUSH2 0x332 CALLDATASIZE PUSH1 0x4 PUSH2 0x484B JUMP JUMPDEST PUSH2 0x7ED JUMP JUMPDEST PUSH2 0x2A8 PUSH2 0x806 JUMP JUMPDEST PUSH2 0x347 PUSH2 0x82A JUMP JUMPDEST PUSH1 0x40 MLOAD PUSH2 0x262 SWAP7 SWAP6 SWAP5 SWAP4 SWAP3 SWAP2 SWAP1 PUSH2 0x4A69 JUMP JUMPDEST PUSH2 0x2A8 PUSH2 0x885 JUMP JUMPDEST PUSH2 0x374 PUSH2 0x36F CALLDATASIZE PUSH1 0x4 PUSH2 0x44E1 JUMP JUMPDEST PUSH2 0x892 JUMP JUMPDEST PUSH1 0x40 MLOAD PUSH2 0x262 SWAP3 SWAP2 SWAP1 PUSH2 0x4AE6 JUMP JUMPDEST PUSH2 0x395 PUSH2 0x390 CALLDATASIZE PUSH1 0x4 PUSH2 0x484B JUMP JUMPDEST PUSH2 0x8C3 JUMP JUMPDEST PUSH1 0x40 MLOAD PUSH2 0x262 SWAP8 SWAP7 SWAP6 SWAP5 SWAP4 SWAP3 SWAP2 SWAP1 PUSH2 0x4A39 JUMP JUMPDEST PUSH2 0x27E PUSH2 0x3B6 CALLDATASIZE PUSH1 0x4 PUSH2 0x423B JUMP JUMPDEST PUSH2 0x90C JUMP JUMPDEST PUSH2 0x2A8 PUSH2 0x966 JUMP JUMPDEST PUSH2 0x3D6 PUSH2 0x3D1 CALLDATASIZE PUSH1 0x4 PUSH2 0x4331 JUMP JUMPDEST PUSH2 0x98B JUMP JUMPDEST PUSH1 0x40 MLOAD PUSH2 0x262 SWAP2 SWAP1 PUSH2 0x48F4 JUMP JUMPDEST PUSH2 0x2A8 PUSH2 0x3F1 CALLDATASIZE PUSH1 0x4 PUSH2 0x4132 JUMP JUMPDEST PUSH2 0xA3C JUMP JUMPDEST PUSH2 0x409 PUSH2 0x404 CALLDATASIZE PUSH1 0x4 PUSH2 0x44E1 JUMP JUMPDEST PUSH2 0xA5B JUMP JUMPDEST PUSH1 0x40 MLOAD PUSH2 0x262 SWAP3 SWAP2 SWAP1 PUSH2 0x494B JUMP JUMPDEST PUSH2 0x2A8 PUSH2 0x425 CALLDATASIZE PUSH1 0x4 PUSH2 0x4132 JUMP JUMPDEST PUSH2 0xB00 JUMP JUMPDEST PUSH2 0x2A8 PUSH2 0x438 CALLDATASIZE PUSH1 0x4 PUSH2 0x45DD JUMP JUMPDEST PUSH2 0xB1B JUMP JUMPDEST PUSH2 0x374 PUSH2 0x44B CALLDATASIZE PUSH1 0x4 PUSH2 0x44E1 JUMP JUMPDEST PUSH2 0xB6D JUMP JUMPDEST PUSH2 0x458 PUSH2 0xB92 JUMP JUMPDEST PUSH1 0x40 MLOAD PUSH2 0x262 SWAP2 SWAP1 PUSH2 0x48E0 JUMP JUMPDEST PUSH2 0x458 PUSH2 0xBB6 JUMP JUMPDEST PUSH2 0x255 PUSH2 0xBDA JUMP JUMPDEST PUSH2 0x2A8 PUSH2 0xC3B JUMP JUMPDEST PUSH2 0x2A8 PUSH2 0x48B CALLDATASIZE PUSH1 0x4 PUSH2 0x4750 JUMP JUMPDEST PUSH2 0xC41 JUMP JUMPDEST PUSH2 0x27E PUSH2 0x49E CALLDATASIZE PUSH1 0x4 PUSH2 0x423B JUMP JUMPDEST PUSH2 0xDF0 JUMP JUMPDEST PUSH2 0x458 PUSH2 0xDFD JUMP JUMPDEST PUSH2 0x2A8 PUSH2 0x4B9 CALLDATASIZE PUSH1 0x4 PUSH2 0x4734 JUMP JUMPDEST PUSH2 0xE07 JUMP JUMPDEST PUSH2 0x2A8 PUSH2 0xE29 JUMP JUMPDEST PUSH2 0x2A8 PUSH2 0xE2F JUMP JUMPDEST PUSH2 0x29E PUSH2 0x4DC CALLDATASIZE PUSH1 0x4 PUSH2 0x41C6 JUMP JUMPDEST PUSH2 0xEEB JUMP JUMPDEST PUSH2 0x409 PUSH2 0x4EF CALLDATASIZE PUSH1 0x4 PUSH2 0x44E1 JUMP JUMPDEST PUSH2 0x1034 JUMP JUMPDEST PUSH2 0x27E PUSH2 0x502 CALLDATASIZE PUSH1 0x4 PUSH2 0x423B JUMP JUMPDEST PUSH2 0x1154 JUMP JUMPDEST PUSH2 0x2A8 PUSH2 0x515 CALLDATASIZE PUSH1 0x4 PUSH2 0x414E JUMP JUMPDEST PUSH2 0x118A JUMP JUMPDEST PUSH2 0x2DF PUSH2 0x11B5 JUMP JUMPDEST PUSH2 0x2A8 PUSH2 0x11BF JUMP JUMPDEST PUSH1 0x3 DUP1 SLOAD PUSH1 0x40 DUP1 MLOAD PUSH1 0x20 PUSH1 0x1F PUSH1 0x2 PUSH1 0x0 NOT PUSH2 0x100 PUSH1 0x1 DUP9 AND ISZERO MUL ADD SWAP1 SWAP6 AND SWAP5 SWAP1 SWAP5 DIV SWAP4 DUP5 ADD DUP2 SWAP1 DIV DUP2 MUL DUP3 ADD DUP2 ADD SWAP1 SWAP3 MSTORE DUP3 DUP2 MSTORE PUSH1 0x60 SWAP4 SWAP1 SWAP3 SWAP1 SWAP2 DUP4 ADD DUP3 DUP3 DUP1 ISZERO PUSH2 0x5B6 JUMPI DUP1 PUSH1 0x1F LT PUSH2 0x58B JUMPI PUSH2 0x100 DUP1 DUP4 SLOAD DIV MUL DUP4 MSTORE SWAP2 PUSH1 0x20 ADD SWAP2 PUSH2 0x5B6 JUMP JUMPDEST DUP3 ADD SWAP2 SWAP1 PUSH1 0x0 MSTORE PUSH1 0x20 PUSH1 0x0 KECCAK256 SWAP1 JUMPDEST DUP2 SLOAD DUP2 MSTORE SWAP1 PUSH1 0x1 ADD SWAP1 PUSH1 0x20 ADD DUP1 DUP4 GT PUSH2 0x599 JUMPI DUP3 SWAP1 SUB PUSH1 0x1F AND DUP3 ADD SWAP2 JUMPDEST POP POP POP POP POP SWAP1 POP SWAP1 JUMP JUMPDEST PUSH1 0x0 PUSH2 0x5CD CALLER DUP5 DUP5 PUSH2 0x1246 JUMP JUMPDEST POP PUSH1 0x1 JUMPDEST SWAP3 SWAP2 POP POP JUMP JUMPDEST PUSH2 0x5DF PUSH2 0x12AE JUMP JUMPDEST PUSH2 0x5E8 DUP2 PUSH2 0x12DC JUMP JUMPDEST POP JUMP JUMPDEST PUSH1 0x2 SLOAD SWAP1 JUMP JUMPDEST PUSH1 0x0 DUP1 PUSH1 0x0 PUSH2 0x5FE PUSH2 0x135A JUMP JUMPDEST ISZERO SWAP3 POP PUSH2 0x609 PUSH2 0x1377 JUMP JUMPDEST SWAP2 POP PUSH2 0x613 PUSH2 0x139B JUMP JUMPDEST SWAP1 POP SWAP1 SWAP2 SWAP3 JUMP JUMPDEST PUSH1 0x60 DUP2 MLOAD PUSH1 0x1 PUSH1 0x1 PUSH1 0x40 SHL SUB DUP2 GT DUP1 ISZERO PUSH2 0x633 JUMPI PUSH1 0x0 DUP1 REVERT JUMPDEST POP PUSH1 0x40 MLOAD SWAP1 DUP1 DUP3 MSTORE DUP1 PUSH1 0x20 MUL PUSH1 0x20 ADD DUP3 ADD PUSH1 0x40 MSTORE DUP1 ISZERO PUSH2 0x65D JUMPI DUP2 PUSH1 0x20 ADD PUSH1 0x20 DUP3 MUL DUP1 CALLDATASIZE DUP4 CALLDATACOPY ADD SWAP1 POP JUMPDEST POP SWAP1 POP PUSH1 0x0 PUSH2 0x66D PUSH1 0x8 SLOAD PUSH2 0x13BF JUMP JUMPDEST SWAP1 POP PUSH2 0x677 PUSH2 0x3FFE JUMP JUMPDEST PUSH1 0x0 JUMPDEST DUP5 MLOAD DUP2 LT ISZERO PUSH2 0x71A JUMPI DUP5 DUP2 DUP2 MLOAD DUP2 LT PUSH2 0x68F JUMPI INVALID JUMPDEST PUSH1 0x20 MUL PUSH1 0x20 ADD ADD MLOAD SWAP2 POP PUSH2 0x6AD DUP3 PUSH1 0x20 ADD MLOAD PUSH1 0x0 EQ ISZERO PUSH2 0x13C PUSH2 0x13CC JUMP JUMPDEST PUSH1 0x0 PUSH2 0x6C8 DUP4 PUSH1 0x0 ADD MLOAD DUP6 DUP6 PUSH1 0x20 ADD MLOAD DUP7 PUSH1 0x40 ADD MLOAD ADD PUSH2 0x13DE JUMP JUMPDEST SWAP1 POP PUSH1 0x0 PUSH2 0x6DF DUP5 PUSH1 0x0 ADD MLOAD DUP7 DUP7 PUSH1 0x40 ADD MLOAD PUSH2 0x13DE JUMP JUMPDEST SWAP1 POP PUSH2 0x6F9 DUP5 PUSH1 0x20 ADD MLOAD DUP4 DUP4 SUB DUP2 PUSH2 0x6F3 JUMPI INVALID JUMPDEST SDIV PUSH2 0x1524 JUMP JUMPDEST DUP7 DUP5 DUP2 MLOAD DUP2 LT PUSH2 0x705 JUMPI INVALID JUMPDEST PUSH1 0x20 SWAP1 DUP2 MUL SWAP2 SWAP1 SWAP2 ADD ADD MSTORE POP POP PUSH1 0x1 ADD PUSH2 0x67A JUMP JUMPDEST POP POP POP SWAP2 SWAP1 POP JUMP JUMPDEST PUSH1 0x1 PUSH1 0x1 PUSH1 0xA0 SHL SUB DUP4 AND PUSH1 0x0 DUP2 DUP2 MSTORE PUSH1 0x1 PUSH1 0x20 SWAP1 DUP2 MSTORE PUSH1 0x40 DUP1 DUP4 KECCAK256 CALLER DUP1 DUP6 MSTORE SWAP3 MSTORE DUP3 KECCAK256 SLOAD SWAP2 SWAP3 PUSH2 0x760 SWAP2 EQ DUP1 PUSH2 0x758 JUMPI POP DUP4 DUP3 LT ISZERO JUMPDEST PUSH2 0x197 PUSH2 0x13CC JUMP JUMPDEST PUSH2 0x76B DUP6 DUP6 DUP6 PUSH2 0x1537 JUMP JUMPDEST CALLER PUSH1 0x1 PUSH1 0x1 PUSH1 0xA0 SHL SUB DUP7 AND EQ DUP1 ISZERO SWAP1 PUSH2 0x786 JUMPI POP PUSH1 0x0 NOT DUP2 EQ ISZERO JUMPDEST ISZERO PUSH2 0x798 JUMPI PUSH2 0x798 DUP6 CALLER DUP6 DUP5 SUB PUSH2 0x1246 JUMP JUMPDEST PUSH1 0x1 SWAP2 POP POP JUMPDEST SWAP4 SWAP3 POP POP POP JUMP JUMPDEST PUSH2 0x7AD PUSH2 0x1606 JUMP JUMPDEST PUSH2 0x7B5 PUSH2 0x12AE JUMP JUMPDEST PUSH2 0x7BF PUSH1 0x1 PUSH2 0x1619 JUMP JUMPDEST PUSH1 0x0 PUSH2 0x7C9 PUSH2 0x5EB JUMP JUMPDEST GT ISZERO PUSH2 0x7D7 JUMPI PUSH2 0x7D7 PUSH2 0x1659 JUMP JUMPDEST JUMP JUMPDEST PUSH1 0x12 SWAP1 JUMP JUMPDEST PUSH1 0x0 PUSH2 0x7E8 PUSH2 0x16A1 JUMP JUMPDEST SWAP1 POP SWAP1 JUMP JUMPDEST PUSH2 0x7F5 PUSH2 0x12AE JUMP JUMPDEST PUSH2 0x7FD PUSH2 0x1606 JUMP JUMPDEST PUSH2 0x5E8 DUP2 PUSH2 0x173E JUMP JUMPDEST PUSH32 0x0 SWAP1 JUMP JUMPDEST PUSH1 0x0 DUP1 PUSH1 0x0 DUP1 PUSH1 0x0 DUP1 PUSH1 0x0 PUSH1 0x8 SLOAD SWAP1 POP PUSH2 0x843 DUP2 PUSH2 0x17A7 JUMP JUMPDEST SWAP7 POP PUSH2 0x84E DUP2 PUSH2 0x17B3 JUMP JUMPDEST SWAP6 POP PUSH2 0x859 DUP2 PUSH2 0x17C0 JUMP JUMPDEST SWAP5 POP PUSH2 0x864 DUP2 PUSH2 0x13BF JUMP JUMPDEST SWAP4 POP PUSH2 0x86F DUP2 PUSH2 0x17CD JUMP JUMPDEST SWAP3 POP PUSH2 0x87A DUP2 PUSH2 0x17DA JUMP JUMPDEST SWAP2 POP POP SWAP1 SWAP2 SWAP3 SWAP4 SWAP5 SWAP6 JUMP JUMPDEST PUSH1 0x0 PUSH2 0x7E8 PUSH1 0x8 SLOAD PUSH2 0x17DA JUMP JUMPDEST PUSH1 0x0 PUSH1 0x60 PUSH2 0x8A2 DUP7 MLOAD PUSH1 0x2 PUSH2 0x17E7 JUMP JUMPDEST PUSH2 0x8B7 DUP10 DUP10 DUP10 DUP10 DUP10 DUP10 DUP10 PUSH2 0x17F4 PUSH2 0x18AE PUSH2 0x192C JUMP JUMPDEST SWAP8 POP SWAP8 SWAP6 POP POP POP POP POP POP JUMP JUMPDEST PUSH1 0x0 DUP1 PUSH1 0x0 DUP1 PUSH1 0x0 DUP1 PUSH1 0x0 PUSH2 0x8DE PUSH2 0x400 DUP10 LT PUSH2 0x13B PUSH2 0x13CC JUMP JUMPDEST PUSH1 0x0 PUSH2 0x8E9 DUP10 PUSH2 0x1A4B JUMP JUMPDEST SWAP1 POP PUSH2 0x8F4 DUP2 PUSH2 0x1A5D JUMP JUMPDEST SWAP6 SWAP16 SWAP5 SWAP15 POP SWAP3 SWAP13 POP SWAP1 SWAP11 POP SWAP9 POP SWAP7 POP SWAP1 SWAP5 POP SWAP3 POP POP POP JUMP JUMPDEST CALLER PUSH1 0x0 SWAP1 DUP2 MSTORE PUSH1 0x1 PUSH1 0x20 SWAP1 DUP2 MSTORE PUSH1 0x40 DUP1 DUP4 KECCAK256 PUSH1 0x1 PUSH1 0x1 PUSH1 0xA0 SHL SUB DUP7 AND DUP5 MSTORE SWAP1 SWAP2 MSTORE DUP2 KECCAK256 SLOAD DUP1 DUP4 LT PUSH2 0x948 JUMPI PUSH2 0x943 CALLER DUP6 PUSH1 0x0 PUSH2 0x1246 JUMP JUMPDEST PUSH2 0x95C JUMP JUMPDEST PUSH2 0x95C CALLER DUP6 PUSH2 0x957 DUP5 DUP8 PUSH2 0x11F4 JUMP JUMPDEST PUSH2 0x1246 JUMP JUMPDEST POP PUSH1 0x1 SWAP4 SWAP3 POP POP POP JUMP JUMPDEST PUSH1 0x0 PUSH2 0x7E8 PUSH2 0x973 PUSH2 0x5EB JUMP JUMPDEST PUSH2 0x985 PUSH2 0x97E PUSH2 0xE2F JUMP JUMPDEST PUSH1 0x2 PUSH2 0x1AC0 JUMP JUMPDEST SWAP1 PUSH2 0x1AE4 JUMP JUMPDEST PUSH1 0x60 DUP2 MLOAD PUSH1 0x1 PUSH1 0x1 PUSH1 0x40 SHL SUB DUP2 GT DUP1 ISZERO PUSH2 0x9A4 JUMPI PUSH1 0x0 DUP1 REVERT JUMPDEST POP PUSH1 0x40 MLOAD SWAP1 DUP1 DUP3 MSTORE DUP1 PUSH1 0x20 MUL PUSH1 0x20 ADD DUP3 ADD PUSH1 0x40 MSTORE DUP1 ISZERO PUSH2 0x9CE JUMPI DUP2 PUSH1 0x20 ADD PUSH1 0x20 DUP3 MUL DUP1 CALLDATASIZE DUP4 CALLDATACOPY ADD SWAP1 POP JUMPDEST POP SWAP1 POP PUSH1 0x0 PUSH2 0x9DE PUSH1 0x8 SLOAD PUSH2 0x13BF JUMP JUMPDEST SWAP1 POP PUSH2 0x9E8 PUSH2 0x4020 JUMP JUMPDEST PUSH1 0x0 JUMPDEST DUP5 MLOAD DUP2 LT ISZERO PUSH2 0x71A JUMPI DUP5 DUP2 DUP2 MLOAD DUP2 LT PUSH2 0xA00 JUMPI INVALID JUMPDEST PUSH1 0x20 MUL PUSH1 0x20 ADD ADD MLOAD SWAP2 POP PUSH2 0xA1D DUP3 PUSH1 0x0 ADD MLOAD DUP5 DUP5 PUSH1 0x20 ADD MLOAD PUSH2 0x13DE JUMP JUMPDEST DUP5 DUP3 DUP2 MLOAD DUP2 LT PUSH2 0xA29 JUMPI INVALID JUMPDEST PUSH1 0x20 SWAP1 DUP2 MUL SWAP2 SWAP1 SWAP2 ADD ADD MSTORE PUSH1 0x1 ADD PUSH2 0x9EB JUMP JUMPDEST PUSH1 0x1 PUSH1 0x1 PUSH1 0xA0 SHL SUB DUP2 AND PUSH1 0x0 SWAP1 DUP2 MSTORE PUSH1 0x20 DUP2 SWAP1 MSTORE PUSH1 0x40 SWAP1 KECCAK256 SLOAD JUMPDEST SWAP2 SWAP1 POP JUMP JUMPDEST PUSH1 0x60 DUP1 DUP9 PUSH2 0xA85 PUSH2 0xA6A PUSH2 0xBB6 JUMP JUMPDEST PUSH1 0x1 PUSH1 0x1 PUSH1 0xA0 SHL SUB AND CALLER PUSH1 0x1 PUSH1 0x1 PUSH1 0xA0 SHL SUB AND EQ PUSH1 0xCD PUSH2 0x13CC JUMP JUMPDEST PUSH2 0xA9A PUSH2 0xA90 PUSH2 0x806 JUMP JUMPDEST DUP3 EQ PUSH2 0x1F4 PUSH2 0x13CC JUMP JUMPDEST PUSH2 0xAA3 DUP8 PUSH2 0x1B35 JUMP JUMPDEST PUSH1 0x0 PUSH1 0x60 DUP1 PUSH2 0xAB7 DUP14 DUP14 DUP14 DUP14 DUP14 DUP14 DUP14 PUSH2 0x17F4 JUMP JUMPDEST SWAP3 POP SWAP3 POP SWAP3 POP PUSH2 0xAC7 DUP13 DUP5 PUSH2 0x1B97 JUMP JUMPDEST PUSH2 0xAD0 DUP3 PUSH2 0x18AE JUMP JUMPDEST PUSH2 0xAD9 DUP2 PUSH2 0x18AE JUMP JUMPDEST PUSH2 0xAE1 PUSH2 0x135A JUMP JUMPDEST ISZERO PUSH2 0xAEE JUMPI PUSH2 0xAEE PUSH2 0x1659 JUMP JUMPDEST SWAP1 SWAP13 SWAP1 SWAP12 POP SWAP10 POP POP POP POP POP POP POP POP POP POP JUMP JUMPDEST PUSH1 0x1 PUSH1 0x1 PUSH1 0xA0 SHL SUB AND PUSH1 0x0 SWAP1 DUP2 MSTORE PUSH1 0x5 PUSH1 0x20 MSTORE PUSH1 0x40 SWAP1 KECCAK256 SLOAD SWAP1 JUMP JUMPDEST PUSH1 0x0 PUSH32 0x0 DUP3 PUSH1 0x40 MLOAD PUSH1 0x20 ADD PUSH2 0xB50 SWAP3 SWAP2 SWAP1 PUSH2 0x489D JUMP JUMPDEST PUSH1 0x40 MLOAD PUSH1 0x20 DUP2 DUP4 SUB SUB DUP2 MSTORE SWAP1 PUSH1 0x40 MSTORE DUP1 MLOAD SWAP1 PUSH1 0x20 ADD KECCAK256 SWAP1 POP SWAP2 SWAP1 POP JUMP JUMPDEST PUSH1 0x0 PUSH1 0x60 PUSH2 0xB7D DUP7 MLOAD PUSH1 0x2 PUSH2 0x17E7 JUMP JUMPDEST PUSH2 0x8B7 DUP10 DUP10 DUP10 DUP10 DUP10 DUP10 DUP10 PUSH2 0x1C2A PUSH2 0x1CAB PUSH2 0x192C JUMP JUMPDEST PUSH32 0x0 SWAP1 JUMP JUMPDEST PUSH32 0x0 SWAP1 JUMP JUMPDEST PUSH1 0x4 DUP1 SLOAD PUSH1 0x40 DUP1 MLOAD PUSH1 0x20 PUSH1 0x1F PUSH1 0x2 PUSH1 0x0 NOT PUSH2 0x100 PUSH1 0x1 DUP9 AND ISZERO MUL ADD SWAP1 SWAP6 AND SWAP5 SWAP1 SWAP5 DIV SWAP4 DUP5 ADD DUP2 SWAP1 DIV DUP2 MUL DUP3 ADD DUP2 ADD SWAP1 SWAP3 MSTORE DUP3 DUP2 MSTORE PUSH1 0x60 SWAP4 SWAP1 SWAP3 SWAP1 SWAP2 DUP4 ADD DUP3 DUP3 DUP1 ISZERO PUSH2 0x5B6 JUMPI DUP1 PUSH1 0x1F LT PUSH2 0x58B JUMPI PUSH2 0x100 DUP1 DUP4 SLOAD DIV MUL DUP4 MSTORE SWAP2 PUSH1 0x20 ADD SWAP2 PUSH2 0x5B6 JUMP JUMPDEST PUSH1 0x9 SLOAD SWAP1 JUMP JUMPDEST PUSH1 0x0 PUSH2 0xC4B PUSH2 0x1606 JUMP JUMPDEST DUP4 PUSH1 0x80 ADD MLOAD PUSH2 0xC5B PUSH2 0xA6A PUSH2 0xBB6 JUMP JUMPDEST PUSH2 0xC66 PUSH2 0xA90 PUSH2 0x806 JUMP JUMPDEST PUSH1 0x0 PUSH32 0x0 PUSH1 0x1 PUSH1 0x1 PUSH1 0xA0 SHL SUB AND DUP7 PUSH1 0x20 ADD MLOAD PUSH1 0x1 PUSH1 0x1 PUSH1 0xA0 SHL SUB AND EQ SWAP1 POP PUSH1 0x0 PUSH2 0xCAE DUP3 PUSH2 0x1D09 JUMP JUMPDEST SWAP1 POP PUSH1 0x0 PUSH2 0xCBC DUP4 ISZERO PUSH2 0x1D09 JUMP JUMPDEST SWAP1 POP PUSH1 0x0 PUSH2 0xCC9 DUP5 PUSH2 0x1D5D JUMP JUMPDEST SWAP1 POP PUSH1 0x0 PUSH2 0xCD7 DUP6 ISZERO PUSH2 0x1D5D JUMP JUMPDEST SWAP1 POP PUSH2 0xCE3 DUP10 DUP6 PUSH2 0x1DB1 JUMP JUMPDEST SWAP9 POP PUSH2 0xCEF DUP9 DUP5 PUSH2 0x1DB1 JUMP JUMPDEST SWAP8 POP PUSH2 0xD18 DUP11 PUSH1 0xA0 ADD MLOAD DUP7 PUSH2 0xD04 JUMPI DUP10 PUSH2 0xD06 JUMP JUMPDEST DUP11 JUMPDEST DUP8 PUSH2 0xD11 JUMPI DUP12 PUSH2 0xD13 JUMP JUMPDEST DUP11 JUMPDEST PUSH2 0x1DBD JUMP JUMPDEST PUSH1 0x0 DUP11 MLOAD PUSH1 0x1 DUP2 GT ISZERO PUSH2 0xD27 JUMPI INVALID JUMPDEST EQ ISZERO PUSH2 0xD95 JUMPI PUSH1 0x0 PUSH2 0xD45 PUSH2 0xD3A PUSH2 0x885 JUMP JUMPDEST PUSH1 0x60 DUP14 ADD MLOAD SWAP1 PUSH2 0x1EC3 JUMP JUMPDEST SWAP1 POP PUSH2 0xD67 PUSH2 0xD61 DUP3 DUP14 PUSH1 0x60 ADD MLOAD PUSH2 0x11F4 SWAP1 SWAP2 SWAP1 PUSH4 0xFFFFFFFF AND JUMP JUMPDEST DUP7 PUSH2 0x1DB1 JUMP JUMPDEST PUSH1 0x60 DUP13 ADD MSTORE PUSH1 0x0 PUSH2 0xD7B DUP13 DUP13 DUP13 DUP8 DUP8 PUSH2 0x1F07 JUMP JUMPDEST SWAP1 POP PUSH2 0xD87 DUP2 DUP7 PUSH2 0x1F26 JUMP JUMPDEST SWAP9 POP POP POP POP POP POP POP POP PUSH2 0xDE8 JUMP JUMPDEST PUSH2 0xDA3 DUP11 PUSH1 0x60 ADD MLOAD DUP5 PUSH2 0x1DB1 JUMP JUMPDEST PUSH1 0x60 DUP12 ADD MSTORE PUSH1 0x0 PUSH2 0xDB7 DUP12 DUP12 DUP12 DUP7 DUP7 PUSH2 0x1F32 JUMP JUMPDEST SWAP1 POP PUSH2 0xDC3 DUP2 DUP7 PUSH2 0x1F45 JUMP JUMPDEST SWAP1 POP PUSH2 0xDDF PUSH2 0xDD8 PUSH2 0xDD3 PUSH2 0x885 JUMP JUMPDEST PUSH2 0x1F51 JUMP JUMPDEST DUP3 SWAP1 PUSH2 0x1F77 JUMP JUMPDEST SWAP8 POP POP POP POP POP POP POP JUMPDEST POP SWAP4 SWAP3 POP POP POP JUMP JUMPDEST PUSH1 0x0 PUSH2 0x5CD CALLER DUP5 DUP5 PUSH2 0x1537 JUMP JUMPDEST PUSH1 0x0 PUSH2 0x7E8 PUSH2 0x1FB9 JUMP JUMPDEST PUSH1 0x0 DUP1 PUSH2 0xE1E DUP4 PUSH2 0xE19 PUSH1 0x8 SLOAD PUSH2 0x13BF JUMP JUMPDEST PUSH2 0x2033 JUMP JUMPDEST SWAP1 POP PUSH2 0x79E DUP2 PUSH2 0x1524 JUMP JUMPDEST PUSH2 0x400 SWAP1 JUMP JUMPDEST PUSH1 0x0 PUSH1 0x60 PUSH2 0xE3B PUSH2 0xBB6 JUMP JUMPDEST PUSH1 0x1 PUSH1 0x1 PUSH1 0xA0 SHL SUB AND PUSH4 0xF94D4668 PUSH2 0xE51 PUSH2 0x806 JUMP JUMPDEST PUSH1 0x40 MLOAD DUP3 PUSH4 0xFFFFFFFF AND PUSH1 0xE0 SHL DUP2 MSTORE PUSH1 0x4 ADD PUSH2 0xE6D SWAP2 SWAP1 PUSH2 0x4993 JUMP JUMPDEST PUSH1 0x0 PUSH1 0x40 MLOAD DUP1 DUP4 SUB DUP2 DUP7 DUP1 EXTCODESIZE ISZERO DUP1 ISZERO PUSH2 0xE85 JUMPI PUSH1 0x0 DUP1 REVERT JUMPDEST POP GAS STATICCALL ISZERO DUP1 ISZERO PUSH2 0xE99 JUMPI RETURNDATASIZE PUSH1 0x0 DUP1 RETURNDATACOPY RETURNDATASIZE PUSH1 0x0 REVERT JUMPDEST POP POP POP POP PUSH1 0x40 MLOAD RETURNDATASIZE PUSH1 0x0 DUP3 RETURNDATACOPY PUSH1 0x1F RETURNDATASIZE SWAP1 DUP2 ADD PUSH1 0x1F NOT AND DUP3 ADD PUSH1 0x40 MSTORE PUSH2 0xEC1 SWAP2 SWAP1 DUP2 ADD SWAP1 PUSH2 0x4266 JUMP JUMPDEST POP SWAP2 POP POP PUSH2 0xECE DUP2 PUSH2 0x1B35 JUMP JUMPDEST PUSH1 0x60 PUSH2 0xED8 PUSH2 0x206A JUMP JUMPDEST SWAP1 POP PUSH2 0xEE4 DUP2 DUP4 PUSH2 0x20D8 JUMP JUMPDEST SWAP3 POP POP POP SWAP1 JUMP JUMPDEST PUSH2 0xEF9 DUP5 TIMESTAMP GT ISZERO PUSH1 0xD1 PUSH2 0x13CC JUMP JUMPDEST PUSH1 0x1 PUSH1 0x1 PUSH1 0xA0 SHL SUB DUP8 AND PUSH1 0x0 SWAP1 DUP2 MSTORE PUSH1 0x5 PUSH1 0x20 SWAP1 DUP2 MSTORE PUSH1 0x40 DUP1 DUP4 KECCAK256 SLOAD SWAP1 MLOAD SWAP1 SWAP3 SWAP2 PUSH2 0xF50 SWAP2 PUSH32 0x0 SWAP2 DUP13 SWAP2 DUP13 SWAP2 DUP13 SWAP2 DUP9 SWAP2 DUP14 SWAP2 ADD PUSH2 0x49BB JUMP JUMPDEST PUSH1 0x40 MLOAD PUSH1 0x20 DUP2 DUP4 SUB SUB DUP2 MSTORE SWAP1 PUSH1 0x40 MSTORE DUP1 MLOAD SWAP1 PUSH1 0x20 ADD KECCAK256 SWAP1 POP PUSH1 0x0 PUSH2 0xF73 DUP3 PUSH2 0x214A JUMP JUMPDEST SWAP1 POP PUSH1 0x0 PUSH1 0x1 DUP3 DUP9 DUP9 DUP9 PUSH1 0x40 MLOAD PUSH1 0x0 DUP2 MSTORE PUSH1 0x20 ADD PUSH1 0x40 MSTORE PUSH1 0x40 MLOAD PUSH2 0xF9A SWAP5 SWAP4 SWAP3 SWAP2 SWAP1 PUSH2 0x4A1B JUMP JUMPDEST PUSH1 0x20 PUSH1 0x40 MLOAD PUSH1 0x20 DUP2 SUB SWAP1 DUP1 DUP5 SUB SWAP1 DUP6 GAS STATICCALL ISZERO DUP1 ISZERO PUSH2 0xFBC JUMPI RETURNDATASIZE PUSH1 0x0 DUP1 RETURNDATACOPY RETURNDATASIZE PUSH1 0x0 REVERT JUMPDEST POP POP PUSH1 0x40 MLOAD PUSH1 0x1F NOT ADD MLOAD SWAP2 POP PUSH2 0xFFE SWAP1 POP PUSH1 0x1 PUSH1 0x1 PUSH1 0xA0 SHL SUB DUP3 AND ISZERO DUP1 ISZERO SWAP1 PUSH2 0xFF6 JUMPI POP DUP12 PUSH1 0x1 PUSH1 0x1 PUSH1 0xA0 SHL SUB AND DUP3 PUSH1 0x1 PUSH1 0x1 PUSH1 0xA0 SHL SUB AND EQ JUMPDEST PUSH2 0x1F8 PUSH2 0x13CC JUMP JUMPDEST PUSH1 0x1 PUSH1 0x1 PUSH1 0xA0 SHL SUB DUP12 AND PUSH1 0x0 SWAP1 DUP2 MSTORE PUSH1 0x5 PUSH1 0x20 MSTORE PUSH1 0x40 SWAP1 KECCAK256 PUSH1 0x1 DUP6 ADD SWAP1 SSTORE PUSH2 0x1027 DUP12 DUP12 DUP12 PUSH2 0x1246 JUMP JUMPDEST POP POP POP POP POP POP POP POP POP POP POP JUMP JUMPDEST PUSH1 0x60 DUP1 DUP9 PUSH2 0x1043 PUSH2 0xA6A PUSH2 0xBB6 JUMP JUMPDEST PUSH2 0x104E PUSH2 0xA90 PUSH2 0x806 JUMP JUMPDEST PUSH2 0x1056 PUSH2 0x1606 JUMP JUMPDEST PUSH1 0x0 PUSH2 0x1060 PUSH2 0x5EB JUMP JUMPDEST PUSH2 0x10D0 JUMPI PUSH2 0x1070 DUP12 DUP12 DUP12 DUP9 PUSH2 0x2166 JUMP JUMPDEST SWAP5 POP SWAP1 POP PUSH2 0x1085 PUSH3 0xF4240 DUP3 LT ISZERO PUSH1 0xCC PUSH2 0x13CC JUMP JUMPDEST PUSH2 0x1093 PUSH1 0x0 PUSH3 0xF4240 PUSH2 0x21EF JUMP JUMPDEST PUSH2 0x10A2 DUP10 PUSH3 0xF4240 DUP4 SUB PUSH2 0x21EF JUMP JUMPDEST PUSH2 0x10AB DUP5 PUSH2 0x1CAB JUMP JUMPDEST PUSH1 0x40 DUP1 MLOAD PUSH1 0x2 DUP1 DUP3 MSTORE PUSH1 0x60 DUP3 ADD DUP4 MSTORE SWAP1 SWAP2 PUSH1 0x20 DUP4 ADD SWAP1 DUP1 CALLDATASIZE DUP4 CALLDATACOPY ADD SWAP1 POP POP SWAP3 POP PUSH2 0x113E JUMP JUMPDEST PUSH2 0x10D9 DUP9 PUSH2 0x1B35 JUMP JUMPDEST PUSH2 0x110C DUP8 DUP10 PUSH1 0x0 DUP2 MLOAD DUP2 LT PUSH2 0x10EA JUMPI INVALID JUMPDEST PUSH1 0x20 MUL PUSH1 0x20 ADD ADD MLOAD DUP11 PUSH1 0x1 DUP2 MLOAD DUP2 LT PUSH2 0x10FF JUMPI INVALID JUMPDEST PUSH1 0x20 MUL PUSH1 0x20 ADD ADD MLOAD PUSH2 0x1DBD JUMP JUMPDEST PUSH2 0x111B DUP12 DUP12 DUP12 DUP12 DUP12 DUP12 DUP12 PUSH2 0x1C2A JUMP JUMPDEST SWAP1 SWAP6 POP SWAP4 POP SWAP1 POP PUSH2 0x112C DUP10 DUP3 PUSH2 0x21EF JUMP JUMPDEST PUSH2 0x1135 DUP5 PUSH2 0x1CAB JUMP JUMPDEST PUSH2 0x113E DUP4 PUSH2 0x18AE JUMP JUMPDEST PUSH2 0x1146 PUSH2 0x1659 JUMP JUMPDEST POP POP SWAP8 POP SWAP8 SWAP6 POP POP POP POP POP POP JUMP JUMPDEST CALLER PUSH1 0x0 DUP2 DUP2 MSTORE PUSH1 0x1 PUSH1 0x20 SWAP1 DUP2 MSTORE PUSH1 0x40 DUP1 DUP4 KECCAK256 PUSH1 0x1 PUSH1 0x1 PUSH1 0xA0 SHL SUB DUP8 AND DUP5 MSTORE SWAP1 SWAP2 MSTORE DUP2 KECCAK256 SLOAD SWAP1 SWAP2 PUSH2 0x5CD SWAP2 DUP6 SWAP1 PUSH2 0x957 SWAP1 DUP7 PUSH2 0x11C6 JUMP JUMPDEST PUSH1 0x1 PUSH1 0x1 PUSH1 0xA0 SHL SUB SWAP2 DUP3 AND PUSH1 0x0 SWAP1 DUP2 MSTORE PUSH1 0x1 PUSH1 0x20 SWAP1 DUP2 MSTORE PUSH1 0x40 DUP1 DUP4 KECCAK256 SWAP4 SWAP1 SWAP5 AND DUP3 MSTORE SWAP2 SWAP1 SWAP2 MSTORE KECCAK256 SLOAD SWAP1 JUMP JUMPDEST PUSH1 0x60 PUSH2 0x7E8 PUSH2 0x206A JUMP JUMPDEST PUSH3 0x1DE20 SWAP1 JUMP JUMPDEST PUSH1 0x0 DUP3 DUP3 ADD PUSH2 0x79E DUP5 DUP3 LT ISZERO DUP4 PUSH2 0x13CC JUMP JUMPDEST PUSH1 0x0 PUSH2 0x79E DUP4 DUP4 PUSH1 0x55 PUSH2 0x120A JUMP JUMPDEST PUSH1 0x0 PUSH2 0x79E DUP4 DUP4 PUSH1 0x56 PUSH2 0x1231 JUMP JUMPDEST PUSH1 0x0 PUSH2 0x1204 DUP4 DUP4 GT ISZERO PUSH1 0x1 PUSH2 0x13CC JUMP JUMPDEST POP SWAP1 SUB SWAP1 JUMP JUMPDEST PUSH1 0x0 PUSH1 0x1 DUP3 SHL NOT DUP5 AND DUP3 DUP5 PUSH2 0x1220 JUMPI PUSH1 0x0 PUSH2 0x1223 JUMP JUMPDEST PUSH1 0x1 JUMPDEST PUSH1 0xFF AND SWAP1 SHL OR SWAP5 SWAP4 POP POP POP POP JUMP JUMPDEST PUSH1 0x1 PUSH1 0x1 PUSH1 0x40 SHL SUB DUP2 SHL NOT SWAP3 SWAP1 SWAP3 AND SWAP2 SHL OR SWAP1 JUMP JUMPDEST PUSH1 0x1 PUSH1 0x1 PUSH1 0xA0 SHL SUB DUP1 DUP5 AND PUSH1 0x0 DUP2 DUP2 MSTORE PUSH1 0x1 PUSH1 0x20 SWAP1 DUP2 MSTORE PUSH1 0x40 DUP1 DUP4 KECCAK256 SWAP5 DUP8 AND DUP1 DUP5 MSTORE SWAP5 SWAP1 SWAP2 MSTORE SWAP1 DUP2 SWAP1 KECCAK256 DUP5 SWAP1 SSTORE MLOAD PUSH32 0x8C5BE1E5EBEC7D5BD14F71427D1E84F3DD0314C0F7B2291E5B200AC8C7C3B925 SWAP1 PUSH2 0x12A1 SWAP1 DUP6 SWAP1 PUSH2 0x4993 JUMP JUMPDEST PUSH1 0x40 MLOAD DUP1 SWAP2 SUB SWAP1 LOG3 POP POP POP JUMP JUMPDEST PUSH1 0x0 PUSH2 0x12C5 PUSH1 0x0 CALLDATALOAD PUSH1 0x1 PUSH1 0x1 PUSH1 0xE0 SHL SUB NOT AND PUSH2 0xB1B JUMP JUMPDEST SWAP1 POP PUSH2 0x5E8 PUSH2 0x12D4 DUP3 CALLER PUSH2 0x2285 JUMP JUMPDEST PUSH2 0x191 PUSH2 0x13CC JUMP JUMPDEST DUP1 ISZERO PUSH2 0x12FC JUMPI PUSH2 0x12F7 PUSH2 0x12ED PUSH2 0x1377 JUMP JUMPDEST TIMESTAMP LT PUSH2 0x193 PUSH2 0x13CC JUMP JUMPDEST PUSH2 0x1311 JUMP JUMPDEST PUSH2 0x1311 PUSH2 0x1307 PUSH2 0x139B JUMP JUMPDEST TIMESTAMP LT PUSH2 0x1A9 PUSH2 0x13CC JUMP JUMPDEST PUSH1 0x6 DUP1 SLOAD PUSH1 0xFF NOT AND DUP3 ISZERO ISZERO OR SWAP1 SSTORE PUSH1 0x40 MLOAD PUSH32 0x9E3A5E37224532DEA67B89FACE185703738A228A6E8A23DEE546960180D3BE64 SWAP1 PUSH2 0x134F SWAP1 DUP4 SWAP1 PUSH2 0x4970 JUMP JUMPDEST PUSH1 0x40 MLOAD DUP1 SWAP2 SUB SWAP1 LOG1 POP JUMP JUMPDEST PUSH1 0x0 PUSH2 0x1364 PUSH2 0x139B JUMP JUMPDEST TIMESTAMP GT DUP1 PUSH2 0x7E8 JUMPI POP POP PUSH1 0x6 SLOAD PUSH1 0xFF AND ISZERO SWAP1 JUMP JUMPDEST PUSH32 0x0 SWAP1 JUMP JUMPDEST PUSH32 0x0 SWAP1 JUMP JUMPDEST PUSH1 0x0 PUSH2 0x5D1 DUP3 PUSH1 0x4B PUSH2 0x2375 JUMP JUMPDEST DUP2 PUSH2 0x13DA JUMPI PUSH2 0x13DA DUP2 PUSH2 0x237D JUMP JUMPDEST POP POP JUMP JUMPDEST PUSH1 0x0 PUSH2 0x13EF DUP3 TIMESTAMP LT ISZERO PUSH2 0x138 PUSH2 0x13CC JUMP JUMPDEST TIMESTAMP DUP3 SWAP1 SUB PUSH1 0x0 PUSH2 0x13FE DUP6 PUSH2 0x1A4B JUMP JUMPDEST SWAP1 POP PUSH1 0x0 PUSH2 0x140B DUP3 PUSH2 0x23D0 JUMP JUMPDEST SWAP1 POP PUSH2 0x141C PUSH1 0x0 DUP3 GT PUSH2 0x139 PUSH2 0x13CC JUMP JUMPDEST DUP3 DUP2 GT PUSH2 0x1448 JUMPI DUP1 DUP4 SUB DUP1 PUSH2 0x1431 DUP5 DUP11 PUSH2 0x23DC JUMP JUMPDEST MUL PUSH2 0x143C DUP5 DUP11 PUSH2 0x2420 JUMP JUMPDEST ADD SWAP5 POP POP POP POP POP PUSH2 0x79E JUMP JUMPDEST PUSH1 0x0 PUSH2 0x1453 DUP8 PUSH2 0x2464 JUMP JUMPDEST SWAP1 POP PUSH1 0x0 PUSH2 0x1460 DUP3 PUSH2 0x1A4B JUMP JUMPDEST SWAP1 POP PUSH1 0x0 PUSH2 0x146D DUP3 PUSH2 0x23D0 JUMP JUMPDEST SWAP1 POP PUSH2 0x147E PUSH1 0x0 DUP3 GT PUSH2 0x139 PUSH2 0x13CC JUMP JUMPDEST PUSH2 0x148D DUP7 DUP3 GT ISZERO PUSH2 0x13A PUSH2 0x13CC JUMP JUMPDEST POP POP PUSH1 0x0 DUP1 PUSH2 0x149C DUP7 DUP5 PUSH2 0x2471 JUMP JUMPDEST SWAP2 POP SWAP2 POP PUSH1 0x0 PUSH2 0x14AB DUP4 PUSH2 0x23D0 JUMP JUMPDEST PUSH2 0x14B4 DUP4 PUSH2 0x23D0 JUMP JUMPDEST SUB SWAP1 POP DUP1 ISZERO PUSH2 0x150C JUMPI PUSH1 0x0 PUSH2 0x14C9 DUP5 DUP14 PUSH2 0x2420 JUMP JUMPDEST PUSH2 0x14D3 DUP5 DUP15 PUSH2 0x2420 JUMP JUMPDEST SUB SWAP1 POP PUSH1 0x0 PUSH2 0x14E1 DUP6 PUSH2 0x23D0 JUMP JUMPDEST DUP10 SUB SWAP1 POP DUP3 DUP2 DUP4 MUL DUP2 PUSH2 0x14F0 JUMPI INVALID JUMPDEST SDIV PUSH2 0x14FB DUP7 DUP16 PUSH2 0x2420 JUMP JUMPDEST ADD SWAP10 POP POP POP POP POP POP POP POP POP POP PUSH2 0x79E JUMP JUMPDEST PUSH2 0x1516 DUP4 DUP13 PUSH2 0x2420 JUMP JUMPDEST SWAP8 POP POP POP POP POP POP POP POP PUSH2 0x79E JUMP JUMPDEST PUSH1 0x0 PUSH2 0x5D1 PUSH6 0x5AF3107A4000 DUP4 MUL PUSH2 0x2524 JUMP JUMPDEST PUSH1 0x1 PUSH1 0x1 PUSH1 0xA0 SHL SUB DUP4 AND PUSH1 0x0 SWAP1 DUP2 MSTORE PUSH1 0x20 DUP2 SWAP1 MSTORE PUSH1 0x40 SWAP1 KECCAK256 SLOAD PUSH2 0x155F DUP3 DUP3 LT ISZERO PUSH2 0x196 PUSH2 0x13CC JUMP JUMPDEST PUSH2 0x1576 PUSH1 0x1 PUSH1 0x1 PUSH1 0xA0 SHL SUB DUP5 AND ISZERO ISZERO PUSH2 0x199 PUSH2 0x13CC JUMP JUMPDEST PUSH1 0x1 PUSH1 0x1 PUSH1 0xA0 SHL SUB DUP1 DUP6 AND PUSH1 0x0 SWAP1 DUP2 MSTORE PUSH1 0x20 DUP2 SWAP1 MSTORE PUSH1 0x40 DUP1 DUP3 KECCAK256 DUP6 DUP6 SUB SWAP1 SSTORE SWAP2 DUP6 AND DUP2 MSTORE KECCAK256 SLOAD PUSH2 0x15A6 SWAP1 DUP4 PUSH2 0x11C6 JUMP JUMPDEST PUSH1 0x1 PUSH1 0x1 PUSH1 0xA0 SHL SUB DUP1 DUP6 AND PUSH1 0x0 DUP2 DUP2 MSTORE PUSH1 0x20 DUP2 SWAP1 MSTORE PUSH1 0x40 SWAP1 DUP2 SWAP1 KECCAK256 SWAP4 SWAP1 SWAP4 SSTORE SWAP2 MLOAD SWAP1 DUP7 AND SWAP1 PUSH32 0xDDF252AD1BE2C89B69C2B068FC378DAA952BA7F163C4A11628F55A4DF523B3EF SWAP1 PUSH2 0x15F8 SWAP1 DUP7 SWAP1 PUSH2 0x4993 JUMP JUMPDEST PUSH1 0x40 MLOAD DUP1 SWAP2 SUB SWAP1 LOG3 POP POP POP POP JUMP JUMPDEST PUSH2 0x7D7 PUSH2 0x1611 PUSH2 0x135A JUMP JUMPDEST PUSH2 0x192 PUSH2 0x13CC JUMP JUMPDEST PUSH1 0x8 SLOAD PUSH2 0x1626 SWAP1 DUP3 PUSH2 0x11D8 JUMP JUMPDEST PUSH1 0x8 SSTORE PUSH1 0x40 MLOAD PUSH32 0x3E350B41E86A8E10F804ADE6D35340D620BE35569CC75AC943E8BB14AB80EAD1 SWAP1 PUSH2 0x134F SWAP1 DUP4 SWAP1 PUSH2 0x4970 JUMP JUMPDEST PUSH1 0x8 SLOAD PUSH2 0x1665 DUP2 PUSH2 0x17CD JUMP JUMPDEST ISZERO PUSH2 0x5E8 JUMPI PUSH2 0x167F PUSH2 0x1678 PUSH1 0x9 SLOAD PUSH2 0x2901 JUMP JUMPDEST DUP3 SWAP1 PUSH2 0x2945 JUMP JUMPDEST SWAP1 POP PUSH2 0x169B PUSH2 0x1694 PUSH2 0x168F PUSH2 0x5EB JUMP JUMPDEST PUSH2 0x2901 JUMP JUMPDEST DUP3 SWAP1 PUSH2 0x2952 JUMP JUMPDEST PUSH1 0x8 SSTORE POP JUMP JUMPDEST PUSH1 0x0 PUSH32 0x0 PUSH32 0x0 PUSH32 0x0 PUSH2 0x170E PUSH2 0x2960 JUMP JUMPDEST ADDRESS PUSH1 0x40 MLOAD PUSH1 0x20 ADD PUSH2 0x1723 SWAP6 SWAP5 SWAP4 SWAP3 SWAP2 SWAP1 PUSH2 0x49EF JUMP JUMPDEST PUSH1 0x40 MLOAD PUSH1 0x20 DUP2 DUP4 SUB SUB DUP2 MSTORE SWAP1 PUSH1 0x40 MSTORE DUP1 MLOAD SWAP1 PUSH1 0x20 ADD KECCAK256 SWAP1 POP SWAP1 JUMP JUMPDEST PUSH2 0x1751 PUSH5 0xE8D4A51000 DUP3 LT ISZERO PUSH1 0xCB PUSH2 0x13CC JUMP JUMPDEST PUSH2 0x1767 PUSH8 0x16345785D8A0000 DUP3 GT ISZERO PUSH1 0xCA PUSH2 0x13CC JUMP JUMPDEST PUSH1 0x8 SLOAD PUSH2 0x1774 SWAP1 DUP3 PUSH2 0x11E6 JUMP JUMPDEST PUSH1 0x8 SSTORE PUSH1 0x40 MLOAD PUSH32 0xA9BA3FFE0B6C366B81232CAAB38605A0699AD5398D6CCE76F91EE809E322DAFC SWAP1 PUSH2 0x134F SWAP1 DUP4 SWAP1 PUSH2 0x4993 JUMP JUMPDEST PUSH1 0x0 PUSH2 0x5D1 DUP3 DUP3 PUSH2 0x2964 JUMP JUMPDEST PUSH1 0x0 PUSH2 0x5D1 DUP3 PUSH1 0x16 PUSH2 0x2964 JUMP JUMPDEST PUSH1 0x0 PUSH2 0x5D1 DUP3 PUSH1 0x2C PUSH2 0x298B JUMP JUMPDEST PUSH1 0x0 PUSH2 0x5D1 DUP3 PUSH1 0x55 PUSH2 0x2995 JUMP JUMPDEST PUSH1 0x0 PUSH2 0x5D1 DUP3 PUSH1 0x56 PUSH2 0x299F JUMP JUMPDEST PUSH2 0x13DA DUP2 DUP4 EQ PUSH1 0x67 PUSH2 0x13CC JUMP JUMPDEST PUSH1 0x0 PUSH1 0x60 DUP1 PUSH1 0x60 PUSH2 0x1803 PUSH2 0x206A JUMP JUMPDEST SWAP1 POP PUSH2 0x180D PUSH2 0x135A JUMP JUMPDEST ISZERO PUSH2 0x1855 JUMPI PUSH2 0x1823 DUP8 DUP10 PUSH1 0x0 DUP2 MLOAD DUP2 LT PUSH2 0x10EA JUMPI INVALID JUMPDEST PUSH1 0x0 PUSH2 0x182F DUP3 DUP11 PUSH2 0x20D8 JUMP JUMPDEST SWAP1 POP PUSH2 0x1840 DUP10 DUP4 PUSH1 0x9 SLOAD DUP5 DUP12 PUSH2 0x29AC JUMP JUMPDEST SWAP3 POP PUSH2 0x184F DUP10 DUP5 PUSH2 0x11F4 PUSH2 0x2A90 JUMP JUMPDEST POP PUSH2 0x1876 JUMP JUMPDEST PUSH1 0x40 DUP1 MLOAD PUSH1 0x2 DUP1 DUP3 MSTORE PUSH1 0x60 DUP3 ADD DUP4 MSTORE SWAP1 SWAP2 PUSH1 0x20 DUP4 ADD SWAP1 DUP1 CALLDATASIZE DUP4 CALLDATACOPY ADD SWAP1 POP POP SWAP2 POP JUMPDEST PUSH2 0x1881 DUP9 DUP3 DUP8 PUSH2 0x2B22 JUMP JUMPDEST SWAP1 SWAP5 POP SWAP3 POP PUSH2 0x1893 DUP9 DUP5 PUSH2 0x11F4 PUSH2 0x2A90 JUMP JUMPDEST PUSH2 0x189D DUP2 DUP10 PUSH2 0x20D8 JUMP JUMPDEST PUSH1 0x9 SSTORE POP SWAP8 POP SWAP8 POP SWAP8 SWAP5 POP POP POP POP POP JUMP JUMPDEST PUSH2 0x18D5 DUP2 PUSH1 0x0 DUP2 MLOAD DUP2 LT PUSH2 0x18BE JUMPI INVALID JUMPDEST PUSH1 0x20 MUL PUSH1 0x20 ADD ADD MLOAD PUSH2 0x18D0 PUSH1 0x1 PUSH2 0x1D09 JUMP JUMPDEST PUSH2 0x2B8F JUMP JUMPDEST DUP2 PUSH1 0x0 DUP2 MLOAD DUP2 LT PUSH2 0x18E2 JUMPI INVALID JUMPDEST PUSH1 0x20 MUL PUSH1 0x20 ADD ADD DUP2 DUP2 MSTORE POP POP PUSH2 0x1910 DUP2 PUSH1 0x1 DUP2 MLOAD DUP2 LT PUSH2 0x18FE JUMPI INVALID JUMPDEST PUSH1 0x20 MUL PUSH1 0x20 ADD ADD MLOAD PUSH2 0x18D0 PUSH1 0x0 PUSH2 0x1D09 JUMP JUMPDEST DUP2 PUSH1 0x1 DUP2 MLOAD DUP2 LT PUSH2 0x191D JUMPI INVALID JUMPDEST PUSH1 0x20 MUL PUSH1 0x20 ADD ADD DUP2 DUP2 MSTORE POP POP POP JUMP JUMPDEST CALLER ADDRESS EQ PUSH2 0x19EA JUMPI PUSH1 0x0 ADDRESS PUSH1 0x1 PUSH1 0x1 PUSH1 0xA0 SHL SUB AND PUSH1 0x0 CALLDATASIZE PUSH1 0x40 MLOAD PUSH2 0x1950 SWAP3 SWAP2 SWAP1 PUSH2 0x48B5 JUMP JUMPDEST PUSH1 0x0 PUSH1 0x40 MLOAD DUP1 DUP4 SUB DUP2 PUSH1 0x0 DUP7 GAS CALL SWAP2 POP POP RETURNDATASIZE DUP1 PUSH1 0x0 DUP2 EQ PUSH2 0x198D JUMPI PUSH1 0x40 MLOAD SWAP2 POP PUSH1 0x1F NOT PUSH1 0x3F RETURNDATASIZE ADD AND DUP3 ADD PUSH1 0x40 MSTORE RETURNDATASIZE DUP3 MSTORE RETURNDATASIZE PUSH1 0x0 PUSH1 0x20 DUP5 ADD RETURNDATACOPY PUSH2 0x1992 JUMP JUMPDEST PUSH1 0x60 SWAP2 POP JUMPDEST POP POP SWAP1 POP DUP1 PUSH1 0x0 DUP2 EQ PUSH2 0x19A1 JUMPI INVALID JUMPDEST PUSH1 0x4 PUSH1 0x0 DUP1 RETURNDATACOPY PUSH1 0x0 MLOAD PUSH1 0x1 PUSH1 0x1 PUSH1 0xE0 SHL SUB NOT AND PUSH4 0x43ADBAFB PUSH1 0xE0 SHL DUP2 EQ PUSH2 0x19CC JUMPI RETURNDATASIZE PUSH1 0x0 DUP1 RETURNDATACOPY RETURNDATASIZE PUSH1 0x0 REVERT JUMPDEST POP PUSH1 0x20 PUSH1 0x4 PUSH1 0x0 RETURNDATACOPY PUSH1 0x40 PUSH1 0x20 MSTORE PUSH1 0x24 RETURNDATASIZE SUB PUSH1 0x24 PUSH1 0x40 RETURNDATACOPY PUSH1 0x1C RETURNDATASIZE ADD PUSH1 0x0 RETURN JUMPDEST PUSH2 0x19F3 DUP7 PUSH2 0x1B35 JUMP JUMPDEST PUSH1 0x0 PUSH1 0x60 PUSH2 0x1A0A DUP12 DUP12 DUP12 DUP12 DUP12 DUP12 DUP12 DUP12 PUSH4 0xFFFFFFFF AND JUMP JUMPDEST POP SWAP2 POP SWAP2 POP PUSH2 0x1A1C DUP2 DUP5 PUSH4 0xFFFFFFFF AND JUMP JUMPDEST DUP1 MLOAD PUSH1 0x1F NOT DUP3 ADD DUP4 SWAP1 MSTORE PUSH4 0x43ADBAFB PUSH1 0x3F NOT DUP4 ADD MSTORE PUSH1 0x20 MUL PUSH1 0x23 NOT DUP3 ADD PUSH1 0x44 DUP3 ADD DUP2 REVERT JUMPDEST POP POP POP POP POP POP POP POP POP JUMP JUMPDEST PUSH1 0x0 SWAP1 DUP2 MSTORE PUSH1 0x7 PUSH1 0x20 MSTORE PUSH1 0x40 SWAP1 KECCAK256 SLOAD SWAP1 JUMP JUMPDEST PUSH1 0x0 DUP1 PUSH1 0x0 DUP1 PUSH1 0x0 DUP1 PUSH1 0x0 PUSH2 0x1A71 DUP9 PUSH2 0x2BAF JUMP JUMPDEST SWAP7 POP PUSH2 0x1A7C DUP9 PUSH2 0x2BBC JUMP JUMPDEST SWAP6 POP PUSH2 0x1A87 DUP9 PUSH2 0x2BC9 JUMP JUMPDEST SWAP5 POP PUSH2 0x1A92 DUP9 PUSH2 0x2BD6 JUMP JUMPDEST SWAP4 POP PUSH2 0x1A9D DUP9 PUSH2 0x2BE3 JUMP JUMPDEST SWAP3 POP PUSH2 0x1AA8 DUP9 PUSH2 0x2BF0 JUMP JUMPDEST SWAP2 POP PUSH2 0x1AB3 DUP9 PUSH2 0x23D0 JUMP JUMPDEST SWAP1 POP SWAP2 SWAP4 SWAP6 SWAP8 SWAP1 SWAP3 SWAP5 SWAP7 POP JUMP JUMPDEST PUSH1 0x0 DUP3 DUP3 MUL PUSH2 0x79E DUP5 ISZERO DUP1 PUSH2 0x1ADD JUMPI POP DUP4 DUP6 DUP4 DUP2 PUSH2 0x1ADA JUMPI INVALID JUMPDEST DIV EQ JUMPDEST PUSH1 0x3 PUSH2 0x13CC JUMP JUMPDEST PUSH1 0x0 PUSH2 0x1AF3 DUP3 ISZERO ISZERO PUSH1 0x4 PUSH2 0x13CC JUMP JUMPDEST DUP3 PUSH2 0x1B00 JUMPI POP PUSH1 0x0 PUSH2 0x5D1 JUMP JUMPDEST PUSH8 0xDE0B6B3A7640000 DUP4 DUP2 MUL SWAP1 PUSH2 0x1B23 SWAP1 DUP6 DUP4 DUP2 PUSH2 0x1B1A JUMPI INVALID JUMPDEST DIV EQ PUSH1 0x5 PUSH2 0x13CC JUMP JUMPDEST DUP3 DUP2 DUP2 PUSH2 0x1B2C JUMPI INVALID JUMPDEST DIV SWAP2 POP POP PUSH2 0x5D1 JUMP JUMPDEST PUSH2 0x1B5C DUP2 PUSH1 0x0 DUP2 MLOAD DUP2 LT PUSH2 0x1B45 JUMPI INVALID JUMPDEST PUSH1 0x20 MUL PUSH1 0x20 ADD ADD MLOAD PUSH2 0x1B57 PUSH1 0x1 PUSH2 0x1D09 JUMP JUMPDEST PUSH2 0x1AC0 JUMP JUMPDEST DUP2 PUSH1 0x0 DUP2 MLOAD DUP2 LT PUSH2 0x1B69 JUMPI INVALID JUMPDEST PUSH1 0x20 MUL PUSH1 0x20 ADD ADD DUP2 DUP2 MSTORE POP POP PUSH2 0x1910 DUP2 PUSH1 0x1 DUP2 MLOAD DUP2 LT PUSH2 0x1B85 JUMPI INVALID JUMPDEST PUSH1 0x20 MUL PUSH1 0x20 ADD ADD MLOAD PUSH2 0x1B57 PUSH1 0x0 PUSH2 0x1D09 JUMP JUMPDEST PUSH1 0x1 PUSH1 0x1 PUSH1 0xA0 SHL SUB DUP3 AND PUSH1 0x0 SWAP1 DUP2 MSTORE PUSH1 0x20 DUP2 SWAP1 MSTORE PUSH1 0x40 SWAP1 KECCAK256 SLOAD PUSH2 0x1BBF DUP3 DUP3 LT ISZERO PUSH2 0x196 PUSH2 0x13CC JUMP JUMPDEST PUSH1 0x1 PUSH1 0x1 PUSH1 0xA0 SHL SUB DUP4 AND PUSH1 0x0 SWAP1 DUP2 MSTORE PUSH1 0x20 DUP2 SWAP1 MSTORE PUSH1 0x40 SWAP1 KECCAK256 DUP3 DUP3 SUB SWAP1 SSTORE PUSH1 0x2 SLOAD PUSH2 0x1BE9 SWAP1 DUP4 PUSH2 0x11F4 JUMP JUMPDEST PUSH1 0x2 SSTORE PUSH1 0x40 MLOAD PUSH1 0x0 SWAP1 PUSH1 0x1 PUSH1 0x1 PUSH1 0xA0 SHL SUB DUP6 AND SWAP1 PUSH32 0xDDF252AD1BE2C89B69C2B068FC378DAA952BA7F163C4A11628F55A4DF523B3EF SWAP1 PUSH2 0x12A1 SWAP1 DUP7 SWAP1 PUSH2 0x4993 JUMP JUMPDEST PUSH1 0x0 PUSH1 0x60 DUP1 PUSH1 0x60 PUSH2 0x1C39 PUSH2 0x206A JUMP JUMPDEST SWAP1 POP PUSH1 0x0 PUSH2 0x1C47 DUP3 DUP11 PUSH2 0x20D8 JUMP JUMPDEST SWAP1 POP PUSH1 0x60 PUSH2 0x1C5A DUP11 DUP5 PUSH1 0x9 SLOAD DUP6 DUP13 PUSH2 0x29AC JUMP JUMPDEST SWAP1 POP PUSH2 0x1C69 DUP11 DUP3 PUSH2 0x11F4 PUSH2 0x2A90 JUMP JUMPDEST PUSH1 0x0 PUSH1 0x60 PUSH2 0x1C78 DUP13 DUP7 DUP12 PUSH2 0x2BFD JUMP JUMPDEST SWAP2 POP SWAP2 POP PUSH2 0x1C89 DUP13 DUP3 PUSH2 0x11C6 PUSH2 0x2A90 JUMP JUMPDEST PUSH2 0x1C93 DUP6 DUP14 PUSH2 0x20D8 JUMP JUMPDEST PUSH1 0x9 SSTORE SWAP1 SWAP15 SWAP1 SWAP14 POP SWAP1 SWAP12 POP SWAP10 POP POP POP POP POP POP POP POP POP POP JUMP JUMPDEST PUSH2 0x1CD2 DUP2 PUSH1 0x0 DUP2 MLOAD DUP2 LT PUSH2 0x1CBB JUMPI INVALID JUMPDEST PUSH1 0x20 MUL PUSH1 0x20 ADD ADD MLOAD PUSH2 0x1CCD PUSH1 0x1 PUSH2 0x1D09 JUMP JUMPDEST PUSH2 0x2C57 JUMP JUMPDEST DUP2 PUSH1 0x0 DUP2 MLOAD DUP2 LT PUSH2 0x1CDF JUMPI INVALID JUMPDEST PUSH1 0x20 MUL PUSH1 0x20 ADD ADD DUP2 DUP2 MSTORE POP POP PUSH2 0x1910 DUP2 PUSH1 0x1 DUP2 MLOAD DUP2 LT PUSH2 0x1CFB JUMPI INVALID JUMPDEST PUSH1 0x20 MUL PUSH1 0x20 ADD ADD MLOAD PUSH2 0x1CCD PUSH1 0x0 JUMPDEST PUSH1 0x0 DUP2 PUSH2 0x1D36 JUMPI PUSH32 0x0 PUSH2 0x5D1 JUMP JUMPDEST POP PUSH32 0x0 SWAP2 SWAP1 POP JUMP JUMPDEST PUSH1 0x0 DUP2 PUSH2 0x1D8A JUMPI PUSH32 0x0 PUSH2 0x5D1 JUMP JUMPDEST POP PUSH32 0x0 SWAP2 SWAP1 POP JUMP JUMPDEST PUSH1 0x0 PUSH2 0x79E DUP4 DUP4 PUSH2 0x1AC0 JUMP JUMPDEST PUSH1 0x8 SLOAD PUSH2 0x1DC9 DUP2 PUSH2 0x17CD JUMP JUMPDEST DUP1 ISZERO PUSH2 0x1DD4 JUMPI POP DUP4 NUMBER GT JUMPDEST ISZERO PUSH2 0x1EBD JUMPI PUSH1 0x0 PUSH2 0x1E27 PUSH32 0x0 DUP6 PUSH32 0x0 DUP7 PUSH2 0x2C8A JUMP JUMPDEST SWAP1 POP PUSH1 0x0 PUSH2 0x1E5E PUSH32 0x0 DUP7 PUSH2 0x1E59 DUP7 PUSH2 0x17B3 JUMP JUMPDEST PUSH2 0x2CBF JUMP JUMPDEST SWAP1 POP PUSH1 0x0 PUSH2 0x1E6B DUP5 PUSH2 0x13BF JUMP JUMPDEST SWAP1 POP PUSH1 0x0 PUSH2 0x1E78 DUP6 PUSH2 0x17C0 JUMP JUMPDEST SWAP1 POP PUSH1 0x0 PUSH2 0x1E91 DUP3 DUP5 DUP8 DUP8 PUSH2 0x1E8C DUP12 PUSH2 0x17A7 JUMP JUMPDEST PUSH2 0x2CDB JUMP JUMPDEST SWAP1 POP DUP1 DUP4 EQ PUSH2 0x1A40 JUMPI PUSH2 0x1EA4 DUP7 DUP3 PUSH2 0x2D32 JUMP JUMPDEST SWAP6 POP PUSH2 0x1EB0 DUP7 TIMESTAMP PUSH2 0x2D40 JUMP JUMPDEST PUSH1 0x8 DUP2 SWAP1 SSTORE SWAP6 POP POP POP POP POP POP JUMPDEST POP POP POP POP JUMP JUMPDEST PUSH1 0x0 DUP3 DUP3 MUL PUSH2 0x1EDD DUP5 ISZERO DUP1 PUSH2 0x1ADD JUMPI POP DUP4 DUP6 DUP4 DUP2 PUSH2 0x1ADA JUMPI INVALID JUMPDEST DUP1 PUSH2 0x1EEC JUMPI PUSH1 0x0 SWAP2 POP POP PUSH2 0x5D1 JUMP JUMPDEST PUSH8 0xDE0B6B3A7640000 PUSH1 0x0 NOT DUP3 ADD JUMPDEST DIV PUSH1 0x1 ADD SWAP2 POP POP PUSH2 0x5D1 JUMP JUMPDEST PUSH1 0x0 PUSH2 0x1F1A DUP6 DUP5 DUP7 DUP6 DUP11 PUSH1 0x60 ADD MLOAD PUSH2 0x2D4E JUMP JUMPDEST SWAP1 POP JUMPDEST SWAP6 SWAP5 POP POP POP POP POP JUMP JUMPDEST PUSH1 0x0 PUSH2 0x79E DUP4 DUP4 PUSH2 0x2B8F JUMP JUMPDEST PUSH1 0x0 PUSH2 0x1F1A DUP6 DUP5 DUP7 DUP6 DUP11 PUSH1 0x60 ADD MLOAD PUSH2 0x2DC9 JUMP JUMPDEST PUSH1 0x0 PUSH2 0x79E DUP4 DUP4 PUSH2 0x2C57 JUMP JUMPDEST PUSH1 0x0 PUSH8 0xDE0B6B3A7640000 DUP3 LT PUSH2 0x1F69 JUMPI PUSH1 0x0 PUSH2 0x5D1 JUMP JUMPDEST POP PUSH8 0xDE0B6B3A7640000 SUB SWAP1 JUMP JUMPDEST PUSH1 0x0 PUSH2 0x1F86 DUP3 ISZERO ISZERO PUSH1 0x4 PUSH2 0x13CC JUMP JUMPDEST DUP3 PUSH2 0x1F93 JUMPI POP PUSH1 0x0 PUSH2 0x5D1 JUMP JUMPDEST PUSH8 0xDE0B6B3A7640000 DUP4 DUP2 MUL SWAP1 PUSH2 0x1FAD SWAP1 DUP6 DUP4 DUP2 PUSH2 0x1B1A JUMPI INVALID JUMPDEST DUP3 PUSH1 0x1 DUP3 SUB DUP2 PUSH2 0x1EFB JUMPI INVALID JUMPDEST PUSH1 0x0 PUSH2 0x1FC3 PUSH2 0xBB6 JUMP JUMPDEST PUSH1 0x1 PUSH1 0x1 PUSH1 0xA0 SHL SUB AND PUSH4 0xAAABADC5 PUSH1 0x40 MLOAD DUP2 PUSH4 0xFFFFFFFF AND PUSH1 0xE0 SHL DUP2 MSTORE PUSH1 0x4 ADD PUSH1 0x20 PUSH1 0x40 MLOAD DUP1 DUP4 SUB DUP2 DUP7 DUP1 EXTCODESIZE ISZERO DUP1 ISZERO PUSH2 0x1FFB JUMPI PUSH1 0x0 DUP1 REVERT JUMPDEST POP GAS STATICCALL ISZERO DUP1 ISZERO PUSH2 0x200F JUMPI RETURNDATASIZE PUSH1 0x0 DUP1 RETURNDATACOPY RETURNDATASIZE PUSH1 0x0 REVERT JUMPDEST POP POP POP POP PUSH1 0x40 MLOAD RETURNDATASIZE PUSH1 0x1F NOT PUSH1 0x1F DUP3 ADD AND DUP3 ADD DUP1 PUSH1 0x40 MSTORE POP DUP2 ADD SWAP1 PUSH2 0x7E8 SWAP2 SWAP1 PUSH2 0x4605 JUMP JUMPDEST PUSH1 0x0 DUP1 PUSH2 0x203F DUP4 PUSH2 0x1A4B JUMP JUMPDEST SWAP1 POP PUSH2 0x2058 PUSH1 0x0 PUSH2 0x204F DUP4 PUSH2 0x23D0 JUMP JUMPDEST GT PUSH2 0x139 PUSH2 0x13CC JUMP JUMPDEST PUSH2 0x2062 DUP2 DUP6 PUSH2 0x23DC JUMP JUMPDEST SWAP5 SWAP4 POP POP POP POP JUMP JUMPDEST PUSH1 0x40 DUP1 MLOAD PUSH1 0x2 DUP1 DUP3 MSTORE PUSH1 0x60 DUP1 DUP4 ADD DUP5 MSTORE SWAP3 DUP4 SWAP3 SWAP2 SWAP1 PUSH1 0x20 DUP4 ADD SWAP1 DUP1 CALLDATASIZE DUP4 CALLDATACOPY ADD SWAP1 POP POP SWAP1 POP PUSH2 0x2098 PUSH1 0x1 PUSH2 0x1D5D JUMP JUMPDEST DUP2 PUSH1 0x0 DUP2 MLOAD DUP2 LT PUSH2 0x20A5 JUMPI INVALID JUMPDEST PUSH1 0x20 MUL PUSH1 0x20 ADD ADD DUP2 DUP2 MSTORE POP POP PUSH2 0x20BB PUSH1 0x0 PUSH2 0x1D5D JUMP JUMPDEST DUP2 PUSH1 0x1 DUP2 MLOAD DUP2 LT PUSH2 0x20C8 JUMPI INVALID JUMPDEST PUSH1 0x20 SWAP1 DUP2 MUL SWAP2 SWAP1 SWAP2 ADD ADD MSTORE SWAP1 POP SWAP1 JUMP JUMPDEST PUSH8 0xDE0B6B3A7640000 PUSH1 0x0 JUMPDEST DUP4 MLOAD DUP2 LT ISZERO PUSH2 0x213A JUMPI PUSH2 0x2130 PUSH2 0x2129 DUP6 DUP4 DUP2 MLOAD DUP2 LT PUSH2 0x20FF JUMPI INVALID JUMPDEST PUSH1 0x20 MUL PUSH1 0x20 ADD ADD MLOAD DUP6 DUP5 DUP2 MLOAD DUP2 LT PUSH2 0x2113 JUMPI INVALID JUMPDEST PUSH1 0x20 MUL PUSH1 0x20 ADD ADD MLOAD PUSH2 0x2E3F SWAP1 SWAP2 SWAP1 PUSH4 0xFFFFFFFF AND JUMP JUMPDEST DUP4 SWAP1 PUSH2 0x2E8E JUMP JUMPDEST SWAP2 POP PUSH1 0x1 ADD PUSH2 0x20E4 JUMP JUMPDEST POP PUSH2 0x5D1 PUSH1 0x0 DUP3 GT PUSH2 0x137 PUSH2 0x13CC JUMP JUMPDEST PUSH1 0x0 PUSH2 0x2154 PUSH2 0x16A1 JUMP JUMPDEST DUP3 PUSH1 0x40 MLOAD PUSH1 0x20 ADD PUSH2 0xB50 SWAP3 SWAP2 SWAP1 PUSH2 0x48C5 JUMP JUMPDEST PUSH1 0x0 PUSH1 0x60 PUSH1 0x0 PUSH2 0x2175 DUP5 PUSH2 0x2EBA JUMP JUMPDEST SWAP1 POP PUSH2 0x2190 PUSH1 0x0 DUP3 PUSH1 0x2 DUP2 GT ISZERO PUSH2 0x2188 JUMPI INVALID JUMPDEST EQ PUSH1 0xCE PUSH2 0x13CC JUMP JUMPDEST PUSH1 0x60 PUSH2 0x219B DUP6 PUSH2 0x2ED0 JUMP JUMPDEST SWAP1 POP PUSH2 0x21A9 DUP2 MLOAD PUSH1 0x2 PUSH2 0x17E7 JUMP JUMPDEST PUSH2 0x21B2 DUP2 PUSH2 0x1B35 JUMP JUMPDEST PUSH1 0x60 PUSH2 0x21BC PUSH2 0x206A JUMP JUMPDEST SWAP1 POP PUSH1 0x0 PUSH2 0x21CA DUP3 DUP5 PUSH2 0x20D8 JUMP JUMPDEST SWAP1 POP PUSH1 0x0 PUSH2 0x21D9 DUP3 PUSH1 0x2 PUSH2 0x1AC0 JUMP JUMPDEST PUSH1 0x9 SWAP3 SWAP1 SWAP3 SSTORE POP SWAP10 SWAP2 SWAP9 POP SWAP1 SWAP7 POP POP POP POP POP POP POP JUMP JUMPDEST PUSH1 0x1 PUSH1 0x1 PUSH1 0xA0 SHL SUB DUP3 AND PUSH1 0x0 SWAP1 DUP2 MSTORE PUSH1 0x20 DUP2 SWAP1 MSTORE PUSH1 0x40 SWAP1 KECCAK256 SLOAD PUSH2 0x2212 SWAP1 DUP3 PUSH2 0x11C6 JUMP JUMPDEST PUSH1 0x1 PUSH1 0x1 PUSH1 0xA0 SHL SUB DUP4 AND PUSH1 0x0 SWAP1 DUP2 MSTORE PUSH1 0x20 DUP2 SWAP1 MSTORE PUSH1 0x40 SWAP1 KECCAK256 SSTORE PUSH1 0x2 SLOAD PUSH2 0x2238 SWAP1 DUP3 PUSH2 0x11C6 JUMP JUMPDEST PUSH1 0x2 SSTORE PUSH1 0x40 MLOAD PUSH1 0x1 PUSH1 0x1 PUSH1 0xA0 SHL SUB DUP4 AND SWAP1 PUSH1 0x0 SWAP1 PUSH32 0xDDF252AD1BE2C89B69C2B068FC378DAA952BA7F163C4A11628F55A4DF523B3EF SWAP1 PUSH2 0x2279 SWAP1 DUP6 SWAP1 PUSH2 0x4993 JUMP JUMPDEST PUSH1 0x40 MLOAD DUP1 SWAP2 SUB SWAP1 LOG3 POP POP JUMP JUMPDEST PUSH1 0x0 PUSH20 0xBA1BA1BA1BA1BA1BA1BA1BA1BA1BA1BA1BA1BA1B PUSH2 0x22A4 PUSH2 0xB92 JUMP JUMPDEST PUSH1 0x1 PUSH1 0x1 PUSH1 0xA0 SHL SUB AND EQ ISZERO DUP1 ISZERO PUSH2 0x22BF JUMPI POP PUSH2 0x22BF DUP4 PUSH2 0x2EE6 JUMP JUMPDEST ISZERO PUSH2 0x22E7 JUMPI PUSH2 0x22CC PUSH2 0xB92 JUMP JUMPDEST PUSH1 0x1 PUSH1 0x1 PUSH1 0xA0 SHL SUB AND CALLER PUSH1 0x1 PUSH1 0x1 PUSH1 0xA0 SHL SUB AND EQ SWAP1 POP PUSH2 0x5D1 JUMP JUMPDEST PUSH2 0x22EF PUSH2 0x1FB9 JUMP JUMPDEST PUSH1 0x1 PUSH1 0x1 PUSH1 0xA0 SHL SUB AND PUSH4 0x9BE2A884 DUP5 DUP5 ADDRESS PUSH1 0x40 MLOAD DUP5 PUSH4 0xFFFFFFFF AND PUSH1 0xE0 SHL DUP2 MSTORE PUSH1 0x4 ADD PUSH2 0x231E SWAP4 SWAP3 SWAP2 SWAP1 PUSH2 0x499C JUMP JUMPDEST PUSH1 0x20 PUSH1 0x40 MLOAD DUP1 DUP4 SUB DUP2 DUP7 DUP1 EXTCODESIZE ISZERO DUP1 ISZERO PUSH2 0x2336 JUMPI PUSH1 0x0 DUP1 REVERT JUMPDEST POP GAS STATICCALL ISZERO DUP1 ISZERO PUSH2 0x234A JUMPI RETURNDATASIZE PUSH1 0x0 DUP1 RETURNDATACOPY RETURNDATASIZE PUSH1 0x0 REVERT JUMPDEST POP POP POP POP PUSH1 0x40 MLOAD RETURNDATASIZE PUSH1 0x1F NOT PUSH1 0x1F DUP3 ADD AND DUP3 ADD DUP1 PUSH1 0x40 MSTORE POP DUP2 ADD SWAP1 PUSH2 0x236E SWAP2 SWAP1 PUSH2 0x44C5 JUMP JUMPDEST SWAP1 POP PUSH2 0x5D1 JUMP JUMPDEST SHR PUSH2 0x3FF AND SWAP1 JUMP JUMPDEST PUSH3 0x461BCD PUSH1 0xE5 SHL PUSH1 0x0 SWAP1 DUP2 MSTORE PUSH1 0x20 PUSH1 0x4 MSTORE PUSH1 0x7 PUSH1 0x24 MSTORE PUSH7 0x42414C23000030 PUSH1 0xA DUP1 DUP5 DIV DUP2 DUP2 MOD PUSH1 0x30 SWAP1 DUP2 ADD PUSH1 0x8 SHL SWAP6 DUP4 SWAP1 MOD SWAP6 SWAP1 SWAP6 ADD SWAP1 DUP3 SWAP1 DIV SWAP2 DUP3 MOD SWAP1 SWAP5 ADD PUSH1 0x10 SHL SWAP4 SWAP1 SWAP4 ADD ADD PUSH1 0xC8 SHL PUSH1 0x44 MSTORE PUSH1 0x64 SWAP1 REVERT JUMPDEST PUSH1 0x0 PUSH2 0x5D1 DUP3 DUP3 PUSH2 0x298B JUMP JUMPDEST PUSH1 0x0 DUP1 DUP3 PUSH1 0x2 DUP2 GT ISZERO PUSH2 0x23EB JUMPI INVALID JUMPDEST EQ ISZERO PUSH2 0x23FA JUMPI PUSH2 0x236E DUP4 PUSH2 0x2BAF JUMP JUMPDEST PUSH1 0x1 DUP3 PUSH1 0x2 DUP2 GT ISZERO PUSH2 0x2408 JUMPI INVALID JUMPDEST EQ ISZERO PUSH2 0x2417 JUMPI PUSH2 0x236E DUP4 PUSH2 0x2BC9 JUMP JUMPDEST PUSH2 0x236E DUP4 PUSH2 0x2BE3 JUMP JUMPDEST PUSH1 0x0 DUP1 DUP3 PUSH1 0x2 DUP2 GT ISZERO PUSH2 0x242F JUMPI INVALID JUMPDEST EQ ISZERO PUSH2 0x243E JUMPI PUSH2 0x236E DUP4 PUSH2 0x2BBC JUMP JUMPDEST PUSH1 0x1 DUP3 PUSH1 0x2 DUP2 GT ISZERO PUSH2 0x244C JUMPI INVALID JUMPDEST EQ ISZERO PUSH2 0x245B JUMPI PUSH2 0x236E DUP4 PUSH2 0x2BD6 JUMP JUMPDEST PUSH2 0x236E DUP4 PUSH2 0x2BF0 JUMP JUMPDEST PUSH1 0x0 PUSH2 0x5D1 DUP3 PUSH1 0x1 PUSH2 0x2F00 JUMP JUMPDEST PUSH1 0x0 DUP1 DUP1 PUSH2 0x3FF DUP2 DUP1 DUP1 JUMPDEST DUP4 DUP6 GT PUSH2 0x24E8 JUMPI PUSH1 0x2 DUP6 DUP6 ADD DIV PUSH2 0x2493 DUP2 DUP11 PUSH2 0x2F00 JUMP JUMPDEST SWAP4 POP PUSH2 0x249E DUP5 PUSH2 0x1A4B JUMP JUMPDEST SWAP3 POP PUSH2 0x24A9 DUP4 PUSH2 0x23D0 JUMP JUMPDEST SWAP2 POP DUP10 DUP3 LT ISZERO PUSH2 0x24BE JUMPI DUP1 PUSH1 0x1 ADD SWAP6 POP PUSH2 0x24E2 JUMP JUMPDEST DUP10 DUP3 GT ISZERO PUSH2 0x24D1 JUMPI PUSH1 0x1 DUP2 SUB SWAP5 POP PUSH2 0x24E2 JUMP JUMPDEST DUP3 DUP4 SWAP8 POP SWAP8 POP POP POP POP POP POP POP PUSH2 0x251D JUMP JUMPDEST POP PUSH2 0x247C JUMP JUMPDEST DUP9 DUP2 LT PUSH2 0x2506 JUMPI PUSH2 0x2500 PUSH2 0x24FB DUP5 PUSH2 0x2F11 JUMP JUMPDEST PUSH2 0x1A4B JUMP JUMPDEST DUP3 PUSH2 0x2513 JUMP JUMPDEST DUP2 PUSH2 0x2513 PUSH2 0x24FB DUP6 PUSH2 0x2464 JUMP JUMPDEST SWAP7 POP SWAP7 POP POP POP POP POP POP JUMPDEST SWAP3 POP SWAP3 SWAP1 POP JUMP JUMPDEST PUSH1 0x0 PUSH2 0x2553 PUSH9 0x238FD42C5CF03FFFF NOT DUP4 SLT ISZERO DUP1 ISZERO PUSH2 0x254C JUMPI POP PUSH9 0x70C1CC73B00C80000 DUP4 SGT ISZERO JUMPDEST PUSH1 0x9 PUSH2 0x13CC JUMP JUMPDEST PUSH1 0x0 DUP3 SLT ISZERO PUSH2 0x2586 JUMPI PUSH2 0x2568 DUP3 PUSH1 0x0 SUB PUSH2 0x2524 JUMP JUMPDEST PUSH11 0xC097CE7BC90715B34B9F1 PUSH1 0x24 SHL DUP2 PUSH2 0x257E JUMPI INVALID JUMPDEST SDIV SWAP1 POP PUSH2 0xA56 JUMP JUMPDEST PUSH1 0x0 PUSH9 0x6F05B59D3B2000000 DUP4 SLT PUSH2 0x25C6 JUMPI POP PUSH9 0x6F05B59D3B1FFFFFF NOT SWAP1 SWAP2 ADD SWAP1 PUSH24 0x195E54C5DD42177F53A27172FA9EC630262827000000000 PUSH2 0x25FC JUMP JUMPDEST PUSH9 0x3782DACE9D9000000 DUP4 SLT PUSH2 0x25F8 JUMPI POP PUSH9 0x3782DACE9D8FFFFFF NOT SWAP1 SWAP2 ADD SWAP1 PUSH12 0x1425982CF597CD205CEF7380 PUSH2 0x25FC JUMP JUMPDEST POP PUSH1 0x1 JUMPDEST PUSH1 0x64 SWAP3 SWAP1 SWAP3 MUL SWAP2 PUSH9 0x56BC75E2D63100000 PUSH9 0xAD78EBC5AC62000000 DUP5 SLT PUSH2 0x264C JUMPI PUSH9 0xAD78EBC5AC61FFFFFF NOT SWAP1 SWAP4 ADD SWAP3 PUSH9 0x56BC75E2D63100000 PUSH15 0x1855144814A7FF805980FF0084000 DUP3 MUL SDIV SWAP1 POP JUMPDEST PUSH9 0x56BC75E2D631000000 DUP5 SLT PUSH2 0x2688 JUMPI PUSH9 0x56BC75E2D630FFFFFF NOT SWAP1 SWAP4 ADD SWAP3 PUSH9 0x56BC75E2D63100000 PUSH12 0x2DF0AB5A80A22C61AB5A700 DUP3 MUL SDIV SWAP1 POP JUMPDEST PUSH9 0x2B5E3AF16B18800000 DUP5 SLT PUSH2 0x26C2 JUMPI PUSH9 0x2B5E3AF16B187FFFFF NOT SWAP1 SWAP4 ADD SWAP3 PUSH9 0x56BC75E2D63100000 PUSH10 0x3F1FCE3DA636EA5CF850 DUP3 MUL SDIV SWAP1 POP JUMPDEST PUSH9 0x15AF1D78B58C400000 DUP5 SLT PUSH2 0x26FC JUMPI PUSH9 0x15AF1D78B58C3FFFFF NOT SWAP1 SWAP4 ADD SWAP3 PUSH9 0x56BC75E2D63100000 PUSH10 0x127FA27722CC06CC5E2 DUP3 MUL SDIV SWAP1 POP JUMPDEST PUSH9 0xAD78EBC5AC6200000 DUP5 SLT PUSH2 0x2735 JUMPI PUSH9 0xAD78EBC5AC61FFFFF NOT SWAP1 SWAP4 ADD SWAP3 PUSH9 0x56BC75E2D63100000 PUSH9 0x280E60114EDB805D03 DUP3 MUL SDIV SWAP1 POP JUMPDEST PUSH9 0x56BC75E2D63100000 DUP5 SLT PUSH2 0x276E JUMPI PUSH9 0x56BC75E2D630FFFFF NOT SWAP1 SWAP4 ADD SWAP3 PUSH9 0x56BC75E2D63100000 PUSH9 0xEBC5FB41746121110 DUP3 MUL SDIV SWAP1 POP JUMPDEST PUSH9 0x2B5E3AF16B1880000 DUP5 SLT PUSH2 0x27A7 JUMPI PUSH9 0x2B5E3AF16B187FFFF NOT SWAP1 SWAP4 ADD SWAP3 PUSH9 0x56BC75E2D63100000 PUSH9 0x8F00F760A4B2DB55D DUP3 MUL SDIV SWAP1 POP JUMPDEST PUSH9 0x15AF1D78B58C40000 DUP5 SLT PUSH2 0x27E0 JUMPI PUSH9 0x15AF1D78B58C3FFFF NOT SWAP1 SWAP4 ADD SWAP3 PUSH9 0x56BC75E2D63100000 PUSH9 0x6F5F1775788937937 DUP3 MUL SDIV SWAP1 POP JUMPDEST PUSH9 0x56BC75E2D63100000 DUP5 DUP2 ADD SWAP1 DUP6 SWAP1 PUSH1 0x2 SWAP1 DUP3 DUP1 MUL SDIV SDIV SWAP2 DUP3 ADD SWAP2 SWAP1 POP PUSH1 0x3 PUSH9 0x56BC75E2D63100000 DUP8 DUP4 MUL SDIV SDIV SWAP2 DUP3 ADD SWAP2 SWAP1 POP PUSH1 0x4 PUSH9 0x56BC75E2D63100000 DUP8 DUP4 MUL SDIV SDIV SWAP2 DUP3 ADD SWAP2 SWAP1 POP PUSH1 0x5 PUSH9 0x56BC75E2D63100000 DUP8 DUP4 MUL SDIV SDIV SWAP2 DUP3 ADD SWAP2 SWAP1 POP PUSH1 0x6 PUSH9 0x56BC75E2D63100000 DUP8 DUP4 MUL SDIV SDIV SWAP2 DUP3 ADD SWAP2 SWAP1 POP PUSH1 0x7 PUSH9 0x56BC75E2D63100000 DUP8 DUP4 MUL SDIV SDIV SWAP2 DUP3 ADD SWAP2 SWAP1 POP PUSH1 0x8 PUSH9 0x56BC75E2D63100000 DUP8 DUP4 MUL SDIV SDIV SWAP2 DUP3 ADD SWAP2 SWAP1 POP PUSH1 0x9 PUSH9 0x56BC75E2D63100000 DUP8 DUP4 MUL SDIV SDIV SWAP2 DUP3 ADD SWAP2 SWAP1 POP PUSH1 0xA PUSH9 0x56BC75E2D63100000 DUP8 DUP4 MUL SDIV SDIV SWAP2 DUP3 ADD SWAP2 SWAP1 POP PUSH1 0xB PUSH9 0x56BC75E2D63100000 DUP8 DUP4 MUL SDIV SDIV SWAP2 DUP3 ADD SWAP2 SWAP1 POP PUSH1 0xC PUSH9 0x56BC75E2D63100000 DUP8 DUP4 MUL SDIV SDIV SWAP2 DUP3 ADD SWAP2 SWAP1 POP PUSH1 0x64 PUSH9 0x56BC75E2D63100000 DUP5 DUP5 MUL SDIV DUP6 MUL SDIV SWAP7 SWAP6 POP POP POP POP POP POP JUMP JUMPDEST PUSH1 0x0 DUP1 PUSH2 0x290D DUP4 PUSH2 0x2F1E JUMP JUMPDEST SWAP1 POP PUSH6 0x5AF3107A4000 PUSH1 0x0 DUP3 SGT PUSH2 0x292C JUMPI PUSH6 0x2D79883D2000 DUP3 SUB PUSH2 0x2936 JUMP JUMPDEST PUSH6 0x2D79883D2000 DUP3 ADD JUMPDEST DUP2 PUSH2 0x293D JUMPI INVALID JUMPDEST SDIV SWAP4 SWAP3 POP POP POP JUMP JUMPDEST PUSH1 0x0 PUSH2 0x79E DUP4 DUP4 DUP4 PUSH2 0x2F7A JUMP JUMPDEST PUSH1 0x0 PUSH2 0x79E DUP4 DUP4 PUSH1 0x16 PUSH2 0x2F7A JUMP JUMPDEST CHAINID SWAP1 JUMP JUMPDEST PUSH1 0x0 DUP3 DUP3 SHR PUSH3 0x3FFFFF AND PUSH3 0x1FFFFF DUP2 SGT PUSH2 0x297E JUMPI DUP1 PUSH2 0x2062 JUMP JUMPDEST PUSH3 0x3FFFFF NOT OR SWAP4 SWAP3 POP POP POP JUMP JUMPDEST SHR PUSH4 0x7FFFFFFF AND SWAP1 JUMP JUMPDEST SHR PUSH1 0x1 SWAP1 DUP2 AND EQ SWAP1 JUMP JUMPDEST SHR PUSH1 0x1 PUSH1 0x1 PUSH1 0x40 SHL SUB AND SWAP1 JUMP JUMPDEST PUSH1 0x40 DUP1 MLOAD PUSH1 0x2 DUP1 DUP3 MSTORE PUSH1 0x60 DUP1 DUP4 ADD DUP5 MSTORE SWAP3 DUP4 SWAP3 SWAP2 SWAP1 PUSH1 0x20 DUP4 ADD SWAP1 DUP1 CALLDATASIZE DUP4 CALLDATACOPY ADD SWAP1 POP POP SWAP1 POP DUP3 PUSH2 0x29DC JUMPI SWAP1 POP PUSH2 0x1F1D JUMP JUMPDEST PUSH2 0x2A4F DUP8 PUSH32 0x0 DUP2 MLOAD DUP2 LT PUSH2 0x2A0B JUMPI INVALID JUMPDEST PUSH1 0x20 MUL PUSH1 0x20 ADD ADD MLOAD DUP8 PUSH32 0x0 DUP2 MLOAD DUP2 LT PUSH2 0x2A3F JUMPI INVALID JUMPDEST PUSH1 0x20 MUL PUSH1 0x20 ADD ADD MLOAD DUP8 DUP8 DUP8 PUSH2 0x2F91 JUMP JUMPDEST DUP2 PUSH32 0x0 DUP2 MLOAD DUP2 LT PUSH2 0x2A7B JUMPI INVALID JUMPDEST PUSH1 0x20 SWAP1 DUP2 MUL SWAP2 SWAP1 SWAP2 ADD ADD MSTORE SWAP7 SWAP6 POP POP POP POP POP POP JUMP JUMPDEST PUSH2 0x2AC6 DUP4 PUSH1 0x0 DUP2 MLOAD DUP2 LT PUSH2 0x2AA0 JUMPI INVALID JUMPDEST PUSH1 0x20 MUL PUSH1 0x20 ADD ADD MLOAD DUP4 PUSH1 0x0 DUP2 MLOAD DUP2 LT PUSH2 0x2AB5 JUMPI INVALID JUMPDEST PUSH1 0x20 MUL PUSH1 0x20 ADD ADD MLOAD DUP4 PUSH4 0xFFFFFFFF AND JUMP JUMPDEST DUP4 PUSH1 0x0 DUP2 MLOAD DUP2 LT PUSH2 0x2AD3 JUMPI INVALID JUMPDEST PUSH1 0x20 MUL PUSH1 0x20 ADD ADD DUP2 DUP2 MSTORE POP POP PUSH2 0x2B04 DUP4 PUSH1 0x1 DUP2 MLOAD DUP2 LT PUSH2 0x2AEF JUMPI INVALID JUMPDEST PUSH1 0x20 MUL PUSH1 0x20 ADD ADD MLOAD DUP4 PUSH1 0x1 DUP2 MLOAD DUP2 LT PUSH2 0x2AB5 JUMPI INVALID JUMPDEST DUP4 PUSH1 0x1 DUP2 MLOAD DUP2 LT PUSH2 0x2B11 JUMPI INVALID JUMPDEST PUSH1 0x20 MUL PUSH1 0x20 ADD ADD DUP2 DUP2 MSTORE POP POP POP POP POP JUMP JUMPDEST PUSH1 0x0 PUSH1 0x60 PUSH1 0x0 PUSH2 0x2B31 DUP5 PUSH2 0x2EBA JUMP JUMPDEST SWAP1 POP PUSH1 0x0 DUP2 PUSH1 0x2 DUP2 GT ISZERO PUSH2 0x2B41 JUMPI INVALID JUMPDEST EQ ISZERO PUSH2 0x2B5C JUMPI PUSH2 0x2B52 DUP7 DUP7 DUP7 PUSH2 0x3009 JUMP JUMPDEST SWAP3 POP SWAP3 POP POP PUSH2 0x2B87 JUMP JUMPDEST PUSH1 0x1 DUP2 PUSH1 0x2 DUP2 GT ISZERO PUSH2 0x2B6A JUMPI INVALID JUMPDEST EQ ISZERO PUSH2 0x2B7A JUMPI PUSH2 0x2B52 DUP7 DUP6 PUSH2 0x30B9 JUMP JUMPDEST PUSH2 0x2B52 DUP7 DUP7 DUP7 PUSH2 0x30EB JUMP JUMPDEST POP JUMPDEST SWAP4 POP SWAP4 SWAP2 POP POP JUMP JUMPDEST PUSH1 0x0 PUSH2 0x2B9E DUP3 ISZERO ISZERO PUSH1 0x4 PUSH2 0x13CC JUMP JUMPDEST DUP2 DUP4 DUP2 PUSH2 0x2BA7 JUMPI INVALID JUMPDEST DIV SWAP4 SWAP3 POP POP POP JUMP JUMPDEST PUSH1 0x0 PUSH2 0x5D1 DUP3 PUSH1 0xEA PUSH2 0x2964 JUMP JUMPDEST PUSH1 0x0 PUSH2 0x5D1 DUP3 PUSH1 0xB5 PUSH2 0x3157 JUMP JUMPDEST PUSH1 0x0 PUSH2 0x5D1 DUP3 PUSH1 0x9F PUSH2 0x2964 JUMP JUMPDEST PUSH1 0x0 PUSH2 0x5D1 DUP3 PUSH1 0x6A PUSH2 0x3157 JUMP JUMPDEST PUSH1 0x0 PUSH2 0x5D1 DUP3 PUSH1 0x54 PUSH2 0x2964 JUMP JUMPDEST PUSH1 0x0 PUSH2 0x5D1 DUP3 PUSH1 0x1F PUSH2 0x3157 JUMP JUMPDEST PUSH1 0x0 PUSH1 0x60 PUSH1 0x0 PUSH2 0x2C0C DUP5 PUSH2 0x2EBA JUMP JUMPDEST SWAP1 POP PUSH1 0x1 DUP2 PUSH1 0x2 DUP2 GT ISZERO PUSH2 0x2C1C JUMPI INVALID JUMPDEST EQ ISZERO PUSH2 0x2C2D JUMPI PUSH2 0x2B52 DUP7 DUP7 DUP7 PUSH2 0x318A JUMP JUMPDEST PUSH1 0x2 DUP2 PUSH1 0x2 DUP2 GT ISZERO PUSH2 0x2C3B JUMPI INVALID JUMPDEST EQ ISZERO PUSH2 0x2C4C JUMPI PUSH2 0x2B52 DUP7 DUP7 DUP7 PUSH2 0x31E0 JUMP JUMPDEST PUSH2 0x2B85 PUSH2 0x136 PUSH2 0x237D JUMP JUMPDEST PUSH1 0x0 PUSH2 0x2C66 DUP3 ISZERO ISZERO PUSH1 0x4 PUSH2 0x13CC JUMP JUMPDEST DUP3 PUSH2 0x2C73 JUMPI POP PUSH1 0x0 PUSH2 0x5D1 JUMP JUMPDEST DUP2 PUSH1 0x1 DUP5 SUB DUP2 PUSH2 0x2C7F JUMPI INVALID JUMPDEST DIV PUSH1 0x1 ADD SWAP1 POP PUSH2 0x5D1 JUMP JUMPDEST PUSH1 0x0 DUP1 PUSH2 0x2CAA PUSH2 0x2C9A DUP5 DUP7 PUSH2 0x1F77 JUMP JUMPDEST PUSH2 0x2CA4 DUP8 DUP10 PUSH2 0x1F77 JUMP JUMPDEST SWAP1 PUSH2 0x1F77 JUMP JUMPDEST SWAP1 POP PUSH2 0x2CB5 DUP2 PUSH2 0x2901 JUMP JUMPDEST SWAP7 SWAP6 POP POP POP POP POP POP JUMP JUMPDEST PUSH1 0x0 DUP1 PUSH2 0x2CCF PUSH2 0x168F DUP6 DUP8 PUSH2 0x1F77 JUMP JUMPDEST SWAP3 SWAP1 SWAP3 SUB SWAP5 SWAP4 POP POP POP POP JUMP JUMPDEST PUSH1 0x0 DUP1 PUSH2 0x2CF7 DUP6 DUP6 DUP6 TIMESTAMP PUSH2 0x2CEE DUP12 PUSH2 0x1A4B JUMP JUMPDEST SWAP4 SWAP3 SWAP2 SWAP1 PUSH2 0x3263 JUMP JUMPDEST SWAP1 POP PUSH1 0x78 TIMESTAMP DUP9 SWAP1 SUB LT ISZERO DUP1 PUSH2 0x2D0C JUMPI DUP7 PUSH2 0x2D15 JUMP JUMPDEST PUSH2 0x2D15 DUP8 PUSH2 0x2464 JUMP JUMPDEST PUSH1 0x0 DUP2 DUP2 MSTORE PUSH1 0x7 PUSH1 0x20 MSTORE PUSH1 0x40 SWAP1 KECCAK256 SWAP3 SWAP1 SWAP3 SSTORE POP SWAP7 SWAP6 POP POP POP POP POP POP JUMP JUMPDEST PUSH1 0x0 PUSH2 0x79E DUP4 DUP4 PUSH1 0x4B PUSH2 0x32B5 JUMP JUMPDEST PUSH1 0x0 PUSH2 0x79E DUP4 DUP4 PUSH1 0x2C PUSH2 0x32C5 JUMP JUMPDEST PUSH1 0x0 PUSH2 0x2D70 PUSH2 0x2D65 DUP8 PUSH8 0x429D069189E0000 PUSH2 0x2E8E JUMP JUMPDEST DUP4 GT ISZERO PUSH2 0x130 PUSH2 0x13CC JUMP JUMPDEST PUSH1 0x0 PUSH2 0x2D7C DUP8 DUP5 PUSH2 0x11C6 JUMP JUMPDEST SWAP1 POP PUSH1 0x0 PUSH2 0x2D8A DUP9 DUP4 PUSH2 0x1F77 JUMP JUMPDEST SWAP1 POP PUSH1 0x0 PUSH2 0x2D98 DUP9 DUP8 PUSH2 0x1AE4 JUMP JUMPDEST SWAP1 POP PUSH1 0x0 PUSH2 0x2DA6 DUP4 DUP4 PUSH2 0x32D7 JUMP JUMPDEST SWAP1 POP PUSH2 0x2DBB PUSH2 0x2DB4 DUP3 PUSH2 0x1F51 JUMP JUMPDEST DUP10 SWAP1 PUSH2 0x2E8E JUMP JUMPDEST SWAP11 SWAP10 POP POP POP POP POP POP POP POP POP POP JUMP JUMPDEST PUSH1 0x0 PUSH2 0x2DEB PUSH2 0x2DE0 DUP6 PUSH8 0x429D069189E0000 PUSH2 0x2E8E JUMP JUMPDEST DUP4 GT ISZERO PUSH2 0x131 PUSH2 0x13CC JUMP JUMPDEST PUSH1 0x0 PUSH2 0x2E01 PUSH2 0x2DFA DUP7 DUP6 PUSH2 0x11F4 JUMP JUMPDEST DUP7 SWAP1 PUSH2 0x1F77 JUMP JUMPDEST SWAP1 POP PUSH1 0x0 PUSH2 0x2E0F DUP6 DUP9 PUSH2 0x1F77 JUMP JUMPDEST SWAP1 POP PUSH1 0x0 PUSH2 0x2E1D DUP4 DUP4 PUSH2 0x32D7 JUMP JUMPDEST SWAP1 POP PUSH1 0x0 PUSH2 0x2E33 DUP3 PUSH8 0xDE0B6B3A7640000 PUSH2 0x11F4 JUMP JUMPDEST SWAP1 POP PUSH2 0x2DBB DUP11 DUP3 PUSH2 0x1EC3 JUMP JUMPDEST PUSH1 0x0 DUP1 PUSH2 0x2E4C DUP5 DUP5 PUSH2 0x3303 JUMP JUMPDEST SWAP1 POP PUSH1 0x0 PUSH2 0x2E66 PUSH2 0x2E5F DUP4 PUSH2 0x2710 PUSH2 0x1EC3 JUMP JUMPDEST PUSH1 0x1 PUSH2 0x11C6 JUMP JUMPDEST SWAP1 POP DUP1 DUP3 LT ISZERO PUSH2 0x2E7B JUMPI PUSH1 0x0 SWAP3 POP POP POP PUSH2 0x5D1 JUMP JUMPDEST PUSH2 0x2E85 DUP3 DUP3 PUSH2 0x11F4 JUMP JUMPDEST SWAP3 POP POP POP PUSH2 0x5D1 JUMP JUMPDEST PUSH1 0x0 DUP3 DUP3 MUL PUSH2 0x2EA8 DUP5 ISZERO DUP1 PUSH2 0x1ADD JUMPI POP DUP4 DUP6 DUP4 DUP2 PUSH2 0x1ADA JUMPI INVALID JUMPDEST PUSH8 0xDE0B6B3A7640000 SWAP1 DIV SWAP4 SWAP3 POP POP POP JUMP JUMPDEST PUSH1 0x0 DUP2 DUP1 PUSH1 0x20 ADD SWAP1 MLOAD DUP2 ADD SWAP1 PUSH2 0x5D1 SWAP2 SWAP1 PUSH2 0x4621 JUMP JUMPDEST PUSH1 0x60 DUP2 DUP1 PUSH1 0x20 ADD SWAP1 MLOAD DUP2 ADD SWAP1 PUSH2 0x79E SWAP2 SWAP1 PUSH2 0x46E6 JUMP JUMPDEST PUSH1 0x0 PUSH2 0x2EF8 PUSH4 0x1C74C917 PUSH1 0xE1 SHL PUSH2 0xB1B JUMP JUMPDEST SWAP1 SWAP2 EQ SWAP2 SWAP1 POP JUMP JUMPDEST PUSH1 0x0 PUSH2 0x400 DUP4 DUP4 ADD JUMPDEST MOD SWAP4 SWAP3 POP POP POP JUMP JUMPDEST PUSH1 0x0 PUSH2 0x5D1 DUP3 PUSH1 0x1 PUSH2 0x3404 JUMP JUMPDEST PUSH1 0x0 PUSH2 0x2F2E PUSH1 0x0 DUP4 SGT PUSH1 0x64 PUSH2 0x13CC JUMP JUMPDEST PUSH8 0xC7D713B49DA0000 DUP3 SGT DUP1 ISZERO PUSH2 0x2F4C JUMPI POP PUSH8 0xF43FC2C04EE0000 DUP3 SLT JUMPDEST ISZERO PUSH2 0x2F6A JUMPI PUSH8 0xDE0B6B3A7640000 PUSH2 0x2F63 DUP4 PUSH2 0x3413 JUMP JUMPDEST DUP2 PUSH2 0x257E JUMPI INVALID JUMPDEST PUSH2 0x2F73 DUP3 PUSH2 0x3531 JUMP JUMPDEST SWAP1 POP PUSH2 0xA56 JUMP JUMPDEST PUSH3 0x3FFFFF DUP3 DUP2 AND DUP3 SHL SWAP1 DUP3 SHL NOT DUP5 AND OR SWAP4 SWAP3 POP POP POP JUMP JUMPDEST PUSH1 0x0 DUP4 DUP4 GT PUSH2 0x2FA2 JUMPI POP PUSH1 0x0 PUSH2 0x1F1D JUMP JUMPDEST PUSH1 0x0 PUSH2 0x2FAE DUP6 DUP6 PUSH2 0x1F77 JUMP JUMPDEST SWAP1 POP PUSH1 0x0 PUSH2 0x2FC4 PUSH8 0xDE0B6B3A7640000 DUP9 PUSH2 0x1AE4 JUMP JUMPDEST SWAP1 POP PUSH2 0x2FD8 DUP3 PUSH8 0x9B6E64A8EC60000 PUSH2 0x38D0 JUMP JUMPDEST SWAP2 POP PUSH1 0x0 PUSH2 0x2FE6 DUP4 DUP4 PUSH2 0x32D7 JUMP JUMPDEST SWAP1 POP PUSH1 0x0 PUSH2 0x2FFD PUSH2 0x2FF6 DUP4 PUSH2 0x1F51 JUMP JUMPDEST DUP12 SWAP1 PUSH2 0x2E8E JUMP JUMPDEST SWAP1 POP PUSH2 0x2DBB DUP2 DUP8 PUSH2 0x2E8E JUMP JUMPDEST PUSH1 0x0 PUSH1 0x60 PUSH2 0x3015 PUSH2 0x1606 JUMP JUMPDEST PUSH1 0x0 DUP1 PUSH2 0x3021 DUP6 PUSH2 0x38E7 JUMP JUMPDEST SWAP2 POP SWAP2 POP PUSH2 0x3033 PUSH1 0x2 DUP3 LT PUSH1 0x64 PUSH2 0x13CC JUMP JUMPDEST PUSH1 0x40 DUP1 MLOAD PUSH1 0x2 DUP1 DUP3 MSTORE PUSH1 0x60 DUP1 DUP4 ADD DUP5 MSTORE SWAP3 PUSH1 0x20 DUP4 ADD SWAP1 DUP1 CALLDATASIZE DUP4 CALLDATACOPY ADD SWAP1 POP POP SWAP1 POP PUSH2 0x3094 DUP9 DUP4 DUP2 MLOAD DUP2 LT PUSH2 0x3062 JUMPI INVALID JUMPDEST PUSH1 0x20 MUL PUSH1 0x20 ADD ADD MLOAD DUP9 DUP5 DUP2 MLOAD DUP2 LT PUSH2 0x3076 JUMPI INVALID JUMPDEST PUSH1 0x20 MUL PUSH1 0x20 ADD ADD MLOAD DUP6 PUSH2 0x3087 PUSH2 0x5EB JUMP JUMPDEST PUSH2 0x308F PUSH2 0x885 JUMP JUMPDEST PUSH2 0x3909 JUMP JUMPDEST DUP2 DUP4 DUP2 MLOAD DUP2 LT PUSH2 0x30A0 JUMPI INVALID JUMPDEST PUSH1 0x20 SWAP1 DUP2 MUL SWAP2 SWAP1 SWAP2 ADD ADD MSTORE SWAP2 SWAP8 SWAP2 SWAP7 POP SWAP1 SWAP5 POP POP POP POP POP JUMP JUMPDEST PUSH1 0x0 PUSH1 0x60 PUSH1 0x0 PUSH2 0x30C8 DUP5 PUSH2 0x39C0 JUMP JUMPDEST SWAP1 POP PUSH1 0x60 PUSH2 0x30DE DUP7 DUP4 PUSH2 0x30D9 PUSH2 0x5EB JUMP JUMPDEST PUSH2 0x39D6 JUMP JUMPDEST SWAP2 SWAP7 SWAP2 SWAP6 POP SWAP1 SWAP4 POP POP POP POP JUMP JUMPDEST PUSH1 0x0 PUSH1 0x60 PUSH2 0x30F7 PUSH2 0x1606 JUMP JUMPDEST PUSH1 0x60 PUSH1 0x0 PUSH2 0x3104 DUP6 PUSH2 0x3A87 JUMP JUMPDEST SWAP2 POP SWAP2 POP PUSH2 0x3114 DUP3 MLOAD PUSH1 0x2 PUSH2 0x17E7 JUMP JUMPDEST PUSH2 0x311D DUP3 PUSH2 0x1B35 JUMP JUMPDEST PUSH1 0x0 PUSH2 0x313A DUP9 DUP9 DUP6 PUSH2 0x312D PUSH2 0x5EB JUMP JUMPDEST PUSH2 0x3135 PUSH2 0x885 JUMP JUMPDEST PUSH2 0x3A9F JUMP JUMPDEST SWAP1 POP PUSH2 0x314A DUP3 DUP3 GT ISZERO PUSH1 0xCF PUSH2 0x13CC JUMP JUMPDEST SWAP8 SWAP2 SWAP7 POP SWAP1 SWAP5 POP POP POP POP POP JUMP JUMPDEST PUSH1 0x0 DUP3 DUP3 SHR PUSH7 0x1FFFFFFFFFFFFF AND PUSH7 0xFFFFFFFFFFFFF DUP2 SGT PUSH2 0x3179 JUMPI DUP1 PUSH2 0x2062 JUMP JUMPDEST PUSH7 0x1FFFFFFFFFFFFF NOT OR SWAP4 SWAP3 POP POP POP JUMP JUMPDEST PUSH1 0x0 PUSH1 0x60 DUP1 PUSH1 0x0 PUSH2 0x319A DUP6 PUSH2 0x3A87 JUMP JUMPDEST SWAP2 POP SWAP2 POP PUSH2 0x31AA DUP3 MLOAD PUSH1 0x2 PUSH2 0x17E7 JUMP JUMPDEST PUSH2 0x31B3 DUP3 PUSH2 0x1B35 JUMP JUMPDEST PUSH1 0x0 PUSH2 0x31D0 DUP9 DUP9 DUP6 PUSH2 0x31C3 PUSH2 0x5EB JUMP JUMPDEST PUSH2 0x31CB PUSH2 0x885 JUMP JUMPDEST PUSH2 0x3CCA JUMP JUMPDEST SWAP1 POP PUSH2 0x314A DUP3 DUP3 LT ISZERO PUSH1 0xD0 PUSH2 0x13CC JUMP JUMPDEST PUSH1 0x0 PUSH1 0x60 PUSH1 0x0 DUP1 PUSH2 0x31F0 DUP6 PUSH2 0x38E7 JUMP JUMPDEST SWAP2 POP SWAP2 POP PUSH2 0x3202 PUSH1 0x2 DUP3 LT PUSH1 0x64 PUSH2 0x13CC JUMP JUMPDEST PUSH1 0x40 DUP1 MLOAD PUSH1 0x2 DUP1 DUP3 MSTORE PUSH1 0x60 DUP1 DUP4 ADD DUP5 MSTORE SWAP3 PUSH1 0x20 DUP4 ADD SWAP1 DUP1 CALLDATASIZE DUP4 CALLDATACOPY ADD SWAP1 POP POP SWAP1 POP PUSH2 0x3094 DUP9 DUP4 DUP2 MLOAD DUP2 LT PUSH2 0x3231 JUMPI INVALID JUMPDEST PUSH1 0x20 MUL PUSH1 0x20 ADD ADD MLOAD DUP9 DUP5 DUP2 MLOAD DUP2 LT PUSH2 0x3245 JUMPI INVALID JUMPDEST PUSH1 0x20 MUL PUSH1 0x20 ADD ADD MLOAD DUP6 PUSH2 0x3256 PUSH2 0x5EB JUMP JUMPDEST PUSH2 0x325E PUSH2 0x885 JUMP JUMPDEST PUSH2 0x3EDA JUMP JUMPDEST PUSH1 0x0 DUP1 PUSH2 0x326F DUP8 PUSH2 0x23D0 JUMP JUMPDEST DUP4 SUB SWAP1 POP PUSH1 0x0 DUP2 DUP8 MUL PUSH2 0x3281 DUP10 PUSH2 0x2BBC JUMP JUMPDEST ADD SWAP1 POP PUSH1 0x0 DUP3 DUP8 MUL PUSH2 0x3292 DUP11 PUSH2 0x2BD6 JUMP JUMPDEST ADD SWAP1 POP PUSH1 0x0 DUP4 DUP8 MUL PUSH2 0x32A3 DUP12 PUSH2 0x2BF0 JUMP JUMPDEST ADD SWAP1 POP PUSH2 0x2DBB DUP10 DUP5 DUP11 DUP6 DUP12 DUP7 DUP13 PUSH2 0x3F7C JUMP JUMPDEST PUSH2 0x3FF DUP2 SHL NOT SWAP3 SWAP1 SWAP3 AND SWAP2 SHL OR SWAP1 JUMP JUMPDEST PUSH4 0x7FFFFFFF DUP2 SHL NOT SWAP3 SWAP1 SWAP3 AND SWAP2 SHL OR SWAP1 JUMP JUMPDEST PUSH1 0x0 DUP1 PUSH2 0x32E4 DUP5 DUP5 PUSH2 0x3303 JUMP JUMPDEST SWAP1 POP PUSH1 0x0 PUSH2 0x32F7 PUSH2 0x2E5F DUP4 PUSH2 0x2710 PUSH2 0x1EC3 JUMP JUMPDEST SWAP1 POP PUSH2 0x1F1D DUP3 DUP3 PUSH2 0x11C6 JUMP JUMPDEST PUSH1 0x0 DUP2 PUSH2 0x3319 JUMPI POP PUSH8 0xDE0B6B3A7640000 PUSH2 0x5D1 JUMP JUMPDEST DUP3 PUSH2 0x3326 JUMPI POP PUSH1 0x0 PUSH2 0x5D1 JUMP JUMPDEST PUSH2 0x3337 PUSH1 0x1 PUSH1 0xFF SHL DUP5 LT PUSH1 0x6 PUSH2 0x13CC JUMP JUMPDEST DUP3 PUSH2 0x335D PUSH24 0xBCE5086492111AEA88F4BB1CA6BCF584181EA8059F76532 DUP5 LT PUSH1 0x7 PUSH2 0x13CC JUMP JUMPDEST DUP3 PUSH1 0x0 PUSH8 0xC7D713B49DA0000 DUP4 SGT DUP1 ISZERO PUSH2 0x337E JUMPI POP PUSH8 0xF43FC2C04EE0000 DUP4 SLT JUMPDEST ISZERO PUSH2 0x33B5 JUMPI PUSH1 0x0 PUSH2 0x338E DUP5 PUSH2 0x3413 JUMP JUMPDEST SWAP1 POP PUSH8 0xDE0B6B3A7640000 DUP1 DUP3 SMOD DUP5 MUL SDIV DUP4 PUSH8 0xDE0B6B3A7640000 DUP4 SDIV MUL ADD SWAP2 POP POP PUSH2 0x33C3 JUMP JUMPDEST DUP2 PUSH2 0x33BF DUP5 PUSH2 0x3531 JUMP JUMPDEST MUL SWAP1 POP JUMPDEST PUSH8 0xDE0B6B3A7640000 SWAP1 SDIV PUSH2 0x33FB PUSH9 0x238FD42C5CF03FFFF NOT DUP3 SLT DUP1 ISZERO SWAP1 PUSH2 0x33F4 JUMPI POP PUSH9 0x70C1CC73B00C80000 DUP3 SGT ISZERO JUMPDEST PUSH1 0x8 PUSH2 0x13CC JUMP JUMPDEST PUSH2 0x2CB5 DUP2 PUSH2 0x2524 JUMP JUMPDEST PUSH1 0x0 PUSH2 0x400 DUP3 DUP5 SUB DUP2 ADD PUSH2 0x2F09 JUMP JUMPDEST PUSH8 0xDE0B6B3A7640000 MUL PUSH1 0x0 DUP1 PUSH11 0xC097CE7BC90715B34B9F1 PUSH1 0x24 SHL DUP1 DUP5 ADD SWAP1 PUSH15 0xC097CE7BC90715B34B9F0FFFFFFFFF NOT DUP6 ADD MUL DUP2 PUSH2 0x344E JUMPI INVALID JUMPDEST SDIV SWAP1 POP PUSH1 0x0 PUSH11 0xC097CE7BC90715B34B9F1 PUSH1 0x24 SHL DUP3 DUP1 MUL SDIV SWAP1 POP DUP2 DUP1 PUSH11 0xC097CE7BC90715B34B9F1 PUSH1 0x24 SHL DUP2 DUP5 MUL SDIV SWAP2 POP PUSH1 0x3 DUP3 SDIV ADD PUSH11 0xC097CE7BC90715B34B9F1 PUSH1 0x24 SHL DUP3 DUP5 MUL SDIV SWAP2 POP PUSH1 0x5 DUP3 SDIV ADD PUSH11 0xC097CE7BC90715B34B9F1 PUSH1 0x24 SHL DUP3 DUP5 MUL SDIV SWAP2 POP PUSH1 0x7 DUP3 SDIV ADD PUSH11 0xC097CE7BC90715B34B9F1 PUSH1 0x24 SHL DUP3 DUP5 MUL SDIV SWAP2 POP PUSH1 0x9 DUP3 SDIV ADD PUSH11 0xC097CE7BC90715B34B9F1 PUSH1 0x24 SHL DUP3 DUP5 MUL SDIV SWAP2 POP PUSH1 0xB DUP3 SDIV ADD PUSH11 0xC097CE7BC90715B34B9F1 PUSH1 0x24 SHL DUP3 DUP5 MUL SDIV SWAP2 POP PUSH1 0xD DUP3 SDIV ADD PUSH11 0xC097CE7BC90715B34B9F1 PUSH1 0x24 SHL DUP3 DUP5 MUL SDIV SWAP2 POP PUSH1 0xF DUP3 PUSH1 0x2 SWAP2 SWAP1 SDIV SWAP2 SWAP1 SWAP2 ADD MUL SWAP6 SWAP5 POP POP POP POP POP JUMP JUMPDEST PUSH1 0x0 PUSH8 0xDE0B6B3A7640000 DUP3 SLT ISZERO PUSH2 0x356D JUMPI PUSH2 0x3563 DUP3 PUSH11 0xC097CE7BC90715B34B9F1 PUSH1 0x24 SHL DUP2 PUSH2 0x355D JUMPI INVALID JUMPDEST SDIV PUSH2 0x3531 JUMP JUMPDEST PUSH1 0x0 SUB SWAP1 POP PUSH2 0xA56 JUMP JUMPDEST PUSH1 0x0 PUSH31 0x1600EF3172E58D2E933EC884FDE10064C63B5372D805E203C0000000000000 DUP4 SLT PUSH2 0x35BE JUMPI PUSH24 0x195E54C5DD42177F53A27172FA9EC630262827000000000 DUP4 SDIV SWAP3 POP PUSH9 0x6F05B59D3B2000000 ADD JUMPDEST PUSH20 0x11798004D755D3C8BC8E03204CF44619E000000 DUP4 SLT PUSH2 0x35F6 JUMPI PUSH12 0x1425982CF597CD205CEF7380 DUP4 SDIV SWAP3 POP PUSH9 0x3782DACE9D9000000 ADD JUMPDEST PUSH1 0x64 SWAP3 DUP4 MUL SWAP3 MUL PUSH15 0x1855144814A7FF805980FF0084000 DUP4 SLT PUSH2 0x363E JUMPI PUSH15 0x1855144814A7FF805980FF0084000 PUSH9 0x56BC75E2D63100000 DUP5 MUL SDIV SWAP3 POP PUSH9 0xAD78EBC5AC62000000 ADD JUMPDEST PUSH12 0x2DF0AB5A80A22C61AB5A700 DUP4 SLT PUSH2 0x3679 JUMPI PUSH12 0x2DF0AB5A80A22C61AB5A700 PUSH9 0x56BC75E2D63100000 DUP5 MUL SDIV SWAP3 POP PUSH9 0x56BC75E2D631000000 ADD JUMPDEST PUSH10 0x3F1FCE3DA636EA5CF850 DUP4 SLT PUSH2 0x36B0 JUMPI PUSH10 0x3F1FCE3DA636EA5CF850 PUSH9 0x56BC75E2D63100000 DUP5 MUL SDIV SWAP3 POP PUSH9 0x2B5E3AF16B18800000 ADD JUMPDEST PUSH10 0x127FA27722CC06CC5E2 DUP4 SLT PUSH2 0x36E7 JUMPI PUSH10 0x127FA27722CC06CC5E2 PUSH9 0x56BC75E2D63100000 DUP5 MUL SDIV SWAP3 POP PUSH9 0x15AF1D78B58C400000 ADD JUMPDEST PUSH9 0x280E60114EDB805D03 DUP4 SLT PUSH2 0x371C JUMPI PUSH9 0x280E60114EDB805D03 PUSH9 0x56BC75E2D63100000 DUP5 MUL SDIV SWAP3 POP PUSH9 0xAD78EBC5AC6200000 ADD JUMPDEST PUSH9 0xEBC5FB41746121110 DUP4 SLT PUSH2 0x3747 JUMPI PUSH9 0xEBC5FB41746121110 PUSH9 0x56BC75E2D63100000 SWAP4 DUP5 MUL SDIV SWAP3 ADD JUMPDEST PUSH9 0x8F00F760A4B2DB55D DUP4 SLT PUSH2 0x377C JUMPI PUSH9 0x8F00F760A4B2DB55D PUSH9 0x56BC75E2D63100000 DUP5 MUL SDIV SWAP3 POP PUSH9 0x2B5E3AF16B1880000 ADD JUMPDEST PUSH9 0x6F5F1775788937937 DUP4 SLT PUSH2 0x37B1 JUMPI PUSH9 0x6F5F1775788937937 PUSH9 0x56BC75E2D63100000 DUP5 MUL SDIV SWAP3 POP PUSH9 0x15AF1D78B58C40000 ADD JUMPDEST PUSH9 0x6248F33704B286603 DUP4 SLT PUSH2 0x37E5 JUMPI PUSH9 0x6248F33704B286603 PUSH9 0x56BC75E2D63100000 DUP5 MUL SDIV SWAP3 POP PUSH8 0xAD78EBC5AC620000 ADD JUMPDEST PUSH9 0x5C548670B9510E7AC DUP4 SLT PUSH2 0x3819 JUMPI PUSH9 0x5C548670B9510E7AC PUSH9 0x56BC75E2D63100000 DUP5 MUL SDIV SWAP3 POP PUSH8 0x56BC75E2D6310000 ADD JUMPDEST PUSH1 0x0 PUSH9 0x56BC75E2D63100000 DUP5 ADD PUSH9 0x56BC75E2D63100000 DUP1 DUP7 SUB MUL DUP2 PUSH2 0x383C JUMPI INVALID JUMPDEST SDIV SWAP1 POP PUSH1 0x0 PUSH9 0x56BC75E2D63100000 DUP3 DUP1 MUL SDIV SWAP1 POP DUP2 DUP1 PUSH9 0x56BC75E2D63100000 DUP2 DUP5 MUL SDIV SWAP2 POP PUSH1 0x3 DUP3 SDIV ADD PUSH9 0x56BC75E2D63100000 DUP3 DUP5 MUL SDIV SWAP2 POP PUSH1 0x5 DUP3 SDIV ADD PUSH9 0x56BC75E2D63100000 DUP3 DUP5 MUL SDIV SWAP2 POP PUSH1 0x7 DUP3 SDIV ADD PUSH9 0x56BC75E2D63100000 DUP3 DUP5 MUL SDIV SWAP2 POP PUSH1 0x9 DUP3 SDIV ADD PUSH9 0x56BC75E2D63100000 DUP3 DUP5 MUL SDIV SWAP2 POP PUSH1 0xB DUP3 SDIV ADD PUSH1 0x2 MUL PUSH1 0x64 DUP6 DUP3 ADD SDIV SWAP8 SWAP7 POP POP POP POP POP POP POP JUMP JUMPDEST PUSH1 0x0 DUP2 DUP4 LT ISZERO PUSH2 0x38E0 JUMPI DUP2 PUSH2 0x79E JUMP JUMPDEST POP SWAP1 SWAP2 SWAP1 POP JUMP JUMPDEST PUSH1 0x0 DUP1 DUP3 DUP1 PUSH1 0x20 ADD SWAP1 MLOAD DUP2 ADD SWAP1 PUSH2 0x38FE SWAP2 SWAP1 PUSH2 0x46B0 JUMP JUMPDEST SWAP1 SWAP6 SWAP1 SWAP5 POP SWAP3 POP POP POP JUMP JUMPDEST PUSH1 0x0 DUP1 PUSH2 0x391A DUP5 PUSH2 0x2CA4 DUP2 DUP9 PUSH2 0x11F4 JUMP JUMPDEST SWAP1 POP PUSH2 0x3933 PUSH8 0x9B6E64A8EC60000 DUP3 LT ISZERO PUSH2 0x132 PUSH2 0x13CC JUMP JUMPDEST PUSH1 0x0 PUSH2 0x3951 PUSH2 0x394A PUSH8 0xDE0B6B3A7640000 DUP10 PUSH2 0x1AE4 JUMP JUMPDEST DUP4 SWAP1 PUSH2 0x32D7 JUMP JUMPDEST SWAP1 POP PUSH1 0x0 PUSH2 0x3968 PUSH2 0x3961 DUP4 PUSH2 0x1F51 JUMP JUMPDEST DUP11 SWAP1 PUSH2 0x2E8E JUMP JUMPDEST SWAP1 POP PUSH1 0x0 PUSH2 0x3975 DUP10 PUSH2 0x1F51 JUMP JUMPDEST SWAP1 POP PUSH1 0x0 PUSH2 0x3983 DUP4 DUP4 PUSH2 0x1EC3 JUMP JUMPDEST SWAP1 POP PUSH1 0x0 PUSH2 0x3991 DUP5 DUP4 PUSH2 0x11F4 JUMP JUMPDEST SWAP1 POP PUSH2 0x39B0 PUSH2 0x39A9 PUSH2 0x39A2 DUP11 PUSH2 0x1F51 JUMP JUMPDEST DUP5 SWAP1 PUSH2 0x2E8E JUMP JUMPDEST DUP3 SWAP1 PUSH2 0x11C6 JUMP JUMPDEST SWAP13 SWAP12 POP POP POP POP POP POP POP POP POP POP POP POP JUMP JUMPDEST PUSH1 0x0 DUP2 DUP1 PUSH1 0x20 ADD SWAP1 MLOAD DUP2 ADD SWAP1 PUSH2 0x79E SWAP2 SWAP1 PUSH2 0x4683 JUMP JUMPDEST PUSH1 0x60 PUSH1 0x0 PUSH2 0x39E4 DUP5 DUP5 PUSH2 0x1AE4 JUMP JUMPDEST SWAP1 POP PUSH1 0x60 DUP6 MLOAD PUSH1 0x1 PUSH1 0x1 PUSH1 0x40 SHL SUB DUP2 GT DUP1 ISZERO PUSH2 0x39FF JUMPI PUSH1 0x0 DUP1 REVERT JUMPDEST POP PUSH1 0x40 MLOAD SWAP1 DUP1 DUP3 MSTORE DUP1 PUSH1 0x20 MUL PUSH1 0x20 ADD DUP3 ADD PUSH1 0x40 MSTORE DUP1 ISZERO PUSH2 0x3A29 JUMPI DUP2 PUSH1 0x20 ADD PUSH1 0x20 DUP3 MUL DUP1 CALLDATASIZE DUP4 CALLDATACOPY ADD SWAP1 POP JUMPDEST POP SWAP1 POP PUSH1 0x0 JUMPDEST DUP7 MLOAD DUP2 LT ISZERO PUSH2 0x3A7D JUMPI PUSH2 0x3A5E DUP4 DUP9 DUP4 DUP2 MLOAD DUP2 LT PUSH2 0x3A48 JUMPI INVALID JUMPDEST PUSH1 0x20 MUL PUSH1 0x20 ADD ADD MLOAD PUSH2 0x2E8E SWAP1 SWAP2 SWAP1 PUSH4 0xFFFFFFFF AND JUMP JUMPDEST DUP3 DUP3 DUP2 MLOAD DUP2 LT PUSH2 0x3A6A JUMPI INVALID JUMPDEST PUSH1 0x20 SWAP1 DUP2 MUL SWAP2 SWAP1 SWAP2 ADD ADD MSTORE PUSH1 0x1 ADD PUSH2 0x3A2F JUMP JUMPDEST POP SWAP6 SWAP5 POP POP POP POP POP JUMP JUMPDEST PUSH1 0x60 PUSH1 0x0 DUP3 DUP1 PUSH1 0x20 ADD SWAP1 MLOAD DUP2 ADD SWAP1 PUSH2 0x38FE SWAP2 SWAP1 PUSH2 0x463D JUMP JUMPDEST PUSH1 0x0 PUSH1 0x60 DUP5 MLOAD PUSH1 0x1 PUSH1 0x1 PUSH1 0x40 SHL SUB DUP2 GT DUP1 ISZERO PUSH2 0x3ABA JUMPI PUSH1 0x0 DUP1 REVERT JUMPDEST POP PUSH1 0x40 MLOAD SWAP1 DUP1 DUP3 MSTORE DUP1 PUSH1 0x20 MUL PUSH1 0x20 ADD DUP3 ADD PUSH1 0x40 MSTORE DUP1 ISZERO PUSH2 0x3AE4 JUMPI DUP2 PUSH1 0x20 ADD PUSH1 0x20 DUP3 MUL DUP1 CALLDATASIZE DUP4 CALLDATACOPY ADD SWAP1 POP JUMPDEST POP SWAP1 POP PUSH1 0x0 DUP1 JUMPDEST DUP9 MLOAD DUP2 LT ISZERO PUSH2 0x3BA9 JUMPI PUSH2 0x3B44 DUP10 DUP3 DUP2 MLOAD DUP2 LT PUSH2 0x3B03 JUMPI INVALID JUMPDEST PUSH1 0x20 MUL PUSH1 0x20 ADD ADD MLOAD PUSH2 0x2CA4 DUP10 DUP5 DUP2 MLOAD DUP2 LT PUSH2 0x3B1A JUMPI INVALID JUMPDEST PUSH1 0x20 MUL PUSH1 0x20 ADD ADD MLOAD DUP13 DUP6 DUP2 MLOAD DUP2 LT PUSH2 0x3B2E JUMPI INVALID JUMPDEST PUSH1 0x20 MUL PUSH1 0x20 ADD ADD MLOAD PUSH2 0x11F4 SWAP1 SWAP2 SWAP1 PUSH4 0xFFFFFFFF AND JUMP JUMPDEST DUP4 DUP3 DUP2 MLOAD DUP2 LT PUSH2 0x3B50 JUMPI INVALID JUMPDEST PUSH1 0x20 MUL PUSH1 0x20 ADD ADD DUP2 DUP2 MSTORE POP POP PUSH2 0x3B9F PUSH2 0x3B98 DUP10 DUP4 DUP2 MLOAD DUP2 LT PUSH2 0x3B6E JUMPI INVALID JUMPDEST PUSH1 0x20 MUL PUSH1 0x20 ADD ADD MLOAD DUP6 DUP5 DUP2 MLOAD DUP2 LT PUSH2 0x3B82 JUMPI INVALID JUMPDEST PUSH1 0x20 MUL PUSH1 0x20 ADD ADD MLOAD PUSH2 0x1EC3 SWAP1 SWAP2 SWAP1 PUSH4 0xFFFFFFFF AND JUMP JUMPDEST DUP4 SWAP1 PUSH2 0x11C6 JUMP JUMPDEST SWAP2 POP PUSH1 0x1 ADD PUSH2 0x3AEB JUMP JUMPDEST POP PUSH8 0xDE0B6B3A7640000 PUSH1 0x0 JUMPDEST DUP10 MLOAD DUP2 LT ISZERO PUSH2 0x3CA9 JUMPI PUSH1 0x0 DUP5 DUP3 DUP2 MLOAD DUP2 LT PUSH2 0x3BCD JUMPI INVALID JUMPDEST PUSH1 0x20 MUL PUSH1 0x20 ADD ADD MLOAD DUP5 GT ISZERO PUSH2 0x3C2B JUMPI PUSH1 0x0 PUSH2 0x3BF6 PUSH2 0x3BEA DUP7 PUSH2 0x1F51 JUMP JUMPDEST DUP14 DUP6 DUP2 MLOAD DUP2 LT PUSH2 0x3A48 JUMPI INVALID JUMPDEST SWAP1 POP PUSH1 0x0 PUSH2 0x3C0A DUP3 DUP13 DUP7 DUP2 MLOAD DUP2 LT PUSH2 0x3B2E JUMPI INVALID JUMPDEST SWAP1 POP PUSH2 0x3C22 PUSH2 0x3B98 PUSH2 0x3C1B DUP12 PUSH2 0x1F51 JUMP JUMPDEST DUP4 SWAP1 PUSH2 0x1F77 JUMP JUMPDEST SWAP3 POP POP POP PUSH2 0x3C42 JUMP JUMPDEST DUP9 DUP3 DUP2 MLOAD DUP2 LT PUSH2 0x3C37 JUMPI INVALID JUMPDEST PUSH1 0x20 MUL PUSH1 0x20 ADD ADD MLOAD SWAP1 POP JUMPDEST PUSH1 0x0 PUSH2 0x3C6B DUP13 DUP5 DUP2 MLOAD DUP2 LT PUSH2 0x3C53 JUMPI INVALID JUMPDEST PUSH1 0x20 MUL PUSH1 0x20 ADD ADD MLOAD PUSH2 0x985 DUP5 DUP16 DUP8 DUP2 MLOAD DUP2 LT PUSH2 0x3B2E JUMPI INVALID JUMPDEST SWAP1 POP PUSH2 0x3C9D PUSH2 0x3C96 DUP13 DUP6 DUP2 MLOAD DUP2 LT PUSH2 0x3C7F JUMPI INVALID JUMPDEST PUSH1 0x20 MUL PUSH1 0x20 ADD ADD MLOAD DUP4 PUSH2 0x2E3F SWAP1 SWAP2 SWAP1 PUSH4 0xFFFFFFFF AND JUMP JUMPDEST DUP6 SWAP1 PUSH2 0x2E8E JUMP JUMPDEST SWAP4 POP POP POP PUSH1 0x1 ADD PUSH2 0x3BB6 JUMP JUMPDEST POP PUSH2 0x3CBD PUSH2 0x3CB6 DUP3 PUSH2 0x1F51 JUMP JUMPDEST DUP8 SWAP1 PUSH2 0x1EC3 JUMP JUMPDEST SWAP10 SWAP9 POP POP POP POP POP POP POP POP POP JUMP JUMPDEST PUSH1 0x0 PUSH1 0x60 DUP5 MLOAD PUSH1 0x1 PUSH1 0x1 PUSH1 0x40 SHL SUB DUP2 GT DUP1 ISZERO PUSH2 0x3CE5 JUMPI PUSH1 0x0 DUP1 REVERT JUMPDEST POP PUSH1 0x40 MLOAD SWAP1 DUP1 DUP3 MSTORE DUP1 PUSH1 0x20 MUL PUSH1 0x20 ADD DUP3 ADD PUSH1 0x40 MSTORE DUP1 ISZERO PUSH2 0x3D0F JUMPI DUP2 PUSH1 0x20 ADD PUSH1 0x20 DUP3 MUL DUP1 CALLDATASIZE DUP4 CALLDATACOPY ADD SWAP1 POP JUMPDEST POP SWAP1 POP PUSH1 0x0 DUP1 JUMPDEST DUP9 MLOAD DUP2 LT ISZERO PUSH2 0x3DB7 JUMPI PUSH2 0x3D6F DUP10 DUP3 DUP2 MLOAD DUP2 LT PUSH2 0x3D2E JUMPI INVALID JUMPDEST PUSH1 0x20 MUL PUSH1 0x20 ADD ADD MLOAD PUSH2 0x985 DUP10 DUP5 DUP2 MLOAD DUP2 LT PUSH2 0x3D45 JUMPI INVALID JUMPDEST PUSH1 0x20 MUL PUSH1 0x20 ADD ADD MLOAD DUP13 DUP6 DUP2 MLOAD DUP2 LT PUSH2 0x3D59 JUMPI INVALID JUMPDEST PUSH1 0x20 MUL PUSH1 0x20 ADD ADD MLOAD PUSH2 0x11C6 SWAP1 SWAP2 SWAP1 PUSH4 0xFFFFFFFF AND JUMP JUMPDEST DUP4 DUP3 DUP2 MLOAD DUP2 LT PUSH2 0x3D7B JUMPI INVALID JUMPDEST PUSH1 0x20 MUL PUSH1 0x20 ADD ADD DUP2 DUP2 MSTORE POP POP PUSH2 0x3DAD PUSH2 0x3B98 DUP10 DUP4 DUP2 MLOAD DUP2 LT PUSH2 0x3D99 JUMPI INVALID JUMPDEST PUSH1 0x20 MUL PUSH1 0x20 ADD ADD MLOAD DUP6 DUP5 DUP2 MLOAD DUP2 LT PUSH2 0x3A48 JUMPI INVALID JUMPDEST SWAP2 POP PUSH1 0x1 ADD PUSH2 0x3D16 JUMP JUMPDEST POP PUSH8 0xDE0B6B3A7640000 PUSH1 0x0 JUMPDEST DUP10 MLOAD DUP2 LT ISZERO PUSH2 0x3E98 JUMPI PUSH1 0x0 DUP4 DUP6 DUP4 DUP2 MLOAD DUP2 LT PUSH2 0x3DDC JUMPI INVALID JUMPDEST PUSH1 0x20 MUL PUSH1 0x20 ADD ADD MLOAD GT ISZERO PUSH2 0x3E38 JUMPI PUSH1 0x0 PUSH2 0x3E01 PUSH2 0x3BEA DUP7 PUSH8 0xDE0B6B3A7640000 PUSH2 0x11F4 JUMP JUMPDEST SWAP1 POP PUSH1 0x0 PUSH2 0x3E15 DUP3 DUP13 DUP7 DUP2 MLOAD DUP2 LT PUSH2 0x3B2E JUMPI INVALID JUMPDEST SWAP1 POP PUSH2 0x3E2F PUSH2 0x3B98 PUSH2 0x2129 PUSH8 0xDE0B6B3A7640000 DUP13 PUSH2 0x11F4 JUMP JUMPDEST SWAP3 POP POP POP PUSH2 0x3E4F JUMP JUMPDEST DUP9 DUP3 DUP2 MLOAD DUP2 LT PUSH2 0x3E44 JUMPI INVALID JUMPDEST PUSH1 0x20 MUL PUSH1 0x20 ADD ADD MLOAD SWAP1 POP JUMPDEST PUSH1 0x0 PUSH2 0x3E78 DUP13 DUP5 DUP2 MLOAD DUP2 LT PUSH2 0x3E60 JUMPI INVALID JUMPDEST PUSH1 0x20 MUL PUSH1 0x20 ADD ADD MLOAD PUSH2 0x985 DUP5 DUP16 DUP8 DUP2 MLOAD DUP2 LT PUSH2 0x3D59 JUMPI INVALID JUMPDEST SWAP1 POP PUSH2 0x3E8C PUSH2 0x3C96 DUP13 DUP6 DUP2 MLOAD DUP2 LT PUSH2 0x3C7F JUMPI INVALID JUMPDEST SWAP4 POP POP POP PUSH1 0x1 ADD PUSH2 0x3DC4 JUMP JUMPDEST POP PUSH8 0xDE0B6B3A7640000 DUP2 LT PUSH2 0x3ECE JUMPI PUSH2 0x3EC4 PUSH2 0x3EBD DUP3 PUSH8 0xDE0B6B3A7640000 PUSH2 0x11F4 JUMP JUMPDEST DUP8 SWAP1 PUSH2 0x2E8E JUMP JUMPDEST SWAP4 POP POP POP POP PUSH2 0x1F1D JUMP JUMPDEST PUSH1 0x0 SWAP4 POP POP POP POP PUSH2 0x1F1D JUMP JUMPDEST PUSH1 0x0 DUP1 PUSH2 0x3EEB DUP5 PUSH2 0x2CA4 DUP2 DUP9 PUSH2 0x11C6 JUMP JUMPDEST SWAP1 POP PUSH2 0x3F04 PUSH8 0x29A2241AF62C0000 DUP3 GT ISZERO PUSH2 0x133 PUSH2 0x13CC JUMP JUMPDEST PUSH1 0x0 PUSH2 0x3F1B PUSH2 0x394A PUSH8 0xDE0B6B3A7640000 DUP10 PUSH2 0x1F77 JUMP JUMPDEST SWAP1 POP PUSH1 0x0 PUSH2 0x3F3B PUSH2 0x3F34 DUP4 PUSH8 0xDE0B6B3A7640000 PUSH2 0x11F4 JUMP JUMPDEST DUP11 SWAP1 PUSH2 0x1EC3 JUMP JUMPDEST SWAP1 POP PUSH1 0x0 PUSH2 0x3F48 DUP10 PUSH2 0x1F51 JUMP JUMPDEST SWAP1 POP PUSH1 0x0 PUSH2 0x3F56 DUP4 DUP4 PUSH2 0x1EC3 JUMP JUMPDEST SWAP1 POP PUSH1 0x0 PUSH2 0x3F64 DUP5 DUP4 PUSH2 0x11F4 JUMP JUMPDEST SWAP1 POP PUSH2 0x39B0 PUSH2 0x39A9 PUSH2 0x3F75 DUP11 PUSH2 0x1F51 JUMP JUMPDEST DUP5 SWAP1 PUSH2 0x1F77 JUMP JUMPDEST PUSH1 0x0 PUSH2 0x3F88 DUP3 DUP3 PUSH2 0x3FDC JUMP JUMPDEST PUSH2 0x3F93 DUP5 PUSH1 0x1F PUSH2 0x3FE0 JUMP JUMPDEST PUSH2 0x3F9E DUP7 PUSH1 0x54 PUSH2 0x3FF1 JUMP JUMPDEST PUSH2 0x3FA9 DUP9 PUSH1 0x6A PUSH2 0x3FE0 JUMP JUMPDEST PUSH2 0x3FB4 DUP11 PUSH1 0x9F PUSH2 0x3FF1 JUMP JUMPDEST PUSH2 0x3FBF DUP13 PUSH1 0xB5 PUSH2 0x3FE0 JUMP JUMPDEST PUSH2 0x3FCA DUP15 PUSH1 0xEA PUSH2 0x3FF1 JUMP JUMPDEST OR OR OR OR OR OR SWAP9 SWAP8 POP POP POP POP POP POP POP POP JUMP JUMPDEST SHL SWAP1 JUMP JUMPDEST PUSH7 0x1FFFFFFFFFFFFF SWAP2 SWAP1 SWAP2 AND SWAP1 SHL SWAP1 JUMP JUMPDEST PUSH3 0x3FFFFF SWAP2 SWAP1 SWAP2 AND SWAP1 SHL SWAP1 JUMP JUMPDEST PUSH1 0x40 DUP1 MLOAD PUSH1 0x60 DUP2 ADD SWAP1 SWAP2 MSTORE DUP1 PUSH1 0x0 DUP2 MSTORE PUSH1 0x20 ADD PUSH1 0x0 DUP2 MSTORE PUSH1 0x20 ADD PUSH1 0x0 DUP2 MSTORE POP SWAP1 JUMP JUMPDEST PUSH1 0x40 DUP1 MLOAD DUP1 DUP3 ADD SWAP1 SWAP2 MSTORE PUSH1 0x0 DUP1 DUP3 MSTORE PUSH1 0x20 DUP3 ADD MSTORE SWAP1 JUMP JUMPDEST DUP1 CALLDATALOAD PUSH2 0x5D1 DUP2 PUSH2 0x4B52 JUMP JUMPDEST PUSH1 0x0 DUP3 PUSH1 0x1F DUP4 ADD SLT PUSH2 0x4052 JUMPI DUP1 DUP2 REVERT JUMPDEST DUP2 MLOAD PUSH2 0x4065 PUSH2 0x4060 DUP3 PUSH2 0x4B33 JUMP JUMPDEST PUSH2 0x4B0D JUMP JUMPDEST DUP2 DUP2 MSTORE SWAP2 POP PUSH1 0x20 DUP1 DUP4 ADD SWAP1 DUP5 DUP2 ADD DUP2 DUP5 MUL DUP7 ADD DUP3 ADD DUP8 LT ISZERO PUSH2 0x4086 JUMPI PUSH1 0x0 DUP1 REVERT JUMPDEST PUSH1 0x0 JUMPDEST DUP5 DUP2 LT ISZERO PUSH2 0x40A5 JUMPI DUP2 MLOAD DUP5 MSTORE SWAP3 DUP3 ADD SWAP3 SWAP1 DUP3 ADD SWAP1 PUSH1 0x1 ADD PUSH2 0x4089 JUMP JUMPDEST POP POP POP POP POP SWAP3 SWAP2 POP POP JUMP JUMPDEST PUSH1 0x0 DUP3 PUSH1 0x1F DUP4 ADD SLT PUSH2 0x40C0 JUMPI DUP1 DUP2 REVERT JUMPDEST DUP2 CALLDATALOAD PUSH1 0x1 PUSH1 0x1 PUSH1 0x40 SHL SUB DUP2 GT ISZERO PUSH2 0x40D5 JUMPI DUP2 DUP3 REVERT JUMPDEST PUSH2 0x40E8 PUSH1 0x1F DUP3 ADD PUSH1 0x1F NOT AND PUSH1 0x20 ADD PUSH2 0x4B0D JUMP JUMPDEST SWAP2 POP DUP1 DUP3 MSTORE DUP4 PUSH1 0x20 DUP3 DUP6 ADD ADD GT ISZERO PUSH2 0x40FF JUMPI PUSH1 0x0 DUP1 REVERT JUMPDEST DUP1 PUSH1 0x20 DUP5 ADD PUSH1 0x20 DUP5 ADD CALLDATACOPY PUSH1 0x0 SWAP1 DUP3 ADD PUSH1 0x20 ADD MSTORE SWAP3 SWAP2 POP POP JUMP JUMPDEST DUP1 CALLDATALOAD PUSH1 0x2 DUP2 LT PUSH2 0x5D1 JUMPI PUSH1 0x0 DUP1 REVERT JUMPDEST DUP1 CALLDATALOAD PUSH2 0x5D1 DUP2 PUSH2 0x4B75 JUMP JUMPDEST PUSH1 0x0 PUSH1 0x20 DUP3 DUP5 SUB SLT ISZERO PUSH2 0x4143 JUMPI DUP1 DUP2 REVERT JUMPDEST DUP2 CALLDATALOAD PUSH2 0x79E DUP2 PUSH2 0x4B52 JUMP JUMPDEST PUSH1 0x0 DUP1 PUSH1 0x40 DUP4 DUP6 SUB SLT ISZERO PUSH2 0x4160 JUMPI DUP1 DUP2 REVERT JUMPDEST DUP3 CALLDATALOAD PUSH2 0x416B DUP2 PUSH2 0x4B52 JUMP JUMPDEST SWAP2 POP PUSH1 0x20 DUP4 ADD CALLDATALOAD PUSH2 0x417B DUP2 PUSH2 0x4B52 JUMP JUMPDEST DUP1 SWAP2 POP POP SWAP3 POP SWAP3 SWAP1 POP JUMP JUMPDEST PUSH1 0x0 DUP1 PUSH1 0x0 PUSH1 0x60 DUP5 DUP7 SUB SLT ISZERO PUSH2 0x419A JUMPI DUP1 DUP2 REVERT JUMPDEST DUP4 CALLDATALOAD PUSH2 0x41A5 DUP2 PUSH2 0x4B52 JUMP JUMPDEST SWAP3 POP PUSH1 0x20 DUP5 ADD CALLDATALOAD PUSH2 0x41B5 DUP2 PUSH2 0x4B52 JUMP JUMPDEST SWAP3 SWAP6 SWAP3 SWAP5 POP POP POP PUSH1 0x40 SWAP2 SWAP1 SWAP2 ADD CALLDATALOAD SWAP1 JUMP JUMPDEST PUSH1 0x0 DUP1 PUSH1 0x0 DUP1 PUSH1 0x0 DUP1 PUSH1 0x0 PUSH1 0xE0 DUP9 DUP11 SUB SLT ISZERO PUSH2 0x41E0 JUMPI DUP5 DUP6 REVERT JUMPDEST DUP8 CALLDATALOAD PUSH2 0x41EB DUP2 PUSH2 0x4B52 JUMP JUMPDEST SWAP7 POP PUSH1 0x20 DUP9 ADD CALLDATALOAD PUSH2 0x41FB DUP2 PUSH2 0x4B52 JUMP JUMPDEST SWAP6 POP PUSH1 0x40 DUP9 ADD CALLDATALOAD SWAP5 POP PUSH1 0x60 DUP9 ADD CALLDATALOAD SWAP4 POP PUSH1 0x80 DUP9 ADD CALLDATALOAD PUSH1 0xFF DUP2 AND DUP2 EQ PUSH2 0x421E JUMPI DUP4 DUP5 REVERT JUMPDEST SWAP7 SWAP10 SWAP6 SWAP9 POP SWAP4 SWAP7 SWAP3 SWAP6 SWAP5 PUSH1 0xA0 DUP5 ADD CALLDATALOAD SWAP5 POP PUSH1 0xC0 SWAP1 SWAP4 ADD CALLDATALOAD SWAP3 SWAP2 POP POP JUMP JUMPDEST PUSH1 0x0 DUP1 PUSH1 0x40 DUP4 DUP6 SUB SLT ISZERO PUSH2 0x424D JUMPI DUP2 DUP3 REVERT JUMPDEST DUP3 CALLDATALOAD PUSH2 0x4258 DUP2 PUSH2 0x4B52 JUMP JUMPDEST SWAP5 PUSH1 0x20 SWAP4 SWAP1 SWAP4 ADD CALLDATALOAD SWAP4 POP POP POP JUMP JUMPDEST PUSH1 0x0 DUP1 PUSH1 0x0 PUSH1 0x60 DUP5 DUP7 SUB SLT ISZERO PUSH2 0x427A JUMPI DUP1 DUP2 REVERT JUMPDEST DUP4 MLOAD PUSH1 0x1 PUSH1 0x1 PUSH1 0x40 SHL SUB DUP1 DUP3 GT ISZERO PUSH2 0x4290 JUMPI DUP3 DUP4 REVERT JUMPDEST DUP2 DUP7 ADD SWAP2 POP DUP7 PUSH1 0x1F DUP4 ADD SLT PUSH2 0x42A3 JUMPI DUP3 DUP4 REVERT JUMPDEST DUP2 MLOAD PUSH2 0x42B1 PUSH2 0x4060 DUP3 PUSH2 0x4B33 JUMP JUMPDEST DUP1 DUP3 DUP3 MSTORE PUSH1 0x20 DUP1 DUP4 ADD SWAP3 POP DUP1 DUP7 ADD DUP12 DUP3 DUP4 DUP8 MUL DUP10 ADD ADD GT ISZERO PUSH2 0x42D1 JUMPI DUP8 DUP9 REVERT JUMPDEST DUP8 SWAP7 POP JUMPDEST DUP5 DUP8 LT ISZERO PUSH2 0x42FC JUMPI DUP1 MLOAD PUSH2 0x42E8 DUP2 PUSH2 0x4B52 JUMP JUMPDEST DUP5 MSTORE PUSH1 0x1 SWAP7 SWAP1 SWAP7 ADD SWAP6 SWAP3 DUP2 ADD SWAP3 DUP2 ADD PUSH2 0x42D5 JUMP JUMPDEST POP DUP10 ADD MLOAD SWAP1 SWAP8 POP SWAP4 POP POP POP DUP1 DUP3 GT ISZERO PUSH2 0x4313 JUMPI DUP3 DUP4 REVERT JUMPDEST POP PUSH2 0x4320 DUP7 DUP3 DUP8 ADD PUSH2 0x4042 JUMP JUMPDEST SWAP3 POP POP PUSH1 0x40 DUP5 ADD MLOAD SWAP1 POP SWAP3 POP SWAP3 POP SWAP3 JUMP JUMPDEST PUSH1 0x0 PUSH1 0x20 DUP1 DUP4 DUP6 SUB SLT ISZERO PUSH2 0x4343 JUMPI DUP2 DUP3 REVERT JUMPDEST DUP3 CALLDATALOAD PUSH1 0x1 PUSH1 0x1 PUSH1 0x40 SHL SUB DUP2 GT ISZERO PUSH2 0x4358 JUMPI DUP3 DUP4 REVERT JUMPDEST DUP4 ADD PUSH1 0x1F DUP2 ADD DUP6 SGT PUSH2 0x4368 JUMPI DUP3 DUP4 REVERT JUMPDEST DUP1 CALLDATALOAD PUSH2 0x4376 PUSH2 0x4060 DUP3 PUSH2 0x4B33 JUMP JUMPDEST DUP2 DUP2 MSTORE DUP4 DUP2 ADD SWAP1 DUP4 DUP6 ADD PUSH1 0x40 DUP1 DUP6 MUL DUP7 ADD DUP8 ADD DUP11 LT ISZERO PUSH2 0x4394 JUMPI DUP8 DUP9 REVERT JUMPDEST DUP8 SWAP6 POP JUMPDEST DUP5 DUP7 LT ISZERO PUSH2 0x43E1 JUMPI DUP1 DUP3 DUP12 SUB SLT ISZERO PUSH2 0x43AE JUMPI DUP8 DUP9 REVERT JUMPDEST PUSH2 0x43B7 DUP2 PUSH2 0x4B0D JUMP JUMPDEST PUSH2 0x43C1 DUP12 DUP5 PUSH2 0x4127 JUMP JUMPDEST DUP2 MSTORE DUP3 DUP9 ADD CALLDATALOAD DUP9 DUP3 ADD MSTORE DUP5 MSTORE PUSH1 0x1 SWAP6 SWAP1 SWAP6 ADD SWAP5 SWAP3 DUP7 ADD SWAP3 SWAP1 DUP2 ADD SWAP1 PUSH2 0x4398 JUMP JUMPDEST POP SWAP1 SWAP9 SWAP8 POP POP POP POP POP POP POP POP JUMP JUMPDEST PUSH1 0x0 PUSH1 0x20 DUP1 DUP4 DUP6 SUB SLT ISZERO PUSH2 0x4401 JUMPI DUP2 DUP3 REVERT JUMPDEST DUP3 CALLDATALOAD PUSH1 0x1 PUSH1 0x1 PUSH1 0x40 SHL SUB DUP2 GT ISZERO PUSH2 0x4416 JUMPI DUP3 DUP4 REVERT JUMPDEST DUP4 ADD PUSH1 0x1F DUP2 ADD DUP6 SGT PUSH2 0x4426 JUMPI DUP3 DUP4 REVERT JUMPDEST DUP1 CALLDATALOAD PUSH2 0x4434 PUSH2 0x4060 DUP3 PUSH2 0x4B33 JUMP JUMPDEST DUP2 DUP2 MSTORE DUP4 DUP2 ADD SWAP1 DUP4 DUP6 ADD PUSH1 0x60 DUP1 DUP6 MUL DUP7 ADD DUP8 ADD DUP11 LT ISZERO PUSH2 0x4452 JUMPI DUP8 DUP9 REVERT JUMPDEST DUP8 SWAP6 POP JUMPDEST DUP5 DUP7 LT ISZERO PUSH2 0x43E1 JUMPI DUP1 DUP3 DUP12 SUB SLT ISZERO PUSH2 0x446C JUMPI DUP8 DUP9 REVERT JUMPDEST PUSH2 0x4475 DUP2 PUSH2 0x4B0D JUMP JUMPDEST PUSH2 0x447F DUP12 DUP5 PUSH2 0x4127 JUMP JUMPDEST DUP2 MSTORE DUP3 DUP9 ADD CALLDATALOAD DUP9 DUP3 ADD MSTORE PUSH1 0x40 DUP1 DUP5 ADD CALLDATALOAD SWAP1 DUP3 ADD MSTORE DUP5 MSTORE PUSH1 0x1 SWAP6 SWAP1 SWAP6 ADD SWAP5 SWAP3 DUP7 ADD SWAP3 SWAP1 DUP2 ADD SWAP1 PUSH2 0x4456 JUMP JUMPDEST PUSH1 0x0 PUSH1 0x20 DUP3 DUP5 SUB SLT ISZERO PUSH2 0x44BA JUMPI DUP1 DUP2 REVERT JUMPDEST DUP2 CALLDATALOAD PUSH2 0x79E DUP2 PUSH2 0x4B67 JUMP JUMPDEST PUSH1 0x0 PUSH1 0x20 DUP3 DUP5 SUB SLT ISZERO PUSH2 0x44D6 JUMPI DUP1 DUP2 REVERT JUMPDEST DUP2 MLOAD PUSH2 0x79E DUP2 PUSH2 0x4B67 JUMP JUMPDEST PUSH1 0x0 DUP1 PUSH1 0x0 DUP1 PUSH1 0x0 DUP1 PUSH1 0x0 PUSH1 0xE0 DUP9 DUP11 SUB SLT ISZERO PUSH2 0x44FB JUMPI DUP1 DUP2 REVERT JUMPDEST DUP8 CALLDATALOAD SWAP7 POP PUSH1 0x20 DUP1 DUP10 ADD CALLDATALOAD PUSH2 0x450E DUP2 PUSH2 0x4B52 JUMP JUMPDEST SWAP7 POP PUSH1 0x40 DUP10 ADD CALLDATALOAD PUSH2 0x451E DUP2 PUSH2 0x4B52 JUMP JUMPDEST SWAP6 POP PUSH1 0x60 DUP10 ADD CALLDATALOAD PUSH1 0x1 PUSH1 0x1 PUSH1 0x40 SHL SUB DUP1 DUP3 GT ISZERO PUSH2 0x4539 JUMPI DUP4 DUP5 REVERT JUMPDEST DUP2 DUP12 ADD SWAP2 POP DUP12 PUSH1 0x1F DUP4 ADD SLT PUSH2 0x454C JUMPI DUP4 DUP5 REVERT JUMPDEST DUP2 CALLDATALOAD PUSH2 0x455A PUSH2 0x4060 DUP3 PUSH2 0x4B33 JUMP JUMPDEST DUP1 DUP3 DUP3 MSTORE DUP6 DUP3 ADD SWAP2 POP DUP6 DUP6 ADD DUP16 DUP8 DUP9 DUP7 MUL DUP9 ADD ADD GT ISZERO PUSH2 0x4578 JUMPI DUP8 DUP9 REVERT JUMPDEST DUP8 SWAP6 POP JUMPDEST DUP4 DUP7 LT ISZERO PUSH2 0x459A JUMPI DUP1 CALLDATALOAD DUP4 MSTORE PUSH1 0x1 SWAP6 SWAP1 SWAP6 ADD SWAP5 SWAP2 DUP7 ADD SWAP2 DUP7 ADD PUSH2 0x457C JUMP JUMPDEST POP SWAP9 POP POP POP PUSH1 0x80 DUP12 ADD CALLDATALOAD SWAP6 POP PUSH1 0xA0 DUP12 ADD CALLDATALOAD SWAP5 POP PUSH1 0xC0 DUP12 ADD CALLDATALOAD SWAP3 POP DUP1 DUP4 GT ISZERO PUSH2 0x45C0 JUMPI DUP4 DUP5 REVERT JUMPDEST POP POP PUSH2 0x45CE DUP11 DUP3 DUP12 ADD PUSH2 0x40B0 JUMP JUMPDEST SWAP2 POP POP SWAP3 SWAP6 SWAP9 SWAP2 SWAP5 SWAP8 POP SWAP3 SWAP6 POP JUMP JUMPDEST PUSH1 0x0 PUSH1 0x20 DUP3 DUP5 SUB SLT ISZERO PUSH2 0x45EE JUMPI DUP1 DUP2 REVERT JUMPDEST DUP2 CALLDATALOAD PUSH1 0x1 PUSH1 0x1 PUSH1 0xE0 SHL SUB NOT DUP2 AND DUP2 EQ PUSH2 0x79E JUMPI DUP2 DUP3 REVERT JUMPDEST PUSH1 0x0 PUSH1 0x20 DUP3 DUP5 SUB SLT ISZERO PUSH2 0x4616 JUMPI DUP1 DUP2 REVERT JUMPDEST DUP2 MLOAD PUSH2 0x79E DUP2 PUSH2 0x4B52 JUMP JUMPDEST PUSH1 0x0 PUSH1 0x20 DUP3 DUP5 SUB SLT ISZERO PUSH2 0x4632 JUMPI DUP1 DUP2 REVERT JUMPDEST DUP2 MLOAD PUSH2 0x79E DUP2 PUSH2 0x4B75 JUMP JUMPDEST PUSH1 0x0 DUP1 PUSH1 0x0 PUSH1 0x60 DUP5 DUP7 SUB SLT ISZERO PUSH2 0x4651 JUMPI DUP1 DUP2 REVERT JUMPDEST DUP4 MLOAD PUSH2 0x465C DUP2 PUSH2 0x4B75 JUMP JUMPDEST PUSH1 0x20 DUP6 ADD MLOAD SWAP1 SWAP4 POP PUSH1 0x1 PUSH1 0x1 PUSH1 0x40 SHL SUB DUP2 GT ISZERO PUSH2 0x4677 JUMPI DUP2 DUP3 REVERT JUMPDEST PUSH2 0x4320 DUP7 DUP3 DUP8 ADD PUSH2 0x4042 JUMP JUMPDEST PUSH1 0x0 DUP1 PUSH1 0x40 DUP4 DUP6 SUB SLT ISZERO PUSH2 0x4695 JUMPI DUP2 DUP3 REVERT JUMPDEST DUP3 MLOAD PUSH2 0x46A0 DUP2 PUSH2 0x4B75 JUMP JUMPDEST PUSH1 0x20 SWAP4 SWAP1 SWAP4 ADD MLOAD SWAP3 SWAP5 SWAP3 SWAP4 POP POP POP JUMP JUMPDEST PUSH1 0x0 DUP1 PUSH1 0x0 PUSH1 0x60 DUP5 DUP7 SUB SLT ISZERO PUSH2 0x46C4 JUMPI DUP1 DUP2 REVERT JUMPDEST DUP4 MLOAD PUSH2 0x46CF DUP2 PUSH2 0x4B75 JUMP JUMPDEST PUSH1 0x20 DUP6 ADD MLOAD PUSH1 0x40 SWAP1 SWAP6 ADD MLOAD SWAP1 SWAP7 SWAP5 SWAP6 POP SWAP4 SWAP3 POP POP POP JUMP JUMPDEST PUSH1 0x0 DUP1 PUSH1 0x40 DUP4 DUP6 SUB SLT ISZERO PUSH2 0x46F8 JUMPI DUP2 DUP3 REVERT JUMPDEST DUP3 MLOAD PUSH2 0x4703 DUP2 PUSH2 0x4B75 JUMP JUMPDEST PUSH1 0x20 DUP5 ADD MLOAD SWAP1 SWAP3 POP PUSH1 0x1 PUSH1 0x1 PUSH1 0x40 SHL SUB DUP2 GT ISZERO PUSH2 0x471E JUMPI DUP2 DUP3 REVERT JUMPDEST PUSH2 0x472A DUP6 DUP3 DUP7 ADD PUSH2 0x4042 JUMP JUMPDEST SWAP2 POP POP SWAP3 POP SWAP3 SWAP1 POP JUMP JUMPDEST PUSH1 0x0 PUSH1 0x20 DUP3 DUP5 SUB SLT ISZERO PUSH2 0x4745 JUMPI DUP1 DUP2 REVERT JUMPDEST DUP2 CALLDATALOAD PUSH2 0x79E DUP2 PUSH2 0x4B75 JUMP JUMPDEST PUSH1 0x0 DUP1 PUSH1 0x0 PUSH1 0x60 DUP5 DUP7 SUB SLT ISZERO PUSH2 0x4764 JUMPI DUP1 DUP2 REVERT JUMPDEST DUP4 CALLDATALOAD PUSH1 0x1 PUSH1 0x1 PUSH1 0x40 SHL SUB DUP1 DUP3 GT ISZERO PUSH2 0x477A JUMPI DUP3 DUP4 REVERT JUMPDEST DUP2 DUP7 ADD SWAP2 POP PUSH2 0x120 DUP1 DUP4 DUP10 SUB SLT ISZERO PUSH2 0x4790 JUMPI DUP4 DUP5 REVERT JUMPDEST PUSH2 0x4799 DUP2 PUSH2 0x4B0D JUMP JUMPDEST SWAP1 POP PUSH2 0x47A5 DUP9 DUP5 PUSH2 0x4118 JUMP JUMPDEST DUP2 MSTORE PUSH2 0x47B4 DUP9 PUSH1 0x20 DUP6 ADD PUSH2 0x4037 JUMP JUMPDEST PUSH1 0x20 DUP3 ADD MSTORE PUSH2 0x47C6 DUP9 PUSH1 0x40 DUP6 ADD PUSH2 0x4037 JUMP JUMPDEST PUSH1 0x40 DUP3 ADD MSTORE PUSH1 0x60 DUP4 ADD CALLDATALOAD PUSH1 0x60 DUP3 ADD MSTORE PUSH1 0x80 DUP4 ADD CALLDATALOAD PUSH1 0x80 DUP3 ADD MSTORE PUSH1 0xA0 DUP4 ADD CALLDATALOAD PUSH1 0xA0 DUP3 ADD MSTORE PUSH2 0x47F6 DUP9 PUSH1 0xC0 DUP6 ADD PUSH2 0x4037 JUMP JUMPDEST PUSH1 0xC0 DUP3 ADD MSTORE PUSH2 0x4808 DUP9 PUSH1 0xE0 DUP6 ADD PUSH2 0x4037 JUMP JUMPDEST PUSH1 0xE0 DUP3 ADD MSTORE PUSH2 0x100 DUP1 DUP5 ADD CALLDATALOAD DUP4 DUP2 GT ISZERO PUSH2 0x4820 JUMPI DUP6 DUP7 REVERT JUMPDEST PUSH2 0x482C DUP11 DUP3 DUP8 ADD PUSH2 0x40B0 JUMP JUMPDEST SWAP2 DUP4 ADD SWAP2 SWAP1 SWAP2 MSTORE POP SWAP8 PUSH1 0x20 DUP8 ADD CALLDATALOAD SWAP8 POP PUSH1 0x40 SWAP1 SWAP7 ADD CALLDATALOAD SWAP6 SWAP5 POP POP POP POP POP JUMP JUMPDEST PUSH1 0x0 PUSH1 0x20 DUP3 DUP5 SUB SLT ISZERO PUSH2 0x485C JUMPI DUP1 DUP2 REVERT JUMPDEST POP CALLDATALOAD SWAP2 SWAP1 POP JUMP JUMPDEST PUSH1 0x0 DUP2 MLOAD DUP1 DUP5 MSTORE PUSH1 0x20 DUP1 DUP6 ADD SWAP5 POP DUP1 DUP5 ADD DUP4 JUMPDEST DUP4 DUP2 LT ISZERO PUSH2 0x4892 JUMPI DUP2 MLOAD DUP8 MSTORE SWAP6 DUP3 ADD SWAP6 SWAP1 DUP3 ADD SWAP1 PUSH1 0x1 ADD PUSH2 0x4876 JUMP JUMPDEST POP SWAP5 SWAP6 SWAP5 POP POP POP POP POP JUMP JUMPDEST SWAP2 DUP3 MSTORE PUSH1 0x1 PUSH1 0x1 PUSH1 0xE0 SHL SUB NOT AND PUSH1 0x20 DUP3 ADD MSTORE PUSH1 0x24 ADD SWAP1 JUMP JUMPDEST PUSH1 0x0 DUP3 DUP5 DUP4 CALLDATACOPY SWAP2 ADD SWAP1 DUP2 MSTORE SWAP2 SWAP1 POP JUMP JUMPDEST PUSH2 0x1901 PUSH1 0xF0 SHL DUP2 MSTORE PUSH1 0x2 DUP2 ADD SWAP3 SWAP1 SWAP3 MSTORE PUSH1 0x22 DUP3 ADD MSTORE PUSH1 0x42 ADD SWAP1 JUMP JUMPDEST PUSH1 0x1 PUSH1 0x1 PUSH1 0xA0 SHL SUB SWAP2 SWAP1 SWAP2 AND DUP2 MSTORE PUSH1 0x20 ADD SWAP1 JUMP JUMPDEST PUSH1 0x20 DUP1 DUP3 MSTORE DUP3 MLOAD DUP3 DUP3 ADD DUP2 SWAP1 MSTORE PUSH1 0x0 SWAP2 SWAP1 DUP5 DUP3 ADD SWAP1 PUSH1 0x40 DUP6 ADD SWAP1 DUP5 JUMPDEST DUP2 DUP2 LT ISZERO PUSH2 0x492C JUMPI DUP4 MLOAD DUP4 MSTORE SWAP3 DUP5 ADD SWAP3 SWAP2 DUP5 ADD SWAP2 PUSH1 0x1 ADD PUSH2 0x4910 JUMP JUMPDEST POP SWAP1 SWAP7 SWAP6 POP POP POP POP POP POP JUMP JUMPDEST PUSH1 0x0 PUSH1 0x20 DUP3 MSTORE PUSH2 0x79E PUSH1 0x20 DUP4 ADD DUP5 PUSH2 0x4863 JUMP JUMPDEST PUSH1 0x0 PUSH1 0x40 DUP3 MSTORE PUSH2 0x495E PUSH1 0x40 DUP4 ADD DUP6 PUSH2 0x4863 JUMP JUMPDEST DUP3 DUP2 SUB PUSH1 0x20 DUP5 ADD MSTORE PUSH2 0x1F1D DUP2 DUP6 PUSH2 0x4863 JUMP JUMPDEST SWAP1 ISZERO ISZERO DUP2 MSTORE PUSH1 0x20 ADD SWAP1 JUMP JUMPDEST SWAP3 ISZERO ISZERO DUP4 MSTORE PUSH1 0x20 DUP4 ADD SWAP2 SWAP1 SWAP2 MSTORE PUSH1 0x40 DUP3 ADD MSTORE PUSH1 0x60 ADD SWAP1 JUMP JUMPDEST SWAP1 DUP2 MSTORE PUSH1 0x20 ADD SWAP1 JUMP JUMPDEST SWAP3 DUP4 MSTORE PUSH1 0x1 PUSH1 0x1 PUSH1 0xA0 SHL SUB SWAP2 DUP3 AND PUSH1 0x20 DUP5 ADD MSTORE AND PUSH1 0x40 DUP3 ADD MSTORE PUSH1 0x60 ADD SWAP1 JUMP JUMPDEST SWAP6 DUP7 MSTORE PUSH1 0x1 PUSH1 0x1 PUSH1 0xA0 SHL SUB SWAP5 DUP6 AND PUSH1 0x20 DUP8 ADD MSTORE SWAP3 SWAP1 SWAP4 AND PUSH1 0x40 DUP6 ADD MSTORE PUSH1 0x60 DUP5 ADD MSTORE PUSH1 0x80 DUP4 ADD SWAP2 SWAP1 SWAP2 MSTORE PUSH1 0xA0 DUP3 ADD MSTORE PUSH1 0xC0 ADD SWAP1 JUMP JUMPDEST SWAP5 DUP6 MSTORE PUSH1 0x20 DUP6 ADD SWAP4 SWAP1 SWAP4 MSTORE PUSH1 0x40 DUP5 ADD SWAP2 SWAP1 SWAP2 MSTORE PUSH1 0x60 DUP4 ADD MSTORE PUSH1 0x1 PUSH1 0x1 PUSH1 0xA0 SHL SUB AND PUSH1 0x80 DUP3 ADD MSTORE PUSH1 0xA0 ADD SWAP1 JUMP JUMPDEST SWAP4 DUP5 MSTORE PUSH1 0xFF SWAP3 SWAP1 SWAP3 AND PUSH1 0x20 DUP5 ADD MSTORE PUSH1 0x40 DUP4 ADD MSTORE PUSH1 0x60 DUP3 ADD MSTORE PUSH1 0x80 ADD SWAP1 JUMP JUMPDEST SWAP7 DUP8 MSTORE PUSH1 0x20 DUP8 ADD SWAP6 SWAP1 SWAP6 MSTORE PUSH1 0x40 DUP7 ADD SWAP4 SWAP1 SWAP4 MSTORE PUSH1 0x60 DUP6 ADD SWAP2 SWAP1 SWAP2 MSTORE PUSH1 0x80 DUP5 ADD MSTORE PUSH1 0xA0 DUP4 ADD MSTORE PUSH1 0xC0 DUP3 ADD MSTORE PUSH1 0xE0 ADD SWAP1 JUMP JUMPDEST SWAP6 DUP7 MSTORE PUSH1 0x20 DUP7 ADD SWAP5 SWAP1 SWAP5 MSTORE PUSH1 0x40 DUP6 ADD SWAP3 SWAP1 SWAP3 MSTORE PUSH1 0x60 DUP5 ADD MSTORE ISZERO ISZERO PUSH1 0x80 DUP4 ADD MSTORE PUSH1 0xA0 DUP3 ADD MSTORE PUSH1 0xC0 ADD SWAP1 JUMP JUMPDEST PUSH1 0x0 PUSH1 0x20 DUP1 DUP4 MSTORE DUP4 MLOAD DUP1 DUP3 DUP6 ADD MSTORE DUP3 JUMPDEST DUP2 DUP2 LT ISZERO PUSH2 0x4ABF JUMPI DUP6 DUP2 ADD DUP4 ADD MLOAD DUP6 DUP3 ADD PUSH1 0x40 ADD MSTORE DUP3 ADD PUSH2 0x4AA3 JUMP JUMPDEST DUP2 DUP2 GT ISZERO PUSH2 0x4AD0 JUMPI DUP4 PUSH1 0x40 DUP4 DUP8 ADD ADD MSTORE JUMPDEST POP PUSH1 0x1F ADD PUSH1 0x1F NOT AND SWAP3 SWAP1 SWAP3 ADD PUSH1 0x40 ADD SWAP4 SWAP3 POP POP POP JUMP JUMPDEST PUSH1 0x0 DUP4 DUP3 MSTORE PUSH1 0x40 PUSH1 0x20 DUP4 ADD MSTORE PUSH2 0x2062 PUSH1 0x40 DUP4 ADD DUP5 PUSH2 0x4863 JUMP JUMPDEST PUSH1 0xFF SWAP2 SWAP1 SWAP2 AND DUP2 MSTORE PUSH1 0x20 ADD SWAP1 JUMP JUMPDEST PUSH1 0x40 MLOAD DUP2 DUP2 ADD PUSH1 0x1 PUSH1 0x1 PUSH1 0x40 SHL SUB DUP2 GT DUP3 DUP3 LT OR ISZERO PUSH2 0x4B2B JUMPI PUSH1 0x0 DUP1 REVERT JUMPDEST PUSH1 0x40 MSTORE SWAP2 SWAP1 POP JUMP JUMPDEST PUSH1 0x0 PUSH1 0x1 PUSH1 0x1 PUSH1 0x40 SHL SUB DUP3 GT ISZERO PUSH2 0x4B48 JUMPI DUP1 DUP2 REVERT JUMPDEST POP PUSH1 0x20 SWAP1 DUP2 MUL ADD SWAP1 JUMP JUMPDEST PUSH1 0x1 PUSH1 0x1 PUSH1 0xA0 SHL SUB DUP2 AND DUP2 EQ PUSH2 0x5E8 JUMPI PUSH1 0x0 DUP1 REVERT JUMPDEST DUP1 ISZERO ISZERO DUP2 EQ PUSH2 0x5E8 JUMPI PUSH1 0x0 DUP1 REVERT JUMPDEST PUSH1 0x3 DUP2 LT PUSH2 0x5E8 JUMPI PUSH1 0x0 DUP1 REVERT INVALID LOG2 PUSH5 0x6970667358 0x22 SLT KECCAK256 0x4D 0xAE 0xE1 BLOCKHASH EXP 0xEF 0xD9 PUSH7 0x355B280C1FEF8A 0xBD 0xC5 0xAB 0x4B 0xC2 0xD0 0xC 0xB9 SWAP4 DUP15 0xB5 DELEGATECALL 0x26 0x5C BALANCE CODECOPY DIV PUSH5 0x736F6C6343 STOP SMOD ADD STOP CALLER "
		},
		"gasEstimates": {
			"creation": {
				"codeDepositCost": "3876800",
				"executionCost": "infinite",
				"totalCost": "infinite"
			},
			"external": {
				"DOMAIN_SEPARATOR()": "infinite",
				"allowance(address,address)": "infinite",
				"approve(address,uint256)": "22550",
				"balanceOf(address)": "1409",
				"decimals()": "352",
				"decreaseApproval(address,uint256)": "23631",
				"enableOracle()": "infinite",
				"getActionId(bytes4)": "infinite",
				"getAuthorizer()": "infinite",
				"getInvariant()": "infinite",
				"getLargestSafeQueryWindow()": "360",
				"getLastInvariant()": "1117",
				"getLatest(uint8)": "infinite",
				"getMiscData()": "infinite",
				"getNormalizedWeights()": "infinite",
				"getOwner()": "infinite",
				"getPastAccumulators((uint8,uint256)[])": "infinite",
				"getPausedState()": "infinite",
				"getPoolId()": "infinite",
				"getRate()": "infinite",
				"getSample(uint256)": "infinite",
				"getSwapFeePercentage()": "1239",
				"getTimeWeightedAverage((uint8,uint256,uint256)[])": "infinite",
				"getTotalSamples()": "317",
				"getVault()": "infinite",
				"increaseApproval(address,uint256)": "23626",
				"name()": "infinite",
				"nonces(address)": "1332",
				"onExitPool(bytes32,address,address,uint256[],uint256,uint256,bytes)": "infinite",
				"onJoinPool(bytes32,address,address,uint256[],uint256,uint256,bytes)": "infinite",
				"onSwap((uint8,address,address,uint256,bytes32,uint256,address,address,bytes),uint256,uint256)": "infinite",
				"permit(address,address,uint256,uint256,uint8,bytes32,bytes32)": "infinite",
				"queryExit(bytes32,address,address,uint256[],uint256,uint256,bytes)": "infinite",
				"queryJoin(bytes32,address,address,uint256[],uint256,uint256,bytes)": "infinite",
				"setPaused(bool)": "infinite",
				"setSwapFeePercentage(uint256)": "infinite",
				"symbol()": "infinite",
				"totalSupply()": "1141",
				"transfer(address,uint256)": "infinite",
				"transferFrom(address,address,uint256)": "infinite"
			},
			"internal": {
				"_cacheInvariantAndSupply()": "infinite",
				"_computeScalingFactor(contract IERC20)": "infinite",
				"_doExit(uint256[] memory,uint256[] memory,bytes memory)": "infinite",
				"_doJoin(uint256[] memory,uint256[] memory,bytes memory)": "infinite",
				"_downscaleDown(uint256,uint256)": "288",
				"_downscaleDownArray(uint256[] memory)": "infinite",
				"_downscaleUp(uint256,uint256)": "288",
				"_downscaleUpArray(uint256[] memory)": "infinite",
				"_exitBPTInForExactTokensOut(uint256[] memory,uint256[] memory,bytes memory)": "infinite",
				"_exitExactBPTInForTokenOut(uint256[] memory,uint256[] memory,bytes memory)": "infinite",
				"_exitExactBPTInForTokensOut(uint256[] memory,bytes memory)": "infinite",
				"_getAuthorizer()": "infinite",
				"_getDueProtocolFeeAmounts(uint256[] memory,uint256[] memory,uint256,uint256,uint256)": "infinite",
				"_joinExactTokensInForBPTOut(uint256[] memory,uint256[] memory,bytes memory)": "infinite",
				"_joinTokenInForExactBPTOut(uint256[] memory,uint256[] memory,bytes memory)": "infinite",
				"_mutateAmounts(uint256[] memory,uint256[] memory,function (uint256,uint256) pure returns (uint256))": "infinite",
				"_normalizedWeights()": "infinite",
				"_normalizedWeights(bool)": "infinite",
				"_onExitPool(bytes32,address,address,uint256[] memory,uint256,uint256,bytes memory)": "infinite",
				"_onInitializePool(bytes32,address,address,bytes memory)": "infinite",
				"_onJoinPool(bytes32,address,address,uint256[] memory,uint256,uint256,bytes memory)": "infinite",
				"_onSwapGivenIn(struct IPoolSwapStructs.SwapRequest memory,uint256,uint256,uint256,uint256)": "infinite",
				"_onSwapGivenOut(struct IPoolSwapStructs.SwapRequest memory,uint256,uint256,uint256,uint256)": "infinite",
				"_queryAction(bytes32,address,address,uint256[] memory,uint256,uint256,bytes memory,function (bytes32,address,address,uint256[] memory,uint256,uint256,bytes memory) returns (uint256,uint256[] memory,uint256[] memory),function (uint256[] memory) view)": "infinite",
				"_scalingFactor(bool)": "infinite",
				"_setOracleEnabled(bool)": "infinite",
				"_setSwapFeePercentage(uint256)": "infinite",
				"_updateOracle(uint256,uint256,uint256)": "infinite",
				"_upscale(uint256,uint256)": "infinite",
				"_upscaleArray(uint256[] memory)": "infinite"
			}
		},
		"methodIdentifiers": {
			"DOMAIN_SEPARATOR()": "3644e515",
			"allowance(address,address)": "dd62ed3e",
			"approve(address,uint256)": "095ea7b3",
			"balanceOf(address)": "70a08231",
			"decimals()": "313ce567",
			"decreaseApproval(address,uint256)": "66188463",
			"enableOracle()": "292c914a",
			"getActionId(bytes4)": "851c1bb3",
			"getAuthorizer()": "aaabadc5",
			"getInvariant()": "c0ff1a15",
			"getLargestSafeQueryWindow()": "ffd088eb",
			"getLastInvariant()": "9b02cdde",
			"getLatest(uint8)": "b10be739",
			"getMiscData()": "4a6b0b15",
			"getNormalizedWeights()": "f89f27ed",
			"getOwner()": "893d20e8",
			"getPastAccumulators((uint8,uint256)[])": "6b843239",
			"getPausedState()": "1c0de051",
			"getPoolId()": "38fff2d0",
			"getRate()": "679aefce",
			"getSample(uint256)": "60d1507c",
			"getSwapFeePercentage()": "55c67628",
			"getTimeWeightedAverage((uint8,uint256,uint256)[])": "1dccd830",
			"getTotalSamples()": "b48b5b40",
			"getVault()": "8d928af8",
			"increaseApproval(address,uint256)": "d73dd623",
			"name()": "06fdde03",
			"nonces(address)": "7ecebe00",
			"onExitPool(bytes32,address,address,uint256[],uint256,uint256,bytes)": "74f3b009",
			"onJoinPool(bytes32,address,address,uint256[],uint256,uint256,bytes)": "d5c096c4",
			"onSwap((uint8,address,address,uint256,bytes32,uint256,address,address,bytes),uint256,uint256)": "9d2c110c",
			"permit(address,address,uint256,uint256,uint8,bytes32,bytes32)": "d505accf",
			"queryExit(bytes32,address,address,uint256[],uint256,uint256,bytes)": "6028bfd4",
			"queryJoin(bytes32,address,address,uint256[],uint256,uint256,bytes)": "87ec6817",
			"setPaused(bool)": "16c38b3c",
			"setSwapFeePercentage(uint256)": "38e9922e",
			"symbol()": "95d89b41",
			"totalSupply()": "18160ddd",
			"transfer(address,uint256)": "a9059cbb",
			"transferFrom(address,address,uint256)": "23b872dd"
		}
	},
	"abi": [
		{
			"inputs": [
				{
					"components": [
						{
							"internalType": "contract IVault",
							"name": "vault",
							"type": "address"
						},
						{
							"internalType": "string",
							"name": "name",
							"type": "string"
						},
						{
							"internalType": "string",
							"name": "symbol",
							"type": "string"
						},
						{
							"internalType": "contract IERC20",
							"name": "token0",
							"type": "address"
						},
						{
							"internalType": "contract IERC20",
							"name": "token1",
							"type": "address"
						},
						{
							"internalType": "uint256",
							"name": "normalizedWeight0",
							"type": "uint256"
						},
						{
							"internalType": "uint256",
							"name": "normalizedWeight1",
							"type": "uint256"
						},
						{
							"internalType": "uint256",
							"name": "swapFeePercentage",
							"type": "uint256"
						},
						{
							"internalType": "uint256",
							"name": "pauseWindowDuration",
							"type": "uint256"
						},
						{
							"internalType": "uint256",
							"name": "bufferPeriodDuration",
							"type": "uint256"
						},
						{
							"internalType": "bool",
							"name": "oracleEnabled",
							"type": "bool"
						},
						{
							"internalType": "address",
							"name": "owner",
							"type": "address"
						}
					],
					"internalType": "struct WeightedPool2Tokens.NewPoolParams",
					"name": "params",
					"type": "tuple"
				}
			],
			"stateMutability": "nonpayable",
			"type": "constructor"
		},
		{
			"anonymous": false,
			"inputs": [
				{
					"indexed": true,
					"internalType": "address",
					"name": "owner",
					"type": "address"
				},
				{
					"indexed": true,
					"internalType": "address",
					"name": "spender",
					"type": "address"
				},
				{
					"indexed": false,
					"internalType": "uint256",
					"name": "value",
					"type": "uint256"
				}
			],
			"name": "Approval",
			"type": "event"
		},
		{
			"anonymous": false,
			"inputs": [
				{
					"indexed": false,
					"internalType": "bool",
					"name": "enabled",
					"type": "bool"
				}
			],
			"name": "OracleEnabledChanged",
			"type": "event"
		},
		{
			"anonymous": false,
			"inputs": [
				{
					"indexed": false,
					"internalType": "bool",
					"name": "paused",
					"type": "bool"
				}
			],
			"name": "PausedStateChanged",
			"type": "event"
		},
		{
			"anonymous": false,
			"inputs": [
				{
					"indexed": false,
					"internalType": "uint256",
					"name": "swapFeePercentage",
					"type": "uint256"
				}
			],
			"name": "SwapFeePercentageChanged",
			"type": "event"
		},
		{
			"anonymous": false,
			"inputs": [
				{
					"indexed": true,
					"internalType": "address",
					"name": "from",
					"type": "address"
				},
				{
					"indexed": true,
					"internalType": "address",
					"name": "to",
					"type": "address"
				},
				{
					"indexed": false,
					"internalType": "uint256",
					"name": "value",
					"type": "uint256"
				}
			],
			"name": "Transfer",
			"type": "event"
		},
		{
			"inputs": [],
			"name": "DOMAIN_SEPARATOR",
			"outputs": [
				{
					"internalType": "bytes32",
					"name": "",
					"type": "bytes32"
				}
			],
			"stateMutability": "view",
			"type": "function"
		},
		{
			"inputs": [
				{
					"internalType": "address",
					"name": "owner",
					"type": "address"
				},
				{
					"internalType": "address",
					"name": "spender",
					"type": "address"
				}
			],
			"name": "allowance",
			"outputs": [
				{
					"internalType": "uint256",
					"name": "",
					"type": "uint256"
				}
			],
			"stateMutability": "view",
			"type": "function"
		},
		{
			"inputs": [
				{
					"internalType": "address",
					"name": "spender",
					"type": "address"
				},
				{
					"internalType": "uint256",
					"name": "amount",
					"type": "uint256"
				}
			],
			"name": "approve",
			"outputs": [
				{
					"internalType": "bool",
					"name": "",
					"type": "bool"
				}
			],
			"stateMutability": "nonpayable",
			"type": "function"
		},
		{
			"inputs": [
				{
					"internalType": "address",
					"name": "account",
					"type": "address"
				}
			],
			"name": "balanceOf",
			"outputs": [
				{
					"internalType": "uint256",
					"name": "",
					"type": "uint256"
				}
			],
			"stateMutability": "view",
			"type": "function"
		},
		{
			"inputs": [],
			"name": "decimals",
			"outputs": [
				{
					"internalType": "uint8",
					"name": "",
					"type": "uint8"
				}
			],
			"stateMutability": "pure",
			"type": "function"
		},
		{
			"inputs": [
				{
					"internalType": "address",
					"name": "spender",
					"type": "address"
				},
				{
					"internalType": "uint256",
					"name": "amount",
					"type": "uint256"
				}
			],
			"name": "decreaseApproval",
			"outputs": [
				{
					"internalType": "bool",
					"name": "",
					"type": "bool"
				}
			],
			"stateMutability": "nonpayable",
			"type": "function"
		},
		{
			"inputs": [],
			"name": "enableOracle",
			"outputs": [],
			"stateMutability": "nonpayable",
			"type": "function"
		},
		{
			"inputs": [
				{
					"internalType": "bytes4",
					"name": "selector",
					"type": "bytes4"
				}
			],
			"name": "getActionId",
			"outputs": [
				{
					"internalType": "bytes32",
					"name": "",
					"type": "bytes32"
				}
			],
			"stateMutability": "view",
			"type": "function"
		},
		{
			"inputs": [],
			"name": "getAuthorizer",
			"outputs": [
				{
					"internalType": "contract IAuthorizer",
					"name": "",
					"type": "address"
				}
			],
			"stateMutability": "view",
			"type": "function"
		},
		{
			"inputs": [],
			"name": "getInvariant",
			"outputs": [
				{
					"internalType": "uint256",
					"name": "",
					"type": "uint256"
				}
			],
			"stateMutability": "view",
			"type": "function"
		},
		{
			"inputs": [],
			"name": "getLargestSafeQueryWindow",
			"outputs": [
				{
					"internalType": "uint256",
					"name": "",
					"type": "uint256"
				}
			],
			"stateMutability": "pure",
			"type": "function"
		},
		{
			"inputs": [],
			"name": "getLastInvariant",
			"outputs": [
				{
					"internalType": "uint256",
					"name": "",
					"type": "uint256"
				}
			],
			"stateMutability": "view",
			"type": "function"
		},
		{
			"inputs": [
				{
					"internalType": "enum IPriceOracle.Variable",
					"name": "variable",
					"type": "uint8"
				}
			],
			"name": "getLatest",
			"outputs": [
				{
					"internalType": "uint256",
					"name": "",
					"type": "uint256"
				}
			],
			"stateMutability": "view",
			"type": "function"
		},
		{
			"inputs": [],
			"name": "getMiscData",
			"outputs": [
				{
					"internalType": "int256",
					"name": "logInvariant",
					"type": "int256"
				},
				{
					"internalType": "int256",
					"name": "logTotalSupply",
					"type": "int256"
				},
				{
					"internalType": "uint256",
					"name": "oracleSampleCreationTimestamp",
					"type": "uint256"
				},
				{
					"internalType": "uint256",
					"name": "oracleIndex",
					"type": "uint256"
				},
				{
					"internalType": "bool",
					"name": "oracleEnabled",
					"type": "bool"
				},
				{
					"internalType": "uint256",
					"name": "swapFeePercentage",
					"type": "uint256"
				}
			],
			"stateMutability": "view",
			"type": "function"
		},
		{
			"inputs": [],
			"name": "getNormalizedWeights",
			"outputs": [
				{
					"internalType": "uint256[]",
					"name": "",
					"type": "uint256[]"
				}
			],
			"stateMutability": "view",
			"type": "function"
		},
		{
			"inputs": [],
			"name": "getOwner",
			"outputs": [
				{
					"internalType": "address",
					"name": "",
					"type": "address"
				}
			],
			"stateMutability": "view",
			"type": "function"
		},
		{
			"inputs": [
				{
					"components": [
						{
							"internalType": "enum IPriceOracle.Variable",
							"name": "variable",
							"type": "uint8"
						},
						{
							"internalType": "uint256",
							"name": "ago",
							"type": "uint256"
						}
					],
					"internalType": "struct IPriceOracle.OracleAccumulatorQuery[]",
					"name": "queries",
					"type": "tuple[]"
				}
			],
			"name": "getPastAccumulators",
			"outputs": [
				{
					"internalType": "int256[]",
					"name": "results",
					"type": "int256[]"
				}
			],
			"stateMutability": "view",
			"type": "function"
		},
		{
			"inputs": [],
			"name": "getPausedState",
			"outputs": [
				{
					"internalType": "bool",
					"name": "paused",
					"type": "bool"
				},
				{
					"internalType": "uint256",
					"name": "pauseWindowEndTime",
					"type": "uint256"
				},
				{
					"internalType": "uint256",
					"name": "bufferPeriodEndTime",
					"type": "uint256"
				}
			],
			"stateMutability": "view",
			"type": "function"
		},
		{
			"inputs": [],
			"name": "getPoolId",
			"outputs": [
				{
					"internalType": "bytes32",
					"name": "",
					"type": "bytes32"
				}
			],
			"stateMutability": "view",
			"type": "function"
		},
		{
			"inputs": [],
			"name": "getRate",
			"outputs": [
				{
					"internalType": "uint256",
					"name": "",
					"type": "uint256"
				}
			],
			"stateMutability": "view",
			"type": "function"
		},
		{
			"inputs": [
				{
					"internalType": "uint256",
					"name": "index",
					"type": "uint256"
				}
			],
			"name": "getSample",
			"outputs": [
				{
					"internalType": "int256",
					"name": "logPairPrice",
					"type": "int256"
				},
				{
					"internalType": "int256",
					"name": "accLogPairPrice",
					"type": "int256"
				},
				{
					"internalType": "int256",
					"name": "logBptPrice",
					"type": "int256"
				},
				{
					"internalType": "int256",
					"name": "accLogBptPrice",
					"type": "int256"
				},
				{
					"internalType": "int256",
					"name": "logInvariant",
					"type": "int256"
				},
				{
					"internalType": "int256",
					"name": "accLogInvariant",
					"type": "int256"
				},
				{
					"internalType": "uint256",
					"name": "timestamp",
					"type": "uint256"
				}
			],
			"stateMutability": "view",
			"type": "function"
		},
		{
			"inputs": [],
			"name": "getSwapFeePercentage",
			"outputs": [
				{
					"internalType": "uint256",
					"name": "",
					"type": "uint256"
				}
			],
			"stateMutability": "view",
			"type": "function"
		},
		{
			"inputs": [
				{
					"components": [
						{
							"internalType": "enum IPriceOracle.Variable",
							"name": "variable",
							"type": "uint8"
						},
						{
							"internalType": "uint256",
							"name": "secs",
							"type": "uint256"
						},
						{
							"internalType": "uint256",
							"name": "ago",
							"type": "uint256"
						}
					],
					"internalType": "struct IPriceOracle.OracleAverageQuery[]",
					"name": "queries",
					"type": "tuple[]"
				}
			],
			"name": "getTimeWeightedAverage",
			"outputs": [
				{
					"internalType": "uint256[]",
					"name": "results",
					"type": "uint256[]"
				}
			],
			"stateMutability": "view",
			"type": "function"
		},
		{
			"inputs": [],
			"name": "getTotalSamples",
			"outputs": [
				{
					"internalType": "uint256",
					"name": "",
					"type": "uint256"
				}
			],
			"stateMutability": "pure",
			"type": "function"
		},
		{
			"inputs": [],
			"name": "getVault",
			"outputs": [
				{
					"internalType": "contract IVault",
					"name": "",
					"type": "address"
				}
			],
			"stateMutability": "view",
			"type": "function"
		},
		{
			"inputs": [
				{
					"internalType": "address",
					"name": "spender",
					"type": "address"
				},
				{
					"internalType": "uint256",
					"name": "amount",
					"type": "uint256"
				}
			],
			"name": "increaseApproval",
			"outputs": [
				{
					"internalType": "bool",
					"name": "",
					"type": "bool"
				}
			],
			"stateMutability": "nonpayable",
			"type": "function"
		},
		{
			"inputs": [],
			"name": "name",
			"outputs": [
				{
					"internalType": "string",
					"name": "",
					"type": "string"
				}
			],
			"stateMutability": "view",
			"type": "function"
		},
		{
			"inputs": [
				{
					"internalType": "address",
					"name": "owner",
					"type": "address"
				}
			],
			"name": "nonces",
			"outputs": [
				{
					"internalType": "uint256",
					"name": "",
					"type": "uint256"
				}
			],
			"stateMutability": "view",
			"type": "function"
		},
		{
			"inputs": [
				{
					"internalType": "bytes32",
					"name": "poolId",
					"type": "bytes32"
				},
				{
					"internalType": "address",
					"name": "sender",
					"type": "address"
				},
				{
					"internalType": "address",
					"name": "recipient",
					"type": "address"
				},
				{
					"internalType": "uint256[]",
					"name": "balances",
					"type": "uint256[]"
				},
				{
					"internalType": "uint256",
					"name": "lastChangeBlock",
					"type": "uint256"
				},
				{
					"internalType": "uint256",
					"name": "protocolSwapFeePercentage",
					"type": "uint256"
				},
				{
					"internalType": "bytes",
					"name": "userData",
					"type": "bytes"
				}
			],
			"name": "onExitPool",
			"outputs": [
				{
					"internalType": "uint256[]",
					"name": "",
					"type": "uint256[]"
				},
				{
					"internalType": "uint256[]",
					"name": "",
					"type": "uint256[]"
				}
			],
			"stateMutability": "nonpayable",
			"type": "function"
		},
		{
			"inputs": [
				{
					"internalType": "bytes32",
					"name": "poolId",
					"type": "bytes32"
				},
				{
					"internalType": "address",
					"name": "sender",
					"type": "address"
				},
				{
					"internalType": "address",
					"name": "recipient",
					"type": "address"
				},
				{
					"internalType": "uint256[]",
					"name": "balances",
					"type": "uint256[]"
				},
				{
					"internalType": "uint256",
					"name": "lastChangeBlock",
					"type": "uint256"
				},
				{
					"internalType": "uint256",
					"name": "protocolSwapFeePercentage",
					"type": "uint256"
				},
				{
					"internalType": "bytes",
					"name": "userData",
					"type": "bytes"
				}
			],
			"name": "onJoinPool",
			"outputs": [
				{
					"internalType": "uint256[]",
					"name": "amountsIn",
					"type": "uint256[]"
				},
				{
					"internalType": "uint256[]",
					"name": "dueProtocolFeeAmounts",
					"type": "uint256[]"
				}
			],
			"stateMutability": "nonpayable",
			"type": "function"
		},
		{
			"inputs": [
				{
					"components": [
						{
							"internalType": "enum IVault.SwapKind",
							"name": "kind",
							"type": "uint8"
						},
						{
							"internalType": "contract IERC20",
							"name": "tokenIn",
							"type": "address"
						},
						{
							"internalType": "contract IERC20",
							"name": "tokenOut",
							"type": "address"
						},
						{
							"internalType": "uint256",
							"name": "amount",
							"type": "uint256"
						},
						{
							"internalType": "bytes32",
							"name": "poolId",
							"type": "bytes32"
						},
						{
							"internalType": "uint256",
							"name": "lastChangeBlock",
							"type": "uint256"
						},
						{
							"internalType": "address",
							"name": "from",
							"type": "address"
						},
						{
							"internalType": "address",
							"name": "to",
							"type": "address"
						},
						{
							"internalType": "bytes",
							"name": "userData",
							"type": "bytes"
						}
					],
					"internalType": "struct IPoolSwapStructs.SwapRequest",
					"name": "request",
					"type": "tuple"
				},
				{
					"internalType": "uint256",
					"name": "balanceTokenIn",
					"type": "uint256"
				},
				{
					"internalType": "uint256",
					"name": "balanceTokenOut",
					"type": "uint256"
				}
			],
			"name": "onSwap",
			"outputs": [
				{
					"internalType": "uint256",
					"name": "",
					"type": "uint256"
				}
			],
			"stateMutability": "nonpayable",
			"type": "function"
		},
		{
			"inputs": [
				{
					"internalType": "address",
					"name": "owner",
					"type": "address"
				},
				{
					"internalType": "address",
					"name": "spender",
					"type": "address"
				},
				{
					"internalType": "uint256",
					"name": "value",
					"type": "uint256"
				},
				{
					"internalType": "uint256",
					"name": "deadline",
					"type": "uint256"
				},
				{
					"internalType": "uint8",
					"name": "v",
					"type": "uint8"
				},
				{
					"internalType": "bytes32",
					"name": "r",
					"type": "bytes32"
				},
				{
					"internalType": "bytes32",
					"name": "s",
					"type": "bytes32"
				}
			],
			"name": "permit",
			"outputs": [],
			"stateMutability": "nonpayable",
			"type": "function"
		},
		{
			"inputs": [
				{
					"internalType": "bytes32",
					"name": "poolId",
					"type": "bytes32"
				},
				{
					"internalType": "address",
					"name": "sender",
					"type": "address"
				},
				{
					"internalType": "address",
					"name": "recipient",
					"type": "address"
				},
				{
					"internalType": "uint256[]",
					"name": "balances",
					"type": "uint256[]"
				},
				{
					"internalType": "uint256",
					"name": "lastChangeBlock",
					"type": "uint256"
				},
				{
					"internalType": "uint256",
					"name": "protocolSwapFeePercentage",
					"type": "uint256"
				},
				{
					"internalType": "bytes",
					"name": "userData",
					"type": "bytes"
				}
			],
			"name": "queryExit",
			"outputs": [
				{
					"internalType": "uint256",
					"name": "bptIn",
					"type": "uint256"
				},
				{
					"internalType": "uint256[]",
					"name": "amountsOut",
					"type": "uint256[]"
				}
			],
			"stateMutability": "nonpayable",
			"type": "function"
		},
		{
			"inputs": [
				{
					"internalType": "bytes32",
					"name": "poolId",
					"type": "bytes32"
				},
				{
					"internalType": "address",
					"name": "sender",
					"type": "address"
				},
				{
					"internalType": "address",
					"name": "recipient",
					"type": "address"
				},
				{
					"internalType": "uint256[]",
					"name": "balances",
					"type": "uint256[]"
				},
				{
					"internalType": "uint256",
					"name": "lastChangeBlock",
					"type": "uint256"
				},
				{
					"internalType": "uint256",
					"name": "protocolSwapFeePercentage",
					"type": "uint256"
				},
				{
					"internalType": "bytes",
					"name": "userData",
					"type": "bytes"
				}
			],
			"name": "queryJoin",
			"outputs": [
				{
					"internalType": "uint256",
					"name": "bptOut",
					"type": "uint256"
				},
				{
					"internalType": "uint256[]",
					"name": "amountsIn",
					"type": "uint256[]"
				}
			],
			"stateMutability": "nonpayable",
			"type": "function"
		},
		{
			"inputs": [
				{
					"internalType": "bool",
					"name": "paused",
					"type": "bool"
				}
			],
			"name": "setPaused",
			"outputs": [],
			"stateMutability": "nonpayable",
			"type": "function"
		},
		{
			"inputs": [
				{
					"internalType": "uint256",
					"name": "swapFeePercentage",
					"type": "uint256"
				}
			],
			"name": "setSwapFeePercentage",
			"outputs": [],
			"stateMutability": "nonpayable",
			"type": "function"
		},
		{
			"inputs": [],
			"name": "symbol",
			"outputs": [
				{
					"internalType": "string",
					"name": "",
					"type": "string"
				}
			],
			"stateMutability": "view",
			"type": "function"
		},
		{
			"inputs": [],
			"name": "totalSupply",
			"outputs": [
				{
					"internalType": "uint256",
					"name": "",
					"type": "uint256"
				}
			],
			"stateMutability": "view",
			"type": "function"
		},
		{
			"inputs": [
				{
					"internalType": "address",
					"name": "recipient",
					"type": "address"
				},
				{
					"internalType": "uint256",
					"name": "amount",
					"type": "uint256"
				}
			],
			"name": "transfer",
			"outputs": [
				{
					"internalType": "bool",
					"name": "",
					"type": "bool"
				}
			],
			"stateMutability": "nonpayable",
			"type": "function"
		},
		{
			"inputs": [
				{
					"internalType": "address",
					"name": "sender",
					"type": "address"
				},
				{
					"internalType": "address",
					"name": "recipient",
					"type": "address"
				},
				{
					"internalType": "uint256",
					"name": "amount",
					"type": "uint256"
				}
			],
			"name": "transferFrom",
			"outputs": [
				{
					"internalType": "bool",
					"name": "",
					"type": "bool"
				}
			],
			"stateMutability": "nonpayable",
			"type": "function"
		}
	]
}